{
	"contracts/studentmanager/factories/Factory.sol": {
		"Factory": {
			"abi": [
				{
					"inputs": [
						{
							"internalType": "address",
							"name": "mission",
							"type": "address"
						},
						{
							"internalType": "address",
							"name": "subject",
							"type": "address"
						},
						{
							"internalType": "address",
							"name": "scholarship",
							"type": "address"
						},
						{
							"internalType": "address",
							"name": "tuition",
							"type": "address"
						}
					],
					"stateMutability": "nonpayable",
					"type": "constructor"
				},
				{
					"anonymous": false,
					"inputs": [
						{
							"indexed": true,
							"internalType": "address",
							"name": "previousOwner",
							"type": "address"
						},
						{
							"indexed": true,
							"internalType": "address",
							"name": "newOwner",
							"type": "address"
						}
					],
					"name": "OwnershipTransferred",
					"type": "event"
				},
				{
					"inputs": [
						{
							"internalType": "address",
							"name": "owner",
							"type": "address"
						},
						{
							"internalType": "address",
							"name": "accessControll",
							"type": "address"
						},
						{
							"internalType": "address",
							"name": "rewardDistributor",
							"type": "address"
						}
					],
					"name": "createNewMission",
					"outputs": [
						{
							"internalType": "address",
							"name": "",
							"type": "address"
						}
					],
					"stateMutability": "nonpayable",
					"type": "function"
				},
				{
					"inputs": [
						{
							"internalType": "address",
							"name": "owner",
							"type": "address"
						},
						{
							"internalType": "address",
							"name": "accessControll",
							"type": "address"
						},
						{
							"internalType": "address",
							"name": "rewardDistributor",
							"type": "address"
						}
					],
					"name": "createNewScholarship",
					"outputs": [
						{
							"internalType": "address",
							"name": "",
							"type": "address"
						}
					],
					"stateMutability": "nonpayable",
					"type": "function"
				},
				{
					"inputs": [
						{
							"internalType": "address",
							"name": "owner",
							"type": "address"
						},
						{
							"internalType": "address",
							"name": "accessControll",
							"type": "address"
						}
					],
					"name": "createNewSubject",
					"outputs": [
						{
							"internalType": "address",
							"name": "",
							"type": "address"
						}
					],
					"stateMutability": "nonpayable",
					"type": "function"
				},
				{
					"inputs": [
						{
							"internalType": "address",
							"name": "owner",
							"type": "address"
						},
						{
							"internalType": "address",
							"name": "accessControll",
							"type": "address"
						},
						{
							"internalType": "address",
							"name": "rewardDistributor",
							"type": "address"
						},
						{
							"internalType": "address",
							"name": "_UITToken",
							"type": "address"
						}
					],
					"name": "createNewTuition",
					"outputs": [
						{
							"internalType": "address",
							"name": "",
							"type": "address"
						}
					],
					"stateMutability": "nonpayable",
					"type": "function"
				},
				{
					"inputs": [
						{
							"internalType": "enum IFactory.Object",
							"name": "_object",
							"type": "uint8"
						}
					],
					"name": "getObject",
					"outputs": [
						{
							"internalType": "address",
							"name": "",
							"type": "address"
						}
					],
					"stateMutability": "view",
					"type": "function"
				},
				{
					"inputs": [
						{
							"internalType": "enum IFactory.Object",
							"name": "",
							"type": "uint8"
						}
					],
					"name": "object",
					"outputs": [
						{
							"internalType": "address",
							"name": "",
							"type": "address"
						}
					],
					"stateMutability": "view",
					"type": "function"
				},
				{
					"inputs": [],
					"name": "owner",
					"outputs": [
						{
							"internalType": "address",
							"name": "",
							"type": "address"
						}
					],
					"stateMutability": "view",
					"type": "function"
				},
				{
					"inputs": [],
					"name": "renounceOwnership",
					"outputs": [],
					"stateMutability": "nonpayable",
					"type": "function"
				},
				{
					"inputs": [
						{
							"internalType": "address",
							"name": "mission",
							"type": "address"
						},
						{
							"internalType": "address",
							"name": "subject",
							"type": "address"
						},
						{
							"internalType": "address",
							"name": "scholarship",
							"type": "address"
						},
						{
							"internalType": "address",
							"name": "tuition",
							"type": "address"
						}
					],
					"name": "setObject",
					"outputs": [],
					"stateMutability": "nonpayable",
					"type": "function"
				},
				{
					"inputs": [
						{
							"internalType": "address",
							"name": "newOwner",
							"type": "address"
						}
					],
					"name": "transferOwnership",
					"outputs": [],
					"stateMutability": "nonpayable",
					"type": "function"
				}
			],
			"devdoc": {
				"kind": "dev",
				"methods": {
					"owner()": {
						"details": "Returns the address of the current owner."
					},
					"renounceOwnership()": {
						"details": "Leaves the contract without owner. It will not be possible to call `onlyOwner` functions anymore. Can only be called by the current owner. NOTE: Renouncing ownership will leave the contract without an owner, thereby removing any functionality that is only available to the owner."
					},
					"transferOwnership(address)": {
						"details": "Transfers ownership of the contract to a new account (`newOwner`). Can only be called by the current owner."
					}
				},
				"version": 1
			},
			"evm": {
				"assembly": "    /* \"contracts/studentmanager/factories/Factory.sol\":344:2875  contract Factory is Ownable, IFactory {\r... */\n  mstore(0x40, 0x80)\n    /* \"contracts/studentmanager/factories/Factory.sol\":438:753  constructor(\r... */\n  callvalue\n  dup1\n  iszero\n  tag_1\n  jumpi\n  0x00\n  dup1\n  revert\ntag_1:\n  pop\n  mload(0x40)\n  sub(codesize, bytecodeSize)\n  dup1\n  bytecodeSize\n  dup4\n  codecopy\n  dup2\n  dup2\n  add\n  0x40\n  mstore\n  dup2\n  add\n  swap1\n  tag_2\n  swap2\n  swap1\n  tag_3\n  jump\t// in\ntag_2:\n    /* \"@openzeppelin/contracts/access/Ownable.sol\":921:953  _transferOwnership(_msgSender()) */\n  tag_7\n    /* \"@openzeppelin/contracts/access/Ownable.sol\":940:952  _msgSender() */\n  tag_8\n    /* \"@openzeppelin/contracts/access/Ownable.sol\":940:950  _msgSender */\n  shl(0x20, tag_9)\n    /* \"@openzeppelin/contracts/access/Ownable.sol\":940:952  _msgSender() */\n  0x20\n  shr\n  jump\t// in\ntag_8:\n    /* \"@openzeppelin/contracts/access/Ownable.sol\":921:939  _transferOwnership */\n  shl(0x20, tag_10)\n    /* \"@openzeppelin/contracts/access/Ownable.sol\":921:953  _transferOwnership(_msgSender()) */\n  0x20\n  shr\n  jump\t// in\ntag_7:\n    /* \"contracts/studentmanager/factories/Factory.sol\":601:608  mission */\n  dup4\n    /* \"contracts/studentmanager/factories/Factory.sol\":576:582  object */\n  0x01\n    /* \"contracts/studentmanager/factories/Factory.sol\":576:598  object[Object.Mission] */\n  0x00\n    /* \"contracts/studentmanager/factories/Factory.sol\":583:597  Object.Mission */\n  dup1\n    /* \"contracts/studentmanager/factories/Factory.sol\":576:598  object[Object.Mission] */\n  0x03\n  dup2\n  gt\n  iszero\n  tag_12\n  jumpi\n  tag_13\n  tag_14\n  jump\t// in\ntag_13:\ntag_12:\n  0x03\n  dup2\n  gt\n  iszero\n  tag_15\n  jumpi\n  tag_16\n  tag_14\n  jump\t// in\ntag_16:\ntag_15:\n  dup2\n  mstore\n  0x20\n  add\n  swap1\n  dup2\n  mstore\n  0x20\n  add\n  0x00\n  keccak256\n  0x00\n    /* \"contracts/studentmanager/factories/Factory.sol\":576:608  object[Object.Mission] = mission */\n  0x0100\n  exp\n  dup2\n  sload\n  dup2\n  0xffffffffffffffffffffffffffffffffffffffff\n  mul\n  not\n  and\n  swap1\n  dup4\n  0xffffffffffffffffffffffffffffffffffffffff\n  and\n  mul\n  or\n  swap1\n  sstore\n  pop\n    /* \"contracts/studentmanager/factories/Factory.sol\":644:651  subject */\n  dup3\n    /* \"contracts/studentmanager/factories/Factory.sol\":619:625  object */\n  0x01\n    /* \"contracts/studentmanager/factories/Factory.sol\":619:641  object[Object.Subject] */\n  0x00\n    /* \"contracts/studentmanager/factories/Factory.sol\":626:640  Object.Subject */\n  0x01\n    /* \"contracts/studentmanager/factories/Factory.sol\":619:641  object[Object.Subject] */\n  0x03\n  dup2\n  gt\n  iszero\n  tag_17\n  jumpi\n  tag_18\n  tag_14\n  jump\t// in\ntag_18:\ntag_17:\n  0x03\n  dup2\n  gt\n  iszero\n  tag_19\n  jumpi\n  tag_20\n  tag_14\n  jump\t// in\ntag_20:\ntag_19:\n  dup2\n  mstore\n  0x20\n  add\n  swap1\n  dup2\n  mstore\n  0x20\n  add\n  0x00\n  keccak256\n  0x00\n    /* \"contracts/studentmanager/factories/Factory.sol\":619:651  object[Object.Subject] = subject */\n  0x0100\n  exp\n  dup2\n  sload\n  dup2\n  0xffffffffffffffffffffffffffffffffffffffff\n  mul\n  not\n  and\n  swap1\n  dup4\n  0xffffffffffffffffffffffffffffffffffffffff\n  and\n  mul\n  or\n  swap1\n  sstore\n  pop\n    /* \"contracts/studentmanager/factories/Factory.sol\":691:702  scholarship */\n  dup2\n    /* \"contracts/studentmanager/factories/Factory.sol\":662:668  object */\n  0x01\n    /* \"contracts/studentmanager/factories/Factory.sol\":662:688  object[Object.Scholarship] */\n  0x00\n    /* \"contracts/studentmanager/factories/Factory.sol\":669:687  Object.Scholarship */\n  0x02\n    /* \"contracts/studentmanager/factories/Factory.sol\":662:688  object[Object.Scholarship] */\n  0x03\n  dup2\n  gt\n  iszero\n  tag_21\n  jumpi\n  tag_22\n  tag_14\n  jump\t// in\ntag_22:\ntag_21:\n  0x03\n  dup2\n  gt\n  iszero\n  tag_23\n  jumpi\n  tag_24\n  tag_14\n  jump\t// in\ntag_24:\ntag_23:\n  dup2\n  mstore\n  0x20\n  add\n  swap1\n  dup2\n  mstore\n  0x20\n  add\n  0x00\n  keccak256\n  0x00\n    /* \"contracts/studentmanager/factories/Factory.sol\":662:702  object[Object.Scholarship] = scholarship */\n  0x0100\n  exp\n  dup2\n  sload\n  dup2\n  0xffffffffffffffffffffffffffffffffffffffff\n  mul\n  not\n  and\n  swap1\n  dup4\n  0xffffffffffffffffffffffffffffffffffffffff\n  and\n  mul\n  or\n  swap1\n  sstore\n  pop\n    /* \"contracts/studentmanager/factories/Factory.sol\":738:745  tuition */\n  dup1\n    /* \"contracts/studentmanager/factories/Factory.sol\":713:719  object */\n  0x01\n    /* \"contracts/studentmanager/factories/Factory.sol\":713:735  object[Object.Tuition] */\n  0x00\n    /* \"contracts/studentmanager/factories/Factory.sol\":720:734  Object.Tuition */\n  0x03\n    /* \"contracts/studentmanager/factories/Factory.sol\":713:735  object[Object.Tuition] */\n  dup1\n  dup2\n  gt\n  iszero\n  tag_25\n  jumpi\n  tag_26\n  tag_14\n  jump\t// in\ntag_26:\ntag_25:\n  0x03\n  dup2\n  gt\n  iszero\n  tag_27\n  jumpi\n  tag_28\n  tag_14\n  jump\t// in\ntag_28:\ntag_27:\n  dup2\n  mstore\n  0x20\n  add\n  swap1\n  dup2\n  mstore\n  0x20\n  add\n  0x00\n  keccak256\n  0x00\n    /* \"contracts/studentmanager/factories/Factory.sol\":713:745  object[Object.Tuition] = tuition */\n  0x0100\n  exp\n  dup2\n  sload\n  dup2\n  0xffffffffffffffffffffffffffffffffffffffff\n  mul\n  not\n  and\n  swap1\n  dup4\n  0xffffffffffffffffffffffffffffffffffffffff\n  and\n  mul\n  or\n  swap1\n  sstore\n  pop\n    /* \"contracts/studentmanager/factories/Factory.sol\":438:753  constructor(\r... */\n  pop\n  pop\n  pop\n  pop\n    /* \"contracts/studentmanager/factories/Factory.sol\":344:2875  contract Factory is Ownable, IFactory {\r... */\n  jump(tag_29)\n    /* \"@openzeppelin/contracts/utils/Context.sol\":640:736  function _msgSender() internal view virtual returns (address) {... */\ntag_9:\n    /* \"@openzeppelin/contracts/utils/Context.sol\":693:700  address */\n  0x00\n    /* \"@openzeppelin/contracts/utils/Context.sol\":719:729  msg.sender */\n  caller\n    /* \"@openzeppelin/contracts/utils/Context.sol\":712:729  return msg.sender */\n  swap1\n  pop\n    /* \"@openzeppelin/contracts/utils/Context.sol\":640:736  function _msgSender() internal view virtual returns (address) {... */\n  swap1\n  jump\t// out\n    /* \"@openzeppelin/contracts/access/Ownable.sol\":2270:2457  function _transferOwnership(address newOwner) internal virtual {... */\ntag_10:\n    /* \"@openzeppelin/contracts/access/Ownable.sol\":2343:2359  address oldOwner */\n  0x00\n    /* \"@openzeppelin/contracts/access/Ownable.sol\":2362:2368  _owner */\n  dup1\n  0x00\n  swap1\n  sload\n  swap1\n  0x0100\n  exp\n  swap1\n  div\n  0xffffffffffffffffffffffffffffffffffffffff\n  and\n    /* \"@openzeppelin/contracts/access/Ownable.sol\":2343:2368  address oldOwner = _owner */\n  swap1\n  pop\n    /* \"@openzeppelin/contracts/access/Ownable.sol\":2387:2395  newOwner */\n  dup2\n    /* \"@openzeppelin/contracts/access/Ownable.sol\":2378:2384  _owner */\n  0x00\n  dup1\n    /* \"@openzeppelin/contracts/access/Ownable.sol\":2378:2395  _owner = newOwner */\n  0x0100\n  exp\n  dup2\n  sload\n  dup2\n  0xffffffffffffffffffffffffffffffffffffffff\n  mul\n  not\n  and\n  swap1\n  dup4\n  0xffffffffffffffffffffffffffffffffffffffff\n  and\n  mul\n  or\n  swap1\n  sstore\n  pop\n    /* \"@openzeppelin/contracts/access/Ownable.sol\":2441:2449  newOwner */\n  dup2\n    /* \"@openzeppelin/contracts/access/Ownable.sol\":2410:2450  OwnershipTransferred(oldOwner, newOwner) */\n  0xffffffffffffffffffffffffffffffffffffffff\n  and\n    /* \"@openzeppelin/contracts/access/Ownable.sol\":2431:2439  oldOwner */\n  dup2\n    /* \"@openzeppelin/contracts/access/Ownable.sol\":2410:2450  OwnershipTransferred(oldOwner, newOwner) */\n  0xffffffffffffffffffffffffffffffffffffffff\n  and\n  0x8be0079c531659141344cd1fd0a4f28419497f9722a3daafe3b4186f6b6457e0\n  mload(0x40)\n  mload(0x40)\n  dup1\n  swap2\n  sub\n  swap1\n  log3\n    /* \"@openzeppelin/contracts/access/Ownable.sol\":2333:2457  {... */\n  pop\n    /* \"@openzeppelin/contracts/access/Ownable.sol\":2270:2457  function _transferOwnership(address newOwner) internal virtual {... */\n  pop\n  jump\t// out\n    /* \"#utility.yul\":7:150   */\ntag_33:\n    /* \"#utility.yul\":64:69   */\n  0x00\n    /* \"#utility.yul\":95:101   */\n  dup2\n    /* \"#utility.yul\":89:102   */\n  mload\n    /* \"#utility.yul\":80:102   */\n  swap1\n  pop\n    /* \"#utility.yul\":111:144   */\n  tag_35\n    /* \"#utility.yul\":138:143   */\n  dup2\n    /* \"#utility.yul\":111:144   */\n  tag_36\n  jump\t// in\ntag_35:\n    /* \"#utility.yul\":7:150   */\n  swap3\n  swap2\n  pop\n  pop\n  jump\t// out\n    /* \"#utility.yul\":156:976   */\ntag_3:\n    /* \"#utility.yul\":253:259   */\n  0x00\n    /* \"#utility.yul\":261:267   */\n  dup1\n    /* \"#utility.yul\":269:275   */\n  0x00\n    /* \"#utility.yul\":277:283   */\n  dup1\n    /* \"#utility.yul\":326:329   */\n  0x80\n    /* \"#utility.yul\":314:323   */\n  dup6\n    /* \"#utility.yul\":305:312   */\n  dup8\n    /* \"#utility.yul\":301:324   */\n  sub\n    /* \"#utility.yul\":297:330   */\n  slt\n    /* \"#utility.yul\":294:414   */\n  iszero\n  tag_38\n  jumpi\n    /* \"#utility.yul\":333:412   */\n  tag_39\n  tag_40\n  jump\t// in\ntag_39:\n    /* \"#utility.yul\":294:414   */\ntag_38:\n    /* \"#utility.yul\":453:454   */\n  0x00\n    /* \"#utility.yul\":478:542   */\n  tag_41\n    /* \"#utility.yul\":534:541   */\n  dup8\n    /* \"#utility.yul\":525:531   */\n  dup3\n    /* \"#utility.yul\":514:523   */\n  dup9\n    /* \"#utility.yul\":510:532   */\n  add\n    /* \"#utility.yul\":478:542   */\n  tag_33\n  jump\t// in\ntag_41:\n    /* \"#utility.yul\":468:542   */\n  swap5\n  pop\n    /* \"#utility.yul\":424:552   */\n  pop\n    /* \"#utility.yul\":591:593   */\n  0x20\n    /* \"#utility.yul\":617:681   */\n  tag_42\n    /* \"#utility.yul\":673:680   */\n  dup8\n    /* \"#utility.yul\":664:670   */\n  dup3\n    /* \"#utility.yul\":653:662   */\n  dup9\n    /* \"#utility.yul\":649:671   */\n  add\n    /* \"#utility.yul\":617:681   */\n  tag_33\n  jump\t// in\ntag_42:\n    /* \"#utility.yul\":607:681   */\n  swap4\n  pop\n    /* \"#utility.yul\":562:691   */\n  pop\n    /* \"#utility.yul\":730:732   */\n  0x40\n    /* \"#utility.yul\":756:820   */\n  tag_43\n    /* \"#utility.yul\":812:819   */\n  dup8\n    /* \"#utility.yul\":803:809   */\n  dup3\n    /* \"#utility.yul\":792:801   */\n  dup9\n    /* \"#utility.yul\":788:810   */\n  add\n    /* \"#utility.yul\":756:820   */\n  tag_33\n  jump\t// in\ntag_43:\n    /* \"#utility.yul\":746:820   */\n  swap3\n  pop\n    /* \"#utility.yul\":701:830   */\n  pop\n    /* \"#utility.yul\":869:871   */\n  0x60\n    /* \"#utility.yul\":895:959   */\n  tag_44\n    /* \"#utility.yul\":951:958   */\n  dup8\n    /* \"#utility.yul\":942:948   */\n  dup3\n    /* \"#utility.yul\":931:940   */\n  dup9\n    /* \"#utility.yul\":927:949   */\n  add\n    /* \"#utility.yul\":895:959   */\n  tag_33\n  jump\t// in\ntag_44:\n    /* \"#utility.yul\":885:959   */\n  swap2\n  pop\n    /* \"#utility.yul\":840:969   */\n  pop\n    /* \"#utility.yul\":156:976   */\n  swap3\n  swap6\n  swap2\n  swap5\n  pop\n  swap3\n  pop\n  jump\t// out\n    /* \"#utility.yul\":1063:1159   */\ntag_47:\n    /* \"#utility.yul\":1100:1107   */\n  0x00\n    /* \"#utility.yul\":1129:1153   */\n  tag_49\n    /* \"#utility.yul\":1147:1152   */\n  dup3\n    /* \"#utility.yul\":1129:1153   */\n  tag_50\n  jump\t// in\ntag_49:\n    /* \"#utility.yul\":1118:1153   */\n  swap1\n  pop\n    /* \"#utility.yul\":1063:1159   */\n  swap2\n  swap1\n  pop\n  jump\t// out\n    /* \"#utility.yul\":1165:1291   */\ntag_50:\n    /* \"#utility.yul\":1202:1209   */\n  0x00\n    /* \"#utility.yul\":1242:1284   */\n  0xffffffffffffffffffffffffffffffffffffffff\n    /* \"#utility.yul\":1235:1240   */\n  dup3\n    /* \"#utility.yul\":1231:1285   */\n  and\n    /* \"#utility.yul\":1220:1285   */\n  swap1\n  pop\n    /* \"#utility.yul\":1165:1291   */\n  swap2\n  swap1\n  pop\n  jump\t// out\n    /* \"#utility.yul\":1297:1477   */\ntag_14:\n    /* \"#utility.yul\":1345:1422   */\n  0x4e487b7100000000000000000000000000000000000000000000000000000000\n    /* \"#utility.yul\":1342:1343   */\n  0x00\n    /* \"#utility.yul\":1335:1423   */\n  mstore\n    /* \"#utility.yul\":1442:1446   */\n  0x21\n    /* \"#utility.yul\":1439:1440   */\n  0x04\n    /* \"#utility.yul\":1432:1447   */\n  mstore\n    /* \"#utility.yul\":1466:1470   */\n  0x24\n    /* \"#utility.yul\":1463:1464   */\n  0x00\n    /* \"#utility.yul\":1456:1471   */\n  revert\n    /* \"#utility.yul\":1606:1723   */\ntag_40:\n    /* \"#utility.yul\":1715:1716   */\n  0x00\n    /* \"#utility.yul\":1712:1713   */\n  dup1\n    /* \"#utility.yul\":1705:1717   */\n  revert\n    /* \"#utility.yul\":1729:1851   */\ntag_36:\n    /* \"#utility.yul\":1802:1826   */\n  tag_57\n    /* \"#utility.yul\":1820:1825   */\n  dup2\n    /* \"#utility.yul\":1802:1826   */\n  tag_47\n  jump\t// in\ntag_57:\n    /* \"#utility.yul\":1795:1800   */\n  dup2\n    /* \"#utility.yul\":1792:1827   */\n  eq\n    /* \"#utility.yul\":1782:1845   */\n  tag_58\n  jumpi\n    /* \"#utility.yul\":1841:1842   */\n  0x00\n    /* \"#utility.yul\":1838:1839   */\n  dup1\n    /* \"#utility.yul\":1831:1843   */\n  revert\n    /* \"#utility.yul\":1782:1845   */\ntag_58:\n    /* \"#utility.yul\":1729:1851   */\n  pop\n  jump\t// out\n    /* \"contracts/studentmanager/factories/Factory.sol\":344:2875  contract Factory is Ownable, IFactory {\r... */\ntag_29:\n  dataSize(sub_0)\n  dup1\n  dataOffset(sub_0)\n  0x00\n  codecopy\n  0x00\n  return\nstop\n\nsub_0: assembly {\n        /* \"contracts/studentmanager/factories/Factory.sol\":344:2875  contract Factory is Ownable, IFactory {\r... */\n      mstore(0x40, 0x80)\n      callvalue\n      dup1\n      iszero\n      tag_1\n      jumpi\n      0x00\n      dup1\n      revert\n    tag_1:\n      pop\n      jumpi(tag_2, lt(calldatasize, 0x04))\n      shr(0xe0, calldataload(0x00))\n      dup1\n      0x9cd5973d\n      gt\n      tag_13\n      jumpi\n      dup1\n      0x9cd5973d\n      eq\n      tag_8\n      jumpi\n      dup1\n      0xb928882e\n      eq\n      tag_9\n      jumpi\n      dup1\n      0xc124178a\n      eq\n      tag_10\n      jumpi\n      dup1\n      0xe162fa77\n      eq\n      tag_11\n      jumpi\n      dup1\n      0xf2fde38b\n      eq\n      tag_12\n      jumpi\n      jump(tag_2)\n    tag_13:\n      dup1\n      0x0e8cac98\n      eq\n      tag_3\n      jumpi\n      dup1\n      0x14560c38\n      eq\n      tag_4\n      jumpi\n      dup1\n      0x378ac245\n      eq\n      tag_5\n      jumpi\n      dup1\n      0x715018a6\n      eq\n      tag_6\n      jumpi\n      dup1\n      0x8da5cb5b\n      eq\n      tag_7\n      jumpi\n    tag_2:\n      0x00\n      dup1\n      revert\n        /* \"contracts/studentmanager/factories/Factory.sol\":1304:1421  function getObject(Object _object) external override view returns (address) {\r... */\n    tag_3:\n      tag_14\n      0x04\n      dup1\n      calldatasize\n      sub\n      dup2\n      add\n      swap1\n      tag_15\n      swap2\n      swap1\n      tag_16\n      jump\t// in\n    tag_15:\n      tag_17\n      jump\t// in\n    tag_14:\n      mload(0x40)\n      tag_18\n      swap2\n      swap1\n      tag_19\n      jump\t// in\n    tag_18:\n      mload(0x40)\n      dup1\n      swap2\n      sub\n      swap1\n      return\n        /* \"contracts/studentmanager/factories/Factory.sol\":2451:2872  function createNewTuition(\r... */\n    tag_4:\n      tag_20\n      0x04\n      dup1\n      calldatasize\n      sub\n      dup2\n      add\n      swap1\n      tag_21\n      swap2\n      swap1\n      tag_22\n      jump\t// in\n    tag_21:\n      tag_23\n      jump\t// in\n    tag_20:\n      mload(0x40)\n      tag_24\n      swap2\n      swap1\n      tag_19\n      jump\t// in\n    tag_24:\n      mload(0x40)\n      dup1\n      swap2\n      sub\n      swap1\n      return\n        /* \"contracts/studentmanager/factories/Factory.sol\":2110:2443  function createNewScholarship(\r... */\n    tag_5:\n      tag_25\n      0x04\n      dup1\n      calldatasize\n      sub\n      dup2\n      add\n      swap1\n      tag_26\n      swap2\n      swap1\n      tag_27\n      jump\t// in\n    tag_26:\n      tag_28\n      jump\t// in\n    tag_25:\n      mload(0x40)\n      tag_29\n      swap2\n      swap1\n      tag_19\n      jump\t// in\n    tag_29:\n      mload(0x40)\n      dup1\n      swap2\n      sub\n      swap1\n      return\n        /* \"@openzeppelin/contracts/access/Ownable.sol\":1668:1769  function renounceOwnership() public virtual onlyOwner {... */\n    tag_6:\n      tag_30\n      tag_31\n      jump\t// in\n    tag_30:\n      stop\n        /* \"@openzeppelin/contracts/access/Ownable.sol\":1036:1121  function owner() public view virtual returns (address) {... */\n    tag_7:\n      tag_32\n      tag_33\n      jump\t// in\n    tag_32:\n      mload(0x40)\n      tag_34\n      swap2\n      swap1\n      tag_19\n      jump\t// in\n    tag_34:\n      mload(0x40)\n      dup1\n      swap2\n      sub\n      swap1\n      return\n        /* \"contracts/studentmanager/factories/Factory.sol\":761:1296  function setObject(\r... */\n    tag_8:\n      tag_35\n      0x04\n      dup1\n      calldatasize\n      sub\n      dup2\n      add\n      swap1\n      tag_36\n      swap2\n      swap1\n      tag_22\n      jump\t// in\n    tag_36:\n      tag_37\n      jump\t// in\n    tag_35:\n      stop\n        /* \"contracts/studentmanager/factories/Factory.sol\":1802:2102  function createNewSubject(address owner, address accessControll)\r... */\n    tag_9:\n      tag_38\n      0x04\n      dup1\n      calldatasize\n      sub\n      dup2\n      add\n      swap1\n      tag_39\n      swap2\n      swap1\n      tag_40\n      jump\t// in\n    tag_39:\n      tag_41\n      jump\t// in\n    tag_38:\n      mload(0x40)\n      tag_42\n      swap2\n      swap1\n      tag_19\n      jump\t// in\n    tag_42:\n      mload(0x40)\n      dup1\n      swap2\n      sub\n      swap1\n      return\n        /* \"contracts/studentmanager/factories/Factory.sol\":389:429  mapping(Object => address) public object */\n    tag_10:\n      tag_43\n      0x04\n      dup1\n      calldatasize\n      sub\n      dup2\n      add\n      swap1\n      tag_44\n      swap2\n      swap1\n      tag_16\n      jump\t// in\n    tag_44:\n      tag_45\n      jump\t// in\n    tag_43:\n      mload(0x40)\n      tag_46\n      swap2\n      swap1\n      tag_19\n      jump\t// in\n    tag_46:\n      mload(0x40)\n      dup1\n      swap2\n      sub\n      swap1\n      return\n        /* \"contracts/studentmanager/factories/Factory.sol\":1429:1794  function createNewMission(\r... */\n    tag_11:\n      tag_47\n      0x04\n      dup1\n      calldatasize\n      sub\n      dup2\n      add\n      swap1\n      tag_48\n      swap2\n      swap1\n      tag_27\n      jump\t// in\n    tag_48:\n      tag_49\n      jump\t// in\n    tag_47:\n      mload(0x40)\n      tag_50\n      swap2\n      swap1\n      tag_19\n      jump\t// in\n    tag_50:\n      mload(0x40)\n      dup1\n      swap2\n      sub\n      swap1\n      return\n        /* \"@openzeppelin/contracts/access/Ownable.sol\":1918:2116  function transferOwnership(address newOwner) public virtual onlyOwner {... */\n    tag_12:\n      tag_51\n      0x04\n      dup1\n      calldatasize\n      sub\n      dup2\n      add\n      swap1\n      tag_52\n      swap2\n      swap1\n      tag_53\n      jump\t// in\n    tag_52:\n      tag_54\n      jump\t// in\n    tag_51:\n      stop\n        /* \"contracts/studentmanager/factories/Factory.sol\":1304:1421  function getObject(Object _object) external override view returns (address) {\r... */\n    tag_17:\n        /* \"contracts/studentmanager/factories/Factory.sol\":1371:1378  address */\n      0x00\n        /* \"contracts/studentmanager/factories/Factory.sol\":1398:1404  object */\n      0x01\n        /* \"contracts/studentmanager/factories/Factory.sol\":1398:1413  object[_object] */\n      0x00\n        /* \"contracts/studentmanager/factories/Factory.sol\":1405:1412  _object */\n      dup4\n        /* \"contracts/studentmanager/factories/Factory.sol\":1398:1413  object[_object] */\n      0x03\n      dup2\n      gt\n      iszero\n      tag_56\n      jumpi\n      tag_57\n      tag_58\n      jump\t// in\n    tag_57:\n    tag_56:\n      0x03\n      dup2\n      gt\n      iszero\n      tag_59\n      jumpi\n      tag_60\n      tag_58\n      jump\t// in\n    tag_60:\n    tag_59:\n      dup2\n      mstore\n      0x20\n      add\n      swap1\n      dup2\n      mstore\n      0x20\n      add\n      0x00\n      keccak256\n      0x00\n      swap1\n      sload\n      swap1\n      0x0100\n      exp\n      swap1\n      div\n      0xffffffffffffffffffffffffffffffffffffffff\n      and\n        /* \"contracts/studentmanager/factories/Factory.sol\":1391:1413  return object[_object] */\n      swap1\n      pop\n        /* \"contracts/studentmanager/factories/Factory.sol\":1304:1421  function getObject(Object _object) external override view returns (address) {\r... */\n      swap2\n      swap1\n      pop\n      jump\t// out\n        /* \"contracts/studentmanager/factories/Factory.sol\":2451:2872  function createNewTuition(\r... */\n    tag_23:\n        /* \"contracts/studentmanager/factories/Factory.sol\":2632:2639  address */\n      0x00\n        /* \"contracts/studentmanager/factories/Factory.sol\":2688:2694  object */\n      0x01\n        /* \"contracts/studentmanager/factories/Factory.sol\":2688:2710  object[Object.Tuition] */\n      0x00\n        /* \"contracts/studentmanager/factories/Factory.sol\":2695:2709  Object.Tuition */\n      0x03\n        /* \"contracts/studentmanager/factories/Factory.sol\":2688:2710  object[Object.Tuition] */\n      dup1\n      dup2\n      gt\n      iszero\n      tag_62\n      jumpi\n      tag_63\n      tag_58\n      jump\t// in\n    tag_63:\n    tag_62:\n      0x03\n      dup2\n      gt\n      iszero\n      tag_64\n      jumpi\n      tag_65\n      tag_58\n      jump\t// in\n    tag_65:\n    tag_64:\n      dup2\n      mstore\n      0x20\n      add\n      swap1\n      dup2\n      mstore\n      0x20\n      add\n      0x00\n      keccak256\n      0x00\n      swap1\n      sload\n      swap1\n      0x0100\n      exp\n      swap1\n      div\n      0xffffffffffffffffffffffffffffffffffffffff\n      and\n        /* \"contracts/studentmanager/factories/Factory.sol\":2672:2728  ITuitionFactory(object[Object.Tuition]).createNewTuition */\n      0xffffffffffffffffffffffffffffffffffffffff\n      and\n      0x14560c38\n        /* \"contracts/studentmanager/factories/Factory.sol\":2747:2752  owner */\n      dup7\n        /* \"contracts/studentmanager/factories/Factory.sol\":2771:2785  accessControll */\n      dup7\n        /* \"contracts/studentmanager/factories/Factory.sol\":2804:2821  rewardDistributor */\n      dup7\n        /* \"contracts/studentmanager/factories/Factory.sol\":2840:2849  _UITToken */\n      dup7\n        /* \"contracts/studentmanager/factories/Factory.sol\":2672:2864  ITuitionFactory(object[Object.Tuition]).createNewTuition(\r... */\n      mload(0x40)\n      dup6\n      0xffffffff\n      and\n      0xe0\n      shl\n      dup2\n      mstore\n      0x04\n      add\n      tag_66\n      swap5\n      swap4\n      swap3\n      swap2\n      swap1\n      tag_67\n      jump\t// in\n    tag_66:\n      0x20\n      mload(0x40)\n      dup1\n      dup4\n      sub\n      dup2\n      0x00\n      dup8\n      dup1\n      extcodesize\n      iszero\n      dup1\n      iszero\n      tag_68\n      jumpi\n      0x00\n      dup1\n      revert\n    tag_68:\n      pop\n      gas\n      call\n      iszero\n      dup1\n      iszero\n      tag_70\n      jumpi\n      returndatasize\n      0x00\n      dup1\n      returndatacopy\n      revert(0x00, returndatasize)\n    tag_70:\n      pop\n      pop\n      pop\n      pop\n      mload(0x40)\n      returndatasize\n      not(0x1f)\n      0x1f\n      dup3\n      add\n      and\n      dup3\n      add\n      dup1\n      0x40\n      mstore\n      pop\n      dup2\n      add\n      swap1\n      tag_71\n      swap2\n      swap1\n      tag_72\n      jump\t// in\n    tag_71:\n        /* \"contracts/studentmanager/factories/Factory.sol\":2652:2864  return\r... */\n      swap1\n      pop\n        /* \"contracts/studentmanager/factories/Factory.sol\":2451:2872  function createNewTuition(\r... */\n      swap5\n      swap4\n      pop\n      pop\n      pop\n      pop\n      jump\t// out\n        /* \"contracts/studentmanager/factories/Factory.sol\":2110:2443  function createNewScholarship(\r... */\n    tag_28:\n        /* \"contracts/studentmanager/factories/Factory.sol\":2267:2274  address */\n      0x00\n        /* \"contracts/studentmanager/factories/Factory.sol\":2327:2333  object */\n      0x01\n        /* \"contracts/studentmanager/factories/Factory.sol\":2327:2353  object[Object.Scholarship] */\n      0x00\n        /* \"contracts/studentmanager/factories/Factory.sol\":2334:2352  Object.Scholarship */\n      0x02\n        /* \"contracts/studentmanager/factories/Factory.sol\":2327:2353  object[Object.Scholarship] */\n      0x03\n      dup2\n      gt\n      iszero\n      tag_74\n      jumpi\n      tag_75\n      tag_58\n      jump\t// in\n    tag_75:\n    tag_74:\n      0x03\n      dup2\n      gt\n      iszero\n      tag_76\n      jumpi\n      tag_77\n      tag_58\n      jump\t// in\n    tag_77:\n    tag_76:\n      dup2\n      mstore\n      0x20\n      add\n      swap1\n      dup2\n      mstore\n      0x20\n      add\n      0x00\n      keccak256\n      0x00\n      swap1\n      sload\n      swap1\n      0x0100\n      exp\n      swap1\n      div\n      0xffffffffffffffffffffffffffffffffffffffff\n      and\n        /* \"contracts/studentmanager/factories/Factory.sol\":2307:2393  IScholarshipFactory(object[Object.Scholarship])\r... */\n      0xffffffffffffffffffffffffffffffffffffffff\n      and\n      0x378ac245\n        /* \"contracts/studentmanager/factories/Factory.sol\":2394:2399  owner */\n      dup6\n        /* \"contracts/studentmanager/factories/Factory.sol\":2401:2415  accessControll */\n      dup6\n        /* \"contracts/studentmanager/factories/Factory.sol\":2417:2434  rewardDistributor */\n      dup6\n        /* \"contracts/studentmanager/factories/Factory.sol\":2307:2435  IScholarshipFactory(object[Object.Scholarship])\r... */\n      mload(0x40)\n      dup5\n      0xffffffff\n      and\n      0xe0\n      shl\n      dup2\n      mstore\n      0x04\n      add\n      tag_78\n      swap4\n      swap3\n      swap2\n      swap1\n      tag_79\n      jump\t// in\n    tag_78:\n      0x20\n      mload(0x40)\n      dup1\n      dup4\n      sub\n      dup2\n      0x00\n      dup8\n      dup1\n      extcodesize\n      iszero\n      dup1\n      iszero\n      tag_80\n      jumpi\n      0x00\n      dup1\n      revert\n    tag_80:\n      pop\n      gas\n      call\n      iszero\n      dup1\n      iszero\n      tag_82\n      jumpi\n      returndatasize\n      0x00\n      dup1\n      returndatacopy\n      revert(0x00, returndatasize)\n    tag_82:\n      pop\n      pop\n      pop\n      pop\n      mload(0x40)\n      returndatasize\n      not(0x1f)\n      0x1f\n      dup3\n      add\n      and\n      dup3\n      add\n      dup1\n      0x40\n      mstore\n      pop\n      dup2\n      add\n      swap1\n      tag_83\n      swap2\n      swap1\n      tag_72\n      jump\t// in\n    tag_83:\n        /* \"contracts/studentmanager/factories/Factory.sol\":2287:2435  return\r... */\n      swap1\n      pop\n        /* \"contracts/studentmanager/factories/Factory.sol\":2110:2443  function createNewScholarship(\r... */\n      swap4\n      swap3\n      pop\n      pop\n      pop\n      jump\t// out\n        /* \"@openzeppelin/contracts/access/Ownable.sol\":1668:1769  function renounceOwnership() public virtual onlyOwner {... */\n    tag_31:\n        /* \"@openzeppelin/contracts/access/Ownable.sol\":1259:1271  _msgSender() */\n      tag_85\n        /* \"@openzeppelin/contracts/access/Ownable.sol\":1259:1269  _msgSender */\n      tag_86\n        /* \"@openzeppelin/contracts/access/Ownable.sol\":1259:1271  _msgSender() */\n      jump\t// in\n    tag_85:\n        /* \"@openzeppelin/contracts/access/Ownable.sol\":1248:1271  owner() == _msgSender() */\n      0xffffffffffffffffffffffffffffffffffffffff\n      and\n        /* \"@openzeppelin/contracts/access/Ownable.sol\":1248:1255  owner() */\n      tag_87\n        /* \"@openzeppelin/contracts/access/Ownable.sol\":1248:1253  owner */\n      tag_33\n        /* \"@openzeppelin/contracts/access/Ownable.sol\":1248:1255  owner() */\n      jump\t// in\n    tag_87:\n        /* \"@openzeppelin/contracts/access/Ownable.sol\":1248:1271  owner() == _msgSender() */\n      0xffffffffffffffffffffffffffffffffffffffff\n      and\n      eq\n        /* \"@openzeppelin/contracts/access/Ownable.sol\":1240:1308  require(owner() == _msgSender(), \"Ownable: caller is not the owner\") */\n      tag_88\n      jumpi\n      mload(0x40)\n      0x08c379a000000000000000000000000000000000000000000000000000000000\n      dup2\n      mstore\n      0x04\n      add\n      tag_89\n      swap1\n      tag_90\n      jump\t// in\n    tag_89:\n      mload(0x40)\n      dup1\n      swap2\n      sub\n      swap1\n      revert\n    tag_88:\n        /* \"@openzeppelin/contracts/access/Ownable.sol\":1732:1762  _transferOwnership(address(0)) */\n      tag_92\n        /* \"@openzeppelin/contracts/access/Ownable.sol\":1759:1760  0 */\n      0x00\n        /* \"@openzeppelin/contracts/access/Ownable.sol\":1732:1750  _transferOwnership */\n      tag_93\n        /* \"@openzeppelin/contracts/access/Ownable.sol\":1732:1762  _transferOwnership(address(0)) */\n      jump\t// in\n    tag_92:\n        /* \"@openzeppelin/contracts/access/Ownable.sol\":1668:1769  function renounceOwnership() public virtual onlyOwner {... */\n      jump\t// out\n        /* \"@openzeppelin/contracts/access/Ownable.sol\":1036:1121  function owner() public view virtual returns (address) {... */\n    tag_33:\n        /* \"@openzeppelin/contracts/access/Ownable.sol\":1082:1089  address */\n      0x00\n        /* \"@openzeppelin/contracts/access/Ownable.sol\":1108:1114  _owner */\n      dup1\n      0x00\n      swap1\n      sload\n      swap1\n      0x0100\n      exp\n      swap1\n      div\n      0xffffffffffffffffffffffffffffffffffffffff\n      and\n        /* \"@openzeppelin/contracts/access/Ownable.sol\":1101:1114  return _owner */\n      swap1\n      pop\n        /* \"@openzeppelin/contracts/access/Ownable.sol\":1036:1121  function owner() public view virtual returns (address) {... */\n      swap1\n      jump\t// out\n        /* \"contracts/studentmanager/factories/Factory.sol\":761:1296  function setObject(\r... */\n    tag_37:\n        /* \"contracts/studentmanager/factories/Factory.sol\":965:966  0 */\n      0x00\n        /* \"contracts/studentmanager/factories/Factory.sol\":946:967  mission != address(0) */\n      0xffffffffffffffffffffffffffffffffffffffff\n      and\n        /* \"contracts/studentmanager/factories/Factory.sol\":946:953  mission */\n      dup5\n        /* \"contracts/studentmanager/factories/Factory.sol\":946:967  mission != address(0) */\n      0xffffffffffffffffffffffffffffffffffffffff\n      and\n      eq\n      iszero\n        /* \"contracts/studentmanager/factories/Factory.sol\":946:1009  mission != address(0) &&\r... */\n      dup1\n      iszero\n      tag_96\n      jumpi\n      pop\n        /* \"contracts/studentmanager/factories/Factory.sol\":1007:1008  0 */\n      0x00\n        /* \"contracts/studentmanager/factories/Factory.sol\":988:1009  subject != address(0) */\n      0xffffffffffffffffffffffffffffffffffffffff\n      and\n        /* \"contracts/studentmanager/factories/Factory.sol\":988:995  subject */\n      dup4\n        /* \"contracts/studentmanager/factories/Factory.sol\":988:1009  subject != address(0) */\n      0xffffffffffffffffffffffffffffffffffffffff\n      and\n      eq\n      iszero\n        /* \"contracts/studentmanager/factories/Factory.sol\":946:1009  mission != address(0) &&\r... */\n    tag_96:\n        /* \"contracts/studentmanager/factories/Factory.sol\":946:1055  mission != address(0) &&\r... */\n      dup1\n      iszero\n      tag_97\n      jumpi\n      pop\n        /* \"contracts/studentmanager/factories/Factory.sol\":1053:1054  0 */\n      0x00\n        /* \"contracts/studentmanager/factories/Factory.sol\":1030:1055  scholarship != address(0) */\n      0xffffffffffffffffffffffffffffffffffffffff\n      and\n        /* \"contracts/studentmanager/factories/Factory.sol\":1030:1041  scholarship */\n      dup3\n        /* \"contracts/studentmanager/factories/Factory.sol\":1030:1055  scholarship != address(0) */\n      0xffffffffffffffffffffffffffffffffffffffff\n      and\n      eq\n      iszero\n        /* \"contracts/studentmanager/factories/Factory.sol\":946:1055  mission != address(0) &&\r... */\n    tag_97:\n        /* \"contracts/studentmanager/factories/Factory.sol\":946:1097  mission != address(0) &&\r... */\n      dup1\n      iszero\n      tag_98\n      jumpi\n      pop\n        /* \"contracts/studentmanager/factories/Factory.sol\":1095:1096  0 */\n      0x00\n        /* \"contracts/studentmanager/factories/Factory.sol\":1076:1097  tuition != address(0) */\n      0xffffffffffffffffffffffffffffffffffffffff\n      and\n        /* \"contracts/studentmanager/factories/Factory.sol\":1076:1083  tuition */\n      dup2\n        /* \"contracts/studentmanager/factories/Factory.sol\":1076:1097  tuition != address(0) */\n      0xffffffffffffffffffffffffffffffffffffffff\n      and\n      eq\n      iszero\n        /* \"contracts/studentmanager/factories/Factory.sol\":946:1097  mission != address(0) &&\r... */\n    tag_98:\n        /* \"contracts/studentmanager/factories/Factory.sol\":924:1108  require(\r... */\n      tag_99\n      jumpi\n      0x00\n      dup1\n      revert\n    tag_99:\n        /* \"contracts/studentmanager/factories/Factory.sol\":1144:1151  mission */\n      dup4\n        /* \"contracts/studentmanager/factories/Factory.sol\":1119:1125  object */\n      0x01\n        /* \"contracts/studentmanager/factories/Factory.sol\":1119:1141  object[Object.Mission] */\n      0x00\n        /* \"contracts/studentmanager/factories/Factory.sol\":1126:1140  Object.Mission */\n      dup1\n        /* \"contracts/studentmanager/factories/Factory.sol\":1119:1141  object[Object.Mission] */\n      0x03\n      dup2\n      gt\n      iszero\n      tag_100\n      jumpi\n      tag_101\n      tag_58\n      jump\t// in\n    tag_101:\n    tag_100:\n      0x03\n      dup2\n      gt\n      iszero\n      tag_102\n      jumpi\n      tag_103\n      tag_58\n      jump\t// in\n    tag_103:\n    tag_102:\n      dup2\n      mstore\n      0x20\n      add\n      swap1\n      dup2\n      mstore\n      0x20\n      add\n      0x00\n      keccak256\n      0x00\n        /* \"contracts/studentmanager/factories/Factory.sol\":1119:1151  object[Object.Mission] = mission */\n      0x0100\n      exp\n      dup2\n      sload\n      dup2\n      0xffffffffffffffffffffffffffffffffffffffff\n      mul\n      not\n      and\n      swap1\n      dup4\n      0xffffffffffffffffffffffffffffffffffffffff\n      and\n      mul\n      or\n      swap1\n      sstore\n      pop\n        /* \"contracts/studentmanager/factories/Factory.sol\":1187:1194  subject */\n      dup3\n        /* \"contracts/studentmanager/factories/Factory.sol\":1162:1168  object */\n      0x01\n        /* \"contracts/studentmanager/factories/Factory.sol\":1162:1184  object[Object.Subject] */\n      0x00\n        /* \"contracts/studentmanager/factories/Factory.sol\":1169:1183  Object.Subject */\n      0x01\n        /* \"contracts/studentmanager/factories/Factory.sol\":1162:1184  object[Object.Subject] */\n      0x03\n      dup2\n      gt\n      iszero\n      tag_104\n      jumpi\n      tag_105\n      tag_58\n      jump\t// in\n    tag_105:\n    tag_104:\n      0x03\n      dup2\n      gt\n      iszero\n      tag_106\n      jumpi\n      tag_107\n      tag_58\n      jump\t// in\n    tag_107:\n    tag_106:\n      dup2\n      mstore\n      0x20\n      add\n      swap1\n      dup2\n      mstore\n      0x20\n      add\n      0x00\n      keccak256\n      0x00\n        /* \"contracts/studentmanager/factories/Factory.sol\":1162:1194  object[Object.Subject] = subject */\n      0x0100\n      exp\n      dup2\n      sload\n      dup2\n      0xffffffffffffffffffffffffffffffffffffffff\n      mul\n      not\n      and\n      swap1\n      dup4\n      0xffffffffffffffffffffffffffffffffffffffff\n      and\n      mul\n      or\n      swap1\n      sstore\n      pop\n        /* \"contracts/studentmanager/factories/Factory.sol\":1234:1245  scholarship */\n      dup2\n        /* \"contracts/studentmanager/factories/Factory.sol\":1205:1211  object */\n      0x01\n        /* \"contracts/studentmanager/factories/Factory.sol\":1205:1231  object[Object.Scholarship] */\n      0x00\n        /* \"contracts/studentmanager/factories/Factory.sol\":1212:1230  Object.Scholarship */\n      0x02\n        /* \"contracts/studentmanager/factories/Factory.sol\":1205:1231  object[Object.Scholarship] */\n      0x03\n      dup2\n      gt\n      iszero\n      tag_108\n      jumpi\n      tag_109\n      tag_58\n      jump\t// in\n    tag_109:\n    tag_108:\n      0x03\n      dup2\n      gt\n      iszero\n      tag_110\n      jumpi\n      tag_111\n      tag_58\n      jump\t// in\n    tag_111:\n    tag_110:\n      dup2\n      mstore\n      0x20\n      add\n      swap1\n      dup2\n      mstore\n      0x20\n      add\n      0x00\n      keccak256\n      0x00\n        /* \"contracts/studentmanager/factories/Factory.sol\":1205:1245  object[Object.Scholarship] = scholarship */\n      0x0100\n      exp\n      dup2\n      sload\n      dup2\n      0xffffffffffffffffffffffffffffffffffffffff\n      mul\n      not\n      and\n      swap1\n      dup4\n      0xffffffffffffffffffffffffffffffffffffffff\n      and\n      mul\n      or\n      swap1\n      sstore\n      pop\n        /* \"contracts/studentmanager/factories/Factory.sol\":1281:1288  tuition */\n      dup1\n        /* \"contracts/studentmanager/factories/Factory.sol\":1256:1262  object */\n      0x01\n        /* \"contracts/studentmanager/factories/Factory.sol\":1256:1278  object[Object.Tuition] */\n      0x00\n        /* \"contracts/studentmanager/factories/Factory.sol\":1263:1277  Object.Tuition */\n      0x03\n        /* \"contracts/studentmanager/factories/Factory.sol\":1256:1278  object[Object.Tuition] */\n      dup1\n      dup2\n      gt\n      iszero\n      tag_112\n      jumpi\n      tag_113\n      tag_58\n      jump\t// in\n    tag_113:\n    tag_112:\n      0x03\n      dup2\n      gt\n      iszero\n      tag_114\n      jumpi\n      tag_115\n      tag_58\n      jump\t// in\n    tag_115:\n    tag_114:\n      dup2\n      mstore\n      0x20\n      add\n      swap1\n      dup2\n      mstore\n      0x20\n      add\n      0x00\n      keccak256\n      0x00\n        /* \"contracts/studentmanager/factories/Factory.sol\":1256:1288  object[Object.Tuition] = tuition */\n      0x0100\n      exp\n      dup2\n      sload\n      dup2\n      0xffffffffffffffffffffffffffffffffffffffff\n      mul\n      not\n      and\n      swap1\n      dup4\n      0xffffffffffffffffffffffffffffffffffffffff\n      and\n      mul\n      or\n      swap1\n      sstore\n      pop\n        /* \"contracts/studentmanager/factories/Factory.sol\":761:1296  function setObject(\r... */\n      pop\n      pop\n      pop\n      pop\n      jump\t// out\n        /* \"contracts/studentmanager/factories/Factory.sol\":1802:2102  function createNewSubject(address owner, address accessControll)\r... */\n    tag_41:\n        /* \"contracts/studentmanager/factories/Factory.sol\":1921:1928  address */\n      0x00\n        /* \"contracts/studentmanager/factories/Factory.sol\":1982:1988  object */\n      0x01\n        /* \"contracts/studentmanager/factories/Factory.sol\":1982:2004  object[Object.Subject] */\n      0x00\n        /* \"contracts/studentmanager/factories/Factory.sol\":1989:2003  Object.Subject */\n      0x01\n        /* \"contracts/studentmanager/factories/Factory.sol\":1982:2004  object[Object.Subject] */\n      0x03\n      dup2\n      gt\n      iszero\n      tag_117\n      jumpi\n      tag_118\n      tag_58\n      jump\t// in\n    tag_118:\n    tag_117:\n      0x03\n      dup2\n      gt\n      iszero\n      tag_119\n      jumpi\n      tag_120\n      tag_58\n      jump\t// in\n    tag_120:\n    tag_119:\n      dup2\n      mstore\n      0x20\n      add\n      swap1\n      dup2\n      mstore\n      0x20\n      add\n      0x00\n      keccak256\n      0x00\n      swap1\n      sload\n      swap1\n      0x0100\n      exp\n      swap1\n      div\n      0xffffffffffffffffffffffffffffffffffffffff\n      and\n        /* \"contracts/studentmanager/factories/Factory.sol\":1966:2022  ISubjectFactory(object[Object.Subject]).createNewMission */\n      0xffffffffffffffffffffffffffffffffffffffff\n      and\n      0x89d0bc1e\n        /* \"contracts/studentmanager/factories/Factory.sol\":2041:2046  owner */\n      dup5\n        /* \"contracts/studentmanager/factories/Factory.sol\":2065:2079  accessControll */\n      dup5\n        /* \"contracts/studentmanager/factories/Factory.sol\":1966:2094  ISubjectFactory(object[Object.Subject]).createNewMission(\r... */\n      mload(0x40)\n      dup4\n      0xffffffff\n      and\n      0xe0\n      shl\n      dup2\n      mstore\n      0x04\n      add\n      tag_121\n      swap3\n      swap2\n      swap1\n      tag_122\n      jump\t// in\n    tag_121:\n      0x20\n      mload(0x40)\n      dup1\n      dup4\n      sub\n      dup2\n      0x00\n      dup8\n      dup1\n      extcodesize\n      iszero\n      dup1\n      iszero\n      tag_123\n      jumpi\n      0x00\n      dup1\n      revert\n    tag_123:\n      pop\n      gas\n      call\n      iszero\n      dup1\n      iszero\n      tag_125\n      jumpi\n      returndatasize\n      0x00\n      dup1\n      returndatacopy\n      revert(0x00, returndatasize)\n    tag_125:\n      pop\n      pop\n      pop\n      pop\n      mload(0x40)\n      returndatasize\n      not(0x1f)\n      0x1f\n      dup3\n      add\n      and\n      dup3\n      add\n      dup1\n      0x40\n      mstore\n      pop\n      dup2\n      add\n      swap1\n      tag_126\n      swap2\n      swap1\n      tag_72\n      jump\t// in\n    tag_126:\n        /* \"contracts/studentmanager/factories/Factory.sol\":1946:2094  return\r... */\n      swap1\n      pop\n        /* \"contracts/studentmanager/factories/Factory.sol\":1802:2102  function createNewSubject(address owner, address accessControll)\r... */\n      swap3\n      swap2\n      pop\n      pop\n      jump\t// out\n        /* \"contracts/studentmanager/factories/Factory.sol\":389:429  mapping(Object => address) public object */\n    tag_45:\n      mstore(0x20, 0x01)\n      dup1\n      0x00\n      mstore\n      keccak256(0x00, 0x40)\n      0x00\n      swap2\n      pop\n      sload\n      swap1\n      0x0100\n      exp\n      swap1\n      div\n      0xffffffffffffffffffffffffffffffffffffffff\n      and\n      dup2\n      jump\t// out\n        /* \"contracts/studentmanager/factories/Factory.sol\":1429:1794  function createNewMission(\r... */\n    tag_49:\n        /* \"contracts/studentmanager/factories/Factory.sol\":1582:1589  address */\n      0x00\n        /* \"contracts/studentmanager/factories/Factory.sol\":1638:1644  object */\n      0x01\n        /* \"contracts/studentmanager/factories/Factory.sol\":1638:1660  object[Object.Mission] */\n      0x00\n        /* \"contracts/studentmanager/factories/Factory.sol\":1645:1659  Object.Mission */\n      dup1\n        /* \"contracts/studentmanager/factories/Factory.sol\":1638:1660  object[Object.Mission] */\n      0x03\n      dup2\n      gt\n      iszero\n      tag_128\n      jumpi\n      tag_129\n      tag_58\n      jump\t// in\n    tag_129:\n    tag_128:\n      0x03\n      dup2\n      gt\n      iszero\n      tag_130\n      jumpi\n      tag_131\n      tag_58\n      jump\t// in\n    tag_131:\n    tag_130:\n      dup2\n      mstore\n      0x20\n      add\n      swap1\n      dup2\n      mstore\n      0x20\n      add\n      0x00\n      keccak256\n      0x00\n      swap1\n      sload\n      swap1\n      0x0100\n      exp\n      swap1\n      div\n      0xffffffffffffffffffffffffffffffffffffffff\n      and\n        /* \"contracts/studentmanager/factories/Factory.sol\":1622:1678  IMissionFactory(object[Object.Mission]).createNewMission */\n      0xffffffffffffffffffffffffffffffffffffffff\n      and\n      0xe162fa77\n        /* \"contracts/studentmanager/factories/Factory.sol\":1697:1702  owner */\n      dup6\n        /* \"contracts/studentmanager/factories/Factory.sol\":1721:1735  accessControll */\n      dup6\n        /* \"contracts/studentmanager/factories/Factory.sol\":1754:1771  rewardDistributor */\n      dup6\n        /* \"contracts/studentmanager/factories/Factory.sol\":1622:1786  IMissionFactory(object[Object.Mission]).createNewMission(\r... */\n      mload(0x40)\n      dup5\n      0xffffffff\n      and\n      0xe0\n      shl\n      dup2\n      mstore\n      0x04\n      add\n      tag_132\n      swap4\n      swap3\n      swap2\n      swap1\n      tag_79\n      jump\t// in\n    tag_132:\n      0x20\n      mload(0x40)\n      dup1\n      dup4\n      sub\n      dup2\n      0x00\n      dup8\n      dup1\n      extcodesize\n      iszero\n      dup1\n      iszero\n      tag_133\n      jumpi\n      0x00\n      dup1\n      revert\n    tag_133:\n      pop\n      gas\n      call\n      iszero\n      dup1\n      iszero\n      tag_135\n      jumpi\n      returndatasize\n      0x00\n      dup1\n      returndatacopy\n      revert(0x00, returndatasize)\n    tag_135:\n      pop\n      pop\n      pop\n      pop\n      mload(0x40)\n      returndatasize\n      not(0x1f)\n      0x1f\n      dup3\n      add\n      and\n      dup3\n      add\n      dup1\n      0x40\n      mstore\n      pop\n      dup2\n      add\n      swap1\n      tag_136\n      swap2\n      swap1\n      tag_72\n      jump\t// in\n    tag_136:\n        /* \"contracts/studentmanager/factories/Factory.sol\":1602:1786  return\r... */\n      swap1\n      pop\n        /* \"contracts/studentmanager/factories/Factory.sol\":1429:1794  function createNewMission(\r... */\n      swap4\n      swap3\n      pop\n      pop\n      pop\n      jump\t// out\n        /* \"@openzeppelin/contracts/access/Ownable.sol\":1918:2116  function transferOwnership(address newOwner) public virtual onlyOwner {... */\n    tag_54:\n        /* \"@openzeppelin/contracts/access/Ownable.sol\":1259:1271  _msgSender() */\n      tag_138\n        /* \"@openzeppelin/contracts/access/Ownable.sol\":1259:1269  _msgSender */\n      tag_86\n        /* \"@openzeppelin/contracts/access/Ownable.sol\":1259:1271  _msgSender() */\n      jump\t// in\n    tag_138:\n        /* \"@openzeppelin/contracts/access/Ownable.sol\":1248:1271  owner() == _msgSender() */\n      0xffffffffffffffffffffffffffffffffffffffff\n      and\n        /* \"@openzeppelin/contracts/access/Ownable.sol\":1248:1255  owner() */\n      tag_139\n        /* \"@openzeppelin/contracts/access/Ownable.sol\":1248:1253  owner */\n      tag_33\n        /* \"@openzeppelin/contracts/access/Ownable.sol\":1248:1255  owner() */\n      jump\t// in\n    tag_139:\n        /* \"@openzeppelin/contracts/access/Ownable.sol\":1248:1271  owner() == _msgSender() */\n      0xffffffffffffffffffffffffffffffffffffffff\n      and\n      eq\n        /* \"@openzeppelin/contracts/access/Ownable.sol\":1240:1308  require(owner() == _msgSender(), \"Ownable: caller is not the owner\") */\n      tag_140\n      jumpi\n      mload(0x40)\n      0x08c379a000000000000000000000000000000000000000000000000000000000\n      dup2\n      mstore\n      0x04\n      add\n      tag_141\n      swap1\n      tag_90\n      jump\t// in\n    tag_141:\n      mload(0x40)\n      dup1\n      swap2\n      sub\n      swap1\n      revert\n    tag_140:\n        /* \"@openzeppelin/contracts/access/Ownable.sol\":2026:2027  0 */\n      0x00\n        /* \"@openzeppelin/contracts/access/Ownable.sol\":2006:2028  newOwner != address(0) */\n      0xffffffffffffffffffffffffffffffffffffffff\n      and\n        /* \"@openzeppelin/contracts/access/Ownable.sol\":2006:2014  newOwner */\n      dup2\n        /* \"@openzeppelin/contracts/access/Ownable.sol\":2006:2028  newOwner != address(0) */\n      0xffffffffffffffffffffffffffffffffffffffff\n      and\n      eq\n      iszero\n        /* \"@openzeppelin/contracts/access/Ownable.sol\":1998:2071  require(newOwner != address(0), \"Ownable: new owner is the zero address\") */\n      tag_143\n      jumpi\n      mload(0x40)\n      0x08c379a000000000000000000000000000000000000000000000000000000000\n      dup2\n      mstore\n      0x04\n      add\n      tag_144\n      swap1\n      tag_145\n      jump\t// in\n    tag_144:\n      mload(0x40)\n      dup1\n      swap2\n      sub\n      swap1\n      revert\n    tag_143:\n        /* \"@openzeppelin/contracts/access/Ownable.sol\":2081:2109  _transferOwnership(newOwner) */\n      tag_146\n        /* \"@openzeppelin/contracts/access/Ownable.sol\":2100:2108  newOwner */\n      dup2\n        /* \"@openzeppelin/contracts/access/Ownable.sol\":2081:2099  _transferOwnership */\n      tag_93\n        /* \"@openzeppelin/contracts/access/Ownable.sol\":2081:2109  _transferOwnership(newOwner) */\n      jump\t// in\n    tag_146:\n        /* \"@openzeppelin/contracts/access/Ownable.sol\":1918:2116  function transferOwnership(address newOwner) public virtual onlyOwner {... */\n      pop\n      jump\t// out\n        /* \"@openzeppelin/contracts/utils/Context.sol\":640:736  function _msgSender() internal view virtual returns (address) {... */\n    tag_86:\n        /* \"@openzeppelin/contracts/utils/Context.sol\":693:700  address */\n      0x00\n        /* \"@openzeppelin/contracts/utils/Context.sol\":719:729  msg.sender */\n      caller\n        /* \"@openzeppelin/contracts/utils/Context.sol\":712:729  return msg.sender */\n      swap1\n      pop\n        /* \"@openzeppelin/contracts/utils/Context.sol\":640:736  function _msgSender() internal view virtual returns (address) {... */\n      swap1\n      jump\t// out\n        /* \"@openzeppelin/contracts/access/Ownable.sol\":2270:2457  function _transferOwnership(address newOwner) internal virtual {... */\n    tag_93:\n        /* \"@openzeppelin/contracts/access/Ownable.sol\":2343:2359  address oldOwner */\n      0x00\n        /* \"@openzeppelin/contracts/access/Ownable.sol\":2362:2368  _owner */\n      dup1\n      0x00\n      swap1\n      sload\n      swap1\n      0x0100\n      exp\n      swap1\n      div\n      0xffffffffffffffffffffffffffffffffffffffff\n      and\n        /* \"@openzeppelin/contracts/access/Ownable.sol\":2343:2368  address oldOwner = _owner */\n      swap1\n      pop\n        /* \"@openzeppelin/contracts/access/Ownable.sol\":2387:2395  newOwner */\n      dup2\n        /* \"@openzeppelin/contracts/access/Ownable.sol\":2378:2384  _owner */\n      0x00\n      dup1\n        /* \"@openzeppelin/contracts/access/Ownable.sol\":2378:2395  _owner = newOwner */\n      0x0100\n      exp\n      dup2\n      sload\n      dup2\n      0xffffffffffffffffffffffffffffffffffffffff\n      mul\n      not\n      and\n      swap1\n      dup4\n      0xffffffffffffffffffffffffffffffffffffffff\n      and\n      mul\n      or\n      swap1\n      sstore\n      pop\n        /* \"@openzeppelin/contracts/access/Ownable.sol\":2441:2449  newOwner */\n      dup2\n        /* \"@openzeppelin/contracts/access/Ownable.sol\":2410:2450  OwnershipTransferred(oldOwner, newOwner) */\n      0xffffffffffffffffffffffffffffffffffffffff\n      and\n        /* \"@openzeppelin/contracts/access/Ownable.sol\":2431:2439  oldOwner */\n      dup2\n        /* \"@openzeppelin/contracts/access/Ownable.sol\":2410:2450  OwnershipTransferred(oldOwner, newOwner) */\n      0xffffffffffffffffffffffffffffffffffffffff\n      and\n      0x8be0079c531659141344cd1fd0a4f28419497f9722a3daafe3b4186f6b6457e0\n      mload(0x40)\n      mload(0x40)\n      dup1\n      swap2\n      sub\n      swap1\n      log3\n        /* \"@openzeppelin/contracts/access/Ownable.sol\":2333:2457  {... */\n      pop\n        /* \"@openzeppelin/contracts/access/Ownable.sol\":2270:2457  function _transferOwnership(address newOwner) internal virtual {... */\n      pop\n      jump\t// out\n        /* \"#utility.yul\":7:146   */\n    tag_150:\n        /* \"#utility.yul\":53:58   */\n      0x00\n        /* \"#utility.yul\":91:97   */\n      dup2\n        /* \"#utility.yul\":78:98   */\n      calldataload\n        /* \"#utility.yul\":69:98   */\n      swap1\n      pop\n        /* \"#utility.yul\":107:140   */\n      tag_152\n        /* \"#utility.yul\":134:139   */\n      dup2\n        /* \"#utility.yul\":107:140   */\n      tag_153\n      jump\t// in\n    tag_152:\n        /* \"#utility.yul\":7:146   */\n      swap3\n      swap2\n      pop\n      pop\n      jump\t// out\n        /* \"#utility.yul\":152:295   */\n    tag_154:\n        /* \"#utility.yul\":209:214   */\n      0x00\n        /* \"#utility.yul\":240:246   */\n      dup2\n        /* \"#utility.yul\":234:247   */\n      mload\n        /* \"#utility.yul\":225:247   */\n      swap1\n      pop\n        /* \"#utility.yul\":256:289   */\n      tag_156\n        /* \"#utility.yul\":283:288   */\n      dup2\n        /* \"#utility.yul\":256:289   */\n      tag_153\n      jump\t// in\n    tag_156:\n        /* \"#utility.yul\":152:295   */\n      swap3\n      swap2\n      pop\n      pop\n      jump\t// out\n        /* \"#utility.yul\":301:460   */\n    tag_157:\n        /* \"#utility.yul\":357:362   */\n      0x00\n        /* \"#utility.yul\":395:401   */\n      dup2\n        /* \"#utility.yul\":382:402   */\n      calldataload\n        /* \"#utility.yul\":373:402   */\n      swap1\n      pop\n        /* \"#utility.yul\":411:454   */\n      tag_159\n        /* \"#utility.yul\":448:453   */\n      dup2\n        /* \"#utility.yul\":411:454   */\n      tag_160\n      jump\t// in\n    tag_159:\n        /* \"#utility.yul\":301:460   */\n      swap3\n      swap2\n      pop\n      pop\n      jump\t// out\n        /* \"#utility.yul\":466:795   */\n    tag_53:\n        /* \"#utility.yul\":525:531   */\n      0x00\n        /* \"#utility.yul\":574:576   */\n      0x20\n        /* \"#utility.yul\":562:571   */\n      dup3\n        /* \"#utility.yul\":553:560   */\n      dup5\n        /* \"#utility.yul\":549:572   */\n      sub\n        /* \"#utility.yul\":545:577   */\n      slt\n        /* \"#utility.yul\":542:661   */\n      iszero\n      tag_162\n      jumpi\n        /* \"#utility.yul\":580:659   */\n      tag_163\n      tag_164\n      jump\t// in\n    tag_163:\n        /* \"#utility.yul\":542:661   */\n    tag_162:\n        /* \"#utility.yul\":700:701   */\n      0x00\n        /* \"#utility.yul\":725:778   */\n      tag_165\n        /* \"#utility.yul\":770:777   */\n      dup5\n        /* \"#utility.yul\":761:767   */\n      dup3\n        /* \"#utility.yul\":750:759   */\n      dup6\n        /* \"#utility.yul\":746:768   */\n      add\n        /* \"#utility.yul\":725:778   */\n      tag_150\n      jump\t// in\n    tag_165:\n        /* \"#utility.yul\":715:778   */\n      swap2\n      pop\n        /* \"#utility.yul\":671:788   */\n      pop\n        /* \"#utility.yul\":466:795   */\n      swap3\n      swap2\n      pop\n      pop\n      jump\t// out\n        /* \"#utility.yul\":801:1152   */\n    tag_72:\n        /* \"#utility.yul\":871:877   */\n      0x00\n        /* \"#utility.yul\":920:922   */\n      0x20\n        /* \"#utility.yul\":908:917   */\n      dup3\n        /* \"#utility.yul\":899:906   */\n      dup5\n        /* \"#utility.yul\":895:918   */\n      sub\n        /* \"#utility.yul\":891:923   */\n      slt\n        /* \"#utility.yul\":888:1007   */\n      iszero\n      tag_167\n      jumpi\n        /* \"#utility.yul\":926:1005   */\n      tag_168\n      tag_164\n      jump\t// in\n    tag_168:\n        /* \"#utility.yul\":888:1007   */\n    tag_167:\n        /* \"#utility.yul\":1046:1047   */\n      0x00\n        /* \"#utility.yul\":1071:1135   */\n      tag_169\n        /* \"#utility.yul\":1127:1134   */\n      dup5\n        /* \"#utility.yul\":1118:1124   */\n      dup3\n        /* \"#utility.yul\":1107:1116   */\n      dup6\n        /* \"#utility.yul\":1103:1125   */\n      add\n        /* \"#utility.yul\":1071:1135   */\n      tag_154\n      jump\t// in\n    tag_169:\n        /* \"#utility.yul\":1061:1135   */\n      swap2\n      pop\n        /* \"#utility.yul\":1017:1145   */\n      pop\n        /* \"#utility.yul\":801:1152   */\n      swap3\n      swap2\n      pop\n      pop\n      jump\t// out\n        /* \"#utility.yul\":1158:1632   */\n    tag_40:\n        /* \"#utility.yul\":1226:1232   */\n      0x00\n        /* \"#utility.yul\":1234:1240   */\n      dup1\n        /* \"#utility.yul\":1283:1285   */\n      0x40\n        /* \"#utility.yul\":1271:1280   */\n      dup4\n        /* \"#utility.yul\":1262:1269   */\n      dup6\n        /* \"#utility.yul\":1258:1281   */\n      sub\n        /* \"#utility.yul\":1254:1286   */\n      slt\n        /* \"#utility.yul\":1251:1370   */\n      iszero\n      tag_171\n      jumpi\n        /* \"#utility.yul\":1289:1368   */\n      tag_172\n      tag_164\n      jump\t// in\n    tag_172:\n        /* \"#utility.yul\":1251:1370   */\n    tag_171:\n        /* \"#utility.yul\":1409:1410   */\n      0x00\n        /* \"#utility.yul\":1434:1487   */\n      tag_173\n        /* \"#utility.yul\":1479:1486   */\n      dup6\n        /* \"#utility.yul\":1470:1476   */\n      dup3\n        /* \"#utility.yul\":1459:1468   */\n      dup7\n        /* \"#utility.yul\":1455:1477   */\n      add\n        /* \"#utility.yul\":1434:1487   */\n      tag_150\n      jump\t// in\n    tag_173:\n        /* \"#utility.yul\":1424:1487   */\n      swap3\n      pop\n        /* \"#utility.yul\":1380:1497   */\n      pop\n        /* \"#utility.yul\":1536:1538   */\n      0x20\n        /* \"#utility.yul\":1562:1615   */\n      tag_174\n        /* \"#utility.yul\":1607:1614   */\n      dup6\n        /* \"#utility.yul\":1598:1604   */\n      dup3\n        /* \"#utility.yul\":1587:1596   */\n      dup7\n        /* \"#utility.yul\":1583:1605   */\n      add\n        /* \"#utility.yul\":1562:1615   */\n      tag_150\n      jump\t// in\n    tag_174:\n        /* \"#utility.yul\":1552:1615   */\n      swap2\n      pop\n        /* \"#utility.yul\":1507:1625   */\n      pop\n        /* \"#utility.yul\":1158:1632   */\n      swap3\n      pop\n      swap3\n      swap1\n      pop\n      jump\t// out\n        /* \"#utility.yul\":1638:2257   */\n    tag_27:\n        /* \"#utility.yul\":1715:1721   */\n      0x00\n        /* \"#utility.yul\":1723:1729   */\n      dup1\n        /* \"#utility.yul\":1731:1737   */\n      0x00\n        /* \"#utility.yul\":1780:1782   */\n      0x60\n        /* \"#utility.yul\":1768:1777   */\n      dup5\n        /* \"#utility.yul\":1759:1766   */\n      dup7\n        /* \"#utility.yul\":1755:1778   */\n      sub\n        /* \"#utility.yul\":1751:1783   */\n      slt\n        /* \"#utility.yul\":1748:1867   */\n      iszero\n      tag_176\n      jumpi\n        /* \"#utility.yul\":1786:1865   */\n      tag_177\n      tag_164\n      jump\t// in\n    tag_177:\n        /* \"#utility.yul\":1748:1867   */\n    tag_176:\n        /* \"#utility.yul\":1906:1907   */\n      0x00\n        /* \"#utility.yul\":1931:1984   */\n      tag_178\n        /* \"#utility.yul\":1976:1983   */\n      dup7\n        /* \"#utility.yul\":1967:1973   */\n      dup3\n        /* \"#utility.yul\":1956:1965   */\n      dup8\n        /* \"#utility.yul\":1952:1974   */\n      add\n        /* \"#utility.yul\":1931:1984   */\n      tag_150\n      jump\t// in\n    tag_178:\n        /* \"#utility.yul\":1921:1984   */\n      swap4\n      pop\n        /* \"#utility.yul\":1877:1994   */\n      pop\n        /* \"#utility.yul\":2033:2035   */\n      0x20\n        /* \"#utility.yul\":2059:2112   */\n      tag_179\n        /* \"#utility.yul\":2104:2111   */\n      dup7\n        /* \"#utility.yul\":2095:2101   */\n      dup3\n        /* \"#utility.yul\":2084:2093   */\n      dup8\n        /* \"#utility.yul\":2080:2102   */\n      add\n        /* \"#utility.yul\":2059:2112   */\n      tag_150\n      jump\t// in\n    tag_179:\n        /* \"#utility.yul\":2049:2112   */\n      swap3\n      pop\n        /* \"#utility.yul\":2004:2122   */\n      pop\n        /* \"#utility.yul\":2161:2163   */\n      0x40\n        /* \"#utility.yul\":2187:2240   */\n      tag_180\n        /* \"#utility.yul\":2232:2239   */\n      dup7\n        /* \"#utility.yul\":2223:2229   */\n      dup3\n        /* \"#utility.yul\":2212:2221   */\n      dup8\n        /* \"#utility.yul\":2208:2230   */\n      add\n        /* \"#utility.yul\":2187:2240   */\n      tag_150\n      jump\t// in\n    tag_180:\n        /* \"#utility.yul\":2177:2240   */\n      swap2\n      pop\n        /* \"#utility.yul\":2132:2250   */\n      pop\n        /* \"#utility.yul\":1638:2257   */\n      swap3\n      pop\n      swap3\n      pop\n      swap3\n      jump\t// out\n        /* \"#utility.yul\":2263:3028   */\n    tag_22:\n        /* \"#utility.yul\":2349:2355   */\n      0x00\n        /* \"#utility.yul\":2357:2363   */\n      dup1\n        /* \"#utility.yul\":2365:2371   */\n      0x00\n        /* \"#utility.yul\":2373:2379   */\n      dup1\n        /* \"#utility.yul\":2422:2425   */\n      0x80\n        /* \"#utility.yul\":2410:2419   */\n      dup6\n        /* \"#utility.yul\":2401:2408   */\n      dup8\n        /* \"#utility.yul\":2397:2420   */\n      sub\n        /* \"#utility.yul\":2393:2426   */\n      slt\n        /* \"#utility.yul\":2390:2510   */\n      iszero\n      tag_182\n      jumpi\n        /* \"#utility.yul\":2429:2508   */\n      tag_183\n      tag_164\n      jump\t// in\n    tag_183:\n        /* \"#utility.yul\":2390:2510   */\n    tag_182:\n        /* \"#utility.yul\":2549:2550   */\n      0x00\n        /* \"#utility.yul\":2574:2627   */\n      tag_184\n        /* \"#utility.yul\":2619:2626   */\n      dup8\n        /* \"#utility.yul\":2610:2616   */\n      dup3\n        /* \"#utility.yul\":2599:2608   */\n      dup9\n        /* \"#utility.yul\":2595:2617   */\n      add\n        /* \"#utility.yul\":2574:2627   */\n      tag_150\n      jump\t// in\n    tag_184:\n        /* \"#utility.yul\":2564:2627   */\n      swap5\n      pop\n        /* \"#utility.yul\":2520:2637   */\n      pop\n        /* \"#utility.yul\":2676:2678   */\n      0x20\n        /* \"#utility.yul\":2702:2755   */\n      tag_185\n        /* \"#utility.yul\":2747:2754   */\n      dup8\n        /* \"#utility.yul\":2738:2744   */\n      dup3\n        /* \"#utility.yul\":2727:2736   */\n      dup9\n        /* \"#utility.yul\":2723:2745   */\n      add\n        /* \"#utility.yul\":2702:2755   */\n      tag_150\n      jump\t// in\n    tag_185:\n        /* \"#utility.yul\":2692:2755   */\n      swap4\n      pop\n        /* \"#utility.yul\":2647:2765   */\n      pop\n        /* \"#utility.yul\":2804:2806   */\n      0x40\n        /* \"#utility.yul\":2830:2883   */\n      tag_186\n        /* \"#utility.yul\":2875:2882   */\n      dup8\n        /* \"#utility.yul\":2866:2872   */\n      dup3\n        /* \"#utility.yul\":2855:2864   */\n      dup9\n        /* \"#utility.yul\":2851:2873   */\n      add\n        /* \"#utility.yul\":2830:2883   */\n      tag_150\n      jump\t// in\n    tag_186:\n        /* \"#utility.yul\":2820:2883   */\n      swap3\n      pop\n        /* \"#utility.yul\":2775:2893   */\n      pop\n        /* \"#utility.yul\":2932:2934   */\n      0x60\n        /* \"#utility.yul\":2958:3011   */\n      tag_187\n        /* \"#utility.yul\":3003:3010   */\n      dup8\n        /* \"#utility.yul\":2994:3000   */\n      dup3\n        /* \"#utility.yul\":2983:2992   */\n      dup9\n        /* \"#utility.yul\":2979:3001   */\n      add\n        /* \"#utility.yul\":2958:3011   */\n      tag_150\n      jump\t// in\n    tag_187:\n        /* \"#utility.yul\":2948:3011   */\n      swap2\n      pop\n        /* \"#utility.yul\":2903:3021   */\n      pop\n        /* \"#utility.yul\":2263:3028   */\n      swap3\n      swap6\n      swap2\n      swap5\n      pop\n      swap3\n      pop\n      jump\t// out\n        /* \"#utility.yul\":3034:3383   */\n    tag_16:\n        /* \"#utility.yul\":3103:3109   */\n      0x00\n        /* \"#utility.yul\":3152:3154   */\n      0x20\n        /* \"#utility.yul\":3140:3149   */\n      dup3\n        /* \"#utility.yul\":3131:3138   */\n      dup5\n        /* \"#utility.yul\":3127:3150   */\n      sub\n        /* \"#utility.yul\":3123:3155   */\n      slt\n        /* \"#utility.yul\":3120:3239   */\n      iszero\n      tag_189\n      jumpi\n        /* \"#utility.yul\":3158:3237   */\n      tag_190\n      tag_164\n      jump\t// in\n    tag_190:\n        /* \"#utility.yul\":3120:3239   */\n    tag_189:\n        /* \"#utility.yul\":3278:3279   */\n      0x00\n        /* \"#utility.yul\":3303:3366   */\n      tag_191\n        /* \"#utility.yul\":3358:3365   */\n      dup5\n        /* \"#utility.yul\":3349:3355   */\n      dup3\n        /* \"#utility.yul\":3338:3347   */\n      dup6\n        /* \"#utility.yul\":3334:3356   */\n      add\n        /* \"#utility.yul\":3303:3366   */\n      tag_157\n      jump\t// in\n    tag_191:\n        /* \"#utility.yul\":3293:3366   */\n      swap2\n      pop\n        /* \"#utility.yul\":3249:3376   */\n      pop\n        /* \"#utility.yul\":3034:3383   */\n      swap3\n      swap2\n      pop\n      pop\n      jump\t// out\n        /* \"#utility.yul\":3389:3507   */\n    tag_192:\n        /* \"#utility.yul\":3476:3500   */\n      tag_194\n        /* \"#utility.yul\":3494:3499   */\n      dup2\n        /* \"#utility.yul\":3476:3500   */\n      tag_195\n      jump\t// in\n    tag_194:\n        /* \"#utility.yul\":3471:3474   */\n      dup3\n        /* \"#utility.yul\":3464:3501   */\n      mstore\n        /* \"#utility.yul\":3389:3507   */\n      pop\n      pop\n      jump\t// out\n        /* \"#utility.yul\":3513:3879   */\n    tag_196:\n        /* \"#utility.yul\":3655:3658   */\n      0x00\n        /* \"#utility.yul\":3676:3743   */\n      tag_198\n        /* \"#utility.yul\":3740:3742   */\n      0x26\n        /* \"#utility.yul\":3735:3738   */\n      dup4\n        /* \"#utility.yul\":3676:3743   */\n      tag_199\n      jump\t// in\n    tag_198:\n        /* \"#utility.yul\":3669:3743   */\n      swap2\n      pop\n        /* \"#utility.yul\":3752:3845   */\n      tag_200\n        /* \"#utility.yul\":3841:3844   */\n      dup3\n        /* \"#utility.yul\":3752:3845   */\n      tag_201\n      jump\t// in\n    tag_200:\n        /* \"#utility.yul\":3870:3872   */\n      0x40\n        /* \"#utility.yul\":3865:3868   */\n      dup3\n        /* \"#utility.yul\":3861:3873   */\n      add\n        /* \"#utility.yul\":3854:3873   */\n      swap1\n      pop\n        /* \"#utility.yul\":3513:3879   */\n      swap2\n      swap1\n      pop\n      jump\t// out\n        /* \"#utility.yul\":3885:4251   */\n    tag_202:\n        /* \"#utility.yul\":4027:4030   */\n      0x00\n        /* \"#utility.yul\":4048:4115   */\n      tag_204\n        /* \"#utility.yul\":4112:4114   */\n      0x20\n        /* \"#utility.yul\":4107:4110   */\n      dup4\n        /* \"#utility.yul\":4048:4115   */\n      tag_199\n      jump\t// in\n    tag_204:\n        /* \"#utility.yul\":4041:4115   */\n      swap2\n      pop\n        /* \"#utility.yul\":4124:4217   */\n      tag_205\n        /* \"#utility.yul\":4213:4216   */\n      dup3\n        /* \"#utility.yul\":4124:4217   */\n      tag_206\n      jump\t// in\n    tag_205:\n        /* \"#utility.yul\":4242:4244   */\n      0x20\n        /* \"#utility.yul\":4237:4240   */\n      dup3\n        /* \"#utility.yul\":4233:4245   */\n      add\n        /* \"#utility.yul\":4226:4245   */\n      swap1\n      pop\n        /* \"#utility.yul\":3885:4251   */\n      swap2\n      swap1\n      pop\n      jump\t// out\n        /* \"#utility.yul\":4257:4479   */\n    tag_19:\n        /* \"#utility.yul\":4350:4354   */\n      0x00\n        /* \"#utility.yul\":4388:4390   */\n      0x20\n        /* \"#utility.yul\":4377:4386   */\n      dup3\n        /* \"#utility.yul\":4373:4391   */\n      add\n        /* \"#utility.yul\":4365:4391   */\n      swap1\n      pop\n        /* \"#utility.yul\":4401:4472   */\n      tag_208\n        /* \"#utility.yul\":4469:4470   */\n      0x00\n        /* \"#utility.yul\":4458:4467   */\n      dup4\n        /* \"#utility.yul\":4454:4471   */\n      add\n        /* \"#utility.yul\":4445:4451   */\n      dup5\n        /* \"#utility.yul\":4401:4472   */\n      tag_192\n      jump\t// in\n    tag_208:\n        /* \"#utility.yul\":4257:4479   */\n      swap3\n      swap2\n      pop\n      pop\n      jump\t// out\n        /* \"#utility.yul\":4485:4817   */\n    tag_122:\n        /* \"#utility.yul\":4606:4610   */\n      0x00\n        /* \"#utility.yul\":4644:4646   */\n      0x40\n        /* \"#utility.yul\":4633:4642   */\n      dup3\n        /* \"#utility.yul\":4629:4647   */\n      add\n        /* \"#utility.yul\":4621:4647   */\n      swap1\n      pop\n        /* \"#utility.yul\":4657:4728   */\n      tag_210\n        /* \"#utility.yul\":4725:4726   */\n      0x00\n        /* \"#utility.yul\":4714:4723   */\n      dup4\n        /* \"#utility.yul\":4710:4727   */\n      add\n        /* \"#utility.yul\":4701:4707   */\n      dup6\n        /* \"#utility.yul\":4657:4728   */\n      tag_192\n      jump\t// in\n    tag_210:\n        /* \"#utility.yul\":4738:4810   */\n      tag_211\n        /* \"#utility.yul\":4806:4808   */\n      0x20\n        /* \"#utility.yul\":4795:4804   */\n      dup4\n        /* \"#utility.yul\":4791:4809   */\n      add\n        /* \"#utility.yul\":4782:4788   */\n      dup5\n        /* \"#utility.yul\":4738:4810   */\n      tag_192\n      jump\t// in\n    tag_211:\n        /* \"#utility.yul\":4485:4817   */\n      swap4\n      swap3\n      pop\n      pop\n      pop\n      jump\t// out\n        /* \"#utility.yul\":4823:5265   */\n    tag_79:\n        /* \"#utility.yul\":4972:4976   */\n      0x00\n        /* \"#utility.yul\":5010:5012   */\n      0x60\n        /* \"#utility.yul\":4999:5008   */\n      dup3\n        /* \"#utility.yul\":4995:5013   */\n      add\n        /* \"#utility.yul\":4987:5013   */\n      swap1\n      pop\n        /* \"#utility.yul\":5023:5094   */\n      tag_213\n        /* \"#utility.yul\":5091:5092   */\n      0x00\n        /* \"#utility.yul\":5080:5089   */\n      dup4\n        /* \"#utility.yul\":5076:5093   */\n      add\n        /* \"#utility.yul\":5067:5073   */\n      dup7\n        /* \"#utility.yul\":5023:5094   */\n      tag_192\n      jump\t// in\n    tag_213:\n        /* \"#utility.yul\":5104:5176   */\n      tag_214\n        /* \"#utility.yul\":5172:5174   */\n      0x20\n        /* \"#utility.yul\":5161:5170   */\n      dup4\n        /* \"#utility.yul\":5157:5175   */\n      add\n        /* \"#utility.yul\":5148:5154   */\n      dup6\n        /* \"#utility.yul\":5104:5176   */\n      tag_192\n      jump\t// in\n    tag_214:\n        /* \"#utility.yul\":5186:5258   */\n      tag_215\n        /* \"#utility.yul\":5254:5256   */\n      0x40\n        /* \"#utility.yul\":5243:5252   */\n      dup4\n        /* \"#utility.yul\":5239:5257   */\n      add\n        /* \"#utility.yul\":5230:5236   */\n      dup5\n        /* \"#utility.yul\":5186:5258   */\n      tag_192\n      jump\t// in\n    tag_215:\n        /* \"#utility.yul\":4823:5265   */\n      swap5\n      swap4\n      pop\n      pop\n      pop\n      pop\n      jump\t// out\n        /* \"#utility.yul\":5271:5824   */\n    tag_67:\n        /* \"#utility.yul\":5448:5452   */\n      0x00\n        /* \"#utility.yul\":5486:5489   */\n      0x80\n        /* \"#utility.yul\":5475:5484   */\n      dup3\n        /* \"#utility.yul\":5471:5490   */\n      add\n        /* \"#utility.yul\":5463:5490   */\n      swap1\n      pop\n        /* \"#utility.yul\":5500:5571   */\n      tag_217\n        /* \"#utility.yul\":5568:5569   */\n      0x00\n        /* \"#utility.yul\":5557:5566   */\n      dup4\n        /* \"#utility.yul\":5553:5570   */\n      add\n        /* \"#utility.yul\":5544:5550   */\n      dup8\n        /* \"#utility.yul\":5500:5571   */\n      tag_192\n      jump\t// in\n    tag_217:\n        /* \"#utility.yul\":5581:5653   */\n      tag_218\n        /* \"#utility.yul\":5649:5651   */\n      0x20\n        /* \"#utility.yul\":5638:5647   */\n      dup4\n        /* \"#utility.yul\":5634:5652   */\n      add\n        /* \"#utility.yul\":5625:5631   */\n      dup7\n        /* \"#utility.yul\":5581:5653   */\n      tag_192\n      jump\t// in\n    tag_218:\n        /* \"#utility.yul\":5663:5735   */\n      tag_219\n        /* \"#utility.yul\":5731:5733   */\n      0x40\n        /* \"#utility.yul\":5720:5729   */\n      dup4\n        /* \"#utility.yul\":5716:5734   */\n      add\n        /* \"#utility.yul\":5707:5713   */\n      dup6\n        /* \"#utility.yul\":5663:5735   */\n      tag_192\n      jump\t// in\n    tag_219:\n        /* \"#utility.yul\":5745:5817   */\n      tag_220\n        /* \"#utility.yul\":5813:5815   */\n      0x60\n        /* \"#utility.yul\":5802:5811   */\n      dup4\n        /* \"#utility.yul\":5798:5816   */\n      add\n        /* \"#utility.yul\":5789:5795   */\n      dup5\n        /* \"#utility.yul\":5745:5817   */\n      tag_192\n      jump\t// in\n    tag_220:\n        /* \"#utility.yul\":5271:5824   */\n      swap6\n      swap5\n      pop\n      pop\n      pop\n      pop\n      pop\n      jump\t// out\n        /* \"#utility.yul\":5830:6249   */\n    tag_145:\n        /* \"#utility.yul\":5996:6000   */\n      0x00\n        /* \"#utility.yul\":6034:6036   */\n      0x20\n        /* \"#utility.yul\":6023:6032   */\n      dup3\n        /* \"#utility.yul\":6019:6037   */\n      add\n        /* \"#utility.yul\":6011:6037   */\n      swap1\n      pop\n        /* \"#utility.yul\":6083:6092   */\n      dup2\n        /* \"#utility.yul\":6077:6081   */\n      dup2\n        /* \"#utility.yul\":6073:6093   */\n      sub\n        /* \"#utility.yul\":6069:6070   */\n      0x00\n        /* \"#utility.yul\":6058:6067   */\n      dup4\n        /* \"#utility.yul\":6054:6071   */\n      add\n        /* \"#utility.yul\":6047:6094   */\n      mstore\n        /* \"#utility.yul\":6111:6242   */\n      tag_222\n        /* \"#utility.yul\":6237:6241   */\n      dup2\n        /* \"#utility.yul\":6111:6242   */\n      tag_196\n      jump\t// in\n    tag_222:\n        /* \"#utility.yul\":6103:6242   */\n      swap1\n      pop\n        /* \"#utility.yul\":5830:6249   */\n      swap2\n      swap1\n      pop\n      jump\t// out\n        /* \"#utility.yul\":6255:6674   */\n    tag_90:\n        /* \"#utility.yul\":6421:6425   */\n      0x00\n        /* \"#utility.yul\":6459:6461   */\n      0x20\n        /* \"#utility.yul\":6448:6457   */\n      dup3\n        /* \"#utility.yul\":6444:6462   */\n      add\n        /* \"#utility.yul\":6436:6462   */\n      swap1\n      pop\n        /* \"#utility.yul\":6508:6517   */\n      dup2\n        /* \"#utility.yul\":6502:6506   */\n      dup2\n        /* \"#utility.yul\":6498:6518   */\n      sub\n        /* \"#utility.yul\":6494:6495   */\n      0x00\n        /* \"#utility.yul\":6483:6492   */\n      dup4\n        /* \"#utility.yul\":6479:6496   */\n      add\n        /* \"#utility.yul\":6472:6519   */\n      mstore\n        /* \"#utility.yul\":6536:6667   */\n      tag_224\n        /* \"#utility.yul\":6662:6666   */\n      dup2\n        /* \"#utility.yul\":6536:6667   */\n      tag_202\n      jump\t// in\n    tag_224:\n        /* \"#utility.yul\":6528:6667   */\n      swap1\n      pop\n        /* \"#utility.yul\":6255:6674   */\n      swap2\n      swap1\n      pop\n      jump\t// out\n        /* \"#utility.yul\":6761:6930   */\n    tag_199:\n        /* \"#utility.yul\":6845:6856   */\n      0x00\n        /* \"#utility.yul\":6879:6885   */\n      dup3\n        /* \"#utility.yul\":6874:6877   */\n      dup3\n        /* \"#utility.yul\":6867:6886   */\n      mstore\n        /* \"#utility.yul\":6919:6923   */\n      0x20\n        /* \"#utility.yul\":6914:6917   */\n      dup3\n        /* \"#utility.yul\":6910:6924   */\n      add\n        /* \"#utility.yul\":6895:6924   */\n      swap1\n      pop\n        /* \"#utility.yul\":6761:6930   */\n      swap3\n      swap2\n      pop\n      pop\n      jump\t// out\n        /* \"#utility.yul\":6936:7032   */\n    tag_195:\n        /* \"#utility.yul\":6973:6980   */\n      0x00\n        /* \"#utility.yul\":7002:7026   */\n      tag_229\n        /* \"#utility.yul\":7020:7025   */\n      dup3\n        /* \"#utility.yul\":7002:7026   */\n      tag_230\n      jump\t// in\n    tag_229:\n        /* \"#utility.yul\":6991:7026   */\n      swap1\n      pop\n        /* \"#utility.yul\":6936:7032   */\n      swap2\n      swap1\n      pop\n      jump\t// out\n        /* \"#utility.yul\":7038:7164   */\n    tag_230:\n        /* \"#utility.yul\":7075:7082   */\n      0x00\n        /* \"#utility.yul\":7115:7157   */\n      0xffffffffffffffffffffffffffffffffffffffff\n        /* \"#utility.yul\":7108:7113   */\n      dup3\n        /* \"#utility.yul\":7104:7158   */\n      and\n        /* \"#utility.yul\":7093:7158   */\n      swap1\n      pop\n        /* \"#utility.yul\":7038:7164   */\n      swap2\n      swap1\n      pop\n      jump\t// out\n        /* \"#utility.yul\":7170:7350   */\n    tag_58:\n        /* \"#utility.yul\":7218:7295   */\n      0x4e487b7100000000000000000000000000000000000000000000000000000000\n        /* \"#utility.yul\":7215:7216   */\n      0x00\n        /* \"#utility.yul\":7208:7296   */\n      mstore\n        /* \"#utility.yul\":7315:7319   */\n      0x21\n        /* \"#utility.yul\":7312:7313   */\n      0x04\n        /* \"#utility.yul\":7305:7320   */\n      mstore\n        /* \"#utility.yul\":7339:7343   */\n      0x24\n        /* \"#utility.yul\":7336:7337   */\n      0x00\n        /* \"#utility.yul\":7329:7344   */\n      revert\n        /* \"#utility.yul\":7479:7596   */\n    tag_164:\n        /* \"#utility.yul\":7588:7589   */\n      0x00\n        /* \"#utility.yul\":7585:7586   */\n      dup1\n        /* \"#utility.yul\":7578:7590   */\n      revert\n        /* \"#utility.yul\":7602:7827   */\n    tag_201:\n        /* \"#utility.yul\":7742:7776   */\n      0x4f776e61626c653a206e6577206f776e657220697320746865207a65726f2061\n        /* \"#utility.yul\":7738:7739   */\n      0x00\n        /* \"#utility.yul\":7730:7736   */\n      dup3\n        /* \"#utility.yul\":7726:7740   */\n      add\n        /* \"#utility.yul\":7719:7777   */\n      mstore\n        /* \"#utility.yul\":7811:7819   */\n      0x6464726573730000000000000000000000000000000000000000000000000000\n        /* \"#utility.yul\":7806:7808   */\n      0x20\n        /* \"#utility.yul\":7798:7804   */\n      dup3\n        /* \"#utility.yul\":7794:7809   */\n      add\n        /* \"#utility.yul\":7787:7820   */\n      mstore\n        /* \"#utility.yul\":7602:7827   */\n      pop\n      jump\t// out\n        /* \"#utility.yul\":7833:8015   */\n    tag_206:\n        /* \"#utility.yul\":7973:8007   */\n      0x4f776e61626c653a2063616c6c6572206973206e6f7420746865206f776e6572\n        /* \"#utility.yul\":7969:7970   */\n      0x00\n        /* \"#utility.yul\":7961:7967   */\n      dup3\n        /* \"#utility.yul\":7957:7971   */\n      add\n        /* \"#utility.yul\":7950:8008   */\n      mstore\n        /* \"#utility.yul\":7833:8015   */\n      pop\n      jump\t// out\n        /* \"#utility.yul\":8021:8143   */\n    tag_153:\n        /* \"#utility.yul\":8094:8118   */\n      tag_239\n        /* \"#utility.yul\":8112:8117   */\n      dup2\n        /* \"#utility.yul\":8094:8118   */\n      tag_195\n      jump\t// in\n    tag_239:\n        /* \"#utility.yul\":8087:8092   */\n      dup2\n        /* \"#utility.yul\":8084:8119   */\n      eq\n        /* \"#utility.yul\":8074:8137   */\n      tag_240\n      jumpi\n        /* \"#utility.yul\":8133:8134   */\n      0x00\n        /* \"#utility.yul\":8130:8131   */\n      dup1\n        /* \"#utility.yul\":8123:8135   */\n      revert\n        /* \"#utility.yul\":8074:8137   */\n    tag_240:\n        /* \"#utility.yul\":8021:8143   */\n      pop\n      jump\t// out\n        /* \"#utility.yul\":8149:8258   */\n    tag_160:\n        /* \"#utility.yul\":8232:8233   */\n      0x04\n        /* \"#utility.yul\":8225:8230   */\n      dup2\n        /* \"#utility.yul\":8222:8234   */\n      lt\n        /* \"#utility.yul\":8212:8252   */\n      tag_242\n      jumpi\n        /* \"#utility.yul\":8248:8249   */\n      0x00\n        /* \"#utility.yul\":8245:8246   */\n      dup1\n        /* \"#utility.yul\":8238:8250   */\n      revert\n        /* \"#utility.yul\":8212:8252   */\n    tag_242:\n        /* \"#utility.yul\":8149:8258   */\n      pop\n      jump\t// out\n\n    auxdata: 0xa2646970667358221220f891cd3cd42997246db5774d8b51105923d75fbbb4c4b8f009ddb04d497f288564736f6c63430008070033\n}\n",
				"bytecode": {
					"linkReferences": {},
					"object": "60806040523480156200001157600080fd5b506040516200145238038062001452833981810160405281019062000037919062000336565b620000576200004b6200025360201b60201c565b6200025b60201b60201c565b8360016000806003811115620000725762000071620003dc565b5b6003811115620000875762000086620003dc565b5b815260200190815260200160002060006101000a81548173ffffffffffffffffffffffffffffffffffffffff021916908373ffffffffffffffffffffffffffffffffffffffff160217905550826001600060016003811115620000ef57620000ee620003dc565b5b6003811115620001045762000103620003dc565b5b815260200190815260200160002060006101000a81548173ffffffffffffffffffffffffffffffffffffffff021916908373ffffffffffffffffffffffffffffffffffffffff1602179055508160016000600260038111156200016c576200016b620003dc565b5b6003811115620001815762000180620003dc565b5b815260200190815260200160002060006101000a81548173ffffffffffffffffffffffffffffffffffffffff021916908373ffffffffffffffffffffffffffffffffffffffff1602179055508060016000600380811115620001e857620001e7620003dc565b5b6003811115620001fd57620001fc620003dc565b5b815260200190815260200160002060006101000a81548173ffffffffffffffffffffffffffffffffffffffff021916908373ffffffffffffffffffffffffffffffffffffffff160217905550505050506200042a565b600033905090565b60008060009054906101000a900473ffffffffffffffffffffffffffffffffffffffff169050816000806101000a81548173ffffffffffffffffffffffffffffffffffffffff021916908373ffffffffffffffffffffffffffffffffffffffff1602179055508173ffffffffffffffffffffffffffffffffffffffff168173ffffffffffffffffffffffffffffffffffffffff167f8be0079c531659141344cd1fd0a4f28419497f9722a3daafe3b4186f6b6457e060405160405180910390a35050565b600081519050620003308162000410565b92915050565b600080600080608085870312156200035357620003526200040b565b5b600062000363878288016200031f565b945050602062000376878288016200031f565b935050604062000389878288016200031f565b92505060606200039c878288016200031f565b91505092959194509250565b6000620003b582620003bc565b9050919050565b600073ffffffffffffffffffffffffffffffffffffffff82169050919050565b7f4e487b7100000000000000000000000000000000000000000000000000000000600052602160045260246000fd5b600080fd5b6200041b81620003a8565b81146200042757600080fd5b50565b611018806200043a6000396000f3fe608060405234801561001057600080fd5b506004361061009e5760003560e01c80639cd5973d116100665780639cd5973d1461015b578063b928882e14610177578063c124178a146101a7578063e162fa77146101d7578063f2fde38b146102075761009e565b80630e8cac98146100a357806314560c38146100d3578063378ac24514610103578063715018a6146101335780638da5cb5b1461013d575b600080fd5b6100bd60048036038101906100b89190610d4a565b610223565b6040516100ca9190610dcc565b60405180910390f35b6100ed60048036038101906100e89190610ce3565b610284565b6040516100fa9190610dcc565b60405180910390f35b61011d60048036038101906101189190610c90565b610378565b60405161012a9190610dcc565b60405180910390f35b61013b61046a565b005b6101456104f2565b6040516101529190610dcc565b60405180910390f35b61017560048036038101906101709190610ce3565b61051b565b005b610191600480360381019061018c9190610c50565b6107e0565b60405161019e9190610dcc565b60405180910390f35b6101c160048036038101906101bc9190610d4a565b6108cf565b6040516101ce9190610dcc565b60405180910390f35b6101f160048036038101906101ec9190610c90565b610902565b6040516101fe9190610dcc565b60405180910390f35b610221600480360381019061021c9190610bf6565b6109f3565b005b60006001600083600381111561023c5761023b610f0f565b5b600381111561024e5761024d610f0f565b5b815260200190815260200160002060009054906101000a900473ffffffffffffffffffffffffffffffffffffffff169050919050565b60006001600060038081111561029d5761029c610f0f565b5b60038111156102af576102ae610f0f565b5b815260200190815260200160002060009054906101000a900473ffffffffffffffffffffffffffffffffffffffff1673ffffffffffffffffffffffffffffffffffffffff166314560c38868686866040518563ffffffff1660e01b815260040161031c9493929190610e47565b602060405180830381600087803b15801561033657600080fd5b505af115801561034a573d6000803e3d6000fd5b505050506040513d601f19601f8201168201806040525081019061036e9190610c23565b9050949350505050565b6000600160006002600381111561039257610391610f0f565b5b60038111156103a4576103a3610f0f565b5b815260200190815260200160002060009054906101000a900473ffffffffffffffffffffffffffffffffffffffff1673ffffffffffffffffffffffffffffffffffffffff1663378ac2458585856040518463ffffffff1660e01b815260040161040f93929190610e10565b602060405180830381600087803b15801561042957600080fd5b505af115801561043d573d6000803e3d6000fd5b505050506040513d601f19601f820116820180604052508101906104619190610c23565b90509392505050565b610472610aeb565b73ffffffffffffffffffffffffffffffffffffffff166104906104f2565b73ffffffffffffffffffffffffffffffffffffffff16146104e6576040517f08c379a00000000000000000000000000000000000000000000000000000000081526004016104dd90610eac565b60405180910390fd5b6104f06000610af3565b565b60008060009054906101000a900473ffffffffffffffffffffffffffffffffffffffff16905090565b600073ffffffffffffffffffffffffffffffffffffffff168473ffffffffffffffffffffffffffffffffffffffff16141580156105855750600073ffffffffffffffffffffffffffffffffffffffff168373ffffffffffffffffffffffffffffffffffffffff1614155b80156105be5750600073ffffffffffffffffffffffffffffffffffffffff168273ffffffffffffffffffffffffffffffffffffffff1614155b80156105f75750600073ffffffffffffffffffffffffffffffffffffffff168173ffffffffffffffffffffffffffffffffffffffff1614155b61060057600080fd5b836001600080600381111561061857610617610f0f565b5b600381111561062a57610629610f0f565b5b815260200190815260200160002060006101000a81548173ffffffffffffffffffffffffffffffffffffffff021916908373ffffffffffffffffffffffffffffffffffffffff16021790555082600160006001600381111561068f5761068e610f0f565b5b60038111156106a1576106a0610f0f565b5b815260200190815260200160002060006101000a81548173ffffffffffffffffffffffffffffffffffffffff021916908373ffffffffffffffffffffffffffffffffffffffff16021790555081600160006002600381111561070657610705610f0f565b5b600381111561071857610717610f0f565b5b815260200190815260200160002060006101000a81548173ffffffffffffffffffffffffffffffffffffffff021916908373ffffffffffffffffffffffffffffffffffffffff160217905550806001600060038081111561077c5761077b610f0f565b5b600381111561078e5761078d610f0f565b5b815260200190815260200160002060006101000a81548173ffffffffffffffffffffffffffffffffffffffff021916908373ffffffffffffffffffffffffffffffffffffffff16021790555050505050565b600060016000600160038111156107fa576107f9610f0f565b5b600381111561080c5761080b610f0f565b5b815260200190815260200160002060009054906101000a900473ffffffffffffffffffffffffffffffffffffffff1673ffffffffffffffffffffffffffffffffffffffff166389d0bc1e84846040518363ffffffff1660e01b8152600401610875929190610de7565b602060405180830381600087803b15801561088f57600080fd5b505af11580156108a3573d6000803e3d6000fd5b505050506040513d601f19601f820116820180604052508101906108c79190610c23565b905092915050565b60016020528060005260406000206000915054906101000a900473ffffffffffffffffffffffffffffffffffffffff1681565b60006001600080600381111561091b5761091a610f0f565b5b600381111561092d5761092c610f0f565b5b815260200190815260200160002060009054906101000a900473ffffffffffffffffffffffffffffffffffffffff1673ffffffffffffffffffffffffffffffffffffffff1663e162fa778585856040518463ffffffff1660e01b815260040161099893929190610e10565b602060405180830381600087803b1580156109b257600080fd5b505af11580156109c6573d6000803e3d6000fd5b505050506040513d601f19601f820116820180604052508101906109ea9190610c23565b90509392505050565b6109fb610aeb565b73ffffffffffffffffffffffffffffffffffffffff16610a196104f2565b73ffffffffffffffffffffffffffffffffffffffff1614610a6f576040517f08c379a0000000000000000000000000000000000000000000000000000000008152600401610a6690610eac565b60405180910390fd5b600073ffffffffffffffffffffffffffffffffffffffff168173ffffffffffffffffffffffffffffffffffffffff161415610adf576040517f08c379a0000000000000000000000000000000000000000000000000000000008152600401610ad690610e8c565b60405180910390fd5b610ae881610af3565b50565b600033905090565b60008060009054906101000a900473ffffffffffffffffffffffffffffffffffffffff169050816000806101000a81548173ffffffffffffffffffffffffffffffffffffffff021916908373ffffffffffffffffffffffffffffffffffffffff1602179055508173ffffffffffffffffffffffffffffffffffffffff168173ffffffffffffffffffffffffffffffffffffffff167f8be0079c531659141344cd1fd0a4f28419497f9722a3daafe3b4186f6b6457e060405160405180910390a35050565b600081359050610bc681610fbb565b92915050565b600081519050610bdb81610fbb565b92915050565b600081359050610bf081610fd2565b92915050565b600060208284031215610c0c57610c0b610f3e565b5b6000610c1a84828501610bb7565b91505092915050565b600060208284031215610c3957610c38610f3e565b5b6000610c4784828501610bcc565b91505092915050565b60008060408385031215610c6757610c66610f3e565b5b6000610c7585828601610bb7565b9250506020610c8685828601610bb7565b9150509250929050565b600080600060608486031215610ca957610ca8610f3e565b5b6000610cb786828701610bb7565b9350506020610cc886828701610bb7565b9250506040610cd986828701610bb7565b9150509250925092565b60008060008060808587031215610cfd57610cfc610f3e565b5b6000610d0b87828801610bb7565b9450506020610d1c87828801610bb7565b9350506040610d2d87828801610bb7565b9250506060610d3e87828801610bb7565b91505092959194509250565b600060208284031215610d6057610d5f610f3e565b5b6000610d6e84828501610be1565b91505092915050565b610d8081610edd565b82525050565b6000610d93602683610ecc565b9150610d9e82610f43565b604082019050919050565b6000610db6602083610ecc565b9150610dc182610f92565b602082019050919050565b6000602082019050610de16000830184610d77565b92915050565b6000604082019050610dfc6000830185610d77565b610e096020830184610d77565b9392505050565b6000606082019050610e256000830186610d77565b610e326020830185610d77565b610e3f6040830184610d77565b949350505050565b6000608082019050610e5c6000830187610d77565b610e696020830186610d77565b610e766040830185610d77565b610e836060830184610d77565b95945050505050565b60006020820190508181036000830152610ea581610d86565b9050919050565b60006020820190508181036000830152610ec581610da9565b9050919050565b600082825260208201905092915050565b6000610ee882610eef565b9050919050565b600073ffffffffffffffffffffffffffffffffffffffff82169050919050565b7f4e487b7100000000000000000000000000000000000000000000000000000000600052602160045260246000fd5b600080fd5b7f4f776e61626c653a206e6577206f776e657220697320746865207a65726f206160008201527f6464726573730000000000000000000000000000000000000000000000000000602082015250565b7f4f776e61626c653a2063616c6c6572206973206e6f7420746865206f776e6572600082015250565b610fc481610edd565b8114610fcf57600080fd5b50565b60048110610fdf57600080fd5b5056fea2646970667358221220f891cd3cd42997246db5774d8b51105923d75fbbb4c4b8f009ddb04d497f288564736f6c63430008070033",
					"opcodes": "PUSH1 0x80 PUSH1 0x40 MSTORE CALLVALUE DUP1 ISZERO PUSH3 0x11 JUMPI PUSH1 0x0 DUP1 REVERT JUMPDEST POP PUSH1 0x40 MLOAD PUSH3 0x1452 CODESIZE SUB DUP1 PUSH3 0x1452 DUP4 CODECOPY DUP2 DUP2 ADD PUSH1 0x40 MSTORE DUP2 ADD SWAP1 PUSH3 0x37 SWAP2 SWAP1 PUSH3 0x336 JUMP JUMPDEST PUSH3 0x57 PUSH3 0x4B PUSH3 0x253 PUSH1 0x20 SHL PUSH1 0x20 SHR JUMP JUMPDEST PUSH3 0x25B PUSH1 0x20 SHL PUSH1 0x20 SHR JUMP JUMPDEST DUP4 PUSH1 0x1 PUSH1 0x0 DUP1 PUSH1 0x3 DUP2 GT ISZERO PUSH3 0x72 JUMPI PUSH3 0x71 PUSH3 0x3DC JUMP JUMPDEST JUMPDEST PUSH1 0x3 DUP2 GT ISZERO PUSH3 0x87 JUMPI PUSH3 0x86 PUSH3 0x3DC JUMP JUMPDEST JUMPDEST DUP2 MSTORE PUSH1 0x20 ADD SWAP1 DUP2 MSTORE PUSH1 0x20 ADD PUSH1 0x0 KECCAK256 PUSH1 0x0 PUSH2 0x100 EXP DUP2 SLOAD DUP2 PUSH20 0xFFFFFFFFFFFFFFFFFFFFFFFFFFFFFFFFFFFFFFFF MUL NOT AND SWAP1 DUP4 PUSH20 0xFFFFFFFFFFFFFFFFFFFFFFFFFFFFFFFFFFFFFFFF AND MUL OR SWAP1 SSTORE POP DUP3 PUSH1 0x1 PUSH1 0x0 PUSH1 0x1 PUSH1 0x3 DUP2 GT ISZERO PUSH3 0xEF JUMPI PUSH3 0xEE PUSH3 0x3DC JUMP JUMPDEST JUMPDEST PUSH1 0x3 DUP2 GT ISZERO PUSH3 0x104 JUMPI PUSH3 0x103 PUSH3 0x3DC JUMP JUMPDEST JUMPDEST DUP2 MSTORE PUSH1 0x20 ADD SWAP1 DUP2 MSTORE PUSH1 0x20 ADD PUSH1 0x0 KECCAK256 PUSH1 0x0 PUSH2 0x100 EXP DUP2 SLOAD DUP2 PUSH20 0xFFFFFFFFFFFFFFFFFFFFFFFFFFFFFFFFFFFFFFFF MUL NOT AND SWAP1 DUP4 PUSH20 0xFFFFFFFFFFFFFFFFFFFFFFFFFFFFFFFFFFFFFFFF AND MUL OR SWAP1 SSTORE POP DUP2 PUSH1 0x1 PUSH1 0x0 PUSH1 0x2 PUSH1 0x3 DUP2 GT ISZERO PUSH3 0x16C JUMPI PUSH3 0x16B PUSH3 0x3DC JUMP JUMPDEST JUMPDEST PUSH1 0x3 DUP2 GT ISZERO PUSH3 0x181 JUMPI PUSH3 0x180 PUSH3 0x3DC JUMP JUMPDEST JUMPDEST DUP2 MSTORE PUSH1 0x20 ADD SWAP1 DUP2 MSTORE PUSH1 0x20 ADD PUSH1 0x0 KECCAK256 PUSH1 0x0 PUSH2 0x100 EXP DUP2 SLOAD DUP2 PUSH20 0xFFFFFFFFFFFFFFFFFFFFFFFFFFFFFFFFFFFFFFFF MUL NOT AND SWAP1 DUP4 PUSH20 0xFFFFFFFFFFFFFFFFFFFFFFFFFFFFFFFFFFFFFFFF AND MUL OR SWAP1 SSTORE POP DUP1 PUSH1 0x1 PUSH1 0x0 PUSH1 0x3 DUP1 DUP2 GT ISZERO PUSH3 0x1E8 JUMPI PUSH3 0x1E7 PUSH3 0x3DC JUMP JUMPDEST JUMPDEST PUSH1 0x3 DUP2 GT ISZERO PUSH3 0x1FD JUMPI PUSH3 0x1FC PUSH3 0x3DC JUMP JUMPDEST JUMPDEST DUP2 MSTORE PUSH1 0x20 ADD SWAP1 DUP2 MSTORE PUSH1 0x20 ADD PUSH1 0x0 KECCAK256 PUSH1 0x0 PUSH2 0x100 EXP DUP2 SLOAD DUP2 PUSH20 0xFFFFFFFFFFFFFFFFFFFFFFFFFFFFFFFFFFFFFFFF MUL NOT AND SWAP1 DUP4 PUSH20 0xFFFFFFFFFFFFFFFFFFFFFFFFFFFFFFFFFFFFFFFF AND MUL OR SWAP1 SSTORE POP POP POP POP POP PUSH3 0x42A JUMP JUMPDEST PUSH1 0x0 CALLER SWAP1 POP SWAP1 JUMP JUMPDEST PUSH1 0x0 DUP1 PUSH1 0x0 SWAP1 SLOAD SWAP1 PUSH2 0x100 EXP SWAP1 DIV PUSH20 0xFFFFFFFFFFFFFFFFFFFFFFFFFFFFFFFFFFFFFFFF AND SWAP1 POP DUP2 PUSH1 0x0 DUP1 PUSH2 0x100 EXP DUP2 SLOAD DUP2 PUSH20 0xFFFFFFFFFFFFFFFFFFFFFFFFFFFFFFFFFFFFFFFF MUL NOT AND SWAP1 DUP4 PUSH20 0xFFFFFFFFFFFFFFFFFFFFFFFFFFFFFFFFFFFFFFFF AND MUL OR SWAP1 SSTORE POP DUP2 PUSH20 0xFFFFFFFFFFFFFFFFFFFFFFFFFFFFFFFFFFFFFFFF AND DUP2 PUSH20 0xFFFFFFFFFFFFFFFFFFFFFFFFFFFFFFFFFFFFFFFF AND PUSH32 0x8BE0079C531659141344CD1FD0A4F28419497F9722A3DAAFE3B4186F6B6457E0 PUSH1 0x40 MLOAD PUSH1 0x40 MLOAD DUP1 SWAP2 SUB SWAP1 LOG3 POP POP JUMP JUMPDEST PUSH1 0x0 DUP2 MLOAD SWAP1 POP PUSH3 0x330 DUP2 PUSH3 0x410 JUMP JUMPDEST SWAP3 SWAP2 POP POP JUMP JUMPDEST PUSH1 0x0 DUP1 PUSH1 0x0 DUP1 PUSH1 0x80 DUP6 DUP8 SUB SLT ISZERO PUSH3 0x353 JUMPI PUSH3 0x352 PUSH3 0x40B JUMP JUMPDEST JUMPDEST PUSH1 0x0 PUSH3 0x363 DUP8 DUP3 DUP9 ADD PUSH3 0x31F JUMP JUMPDEST SWAP5 POP POP PUSH1 0x20 PUSH3 0x376 DUP8 DUP3 DUP9 ADD PUSH3 0x31F JUMP JUMPDEST SWAP4 POP POP PUSH1 0x40 PUSH3 0x389 DUP8 DUP3 DUP9 ADD PUSH3 0x31F JUMP JUMPDEST SWAP3 POP POP PUSH1 0x60 PUSH3 0x39C DUP8 DUP3 DUP9 ADD PUSH3 0x31F JUMP JUMPDEST SWAP2 POP POP SWAP3 SWAP6 SWAP2 SWAP5 POP SWAP3 POP JUMP JUMPDEST PUSH1 0x0 PUSH3 0x3B5 DUP3 PUSH3 0x3BC JUMP JUMPDEST SWAP1 POP SWAP2 SWAP1 POP JUMP JUMPDEST PUSH1 0x0 PUSH20 0xFFFFFFFFFFFFFFFFFFFFFFFFFFFFFFFFFFFFFFFF DUP3 AND SWAP1 POP SWAP2 SWAP1 POP JUMP JUMPDEST PUSH32 0x4E487B7100000000000000000000000000000000000000000000000000000000 PUSH1 0x0 MSTORE PUSH1 0x21 PUSH1 0x4 MSTORE PUSH1 0x24 PUSH1 0x0 REVERT JUMPDEST PUSH1 0x0 DUP1 REVERT JUMPDEST PUSH3 0x41B DUP2 PUSH3 0x3A8 JUMP JUMPDEST DUP2 EQ PUSH3 0x427 JUMPI PUSH1 0x0 DUP1 REVERT JUMPDEST POP JUMP JUMPDEST PUSH2 0x1018 DUP1 PUSH3 0x43A PUSH1 0x0 CODECOPY PUSH1 0x0 RETURN INVALID PUSH1 0x80 PUSH1 0x40 MSTORE CALLVALUE DUP1 ISZERO PUSH2 0x10 JUMPI PUSH1 0x0 DUP1 REVERT JUMPDEST POP PUSH1 0x4 CALLDATASIZE LT PUSH2 0x9E JUMPI PUSH1 0x0 CALLDATALOAD PUSH1 0xE0 SHR DUP1 PUSH4 0x9CD5973D GT PUSH2 0x66 JUMPI DUP1 PUSH4 0x9CD5973D EQ PUSH2 0x15B JUMPI DUP1 PUSH4 0xB928882E EQ PUSH2 0x177 JUMPI DUP1 PUSH4 0xC124178A EQ PUSH2 0x1A7 JUMPI DUP1 PUSH4 0xE162FA77 EQ PUSH2 0x1D7 JUMPI DUP1 PUSH4 0xF2FDE38B EQ PUSH2 0x207 JUMPI PUSH2 0x9E JUMP JUMPDEST DUP1 PUSH4 0xE8CAC98 EQ PUSH2 0xA3 JUMPI DUP1 PUSH4 0x14560C38 EQ PUSH2 0xD3 JUMPI DUP1 PUSH4 0x378AC245 EQ PUSH2 0x103 JUMPI DUP1 PUSH4 0x715018A6 EQ PUSH2 0x133 JUMPI DUP1 PUSH4 0x8DA5CB5B EQ PUSH2 0x13D JUMPI JUMPDEST PUSH1 0x0 DUP1 REVERT JUMPDEST PUSH2 0xBD PUSH1 0x4 DUP1 CALLDATASIZE SUB DUP2 ADD SWAP1 PUSH2 0xB8 SWAP2 SWAP1 PUSH2 0xD4A JUMP JUMPDEST PUSH2 0x223 JUMP JUMPDEST PUSH1 0x40 MLOAD PUSH2 0xCA SWAP2 SWAP1 PUSH2 0xDCC JUMP JUMPDEST PUSH1 0x40 MLOAD DUP1 SWAP2 SUB SWAP1 RETURN JUMPDEST PUSH2 0xED PUSH1 0x4 DUP1 CALLDATASIZE SUB DUP2 ADD SWAP1 PUSH2 0xE8 SWAP2 SWAP1 PUSH2 0xCE3 JUMP JUMPDEST PUSH2 0x284 JUMP JUMPDEST PUSH1 0x40 MLOAD PUSH2 0xFA SWAP2 SWAP1 PUSH2 0xDCC JUMP JUMPDEST PUSH1 0x40 MLOAD DUP1 SWAP2 SUB SWAP1 RETURN JUMPDEST PUSH2 0x11D PUSH1 0x4 DUP1 CALLDATASIZE SUB DUP2 ADD SWAP1 PUSH2 0x118 SWAP2 SWAP1 PUSH2 0xC90 JUMP JUMPDEST PUSH2 0x378 JUMP JUMPDEST PUSH1 0x40 MLOAD PUSH2 0x12A SWAP2 SWAP1 PUSH2 0xDCC JUMP JUMPDEST PUSH1 0x40 MLOAD DUP1 SWAP2 SUB SWAP1 RETURN JUMPDEST PUSH2 0x13B PUSH2 0x46A JUMP JUMPDEST STOP JUMPDEST PUSH2 0x145 PUSH2 0x4F2 JUMP JUMPDEST PUSH1 0x40 MLOAD PUSH2 0x152 SWAP2 SWAP1 PUSH2 0xDCC JUMP JUMPDEST PUSH1 0x40 MLOAD DUP1 SWAP2 SUB SWAP1 RETURN JUMPDEST PUSH2 0x175 PUSH1 0x4 DUP1 CALLDATASIZE SUB DUP2 ADD SWAP1 PUSH2 0x170 SWAP2 SWAP1 PUSH2 0xCE3 JUMP JUMPDEST PUSH2 0x51B JUMP JUMPDEST STOP JUMPDEST PUSH2 0x191 PUSH1 0x4 DUP1 CALLDATASIZE SUB DUP2 ADD SWAP1 PUSH2 0x18C SWAP2 SWAP1 PUSH2 0xC50 JUMP JUMPDEST PUSH2 0x7E0 JUMP JUMPDEST PUSH1 0x40 MLOAD PUSH2 0x19E SWAP2 SWAP1 PUSH2 0xDCC JUMP JUMPDEST PUSH1 0x40 MLOAD DUP1 SWAP2 SUB SWAP1 RETURN JUMPDEST PUSH2 0x1C1 PUSH1 0x4 DUP1 CALLDATASIZE SUB DUP2 ADD SWAP1 PUSH2 0x1BC SWAP2 SWAP1 PUSH2 0xD4A JUMP JUMPDEST PUSH2 0x8CF JUMP JUMPDEST PUSH1 0x40 MLOAD PUSH2 0x1CE SWAP2 SWAP1 PUSH2 0xDCC JUMP JUMPDEST PUSH1 0x40 MLOAD DUP1 SWAP2 SUB SWAP1 RETURN JUMPDEST PUSH2 0x1F1 PUSH1 0x4 DUP1 CALLDATASIZE SUB DUP2 ADD SWAP1 PUSH2 0x1EC SWAP2 SWAP1 PUSH2 0xC90 JUMP JUMPDEST PUSH2 0x902 JUMP JUMPDEST PUSH1 0x40 MLOAD PUSH2 0x1FE SWAP2 SWAP1 PUSH2 0xDCC JUMP JUMPDEST PUSH1 0x40 MLOAD DUP1 SWAP2 SUB SWAP1 RETURN JUMPDEST PUSH2 0x221 PUSH1 0x4 DUP1 CALLDATASIZE SUB DUP2 ADD SWAP1 PUSH2 0x21C SWAP2 SWAP1 PUSH2 0xBF6 JUMP JUMPDEST PUSH2 0x9F3 JUMP JUMPDEST STOP JUMPDEST PUSH1 0x0 PUSH1 0x1 PUSH1 0x0 DUP4 PUSH1 0x3 DUP2 GT ISZERO PUSH2 0x23C JUMPI PUSH2 0x23B PUSH2 0xF0F JUMP JUMPDEST JUMPDEST PUSH1 0x3 DUP2 GT ISZERO PUSH2 0x24E JUMPI PUSH2 0x24D PUSH2 0xF0F JUMP JUMPDEST JUMPDEST DUP2 MSTORE PUSH1 0x20 ADD SWAP1 DUP2 MSTORE PUSH1 0x20 ADD PUSH1 0x0 KECCAK256 PUSH1 0x0 SWAP1 SLOAD SWAP1 PUSH2 0x100 EXP SWAP1 DIV PUSH20 0xFFFFFFFFFFFFFFFFFFFFFFFFFFFFFFFFFFFFFFFF AND SWAP1 POP SWAP2 SWAP1 POP JUMP JUMPDEST PUSH1 0x0 PUSH1 0x1 PUSH1 0x0 PUSH1 0x3 DUP1 DUP2 GT ISZERO PUSH2 0x29D JUMPI PUSH2 0x29C PUSH2 0xF0F JUMP JUMPDEST JUMPDEST PUSH1 0x3 DUP2 GT ISZERO PUSH2 0x2AF JUMPI PUSH2 0x2AE PUSH2 0xF0F JUMP JUMPDEST JUMPDEST DUP2 MSTORE PUSH1 0x20 ADD SWAP1 DUP2 MSTORE PUSH1 0x20 ADD PUSH1 0x0 KECCAK256 PUSH1 0x0 SWAP1 SLOAD SWAP1 PUSH2 0x100 EXP SWAP1 DIV PUSH20 0xFFFFFFFFFFFFFFFFFFFFFFFFFFFFFFFFFFFFFFFF AND PUSH20 0xFFFFFFFFFFFFFFFFFFFFFFFFFFFFFFFFFFFFFFFF AND PUSH4 0x14560C38 DUP7 DUP7 DUP7 DUP7 PUSH1 0x40 MLOAD DUP6 PUSH4 0xFFFFFFFF AND PUSH1 0xE0 SHL DUP2 MSTORE PUSH1 0x4 ADD PUSH2 0x31C SWAP5 SWAP4 SWAP3 SWAP2 SWAP1 PUSH2 0xE47 JUMP JUMPDEST PUSH1 0x20 PUSH1 0x40 MLOAD DUP1 DUP4 SUB DUP2 PUSH1 0x0 DUP8 DUP1 EXTCODESIZE ISZERO DUP1 ISZERO PUSH2 0x336 JUMPI PUSH1 0x0 DUP1 REVERT JUMPDEST POP GAS CALL ISZERO DUP1 ISZERO PUSH2 0x34A JUMPI RETURNDATASIZE PUSH1 0x0 DUP1 RETURNDATACOPY RETURNDATASIZE PUSH1 0x0 REVERT JUMPDEST POP POP POP POP PUSH1 0x40 MLOAD RETURNDATASIZE PUSH1 0x1F NOT PUSH1 0x1F DUP3 ADD AND DUP3 ADD DUP1 PUSH1 0x40 MSTORE POP DUP2 ADD SWAP1 PUSH2 0x36E SWAP2 SWAP1 PUSH2 0xC23 JUMP JUMPDEST SWAP1 POP SWAP5 SWAP4 POP POP POP POP JUMP JUMPDEST PUSH1 0x0 PUSH1 0x1 PUSH1 0x0 PUSH1 0x2 PUSH1 0x3 DUP2 GT ISZERO PUSH2 0x392 JUMPI PUSH2 0x391 PUSH2 0xF0F JUMP JUMPDEST JUMPDEST PUSH1 0x3 DUP2 GT ISZERO PUSH2 0x3A4 JUMPI PUSH2 0x3A3 PUSH2 0xF0F JUMP JUMPDEST JUMPDEST DUP2 MSTORE PUSH1 0x20 ADD SWAP1 DUP2 MSTORE PUSH1 0x20 ADD PUSH1 0x0 KECCAK256 PUSH1 0x0 SWAP1 SLOAD SWAP1 PUSH2 0x100 EXP SWAP1 DIV PUSH20 0xFFFFFFFFFFFFFFFFFFFFFFFFFFFFFFFFFFFFFFFF AND PUSH20 0xFFFFFFFFFFFFFFFFFFFFFFFFFFFFFFFFFFFFFFFF AND PUSH4 0x378AC245 DUP6 DUP6 DUP6 PUSH1 0x40 MLOAD DUP5 PUSH4 0xFFFFFFFF AND PUSH1 0xE0 SHL DUP2 MSTORE PUSH1 0x4 ADD PUSH2 0x40F SWAP4 SWAP3 SWAP2 SWAP1 PUSH2 0xE10 JUMP JUMPDEST PUSH1 0x20 PUSH1 0x40 MLOAD DUP1 DUP4 SUB DUP2 PUSH1 0x0 DUP8 DUP1 EXTCODESIZE ISZERO DUP1 ISZERO PUSH2 0x429 JUMPI PUSH1 0x0 DUP1 REVERT JUMPDEST POP GAS CALL ISZERO DUP1 ISZERO PUSH2 0x43D JUMPI RETURNDATASIZE PUSH1 0x0 DUP1 RETURNDATACOPY RETURNDATASIZE PUSH1 0x0 REVERT JUMPDEST POP POP POP POP PUSH1 0x40 MLOAD RETURNDATASIZE PUSH1 0x1F NOT PUSH1 0x1F DUP3 ADD AND DUP3 ADD DUP1 PUSH1 0x40 MSTORE POP DUP2 ADD SWAP1 PUSH2 0x461 SWAP2 SWAP1 PUSH2 0xC23 JUMP JUMPDEST SWAP1 POP SWAP4 SWAP3 POP POP POP JUMP JUMPDEST PUSH2 0x472 PUSH2 0xAEB JUMP JUMPDEST PUSH20 0xFFFFFFFFFFFFFFFFFFFFFFFFFFFFFFFFFFFFFFFF AND PUSH2 0x490 PUSH2 0x4F2 JUMP JUMPDEST PUSH20 0xFFFFFFFFFFFFFFFFFFFFFFFFFFFFFFFFFFFFFFFF AND EQ PUSH2 0x4E6 JUMPI PUSH1 0x40 MLOAD PUSH32 0x8C379A000000000000000000000000000000000000000000000000000000000 DUP2 MSTORE PUSH1 0x4 ADD PUSH2 0x4DD SWAP1 PUSH2 0xEAC JUMP JUMPDEST PUSH1 0x40 MLOAD DUP1 SWAP2 SUB SWAP1 REVERT JUMPDEST PUSH2 0x4F0 PUSH1 0x0 PUSH2 0xAF3 JUMP JUMPDEST JUMP JUMPDEST PUSH1 0x0 DUP1 PUSH1 0x0 SWAP1 SLOAD SWAP1 PUSH2 0x100 EXP SWAP1 DIV PUSH20 0xFFFFFFFFFFFFFFFFFFFFFFFFFFFFFFFFFFFFFFFF AND SWAP1 POP SWAP1 JUMP JUMPDEST PUSH1 0x0 PUSH20 0xFFFFFFFFFFFFFFFFFFFFFFFFFFFFFFFFFFFFFFFF AND DUP5 PUSH20 0xFFFFFFFFFFFFFFFFFFFFFFFFFFFFFFFFFFFFFFFF AND EQ ISZERO DUP1 ISZERO PUSH2 0x585 JUMPI POP PUSH1 0x0 PUSH20 0xFFFFFFFFFFFFFFFFFFFFFFFFFFFFFFFFFFFFFFFF AND DUP4 PUSH20 0xFFFFFFFFFFFFFFFFFFFFFFFFFFFFFFFFFFFFFFFF AND EQ ISZERO JUMPDEST DUP1 ISZERO PUSH2 0x5BE JUMPI POP PUSH1 0x0 PUSH20 0xFFFFFFFFFFFFFFFFFFFFFFFFFFFFFFFFFFFFFFFF AND DUP3 PUSH20 0xFFFFFFFFFFFFFFFFFFFFFFFFFFFFFFFFFFFFFFFF AND EQ ISZERO JUMPDEST DUP1 ISZERO PUSH2 0x5F7 JUMPI POP PUSH1 0x0 PUSH20 0xFFFFFFFFFFFFFFFFFFFFFFFFFFFFFFFFFFFFFFFF AND DUP2 PUSH20 0xFFFFFFFFFFFFFFFFFFFFFFFFFFFFFFFFFFFFFFFF AND EQ ISZERO JUMPDEST PUSH2 0x600 JUMPI PUSH1 0x0 DUP1 REVERT JUMPDEST DUP4 PUSH1 0x1 PUSH1 0x0 DUP1 PUSH1 0x3 DUP2 GT ISZERO PUSH2 0x618 JUMPI PUSH2 0x617 PUSH2 0xF0F JUMP JUMPDEST JUMPDEST PUSH1 0x3 DUP2 GT ISZERO PUSH2 0x62A JUMPI PUSH2 0x629 PUSH2 0xF0F JUMP JUMPDEST JUMPDEST DUP2 MSTORE PUSH1 0x20 ADD SWAP1 DUP2 MSTORE PUSH1 0x20 ADD PUSH1 0x0 KECCAK256 PUSH1 0x0 PUSH2 0x100 EXP DUP2 SLOAD DUP2 PUSH20 0xFFFFFFFFFFFFFFFFFFFFFFFFFFFFFFFFFFFFFFFF MUL NOT AND SWAP1 DUP4 PUSH20 0xFFFFFFFFFFFFFFFFFFFFFFFFFFFFFFFFFFFFFFFF AND MUL OR SWAP1 SSTORE POP DUP3 PUSH1 0x1 PUSH1 0x0 PUSH1 0x1 PUSH1 0x3 DUP2 GT ISZERO PUSH2 0x68F JUMPI PUSH2 0x68E PUSH2 0xF0F JUMP JUMPDEST JUMPDEST PUSH1 0x3 DUP2 GT ISZERO PUSH2 0x6A1 JUMPI PUSH2 0x6A0 PUSH2 0xF0F JUMP JUMPDEST JUMPDEST DUP2 MSTORE PUSH1 0x20 ADD SWAP1 DUP2 MSTORE PUSH1 0x20 ADD PUSH1 0x0 KECCAK256 PUSH1 0x0 PUSH2 0x100 EXP DUP2 SLOAD DUP2 PUSH20 0xFFFFFFFFFFFFFFFFFFFFFFFFFFFFFFFFFFFFFFFF MUL NOT AND SWAP1 DUP4 PUSH20 0xFFFFFFFFFFFFFFFFFFFFFFFFFFFFFFFFFFFFFFFF AND MUL OR SWAP1 SSTORE POP DUP2 PUSH1 0x1 PUSH1 0x0 PUSH1 0x2 PUSH1 0x3 DUP2 GT ISZERO PUSH2 0x706 JUMPI PUSH2 0x705 PUSH2 0xF0F JUMP JUMPDEST JUMPDEST PUSH1 0x3 DUP2 GT ISZERO PUSH2 0x718 JUMPI PUSH2 0x717 PUSH2 0xF0F JUMP JUMPDEST JUMPDEST DUP2 MSTORE PUSH1 0x20 ADD SWAP1 DUP2 MSTORE PUSH1 0x20 ADD PUSH1 0x0 KECCAK256 PUSH1 0x0 PUSH2 0x100 EXP DUP2 SLOAD DUP2 PUSH20 0xFFFFFFFFFFFFFFFFFFFFFFFFFFFFFFFFFFFFFFFF MUL NOT AND SWAP1 DUP4 PUSH20 0xFFFFFFFFFFFFFFFFFFFFFFFFFFFFFFFFFFFFFFFF AND MUL OR SWAP1 SSTORE POP DUP1 PUSH1 0x1 PUSH1 0x0 PUSH1 0x3 DUP1 DUP2 GT ISZERO PUSH2 0x77C JUMPI PUSH2 0x77B PUSH2 0xF0F JUMP JUMPDEST JUMPDEST PUSH1 0x3 DUP2 GT ISZERO PUSH2 0x78E JUMPI PUSH2 0x78D PUSH2 0xF0F JUMP JUMPDEST JUMPDEST DUP2 MSTORE PUSH1 0x20 ADD SWAP1 DUP2 MSTORE PUSH1 0x20 ADD PUSH1 0x0 KECCAK256 PUSH1 0x0 PUSH2 0x100 EXP DUP2 SLOAD DUP2 PUSH20 0xFFFFFFFFFFFFFFFFFFFFFFFFFFFFFFFFFFFFFFFF MUL NOT AND SWAP1 DUP4 PUSH20 0xFFFFFFFFFFFFFFFFFFFFFFFFFFFFFFFFFFFFFFFF AND MUL OR SWAP1 SSTORE POP POP POP POP POP JUMP JUMPDEST PUSH1 0x0 PUSH1 0x1 PUSH1 0x0 PUSH1 0x1 PUSH1 0x3 DUP2 GT ISZERO PUSH2 0x7FA JUMPI PUSH2 0x7F9 PUSH2 0xF0F JUMP JUMPDEST JUMPDEST PUSH1 0x3 DUP2 GT ISZERO PUSH2 0x80C JUMPI PUSH2 0x80B PUSH2 0xF0F JUMP JUMPDEST JUMPDEST DUP2 MSTORE PUSH1 0x20 ADD SWAP1 DUP2 MSTORE PUSH1 0x20 ADD PUSH1 0x0 KECCAK256 PUSH1 0x0 SWAP1 SLOAD SWAP1 PUSH2 0x100 EXP SWAP1 DIV PUSH20 0xFFFFFFFFFFFFFFFFFFFFFFFFFFFFFFFFFFFFFFFF AND PUSH20 0xFFFFFFFFFFFFFFFFFFFFFFFFFFFFFFFFFFFFFFFF AND PUSH4 0x89D0BC1E DUP5 DUP5 PUSH1 0x40 MLOAD DUP4 PUSH4 0xFFFFFFFF AND PUSH1 0xE0 SHL DUP2 MSTORE PUSH1 0x4 ADD PUSH2 0x875 SWAP3 SWAP2 SWAP1 PUSH2 0xDE7 JUMP JUMPDEST PUSH1 0x20 PUSH1 0x40 MLOAD DUP1 DUP4 SUB DUP2 PUSH1 0x0 DUP8 DUP1 EXTCODESIZE ISZERO DUP1 ISZERO PUSH2 0x88F JUMPI PUSH1 0x0 DUP1 REVERT JUMPDEST POP GAS CALL ISZERO DUP1 ISZERO PUSH2 0x8A3 JUMPI RETURNDATASIZE PUSH1 0x0 DUP1 RETURNDATACOPY RETURNDATASIZE PUSH1 0x0 REVERT JUMPDEST POP POP POP POP PUSH1 0x40 MLOAD RETURNDATASIZE PUSH1 0x1F NOT PUSH1 0x1F DUP3 ADD AND DUP3 ADD DUP1 PUSH1 0x40 MSTORE POP DUP2 ADD SWAP1 PUSH2 0x8C7 SWAP2 SWAP1 PUSH2 0xC23 JUMP JUMPDEST SWAP1 POP SWAP3 SWAP2 POP POP JUMP JUMPDEST PUSH1 0x1 PUSH1 0x20 MSTORE DUP1 PUSH1 0x0 MSTORE PUSH1 0x40 PUSH1 0x0 KECCAK256 PUSH1 0x0 SWAP2 POP SLOAD SWAP1 PUSH2 0x100 EXP SWAP1 DIV PUSH20 0xFFFFFFFFFFFFFFFFFFFFFFFFFFFFFFFFFFFFFFFF AND DUP2 JUMP JUMPDEST PUSH1 0x0 PUSH1 0x1 PUSH1 0x0 DUP1 PUSH1 0x3 DUP2 GT ISZERO PUSH2 0x91B JUMPI PUSH2 0x91A PUSH2 0xF0F JUMP JUMPDEST JUMPDEST PUSH1 0x3 DUP2 GT ISZERO PUSH2 0x92D JUMPI PUSH2 0x92C PUSH2 0xF0F JUMP JUMPDEST JUMPDEST DUP2 MSTORE PUSH1 0x20 ADD SWAP1 DUP2 MSTORE PUSH1 0x20 ADD PUSH1 0x0 KECCAK256 PUSH1 0x0 SWAP1 SLOAD SWAP1 PUSH2 0x100 EXP SWAP1 DIV PUSH20 0xFFFFFFFFFFFFFFFFFFFFFFFFFFFFFFFFFFFFFFFF AND PUSH20 0xFFFFFFFFFFFFFFFFFFFFFFFFFFFFFFFFFFFFFFFF AND PUSH4 0xE162FA77 DUP6 DUP6 DUP6 PUSH1 0x40 MLOAD DUP5 PUSH4 0xFFFFFFFF AND PUSH1 0xE0 SHL DUP2 MSTORE PUSH1 0x4 ADD PUSH2 0x998 SWAP4 SWAP3 SWAP2 SWAP1 PUSH2 0xE10 JUMP JUMPDEST PUSH1 0x20 PUSH1 0x40 MLOAD DUP1 DUP4 SUB DUP2 PUSH1 0x0 DUP8 DUP1 EXTCODESIZE ISZERO DUP1 ISZERO PUSH2 0x9B2 JUMPI PUSH1 0x0 DUP1 REVERT JUMPDEST POP GAS CALL ISZERO DUP1 ISZERO PUSH2 0x9C6 JUMPI RETURNDATASIZE PUSH1 0x0 DUP1 RETURNDATACOPY RETURNDATASIZE PUSH1 0x0 REVERT JUMPDEST POP POP POP POP PUSH1 0x40 MLOAD RETURNDATASIZE PUSH1 0x1F NOT PUSH1 0x1F DUP3 ADD AND DUP3 ADD DUP1 PUSH1 0x40 MSTORE POP DUP2 ADD SWAP1 PUSH2 0x9EA SWAP2 SWAP1 PUSH2 0xC23 JUMP JUMPDEST SWAP1 POP SWAP4 SWAP3 POP POP POP JUMP JUMPDEST PUSH2 0x9FB PUSH2 0xAEB JUMP JUMPDEST PUSH20 0xFFFFFFFFFFFFFFFFFFFFFFFFFFFFFFFFFFFFFFFF AND PUSH2 0xA19 PUSH2 0x4F2 JUMP JUMPDEST PUSH20 0xFFFFFFFFFFFFFFFFFFFFFFFFFFFFFFFFFFFFFFFF AND EQ PUSH2 0xA6F JUMPI PUSH1 0x40 MLOAD PUSH32 0x8C379A000000000000000000000000000000000000000000000000000000000 DUP2 MSTORE PUSH1 0x4 ADD PUSH2 0xA66 SWAP1 PUSH2 0xEAC JUMP JUMPDEST PUSH1 0x40 MLOAD DUP1 SWAP2 SUB SWAP1 REVERT JUMPDEST PUSH1 0x0 PUSH20 0xFFFFFFFFFFFFFFFFFFFFFFFFFFFFFFFFFFFFFFFF AND DUP2 PUSH20 0xFFFFFFFFFFFFFFFFFFFFFFFFFFFFFFFFFFFFFFFF AND EQ ISZERO PUSH2 0xADF JUMPI PUSH1 0x40 MLOAD PUSH32 0x8C379A000000000000000000000000000000000000000000000000000000000 DUP2 MSTORE PUSH1 0x4 ADD PUSH2 0xAD6 SWAP1 PUSH2 0xE8C JUMP JUMPDEST PUSH1 0x40 MLOAD DUP1 SWAP2 SUB SWAP1 REVERT JUMPDEST PUSH2 0xAE8 DUP2 PUSH2 0xAF3 JUMP JUMPDEST POP JUMP JUMPDEST PUSH1 0x0 CALLER SWAP1 POP SWAP1 JUMP JUMPDEST PUSH1 0x0 DUP1 PUSH1 0x0 SWAP1 SLOAD SWAP1 PUSH2 0x100 EXP SWAP1 DIV PUSH20 0xFFFFFFFFFFFFFFFFFFFFFFFFFFFFFFFFFFFFFFFF AND SWAP1 POP DUP2 PUSH1 0x0 DUP1 PUSH2 0x100 EXP DUP2 SLOAD DUP2 PUSH20 0xFFFFFFFFFFFFFFFFFFFFFFFFFFFFFFFFFFFFFFFF MUL NOT AND SWAP1 DUP4 PUSH20 0xFFFFFFFFFFFFFFFFFFFFFFFFFFFFFFFFFFFFFFFF AND MUL OR SWAP1 SSTORE POP DUP2 PUSH20 0xFFFFFFFFFFFFFFFFFFFFFFFFFFFFFFFFFFFFFFFF AND DUP2 PUSH20 0xFFFFFFFFFFFFFFFFFFFFFFFFFFFFFFFFFFFFFFFF AND PUSH32 0x8BE0079C531659141344CD1FD0A4F28419497F9722A3DAAFE3B4186F6B6457E0 PUSH1 0x40 MLOAD PUSH1 0x40 MLOAD DUP1 SWAP2 SUB SWAP1 LOG3 POP POP JUMP JUMPDEST PUSH1 0x0 DUP2 CALLDATALOAD SWAP1 POP PUSH2 0xBC6 DUP2 PUSH2 0xFBB JUMP JUMPDEST SWAP3 SWAP2 POP POP JUMP JUMPDEST PUSH1 0x0 DUP2 MLOAD SWAP1 POP PUSH2 0xBDB DUP2 PUSH2 0xFBB JUMP JUMPDEST SWAP3 SWAP2 POP POP JUMP JUMPDEST PUSH1 0x0 DUP2 CALLDATALOAD SWAP1 POP PUSH2 0xBF0 DUP2 PUSH2 0xFD2 JUMP JUMPDEST SWAP3 SWAP2 POP POP JUMP JUMPDEST PUSH1 0x0 PUSH1 0x20 DUP3 DUP5 SUB SLT ISZERO PUSH2 0xC0C JUMPI PUSH2 0xC0B PUSH2 0xF3E JUMP JUMPDEST JUMPDEST PUSH1 0x0 PUSH2 0xC1A DUP5 DUP3 DUP6 ADD PUSH2 0xBB7 JUMP JUMPDEST SWAP2 POP POP SWAP3 SWAP2 POP POP JUMP JUMPDEST PUSH1 0x0 PUSH1 0x20 DUP3 DUP5 SUB SLT ISZERO PUSH2 0xC39 JUMPI PUSH2 0xC38 PUSH2 0xF3E JUMP JUMPDEST JUMPDEST PUSH1 0x0 PUSH2 0xC47 DUP5 DUP3 DUP6 ADD PUSH2 0xBCC JUMP JUMPDEST SWAP2 POP POP SWAP3 SWAP2 POP POP JUMP JUMPDEST PUSH1 0x0 DUP1 PUSH1 0x40 DUP4 DUP6 SUB SLT ISZERO PUSH2 0xC67 JUMPI PUSH2 0xC66 PUSH2 0xF3E JUMP JUMPDEST JUMPDEST PUSH1 0x0 PUSH2 0xC75 DUP6 DUP3 DUP7 ADD PUSH2 0xBB7 JUMP JUMPDEST SWAP3 POP POP PUSH1 0x20 PUSH2 0xC86 DUP6 DUP3 DUP7 ADD PUSH2 0xBB7 JUMP JUMPDEST SWAP2 POP POP SWAP3 POP SWAP3 SWAP1 POP JUMP JUMPDEST PUSH1 0x0 DUP1 PUSH1 0x0 PUSH1 0x60 DUP5 DUP7 SUB SLT ISZERO PUSH2 0xCA9 JUMPI PUSH2 0xCA8 PUSH2 0xF3E JUMP JUMPDEST JUMPDEST PUSH1 0x0 PUSH2 0xCB7 DUP7 DUP3 DUP8 ADD PUSH2 0xBB7 JUMP JUMPDEST SWAP4 POP POP PUSH1 0x20 PUSH2 0xCC8 DUP7 DUP3 DUP8 ADD PUSH2 0xBB7 JUMP JUMPDEST SWAP3 POP POP PUSH1 0x40 PUSH2 0xCD9 DUP7 DUP3 DUP8 ADD PUSH2 0xBB7 JUMP JUMPDEST SWAP2 POP POP SWAP3 POP SWAP3 POP SWAP3 JUMP JUMPDEST PUSH1 0x0 DUP1 PUSH1 0x0 DUP1 PUSH1 0x80 DUP6 DUP8 SUB SLT ISZERO PUSH2 0xCFD JUMPI PUSH2 0xCFC PUSH2 0xF3E JUMP JUMPDEST JUMPDEST PUSH1 0x0 PUSH2 0xD0B DUP8 DUP3 DUP9 ADD PUSH2 0xBB7 JUMP JUMPDEST SWAP5 POP POP PUSH1 0x20 PUSH2 0xD1C DUP8 DUP3 DUP9 ADD PUSH2 0xBB7 JUMP JUMPDEST SWAP4 POP POP PUSH1 0x40 PUSH2 0xD2D DUP8 DUP3 DUP9 ADD PUSH2 0xBB7 JUMP JUMPDEST SWAP3 POP POP PUSH1 0x60 PUSH2 0xD3E DUP8 DUP3 DUP9 ADD PUSH2 0xBB7 JUMP JUMPDEST SWAP2 POP POP SWAP3 SWAP6 SWAP2 SWAP5 POP SWAP3 POP JUMP JUMPDEST PUSH1 0x0 PUSH1 0x20 DUP3 DUP5 SUB SLT ISZERO PUSH2 0xD60 JUMPI PUSH2 0xD5F PUSH2 0xF3E JUMP JUMPDEST JUMPDEST PUSH1 0x0 PUSH2 0xD6E DUP5 DUP3 DUP6 ADD PUSH2 0xBE1 JUMP JUMPDEST SWAP2 POP POP SWAP3 SWAP2 POP POP JUMP JUMPDEST PUSH2 0xD80 DUP2 PUSH2 0xEDD JUMP JUMPDEST DUP3 MSTORE POP POP JUMP JUMPDEST PUSH1 0x0 PUSH2 0xD93 PUSH1 0x26 DUP4 PUSH2 0xECC JUMP JUMPDEST SWAP2 POP PUSH2 0xD9E DUP3 PUSH2 0xF43 JUMP JUMPDEST PUSH1 0x40 DUP3 ADD SWAP1 POP SWAP2 SWAP1 POP JUMP JUMPDEST PUSH1 0x0 PUSH2 0xDB6 PUSH1 0x20 DUP4 PUSH2 0xECC JUMP JUMPDEST SWAP2 POP PUSH2 0xDC1 DUP3 PUSH2 0xF92 JUMP JUMPDEST PUSH1 0x20 DUP3 ADD SWAP1 POP SWAP2 SWAP1 POP JUMP JUMPDEST PUSH1 0x0 PUSH1 0x20 DUP3 ADD SWAP1 POP PUSH2 0xDE1 PUSH1 0x0 DUP4 ADD DUP5 PUSH2 0xD77 JUMP JUMPDEST SWAP3 SWAP2 POP POP JUMP JUMPDEST PUSH1 0x0 PUSH1 0x40 DUP3 ADD SWAP1 POP PUSH2 0xDFC PUSH1 0x0 DUP4 ADD DUP6 PUSH2 0xD77 JUMP JUMPDEST PUSH2 0xE09 PUSH1 0x20 DUP4 ADD DUP5 PUSH2 0xD77 JUMP JUMPDEST SWAP4 SWAP3 POP POP POP JUMP JUMPDEST PUSH1 0x0 PUSH1 0x60 DUP3 ADD SWAP1 POP PUSH2 0xE25 PUSH1 0x0 DUP4 ADD DUP7 PUSH2 0xD77 JUMP JUMPDEST PUSH2 0xE32 PUSH1 0x20 DUP4 ADD DUP6 PUSH2 0xD77 JUMP JUMPDEST PUSH2 0xE3F PUSH1 0x40 DUP4 ADD DUP5 PUSH2 0xD77 JUMP JUMPDEST SWAP5 SWAP4 POP POP POP POP JUMP JUMPDEST PUSH1 0x0 PUSH1 0x80 DUP3 ADD SWAP1 POP PUSH2 0xE5C PUSH1 0x0 DUP4 ADD DUP8 PUSH2 0xD77 JUMP JUMPDEST PUSH2 0xE69 PUSH1 0x20 DUP4 ADD DUP7 PUSH2 0xD77 JUMP JUMPDEST PUSH2 0xE76 PUSH1 0x40 DUP4 ADD DUP6 PUSH2 0xD77 JUMP JUMPDEST PUSH2 0xE83 PUSH1 0x60 DUP4 ADD DUP5 PUSH2 0xD77 JUMP JUMPDEST SWAP6 SWAP5 POP POP POP POP POP JUMP JUMPDEST PUSH1 0x0 PUSH1 0x20 DUP3 ADD SWAP1 POP DUP2 DUP2 SUB PUSH1 0x0 DUP4 ADD MSTORE PUSH2 0xEA5 DUP2 PUSH2 0xD86 JUMP JUMPDEST SWAP1 POP SWAP2 SWAP1 POP JUMP JUMPDEST PUSH1 0x0 PUSH1 0x20 DUP3 ADD SWAP1 POP DUP2 DUP2 SUB PUSH1 0x0 DUP4 ADD MSTORE PUSH2 0xEC5 DUP2 PUSH2 0xDA9 JUMP JUMPDEST SWAP1 POP SWAP2 SWAP1 POP JUMP JUMPDEST PUSH1 0x0 DUP3 DUP3 MSTORE PUSH1 0x20 DUP3 ADD SWAP1 POP SWAP3 SWAP2 POP POP JUMP JUMPDEST PUSH1 0x0 PUSH2 0xEE8 DUP3 PUSH2 0xEEF JUMP JUMPDEST SWAP1 POP SWAP2 SWAP1 POP JUMP JUMPDEST PUSH1 0x0 PUSH20 0xFFFFFFFFFFFFFFFFFFFFFFFFFFFFFFFFFFFFFFFF DUP3 AND SWAP1 POP SWAP2 SWAP1 POP JUMP JUMPDEST PUSH32 0x4E487B7100000000000000000000000000000000000000000000000000000000 PUSH1 0x0 MSTORE PUSH1 0x21 PUSH1 0x4 MSTORE PUSH1 0x24 PUSH1 0x0 REVERT JUMPDEST PUSH1 0x0 DUP1 REVERT JUMPDEST PUSH32 0x4F776E61626C653A206E6577206F776E657220697320746865207A65726F2061 PUSH1 0x0 DUP3 ADD MSTORE PUSH32 0x6464726573730000000000000000000000000000000000000000000000000000 PUSH1 0x20 DUP3 ADD MSTORE POP JUMP JUMPDEST PUSH32 0x4F776E61626C653A2063616C6C6572206973206E6F7420746865206F776E6572 PUSH1 0x0 DUP3 ADD MSTORE POP JUMP JUMPDEST PUSH2 0xFC4 DUP2 PUSH2 0xEDD JUMP JUMPDEST DUP2 EQ PUSH2 0xFCF JUMPI PUSH1 0x0 DUP1 REVERT JUMPDEST POP JUMP JUMPDEST PUSH1 0x4 DUP2 LT PUSH2 0xFDF JUMPI PUSH1 0x0 DUP1 REVERT JUMPDEST POP JUMP INVALID LOG2 PUSH5 0x6970667358 0x22 SLT KECCAK256 0xF8 SWAP2 0xCD EXTCODECOPY 0xD4 0x29 SWAP8 0x24 PUSH14 0xB5774D8B51105923D75FBBB4C4B8 CREATE MULMOD 0xDD 0xB0 0x4D 0x49 PUSH32 0x288564736F6C6343000807003300000000000000000000000000000000000000 "
				},
				"gasEstimates": {
					"creation": {
						"codeDepositCost": "824000",
						"executionCost": "infinite",
						"totalCost": "infinite"
					},
					"external": {
						"createNewMission(address,address,address)": "infinite",
						"createNewScholarship(address,address,address)": "infinite",
						"createNewSubject(address,address)": "infinite",
						"createNewTuition(address,address,address,address)": "infinite",
						"getObject(uint8)": "2875",
						"object(uint8)": "2840",
						"owner()": "2611",
						"renounceOwnership()": "30441",
						"setObject(address,address,address,address)": "infinite",
						"transferOwnership(address)": "30811"
					}
				},
				"methodIdentifiers": {
					"createNewMission(address,address,address)": "e162fa77",
					"createNewScholarship(address,address,address)": "378ac245",
					"createNewSubject(address,address)": "b928882e",
					"createNewTuition(address,address,address,address)": "14560c38",
					"getObject(uint8)": "0e8cac98",
					"object(uint8)": "c124178a",
					"owner()": "8da5cb5b",
					"renounceOwnership()": "715018a6",
					"setObject(address,address,address,address)": "9cd5973d",
					"transferOwnership(address)": "f2fde38b"
				}
			},
			"userdoc": {
				"kind": "user",
				"methods": {},
				"version": 1
			}
		}
	}
}