{
	"contracts/marketplace/Marketplace.sol": {
		"Marketplace": {
			"abi": [
				{
					"inputs": [
						{
							"internalType": "address",
							"name": "_accessControl",
							"type": "address"
						},
						{
							"internalType": "address",
							"name": "_UITToken",
							"type": "address"
						},
						{
							"internalType": "address",
							"name": "_UITNFT",
							"type": "address"
						}
					],
					"stateMutability": "nonpayable",
					"type": "constructor"
				},
				{
					"anonymous": false,
					"inputs": [
						{
							"indexed": true,
							"internalType": "uint256",
							"name": "itemId",
							"type": "uint256"
						},
						{
							"indexed": false,
							"internalType": "uint256",
							"name": "amount",
							"type": "uint256"
						},
						{
							"indexed": false,
							"internalType": "address",
							"name": "ownerOfItem",
							"type": "address"
						}
					],
					"name": "AdminItemAmountUpdated",
					"type": "event"
				},
				{
					"anonymous": false,
					"inputs": [
						{
							"indexed": true,
							"internalType": "uint256",
							"name": "itemId",
							"type": "uint256"
						},
						{
							"indexed": false,
							"internalType": "uint256",
							"name": "amount",
							"type": "uint256"
						},
						{
							"indexed": false,
							"internalType": "uint256",
							"name": "oneItemPrice",
							"type": "uint256"
						},
						{
							"indexed": false,
							"internalType": "address",
							"name": "ownerOfItem",
							"type": "address"
						}
					],
					"name": "AdminItemListed",
					"type": "event"
				},
				{
					"anonymous": false,
					"inputs": [
						{
							"indexed": true,
							"internalType": "uint256",
							"name": "itemId",
							"type": "uint256"
						},
						{
							"indexed": false,
							"internalType": "address",
							"name": "buyer",
							"type": "address"
						},
						{
							"indexed": false,
							"internalType": "address",
							"name": "seller",
							"type": "address"
						},
						{
							"indexed": false,
							"internalType": "uint256",
							"name": "amount",
							"type": "uint256"
						},
						{
							"indexed": false,
							"internalType": "uint256",
							"name": "price",
							"type": "uint256"
						}
					],
					"name": "ItemBought",
					"type": "event"
				},
				{
					"anonymous": false,
					"inputs": [
						{
							"indexed": true,
							"internalType": "uint256",
							"name": "itemId",
							"type": "uint256"
						},
						{
							"indexed": false,
							"internalType": "uint256",
							"name": "amount",
							"type": "uint256"
						},
						{
							"indexed": false,
							"internalType": "address",
							"name": "ownerOfItem",
							"type": "address"
						}
					],
					"name": "ItemDelisted",
					"type": "event"
				},
				{
					"anonymous": false,
					"inputs": [
						{
							"indexed": true,
							"internalType": "uint256",
							"name": "itemId",
							"type": "uint256"
						},
						{
							"indexed": false,
							"internalType": "uint256",
							"name": "amount",
							"type": "uint256"
						},
						{
							"indexed": false,
							"internalType": "uint256",
							"name": "oneItemPrice",
							"type": "uint256"
						},
						{
							"indexed": false,
							"internalType": "address",
							"name": "ownerOfItem",
							"type": "address"
						}
					],
					"name": "ItemListed",
					"type": "event"
				},
				{
					"anonymous": false,
					"inputs": [
						{
							"indexed": false,
							"internalType": "uint256",
							"name": "newMarketFee",
							"type": "uint256"
						}
					],
					"name": "MarketFeeUpdated",
					"type": "event"
				},
				{
					"anonymous": false,
					"inputs": [
						{
							"indexed": true,
							"internalType": "address",
							"name": "previousOwner",
							"type": "address"
						},
						{
							"indexed": true,
							"internalType": "address",
							"name": "newOwner",
							"type": "address"
						}
					],
					"name": "OwnershipTransferred",
					"type": "event"
				},
				{
					"anonymous": false,
					"inputs": [
						{
							"indexed": false,
							"internalType": "address",
							"name": "account",
							"type": "address"
						}
					],
					"name": "Paused",
					"type": "event"
				},
				{
					"anonymous": false,
					"inputs": [
						{
							"indexed": true,
							"internalType": "uint256",
							"name": "itemId",
							"type": "uint256"
						},
						{
							"indexed": false,
							"internalType": "uint256",
							"name": "_oneItemPrice",
							"type": "uint256"
						},
						{
							"indexed": false,
							"internalType": "address",
							"name": "ownerOfItem",
							"type": "address"
						}
					],
					"name": "PriceUpdated",
					"type": "event"
				},
				{
					"anonymous": false,
					"inputs": [
						{
							"indexed": false,
							"internalType": "address",
							"name": "token",
							"type": "address"
						},
						{
							"indexed": false,
							"internalType": "bool",
							"name": "status",
							"type": "bool"
						}
					],
					"name": "TokenValidUpdatedStatus",
					"type": "event"
				},
				{
					"anonymous": false,
					"inputs": [
						{
							"indexed": false,
							"internalType": "address",
							"name": "account",
							"type": "address"
						}
					],
					"name": "Unpaused",
					"type": "event"
				},
				{
					"inputs": [],
					"name": "UITNFT",
					"outputs": [
						{
							"internalType": "address",
							"name": "",
							"type": "address"
						}
					],
					"stateMutability": "view",
					"type": "function"
				},
				{
					"inputs": [],
					"name": "UITToken",
					"outputs": [
						{
							"internalType": "address",
							"name": "",
							"type": "address"
						}
					],
					"stateMutability": "view",
					"type": "function"
				},
				{
					"inputs": [],
					"name": "accessControl",
					"outputs": [
						{
							"internalType": "address",
							"name": "",
							"type": "address"
						}
					],
					"stateMutability": "view",
					"type": "function"
				},
				{
					"inputs": [
						{
							"internalType": "uint256",
							"name": "_itemId",
							"type": "uint256"
						},
						{
							"internalType": "address",
							"name": "_seller",
							"type": "address"
						},
						{
							"internalType": "uint256",
							"name": "_amount",
							"type": "uint256"
						},
						{
							"internalType": "uint256",
							"name": "_oneItemBuyPrice",
							"type": "uint256"
						}
					],
					"name": "buy",
					"outputs": [],
					"stateMutability": "nonpayable",
					"type": "function"
				},
				{
					"inputs": [
						{
							"components": [
								{
									"internalType": "string",
									"name": "metadataInHash",
									"type": "string"
								},
								{
									"internalType": "bool",
									"name": "isCourseNFT",
									"type": "bool"
								}
							],
							"internalType": "struct ISharedStruct.NFTInfo",
							"name": "_nftInfo",
							"type": "tuple"
						},
						{
							"internalType": "uint256",
							"name": "_oneItemPrice",
							"type": "uint256"
						},
						{
							"internalType": "uint256",
							"name": "_amount",
							"type": "uint256"
						}
					],
					"name": "createAndListNFT",
					"outputs": [],
					"stateMutability": "nonpayable",
					"type": "function"
				},
				{
					"inputs": [
						{
							"internalType": "uint256",
							"name": "_itemId",
							"type": "uint256"
						}
					],
					"name": "deList",
					"outputs": [],
					"stateMutability": "nonpayable",
					"type": "function"
				},
				{
					"inputs": [
						{
							"internalType": "uint256",
							"name": "",
							"type": "uint256"
						},
						{
							"internalType": "address",
							"name": "",
							"type": "address"
						}
					],
					"name": "itemsForSale",
					"outputs": [
						{
							"internalType": "bool",
							"name": "isActive",
							"type": "bool"
						},
						{
							"internalType": "uint256",
							"name": "itemId",
							"type": "uint256"
						},
						{
							"internalType": "uint256",
							"name": "amount",
							"type": "uint256"
						},
						{
							"internalType": "uint256",
							"name": "saleTime",
							"type": "uint256"
						},
						{
							"internalType": "uint256",
							"name": "oneItemPrice",
							"type": "uint256"
						}
					],
					"stateMutability": "view",
					"type": "function"
				},
				{
					"inputs": [
						{
							"internalType": "uint256",
							"name": "_itemId",
							"type": "uint256"
						},
						{
							"internalType": "uint256",
							"name": "_oneItemPrice",
							"type": "uint256"
						},
						{
							"internalType": "uint256",
							"name": "_amount",
							"type": "uint256"
						}
					],
					"name": "list",
					"outputs": [],
					"stateMutability": "nonpayable",
					"type": "function"
				},
				{
					"inputs": [
						{
							"internalType": "address",
							"name": "",
							"type": "address"
						},
						{
							"internalType": "address",
							"name": "",
							"type": "address"
						},
						{
							"internalType": "uint256[]",
							"name": "",
							"type": "uint256[]"
						},
						{
							"internalType": "uint256[]",
							"name": "",
							"type": "uint256[]"
						},
						{
							"internalType": "bytes",
							"name": "",
							"type": "bytes"
						}
					],
					"name": "onERC1155BatchReceived",
					"outputs": [
						{
							"internalType": "bytes4",
							"name": "",
							"type": "bytes4"
						}
					],
					"stateMutability": "nonpayable",
					"type": "function"
				},
				{
					"inputs": [
						{
							"internalType": "address",
							"name": "",
							"type": "address"
						},
						{
							"internalType": "address",
							"name": "",
							"type": "address"
						},
						{
							"internalType": "uint256",
							"name": "",
							"type": "uint256"
						},
						{
							"internalType": "uint256",
							"name": "",
							"type": "uint256"
						},
						{
							"internalType": "bytes",
							"name": "",
							"type": "bytes"
						}
					],
					"name": "onERC1155Received",
					"outputs": [
						{
							"internalType": "bytes4",
							"name": "",
							"type": "bytes4"
						}
					],
					"stateMutability": "nonpayable",
					"type": "function"
				},
				{
					"inputs": [],
					"name": "owner",
					"outputs": [
						{
							"internalType": "address",
							"name": "",
							"type": "address"
						}
					],
					"stateMutability": "view",
					"type": "function"
				},
				{
					"inputs": [],
					"name": "pause",
					"outputs": [],
					"stateMutability": "nonpayable",
					"type": "function"
				},
				{
					"inputs": [],
					"name": "paused",
					"outputs": [
						{
							"internalType": "bool",
							"name": "",
							"type": "bool"
						}
					],
					"stateMutability": "view",
					"type": "function"
				},
				{
					"inputs": [],
					"name": "renounceOwnership",
					"outputs": [],
					"stateMutability": "nonpayable",
					"type": "function"
				},
				{
					"inputs": [
						{
							"internalType": "address",
							"name": "_accessControl",
							"type": "address"
						}
					],
					"name": "setAccessControl",
					"outputs": [],
					"stateMutability": "nonpayable",
					"type": "function"
				},
				{
					"inputs": [
						{
							"internalType": "bytes4",
							"name": "interfaceId",
							"type": "bytes4"
						}
					],
					"name": "supportsInterface",
					"outputs": [
						{
							"internalType": "bool",
							"name": "",
							"type": "bool"
						}
					],
					"stateMutability": "view",
					"type": "function"
				},
				{
					"inputs": [
						{
							"internalType": "address",
							"name": "newOwner",
							"type": "address"
						}
					],
					"name": "transferOwnership",
					"outputs": [],
					"stateMutability": "nonpayable",
					"type": "function"
				},
				{
					"inputs": [],
					"name": "unpause",
					"outputs": [],
					"stateMutability": "nonpayable",
					"type": "function"
				},
				{
					"inputs": [
						{
							"internalType": "uint256",
							"name": "_itemId",
							"type": "uint256"
						},
						{
							"internalType": "uint256",
							"name": "_amount",
							"type": "uint256"
						}
					],
					"name": "updateAmountNFT",
					"outputs": [],
					"stateMutability": "nonpayable",
					"type": "function"
				},
				{
					"inputs": [
						{
							"internalType": "uint256",
							"name": "_itemId",
							"type": "uint256"
						},
						{
							"internalType": "uint256",
							"name": "_oneItemPrice",
							"type": "uint256"
						}
					],
					"name": "updatePrice",
					"outputs": [],
					"stateMutability": "nonpayable",
					"type": "function"
				}
			],
			"devdoc": {
				"kind": "dev",
				"methods": {
					"buy(uint256,address,uint256,uint256)": {
						"details": "Buyer buy amount of items is being on sale.",
						"params": {
							"_amount": "amount of item want to buy",
							"_itemId": "id of item want to buy",
							"_oneItemBuyPrice": "price of one item want to buy",
							"_seller": "seller address"
						}
					},
					"createAndListNFT((string,bool),uint256,uint256)": {
						"details": "create and list items on sale.",
						"params": {
							"_amount": "amount of item want to sell",
							"_nftInfo": "info of NFT want to create",
							"_oneItemPrice": "price of one item want to sell"
						}
					},
					"deList(uint256)": {
						"details": "Owner delists item is being on sale.",
						"params": {
							"_itemId": "id of item want to delist"
						}
					},
					"list(uint256,uint256,uint256)": {
						"details": "Seller lists a item on sale",
						"params": {
							"_amount": "amount of item want to sell",
							"_itemId": "itemId",
							"_oneItemPrice": "price of one item want to sell"
						}
					},
					"owner()": {
						"details": "Returns the address of the current owner."
					},
					"pause()": {
						"details": "Pause the contract."
					},
					"paused()": {
						"details": "Returns true if the contract is paused, and false otherwise."
					},
					"renounceOwnership()": {
						"details": "Leaves the contract without owner. It will not be possible to call `onlyOwner` functions anymore. Can only be called by the current owner. NOTE: Renouncing ownership will leave the contract without an owner, thereby removing any functionality that is only available to the owner."
					},
					"supportsInterface(bytes4)": {
						"details": "See {IERC165-supportsInterface}."
					},
					"transferOwnership(address)": {
						"details": "Transfers ownership of the contract to a new account (`newOwner`). Can only be called by the current owner."
					},
					"unpause()": {
						"details": "Unpause the contract."
					},
					"updateAmountNFT(uint256,uint256)": {
						"details": "update amount NFT to sell",
						"params": {
							"_amount": "amount of item want to sell",
							"_itemId": "id of item want to buy"
						}
					},
					"updatePrice(uint256,uint256)": {
						"details": "Seller update price of one item",
						"params": {
							"_itemId": "id of item want to update price",
							"_oneItemPrice": "new price of one item"
						}
					}
				},
				"version": 1
			},
			"evm": {
				"assembly": "    /* \"contracts/marketplace/Marketplace.sol\":791:7738  contract Marketplace is IMarketplace, Pausable, Ownable, ReentrancyGuard, ERC1155Holder {\r... */\n  mstore(0x40, 0xc0)\n    /* \"contracts/marketplace/Marketplace.sol\":1218:1711  constructor(\r... */\n  callvalue\n  dup1\n  iszero\n  tag_1\n  jumpi\n  0x00\n  dup1\n  revert\ntag_1:\n  pop\n  mload(0x40)\n  sub(codesize, bytecodeSize)\n  dup1\n  bytecodeSize\n  dup4\n  codecopy\n  dup2\n  dup2\n  add\n  0x40\n  mstore\n  dup2\n  add\n  swap1\n  tag_2\n  swap2\n  swap1\n  tag_3\n  jump\t// in\ntag_2:\n    /* \"@openzeppelin/contracts/security/Pausable.sol\":991:996  false */\n  0x00\n    /* \"@openzeppelin/contracts/security/Pausable.sol\":981:988  _paused */\n  dup1\n  0x00\n    /* \"@openzeppelin/contracts/security/Pausable.sol\":981:996  _paused = false */\n  0x0100\n  exp\n  dup2\n  sload\n  dup2\n  0xff\n  mul\n  not\n  and\n  swap1\n  dup4\n  iszero\n  iszero\n  mul\n  or\n  swap1\n  sstore\n  pop\n    /* \"@openzeppelin/contracts/access/Ownable.sol\":921:953  _transferOwnership(_msgSender()) */\n  tag_10\n    /* \"@openzeppelin/contracts/access/Ownable.sol\":940:952  _msgSender() */\n  tag_11\n    /* \"@openzeppelin/contracts/access/Ownable.sol\":940:950  _msgSender */\n  shl(0x20, tag_12)\n    /* \"@openzeppelin/contracts/access/Ownable.sol\":940:952  _msgSender() */\n  0x20\n  shr\n  jump\t// in\ntag_11:\n    /* \"@openzeppelin/contracts/access/Ownable.sol\":921:939  _transferOwnership */\n  shl(0x20, tag_13)\n    /* \"@openzeppelin/contracts/access/Ownable.sol\":921:953  _transferOwnership(_msgSender()) */\n  0x20\n  shr\n  jump\t// in\ntag_10:\n    /* \"@openzeppelin/contracts/security/ReentrancyGuard.sol\":1701:1702  1 */\n  0x01\n    /* \"@openzeppelin/contracts/security/ReentrancyGuard.sol\":1806:1813  _status */\n  dup1\n    /* \"@openzeppelin/contracts/security/ReentrancyGuard.sol\":1806:1828  _status = _NOT_ENTERED */\n  dup2\n  swap1\n  sstore\n  pop\n    /* \"contracts/marketplace/Marketplace.sol\":1369:1370  0 */\n  0x00\n    /* \"contracts/marketplace/Marketplace.sol\":1343:1371  _accessControl != address(0) */\n  0xffffffffffffffffffffffffffffffffffffffff\n  and\n    /* \"contracts/marketplace/Marketplace.sol\":1343:1357  _accessControl */\n  dup4\n    /* \"contracts/marketplace/Marketplace.sol\":1343:1371  _accessControl != address(0) */\n  0xffffffffffffffffffffffffffffffffffffffff\n  and\n  eq\n  iszero\n    /* \"contracts/marketplace/Marketplace.sol\":1335:1424  require(_accessControl != address(0), \"Marketplace: Access control contract cannot be 0\") */\n  tag_16\n  jumpi\n  mload(0x40)\n  0x08c379a000000000000000000000000000000000000000000000000000000000\n  dup2\n  mstore\n  0x04\n  add\n  tag_17\n  swap1\n  tag_18\n  jump\t// in\ntag_17:\n  mload(0x40)\n  dup1\n  swap2\n  sub\n  swap1\n  revert\ntag_16:\n    /* \"contracts/marketplace/Marketplace.sol\":1464:1465  0 */\n  0x00\n    /* \"contracts/marketplace/Marketplace.sol\":1443:1466  _UITToken != address(0) */\n  0xffffffffffffffffffffffffffffffffffffffff\n  and\n    /* \"contracts/marketplace/Marketplace.sol\":1443:1452  _UITToken */\n  dup3\n    /* \"contracts/marketplace/Marketplace.sol\":1443:1466  _UITToken != address(0) */\n  0xffffffffffffffffffffffffffffffffffffffff\n  and\n  eq\n  iszero\n    /* \"contracts/marketplace/Marketplace.sol\":1435:1514  require(_UITToken != address(0), \"Marketplace: UITToken must not be address 0\") */\n  tag_19\n  jumpi\n  mload(0x40)\n  0x08c379a000000000000000000000000000000000000000000000000000000000\n  dup2\n  mstore\n  0x04\n  add\n  tag_20\n  swap1\n  tag_21\n  jump\t// in\ntag_20:\n  mload(0x40)\n  dup1\n  swap2\n  sub\n  swap1\n  revert\ntag_19:\n    /* \"contracts/marketplace/Marketplace.sol\":1552:1553  0 */\n  0x00\n    /* \"contracts/marketplace/Marketplace.sol\":1533:1554  _UITNFT != address(0) */\n  0xffffffffffffffffffffffffffffffffffffffff\n  and\n    /* \"contracts/marketplace/Marketplace.sol\":1533:1540  _UITNFT */\n  dup2\n    /* \"contracts/marketplace/Marketplace.sol\":1533:1554  _UITNFT != address(0) */\n  0xffffffffffffffffffffffffffffffffffffffff\n  and\n  eq\n  iszero\n    /* \"contracts/marketplace/Marketplace.sol\":1525:1604  require(_UITNFT != address(0), \"Marketplace: UITNFToken must not be address 0\") */\n  tag_22\n  jumpi\n  mload(0x40)\n  0x08c379a000000000000000000000000000000000000000000000000000000000\n  dup2\n  mstore\n  0x04\n  add\n  tag_23\n  swap1\n  tag_24\n  jump\t// in\ntag_23:\n  mload(0x40)\n  dup1\n  swap2\n  sub\n  swap1\n  revert\ntag_22:\n    /* \"contracts/marketplace/Marketplace.sol\":1631:1645  _accessControl */\n  dup3\n    /* \"contracts/marketplace/Marketplace.sol\":1615:1628  accessControl */\n  0x02\n  0x00\n    /* \"contracts/marketplace/Marketplace.sol\":1615:1645  accessControl = _accessControl */\n  0x0100\n  exp\n  dup2\n  sload\n  dup2\n  0xffffffffffffffffffffffffffffffffffffffff\n  mul\n  not\n  and\n  swap1\n  dup4\n  0xffffffffffffffffffffffffffffffffffffffff\n  and\n  mul\n  or\n  swap1\n  sstore\n  pop\n    /* \"contracts/marketplace/Marketplace.sol\":1667:1676  _UITToken */\n  dup2\n    /* \"contracts/marketplace/Marketplace.sol\":1656:1676  UITToken = _UITToken */\n  0xffffffffffffffffffffffffffffffffffffffff\n  and\n  0x80\n  dup2\n  0xffffffffffffffffffffffffffffffffffffffff\n  and\n  0x60\n  shl\n  dup2\n  mstore\n  pop\n  pop\n    /* \"contracts/marketplace/Marketplace.sol\":1696:1703  _UITNFT */\n  dup1\n    /* \"contracts/marketplace/Marketplace.sol\":1687:1703  UITNFT = _UITNFT */\n  0xffffffffffffffffffffffffffffffffffffffff\n  and\n  0xa0\n  dup2\n  0xffffffffffffffffffffffffffffffffffffffff\n  and\n  0x60\n  shl\n  dup2\n  mstore\n  pop\n  pop\n    /* \"contracts/marketplace/Marketplace.sol\":1218:1711  constructor(\r... */\n  pop\n  pop\n  pop\n    /* \"contracts/marketplace/Marketplace.sol\":791:7738  contract Marketplace is IMarketplace, Pausable, Ownable, ReentrancyGuard, ERC1155Holder {\r... */\n  jump(tag_25)\n    /* \"@openzeppelin/contracts/utils/Context.sol\":640:736  function _msgSender() internal view virtual returns (address) {... */\ntag_12:\n    /* \"@openzeppelin/contracts/utils/Context.sol\":693:700  address */\n  0x00\n    /* \"@openzeppelin/contracts/utils/Context.sol\":719:729  msg.sender */\n  caller\n    /* \"@openzeppelin/contracts/utils/Context.sol\":712:729  return msg.sender */\n  swap1\n  pop\n    /* \"@openzeppelin/contracts/utils/Context.sol\":640:736  function _msgSender() internal view virtual returns (address) {... */\n  swap1\n  jump\t// out\n    /* \"@openzeppelin/contracts/access/Ownable.sol\":2270:2457  function _transferOwnership(address newOwner) internal virtual {... */\ntag_13:\n    /* \"@openzeppelin/contracts/access/Ownable.sol\":2343:2359  address oldOwner */\n  0x00\n    /* \"@openzeppelin/contracts/access/Ownable.sol\":2362:2368  _owner */\n  dup1\n  0x01\n  swap1\n  sload\n  swap1\n  0x0100\n  exp\n  swap1\n  div\n  0xffffffffffffffffffffffffffffffffffffffff\n  and\n    /* \"@openzeppelin/contracts/access/Ownable.sol\":2343:2368  address oldOwner = _owner */\n  swap1\n  pop\n    /* \"@openzeppelin/contracts/access/Ownable.sol\":2387:2395  newOwner */\n  dup2\n    /* \"@openzeppelin/contracts/access/Ownable.sol\":2378:2384  _owner */\n  0x00\n  0x01\n    /* \"@openzeppelin/contracts/access/Ownable.sol\":2378:2395  _owner = newOwner */\n  0x0100\n  exp\n  dup2\n  sload\n  dup2\n  0xffffffffffffffffffffffffffffffffffffffff\n  mul\n  not\n  and\n  swap1\n  dup4\n  0xffffffffffffffffffffffffffffffffffffffff\n  and\n  mul\n  or\n  swap1\n  sstore\n  pop\n    /* \"@openzeppelin/contracts/access/Ownable.sol\":2441:2449  newOwner */\n  dup2\n    /* \"@openzeppelin/contracts/access/Ownable.sol\":2410:2450  OwnershipTransferred(oldOwner, newOwner) */\n  0xffffffffffffffffffffffffffffffffffffffff\n  and\n    /* \"@openzeppelin/contracts/access/Ownable.sol\":2431:2439  oldOwner */\n  dup2\n    /* \"@openzeppelin/contracts/access/Ownable.sol\":2410:2450  OwnershipTransferred(oldOwner, newOwner) */\n  0xffffffffffffffffffffffffffffffffffffffff\n  and\n  0x8be0079c531659141344cd1fd0a4f28419497f9722a3daafe3b4186f6b6457e0\n  mload(0x40)\n  mload(0x40)\n  dup1\n  swap2\n  sub\n  swap1\n  log3\n    /* \"@openzeppelin/contracts/access/Ownable.sol\":2333:2457  {... */\n  pop\n    /* \"@openzeppelin/contracts/access/Ownable.sol\":2270:2457  function _transferOwnership(address newOwner) internal virtual {... */\n  pop\n  jump\t// out\n    /* \"#utility.yul\":7:150   */\ntag_29:\n    /* \"#utility.yul\":64:69   */\n  0x00\n    /* \"#utility.yul\":95:101   */\n  dup2\n    /* \"#utility.yul\":89:102   */\n  mload\n    /* \"#utility.yul\":80:102   */\n  swap1\n  pop\n    /* \"#utility.yul\":111:144   */\n  tag_31\n    /* \"#utility.yul\":138:143   */\n  dup2\n    /* \"#utility.yul\":111:144   */\n  tag_32\n  jump\t// in\ntag_31:\n    /* \"#utility.yul\":7:150   */\n  swap3\n  swap2\n  pop\n  pop\n  jump\t// out\n    /* \"#utility.yul\":156:819   */\ntag_3:\n    /* \"#utility.yul\":244:250   */\n  0x00\n    /* \"#utility.yul\":252:258   */\n  dup1\n    /* \"#utility.yul\":260:266   */\n  0x00\n    /* \"#utility.yul\":309:311   */\n  0x60\n    /* \"#utility.yul\":297:306   */\n  dup5\n    /* \"#utility.yul\":288:295   */\n  dup7\n    /* \"#utility.yul\":284:307   */\n  sub\n    /* \"#utility.yul\":280:312   */\n  slt\n    /* \"#utility.yul\":277:396   */\n  iszero\n  tag_34\n  jumpi\n    /* \"#utility.yul\":315:394   */\n  tag_35\n  tag_36\n  jump\t// in\ntag_35:\n    /* \"#utility.yul\":277:396   */\ntag_34:\n    /* \"#utility.yul\":435:436   */\n  0x00\n    /* \"#utility.yul\":460:524   */\n  tag_37\n    /* \"#utility.yul\":516:523   */\n  dup7\n    /* \"#utility.yul\":507:513   */\n  dup3\n    /* \"#utility.yul\":496:505   */\n  dup8\n    /* \"#utility.yul\":492:514   */\n  add\n    /* \"#utility.yul\":460:524   */\n  tag_29\n  jump\t// in\ntag_37:\n    /* \"#utility.yul\":450:524   */\n  swap4\n  pop\n    /* \"#utility.yul\":406:534   */\n  pop\n    /* \"#utility.yul\":573:575   */\n  0x20\n    /* \"#utility.yul\":599:663   */\n  tag_38\n    /* \"#utility.yul\":655:662   */\n  dup7\n    /* \"#utility.yul\":646:652   */\n  dup3\n    /* \"#utility.yul\":635:644   */\n  dup8\n    /* \"#utility.yul\":631:653   */\n  add\n    /* \"#utility.yul\":599:663   */\n  tag_29\n  jump\t// in\ntag_38:\n    /* \"#utility.yul\":589:663   */\n  swap3\n  pop\n    /* \"#utility.yul\":544:673   */\n  pop\n    /* \"#utility.yul\":712:714   */\n  0x40\n    /* \"#utility.yul\":738:802   */\n  tag_39\n    /* \"#utility.yul\":794:801   */\n  dup7\n    /* \"#utility.yul\":785:791   */\n  dup3\n    /* \"#utility.yul\":774:783   */\n  dup8\n    /* \"#utility.yul\":770:792   */\n  add\n    /* \"#utility.yul\":738:802   */\n  tag_29\n  jump\t// in\ntag_39:\n    /* \"#utility.yul\":728:802   */\n  swap2\n  pop\n    /* \"#utility.yul\":683:812   */\n  pop\n    /* \"#utility.yul\":156:819   */\n  swap3\n  pop\n  swap3\n  pop\n  swap3\n  jump\t// out\n    /* \"#utility.yul\":825:1191   */\ntag_40:\n    /* \"#utility.yul\":967:970   */\n  0x00\n    /* \"#utility.yul\":988:1055   */\n  tag_42\n    /* \"#utility.yul\":1052:1054   */\n  0x30\n    /* \"#utility.yul\":1047:1050   */\n  dup4\n    /* \"#utility.yul\":988:1055   */\n  tag_43\n  jump\t// in\ntag_42:\n    /* \"#utility.yul\":981:1055   */\n  swap2\n  pop\n    /* \"#utility.yul\":1064:1157   */\n  tag_44\n    /* \"#utility.yul\":1153:1156   */\n  dup3\n    /* \"#utility.yul\":1064:1157   */\n  tag_45\n  jump\t// in\ntag_44:\n    /* \"#utility.yul\":1182:1184   */\n  0x40\n    /* \"#utility.yul\":1177:1180   */\n  dup3\n    /* \"#utility.yul\":1173:1185   */\n  add\n    /* \"#utility.yul\":1166:1185   */\n  swap1\n  pop\n    /* \"#utility.yul\":825:1191   */\n  swap2\n  swap1\n  pop\n  jump\t// out\n    /* \"#utility.yul\":1197:1563   */\ntag_46:\n    /* \"#utility.yul\":1339:1342   */\n  0x00\n    /* \"#utility.yul\":1360:1427   */\n  tag_48\n    /* \"#utility.yul\":1424:1426   */\n  0x2d\n    /* \"#utility.yul\":1419:1422   */\n  dup4\n    /* \"#utility.yul\":1360:1427   */\n  tag_43\n  jump\t// in\ntag_48:\n    /* \"#utility.yul\":1353:1427   */\n  swap2\n  pop\n    /* \"#utility.yul\":1436:1529   */\n  tag_49\n    /* \"#utility.yul\":1525:1528   */\n  dup3\n    /* \"#utility.yul\":1436:1529   */\n  tag_50\n  jump\t// in\ntag_49:\n    /* \"#utility.yul\":1554:1556   */\n  0x40\n    /* \"#utility.yul\":1549:1552   */\n  dup3\n    /* \"#utility.yul\":1545:1557   */\n  add\n    /* \"#utility.yul\":1538:1557   */\n  swap1\n  pop\n    /* \"#utility.yul\":1197:1563   */\n  swap2\n  swap1\n  pop\n  jump\t// out\n    /* \"#utility.yul\":1569:1935   */\ntag_51:\n    /* \"#utility.yul\":1711:1714   */\n  0x00\n    /* \"#utility.yul\":1732:1799   */\n  tag_53\n    /* \"#utility.yul\":1796:1798   */\n  0x2b\n    /* \"#utility.yul\":1791:1794   */\n  dup4\n    /* \"#utility.yul\":1732:1799   */\n  tag_43\n  jump\t// in\ntag_53:\n    /* \"#utility.yul\":1725:1799   */\n  swap2\n  pop\n    /* \"#utility.yul\":1808:1901   */\n  tag_54\n    /* \"#utility.yul\":1897:1900   */\n  dup3\n    /* \"#utility.yul\":1808:1901   */\n  tag_55\n  jump\t// in\ntag_54:\n    /* \"#utility.yul\":1926:1928   */\n  0x40\n    /* \"#utility.yul\":1921:1924   */\n  dup3\n    /* \"#utility.yul\":1917:1929   */\n  add\n    /* \"#utility.yul\":1910:1929   */\n  swap1\n  pop\n    /* \"#utility.yul\":1569:1935   */\n  swap2\n  swap1\n  pop\n  jump\t// out\n    /* \"#utility.yul\":1941:2360   */\ntag_18:\n    /* \"#utility.yul\":2107:2111   */\n  0x00\n    /* \"#utility.yul\":2145:2147   */\n  0x20\n    /* \"#utility.yul\":2134:2143   */\n  dup3\n    /* \"#utility.yul\":2130:2148   */\n  add\n    /* \"#utility.yul\":2122:2148   */\n  swap1\n  pop\n    /* \"#utility.yul\":2194:2203   */\n  dup2\n    /* \"#utility.yul\":2188:2192   */\n  dup2\n    /* \"#utility.yul\":2184:2204   */\n  sub\n    /* \"#utility.yul\":2180:2181   */\n  0x00\n    /* \"#utility.yul\":2169:2178   */\n  dup4\n    /* \"#utility.yul\":2165:2182   */\n  add\n    /* \"#utility.yul\":2158:2205   */\n  mstore\n    /* \"#utility.yul\":2222:2353   */\n  tag_57\n    /* \"#utility.yul\":2348:2352   */\n  dup2\n    /* \"#utility.yul\":2222:2353   */\n  tag_40\n  jump\t// in\ntag_57:\n    /* \"#utility.yul\":2214:2353   */\n  swap1\n  pop\n    /* \"#utility.yul\":1941:2360   */\n  swap2\n  swap1\n  pop\n  jump\t// out\n    /* \"#utility.yul\":2366:2785   */\ntag_24:\n    /* \"#utility.yul\":2532:2536   */\n  0x00\n    /* \"#utility.yul\":2570:2572   */\n  0x20\n    /* \"#utility.yul\":2559:2568   */\n  dup3\n    /* \"#utility.yul\":2555:2573   */\n  add\n    /* \"#utility.yul\":2547:2573   */\n  swap1\n  pop\n    /* \"#utility.yul\":2619:2628   */\n  dup2\n    /* \"#utility.yul\":2613:2617   */\n  dup2\n    /* \"#utility.yul\":2609:2629   */\n  sub\n    /* \"#utility.yul\":2605:2606   */\n  0x00\n    /* \"#utility.yul\":2594:2603   */\n  dup4\n    /* \"#utility.yul\":2590:2607   */\n  add\n    /* \"#utility.yul\":2583:2630   */\n  mstore\n    /* \"#utility.yul\":2647:2778   */\n  tag_59\n    /* \"#utility.yul\":2773:2777   */\n  dup2\n    /* \"#utility.yul\":2647:2778   */\n  tag_46\n  jump\t// in\ntag_59:\n    /* \"#utility.yul\":2639:2778   */\n  swap1\n  pop\n    /* \"#utility.yul\":2366:2785   */\n  swap2\n  swap1\n  pop\n  jump\t// out\n    /* \"#utility.yul\":2791:3210   */\ntag_21:\n    /* \"#utility.yul\":2957:2961   */\n  0x00\n    /* \"#utility.yul\":2995:2997   */\n  0x20\n    /* \"#utility.yul\":2984:2993   */\n  dup3\n    /* \"#utility.yul\":2980:2998   */\n  add\n    /* \"#utility.yul\":2972:2998   */\n  swap1\n  pop\n    /* \"#utility.yul\":3044:3053   */\n  dup2\n    /* \"#utility.yul\":3038:3042   */\n  dup2\n    /* \"#utility.yul\":3034:3054   */\n  sub\n    /* \"#utility.yul\":3030:3031   */\n  0x00\n    /* \"#utility.yul\":3019:3028   */\n  dup4\n    /* \"#utility.yul\":3015:3032   */\n  add\n    /* \"#utility.yul\":3008:3055   */\n  mstore\n    /* \"#utility.yul\":3072:3203   */\n  tag_61\n    /* \"#utility.yul\":3198:3202   */\n  dup2\n    /* \"#utility.yul\":3072:3203   */\n  tag_51\n  jump\t// in\ntag_61:\n    /* \"#utility.yul\":3064:3203   */\n  swap1\n  pop\n    /* \"#utility.yul\":2791:3210   */\n  swap2\n  swap1\n  pop\n  jump\t// out\n    /* \"#utility.yul\":3297:3466   */\ntag_43:\n    /* \"#utility.yul\":3381:3392   */\n  0x00\n    /* \"#utility.yul\":3415:3421   */\n  dup3\n    /* \"#utility.yul\":3410:3413   */\n  dup3\n    /* \"#utility.yul\":3403:3422   */\n  mstore\n    /* \"#utility.yul\":3455:3459   */\n  0x20\n    /* \"#utility.yul\":3450:3453   */\n  dup3\n    /* \"#utility.yul\":3446:3460   */\n  add\n    /* \"#utility.yul\":3431:3460   */\n  swap1\n  pop\n    /* \"#utility.yul\":3297:3466   */\n  swap3\n  swap2\n  pop\n  pop\n  jump\t// out\n    /* \"#utility.yul\":3472:3568   */\ntag_65:\n    /* \"#utility.yul\":3509:3516   */\n  0x00\n    /* \"#utility.yul\":3538:3562   */\n  tag_67\n    /* \"#utility.yul\":3556:3561   */\n  dup3\n    /* \"#utility.yul\":3538:3562   */\n  tag_68\n  jump\t// in\ntag_67:\n    /* \"#utility.yul\":3527:3562   */\n  swap1\n  pop\n    /* \"#utility.yul\":3472:3568   */\n  swap2\n  swap1\n  pop\n  jump\t// out\n    /* \"#utility.yul\":3574:3700   */\ntag_68:\n    /* \"#utility.yul\":3611:3618   */\n  0x00\n    /* \"#utility.yul\":3651:3693   */\n  0xffffffffffffffffffffffffffffffffffffffff\n    /* \"#utility.yul\":3644:3649   */\n  dup3\n    /* \"#utility.yul\":3640:3694   */\n  and\n    /* \"#utility.yul\":3629:3694   */\n  swap1\n  pop\n    /* \"#utility.yul\":3574:3700   */\n  swap2\n  swap1\n  pop\n  jump\t// out\n    /* \"#utility.yul\":3829:3946   */\ntag_36:\n    /* \"#utility.yul\":3938:3939   */\n  0x00\n    /* \"#utility.yul\":3935:3936   */\n  dup1\n    /* \"#utility.yul\":3928:3940   */\n  revert\n    /* \"#utility.yul\":3952:4187   */\ntag_45:\n    /* \"#utility.yul\":4092:4126   */\n  0x4d61726b6574706c6163653a2041636365737320636f6e74726f6c20636f6e74\n    /* \"#utility.yul\":4088:4089   */\n  0x00\n    /* \"#utility.yul\":4080:4086   */\n  dup3\n    /* \"#utility.yul\":4076:4090   */\n  add\n    /* \"#utility.yul\":4069:4127   */\n  mstore\n    /* \"#utility.yul\":4161:4179   */\n  0x726163742063616e6e6f74206265203000000000000000000000000000000000\n    /* \"#utility.yul\":4156:4158   */\n  0x20\n    /* \"#utility.yul\":4148:4154   */\n  dup3\n    /* \"#utility.yul\":4144:4159   */\n  add\n    /* \"#utility.yul\":4137:4180   */\n  mstore\n    /* \"#utility.yul\":3952:4187   */\n  pop\n  jump\t// out\n    /* \"#utility.yul\":4193:4425   */\ntag_50:\n    /* \"#utility.yul\":4333:4367   */\n  0x4d61726b6574706c6163653a205549544e46546f6b656e206d757374206e6f74\n    /* \"#utility.yul\":4329:4330   */\n  0x00\n    /* \"#utility.yul\":4321:4327   */\n  dup3\n    /* \"#utility.yul\":4317:4331   */\n  add\n    /* \"#utility.yul\":4310:4368   */\n  mstore\n    /* \"#utility.yul\":4402:4417   */\n  0x2062652061646472657373203000000000000000000000000000000000000000\n    /* \"#utility.yul\":4397:4399   */\n  0x20\n    /* \"#utility.yul\":4389:4395   */\n  dup3\n    /* \"#utility.yul\":4385:4400   */\n  add\n    /* \"#utility.yul\":4378:4418   */\n  mstore\n    /* \"#utility.yul\":4193:4425   */\n  pop\n  jump\t// out\n    /* \"#utility.yul\":4431:4661   */\ntag_55:\n    /* \"#utility.yul\":4571:4605   */\n  0x4d61726b6574706c6163653a20554954546f6b656e206d757374206e6f742062\n    /* \"#utility.yul\":4567:4568   */\n  0x00\n    /* \"#utility.yul\":4559:4565   */\n  dup3\n    /* \"#utility.yul\":4555:4569   */\n  add\n    /* \"#utility.yul\":4548:4606   */\n  mstore\n    /* \"#utility.yul\":4640:4653   */\n  0x6520616464726573732030000000000000000000000000000000000000000000\n    /* \"#utility.yul\":4635:4637   */\n  0x20\n    /* \"#utility.yul\":4627:4633   */\n  dup3\n    /* \"#utility.yul\":4623:4638   */\n  add\n    /* \"#utility.yul\":4616:4654   */\n  mstore\n    /* \"#utility.yul\":4431:4661   */\n  pop\n  jump\t// out\n    /* \"#utility.yul\":4667:4789   */\ntag_32:\n    /* \"#utility.yul\":4740:4764   */\n  tag_77\n    /* \"#utility.yul\":4758:4763   */\n  dup2\n    /* \"#utility.yul\":4740:4764   */\n  tag_65\n  jump\t// in\ntag_77:\n    /* \"#utility.yul\":4733:4738   */\n  dup2\n    /* \"#utility.yul\":4730:4765   */\n  eq\n    /* \"#utility.yul\":4720:4783   */\n  tag_78\n  jumpi\n    /* \"#utility.yul\":4779:4780   */\n  0x00\n    /* \"#utility.yul\":4776:4777   */\n  dup1\n    /* \"#utility.yul\":4769:4781   */\n  revert\n    /* \"#utility.yul\":4720:4783   */\ntag_78:\n    /* \"#utility.yul\":4667:4789   */\n  pop\n  jump\t// out\n    /* \"contracts/marketplace/Marketplace.sol\":791:7738  contract Marketplace is IMarketplace, Pausable, Ownable, ReentrancyGuard, ERC1155Holder {\r... */\ntag_25:\n  shr(0x60, mload(0x80))\n  shr(0x60, mload(0xa0))\n  codecopy(0x00, dataOffset(sub_0), dataSize(sub_0))\n  0x00\n  assignImmutable(\"0x3d550a598553b485ade63df00865310ea36cbff0dc487035a9b4be52b149fadb\")\n  0x00\n  assignImmutable(\"0x1b4842a19c661b7382881ce30aa723dedf4fd830b4353e3140588333c90c8c04\")\n  return(0x00, dataSize(sub_0))\nstop\n\nsub_0: assembly {\n        /* \"contracts/marketplace/Marketplace.sol\":791:7738  contract Marketplace is IMarketplace, Pausable, Ownable, ReentrancyGuard, ERC1155Holder {\r... */\n      mstore(0x40, 0x80)\n      callvalue\n      dup1\n      iszero\n      tag_1\n      jumpi\n      0x00\n      dup1\n      revert\n    tag_1:\n      pop\n      jumpi(tag_2, lt(calldatasize, 0x04))\n      shr(0xe0, calldataload(0x00))\n      dup1\n      0x715018a6\n      gt\n      tag_23\n      jumpi\n      dup1\n      0xbc197c81\n      gt\n      tag_24\n      jumpi\n      dup1\n      0xbc197c81\n      eq\n      tag_18\n      jumpi\n      dup1\n      0xc1f7f0f5\n      eq\n      tag_19\n      jumpi\n      dup1\n      0xcb361428\n      eq\n      tag_20\n      jumpi\n      dup1\n      0xf23a6e61\n      eq\n      tag_21\n      jumpi\n      dup1\n      0xf2fde38b\n      eq\n      tag_22\n      jumpi\n      jump(tag_2)\n    tag_24:\n      dup1\n      0x715018a6\n      eq\n      tag_13\n      jumpi\n      dup1\n      0x82367b2d\n      eq\n      tag_14\n      jumpi\n      dup1\n      0x8456cb59\n      eq\n      tag_15\n      jumpi\n      dup1\n      0x8da5cb5b\n      eq\n      tag_16\n      jumpi\n      dup1\n      0xb46878ca\n      eq\n      tag_17\n      jumpi\n      jump(tag_2)\n    tag_23:\n      dup1\n      0x3b88699b\n      gt\n      tag_25\n      jumpi\n      dup1\n      0x3b88699b\n      eq\n      tag_8\n      jumpi\n      dup1\n      0x3f4ba83a\n      eq\n      tag_9\n      jumpi\n      dup1\n      0x43be2d03\n      eq\n      tag_10\n      jumpi\n      dup1\n      0x5c975abb\n      eq\n      tag_11\n      jumpi\n      dup1\n      0x706910ff\n      eq\n      tag_12\n      jumpi\n      jump(tag_2)\n    tag_25:\n      dup1\n      0x01ffc9a7\n      eq\n      tag_3\n      jumpi\n      dup1\n      0x13007d55\n      eq\n      tag_4\n      jumpi\n      dup1\n      0x19129e5a\n      eq\n      tag_5\n      jumpi\n      dup1\n      0x19aeb490\n      eq\n      tag_6\n      jumpi\n      dup1\n      0x2fe7a96d\n      eq\n      tag_7\n      jumpi\n    tag_2:\n      0x00\n      dup1\n      revert\n        /* \"@openzeppelin/contracts/token/ERC1155/utils/ERC1155Receiver.sol\":387:608  function supportsInterface(bytes4 interfaceId) public view virtual override(ERC165, IERC165) returns (bool) {... */\n    tag_3:\n      tag_26\n      0x04\n      dup1\n      calldatasize\n      sub\n      dup2\n      add\n      swap1\n      tag_27\n      swap2\n      swap1\n      tag_28\n      jump\t// in\n    tag_27:\n      tag_29\n      jump\t// in\n    tag_26:\n      mload(0x40)\n      tag_30\n      swap2\n      swap1\n      tag_31\n      jump\t// in\n    tag_30:\n      mload(0x40)\n      dup1\n      swap2\n      sub\n      swap1\n      return\n        /* \"contracts/marketplace/Marketplace.sol\":963:991  address public accessControl */\n    tag_4:\n      tag_32\n      tag_33\n      jump\t// in\n    tag_32:\n      mload(0x40)\n      tag_34\n      swap2\n      swap1\n      tag_35\n      jump\t// in\n    tag_34:\n      mload(0x40)\n      dup1\n      swap2\n      sub\n      swap1\n      return\n        /* \"contracts/marketplace/Marketplace.sol\":7367:7485  function setAccessControl(address _accessControl) external onlyOwner {\r... */\n    tag_5:\n      tag_36\n      0x04\n      dup1\n      calldatasize\n      sub\n      dup2\n      add\n      swap1\n      tag_37\n      swap2\n      swap1\n      tag_38\n      jump\t// in\n    tag_37:\n      tag_39\n      jump\t// in\n    tag_36:\n      stop\n        /* \"contracts/marketplace/Marketplace.sol\":2104:2981  function list(uint _itemId, uint _oneItemPrice, uint _amount) external override whenNotPaused nonReentrant {\r... */\n    tag_6:\n      tag_40\n      0x04\n      dup1\n      calldatasize\n      sub\n      dup2\n      add\n      swap1\n      tag_41\n      swap2\n      swap1\n      tag_42\n      jump\t// in\n    tag_41:\n      tag_43\n      jump\t// in\n    tag_40:\n      stop\n        /* \"contracts/marketplace/Marketplace.sol\":998:1031  address public immutable UITToken */\n    tag_7:\n      tag_44\n      tag_45\n      jump\t// in\n    tag_44:\n      mload(0x40)\n      tag_46\n      swap2\n      swap1\n      tag_35\n      jump\t// in\n    tag_46:\n      mload(0x40)\n      dup1\n      swap2\n      sub\n      swap1\n      return\n        /* \"contracts/marketplace/Marketplace.sol\":1038:1069  address public immutable UITNFT */\n    tag_8:\n      tag_47\n      tag_48\n      jump\t// in\n    tag_47:\n      mload(0x40)\n      tag_49\n      swap2\n      swap1\n      tag_35\n      jump\t// in\n    tag_49:\n      mload(0x40)\n      dup1\n      swap2\n      sub\n      swap1\n      return\n        /* \"contracts/marketplace/Marketplace.sol\":7668:7735  function unpause() external onlyOwner {\r... */\n    tag_9:\n      tag_50\n      tag_51\n      jump\t// in\n    tag_50:\n      stop\n        /* \"contracts/marketplace/Marketplace.sol\":3111:3590  function deList(uint _itemId) external override whenNotPaused nonReentrant {\r... */\n    tag_10:\n      tag_52\n      0x04\n      dup1\n      calldatasize\n      sub\n      dup2\n      add\n      swap1\n      tag_53\n      swap2\n      swap1\n      tag_54\n      jump\t// in\n    tag_53:\n      tag_55\n      jump\t// in\n    tag_52:\n      stop\n        /* \"@openzeppelin/contracts/security/Pausable.sol\":1098:1182  function paused() public view virtual returns (bool) {... */\n    tag_11:\n      tag_56\n      tag_57\n      jump\t// in\n    tag_56:\n      mload(0x40)\n      tag_58\n      swap2\n      swap1\n      tag_31\n      jump\t// in\n    tag_58:\n      mload(0x40)\n      dup1\n      swap2\n      sub\n      swap1\n      return\n        /* \"contracts/marketplace/Marketplace.sol\":4448:5653  function buy(uint _itemId, address _seller, uint _amount, uint _oneItemBuyPrice) external override whenNotPaused nonReentrant {\r... */\n    tag_12:\n      tag_59\n      0x04\n      dup1\n      calldatasize\n      sub\n      dup2\n      add\n      swap1\n      tag_60\n      swap2\n      swap1\n      tag_61\n      jump\t// in\n    tag_60:\n      tag_62\n      jump\t// in\n    tag_59:\n      stop\n        /* \"@openzeppelin/contracts/access/Ownable.sol\":1668:1769  function renounceOwnership() public virtual onlyOwner {... */\n    tag_13:\n      tag_63\n      tag_64\n      jump\t// in\n    tag_63:\n      stop\n        /* \"contracts/marketplace/Marketplace.sol\":3779:4164  function updatePrice(uint _itemId, uint _oneItemPrice) external override whenNotPaused nonReentrant {\r... */\n    tag_14:\n      tag_65\n      0x04\n      dup1\n      calldatasize\n      sub\n      dup2\n      add\n      swap1\n      tag_66\n      swap2\n      swap1\n      tag_67\n      jump\t// in\n    tag_66:\n      tag_68\n      jump\t// in\n    tag_65:\n      stop\n        /* \"contracts/marketplace/Marketplace.sol\":7544:7607  function pause() external onlyOwner {\r... */\n    tag_15:\n      tag_69\n      tag_70\n      jump\t// in\n    tag_69:\n      stop\n        /* \"@openzeppelin/contracts/access/Ownable.sol\":1036:1121  function owner() public view virtual returns (address) {... */\n    tag_16:\n      tag_71\n      tag_72\n      jump\t// in\n    tag_71:\n      mload(0x40)\n      tag_73\n      swap2\n      swap1\n      tag_35\n      jump\t// in\n    tag_73:\n      mload(0x40)\n      dup1\n      swap2\n      sub\n      swap1\n      return\n        /* \"contracts/marketplace/Marketplace.sol\":1144:1209  mapping(uint => mapping(address => SaleInfo)) public itemsForSale */\n    tag_17:\n      tag_74\n      0x04\n      dup1\n      calldatasize\n      sub\n      dup2\n      add\n      swap1\n      tag_75\n      swap2\n      swap1\n      tag_76\n      jump\t// in\n    tag_75:\n      tag_77\n      jump\t// in\n    tag_74:\n      mload(0x40)\n      tag_78\n      swap6\n      swap5\n      swap4\n      swap3\n      swap2\n      swap1\n      tag_79\n      jump\t// in\n    tag_78:\n      mload(0x40)\n      dup1\n      swap2\n      sub\n      swap1\n      return\n        /* \"@openzeppelin/contracts/token/ERC1155/utils/ERC1155Holder.sol\":724:971  function onERC1155BatchReceived(... */\n    tag_18:\n      tag_80\n      0x04\n      dup1\n      calldatasize\n      sub\n      dup2\n      add\n      swap1\n      tag_81\n      swap2\n      swap1\n      tag_82\n      jump\t// in\n    tag_81:\n      tag_83\n      jump\t// in\n    tag_80:\n      mload(0x40)\n      tag_84\n      swap2\n      swap1\n      tag_85\n      jump\t// in\n    tag_84:\n      mload(0x40)\n      dup1\n      swap2\n      sub\n      swap1\n      return\n        /* \"contracts/marketplace/Marketplace.sol\":6876:7359  function updateAmountNFT(uint _itemId, uint _amount) external override onlyAdmin whenNotPaused nonReentrant {\r... */\n    tag_19:\n      tag_86\n      0x04\n      dup1\n      calldatasize\n      sub\n      dup2\n      add\n      swap1\n      tag_87\n      swap2\n      swap1\n      tag_67\n      jump\t// in\n    tag_87:\n      tag_88\n      jump\t// in\n    tag_86:\n      stop\n        /* \"contracts/marketplace/Marketplace.sol\":5891:6708  function createAndListNFT(NFTInfo memory _nftInfo, uint _oneItemPrice, uint _amount) external override onlyAdmin whenNotPaused nonReentrant {\r... */\n    tag_20:\n      tag_89\n      0x04\n      dup1\n      calldatasize\n      sub\n      dup2\n      add\n      swap1\n      tag_90\n      swap2\n      swap1\n      tag_91\n      jump\t// in\n    tag_90:\n      tag_92\n      jump\t// in\n    tag_89:\n      stop\n        /* \"@openzeppelin/contracts/token/ERC1155/utils/ERC1155Holder.sol\":499:718  function onERC1155Received(... */\n    tag_21:\n      tag_93\n      0x04\n      dup1\n      calldatasize\n      sub\n      dup2\n      add\n      swap1\n      tag_94\n      swap2\n      swap1\n      tag_95\n      jump\t// in\n    tag_94:\n      tag_96\n      jump\t// in\n    tag_93:\n      mload(0x40)\n      tag_97\n      swap2\n      swap1\n      tag_85\n      jump\t// in\n    tag_97:\n      mload(0x40)\n      dup1\n      swap2\n      sub\n      swap1\n      return\n        /* \"@openzeppelin/contracts/access/Ownable.sol\":1918:2116  function transferOwnership(address newOwner) public virtual onlyOwner {... */\n    tag_22:\n      tag_98\n      0x04\n      dup1\n      calldatasize\n      sub\n      dup2\n      add\n      swap1\n      tag_99\n      swap2\n      swap1\n      tag_38\n      jump\t// in\n    tag_99:\n      tag_100\n      jump\t// in\n    tag_98:\n      stop\n        /* \"@openzeppelin/contracts/token/ERC1155/utils/ERC1155Receiver.sol\":387:608  function supportsInterface(bytes4 interfaceId) public view virtual override(ERC165, IERC165) returns (bool) {... */\n    tag_29:\n        /* \"@openzeppelin/contracts/token/ERC1155/utils/ERC1155Receiver.sol\":489:493  bool */\n      0x00\n        /* \"@openzeppelin/contracts/token/ERC1155/utils/ERC1155Receiver.sol\":527:561  type(IERC1155Receiver).interfaceId */\n      0x4e2312e000000000000000000000000000000000000000000000000000000000\n        /* \"@openzeppelin/contracts/token/ERC1155/utils/ERC1155Receiver.sol\":512:561  interfaceId == type(IERC1155Receiver).interfaceId */\n      not(0xffffffffffffffffffffffffffffffffffffffffffffffffffffffff)\n      and\n        /* \"@openzeppelin/contracts/token/ERC1155/utils/ERC1155Receiver.sol\":512:523  interfaceId */\n      dup3\n        /* \"@openzeppelin/contracts/token/ERC1155/utils/ERC1155Receiver.sol\":512:561  interfaceId == type(IERC1155Receiver).interfaceId */\n      not(0xffffffffffffffffffffffffffffffffffffffffffffffffffffffff)\n      and\n      eq\n        /* \"@openzeppelin/contracts/token/ERC1155/utils/ERC1155Receiver.sol\":512:601  interfaceId == type(IERC1155Receiver).interfaceId || super.supportsInterface(interfaceId) */\n      dup1\n      tag_102\n      jumpi\n      pop\n        /* \"@openzeppelin/contracts/token/ERC1155/utils/ERC1155Receiver.sol\":565:601  super.supportsInterface(interfaceId) */\n      tag_103\n        /* \"@openzeppelin/contracts/token/ERC1155/utils/ERC1155Receiver.sol\":589:600  interfaceId */\n      dup3\n        /* \"@openzeppelin/contracts/token/ERC1155/utils/ERC1155Receiver.sol\":565:588  super.supportsInterface */\n      tag_104\n        /* \"@openzeppelin/contracts/token/ERC1155/utils/ERC1155Receiver.sol\":565:601  super.supportsInterface(interfaceId) */\n      jump\t// in\n    tag_103:\n        /* \"@openzeppelin/contracts/token/ERC1155/utils/ERC1155Receiver.sol\":512:601  interfaceId == type(IERC1155Receiver).interfaceId || super.supportsInterface(interfaceId) */\n    tag_102:\n        /* \"@openzeppelin/contracts/token/ERC1155/utils/ERC1155Receiver.sol\":505:601  return interfaceId == type(IERC1155Receiver).interfaceId || super.supportsInterface(interfaceId) */\n      swap1\n      pop\n        /* \"@openzeppelin/contracts/token/ERC1155/utils/ERC1155Receiver.sol\":387:608  function supportsInterface(bytes4 interfaceId) public view virtual override(ERC165, IERC165) returns (bool) {... */\n      swap2\n      swap1\n      pop\n      jump\t// out\n        /* \"contracts/marketplace/Marketplace.sol\":963:991  address public accessControl */\n    tag_33:\n      0x02\n      0x00\n      swap1\n      sload\n      swap1\n      0x0100\n      exp\n      swap1\n      div\n      0xffffffffffffffffffffffffffffffffffffffff\n      and\n      dup2\n      jump\t// out\n        /* \"contracts/marketplace/Marketplace.sol\":7367:7485  function setAccessControl(address _accessControl) external onlyOwner {\r... */\n    tag_39:\n        /* \"@openzeppelin/contracts/access/Ownable.sol\":1259:1271  _msgSender() */\n      tag_106\n        /* \"@openzeppelin/contracts/access/Ownable.sol\":1259:1269  _msgSender */\n      tag_107\n        /* \"@openzeppelin/contracts/access/Ownable.sol\":1259:1271  _msgSender() */\n      jump\t// in\n    tag_106:\n        /* \"@openzeppelin/contracts/access/Ownable.sol\":1248:1271  owner() == _msgSender() */\n      0xffffffffffffffffffffffffffffffffffffffff\n      and\n        /* \"@openzeppelin/contracts/access/Ownable.sol\":1248:1255  owner() */\n      tag_108\n        /* \"@openzeppelin/contracts/access/Ownable.sol\":1248:1253  owner */\n      tag_72\n        /* \"@openzeppelin/contracts/access/Ownable.sol\":1248:1255  owner() */\n      jump\t// in\n    tag_108:\n        /* \"@openzeppelin/contracts/access/Ownable.sol\":1248:1271  owner() == _msgSender() */\n      0xffffffffffffffffffffffffffffffffffffffff\n      and\n      eq\n        /* \"@openzeppelin/contracts/access/Ownable.sol\":1240:1308  require(owner() == _msgSender(), \"Ownable: caller is not the owner\") */\n      tag_109\n      jumpi\n      mload(0x40)\n      0x08c379a000000000000000000000000000000000000000000000000000000000\n      dup2\n      mstore\n      0x04\n      add\n      tag_110\n      swap1\n      tag_111\n      jump\t// in\n    tag_110:\n      mload(0x40)\n      dup1\n      swap2\n      sub\n      swap1\n      revert\n    tag_109:\n        /* \"contracts/marketplace/Marketplace.sol\":7463:7477  _accessControl */\n      dup1\n        /* \"contracts/marketplace/Marketplace.sol\":7447:7460  accessControl */\n      0x02\n      0x00\n        /* \"contracts/marketplace/Marketplace.sol\":7447:7477  accessControl = _accessControl */\n      0x0100\n      exp\n      dup2\n      sload\n      dup2\n      0xffffffffffffffffffffffffffffffffffffffff\n      mul\n      not\n      and\n      swap1\n      dup4\n      0xffffffffffffffffffffffffffffffffffffffff\n      and\n      mul\n      or\n      swap1\n      sstore\n      pop\n        /* \"contracts/marketplace/Marketplace.sol\":7367:7485  function setAccessControl(address _accessControl) external onlyOwner {\r... */\n      pop\n      jump\t// out\n        /* \"contracts/marketplace/Marketplace.sol\":2104:2981  function list(uint _itemId, uint _oneItemPrice, uint _amount) external override whenNotPaused nonReentrant {\r... */\n    tag_43:\n        /* \"@openzeppelin/contracts/security/Pausable.sol\":1412:1420  paused() */\n      tag_114\n        /* \"@openzeppelin/contracts/security/Pausable.sol\":1412:1418  paused */\n      tag_57\n        /* \"@openzeppelin/contracts/security/Pausable.sol\":1412:1420  paused() */\n      jump\t// in\n    tag_114:\n        /* \"@openzeppelin/contracts/security/Pausable.sol\":1411:1420  !paused() */\n      iszero\n        /* \"@openzeppelin/contracts/security/Pausable.sol\":1403:1441  require(!paused(), \"Pausable: paused\") */\n      tag_115\n      jumpi\n      mload(0x40)\n      0x08c379a000000000000000000000000000000000000000000000000000000000\n      dup2\n      mstore\n      0x04\n      add\n      tag_116\n      swap1\n      tag_117\n      jump\t// in\n    tag_116:\n      mload(0x40)\n      dup1\n      swap2\n      sub\n      swap1\n      revert\n    tag_115:\n        /* \"@openzeppelin/contracts/security/ReentrancyGuard.sol\":1744:1745  2 */\n      0x02\n        /* \"@openzeppelin/contracts/security/ReentrancyGuard.sol\":2325:2332  _status */\n      sload(0x01)\n        /* \"@openzeppelin/contracts/security/ReentrancyGuard.sol\":2325:2344  _status != _ENTERED */\n      eq\n      iszero\n        /* \"@openzeppelin/contracts/security/ReentrancyGuard.sol\":2317:2380  require(_status != _ENTERED, \"ReentrancyGuard: reentrant call\") */\n      tag_119\n      jumpi\n      mload(0x40)\n      0x08c379a000000000000000000000000000000000000000000000000000000000\n      dup2\n      mstore\n      0x04\n      add\n      tag_120\n      swap1\n      tag_121\n      jump\t// in\n    tag_120:\n      mload(0x40)\n      dup1\n      swap2\n      sub\n      swap1\n      revert\n    tag_119:\n        /* \"@openzeppelin/contracts/security/ReentrancyGuard.sol\":1744:1745  2 */\n      0x02\n        /* \"@openzeppelin/contracts/security/ReentrancyGuard.sol\":2455:2462  _status */\n      0x01\n        /* \"@openzeppelin/contracts/security/ReentrancyGuard.sol\":2455:2473  _status = _ENTERED */\n      dup2\n      swap1\n      sstore\n      pop\n        /* \"contracts/marketplace/Marketplace.sol\":2246:2247  0 */\n      0x00\n        /* \"contracts/marketplace/Marketplace.sol\":2230:2243  _oneItemPrice */\n      dup3\n        /* \"contracts/marketplace/Marketplace.sol\":2230:2247  _oneItemPrice > 0 */\n      gt\n        /* \"contracts/marketplace/Marketplace.sol\":2222:2278  require(_oneItemPrice > 0, \"Marketplace: price is zero\") */\n      tag_123\n      jumpi\n      mload(0x40)\n      0x08c379a000000000000000000000000000000000000000000000000000000000\n      dup2\n      mstore\n      0x04\n      add\n      tag_124\n      swap1\n      tag_125\n      jump\t// in\n    tag_124:\n      mload(0x40)\n      dup1\n      swap2\n      sub\n      swap1\n      revert\n    tag_123:\n        /* \"contracts/marketplace/Marketplace.sol\":2307:2308  0 */\n      0x00\n        /* \"contracts/marketplace/Marketplace.sol\":2297:2304  _amount */\n      dup2\n        /* \"contracts/marketplace/Marketplace.sol\":2297:2308  _amount > 0 */\n      gt\n        /* \"contracts/marketplace/Marketplace.sol\":2289:2340  require(_amount > 0, \"Marketplace: amount is zero\") */\n      tag_126\n      jumpi\n      mload(0x40)\n      0x08c379a000000000000000000000000000000000000000000000000000000000\n      dup2\n      mstore\n      0x04\n      add\n      tag_127\n      swap1\n      tag_128\n      jump\t// in\n    tag_127:\n      mload(0x40)\n      dup1\n      swap2\n      sub\n      swap1\n      revert\n    tag_126:\n        /* \"contracts/marketplace/Marketplace.sol\":2410:2417  _amount */\n      dup1\n        /* \"contracts/marketplace/Marketplace.sol\":2368:2374  UITNFT */\n      immutable(\"0x3d550a598553b485ade63df00865310ea36cbff0dc487035a9b4be52b149fadb\")\n        /* \"contracts/marketplace/Marketplace.sol\":2359:2385  IERC1155(UITNFT).balanceOf */\n      0xffffffffffffffffffffffffffffffffffffffff\n      and\n      0xfdd58e\n        /* \"contracts/marketplace/Marketplace.sol\":2386:2396  msg.sender */\n      caller\n        /* \"contracts/marketplace/Marketplace.sol\":2398:2405  _itemId */\n      dup7\n        /* \"contracts/marketplace/Marketplace.sol\":2359:2406  IERC1155(UITNFT).balanceOf(msg.sender, _itemId) */\n      mload(0x40)\n      dup4\n      0xffffffff\n      and\n      0xe0\n      shl\n      dup2\n      mstore\n      0x04\n      add\n      tag_129\n      swap3\n      swap2\n      swap1\n      tag_130\n      jump\t// in\n    tag_129:\n      0x20\n      mload(0x40)\n      dup1\n      dup4\n      sub\n      dup2\n      dup7\n      dup1\n      extcodesize\n      iszero\n      dup1\n      iszero\n      tag_131\n      jumpi\n      0x00\n      dup1\n      revert\n    tag_131:\n      pop\n      gas\n      staticcall\n      iszero\n      dup1\n      iszero\n      tag_133\n      jumpi\n      returndatasize\n      0x00\n      dup1\n      returndatacopy\n      revert(0x00, returndatasize)\n    tag_133:\n      pop\n      pop\n      pop\n      pop\n      mload(0x40)\n      returndatasize\n      not(0x1f)\n      0x1f\n      dup3\n      add\n      and\n      dup3\n      add\n      dup1\n      0x40\n      mstore\n      pop\n      dup2\n      add\n      swap1\n      tag_134\n      swap2\n      swap1\n      tag_135\n      jump\t// in\n    tag_134:\n        /* \"contracts/marketplace/Marketplace.sol\":2359:2417  IERC1155(UITNFT).balanceOf(msg.sender, _itemId) >= _amount */\n      lt\n      iszero\n        /* \"contracts/marketplace/Marketplace.sol\":2351:2468  require(IERC1155(UITNFT).balanceOf(msg.sender, _itemId) >= _amount, \"Marketplace: Balance of items less than amount\") */\n      tag_136\n      jumpi\n      mload(0x40)\n      0x08c379a000000000000000000000000000000000000000000000000000000000\n      dup2\n      mstore\n      0x04\n      add\n      tag_137\n      swap1\n      tag_138\n      jump\t// in\n    tag_137:\n      mload(0x40)\n      dup1\n      swap2\n      sub\n      swap1\n      revert\n    tag_136:\n        /* \"contracts/marketplace/Marketplace.sol\":2479:2503  SaleInfo memory saleInfo */\n      0x00\n        /* \"contracts/marketplace/Marketplace.sol\":2506:2518  itemsForSale */\n      0x03\n        /* \"contracts/marketplace/Marketplace.sol\":2506:2527  itemsForSale[_itemId] */\n      0x00\n        /* \"contracts/marketplace/Marketplace.sol\":2519:2526  _itemId */\n      dup6\n        /* \"contracts/marketplace/Marketplace.sol\":2506:2527  itemsForSale[_itemId] */\n      dup2\n      mstore\n      0x20\n      add\n      swap1\n      dup2\n      mstore\n      0x20\n      add\n      0x00\n      keccak256\n        /* \"contracts/marketplace/Marketplace.sol\":2506:2539  itemsForSale[_itemId][msg.sender] */\n      0x00\n        /* \"contracts/marketplace/Marketplace.sol\":2528:2538  msg.sender */\n      caller\n        /* \"contracts/marketplace/Marketplace.sol\":2506:2539  itemsForSale[_itemId][msg.sender] */\n      0xffffffffffffffffffffffffffffffffffffffff\n      and\n      0xffffffffffffffffffffffffffffffffffffffff\n      and\n      dup2\n      mstore\n      0x20\n      add\n      swap1\n      dup2\n      mstore\n      0x20\n      add\n      0x00\n      keccak256\n        /* \"contracts/marketplace/Marketplace.sol\":2479:2539  SaleInfo memory saleInfo = itemsForSale[_itemId][msg.sender] */\n      mload(0x40)\n      dup1\n      0xa0\n      add\n      0x40\n      mstore\n      swap1\n      dup2\n      0x00\n      dup3\n      add\n      0x00\n      swap1\n      sload\n      swap1\n      0x0100\n      exp\n      swap1\n      div\n      0xff\n      and\n      iszero\n      iszero\n      iszero\n      iszero\n      dup2\n      mstore\n      0x20\n      add\n      0x01\n      dup3\n      add\n      sload\n      dup2\n      mstore\n      0x20\n      add\n      0x02\n      dup3\n      add\n      sload\n      dup2\n      mstore\n      0x20\n      add\n      0x03\n      dup3\n      add\n      sload\n      dup2\n      mstore\n      0x20\n      add\n      0x04\n      dup3\n      add\n      sload\n      dup2\n      mstore\n      pop\n      pop\n      swap1\n      pop\n        /* \"contracts/marketplace/Marketplace.sol\":2559:2567  saleInfo */\n      dup1\n        /* \"contracts/marketplace/Marketplace.sol\":2559:2576  saleInfo.isActive */\n      0x00\n      add\n      mload\n        /* \"contracts/marketplace/Marketplace.sol\":2558:2576  !saleInfo.isActive */\n      iszero\n        /* \"contracts/marketplace/Marketplace.sol\":2550:2616  require(!saleInfo.isActive, \"Marketplace: Item is already listed\") */\n      tag_139\n      jumpi\n      mload(0x40)\n      0x08c379a000000000000000000000000000000000000000000000000000000000\n      dup2\n      mstore\n      0x04\n      add\n      tag_140\n      swap1\n      tag_141\n      jump\t// in\n    tag_140:\n      mload(0x40)\n      dup1\n      swap2\n      sub\n      swap1\n      revert\n    tag_139:\n        /* \"contracts/marketplace/Marketplace.sol\":2665:2805  SaleInfo(\r... */\n      mload(0x40)\n      dup1\n      0xa0\n      add\n      0x40\n      mstore\n      dup1\n        /* \"contracts/marketplace/Marketplace.sol\":2688:2692  true */\n      0x01\n        /* \"contracts/marketplace/Marketplace.sol\":2665:2805  SaleInfo(\r... */\n      iszero\n      iszero\n      dup2\n      mstore\n      0x20\n      add\n        /* \"contracts/marketplace/Marketplace.sol\":2707:2714  _itemId */\n      dup6\n        /* \"contracts/marketplace/Marketplace.sol\":2665:2805  SaleInfo(\r... */\n      dup2\n      mstore\n      0x20\n      add\n        /* \"contracts/marketplace/Marketplace.sol\":2729:2736  _amount */\n      dup4\n        /* \"contracts/marketplace/Marketplace.sol\":2665:2805  SaleInfo(\r... */\n      dup2\n      mstore\n      0x20\n      add\n        /* \"contracts/marketplace/Marketplace.sol\":2751:2766  block.timestamp */\n      timestamp\n        /* \"contracts/marketplace/Marketplace.sol\":2665:2805  SaleInfo(\r... */\n      dup2\n      mstore\n      0x20\n      add\n        /* \"contracts/marketplace/Marketplace.sol\":2781:2794  _oneItemPrice */\n      dup5\n        /* \"contracts/marketplace/Marketplace.sol\":2665:2805  SaleInfo(\r... */\n      dup2\n      mstore\n      pop\n        /* \"contracts/marketplace/Marketplace.sol\":2629:2641  itemsForSale */\n      0x03\n        /* \"contracts/marketplace/Marketplace.sol\":2629:2650  itemsForSale[_itemId] */\n      0x00\n        /* \"contracts/marketplace/Marketplace.sol\":2642:2649  _itemId */\n      dup7\n        /* \"contracts/marketplace/Marketplace.sol\":2629:2650  itemsForSale[_itemId] */\n      dup2\n      mstore\n      0x20\n      add\n      swap1\n      dup2\n      mstore\n      0x20\n      add\n      0x00\n      keccak256\n        /* \"contracts/marketplace/Marketplace.sol\":2629:2662  itemsForSale[_itemId][msg.sender] */\n      0x00\n        /* \"contracts/marketplace/Marketplace.sol\":2651:2661  msg.sender */\n      caller\n        /* \"contracts/marketplace/Marketplace.sol\":2629:2662  itemsForSale[_itemId][msg.sender] */\n      0xffffffffffffffffffffffffffffffffffffffff\n      and\n      0xffffffffffffffffffffffffffffffffffffffff\n      and\n      dup2\n      mstore\n      0x20\n      add\n      swap1\n      dup2\n      mstore\n      0x20\n      add\n      0x00\n      keccak256\n        /* \"contracts/marketplace/Marketplace.sol\":2629:2805  itemsForSale[_itemId][msg.sender] = SaleInfo(\r... */\n      0x00\n      dup3\n      add\n      mload\n      dup2\n      0x00\n      add\n      exp(0x0100, 0x00)\n      dup2\n      sload\n      dup2\n      0xff\n      mul\n      not\n      and\n      swap1\n      dup4\n      iszero\n      iszero\n      mul\n      or\n      swap1\n      sstore\n      pop\n      0x20\n      dup3\n      add\n      mload\n      dup2\n      0x01\n      add\n      sstore\n      0x40\n      dup3\n      add\n      mload\n      dup2\n      0x02\n      add\n      sstore\n      0x60\n      dup3\n      add\n      mload\n      dup2\n      0x03\n      add\n      sstore\n      0x80\n      dup3\n      add\n      mload\n      dup2\n      0x04\n      add\n      sstore\n      swap1\n      pop\n      pop\n        /* \"contracts/marketplace/Marketplace.sol\":2827:2833  UITNFT */\n      immutable(\"0x3d550a598553b485ade63df00865310ea36cbff0dc487035a9b4be52b149fadb\")\n        /* \"contracts/marketplace/Marketplace.sol\":2818:2851  IERC1155(UITNFT).safeTransferFrom */\n      0xffffffffffffffffffffffffffffffffffffffff\n      and\n      0xf242432a\n        /* \"contracts/marketplace/Marketplace.sol\":2852:2862  msg.sender */\n      caller\n        /* \"contracts/marketplace/Marketplace.sol\":2872:2876  this */\n      address\n        /* \"contracts/marketplace/Marketplace.sol\":2879:2886  _itemId */\n      dup8\n        /* \"contracts/marketplace/Marketplace.sol\":2888:2895  _amount */\n      dup7\n        /* \"contracts/marketplace/Marketplace.sol\":2818:2900  IERC1155(UITNFT).safeTransferFrom(msg.sender, address(this), _itemId, _amount, \"\") */\n      mload(0x40)\n      dup6\n      0xffffffff\n      and\n      0xe0\n      shl\n      dup2\n      mstore\n      0x04\n      add\n      tag_142\n      swap5\n      swap4\n      swap3\n      swap2\n      swap1\n      tag_143\n      jump\t// in\n    tag_142:\n      0x00\n      mload(0x40)\n      dup1\n      dup4\n      sub\n      dup2\n      0x00\n      dup8\n      dup1\n      extcodesize\n      iszero\n      dup1\n      iszero\n      tag_144\n      jumpi\n      0x00\n      dup1\n      revert\n    tag_144:\n      pop\n      gas\n      call\n      iszero\n      dup1\n      iszero\n      tag_146\n      jumpi\n      returndatasize\n      0x00\n      dup1\n      returndatacopy\n      revert(0x00, returndatasize)\n    tag_146:\n      pop\n      pop\n      pop\n      pop\n        /* \"contracts/marketplace/Marketplace.sol\":2929:2936  _itemId */\n      dup4\n        /* \"contracts/marketplace/Marketplace.sol\":2918:2973  ItemListed(_itemId, _amount, _oneItemPrice, msg.sender) */\n      0x5bc1dfc7136db3113acb6dad2e291dcf149405ca07fcec667fa5e1fa7f430f98\n        /* \"contracts/marketplace/Marketplace.sol\":2938:2945  _amount */\n      dup4\n        /* \"contracts/marketplace/Marketplace.sol\":2947:2960  _oneItemPrice */\n      dup6\n        /* \"contracts/marketplace/Marketplace.sol\":2962:2972  msg.sender */\n      caller\n        /* \"contracts/marketplace/Marketplace.sol\":2918:2973  ItemListed(_itemId, _amount, _oneItemPrice, msg.sender) */\n      mload(0x40)\n      tag_147\n      swap4\n      swap3\n      swap2\n      swap1\n      tag_148\n      jump\t// in\n    tag_147:\n      mload(0x40)\n      dup1\n      swap2\n      sub\n      swap1\n      log2\n        /* \"contracts/marketplace/Marketplace.sol\":2211:2981  {\r... */\n      pop\n        /* \"@openzeppelin/contracts/security/ReentrancyGuard.sol\":1701:1702  1 */\n      0x01\n        /* \"@openzeppelin/contracts/security/ReentrancyGuard.sol\":2628:2635  _status */\n      dup1\n        /* \"@openzeppelin/contracts/security/ReentrancyGuard.sol\":2628:2650  _status = _NOT_ENTERED */\n      dup2\n      swap1\n      sstore\n      pop\n        /* \"contracts/marketplace/Marketplace.sol\":2104:2981  function list(uint _itemId, uint _oneItemPrice, uint _amount) external override whenNotPaused nonReentrant {\r... */\n      pop\n      pop\n      pop\n      jump\t// out\n        /* \"contracts/marketplace/Marketplace.sol\":998:1031  address public immutable UITToken */\n    tag_45:\n      immutable(\"0x1b4842a19c661b7382881ce30aa723dedf4fd830b4353e3140588333c90c8c04\")\n      dup2\n      jump\t// out\n        /* \"contracts/marketplace/Marketplace.sol\":1038:1069  address public immutable UITNFT */\n    tag_48:\n      immutable(\"0x3d550a598553b485ade63df00865310ea36cbff0dc487035a9b4be52b149fadb\")\n      dup2\n      jump\t// out\n        /* \"contracts/marketplace/Marketplace.sol\":7668:7735  function unpause() external onlyOwner {\r... */\n    tag_51:\n        /* \"@openzeppelin/contracts/access/Ownable.sol\":1259:1271  _msgSender() */\n      tag_150\n        /* \"@openzeppelin/contracts/access/Ownable.sol\":1259:1269  _msgSender */\n      tag_107\n        /* \"@openzeppelin/contracts/access/Ownable.sol\":1259:1271  _msgSender() */\n      jump\t// in\n    tag_150:\n        /* \"@openzeppelin/contracts/access/Ownable.sol\":1248:1271  owner() == _msgSender() */\n      0xffffffffffffffffffffffffffffffffffffffff\n      and\n        /* \"@openzeppelin/contracts/access/Ownable.sol\":1248:1255  owner() */\n      tag_151\n        /* \"@openzeppelin/contracts/access/Ownable.sol\":1248:1253  owner */\n      tag_72\n        /* \"@openzeppelin/contracts/access/Ownable.sol\":1248:1255  owner() */\n      jump\t// in\n    tag_151:\n        /* \"@openzeppelin/contracts/access/Ownable.sol\":1248:1271  owner() == _msgSender() */\n      0xffffffffffffffffffffffffffffffffffffffff\n      and\n      eq\n        /* \"@openzeppelin/contracts/access/Ownable.sol\":1240:1308  require(owner() == _msgSender(), \"Ownable: caller is not the owner\") */\n      tag_152\n      jumpi\n      mload(0x40)\n      0x08c379a000000000000000000000000000000000000000000000000000000000\n      dup2\n      mstore\n      0x04\n      add\n      tag_153\n      swap1\n      tag_111\n      jump\t// in\n    tag_153:\n      mload(0x40)\n      dup1\n      swap2\n      sub\n      swap1\n      revert\n    tag_152:\n        /* \"contracts/marketplace/Marketplace.sol\":7717:7727  _unpause() */\n      tag_155\n        /* \"contracts/marketplace/Marketplace.sol\":7717:7725  _unpause */\n      tag_156\n        /* \"contracts/marketplace/Marketplace.sol\":7717:7727  _unpause() */\n      jump\t// in\n    tag_155:\n        /* \"contracts/marketplace/Marketplace.sol\":7668:7735  function unpause() external onlyOwner {\r... */\n      jump\t// out\n        /* \"contracts/marketplace/Marketplace.sol\":3111:3590  function deList(uint _itemId) external override whenNotPaused nonReentrant {\r... */\n    tag_55:\n        /* \"@openzeppelin/contracts/security/Pausable.sol\":1412:1420  paused() */\n      tag_158\n        /* \"@openzeppelin/contracts/security/Pausable.sol\":1412:1418  paused */\n      tag_57\n        /* \"@openzeppelin/contracts/security/Pausable.sol\":1412:1420  paused() */\n      jump\t// in\n    tag_158:\n        /* \"@openzeppelin/contracts/security/Pausable.sol\":1411:1420  !paused() */\n      iszero\n        /* \"@openzeppelin/contracts/security/Pausable.sol\":1403:1441  require(!paused(), \"Pausable: paused\") */\n      tag_159\n      jumpi\n      mload(0x40)\n      0x08c379a000000000000000000000000000000000000000000000000000000000\n      dup2\n      mstore\n      0x04\n      add\n      tag_160\n      swap1\n      tag_117\n      jump\t// in\n    tag_160:\n      mload(0x40)\n      dup1\n      swap2\n      sub\n      swap1\n      revert\n    tag_159:\n        /* \"@openzeppelin/contracts/security/ReentrancyGuard.sol\":1744:1745  2 */\n      0x02\n        /* \"@openzeppelin/contracts/security/ReentrancyGuard.sol\":2325:2332  _status */\n      sload(0x01)\n        /* \"@openzeppelin/contracts/security/ReentrancyGuard.sol\":2325:2344  _status != _ENTERED */\n      eq\n      iszero\n        /* \"@openzeppelin/contracts/security/ReentrancyGuard.sol\":2317:2380  require(_status != _ENTERED, \"ReentrancyGuard: reentrant call\") */\n      tag_162\n      jumpi\n      mload(0x40)\n      0x08c379a000000000000000000000000000000000000000000000000000000000\n      dup2\n      mstore\n      0x04\n      add\n      tag_163\n      swap1\n      tag_121\n      jump\t// in\n    tag_163:\n      mload(0x40)\n      dup1\n      swap2\n      sub\n      swap1\n      revert\n    tag_162:\n        /* \"@openzeppelin/contracts/security/ReentrancyGuard.sol\":1744:1745  2 */\n      0x02\n        /* \"@openzeppelin/contracts/security/ReentrancyGuard.sol\":2455:2462  _status */\n      0x01\n        /* \"@openzeppelin/contracts/security/ReentrancyGuard.sol\":2455:2473  _status = _ENTERED */\n      dup2\n      swap1\n      sstore\n      pop\n        /* \"contracts/marketplace/Marketplace.sol\":3197:3211  address seller */\n      0x00\n        /* \"contracts/marketplace/Marketplace.sol\":3214:3224  msg.sender */\n      caller\n        /* \"contracts/marketplace/Marketplace.sol\":3197:3224  address seller = msg.sender */\n      swap1\n      pop\n        /* \"contracts/marketplace/Marketplace.sol\":3235:3256  SaleInfo storage sale */\n      0x00\n        /* \"contracts/marketplace/Marketplace.sol\":3259:3271  itemsForSale */\n      0x03\n        /* \"contracts/marketplace/Marketplace.sol\":3259:3280  itemsForSale[_itemId] */\n      0x00\n        /* \"contracts/marketplace/Marketplace.sol\":3272:3279  _itemId */\n      dup5\n        /* \"contracts/marketplace/Marketplace.sol\":3259:3280  itemsForSale[_itemId] */\n      dup2\n      mstore\n      0x20\n      add\n      swap1\n      dup2\n      mstore\n      0x20\n      add\n      0x00\n      keccak256\n        /* \"contracts/marketplace/Marketplace.sol\":3259:3288  itemsForSale[_itemId][seller] */\n      0x00\n        /* \"contracts/marketplace/Marketplace.sol\":3281:3287  seller */\n      dup4\n        /* \"contracts/marketplace/Marketplace.sol\":3259:3288  itemsForSale[_itemId][seller] */\n      0xffffffffffffffffffffffffffffffffffffffff\n      and\n      0xffffffffffffffffffffffffffffffffffffffff\n      and\n      dup2\n      mstore\n      0x20\n      add\n      swap1\n      dup2\n      mstore\n      0x20\n      add\n      0x00\n      keccak256\n        /* \"contracts/marketplace/Marketplace.sol\":3235:3288  SaleInfo storage sale = itemsForSale[_itemId][seller] */\n      swap1\n      pop\n        /* \"contracts/marketplace/Marketplace.sol\":3307:3311  sale */\n      dup1\n        /* \"contracts/marketplace/Marketplace.sol\":3307:3320  sale.isActive */\n      0x00\n      add\n      0x00\n      swap1\n      sload\n      swap1\n      0x0100\n      exp\n      swap1\n      div\n      0xff\n      and\n        /* \"contracts/marketplace/Marketplace.sol\":3299:3367  require(sale.isActive, \"Marketplace: Sale inactive or already sold\") */\n      tag_165\n      jumpi\n      mload(0x40)\n      0x08c379a000000000000000000000000000000000000000000000000000000000\n      dup2\n      mstore\n      0x04\n      add\n      tag_166\n      swap1\n      tag_167\n      jump\t// in\n    tag_166:\n      mload(0x40)\n      dup1\n      swap2\n      sub\n      swap1\n      revert\n    tag_165:\n        /* \"contracts/marketplace/Marketplace.sol\":3380:3391  uint amount */\n      0x00\n        /* \"contracts/marketplace/Marketplace.sol\":3394:3398  sale */\n      dup2\n        /* \"contracts/marketplace/Marketplace.sol\":3394:3405  sale.amount */\n      0x02\n      add\n      sload\n        /* \"contracts/marketplace/Marketplace.sol\":3380:3405  uint amount = sale.amount */\n      swap1\n      pop\n        /* \"contracts/marketplace/Marketplace.sol\":3432:3437  false */\n      0x00\n        /* \"contracts/marketplace/Marketplace.sol\":3416:3420  sale */\n      dup3\n        /* \"contracts/marketplace/Marketplace.sol\":3416:3429  sale.isActive */\n      0x00\n      add\n      0x00\n        /* \"contracts/marketplace/Marketplace.sol\":3416:3437  sale.isActive = false */\n      0x0100\n      exp\n      dup2\n      sload\n      dup2\n      0xff\n      mul\n      not\n      and\n      swap1\n      dup4\n      iszero\n      iszero\n      mul\n      or\n      swap1\n      sstore\n      pop\n        /* \"contracts/marketplace/Marketplace.sol\":3459:3465  UITNFT */\n      immutable(\"0x3d550a598553b485ade63df00865310ea36cbff0dc487035a9b4be52b149fadb\")\n        /* \"contracts/marketplace/Marketplace.sol\":3450:3483  IERC1155(UITNFT).safeTransferFrom */\n      0xffffffffffffffffffffffffffffffffffffffff\n      and\n      0xf242432a\n        /* \"contracts/marketplace/Marketplace.sol\":3492:3496  this */\n      address\n        /* \"contracts/marketplace/Marketplace.sol\":3499:3505  seller */\n      dup6\n        /* \"contracts/marketplace/Marketplace.sol\":3507:3514  _itemId */\n      dup8\n        /* \"contracts/marketplace/Marketplace.sol\":3516:3522  amount */\n      dup6\n        /* \"contracts/marketplace/Marketplace.sol\":3450:3527  IERC1155(UITNFT).safeTransferFrom(address(this), seller, _itemId, amount, \"\") */\n      mload(0x40)\n      dup6\n      0xffffffff\n      and\n      0xe0\n      shl\n      dup2\n      mstore\n      0x04\n      add\n      tag_168\n      swap5\n      swap4\n      swap3\n      swap2\n      swap1\n      tag_143\n      jump\t// in\n    tag_168:\n      0x00\n      mload(0x40)\n      dup1\n      dup4\n      sub\n      dup2\n      0x00\n      dup8\n      dup1\n      extcodesize\n      iszero\n      dup1\n      iszero\n      tag_169\n      jumpi\n      0x00\n      dup1\n      revert\n    tag_169:\n      pop\n      gas\n      call\n      iszero\n      dup1\n      iszero\n      tag_171\n      jumpi\n      returndatasize\n      0x00\n      dup1\n      returndatacopy\n      revert(0x00, returndatasize)\n    tag_171:\n      pop\n      pop\n      pop\n      pop\n        /* \"contracts/marketplace/Marketplace.sol\":3558:3565  _itemId */\n      dup4\n        /* \"contracts/marketplace/Marketplace.sol\":3545:3582  ItemDelisted(_itemId, amount, seller) */\n      0x30411792a34feb0f32a6be64e1996fa803c4505bbf6314f391f3d63c24ae52d5\n        /* \"contracts/marketplace/Marketplace.sol\":3567:3573  amount */\n      dup3\n        /* \"contracts/marketplace/Marketplace.sol\":3575:3581  seller */\n      dup6\n        /* \"contracts/marketplace/Marketplace.sol\":3545:3582  ItemDelisted(_itemId, amount, seller) */\n      mload(0x40)\n      tag_172\n      swap3\n      swap2\n      swap1\n      tag_173\n      jump\t// in\n    tag_172:\n      mload(0x40)\n      dup1\n      swap2\n      sub\n      swap1\n      log2\n        /* \"contracts/marketplace/Marketplace.sol\":3186:3590  {\r... */\n      pop\n      pop\n      pop\n        /* \"@openzeppelin/contracts/security/ReentrancyGuard.sol\":1701:1702  1 */\n      0x01\n        /* \"@openzeppelin/contracts/security/ReentrancyGuard.sol\":2628:2635  _status */\n      dup1\n        /* \"@openzeppelin/contracts/security/ReentrancyGuard.sol\":2628:2650  _status = _NOT_ENTERED */\n      dup2\n      swap1\n      sstore\n      pop\n        /* \"contracts/marketplace/Marketplace.sol\":3111:3590  function deList(uint _itemId) external override whenNotPaused nonReentrant {\r... */\n      pop\n      jump\t// out\n        /* \"@openzeppelin/contracts/security/Pausable.sol\":1098:1182  function paused() public view virtual returns (bool) {... */\n    tag_57:\n        /* \"@openzeppelin/contracts/security/Pausable.sol\":1145:1149  bool */\n      0x00\n        /* \"@openzeppelin/contracts/security/Pausable.sol\":1168:1175  _paused */\n      dup1\n      0x00\n      swap1\n      sload\n      swap1\n      0x0100\n      exp\n      swap1\n      div\n      0xff\n      and\n        /* \"@openzeppelin/contracts/security/Pausable.sol\":1161:1175  return _paused */\n      swap1\n      pop\n        /* \"@openzeppelin/contracts/security/Pausable.sol\":1098:1182  function paused() public view virtual returns (bool) {... */\n      swap1\n      jump\t// out\n        /* \"contracts/marketplace/Marketplace.sol\":4448:5653  function buy(uint _itemId, address _seller, uint _amount, uint _oneItemBuyPrice) external override whenNotPaused nonReentrant {\r... */\n    tag_62:\n        /* \"@openzeppelin/contracts/security/Pausable.sol\":1412:1420  paused() */\n      tag_176\n        /* \"@openzeppelin/contracts/security/Pausable.sol\":1412:1418  paused */\n      tag_57\n        /* \"@openzeppelin/contracts/security/Pausable.sol\":1412:1420  paused() */\n      jump\t// in\n    tag_176:\n        /* \"@openzeppelin/contracts/security/Pausable.sol\":1411:1420  !paused() */\n      iszero\n        /* \"@openzeppelin/contracts/security/Pausable.sol\":1403:1441  require(!paused(), \"Pausable: paused\") */\n      tag_177\n      jumpi\n      mload(0x40)\n      0x08c379a000000000000000000000000000000000000000000000000000000000\n      dup2\n      mstore\n      0x04\n      add\n      tag_178\n      swap1\n      tag_117\n      jump\t// in\n    tag_178:\n      mload(0x40)\n      dup1\n      swap2\n      sub\n      swap1\n      revert\n    tag_177:\n        /* \"@openzeppelin/contracts/security/ReentrancyGuard.sol\":1744:1745  2 */\n      0x02\n        /* \"@openzeppelin/contracts/security/ReentrancyGuard.sol\":2325:2332  _status */\n      sload(0x01)\n        /* \"@openzeppelin/contracts/security/ReentrancyGuard.sol\":2325:2344  _status != _ENTERED */\n      eq\n      iszero\n        /* \"@openzeppelin/contracts/security/ReentrancyGuard.sol\":2317:2380  require(_status != _ENTERED, \"ReentrancyGuard: reentrant call\") */\n      tag_180\n      jumpi\n      mload(0x40)\n      0x08c379a000000000000000000000000000000000000000000000000000000000\n      dup2\n      mstore\n      0x04\n      add\n      tag_181\n      swap1\n      tag_121\n      jump\t// in\n    tag_181:\n      mload(0x40)\n      dup1\n      swap2\n      sub\n      swap1\n      revert\n    tag_180:\n        /* \"@openzeppelin/contracts/security/ReentrancyGuard.sol\":1744:1745  2 */\n      0x02\n        /* \"@openzeppelin/contracts/security/ReentrancyGuard.sol\":2455:2462  _status */\n      0x01\n        /* \"@openzeppelin/contracts/security/ReentrancyGuard.sol\":2455:2473  _status = _ENTERED */\n      dup2\n      swap1\n      sstore\n      pop\n        /* \"contracts/marketplace/Marketplace.sol\":4585:4606  SaleInfo storage sale */\n      0x00\n        /* \"contracts/marketplace/Marketplace.sol\":4609:4621  itemsForSale */\n      0x03\n        /* \"contracts/marketplace/Marketplace.sol\":4609:4630  itemsForSale[_itemId] */\n      0x00\n        /* \"contracts/marketplace/Marketplace.sol\":4622:4629  _itemId */\n      dup7\n        /* \"contracts/marketplace/Marketplace.sol\":4609:4630  itemsForSale[_itemId] */\n      dup2\n      mstore\n      0x20\n      add\n      swap1\n      dup2\n      mstore\n      0x20\n      add\n      0x00\n      keccak256\n        /* \"contracts/marketplace/Marketplace.sol\":4609:4639  itemsForSale[_itemId][_seller] */\n      0x00\n        /* \"contracts/marketplace/Marketplace.sol\":4631:4638  _seller */\n      dup6\n        /* \"contracts/marketplace/Marketplace.sol\":4609:4639  itemsForSale[_itemId][_seller] */\n      0xffffffffffffffffffffffffffffffffffffffff\n      and\n      0xffffffffffffffffffffffffffffffffffffffff\n      and\n      dup2\n      mstore\n      0x20\n      add\n      swap1\n      dup2\n      mstore\n      0x20\n      add\n      0x00\n      keccak256\n        /* \"contracts/marketplace/Marketplace.sol\":4585:4639  SaleInfo storage sale = itemsForSale[_itemId][_seller] */\n      swap1\n      pop\n        /* \"contracts/marketplace/Marketplace.sol\":4650:4663  address buyer */\n      0x00\n        /* \"contracts/marketplace/Marketplace.sol\":4666:4676  msg.sender */\n      caller\n        /* \"contracts/marketplace/Marketplace.sol\":4650:4676  address buyer = msg.sender */\n      swap1\n      pop\n        /* \"contracts/marketplace/Marketplace.sol\":4687:4704  uint oneItemPrice */\n      0x00\n        /* \"contracts/marketplace/Marketplace.sol\":4707:4711  sale */\n      dup3\n        /* \"contracts/marketplace/Marketplace.sol\":4707:4724  sale.oneItemPrice */\n      0x04\n      add\n      sload\n        /* \"contracts/marketplace/Marketplace.sol\":4687:4724  uint oneItemPrice = sale.oneItemPrice */\n      swap1\n      pop\n        /* \"contracts/marketplace/Marketplace.sol\":4735:4745  uint price */\n      0x00\n        /* \"contracts/marketplace/Marketplace.sol\":4758:4770  oneItemPrice */\n      dup2\n        /* \"contracts/marketplace/Marketplace.sol\":4748:4755  _amount */\n      dup7\n        /* \"contracts/marketplace/Marketplace.sol\":4748:4770  _amount * oneItemPrice */\n      tag_183\n      swap2\n      swap1\n      tag_184\n      jump\t// in\n    tag_183:\n        /* \"contracts/marketplace/Marketplace.sol\":4735:4770  uint price = _amount * oneItemPrice */\n      swap1\n      pop\n        /* \"contracts/marketplace/Marketplace.sol\":4791:4795  sale */\n      dup4\n        /* \"contracts/marketplace/Marketplace.sol\":4791:4804  sale.isActive */\n      0x00\n      add\n      0x00\n      swap1\n      sload\n      swap1\n      0x0100\n      exp\n      swap1\n      div\n      0xff\n      and\n        /* \"contracts/marketplace/Marketplace.sol\":4783:4851  require(sale.isActive, \"Marketplace: Sale inactive or already sold\") */\n      tag_185\n      jumpi\n      mload(0x40)\n      0x08c379a000000000000000000000000000000000000000000000000000000000\n      dup2\n      mstore\n      0x04\n      add\n      tag_186\n      swap1\n      tag_167\n      jump\t// in\n    tag_186:\n      mload(0x40)\n      dup1\n      swap2\n      sub\n      swap1\n      revert\n    tag_185:\n        /* \"contracts/marketplace/Marketplace.sol\":4881:4885  sale */\n      dup4\n        /* \"contracts/marketplace/Marketplace.sol\":4881:4892  sale.amount */\n      0x02\n      add\n      sload\n        /* \"contracts/marketplace/Marketplace.sol\":4870:4877  _amount */\n      dup7\n        /* \"contracts/marketplace/Marketplace.sol\":4870:4892  _amount <= sale.amount */\n      gt\n      iszero\n        /* \"contracts/marketplace/Marketplace.sol\":4862:4935  require(_amount <= sale.amount, \"Marketplace: Not enough amount to sell\") */\n      tag_187\n      jumpi\n      mload(0x40)\n      0x08c379a000000000000000000000000000000000000000000000000000000000\n      dup2\n      mstore\n      0x04\n      add\n      tag_188\n      swap1\n      tag_189\n      jump\t// in\n    tag_188:\n      mload(0x40)\n      dup1\n      swap2\n      sub\n      swap1\n      revert\n    tag_187:\n        /* \"contracts/marketplace/Marketplace.sol\":4974:4986  oneItemPrice */\n      dup2\n        /* \"contracts/marketplace/Marketplace.sol\":4954:4970  _oneItemBuyPrice */\n      dup6\n        /* \"contracts/marketplace/Marketplace.sol\":4954:4986  _oneItemBuyPrice == oneItemPrice */\n      eq\n        /* \"contracts/marketplace/Marketplace.sol\":4946:5023  require(_oneItemBuyPrice == oneItemPrice, \"Marketplace: invalid trade price\") */\n      tag_190\n      jumpi\n      mload(0x40)\n      0x08c379a000000000000000000000000000000000000000000000000000000000\n      dup2\n      mstore\n      0x04\n      add\n      tag_191\n      swap1\n      tag_192\n      jump\t// in\n    tag_191:\n      mload(0x40)\n      dup1\n      swap2\n      sub\n      swap1\n      revert\n    tag_190:\n        /* \"contracts/marketplace/Marketplace.sol\":5051:5058  _seller */\n      dup7\n        /* \"contracts/marketplace/Marketplace.sol\":5042:5058  buyer != _seller */\n      0xffffffffffffffffffffffffffffffffffffffff\n      and\n        /* \"contracts/marketplace/Marketplace.sol\":5042:5047  buyer */\n      dup4\n        /* \"contracts/marketplace/Marketplace.sol\":5042:5058  buyer != _seller */\n      0xffffffffffffffffffffffffffffffffffffffff\n      and\n      eq\n      iszero\n        /* \"contracts/marketplace/Marketplace.sol\":5034:5092  require(buyer != _seller, \"Marketplace: owner cannot buy\") */\n      tag_193\n      jumpi\n      mload(0x40)\n      0x08c379a000000000000000000000000000000000000000000000000000000000\n      dup2\n      mstore\n      0x04\n      add\n      tag_194\n      swap1\n      tag_195\n      jump\t// in\n    tag_194:\n      mload(0x40)\n      dup1\n      swap2\n      sub\n      swap1\n      revert\n    tag_193:\n        /* \"contracts/marketplace/Marketplace.sol\":5120:5127  _amount */\n      dup6\n        /* \"contracts/marketplace/Marketplace.sol\":5105:5109  sale */\n      dup5\n        /* \"contracts/marketplace/Marketplace.sol\":5105:5116  sale.amount */\n      0x02\n      add\n      0x00\n        /* \"contracts/marketplace/Marketplace.sol\":5105:5127  sale.amount -= _amount */\n      dup3\n      dup3\n      sload\n      tag_196\n      swap2\n      swap1\n      tag_197\n      jump\t// in\n    tag_196:\n      swap3\n      pop\n      pop\n      dup2\n      swap1\n      sstore\n      pop\n        /* \"contracts/marketplace/Marketplace.sol\":5157:5158  0 */\n      0x00\n        /* \"contracts/marketplace/Marketplace.sol\":5142:5146  sale */\n      dup5\n        /* \"contracts/marketplace/Marketplace.sol\":5142:5153  sale.amount */\n      0x02\n      add\n      sload\n        /* \"contracts/marketplace/Marketplace.sol\":5142:5158  sale.amount == 0 */\n      eq\n        /* \"contracts/marketplace/Marketplace.sol\":5138:5194  if (sale.amount == 0)\r... */\n      iszero\n      tag_198\n      jumpi\n        /* \"contracts/marketplace/Marketplace.sol\":5189:5194  false */\n      0x00\n        /* \"contracts/marketplace/Marketplace.sol\":5173:5177  sale */\n      dup5\n        /* \"contracts/marketplace/Marketplace.sol\":5173:5186  sale.isActive */\n      0x00\n      add\n      0x00\n        /* \"contracts/marketplace/Marketplace.sol\":5173:5194  sale.isActive = false */\n      0x0100\n      exp\n      dup2\n      sload\n      dup2\n      0xff\n      mul\n      not\n      and\n      swap1\n      dup4\n      iszero\n      iszero\n      mul\n      or\n      swap1\n      sstore\n      pop\n        /* \"contracts/marketplace/Marketplace.sol\":5138:5194  if (sale.amount == 0)\r... */\n    tag_198:\n        /* \"contracts/marketplace/Marketplace.sol\":5207:5263  IERC20(UITToken).safeTransferFrom(buyer, _seller, price) */\n      tag_199\n        /* \"contracts/marketplace/Marketplace.sol\":5241:5246  buyer */\n      dup4\n        /* \"contracts/marketplace/Marketplace.sol\":5248:5255  _seller */\n      dup9\n        /* \"contracts/marketplace/Marketplace.sol\":5257:5262  price */\n      dup4\n        /* \"contracts/marketplace/Marketplace.sol\":5214:5222  UITToken */\n      immutable(\"0x1b4842a19c661b7382881ce30aa723dedf4fd830b4353e3140588333c90c8c04\")\n        /* \"contracts/marketplace/Marketplace.sol\":5207:5240  IERC20(UITToken).safeTransferFrom */\n      0xffffffffffffffffffffffffffffffffffffffff\n      and\n      tag_200\n      swap1\n        /* \"contracts/marketplace/Marketplace.sol\":5207:5263  IERC20(UITToken).safeTransferFrom(buyer, _seller, price) */\n      swap4\n      swap3\n      swap2\n      swap1\n      0xffffffff\n      and\n      jump\t// in\n    tag_199:\n        /* \"contracts/marketplace/Marketplace.sol\":5345:5358  accessControl */\n      0x02\n      0x00\n      swap1\n      sload\n      swap1\n      0x0100\n      exp\n      swap1\n      div\n      0xffffffffffffffffffffffffffffffffffffffff\n      and\n        /* \"contracts/marketplace/Marketplace.sol\":5330:5367  IAccessControl(accessControl).hasRole */\n      0xffffffffffffffffffffffffffffffffffffffff\n      and\n      0x91d14854\n        /* \"contracts/marketplace/Marketplace.sol\":1117:1135  keccak256(\"ADMIN\") */\n      0xdf8b4c520ffe197c5343c6f5aec59570151ef9a492f2c624fd45ddde6135ec42\n        /* \"contracts/marketplace/Marketplace.sol\":5380:5387  _seller */\n      dup10\n        /* \"contracts/marketplace/Marketplace.sol\":5330:5388  IAccessControl(accessControl).hasRole(ADMIN_ROLE, _seller) */\n      mload(0x40)\n      dup4\n      0xffffffff\n      and\n      0xe0\n      shl\n      dup2\n      mstore\n      0x04\n      add\n      tag_201\n      swap3\n      swap2\n      swap1\n      tag_202\n      jump\t// in\n    tag_201:\n      0x20\n      mload(0x40)\n      dup1\n      dup4\n      sub\n      dup2\n      dup7\n      dup1\n      extcodesize\n      iszero\n      dup1\n      iszero\n      tag_203\n      jumpi\n      0x00\n      dup1\n      revert\n    tag_203:\n      pop\n      gas\n      staticcall\n      iszero\n      dup1\n      iszero\n      tag_205\n      jumpi\n      returndatasize\n      0x00\n      dup1\n      returndatacopy\n      revert(0x00, returndatasize)\n    tag_205:\n      pop\n      pop\n      pop\n      pop\n      mload(0x40)\n      returndatasize\n      not(0x1f)\n      0x1f\n      dup3\n      add\n      and\n      dup3\n      add\n      dup1\n      0x40\n      mstore\n      pop\n      dup2\n      add\n      swap1\n      tag_206\n      swap2\n      swap1\n      tag_207\n      jump\t// in\n    tag_206:\n        /* \"contracts/marketplace/Marketplace.sol\":5326:5568  if (IAccessControl(accessControl).hasRole(ADMIN_ROLE, _seller))\r... */\n      iszero\n      tag_208\n      jumpi\n        /* \"contracts/marketplace/Marketplace.sol\":5416:5422  UITNFT */\n      immutable(\"0x3d550a598553b485ade63df00865310ea36cbff0dc487035a9b4be52b149fadb\")\n        /* \"contracts/marketplace/Marketplace.sol\":5403:5428  IUITNFTToken(UITNFT).mint */\n      0xffffffffffffffffffffffffffffffffffffffff\n      and\n      0x836a1040\n        /* \"contracts/marketplace/Marketplace.sol\":5429:5436  _itemId */\n      dup10\n        /* \"contracts/marketplace/Marketplace.sol\":5438:5443  buyer */\n      dup6\n        /* \"contracts/marketplace/Marketplace.sol\":5445:5452  _amount */\n      dup10\n        /* \"contracts/marketplace/Marketplace.sol\":5403:5453  IUITNFTToken(UITNFT).mint(_itemId, buyer, _amount) */\n      mload(0x40)\n      dup5\n      0xffffffff\n      and\n      0xe0\n      shl\n      dup2\n      mstore\n      0x04\n      add\n      tag_209\n      swap4\n      swap3\n      swap2\n      swap1\n      tag_210\n      jump\t// in\n    tag_209:\n      0x00\n      mload(0x40)\n      dup1\n      dup4\n      sub\n      dup2\n      0x00\n      dup8\n      dup1\n      extcodesize\n      iszero\n      dup1\n      iszero\n      tag_211\n      jumpi\n      0x00\n      dup1\n      revert\n    tag_211:\n      pop\n      gas\n      call\n      iszero\n      dup1\n      iszero\n      tag_213\n      jumpi\n      returndatasize\n      0x00\n      dup1\n      returndatacopy\n      revert(0x00, returndatasize)\n    tag_213:\n      pop\n      pop\n      pop\n      pop\n        /* \"contracts/marketplace/Marketplace.sol\":5326:5568  if (IAccessControl(accessControl).hasRole(ADMIN_ROLE, _seller))\r... */\n      jump(tag_214)\n    tag_208:\n        /* \"contracts/marketplace/Marketplace.sol\":5492:5498  UITNFT */\n      immutable(\"0x3d550a598553b485ade63df00865310ea36cbff0dc487035a9b4be52b149fadb\")\n        /* \"contracts/marketplace/Marketplace.sol\":5483:5516  IERC1155(UITNFT).safeTransferFrom */\n      0xffffffffffffffffffffffffffffffffffffffff\n      and\n      0xf242432a\n        /* \"contracts/marketplace/Marketplace.sol\":5525:5529  this */\n      address\n        /* \"contracts/marketplace/Marketplace.sol\":5532:5537  buyer */\n      dup6\n        /* \"contracts/marketplace/Marketplace.sol\":5539:5543  sale */\n      dup8\n        /* \"contracts/marketplace/Marketplace.sol\":5539:5550  sale.itemId */\n      0x01\n      add\n      sload\n        /* \"contracts/marketplace/Marketplace.sol\":5552:5556  sale */\n      dup9\n        /* \"contracts/marketplace/Marketplace.sol\":5552:5563  sale.amount */\n      0x02\n      add\n      sload\n        /* \"contracts/marketplace/Marketplace.sol\":5483:5568  IERC1155(UITNFT).safeTransferFrom(address(this), buyer, sale.itemId, sale.amount, \"\") */\n      mload(0x40)\n      dup6\n      0xffffffff\n      and\n      0xe0\n      shl\n      dup2\n      mstore\n      0x04\n      add\n      tag_215\n      swap5\n      swap4\n      swap3\n      swap2\n      swap1\n      tag_143\n      jump\t// in\n    tag_215:\n      0x00\n      mload(0x40)\n      dup1\n      dup4\n      sub\n      dup2\n      0x00\n      dup8\n      dup1\n      extcodesize\n      iszero\n      dup1\n      iszero\n      tag_216\n      jumpi\n      0x00\n      dup1\n      revert\n    tag_216:\n      pop\n      gas\n      call\n      iszero\n      dup1\n      iszero\n      tag_218\n      jumpi\n      returndatasize\n      0x00\n      dup1\n      returndatacopy\n      revert(0x00, returndatasize)\n    tag_218:\n      pop\n      pop\n      pop\n      pop\n        /* \"contracts/marketplace/Marketplace.sol\":5326:5568  if (IAccessControl(accessControl).hasRole(ADMIN_ROLE, _seller))\r... */\n    tag_214:\n        /* \"contracts/marketplace/Marketplace.sol\":5605:5612  _itemId */\n      dup8\n        /* \"contracts/marketplace/Marketplace.sol\":5594:5645  ItemBought(_itemId, buyer, _seller, _amount, price) */\n      0x9c45908c2d32f0072963511b0e7c3059b0202498a9fdc83032dd440850d0c863\n        /* \"contracts/marketplace/Marketplace.sol\":5614:5619  buyer */\n      dup5\n        /* \"contracts/marketplace/Marketplace.sol\":5621:5628  _seller */\n      dup10\n        /* \"contracts/marketplace/Marketplace.sol\":5630:5637  _amount */\n      dup10\n        /* \"contracts/marketplace/Marketplace.sol\":5639:5644  price */\n      dup6\n        /* \"contracts/marketplace/Marketplace.sol\":5594:5645  ItemBought(_itemId, buyer, _seller, _amount, price) */\n      mload(0x40)\n      tag_219\n      swap5\n      swap4\n      swap3\n      swap2\n      swap1\n      tag_220\n      jump\t// in\n    tag_219:\n      mload(0x40)\n      dup1\n      swap2\n      sub\n      swap1\n      log2\n        /* \"contracts/marketplace/Marketplace.sol\":4574:5653  {\r... */\n      pop\n      pop\n      pop\n      pop\n        /* \"@openzeppelin/contracts/security/ReentrancyGuard.sol\":1701:1702  1 */\n      0x01\n        /* \"@openzeppelin/contracts/security/ReentrancyGuard.sol\":2628:2635  _status */\n      dup1\n        /* \"@openzeppelin/contracts/security/ReentrancyGuard.sol\":2628:2650  _status = _NOT_ENTERED */\n      dup2\n      swap1\n      sstore\n      pop\n        /* \"contracts/marketplace/Marketplace.sol\":4448:5653  function buy(uint _itemId, address _seller, uint _amount, uint _oneItemBuyPrice) external override whenNotPaused nonReentrant {\r... */\n      pop\n      pop\n      pop\n      pop\n      jump\t// out\n        /* \"@openzeppelin/contracts/access/Ownable.sol\":1668:1769  function renounceOwnership() public virtual onlyOwner {... */\n    tag_64:\n        /* \"@openzeppelin/contracts/access/Ownable.sol\":1259:1271  _msgSender() */\n      tag_222\n        /* \"@openzeppelin/contracts/access/Ownable.sol\":1259:1269  _msgSender */\n      tag_107\n        /* \"@openzeppelin/contracts/access/Ownable.sol\":1259:1271  _msgSender() */\n      jump\t// in\n    tag_222:\n        /* \"@openzeppelin/contracts/access/Ownable.sol\":1248:1271  owner() == _msgSender() */\n      0xffffffffffffffffffffffffffffffffffffffff\n      and\n        /* \"@openzeppelin/contracts/access/Ownable.sol\":1248:1255  owner() */\n      tag_223\n        /* \"@openzeppelin/contracts/access/Ownable.sol\":1248:1253  owner */\n      tag_72\n        /* \"@openzeppelin/contracts/access/Ownable.sol\":1248:1255  owner() */\n      jump\t// in\n    tag_223:\n        /* \"@openzeppelin/contracts/access/Ownable.sol\":1248:1271  owner() == _msgSender() */\n      0xffffffffffffffffffffffffffffffffffffffff\n      and\n      eq\n        /* \"@openzeppelin/contracts/access/Ownable.sol\":1240:1308  require(owner() == _msgSender(), \"Ownable: caller is not the owner\") */\n      tag_224\n      jumpi\n      mload(0x40)\n      0x08c379a000000000000000000000000000000000000000000000000000000000\n      dup2\n      mstore\n      0x04\n      add\n      tag_225\n      swap1\n      tag_111\n      jump\t// in\n    tag_225:\n      mload(0x40)\n      dup1\n      swap2\n      sub\n      swap1\n      revert\n    tag_224:\n        /* \"@openzeppelin/contracts/access/Ownable.sol\":1732:1762  _transferOwnership(address(0)) */\n      tag_227\n        /* \"@openzeppelin/contracts/access/Ownable.sol\":1759:1760  0 */\n      0x00\n        /* \"@openzeppelin/contracts/access/Ownable.sol\":1732:1750  _transferOwnership */\n      tag_228\n        /* \"@openzeppelin/contracts/access/Ownable.sol\":1732:1762  _transferOwnership(address(0)) */\n      jump\t// in\n    tag_227:\n        /* \"@openzeppelin/contracts/access/Ownable.sol\":1668:1769  function renounceOwnership() public virtual onlyOwner {... */\n      jump\t// out\n        /* \"contracts/marketplace/Marketplace.sol\":3779:4164  function updatePrice(uint _itemId, uint _oneItemPrice) external override whenNotPaused nonReentrant {\r... */\n    tag_68:\n        /* \"@openzeppelin/contracts/security/Pausable.sol\":1412:1420  paused() */\n      tag_230\n        /* \"@openzeppelin/contracts/security/Pausable.sol\":1412:1418  paused */\n      tag_57\n        /* \"@openzeppelin/contracts/security/Pausable.sol\":1412:1420  paused() */\n      jump\t// in\n    tag_230:\n        /* \"@openzeppelin/contracts/security/Pausable.sol\":1411:1420  !paused() */\n      iszero\n        /* \"@openzeppelin/contracts/security/Pausable.sol\":1403:1441  require(!paused(), \"Pausable: paused\") */\n      tag_231\n      jumpi\n      mload(0x40)\n      0x08c379a000000000000000000000000000000000000000000000000000000000\n      dup2\n      mstore\n      0x04\n      add\n      tag_232\n      swap1\n      tag_117\n      jump\t// in\n    tag_232:\n      mload(0x40)\n      dup1\n      swap2\n      sub\n      swap1\n      revert\n    tag_231:\n        /* \"@openzeppelin/contracts/security/ReentrancyGuard.sol\":1744:1745  2 */\n      0x02\n        /* \"@openzeppelin/contracts/security/ReentrancyGuard.sol\":2325:2332  _status */\n      sload(0x01)\n        /* \"@openzeppelin/contracts/security/ReentrancyGuard.sol\":2325:2344  _status != _ENTERED */\n      eq\n      iszero\n        /* \"@openzeppelin/contracts/security/ReentrancyGuard.sol\":2317:2380  require(_status != _ENTERED, \"ReentrancyGuard: reentrant call\") */\n      tag_234\n      jumpi\n      mload(0x40)\n      0x08c379a000000000000000000000000000000000000000000000000000000000\n      dup2\n      mstore\n      0x04\n      add\n      tag_235\n      swap1\n      tag_121\n      jump\t// in\n    tag_235:\n      mload(0x40)\n      dup1\n      swap2\n      sub\n      swap1\n      revert\n    tag_234:\n        /* \"@openzeppelin/contracts/security/ReentrancyGuard.sol\":1744:1745  2 */\n      0x02\n        /* \"@openzeppelin/contracts/security/ReentrancyGuard.sol\":2455:2462  _status */\n      0x01\n        /* \"@openzeppelin/contracts/security/ReentrancyGuard.sol\":2455:2473  _status = _ENTERED */\n      dup2\n      swap1\n      sstore\n      pop\n        /* \"contracts/marketplace/Marketplace.sol\":3890:3904  address seller */\n      0x00\n        /* \"contracts/marketplace/Marketplace.sol\":3907:3917  msg.sender */\n      caller\n        /* \"contracts/marketplace/Marketplace.sol\":3890:3917  address seller = msg.sender */\n      swap1\n      pop\n        /* \"contracts/marketplace/Marketplace.sol\":3928:3949  SaleInfo storage sale */\n      0x00\n        /* \"contracts/marketplace/Marketplace.sol\":3952:3964  itemsForSale */\n      0x03\n        /* \"contracts/marketplace/Marketplace.sol\":3952:3973  itemsForSale[_itemId] */\n      0x00\n        /* \"contracts/marketplace/Marketplace.sol\":3965:3972  _itemId */\n      dup6\n        /* \"contracts/marketplace/Marketplace.sol\":3952:3973  itemsForSale[_itemId] */\n      dup2\n      mstore\n      0x20\n      add\n      swap1\n      dup2\n      mstore\n      0x20\n      add\n      0x00\n      keccak256\n        /* \"contracts/marketplace/Marketplace.sol\":3952:3981  itemsForSale[_itemId][seller] */\n      0x00\n        /* \"contracts/marketplace/Marketplace.sol\":3974:3980  seller */\n      dup4\n        /* \"contracts/marketplace/Marketplace.sol\":3952:3981  itemsForSale[_itemId][seller] */\n      0xffffffffffffffffffffffffffffffffffffffff\n      and\n      0xffffffffffffffffffffffffffffffffffffffff\n      and\n      dup2\n      mstore\n      0x20\n      add\n      swap1\n      dup2\n      mstore\n      0x20\n      add\n      0x00\n      keccak256\n        /* \"contracts/marketplace/Marketplace.sol\":3928:3981  SaleInfo storage sale = itemsForSale[_itemId][seller] */\n      swap1\n      pop\n        /* \"contracts/marketplace/Marketplace.sol\":4016:4017  0 */\n      0x00\n        /* \"contracts/marketplace/Marketplace.sol\":4000:4013  _oneItemPrice */\n      dup4\n        /* \"contracts/marketplace/Marketplace.sol\":4000:4017  _oneItemPrice > 0 */\n      gt\n        /* \"contracts/marketplace/Marketplace.sol\":3992:4048  require(_oneItemPrice > 0, \"Marketplace: price is zero\") */\n      tag_237\n      jumpi\n      mload(0x40)\n      0x08c379a000000000000000000000000000000000000000000000000000000000\n      dup2\n      mstore\n      0x04\n      add\n      tag_238\n      swap1\n      tag_125\n      jump\t// in\n    tag_238:\n      mload(0x40)\n      dup1\n      swap2\n      sub\n      swap1\n      revert\n    tag_237:\n        /* \"contracts/marketplace/Marketplace.sol\":4081:4094  _oneItemPrice */\n      dup3\n        /* \"contracts/marketplace/Marketplace.sol\":4061:4065  sale */\n      dup2\n        /* \"contracts/marketplace/Marketplace.sol\":4061:4078  sale.oneItemPrice */\n      0x04\n      add\n        /* \"contracts/marketplace/Marketplace.sol\":4061:4094  sale.oneItemPrice = _oneItemPrice */\n      dup2\n      swap1\n      sstore\n      pop\n        /* \"contracts/marketplace/Marketplace.sol\":4125:4132  _itemId */\n      dup4\n        /* \"contracts/marketplace/Marketplace.sol\":4112:4156  PriceUpdated(_itemId, _oneItemPrice, seller) */\n      0x378b09391f49d01e482ba75312341912ad0652cb8aa8799b6b33b624bd65d9f2\n        /* \"contracts/marketplace/Marketplace.sol\":4134:4147  _oneItemPrice */\n      dup5\n        /* \"contracts/marketplace/Marketplace.sol\":4149:4155  seller */\n      dup5\n        /* \"contracts/marketplace/Marketplace.sol\":4112:4156  PriceUpdated(_itemId, _oneItemPrice, seller) */\n      mload(0x40)\n      tag_239\n      swap3\n      swap2\n      swap1\n      tag_173\n      jump\t// in\n    tag_239:\n      mload(0x40)\n      dup1\n      swap2\n      sub\n      swap1\n      log2\n        /* \"contracts/marketplace/Marketplace.sol\":3879:4164  {\r... */\n      pop\n      pop\n        /* \"@openzeppelin/contracts/security/ReentrancyGuard.sol\":1701:1702  1 */\n      0x01\n        /* \"@openzeppelin/contracts/security/ReentrancyGuard.sol\":2628:2635  _status */\n      dup1\n        /* \"@openzeppelin/contracts/security/ReentrancyGuard.sol\":2628:2650  _status = _NOT_ENTERED */\n      dup2\n      swap1\n      sstore\n      pop\n        /* \"contracts/marketplace/Marketplace.sol\":3779:4164  function updatePrice(uint _itemId, uint _oneItemPrice) external override whenNotPaused nonReentrant {\r... */\n      pop\n      pop\n      jump\t// out\n        /* \"contracts/marketplace/Marketplace.sol\":7544:7607  function pause() external onlyOwner {\r... */\n    tag_70:\n        /* \"@openzeppelin/contracts/access/Ownable.sol\":1259:1271  _msgSender() */\n      tag_241\n        /* \"@openzeppelin/contracts/access/Ownable.sol\":1259:1269  _msgSender */\n      tag_107\n        /* \"@openzeppelin/contracts/access/Ownable.sol\":1259:1271  _msgSender() */\n      jump\t// in\n    tag_241:\n        /* \"@openzeppelin/contracts/access/Ownable.sol\":1248:1271  owner() == _msgSender() */\n      0xffffffffffffffffffffffffffffffffffffffff\n      and\n        /* \"@openzeppelin/contracts/access/Ownable.sol\":1248:1255  owner() */\n      tag_242\n        /* \"@openzeppelin/contracts/access/Ownable.sol\":1248:1253  owner */\n      tag_72\n        /* \"@openzeppelin/contracts/access/Ownable.sol\":1248:1255  owner() */\n      jump\t// in\n    tag_242:\n        /* \"@openzeppelin/contracts/access/Ownable.sol\":1248:1271  owner() == _msgSender() */\n      0xffffffffffffffffffffffffffffffffffffffff\n      and\n      eq\n        /* \"@openzeppelin/contracts/access/Ownable.sol\":1240:1308  require(owner() == _msgSender(), \"Ownable: caller is not the owner\") */\n      tag_243\n      jumpi\n      mload(0x40)\n      0x08c379a000000000000000000000000000000000000000000000000000000000\n      dup2\n      mstore\n      0x04\n      add\n      tag_244\n      swap1\n      tag_111\n      jump\t// in\n    tag_244:\n      mload(0x40)\n      dup1\n      swap2\n      sub\n      swap1\n      revert\n    tag_243:\n        /* \"contracts/marketplace/Marketplace.sol\":7591:7599  _pause() */\n      tag_246\n        /* \"contracts/marketplace/Marketplace.sol\":7591:7597  _pause */\n      tag_247\n        /* \"contracts/marketplace/Marketplace.sol\":7591:7599  _pause() */\n      jump\t// in\n    tag_246:\n        /* \"contracts/marketplace/Marketplace.sol\":7544:7607  function pause() external onlyOwner {\r... */\n      jump\t// out\n        /* \"@openzeppelin/contracts/access/Ownable.sol\":1036:1121  function owner() public view virtual returns (address) {... */\n    tag_72:\n        /* \"@openzeppelin/contracts/access/Ownable.sol\":1082:1089  address */\n      0x00\n        /* \"@openzeppelin/contracts/access/Ownable.sol\":1108:1114  _owner */\n      dup1\n      0x01\n      swap1\n      sload\n      swap1\n      0x0100\n      exp\n      swap1\n      div\n      0xffffffffffffffffffffffffffffffffffffffff\n      and\n        /* \"@openzeppelin/contracts/access/Ownable.sol\":1101:1114  return _owner */\n      swap1\n      pop\n        /* \"@openzeppelin/contracts/access/Ownable.sol\":1036:1121  function owner() public view virtual returns (address) {... */\n      swap1\n      jump\t// out\n        /* \"contracts/marketplace/Marketplace.sol\":1144:1209  mapping(uint => mapping(address => SaleInfo)) public itemsForSale */\n    tag_77:\n      mstore(0x20, 0x03)\n      dup2\n      0x00\n      mstore\n      mstore(0x20, keccak256(0x00, 0x40))\n      dup1\n      0x00\n      mstore\n      keccak256(0x00, 0x40)\n      0x00\n      swap2\n      pop\n      swap2\n      pop\n      pop\n      dup1\n      0x00\n      add\n      0x00\n      swap1\n      sload\n      swap1\n      0x0100\n      exp\n      swap1\n      div\n      0xff\n      and\n      swap1\n      dup1\n      0x01\n      add\n      sload\n      swap1\n      dup1\n      0x02\n      add\n      sload\n      swap1\n      dup1\n      0x03\n      add\n      sload\n      swap1\n      dup1\n      0x04\n      add\n      sload\n      swap1\n      pop\n      dup6\n      jump\t// out\n        /* \"@openzeppelin/contracts/token/ERC1155/utils/ERC1155Holder.sol\":724:971  function onERC1155BatchReceived(... */\n    tag_83:\n        /* \"@openzeppelin/contracts/token/ERC1155/utils/ERC1155Holder.sol\":903:909  bytes4 */\n      0x00\n        /* \"@openzeppelin/contracts/token/ERC1155/utils/ERC1155Holder.sol\":928:964  this.onERC1155BatchReceived.selector */\n      shl(0xe0, 0xbc197c81)\n        /* \"@openzeppelin/contracts/token/ERC1155/utils/ERC1155Holder.sol\":921:964  return this.onERC1155BatchReceived.selector */\n      swap1\n      pop\n        /* \"@openzeppelin/contracts/token/ERC1155/utils/ERC1155Holder.sol\":724:971  function onERC1155BatchReceived(... */\n      swap6\n      swap5\n      pop\n      pop\n      pop\n      pop\n      pop\n      jump\t// out\n        /* \"contracts/marketplace/Marketplace.sol\":6876:7359  function updateAmountNFT(uint _itemId, uint _amount) external override onlyAdmin whenNotPaused nonReentrant {\r... */\n    tag_88:\n        /* \"contracts/marketplace/Marketplace.sol\":1774:1787  accessControl */\n      0x02\n      0x00\n      swap1\n      sload\n      swap1\n      0x0100\n      exp\n      swap1\n      div\n      0xffffffffffffffffffffffffffffffffffffffff\n      and\n        /* \"contracts/marketplace/Marketplace.sol\":1759:1796  IAccessControl(accessControl).hasRole */\n      0xffffffffffffffffffffffffffffffffffffffff\n      and\n      0x91d14854\n        /* \"contracts/marketplace/Marketplace.sol\":1117:1135  keccak256(\"ADMIN\") */\n      0xdf8b4c520ffe197c5343c6f5aec59570151ef9a492f2c624fd45ddde6135ec42\n        /* \"contracts/marketplace/Marketplace.sol\":1809:1819  msg.sender */\n      caller\n        /* \"contracts/marketplace/Marketplace.sol\":1759:1820  IAccessControl(accessControl).hasRole(ADMIN_ROLE, msg.sender) */\n      mload(0x40)\n      dup4\n      0xffffffff\n      and\n      0xe0\n      shl\n      dup2\n      mstore\n      0x04\n      add\n      tag_251\n      swap3\n      swap2\n      swap1\n      tag_202\n      jump\t// in\n    tag_251:\n      0x20\n      mload(0x40)\n      dup1\n      dup4\n      sub\n      dup2\n      dup7\n      dup1\n      extcodesize\n      iszero\n      dup1\n      iszero\n      tag_252\n      jumpi\n      0x00\n      dup1\n      revert\n    tag_252:\n      pop\n      gas\n      staticcall\n      iszero\n      dup1\n      iszero\n      tag_254\n      jumpi\n      returndatasize\n      0x00\n      dup1\n      returndatacopy\n      revert(0x00, returndatasize)\n    tag_254:\n      pop\n      pop\n      pop\n      pop\n      mload(0x40)\n      returndatasize\n      not(0x1f)\n      0x1f\n      dup3\n      add\n      and\n      dup3\n      add\n      dup1\n      0x40\n      mstore\n      pop\n      dup2\n      add\n      swap1\n      tag_255\n      swap2\n      swap1\n      tag_207\n      jump\t// in\n    tag_255:\n        /* \"contracts/marketplace/Marketplace.sol\":1751:1871  require(IAccessControl(accessControl).hasRole(ADMIN_ROLE, msg.sender), \"Marketplace: Only admin can call this function\") */\n      tag_256\n      jumpi\n      mload(0x40)\n      0x08c379a000000000000000000000000000000000000000000000000000000000\n      dup2\n      mstore\n      0x04\n      add\n      tag_257\n      swap1\n      tag_258\n      jump\t// in\n    tag_257:\n      mload(0x40)\n      dup1\n      swap2\n      sub\n      swap1\n      revert\n    tag_256:\n        /* \"@openzeppelin/contracts/security/Pausable.sol\":1412:1420  paused() */\n      tag_260\n        /* \"@openzeppelin/contracts/security/Pausable.sol\":1412:1418  paused */\n      tag_57\n        /* \"@openzeppelin/contracts/security/Pausable.sol\":1412:1420  paused() */\n      jump\t// in\n    tag_260:\n        /* \"@openzeppelin/contracts/security/Pausable.sol\":1411:1420  !paused() */\n      iszero\n        /* \"@openzeppelin/contracts/security/Pausable.sol\":1403:1441  require(!paused(), \"Pausable: paused\") */\n      tag_261\n      jumpi\n      mload(0x40)\n      0x08c379a000000000000000000000000000000000000000000000000000000000\n      dup2\n      mstore\n      0x04\n      add\n      tag_262\n      swap1\n      tag_117\n      jump\t// in\n    tag_262:\n      mload(0x40)\n      dup1\n      swap2\n      sub\n      swap1\n      revert\n    tag_261:\n        /* \"@openzeppelin/contracts/security/ReentrancyGuard.sol\":1744:1745  2 */\n      0x02\n        /* \"@openzeppelin/contracts/security/ReentrancyGuard.sol\":2325:2332  _status */\n      sload(0x01)\n        /* \"@openzeppelin/contracts/security/ReentrancyGuard.sol\":2325:2344  _status != _ENTERED */\n      eq\n      iszero\n        /* \"@openzeppelin/contracts/security/ReentrancyGuard.sol\":2317:2380  require(_status != _ENTERED, \"ReentrancyGuard: reentrant call\") */\n      tag_264\n      jumpi\n      mload(0x40)\n      0x08c379a000000000000000000000000000000000000000000000000000000000\n      dup2\n      mstore\n      0x04\n      add\n      tag_265\n      swap1\n      tag_121\n      jump\t// in\n    tag_265:\n      mload(0x40)\n      dup1\n      swap2\n      sub\n      swap1\n      revert\n    tag_264:\n        /* \"@openzeppelin/contracts/security/ReentrancyGuard.sol\":1744:1745  2 */\n      0x02\n        /* \"@openzeppelin/contracts/security/ReentrancyGuard.sol\":2455:2462  _status */\n      0x01\n        /* \"@openzeppelin/contracts/security/ReentrancyGuard.sol\":2455:2473  _status = _ENTERED */\n      dup2\n      swap1\n      sstore\n      pop\n        /* \"contracts/marketplace/Marketplace.sol\":6995:7016  SaleInfo storage sale */\n      0x00\n        /* \"contracts/marketplace/Marketplace.sol\":7019:7031  itemsForSale */\n      0x03\n        /* \"contracts/marketplace/Marketplace.sol\":7019:7040  itemsForSale[_itemId] */\n      0x00\n        /* \"contracts/marketplace/Marketplace.sol\":7032:7039  _itemId */\n      dup5\n        /* \"contracts/marketplace/Marketplace.sol\":7019:7040  itemsForSale[_itemId] */\n      dup2\n      mstore\n      0x20\n      add\n      swap1\n      dup2\n      mstore\n      0x20\n      add\n      0x00\n      keccak256\n        /* \"contracts/marketplace/Marketplace.sol\":7019:7052  itemsForSale[_itemId][msg.sender] */\n      0x00\n        /* \"contracts/marketplace/Marketplace.sol\":7041:7051  msg.sender */\n      caller\n        /* \"contracts/marketplace/Marketplace.sol\":7019:7052  itemsForSale[_itemId][msg.sender] */\n      0xffffffffffffffffffffffffffffffffffffffff\n      and\n      0xffffffffffffffffffffffffffffffffffffffff\n      and\n      dup2\n      mstore\n      0x20\n      add\n      swap1\n      dup2\n      mstore\n      0x20\n      add\n      0x00\n      keccak256\n        /* \"contracts/marketplace/Marketplace.sol\":6995:7052  SaleInfo storage sale = itemsForSale[_itemId][msg.sender] */\n      swap1\n      pop\n        /* \"contracts/marketplace/Marketplace.sol\":7063:7074  bool isSale */\n      0x00\n        /* \"contracts/marketplace/Marketplace.sol\":7077:7081  sale */\n      dup2\n        /* \"contracts/marketplace/Marketplace.sol\":7077:7090  sale.isActive */\n      0x00\n      add\n      0x00\n      swap1\n      sload\n      swap1\n      0x0100\n      exp\n      swap1\n      div\n      0xff\n      and\n        /* \"contracts/marketplace/Marketplace.sol\":7063:7090  bool isSale = sale.isActive */\n      swap1\n      pop\n        /* \"contracts/marketplace/Marketplace.sol\":7118:7119  0 */\n      0x00\n        /* \"contracts/marketplace/Marketplace.sol\":7107:7114  _amount */\n      dup4\n        /* \"contracts/marketplace/Marketplace.sol\":7107:7119  _amount == 0 */\n      eq\n        /* \"contracts/marketplace/Marketplace.sol\":7107:7129  _amount == 0 && isSale */\n      dup1\n      iszero\n      tag_267\n      jumpi\n      pop\n        /* \"contracts/marketplace/Marketplace.sol\":7123:7129  isSale */\n      dup1\n        /* \"contracts/marketplace/Marketplace.sol\":7107:7129  _amount == 0 && isSale */\n    tag_267:\n        /* \"contracts/marketplace/Marketplace.sol\":7103:7247  if (_amount == 0 && isSale)\r... */\n      iszero\n      tag_268\n      jumpi\n        /* \"contracts/marketplace/Marketplace.sol\":7160:7165  false */\n      0x00\n        /* \"contracts/marketplace/Marketplace.sol\":7144:7148  sale */\n      dup3\n        /* \"contracts/marketplace/Marketplace.sol\":7144:7157  sale.isActive */\n      0x00\n      add\n      0x00\n        /* \"contracts/marketplace/Marketplace.sol\":7144:7165  sale.isActive = false */\n      0x0100\n      exp\n      dup2\n      sload\n      dup2\n      0xff\n      mul\n      not\n      and\n      swap1\n      dup4\n      iszero\n      iszero\n      mul\n      or\n      swap1\n      sstore\n      pop\n        /* \"contracts/marketplace/Marketplace.sol\":7103:7247  if (_amount == 0 && isSale)\r... */\n      jump(tag_269)\n    tag_268:\n        /* \"contracts/marketplace/Marketplace.sol\":7200:7201  0 */\n      0x00\n        /* \"contracts/marketplace/Marketplace.sol\":7185:7189  sale */\n      dup3\n        /* \"contracts/marketplace/Marketplace.sol\":7185:7196  sale.amount */\n      0x02\n      add\n      sload\n        /* \"contracts/marketplace/Marketplace.sol\":7185:7201  sale.amount == 0 */\n      eq\n        /* \"contracts/marketplace/Marketplace.sol\":7185:7212  sale.amount == 0 && !isSale */\n      dup1\n      iszero\n      tag_270\n      jumpi\n      pop\n        /* \"contracts/marketplace/Marketplace.sol\":7206:7212  isSale */\n      dup1\n        /* \"contracts/marketplace/Marketplace.sol\":7205:7212  !isSale */\n      iszero\n        /* \"contracts/marketplace/Marketplace.sol\":7185:7212  sale.amount == 0 && !isSale */\n    tag_270:\n        /* \"contracts/marketplace/Marketplace.sol\":7181:7247  if (sale.amount == 0 && !isSale)\r... */\n      iszero\n      tag_271\n      jumpi\n        /* \"contracts/marketplace/Marketplace.sol\":7243:7247  true */\n      0x01\n        /* \"contracts/marketplace/Marketplace.sol\":7227:7231  sale */\n      dup3\n        /* \"contracts/marketplace/Marketplace.sol\":7227:7240  sale.isActive */\n      0x00\n      add\n      0x00\n        /* \"contracts/marketplace/Marketplace.sol\":7227:7247  sale.isActive = true */\n      0x0100\n      exp\n      dup2\n      sload\n      dup2\n      0xff\n      mul\n      not\n      and\n      swap1\n      dup4\n      iszero\n      iszero\n      mul\n      or\n      swap1\n      sstore\n      pop\n        /* \"contracts/marketplace/Marketplace.sol\":7181:7247  if (sale.amount == 0 && !isSale)\r... */\n    tag_271:\n        /* \"contracts/marketplace/Marketplace.sol\":7103:7247  if (_amount == 0 && isSale)\r... */\n    tag_269:\n        /* \"contracts/marketplace/Marketplace.sol\":7274:7281  _amount */\n      dup3\n        /* \"contracts/marketplace/Marketplace.sol\":7260:7264  sale */\n      dup3\n        /* \"contracts/marketplace/Marketplace.sol\":7260:7271  sale.amount */\n      0x02\n      add\n        /* \"contracts/marketplace/Marketplace.sol\":7260:7281  sale.amount = _amount */\n      dup2\n      swap1\n      sstore\n      pop\n        /* \"contracts/marketplace/Marketplace.sol\":7322:7329  _itemId */\n      dup4\n        /* \"contracts/marketplace/Marketplace.sol\":7299:7351  AdminItemAmountUpdated(_itemId, _amount, msg.sender) */\n      0x4bfa799bd52e5cd465e582b11fbad754d789f4fa526df2209ec026d2da586661\n        /* \"contracts/marketplace/Marketplace.sol\":7331:7338  _amount */\n      dup5\n        /* \"contracts/marketplace/Marketplace.sol\":7340:7350  msg.sender */\n      caller\n        /* \"contracts/marketplace/Marketplace.sol\":7299:7351  AdminItemAmountUpdated(_itemId, _amount, msg.sender) */\n      mload(0x40)\n      tag_272\n      swap3\n      swap2\n      swap1\n      tag_173\n      jump\t// in\n    tag_272:\n      mload(0x40)\n      dup1\n      swap2\n      sub\n      swap1\n      log2\n        /* \"contracts/marketplace/Marketplace.sol\":6984:7359  {\r... */\n      pop\n      pop\n        /* \"@openzeppelin/contracts/security/ReentrancyGuard.sol\":1701:1702  1 */\n      0x01\n        /* \"@openzeppelin/contracts/security/ReentrancyGuard.sol\":2628:2635  _status */\n      dup1\n        /* \"@openzeppelin/contracts/security/ReentrancyGuard.sol\":2628:2650  _status = _NOT_ENTERED */\n      dup2\n      swap1\n      sstore\n      pop\n        /* \"contracts/marketplace/Marketplace.sol\":6876:7359  function updateAmountNFT(uint _itemId, uint _amount) external override onlyAdmin whenNotPaused nonReentrant {\r... */\n      pop\n      pop\n      jump\t// out\n        /* \"contracts/marketplace/Marketplace.sol\":5891:6708  function createAndListNFT(NFTInfo memory _nftInfo, uint _oneItemPrice, uint _amount) external override onlyAdmin whenNotPaused nonReentrant {\r... */\n    tag_92:\n        /* \"contracts/marketplace/Marketplace.sol\":1774:1787  accessControl */\n      0x02\n      0x00\n      swap1\n      sload\n      swap1\n      0x0100\n      exp\n      swap1\n      div\n      0xffffffffffffffffffffffffffffffffffffffff\n      and\n        /* \"contracts/marketplace/Marketplace.sol\":1759:1796  IAccessControl(accessControl).hasRole */\n      0xffffffffffffffffffffffffffffffffffffffff\n      and\n      0x91d14854\n        /* \"contracts/marketplace/Marketplace.sol\":1117:1135  keccak256(\"ADMIN\") */\n      0xdf8b4c520ffe197c5343c6f5aec59570151ef9a492f2c624fd45ddde6135ec42\n        /* \"contracts/marketplace/Marketplace.sol\":1809:1819  msg.sender */\n      caller\n        /* \"contracts/marketplace/Marketplace.sol\":1759:1820  IAccessControl(accessControl).hasRole(ADMIN_ROLE, msg.sender) */\n      mload(0x40)\n      dup4\n      0xffffffff\n      and\n      0xe0\n      shl\n      dup2\n      mstore\n      0x04\n      add\n      tag_274\n      swap3\n      swap2\n      swap1\n      tag_202\n      jump\t// in\n    tag_274:\n      0x20\n      mload(0x40)\n      dup1\n      dup4\n      sub\n      dup2\n      dup7\n      dup1\n      extcodesize\n      iszero\n      dup1\n      iszero\n      tag_275\n      jumpi\n      0x00\n      dup1\n      revert\n    tag_275:\n      pop\n      gas\n      staticcall\n      iszero\n      dup1\n      iszero\n      tag_277\n      jumpi\n      returndatasize\n      0x00\n      dup1\n      returndatacopy\n      revert(0x00, returndatasize)\n    tag_277:\n      pop\n      pop\n      pop\n      pop\n      mload(0x40)\n      returndatasize\n      not(0x1f)\n      0x1f\n      dup3\n      add\n      and\n      dup3\n      add\n      dup1\n      0x40\n      mstore\n      pop\n      dup2\n      add\n      swap1\n      tag_278\n      swap2\n      swap1\n      tag_207\n      jump\t// in\n    tag_278:\n        /* \"contracts/marketplace/Marketplace.sol\":1751:1871  require(IAccessControl(accessControl).hasRole(ADMIN_ROLE, msg.sender), \"Marketplace: Only admin can call this function\") */\n      tag_279\n      jumpi\n      mload(0x40)\n      0x08c379a000000000000000000000000000000000000000000000000000000000\n      dup2\n      mstore\n      0x04\n      add\n      tag_280\n      swap1\n      tag_258\n      jump\t// in\n    tag_280:\n      mload(0x40)\n      dup1\n      swap2\n      sub\n      swap1\n      revert\n    tag_279:\n        /* \"@openzeppelin/contracts/security/Pausable.sol\":1412:1420  paused() */\n      tag_282\n        /* \"@openzeppelin/contracts/security/Pausable.sol\":1412:1418  paused */\n      tag_57\n        /* \"@openzeppelin/contracts/security/Pausable.sol\":1412:1420  paused() */\n      jump\t// in\n    tag_282:\n        /* \"@openzeppelin/contracts/security/Pausable.sol\":1411:1420  !paused() */\n      iszero\n        /* \"@openzeppelin/contracts/security/Pausable.sol\":1403:1441  require(!paused(), \"Pausable: paused\") */\n      tag_283\n      jumpi\n      mload(0x40)\n      0x08c379a000000000000000000000000000000000000000000000000000000000\n      dup2\n      mstore\n      0x04\n      add\n      tag_284\n      swap1\n      tag_117\n      jump\t// in\n    tag_284:\n      mload(0x40)\n      dup1\n      swap2\n      sub\n      swap1\n      revert\n    tag_283:\n        /* \"@openzeppelin/contracts/security/ReentrancyGuard.sol\":1744:1745  2 */\n      0x02\n        /* \"@openzeppelin/contracts/security/ReentrancyGuard.sol\":2325:2332  _status */\n      sload(0x01)\n        /* \"@openzeppelin/contracts/security/ReentrancyGuard.sol\":2325:2344  _status != _ENTERED */\n      eq\n      iszero\n        /* \"@openzeppelin/contracts/security/ReentrancyGuard.sol\":2317:2380  require(_status != _ENTERED, \"ReentrancyGuard: reentrant call\") */\n      tag_286\n      jumpi\n      mload(0x40)\n      0x08c379a000000000000000000000000000000000000000000000000000000000\n      dup2\n      mstore\n      0x04\n      add\n      tag_287\n      swap1\n      tag_121\n      jump\t// in\n    tag_287:\n      mload(0x40)\n      dup1\n      swap2\n      sub\n      swap1\n      revert\n    tag_286:\n        /* \"@openzeppelin/contracts/security/ReentrancyGuard.sol\":1744:1745  2 */\n      0x02\n        /* \"@openzeppelin/contracts/security/ReentrancyGuard.sol\":2455:2462  _status */\n      0x01\n        /* \"@openzeppelin/contracts/security/ReentrancyGuard.sol\":2455:2473  _status = _ENTERED */\n      dup2\n      swap1\n      sstore\n      pop\n        /* \"contracts/marketplace/Marketplace.sol\":6066:6067  0 */\n      0x00\n        /* \"contracts/marketplace/Marketplace.sol\":6050:6063  _oneItemPrice */\n      dup3\n        /* \"contracts/marketplace/Marketplace.sol\":6050:6067  _oneItemPrice > 0 */\n      gt\n        /* \"contracts/marketplace/Marketplace.sol\":6042:6107  require(_oneItemPrice > 0, \"Marketplace: price must not be zero\") */\n      tag_289\n      jumpi\n      mload(0x40)\n      0x08c379a000000000000000000000000000000000000000000000000000000000\n      dup2\n      mstore\n      0x04\n      add\n      tag_290\n      swap1\n      tag_291\n      jump\t// in\n    tag_290:\n      mload(0x40)\n      dup1\n      swap2\n      sub\n      swap1\n      revert\n    tag_289:\n        /* \"contracts/marketplace/Marketplace.sol\":6136:6137  0 */\n      0x00\n        /* \"contracts/marketplace/Marketplace.sol\":6126:6133  _amount */\n      dup2\n        /* \"contracts/marketplace/Marketplace.sol\":6126:6137  _amount > 0 */\n      gt\n        /* \"contracts/marketplace/Marketplace.sol\":6118:6178  require(_amount > 0, \"Marketplace: amount must not be zero\") */\n      tag_292\n      jumpi\n      mload(0x40)\n      0x08c379a000000000000000000000000000000000000000000000000000000000\n      dup2\n      mstore\n      0x04\n      add\n      tag_293\n      swap1\n      tag_294\n      jump\t// in\n    tag_293:\n      mload(0x40)\n      dup1\n      swap2\n      sub\n      swap1\n      revert\n    tag_292:\n        /* \"contracts/marketplace/Marketplace.sol\":6202:6208  UITNFT */\n      immutable(\"0x3d550a598553b485ade63df00865310ea36cbff0dc487035a9b4be52b149fadb\")\n        /* \"contracts/marketplace/Marketplace.sol\":6189:6219  IUITNFTToken(UITNFT).createNFT */\n      0xffffffffffffffffffffffffffffffffffffffff\n      and\n      0x91ac2c4e\n        /* \"contracts/marketplace/Marketplace.sol\":6220:6228  _nftInfo */\n      dup5\n        /* \"contracts/marketplace/Marketplace.sol\":6189:6229  IUITNFTToken(UITNFT).createNFT(_nftInfo) */\n      mload(0x40)\n      dup3\n      0xffffffff\n      and\n      0xe0\n      shl\n      dup2\n      mstore\n      0x04\n      add\n      tag_295\n      swap2\n      swap1\n      tag_296\n      jump\t// in\n    tag_295:\n      0x00\n      mload(0x40)\n      dup1\n      dup4\n      sub\n      dup2\n      0x00\n      dup8\n      dup1\n      extcodesize\n      iszero\n      dup1\n      iszero\n      tag_297\n      jumpi\n      0x00\n      dup1\n      revert\n    tag_297:\n      pop\n      gas\n      call\n      iszero\n      dup1\n      iszero\n      tag_299\n      jumpi\n      returndatasize\n      0x00\n      dup1\n      returndatacopy\n      revert(0x00, returndatasize)\n    tag_299:\n      pop\n      pop\n      pop\n      pop\n        /* \"contracts/marketplace/Marketplace.sol\":6240:6251  uint itemId */\n      0x00\n        /* \"contracts/marketplace/Marketplace.sol\":6267:6273  UITNFT */\n      immutable(\"0x3d550a598553b485ade63df00865310ea36cbff0dc487035a9b4be52b149fadb\")\n        /* \"contracts/marketplace/Marketplace.sol\":6254:6285  IUITNFTToken(UITNFT).getIdIndex */\n      0xffffffffffffffffffffffffffffffffffffffff\n      and\n      0xb02a2756\n        /* \"contracts/marketplace/Marketplace.sol\":6254:6287  IUITNFTToken(UITNFT).getIdIndex() */\n      mload(0x40)\n      dup2\n      0xffffffff\n      and\n      0xe0\n      shl\n      dup2\n      mstore\n      0x04\n      add\n      0x20\n      mload(0x40)\n      dup1\n      dup4\n      sub\n      dup2\n      0x00\n      dup8\n      dup1\n      extcodesize\n      iszero\n      dup1\n      iszero\n      tag_300\n      jumpi\n      0x00\n      dup1\n      revert\n    tag_300:\n      pop\n      gas\n      call\n      iszero\n      dup1\n      iszero\n      tag_302\n      jumpi\n      returndatasize\n      0x00\n      dup1\n      returndatacopy\n      revert(0x00, returndatasize)\n    tag_302:\n      pop\n      pop\n      pop\n      pop\n      mload(0x40)\n      returndatasize\n      not(0x1f)\n      0x1f\n      dup3\n      add\n      and\n      dup3\n      add\n      dup1\n      0x40\n      mstore\n      pop\n      dup2\n      add\n      swap1\n      tag_303\n      swap2\n      swap1\n      tag_135\n      jump\t// in\n    tag_303:\n        /* \"contracts/marketplace/Marketplace.sol\":6240:6287  uint itemId = IUITNFTToken(UITNFT).getIdIndex() */\n      swap1\n      pop\n        /* \"contracts/marketplace/Marketplace.sol\":6300:6324  SaleInfo memory saleInfo */\n      0x00\n        /* \"contracts/marketplace/Marketplace.sol\":6327:6339  itemsForSale */\n      0x03\n        /* \"contracts/marketplace/Marketplace.sol\":6327:6347  itemsForSale[itemId] */\n      0x00\n        /* \"contracts/marketplace/Marketplace.sol\":6340:6346  itemId */\n      dup4\n        /* \"contracts/marketplace/Marketplace.sol\":6327:6347  itemsForSale[itemId] */\n      dup2\n      mstore\n      0x20\n      add\n      swap1\n      dup2\n      mstore\n      0x20\n      add\n      0x00\n      keccak256\n        /* \"contracts/marketplace/Marketplace.sol\":6327:6359  itemsForSale[itemId][msg.sender] */\n      0x00\n        /* \"contracts/marketplace/Marketplace.sol\":6348:6358  msg.sender */\n      caller\n        /* \"contracts/marketplace/Marketplace.sol\":6327:6359  itemsForSale[itemId][msg.sender] */\n      0xffffffffffffffffffffffffffffffffffffffff\n      and\n      0xffffffffffffffffffffffffffffffffffffffff\n      and\n      dup2\n      mstore\n      0x20\n      add\n      swap1\n      dup2\n      mstore\n      0x20\n      add\n      0x00\n      keccak256\n        /* \"contracts/marketplace/Marketplace.sol\":6300:6359  SaleInfo memory saleInfo = itemsForSale[itemId][msg.sender] */\n      mload(0x40)\n      dup1\n      0xa0\n      add\n      0x40\n      mstore\n      swap1\n      dup2\n      0x00\n      dup3\n      add\n      0x00\n      swap1\n      sload\n      swap1\n      0x0100\n      exp\n      swap1\n      div\n      0xff\n      and\n      iszero\n      iszero\n      iszero\n      iszero\n      dup2\n      mstore\n      0x20\n      add\n      0x01\n      dup3\n      add\n      sload\n      dup2\n      mstore\n      0x20\n      add\n      0x02\n      dup3\n      add\n      sload\n      dup2\n      mstore\n      0x20\n      add\n      0x03\n      dup3\n      add\n      sload\n      dup2\n      mstore\n      0x20\n      add\n      0x04\n      dup3\n      add\n      sload\n      dup2\n      mstore\n      pop\n      pop\n      swap1\n      pop\n        /* \"contracts/marketplace/Marketplace.sol\":6379:6387  saleInfo */\n      dup1\n        /* \"contracts/marketplace/Marketplace.sol\":6379:6396  saleInfo.isActive */\n      0x00\n      add\n      mload\n        /* \"contracts/marketplace/Marketplace.sol\":6378:6396  !saleInfo.isActive */\n      iszero\n        /* \"contracts/marketplace/Marketplace.sol\":6370:6436  require(!saleInfo.isActive, \"Marketplace: Item is already listed\") */\n      tag_304\n      jumpi\n      mload(0x40)\n      0x08c379a000000000000000000000000000000000000000000000000000000000\n      dup2\n      mstore\n      0x04\n      add\n      tag_305\n      swap1\n      tag_141\n      jump\t// in\n    tag_305:\n      mload(0x40)\n      dup1\n      swap2\n      sub\n      swap1\n      revert\n    tag_304:\n        /* \"contracts/marketplace/Marketplace.sol\":6484:6623  SaleInfo(\r... */\n      mload(0x40)\n      dup1\n      0xa0\n      add\n      0x40\n      mstore\n      dup1\n        /* \"contracts/marketplace/Marketplace.sol\":6507:6511  true */\n      0x01\n        /* \"contracts/marketplace/Marketplace.sol\":6484:6623  SaleInfo(\r... */\n      iszero\n      iszero\n      dup2\n      mstore\n      0x20\n      add\n        /* \"contracts/marketplace/Marketplace.sol\":6526:6532  itemId */\n      dup4\n        /* \"contracts/marketplace/Marketplace.sol\":6484:6623  SaleInfo(\r... */\n      dup2\n      mstore\n      0x20\n      add\n        /* \"contracts/marketplace/Marketplace.sol\":6547:6554  _amount */\n      dup5\n        /* \"contracts/marketplace/Marketplace.sol\":6484:6623  SaleInfo(\r... */\n      dup2\n      mstore\n      0x20\n      add\n        /* \"contracts/marketplace/Marketplace.sol\":6569:6584  block.timestamp */\n      timestamp\n        /* \"contracts/marketplace/Marketplace.sol\":6484:6623  SaleInfo(\r... */\n      dup2\n      mstore\n      0x20\n      add\n        /* \"contracts/marketplace/Marketplace.sol\":6599:6612  _oneItemPrice */\n      dup6\n        /* \"contracts/marketplace/Marketplace.sol\":6484:6623  SaleInfo(\r... */\n      dup2\n      mstore\n      pop\n        /* \"contracts/marketplace/Marketplace.sol\":6449:6461  itemsForSale */\n      0x03\n        /* \"contracts/marketplace/Marketplace.sol\":6449:6469  itemsForSale[itemId] */\n      0x00\n        /* \"contracts/marketplace/Marketplace.sol\":6462:6468  itemId */\n      dup5\n        /* \"contracts/marketplace/Marketplace.sol\":6449:6469  itemsForSale[itemId] */\n      dup2\n      mstore\n      0x20\n      add\n      swap1\n      dup2\n      mstore\n      0x20\n      add\n      0x00\n      keccak256\n        /* \"contracts/marketplace/Marketplace.sol\":6449:6481  itemsForSale[itemId][msg.sender] */\n      0x00\n        /* \"contracts/marketplace/Marketplace.sol\":6470:6480  msg.sender */\n      caller\n        /* \"contracts/marketplace/Marketplace.sol\":6449:6481  itemsForSale[itemId][msg.sender] */\n      0xffffffffffffffffffffffffffffffffffffffff\n      and\n      0xffffffffffffffffffffffffffffffffffffffff\n      and\n      dup2\n      mstore\n      0x20\n      add\n      swap1\n      dup2\n      mstore\n      0x20\n      add\n      0x00\n      keccak256\n        /* \"contracts/marketplace/Marketplace.sol\":6449:6623  itemsForSale[itemId][msg.sender] = SaleInfo(\r... */\n      0x00\n      dup3\n      add\n      mload\n      dup2\n      0x00\n      add\n      exp(0x0100, 0x00)\n      dup2\n      sload\n      dup2\n      0xff\n      mul\n      not\n      and\n      swap1\n      dup4\n      iszero\n      iszero\n      mul\n      or\n      swap1\n      sstore\n      pop\n      0x20\n      dup3\n      add\n      mload\n      dup2\n      0x01\n      add\n      sstore\n      0x40\n      dup3\n      add\n      mload\n      dup2\n      0x02\n      add\n      sstore\n      0x60\n      dup3\n      add\n      mload\n      dup2\n      0x03\n      add\n      sstore\n      0x80\n      dup3\n      add\n      mload\n      dup2\n      0x04\n      add\n      sstore\n      swap1\n      pop\n      pop\n        /* \"contracts/marketplace/Marketplace.sol\":6657:6663  itemId */\n      dup2\n        /* \"contracts/marketplace/Marketplace.sol\":6641:6700  AdminItemListed(itemId, _amount, _oneItemPrice, msg.sender) */\n      0x45f291a17faaad4d168218441d34a64d78538caf947c648ca3e2e296ecc0bac1\n        /* \"contracts/marketplace/Marketplace.sol\":6665:6672  _amount */\n      dup5\n        /* \"contracts/marketplace/Marketplace.sol\":6674:6687  _oneItemPrice */\n      dup7\n        /* \"contracts/marketplace/Marketplace.sol\":6689:6699  msg.sender */\n      caller\n        /* \"contracts/marketplace/Marketplace.sol\":6641:6700  AdminItemListed(itemId, _amount, _oneItemPrice, msg.sender) */\n      mload(0x40)\n      tag_306\n      swap4\n      swap3\n      swap2\n      swap1\n      tag_148\n      jump\t// in\n    tag_306:\n      mload(0x40)\n      dup1\n      swap2\n      sub\n      swap1\n      log2\n        /* \"contracts/marketplace/Marketplace.sol\":6031:6708  {\r... */\n      pop\n      pop\n        /* \"@openzeppelin/contracts/security/ReentrancyGuard.sol\":1701:1702  1 */\n      0x01\n        /* \"@openzeppelin/contracts/security/ReentrancyGuard.sol\":2628:2635  _status */\n      dup1\n        /* \"@openzeppelin/contracts/security/ReentrancyGuard.sol\":2628:2650  _status = _NOT_ENTERED */\n      dup2\n      swap1\n      sstore\n      pop\n        /* \"contracts/marketplace/Marketplace.sol\":5891:6708  function createAndListNFT(NFTInfo memory _nftInfo, uint _oneItemPrice, uint _amount) external override onlyAdmin whenNotPaused nonReentrant {\r... */\n      pop\n      pop\n      pop\n      jump\t// out\n        /* \"@openzeppelin/contracts/token/ERC1155/utils/ERC1155Holder.sol\":499:718  function onERC1155Received(... */\n    tag_96:\n        /* \"@openzeppelin/contracts/token/ERC1155/utils/ERC1155Holder.sol\":655:661  bytes4 */\n      0x00\n        /* \"@openzeppelin/contracts/token/ERC1155/utils/ERC1155Holder.sol\":680:711  this.onERC1155Received.selector */\n      shl(0xe0, 0xf23a6e61)\n        /* \"@openzeppelin/contracts/token/ERC1155/utils/ERC1155Holder.sol\":673:711  return this.onERC1155Received.selector */\n      swap1\n      pop\n        /* \"@openzeppelin/contracts/token/ERC1155/utils/ERC1155Holder.sol\":499:718  function onERC1155Received(... */\n      swap6\n      swap5\n      pop\n      pop\n      pop\n      pop\n      pop\n      jump\t// out\n        /* \"@openzeppelin/contracts/access/Ownable.sol\":1918:2116  function transferOwnership(address newOwner) public virtual onlyOwner {... */\n    tag_100:\n        /* \"@openzeppelin/contracts/access/Ownable.sol\":1259:1271  _msgSender() */\n      tag_309\n        /* \"@openzeppelin/contracts/access/Ownable.sol\":1259:1269  _msgSender */\n      tag_107\n        /* \"@openzeppelin/contracts/access/Ownable.sol\":1259:1271  _msgSender() */\n      jump\t// in\n    tag_309:\n        /* \"@openzeppelin/contracts/access/Ownable.sol\":1248:1271  owner() == _msgSender() */\n      0xffffffffffffffffffffffffffffffffffffffff\n      and\n        /* \"@openzeppelin/contracts/access/Ownable.sol\":1248:1255  owner() */\n      tag_310\n        /* \"@openzeppelin/contracts/access/Ownable.sol\":1248:1253  owner */\n      tag_72\n        /* \"@openzeppelin/contracts/access/Ownable.sol\":1248:1255  owner() */\n      jump\t// in\n    tag_310:\n        /* \"@openzeppelin/contracts/access/Ownable.sol\":1248:1271  owner() == _msgSender() */\n      0xffffffffffffffffffffffffffffffffffffffff\n      and\n      eq\n        /* \"@openzeppelin/contracts/access/Ownable.sol\":1240:1308  require(owner() == _msgSender(), \"Ownable: caller is not the owner\") */\n      tag_311\n      jumpi\n      mload(0x40)\n      0x08c379a000000000000000000000000000000000000000000000000000000000\n      dup2\n      mstore\n      0x04\n      add\n      tag_312\n      swap1\n      tag_111\n      jump\t// in\n    tag_312:\n      mload(0x40)\n      dup1\n      swap2\n      sub\n      swap1\n      revert\n    tag_311:\n        /* \"@openzeppelin/contracts/access/Ownable.sol\":2026:2027  0 */\n      0x00\n        /* \"@openzeppelin/contracts/access/Ownable.sol\":2006:2028  newOwner != address(0) */\n      0xffffffffffffffffffffffffffffffffffffffff\n      and\n        /* \"@openzeppelin/contracts/access/Ownable.sol\":2006:2014  newOwner */\n      dup2\n        /* \"@openzeppelin/contracts/access/Ownable.sol\":2006:2028  newOwner != address(0) */\n      0xffffffffffffffffffffffffffffffffffffffff\n      and\n      eq\n      iszero\n        /* \"@openzeppelin/contracts/access/Ownable.sol\":1998:2071  require(newOwner != address(0), \"Ownable: new owner is the zero address\") */\n      tag_314\n      jumpi\n      mload(0x40)\n      0x08c379a000000000000000000000000000000000000000000000000000000000\n      dup2\n      mstore\n      0x04\n      add\n      tag_315\n      swap1\n      tag_316\n      jump\t// in\n    tag_315:\n      mload(0x40)\n      dup1\n      swap2\n      sub\n      swap1\n      revert\n    tag_314:\n        /* \"@openzeppelin/contracts/access/Ownable.sol\":2081:2109  _transferOwnership(newOwner) */\n      tag_317\n        /* \"@openzeppelin/contracts/access/Ownable.sol\":2100:2108  newOwner */\n      dup2\n        /* \"@openzeppelin/contracts/access/Ownable.sol\":2081:2099  _transferOwnership */\n      tag_228\n        /* \"@openzeppelin/contracts/access/Ownable.sol\":2081:2109  _transferOwnership(newOwner) */\n      jump\t// in\n    tag_317:\n        /* \"@openzeppelin/contracts/access/Ownable.sol\":1918:2116  function transferOwnership(address newOwner) public virtual onlyOwner {... */\n      pop\n      jump\t// out\n        /* \"@openzeppelin/contracts/utils/introspection/ERC165.sol\":829:984  function supportsInterface(bytes4 interfaceId) public view virtual override returns (bool) {... */\n    tag_104:\n        /* \"@openzeppelin/contracts/utils/introspection/ERC165.sol\":914:918  bool */\n      0x00\n        /* \"@openzeppelin/contracts/utils/introspection/ERC165.sol\":952:977  type(IERC165).interfaceId */\n      0x01ffc9a700000000000000000000000000000000000000000000000000000000\n        /* \"@openzeppelin/contracts/utils/introspection/ERC165.sol\":937:977  interfaceId == type(IERC165).interfaceId */\n      not(0xffffffffffffffffffffffffffffffffffffffffffffffffffffffff)\n      and\n        /* \"@openzeppelin/contracts/utils/introspection/ERC165.sol\":937:948  interfaceId */\n      dup3\n        /* \"@openzeppelin/contracts/utils/introspection/ERC165.sol\":937:977  interfaceId == type(IERC165).interfaceId */\n      not(0xffffffffffffffffffffffffffffffffffffffffffffffffffffffff)\n      and\n      eq\n        /* \"@openzeppelin/contracts/utils/introspection/ERC165.sol\":930:977  return interfaceId == type(IERC165).interfaceId */\n      swap1\n      pop\n        /* \"@openzeppelin/contracts/utils/introspection/ERC165.sol\":829:984  function supportsInterface(bytes4 interfaceId) public view virtual override returns (bool) {... */\n      swap2\n      swap1\n      pop\n      jump\t// out\n        /* \"@openzeppelin/contracts/utils/Context.sol\":640:736  function _msgSender() internal view virtual returns (address) {... */\n    tag_107:\n        /* \"@openzeppelin/contracts/utils/Context.sol\":693:700  address */\n      0x00\n        /* \"@openzeppelin/contracts/utils/Context.sol\":719:729  msg.sender */\n      caller\n        /* \"@openzeppelin/contracts/utils/Context.sol\":712:729  return msg.sender */\n      swap1\n      pop\n        /* \"@openzeppelin/contracts/utils/Context.sol\":640:736  function _msgSender() internal view virtual returns (address) {... */\n      swap1\n      jump\t// out\n        /* \"@openzeppelin/contracts/security/Pausable.sol\":2110:2227  function _unpause() internal virtual whenPaused {... */\n    tag_156:\n        /* \"@openzeppelin/contracts/security/Pausable.sol\":1677:1685  paused() */\n      tag_321\n        /* \"@openzeppelin/contracts/security/Pausable.sol\":1677:1683  paused */\n      tag_57\n        /* \"@openzeppelin/contracts/security/Pausable.sol\":1677:1685  paused() */\n      jump\t// in\n    tag_321:\n        /* \"@openzeppelin/contracts/security/Pausable.sol\":1669:1710  require(paused(), \"Pausable: not paused\") */\n      tag_322\n      jumpi\n      mload(0x40)\n      0x08c379a000000000000000000000000000000000000000000000000000000000\n      dup2\n      mstore\n      0x04\n      add\n      tag_323\n      swap1\n      tag_324\n      jump\t// in\n    tag_323:\n      mload(0x40)\n      dup1\n      swap2\n      sub\n      swap1\n      revert\n    tag_322:\n        /* \"@openzeppelin/contracts/security/Pausable.sol\":2178:2183  false */\n      0x00\n        /* \"@openzeppelin/contracts/security/Pausable.sol\":2168:2175  _paused */\n      dup1\n      0x00\n        /* \"@openzeppelin/contracts/security/Pausable.sol\":2168:2183  _paused = false */\n      0x0100\n      exp\n      dup2\n      sload\n      dup2\n      0xff\n      mul\n      not\n      and\n      swap1\n      dup4\n      iszero\n      iszero\n      mul\n      or\n      swap1\n      sstore\n      pop\n        /* \"@openzeppelin/contracts/security/Pausable.sol\":2198:2220  Unpaused(_msgSender()) */\n      0x5db9ee0a495bf2e6ff9c91a7834c1ba4fdd244a5e8aa4e537bd38aeae4b073aa\n        /* \"@openzeppelin/contracts/security/Pausable.sol\":2207:2219  _msgSender() */\n      tag_326\n        /* \"@openzeppelin/contracts/security/Pausable.sol\":2207:2217  _msgSender */\n      tag_107\n        /* \"@openzeppelin/contracts/security/Pausable.sol\":2207:2219  _msgSender() */\n      jump\t// in\n    tag_326:\n        /* \"@openzeppelin/contracts/security/Pausable.sol\":2198:2220  Unpaused(_msgSender()) */\n      mload(0x40)\n      tag_327\n      swap2\n      swap1\n      tag_35\n      jump\t// in\n    tag_327:\n      mload(0x40)\n      dup1\n      swap2\n      sub\n      swap1\n      log1\n        /* \"@openzeppelin/contracts/security/Pausable.sol\":2110:2227  function _unpause() internal virtual whenPaused {... */\n      jump\t// out\n        /* \"@openzeppelin/contracts/token/ERC20/utils/SafeERC20.sol\":912:1153  function safeTransferFrom(... */\n    tag_200:\n        /* \"@openzeppelin/contracts/token/ERC20/utils/SafeERC20.sol\":1050:1146  _callOptionalReturn(token, abi.encodeWithSelector(token.transferFrom.selector, from, to, value)) */\n      tag_329\n        /* \"@openzeppelin/contracts/token/ERC20/utils/SafeERC20.sol\":1070:1075  token */\n      dup5\n        /* \"@openzeppelin/contracts/token/ERC20/utils/SafeERC20.sol\":1100:1127  token.transferFrom.selector */\n      shl(0xe0, 0x23b872dd)\n        /* \"@openzeppelin/contracts/token/ERC20/utils/SafeERC20.sol\":1129:1133  from */\n      dup6\n        /* \"@openzeppelin/contracts/token/ERC20/utils/SafeERC20.sol\":1135:1137  to */\n      dup6\n        /* \"@openzeppelin/contracts/token/ERC20/utils/SafeERC20.sol\":1139:1144  value */\n      dup6\n        /* \"@openzeppelin/contracts/token/ERC20/utils/SafeERC20.sol\":1077:1145  abi.encodeWithSelector(token.transferFrom.selector, from, to, value) */\n      add(0x24, mload(0x40))\n      tag_330\n      swap4\n      swap3\n      swap2\n      swap1\n      tag_331\n      jump\t// in\n    tag_330:\n      mload(0x40)\n      0x20\n      dup2\n      dup4\n      sub\n      sub\n      dup2\n      mstore\n      swap1\n      0x40\n      mstore\n      swap1\n      not(0xffffffffffffffffffffffffffffffffffffffffffffffffffffffff)\n      and\n      0x20\n      dup3\n      add\n      dup1\n      mload\n      0xffffffffffffffffffffffffffffffffffffffffffffffffffffffff\n      dup4\n      dup2\n      dup4\n      and\n      or\n      dup4\n      mstore\n      pop\n      pop\n      pop\n      pop\n        /* \"@openzeppelin/contracts/token/ERC20/utils/SafeERC20.sol\":1050:1069  _callOptionalReturn */\n      tag_332\n        /* \"@openzeppelin/contracts/token/ERC20/utils/SafeERC20.sol\":1050:1146  _callOptionalReturn(token, abi.encodeWithSelector(token.transferFrom.selector, from, to, value)) */\n      jump\t// in\n    tag_329:\n        /* \"@openzeppelin/contracts/token/ERC20/utils/SafeERC20.sol\":912:1153  function safeTransferFrom(... */\n      pop\n      pop\n      pop\n      pop\n      jump\t// out\n        /* \"@openzeppelin/contracts/access/Ownable.sol\":2270:2457  function _transferOwnership(address newOwner) internal virtual {... */\n    tag_228:\n        /* \"@openzeppelin/contracts/access/Ownable.sol\":2343:2359  address oldOwner */\n      0x00\n        /* \"@openzeppelin/contracts/access/Ownable.sol\":2362:2368  _owner */\n      dup1\n      0x01\n      swap1\n      sload\n      swap1\n      0x0100\n      exp\n      swap1\n      div\n      0xffffffffffffffffffffffffffffffffffffffff\n      and\n        /* \"@openzeppelin/contracts/access/Ownable.sol\":2343:2368  address oldOwner = _owner */\n      swap1\n      pop\n        /* \"@openzeppelin/contracts/access/Ownable.sol\":2387:2395  newOwner */\n      dup2\n        /* \"@openzeppelin/contracts/access/Ownable.sol\":2378:2384  _owner */\n      0x00\n      0x01\n        /* \"@openzeppelin/contracts/access/Ownable.sol\":2378:2395  _owner = newOwner */\n      0x0100\n      exp\n      dup2\n      sload\n      dup2\n      0xffffffffffffffffffffffffffffffffffffffff\n      mul\n      not\n      and\n      swap1\n      dup4\n      0xffffffffffffffffffffffffffffffffffffffff\n      and\n      mul\n      or\n      swap1\n      sstore\n      pop\n        /* \"@openzeppelin/contracts/access/Ownable.sol\":2441:2449  newOwner */\n      dup2\n        /* \"@openzeppelin/contracts/access/Ownable.sol\":2410:2450  OwnershipTransferred(oldOwner, newOwner) */\n      0xffffffffffffffffffffffffffffffffffffffff\n      and\n        /* \"@openzeppelin/contracts/access/Ownable.sol\":2431:2439  oldOwner */\n      dup2\n        /* \"@openzeppelin/contracts/access/Ownable.sol\":2410:2450  OwnershipTransferred(oldOwner, newOwner) */\n      0xffffffffffffffffffffffffffffffffffffffff\n      and\n      0x8be0079c531659141344cd1fd0a4f28419497f9722a3daafe3b4186f6b6457e0\n      mload(0x40)\n      mload(0x40)\n      dup1\n      swap2\n      sub\n      swap1\n      log3\n        /* \"@openzeppelin/contracts/access/Ownable.sol\":2333:2457  {... */\n      pop\n        /* \"@openzeppelin/contracts/access/Ownable.sol\":2270:2457  function _transferOwnership(address newOwner) internal virtual {... */\n      pop\n      jump\t// out\n        /* \"@openzeppelin/contracts/security/Pausable.sol\":1863:1978  function _pause() internal virtual whenNotPaused {... */\n    tag_247:\n        /* \"@openzeppelin/contracts/security/Pausable.sol\":1412:1420  paused() */\n      tag_335\n        /* \"@openzeppelin/contracts/security/Pausable.sol\":1412:1418  paused */\n      tag_57\n        /* \"@openzeppelin/contracts/security/Pausable.sol\":1412:1420  paused() */\n      jump\t// in\n    tag_335:\n        /* \"@openzeppelin/contracts/security/Pausable.sol\":1411:1420  !paused() */\n      iszero\n        /* \"@openzeppelin/contracts/security/Pausable.sol\":1403:1441  require(!paused(), \"Pausable: paused\") */\n      tag_336\n      jumpi\n      mload(0x40)\n      0x08c379a000000000000000000000000000000000000000000000000000000000\n      dup2\n      mstore\n      0x04\n      add\n      tag_337\n      swap1\n      tag_117\n      jump\t// in\n    tag_337:\n      mload(0x40)\n      dup1\n      swap2\n      sub\n      swap1\n      revert\n    tag_336:\n        /* \"@openzeppelin/contracts/security/Pausable.sol\":1932:1936  true */\n      0x01\n        /* \"@openzeppelin/contracts/security/Pausable.sol\":1922:1929  _paused */\n      0x00\n      dup1\n        /* \"@openzeppelin/contracts/security/Pausable.sol\":1922:1936  _paused = true */\n      0x0100\n      exp\n      dup2\n      sload\n      dup2\n      0xff\n      mul\n      not\n      and\n      swap1\n      dup4\n      iszero\n      iszero\n      mul\n      or\n      swap1\n      sstore\n      pop\n        /* \"@openzeppelin/contracts/security/Pausable.sol\":1951:1971  Paused(_msgSender()) */\n      0x62e78cea01bee320cd4e420270b5ea74000d11b0c9f74754ebdbfc544b05a258\n        /* \"@openzeppelin/contracts/security/Pausable.sol\":1958:1970  _msgSender() */\n      tag_339\n        /* \"@openzeppelin/contracts/security/Pausable.sol\":1958:1968  _msgSender */\n      tag_107\n        /* \"@openzeppelin/contracts/security/Pausable.sol\":1958:1970  _msgSender() */\n      jump\t// in\n    tag_339:\n        /* \"@openzeppelin/contracts/security/Pausable.sol\":1951:1971  Paused(_msgSender()) */\n      mload(0x40)\n      tag_340\n      swap2\n      swap1\n      tag_35\n      jump\t// in\n    tag_340:\n      mload(0x40)\n      dup1\n      swap2\n      sub\n      swap1\n      log1\n        /* \"@openzeppelin/contracts/security/Pausable.sol\":1863:1978  function _pause() internal virtual whenNotPaused {... */\n      jump\t// out\n        /* \"@openzeppelin/contracts/token/ERC20/utils/SafeERC20.sol\":3207:3913  function _callOptionalReturn(IERC20 token, bytes memory data) private {... */\n    tag_332:\n        /* \"@openzeppelin/contracts/token/ERC20/utils/SafeERC20.sol\":3626:3649  bytes memory returndata */\n      0x00\n        /* \"@openzeppelin/contracts/token/ERC20/utils/SafeERC20.sol\":3652:3721  address(token).functionCall(data, \"SafeERC20: low-level call failed\") */\n      tag_342\n        /* \"@openzeppelin/contracts/token/ERC20/utils/SafeERC20.sol\":3680:3684  data */\n      dup3\n        /* \"@openzeppelin/contracts/token/ERC20/utils/SafeERC20.sol\":3652:3721  address(token).functionCall(data, \"SafeERC20: low-level call failed\") */\n      mload(0x40)\n      dup1\n      0x40\n      add\n      0x40\n      mstore\n      dup1\n      0x20\n      dup2\n      mstore\n      0x20\n      add\n      0x5361666545524332303a206c6f772d6c6576656c2063616c6c206661696c6564\n      dup2\n      mstore\n      pop\n        /* \"@openzeppelin/contracts/token/ERC20/utils/SafeERC20.sol\":3660:3665  token */\n      dup6\n        /* \"@openzeppelin/contracts/token/ERC20/utils/SafeERC20.sol\":3652:3679  address(token).functionCall */\n      0xffffffffffffffffffffffffffffffffffffffff\n      and\n      tag_343\n      swap1\n        /* \"@openzeppelin/contracts/token/ERC20/utils/SafeERC20.sol\":3652:3721  address(token).functionCall(data, \"SafeERC20: low-level call failed\") */\n      swap3\n      swap2\n      swap1\n      0xffffffff\n      and\n      jump\t// in\n    tag_342:\n        /* \"@openzeppelin/contracts/token/ERC20/utils/SafeERC20.sol\":3626:3721  bytes memory returndata = address(token).functionCall(data, \"SafeERC20: low-level call failed\") */\n      swap1\n      pop\n        /* \"@openzeppelin/contracts/token/ERC20/utils/SafeERC20.sol\":3755:3756  0 */\n      0x00\n        /* \"@openzeppelin/contracts/token/ERC20/utils/SafeERC20.sol\":3735:3745  returndata */\n      dup2\n        /* \"@openzeppelin/contracts/token/ERC20/utils/SafeERC20.sol\":3735:3752  returndata.length */\n      mload\n        /* \"@openzeppelin/contracts/token/ERC20/utils/SafeERC20.sol\":3735:3756  returndata.length > 0 */\n      gt\n        /* \"@openzeppelin/contracts/token/ERC20/utils/SafeERC20.sol\":3731:3907  if (returndata.length > 0) {... */\n      iszero\n      tag_344\n      jumpi\n        /* \"@openzeppelin/contracts/token/ERC20/utils/SafeERC20.sol\":3830:3840  returndata */\n      dup1\n        /* \"@openzeppelin/contracts/token/ERC20/utils/SafeERC20.sol\":3819:3849  abi.decode(returndata, (bool)) */\n      dup1\n      0x20\n      add\n      swap1\n      mload\n      dup2\n      add\n      swap1\n      tag_345\n      swap2\n      swap1\n      tag_207\n      jump\t// in\n    tag_345:\n        /* \"@openzeppelin/contracts/token/ERC20/utils/SafeERC20.sol\":3811:3896  require(abi.decode(returndata, (bool)), \"SafeERC20: ERC20 operation did not succeed\") */\n      tag_346\n      jumpi\n      mload(0x40)\n      0x08c379a000000000000000000000000000000000000000000000000000000000\n      dup2\n      mstore\n      0x04\n      add\n      tag_347\n      swap1\n      tag_348\n      jump\t// in\n    tag_347:\n      mload(0x40)\n      dup1\n      swap2\n      sub\n      swap1\n      revert\n    tag_346:\n        /* \"@openzeppelin/contracts/token/ERC20/utils/SafeERC20.sol\":3731:3907  if (returndata.length > 0) {... */\n    tag_344:\n        /* \"@openzeppelin/contracts/token/ERC20/utils/SafeERC20.sol\":3277:3913  {... */\n      pop\n        /* \"@openzeppelin/contracts/token/ERC20/utils/SafeERC20.sol\":3207:3913  function _callOptionalReturn(IERC20 token, bytes memory data) private {... */\n      pop\n      pop\n      jump\t// out\n        /* \"@openzeppelin/contracts/utils/Address.sol\":3861:4084  function functionCall(... */\n    tag_343:\n        /* \"@openzeppelin/contracts/utils/Address.sol\":3994:4006  bytes memory */\n      0x60\n        /* \"@openzeppelin/contracts/utils/Address.sol\":4025:4077  functionCallWithValue(target, data, 0, errorMessage) */\n      tag_350\n        /* \"@openzeppelin/contracts/utils/Address.sol\":4047:4053  target */\n      dup5\n        /* \"@openzeppelin/contracts/utils/Address.sol\":4055:4059  data */\n      dup5\n        /* \"@openzeppelin/contracts/utils/Address.sol\":4061:4062  0 */\n      0x00\n        /* \"@openzeppelin/contracts/utils/Address.sol\":4064:4076  errorMessage */\n      dup6\n        /* \"@openzeppelin/contracts/utils/Address.sol\":4025:4046  functionCallWithValue */\n      tag_351\n        /* \"@openzeppelin/contracts/utils/Address.sol\":4025:4077  functionCallWithValue(target, data, 0, errorMessage) */\n      jump\t// in\n    tag_350:\n        /* \"@openzeppelin/contracts/utils/Address.sol\":4018:4077  return functionCallWithValue(target, data, 0, errorMessage) */\n      swap1\n      pop\n        /* \"@openzeppelin/contracts/utils/Address.sol\":3861:4084  function functionCall(... */\n      swap4\n      swap3\n      pop\n      pop\n      pop\n      jump\t// out\n        /* \"@openzeppelin/contracts/utils/Address.sol\":4948:5447  function functionCallWithValue(... */\n    tag_351:\n        /* \"@openzeppelin/contracts/utils/Address.sol\":5113:5125  bytes memory */\n      0x60\n        /* \"@openzeppelin/contracts/utils/Address.sol\":5170:5175  value */\n      dup3\n        /* \"@openzeppelin/contracts/utils/Address.sol\":5145:5166  address(this).balance */\n      selfbalance\n        /* \"@openzeppelin/contracts/utils/Address.sol\":5145:5175  address(this).balance >= value */\n      lt\n      iszero\n        /* \"@openzeppelin/contracts/utils/Address.sol\":5137:5218  require(address(this).balance >= value, \"Address: insufficient balance for call\") */\n      tag_353\n      jumpi\n      mload(0x40)\n      0x08c379a000000000000000000000000000000000000000000000000000000000\n      dup2\n      mstore\n      0x04\n      add\n      tag_354\n      swap1\n      tag_355\n      jump\t// in\n    tag_354:\n      mload(0x40)\n      dup1\n      swap2\n      sub\n      swap1\n      revert\n    tag_353:\n        /* \"@openzeppelin/contracts/utils/Address.sol\":5236:5254  isContract(target) */\n      tag_356\n        /* \"@openzeppelin/contracts/utils/Address.sol\":5247:5253  target */\n      dup6\n        /* \"@openzeppelin/contracts/utils/Address.sol\":5236:5246  isContract */\n      tag_357\n        /* \"@openzeppelin/contracts/utils/Address.sol\":5236:5254  isContract(target) */\n      jump\t// in\n    tag_356:\n        /* \"@openzeppelin/contracts/utils/Address.sol\":5228:5288  require(isContract(target), \"Address: call to non-contract\") */\n      tag_358\n      jumpi\n      mload(0x40)\n      0x08c379a000000000000000000000000000000000000000000000000000000000\n      dup2\n      mstore\n      0x04\n      add\n      tag_359\n      swap1\n      tag_360\n      jump\t// in\n    tag_359:\n      mload(0x40)\n      dup1\n      swap2\n      sub\n      swap1\n      revert\n    tag_358:\n        /* \"@openzeppelin/contracts/utils/Address.sol\":5300:5312  bool success */\n      0x00\n        /* \"@openzeppelin/contracts/utils/Address.sol\":5314:5337  bytes memory returndata */\n      dup1\n        /* \"@openzeppelin/contracts/utils/Address.sol\":5341:5347  target */\n      dup7\n        /* \"@openzeppelin/contracts/utils/Address.sol\":5341:5352  target.call */\n      0xffffffffffffffffffffffffffffffffffffffff\n      and\n        /* \"@openzeppelin/contracts/utils/Address.sol\":5360:5365  value */\n      dup6\n        /* \"@openzeppelin/contracts/utils/Address.sol\":5367:5371  data */\n      dup8\n        /* \"@openzeppelin/contracts/utils/Address.sol\":5341:5372  target.call{value: value}(data) */\n      mload(0x40)\n      tag_361\n      swap2\n      swap1\n      tag_362\n      jump\t// in\n    tag_361:\n      0x00\n      mload(0x40)\n      dup1\n      dup4\n      sub\n      dup2\n      dup6\n      dup8\n      gas\n      call\n      swap3\n      pop\n      pop\n      pop\n      returndatasize\n      dup1\n      0x00\n      dup2\n      eq\n      tag_365\n      jumpi\n      mload(0x40)\n      swap2\n      pop\n      and(add(returndatasize, 0x3f), not(0x1f))\n      dup3\n      add\n      0x40\n      mstore\n      returndatasize\n      dup3\n      mstore\n      returndatasize\n      0x00\n      0x20\n      dup5\n      add\n      returndatacopy\n      jump(tag_364)\n    tag_365:\n      0x60\n      swap2\n      pop\n    tag_364:\n      pop\n        /* \"@openzeppelin/contracts/utils/Address.sol\":5299:5372  (bool success, bytes memory returndata) = target.call{value: value}(data) */\n      swap2\n      pop\n      swap2\n      pop\n        /* \"@openzeppelin/contracts/utils/Address.sol\":5389:5440  verifyCallResult(success, returndata, errorMessage) */\n      tag_366\n        /* \"@openzeppelin/contracts/utils/Address.sol\":5406:5413  success */\n      dup3\n        /* \"@openzeppelin/contracts/utils/Address.sol\":5415:5425  returndata */\n      dup3\n        /* \"@openzeppelin/contracts/utils/Address.sol\":5427:5439  errorMessage */\n      dup7\n        /* \"@openzeppelin/contracts/utils/Address.sol\":5389:5405  verifyCallResult */\n      tag_367\n        /* \"@openzeppelin/contracts/utils/Address.sol\":5389:5440  verifyCallResult(success, returndata, errorMessage) */\n      jump\t// in\n    tag_366:\n        /* \"@openzeppelin/contracts/utils/Address.sol\":5382:5440  return verifyCallResult(success, returndata, errorMessage) */\n      swap3\n      pop\n      pop\n      pop\n        /* \"@openzeppelin/contracts/utils/Address.sol\":4948:5447  function functionCallWithValue(... */\n      swap5\n      swap4\n      pop\n      pop\n      pop\n      pop\n      jump\t// out\n        /* \"@openzeppelin/contracts/utils/Address.sol\":1175:1495  function isContract(address account) internal view returns (bool) {... */\n    tag_357:\n        /* \"@openzeppelin/contracts/utils/Address.sol\":1235:1239  bool */\n      0x00\n        /* \"@openzeppelin/contracts/utils/Address.sol\":1487:1488  0 */\n      dup1\n        /* \"@openzeppelin/contracts/utils/Address.sol\":1465:1472  account */\n      dup3\n        /* \"@openzeppelin/contracts/utils/Address.sol\":1465:1484  account.code.length */\n      0xffffffffffffffffffffffffffffffffffffffff\n      and\n      extcodesize\n        /* \"@openzeppelin/contracts/utils/Address.sol\":1465:1488  account.code.length > 0 */\n      gt\n        /* \"@openzeppelin/contracts/utils/Address.sol\":1458:1488  return account.code.length > 0 */\n      swap1\n      pop\n        /* \"@openzeppelin/contracts/utils/Address.sol\":1175:1495  function isContract(address account) internal view returns (bool) {... */\n      swap2\n      swap1\n      pop\n      jump\t// out\n        /* \"@openzeppelin/contracts/utils/Address.sol\":7561:8253  function verifyCallResult(... */\n    tag_367:\n        /* \"@openzeppelin/contracts/utils/Address.sol\":7707:7719  bytes memory */\n      0x60\n        /* \"@openzeppelin/contracts/utils/Address.sol\":7735:7742  success */\n      dup4\n        /* \"@openzeppelin/contracts/utils/Address.sol\":7731:8247  if (success) {... */\n      iszero\n      tag_370\n      jumpi\n        /* \"@openzeppelin/contracts/utils/Address.sol\":7765:7775  returndata */\n      dup3\n        /* \"@openzeppelin/contracts/utils/Address.sol\":7758:7775  return returndata */\n      swap1\n      pop\n      jump(tag_369)\n        /* \"@openzeppelin/contracts/utils/Address.sol\":7731:8247  if (success) {... */\n    tag_370:\n        /* \"@openzeppelin/contracts/utils/Address.sol\":7896:7897  0 */\n      0x00\n        /* \"@openzeppelin/contracts/utils/Address.sol\":7876:7886  returndata */\n      dup4\n        /* \"@openzeppelin/contracts/utils/Address.sol\":7876:7893  returndata.length */\n      mload\n        /* \"@openzeppelin/contracts/utils/Address.sol\":7876:7897  returndata.length > 0 */\n      gt\n        /* \"@openzeppelin/contracts/utils/Address.sol\":7872:8237  if (returndata.length > 0) {... */\n      iszero\n      tag_372\n      jumpi\n        /* \"@openzeppelin/contracts/utils/Address.sol\":8070:8080  returndata */\n      dup3\n        /* \"@openzeppelin/contracts/utils/Address.sol\":8064:8081  mload(returndata) */\n      mload\n        /* \"@openzeppelin/contracts/utils/Address.sol\":8130:8145  returndata_size */\n      dup1\n        /* \"@openzeppelin/contracts/utils/Address.sol\":8117:8127  returndata */\n      dup5\n        /* \"@openzeppelin/contracts/utils/Address.sol\":8113:8115  32 */\n      0x20\n        /* \"@openzeppelin/contracts/utils/Address.sol\":8109:8128  add(32, returndata) */\n      add\n        /* \"@openzeppelin/contracts/utils/Address.sol\":8102:8146  revert(add(32, returndata), returndata_size) */\n      revert\n        /* \"@openzeppelin/contracts/utils/Address.sol\":7872:8237  if (returndata.length > 0) {... */\n    tag_372:\n        /* \"@openzeppelin/contracts/utils/Address.sol\":8209:8221  errorMessage */\n      dup2\n        /* \"@openzeppelin/contracts/utils/Address.sol\":8202:8222  revert(errorMessage) */\n      mload(0x40)\n      0x08c379a000000000000000000000000000000000000000000000000000000000\n      dup2\n      mstore\n      0x04\n      add\n      tag_374\n      swap2\n      swap1\n      tag_375\n      jump\t// in\n    tag_374:\n      mload(0x40)\n      dup1\n      swap2\n      sub\n      swap1\n      revert\n        /* \"@openzeppelin/contracts/utils/Address.sol\":7561:8253  function verifyCallResult(... */\n    tag_369:\n      swap4\n      swap3\n      pop\n      pop\n      pop\n      jump\t// out\n        /* \"#utility.yul\":24:746   */\n    tag_377:\n        /* \"#utility.yul\":120:125   */\n      0x00\n        /* \"#utility.yul\":145:226   */\n      tag_379\n        /* \"#utility.yul\":161:225   */\n      tag_380\n        /* \"#utility.yul\":218:224   */\n      dup5\n        /* \"#utility.yul\":161:225   */\n      tag_381\n      jump\t// in\n    tag_380:\n        /* \"#utility.yul\":145:226   */\n      tag_382\n      jump\t// in\n    tag_379:\n        /* \"#utility.yul\":136:226   */\n      swap1\n      pop\n        /* \"#utility.yul\":246:251   */\n      dup1\n        /* \"#utility.yul\":275:281   */\n      dup4\n        /* \"#utility.yul\":268:273   */\n      dup3\n        /* \"#utility.yul\":261:282   */\n      mstore\n        /* \"#utility.yul\":309:313   */\n      0x20\n        /* \"#utility.yul\":302:307   */\n      dup3\n        /* \"#utility.yul\":298:314   */\n      add\n        /* \"#utility.yul\":291:314   */\n      swap1\n      pop\n        /* \"#utility.yul\":335:341   */\n      dup3\n        /* \"#utility.yul\":385:388   */\n      dup6\n        /* \"#utility.yul\":377:381   */\n      0x20\n        /* \"#utility.yul\":369:375   */\n      dup7\n        /* \"#utility.yul\":365:382   */\n      mul\n        /* \"#utility.yul\":360:363   */\n      dup3\n        /* \"#utility.yul\":356:383   */\n      add\n        /* \"#utility.yul\":353:389   */\n      gt\n        /* \"#utility.yul\":350:493   */\n      iszero\n      tag_383\n      jumpi\n        /* \"#utility.yul\":404:483   */\n      tag_384\n      tag_385\n      jump\t// in\n    tag_384:\n        /* \"#utility.yul\":350:493   */\n    tag_383:\n        /* \"#utility.yul\":517:518   */\n      0x00\n        /* \"#utility.yul\":502:740   */\n    tag_386:\n        /* \"#utility.yul\":527:533   */\n      dup6\n        /* \"#utility.yul\":524:525   */\n      dup2\n        /* \"#utility.yul\":521:534   */\n      lt\n        /* \"#utility.yul\":502:740   */\n      iszero\n      tag_388\n      jumpi\n        /* \"#utility.yul\":595:598   */\n      dup2\n        /* \"#utility.yul\":624:661   */\n      tag_389\n        /* \"#utility.yul\":657:660   */\n      dup9\n        /* \"#utility.yul\":645:655   */\n      dup3\n        /* \"#utility.yul\":624:661   */\n      tag_390\n      jump\t// in\n    tag_389:\n        /* \"#utility.yul\":619:622   */\n      dup5\n        /* \"#utility.yul\":612:662   */\n      mstore\n        /* \"#utility.yul\":691:695   */\n      0x20\n        /* \"#utility.yul\":686:689   */\n      dup5\n        /* \"#utility.yul\":682:696   */\n      add\n        /* \"#utility.yul\":675:696   */\n      swap4\n      pop\n        /* \"#utility.yul\":725:729   */\n      0x20\n        /* \"#utility.yul\":720:723   */\n      dup4\n        /* \"#utility.yul\":716:730   */\n      add\n        /* \"#utility.yul\":709:730   */\n      swap3\n      pop\n        /* \"#utility.yul\":562:740   */\n      pop\n        /* \"#utility.yul\":549:550   */\n      0x01\n        /* \"#utility.yul\":546:547   */\n      dup2\n        /* \"#utility.yul\":542:551   */\n      add\n        /* \"#utility.yul\":537:551   */\n      swap1\n      pop\n        /* \"#utility.yul\":502:740   */\n      jump(tag_386)\n    tag_388:\n        /* \"#utility.yul\":506:520   */\n      pop\n        /* \"#utility.yul\":126:746   */\n      pop\n      pop\n        /* \"#utility.yul\":24:746   */\n      swap4\n      swap3\n      pop\n      pop\n      pop\n      jump\t// out\n        /* \"#utility.yul\":752:1162   */\n    tag_391:\n        /* \"#utility.yul\":829:834   */\n      0x00\n        /* \"#utility.yul\":854:919   */\n      tag_393\n        /* \"#utility.yul\":870:918   */\n      tag_394\n        /* \"#utility.yul\":911:917   */\n      dup5\n        /* \"#utility.yul\":870:918   */\n      tag_395\n      jump\t// in\n    tag_394:\n        /* \"#utility.yul\":854:919   */\n      tag_382\n      jump\t// in\n    tag_393:\n        /* \"#utility.yul\":845:919   */\n      swap1\n      pop\n        /* \"#utility.yul\":942:948   */\n      dup3\n        /* \"#utility.yul\":935:940   */\n      dup2\n        /* \"#utility.yul\":928:949   */\n      mstore\n        /* \"#utility.yul\":980:984   */\n      0x20\n        /* \"#utility.yul\":973:978   */\n      dup2\n        /* \"#utility.yul\":969:985   */\n      add\n        /* \"#utility.yul\":1018:1021   */\n      dup5\n        /* \"#utility.yul\":1009:1015   */\n      dup5\n        /* \"#utility.yul\":1004:1007   */\n      dup5\n        /* \"#utility.yul\":1000:1016   */\n      add\n        /* \"#utility.yul\":997:1022   */\n      gt\n        /* \"#utility.yul\":994:1106   */\n      iszero\n      tag_396\n      jumpi\n        /* \"#utility.yul\":1025:1104   */\n      tag_397\n      tag_398\n      jump\t// in\n    tag_397:\n        /* \"#utility.yul\":994:1106   */\n    tag_396:\n        /* \"#utility.yul\":1115:1156   */\n      tag_399\n        /* \"#utility.yul\":1149:1155   */\n      dup5\n        /* \"#utility.yul\":1144:1147   */\n      dup3\n        /* \"#utility.yul\":1139:1142   */\n      dup6\n        /* \"#utility.yul\":1115:1156   */\n      tag_400\n      jump\t// in\n    tag_399:\n        /* \"#utility.yul\":835:1162   */\n      pop\n        /* \"#utility.yul\":752:1162   */\n      swap4\n      swap3\n      pop\n      pop\n      pop\n      jump\t// out\n        /* \"#utility.yul\":1168:1580   */\n    tag_401:\n        /* \"#utility.yul\":1246:1251   */\n      0x00\n        /* \"#utility.yul\":1271:1337   */\n      tag_403\n        /* \"#utility.yul\":1287:1336   */\n      tag_404\n        /* \"#utility.yul\":1329:1335   */\n      dup5\n        /* \"#utility.yul\":1287:1336   */\n      tag_405\n      jump\t// in\n    tag_404:\n        /* \"#utility.yul\":1271:1337   */\n      tag_382\n      jump\t// in\n    tag_403:\n        /* \"#utility.yul\":1262:1337   */\n      swap1\n      pop\n        /* \"#utility.yul\":1360:1366   */\n      dup3\n        /* \"#utility.yul\":1353:1358   */\n      dup2\n        /* \"#utility.yul\":1346:1367   */\n      mstore\n        /* \"#utility.yul\":1398:1402   */\n      0x20\n        /* \"#utility.yul\":1391:1396   */\n      dup2\n        /* \"#utility.yul\":1387:1403   */\n      add\n        /* \"#utility.yul\":1436:1439   */\n      dup5\n        /* \"#utility.yul\":1427:1433   */\n      dup5\n        /* \"#utility.yul\":1422:1425   */\n      dup5\n        /* \"#utility.yul\":1418:1434   */\n      add\n        /* \"#utility.yul\":1415:1440   */\n      gt\n        /* \"#utility.yul\":1412:1524   */\n      iszero\n      tag_406\n      jumpi\n        /* \"#utility.yul\":1443:1522   */\n      tag_407\n      tag_398\n      jump\t// in\n    tag_407:\n        /* \"#utility.yul\":1412:1524   */\n    tag_406:\n        /* \"#utility.yul\":1533:1574   */\n      tag_408\n        /* \"#utility.yul\":1567:1573   */\n      dup5\n        /* \"#utility.yul\":1562:1565   */\n      dup3\n        /* \"#utility.yul\":1557:1560   */\n      dup6\n        /* \"#utility.yul\":1533:1574   */\n      tag_400\n      jump\t// in\n    tag_408:\n        /* \"#utility.yul\":1252:1580   */\n      pop\n        /* \"#utility.yul\":1168:1580   */\n      swap4\n      swap3\n      pop\n      pop\n      pop\n      jump\t// out\n        /* \"#utility.yul\":1586:1725   */\n    tag_409:\n        /* \"#utility.yul\":1632:1637   */\n      0x00\n        /* \"#utility.yul\":1670:1676   */\n      dup2\n        /* \"#utility.yul\":1657:1677   */\n      calldataload\n        /* \"#utility.yul\":1648:1677   */\n      swap1\n      pop\n        /* \"#utility.yul\":1686:1719   */\n      tag_411\n        /* \"#utility.yul\":1713:1718   */\n      dup2\n        /* \"#utility.yul\":1686:1719   */\n      tag_412\n      jump\t// in\n    tag_411:\n        /* \"#utility.yul\":1586:1725   */\n      swap3\n      swap2\n      pop\n      pop\n      jump\t// out\n        /* \"#utility.yul\":1748:2118   */\n    tag_413:\n        /* \"#utility.yul\":1819:1824   */\n      0x00\n        /* \"#utility.yul\":1868:1871   */\n      dup3\n        /* \"#utility.yul\":1861:1865   */\n      0x1f\n        /* \"#utility.yul\":1853:1859   */\n      dup4\n        /* \"#utility.yul\":1849:1866   */\n      add\n        /* \"#utility.yul\":1845:1872   */\n      slt\n        /* \"#utility.yul\":1835:1957   */\n      tag_415\n      jumpi\n        /* \"#utility.yul\":1876:1955   */\n      tag_416\n      tag_417\n      jump\t// in\n    tag_416:\n        /* \"#utility.yul\":1835:1957   */\n    tag_415:\n        /* \"#utility.yul\":1993:1999   */\n      dup2\n        /* \"#utility.yul\":1980:2000   */\n      calldataload\n        /* \"#utility.yul\":2018:2112   */\n      tag_418\n        /* \"#utility.yul\":2108:2111   */\n      dup5\n        /* \"#utility.yul\":2100:2106   */\n      dup3\n        /* \"#utility.yul\":2093:2097   */\n      0x20\n        /* \"#utility.yul\":2085:2091   */\n      dup7\n        /* \"#utility.yul\":2081:2098   */\n      add\n        /* \"#utility.yul\":2018:2112   */\n      tag_377\n      jump\t// in\n    tag_418:\n        /* \"#utility.yul\":2009:2112   */\n      swap2\n      pop\n        /* \"#utility.yul\":1825:2118   */\n      pop\n        /* \"#utility.yul\":1748:2118   */\n      swap3\n      swap2\n      pop\n      pop\n      jump\t// out\n        /* \"#utility.yul\":2124:2257   */\n    tag_419:\n        /* \"#utility.yul\":2167:2172   */\n      0x00\n        /* \"#utility.yul\":2205:2211   */\n      dup2\n        /* \"#utility.yul\":2192:2212   */\n      calldataload\n        /* \"#utility.yul\":2183:2212   */\n      swap1\n      pop\n        /* \"#utility.yul\":2221:2251   */\n      tag_421\n        /* \"#utility.yul\":2245:2250   */\n      dup2\n        /* \"#utility.yul\":2221:2251   */\n      tag_422\n      jump\t// in\n    tag_421:\n        /* \"#utility.yul\":2124:2257   */\n      swap3\n      swap2\n      pop\n      pop\n      jump\t// out\n        /* \"#utility.yul\":2263:2400   */\n    tag_423:\n        /* \"#utility.yul\":2317:2322   */\n      0x00\n        /* \"#utility.yul\":2348:2354   */\n      dup2\n        /* \"#utility.yul\":2342:2355   */\n      mload\n        /* \"#utility.yul\":2333:2355   */\n      swap1\n      pop\n        /* \"#utility.yul\":2364:2394   */\n      tag_425\n        /* \"#utility.yul\":2388:2393   */\n      dup2\n        /* \"#utility.yul\":2364:2394   */\n      tag_422\n      jump\t// in\n    tag_425:\n        /* \"#utility.yul\":2263:2400   */\n      swap3\n      swap2\n      pop\n      pop\n      jump\t// out\n        /* \"#utility.yul\":2406:2543   */\n    tag_426:\n        /* \"#utility.yul\":2451:2456   */\n      0x00\n        /* \"#utility.yul\":2489:2495   */\n      dup2\n        /* \"#utility.yul\":2476:2496   */\n      calldataload\n        /* \"#utility.yul\":2467:2496   */\n      swap1\n      pop\n        /* \"#utility.yul\":2505:2537   */\n      tag_428\n        /* \"#utility.yul\":2531:2536   */\n      dup2\n        /* \"#utility.yul\":2505:2537   */\n      tag_429\n      jump\t// in\n    tag_428:\n        /* \"#utility.yul\":2406:2543   */\n      swap3\n      swap2\n      pop\n      pop\n      jump\t// out\n        /* \"#utility.yul\":2562:2900   */\n    tag_430:\n        /* \"#utility.yul\":2617:2622   */\n      0x00\n        /* \"#utility.yul\":2666:2669   */\n      dup3\n        /* \"#utility.yul\":2659:2663   */\n      0x1f\n        /* \"#utility.yul\":2651:2657   */\n      dup4\n        /* \"#utility.yul\":2647:2664   */\n      add\n        /* \"#utility.yul\":2643:2670   */\n      slt\n        /* \"#utility.yul\":2633:2755   */\n      tag_432\n      jumpi\n        /* \"#utility.yul\":2674:2753   */\n      tag_433\n      tag_417\n      jump\t// in\n    tag_433:\n        /* \"#utility.yul\":2633:2755   */\n    tag_432:\n        /* \"#utility.yul\":2791:2797   */\n      dup2\n        /* \"#utility.yul\":2778:2798   */\n      calldataload\n        /* \"#utility.yul\":2816:2894   */\n      tag_434\n        /* \"#utility.yul\":2890:2893   */\n      dup5\n        /* \"#utility.yul\":2882:2888   */\n      dup3\n        /* \"#utility.yul\":2875:2879   */\n      0x20\n        /* \"#utility.yul\":2867:2873   */\n      dup7\n        /* \"#utility.yul\":2863:2880   */\n      add\n        /* \"#utility.yul\":2816:2894   */\n      tag_391\n      jump\t// in\n    tag_434:\n        /* \"#utility.yul\":2807:2894   */\n      swap2\n      pop\n        /* \"#utility.yul\":2623:2900   */\n      pop\n        /* \"#utility.yul\":2562:2900   */\n      swap3\n      swap2\n      pop\n      pop\n      jump\t// out\n        /* \"#utility.yul\":2920:3260   */\n    tag_435:\n        /* \"#utility.yul\":2976:2981   */\n      0x00\n        /* \"#utility.yul\":3025:3028   */\n      dup3\n        /* \"#utility.yul\":3018:3022   */\n      0x1f\n        /* \"#utility.yul\":3010:3016   */\n      dup4\n        /* \"#utility.yul\":3006:3023   */\n      add\n        /* \"#utility.yul\":3002:3029   */\n      slt\n        /* \"#utility.yul\":2992:3114   */\n      tag_437\n      jumpi\n        /* \"#utility.yul\":3033:3112   */\n      tag_438\n      tag_417\n      jump\t// in\n    tag_438:\n        /* \"#utility.yul\":2992:3114   */\n    tag_437:\n        /* \"#utility.yul\":3150:3156   */\n      dup2\n        /* \"#utility.yul\":3137:3157   */\n      calldataload\n        /* \"#utility.yul\":3175:3254   */\n      tag_439\n        /* \"#utility.yul\":3250:3253   */\n      dup5\n        /* \"#utility.yul\":3242:3248   */\n      dup3\n        /* \"#utility.yul\":3235:3239   */\n      0x20\n        /* \"#utility.yul\":3227:3233   */\n      dup7\n        /* \"#utility.yul\":3223:3240   */\n      add\n        /* \"#utility.yul\":3175:3254   */\n      tag_401\n      jump\t// in\n    tag_439:\n        /* \"#utility.yul\":3166:3254   */\n      swap2\n      pop\n        /* \"#utility.yul\":2982:3260   */\n      pop\n        /* \"#utility.yul\":2920:3260   */\n      swap3\n      swap2\n      pop\n      pop\n      jump\t// out\n        /* \"#utility.yul\":3302:4060   */\n    tag_440:\n        /* \"#utility.yul\":3376:3381   */\n      0x00\n        /* \"#utility.yul\":3420:3424   */\n      0x40\n        /* \"#utility.yul\":3408:3417   */\n      dup3\n        /* \"#utility.yul\":3403:3406   */\n      dup5\n        /* \"#utility.yul\":3399:3418   */\n      sub\n        /* \"#utility.yul\":3395:3425   */\n      slt\n        /* \"#utility.yul\":3392:3509   */\n      iszero\n      tag_442\n      jumpi\n        /* \"#utility.yul\":3428:3507   */\n      tag_443\n      tag_444\n      jump\t// in\n    tag_443:\n        /* \"#utility.yul\":3392:3509   */\n    tag_442:\n        /* \"#utility.yul\":3527:3548   */\n      tag_445\n        /* \"#utility.yul\":3543:3547   */\n      0x40\n        /* \"#utility.yul\":3527:3548   */\n      tag_382\n      jump\t// in\n    tag_445:\n        /* \"#utility.yul\":3518:3548   */\n      swap1\n      pop\n        /* \"#utility.yul\":3645:3646   */\n      0x00\n        /* \"#utility.yul\":3634:3643   */\n      dup3\n        /* \"#utility.yul\":3630:3647   */\n      add\n        /* \"#utility.yul\":3617:3648   */\n      calldataload\n        /* \"#utility.yul\":3675:3693   */\n      0xffffffffffffffff\n        /* \"#utility.yul\":3667:3673   */\n      dup2\n        /* \"#utility.yul\":3664:3694   */\n      gt\n        /* \"#utility.yul\":3661:3778   */\n      iszero\n      tag_446\n      jumpi\n        /* \"#utility.yul\":3697:3776   */\n      tag_447\n      tag_448\n      jump\t// in\n    tag_447:\n        /* \"#utility.yul\":3661:3778   */\n    tag_446:\n        /* \"#utility.yul\":3817:3876   */\n      tag_449\n        /* \"#utility.yul\":3872:3875   */\n      dup5\n        /* \"#utility.yul\":3863:3869   */\n      dup3\n        /* \"#utility.yul\":3852:3861   */\n      dup6\n        /* \"#utility.yul\":3848:3870   */\n      add\n        /* \"#utility.yul\":3817:3876   */\n      tag_435\n      jump\t// in\n    tag_449:\n        /* \"#utility.yul\":3810:3814   */\n      0x00\n        /* \"#utility.yul\":3803:3808   */\n      dup4\n        /* \"#utility.yul\":3799:3815   */\n      add\n        /* \"#utility.yul\":3792:3877   */\n      mstore\n        /* \"#utility.yul\":3558:3888   */\n      pop\n        /* \"#utility.yul\":3954:3956   */\n      0x20\n        /* \"#utility.yul\":3995:4041   */\n      tag_450\n        /* \"#utility.yul\":4037:4040   */\n      dup5\n        /* \"#utility.yul\":4028:4034   */\n      dup3\n        /* \"#utility.yul\":4017:4026   */\n      dup6\n        /* \"#utility.yul\":4013:4035   */\n      add\n        /* \"#utility.yul\":3995:4041   */\n      tag_419\n      jump\t// in\n    tag_450:\n        /* \"#utility.yul\":3988:3992   */\n      0x20\n        /* \"#utility.yul\":3981:3986   */\n      dup4\n        /* \"#utility.yul\":3977:3993   */\n      add\n        /* \"#utility.yul\":3970:4042   */\n      mstore\n        /* \"#utility.yul\":3898:4053   */\n      pop\n        /* \"#utility.yul\":3302:4060   */\n      swap3\n      swap2\n      pop\n      pop\n      jump\t// out\n        /* \"#utility.yul\":4066:4205   */\n    tag_390:\n        /* \"#utility.yul\":4112:4117   */\n      0x00\n        /* \"#utility.yul\":4150:4156   */\n      dup2\n        /* \"#utility.yul\":4137:4157   */\n      calldataload\n        /* \"#utility.yul\":4128:4157   */\n      swap1\n      pop\n        /* \"#utility.yul\":4166:4199   */\n      tag_452\n        /* \"#utility.yul\":4193:4198   */\n      dup2\n        /* \"#utility.yul\":4166:4199   */\n      tag_453\n      jump\t// in\n    tag_452:\n        /* \"#utility.yul\":4066:4205   */\n      swap3\n      swap2\n      pop\n      pop\n      jump\t// out\n        /* \"#utility.yul\":4211:4354   */\n    tag_454:\n        /* \"#utility.yul\":4268:4273   */\n      0x00\n        /* \"#utility.yul\":4299:4305   */\n      dup2\n        /* \"#utility.yul\":4293:4306   */\n      mload\n        /* \"#utility.yul\":4284:4306   */\n      swap1\n      pop\n        /* \"#utility.yul\":4315:4348   */\n      tag_456\n        /* \"#utility.yul\":4342:4347   */\n      dup2\n        /* \"#utility.yul\":4315:4348   */\n      tag_453\n      jump\t// in\n    tag_456:\n        /* \"#utility.yul\":4211:4354   */\n      swap3\n      swap2\n      pop\n      pop\n      jump\t// out\n        /* \"#utility.yul\":4360:4689   */\n    tag_38:\n        /* \"#utility.yul\":4419:4425   */\n      0x00\n        /* \"#utility.yul\":4468:4470   */\n      0x20\n        /* \"#utility.yul\":4456:4465   */\n      dup3\n        /* \"#utility.yul\":4447:4454   */\n      dup5\n        /* \"#utility.yul\":4443:4466   */\n      sub\n        /* \"#utility.yul\":4439:4471   */\n      slt\n        /* \"#utility.yul\":4436:4555   */\n      iszero\n      tag_458\n      jumpi\n        /* \"#utility.yul\":4474:4553   */\n      tag_459\n      tag_460\n      jump\t// in\n    tag_459:\n        /* \"#utility.yul\":4436:4555   */\n    tag_458:\n        /* \"#utility.yul\":4594:4595   */\n      0x00\n        /* \"#utility.yul\":4619:4672   */\n      tag_461\n        /* \"#utility.yul\":4664:4671   */\n      dup5\n        /* \"#utility.yul\":4655:4661   */\n      dup3\n        /* \"#utility.yul\":4644:4653   */\n      dup6\n        /* \"#utility.yul\":4640:4662   */\n      add\n        /* \"#utility.yul\":4619:4672   */\n      tag_409\n      jump\t// in\n    tag_461:\n        /* \"#utility.yul\":4609:4672   */\n      swap2\n      pop\n        /* \"#utility.yul\":4565:4682   */\n      pop\n        /* \"#utility.yul\":4360:4689   */\n      swap3\n      swap2\n      pop\n      pop\n      jump\t// out\n        /* \"#utility.yul\":4695:6204   */\n    tag_82:\n        /* \"#utility.yul\":4849:4855   */\n      0x00\n        /* \"#utility.yul\":4857:4863   */\n      dup1\n        /* \"#utility.yul\":4865:4871   */\n      0x00\n        /* \"#utility.yul\":4873:4879   */\n      dup1\n        /* \"#utility.yul\":4881:4887   */\n      0x00\n        /* \"#utility.yul\":4930:4933   */\n      0xa0\n        /* \"#utility.yul\":4918:4927   */\n      dup7\n        /* \"#utility.yul\":4909:4916   */\n      dup9\n        /* \"#utility.yul\":4905:4928   */\n      sub\n        /* \"#utility.yul\":4901:4934   */\n      slt\n        /* \"#utility.yul\":4898:5018   */\n      iszero\n      tag_463\n      jumpi\n        /* \"#utility.yul\":4937:5016   */\n      tag_464\n      tag_460\n      jump\t// in\n    tag_464:\n        /* \"#utility.yul\":4898:5018   */\n    tag_463:\n        /* \"#utility.yul\":5057:5058   */\n      0x00\n        /* \"#utility.yul\":5082:5135   */\n      tag_465\n        /* \"#utility.yul\":5127:5134   */\n      dup9\n        /* \"#utility.yul\":5118:5124   */\n      dup3\n        /* \"#utility.yul\":5107:5116   */\n      dup10\n        /* \"#utility.yul\":5103:5125   */\n      add\n        /* \"#utility.yul\":5082:5135   */\n      tag_409\n      jump\t// in\n    tag_465:\n        /* \"#utility.yul\":5072:5135   */\n      swap6\n      pop\n        /* \"#utility.yul\":5028:5145   */\n      pop\n        /* \"#utility.yul\":5184:5186   */\n      0x20\n        /* \"#utility.yul\":5210:5263   */\n      tag_466\n        /* \"#utility.yul\":5255:5262   */\n      dup9\n        /* \"#utility.yul\":5246:5252   */\n      dup3\n        /* \"#utility.yul\":5235:5244   */\n      dup10\n        /* \"#utility.yul\":5231:5253   */\n      add\n        /* \"#utility.yul\":5210:5263   */\n      tag_409\n      jump\t// in\n    tag_466:\n        /* \"#utility.yul\":5200:5263   */\n      swap5\n      pop\n        /* \"#utility.yul\":5155:5273   */\n      pop\n        /* \"#utility.yul\":5340:5342   */\n      0x40\n        /* \"#utility.yul\":5329:5338   */\n      dup7\n        /* \"#utility.yul\":5325:5343   */\n      add\n        /* \"#utility.yul\":5312:5344   */\n      calldataload\n        /* \"#utility.yul\":5371:5389   */\n      0xffffffffffffffff\n        /* \"#utility.yul\":5363:5369   */\n      dup2\n        /* \"#utility.yul\":5360:5390   */\n      gt\n        /* \"#utility.yul\":5357:5474   */\n      iszero\n      tag_467\n      jumpi\n        /* \"#utility.yul\":5393:5472   */\n      tag_468\n      tag_469\n      jump\t// in\n    tag_468:\n        /* \"#utility.yul\":5357:5474   */\n    tag_467:\n        /* \"#utility.yul\":5498:5576   */\n      tag_470\n        /* \"#utility.yul\":5568:5575   */\n      dup9\n        /* \"#utility.yul\":5559:5565   */\n      dup3\n        /* \"#utility.yul\":5548:5557   */\n      dup10\n        /* \"#utility.yul\":5544:5566   */\n      add\n        /* \"#utility.yul\":5498:5576   */\n      tag_413\n      jump\t// in\n    tag_470:\n        /* \"#utility.yul\":5488:5576   */\n      swap4\n      pop\n        /* \"#utility.yul\":5283:5586   */\n      pop\n        /* \"#utility.yul\":5653:5655   */\n      0x60\n        /* \"#utility.yul\":5642:5651   */\n      dup7\n        /* \"#utility.yul\":5638:5656   */\n      add\n        /* \"#utility.yul\":5625:5657   */\n      calldataload\n        /* \"#utility.yul\":5684:5702   */\n      0xffffffffffffffff\n        /* \"#utility.yul\":5676:5682   */\n      dup2\n        /* \"#utility.yul\":5673:5703   */\n      gt\n        /* \"#utility.yul\":5670:5787   */\n      iszero\n      tag_471\n      jumpi\n        /* \"#utility.yul\":5706:5785   */\n      tag_472\n      tag_469\n      jump\t// in\n    tag_472:\n        /* \"#utility.yul\":5670:5787   */\n    tag_471:\n        /* \"#utility.yul\":5811:5889   */\n      tag_473\n        /* \"#utility.yul\":5881:5888   */\n      dup9\n        /* \"#utility.yul\":5872:5878   */\n      dup3\n        /* \"#utility.yul\":5861:5870   */\n      dup10\n        /* \"#utility.yul\":5857:5879   */\n      add\n        /* \"#utility.yul\":5811:5889   */\n      tag_413\n      jump\t// in\n    tag_473:\n        /* \"#utility.yul\":5801:5889   */\n      swap3\n      pop\n        /* \"#utility.yul\":5596:5899   */\n      pop\n        /* \"#utility.yul\":5966:5969   */\n      0x80\n        /* \"#utility.yul\":5955:5964   */\n      dup7\n        /* \"#utility.yul\":5951:5970   */\n      add\n        /* \"#utility.yul\":5938:5971   */\n      calldataload\n        /* \"#utility.yul\":5998:6016   */\n      0xffffffffffffffff\n        /* \"#utility.yul\":5990:5996   */\n      dup2\n        /* \"#utility.yul\":5987:6017   */\n      gt\n        /* \"#utility.yul\":5984:6101   */\n      iszero\n      tag_474\n      jumpi\n        /* \"#utility.yul\":6020:6099   */\n      tag_475\n      tag_469\n      jump\t// in\n    tag_475:\n        /* \"#utility.yul\":5984:6101   */\n    tag_474:\n        /* \"#utility.yul\":6125:6187   */\n      tag_476\n        /* \"#utility.yul\":6179:6186   */\n      dup9\n        /* \"#utility.yul\":6170:6176   */\n      dup3\n        /* \"#utility.yul\":6159:6168   */\n      dup10\n        /* \"#utility.yul\":6155:6177   */\n      add\n        /* \"#utility.yul\":6125:6187   */\n      tag_430\n      jump\t// in\n    tag_476:\n        /* \"#utility.yul\":6115:6187   */\n      swap2\n      pop\n        /* \"#utility.yul\":5909:6197   */\n      pop\n        /* \"#utility.yul\":4695:6204   */\n      swap3\n      swap6\n      pop\n      swap3\n      swap6\n      swap1\n      swap4\n      pop\n      jump\t// out\n        /* \"#utility.yul\":6210:7299   */\n    tag_95:\n        /* \"#utility.yul\":6314:6320   */\n      0x00\n        /* \"#utility.yul\":6322:6328   */\n      dup1\n        /* \"#utility.yul\":6330:6336   */\n      0x00\n        /* \"#utility.yul\":6338:6344   */\n      dup1\n        /* \"#utility.yul\":6346:6352   */\n      0x00\n        /* \"#utility.yul\":6395:6398   */\n      0xa0\n        /* \"#utility.yul\":6383:6392   */\n      dup7\n        /* \"#utility.yul\":6374:6381   */\n      dup9\n        /* \"#utility.yul\":6370:6393   */\n      sub\n        /* \"#utility.yul\":6366:6399   */\n      slt\n        /* \"#utility.yul\":6363:6483   */\n      iszero\n      tag_478\n      jumpi\n        /* \"#utility.yul\":6402:6481   */\n      tag_479\n      tag_460\n      jump\t// in\n    tag_479:\n        /* \"#utility.yul\":6363:6483   */\n    tag_478:\n        /* \"#utility.yul\":6522:6523   */\n      0x00\n        /* \"#utility.yul\":6547:6600   */\n      tag_480\n        /* \"#utility.yul\":6592:6599   */\n      dup9\n        /* \"#utility.yul\":6583:6589   */\n      dup3\n        /* \"#utility.yul\":6572:6581   */\n      dup10\n        /* \"#utility.yul\":6568:6590   */\n      add\n        /* \"#utility.yul\":6547:6600   */\n      tag_409\n      jump\t// in\n    tag_480:\n        /* \"#utility.yul\":6537:6600   */\n      swap6\n      pop\n        /* \"#utility.yul\":6493:6610   */\n      pop\n        /* \"#utility.yul\":6649:6651   */\n      0x20\n        /* \"#utility.yul\":6675:6728   */\n      tag_481\n        /* \"#utility.yul\":6720:6727   */\n      dup9\n        /* \"#utility.yul\":6711:6717   */\n      dup3\n        /* \"#utility.yul\":6700:6709   */\n      dup10\n        /* \"#utility.yul\":6696:6718   */\n      add\n        /* \"#utility.yul\":6675:6728   */\n      tag_409\n      jump\t// in\n    tag_481:\n        /* \"#utility.yul\":6665:6728   */\n      swap5\n      pop\n        /* \"#utility.yul\":6620:6738   */\n      pop\n        /* \"#utility.yul\":6777:6779   */\n      0x40\n        /* \"#utility.yul\":6803:6856   */\n      tag_482\n        /* \"#utility.yul\":6848:6855   */\n      dup9\n        /* \"#utility.yul\":6839:6845   */\n      dup3\n        /* \"#utility.yul\":6828:6837   */\n      dup10\n        /* \"#utility.yul\":6824:6846   */\n      add\n        /* \"#utility.yul\":6803:6856   */\n      tag_390\n      jump\t// in\n    tag_482:\n        /* \"#utility.yul\":6793:6856   */\n      swap4\n      pop\n        /* \"#utility.yul\":6748:6866   */\n      pop\n        /* \"#utility.yul\":6905:6907   */\n      0x60\n        /* \"#utility.yul\":6931:6984   */\n      tag_483\n        /* \"#utility.yul\":6976:6983   */\n      dup9\n        /* \"#utility.yul\":6967:6973   */\n      dup3\n        /* \"#utility.yul\":6956:6965   */\n      dup10\n        /* \"#utility.yul\":6952:6974   */\n      add\n        /* \"#utility.yul\":6931:6984   */\n      tag_390\n      jump\t// in\n    tag_483:\n        /* \"#utility.yul\":6921:6984   */\n      swap3\n      pop\n        /* \"#utility.yul\":6876:6994   */\n      pop\n        /* \"#utility.yul\":7061:7064   */\n      0x80\n        /* \"#utility.yul\":7050:7059   */\n      dup7\n        /* \"#utility.yul\":7046:7065   */\n      add\n        /* \"#utility.yul\":7033:7066   */\n      calldataload\n        /* \"#utility.yul\":7093:7111   */\n      0xffffffffffffffff\n        /* \"#utility.yul\":7085:7091   */\n      dup2\n        /* \"#utility.yul\":7082:7112   */\n      gt\n        /* \"#utility.yul\":7079:7196   */\n      iszero\n      tag_484\n      jumpi\n        /* \"#utility.yul\":7115:7194   */\n      tag_485\n      tag_469\n      jump\t// in\n    tag_485:\n        /* \"#utility.yul\":7079:7196   */\n    tag_484:\n        /* \"#utility.yul\":7220:7282   */\n      tag_486\n        /* \"#utility.yul\":7274:7281   */\n      dup9\n        /* \"#utility.yul\":7265:7271   */\n      dup3\n        /* \"#utility.yul\":7254:7263   */\n      dup10\n        /* \"#utility.yul\":7250:7272   */\n      add\n        /* \"#utility.yul\":7220:7282   */\n      tag_430\n      jump\t// in\n    tag_486:\n        /* \"#utility.yul\":7210:7282   */\n      swap2\n      pop\n        /* \"#utility.yul\":7004:7292   */\n      pop\n        /* \"#utility.yul\":6210:7299   */\n      swap3\n      swap6\n      pop\n      swap3\n      swap6\n      swap1\n      swap4\n      pop\n      jump\t// out\n        /* \"#utility.yul\":7305:7650   */\n    tag_207:\n        /* \"#utility.yul\":7372:7378   */\n      0x00\n        /* \"#utility.yul\":7421:7423   */\n      0x20\n        /* \"#utility.yul\":7409:7418   */\n      dup3\n        /* \"#utility.yul\":7400:7407   */\n      dup5\n        /* \"#utility.yul\":7396:7419   */\n      sub\n        /* \"#utility.yul\":7392:7424   */\n      slt\n        /* \"#utility.yul\":7389:7508   */\n      iszero\n      tag_488\n      jumpi\n        /* \"#utility.yul\":7427:7506   */\n      tag_489\n      tag_460\n      jump\t// in\n    tag_489:\n        /* \"#utility.yul\":7389:7508   */\n    tag_488:\n        /* \"#utility.yul\":7547:7548   */\n      0x00\n        /* \"#utility.yul\":7572:7633   */\n      tag_490\n        /* \"#utility.yul\":7625:7632   */\n      dup5\n        /* \"#utility.yul\":7616:7622   */\n      dup3\n        /* \"#utility.yul\":7605:7614   */\n      dup6\n        /* \"#utility.yul\":7601:7623   */\n      add\n        /* \"#utility.yul\":7572:7633   */\n      tag_423\n      jump\t// in\n    tag_490:\n        /* \"#utility.yul\":7562:7633   */\n      swap2\n      pop\n        /* \"#utility.yul\":7518:7643   */\n      pop\n        /* \"#utility.yul\":7305:7650   */\n      swap3\n      swap2\n      pop\n      pop\n      jump\t// out\n        /* \"#utility.yul\":7656:7983   */\n    tag_28:\n        /* \"#utility.yul\":7714:7720   */\n      0x00\n        /* \"#utility.yul\":7763:7765   */\n      0x20\n        /* \"#utility.yul\":7751:7760   */\n      dup3\n        /* \"#utility.yul\":7742:7749   */\n      dup5\n        /* \"#utility.yul\":7738:7761   */\n      sub\n        /* \"#utility.yul\":7734:7766   */\n      slt\n        /* \"#utility.yul\":7731:7850   */\n      iszero\n      tag_492\n      jumpi\n        /* \"#utility.yul\":7769:7848   */\n      tag_493\n      tag_460\n      jump\t// in\n    tag_493:\n        /* \"#utility.yul\":7731:7850   */\n    tag_492:\n        /* \"#utility.yul\":7889:7890   */\n      0x00\n        /* \"#utility.yul\":7914:7966   */\n      tag_494\n        /* \"#utility.yul\":7958:7965   */\n      dup5\n        /* \"#utility.yul\":7949:7955   */\n      dup3\n        /* \"#utility.yul\":7938:7947   */\n      dup6\n        /* \"#utility.yul\":7934:7956   */\n      add\n        /* \"#utility.yul\":7914:7966   */\n      tag_426\n      jump\t// in\n    tag_494:\n        /* \"#utility.yul\":7904:7966   */\n      swap2\n      pop\n        /* \"#utility.yul\":7860:7976   */\n      pop\n        /* \"#utility.yul\":7656:7983   */\n      swap3\n      swap2\n      pop\n      pop\n      jump\t// out\n        /* \"#utility.yul\":7989:8818   */\n    tag_91:\n        /* \"#utility.yul\":8091:8097   */\n      0x00\n        /* \"#utility.yul\":8099:8105   */\n      dup1\n        /* \"#utility.yul\":8107:8113   */\n      0x00\n        /* \"#utility.yul\":8156:8158   */\n      0x60\n        /* \"#utility.yul\":8144:8153   */\n      dup5\n        /* \"#utility.yul\":8135:8142   */\n      dup7\n        /* \"#utility.yul\":8131:8154   */\n      sub\n        /* \"#utility.yul\":8127:8159   */\n      slt\n        /* \"#utility.yul\":8124:8243   */\n      iszero\n      tag_496\n      jumpi\n        /* \"#utility.yul\":8162:8241   */\n      tag_497\n      tag_460\n      jump\t// in\n    tag_497:\n        /* \"#utility.yul\":8124:8243   */\n    tag_496:\n        /* \"#utility.yul\":8310:8311   */\n      0x00\n        /* \"#utility.yul\":8299:8308   */\n      dup5\n        /* \"#utility.yul\":8295:8312   */\n      add\n        /* \"#utility.yul\":8282:8313   */\n      calldataload\n        /* \"#utility.yul\":8340:8358   */\n      0xffffffffffffffff\n        /* \"#utility.yul\":8332:8338   */\n      dup2\n        /* \"#utility.yul\":8329:8359   */\n      gt\n        /* \"#utility.yul\":8326:8443   */\n      iszero\n      tag_498\n      jumpi\n        /* \"#utility.yul\":8362:8441   */\n      tag_499\n      tag_469\n      jump\t// in\n    tag_499:\n        /* \"#utility.yul\":8326:8443   */\n    tag_498:\n        /* \"#utility.yul\":8467:8545   */\n      tag_500\n        /* \"#utility.yul\":8537:8544   */\n      dup7\n        /* \"#utility.yul\":8528:8534   */\n      dup3\n        /* \"#utility.yul\":8517:8526   */\n      dup8\n        /* \"#utility.yul\":8513:8535   */\n      add\n        /* \"#utility.yul\":8467:8545   */\n      tag_440\n      jump\t// in\n    tag_500:\n        /* \"#utility.yul\":8457:8545   */\n      swap4\n      pop\n        /* \"#utility.yul\":8253:8555   */\n      pop\n        /* \"#utility.yul\":8594:8596   */\n      0x20\n        /* \"#utility.yul\":8620:8673   */\n      tag_501\n        /* \"#utility.yul\":8665:8672   */\n      dup7\n        /* \"#utility.yul\":8656:8662   */\n      dup3\n        /* \"#utility.yul\":8645:8654   */\n      dup8\n        /* \"#utility.yul\":8641:8663   */\n      add\n        /* \"#utility.yul\":8620:8673   */\n      tag_390\n      jump\t// in\n    tag_501:\n        /* \"#utility.yul\":8610:8673   */\n      swap3\n      pop\n        /* \"#utility.yul\":8565:8683   */\n      pop\n        /* \"#utility.yul\":8722:8724   */\n      0x40\n        /* \"#utility.yul\":8748:8801   */\n      tag_502\n        /* \"#utility.yul\":8793:8800   */\n      dup7\n        /* \"#utility.yul\":8784:8790   */\n      dup3\n        /* \"#utility.yul\":8773:8782   */\n      dup8\n        /* \"#utility.yul\":8769:8791   */\n      add\n        /* \"#utility.yul\":8748:8801   */\n      tag_390\n      jump\t// in\n    tag_502:\n        /* \"#utility.yul\":8738:8801   */\n      swap2\n      pop\n        /* \"#utility.yul\":8693:8811   */\n      pop\n        /* \"#utility.yul\":7989:8818   */\n      swap3\n      pop\n      swap3\n      pop\n      swap3\n      jump\t// out\n        /* \"#utility.yul\":8824:9153   */\n    tag_54:\n        /* \"#utility.yul\":8883:8889   */\n      0x00\n        /* \"#utility.yul\":8932:8934   */\n      0x20\n        /* \"#utility.yul\":8920:8929   */\n      dup3\n        /* \"#utility.yul\":8911:8918   */\n      dup5\n        /* \"#utility.yul\":8907:8930   */\n      sub\n        /* \"#utility.yul\":8903:8935   */\n      slt\n        /* \"#utility.yul\":8900:9019   */\n      iszero\n      tag_504\n      jumpi\n        /* \"#utility.yul\":8938:9017   */\n      tag_505\n      tag_460\n      jump\t// in\n    tag_505:\n        /* \"#utility.yul\":8900:9019   */\n    tag_504:\n        /* \"#utility.yul\":9058:9059   */\n      0x00\n        /* \"#utility.yul\":9083:9136   */\n      tag_506\n        /* \"#utility.yul\":9128:9135   */\n      dup5\n        /* \"#utility.yul\":9119:9125   */\n      dup3\n        /* \"#utility.yul\":9108:9117   */\n      dup6\n        /* \"#utility.yul\":9104:9126   */\n      add\n        /* \"#utility.yul\":9083:9136   */\n      tag_390\n      jump\t// in\n    tag_506:\n        /* \"#utility.yul\":9073:9136   */\n      swap2\n      pop\n        /* \"#utility.yul\":9029:9146   */\n      pop\n        /* \"#utility.yul\":8824:9153   */\n      swap3\n      swap2\n      pop\n      pop\n      jump\t// out\n        /* \"#utility.yul\":9159:9510   */\n    tag_135:\n        /* \"#utility.yul\":9229:9235   */\n      0x00\n        /* \"#utility.yul\":9278:9280   */\n      0x20\n        /* \"#utility.yul\":9266:9275   */\n      dup3\n        /* \"#utility.yul\":9257:9264   */\n      dup5\n        /* \"#utility.yul\":9253:9276   */\n      sub\n        /* \"#utility.yul\":9249:9281   */\n      slt\n        /* \"#utility.yul\":9246:9365   */\n      iszero\n      tag_508\n      jumpi\n        /* \"#utility.yul\":9284:9363   */\n      tag_509\n      tag_460\n      jump\t// in\n    tag_509:\n        /* \"#utility.yul\":9246:9365   */\n    tag_508:\n        /* \"#utility.yul\":9404:9405   */\n      0x00\n        /* \"#utility.yul\":9429:9493   */\n      tag_510\n        /* \"#utility.yul\":9485:9492   */\n      dup5\n        /* \"#utility.yul\":9476:9482   */\n      dup3\n        /* \"#utility.yul\":9465:9474   */\n      dup6\n        /* \"#utility.yul\":9461:9483   */\n      add\n        /* \"#utility.yul\":9429:9493   */\n      tag_454\n      jump\t// in\n    tag_510:\n        /* \"#utility.yul\":9419:9493   */\n      swap2\n      pop\n        /* \"#utility.yul\":9375:9503   */\n      pop\n        /* \"#utility.yul\":9159:9510   */\n      swap3\n      swap2\n      pop\n      pop\n      jump\t// out\n        /* \"#utility.yul\":9516:9990   */\n    tag_76:\n        /* \"#utility.yul\":9584:9590   */\n      0x00\n        /* \"#utility.yul\":9592:9598   */\n      dup1\n        /* \"#utility.yul\":9641:9643   */\n      0x40\n        /* \"#utility.yul\":9629:9638   */\n      dup4\n        /* \"#utility.yul\":9620:9627   */\n      dup6\n        /* \"#utility.yul\":9616:9639   */\n      sub\n        /* \"#utility.yul\":9612:9644   */\n      slt\n        /* \"#utility.yul\":9609:9728   */\n      iszero\n      tag_512\n      jumpi\n        /* \"#utility.yul\":9647:9726   */\n      tag_513\n      tag_460\n      jump\t// in\n    tag_513:\n        /* \"#utility.yul\":9609:9728   */\n    tag_512:\n        /* \"#utility.yul\":9767:9768   */\n      0x00\n        /* \"#utility.yul\":9792:9845   */\n      tag_514\n        /* \"#utility.yul\":9837:9844   */\n      dup6\n        /* \"#utility.yul\":9828:9834   */\n      dup3\n        /* \"#utility.yul\":9817:9826   */\n      dup7\n        /* \"#utility.yul\":9813:9835   */\n      add\n        /* \"#utility.yul\":9792:9845   */\n      tag_390\n      jump\t// in\n    tag_514:\n        /* \"#utility.yul\":9782:9845   */\n      swap3\n      pop\n        /* \"#utility.yul\":9738:9855   */\n      pop\n        /* \"#utility.yul\":9894:9896   */\n      0x20\n        /* \"#utility.yul\":9920:9973   */\n      tag_515\n        /* \"#utility.yul\":9965:9972   */\n      dup6\n        /* \"#utility.yul\":9956:9962   */\n      dup3\n        /* \"#utility.yul\":9945:9954   */\n      dup7\n        /* \"#utility.yul\":9941:9963   */\n      add\n        /* \"#utility.yul\":9920:9973   */\n      tag_409\n      jump\t// in\n    tag_515:\n        /* \"#utility.yul\":9910:9973   */\n      swap2\n      pop\n        /* \"#utility.yul\":9865:9983   */\n      pop\n        /* \"#utility.yul\":9516:9990   */\n      swap3\n      pop\n      swap3\n      swap1\n      pop\n      jump\t// out\n        /* \"#utility.yul\":9996:10761   */\n    tag_61:\n        /* \"#utility.yul\":10082:10088   */\n      0x00\n        /* \"#utility.yul\":10090:10096   */\n      dup1\n        /* \"#utility.yul\":10098:10104   */\n      0x00\n        /* \"#utility.yul\":10106:10112   */\n      dup1\n        /* \"#utility.yul\":10155:10158   */\n      0x80\n        /* \"#utility.yul\":10143:10152   */\n      dup6\n        /* \"#utility.yul\":10134:10141   */\n      dup8\n        /* \"#utility.yul\":10130:10153   */\n      sub\n        /* \"#utility.yul\":10126:10159   */\n      slt\n        /* \"#utility.yul\":10123:10243   */\n      iszero\n      tag_517\n      jumpi\n        /* \"#utility.yul\":10162:10241   */\n      tag_518\n      tag_460\n      jump\t// in\n    tag_518:\n        /* \"#utility.yul\":10123:10243   */\n    tag_517:\n        /* \"#utility.yul\":10282:10283   */\n      0x00\n        /* \"#utility.yul\":10307:10360   */\n      tag_519\n        /* \"#utility.yul\":10352:10359   */\n      dup8\n        /* \"#utility.yul\":10343:10349   */\n      dup3\n        /* \"#utility.yul\":10332:10341   */\n      dup9\n        /* \"#utility.yul\":10328:10350   */\n      add\n        /* \"#utility.yul\":10307:10360   */\n      tag_390\n      jump\t// in\n    tag_519:\n        /* \"#utility.yul\":10297:10360   */\n      swap5\n      pop\n        /* \"#utility.yul\":10253:10370   */\n      pop\n        /* \"#utility.yul\":10409:10411   */\n      0x20\n        /* \"#utility.yul\":10435:10488   */\n      tag_520\n        /* \"#utility.yul\":10480:10487   */\n      dup8\n        /* \"#utility.yul\":10471:10477   */\n      dup3\n        /* \"#utility.yul\":10460:10469   */\n      dup9\n        /* \"#utility.yul\":10456:10478   */\n      add\n        /* \"#utility.yul\":10435:10488   */\n      tag_409\n      jump\t// in\n    tag_520:\n        /* \"#utility.yul\":10425:10488   */\n      swap4\n      pop\n        /* \"#utility.yul\":10380:10498   */\n      pop\n        /* \"#utility.yul\":10537:10539   */\n      0x40\n        /* \"#utility.yul\":10563:10616   */\n      tag_521\n        /* \"#utility.yul\":10608:10615   */\n      dup8\n        /* \"#utility.yul\":10599:10605   */\n      dup3\n        /* \"#utility.yul\":10588:10597   */\n      dup9\n        /* \"#utility.yul\":10584:10606   */\n      add\n        /* \"#utility.yul\":10563:10616   */\n      tag_390\n      jump\t// in\n    tag_521:\n        /* \"#utility.yul\":10553:10616   */\n      swap3\n      pop\n        /* \"#utility.yul\":10508:10626   */\n      pop\n        /* \"#utility.yul\":10665:10667   */\n      0x60\n        /* \"#utility.yul\":10691:10744   */\n      tag_522\n        /* \"#utility.yul\":10736:10743   */\n      dup8\n        /* \"#utility.yul\":10727:10733   */\n      dup3\n        /* \"#utility.yul\":10716:10725   */\n      dup9\n        /* \"#utility.yul\":10712:10734   */\n      add\n        /* \"#utility.yul\":10691:10744   */\n      tag_390\n      jump\t// in\n    tag_522:\n        /* \"#utility.yul\":10681:10744   */\n      swap2\n      pop\n        /* \"#utility.yul\":10636:10754   */\n      pop\n        /* \"#utility.yul\":9996:10761   */\n      swap3\n      swap6\n      swap2\n      swap5\n      pop\n      swap3\n      pop\n      jump\t// out\n        /* \"#utility.yul\":10767:11241   */\n    tag_67:\n        /* \"#utility.yul\":10835:10841   */\n      0x00\n        /* \"#utility.yul\":10843:10849   */\n      dup1\n        /* \"#utility.yul\":10892:10894   */\n      0x40\n        /* \"#utility.yul\":10880:10889   */\n      dup4\n        /* \"#utility.yul\":10871:10878   */\n      dup6\n        /* \"#utility.yul\":10867:10890   */\n      sub\n        /* \"#utility.yul\":10863:10895   */\n      slt\n        /* \"#utility.yul\":10860:10979   */\n      iszero\n      tag_524\n      jumpi\n        /* \"#utility.yul\":10898:10977   */\n      tag_525\n      tag_460\n      jump\t// in\n    tag_525:\n        /* \"#utility.yul\":10860:10979   */\n    tag_524:\n        /* \"#utility.yul\":11018:11019   */\n      0x00\n        /* \"#utility.yul\":11043:11096   */\n      tag_526\n        /* \"#utility.yul\":11088:11095   */\n      dup6\n        /* \"#utility.yul\":11079:11085   */\n      dup3\n        /* \"#utility.yul\":11068:11077   */\n      dup7\n        /* \"#utility.yul\":11064:11086   */\n      add\n        /* \"#utility.yul\":11043:11096   */\n      tag_390\n      jump\t// in\n    tag_526:\n        /* \"#utility.yul\":11033:11096   */\n      swap3\n      pop\n        /* \"#utility.yul\":10989:11106   */\n      pop\n        /* \"#utility.yul\":11145:11147   */\n      0x20\n        /* \"#utility.yul\":11171:11224   */\n      tag_527\n        /* \"#utility.yul\":11216:11223   */\n      dup6\n        /* \"#utility.yul\":11207:11213   */\n      dup3\n        /* \"#utility.yul\":11196:11205   */\n      dup7\n        /* \"#utility.yul\":11192:11214   */\n      add\n        /* \"#utility.yul\":11171:11224   */\n      tag_390\n      jump\t// in\n    tag_527:\n        /* \"#utility.yul\":11161:11224   */\n      swap2\n      pop\n        /* \"#utility.yul\":11116:11234   */\n      pop\n        /* \"#utility.yul\":10767:11241   */\n      swap3\n      pop\n      swap3\n      swap1\n      pop\n      jump\t// out\n        /* \"#utility.yul\":11247:11866   */\n    tag_42:\n        /* \"#utility.yul\":11324:11330   */\n      0x00\n        /* \"#utility.yul\":11332:11338   */\n      dup1\n        /* \"#utility.yul\":11340:11346   */\n      0x00\n        /* \"#utility.yul\":11389:11391   */\n      0x60\n        /* \"#utility.yul\":11377:11386   */\n      dup5\n        /* \"#utility.yul\":11368:11375   */\n      dup7\n        /* \"#utility.yul\":11364:11387   */\n      sub\n        /* \"#utility.yul\":11360:11392   */\n      slt\n        /* \"#utility.yul\":11357:11476   */\n      iszero\n      tag_529\n      jumpi\n        /* \"#utility.yul\":11395:11474   */\n      tag_530\n      tag_460\n      jump\t// in\n    tag_530:\n        /* \"#utility.yul\":11357:11476   */\n    tag_529:\n        /* \"#utility.yul\":11515:11516   */\n      0x00\n        /* \"#utility.yul\":11540:11593   */\n      tag_531\n        /* \"#utility.yul\":11585:11592   */\n      dup7\n        /* \"#utility.yul\":11576:11582   */\n      dup3\n        /* \"#utility.yul\":11565:11574   */\n      dup8\n        /* \"#utility.yul\":11561:11583   */\n      add\n        /* \"#utility.yul\":11540:11593   */\n      tag_390\n      jump\t// in\n    tag_531:\n        /* \"#utility.yul\":11530:11593   */\n      swap4\n      pop\n        /* \"#utility.yul\":11486:11603   */\n      pop\n        /* \"#utility.yul\":11642:11644   */\n      0x20\n        /* \"#utility.yul\":11668:11721   */\n      tag_532\n        /* \"#utility.yul\":11713:11720   */\n      dup7\n        /* \"#utility.yul\":11704:11710   */\n      dup3\n        /* \"#utility.yul\":11693:11702   */\n      dup8\n        /* \"#utility.yul\":11689:11711   */\n      add\n        /* \"#utility.yul\":11668:11721   */\n      tag_390\n      jump\t// in\n    tag_532:\n        /* \"#utility.yul\":11658:11721   */\n      swap3\n      pop\n        /* \"#utility.yul\":11613:11731   */\n      pop\n        /* \"#utility.yul\":11770:11772   */\n      0x40\n        /* \"#utility.yul\":11796:11849   */\n      tag_533\n        /* \"#utility.yul\":11841:11848   */\n      dup7\n        /* \"#utility.yul\":11832:11838   */\n      dup3\n        /* \"#utility.yul\":11821:11830   */\n      dup8\n        /* \"#utility.yul\":11817:11839   */\n      add\n        /* \"#utility.yul\":11796:11849   */\n      tag_390\n      jump\t// in\n    tag_533:\n        /* \"#utility.yul\":11786:11849   */\n      swap2\n      pop\n        /* \"#utility.yul\":11741:11859   */\n      pop\n        /* \"#utility.yul\":11247:11866   */\n      swap3\n      pop\n      swap3\n      pop\n      swap3\n      jump\t// out\n        /* \"#utility.yul\":11872:11990   */\n    tag_534:\n        /* \"#utility.yul\":11959:11983   */\n      tag_536\n        /* \"#utility.yul\":11977:11982   */\n      dup2\n        /* \"#utility.yul\":11959:11983   */\n      tag_537\n      jump\t// in\n    tag_536:\n        /* \"#utility.yul\":11954:11957   */\n      dup3\n        /* \"#utility.yul\":11947:11984   */\n      mstore\n        /* \"#utility.yul\":11872:11990   */\n      pop\n      pop\n      jump\t// out\n        /* \"#utility.yul\":11996:12095   */\n    tag_538:\n        /* \"#utility.yul\":12067:12088   */\n      tag_540\n        /* \"#utility.yul\":12082:12087   */\n      dup2\n        /* \"#utility.yul\":12067:12088   */\n      tag_541\n      jump\t// in\n    tag_540:\n        /* \"#utility.yul\":12062:12065   */\n      dup3\n        /* \"#utility.yul\":12055:12089   */\n      mstore\n        /* \"#utility.yul\":11996:12095   */\n      pop\n      pop\n      jump\t// out\n        /* \"#utility.yul\":12101:12210   */\n    tag_542:\n        /* \"#utility.yul\":12182:12203   */\n      tag_544\n        /* \"#utility.yul\":12197:12202   */\n      dup2\n        /* \"#utility.yul\":12182:12203   */\n      tag_541\n      jump\t// in\n    tag_544:\n        /* \"#utility.yul\":12177:12180   */\n      dup3\n        /* \"#utility.yul\":12170:12204   */\n      mstore\n        /* \"#utility.yul\":12101:12210   */\n      pop\n      pop\n      jump\t// out\n        /* \"#utility.yul\":12216:12334   */\n    tag_545:\n        /* \"#utility.yul\":12303:12327   */\n      tag_547\n        /* \"#utility.yul\":12321:12326   */\n      dup2\n        /* \"#utility.yul\":12303:12327   */\n      tag_548\n      jump\t// in\n    tag_547:\n        /* \"#utility.yul\":12298:12301   */\n      dup3\n        /* \"#utility.yul\":12291:12328   */\n      mstore\n        /* \"#utility.yul\":12216:12334   */\n      pop\n      pop\n      jump\t// out\n        /* \"#utility.yul\":12340:12455   */\n    tag_549:\n        /* \"#utility.yul\":12425:12448   */\n      tag_551\n        /* \"#utility.yul\":12442:12447   */\n      dup2\n        /* \"#utility.yul\":12425:12448   */\n      tag_552\n      jump\t// in\n    tag_551:\n        /* \"#utility.yul\":12420:12423   */\n      dup3\n        /* \"#utility.yul\":12413:12449   */\n      mstore\n        /* \"#utility.yul\":12340:12455   */\n      pop\n      pop\n      jump\t// out\n        /* \"#utility.yul\":12461:12834   */\n    tag_553:\n        /* \"#utility.yul\":12565:12568   */\n      0x00\n        /* \"#utility.yul\":12593:12631   */\n      tag_555\n        /* \"#utility.yul\":12625:12630   */\n      dup3\n        /* \"#utility.yul\":12593:12631   */\n      tag_556\n      jump\t// in\n    tag_555:\n        /* \"#utility.yul\":12647:12735   */\n      tag_557\n        /* \"#utility.yul\":12728:12734   */\n      dup2\n        /* \"#utility.yul\":12723:12726   */\n      dup6\n        /* \"#utility.yul\":12647:12735   */\n      tag_558\n      jump\t// in\n    tag_557:\n        /* \"#utility.yul\":12640:12735   */\n      swap4\n      pop\n        /* \"#utility.yul\":12744:12796   */\n      tag_559\n        /* \"#utility.yul\":12789:12795   */\n      dup2\n        /* \"#utility.yul\":12784:12787   */\n      dup6\n        /* \"#utility.yul\":12777:12781   */\n      0x20\n        /* \"#utility.yul\":12770:12775   */\n      dup7\n        /* \"#utility.yul\":12766:12782   */\n      add\n        /* \"#utility.yul\":12744:12796   */\n      tag_560\n      jump\t// in\n    tag_559:\n        /* \"#utility.yul\":12821:12827   */\n      dup1\n        /* \"#utility.yul\":12816:12819   */\n      dup5\n        /* \"#utility.yul\":12812:12828   */\n      add\n        /* \"#utility.yul\":12805:12828   */\n      swap2\n      pop\n        /* \"#utility.yul\":12569:12834   */\n      pop\n        /* \"#utility.yul\":12461:12834   */\n      swap3\n      swap2\n      pop\n      pop\n      jump\t// out\n        /* \"#utility.yul\":12840:13184   */\n    tag_561:\n        /* \"#utility.yul\":12918:12921   */\n      0x00\n        /* \"#utility.yul\":12946:12985   */\n      tag_563\n        /* \"#utility.yul\":12979:12984   */\n      dup3\n        /* \"#utility.yul\":12946:12985   */\n      tag_564\n      jump\t// in\n    tag_563:\n        /* \"#utility.yul\":13001:13062   */\n      tag_565\n        /* \"#utility.yul\":13055:13061   */\n      dup2\n        /* \"#utility.yul\":13050:13053   */\n      dup6\n        /* \"#utility.yul\":13001:13062   */\n      tag_566\n      jump\t// in\n    tag_565:\n        /* \"#utility.yul\":12994:13062   */\n      swap4\n      pop\n        /* \"#utility.yul\":13071:13123   */\n      tag_567\n        /* \"#utility.yul\":13116:13122   */\n      dup2\n        /* \"#utility.yul\":13111:13114   */\n      dup6\n        /* \"#utility.yul\":13104:13108   */\n      0x20\n        /* \"#utility.yul\":13097:13102   */\n      dup7\n        /* \"#utility.yul\":13093:13109   */\n      add\n        /* \"#utility.yul\":13071:13123   */\n      tag_560\n      jump\t// in\n    tag_567:\n        /* \"#utility.yul\":13148:13177   */\n      tag_568\n        /* \"#utility.yul\":13170:13176   */\n      dup2\n        /* \"#utility.yul\":13148:13177   */\n      tag_569\n      jump\t// in\n    tag_568:\n        /* \"#utility.yul\":13143:13146   */\n      dup5\n        /* \"#utility.yul\":13139:13178   */\n      add\n        /* \"#utility.yul\":13132:13178   */\n      swap2\n      pop\n        /* \"#utility.yul\":12922:13184   */\n      pop\n        /* \"#utility.yul\":12840:13184   */\n      swap3\n      swap2\n      pop\n      pop\n      jump\t// out\n        /* \"#utility.yul\":13190:13554   */\n    tag_570:\n        /* \"#utility.yul\":13278:13281   */\n      0x00\n        /* \"#utility.yul\":13306:13345   */\n      tag_572\n        /* \"#utility.yul\":13339:13344   */\n      dup3\n        /* \"#utility.yul\":13306:13345   */\n      tag_564\n      jump\t// in\n    tag_572:\n        /* \"#utility.yul\":13361:13432   */\n      tag_573\n        /* \"#utility.yul\":13425:13431   */\n      dup2\n        /* \"#utility.yul\":13420:13423   */\n      dup6\n        /* \"#utility.yul\":13361:13432   */\n      tag_574\n      jump\t// in\n    tag_573:\n        /* \"#utility.yul\":13354:13432   */\n      swap4\n      pop\n        /* \"#utility.yul\":13441:13493   */\n      tag_575\n        /* \"#utility.yul\":13486:13492   */\n      dup2\n        /* \"#utility.yul\":13481:13484   */\n      dup6\n        /* \"#utility.yul\":13474:13478   */\n      0x20\n        /* \"#utility.yul\":13467:13472   */\n      dup7\n        /* \"#utility.yul\":13463:13479   */\n      add\n        /* \"#utility.yul\":13441:13493   */\n      tag_560\n      jump\t// in\n    tag_575:\n        /* \"#utility.yul\":13518:13547   */\n      tag_576\n        /* \"#utility.yul\":13540:13546   */\n      dup2\n        /* \"#utility.yul\":13518:13547   */\n      tag_569\n      jump\t// in\n    tag_576:\n        /* \"#utility.yul\":13513:13516   */\n      dup5\n        /* \"#utility.yul\":13509:13548   */\n      add\n        /* \"#utility.yul\":13502:13548   */\n      swap2\n      pop\n        /* \"#utility.yul\":13282:13554   */\n      pop\n        /* \"#utility.yul\":13190:13554   */\n      swap3\n      swap2\n      pop\n      pop\n      jump\t// out\n        /* \"#utility.yul\":13560:13926   */\n    tag_577:\n        /* \"#utility.yul\":13702:13705   */\n      0x00\n        /* \"#utility.yul\":13723:13790   */\n      tag_579\n        /* \"#utility.yul\":13787:13789   */\n      0x23\n        /* \"#utility.yul\":13782:13785   */\n      dup4\n        /* \"#utility.yul\":13723:13790   */\n      tag_574\n      jump\t// in\n    tag_579:\n        /* \"#utility.yul\":13716:13790   */\n      swap2\n      pop\n        /* \"#utility.yul\":13799:13892   */\n      tag_580\n        /* \"#utility.yul\":13888:13891   */\n      dup3\n        /* \"#utility.yul\":13799:13892   */\n      tag_581\n      jump\t// in\n    tag_580:\n        /* \"#utility.yul\":13917:13919   */\n      0x40\n        /* \"#utility.yul\":13912:13915   */\n      dup3\n        /* \"#utility.yul\":13908:13920   */\n      add\n        /* \"#utility.yul\":13901:13920   */\n      swap1\n      pop\n        /* \"#utility.yul\":13560:13926   */\n      swap2\n      swap1\n      pop\n      jump\t// out\n        /* \"#utility.yul\":13932:14298   */\n    tag_582:\n        /* \"#utility.yul\":14074:14077   */\n      0x00\n        /* \"#utility.yul\":14095:14162   */\n      tag_584\n        /* \"#utility.yul\":14159:14161   */\n      0x14\n        /* \"#utility.yul\":14154:14157   */\n      dup4\n        /* \"#utility.yul\":14095:14162   */\n      tag_574\n      jump\t// in\n    tag_584:\n        /* \"#utility.yul\":14088:14162   */\n      swap2\n      pop\n        /* \"#utility.yul\":14171:14264   */\n      tag_585\n        /* \"#utility.yul\":14260:14263   */\n      dup3\n        /* \"#utility.yul\":14171:14264   */\n      tag_586\n      jump\t// in\n    tag_585:\n        /* \"#utility.yul\":14289:14291   */\n      0x20\n        /* \"#utility.yul\":14284:14287   */\n      dup3\n        /* \"#utility.yul\":14280:14292   */\n      add\n        /* \"#utility.yul\":14273:14292   */\n      swap1\n      pop\n        /* \"#utility.yul\":13932:14298   */\n      swap2\n      swap1\n      pop\n      jump\t// out\n        /* \"#utility.yul\":14304:14670   */\n    tag_587:\n        /* \"#utility.yul\":14446:14449   */\n      0x00\n        /* \"#utility.yul\":14467:14534   */\n      tag_589\n        /* \"#utility.yul\":14531:14533   */\n      0x23\n        /* \"#utility.yul\":14526:14529   */\n      dup4\n        /* \"#utility.yul\":14467:14534   */\n      tag_574\n      jump\t// in\n    tag_589:\n        /* \"#utility.yul\":14460:14534   */\n      swap2\n      pop\n        /* \"#utility.yul\":14543:14636   */\n      tag_590\n        /* \"#utility.yul\":14632:14635   */\n      dup3\n        /* \"#utility.yul\":14543:14636   */\n      tag_591\n      jump\t// in\n    tag_590:\n        /* \"#utility.yul\":14661:14663   */\n      0x40\n        /* \"#utility.yul\":14656:14659   */\n      dup3\n        /* \"#utility.yul\":14652:14664   */\n      add\n        /* \"#utility.yul\":14645:14664   */\n      swap1\n      pop\n        /* \"#utility.yul\":14304:14670   */\n      swap2\n      swap1\n      pop\n      jump\t// out\n        /* \"#utility.yul\":14676:15042   */\n    tag_592:\n        /* \"#utility.yul\":14818:14821   */\n      0x00\n        /* \"#utility.yul\":14839:14906   */\n      tag_594\n        /* \"#utility.yul\":14903:14905   */\n      0x1b\n        /* \"#utility.yul\":14898:14901   */\n      dup4\n        /* \"#utility.yul\":14839:14906   */\n      tag_574\n      jump\t// in\n    tag_594:\n        /* \"#utility.yul\":14832:14906   */\n      swap2\n      pop\n        /* \"#utility.yul\":14915:15008   */\n      tag_595\n        /* \"#utility.yul\":15004:15007   */\n      dup3\n        /* \"#utility.yul\":14915:15008   */\n      tag_596\n      jump\t// in\n    tag_595:\n        /* \"#utility.yul\":15033:15035   */\n      0x20\n        /* \"#utility.yul\":15028:15031   */\n      dup3\n        /* \"#utility.yul\":15024:15036   */\n      add\n        /* \"#utility.yul\":15017:15036   */\n      swap1\n      pop\n        /* \"#utility.yul\":14676:15042   */\n      swap2\n      swap1\n      pop\n      jump\t// out\n        /* \"#utility.yul\":15048:15414   */\n    tag_597:\n        /* \"#utility.yul\":15190:15193   */\n      0x00\n        /* \"#utility.yul\":15211:15278   */\n      tag_599\n        /* \"#utility.yul\":15275:15277   */\n      0x26\n        /* \"#utility.yul\":15270:15273   */\n      dup4\n        /* \"#utility.yul\":15211:15278   */\n      tag_574\n      jump\t// in\n    tag_599:\n        /* \"#utility.yul\":15204:15278   */\n      swap2\n      pop\n        /* \"#utility.yul\":15287:15380   */\n      tag_600\n        /* \"#utility.yul\":15376:15379   */\n      dup3\n        /* \"#utility.yul\":15287:15380   */\n      tag_601\n      jump\t// in\n    tag_600:\n        /* \"#utility.yul\":15405:15407   */\n      0x40\n        /* \"#utility.yul\":15400:15403   */\n      dup3\n        /* \"#utility.yul\":15396:15408   */\n      add\n        /* \"#utility.yul\":15389:15408   */\n      swap1\n      pop\n        /* \"#utility.yul\":15048:15414   */\n      swap2\n      swap1\n      pop\n      jump\t// out\n        /* \"#utility.yul\":15420:15786   */\n    tag_602:\n        /* \"#utility.yul\":15562:15565   */\n      0x00\n        /* \"#utility.yul\":15583:15650   */\n      tag_604\n        /* \"#utility.yul\":15647:15649   */\n      0x26\n        /* \"#utility.yul\":15642:15645   */\n      dup4\n        /* \"#utility.yul\":15583:15650   */\n      tag_574\n      jump\t// in\n    tag_604:\n        /* \"#utility.yul\":15576:15650   */\n      swap2\n      pop\n        /* \"#utility.yul\":15659:15752   */\n      tag_605\n        /* \"#utility.yul\":15748:15751   */\n      dup3\n        /* \"#utility.yul\":15659:15752   */\n      tag_606\n      jump\t// in\n    tag_605:\n        /* \"#utility.yul\":15777:15779   */\n      0x40\n        /* \"#utility.yul\":15772:15775   */\n      dup3\n        /* \"#utility.yul\":15768:15780   */\n      add\n        /* \"#utility.yul\":15761:15780   */\n      swap1\n      pop\n        /* \"#utility.yul\":15420:15786   */\n      swap2\n      swap1\n      pop\n      jump\t// out\n        /* \"#utility.yul\":15792:16158   */\n    tag_607:\n        /* \"#utility.yul\":15934:15937   */\n      0x00\n        /* \"#utility.yul\":15955:16022   */\n      tag_609\n        /* \"#utility.yul\":16019:16021   */\n      0x10\n        /* \"#utility.yul\":16014:16017   */\n      dup4\n        /* \"#utility.yul\":15955:16022   */\n      tag_574\n      jump\t// in\n    tag_609:\n        /* \"#utility.yul\":15948:16022   */\n      swap2\n      pop\n        /* \"#utility.yul\":16031:16124   */\n      tag_610\n        /* \"#utility.yul\":16120:16123   */\n      dup3\n        /* \"#utility.yul\":16031:16124   */\n      tag_611\n      jump\t// in\n    tag_610:\n        /* \"#utility.yul\":16149:16151   */\n      0x20\n        /* \"#utility.yul\":16144:16147   */\n      dup3\n        /* \"#utility.yul\":16140:16152   */\n      add\n        /* \"#utility.yul\":16133:16152   */\n      swap1\n      pop\n        /* \"#utility.yul\":15792:16158   */\n      swap2\n      swap1\n      pop\n      jump\t// out\n        /* \"#utility.yul\":16164:16530   */\n    tag_612:\n        /* \"#utility.yul\":16306:16309   */\n      0x00\n        /* \"#utility.yul\":16327:16394   */\n      tag_614\n        /* \"#utility.yul\":16391:16393   */\n      0x1a\n        /* \"#utility.yul\":16386:16389   */\n      dup4\n        /* \"#utility.yul\":16327:16394   */\n      tag_574\n      jump\t// in\n    tag_614:\n        /* \"#utility.yul\":16320:16394   */\n      swap2\n      pop\n        /* \"#utility.yul\":16403:16496   */\n      tag_615\n        /* \"#utility.yul\":16492:16495   */\n      dup3\n        /* \"#utility.yul\":16403:16496   */\n      tag_616\n      jump\t// in\n    tag_615:\n        /* \"#utility.yul\":16521:16523   */\n      0x20\n        /* \"#utility.yul\":16516:16519   */\n      dup3\n        /* \"#utility.yul\":16512:16524   */\n      add\n        /* \"#utility.yul\":16505:16524   */\n      swap1\n      pop\n        /* \"#utility.yul\":16164:16530   */\n      swap2\n      swap1\n      pop\n      jump\t// out\n        /* \"#utility.yul\":16536:16902   */\n    tag_617:\n        /* \"#utility.yul\":16678:16681   */\n      0x00\n        /* \"#utility.yul\":16699:16766   */\n      tag_619\n        /* \"#utility.yul\":16763:16765   */\n      0x2e\n        /* \"#utility.yul\":16758:16761   */\n      dup4\n        /* \"#utility.yul\":16699:16766   */\n      tag_574\n      jump\t// in\n    tag_619:\n        /* \"#utility.yul\":16692:16766   */\n      swap2\n      pop\n        /* \"#utility.yul\":16775:16868   */\n      tag_620\n        /* \"#utility.yul\":16864:16867   */\n      dup3\n        /* \"#utility.yul\":16775:16868   */\n      tag_621\n      jump\t// in\n    tag_620:\n        /* \"#utility.yul\":16893:16895   */\n      0x40\n        /* \"#utility.yul\":16888:16891   */\n      dup3\n        /* \"#utility.yul\":16884:16896   */\n      add\n        /* \"#utility.yul\":16877:16896   */\n      swap1\n      pop\n        /* \"#utility.yul\":16536:16902   */\n      swap2\n      swap1\n      pop\n      jump\t// out\n        /* \"#utility.yul\":16908:17274   */\n    tag_622:\n        /* \"#utility.yul\":17050:17053   */\n      0x00\n        /* \"#utility.yul\":17071:17138   */\n      tag_624\n        /* \"#utility.yul\":17135:17137   */\n      0x20\n        /* \"#utility.yul\":17130:17133   */\n      dup4\n        /* \"#utility.yul\":17071:17138   */\n      tag_574\n      jump\t// in\n    tag_624:\n        /* \"#utility.yul\":17064:17138   */\n      swap2\n      pop\n        /* \"#utility.yul\":17147:17240   */\n      tag_625\n        /* \"#utility.yul\":17236:17239   */\n      dup3\n        /* \"#utility.yul\":17147:17240   */\n      tag_626\n      jump\t// in\n    tag_625:\n        /* \"#utility.yul\":17265:17267   */\n      0x20\n        /* \"#utility.yul\":17260:17263   */\n      dup3\n        /* \"#utility.yul\":17256:17268   */\n      add\n        /* \"#utility.yul\":17249:17268   */\n      swap1\n      pop\n        /* \"#utility.yul\":16908:17274   */\n      swap2\n      swap1\n      pop\n      jump\t// out\n        /* \"#utility.yul\":17280:17646   */\n    tag_627:\n        /* \"#utility.yul\":17422:17425   */\n      0x00\n        /* \"#utility.yul\":17443:17510   */\n      tag_629\n        /* \"#utility.yul\":17507:17509   */\n      0x26\n        /* \"#utility.yul\":17502:17505   */\n      dup4\n        /* \"#utility.yul\":17443:17510   */\n      tag_574\n      jump\t// in\n    tag_629:\n        /* \"#utility.yul\":17436:17510   */\n      swap2\n      pop\n        /* \"#utility.yul\":17519:17612   */\n      tag_630\n        /* \"#utility.yul\":17608:17611   */\n      dup3\n        /* \"#utility.yul\":17519:17612   */\n      tag_631\n      jump\t// in\n    tag_630:\n        /* \"#utility.yul\":17637:17639   */\n      0x40\n        /* \"#utility.yul\":17632:17635   */\n      dup3\n        /* \"#utility.yul\":17628:17640   */\n      add\n        /* \"#utility.yul\":17621:17640   */\n      swap1\n      pop\n        /* \"#utility.yul\":17280:17646   */\n      swap2\n      swap1\n      pop\n      jump\t// out\n        /* \"#utility.yul\":17652:18018   */\n    tag_632:\n        /* \"#utility.yul\":17794:17797   */\n      0x00\n        /* \"#utility.yul\":17815:17882   */\n      tag_634\n        /* \"#utility.yul\":17879:17881   */\n      0x20\n        /* \"#utility.yul\":17874:17877   */\n      dup4\n        /* \"#utility.yul\":17815:17882   */\n      tag_574\n      jump\t// in\n    tag_634:\n        /* \"#utility.yul\":17808:17882   */\n      swap2\n      pop\n        /* \"#utility.yul\":17891:17984   */\n      tag_635\n        /* \"#utility.yul\":17980:17983   */\n      dup3\n        /* \"#utility.yul\":17891:17984   */\n      tag_636\n      jump\t// in\n    tag_635:\n        /* \"#utility.yul\":18009:18011   */\n      0x20\n        /* \"#utility.yul\":18004:18007   */\n      dup3\n        /* \"#utility.yul\":18000:18012   */\n      add\n        /* \"#utility.yul\":17993:18012   */\n      swap1\n      pop\n        /* \"#utility.yul\":17652:18018   */\n      swap2\n      swap1\n      pop\n      jump\t// out\n        /* \"#utility.yul\":18024:18386   */\n    tag_637:\n        /* \"#utility.yul\":18165:18168   */\n      0x00\n        /* \"#utility.yul\":18186:18251   */\n      tag_639\n        /* \"#utility.yul\":18249:18250   */\n      0x00\n        /* \"#utility.yul\":18244:18247   */\n      dup4\n        /* \"#utility.yul\":18186:18251   */\n      tag_640\n      jump\t// in\n    tag_639:\n        /* \"#utility.yul\":18179:18251   */\n      swap2\n      pop\n        /* \"#utility.yul\":18260:18353   */\n      tag_641\n        /* \"#utility.yul\":18349:18352   */\n      dup3\n        /* \"#utility.yul\":18260:18353   */\n      tag_642\n      jump\t// in\n    tag_641:\n        /* \"#utility.yul\":18378:18379   */\n      0x00\n        /* \"#utility.yul\":18373:18376   */\n      dup3\n        /* \"#utility.yul\":18369:18380   */\n      add\n        /* \"#utility.yul\":18362:18380   */\n      swap1\n      pop\n        /* \"#utility.yul\":18024:18386   */\n      swap2\n      swap1\n      pop\n      jump\t// out\n        /* \"#utility.yul\":18392:18758   */\n    tag_643:\n        /* \"#utility.yul\":18534:18537   */\n      0x00\n        /* \"#utility.yul\":18555:18622   */\n      tag_645\n        /* \"#utility.yul\":18619:18621   */\n      0x1d\n        /* \"#utility.yul\":18614:18617   */\n      dup4\n        /* \"#utility.yul\":18555:18622   */\n      tag_574\n      jump\t// in\n    tag_645:\n        /* \"#utility.yul\":18548:18622   */\n      swap2\n      pop\n        /* \"#utility.yul\":18631:18724   */\n      tag_646\n        /* \"#utility.yul\":18720:18723   */\n      dup3\n        /* \"#utility.yul\":18631:18724   */\n      tag_647\n      jump\t// in\n    tag_646:\n        /* \"#utility.yul\":18749:18751   */\n      0x20\n        /* \"#utility.yul\":18744:18747   */\n      dup3\n        /* \"#utility.yul\":18740:18752   */\n      add\n        /* \"#utility.yul\":18733:18752   */\n      swap1\n      pop\n        /* \"#utility.yul\":18392:18758   */\n      swap2\n      swap1\n      pop\n      jump\t// out\n        /* \"#utility.yul\":18764:19130   */\n    tag_648:\n        /* \"#utility.yul\":18906:18909   */\n      0x00\n        /* \"#utility.yul\":18927:18994   */\n      tag_650\n        /* \"#utility.yul\":18991:18993   */\n      0x2a\n        /* \"#utility.yul\":18986:18989   */\n      dup4\n        /* \"#utility.yul\":18927:18994   */\n      tag_574\n      jump\t// in\n    tag_650:\n        /* \"#utility.yul\":18920:18994   */\n      swap2\n      pop\n        /* \"#utility.yul\":19003:19096   */\n      tag_651\n        /* \"#utility.yul\":19092:19095   */\n      dup3\n        /* \"#utility.yul\":19003:19096   */\n      tag_652\n      jump\t// in\n    tag_651:\n        /* \"#utility.yul\":19121:19123   */\n      0x40\n        /* \"#utility.yul\":19116:19119   */\n      dup3\n        /* \"#utility.yul\":19112:19124   */\n      add\n        /* \"#utility.yul\":19105:19124   */\n      swap1\n      pop\n        /* \"#utility.yul\":18764:19130   */\n      swap2\n      swap1\n      pop\n      jump\t// out\n        /* \"#utility.yul\":19136:19502   */\n    tag_653:\n        /* \"#utility.yul\":19278:19281   */\n      0x00\n        /* \"#utility.yul\":19299:19366   */\n      tag_655\n        /* \"#utility.yul\":19363:19365   */\n      0x1d\n        /* \"#utility.yul\":19358:19361   */\n      dup4\n        /* \"#utility.yul\":19299:19366   */\n      tag_574\n      jump\t// in\n    tag_655:\n        /* \"#utility.yul\":19292:19366   */\n      swap2\n      pop\n        /* \"#utility.yul\":19375:19468   */\n      tag_656\n        /* \"#utility.yul\":19464:19467   */\n      dup3\n        /* \"#utility.yul\":19375:19468   */\n      tag_657\n      jump\t// in\n    tag_656:\n        /* \"#utility.yul\":19493:19495   */\n      0x20\n        /* \"#utility.yul\":19488:19491   */\n      dup3\n        /* \"#utility.yul\":19484:19496   */\n      add\n        /* \"#utility.yul\":19477:19496   */\n      swap1\n      pop\n        /* \"#utility.yul\":19136:19502   */\n      swap2\n      swap1\n      pop\n      jump\t// out\n        /* \"#utility.yul\":19508:19874   */\n    tag_658:\n        /* \"#utility.yul\":19650:19653   */\n      0x00\n        /* \"#utility.yul\":19671:19738   */\n      tag_660\n        /* \"#utility.yul\":19735:19737   */\n      0x2a\n        /* \"#utility.yul\":19730:19733   */\n      dup4\n        /* \"#utility.yul\":19671:19738   */\n      tag_574\n      jump\t// in\n    tag_660:\n        /* \"#utility.yul\":19664:19738   */\n      swap2\n      pop\n        /* \"#utility.yul\":19747:19840   */\n      tag_661\n        /* \"#utility.yul\":19836:19839   */\n      dup3\n        /* \"#utility.yul\":19747:19840   */\n      tag_662\n      jump\t// in\n    tag_661:\n        /* \"#utility.yul\":19865:19867   */\n      0x40\n        /* \"#utility.yul\":19860:19863   */\n      dup3\n        /* \"#utility.yul\":19856:19868   */\n      add\n        /* \"#utility.yul\":19849:19868   */\n      swap1\n      pop\n        /* \"#utility.yul\":19508:19874   */\n      swap2\n      swap1\n      pop\n      jump\t// out\n        /* \"#utility.yul\":19880:20246   */\n    tag_663:\n        /* \"#utility.yul\":20022:20025   */\n      0x00\n        /* \"#utility.yul\":20043:20110   */\n      tag_665\n        /* \"#utility.yul\":20107:20109   */\n      0x1f\n        /* \"#utility.yul\":20102:20105   */\n      dup4\n        /* \"#utility.yul\":20043:20110   */\n      tag_574\n      jump\t// in\n    tag_665:\n        /* \"#utility.yul\":20036:20110   */\n      swap2\n      pop\n        /* \"#utility.yul\":20119:20212   */\n      tag_666\n        /* \"#utility.yul\":20208:20211   */\n      dup3\n        /* \"#utility.yul\":20119:20212   */\n      tag_667\n      jump\t// in\n    tag_666:\n        /* \"#utility.yul\":20237:20239   */\n      0x20\n        /* \"#utility.yul\":20232:20235   */\n      dup3\n        /* \"#utility.yul\":20228:20240   */\n      add\n        /* \"#utility.yul\":20221:20240   */\n      swap1\n      pop\n        /* \"#utility.yul\":19880:20246   */\n      swap2\n      swap1\n      pop\n      jump\t// out\n        /* \"#utility.yul\":20252:20618   */\n    tag_668:\n        /* \"#utility.yul\":20394:20397   */\n      0x00\n        /* \"#utility.yul\":20415:20482   */\n      tag_670\n        /* \"#utility.yul\":20479:20481   */\n      0x24\n        /* \"#utility.yul\":20474:20477   */\n      dup4\n        /* \"#utility.yul\":20415:20482   */\n      tag_574\n      jump\t// in\n    tag_670:\n        /* \"#utility.yul\":20408:20482   */\n      swap2\n      pop\n        /* \"#utility.yul\":20491:20584   */\n      tag_671\n        /* \"#utility.yul\":20580:20583   */\n      dup3\n        /* \"#utility.yul\":20491:20584   */\n      tag_672\n      jump\t// in\n    tag_671:\n        /* \"#utility.yul\":20609:20611   */\n      0x40\n        /* \"#utility.yul\":20604:20607   */\n      dup3\n        /* \"#utility.yul\":20600:20612   */\n      add\n        /* \"#utility.yul\":20593:20612   */\n      swap1\n      pop\n        /* \"#utility.yul\":20252:20618   */\n      swap2\n      swap1\n      pop\n      jump\t// out\n        /* \"#utility.yul\":20624:20990   */\n    tag_673:\n        /* \"#utility.yul\":20766:20769   */\n      0x00\n        /* \"#utility.yul\":20787:20854   */\n      tag_675\n        /* \"#utility.yul\":20851:20853   */\n      0x2e\n        /* \"#utility.yul\":20846:20849   */\n      dup4\n        /* \"#utility.yul\":20787:20854   */\n      tag_574\n      jump\t// in\n    tag_675:\n        /* \"#utility.yul\":20780:20854   */\n      swap2\n      pop\n        /* \"#utility.yul\":20863:20956   */\n      tag_676\n        /* \"#utility.yul\":20952:20955   */\n      dup3\n        /* \"#utility.yul\":20863:20956   */\n      tag_677\n      jump\t// in\n    tag_676:\n        /* \"#utility.yul\":20981:20983   */\n      0x40\n        /* \"#utility.yul\":20976:20979   */\n      dup3\n        /* \"#utility.yul\":20972:20984   */\n      add\n        /* \"#utility.yul\":20965:20984   */\n      swap1\n      pop\n        /* \"#utility.yul\":20624:20990   */\n      swap2\n      swap1\n      pop\n      jump\t// out\n        /* \"#utility.yul\":21064:21681   */\n    tag_678:\n        /* \"#utility.yul\":21183:21186   */\n      0x00\n        /* \"#utility.yul\":21219:21223   */\n      0x40\n        /* \"#utility.yul\":21214:21217   */\n      dup4\n        /* \"#utility.yul\":21210:21224   */\n      add\n        /* \"#utility.yul\":21316:21320   */\n      0x00\n        /* \"#utility.yul\":21309:21314   */\n      dup4\n        /* \"#utility.yul\":21305:21321   */\n      add\n        /* \"#utility.yul\":21299:21322   */\n      mload\n        /* \"#utility.yul\":21369:21372   */\n      dup5\n        /* \"#utility.yul\":21363:21367   */\n      dup3\n        /* \"#utility.yul\":21359:21373   */\n      sub\n        /* \"#utility.yul\":21352:21356   */\n      0x00\n        /* \"#utility.yul\":21347:21350   */\n      dup7\n        /* \"#utility.yul\":21343:21357   */\n      add\n        /* \"#utility.yul\":21336:21374   */\n      mstore\n        /* \"#utility.yul\":21395:21468   */\n      tag_680\n        /* \"#utility.yul\":21463:21467   */\n      dup3\n        /* \"#utility.yul\":21449:21461   */\n      dup3\n        /* \"#utility.yul\":21395:21468   */\n      tag_561\n      jump\t// in\n    tag_680:\n        /* \"#utility.yul\":21387:21468   */\n      swap2\n      pop\n        /* \"#utility.yul\":21234:21479   */\n      pop\n        /* \"#utility.yul\":21568:21572   */\n      0x20\n        /* \"#utility.yul\":21561:21566   */\n      dup4\n        /* \"#utility.yul\":21557:21573   */\n      add\n        /* \"#utility.yul\":21551:21574   */\n      mload\n        /* \"#utility.yul\":21587:21644   */\n      tag_681\n        /* \"#utility.yul\":21638:21642   */\n      0x20\n        /* \"#utility.yul\":21633:21636   */\n      dup7\n        /* \"#utility.yul\":21629:21643   */\n      add\n        /* \"#utility.yul\":21615:21627   */\n      dup3\n        /* \"#utility.yul\":21587:21644   */\n      tag_538\n      jump\t// in\n    tag_681:\n        /* \"#utility.yul\":21489:21654   */\n      pop\n        /* \"#utility.yul\":21671:21675   */\n      dup1\n        /* \"#utility.yul\":21664:21675   */\n      swap2\n      pop\n        /* \"#utility.yul\":21188:21681   */\n      pop\n        /* \"#utility.yul\":21064:21681   */\n      swap3\n      swap2\n      pop\n      pop\n      jump\t// out\n        /* \"#utility.yul\":21687:21805   */\n    tag_682:\n        /* \"#utility.yul\":21774:21798   */\n      tag_684\n        /* \"#utility.yul\":21792:21797   */\n      dup2\n        /* \"#utility.yul\":21774:21798   */\n      tag_685\n      jump\t// in\n    tag_684:\n        /* \"#utility.yul\":21769:21772   */\n      dup3\n        /* \"#utility.yul\":21762:21799   */\n      mstore\n        /* \"#utility.yul\":21687:21805   */\n      pop\n      pop\n      jump\t// out\n        /* \"#utility.yul\":21811:22082   */\n    tag_362:\n        /* \"#utility.yul\":21941:21944   */\n      0x00\n        /* \"#utility.yul\":21963:22056   */\n      tag_687\n        /* \"#utility.yul\":22052:22055   */\n      dup3\n        /* \"#utility.yul\":22043:22049   */\n      dup5\n        /* \"#utility.yul\":21963:22056   */\n      tag_553\n      jump\t// in\n    tag_687:\n        /* \"#utility.yul\":21956:22056   */\n      swap2\n      pop\n        /* \"#utility.yul\":22073:22076   */\n      dup2\n        /* \"#utility.yul\":22066:22076   */\n      swap1\n      pop\n        /* \"#utility.yul\":21811:22082   */\n      swap3\n      swap2\n      pop\n      pop\n      jump\t// out\n        /* \"#utility.yul\":22088:22310   */\n    tag_35:\n        /* \"#utility.yul\":22181:22185   */\n      0x00\n        /* \"#utility.yul\":22219:22221   */\n      0x20\n        /* \"#utility.yul\":22208:22217   */\n      dup3\n        /* \"#utility.yul\":22204:22222   */\n      add\n        /* \"#utility.yul\":22196:22222   */\n      swap1\n      pop\n        /* \"#utility.yul\":22232:22303   */\n      tag_689\n        /* \"#utility.yul\":22300:22301   */\n      0x00\n        /* \"#utility.yul\":22289:22298   */\n      dup4\n        /* \"#utility.yul\":22285:22302   */\n      add\n        /* \"#utility.yul\":22276:22282   */\n      dup5\n        /* \"#utility.yul\":22232:22303   */\n      tag_534\n      jump\t// in\n    tag_689:\n        /* \"#utility.yul\":22088:22310   */\n      swap3\n      swap2\n      pop\n      pop\n      jump\t// out\n        /* \"#utility.yul\":22316:22758   */\n    tag_331:\n        /* \"#utility.yul\":22465:22469   */\n      0x00\n        /* \"#utility.yul\":22503:22505   */\n      0x60\n        /* \"#utility.yul\":22492:22501   */\n      dup3\n        /* \"#utility.yul\":22488:22506   */\n      add\n        /* \"#utility.yul\":22480:22506   */\n      swap1\n      pop\n        /* \"#utility.yul\":22516:22587   */\n      tag_691\n        /* \"#utility.yul\":22584:22585   */\n      0x00\n        /* \"#utility.yul\":22573:22582   */\n      dup4\n        /* \"#utility.yul\":22569:22586   */\n      add\n        /* \"#utility.yul\":22560:22566   */\n      dup7\n        /* \"#utility.yul\":22516:22587   */\n      tag_534\n      jump\t// in\n    tag_691:\n        /* \"#utility.yul\":22597:22669   */\n      tag_692\n        /* \"#utility.yul\":22665:22667   */\n      0x20\n        /* \"#utility.yul\":22654:22663   */\n      dup4\n        /* \"#utility.yul\":22650:22668   */\n      add\n        /* \"#utility.yul\":22641:22647   */\n      dup6\n        /* \"#utility.yul\":22597:22669   */\n      tag_534\n      jump\t// in\n    tag_692:\n        /* \"#utility.yul\":22679:22751   */\n      tag_693\n        /* \"#utility.yul\":22747:22749   */\n      0x40\n        /* \"#utility.yul\":22736:22745   */\n      dup4\n        /* \"#utility.yul\":22732:22750   */\n      add\n        /* \"#utility.yul\":22723:22729   */\n      dup5\n        /* \"#utility.yul\":22679:22751   */\n      tag_682\n      jump\t// in\n    tag_693:\n        /* \"#utility.yul\":22316:22758   */\n      swap5\n      swap4\n      pop\n      pop\n      pop\n      pop\n      jump\t// out\n        /* \"#utility.yul\":22764:23317   */\n    tag_220:\n        /* \"#utility.yul\":22941:22945   */\n      0x00\n        /* \"#utility.yul\":22979:22982   */\n      0x80\n        /* \"#utility.yul\":22968:22977   */\n      dup3\n        /* \"#utility.yul\":22964:22983   */\n      add\n        /* \"#utility.yul\":22956:22983   */\n      swap1\n      pop\n        /* \"#utility.yul\":22993:23064   */\n      tag_695\n        /* \"#utility.yul\":23061:23062   */\n      0x00\n        /* \"#utility.yul\":23050:23059   */\n      dup4\n        /* \"#utility.yul\":23046:23063   */\n      add\n        /* \"#utility.yul\":23037:23043   */\n      dup8\n        /* \"#utility.yul\":22993:23064   */\n      tag_534\n      jump\t// in\n    tag_695:\n        /* \"#utility.yul\":23074:23146   */\n      tag_696\n        /* \"#utility.yul\":23142:23144   */\n      0x20\n        /* \"#utility.yul\":23131:23140   */\n      dup4\n        /* \"#utility.yul\":23127:23145   */\n      add\n        /* \"#utility.yul\":23118:23124   */\n      dup7\n        /* \"#utility.yul\":23074:23146   */\n      tag_534\n      jump\t// in\n    tag_696:\n        /* \"#utility.yul\":23156:23228   */\n      tag_697\n        /* \"#utility.yul\":23224:23226   */\n      0x40\n        /* \"#utility.yul\":23213:23222   */\n      dup4\n        /* \"#utility.yul\":23209:23227   */\n      add\n        /* \"#utility.yul\":23200:23206   */\n      dup6\n        /* \"#utility.yul\":23156:23228   */\n      tag_682\n      jump\t// in\n    tag_697:\n        /* \"#utility.yul\":23238:23310   */\n      tag_698\n        /* \"#utility.yul\":23306:23308   */\n      0x60\n        /* \"#utility.yul\":23295:23304   */\n      dup4\n        /* \"#utility.yul\":23291:23309   */\n      add\n        /* \"#utility.yul\":23282:23288   */\n      dup5\n        /* \"#utility.yul\":23238:23310   */\n      tag_682\n      jump\t// in\n    tag_698:\n        /* \"#utility.yul\":22764:23317   */\n      swap6\n      swap5\n      pop\n      pop\n      pop\n      pop\n      pop\n      jump\t// out\n        /* \"#utility.yul\":23323:24182   */\n    tag_143:\n        /* \"#utility.yul\":23600:23604   */\n      0x00\n        /* \"#utility.yul\":23638:23641   */\n      0xa0\n        /* \"#utility.yul\":23627:23636   */\n      dup3\n        /* \"#utility.yul\":23623:23642   */\n      add\n        /* \"#utility.yul\":23615:23642   */\n      swap1\n      pop\n        /* \"#utility.yul\":23652:23723   */\n      tag_700\n        /* \"#utility.yul\":23720:23721   */\n      0x00\n        /* \"#utility.yul\":23709:23718   */\n      dup4\n        /* \"#utility.yul\":23705:23722   */\n      add\n        /* \"#utility.yul\":23696:23702   */\n      dup8\n        /* \"#utility.yul\":23652:23723   */\n      tag_534\n      jump\t// in\n    tag_700:\n        /* \"#utility.yul\":23733:23805   */\n      tag_701\n        /* \"#utility.yul\":23801:23803   */\n      0x20\n        /* \"#utility.yul\":23790:23799   */\n      dup4\n        /* \"#utility.yul\":23786:23804   */\n      add\n        /* \"#utility.yul\":23777:23783   */\n      dup7\n        /* \"#utility.yul\":23733:23805   */\n      tag_534\n      jump\t// in\n    tag_701:\n        /* \"#utility.yul\":23815:23887   */\n      tag_702\n        /* \"#utility.yul\":23883:23885   */\n      0x40\n        /* \"#utility.yul\":23872:23881   */\n      dup4\n        /* \"#utility.yul\":23868:23886   */\n      add\n        /* \"#utility.yul\":23859:23865   */\n      dup6\n        /* \"#utility.yul\":23815:23887   */\n      tag_682\n      jump\t// in\n    tag_702:\n        /* \"#utility.yul\":23897:23969   */\n      tag_703\n        /* \"#utility.yul\":23965:23967   */\n      0x60\n        /* \"#utility.yul\":23954:23963   */\n      dup4\n        /* \"#utility.yul\":23950:23968   */\n      add\n        /* \"#utility.yul\":23941:23947   */\n      dup5\n        /* \"#utility.yul\":23897:23969   */\n      tag_682\n      jump\t// in\n    tag_703:\n        /* \"#utility.yul\":24017:24026   */\n      dup2\n        /* \"#utility.yul\":24011:24015   */\n      dup2\n        /* \"#utility.yul\":24007:24027   */\n      sub\n        /* \"#utility.yul\":24001:24004   */\n      0x80\n        /* \"#utility.yul\":23990:23999   */\n      dup4\n        /* \"#utility.yul\":23986:24005   */\n      add\n        /* \"#utility.yul\":23979:24028   */\n      mstore\n        /* \"#utility.yul\":24045:24175   */\n      tag_704\n        /* \"#utility.yul\":24170:24174   */\n      dup2\n        /* \"#utility.yul\":24045:24175   */\n      tag_637\n      jump\t// in\n    tag_704:\n        /* \"#utility.yul\":24037:24175   */\n      swap1\n      pop\n        /* \"#utility.yul\":23323:24182   */\n      swap6\n      swap5\n      pop\n      pop\n      pop\n      pop\n      pop\n      jump\t// out\n        /* \"#utility.yul\":24188:24520   */\n    tag_130:\n        /* \"#utility.yul\":24309:24313   */\n      0x00\n        /* \"#utility.yul\":24347:24349   */\n      0x40\n        /* \"#utility.yul\":24336:24345   */\n      dup3\n        /* \"#utility.yul\":24332:24350   */\n      add\n        /* \"#utility.yul\":24324:24350   */\n      swap1\n      pop\n        /* \"#utility.yul\":24360:24431   */\n      tag_706\n        /* \"#utility.yul\":24428:24429   */\n      0x00\n        /* \"#utility.yul\":24417:24426   */\n      dup4\n        /* \"#utility.yul\":24413:24430   */\n      add\n        /* \"#utility.yul\":24404:24410   */\n      dup6\n        /* \"#utility.yul\":24360:24431   */\n      tag_534\n      jump\t// in\n    tag_706:\n        /* \"#utility.yul\":24441:24513   */\n      tag_707\n        /* \"#utility.yul\":24509:24511   */\n      0x20\n        /* \"#utility.yul\":24498:24507   */\n      dup4\n        /* \"#utility.yul\":24494:24512   */\n      add\n        /* \"#utility.yul\":24485:24491   */\n      dup5\n        /* \"#utility.yul\":24441:24513   */\n      tag_682\n      jump\t// in\n    tag_707:\n        /* \"#utility.yul\":24188:24520   */\n      swap4\n      swap3\n      pop\n      pop\n      pop\n      jump\t// out\n        /* \"#utility.yul\":24526:24736   */\n    tag_31:\n        /* \"#utility.yul\":24613:24617   */\n      0x00\n        /* \"#utility.yul\":24651:24653   */\n      0x20\n        /* \"#utility.yul\":24640:24649   */\n      dup3\n        /* \"#utility.yul\":24636:24654   */\n      add\n        /* \"#utility.yul\":24628:24654   */\n      swap1\n      pop\n        /* \"#utility.yul\":24664:24729   */\n      tag_709\n        /* \"#utility.yul\":24726:24727   */\n      0x00\n        /* \"#utility.yul\":24715:24724   */\n      dup4\n        /* \"#utility.yul\":24711:24728   */\n      add\n        /* \"#utility.yul\":24702:24708   */\n      dup5\n        /* \"#utility.yul\":24664:24729   */\n      tag_542\n      jump\t// in\n    tag_709:\n        /* \"#utility.yul\":24526:24736   */\n      swap3\n      swap2\n      pop\n      pop\n      jump\t// out\n        /* \"#utility.yul\":24742:25394   */\n    tag_79:\n        /* \"#utility.yul\":24941:24945   */\n      0x00\n        /* \"#utility.yul\":24979:24982   */\n      0xa0\n        /* \"#utility.yul\":24968:24977   */\n      dup3\n        /* \"#utility.yul\":24964:24983   */\n      add\n        /* \"#utility.yul\":24956:24983   */\n      swap1\n      pop\n        /* \"#utility.yul\":24993:25058   */\n      tag_711\n        /* \"#utility.yul\":25055:25056   */\n      0x00\n        /* \"#utility.yul\":25044:25053   */\n      dup4\n        /* \"#utility.yul\":25040:25057   */\n      add\n        /* \"#utility.yul\":25031:25037   */\n      dup9\n        /* \"#utility.yul\":24993:25058   */\n      tag_542\n      jump\t// in\n    tag_711:\n        /* \"#utility.yul\":25068:25140   */\n      tag_712\n        /* \"#utility.yul\":25136:25138   */\n      0x20\n        /* \"#utility.yul\":25125:25134   */\n      dup4\n        /* \"#utility.yul\":25121:25139   */\n      add\n        /* \"#utility.yul\":25112:25118   */\n      dup8\n        /* \"#utility.yul\":25068:25140   */\n      tag_682\n      jump\t// in\n    tag_712:\n        /* \"#utility.yul\":25150:25222   */\n      tag_713\n        /* \"#utility.yul\":25218:25220   */\n      0x40\n        /* \"#utility.yul\":25207:25216   */\n      dup4\n        /* \"#utility.yul\":25203:25221   */\n      add\n        /* \"#utility.yul\":25194:25200   */\n      dup7\n        /* \"#utility.yul\":25150:25222   */\n      tag_682\n      jump\t// in\n    tag_713:\n        /* \"#utility.yul\":25232:25304   */\n      tag_714\n        /* \"#utility.yul\":25300:25302   */\n      0x60\n        /* \"#utility.yul\":25289:25298   */\n      dup4\n        /* \"#utility.yul\":25285:25303   */\n      add\n        /* \"#utility.yul\":25276:25282   */\n      dup6\n        /* \"#utility.yul\":25232:25304   */\n      tag_682\n      jump\t// in\n    tag_714:\n        /* \"#utility.yul\":25314:25387   */\n      tag_715\n        /* \"#utility.yul\":25382:25385   */\n      0x80\n        /* \"#utility.yul\":25371:25380   */\n      dup4\n        /* \"#utility.yul\":25367:25386   */\n      add\n        /* \"#utility.yul\":25358:25364   */\n      dup5\n        /* \"#utility.yul\":25314:25387   */\n      tag_682\n      jump\t// in\n    tag_715:\n        /* \"#utility.yul\":24742:25394   */\n      swap7\n      swap6\n      pop\n      pop\n      pop\n      pop\n      pop\n      pop\n      jump\t// out\n        /* \"#utility.yul\":25400:25732   */\n    tag_202:\n        /* \"#utility.yul\":25521:25525   */\n      0x00\n        /* \"#utility.yul\":25559:25561   */\n      0x40\n        /* \"#utility.yul\":25548:25557   */\n      dup3\n        /* \"#utility.yul\":25544:25562   */\n      add\n        /* \"#utility.yul\":25536:25562   */\n      swap1\n      pop\n        /* \"#utility.yul\":25572:25643   */\n      tag_717\n        /* \"#utility.yul\":25640:25641   */\n      0x00\n        /* \"#utility.yul\":25629:25638   */\n      dup4\n        /* \"#utility.yul\":25625:25642   */\n      add\n        /* \"#utility.yul\":25616:25622   */\n      dup6\n        /* \"#utility.yul\":25572:25643   */\n      tag_545\n      jump\t// in\n    tag_717:\n        /* \"#utility.yul\":25653:25725   */\n      tag_718\n        /* \"#utility.yul\":25721:25723   */\n      0x20\n        /* \"#utility.yul\":25710:25719   */\n      dup4\n        /* \"#utility.yul\":25706:25724   */\n      add\n        /* \"#utility.yul\":25697:25703   */\n      dup5\n        /* \"#utility.yul\":25653:25725   */\n      tag_534\n      jump\t// in\n    tag_718:\n        /* \"#utility.yul\":25400:25732   */\n      swap4\n      swap3\n      pop\n      pop\n      pop\n      jump\t// out\n        /* \"#utility.yul\":25738:25956   */\n    tag_85:\n        /* \"#utility.yul\":25829:25833   */\n      0x00\n        /* \"#utility.yul\":25867:25869   */\n      0x20\n        /* \"#utility.yul\":25856:25865   */\n      dup3\n        /* \"#utility.yul\":25852:25870   */\n      add\n        /* \"#utility.yul\":25844:25870   */\n      swap1\n      pop\n        /* \"#utility.yul\":25880:25949   */\n      tag_720\n        /* \"#utility.yul\":25946:25947   */\n      0x00\n        /* \"#utility.yul\":25935:25944   */\n      dup4\n        /* \"#utility.yul\":25931:25948   */\n      add\n        /* \"#utility.yul\":25922:25928   */\n      dup5\n        /* \"#utility.yul\":25880:25949   */\n      tag_549\n      jump\t// in\n    tag_720:\n        /* \"#utility.yul\":25738:25956   */\n      swap3\n      swap2\n      pop\n      pop\n      jump\t// out\n        /* \"#utility.yul\":25962:26275   */\n    tag_375:\n        /* \"#utility.yul\":26075:26079   */\n      0x00\n        /* \"#utility.yul\":26113:26115   */\n      0x20\n        /* \"#utility.yul\":26102:26111   */\n      dup3\n        /* \"#utility.yul\":26098:26116   */\n      add\n        /* \"#utility.yul\":26090:26116   */\n      swap1\n      pop\n        /* \"#utility.yul\":26162:26171   */\n      dup2\n        /* \"#utility.yul\":26156:26160   */\n      dup2\n        /* \"#utility.yul\":26152:26172   */\n      sub\n        /* \"#utility.yul\":26148:26149   */\n      0x00\n        /* \"#utility.yul\":26137:26146   */\n      dup4\n        /* \"#utility.yul\":26133:26150   */\n      add\n        /* \"#utility.yul\":26126:26173   */\n      mstore\n        /* \"#utility.yul\":26190:26268   */\n      tag_722\n        /* \"#utility.yul\":26263:26267   */\n      dup2\n        /* \"#utility.yul\":26254:26260   */\n      dup5\n        /* \"#utility.yul\":26190:26268   */\n      tag_570\n      jump\t// in\n    tag_722:\n        /* \"#utility.yul\":26182:26268   */\n      swap1\n      pop\n        /* \"#utility.yul\":25962:26275   */\n      swap3\n      swap2\n      pop\n      pop\n      jump\t// out\n        /* \"#utility.yul\":26281:26700   */\n    tag_291:\n        /* \"#utility.yul\":26447:26451   */\n      0x00\n        /* \"#utility.yul\":26485:26487   */\n      0x20\n        /* \"#utility.yul\":26474:26483   */\n      dup3\n        /* \"#utility.yul\":26470:26488   */\n      add\n        /* \"#utility.yul\":26462:26488   */\n      swap1\n      pop\n        /* \"#utility.yul\":26534:26543   */\n      dup2\n        /* \"#utility.yul\":26528:26532   */\n      dup2\n        /* \"#utility.yul\":26524:26544   */\n      sub\n        /* \"#utility.yul\":26520:26521   */\n      0x00\n        /* \"#utility.yul\":26509:26518   */\n      dup4\n        /* \"#utility.yul\":26505:26522   */\n      add\n        /* \"#utility.yul\":26498:26545   */\n      mstore\n        /* \"#utility.yul\":26562:26693   */\n      tag_724\n        /* \"#utility.yul\":26688:26692   */\n      dup2\n        /* \"#utility.yul\":26562:26693   */\n      tag_577\n      jump\t// in\n    tag_724:\n        /* \"#utility.yul\":26554:26693   */\n      swap1\n      pop\n        /* \"#utility.yul\":26281:26700   */\n      swap2\n      swap1\n      pop\n      jump\t// out\n        /* \"#utility.yul\":26706:27125   */\n    tag_324:\n        /* \"#utility.yul\":26872:26876   */\n      0x00\n        /* \"#utility.yul\":26910:26912   */\n      0x20\n        /* \"#utility.yul\":26899:26908   */\n      dup3\n        /* \"#utility.yul\":26895:26913   */\n      add\n        /* \"#utility.yul\":26887:26913   */\n      swap1\n      pop\n        /* \"#utility.yul\":26959:26968   */\n      dup2\n        /* \"#utility.yul\":26953:26957   */\n      dup2\n        /* \"#utility.yul\":26949:26969   */\n      sub\n        /* \"#utility.yul\":26945:26946   */\n      0x00\n        /* \"#utility.yul\":26934:26943   */\n      dup4\n        /* \"#utility.yul\":26930:26947   */\n      add\n        /* \"#utility.yul\":26923:26970   */\n      mstore\n        /* \"#utility.yul\":26987:27118   */\n      tag_726\n        /* \"#utility.yul\":27113:27117   */\n      dup2\n        /* \"#utility.yul\":26987:27118   */\n      tag_582\n      jump\t// in\n    tag_726:\n        /* \"#utility.yul\":26979:27118   */\n      swap1\n      pop\n        /* \"#utility.yul\":26706:27125   */\n      swap2\n      swap1\n      pop\n      jump\t// out\n        /* \"#utility.yul\":27131:27550   */\n    tag_141:\n        /* \"#utility.yul\":27297:27301   */\n      0x00\n        /* \"#utility.yul\":27335:27337   */\n      0x20\n        /* \"#utility.yul\":27324:27333   */\n      dup3\n        /* \"#utility.yul\":27320:27338   */\n      add\n        /* \"#utility.yul\":27312:27338   */\n      swap1\n      pop\n        /* \"#utility.yul\":27384:27393   */\n      dup2\n        /* \"#utility.yul\":27378:27382   */\n      dup2\n        /* \"#utility.yul\":27374:27394   */\n      sub\n        /* \"#utility.yul\":27370:27371   */\n      0x00\n        /* \"#utility.yul\":27359:27368   */\n      dup4\n        /* \"#utility.yul\":27355:27372   */\n      add\n        /* \"#utility.yul\":27348:27395   */\n      mstore\n        /* \"#utility.yul\":27412:27543   */\n      tag_728\n        /* \"#utility.yul\":27538:27542   */\n      dup2\n        /* \"#utility.yul\":27412:27543   */\n      tag_587\n      jump\t// in\n    tag_728:\n        /* \"#utility.yul\":27404:27543   */\n      swap1\n      pop\n        /* \"#utility.yul\":27131:27550   */\n      swap2\n      swap1\n      pop\n      jump\t// out\n        /* \"#utility.yul\":27556:27975   */\n    tag_128:\n        /* \"#utility.yul\":27722:27726   */\n      0x00\n        /* \"#utility.yul\":27760:27762   */\n      0x20\n        /* \"#utility.yul\":27749:27758   */\n      dup3\n        /* \"#utility.yul\":27745:27763   */\n      add\n        /* \"#utility.yul\":27737:27763   */\n      swap1\n      pop\n        /* \"#utility.yul\":27809:27818   */\n      dup2\n        /* \"#utility.yul\":27803:27807   */\n      dup2\n        /* \"#utility.yul\":27799:27819   */\n      sub\n        /* \"#utility.yul\":27795:27796   */\n      0x00\n        /* \"#utility.yul\":27784:27793   */\n      dup4\n        /* \"#utility.yul\":27780:27797   */\n      add\n        /* \"#utility.yul\":27773:27820   */\n      mstore\n        /* \"#utility.yul\":27837:27968   */\n      tag_730\n        /* \"#utility.yul\":27963:27967   */\n      dup2\n        /* \"#utility.yul\":27837:27968   */\n      tag_592\n      jump\t// in\n    tag_730:\n        /* \"#utility.yul\":27829:27968   */\n      swap1\n      pop\n        /* \"#utility.yul\":27556:27975   */\n      swap2\n      swap1\n      pop\n      jump\t// out\n        /* \"#utility.yul\":27981:28400   */\n    tag_316:\n        /* \"#utility.yul\":28147:28151   */\n      0x00\n        /* \"#utility.yul\":28185:28187   */\n      0x20\n        /* \"#utility.yul\":28174:28183   */\n      dup3\n        /* \"#utility.yul\":28170:28188   */\n      add\n        /* \"#utility.yul\":28162:28188   */\n      swap1\n      pop\n        /* \"#utility.yul\":28234:28243   */\n      dup2\n        /* \"#utility.yul\":28228:28232   */\n      dup2\n        /* \"#utility.yul\":28224:28244   */\n      sub\n        /* \"#utility.yul\":28220:28221   */\n      0x00\n        /* \"#utility.yul\":28209:28218   */\n      dup4\n        /* \"#utility.yul\":28205:28222   */\n      add\n        /* \"#utility.yul\":28198:28245   */\n      mstore\n        /* \"#utility.yul\":28262:28393   */\n      tag_732\n        /* \"#utility.yul\":28388:28392   */\n      dup2\n        /* \"#utility.yul\":28262:28393   */\n      tag_597\n      jump\t// in\n    tag_732:\n        /* \"#utility.yul\":28254:28393   */\n      swap1\n      pop\n        /* \"#utility.yul\":27981:28400   */\n      swap2\n      swap1\n      pop\n      jump\t// out\n        /* \"#utility.yul\":28406:28825   */\n    tag_355:\n        /* \"#utility.yul\":28572:28576   */\n      0x00\n        /* \"#utility.yul\":28610:28612   */\n      0x20\n        /* \"#utility.yul\":28599:28608   */\n      dup3\n        /* \"#utility.yul\":28595:28613   */\n      add\n        /* \"#utility.yul\":28587:28613   */\n      swap1\n      pop\n        /* \"#utility.yul\":28659:28668   */\n      dup2\n        /* \"#utility.yul\":28653:28657   */\n      dup2\n        /* \"#utility.yul\":28649:28669   */\n      sub\n        /* \"#utility.yul\":28645:28646   */\n      0x00\n        /* \"#utility.yul\":28634:28643   */\n      dup4\n        /* \"#utility.yul\":28630:28647   */\n      add\n        /* \"#utility.yul\":28623:28670   */\n      mstore\n        /* \"#utility.yul\":28687:28818   */\n      tag_734\n        /* \"#utility.yul\":28813:28817   */\n      dup2\n        /* \"#utility.yul\":28687:28818   */\n      tag_602\n      jump\t// in\n    tag_734:\n        /* \"#utility.yul\":28679:28818   */\n      swap1\n      pop\n        /* \"#utility.yul\":28406:28825   */\n      swap2\n      swap1\n      pop\n      jump\t// out\n        /* \"#utility.yul\":28831:29250   */\n    tag_117:\n        /* \"#utility.yul\":28997:29001   */\n      0x00\n        /* \"#utility.yul\":29035:29037   */\n      0x20\n        /* \"#utility.yul\":29024:29033   */\n      dup3\n        /* \"#utility.yul\":29020:29038   */\n      add\n        /* \"#utility.yul\":29012:29038   */\n      swap1\n      pop\n        /* \"#utility.yul\":29084:29093   */\n      dup2\n        /* \"#utility.yul\":29078:29082   */\n      dup2\n        /* \"#utility.yul\":29074:29094   */\n      sub\n        /* \"#utility.yul\":29070:29071   */\n      0x00\n        /* \"#utility.yul\":29059:29068   */\n      dup4\n        /* \"#utility.yul\":29055:29072   */\n      add\n        /* \"#utility.yul\":29048:29095   */\n      mstore\n        /* \"#utility.yul\":29112:29243   */\n      tag_736\n        /* \"#utility.yul\":29238:29242   */\n      dup2\n        /* \"#utility.yul\":29112:29243   */\n      tag_607\n      jump\t// in\n    tag_736:\n        /* \"#utility.yul\":29104:29243   */\n      swap1\n      pop\n        /* \"#utility.yul\":28831:29250   */\n      swap2\n      swap1\n      pop\n      jump\t// out\n        /* \"#utility.yul\":29256:29675   */\n    tag_125:\n        /* \"#utility.yul\":29422:29426   */\n      0x00\n        /* \"#utility.yul\":29460:29462   */\n      0x20\n        /* \"#utility.yul\":29449:29458   */\n      dup3\n        /* \"#utility.yul\":29445:29463   */\n      add\n        /* \"#utility.yul\":29437:29463   */\n      swap1\n      pop\n        /* \"#utility.yul\":29509:29518   */\n      dup2\n        /* \"#utility.yul\":29503:29507   */\n      dup2\n        /* \"#utility.yul\":29499:29519   */\n      sub\n        /* \"#utility.yul\":29495:29496   */\n      0x00\n        /* \"#utility.yul\":29484:29493   */\n      dup4\n        /* \"#utility.yul\":29480:29497   */\n      add\n        /* \"#utility.yul\":29473:29520   */\n      mstore\n        /* \"#utility.yul\":29537:29668   */\n      tag_738\n        /* \"#utility.yul\":29663:29667   */\n      dup2\n        /* \"#utility.yul\":29537:29668   */\n      tag_612\n      jump\t// in\n    tag_738:\n        /* \"#utility.yul\":29529:29668   */\n      swap1\n      pop\n        /* \"#utility.yul\":29256:29675   */\n      swap2\n      swap1\n      pop\n      jump\t// out\n        /* \"#utility.yul\":29681:30100   */\n    tag_258:\n        /* \"#utility.yul\":29847:29851   */\n      0x00\n        /* \"#utility.yul\":29885:29887   */\n      0x20\n        /* \"#utility.yul\":29874:29883   */\n      dup3\n        /* \"#utility.yul\":29870:29888   */\n      add\n        /* \"#utility.yul\":29862:29888   */\n      swap1\n      pop\n        /* \"#utility.yul\":29934:29943   */\n      dup2\n        /* \"#utility.yul\":29928:29932   */\n      dup2\n        /* \"#utility.yul\":29924:29944   */\n      sub\n        /* \"#utility.yul\":29920:29921   */\n      0x00\n        /* \"#utility.yul\":29909:29918   */\n      dup4\n        /* \"#utility.yul\":29905:29922   */\n      add\n        /* \"#utility.yul\":29898:29945   */\n      mstore\n        /* \"#utility.yul\":29962:30093   */\n      tag_740\n        /* \"#utility.yul\":30088:30092   */\n      dup2\n        /* \"#utility.yul\":29962:30093   */\n      tag_617\n      jump\t// in\n    tag_740:\n        /* \"#utility.yul\":29954:30093   */\n      swap1\n      pop\n        /* \"#utility.yul\":29681:30100   */\n      swap2\n      swap1\n      pop\n      jump\t// out\n        /* \"#utility.yul\":30106:30525   */\n    tag_111:\n        /* \"#utility.yul\":30272:30276   */\n      0x00\n        /* \"#utility.yul\":30310:30312   */\n      0x20\n        /* \"#utility.yul\":30299:30308   */\n      dup3\n        /* \"#utility.yul\":30295:30313   */\n      add\n        /* \"#utility.yul\":30287:30313   */\n      swap1\n      pop\n        /* \"#utility.yul\":30359:30368   */\n      dup2\n        /* \"#utility.yul\":30353:30357   */\n      dup2\n        /* \"#utility.yul\":30349:30369   */\n      sub\n        /* \"#utility.yul\":30345:30346   */\n      0x00\n        /* \"#utility.yul\":30334:30343   */\n      dup4\n        /* \"#utility.yul\":30330:30347   */\n      add\n        /* \"#utility.yul\":30323:30370   */\n      mstore\n        /* \"#utility.yul\":30387:30518   */\n      tag_742\n        /* \"#utility.yul\":30513:30517   */\n      dup2\n        /* \"#utility.yul\":30387:30518   */\n      tag_622\n      jump\t// in\n    tag_742:\n        /* \"#utility.yul\":30379:30518   */\n      swap1\n      pop\n        /* \"#utility.yul\":30106:30525   */\n      swap2\n      swap1\n      pop\n      jump\t// out\n        /* \"#utility.yul\":30531:30950   */\n    tag_189:\n        /* \"#utility.yul\":30697:30701   */\n      0x00\n        /* \"#utility.yul\":30735:30737   */\n      0x20\n        /* \"#utility.yul\":30724:30733   */\n      dup3\n        /* \"#utility.yul\":30720:30738   */\n      add\n        /* \"#utility.yul\":30712:30738   */\n      swap1\n      pop\n        /* \"#utility.yul\":30784:30793   */\n      dup2\n        /* \"#utility.yul\":30778:30782   */\n      dup2\n        /* \"#utility.yul\":30774:30794   */\n      sub\n        /* \"#utility.yul\":30770:30771   */\n      0x00\n        /* \"#utility.yul\":30759:30768   */\n      dup4\n        /* \"#utility.yul\":30755:30772   */\n      add\n        /* \"#utility.yul\":30748:30795   */\n      mstore\n        /* \"#utility.yul\":30812:30943   */\n      tag_744\n        /* \"#utility.yul\":30938:30942   */\n      dup2\n        /* \"#utility.yul\":30812:30943   */\n      tag_627\n      jump\t// in\n    tag_744:\n        /* \"#utility.yul\":30804:30943   */\n      swap1\n      pop\n        /* \"#utility.yul\":30531:30950   */\n      swap2\n      swap1\n      pop\n      jump\t// out\n        /* \"#utility.yul\":30956:31375   */\n    tag_192:\n        /* \"#utility.yul\":31122:31126   */\n      0x00\n        /* \"#utility.yul\":31160:31162   */\n      0x20\n        /* \"#utility.yul\":31149:31158   */\n      dup3\n        /* \"#utility.yul\":31145:31163   */\n      add\n        /* \"#utility.yul\":31137:31163   */\n      swap1\n      pop\n        /* \"#utility.yul\":31209:31218   */\n      dup2\n        /* \"#utility.yul\":31203:31207   */\n      dup2\n        /* \"#utility.yul\":31199:31219   */\n      sub\n        /* \"#utility.yul\":31195:31196   */\n      0x00\n        /* \"#utility.yul\":31184:31193   */\n      dup4\n        /* \"#utility.yul\":31180:31197   */\n      add\n        /* \"#utility.yul\":31173:31220   */\n      mstore\n        /* \"#utility.yul\":31237:31368   */\n      tag_746\n        /* \"#utility.yul\":31363:31367   */\n      dup2\n        /* \"#utility.yul\":31237:31368   */\n      tag_632\n      jump\t// in\n    tag_746:\n        /* \"#utility.yul\":31229:31368   */\n      swap1\n      pop\n        /* \"#utility.yul\":30956:31375   */\n      swap2\n      swap1\n      pop\n      jump\t// out\n        /* \"#utility.yul\":31381:31800   */\n    tag_360:\n        /* \"#utility.yul\":31547:31551   */\n      0x00\n        /* \"#utility.yul\":31585:31587   */\n      0x20\n        /* \"#utility.yul\":31574:31583   */\n      dup3\n        /* \"#utility.yul\":31570:31588   */\n      add\n        /* \"#utility.yul\":31562:31588   */\n      swap1\n      pop\n        /* \"#utility.yul\":31634:31643   */\n      dup2\n        /* \"#utility.yul\":31628:31632   */\n      dup2\n        /* \"#utility.yul\":31624:31644   */\n      sub\n        /* \"#utility.yul\":31620:31621   */\n      0x00\n        /* \"#utility.yul\":31609:31618   */\n      dup4\n        /* \"#utility.yul\":31605:31622   */\n      add\n        /* \"#utility.yul\":31598:31645   */\n      mstore\n        /* \"#utility.yul\":31662:31793   */\n      tag_748\n        /* \"#utility.yul\":31788:31792   */\n      dup2\n        /* \"#utility.yul\":31662:31793   */\n      tag_643\n      jump\t// in\n    tag_748:\n        /* \"#utility.yul\":31654:31793   */\n      swap1\n      pop\n        /* \"#utility.yul\":31381:31800   */\n      swap2\n      swap1\n      pop\n      jump\t// out\n        /* \"#utility.yul\":31806:32225   */\n    tag_167:\n        /* \"#utility.yul\":31972:31976   */\n      0x00\n        /* \"#utility.yul\":32010:32012   */\n      0x20\n        /* \"#utility.yul\":31999:32008   */\n      dup3\n        /* \"#utility.yul\":31995:32013   */\n      add\n        /* \"#utility.yul\":31987:32013   */\n      swap1\n      pop\n        /* \"#utility.yul\":32059:32068   */\n      dup2\n        /* \"#utility.yul\":32053:32057   */\n      dup2\n        /* \"#utility.yul\":32049:32069   */\n      sub\n        /* \"#utility.yul\":32045:32046   */\n      0x00\n        /* \"#utility.yul\":32034:32043   */\n      dup4\n        /* \"#utility.yul\":32030:32047   */\n      add\n        /* \"#utility.yul\":32023:32070   */\n      mstore\n        /* \"#utility.yul\":32087:32218   */\n      tag_750\n        /* \"#utility.yul\":32213:32217   */\n      dup2\n        /* \"#utility.yul\":32087:32218   */\n      tag_648\n      jump\t// in\n    tag_750:\n        /* \"#utility.yul\":32079:32218   */\n      swap1\n      pop\n        /* \"#utility.yul\":31806:32225   */\n      swap2\n      swap1\n      pop\n      jump\t// out\n        /* \"#utility.yul\":32231:32650   */\n    tag_195:\n        /* \"#utility.yul\":32397:32401   */\n      0x00\n        /* \"#utility.yul\":32435:32437   */\n      0x20\n        /* \"#utility.yul\":32424:32433   */\n      dup3\n        /* \"#utility.yul\":32420:32438   */\n      add\n        /* \"#utility.yul\":32412:32438   */\n      swap1\n      pop\n        /* \"#utility.yul\":32484:32493   */\n      dup2\n        /* \"#utility.yul\":32478:32482   */\n      dup2\n        /* \"#utility.yul\":32474:32494   */\n      sub\n        /* \"#utility.yul\":32470:32471   */\n      0x00\n        /* \"#utility.yul\":32459:32468   */\n      dup4\n        /* \"#utility.yul\":32455:32472   */\n      add\n        /* \"#utility.yul\":32448:32495   */\n      mstore\n        /* \"#utility.yul\":32512:32643   */\n      tag_752\n        /* \"#utility.yul\":32638:32642   */\n      dup2\n        /* \"#utility.yul\":32512:32643   */\n      tag_653\n      jump\t// in\n    tag_752:\n        /* \"#utility.yul\":32504:32643   */\n      swap1\n      pop\n        /* \"#utility.yul\":32231:32650   */\n      swap2\n      swap1\n      pop\n      jump\t// out\n        /* \"#utility.yul\":32656:33075   */\n    tag_348:\n        /* \"#utility.yul\":32822:32826   */\n      0x00\n        /* \"#utility.yul\":32860:32862   */\n      0x20\n        /* \"#utility.yul\":32849:32858   */\n      dup3\n        /* \"#utility.yul\":32845:32863   */\n      add\n        /* \"#utility.yul\":32837:32863   */\n      swap1\n      pop\n        /* \"#utility.yul\":32909:32918   */\n      dup2\n        /* \"#utility.yul\":32903:32907   */\n      dup2\n        /* \"#utility.yul\":32899:32919   */\n      sub\n        /* \"#utility.yul\":32895:32896   */\n      0x00\n        /* \"#utility.yul\":32884:32893   */\n      dup4\n        /* \"#utility.yul\":32880:32897   */\n      add\n        /* \"#utility.yul\":32873:32920   */\n      mstore\n        /* \"#utility.yul\":32937:33068   */\n      tag_754\n        /* \"#utility.yul\":33063:33067   */\n      dup2\n        /* \"#utility.yul\":32937:33068   */\n      tag_658\n      jump\t// in\n    tag_754:\n        /* \"#utility.yul\":32929:33068   */\n      swap1\n      pop\n        /* \"#utility.yul\":32656:33075   */\n      swap2\n      swap1\n      pop\n      jump\t// out\n        /* \"#utility.yul\":33081:33500   */\n    tag_121:\n        /* \"#utility.yul\":33247:33251   */\n      0x00\n        /* \"#utility.yul\":33285:33287   */\n      0x20\n        /* \"#utility.yul\":33274:33283   */\n      dup3\n        /* \"#utility.yul\":33270:33288   */\n      add\n        /* \"#utility.yul\":33262:33288   */\n      swap1\n      pop\n        /* \"#utility.yul\":33334:33343   */\n      dup2\n        /* \"#utility.yul\":33328:33332   */\n      dup2\n        /* \"#utility.yul\":33324:33344   */\n      sub\n        /* \"#utility.yul\":33320:33321   */\n      0x00\n        /* \"#utility.yul\":33309:33318   */\n      dup4\n        /* \"#utility.yul\":33305:33322   */\n      add\n        /* \"#utility.yul\":33298:33345   */\n      mstore\n        /* \"#utility.yul\":33362:33493   */\n      tag_756\n        /* \"#utility.yul\":33488:33492   */\n      dup2\n        /* \"#utility.yul\":33362:33493   */\n      tag_663\n      jump\t// in\n    tag_756:\n        /* \"#utility.yul\":33354:33493   */\n      swap1\n      pop\n        /* \"#utility.yul\":33081:33500   */\n      swap2\n      swap1\n      pop\n      jump\t// out\n        /* \"#utility.yul\":33506:33925   */\n    tag_294:\n        /* \"#utility.yul\":33672:33676   */\n      0x00\n        /* \"#utility.yul\":33710:33712   */\n      0x20\n        /* \"#utility.yul\":33699:33708   */\n      dup3\n        /* \"#utility.yul\":33695:33713   */\n      add\n        /* \"#utility.yul\":33687:33713   */\n      swap1\n      pop\n        /* \"#utility.yul\":33759:33768   */\n      dup2\n        /* \"#utility.yul\":33753:33757   */\n      dup2\n        /* \"#utility.yul\":33749:33769   */\n      sub\n        /* \"#utility.yul\":33745:33746   */\n      0x00\n        /* \"#utility.yul\":33734:33743   */\n      dup4\n        /* \"#utility.yul\":33730:33747   */\n      add\n        /* \"#utility.yul\":33723:33770   */\n      mstore\n        /* \"#utility.yul\":33787:33918   */\n      tag_758\n        /* \"#utility.yul\":33913:33917   */\n      dup2\n        /* \"#utility.yul\":33787:33918   */\n      tag_668\n      jump\t// in\n    tag_758:\n        /* \"#utility.yul\":33779:33918   */\n      swap1\n      pop\n        /* \"#utility.yul\":33506:33925   */\n      swap2\n      swap1\n      pop\n      jump\t// out\n        /* \"#utility.yul\":33931:34350   */\n    tag_138:\n        /* \"#utility.yul\":34097:34101   */\n      0x00\n        /* \"#utility.yul\":34135:34137   */\n      0x20\n        /* \"#utility.yul\":34124:34133   */\n      dup3\n        /* \"#utility.yul\":34120:34138   */\n      add\n        /* \"#utility.yul\":34112:34138   */\n      swap1\n      pop\n        /* \"#utility.yul\":34184:34193   */\n      dup2\n        /* \"#utility.yul\":34178:34182   */\n      dup2\n        /* \"#utility.yul\":34174:34194   */\n      sub\n        /* \"#utility.yul\":34170:34171   */\n      0x00\n        /* \"#utility.yul\":34159:34168   */\n      dup4\n        /* \"#utility.yul\":34155:34172   */\n      add\n        /* \"#utility.yul\":34148:34195   */\n      mstore\n        /* \"#utility.yul\":34212:34343   */\n      tag_760\n        /* \"#utility.yul\":34338:34342   */\n      dup2\n        /* \"#utility.yul\":34212:34343   */\n      tag_673\n      jump\t// in\n    tag_760:\n        /* \"#utility.yul\":34204:34343   */\n      swap1\n      pop\n        /* \"#utility.yul\":33931:34350   */\n      swap2\n      swap1\n      pop\n      jump\t// out\n        /* \"#utility.yul\":34356:34729   */\n    tag_296:\n        /* \"#utility.yul\":34499:34503   */\n      0x00\n        /* \"#utility.yul\":34537:34539   */\n      0x20\n        /* \"#utility.yul\":34526:34535   */\n      dup3\n        /* \"#utility.yul\":34522:34540   */\n      add\n        /* \"#utility.yul\":34514:34540   */\n      swap1\n      pop\n        /* \"#utility.yul\":34586:34595   */\n      dup2\n        /* \"#utility.yul\":34580:34584   */\n      dup2\n        /* \"#utility.yul\":34576:34596   */\n      sub\n        /* \"#utility.yul\":34572:34573   */\n      0x00\n        /* \"#utility.yul\":34561:34570   */\n      dup4\n        /* \"#utility.yul\":34557:34574   */\n      add\n        /* \"#utility.yul\":34550:34597   */\n      mstore\n        /* \"#utility.yul\":34614:34722   */\n      tag_762\n        /* \"#utility.yul\":34717:34721   */\n      dup2\n        /* \"#utility.yul\":34708:34714   */\n      dup5\n        /* \"#utility.yul\":34614:34722   */\n      tag_678\n      jump\t// in\n    tag_762:\n        /* \"#utility.yul\":34606:34722   */\n      swap1\n      pop\n        /* \"#utility.yul\":34356:34729   */\n      swap3\n      swap2\n      pop\n      pop\n      jump\t// out\n        /* \"#utility.yul\":34735:35067   */\n    tag_173:\n        /* \"#utility.yul\":34856:34860   */\n      0x00\n        /* \"#utility.yul\":34894:34896   */\n      0x40\n        /* \"#utility.yul\":34883:34892   */\n      dup3\n        /* \"#utility.yul\":34879:34897   */\n      add\n        /* \"#utility.yul\":34871:34897   */\n      swap1\n      pop\n        /* \"#utility.yul\":34907:34978   */\n      tag_764\n        /* \"#utility.yul\":34975:34976   */\n      0x00\n        /* \"#utility.yul\":34964:34973   */\n      dup4\n        /* \"#utility.yul\":34960:34977   */\n      add\n        /* \"#utility.yul\":34951:34957   */\n      dup6\n        /* \"#utility.yul\":34907:34978   */\n      tag_682\n      jump\t// in\n    tag_764:\n        /* \"#utility.yul\":34988:35060   */\n      tag_765\n        /* \"#utility.yul\":35056:35058   */\n      0x20\n        /* \"#utility.yul\":35045:35054   */\n      dup4\n        /* \"#utility.yul\":35041:35059   */\n      add\n        /* \"#utility.yul\":35032:35038   */\n      dup5\n        /* \"#utility.yul\":34988:35060   */\n      tag_534\n      jump\t// in\n    tag_765:\n        /* \"#utility.yul\":34735:35067   */\n      swap4\n      swap3\n      pop\n      pop\n      pop\n      jump\t// out\n        /* \"#utility.yul\":35073:35515   */\n    tag_210:\n        /* \"#utility.yul\":35222:35226   */\n      0x00\n        /* \"#utility.yul\":35260:35262   */\n      0x60\n        /* \"#utility.yul\":35249:35258   */\n      dup3\n        /* \"#utility.yul\":35245:35263   */\n      add\n        /* \"#utility.yul\":35237:35263   */\n      swap1\n      pop\n        /* \"#utility.yul\":35273:35344   */\n      tag_767\n        /* \"#utility.yul\":35341:35342   */\n      0x00\n        /* \"#utility.yul\":35330:35339   */\n      dup4\n        /* \"#utility.yul\":35326:35343   */\n      add\n        /* \"#utility.yul\":35317:35323   */\n      dup7\n        /* \"#utility.yul\":35273:35344   */\n      tag_682\n      jump\t// in\n    tag_767:\n        /* \"#utility.yul\":35354:35426   */\n      tag_768\n        /* \"#utility.yul\":35422:35424   */\n      0x20\n        /* \"#utility.yul\":35411:35420   */\n      dup4\n        /* \"#utility.yul\":35407:35425   */\n      add\n        /* \"#utility.yul\":35398:35404   */\n      dup6\n        /* \"#utility.yul\":35354:35426   */\n      tag_534\n      jump\t// in\n    tag_768:\n        /* \"#utility.yul\":35436:35508   */\n      tag_769\n        /* \"#utility.yul\":35504:35506   */\n      0x40\n        /* \"#utility.yul\":35493:35502   */\n      dup4\n        /* \"#utility.yul\":35489:35507   */\n      add\n        /* \"#utility.yul\":35480:35486   */\n      dup5\n        /* \"#utility.yul\":35436:35508   */\n      tag_682\n      jump\t// in\n    tag_769:\n        /* \"#utility.yul\":35073:35515   */\n      swap5\n      swap4\n      pop\n      pop\n      pop\n      pop\n      jump\t// out\n        /* \"#utility.yul\":35521:35963   */\n    tag_148:\n        /* \"#utility.yul\":35670:35674   */\n      0x00\n        /* \"#utility.yul\":35708:35710   */\n      0x60\n        /* \"#utility.yul\":35697:35706   */\n      dup3\n        /* \"#utility.yul\":35693:35711   */\n      add\n        /* \"#utility.yul\":35685:35711   */\n      swap1\n      pop\n        /* \"#utility.yul\":35721:35792   */\n      tag_771\n        /* \"#utility.yul\":35789:35790   */\n      0x00\n        /* \"#utility.yul\":35778:35787   */\n      dup4\n        /* \"#utility.yul\":35774:35791   */\n      add\n        /* \"#utility.yul\":35765:35771   */\n      dup7\n        /* \"#utility.yul\":35721:35792   */\n      tag_682\n      jump\t// in\n    tag_771:\n        /* \"#utility.yul\":35802:35874   */\n      tag_772\n        /* \"#utility.yul\":35870:35872   */\n      0x20\n        /* \"#utility.yul\":35859:35868   */\n      dup4\n        /* \"#utility.yul\":35855:35873   */\n      add\n        /* \"#utility.yul\":35846:35852   */\n      dup6\n        /* \"#utility.yul\":35802:35874   */\n      tag_682\n      jump\t// in\n    tag_772:\n        /* \"#utility.yul\":35884:35956   */\n      tag_773\n        /* \"#utility.yul\":35952:35954   */\n      0x40\n        /* \"#utility.yul\":35941:35950   */\n      dup4\n        /* \"#utility.yul\":35937:35955   */\n      add\n        /* \"#utility.yul\":35928:35934   */\n      dup5\n        /* \"#utility.yul\":35884:35956   */\n      tag_534\n      jump\t// in\n    tag_773:\n        /* \"#utility.yul\":35521:35963   */\n      swap5\n      swap4\n      pop\n      pop\n      pop\n      pop\n      jump\t// out\n        /* \"#utility.yul\":35969:36098   */\n    tag_382:\n        /* \"#utility.yul\":36003:36009   */\n      0x00\n        /* \"#utility.yul\":36030:36050   */\n      tag_775\n      tag_776\n      jump\t// in\n    tag_775:\n        /* \"#utility.yul\":36020:36050   */\n      swap1\n      pop\n        /* \"#utility.yul\":36059:36092   */\n      tag_777\n        /* \"#utility.yul\":36087:36091   */\n      dup3\n        /* \"#utility.yul\":36079:36085   */\n      dup3\n        /* \"#utility.yul\":36059:36092   */\n      tag_778\n      jump\t// in\n    tag_777:\n        /* \"#utility.yul\":35969:36098   */\n      swap2\n      swap1\n      pop\n      jump\t// out\n        /* \"#utility.yul\":36104:36179   */\n    tag_776:\n        /* \"#utility.yul\":36137:36143   */\n      0x00\n        /* \"#utility.yul\":36170:36172   */\n      0x40\n        /* \"#utility.yul\":36164:36173   */\n      mload\n        /* \"#utility.yul\":36154:36173   */\n      swap1\n      pop\n        /* \"#utility.yul\":36104:36179   */\n      swap1\n      jump\t// out\n        /* \"#utility.yul\":36185:36496   */\n    tag_381:\n        /* \"#utility.yul\":36262:36266   */\n      0x00\n        /* \"#utility.yul\":36352:36370   */\n      0xffffffffffffffff\n        /* \"#utility.yul\":36344:36350   */\n      dup3\n        /* \"#utility.yul\":36341:36371   */\n      gt\n        /* \"#utility.yul\":36338:36394   */\n      iszero\n      tag_781\n      jumpi\n        /* \"#utility.yul\":36374:36392   */\n      tag_782\n      tag_783\n      jump\t// in\n    tag_782:\n        /* \"#utility.yul\":36338:36394   */\n    tag_781:\n        /* \"#utility.yul\":36424:36428   */\n      0x20\n        /* \"#utility.yul\":36416:36422   */\n      dup3\n        /* \"#utility.yul\":36412:36429   */\n      mul\n        /* \"#utility.yul\":36404:36429   */\n      swap1\n      pop\n        /* \"#utility.yul\":36484:36488   */\n      0x20\n        /* \"#utility.yul\":36478:36482   */\n      dup2\n        /* \"#utility.yul\":36474:36489   */\n      add\n        /* \"#utility.yul\":36466:36489   */\n      swap1\n      pop\n        /* \"#utility.yul\":36185:36496   */\n      swap2\n      swap1\n      pop\n      jump\t// out\n        /* \"#utility.yul\":36502:36809   */\n    tag_395:\n        /* \"#utility.yul\":36563:36567   */\n      0x00\n        /* \"#utility.yul\":36653:36671   */\n      0xffffffffffffffff\n        /* \"#utility.yul\":36645:36651   */\n      dup3\n        /* \"#utility.yul\":36642:36672   */\n      gt\n        /* \"#utility.yul\":36639:36695   */\n      iszero\n      tag_785\n      jumpi\n        /* \"#utility.yul\":36675:36693   */\n      tag_786\n      tag_783\n      jump\t// in\n    tag_786:\n        /* \"#utility.yul\":36639:36695   */\n    tag_785:\n        /* \"#utility.yul\":36713:36742   */\n      tag_787\n        /* \"#utility.yul\":36735:36741   */\n      dup3\n        /* \"#utility.yul\":36713:36742   */\n      tag_569\n      jump\t// in\n    tag_787:\n        /* \"#utility.yul\":36705:36742   */\n      swap1\n      pop\n        /* \"#utility.yul\":36797:36801   */\n      0x20\n        /* \"#utility.yul\":36791:36795   */\n      dup2\n        /* \"#utility.yul\":36787:36802   */\n      add\n        /* \"#utility.yul\":36779:36802   */\n      swap1\n      pop\n        /* \"#utility.yul\":36502:36809   */\n      swap2\n      swap1\n      pop\n      jump\t// out\n        /* \"#utility.yul\":36815:37123   */\n    tag_405:\n        /* \"#utility.yul\":36877:36881   */\n      0x00\n        /* \"#utility.yul\":36967:36985   */\n      0xffffffffffffffff\n        /* \"#utility.yul\":36959:36965   */\n      dup3\n        /* \"#utility.yul\":36956:36986   */\n      gt\n        /* \"#utility.yul\":36953:37009   */\n      iszero\n      tag_789\n      jumpi\n        /* \"#utility.yul\":36989:37007   */\n      tag_790\n      tag_783\n      jump\t// in\n    tag_790:\n        /* \"#utility.yul\":36953:37009   */\n    tag_789:\n        /* \"#utility.yul\":37027:37056   */\n      tag_791\n        /* \"#utility.yul\":37049:37055   */\n      dup3\n        /* \"#utility.yul\":37027:37056   */\n      tag_569\n      jump\t// in\n    tag_791:\n        /* \"#utility.yul\":37019:37056   */\n      swap1\n      pop\n        /* \"#utility.yul\":37111:37115   */\n      0x20\n        /* \"#utility.yul\":37105:37109   */\n      dup2\n        /* \"#utility.yul\":37101:37116   */\n      add\n        /* \"#utility.yul\":37093:37116   */\n      swap1\n      pop\n        /* \"#utility.yul\":36815:37123   */\n      swap2\n      swap1\n      pop\n      jump\t// out\n        /* \"#utility.yul\":37129:37227   */\n    tag_556:\n        /* \"#utility.yul\":37180:37186   */\n      0x00\n        /* \"#utility.yul\":37214:37219   */\n      dup2\n        /* \"#utility.yul\":37208:37220   */\n      mload\n        /* \"#utility.yul\":37198:37220   */\n      swap1\n      pop\n        /* \"#utility.yul\":37129:37227   */\n      swap2\n      swap1\n      pop\n      jump\t// out\n        /* \"#utility.yul\":37233:37332   */\n    tag_564:\n        /* \"#utility.yul\":37285:37291   */\n      0x00\n        /* \"#utility.yul\":37319:37324   */\n      dup2\n        /* \"#utility.yul\":37313:37325   */\n      mload\n        /* \"#utility.yul\":37303:37325   */\n      swap1\n      pop\n        /* \"#utility.yul\":37233:37332   */\n      swap2\n      swap1\n      pop\n      jump\t// out\n        /* \"#utility.yul\":37338:37506   */\n    tag_640:\n        /* \"#utility.yul\":37421:37432   */\n      0x00\n        /* \"#utility.yul\":37455:37461   */\n      dup3\n        /* \"#utility.yul\":37450:37453   */\n      dup3\n        /* \"#utility.yul\":37443:37462   */\n      mstore\n        /* \"#utility.yul\":37495:37499   */\n      0x20\n        /* \"#utility.yul\":37490:37493   */\n      dup3\n        /* \"#utility.yul\":37486:37500   */\n      add\n        /* \"#utility.yul\":37471:37500   */\n      swap1\n      pop\n        /* \"#utility.yul\":37338:37506   */\n      swap3\n      swap2\n      pop\n      pop\n      jump\t// out\n        /* \"#utility.yul\":37512:37659   */\n    tag_558:\n        /* \"#utility.yul\":37613:37624   */\n      0x00\n        /* \"#utility.yul\":37650:37653   */\n      dup2\n        /* \"#utility.yul\":37635:37653   */\n      swap1\n      pop\n        /* \"#utility.yul\":37512:37659   */\n      swap3\n      swap2\n      pop\n      pop\n      jump\t// out\n        /* \"#utility.yul\":37665:37824   */\n    tag_566:\n        /* \"#utility.yul\":37739:37750   */\n      0x00\n        /* \"#utility.yul\":37773:37779   */\n      dup3\n        /* \"#utility.yul\":37768:37771   */\n      dup3\n        /* \"#utility.yul\":37761:37780   */\n      mstore\n        /* \"#utility.yul\":37813:37817   */\n      0x20\n        /* \"#utility.yul\":37808:37811   */\n      dup3\n        /* \"#utility.yul\":37804:37818   */\n      add\n        /* \"#utility.yul\":37789:37818   */\n      swap1\n      pop\n        /* \"#utility.yul\":37665:37824   */\n      swap3\n      swap2\n      pop\n      pop\n      jump\t// out\n        /* \"#utility.yul\":37830:37999   */\n    tag_574:\n        /* \"#utility.yul\":37914:37925   */\n      0x00\n        /* \"#utility.yul\":37948:37954   */\n      dup3\n        /* \"#utility.yul\":37943:37946   */\n      dup3\n        /* \"#utility.yul\":37936:37955   */\n      mstore\n        /* \"#utility.yul\":37988:37992   */\n      0x20\n        /* \"#utility.yul\":37983:37986   */\n      dup3\n        /* \"#utility.yul\":37979:37993   */\n      add\n        /* \"#utility.yul\":37964:37993   */\n      swap1\n      pop\n        /* \"#utility.yul\":37830:37999   */\n      swap3\n      swap2\n      pop\n      pop\n      jump\t// out\n        /* \"#utility.yul\":38005:38353   */\n    tag_184:\n        /* \"#utility.yul\":38045:38052   */\n      0x00\n        /* \"#utility.yul\":38068:38088   */\n      tag_799\n        /* \"#utility.yul\":38086:38087   */\n      dup3\n        /* \"#utility.yul\":38068:38088   */\n      tag_685\n      jump\t// in\n    tag_799:\n        /* \"#utility.yul\":38063:38088   */\n      swap2\n      pop\n        /* \"#utility.yul\":38102:38122   */\n      tag_800\n        /* \"#utility.yul\":38120:38121   */\n      dup4\n        /* \"#utility.yul\":38102:38122   */\n      tag_685\n      jump\t// in\n    tag_800:\n        /* \"#utility.yul\":38097:38122   */\n      swap3\n      pop\n        /* \"#utility.yul\":38290:38291   */\n      dup2\n        /* \"#utility.yul\":38222:38288   */\n      0xffffffffffffffffffffffffffffffffffffffffffffffffffffffffffffffff\n        /* \"#utility.yul\":38218:38292   */\n      div\n        /* \"#utility.yul\":38215:38216   */\n      dup4\n        /* \"#utility.yul\":38212:38293   */\n      gt\n        /* \"#utility.yul\":38207:38208   */\n      dup3\n        /* \"#utility.yul\":38200:38209   */\n      iszero\n        /* \"#utility.yul\":38193:38210   */\n      iszero\n        /* \"#utility.yul\":38189:38294   */\n      and\n        /* \"#utility.yul\":38186:38317   */\n      iszero\n      tag_801\n      jumpi\n        /* \"#utility.yul\":38297:38315   */\n      tag_802\n      tag_803\n      jump\t// in\n    tag_802:\n        /* \"#utility.yul\":38186:38317   */\n    tag_801:\n        /* \"#utility.yul\":38345:38346   */\n      dup3\n        /* \"#utility.yul\":38342:38343   */\n      dup3\n        /* \"#utility.yul\":38338:38347   */\n      mul\n        /* \"#utility.yul\":38327:38347   */\n      swap1\n      pop\n        /* \"#utility.yul\":38005:38353   */\n      swap3\n      swap2\n      pop\n      pop\n      jump\t// out\n        /* \"#utility.yul\":38359:38550   */\n    tag_197:\n        /* \"#utility.yul\":38399:38403   */\n      0x00\n        /* \"#utility.yul\":38419:38439   */\n      tag_805\n        /* \"#utility.yul\":38437:38438   */\n      dup3\n        /* \"#utility.yul\":38419:38439   */\n      tag_685\n      jump\t// in\n    tag_805:\n        /* \"#utility.yul\":38414:38439   */\n      swap2\n      pop\n        /* \"#utility.yul\":38453:38473   */\n      tag_806\n        /* \"#utility.yul\":38471:38472   */\n      dup4\n        /* \"#utility.yul\":38453:38473   */\n      tag_685\n      jump\t// in\n    tag_806:\n        /* \"#utility.yul\":38448:38473   */\n      swap3\n      pop\n        /* \"#utility.yul\":38492:38493   */\n      dup3\n        /* \"#utility.yul\":38489:38490   */\n      dup3\n        /* \"#utility.yul\":38486:38494   */\n      lt\n        /* \"#utility.yul\":38483:38517   */\n      iszero\n      tag_807\n      jumpi\n        /* \"#utility.yul\":38497:38515   */\n      tag_808\n      tag_803\n      jump\t// in\n    tag_808:\n        /* \"#utility.yul\":38483:38517   */\n    tag_807:\n        /* \"#utility.yul\":38542:38543   */\n      dup3\n        /* \"#utility.yul\":38539:38540   */\n      dup3\n        /* \"#utility.yul\":38535:38544   */\n      sub\n        /* \"#utility.yul\":38527:38544   */\n      swap1\n      pop\n        /* \"#utility.yul\":38359:38550   */\n      swap3\n      swap2\n      pop\n      pop\n      jump\t// out\n        /* \"#utility.yul\":38556:38652   */\n    tag_537:\n        /* \"#utility.yul\":38593:38600   */\n      0x00\n        /* \"#utility.yul\":38622:38646   */\n      tag_810\n        /* \"#utility.yul\":38640:38645   */\n      dup3\n        /* \"#utility.yul\":38622:38646   */\n      tag_811\n      jump\t// in\n    tag_810:\n        /* \"#utility.yul\":38611:38646   */\n      swap1\n      pop\n        /* \"#utility.yul\":38556:38652   */\n      swap2\n      swap1\n      pop\n      jump\t// out\n        /* \"#utility.yul\":38658:38748   */\n    tag_541:\n        /* \"#utility.yul\":38692:38699   */\n      0x00\n        /* \"#utility.yul\":38735:38740   */\n      dup2\n        /* \"#utility.yul\":38728:38741   */\n      iszero\n        /* \"#utility.yul\":38721:38742   */\n      iszero\n        /* \"#utility.yul\":38710:38742   */\n      swap1\n      pop\n        /* \"#utility.yul\":38658:38748   */\n      swap2\n      swap1\n      pop\n      jump\t// out\n        /* \"#utility.yul\":38754:38831   */\n    tag_548:\n        /* \"#utility.yul\":38791:38798   */\n      0x00\n        /* \"#utility.yul\":38820:38825   */\n      dup2\n        /* \"#utility.yul\":38809:38825   */\n      swap1\n      pop\n        /* \"#utility.yul\":38754:38831   */\n      swap2\n      swap1\n      pop\n      jump\t// out\n        /* \"#utility.yul\":38837:38986   */\n    tag_552:\n        /* \"#utility.yul\":38873:38880   */\n      0x00\n        /* \"#utility.yul\":38913:38979   */\n      0xffffffff00000000000000000000000000000000000000000000000000000000\n        /* \"#utility.yul\":38906:38911   */\n      dup3\n        /* \"#utility.yul\":38902:38980   */\n      and\n        /* \"#utility.yul\":38891:38980   */\n      swap1\n      pop\n        /* \"#utility.yul\":38837:38986   */\n      swap2\n      swap1\n      pop\n      jump\t// out\n        /* \"#utility.yul\":38992:39118   */\n    tag_811:\n        /* \"#utility.yul\":39029:39036   */\n      0x00\n        /* \"#utility.yul\":39069:39111   */\n      0xffffffffffffffffffffffffffffffffffffffff\n        /* \"#utility.yul\":39062:39067   */\n      dup3\n        /* \"#utility.yul\":39058:39112   */\n      and\n        /* \"#utility.yul\":39047:39112   */\n      swap1\n      pop\n        /* \"#utility.yul\":38992:39118   */\n      swap2\n      swap1\n      pop\n      jump\t// out\n        /* \"#utility.yul\":39124:39201   */\n    tag_685:\n        /* \"#utility.yul\":39161:39168   */\n      0x00\n        /* \"#utility.yul\":39190:39195   */\n      dup2\n        /* \"#utility.yul\":39179:39195   */\n      swap1\n      pop\n        /* \"#utility.yul\":39124:39201   */\n      swap2\n      swap1\n      pop\n      jump\t// out\n        /* \"#utility.yul\":39207:39361   */\n    tag_400:\n        /* \"#utility.yul\":39291:39297   */\n      dup3\n        /* \"#utility.yul\":39286:39289   */\n      dup2\n        /* \"#utility.yul\":39281:39284   */\n      dup4\n        /* \"#utility.yul\":39268:39298   */\n      calldatacopy\n        /* \"#utility.yul\":39353:39354   */\n      0x00\n        /* \"#utility.yul\":39344:39350   */\n      dup4\n        /* \"#utility.yul\":39339:39342   */\n      dup4\n        /* \"#utility.yul\":39335:39351   */\n      add\n        /* \"#utility.yul\":39328:39355   */\n      mstore\n        /* \"#utility.yul\":39207:39361   */\n      pop\n      pop\n      pop\n      jump\t// out\n        /* \"#utility.yul\":39367:39674   */\n    tag_560:\n        /* \"#utility.yul\":39435:39436   */\n      0x00\n        /* \"#utility.yul\":39445:39558   */\n    tag_819:\n        /* \"#utility.yul\":39459:39465   */\n      dup4\n        /* \"#utility.yul\":39456:39457   */\n      dup2\n        /* \"#utility.yul\":39453:39466   */\n      lt\n        /* \"#utility.yul\":39445:39558   */\n      iszero\n      tag_821\n      jumpi\n        /* \"#utility.yul\":39544:39545   */\n      dup1\n        /* \"#utility.yul\":39539:39542   */\n      dup3\n        /* \"#utility.yul\":39535:39546   */\n      add\n        /* \"#utility.yul\":39529:39547   */\n      mload\n        /* \"#utility.yul\":39525:39526   */\n      dup2\n        /* \"#utility.yul\":39520:39523   */\n      dup5\n        /* \"#utility.yul\":39516:39527   */\n      add\n        /* \"#utility.yul\":39509:39548   */\n      mstore\n        /* \"#utility.yul\":39481:39483   */\n      0x20\n        /* \"#utility.yul\":39478:39479   */\n      dup2\n        /* \"#utility.yul\":39474:39484   */\n      add\n        /* \"#utility.yul\":39469:39484   */\n      swap1\n      pop\n        /* \"#utility.yul\":39445:39558   */\n      jump(tag_819)\n    tag_821:\n        /* \"#utility.yul\":39576:39582   */\n      dup4\n        /* \"#utility.yul\":39573:39574   */\n      dup2\n        /* \"#utility.yul\":39570:39583   */\n      gt\n        /* \"#utility.yul\":39567:39668   */\n      iszero\n      tag_822\n      jumpi\n        /* \"#utility.yul\":39656:39657   */\n      0x00\n        /* \"#utility.yul\":39647:39653   */\n      dup5\n        /* \"#utility.yul\":39642:39645   */\n      dup5\n        /* \"#utility.yul\":39638:39654   */\n      add\n        /* \"#utility.yul\":39631:39658   */\n      mstore\n        /* \"#utility.yul\":39567:39668   */\n    tag_822:\n        /* \"#utility.yul\":39416:39674   */\n      pop\n        /* \"#utility.yul\":39367:39674   */\n      pop\n      pop\n      pop\n      jump\t// out\n        /* \"#utility.yul\":39680:39961   */\n    tag_778:\n        /* \"#utility.yul\":39763:39790   */\n      tag_824\n        /* \"#utility.yul\":39785:39789   */\n      dup3\n        /* \"#utility.yul\":39763:39790   */\n      tag_569\n      jump\t// in\n    tag_824:\n        /* \"#utility.yul\":39755:39761   */\n      dup2\n        /* \"#utility.yul\":39751:39791   */\n      add\n        /* \"#utility.yul\":39893:39899   */\n      dup2\n        /* \"#utility.yul\":39881:39891   */\n      dup2\n        /* \"#utility.yul\":39878:39900   */\n      lt\n        /* \"#utility.yul\":39857:39875   */\n      0xffffffffffffffff\n        /* \"#utility.yul\":39845:39855   */\n      dup3\n        /* \"#utility.yul\":39842:39876   */\n      gt\n        /* \"#utility.yul\":39839:39901   */\n      or\n        /* \"#utility.yul\":39836:39924   */\n      iszero\n      tag_825\n      jumpi\n        /* \"#utility.yul\":39904:39922   */\n      tag_826\n      tag_783\n      jump\t// in\n    tag_826:\n        /* \"#utility.yul\":39836:39924   */\n    tag_825:\n        /* \"#utility.yul\":39944:39954   */\n      dup1\n        /* \"#utility.yul\":39940:39942   */\n      0x40\n        /* \"#utility.yul\":39933:39955   */\n      mstore\n        /* \"#utility.yul\":39723:39961   */\n      pop\n        /* \"#utility.yul\":39680:39961   */\n      pop\n      pop\n      jump\t// out\n        /* \"#utility.yul\":39967:40147   */\n    tag_803:\n        /* \"#utility.yul\":40015:40092   */\n      0x4e487b7100000000000000000000000000000000000000000000000000000000\n        /* \"#utility.yul\":40012:40013   */\n      0x00\n        /* \"#utility.yul\":40005:40093   */\n      mstore\n        /* \"#utility.yul\":40112:40116   */\n      0x11\n        /* \"#utility.yul\":40109:40110   */\n      0x04\n        /* \"#utility.yul\":40102:40117   */\n      mstore\n        /* \"#utility.yul\":40136:40140   */\n      0x24\n        /* \"#utility.yul\":40133:40134   */\n      0x00\n        /* \"#utility.yul\":40126:40141   */\n      revert\n        /* \"#utility.yul\":40153:40333   */\n    tag_783:\n        /* \"#utility.yul\":40201:40278   */\n      0x4e487b7100000000000000000000000000000000000000000000000000000000\n        /* \"#utility.yul\":40198:40199   */\n      0x00\n        /* \"#utility.yul\":40191:40279   */\n      mstore\n        /* \"#utility.yul\":40298:40302   */\n      0x41\n        /* \"#utility.yul\":40295:40296   */\n      0x04\n        /* \"#utility.yul\":40288:40303   */\n      mstore\n        /* \"#utility.yul\":40322:40326   */\n      0x24\n        /* \"#utility.yul\":40319:40320   */\n      0x00\n        /* \"#utility.yul\":40312:40327   */\n      revert\n        /* \"#utility.yul\":40339:40456   */\n    tag_417:\n        /* \"#utility.yul\":40448:40449   */\n      0x00\n        /* \"#utility.yul\":40445:40446   */\n      dup1\n        /* \"#utility.yul\":40438:40450   */\n      revert\n        /* \"#utility.yul\":40462:40579   */\n    tag_444:\n        /* \"#utility.yul\":40571:40572   */\n      0x00\n        /* \"#utility.yul\":40568:40569   */\n      dup1\n        /* \"#utility.yul\":40561:40573   */\n      revert\n        /* \"#utility.yul\":40585:40702   */\n    tag_448:\n        /* \"#utility.yul\":40694:40695   */\n      0x00\n        /* \"#utility.yul\":40691:40692   */\n      dup1\n        /* \"#utility.yul\":40684:40696   */\n      revert\n        /* \"#utility.yul\":40708:40825   */\n    tag_385:\n        /* \"#utility.yul\":40817:40818   */\n      0x00\n        /* \"#utility.yul\":40814:40815   */\n      dup1\n        /* \"#utility.yul\":40807:40819   */\n      revert\n        /* \"#utility.yul\":40831:40948   */\n    tag_398:\n        /* \"#utility.yul\":40940:40941   */\n      0x00\n        /* \"#utility.yul\":40937:40938   */\n      dup1\n        /* \"#utility.yul\":40930:40942   */\n      revert\n        /* \"#utility.yul\":40954:41071   */\n    tag_469:\n        /* \"#utility.yul\":41063:41064   */\n      0x00\n        /* \"#utility.yul\":41060:41061   */\n      dup1\n        /* \"#utility.yul\":41053:41065   */\n      revert\n        /* \"#utility.yul\":41077:41194   */\n    tag_460:\n        /* \"#utility.yul\":41186:41187   */\n      0x00\n        /* \"#utility.yul\":41183:41184   */\n      dup1\n        /* \"#utility.yul\":41176:41188   */\n      revert\n        /* \"#utility.yul\":41200:41302   */\n    tag_569:\n        /* \"#utility.yul\":41241:41247   */\n      0x00\n        /* \"#utility.yul\":41292:41294   */\n      0x1f\n        /* \"#utility.yul\":41288:41295   */\n      not\n        /* \"#utility.yul\":41283:41285   */\n      0x1f\n        /* \"#utility.yul\":41276:41281   */\n      dup4\n        /* \"#utility.yul\":41272:41286   */\n      add\n        /* \"#utility.yul\":41268:41296   */\n      and\n        /* \"#utility.yul\":41258:41296   */\n      swap1\n      pop\n        /* \"#utility.yul\":41200:41302   */\n      swap2\n      swap1\n      pop\n      jump\t// out\n        /* \"#utility.yul\":41308:41530   */\n    tag_581:\n        /* \"#utility.yul\":41448:41482   */\n      0x4d61726b6574706c6163653a207072696365206d757374206e6f74206265207a\n        /* \"#utility.yul\":41444:41445   */\n      0x00\n        /* \"#utility.yul\":41436:41442   */\n      dup3\n        /* \"#utility.yul\":41432:41446   */\n      add\n        /* \"#utility.yul\":41425:41483   */\n      mstore\n        /* \"#utility.yul\":41517:41522   */\n      0x65726f0000000000000000000000000000000000000000000000000000000000\n        /* \"#utility.yul\":41512:41514   */\n      0x20\n        /* \"#utility.yul\":41504:41510   */\n      dup3\n        /* \"#utility.yul\":41500:41515   */\n      add\n        /* \"#utility.yul\":41493:41523   */\n      mstore\n        /* \"#utility.yul\":41308:41530   */\n      pop\n      jump\t// out\n        /* \"#utility.yul\":41536:41706   */\n    tag_586:\n        /* \"#utility.yul\":41676:41698   */\n      0x5061757361626c653a206e6f7420706175736564000000000000000000000000\n        /* \"#utility.yul\":41672:41673   */\n      0x00\n        /* \"#utility.yul\":41664:41670   */\n      dup3\n        /* \"#utility.yul\":41660:41674   */\n      add\n        /* \"#utility.yul\":41653:41699   */\n      mstore\n        /* \"#utility.yul\":41536:41706   */\n      pop\n      jump\t// out\n        /* \"#utility.yul\":41712:41934   */\n    tag_591:\n        /* \"#utility.yul\":41852:41886   */\n      0x4d61726b6574706c6163653a204974656d20697320616c7265616479206c6973\n        /* \"#utility.yul\":41848:41849   */\n      0x00\n        /* \"#utility.yul\":41840:41846   */\n      dup3\n        /* \"#utility.yul\":41836:41850   */\n      add\n        /* \"#utility.yul\":41829:41887   */\n      mstore\n        /* \"#utility.yul\":41921:41926   */\n      0x7465640000000000000000000000000000000000000000000000000000000000\n        /* \"#utility.yul\":41916:41918   */\n      0x20\n        /* \"#utility.yul\":41908:41914   */\n      dup3\n        /* \"#utility.yul\":41904:41919   */\n      add\n        /* \"#utility.yul\":41897:41927   */\n      mstore\n        /* \"#utility.yul\":41712:41934   */\n      pop\n      jump\t// out\n        /* \"#utility.yul\":41940:42117   */\n    tag_596:\n        /* \"#utility.yul\":42080:42109   */\n      0x4d61726b6574706c6163653a20616d6f756e74206973207a65726f0000000000\n        /* \"#utility.yul\":42076:42077   */\n      0x00\n        /* \"#utility.yul\":42068:42074   */\n      dup3\n        /* \"#utility.yul\":42064:42078   */\n      add\n        /* \"#utility.yul\":42057:42110   */\n      mstore\n        /* \"#utility.yul\":41940:42117   */\n      pop\n      jump\t// out\n        /* \"#utility.yul\":42123:42348   */\n    tag_601:\n        /* \"#utility.yul\":42263:42297   */\n      0x4f776e61626c653a206e6577206f776e657220697320746865207a65726f2061\n        /* \"#utility.yul\":42259:42260   */\n      0x00\n        /* \"#utility.yul\":42251:42257   */\n      dup3\n        /* \"#utility.yul\":42247:42261   */\n      add\n        /* \"#utility.yul\":42240:42298   */\n      mstore\n        /* \"#utility.yul\":42332:42340   */\n      0x6464726573730000000000000000000000000000000000000000000000000000\n        /* \"#utility.yul\":42327:42329   */\n      0x20\n        /* \"#utility.yul\":42319:42325   */\n      dup3\n        /* \"#utility.yul\":42315:42330   */\n      add\n        /* \"#utility.yul\":42308:42341   */\n      mstore\n        /* \"#utility.yul\":42123:42348   */\n      pop\n      jump\t// out\n        /* \"#utility.yul\":42354:42579   */\n    tag_606:\n        /* \"#utility.yul\":42494:42528   */\n      0x416464726573733a20696e73756666696369656e742062616c616e636520666f\n        /* \"#utility.yul\":42490:42491   */\n      0x00\n        /* \"#utility.yul\":42482:42488   */\n      dup3\n        /* \"#utility.yul\":42478:42492   */\n      add\n        /* \"#utility.yul\":42471:42529   */\n      mstore\n        /* \"#utility.yul\":42563:42571   */\n      0x722063616c6c0000000000000000000000000000000000000000000000000000\n        /* \"#utility.yul\":42558:42560   */\n      0x20\n        /* \"#utility.yul\":42550:42556   */\n      dup3\n        /* \"#utility.yul\":42546:42561   */\n      add\n        /* \"#utility.yul\":42539:42572   */\n      mstore\n        /* \"#utility.yul\":42354:42579   */\n      pop\n      jump\t// out\n        /* \"#utility.yul\":42585:42751   */\n    tag_611:\n        /* \"#utility.yul\":42725:42743   */\n      0x5061757361626c653a2070617573656400000000000000000000000000000000\n        /* \"#utility.yul\":42721:42722   */\n      0x00\n        /* \"#utility.yul\":42713:42719   */\n      dup3\n        /* \"#utility.yul\":42709:42723   */\n      add\n        /* \"#utility.yul\":42702:42744   */\n      mstore\n        /* \"#utility.yul\":42585:42751   */\n      pop\n      jump\t// out\n        /* \"#utility.yul\":42757:42933   */\n    tag_616:\n        /* \"#utility.yul\":42897:42925   */\n      0x4d61726b6574706c6163653a207072696365206973207a65726f000000000000\n        /* \"#utility.yul\":42893:42894   */\n      0x00\n        /* \"#utility.yul\":42885:42891   */\n      dup3\n        /* \"#utility.yul\":42881:42895   */\n      add\n        /* \"#utility.yul\":42874:42926   */\n      mstore\n        /* \"#utility.yul\":42757:42933   */\n      pop\n      jump\t// out\n        /* \"#utility.yul\":42939:43172   */\n    tag_621:\n        /* \"#utility.yul\":43079:43113   */\n      0x4d61726b6574706c6163653a204f6e6c792061646d696e2063616e2063616c6c\n        /* \"#utility.yul\":43075:43076   */\n      0x00\n        /* \"#utility.yul\":43067:43073   */\n      dup3\n        /* \"#utility.yul\":43063:43077   */\n      add\n        /* \"#utility.yul\":43056:43114   */\n      mstore\n        /* \"#utility.yul\":43148:43164   */\n      0x20746869732066756e6374696f6e000000000000000000000000000000000000\n        /* \"#utility.yul\":43143:43145   */\n      0x20\n        /* \"#utility.yul\":43135:43141   */\n      dup3\n        /* \"#utility.yul\":43131:43146   */\n      add\n        /* \"#utility.yul\":43124:43165   */\n      mstore\n        /* \"#utility.yul\":42939:43172   */\n      pop\n      jump\t// out\n        /* \"#utility.yul\":43178:43360   */\n    tag_626:\n        /* \"#utility.yul\":43318:43352   */\n      0x4f776e61626c653a2063616c6c6572206973206e6f7420746865206f776e6572\n        /* \"#utility.yul\":43314:43315   */\n      0x00\n        /* \"#utility.yul\":43306:43312   */\n      dup3\n        /* \"#utility.yul\":43302:43316   */\n      add\n        /* \"#utility.yul\":43295:43353   */\n      mstore\n        /* \"#utility.yul\":43178:43360   */\n      pop\n      jump\t// out\n        /* \"#utility.yul\":43366:43591   */\n    tag_631:\n        /* \"#utility.yul\":43506:43540   */\n      0x4d61726b6574706c6163653a204e6f7420656e6f75676820616d6f756e742074\n        /* \"#utility.yul\":43502:43503   */\n      0x00\n        /* \"#utility.yul\":43494:43500   */\n      dup3\n        /* \"#utility.yul\":43490:43504   */\n      add\n        /* \"#utility.yul\":43483:43541   */\n      mstore\n        /* \"#utility.yul\":43575:43583   */\n      0x6f2073656c6c0000000000000000000000000000000000000000000000000000\n        /* \"#utility.yul\":43570:43572   */\n      0x20\n        /* \"#utility.yul\":43562:43568   */\n      dup3\n        /* \"#utility.yul\":43558:43573   */\n      add\n        /* \"#utility.yul\":43551:43584   */\n      mstore\n        /* \"#utility.yul\":43366:43591   */\n      pop\n      jump\t// out\n        /* \"#utility.yul\":43597:43779   */\n    tag_636:\n        /* \"#utility.yul\":43737:43771   */\n      0x4d61726b6574706c6163653a20696e76616c6964207472616465207072696365\n        /* \"#utility.yul\":43733:43734   */\n      0x00\n        /* \"#utility.yul\":43725:43731   */\n      dup3\n        /* \"#utility.yul\":43721:43735   */\n      add\n        /* \"#utility.yul\":43714:43772   */\n      mstore\n        /* \"#utility.yul\":43597:43779   */\n      pop\n      jump\t// out\n        /* \"#utility.yul\":43785:43899   */\n    tag_642:\n      pop\n      jump\t// out\n        /* \"#utility.yul\":43905:44084   */\n    tag_647:\n        /* \"#utility.yul\":44045:44076   */\n      0x416464726573733a2063616c6c20746f206e6f6e2d636f6e7472616374000000\n        /* \"#utility.yul\":44041:44042   */\n      0x00\n        /* \"#utility.yul\":44033:44039   */\n      dup3\n        /* \"#utility.yul\":44029:44043   */\n      add\n        /* \"#utility.yul\":44022:44077   */\n      mstore\n        /* \"#utility.yul\":43905:44084   */\n      pop\n      jump\t// out\n        /* \"#utility.yul\":44090:44319   */\n    tag_652:\n        /* \"#utility.yul\":44230:44264   */\n      0x4d61726b6574706c6163653a2053616c6520696e616374697665206f7220616c\n        /* \"#utility.yul\":44226:44227   */\n      0x00\n        /* \"#utility.yul\":44218:44224   */\n      dup3\n        /* \"#utility.yul\":44214:44228   */\n      add\n        /* \"#utility.yul\":44207:44265   */\n      mstore\n        /* \"#utility.yul\":44299:44311   */\n      0x726561647920736f6c6400000000000000000000000000000000000000000000\n        /* \"#utility.yul\":44294:44296   */\n      0x20\n        /* \"#utility.yul\":44286:44292   */\n      dup3\n        /* \"#utility.yul\":44282:44297   */\n      add\n        /* \"#utility.yul\":44275:44312   */\n      mstore\n        /* \"#utility.yul\":44090:44319   */\n      pop\n      jump\t// out\n        /* \"#utility.yul\":44325:44504   */\n    tag_657:\n        /* \"#utility.yul\":44465:44496   */\n      0x4d61726b6574706c6163653a206f776e65722063616e6e6f7420627579000000\n        /* \"#utility.yul\":44461:44462   */\n      0x00\n        /* \"#utility.yul\":44453:44459   */\n      dup3\n        /* \"#utility.yul\":44449:44463   */\n      add\n        /* \"#utility.yul\":44442:44497   */\n      mstore\n        /* \"#utility.yul\":44325:44504   */\n      pop\n      jump\t// out\n        /* \"#utility.yul\":44510:44739   */\n    tag_662:\n        /* \"#utility.yul\":44650:44684   */\n      0x5361666545524332303a204552433230206f7065726174696f6e20646964206e\n        /* \"#utility.yul\":44646:44647   */\n      0x00\n        /* \"#utility.yul\":44638:44644   */\n      dup3\n        /* \"#utility.yul\":44634:44648   */\n      add\n        /* \"#utility.yul\":44627:44685   */\n      mstore\n        /* \"#utility.yul\":44719:44731   */\n      0x6f74207375636365656400000000000000000000000000000000000000000000\n        /* \"#utility.yul\":44714:44716   */\n      0x20\n        /* \"#utility.yul\":44706:44712   */\n      dup3\n        /* \"#utility.yul\":44702:44717   */\n      add\n        /* \"#utility.yul\":44695:44732   */\n      mstore\n        /* \"#utility.yul\":44510:44739   */\n      pop\n      jump\t// out\n        /* \"#utility.yul\":44745:44926   */\n    tag_667:\n        /* \"#utility.yul\":44885:44918   */\n      0x5265656e7472616e637947756172643a207265656e7472616e742063616c6c00\n        /* \"#utility.yul\":44881:44882   */\n      0x00\n        /* \"#utility.yul\":44873:44879   */\n      dup3\n        /* \"#utility.yul\":44869:44883   */\n      add\n        /* \"#utility.yul\":44862:44919   */\n      mstore\n        /* \"#utility.yul\":44745:44926   */\n      pop\n      jump\t// out\n        /* \"#utility.yul\":44932:45155   */\n    tag_672:\n        /* \"#utility.yul\":45072:45106   */\n      0x4d61726b6574706c6163653a20616d6f756e74206d757374206e6f7420626520\n        /* \"#utility.yul\":45068:45069   */\n      0x00\n        /* \"#utility.yul\":45060:45066   */\n      dup3\n        /* \"#utility.yul\":45056:45070   */\n      add\n        /* \"#utility.yul\":45049:45107   */\n      mstore\n        /* \"#utility.yul\":45141:45147   */\n      0x7a65726f00000000000000000000000000000000000000000000000000000000\n        /* \"#utility.yul\":45136:45138   */\n      0x20\n        /* \"#utility.yul\":45128:45134   */\n      dup3\n        /* \"#utility.yul\":45124:45139   */\n      add\n        /* \"#utility.yul\":45117:45148   */\n      mstore\n        /* \"#utility.yul\":44932:45155   */\n      pop\n      jump\t// out\n        /* \"#utility.yul\":45161:45394   */\n    tag_677:\n        /* \"#utility.yul\":45301:45335   */\n      0x4d61726b6574706c6163653a2042616c616e6365206f66206974656d73206c65\n        /* \"#utility.yul\":45297:45298   */\n      0x00\n        /* \"#utility.yul\":45289:45295   */\n      dup3\n        /* \"#utility.yul\":45285:45299   */\n      add\n        /* \"#utility.yul\":45278:45336   */\n      mstore\n        /* \"#utility.yul\":45370:45386   */\n      0x7373207468616e20616d6f756e74000000000000000000000000000000000000\n        /* \"#utility.yul\":45365:45367   */\n      0x20\n        /* \"#utility.yul\":45357:45363   */\n      dup3\n        /* \"#utility.yul\":45353:45368   */\n      add\n        /* \"#utility.yul\":45346:45387   */\n      mstore\n        /* \"#utility.yul\":45161:45394   */\n      pop\n      jump\t// out\n        /* \"#utility.yul\":45400:45522   */\n    tag_412:\n        /* \"#utility.yul\":45473:45497   */\n      tag_858\n        /* \"#utility.yul\":45491:45496   */\n      dup2\n        /* \"#utility.yul\":45473:45497   */\n      tag_537\n      jump\t// in\n    tag_858:\n        /* \"#utility.yul\":45466:45471   */\n      dup2\n        /* \"#utility.yul\":45463:45498   */\n      eq\n        /* \"#utility.yul\":45453:45516   */\n      tag_859\n      jumpi\n        /* \"#utility.yul\":45512:45513   */\n      0x00\n        /* \"#utility.yul\":45509:45510   */\n      dup1\n        /* \"#utility.yul\":45502:45514   */\n      revert\n        /* \"#utility.yul\":45453:45516   */\n    tag_859:\n        /* \"#utility.yul\":45400:45522   */\n      pop\n      jump\t// out\n        /* \"#utility.yul\":45528:45644   */\n    tag_422:\n        /* \"#utility.yul\":45598:45619   */\n      tag_861\n        /* \"#utility.yul\":45613:45618   */\n      dup2\n        /* \"#utility.yul\":45598:45619   */\n      tag_541\n      jump\t// in\n    tag_861:\n        /* \"#utility.yul\":45591:45596   */\n      dup2\n        /* \"#utility.yul\":45588:45620   */\n      eq\n        /* \"#utility.yul\":45578:45638   */\n      tag_862\n      jumpi\n        /* \"#utility.yul\":45634:45635   */\n      0x00\n        /* \"#utility.yul\":45631:45632   */\n      dup1\n        /* \"#utility.yul\":45624:45636   */\n      revert\n        /* \"#utility.yul\":45578:45638   */\n    tag_862:\n        /* \"#utility.yul\":45528:45644   */\n      pop\n      jump\t// out\n        /* \"#utility.yul\":45650:45770   */\n    tag_429:\n        /* \"#utility.yul\":45722:45745   */\n      tag_864\n        /* \"#utility.yul\":45739:45744   */\n      dup2\n        /* \"#utility.yul\":45722:45745   */\n      tag_552\n      jump\t// in\n    tag_864:\n        /* \"#utility.yul\":45715:45720   */\n      dup2\n        /* \"#utility.yul\":45712:45746   */\n      eq\n        /* \"#utility.yul\":45702:45764   */\n      tag_865\n      jumpi\n        /* \"#utility.yul\":45760:45761   */\n      0x00\n        /* \"#utility.yul\":45757:45758   */\n      dup1\n        /* \"#utility.yul\":45750:45762   */\n      revert\n        /* \"#utility.yul\":45702:45764   */\n    tag_865:\n        /* \"#utility.yul\":45650:45770   */\n      pop\n      jump\t// out\n        /* \"#utility.yul\":45776:45898   */\n    tag_453:\n        /* \"#utility.yul\":45849:45873   */\n      tag_867\n        /* \"#utility.yul\":45867:45872   */\n      dup2\n        /* \"#utility.yul\":45849:45873   */\n      tag_685\n      jump\t// in\n    tag_867:\n        /* \"#utility.yul\":45842:45847   */\n      dup2\n        /* \"#utility.yul\":45839:45874   */\n      eq\n        /* \"#utility.yul\":45829:45892   */\n      tag_868\n      jumpi\n        /* \"#utility.yul\":45888:45889   */\n      0x00\n        /* \"#utility.yul\":45885:45886   */\n      dup1\n        /* \"#utility.yul\":45878:45890   */\n      revert\n        /* \"#utility.yul\":45829:45892   */\n    tag_868:\n        /* \"#utility.yul\":45776:45898   */\n      pop\n      jump\t// out\n\n    auxdata: 0xa264697066735822122006e94de6c43abe511957523af40434f30c8841afabb3de90b1543b17f0de7d8864736f6c63430008070033\n}\n",
				"bytecode": {
					"linkReferences": {},
					"object": "60c06040523480156200001157600080fd5b50604051620041813803806200418183398181016040528101906200003791906200036d565b60008060006101000a81548160ff02191690831515021790555062000071620000656200028960201b60201c565b6200029160201b60201c565b60018081905550600073ffffffffffffffffffffffffffffffffffffffff168373ffffffffffffffffffffffffffffffffffffffff161415620000eb576040517f08c379a0000000000000000000000000000000000000000000000000000000008152600401620000e2906200043e565b60405180910390fd5b600073ffffffffffffffffffffffffffffffffffffffff168273ffffffffffffffffffffffffffffffffffffffff1614156200015e576040517f08c379a0000000000000000000000000000000000000000000000000000000008152600401620001559062000482565b60405180910390fd5b600073ffffffffffffffffffffffffffffffffffffffff168173ffffffffffffffffffffffffffffffffffffffff161415620001d1576040517f08c379a0000000000000000000000000000000000000000000000000000000008152600401620001c89062000460565b60405180910390fd5b82600260006101000a81548173ffffffffffffffffffffffffffffffffffffffff021916908373ffffffffffffffffffffffffffffffffffffffff1602179055508173ffffffffffffffffffffffffffffffffffffffff1660808173ffffffffffffffffffffffffffffffffffffffff1660601b815250508073ffffffffffffffffffffffffffffffffffffffff1660a08173ffffffffffffffffffffffffffffffffffffffff1660601b81525050505050620005f5565b600033905090565b60008060019054906101000a900473ffffffffffffffffffffffffffffffffffffffff16905081600060016101000a81548173ffffffffffffffffffffffffffffffffffffffff021916908373ffffffffffffffffffffffffffffffffffffffff1602179055508173ffffffffffffffffffffffffffffffffffffffff168173ffffffffffffffffffffffffffffffffffffffff167f8be0079c531659141344cd1fd0a4f28419497f9722a3daafe3b4186f6b6457e060405160405180910390a35050565b6000815190506200036781620005db565b92915050565b600080600060608486031215620003895762000388620004e9565b5b6000620003998682870162000356565b9350506020620003ac8682870162000356565b9250506040620003bf8682870162000356565b9150509250925092565b6000620003d8603083620004a4565b9150620003e582620004ee565b604082019050919050565b6000620003ff602d83620004a4565b91506200040c826200053d565b604082019050919050565b600062000426602b83620004a4565b915062000433826200058c565b604082019050919050565b600060208201905081810360008301526200045981620003c9565b9050919050565b600060208201905081810360008301526200047b81620003f0565b9050919050565b600060208201905081810360008301526200049d8162000417565b9050919050565b600082825260208201905092915050565b6000620004c282620004c9565b9050919050565b600073ffffffffffffffffffffffffffffffffffffffff82169050919050565b600080fd5b7f4d61726b6574706c6163653a2041636365737320636f6e74726f6c20636f6e7460008201527f726163742063616e6e6f74206265203000000000000000000000000000000000602082015250565b7f4d61726b6574706c6163653a205549544e46546f6b656e206d757374206e6f7460008201527f2062652061646472657373203000000000000000000000000000000000000000602082015250565b7f4d61726b6574706c6163653a20554954546f6b656e206d757374206e6f74206260008201527f6520616464726573732030000000000000000000000000000000000000000000602082015250565b620005e681620004b5565b8114620005f257600080fd5b50565b60805160601c60a05160601c613b2862000659600039600081816106080152818161089f0152818161099d01528181610bad01528181611051015281816110e5015281816119da0152611a670152600081816109790152610f380152613b286000f3fe608060405234801561001057600080fd5b506004361061012c5760003560e01c8063715018a6116100ad578063bc197c8111610071578063bc197c81146102d5578063c1f7f0f514610305578063cb36142814610321578063f23a6e611461033d578063f2fde38b1461036d5761012c565b8063715018a61461025357806382367b2d1461025d5780638456cb59146102795780638da5cb5b14610283578063b46878ca146102a15761012c565b80633b88699b116100f45780633b88699b146101d55780633f4ba83a146101f357806343be2d03146101fd5780635c975abb14610219578063706910ff146102375761012c565b806301ffc9a71461013157806313007d551461016157806319129e5a1461017f57806319aeb4901461019b5780632fe7a96d146101b7575b600080fd5b61014b600480360381019061014691906127b2565b610389565b6040516101589190612f07565b60405180910390f35b610169610403565b6040516101769190612def565b60405180910390f35b610199600480360381019061019491906125f2565b610429565b005b6101b560048036038101906101b0919061298f565b6104e9565b005b6101bf610977565b6040516101cc9190612def565b60405180910390f35b6101dd61099b565b6040516101ea9190612def565b60405180910390f35b6101fb6109bf565b005b6102176004803603810190610212919061284e565b610a45565b005b610221610c83565b60405161022e9190612f07565b60405180910390f35b610251600480360381019061024c91906128e8565b610c99565b005b61025b6111cc565b005b6102776004803603810190610272919061294f565b611254565b005b6102816113d6565b005b61028b61145c565b6040516102989190612def565b60405180910390f35b6102bb60048036038101906102b691906128a8565b611485565b6040516102cc959493929190612f22565b60405180910390f35b6102ef60048036038101906102ea919061261f565b6114d5565b6040516102fc9190612f9e565b60405180910390f35b61031f600480360381019061031a919061294f565b6114ea565b005b61033b600480360381019061033691906127df565b6117b0565b005b610357600480360381019061035291906126ee565b611cfd565b6040516103649190612f9e565b60405180910390f35b610387600480360381019061038291906125f2565b611d12565b005b60007f4e2312e0000000000000000000000000000000000000000000000000000000007bffffffffffffffffffffffffffffffffffffffffffffffffffffffff1916827bffffffffffffffffffffffffffffffffffffffffffffffffffffffff191614806103fc57506103fb82611e0a565b5b9050919050565b600260009054906101000a900473ffffffffffffffffffffffffffffffffffffffff1681565b610431611e74565b73ffffffffffffffffffffffffffffffffffffffff1661044f61145c565b73ffffffffffffffffffffffffffffffffffffffff16146104a5576040517f08c379a000000000000000000000000000000000000000000000000000000000815260040161049c906130fb565b60405180910390fd5b80600260006101000a81548173ffffffffffffffffffffffffffffffffffffffff021916908373ffffffffffffffffffffffffffffffffffffffff16021790555050565b6104f1610c83565b15610531576040517f08c379a00000000000000000000000000000000000000000000000000000000081526004016105289061309b565b60405180910390fd5b60026001541415610577576040517f08c379a000000000000000000000000000000000000000000000000000000000815260040161056e906131db565b60405180910390fd5b6002600181905550600082116105c2576040517f08c379a00000000000000000000000000000000000000000000000000000000081526004016105b9906130bb565b60405180910390fd5b60008111610605576040517f08c379a00000000000000000000000000000000000000000000000000000000081526004016105fc9061303b565b60405180910390fd5b807f000000000000000000000000000000000000000000000000000000000000000073ffffffffffffffffffffffffffffffffffffffff1662fdd58e33866040518363ffffffff1660e01b8152600401610660929190612ede565b60206040518083038186803b15801561067857600080fd5b505afa15801561068c573d6000803e3d6000fd5b505050506040513d601f19601f820116820180604052508101906106b0919061287b565b10156106f1576040517f08c379a00000000000000000000000000000000000000000000000000000000081526004016106e89061321b565b60405180910390fd5b60006003600085815260200190815260200160002060003373ffffffffffffffffffffffffffffffffffffffff1673ffffffffffffffffffffffffffffffffffffffff1681526020019081526020016000206040518060a00160405290816000820160009054906101000a900460ff1615151515815260200160018201548152602001600282015481526020016003820154815260200160048201548152505090508060000151156107d8576040517f08c379a00000000000000000000000000000000000000000000000000000000081526004016107cf9061301b565b60405180910390fd5b6040518060a00160405280600115158152602001858152602001838152602001428152602001848152506003600086815260200190815260200160002060003373ffffffffffffffffffffffffffffffffffffffff1673ffffffffffffffffffffffffffffffffffffffff16815260200190815260200160002060008201518160000160006101000a81548160ff021916908315150217905550602082015181600101556040820151816002015560608201518160030155608082015181600401559050507f000000000000000000000000000000000000000000000000000000000000000073ffffffffffffffffffffffffffffffffffffffff1663f242432a333087866040518563ffffffff1660e01b81526004016108fc9493929190612e86565b600060405180830381600087803b15801561091657600080fd5b505af115801561092a573d6000803e3d6000fd5b50505050837f5bc1dfc7136db3113acb6dad2e291dcf149405ca07fcec667fa5e1fa7f430f98838533604051610962939291906132bd565b60405180910390a25060018081905550505050565b7f000000000000000000000000000000000000000000000000000000000000000081565b7f000000000000000000000000000000000000000000000000000000000000000081565b6109c7611e74565b73ffffffffffffffffffffffffffffffffffffffff166109e561145c565b73ffffffffffffffffffffffffffffffffffffffff1614610a3b576040517f08c379a0000000000000000000000000000000000000000000000000000000008152600401610a32906130fb565b60405180910390fd5b610a43611e7c565b565b610a4d610c83565b15610a8d576040517f08c379a0000000000000000000000000000000000000000000000000000000008152600401610a849061309b565b60405180910390fd5b60026001541415610ad3576040517f08c379a0000000000000000000000000000000000000000000000000000000008152600401610aca906131db565b60405180910390fd5b6002600181905550600033905060006003600084815260200190815260200160002060008373ffffffffffffffffffffffffffffffffffffffff1673ffffffffffffffffffffffffffffffffffffffff16815260200190815260200160002090508060000160009054906101000a900460ff16610b85576040517f08c379a0000000000000000000000000000000000000000000000000000000008152600401610b7c9061317b565b60405180910390fd5b60008160020154905060008260000160006101000a81548160ff0219169083151502179055507f000000000000000000000000000000000000000000000000000000000000000073ffffffffffffffffffffffffffffffffffffffff1663f242432a308587856040518563ffffffff1660e01b8152600401610c0a9493929190612e86565b600060405180830381600087803b158015610c2457600080fd5b505af1158015610c38573d6000803e3d6000fd5b50505050837f30411792a34feb0f32a6be64e1996fa803c4505bbf6314f391f3d63c24ae52d58285604051610c6e92919061325d565b60405180910390a25050506001808190555050565b60008060009054906101000a900460ff16905090565b610ca1610c83565b15610ce1576040517f08c379a0000000000000000000000000000000000000000000000000000000008152600401610cd89061309b565b60405180910390fd5b60026001541415610d27576040517f08c379a0000000000000000000000000000000000000000000000000000000008152600401610d1e906131db565b60405180910390fd5b600260018190555060006003600086815260200190815260200160002060008573ffffffffffffffffffffffffffffffffffffffff1673ffffffffffffffffffffffffffffffffffffffff1681526020019081526020016000209050600033905060008260040154905060008186610d9f91906133fb565b90508360000160009054906101000a900460ff16610df2576040517f08c379a0000000000000000000000000000000000000000000000000000000008152600401610de99061317b565b60405180910390fd5b8360020154861115610e39576040517f08c379a0000000000000000000000000000000000000000000000000000000008152600401610e309061311b565b60405180910390fd5b818514610e7b576040517f08c379a0000000000000000000000000000000000000000000000000000000008152600401610e729061313b565b60405180910390fd5b8673ffffffffffffffffffffffffffffffffffffffff168373ffffffffffffffffffffffffffffffffffffffff161415610eea576040517f08c379a0000000000000000000000000000000000000000000000000000000008152600401610ee19061319b565b60405180910390fd5b85846002016000828254610efe9190613455565b92505081905550600084600201541415610f305760008460000160006101000a81548160ff0219169083151502179055505b610f7d8388837f000000000000000000000000000000000000000000000000000000000000000073ffffffffffffffffffffffffffffffffffffffff16611f1d909392919063ffffffff16565b600260009054906101000a900473ffffffffffffffffffffffffffffffffffffffff1673ffffffffffffffffffffffffffffffffffffffff166391d148547fdf8b4c520ffe197c5343c6f5aec59570151ef9a492f2c624fd45ddde6135ec42896040518363ffffffff1660e01b8152600401610ffa929190612f75565b60206040518083038186803b15801561101257600080fd5b505afa158015611026573d6000803e3d6000fd5b505050506040513d601f19601f8201168201806040525081019061104a9190612785565b156110e3577f000000000000000000000000000000000000000000000000000000000000000073ffffffffffffffffffffffffffffffffffffffff1663836a10408985896040518463ffffffff1660e01b81526004016110ac93929190613286565b600060405180830381600087803b1580156110c657600080fd5b505af11580156110da573d6000803e3d6000fd5b5050505061117d565b7f000000000000000000000000000000000000000000000000000000000000000073ffffffffffffffffffffffffffffffffffffffff1663f242432a3085876001015488600201546040518563ffffffff1660e01b815260040161114a9493929190612e86565b600060405180830381600087803b15801561116457600080fd5b505af1158015611178573d6000803e3d6000fd5b505050505b877f9c45908c2d32f0072963511b0e7c3059b0202498a9fdc83032dd440850d0c863848989856040516111b39493929190612e41565b60405180910390a2505050506001808190555050505050565b6111d4611e74565b73ffffffffffffffffffffffffffffffffffffffff166111f261145c565b73ffffffffffffffffffffffffffffffffffffffff1614611248576040517f08c379a000000000000000000000000000000000000000000000000000000000815260040161123f906130fb565b60405180910390fd5b6112526000611fa6565b565b61125c610c83565b1561129c576040517f08c379a00000000000000000000000000000000000000000000000000000000081526004016112939061309b565b60405180910390fd5b600260015414156112e2576040517f08c379a00000000000000000000000000000000000000000000000000000000081526004016112d9906131db565b60405180910390fd5b6002600181905550600033905060006003600085815260200190815260200160002060008373ffffffffffffffffffffffffffffffffffffffff1673ffffffffffffffffffffffffffffffffffffffff168152602001908152602001600020905060008311611386576040517f08c379a000000000000000000000000000000000000000000000000000000000815260040161137d906130bb565b60405180910390fd5b828160040181905550837f378b09391f49d01e482ba75312341912ad0652cb8aa8799b6b33b624bd65d9f284846040516113c192919061325d565b60405180910390a25050600180819055505050565b6113de611e74565b73ffffffffffffffffffffffffffffffffffffffff166113fc61145c565b73ffffffffffffffffffffffffffffffffffffffff1614611452576040517f08c379a0000000000000000000000000000000000000000000000000000000008152600401611449906130fb565b60405180910390fd5b61145a61206b565b565b60008060019054906101000a900473ffffffffffffffffffffffffffffffffffffffff16905090565b6003602052816000526040600020602052806000526040600020600091509150508060000160009054906101000a900460ff16908060010154908060020154908060030154908060040154905085565b600063bc197c8160e01b905095945050505050565b600260009054906101000a900473ffffffffffffffffffffffffffffffffffffffff1673ffffffffffffffffffffffffffffffffffffffff166391d148547fdf8b4c520ffe197c5343c6f5aec59570151ef9a492f2c624fd45ddde6135ec42336040518363ffffffff1660e01b8152600401611567929190612f75565b60206040518083038186803b15801561157f57600080fd5b505afa158015611593573d6000803e3d6000fd5b505050506040513d601f19601f820116820180604052508101906115b79190612785565b6115f6576040517f08c379a00000000000000000000000000000000000000000000000000000000081526004016115ed906130db565b60405180910390fd5b6115fe610c83565b1561163e576040517f08c379a00000000000000000000000000000000000000000000000000000000081526004016116359061309b565b60405180910390fd5b60026001541415611684576040517f08c379a000000000000000000000000000000000000000000000000000000000815260040161167b906131db565b60405180910390fd5b600260018190555060006003600084815260200190815260200160002060003373ffffffffffffffffffffffffffffffffffffffff1673ffffffffffffffffffffffffffffffffffffffff168152602001908152602001600020905060008160000160009054906101000a900460ff1690506000831480156117035750805b1561172a5760008260000160006101000a81548160ff021916908315150217905550611760565b6000826002015414801561173c575080155b1561175f5760018260000160006101000a81548160ff0219169083151502179055505b5b828260020181905550837f4bfa799bd52e5cd465e582b11fbad754d789f4fa526df2209ec026d2da586661843360405161179b92919061325d565b60405180910390a25050600180819055505050565b600260009054906101000a900473ffffffffffffffffffffffffffffffffffffffff1673ffffffffffffffffffffffffffffffffffffffff166391d148547fdf8b4c520ffe197c5343c6f5aec59570151ef9a492f2c624fd45ddde6135ec42336040518363ffffffff1660e01b815260040161182d929190612f75565b60206040518083038186803b15801561184557600080fd5b505afa158015611859573d6000803e3d6000fd5b505050506040513d601f19601f8201168201806040525081019061187d9190612785565b6118bc576040517f08c379a00000000000000000000000000000000000000000000000000000000081526004016118b3906130db565b60405180910390fd5b6118c4610c83565b15611904576040517f08c379a00000000000000000000000000000000000000000000000000000000081526004016118fb9061309b565b60405180910390fd5b6002600154141561194a576040517f08c379a0000000000000000000000000000000000000000000000000000000008152600401611941906131db565b60405180910390fd5b600260018190555060008211611995576040517f08c379a000000000000000000000000000000000000000000000000000000000815260040161198c90612fdb565b60405180910390fd5b600081116119d8576040517f08c379a00000000000000000000000000000000000000000000000000000000081526004016119cf906131fb565b60405180910390fd5b7f000000000000000000000000000000000000000000000000000000000000000073ffffffffffffffffffffffffffffffffffffffff166391ac2c4e846040518263ffffffff1660e01b8152600401611a31919061323b565b600060405180830381600087803b158015611a4b57600080fd5b505af1158015611a5f573d6000803e3d6000fd5b5050505060007f000000000000000000000000000000000000000000000000000000000000000073ffffffffffffffffffffffffffffffffffffffff1663b02a27566040518163ffffffff1660e01b8152600401602060405180830381600087803b158015611acd57600080fd5b505af1158015611ae1573d6000803e3d6000fd5b505050506040513d601f19601f82011682018060405250810190611b05919061287b565b905060006003600083815260200190815260200160002060003373ffffffffffffffffffffffffffffffffffffffff1673ffffffffffffffffffffffffffffffffffffffff1681526020019081526020016000206040518060a00160405290816000820160009054906101000a900460ff161515151581526020016001820154815260200160028201548152602001600382015481526020016004820154815250509050806000015115611bee576040517f08c379a0000000000000000000000000000000000000000000000000000000008152600401611be59061301b565b60405180910390fd5b6040518060a00160405280600115158152602001838152602001848152602001428152602001858152506003600084815260200190815260200160002060003373ffffffffffffffffffffffffffffffffffffffff1673ffffffffffffffffffffffffffffffffffffffff16815260200190815260200160002060008201518160000160006101000a81548160ff02191690831515021790555060208201518160010155604082015181600201556060820151816003015560808201518160040155905050817f45f291a17faaad4d168218441d34a64d78538caf947c648ca3e2e296ecc0bac1848633604051611ce7939291906132bd565b60405180910390a2505060018081905550505050565b600063f23a6e6160e01b905095945050505050565b611d1a611e74565b73ffffffffffffffffffffffffffffffffffffffff16611d3861145c565b73ffffffffffffffffffffffffffffffffffffffff1614611d8e576040517f08c379a0000000000000000000000000000000000000000000000000000000008152600401611d85906130fb565b60405180910390fd5b600073ffffffffffffffffffffffffffffffffffffffff168173ffffffffffffffffffffffffffffffffffffffff161415611dfe576040517f08c379a0000000000000000000000000000000000000000000000000000000008152600401611df59061305b565b60405180910390fd5b611e0781611fa6565b50565b60007f01ffc9a7000000000000000000000000000000000000000000000000000000007bffffffffffffffffffffffffffffffffffffffffffffffffffffffff1916827bffffffffffffffffffffffffffffffffffffffffffffffffffffffff1916149050919050565b600033905090565b611e84610c83565b611ec3576040517f08c379a0000000000000000000000000000000000000000000000000000000008152600401611eba90612ffb565b60405180910390fd5b60008060006101000a81548160ff0219169083151502179055507f5db9ee0a495bf2e6ff9c91a7834c1ba4fdd244a5e8aa4e537bd38aeae4b073aa611f06611e74565b604051611f139190612def565b60405180910390a1565b611fa0846323b872dd60e01b858585604051602401611f3e93929190612e0a565b604051602081830303815290604052907bffffffffffffffffffffffffffffffffffffffffffffffffffffffff19166020820180517bffffffffffffffffffffffffffffffffffffffffffffffffffffffff838183161783525050505061210d565b50505050565b60008060019054906101000a900473ffffffffffffffffffffffffffffffffffffffff16905081600060016101000a81548173ffffffffffffffffffffffffffffffffffffffff021916908373ffffffffffffffffffffffffffffffffffffffff1602179055508173ffffffffffffffffffffffffffffffffffffffff168173ffffffffffffffffffffffffffffffffffffffff167f8be0079c531659141344cd1fd0a4f28419497f9722a3daafe3b4186f6b6457e060405160405180910390a35050565b612073610c83565b156120b3576040517f08c379a00000000000000000000000000000000000000000000000000000000081526004016120aa9061309b565b60405180910390fd5b60016000806101000a81548160ff0219169083151502179055507f62e78cea01bee320cd4e420270b5ea74000d11b0c9f74754ebdbfc544b05a2586120f6611e74565b6040516121039190612def565b60405180910390a1565b600061216f826040518060400160405280602081526020017f5361666545524332303a206c6f772d6c6576656c2063616c6c206661696c65648152508573ffffffffffffffffffffffffffffffffffffffff166121d49092919063ffffffff16565b90506000815111156121cf578080602001905181019061218f9190612785565b6121ce576040517f08c379a00000000000000000000000000000000000000000000000000000000081526004016121c5906131bb565b60405180910390fd5b5b505050565b60606121e384846000856121ec565b90509392505050565b606082471015612231576040517f08c379a00000000000000000000000000000000000000000000000000000000081526004016122289061307b565b60405180910390fd5b61223a85612300565b612279576040517f08c379a00000000000000000000000000000000000000000000000000000000081526004016122709061315b565b60405180910390fd5b6000808673ffffffffffffffffffffffffffffffffffffffff1685876040516122a29190612dd8565b60006040518083038185875af1925050503d80600081146122df576040519150601f19603f3d011682016040523d82523d6000602084013e6122e4565b606091505b50915091506122f4828286612323565b92505050949350505050565b6000808273ffffffffffffffffffffffffffffffffffffffff163b119050919050565b6060831561233357829050612383565b6000835111156123465782518084602001fd5b816040517f08c379a000000000000000000000000000000000000000000000000000000000815260040161237a9190612fb9565b60405180910390fd5b9392505050565b600061239d61239884613319565b6132f4565b905080838252602082019050828560208602820111156123c0576123bf6135e7565b5b60005b858110156123f057816123d688826125c8565b8452602084019350602083019250506001810190506123c3565b5050509392505050565b600061240d61240884613345565b6132f4565b905082815260208101848484011115612429576124286135ec565b5b612434848285613507565b509392505050565b600061244f61244a84613376565b6132f4565b90508281526020810184848401111561246b5761246a6135ec565b5b612476848285613507565b509392505050565b60008135905061248d81613a96565b92915050565b600082601f8301126124a8576124a76135d8565b5b81356124b884826020860161238a565b91505092915050565b6000813590506124d081613aad565b92915050565b6000815190506124e581613aad565b92915050565b6000813590506124fa81613ac4565b92915050565b600082601f830112612515576125146135d8565b5b81356125258482602086016123fa565b91505092915050565b600082601f830112612543576125426135d8565b5b813561255384826020860161243c565b91505092915050565b600060408284031215612572576125716135dd565b5b61257c60406132f4565b9050600082013567ffffffffffffffff81111561259c5761259b6135e2565b5b6125a88482850161252e565b60008301525060206125bc848285016124c1565b60208301525092915050565b6000813590506125d781613adb565b92915050565b6000815190506125ec81613adb565b92915050565b600060208284031215612608576126076135f6565b5b60006126168482850161247e565b91505092915050565b600080600080600060a0868803121561263b5761263a6135f6565b5b60006126498882890161247e565b955050602061265a8882890161247e565b945050604086013567ffffffffffffffff81111561267b5761267a6135f1565b5b61268788828901612493565b935050606086013567ffffffffffffffff8111156126a8576126a76135f1565b5b6126b488828901612493565b925050608086013567ffffffffffffffff8111156126d5576126d46135f1565b5b6126e188828901612500565b9150509295509295909350565b600080600080600060a0868803121561270a576127096135f6565b5b60006127188882890161247e565b95505060206127298882890161247e565b945050604061273a888289016125c8565b935050606061274b888289016125c8565b925050608086013567ffffffffffffffff81111561276c5761276b6135f1565b5b61277888828901612500565b9150509295509295909350565b60006020828403121561279b5761279a6135f6565b5b60006127a9848285016124d6565b91505092915050565b6000602082840312156127c8576127c76135f6565b5b60006127d6848285016124eb565b91505092915050565b6000806000606084860312156127f8576127f76135f6565b5b600084013567ffffffffffffffff811115612816576128156135f1565b5b6128228682870161255c565b9350506020612833868287016125c8565b9250506040612844868287016125c8565b9150509250925092565b600060208284031215612864576128636135f6565b5b6000612872848285016125c8565b91505092915050565b600060208284031215612891576128906135f6565b5b600061289f848285016125dd565b91505092915050565b600080604083850312156128bf576128be6135f6565b5b60006128cd858286016125c8565b92505060206128de8582860161247e565b9150509250929050565b60008060008060808587031215612902576129016135f6565b5b6000612910878288016125c8565b94505060206129218782880161247e565b9350506040612932878288016125c8565b9250506060612943878288016125c8565b91505092959194509250565b60008060408385031215612966576129656135f6565b5b6000612974858286016125c8565b9250506020612985858286016125c8565b9150509250929050565b6000806000606084860312156129a8576129a76135f6565b5b60006129b6868287016125c8565b93505060206129c7868287016125c8565b92505060406129d8868287016125c8565b9150509250925092565b6129eb81613489565b82525050565b6129fa8161349b565b82525050565b612a098161349b565b82525050565b612a18816134a7565b82525050565b612a27816134b1565b82525050565b6000612a38826133a7565b612a4281856133ce565b9350612a52818560208601613516565b80840191505092915050565b6000612a69826133b2565b612a7381856133d9565b9350612a83818560208601613516565b612a8c816135fb565b840191505092915050565b6000612aa2826133b2565b612aac81856133ea565b9350612abc818560208601613516565b612ac5816135fb565b840191505092915050565b6000612add6023836133ea565b9150612ae88261360c565b604082019050919050565b6000612b006014836133ea565b9150612b0b8261365b565b602082019050919050565b6000612b236023836133ea565b9150612b2e82613684565b604082019050919050565b6000612b46601b836133ea565b9150612b51826136d3565b602082019050919050565b6000612b696026836133ea565b9150612b74826136fc565b604082019050919050565b6000612b8c6026836133ea565b9150612b978261374b565b604082019050919050565b6000612baf6010836133ea565b9150612bba8261379a565b602082019050919050565b6000612bd2601a836133ea565b9150612bdd826137c3565b602082019050919050565b6000612bf5602e836133ea565b9150612c00826137ec565b604082019050919050565b6000612c186020836133ea565b9150612c238261383b565b602082019050919050565b6000612c3b6026836133ea565b9150612c4682613864565b604082019050919050565b6000612c5e6020836133ea565b9150612c69826138b3565b602082019050919050565b6000612c816000836133bd565b9150612c8c826138dc565b600082019050919050565b6000612ca4601d836133ea565b9150612caf826138df565b602082019050919050565b6000612cc7602a836133ea565b9150612cd282613908565b604082019050919050565b6000612cea601d836133ea565b9150612cf582613957565b602082019050919050565b6000612d0d602a836133ea565b9150612d1882613980565b604082019050919050565b6000612d30601f836133ea565b9150612d3b826139cf565b602082019050919050565b6000612d536024836133ea565b9150612d5e826139f8565b604082019050919050565b6000612d76602e836133ea565b9150612d8182613a47565b604082019050919050565b60006040830160008301518482036000860152612da98282612a5e565b9150506020830151612dbe60208601826129f1565b508091505092915050565b612dd2816134fd565b82525050565b6000612de48284612a2d565b915081905092915050565b6000602082019050612e0460008301846129e2565b92915050565b6000606082019050612e1f60008301866129e2565b612e2c60208301856129e2565b612e396040830184612dc9565b949350505050565b6000608082019050612e5660008301876129e2565b612e6360208301866129e2565b612e706040830185612dc9565b612e7d6060830184612dc9565b95945050505050565b600060a082019050612e9b60008301876129e2565b612ea860208301866129e2565b612eb56040830185612dc9565b612ec26060830184612dc9565b8181036080830152612ed381612c74565b905095945050505050565b6000604082019050612ef360008301856129e2565b612f006020830184612dc9565b9392505050565b6000602082019050612f1c6000830184612a00565b92915050565b600060a082019050612f376000830188612a00565b612f446020830187612dc9565b612f516040830186612dc9565b612f5e6060830185612dc9565b612f6b6080830184612dc9565b9695505050505050565b6000604082019050612f8a6000830185612a0f565b612f9760208301846129e2565b9392505050565b6000602082019050612fb36000830184612a1e565b92915050565b60006020820190508181036000830152612fd38184612a97565b905092915050565b60006020820190508181036000830152612ff481612ad0565b9050919050565b6000602082019050818103600083015261301481612af3565b9050919050565b6000602082019050818103600083015261303481612b16565b9050919050565b6000602082019050818103600083015261305481612b39565b9050919050565b6000602082019050818103600083015261307481612b5c565b9050919050565b6000602082019050818103600083015261309481612b7f565b9050919050565b600060208201905081810360008301526130b481612ba2565b9050919050565b600060208201905081810360008301526130d481612bc5565b9050919050565b600060208201905081810360008301526130f481612be8565b9050919050565b6000602082019050818103600083015261311481612c0b565b9050919050565b6000602082019050818103600083015261313481612c2e565b9050919050565b6000602082019050818103600083015261315481612c51565b9050919050565b6000602082019050818103600083015261317481612c97565b9050919050565b6000602082019050818103600083015261319481612cba565b9050919050565b600060208201905081810360008301526131b481612cdd565b9050919050565b600060208201905081810360008301526131d481612d00565b9050919050565b600060208201905081810360008301526131f481612d23565b9050919050565b6000602082019050818103600083015261321481612d46565b9050919050565b6000602082019050818103600083015261323481612d69565b9050919050565b600060208201905081810360008301526132558184612d8c565b905092915050565b60006040820190506132726000830185612dc9565b61327f60208301846129e2565b9392505050565b600060608201905061329b6000830186612dc9565b6132a860208301856129e2565b6132b56040830184612dc9565b949350505050565b60006060820190506132d26000830186612dc9565b6132df6020830185612dc9565b6132ec60408301846129e2565b949350505050565b60006132fe61330f565b905061330a8282613549565b919050565b6000604051905090565b600067ffffffffffffffff821115613334576133336135a9565b5b602082029050602081019050919050565b600067ffffffffffffffff8211156133605761335f6135a9565b5b613369826135fb565b9050602081019050919050565b600067ffffffffffffffff821115613391576133906135a9565b5b61339a826135fb565b9050602081019050919050565b600081519050919050565b600081519050919050565b600082825260208201905092915050565b600081905092915050565b600082825260208201905092915050565b600082825260208201905092915050565b6000613406826134fd565b9150613411836134fd565b9250817fffffffffffffffffffffffffffffffffffffffffffffffffffffffffffffffff048311821515161561344a5761344961357a565b5b828202905092915050565b6000613460826134fd565b915061346b836134fd565b92508282101561347e5761347d61357a565b5b828203905092915050565b6000613494826134dd565b9050919050565b60008115159050919050565b6000819050919050565b60007fffffffff0000000000000000000000000000000000000000000000000000000082169050919050565b600073ffffffffffffffffffffffffffffffffffffffff82169050919050565b6000819050919050565b82818337600083830152505050565b60005b83811015613534578082015181840152602081019050613519565b83811115613543576000848401525b50505050565b613552826135fb565b810181811067ffffffffffffffff82111715613571576135706135a9565b5b80604052505050565b7f4e487b7100000000000000000000000000000000000000000000000000000000600052601160045260246000fd5b7f4e487b7100000000000000000000000000000000000000000000000000000000600052604160045260246000fd5b600080fd5b600080fd5b600080fd5b600080fd5b600080fd5b600080fd5b600080fd5b6000601f19601f8301169050919050565b7f4d61726b6574706c6163653a207072696365206d757374206e6f74206265207a60008201527f65726f0000000000000000000000000000000000000000000000000000000000602082015250565b7f5061757361626c653a206e6f7420706175736564000000000000000000000000600082015250565b7f4d61726b6574706c6163653a204974656d20697320616c7265616479206c697360008201527f7465640000000000000000000000000000000000000000000000000000000000602082015250565b7f4d61726b6574706c6163653a20616d6f756e74206973207a65726f0000000000600082015250565b7f4f776e61626c653a206e6577206f776e657220697320746865207a65726f206160008201527f6464726573730000000000000000000000000000000000000000000000000000602082015250565b7f416464726573733a20696e73756666696369656e742062616c616e636520666f60008201527f722063616c6c0000000000000000000000000000000000000000000000000000602082015250565b7f5061757361626c653a2070617573656400000000000000000000000000000000600082015250565b7f4d61726b6574706c6163653a207072696365206973207a65726f000000000000600082015250565b7f4d61726b6574706c6163653a204f6e6c792061646d696e2063616e2063616c6c60008201527f20746869732066756e6374696f6e000000000000000000000000000000000000602082015250565b7f4f776e61626c653a2063616c6c6572206973206e6f7420746865206f776e6572600082015250565b7f4d61726b6574706c6163653a204e6f7420656e6f75676820616d6f756e74207460008201527f6f2073656c6c0000000000000000000000000000000000000000000000000000602082015250565b7f4d61726b6574706c6163653a20696e76616c6964207472616465207072696365600082015250565b50565b7f416464726573733a2063616c6c20746f206e6f6e2d636f6e7472616374000000600082015250565b7f4d61726b6574706c6163653a2053616c6520696e616374697665206f7220616c60008201527f726561647920736f6c6400000000000000000000000000000000000000000000602082015250565b7f4d61726b6574706c6163653a206f776e65722063616e6e6f7420627579000000600082015250565b7f5361666545524332303a204552433230206f7065726174696f6e20646964206e60008201527f6f74207375636365656400000000000000000000000000000000000000000000602082015250565b7f5265656e7472616e637947756172643a207265656e7472616e742063616c6c00600082015250565b7f4d61726b6574706c6163653a20616d6f756e74206d757374206e6f742062652060008201527f7a65726f00000000000000000000000000000000000000000000000000000000602082015250565b7f4d61726b6574706c6163653a2042616c616e6365206f66206974656d73206c6560008201527f7373207468616e20616d6f756e74000000000000000000000000000000000000602082015250565b613a9f81613489565b8114613aaa57600080fd5b50565b613ab68161349b565b8114613ac157600080fd5b50565b613acd816134b1565b8114613ad857600080fd5b50565b613ae4816134fd565b8114613aef57600080fd5b5056fea264697066735822122006e94de6c43abe511957523af40434f30c8841afabb3de90b1543b17f0de7d8864736f6c63430008070033",
					"opcodes": "PUSH1 0xC0 PUSH1 0x40 MSTORE CALLVALUE DUP1 ISZERO PUSH3 0x11 JUMPI PUSH1 0x0 DUP1 REVERT JUMPDEST POP PUSH1 0x40 MLOAD PUSH3 0x4181 CODESIZE SUB DUP1 PUSH3 0x4181 DUP4 CODECOPY DUP2 DUP2 ADD PUSH1 0x40 MSTORE DUP2 ADD SWAP1 PUSH3 0x37 SWAP2 SWAP1 PUSH3 0x36D JUMP JUMPDEST PUSH1 0x0 DUP1 PUSH1 0x0 PUSH2 0x100 EXP DUP2 SLOAD DUP2 PUSH1 0xFF MUL NOT AND SWAP1 DUP4 ISZERO ISZERO MUL OR SWAP1 SSTORE POP PUSH3 0x71 PUSH3 0x65 PUSH3 0x289 PUSH1 0x20 SHL PUSH1 0x20 SHR JUMP JUMPDEST PUSH3 0x291 PUSH1 0x20 SHL PUSH1 0x20 SHR JUMP JUMPDEST PUSH1 0x1 DUP1 DUP2 SWAP1 SSTORE POP PUSH1 0x0 PUSH20 0xFFFFFFFFFFFFFFFFFFFFFFFFFFFFFFFFFFFFFFFF AND DUP4 PUSH20 0xFFFFFFFFFFFFFFFFFFFFFFFFFFFFFFFFFFFFFFFF AND EQ ISZERO PUSH3 0xEB JUMPI PUSH1 0x40 MLOAD PUSH32 0x8C379A000000000000000000000000000000000000000000000000000000000 DUP2 MSTORE PUSH1 0x4 ADD PUSH3 0xE2 SWAP1 PUSH3 0x43E JUMP JUMPDEST PUSH1 0x40 MLOAD DUP1 SWAP2 SUB SWAP1 REVERT JUMPDEST PUSH1 0x0 PUSH20 0xFFFFFFFFFFFFFFFFFFFFFFFFFFFFFFFFFFFFFFFF AND DUP3 PUSH20 0xFFFFFFFFFFFFFFFFFFFFFFFFFFFFFFFFFFFFFFFF AND EQ ISZERO PUSH3 0x15E JUMPI PUSH1 0x40 MLOAD PUSH32 0x8C379A000000000000000000000000000000000000000000000000000000000 DUP2 MSTORE PUSH1 0x4 ADD PUSH3 0x155 SWAP1 PUSH3 0x482 JUMP JUMPDEST PUSH1 0x40 MLOAD DUP1 SWAP2 SUB SWAP1 REVERT JUMPDEST PUSH1 0x0 PUSH20 0xFFFFFFFFFFFFFFFFFFFFFFFFFFFFFFFFFFFFFFFF AND DUP2 PUSH20 0xFFFFFFFFFFFFFFFFFFFFFFFFFFFFFFFFFFFFFFFF AND EQ ISZERO PUSH3 0x1D1 JUMPI PUSH1 0x40 MLOAD PUSH32 0x8C379A000000000000000000000000000000000000000000000000000000000 DUP2 MSTORE PUSH1 0x4 ADD PUSH3 0x1C8 SWAP1 PUSH3 0x460 JUMP JUMPDEST PUSH1 0x40 MLOAD DUP1 SWAP2 SUB SWAP1 REVERT JUMPDEST DUP3 PUSH1 0x2 PUSH1 0x0 PUSH2 0x100 EXP DUP2 SLOAD DUP2 PUSH20 0xFFFFFFFFFFFFFFFFFFFFFFFFFFFFFFFFFFFFFFFF MUL NOT AND SWAP1 DUP4 PUSH20 0xFFFFFFFFFFFFFFFFFFFFFFFFFFFFFFFFFFFFFFFF AND MUL OR SWAP1 SSTORE POP DUP2 PUSH20 0xFFFFFFFFFFFFFFFFFFFFFFFFFFFFFFFFFFFFFFFF AND PUSH1 0x80 DUP2 PUSH20 0xFFFFFFFFFFFFFFFFFFFFFFFFFFFFFFFFFFFFFFFF AND PUSH1 0x60 SHL DUP2 MSTORE POP POP DUP1 PUSH20 0xFFFFFFFFFFFFFFFFFFFFFFFFFFFFFFFFFFFFFFFF AND PUSH1 0xA0 DUP2 PUSH20 0xFFFFFFFFFFFFFFFFFFFFFFFFFFFFFFFFFFFFFFFF AND PUSH1 0x60 SHL DUP2 MSTORE POP POP POP POP POP PUSH3 0x5F5 JUMP JUMPDEST PUSH1 0x0 CALLER SWAP1 POP SWAP1 JUMP JUMPDEST PUSH1 0x0 DUP1 PUSH1 0x1 SWAP1 SLOAD SWAP1 PUSH2 0x100 EXP SWAP1 DIV PUSH20 0xFFFFFFFFFFFFFFFFFFFFFFFFFFFFFFFFFFFFFFFF AND SWAP1 POP DUP2 PUSH1 0x0 PUSH1 0x1 PUSH2 0x100 EXP DUP2 SLOAD DUP2 PUSH20 0xFFFFFFFFFFFFFFFFFFFFFFFFFFFFFFFFFFFFFFFF MUL NOT AND SWAP1 DUP4 PUSH20 0xFFFFFFFFFFFFFFFFFFFFFFFFFFFFFFFFFFFFFFFF AND MUL OR SWAP1 SSTORE POP DUP2 PUSH20 0xFFFFFFFFFFFFFFFFFFFFFFFFFFFFFFFFFFFFFFFF AND DUP2 PUSH20 0xFFFFFFFFFFFFFFFFFFFFFFFFFFFFFFFFFFFFFFFF AND PUSH32 0x8BE0079C531659141344CD1FD0A4F28419497F9722A3DAAFE3B4186F6B6457E0 PUSH1 0x40 MLOAD PUSH1 0x40 MLOAD DUP1 SWAP2 SUB SWAP1 LOG3 POP POP JUMP JUMPDEST PUSH1 0x0 DUP2 MLOAD SWAP1 POP PUSH3 0x367 DUP2 PUSH3 0x5DB JUMP JUMPDEST SWAP3 SWAP2 POP POP JUMP JUMPDEST PUSH1 0x0 DUP1 PUSH1 0x0 PUSH1 0x60 DUP5 DUP7 SUB SLT ISZERO PUSH3 0x389 JUMPI PUSH3 0x388 PUSH3 0x4E9 JUMP JUMPDEST JUMPDEST PUSH1 0x0 PUSH3 0x399 DUP7 DUP3 DUP8 ADD PUSH3 0x356 JUMP JUMPDEST SWAP4 POP POP PUSH1 0x20 PUSH3 0x3AC DUP7 DUP3 DUP8 ADD PUSH3 0x356 JUMP JUMPDEST SWAP3 POP POP PUSH1 0x40 PUSH3 0x3BF DUP7 DUP3 DUP8 ADD PUSH3 0x356 JUMP JUMPDEST SWAP2 POP POP SWAP3 POP SWAP3 POP SWAP3 JUMP JUMPDEST PUSH1 0x0 PUSH3 0x3D8 PUSH1 0x30 DUP4 PUSH3 0x4A4 JUMP JUMPDEST SWAP2 POP PUSH3 0x3E5 DUP3 PUSH3 0x4EE JUMP JUMPDEST PUSH1 0x40 DUP3 ADD SWAP1 POP SWAP2 SWAP1 POP JUMP JUMPDEST PUSH1 0x0 PUSH3 0x3FF PUSH1 0x2D DUP4 PUSH3 0x4A4 JUMP JUMPDEST SWAP2 POP PUSH3 0x40C DUP3 PUSH3 0x53D JUMP JUMPDEST PUSH1 0x40 DUP3 ADD SWAP1 POP SWAP2 SWAP1 POP JUMP JUMPDEST PUSH1 0x0 PUSH3 0x426 PUSH1 0x2B DUP4 PUSH3 0x4A4 JUMP JUMPDEST SWAP2 POP PUSH3 0x433 DUP3 PUSH3 0x58C JUMP JUMPDEST PUSH1 0x40 DUP3 ADD SWAP1 POP SWAP2 SWAP1 POP JUMP JUMPDEST PUSH1 0x0 PUSH1 0x20 DUP3 ADD SWAP1 POP DUP2 DUP2 SUB PUSH1 0x0 DUP4 ADD MSTORE PUSH3 0x459 DUP2 PUSH3 0x3C9 JUMP JUMPDEST SWAP1 POP SWAP2 SWAP1 POP JUMP JUMPDEST PUSH1 0x0 PUSH1 0x20 DUP3 ADD SWAP1 POP DUP2 DUP2 SUB PUSH1 0x0 DUP4 ADD MSTORE PUSH3 0x47B DUP2 PUSH3 0x3F0 JUMP JUMPDEST SWAP1 POP SWAP2 SWAP1 POP JUMP JUMPDEST PUSH1 0x0 PUSH1 0x20 DUP3 ADD SWAP1 POP DUP2 DUP2 SUB PUSH1 0x0 DUP4 ADD MSTORE PUSH3 0x49D DUP2 PUSH3 0x417 JUMP JUMPDEST SWAP1 POP SWAP2 SWAP1 POP JUMP JUMPDEST PUSH1 0x0 DUP3 DUP3 MSTORE PUSH1 0x20 DUP3 ADD SWAP1 POP SWAP3 SWAP2 POP POP JUMP JUMPDEST PUSH1 0x0 PUSH3 0x4C2 DUP3 PUSH3 0x4C9 JUMP JUMPDEST SWAP1 POP SWAP2 SWAP1 POP JUMP JUMPDEST PUSH1 0x0 PUSH20 0xFFFFFFFFFFFFFFFFFFFFFFFFFFFFFFFFFFFFFFFF DUP3 AND SWAP1 POP SWAP2 SWAP1 POP JUMP JUMPDEST PUSH1 0x0 DUP1 REVERT JUMPDEST PUSH32 0x4D61726B6574706C6163653A2041636365737320636F6E74726F6C20636F6E74 PUSH1 0x0 DUP3 ADD MSTORE PUSH32 0x726163742063616E6E6F74206265203000000000000000000000000000000000 PUSH1 0x20 DUP3 ADD MSTORE POP JUMP JUMPDEST PUSH32 0x4D61726B6574706C6163653A205549544E46546F6B656E206D757374206E6F74 PUSH1 0x0 DUP3 ADD MSTORE PUSH32 0x2062652061646472657373203000000000000000000000000000000000000000 PUSH1 0x20 DUP3 ADD MSTORE POP JUMP JUMPDEST PUSH32 0x4D61726B6574706C6163653A20554954546F6B656E206D757374206E6F742062 PUSH1 0x0 DUP3 ADD MSTORE PUSH32 0x6520616464726573732030000000000000000000000000000000000000000000 PUSH1 0x20 DUP3 ADD MSTORE POP JUMP JUMPDEST PUSH3 0x5E6 DUP2 PUSH3 0x4B5 JUMP JUMPDEST DUP2 EQ PUSH3 0x5F2 JUMPI PUSH1 0x0 DUP1 REVERT JUMPDEST POP JUMP JUMPDEST PUSH1 0x80 MLOAD PUSH1 0x60 SHR PUSH1 0xA0 MLOAD PUSH1 0x60 SHR PUSH2 0x3B28 PUSH3 0x659 PUSH1 0x0 CODECOPY PUSH1 0x0 DUP2 DUP2 PUSH2 0x608 ADD MSTORE DUP2 DUP2 PUSH2 0x89F ADD MSTORE DUP2 DUP2 PUSH2 0x99D ADD MSTORE DUP2 DUP2 PUSH2 0xBAD ADD MSTORE DUP2 DUP2 PUSH2 0x1051 ADD MSTORE DUP2 DUP2 PUSH2 0x10E5 ADD MSTORE DUP2 DUP2 PUSH2 0x19DA ADD MSTORE PUSH2 0x1A67 ADD MSTORE PUSH1 0x0 DUP2 DUP2 PUSH2 0x979 ADD MSTORE PUSH2 0xF38 ADD MSTORE PUSH2 0x3B28 PUSH1 0x0 RETURN INVALID PUSH1 0x80 PUSH1 0x40 MSTORE CALLVALUE DUP1 ISZERO PUSH2 0x10 JUMPI PUSH1 0x0 DUP1 REVERT JUMPDEST POP PUSH1 0x4 CALLDATASIZE LT PUSH2 0x12C JUMPI PUSH1 0x0 CALLDATALOAD PUSH1 0xE0 SHR DUP1 PUSH4 0x715018A6 GT PUSH2 0xAD JUMPI DUP1 PUSH4 0xBC197C81 GT PUSH2 0x71 JUMPI DUP1 PUSH4 0xBC197C81 EQ PUSH2 0x2D5 JUMPI DUP1 PUSH4 0xC1F7F0F5 EQ PUSH2 0x305 JUMPI DUP1 PUSH4 0xCB361428 EQ PUSH2 0x321 JUMPI DUP1 PUSH4 0xF23A6E61 EQ PUSH2 0x33D JUMPI DUP1 PUSH4 0xF2FDE38B EQ PUSH2 0x36D JUMPI PUSH2 0x12C JUMP JUMPDEST DUP1 PUSH4 0x715018A6 EQ PUSH2 0x253 JUMPI DUP1 PUSH4 0x82367B2D EQ PUSH2 0x25D JUMPI DUP1 PUSH4 0x8456CB59 EQ PUSH2 0x279 JUMPI DUP1 PUSH4 0x8DA5CB5B EQ PUSH2 0x283 JUMPI DUP1 PUSH4 0xB46878CA EQ PUSH2 0x2A1 JUMPI PUSH2 0x12C JUMP JUMPDEST DUP1 PUSH4 0x3B88699B GT PUSH2 0xF4 JUMPI DUP1 PUSH4 0x3B88699B EQ PUSH2 0x1D5 JUMPI DUP1 PUSH4 0x3F4BA83A EQ PUSH2 0x1F3 JUMPI DUP1 PUSH4 0x43BE2D03 EQ PUSH2 0x1FD JUMPI DUP1 PUSH4 0x5C975ABB EQ PUSH2 0x219 JUMPI DUP1 PUSH4 0x706910FF EQ PUSH2 0x237 JUMPI PUSH2 0x12C JUMP JUMPDEST DUP1 PUSH4 0x1FFC9A7 EQ PUSH2 0x131 JUMPI DUP1 PUSH4 0x13007D55 EQ PUSH2 0x161 JUMPI DUP1 PUSH4 0x19129E5A EQ PUSH2 0x17F JUMPI DUP1 PUSH4 0x19AEB490 EQ PUSH2 0x19B JUMPI DUP1 PUSH4 0x2FE7A96D EQ PUSH2 0x1B7 JUMPI JUMPDEST PUSH1 0x0 DUP1 REVERT JUMPDEST PUSH2 0x14B PUSH1 0x4 DUP1 CALLDATASIZE SUB DUP2 ADD SWAP1 PUSH2 0x146 SWAP2 SWAP1 PUSH2 0x27B2 JUMP JUMPDEST PUSH2 0x389 JUMP JUMPDEST PUSH1 0x40 MLOAD PUSH2 0x158 SWAP2 SWAP1 PUSH2 0x2F07 JUMP JUMPDEST PUSH1 0x40 MLOAD DUP1 SWAP2 SUB SWAP1 RETURN JUMPDEST PUSH2 0x169 PUSH2 0x403 JUMP JUMPDEST PUSH1 0x40 MLOAD PUSH2 0x176 SWAP2 SWAP1 PUSH2 0x2DEF JUMP JUMPDEST PUSH1 0x40 MLOAD DUP1 SWAP2 SUB SWAP1 RETURN JUMPDEST PUSH2 0x199 PUSH1 0x4 DUP1 CALLDATASIZE SUB DUP2 ADD SWAP1 PUSH2 0x194 SWAP2 SWAP1 PUSH2 0x25F2 JUMP JUMPDEST PUSH2 0x429 JUMP JUMPDEST STOP JUMPDEST PUSH2 0x1B5 PUSH1 0x4 DUP1 CALLDATASIZE SUB DUP2 ADD SWAP1 PUSH2 0x1B0 SWAP2 SWAP1 PUSH2 0x298F JUMP JUMPDEST PUSH2 0x4E9 JUMP JUMPDEST STOP JUMPDEST PUSH2 0x1BF PUSH2 0x977 JUMP JUMPDEST PUSH1 0x40 MLOAD PUSH2 0x1CC SWAP2 SWAP1 PUSH2 0x2DEF JUMP JUMPDEST PUSH1 0x40 MLOAD DUP1 SWAP2 SUB SWAP1 RETURN JUMPDEST PUSH2 0x1DD PUSH2 0x99B JUMP JUMPDEST PUSH1 0x40 MLOAD PUSH2 0x1EA SWAP2 SWAP1 PUSH2 0x2DEF JUMP JUMPDEST PUSH1 0x40 MLOAD DUP1 SWAP2 SUB SWAP1 RETURN JUMPDEST PUSH2 0x1FB PUSH2 0x9BF JUMP JUMPDEST STOP JUMPDEST PUSH2 0x217 PUSH1 0x4 DUP1 CALLDATASIZE SUB DUP2 ADD SWAP1 PUSH2 0x212 SWAP2 SWAP1 PUSH2 0x284E JUMP JUMPDEST PUSH2 0xA45 JUMP JUMPDEST STOP JUMPDEST PUSH2 0x221 PUSH2 0xC83 JUMP JUMPDEST PUSH1 0x40 MLOAD PUSH2 0x22E SWAP2 SWAP1 PUSH2 0x2F07 JUMP JUMPDEST PUSH1 0x40 MLOAD DUP1 SWAP2 SUB SWAP1 RETURN JUMPDEST PUSH2 0x251 PUSH1 0x4 DUP1 CALLDATASIZE SUB DUP2 ADD SWAP1 PUSH2 0x24C SWAP2 SWAP1 PUSH2 0x28E8 JUMP JUMPDEST PUSH2 0xC99 JUMP JUMPDEST STOP JUMPDEST PUSH2 0x25B PUSH2 0x11CC JUMP JUMPDEST STOP JUMPDEST PUSH2 0x277 PUSH1 0x4 DUP1 CALLDATASIZE SUB DUP2 ADD SWAP1 PUSH2 0x272 SWAP2 SWAP1 PUSH2 0x294F JUMP JUMPDEST PUSH2 0x1254 JUMP JUMPDEST STOP JUMPDEST PUSH2 0x281 PUSH2 0x13D6 JUMP JUMPDEST STOP JUMPDEST PUSH2 0x28B PUSH2 0x145C JUMP JUMPDEST PUSH1 0x40 MLOAD PUSH2 0x298 SWAP2 SWAP1 PUSH2 0x2DEF JUMP JUMPDEST PUSH1 0x40 MLOAD DUP1 SWAP2 SUB SWAP1 RETURN JUMPDEST PUSH2 0x2BB PUSH1 0x4 DUP1 CALLDATASIZE SUB DUP2 ADD SWAP1 PUSH2 0x2B6 SWAP2 SWAP1 PUSH2 0x28A8 JUMP JUMPDEST PUSH2 0x1485 JUMP JUMPDEST PUSH1 0x40 MLOAD PUSH2 0x2CC SWAP6 SWAP5 SWAP4 SWAP3 SWAP2 SWAP1 PUSH2 0x2F22 JUMP JUMPDEST PUSH1 0x40 MLOAD DUP1 SWAP2 SUB SWAP1 RETURN JUMPDEST PUSH2 0x2EF PUSH1 0x4 DUP1 CALLDATASIZE SUB DUP2 ADD SWAP1 PUSH2 0x2EA SWAP2 SWAP1 PUSH2 0x261F JUMP JUMPDEST PUSH2 0x14D5 JUMP JUMPDEST PUSH1 0x40 MLOAD PUSH2 0x2FC SWAP2 SWAP1 PUSH2 0x2F9E JUMP JUMPDEST PUSH1 0x40 MLOAD DUP1 SWAP2 SUB SWAP1 RETURN JUMPDEST PUSH2 0x31F PUSH1 0x4 DUP1 CALLDATASIZE SUB DUP2 ADD SWAP1 PUSH2 0x31A SWAP2 SWAP1 PUSH2 0x294F JUMP JUMPDEST PUSH2 0x14EA JUMP JUMPDEST STOP JUMPDEST PUSH2 0x33B PUSH1 0x4 DUP1 CALLDATASIZE SUB DUP2 ADD SWAP1 PUSH2 0x336 SWAP2 SWAP1 PUSH2 0x27DF JUMP JUMPDEST PUSH2 0x17B0 JUMP JUMPDEST STOP JUMPDEST PUSH2 0x357 PUSH1 0x4 DUP1 CALLDATASIZE SUB DUP2 ADD SWAP1 PUSH2 0x352 SWAP2 SWAP1 PUSH2 0x26EE JUMP JUMPDEST PUSH2 0x1CFD JUMP JUMPDEST PUSH1 0x40 MLOAD PUSH2 0x364 SWAP2 SWAP1 PUSH2 0x2F9E JUMP JUMPDEST PUSH1 0x40 MLOAD DUP1 SWAP2 SUB SWAP1 RETURN JUMPDEST PUSH2 0x387 PUSH1 0x4 DUP1 CALLDATASIZE SUB DUP2 ADD SWAP1 PUSH2 0x382 SWAP2 SWAP1 PUSH2 0x25F2 JUMP JUMPDEST PUSH2 0x1D12 JUMP JUMPDEST STOP JUMPDEST PUSH1 0x0 PUSH32 0x4E2312E000000000000000000000000000000000000000000000000000000000 PUSH28 0xFFFFFFFFFFFFFFFFFFFFFFFFFFFFFFFFFFFFFFFFFFFFFFFFFFFFFFFF NOT AND DUP3 PUSH28 0xFFFFFFFFFFFFFFFFFFFFFFFFFFFFFFFFFFFFFFFFFFFFFFFFFFFFFFFF NOT AND EQ DUP1 PUSH2 0x3FC JUMPI POP PUSH2 0x3FB DUP3 PUSH2 0x1E0A JUMP JUMPDEST JUMPDEST SWAP1 POP SWAP2 SWAP1 POP JUMP JUMPDEST PUSH1 0x2 PUSH1 0x0 SWAP1 SLOAD SWAP1 PUSH2 0x100 EXP SWAP1 DIV PUSH20 0xFFFFFFFFFFFFFFFFFFFFFFFFFFFFFFFFFFFFFFFF AND DUP2 JUMP JUMPDEST PUSH2 0x431 PUSH2 0x1E74 JUMP JUMPDEST PUSH20 0xFFFFFFFFFFFFFFFFFFFFFFFFFFFFFFFFFFFFFFFF AND PUSH2 0x44F PUSH2 0x145C JUMP JUMPDEST PUSH20 0xFFFFFFFFFFFFFFFFFFFFFFFFFFFFFFFFFFFFFFFF AND EQ PUSH2 0x4A5 JUMPI PUSH1 0x40 MLOAD PUSH32 0x8C379A000000000000000000000000000000000000000000000000000000000 DUP2 MSTORE PUSH1 0x4 ADD PUSH2 0x49C SWAP1 PUSH2 0x30FB JUMP JUMPDEST PUSH1 0x40 MLOAD DUP1 SWAP2 SUB SWAP1 REVERT JUMPDEST DUP1 PUSH1 0x2 PUSH1 0x0 PUSH2 0x100 EXP DUP2 SLOAD DUP2 PUSH20 0xFFFFFFFFFFFFFFFFFFFFFFFFFFFFFFFFFFFFFFFF MUL NOT AND SWAP1 DUP4 PUSH20 0xFFFFFFFFFFFFFFFFFFFFFFFFFFFFFFFFFFFFFFFF AND MUL OR SWAP1 SSTORE POP POP JUMP JUMPDEST PUSH2 0x4F1 PUSH2 0xC83 JUMP JUMPDEST ISZERO PUSH2 0x531 JUMPI PUSH1 0x40 MLOAD PUSH32 0x8C379A000000000000000000000000000000000000000000000000000000000 DUP2 MSTORE PUSH1 0x4 ADD PUSH2 0x528 SWAP1 PUSH2 0x309B JUMP JUMPDEST PUSH1 0x40 MLOAD DUP1 SWAP2 SUB SWAP1 REVERT JUMPDEST PUSH1 0x2 PUSH1 0x1 SLOAD EQ ISZERO PUSH2 0x577 JUMPI PUSH1 0x40 MLOAD PUSH32 0x8C379A000000000000000000000000000000000000000000000000000000000 DUP2 MSTORE PUSH1 0x4 ADD PUSH2 0x56E SWAP1 PUSH2 0x31DB JUMP JUMPDEST PUSH1 0x40 MLOAD DUP1 SWAP2 SUB SWAP1 REVERT JUMPDEST PUSH1 0x2 PUSH1 0x1 DUP2 SWAP1 SSTORE POP PUSH1 0x0 DUP3 GT PUSH2 0x5C2 JUMPI PUSH1 0x40 MLOAD PUSH32 0x8C379A000000000000000000000000000000000000000000000000000000000 DUP2 MSTORE PUSH1 0x4 ADD PUSH2 0x5B9 SWAP1 PUSH2 0x30BB JUMP JUMPDEST PUSH1 0x40 MLOAD DUP1 SWAP2 SUB SWAP1 REVERT JUMPDEST PUSH1 0x0 DUP2 GT PUSH2 0x605 JUMPI PUSH1 0x40 MLOAD PUSH32 0x8C379A000000000000000000000000000000000000000000000000000000000 DUP2 MSTORE PUSH1 0x4 ADD PUSH2 0x5FC SWAP1 PUSH2 0x303B JUMP JUMPDEST PUSH1 0x40 MLOAD DUP1 SWAP2 SUB SWAP1 REVERT JUMPDEST DUP1 PUSH32 0x0 PUSH20 0xFFFFFFFFFFFFFFFFFFFFFFFFFFFFFFFFFFFFFFFF AND PUSH3 0xFDD58E CALLER DUP7 PUSH1 0x40 MLOAD DUP4 PUSH4 0xFFFFFFFF AND PUSH1 0xE0 SHL DUP2 MSTORE PUSH1 0x4 ADD PUSH2 0x660 SWAP3 SWAP2 SWAP1 PUSH2 0x2EDE JUMP JUMPDEST PUSH1 0x20 PUSH1 0x40 MLOAD DUP1 DUP4 SUB DUP2 DUP7 DUP1 EXTCODESIZE ISZERO DUP1 ISZERO PUSH2 0x678 JUMPI PUSH1 0x0 DUP1 REVERT JUMPDEST POP GAS STATICCALL ISZERO DUP1 ISZERO PUSH2 0x68C JUMPI RETURNDATASIZE PUSH1 0x0 DUP1 RETURNDATACOPY RETURNDATASIZE PUSH1 0x0 REVERT JUMPDEST POP POP POP POP PUSH1 0x40 MLOAD RETURNDATASIZE PUSH1 0x1F NOT PUSH1 0x1F DUP3 ADD AND DUP3 ADD DUP1 PUSH1 0x40 MSTORE POP DUP2 ADD SWAP1 PUSH2 0x6B0 SWAP2 SWAP1 PUSH2 0x287B JUMP JUMPDEST LT ISZERO PUSH2 0x6F1 JUMPI PUSH1 0x40 MLOAD PUSH32 0x8C379A000000000000000000000000000000000000000000000000000000000 DUP2 MSTORE PUSH1 0x4 ADD PUSH2 0x6E8 SWAP1 PUSH2 0x321B JUMP JUMPDEST PUSH1 0x40 MLOAD DUP1 SWAP2 SUB SWAP1 REVERT JUMPDEST PUSH1 0x0 PUSH1 0x3 PUSH1 0x0 DUP6 DUP2 MSTORE PUSH1 0x20 ADD SWAP1 DUP2 MSTORE PUSH1 0x20 ADD PUSH1 0x0 KECCAK256 PUSH1 0x0 CALLER PUSH20 0xFFFFFFFFFFFFFFFFFFFFFFFFFFFFFFFFFFFFFFFF AND PUSH20 0xFFFFFFFFFFFFFFFFFFFFFFFFFFFFFFFFFFFFFFFF AND DUP2 MSTORE PUSH1 0x20 ADD SWAP1 DUP2 MSTORE PUSH1 0x20 ADD PUSH1 0x0 KECCAK256 PUSH1 0x40 MLOAD DUP1 PUSH1 0xA0 ADD PUSH1 0x40 MSTORE SWAP1 DUP2 PUSH1 0x0 DUP3 ADD PUSH1 0x0 SWAP1 SLOAD SWAP1 PUSH2 0x100 EXP SWAP1 DIV PUSH1 0xFF AND ISZERO ISZERO ISZERO ISZERO DUP2 MSTORE PUSH1 0x20 ADD PUSH1 0x1 DUP3 ADD SLOAD DUP2 MSTORE PUSH1 0x20 ADD PUSH1 0x2 DUP3 ADD SLOAD DUP2 MSTORE PUSH1 0x20 ADD PUSH1 0x3 DUP3 ADD SLOAD DUP2 MSTORE PUSH1 0x20 ADD PUSH1 0x4 DUP3 ADD SLOAD DUP2 MSTORE POP POP SWAP1 POP DUP1 PUSH1 0x0 ADD MLOAD ISZERO PUSH2 0x7D8 JUMPI PUSH1 0x40 MLOAD PUSH32 0x8C379A000000000000000000000000000000000000000000000000000000000 DUP2 MSTORE PUSH1 0x4 ADD PUSH2 0x7CF SWAP1 PUSH2 0x301B JUMP JUMPDEST PUSH1 0x40 MLOAD DUP1 SWAP2 SUB SWAP1 REVERT JUMPDEST PUSH1 0x40 MLOAD DUP1 PUSH1 0xA0 ADD PUSH1 0x40 MSTORE DUP1 PUSH1 0x1 ISZERO ISZERO DUP2 MSTORE PUSH1 0x20 ADD DUP6 DUP2 MSTORE PUSH1 0x20 ADD DUP4 DUP2 MSTORE PUSH1 0x20 ADD TIMESTAMP DUP2 MSTORE PUSH1 0x20 ADD DUP5 DUP2 MSTORE POP PUSH1 0x3 PUSH1 0x0 DUP7 DUP2 MSTORE PUSH1 0x20 ADD SWAP1 DUP2 MSTORE PUSH1 0x20 ADD PUSH1 0x0 KECCAK256 PUSH1 0x0 CALLER PUSH20 0xFFFFFFFFFFFFFFFFFFFFFFFFFFFFFFFFFFFFFFFF AND PUSH20 0xFFFFFFFFFFFFFFFFFFFFFFFFFFFFFFFFFFFFFFFF AND DUP2 MSTORE PUSH1 0x20 ADD SWAP1 DUP2 MSTORE PUSH1 0x20 ADD PUSH1 0x0 KECCAK256 PUSH1 0x0 DUP3 ADD MLOAD DUP2 PUSH1 0x0 ADD PUSH1 0x0 PUSH2 0x100 EXP DUP2 SLOAD DUP2 PUSH1 0xFF MUL NOT AND SWAP1 DUP4 ISZERO ISZERO MUL OR SWAP1 SSTORE POP PUSH1 0x20 DUP3 ADD MLOAD DUP2 PUSH1 0x1 ADD SSTORE PUSH1 0x40 DUP3 ADD MLOAD DUP2 PUSH1 0x2 ADD SSTORE PUSH1 0x60 DUP3 ADD MLOAD DUP2 PUSH1 0x3 ADD SSTORE PUSH1 0x80 DUP3 ADD MLOAD DUP2 PUSH1 0x4 ADD SSTORE SWAP1 POP POP PUSH32 0x0 PUSH20 0xFFFFFFFFFFFFFFFFFFFFFFFFFFFFFFFFFFFFFFFF AND PUSH4 0xF242432A CALLER ADDRESS DUP8 DUP7 PUSH1 0x40 MLOAD DUP6 PUSH4 0xFFFFFFFF AND PUSH1 0xE0 SHL DUP2 MSTORE PUSH1 0x4 ADD PUSH2 0x8FC SWAP5 SWAP4 SWAP3 SWAP2 SWAP1 PUSH2 0x2E86 JUMP JUMPDEST PUSH1 0x0 PUSH1 0x40 MLOAD DUP1 DUP4 SUB DUP2 PUSH1 0x0 DUP8 DUP1 EXTCODESIZE ISZERO DUP1 ISZERO PUSH2 0x916 JUMPI PUSH1 0x0 DUP1 REVERT JUMPDEST POP GAS CALL ISZERO DUP1 ISZERO PUSH2 0x92A JUMPI RETURNDATASIZE PUSH1 0x0 DUP1 RETURNDATACOPY RETURNDATASIZE PUSH1 0x0 REVERT JUMPDEST POP POP POP POP DUP4 PUSH32 0x5BC1DFC7136DB3113ACB6DAD2E291DCF149405CA07FCEC667FA5E1FA7F430F98 DUP4 DUP6 CALLER PUSH1 0x40 MLOAD PUSH2 0x962 SWAP4 SWAP3 SWAP2 SWAP1 PUSH2 0x32BD JUMP JUMPDEST PUSH1 0x40 MLOAD DUP1 SWAP2 SUB SWAP1 LOG2 POP PUSH1 0x1 DUP1 DUP2 SWAP1 SSTORE POP POP POP POP JUMP JUMPDEST PUSH32 0x0 DUP2 JUMP JUMPDEST PUSH32 0x0 DUP2 JUMP JUMPDEST PUSH2 0x9C7 PUSH2 0x1E74 JUMP JUMPDEST PUSH20 0xFFFFFFFFFFFFFFFFFFFFFFFFFFFFFFFFFFFFFFFF AND PUSH2 0x9E5 PUSH2 0x145C JUMP JUMPDEST PUSH20 0xFFFFFFFFFFFFFFFFFFFFFFFFFFFFFFFFFFFFFFFF AND EQ PUSH2 0xA3B JUMPI PUSH1 0x40 MLOAD PUSH32 0x8C379A000000000000000000000000000000000000000000000000000000000 DUP2 MSTORE PUSH1 0x4 ADD PUSH2 0xA32 SWAP1 PUSH2 0x30FB JUMP JUMPDEST PUSH1 0x40 MLOAD DUP1 SWAP2 SUB SWAP1 REVERT JUMPDEST PUSH2 0xA43 PUSH2 0x1E7C JUMP JUMPDEST JUMP JUMPDEST PUSH2 0xA4D PUSH2 0xC83 JUMP JUMPDEST ISZERO PUSH2 0xA8D JUMPI PUSH1 0x40 MLOAD PUSH32 0x8C379A000000000000000000000000000000000000000000000000000000000 DUP2 MSTORE PUSH1 0x4 ADD PUSH2 0xA84 SWAP1 PUSH2 0x309B JUMP JUMPDEST PUSH1 0x40 MLOAD DUP1 SWAP2 SUB SWAP1 REVERT JUMPDEST PUSH1 0x2 PUSH1 0x1 SLOAD EQ ISZERO PUSH2 0xAD3 JUMPI PUSH1 0x40 MLOAD PUSH32 0x8C379A000000000000000000000000000000000000000000000000000000000 DUP2 MSTORE PUSH1 0x4 ADD PUSH2 0xACA SWAP1 PUSH2 0x31DB JUMP JUMPDEST PUSH1 0x40 MLOAD DUP1 SWAP2 SUB SWAP1 REVERT JUMPDEST PUSH1 0x2 PUSH1 0x1 DUP2 SWAP1 SSTORE POP PUSH1 0x0 CALLER SWAP1 POP PUSH1 0x0 PUSH1 0x3 PUSH1 0x0 DUP5 DUP2 MSTORE PUSH1 0x20 ADD SWAP1 DUP2 MSTORE PUSH1 0x20 ADD PUSH1 0x0 KECCAK256 PUSH1 0x0 DUP4 PUSH20 0xFFFFFFFFFFFFFFFFFFFFFFFFFFFFFFFFFFFFFFFF AND PUSH20 0xFFFFFFFFFFFFFFFFFFFFFFFFFFFFFFFFFFFFFFFF AND DUP2 MSTORE PUSH1 0x20 ADD SWAP1 DUP2 MSTORE PUSH1 0x20 ADD PUSH1 0x0 KECCAK256 SWAP1 POP DUP1 PUSH1 0x0 ADD PUSH1 0x0 SWAP1 SLOAD SWAP1 PUSH2 0x100 EXP SWAP1 DIV PUSH1 0xFF AND PUSH2 0xB85 JUMPI PUSH1 0x40 MLOAD PUSH32 0x8C379A000000000000000000000000000000000000000000000000000000000 DUP2 MSTORE PUSH1 0x4 ADD PUSH2 0xB7C SWAP1 PUSH2 0x317B JUMP JUMPDEST PUSH1 0x40 MLOAD DUP1 SWAP2 SUB SWAP1 REVERT JUMPDEST PUSH1 0x0 DUP2 PUSH1 0x2 ADD SLOAD SWAP1 POP PUSH1 0x0 DUP3 PUSH1 0x0 ADD PUSH1 0x0 PUSH2 0x100 EXP DUP2 SLOAD DUP2 PUSH1 0xFF MUL NOT AND SWAP1 DUP4 ISZERO ISZERO MUL OR SWAP1 SSTORE POP PUSH32 0x0 PUSH20 0xFFFFFFFFFFFFFFFFFFFFFFFFFFFFFFFFFFFFFFFF AND PUSH4 0xF242432A ADDRESS DUP6 DUP8 DUP6 PUSH1 0x40 MLOAD DUP6 PUSH4 0xFFFFFFFF AND PUSH1 0xE0 SHL DUP2 MSTORE PUSH1 0x4 ADD PUSH2 0xC0A SWAP5 SWAP4 SWAP3 SWAP2 SWAP1 PUSH2 0x2E86 JUMP JUMPDEST PUSH1 0x0 PUSH1 0x40 MLOAD DUP1 DUP4 SUB DUP2 PUSH1 0x0 DUP8 DUP1 EXTCODESIZE ISZERO DUP1 ISZERO PUSH2 0xC24 JUMPI PUSH1 0x0 DUP1 REVERT JUMPDEST POP GAS CALL ISZERO DUP1 ISZERO PUSH2 0xC38 JUMPI RETURNDATASIZE PUSH1 0x0 DUP1 RETURNDATACOPY RETURNDATASIZE PUSH1 0x0 REVERT JUMPDEST POP POP POP POP DUP4 PUSH32 0x30411792A34FEB0F32A6BE64E1996FA803C4505BBF6314F391F3D63C24AE52D5 DUP3 DUP6 PUSH1 0x40 MLOAD PUSH2 0xC6E SWAP3 SWAP2 SWAP1 PUSH2 0x325D JUMP JUMPDEST PUSH1 0x40 MLOAD DUP1 SWAP2 SUB SWAP1 LOG2 POP POP POP PUSH1 0x1 DUP1 DUP2 SWAP1 SSTORE POP POP JUMP JUMPDEST PUSH1 0x0 DUP1 PUSH1 0x0 SWAP1 SLOAD SWAP1 PUSH2 0x100 EXP SWAP1 DIV PUSH1 0xFF AND SWAP1 POP SWAP1 JUMP JUMPDEST PUSH2 0xCA1 PUSH2 0xC83 JUMP JUMPDEST ISZERO PUSH2 0xCE1 JUMPI PUSH1 0x40 MLOAD PUSH32 0x8C379A000000000000000000000000000000000000000000000000000000000 DUP2 MSTORE PUSH1 0x4 ADD PUSH2 0xCD8 SWAP1 PUSH2 0x309B JUMP JUMPDEST PUSH1 0x40 MLOAD DUP1 SWAP2 SUB SWAP1 REVERT JUMPDEST PUSH1 0x2 PUSH1 0x1 SLOAD EQ ISZERO PUSH2 0xD27 JUMPI PUSH1 0x40 MLOAD PUSH32 0x8C379A000000000000000000000000000000000000000000000000000000000 DUP2 MSTORE PUSH1 0x4 ADD PUSH2 0xD1E SWAP1 PUSH2 0x31DB JUMP JUMPDEST PUSH1 0x40 MLOAD DUP1 SWAP2 SUB SWAP1 REVERT JUMPDEST PUSH1 0x2 PUSH1 0x1 DUP2 SWAP1 SSTORE POP PUSH1 0x0 PUSH1 0x3 PUSH1 0x0 DUP7 DUP2 MSTORE PUSH1 0x20 ADD SWAP1 DUP2 MSTORE PUSH1 0x20 ADD PUSH1 0x0 KECCAK256 PUSH1 0x0 DUP6 PUSH20 0xFFFFFFFFFFFFFFFFFFFFFFFFFFFFFFFFFFFFFFFF AND PUSH20 0xFFFFFFFFFFFFFFFFFFFFFFFFFFFFFFFFFFFFFFFF AND DUP2 MSTORE PUSH1 0x20 ADD SWAP1 DUP2 MSTORE PUSH1 0x20 ADD PUSH1 0x0 KECCAK256 SWAP1 POP PUSH1 0x0 CALLER SWAP1 POP PUSH1 0x0 DUP3 PUSH1 0x4 ADD SLOAD SWAP1 POP PUSH1 0x0 DUP2 DUP7 PUSH2 0xD9F SWAP2 SWAP1 PUSH2 0x33FB JUMP JUMPDEST SWAP1 POP DUP4 PUSH1 0x0 ADD PUSH1 0x0 SWAP1 SLOAD SWAP1 PUSH2 0x100 EXP SWAP1 DIV PUSH1 0xFF AND PUSH2 0xDF2 JUMPI PUSH1 0x40 MLOAD PUSH32 0x8C379A000000000000000000000000000000000000000000000000000000000 DUP2 MSTORE PUSH1 0x4 ADD PUSH2 0xDE9 SWAP1 PUSH2 0x317B JUMP JUMPDEST PUSH1 0x40 MLOAD DUP1 SWAP2 SUB SWAP1 REVERT JUMPDEST DUP4 PUSH1 0x2 ADD SLOAD DUP7 GT ISZERO PUSH2 0xE39 JUMPI PUSH1 0x40 MLOAD PUSH32 0x8C379A000000000000000000000000000000000000000000000000000000000 DUP2 MSTORE PUSH1 0x4 ADD PUSH2 0xE30 SWAP1 PUSH2 0x311B JUMP JUMPDEST PUSH1 0x40 MLOAD DUP1 SWAP2 SUB SWAP1 REVERT JUMPDEST DUP2 DUP6 EQ PUSH2 0xE7B JUMPI PUSH1 0x40 MLOAD PUSH32 0x8C379A000000000000000000000000000000000000000000000000000000000 DUP2 MSTORE PUSH1 0x4 ADD PUSH2 0xE72 SWAP1 PUSH2 0x313B JUMP JUMPDEST PUSH1 0x40 MLOAD DUP1 SWAP2 SUB SWAP1 REVERT JUMPDEST DUP7 PUSH20 0xFFFFFFFFFFFFFFFFFFFFFFFFFFFFFFFFFFFFFFFF AND DUP4 PUSH20 0xFFFFFFFFFFFFFFFFFFFFFFFFFFFFFFFFFFFFFFFF AND EQ ISZERO PUSH2 0xEEA JUMPI PUSH1 0x40 MLOAD PUSH32 0x8C379A000000000000000000000000000000000000000000000000000000000 DUP2 MSTORE PUSH1 0x4 ADD PUSH2 0xEE1 SWAP1 PUSH2 0x319B JUMP JUMPDEST PUSH1 0x40 MLOAD DUP1 SWAP2 SUB SWAP1 REVERT JUMPDEST DUP6 DUP5 PUSH1 0x2 ADD PUSH1 0x0 DUP3 DUP3 SLOAD PUSH2 0xEFE SWAP2 SWAP1 PUSH2 0x3455 JUMP JUMPDEST SWAP3 POP POP DUP2 SWAP1 SSTORE POP PUSH1 0x0 DUP5 PUSH1 0x2 ADD SLOAD EQ ISZERO PUSH2 0xF30 JUMPI PUSH1 0x0 DUP5 PUSH1 0x0 ADD PUSH1 0x0 PUSH2 0x100 EXP DUP2 SLOAD DUP2 PUSH1 0xFF MUL NOT AND SWAP1 DUP4 ISZERO ISZERO MUL OR SWAP1 SSTORE POP JUMPDEST PUSH2 0xF7D DUP4 DUP9 DUP4 PUSH32 0x0 PUSH20 0xFFFFFFFFFFFFFFFFFFFFFFFFFFFFFFFFFFFFFFFF AND PUSH2 0x1F1D SWAP1 SWAP4 SWAP3 SWAP2 SWAP1 PUSH4 0xFFFFFFFF AND JUMP JUMPDEST PUSH1 0x2 PUSH1 0x0 SWAP1 SLOAD SWAP1 PUSH2 0x100 EXP SWAP1 DIV PUSH20 0xFFFFFFFFFFFFFFFFFFFFFFFFFFFFFFFFFFFFFFFF AND PUSH20 0xFFFFFFFFFFFFFFFFFFFFFFFFFFFFFFFFFFFFFFFF AND PUSH4 0x91D14854 PUSH32 0xDF8B4C520FFE197C5343C6F5AEC59570151EF9A492F2C624FD45DDDE6135EC42 DUP10 PUSH1 0x40 MLOAD DUP4 PUSH4 0xFFFFFFFF AND PUSH1 0xE0 SHL DUP2 MSTORE PUSH1 0x4 ADD PUSH2 0xFFA SWAP3 SWAP2 SWAP1 PUSH2 0x2F75 JUMP JUMPDEST PUSH1 0x20 PUSH1 0x40 MLOAD DUP1 DUP4 SUB DUP2 DUP7 DUP1 EXTCODESIZE ISZERO DUP1 ISZERO PUSH2 0x1012 JUMPI PUSH1 0x0 DUP1 REVERT JUMPDEST POP GAS STATICCALL ISZERO DUP1 ISZERO PUSH2 0x1026 JUMPI RETURNDATASIZE PUSH1 0x0 DUP1 RETURNDATACOPY RETURNDATASIZE PUSH1 0x0 REVERT JUMPDEST POP POP POP POP PUSH1 0x40 MLOAD RETURNDATASIZE PUSH1 0x1F NOT PUSH1 0x1F DUP3 ADD AND DUP3 ADD DUP1 PUSH1 0x40 MSTORE POP DUP2 ADD SWAP1 PUSH2 0x104A SWAP2 SWAP1 PUSH2 0x2785 JUMP JUMPDEST ISZERO PUSH2 0x10E3 JUMPI PUSH32 0x0 PUSH20 0xFFFFFFFFFFFFFFFFFFFFFFFFFFFFFFFFFFFFFFFF AND PUSH4 0x836A1040 DUP10 DUP6 DUP10 PUSH1 0x40 MLOAD DUP5 PUSH4 0xFFFFFFFF AND PUSH1 0xE0 SHL DUP2 MSTORE PUSH1 0x4 ADD PUSH2 0x10AC SWAP4 SWAP3 SWAP2 SWAP1 PUSH2 0x3286 JUMP JUMPDEST PUSH1 0x0 PUSH1 0x40 MLOAD DUP1 DUP4 SUB DUP2 PUSH1 0x0 DUP8 DUP1 EXTCODESIZE ISZERO DUP1 ISZERO PUSH2 0x10C6 JUMPI PUSH1 0x0 DUP1 REVERT JUMPDEST POP GAS CALL ISZERO DUP1 ISZERO PUSH2 0x10DA JUMPI RETURNDATASIZE PUSH1 0x0 DUP1 RETURNDATACOPY RETURNDATASIZE PUSH1 0x0 REVERT JUMPDEST POP POP POP POP PUSH2 0x117D JUMP JUMPDEST PUSH32 0x0 PUSH20 0xFFFFFFFFFFFFFFFFFFFFFFFFFFFFFFFFFFFFFFFF AND PUSH4 0xF242432A ADDRESS DUP6 DUP8 PUSH1 0x1 ADD SLOAD DUP9 PUSH1 0x2 ADD SLOAD PUSH1 0x40 MLOAD DUP6 PUSH4 0xFFFFFFFF AND PUSH1 0xE0 SHL DUP2 MSTORE PUSH1 0x4 ADD PUSH2 0x114A SWAP5 SWAP4 SWAP3 SWAP2 SWAP1 PUSH2 0x2E86 JUMP JUMPDEST PUSH1 0x0 PUSH1 0x40 MLOAD DUP1 DUP4 SUB DUP2 PUSH1 0x0 DUP8 DUP1 EXTCODESIZE ISZERO DUP1 ISZERO PUSH2 0x1164 JUMPI PUSH1 0x0 DUP1 REVERT JUMPDEST POP GAS CALL ISZERO DUP1 ISZERO PUSH2 0x1178 JUMPI RETURNDATASIZE PUSH1 0x0 DUP1 RETURNDATACOPY RETURNDATASIZE PUSH1 0x0 REVERT JUMPDEST POP POP POP POP JUMPDEST DUP8 PUSH32 0x9C45908C2D32F0072963511B0E7C3059B0202498A9FDC83032DD440850D0C863 DUP5 DUP10 DUP10 DUP6 PUSH1 0x40 MLOAD PUSH2 0x11B3 SWAP5 SWAP4 SWAP3 SWAP2 SWAP1 PUSH2 0x2E41 JUMP JUMPDEST PUSH1 0x40 MLOAD DUP1 SWAP2 SUB SWAP1 LOG2 POP POP POP POP PUSH1 0x1 DUP1 DUP2 SWAP1 SSTORE POP POP POP POP POP JUMP JUMPDEST PUSH2 0x11D4 PUSH2 0x1E74 JUMP JUMPDEST PUSH20 0xFFFFFFFFFFFFFFFFFFFFFFFFFFFFFFFFFFFFFFFF AND PUSH2 0x11F2 PUSH2 0x145C JUMP JUMPDEST PUSH20 0xFFFFFFFFFFFFFFFFFFFFFFFFFFFFFFFFFFFFFFFF AND EQ PUSH2 0x1248 JUMPI PUSH1 0x40 MLOAD PUSH32 0x8C379A000000000000000000000000000000000000000000000000000000000 DUP2 MSTORE PUSH1 0x4 ADD PUSH2 0x123F SWAP1 PUSH2 0x30FB JUMP JUMPDEST PUSH1 0x40 MLOAD DUP1 SWAP2 SUB SWAP1 REVERT JUMPDEST PUSH2 0x1252 PUSH1 0x0 PUSH2 0x1FA6 JUMP JUMPDEST JUMP JUMPDEST PUSH2 0x125C PUSH2 0xC83 JUMP JUMPDEST ISZERO PUSH2 0x129C JUMPI PUSH1 0x40 MLOAD PUSH32 0x8C379A000000000000000000000000000000000000000000000000000000000 DUP2 MSTORE PUSH1 0x4 ADD PUSH2 0x1293 SWAP1 PUSH2 0x309B JUMP JUMPDEST PUSH1 0x40 MLOAD DUP1 SWAP2 SUB SWAP1 REVERT JUMPDEST PUSH1 0x2 PUSH1 0x1 SLOAD EQ ISZERO PUSH2 0x12E2 JUMPI PUSH1 0x40 MLOAD PUSH32 0x8C379A000000000000000000000000000000000000000000000000000000000 DUP2 MSTORE PUSH1 0x4 ADD PUSH2 0x12D9 SWAP1 PUSH2 0x31DB JUMP JUMPDEST PUSH1 0x40 MLOAD DUP1 SWAP2 SUB SWAP1 REVERT JUMPDEST PUSH1 0x2 PUSH1 0x1 DUP2 SWAP1 SSTORE POP PUSH1 0x0 CALLER SWAP1 POP PUSH1 0x0 PUSH1 0x3 PUSH1 0x0 DUP6 DUP2 MSTORE PUSH1 0x20 ADD SWAP1 DUP2 MSTORE PUSH1 0x20 ADD PUSH1 0x0 KECCAK256 PUSH1 0x0 DUP4 PUSH20 0xFFFFFFFFFFFFFFFFFFFFFFFFFFFFFFFFFFFFFFFF AND PUSH20 0xFFFFFFFFFFFFFFFFFFFFFFFFFFFFFFFFFFFFFFFF AND DUP2 MSTORE PUSH1 0x20 ADD SWAP1 DUP2 MSTORE PUSH1 0x20 ADD PUSH1 0x0 KECCAK256 SWAP1 POP PUSH1 0x0 DUP4 GT PUSH2 0x1386 JUMPI PUSH1 0x40 MLOAD PUSH32 0x8C379A000000000000000000000000000000000000000000000000000000000 DUP2 MSTORE PUSH1 0x4 ADD PUSH2 0x137D SWAP1 PUSH2 0x30BB JUMP JUMPDEST PUSH1 0x40 MLOAD DUP1 SWAP2 SUB SWAP1 REVERT JUMPDEST DUP3 DUP2 PUSH1 0x4 ADD DUP2 SWAP1 SSTORE POP DUP4 PUSH32 0x378B09391F49D01E482BA75312341912AD0652CB8AA8799B6B33B624BD65D9F2 DUP5 DUP5 PUSH1 0x40 MLOAD PUSH2 0x13C1 SWAP3 SWAP2 SWAP1 PUSH2 0x325D JUMP JUMPDEST PUSH1 0x40 MLOAD DUP1 SWAP2 SUB SWAP1 LOG2 POP POP PUSH1 0x1 DUP1 DUP2 SWAP1 SSTORE POP POP POP JUMP JUMPDEST PUSH2 0x13DE PUSH2 0x1E74 JUMP JUMPDEST PUSH20 0xFFFFFFFFFFFFFFFFFFFFFFFFFFFFFFFFFFFFFFFF AND PUSH2 0x13FC PUSH2 0x145C JUMP JUMPDEST PUSH20 0xFFFFFFFFFFFFFFFFFFFFFFFFFFFFFFFFFFFFFFFF AND EQ PUSH2 0x1452 JUMPI PUSH1 0x40 MLOAD PUSH32 0x8C379A000000000000000000000000000000000000000000000000000000000 DUP2 MSTORE PUSH1 0x4 ADD PUSH2 0x1449 SWAP1 PUSH2 0x30FB JUMP JUMPDEST PUSH1 0x40 MLOAD DUP1 SWAP2 SUB SWAP1 REVERT JUMPDEST PUSH2 0x145A PUSH2 0x206B JUMP JUMPDEST JUMP JUMPDEST PUSH1 0x0 DUP1 PUSH1 0x1 SWAP1 SLOAD SWAP1 PUSH2 0x100 EXP SWAP1 DIV PUSH20 0xFFFFFFFFFFFFFFFFFFFFFFFFFFFFFFFFFFFFFFFF AND SWAP1 POP SWAP1 JUMP JUMPDEST PUSH1 0x3 PUSH1 0x20 MSTORE DUP2 PUSH1 0x0 MSTORE PUSH1 0x40 PUSH1 0x0 KECCAK256 PUSH1 0x20 MSTORE DUP1 PUSH1 0x0 MSTORE PUSH1 0x40 PUSH1 0x0 KECCAK256 PUSH1 0x0 SWAP2 POP SWAP2 POP POP DUP1 PUSH1 0x0 ADD PUSH1 0x0 SWAP1 SLOAD SWAP1 PUSH2 0x100 EXP SWAP1 DIV PUSH1 0xFF AND SWAP1 DUP1 PUSH1 0x1 ADD SLOAD SWAP1 DUP1 PUSH1 0x2 ADD SLOAD SWAP1 DUP1 PUSH1 0x3 ADD SLOAD SWAP1 DUP1 PUSH1 0x4 ADD SLOAD SWAP1 POP DUP6 JUMP JUMPDEST PUSH1 0x0 PUSH4 0xBC197C81 PUSH1 0xE0 SHL SWAP1 POP SWAP6 SWAP5 POP POP POP POP POP JUMP JUMPDEST PUSH1 0x2 PUSH1 0x0 SWAP1 SLOAD SWAP1 PUSH2 0x100 EXP SWAP1 DIV PUSH20 0xFFFFFFFFFFFFFFFFFFFFFFFFFFFFFFFFFFFFFFFF AND PUSH20 0xFFFFFFFFFFFFFFFFFFFFFFFFFFFFFFFFFFFFFFFF AND PUSH4 0x91D14854 PUSH32 0xDF8B4C520FFE197C5343C6F5AEC59570151EF9A492F2C624FD45DDDE6135EC42 CALLER PUSH1 0x40 MLOAD DUP4 PUSH4 0xFFFFFFFF AND PUSH1 0xE0 SHL DUP2 MSTORE PUSH1 0x4 ADD PUSH2 0x1567 SWAP3 SWAP2 SWAP1 PUSH2 0x2F75 JUMP JUMPDEST PUSH1 0x20 PUSH1 0x40 MLOAD DUP1 DUP4 SUB DUP2 DUP7 DUP1 EXTCODESIZE ISZERO DUP1 ISZERO PUSH2 0x157F JUMPI PUSH1 0x0 DUP1 REVERT JUMPDEST POP GAS STATICCALL ISZERO DUP1 ISZERO PUSH2 0x1593 JUMPI RETURNDATASIZE PUSH1 0x0 DUP1 RETURNDATACOPY RETURNDATASIZE PUSH1 0x0 REVERT JUMPDEST POP POP POP POP PUSH1 0x40 MLOAD RETURNDATASIZE PUSH1 0x1F NOT PUSH1 0x1F DUP3 ADD AND DUP3 ADD DUP1 PUSH1 0x40 MSTORE POP DUP2 ADD SWAP1 PUSH2 0x15B7 SWAP2 SWAP1 PUSH2 0x2785 JUMP JUMPDEST PUSH2 0x15F6 JUMPI PUSH1 0x40 MLOAD PUSH32 0x8C379A000000000000000000000000000000000000000000000000000000000 DUP2 MSTORE PUSH1 0x4 ADD PUSH2 0x15ED SWAP1 PUSH2 0x30DB JUMP JUMPDEST PUSH1 0x40 MLOAD DUP1 SWAP2 SUB SWAP1 REVERT JUMPDEST PUSH2 0x15FE PUSH2 0xC83 JUMP JUMPDEST ISZERO PUSH2 0x163E JUMPI PUSH1 0x40 MLOAD PUSH32 0x8C379A000000000000000000000000000000000000000000000000000000000 DUP2 MSTORE PUSH1 0x4 ADD PUSH2 0x1635 SWAP1 PUSH2 0x309B JUMP JUMPDEST PUSH1 0x40 MLOAD DUP1 SWAP2 SUB SWAP1 REVERT JUMPDEST PUSH1 0x2 PUSH1 0x1 SLOAD EQ ISZERO PUSH2 0x1684 JUMPI PUSH1 0x40 MLOAD PUSH32 0x8C379A000000000000000000000000000000000000000000000000000000000 DUP2 MSTORE PUSH1 0x4 ADD PUSH2 0x167B SWAP1 PUSH2 0x31DB JUMP JUMPDEST PUSH1 0x40 MLOAD DUP1 SWAP2 SUB SWAP1 REVERT JUMPDEST PUSH1 0x2 PUSH1 0x1 DUP2 SWAP1 SSTORE POP PUSH1 0x0 PUSH1 0x3 PUSH1 0x0 DUP5 DUP2 MSTORE PUSH1 0x20 ADD SWAP1 DUP2 MSTORE PUSH1 0x20 ADD PUSH1 0x0 KECCAK256 PUSH1 0x0 CALLER PUSH20 0xFFFFFFFFFFFFFFFFFFFFFFFFFFFFFFFFFFFFFFFF AND PUSH20 0xFFFFFFFFFFFFFFFFFFFFFFFFFFFFFFFFFFFFFFFF AND DUP2 MSTORE PUSH1 0x20 ADD SWAP1 DUP2 MSTORE PUSH1 0x20 ADD PUSH1 0x0 KECCAK256 SWAP1 POP PUSH1 0x0 DUP2 PUSH1 0x0 ADD PUSH1 0x0 SWAP1 SLOAD SWAP1 PUSH2 0x100 EXP SWAP1 DIV PUSH1 0xFF AND SWAP1 POP PUSH1 0x0 DUP4 EQ DUP1 ISZERO PUSH2 0x1703 JUMPI POP DUP1 JUMPDEST ISZERO PUSH2 0x172A JUMPI PUSH1 0x0 DUP3 PUSH1 0x0 ADD PUSH1 0x0 PUSH2 0x100 EXP DUP2 SLOAD DUP2 PUSH1 0xFF MUL NOT AND SWAP1 DUP4 ISZERO ISZERO MUL OR SWAP1 SSTORE POP PUSH2 0x1760 JUMP JUMPDEST PUSH1 0x0 DUP3 PUSH1 0x2 ADD SLOAD EQ DUP1 ISZERO PUSH2 0x173C JUMPI POP DUP1 ISZERO JUMPDEST ISZERO PUSH2 0x175F JUMPI PUSH1 0x1 DUP3 PUSH1 0x0 ADD PUSH1 0x0 PUSH2 0x100 EXP DUP2 SLOAD DUP2 PUSH1 0xFF MUL NOT AND SWAP1 DUP4 ISZERO ISZERO MUL OR SWAP1 SSTORE POP JUMPDEST JUMPDEST DUP3 DUP3 PUSH1 0x2 ADD DUP2 SWAP1 SSTORE POP DUP4 PUSH32 0x4BFA799BD52E5CD465E582B11FBAD754D789F4FA526DF2209EC026D2DA586661 DUP5 CALLER PUSH1 0x40 MLOAD PUSH2 0x179B SWAP3 SWAP2 SWAP1 PUSH2 0x325D JUMP JUMPDEST PUSH1 0x40 MLOAD DUP1 SWAP2 SUB SWAP1 LOG2 POP POP PUSH1 0x1 DUP1 DUP2 SWAP1 SSTORE POP POP POP JUMP JUMPDEST PUSH1 0x2 PUSH1 0x0 SWAP1 SLOAD SWAP1 PUSH2 0x100 EXP SWAP1 DIV PUSH20 0xFFFFFFFFFFFFFFFFFFFFFFFFFFFFFFFFFFFFFFFF AND PUSH20 0xFFFFFFFFFFFFFFFFFFFFFFFFFFFFFFFFFFFFFFFF AND PUSH4 0x91D14854 PUSH32 0xDF8B4C520FFE197C5343C6F5AEC59570151EF9A492F2C624FD45DDDE6135EC42 CALLER PUSH1 0x40 MLOAD DUP4 PUSH4 0xFFFFFFFF AND PUSH1 0xE0 SHL DUP2 MSTORE PUSH1 0x4 ADD PUSH2 0x182D SWAP3 SWAP2 SWAP1 PUSH2 0x2F75 JUMP JUMPDEST PUSH1 0x20 PUSH1 0x40 MLOAD DUP1 DUP4 SUB DUP2 DUP7 DUP1 EXTCODESIZE ISZERO DUP1 ISZERO PUSH2 0x1845 JUMPI PUSH1 0x0 DUP1 REVERT JUMPDEST POP GAS STATICCALL ISZERO DUP1 ISZERO PUSH2 0x1859 JUMPI RETURNDATASIZE PUSH1 0x0 DUP1 RETURNDATACOPY RETURNDATASIZE PUSH1 0x0 REVERT JUMPDEST POP POP POP POP PUSH1 0x40 MLOAD RETURNDATASIZE PUSH1 0x1F NOT PUSH1 0x1F DUP3 ADD AND DUP3 ADD DUP1 PUSH1 0x40 MSTORE POP DUP2 ADD SWAP1 PUSH2 0x187D SWAP2 SWAP1 PUSH2 0x2785 JUMP JUMPDEST PUSH2 0x18BC JUMPI PUSH1 0x40 MLOAD PUSH32 0x8C379A000000000000000000000000000000000000000000000000000000000 DUP2 MSTORE PUSH1 0x4 ADD PUSH2 0x18B3 SWAP1 PUSH2 0x30DB JUMP JUMPDEST PUSH1 0x40 MLOAD DUP1 SWAP2 SUB SWAP1 REVERT JUMPDEST PUSH2 0x18C4 PUSH2 0xC83 JUMP JUMPDEST ISZERO PUSH2 0x1904 JUMPI PUSH1 0x40 MLOAD PUSH32 0x8C379A000000000000000000000000000000000000000000000000000000000 DUP2 MSTORE PUSH1 0x4 ADD PUSH2 0x18FB SWAP1 PUSH2 0x309B JUMP JUMPDEST PUSH1 0x40 MLOAD DUP1 SWAP2 SUB SWAP1 REVERT JUMPDEST PUSH1 0x2 PUSH1 0x1 SLOAD EQ ISZERO PUSH2 0x194A JUMPI PUSH1 0x40 MLOAD PUSH32 0x8C379A000000000000000000000000000000000000000000000000000000000 DUP2 MSTORE PUSH1 0x4 ADD PUSH2 0x1941 SWAP1 PUSH2 0x31DB JUMP JUMPDEST PUSH1 0x40 MLOAD DUP1 SWAP2 SUB SWAP1 REVERT JUMPDEST PUSH1 0x2 PUSH1 0x1 DUP2 SWAP1 SSTORE POP PUSH1 0x0 DUP3 GT PUSH2 0x1995 JUMPI PUSH1 0x40 MLOAD PUSH32 0x8C379A000000000000000000000000000000000000000000000000000000000 DUP2 MSTORE PUSH1 0x4 ADD PUSH2 0x198C SWAP1 PUSH2 0x2FDB JUMP JUMPDEST PUSH1 0x40 MLOAD DUP1 SWAP2 SUB SWAP1 REVERT JUMPDEST PUSH1 0x0 DUP2 GT PUSH2 0x19D8 JUMPI PUSH1 0x40 MLOAD PUSH32 0x8C379A000000000000000000000000000000000000000000000000000000000 DUP2 MSTORE PUSH1 0x4 ADD PUSH2 0x19CF SWAP1 PUSH2 0x31FB JUMP JUMPDEST PUSH1 0x40 MLOAD DUP1 SWAP2 SUB SWAP1 REVERT JUMPDEST PUSH32 0x0 PUSH20 0xFFFFFFFFFFFFFFFFFFFFFFFFFFFFFFFFFFFFFFFF AND PUSH4 0x91AC2C4E DUP5 PUSH1 0x40 MLOAD DUP3 PUSH4 0xFFFFFFFF AND PUSH1 0xE0 SHL DUP2 MSTORE PUSH1 0x4 ADD PUSH2 0x1A31 SWAP2 SWAP1 PUSH2 0x323B JUMP JUMPDEST PUSH1 0x0 PUSH1 0x40 MLOAD DUP1 DUP4 SUB DUP2 PUSH1 0x0 DUP8 DUP1 EXTCODESIZE ISZERO DUP1 ISZERO PUSH2 0x1A4B JUMPI PUSH1 0x0 DUP1 REVERT JUMPDEST POP GAS CALL ISZERO DUP1 ISZERO PUSH2 0x1A5F JUMPI RETURNDATASIZE PUSH1 0x0 DUP1 RETURNDATACOPY RETURNDATASIZE PUSH1 0x0 REVERT JUMPDEST POP POP POP POP PUSH1 0x0 PUSH32 0x0 PUSH20 0xFFFFFFFFFFFFFFFFFFFFFFFFFFFFFFFFFFFFFFFF AND PUSH4 0xB02A2756 PUSH1 0x40 MLOAD DUP2 PUSH4 0xFFFFFFFF AND PUSH1 0xE0 SHL DUP2 MSTORE PUSH1 0x4 ADD PUSH1 0x20 PUSH1 0x40 MLOAD DUP1 DUP4 SUB DUP2 PUSH1 0x0 DUP8 DUP1 EXTCODESIZE ISZERO DUP1 ISZERO PUSH2 0x1ACD JUMPI PUSH1 0x0 DUP1 REVERT JUMPDEST POP GAS CALL ISZERO DUP1 ISZERO PUSH2 0x1AE1 JUMPI RETURNDATASIZE PUSH1 0x0 DUP1 RETURNDATACOPY RETURNDATASIZE PUSH1 0x0 REVERT JUMPDEST POP POP POP POP PUSH1 0x40 MLOAD RETURNDATASIZE PUSH1 0x1F NOT PUSH1 0x1F DUP3 ADD AND DUP3 ADD DUP1 PUSH1 0x40 MSTORE POP DUP2 ADD SWAP1 PUSH2 0x1B05 SWAP2 SWAP1 PUSH2 0x287B JUMP JUMPDEST SWAP1 POP PUSH1 0x0 PUSH1 0x3 PUSH1 0x0 DUP4 DUP2 MSTORE PUSH1 0x20 ADD SWAP1 DUP2 MSTORE PUSH1 0x20 ADD PUSH1 0x0 KECCAK256 PUSH1 0x0 CALLER PUSH20 0xFFFFFFFFFFFFFFFFFFFFFFFFFFFFFFFFFFFFFFFF AND PUSH20 0xFFFFFFFFFFFFFFFFFFFFFFFFFFFFFFFFFFFFFFFF AND DUP2 MSTORE PUSH1 0x20 ADD SWAP1 DUP2 MSTORE PUSH1 0x20 ADD PUSH1 0x0 KECCAK256 PUSH1 0x40 MLOAD DUP1 PUSH1 0xA0 ADD PUSH1 0x40 MSTORE SWAP1 DUP2 PUSH1 0x0 DUP3 ADD PUSH1 0x0 SWAP1 SLOAD SWAP1 PUSH2 0x100 EXP SWAP1 DIV PUSH1 0xFF AND ISZERO ISZERO ISZERO ISZERO DUP2 MSTORE PUSH1 0x20 ADD PUSH1 0x1 DUP3 ADD SLOAD DUP2 MSTORE PUSH1 0x20 ADD PUSH1 0x2 DUP3 ADD SLOAD DUP2 MSTORE PUSH1 0x20 ADD PUSH1 0x3 DUP3 ADD SLOAD DUP2 MSTORE PUSH1 0x20 ADD PUSH1 0x4 DUP3 ADD SLOAD DUP2 MSTORE POP POP SWAP1 POP DUP1 PUSH1 0x0 ADD MLOAD ISZERO PUSH2 0x1BEE JUMPI PUSH1 0x40 MLOAD PUSH32 0x8C379A000000000000000000000000000000000000000000000000000000000 DUP2 MSTORE PUSH1 0x4 ADD PUSH2 0x1BE5 SWAP1 PUSH2 0x301B JUMP JUMPDEST PUSH1 0x40 MLOAD DUP1 SWAP2 SUB SWAP1 REVERT JUMPDEST PUSH1 0x40 MLOAD DUP1 PUSH1 0xA0 ADD PUSH1 0x40 MSTORE DUP1 PUSH1 0x1 ISZERO ISZERO DUP2 MSTORE PUSH1 0x20 ADD DUP4 DUP2 MSTORE PUSH1 0x20 ADD DUP5 DUP2 MSTORE PUSH1 0x20 ADD TIMESTAMP DUP2 MSTORE PUSH1 0x20 ADD DUP6 DUP2 MSTORE POP PUSH1 0x3 PUSH1 0x0 DUP5 DUP2 MSTORE PUSH1 0x20 ADD SWAP1 DUP2 MSTORE PUSH1 0x20 ADD PUSH1 0x0 KECCAK256 PUSH1 0x0 CALLER PUSH20 0xFFFFFFFFFFFFFFFFFFFFFFFFFFFFFFFFFFFFFFFF AND PUSH20 0xFFFFFFFFFFFFFFFFFFFFFFFFFFFFFFFFFFFFFFFF AND DUP2 MSTORE PUSH1 0x20 ADD SWAP1 DUP2 MSTORE PUSH1 0x20 ADD PUSH1 0x0 KECCAK256 PUSH1 0x0 DUP3 ADD MLOAD DUP2 PUSH1 0x0 ADD PUSH1 0x0 PUSH2 0x100 EXP DUP2 SLOAD DUP2 PUSH1 0xFF MUL NOT AND SWAP1 DUP4 ISZERO ISZERO MUL OR SWAP1 SSTORE POP PUSH1 0x20 DUP3 ADD MLOAD DUP2 PUSH1 0x1 ADD SSTORE PUSH1 0x40 DUP3 ADD MLOAD DUP2 PUSH1 0x2 ADD SSTORE PUSH1 0x60 DUP3 ADD MLOAD DUP2 PUSH1 0x3 ADD SSTORE PUSH1 0x80 DUP3 ADD MLOAD DUP2 PUSH1 0x4 ADD SSTORE SWAP1 POP POP DUP2 PUSH32 0x45F291A17FAAAD4D168218441D34A64D78538CAF947C648CA3E2E296ECC0BAC1 DUP5 DUP7 CALLER PUSH1 0x40 MLOAD PUSH2 0x1CE7 SWAP4 SWAP3 SWAP2 SWAP1 PUSH2 0x32BD JUMP JUMPDEST PUSH1 0x40 MLOAD DUP1 SWAP2 SUB SWAP1 LOG2 POP POP PUSH1 0x1 DUP1 DUP2 SWAP1 SSTORE POP POP POP POP JUMP JUMPDEST PUSH1 0x0 PUSH4 0xF23A6E61 PUSH1 0xE0 SHL SWAP1 POP SWAP6 SWAP5 POP POP POP POP POP JUMP JUMPDEST PUSH2 0x1D1A PUSH2 0x1E74 JUMP JUMPDEST PUSH20 0xFFFFFFFFFFFFFFFFFFFFFFFFFFFFFFFFFFFFFFFF AND PUSH2 0x1D38 PUSH2 0x145C JUMP JUMPDEST PUSH20 0xFFFFFFFFFFFFFFFFFFFFFFFFFFFFFFFFFFFFFFFF AND EQ PUSH2 0x1D8E JUMPI PUSH1 0x40 MLOAD PUSH32 0x8C379A000000000000000000000000000000000000000000000000000000000 DUP2 MSTORE PUSH1 0x4 ADD PUSH2 0x1D85 SWAP1 PUSH2 0x30FB JUMP JUMPDEST PUSH1 0x40 MLOAD DUP1 SWAP2 SUB SWAP1 REVERT JUMPDEST PUSH1 0x0 PUSH20 0xFFFFFFFFFFFFFFFFFFFFFFFFFFFFFFFFFFFFFFFF AND DUP2 PUSH20 0xFFFFFFFFFFFFFFFFFFFFFFFFFFFFFFFFFFFFFFFF AND EQ ISZERO PUSH2 0x1DFE JUMPI PUSH1 0x40 MLOAD PUSH32 0x8C379A000000000000000000000000000000000000000000000000000000000 DUP2 MSTORE PUSH1 0x4 ADD PUSH2 0x1DF5 SWAP1 PUSH2 0x305B JUMP JUMPDEST PUSH1 0x40 MLOAD DUP1 SWAP2 SUB SWAP1 REVERT JUMPDEST PUSH2 0x1E07 DUP2 PUSH2 0x1FA6 JUMP JUMPDEST POP JUMP JUMPDEST PUSH1 0x0 PUSH32 0x1FFC9A700000000000000000000000000000000000000000000000000000000 PUSH28 0xFFFFFFFFFFFFFFFFFFFFFFFFFFFFFFFFFFFFFFFFFFFFFFFFFFFFFFFF NOT AND DUP3 PUSH28 0xFFFFFFFFFFFFFFFFFFFFFFFFFFFFFFFFFFFFFFFFFFFFFFFFFFFFFFFF NOT AND EQ SWAP1 POP SWAP2 SWAP1 POP JUMP JUMPDEST PUSH1 0x0 CALLER SWAP1 POP SWAP1 JUMP JUMPDEST PUSH2 0x1E84 PUSH2 0xC83 JUMP JUMPDEST PUSH2 0x1EC3 JUMPI PUSH1 0x40 MLOAD PUSH32 0x8C379A000000000000000000000000000000000000000000000000000000000 DUP2 MSTORE PUSH1 0x4 ADD PUSH2 0x1EBA SWAP1 PUSH2 0x2FFB JUMP JUMPDEST PUSH1 0x40 MLOAD DUP1 SWAP2 SUB SWAP1 REVERT JUMPDEST PUSH1 0x0 DUP1 PUSH1 0x0 PUSH2 0x100 EXP DUP2 SLOAD DUP2 PUSH1 0xFF MUL NOT AND SWAP1 DUP4 ISZERO ISZERO MUL OR SWAP1 SSTORE POP PUSH32 0x5DB9EE0A495BF2E6FF9C91A7834C1BA4FDD244A5E8AA4E537BD38AEAE4B073AA PUSH2 0x1F06 PUSH2 0x1E74 JUMP JUMPDEST PUSH1 0x40 MLOAD PUSH2 0x1F13 SWAP2 SWAP1 PUSH2 0x2DEF JUMP JUMPDEST PUSH1 0x40 MLOAD DUP1 SWAP2 SUB SWAP1 LOG1 JUMP JUMPDEST PUSH2 0x1FA0 DUP5 PUSH4 0x23B872DD PUSH1 0xE0 SHL DUP6 DUP6 DUP6 PUSH1 0x40 MLOAD PUSH1 0x24 ADD PUSH2 0x1F3E SWAP4 SWAP3 SWAP2 SWAP1 PUSH2 0x2E0A JUMP JUMPDEST PUSH1 0x40 MLOAD PUSH1 0x20 DUP2 DUP4 SUB SUB DUP2 MSTORE SWAP1 PUSH1 0x40 MSTORE SWAP1 PUSH28 0xFFFFFFFFFFFFFFFFFFFFFFFFFFFFFFFFFFFFFFFFFFFFFFFFFFFFFFFF NOT AND PUSH1 0x20 DUP3 ADD DUP1 MLOAD PUSH28 0xFFFFFFFFFFFFFFFFFFFFFFFFFFFFFFFFFFFFFFFFFFFFFFFFFFFFFFFF DUP4 DUP2 DUP4 AND OR DUP4 MSTORE POP POP POP POP PUSH2 0x210D JUMP JUMPDEST POP POP POP POP JUMP JUMPDEST PUSH1 0x0 DUP1 PUSH1 0x1 SWAP1 SLOAD SWAP1 PUSH2 0x100 EXP SWAP1 DIV PUSH20 0xFFFFFFFFFFFFFFFFFFFFFFFFFFFFFFFFFFFFFFFF AND SWAP1 POP DUP2 PUSH1 0x0 PUSH1 0x1 PUSH2 0x100 EXP DUP2 SLOAD DUP2 PUSH20 0xFFFFFFFFFFFFFFFFFFFFFFFFFFFFFFFFFFFFFFFF MUL NOT AND SWAP1 DUP4 PUSH20 0xFFFFFFFFFFFFFFFFFFFFFFFFFFFFFFFFFFFFFFFF AND MUL OR SWAP1 SSTORE POP DUP2 PUSH20 0xFFFFFFFFFFFFFFFFFFFFFFFFFFFFFFFFFFFFFFFF AND DUP2 PUSH20 0xFFFFFFFFFFFFFFFFFFFFFFFFFFFFFFFFFFFFFFFF AND PUSH32 0x8BE0079C531659141344CD1FD0A4F28419497F9722A3DAAFE3B4186F6B6457E0 PUSH1 0x40 MLOAD PUSH1 0x40 MLOAD DUP1 SWAP2 SUB SWAP1 LOG3 POP POP JUMP JUMPDEST PUSH2 0x2073 PUSH2 0xC83 JUMP JUMPDEST ISZERO PUSH2 0x20B3 JUMPI PUSH1 0x40 MLOAD PUSH32 0x8C379A000000000000000000000000000000000000000000000000000000000 DUP2 MSTORE PUSH1 0x4 ADD PUSH2 0x20AA SWAP1 PUSH2 0x309B JUMP JUMPDEST PUSH1 0x40 MLOAD DUP1 SWAP2 SUB SWAP1 REVERT JUMPDEST PUSH1 0x1 PUSH1 0x0 DUP1 PUSH2 0x100 EXP DUP2 SLOAD DUP2 PUSH1 0xFF MUL NOT AND SWAP1 DUP4 ISZERO ISZERO MUL OR SWAP1 SSTORE POP PUSH32 0x62E78CEA01BEE320CD4E420270B5EA74000D11B0C9F74754EBDBFC544B05A258 PUSH2 0x20F6 PUSH2 0x1E74 JUMP JUMPDEST PUSH1 0x40 MLOAD PUSH2 0x2103 SWAP2 SWAP1 PUSH2 0x2DEF JUMP JUMPDEST PUSH1 0x40 MLOAD DUP1 SWAP2 SUB SWAP1 LOG1 JUMP JUMPDEST PUSH1 0x0 PUSH2 0x216F DUP3 PUSH1 0x40 MLOAD DUP1 PUSH1 0x40 ADD PUSH1 0x40 MSTORE DUP1 PUSH1 0x20 DUP2 MSTORE PUSH1 0x20 ADD PUSH32 0x5361666545524332303A206C6F772D6C6576656C2063616C6C206661696C6564 DUP2 MSTORE POP DUP6 PUSH20 0xFFFFFFFFFFFFFFFFFFFFFFFFFFFFFFFFFFFFFFFF AND PUSH2 0x21D4 SWAP1 SWAP3 SWAP2 SWAP1 PUSH4 0xFFFFFFFF AND JUMP JUMPDEST SWAP1 POP PUSH1 0x0 DUP2 MLOAD GT ISZERO PUSH2 0x21CF JUMPI DUP1 DUP1 PUSH1 0x20 ADD SWAP1 MLOAD DUP2 ADD SWAP1 PUSH2 0x218F SWAP2 SWAP1 PUSH2 0x2785 JUMP JUMPDEST PUSH2 0x21CE JUMPI PUSH1 0x40 MLOAD PUSH32 0x8C379A000000000000000000000000000000000000000000000000000000000 DUP2 MSTORE PUSH1 0x4 ADD PUSH2 0x21C5 SWAP1 PUSH2 0x31BB JUMP JUMPDEST PUSH1 0x40 MLOAD DUP1 SWAP2 SUB SWAP1 REVERT JUMPDEST JUMPDEST POP POP POP JUMP JUMPDEST PUSH1 0x60 PUSH2 0x21E3 DUP5 DUP5 PUSH1 0x0 DUP6 PUSH2 0x21EC JUMP JUMPDEST SWAP1 POP SWAP4 SWAP3 POP POP POP JUMP JUMPDEST PUSH1 0x60 DUP3 SELFBALANCE LT ISZERO PUSH2 0x2231 JUMPI PUSH1 0x40 MLOAD PUSH32 0x8C379A000000000000000000000000000000000000000000000000000000000 DUP2 MSTORE PUSH1 0x4 ADD PUSH2 0x2228 SWAP1 PUSH2 0x307B JUMP JUMPDEST PUSH1 0x40 MLOAD DUP1 SWAP2 SUB SWAP1 REVERT JUMPDEST PUSH2 0x223A DUP6 PUSH2 0x2300 JUMP JUMPDEST PUSH2 0x2279 JUMPI PUSH1 0x40 MLOAD PUSH32 0x8C379A000000000000000000000000000000000000000000000000000000000 DUP2 MSTORE PUSH1 0x4 ADD PUSH2 0x2270 SWAP1 PUSH2 0x315B JUMP JUMPDEST PUSH1 0x40 MLOAD DUP1 SWAP2 SUB SWAP1 REVERT JUMPDEST PUSH1 0x0 DUP1 DUP7 PUSH20 0xFFFFFFFFFFFFFFFFFFFFFFFFFFFFFFFFFFFFFFFF AND DUP6 DUP8 PUSH1 0x40 MLOAD PUSH2 0x22A2 SWAP2 SWAP1 PUSH2 0x2DD8 JUMP JUMPDEST PUSH1 0x0 PUSH1 0x40 MLOAD DUP1 DUP4 SUB DUP2 DUP6 DUP8 GAS CALL SWAP3 POP POP POP RETURNDATASIZE DUP1 PUSH1 0x0 DUP2 EQ PUSH2 0x22DF JUMPI PUSH1 0x40 MLOAD SWAP2 POP PUSH1 0x1F NOT PUSH1 0x3F RETURNDATASIZE ADD AND DUP3 ADD PUSH1 0x40 MSTORE RETURNDATASIZE DUP3 MSTORE RETURNDATASIZE PUSH1 0x0 PUSH1 0x20 DUP5 ADD RETURNDATACOPY PUSH2 0x22E4 JUMP JUMPDEST PUSH1 0x60 SWAP2 POP JUMPDEST POP SWAP2 POP SWAP2 POP PUSH2 0x22F4 DUP3 DUP3 DUP7 PUSH2 0x2323 JUMP JUMPDEST SWAP3 POP POP POP SWAP5 SWAP4 POP POP POP POP JUMP JUMPDEST PUSH1 0x0 DUP1 DUP3 PUSH20 0xFFFFFFFFFFFFFFFFFFFFFFFFFFFFFFFFFFFFFFFF AND EXTCODESIZE GT SWAP1 POP SWAP2 SWAP1 POP JUMP JUMPDEST PUSH1 0x60 DUP4 ISZERO PUSH2 0x2333 JUMPI DUP3 SWAP1 POP PUSH2 0x2383 JUMP JUMPDEST PUSH1 0x0 DUP4 MLOAD GT ISZERO PUSH2 0x2346 JUMPI DUP3 MLOAD DUP1 DUP5 PUSH1 0x20 ADD REVERT JUMPDEST DUP2 PUSH1 0x40 MLOAD PUSH32 0x8C379A000000000000000000000000000000000000000000000000000000000 DUP2 MSTORE PUSH1 0x4 ADD PUSH2 0x237A SWAP2 SWAP1 PUSH2 0x2FB9 JUMP JUMPDEST PUSH1 0x40 MLOAD DUP1 SWAP2 SUB SWAP1 REVERT JUMPDEST SWAP4 SWAP3 POP POP POP JUMP JUMPDEST PUSH1 0x0 PUSH2 0x239D PUSH2 0x2398 DUP5 PUSH2 0x3319 JUMP JUMPDEST PUSH2 0x32F4 JUMP JUMPDEST SWAP1 POP DUP1 DUP4 DUP3 MSTORE PUSH1 0x20 DUP3 ADD SWAP1 POP DUP3 DUP6 PUSH1 0x20 DUP7 MUL DUP3 ADD GT ISZERO PUSH2 0x23C0 JUMPI PUSH2 0x23BF PUSH2 0x35E7 JUMP JUMPDEST JUMPDEST PUSH1 0x0 JUMPDEST DUP6 DUP2 LT ISZERO PUSH2 0x23F0 JUMPI DUP2 PUSH2 0x23D6 DUP9 DUP3 PUSH2 0x25C8 JUMP JUMPDEST DUP5 MSTORE PUSH1 0x20 DUP5 ADD SWAP4 POP PUSH1 0x20 DUP4 ADD SWAP3 POP POP PUSH1 0x1 DUP2 ADD SWAP1 POP PUSH2 0x23C3 JUMP JUMPDEST POP POP POP SWAP4 SWAP3 POP POP POP JUMP JUMPDEST PUSH1 0x0 PUSH2 0x240D PUSH2 0x2408 DUP5 PUSH2 0x3345 JUMP JUMPDEST PUSH2 0x32F4 JUMP JUMPDEST SWAP1 POP DUP3 DUP2 MSTORE PUSH1 0x20 DUP2 ADD DUP5 DUP5 DUP5 ADD GT ISZERO PUSH2 0x2429 JUMPI PUSH2 0x2428 PUSH2 0x35EC JUMP JUMPDEST JUMPDEST PUSH2 0x2434 DUP5 DUP3 DUP6 PUSH2 0x3507 JUMP JUMPDEST POP SWAP4 SWAP3 POP POP POP JUMP JUMPDEST PUSH1 0x0 PUSH2 0x244F PUSH2 0x244A DUP5 PUSH2 0x3376 JUMP JUMPDEST PUSH2 0x32F4 JUMP JUMPDEST SWAP1 POP DUP3 DUP2 MSTORE PUSH1 0x20 DUP2 ADD DUP5 DUP5 DUP5 ADD GT ISZERO PUSH2 0x246B JUMPI PUSH2 0x246A PUSH2 0x35EC JUMP JUMPDEST JUMPDEST PUSH2 0x2476 DUP5 DUP3 DUP6 PUSH2 0x3507 JUMP JUMPDEST POP SWAP4 SWAP3 POP POP POP JUMP JUMPDEST PUSH1 0x0 DUP2 CALLDATALOAD SWAP1 POP PUSH2 0x248D DUP2 PUSH2 0x3A96 JUMP JUMPDEST SWAP3 SWAP2 POP POP JUMP JUMPDEST PUSH1 0x0 DUP3 PUSH1 0x1F DUP4 ADD SLT PUSH2 0x24A8 JUMPI PUSH2 0x24A7 PUSH2 0x35D8 JUMP JUMPDEST JUMPDEST DUP2 CALLDATALOAD PUSH2 0x24B8 DUP5 DUP3 PUSH1 0x20 DUP7 ADD PUSH2 0x238A JUMP JUMPDEST SWAP2 POP POP SWAP3 SWAP2 POP POP JUMP JUMPDEST PUSH1 0x0 DUP2 CALLDATALOAD SWAP1 POP PUSH2 0x24D0 DUP2 PUSH2 0x3AAD JUMP JUMPDEST SWAP3 SWAP2 POP POP JUMP JUMPDEST PUSH1 0x0 DUP2 MLOAD SWAP1 POP PUSH2 0x24E5 DUP2 PUSH2 0x3AAD JUMP JUMPDEST SWAP3 SWAP2 POP POP JUMP JUMPDEST PUSH1 0x0 DUP2 CALLDATALOAD SWAP1 POP PUSH2 0x24FA DUP2 PUSH2 0x3AC4 JUMP JUMPDEST SWAP3 SWAP2 POP POP JUMP JUMPDEST PUSH1 0x0 DUP3 PUSH1 0x1F DUP4 ADD SLT PUSH2 0x2515 JUMPI PUSH2 0x2514 PUSH2 0x35D8 JUMP JUMPDEST JUMPDEST DUP2 CALLDATALOAD PUSH2 0x2525 DUP5 DUP3 PUSH1 0x20 DUP7 ADD PUSH2 0x23FA JUMP JUMPDEST SWAP2 POP POP SWAP3 SWAP2 POP POP JUMP JUMPDEST PUSH1 0x0 DUP3 PUSH1 0x1F DUP4 ADD SLT PUSH2 0x2543 JUMPI PUSH2 0x2542 PUSH2 0x35D8 JUMP JUMPDEST JUMPDEST DUP2 CALLDATALOAD PUSH2 0x2553 DUP5 DUP3 PUSH1 0x20 DUP7 ADD PUSH2 0x243C JUMP JUMPDEST SWAP2 POP POP SWAP3 SWAP2 POP POP JUMP JUMPDEST PUSH1 0x0 PUSH1 0x40 DUP3 DUP5 SUB SLT ISZERO PUSH2 0x2572 JUMPI PUSH2 0x2571 PUSH2 0x35DD JUMP JUMPDEST JUMPDEST PUSH2 0x257C PUSH1 0x40 PUSH2 0x32F4 JUMP JUMPDEST SWAP1 POP PUSH1 0x0 DUP3 ADD CALLDATALOAD PUSH8 0xFFFFFFFFFFFFFFFF DUP2 GT ISZERO PUSH2 0x259C JUMPI PUSH2 0x259B PUSH2 0x35E2 JUMP JUMPDEST JUMPDEST PUSH2 0x25A8 DUP5 DUP3 DUP6 ADD PUSH2 0x252E JUMP JUMPDEST PUSH1 0x0 DUP4 ADD MSTORE POP PUSH1 0x20 PUSH2 0x25BC DUP5 DUP3 DUP6 ADD PUSH2 0x24C1 JUMP JUMPDEST PUSH1 0x20 DUP4 ADD MSTORE POP SWAP3 SWAP2 POP POP JUMP JUMPDEST PUSH1 0x0 DUP2 CALLDATALOAD SWAP1 POP PUSH2 0x25D7 DUP2 PUSH2 0x3ADB JUMP JUMPDEST SWAP3 SWAP2 POP POP JUMP JUMPDEST PUSH1 0x0 DUP2 MLOAD SWAP1 POP PUSH2 0x25EC DUP2 PUSH2 0x3ADB JUMP JUMPDEST SWAP3 SWAP2 POP POP JUMP JUMPDEST PUSH1 0x0 PUSH1 0x20 DUP3 DUP5 SUB SLT ISZERO PUSH2 0x2608 JUMPI PUSH2 0x2607 PUSH2 0x35F6 JUMP JUMPDEST JUMPDEST PUSH1 0x0 PUSH2 0x2616 DUP5 DUP3 DUP6 ADD PUSH2 0x247E JUMP JUMPDEST SWAP2 POP POP SWAP3 SWAP2 POP POP JUMP JUMPDEST PUSH1 0x0 DUP1 PUSH1 0x0 DUP1 PUSH1 0x0 PUSH1 0xA0 DUP7 DUP9 SUB SLT ISZERO PUSH2 0x263B JUMPI PUSH2 0x263A PUSH2 0x35F6 JUMP JUMPDEST JUMPDEST PUSH1 0x0 PUSH2 0x2649 DUP9 DUP3 DUP10 ADD PUSH2 0x247E JUMP JUMPDEST SWAP6 POP POP PUSH1 0x20 PUSH2 0x265A DUP9 DUP3 DUP10 ADD PUSH2 0x247E JUMP JUMPDEST SWAP5 POP POP PUSH1 0x40 DUP7 ADD CALLDATALOAD PUSH8 0xFFFFFFFFFFFFFFFF DUP2 GT ISZERO PUSH2 0x267B JUMPI PUSH2 0x267A PUSH2 0x35F1 JUMP JUMPDEST JUMPDEST PUSH2 0x2687 DUP9 DUP3 DUP10 ADD PUSH2 0x2493 JUMP JUMPDEST SWAP4 POP POP PUSH1 0x60 DUP7 ADD CALLDATALOAD PUSH8 0xFFFFFFFFFFFFFFFF DUP2 GT ISZERO PUSH2 0x26A8 JUMPI PUSH2 0x26A7 PUSH2 0x35F1 JUMP JUMPDEST JUMPDEST PUSH2 0x26B4 DUP9 DUP3 DUP10 ADD PUSH2 0x2493 JUMP JUMPDEST SWAP3 POP POP PUSH1 0x80 DUP7 ADD CALLDATALOAD PUSH8 0xFFFFFFFFFFFFFFFF DUP2 GT ISZERO PUSH2 0x26D5 JUMPI PUSH2 0x26D4 PUSH2 0x35F1 JUMP JUMPDEST JUMPDEST PUSH2 0x26E1 DUP9 DUP3 DUP10 ADD PUSH2 0x2500 JUMP JUMPDEST SWAP2 POP POP SWAP3 SWAP6 POP SWAP3 SWAP6 SWAP1 SWAP4 POP JUMP JUMPDEST PUSH1 0x0 DUP1 PUSH1 0x0 DUP1 PUSH1 0x0 PUSH1 0xA0 DUP7 DUP9 SUB SLT ISZERO PUSH2 0x270A JUMPI PUSH2 0x2709 PUSH2 0x35F6 JUMP JUMPDEST JUMPDEST PUSH1 0x0 PUSH2 0x2718 DUP9 DUP3 DUP10 ADD PUSH2 0x247E JUMP JUMPDEST SWAP6 POP POP PUSH1 0x20 PUSH2 0x2729 DUP9 DUP3 DUP10 ADD PUSH2 0x247E JUMP JUMPDEST SWAP5 POP POP PUSH1 0x40 PUSH2 0x273A DUP9 DUP3 DUP10 ADD PUSH2 0x25C8 JUMP JUMPDEST SWAP4 POP POP PUSH1 0x60 PUSH2 0x274B DUP9 DUP3 DUP10 ADD PUSH2 0x25C8 JUMP JUMPDEST SWAP3 POP POP PUSH1 0x80 DUP7 ADD CALLDATALOAD PUSH8 0xFFFFFFFFFFFFFFFF DUP2 GT ISZERO PUSH2 0x276C JUMPI PUSH2 0x276B PUSH2 0x35F1 JUMP JUMPDEST JUMPDEST PUSH2 0x2778 DUP9 DUP3 DUP10 ADD PUSH2 0x2500 JUMP JUMPDEST SWAP2 POP POP SWAP3 SWAP6 POP SWAP3 SWAP6 SWAP1 SWAP4 POP JUMP JUMPDEST PUSH1 0x0 PUSH1 0x20 DUP3 DUP5 SUB SLT ISZERO PUSH2 0x279B JUMPI PUSH2 0x279A PUSH2 0x35F6 JUMP JUMPDEST JUMPDEST PUSH1 0x0 PUSH2 0x27A9 DUP5 DUP3 DUP6 ADD PUSH2 0x24D6 JUMP JUMPDEST SWAP2 POP POP SWAP3 SWAP2 POP POP JUMP JUMPDEST PUSH1 0x0 PUSH1 0x20 DUP3 DUP5 SUB SLT ISZERO PUSH2 0x27C8 JUMPI PUSH2 0x27C7 PUSH2 0x35F6 JUMP JUMPDEST JUMPDEST PUSH1 0x0 PUSH2 0x27D6 DUP5 DUP3 DUP6 ADD PUSH2 0x24EB JUMP JUMPDEST SWAP2 POP POP SWAP3 SWAP2 POP POP JUMP JUMPDEST PUSH1 0x0 DUP1 PUSH1 0x0 PUSH1 0x60 DUP5 DUP7 SUB SLT ISZERO PUSH2 0x27F8 JUMPI PUSH2 0x27F7 PUSH2 0x35F6 JUMP JUMPDEST JUMPDEST PUSH1 0x0 DUP5 ADD CALLDATALOAD PUSH8 0xFFFFFFFFFFFFFFFF DUP2 GT ISZERO PUSH2 0x2816 JUMPI PUSH2 0x2815 PUSH2 0x35F1 JUMP JUMPDEST JUMPDEST PUSH2 0x2822 DUP7 DUP3 DUP8 ADD PUSH2 0x255C JUMP JUMPDEST SWAP4 POP POP PUSH1 0x20 PUSH2 0x2833 DUP7 DUP3 DUP8 ADD PUSH2 0x25C8 JUMP JUMPDEST SWAP3 POP POP PUSH1 0x40 PUSH2 0x2844 DUP7 DUP3 DUP8 ADD PUSH2 0x25C8 JUMP JUMPDEST SWAP2 POP POP SWAP3 POP SWAP3 POP SWAP3 JUMP JUMPDEST PUSH1 0x0 PUSH1 0x20 DUP3 DUP5 SUB SLT ISZERO PUSH2 0x2864 JUMPI PUSH2 0x2863 PUSH2 0x35F6 JUMP JUMPDEST JUMPDEST PUSH1 0x0 PUSH2 0x2872 DUP5 DUP3 DUP6 ADD PUSH2 0x25C8 JUMP JUMPDEST SWAP2 POP POP SWAP3 SWAP2 POP POP JUMP JUMPDEST PUSH1 0x0 PUSH1 0x20 DUP3 DUP5 SUB SLT ISZERO PUSH2 0x2891 JUMPI PUSH2 0x2890 PUSH2 0x35F6 JUMP JUMPDEST JUMPDEST PUSH1 0x0 PUSH2 0x289F DUP5 DUP3 DUP6 ADD PUSH2 0x25DD JUMP JUMPDEST SWAP2 POP POP SWAP3 SWAP2 POP POP JUMP JUMPDEST PUSH1 0x0 DUP1 PUSH1 0x40 DUP4 DUP6 SUB SLT ISZERO PUSH2 0x28BF JUMPI PUSH2 0x28BE PUSH2 0x35F6 JUMP JUMPDEST JUMPDEST PUSH1 0x0 PUSH2 0x28CD DUP6 DUP3 DUP7 ADD PUSH2 0x25C8 JUMP JUMPDEST SWAP3 POP POP PUSH1 0x20 PUSH2 0x28DE DUP6 DUP3 DUP7 ADD PUSH2 0x247E JUMP JUMPDEST SWAP2 POP POP SWAP3 POP SWAP3 SWAP1 POP JUMP JUMPDEST PUSH1 0x0 DUP1 PUSH1 0x0 DUP1 PUSH1 0x80 DUP6 DUP8 SUB SLT ISZERO PUSH2 0x2902 JUMPI PUSH2 0x2901 PUSH2 0x35F6 JUMP JUMPDEST JUMPDEST PUSH1 0x0 PUSH2 0x2910 DUP8 DUP3 DUP9 ADD PUSH2 0x25C8 JUMP JUMPDEST SWAP5 POP POP PUSH1 0x20 PUSH2 0x2921 DUP8 DUP3 DUP9 ADD PUSH2 0x247E JUMP JUMPDEST SWAP4 POP POP PUSH1 0x40 PUSH2 0x2932 DUP8 DUP3 DUP9 ADD PUSH2 0x25C8 JUMP JUMPDEST SWAP3 POP POP PUSH1 0x60 PUSH2 0x2943 DUP8 DUP3 DUP9 ADD PUSH2 0x25C8 JUMP JUMPDEST SWAP2 POP POP SWAP3 SWAP6 SWAP2 SWAP5 POP SWAP3 POP JUMP JUMPDEST PUSH1 0x0 DUP1 PUSH1 0x40 DUP4 DUP6 SUB SLT ISZERO PUSH2 0x2966 JUMPI PUSH2 0x2965 PUSH2 0x35F6 JUMP JUMPDEST JUMPDEST PUSH1 0x0 PUSH2 0x2974 DUP6 DUP3 DUP7 ADD PUSH2 0x25C8 JUMP JUMPDEST SWAP3 POP POP PUSH1 0x20 PUSH2 0x2985 DUP6 DUP3 DUP7 ADD PUSH2 0x25C8 JUMP JUMPDEST SWAP2 POP POP SWAP3 POP SWAP3 SWAP1 POP JUMP JUMPDEST PUSH1 0x0 DUP1 PUSH1 0x0 PUSH1 0x60 DUP5 DUP7 SUB SLT ISZERO PUSH2 0x29A8 JUMPI PUSH2 0x29A7 PUSH2 0x35F6 JUMP JUMPDEST JUMPDEST PUSH1 0x0 PUSH2 0x29B6 DUP7 DUP3 DUP8 ADD PUSH2 0x25C8 JUMP JUMPDEST SWAP4 POP POP PUSH1 0x20 PUSH2 0x29C7 DUP7 DUP3 DUP8 ADD PUSH2 0x25C8 JUMP JUMPDEST SWAP3 POP POP PUSH1 0x40 PUSH2 0x29D8 DUP7 DUP3 DUP8 ADD PUSH2 0x25C8 JUMP JUMPDEST SWAP2 POP POP SWAP3 POP SWAP3 POP SWAP3 JUMP JUMPDEST PUSH2 0x29EB DUP2 PUSH2 0x3489 JUMP JUMPDEST DUP3 MSTORE POP POP JUMP JUMPDEST PUSH2 0x29FA DUP2 PUSH2 0x349B JUMP JUMPDEST DUP3 MSTORE POP POP JUMP JUMPDEST PUSH2 0x2A09 DUP2 PUSH2 0x349B JUMP JUMPDEST DUP3 MSTORE POP POP JUMP JUMPDEST PUSH2 0x2A18 DUP2 PUSH2 0x34A7 JUMP JUMPDEST DUP3 MSTORE POP POP JUMP JUMPDEST PUSH2 0x2A27 DUP2 PUSH2 0x34B1 JUMP JUMPDEST DUP3 MSTORE POP POP JUMP JUMPDEST PUSH1 0x0 PUSH2 0x2A38 DUP3 PUSH2 0x33A7 JUMP JUMPDEST PUSH2 0x2A42 DUP2 DUP6 PUSH2 0x33CE JUMP JUMPDEST SWAP4 POP PUSH2 0x2A52 DUP2 DUP6 PUSH1 0x20 DUP7 ADD PUSH2 0x3516 JUMP JUMPDEST DUP1 DUP5 ADD SWAP2 POP POP SWAP3 SWAP2 POP POP JUMP JUMPDEST PUSH1 0x0 PUSH2 0x2A69 DUP3 PUSH2 0x33B2 JUMP JUMPDEST PUSH2 0x2A73 DUP2 DUP6 PUSH2 0x33D9 JUMP JUMPDEST SWAP4 POP PUSH2 0x2A83 DUP2 DUP6 PUSH1 0x20 DUP7 ADD PUSH2 0x3516 JUMP JUMPDEST PUSH2 0x2A8C DUP2 PUSH2 0x35FB JUMP JUMPDEST DUP5 ADD SWAP2 POP POP SWAP3 SWAP2 POP POP JUMP JUMPDEST PUSH1 0x0 PUSH2 0x2AA2 DUP3 PUSH2 0x33B2 JUMP JUMPDEST PUSH2 0x2AAC DUP2 DUP6 PUSH2 0x33EA JUMP JUMPDEST SWAP4 POP PUSH2 0x2ABC DUP2 DUP6 PUSH1 0x20 DUP7 ADD PUSH2 0x3516 JUMP JUMPDEST PUSH2 0x2AC5 DUP2 PUSH2 0x35FB JUMP JUMPDEST DUP5 ADD SWAP2 POP POP SWAP3 SWAP2 POP POP JUMP JUMPDEST PUSH1 0x0 PUSH2 0x2ADD PUSH1 0x23 DUP4 PUSH2 0x33EA JUMP JUMPDEST SWAP2 POP PUSH2 0x2AE8 DUP3 PUSH2 0x360C JUMP JUMPDEST PUSH1 0x40 DUP3 ADD SWAP1 POP SWAP2 SWAP1 POP JUMP JUMPDEST PUSH1 0x0 PUSH2 0x2B00 PUSH1 0x14 DUP4 PUSH2 0x33EA JUMP JUMPDEST SWAP2 POP PUSH2 0x2B0B DUP3 PUSH2 0x365B JUMP JUMPDEST PUSH1 0x20 DUP3 ADD SWAP1 POP SWAP2 SWAP1 POP JUMP JUMPDEST PUSH1 0x0 PUSH2 0x2B23 PUSH1 0x23 DUP4 PUSH2 0x33EA JUMP JUMPDEST SWAP2 POP PUSH2 0x2B2E DUP3 PUSH2 0x3684 JUMP JUMPDEST PUSH1 0x40 DUP3 ADD SWAP1 POP SWAP2 SWAP1 POP JUMP JUMPDEST PUSH1 0x0 PUSH2 0x2B46 PUSH1 0x1B DUP4 PUSH2 0x33EA JUMP JUMPDEST SWAP2 POP PUSH2 0x2B51 DUP3 PUSH2 0x36D3 JUMP JUMPDEST PUSH1 0x20 DUP3 ADD SWAP1 POP SWAP2 SWAP1 POP JUMP JUMPDEST PUSH1 0x0 PUSH2 0x2B69 PUSH1 0x26 DUP4 PUSH2 0x33EA JUMP JUMPDEST SWAP2 POP PUSH2 0x2B74 DUP3 PUSH2 0x36FC JUMP JUMPDEST PUSH1 0x40 DUP3 ADD SWAP1 POP SWAP2 SWAP1 POP JUMP JUMPDEST PUSH1 0x0 PUSH2 0x2B8C PUSH1 0x26 DUP4 PUSH2 0x33EA JUMP JUMPDEST SWAP2 POP PUSH2 0x2B97 DUP3 PUSH2 0x374B JUMP JUMPDEST PUSH1 0x40 DUP3 ADD SWAP1 POP SWAP2 SWAP1 POP JUMP JUMPDEST PUSH1 0x0 PUSH2 0x2BAF PUSH1 0x10 DUP4 PUSH2 0x33EA JUMP JUMPDEST SWAP2 POP PUSH2 0x2BBA DUP3 PUSH2 0x379A JUMP JUMPDEST PUSH1 0x20 DUP3 ADD SWAP1 POP SWAP2 SWAP1 POP JUMP JUMPDEST PUSH1 0x0 PUSH2 0x2BD2 PUSH1 0x1A DUP4 PUSH2 0x33EA JUMP JUMPDEST SWAP2 POP PUSH2 0x2BDD DUP3 PUSH2 0x37C3 JUMP JUMPDEST PUSH1 0x20 DUP3 ADD SWAP1 POP SWAP2 SWAP1 POP JUMP JUMPDEST PUSH1 0x0 PUSH2 0x2BF5 PUSH1 0x2E DUP4 PUSH2 0x33EA JUMP JUMPDEST SWAP2 POP PUSH2 0x2C00 DUP3 PUSH2 0x37EC JUMP JUMPDEST PUSH1 0x40 DUP3 ADD SWAP1 POP SWAP2 SWAP1 POP JUMP JUMPDEST PUSH1 0x0 PUSH2 0x2C18 PUSH1 0x20 DUP4 PUSH2 0x33EA JUMP JUMPDEST SWAP2 POP PUSH2 0x2C23 DUP3 PUSH2 0x383B JUMP JUMPDEST PUSH1 0x20 DUP3 ADD SWAP1 POP SWAP2 SWAP1 POP JUMP JUMPDEST PUSH1 0x0 PUSH2 0x2C3B PUSH1 0x26 DUP4 PUSH2 0x33EA JUMP JUMPDEST SWAP2 POP PUSH2 0x2C46 DUP3 PUSH2 0x3864 JUMP JUMPDEST PUSH1 0x40 DUP3 ADD SWAP1 POP SWAP2 SWAP1 POP JUMP JUMPDEST PUSH1 0x0 PUSH2 0x2C5E PUSH1 0x20 DUP4 PUSH2 0x33EA JUMP JUMPDEST SWAP2 POP PUSH2 0x2C69 DUP3 PUSH2 0x38B3 JUMP JUMPDEST PUSH1 0x20 DUP3 ADD SWAP1 POP SWAP2 SWAP1 POP JUMP JUMPDEST PUSH1 0x0 PUSH2 0x2C81 PUSH1 0x0 DUP4 PUSH2 0x33BD JUMP JUMPDEST SWAP2 POP PUSH2 0x2C8C DUP3 PUSH2 0x38DC JUMP JUMPDEST PUSH1 0x0 DUP3 ADD SWAP1 POP SWAP2 SWAP1 POP JUMP JUMPDEST PUSH1 0x0 PUSH2 0x2CA4 PUSH1 0x1D DUP4 PUSH2 0x33EA JUMP JUMPDEST SWAP2 POP PUSH2 0x2CAF DUP3 PUSH2 0x38DF JUMP JUMPDEST PUSH1 0x20 DUP3 ADD SWAP1 POP SWAP2 SWAP1 POP JUMP JUMPDEST PUSH1 0x0 PUSH2 0x2CC7 PUSH1 0x2A DUP4 PUSH2 0x33EA JUMP JUMPDEST SWAP2 POP PUSH2 0x2CD2 DUP3 PUSH2 0x3908 JUMP JUMPDEST PUSH1 0x40 DUP3 ADD SWAP1 POP SWAP2 SWAP1 POP JUMP JUMPDEST PUSH1 0x0 PUSH2 0x2CEA PUSH1 0x1D DUP4 PUSH2 0x33EA JUMP JUMPDEST SWAP2 POP PUSH2 0x2CF5 DUP3 PUSH2 0x3957 JUMP JUMPDEST PUSH1 0x20 DUP3 ADD SWAP1 POP SWAP2 SWAP1 POP JUMP JUMPDEST PUSH1 0x0 PUSH2 0x2D0D PUSH1 0x2A DUP4 PUSH2 0x33EA JUMP JUMPDEST SWAP2 POP PUSH2 0x2D18 DUP3 PUSH2 0x3980 JUMP JUMPDEST PUSH1 0x40 DUP3 ADD SWAP1 POP SWAP2 SWAP1 POP JUMP JUMPDEST PUSH1 0x0 PUSH2 0x2D30 PUSH1 0x1F DUP4 PUSH2 0x33EA JUMP JUMPDEST SWAP2 POP PUSH2 0x2D3B DUP3 PUSH2 0x39CF JUMP JUMPDEST PUSH1 0x20 DUP3 ADD SWAP1 POP SWAP2 SWAP1 POP JUMP JUMPDEST PUSH1 0x0 PUSH2 0x2D53 PUSH1 0x24 DUP4 PUSH2 0x33EA JUMP JUMPDEST SWAP2 POP PUSH2 0x2D5E DUP3 PUSH2 0x39F8 JUMP JUMPDEST PUSH1 0x40 DUP3 ADD SWAP1 POP SWAP2 SWAP1 POP JUMP JUMPDEST PUSH1 0x0 PUSH2 0x2D76 PUSH1 0x2E DUP4 PUSH2 0x33EA JUMP JUMPDEST SWAP2 POP PUSH2 0x2D81 DUP3 PUSH2 0x3A47 JUMP JUMPDEST PUSH1 0x40 DUP3 ADD SWAP1 POP SWAP2 SWAP1 POP JUMP JUMPDEST PUSH1 0x0 PUSH1 0x40 DUP4 ADD PUSH1 0x0 DUP4 ADD MLOAD DUP5 DUP3 SUB PUSH1 0x0 DUP7 ADD MSTORE PUSH2 0x2DA9 DUP3 DUP3 PUSH2 0x2A5E JUMP JUMPDEST SWAP2 POP POP PUSH1 0x20 DUP4 ADD MLOAD PUSH2 0x2DBE PUSH1 0x20 DUP7 ADD DUP3 PUSH2 0x29F1 JUMP JUMPDEST POP DUP1 SWAP2 POP POP SWAP3 SWAP2 POP POP JUMP JUMPDEST PUSH2 0x2DD2 DUP2 PUSH2 0x34FD JUMP JUMPDEST DUP3 MSTORE POP POP JUMP JUMPDEST PUSH1 0x0 PUSH2 0x2DE4 DUP3 DUP5 PUSH2 0x2A2D JUMP JUMPDEST SWAP2 POP DUP2 SWAP1 POP SWAP3 SWAP2 POP POP JUMP JUMPDEST PUSH1 0x0 PUSH1 0x20 DUP3 ADD SWAP1 POP PUSH2 0x2E04 PUSH1 0x0 DUP4 ADD DUP5 PUSH2 0x29E2 JUMP JUMPDEST SWAP3 SWAP2 POP POP JUMP JUMPDEST PUSH1 0x0 PUSH1 0x60 DUP3 ADD SWAP1 POP PUSH2 0x2E1F PUSH1 0x0 DUP4 ADD DUP7 PUSH2 0x29E2 JUMP JUMPDEST PUSH2 0x2E2C PUSH1 0x20 DUP4 ADD DUP6 PUSH2 0x29E2 JUMP JUMPDEST PUSH2 0x2E39 PUSH1 0x40 DUP4 ADD DUP5 PUSH2 0x2DC9 JUMP JUMPDEST SWAP5 SWAP4 POP POP POP POP JUMP JUMPDEST PUSH1 0x0 PUSH1 0x80 DUP3 ADD SWAP1 POP PUSH2 0x2E56 PUSH1 0x0 DUP4 ADD DUP8 PUSH2 0x29E2 JUMP JUMPDEST PUSH2 0x2E63 PUSH1 0x20 DUP4 ADD DUP7 PUSH2 0x29E2 JUMP JUMPDEST PUSH2 0x2E70 PUSH1 0x40 DUP4 ADD DUP6 PUSH2 0x2DC9 JUMP JUMPDEST PUSH2 0x2E7D PUSH1 0x60 DUP4 ADD DUP5 PUSH2 0x2DC9 JUMP JUMPDEST SWAP6 SWAP5 POP POP POP POP POP JUMP JUMPDEST PUSH1 0x0 PUSH1 0xA0 DUP3 ADD SWAP1 POP PUSH2 0x2E9B PUSH1 0x0 DUP4 ADD DUP8 PUSH2 0x29E2 JUMP JUMPDEST PUSH2 0x2EA8 PUSH1 0x20 DUP4 ADD DUP7 PUSH2 0x29E2 JUMP JUMPDEST PUSH2 0x2EB5 PUSH1 0x40 DUP4 ADD DUP6 PUSH2 0x2DC9 JUMP JUMPDEST PUSH2 0x2EC2 PUSH1 0x60 DUP4 ADD DUP5 PUSH2 0x2DC9 JUMP JUMPDEST DUP2 DUP2 SUB PUSH1 0x80 DUP4 ADD MSTORE PUSH2 0x2ED3 DUP2 PUSH2 0x2C74 JUMP JUMPDEST SWAP1 POP SWAP6 SWAP5 POP POP POP POP POP JUMP JUMPDEST PUSH1 0x0 PUSH1 0x40 DUP3 ADD SWAP1 POP PUSH2 0x2EF3 PUSH1 0x0 DUP4 ADD DUP6 PUSH2 0x29E2 JUMP JUMPDEST PUSH2 0x2F00 PUSH1 0x20 DUP4 ADD DUP5 PUSH2 0x2DC9 JUMP JUMPDEST SWAP4 SWAP3 POP POP POP JUMP JUMPDEST PUSH1 0x0 PUSH1 0x20 DUP3 ADD SWAP1 POP PUSH2 0x2F1C PUSH1 0x0 DUP4 ADD DUP5 PUSH2 0x2A00 JUMP JUMPDEST SWAP3 SWAP2 POP POP JUMP JUMPDEST PUSH1 0x0 PUSH1 0xA0 DUP3 ADD SWAP1 POP PUSH2 0x2F37 PUSH1 0x0 DUP4 ADD DUP9 PUSH2 0x2A00 JUMP JUMPDEST PUSH2 0x2F44 PUSH1 0x20 DUP4 ADD DUP8 PUSH2 0x2DC9 JUMP JUMPDEST PUSH2 0x2F51 PUSH1 0x40 DUP4 ADD DUP7 PUSH2 0x2DC9 JUMP JUMPDEST PUSH2 0x2F5E PUSH1 0x60 DUP4 ADD DUP6 PUSH2 0x2DC9 JUMP JUMPDEST PUSH2 0x2F6B PUSH1 0x80 DUP4 ADD DUP5 PUSH2 0x2DC9 JUMP JUMPDEST SWAP7 SWAP6 POP POP POP POP POP POP JUMP JUMPDEST PUSH1 0x0 PUSH1 0x40 DUP3 ADD SWAP1 POP PUSH2 0x2F8A PUSH1 0x0 DUP4 ADD DUP6 PUSH2 0x2A0F JUMP JUMPDEST PUSH2 0x2F97 PUSH1 0x20 DUP4 ADD DUP5 PUSH2 0x29E2 JUMP JUMPDEST SWAP4 SWAP3 POP POP POP JUMP JUMPDEST PUSH1 0x0 PUSH1 0x20 DUP3 ADD SWAP1 POP PUSH2 0x2FB3 PUSH1 0x0 DUP4 ADD DUP5 PUSH2 0x2A1E JUMP JUMPDEST SWAP3 SWAP2 POP POP JUMP JUMPDEST PUSH1 0x0 PUSH1 0x20 DUP3 ADD SWAP1 POP DUP2 DUP2 SUB PUSH1 0x0 DUP4 ADD MSTORE PUSH2 0x2FD3 DUP2 DUP5 PUSH2 0x2A97 JUMP JUMPDEST SWAP1 POP SWAP3 SWAP2 POP POP JUMP JUMPDEST PUSH1 0x0 PUSH1 0x20 DUP3 ADD SWAP1 POP DUP2 DUP2 SUB PUSH1 0x0 DUP4 ADD MSTORE PUSH2 0x2FF4 DUP2 PUSH2 0x2AD0 JUMP JUMPDEST SWAP1 POP SWAP2 SWAP1 POP JUMP JUMPDEST PUSH1 0x0 PUSH1 0x20 DUP3 ADD SWAP1 POP DUP2 DUP2 SUB PUSH1 0x0 DUP4 ADD MSTORE PUSH2 0x3014 DUP2 PUSH2 0x2AF3 JUMP JUMPDEST SWAP1 POP SWAP2 SWAP1 POP JUMP JUMPDEST PUSH1 0x0 PUSH1 0x20 DUP3 ADD SWAP1 POP DUP2 DUP2 SUB PUSH1 0x0 DUP4 ADD MSTORE PUSH2 0x3034 DUP2 PUSH2 0x2B16 JUMP JUMPDEST SWAP1 POP SWAP2 SWAP1 POP JUMP JUMPDEST PUSH1 0x0 PUSH1 0x20 DUP3 ADD SWAP1 POP DUP2 DUP2 SUB PUSH1 0x0 DUP4 ADD MSTORE PUSH2 0x3054 DUP2 PUSH2 0x2B39 JUMP JUMPDEST SWAP1 POP SWAP2 SWAP1 POP JUMP JUMPDEST PUSH1 0x0 PUSH1 0x20 DUP3 ADD SWAP1 POP DUP2 DUP2 SUB PUSH1 0x0 DUP4 ADD MSTORE PUSH2 0x3074 DUP2 PUSH2 0x2B5C JUMP JUMPDEST SWAP1 POP SWAP2 SWAP1 POP JUMP JUMPDEST PUSH1 0x0 PUSH1 0x20 DUP3 ADD SWAP1 POP DUP2 DUP2 SUB PUSH1 0x0 DUP4 ADD MSTORE PUSH2 0x3094 DUP2 PUSH2 0x2B7F JUMP JUMPDEST SWAP1 POP SWAP2 SWAP1 POP JUMP JUMPDEST PUSH1 0x0 PUSH1 0x20 DUP3 ADD SWAP1 POP DUP2 DUP2 SUB PUSH1 0x0 DUP4 ADD MSTORE PUSH2 0x30B4 DUP2 PUSH2 0x2BA2 JUMP JUMPDEST SWAP1 POP SWAP2 SWAP1 POP JUMP JUMPDEST PUSH1 0x0 PUSH1 0x20 DUP3 ADD SWAP1 POP DUP2 DUP2 SUB PUSH1 0x0 DUP4 ADD MSTORE PUSH2 0x30D4 DUP2 PUSH2 0x2BC5 JUMP JUMPDEST SWAP1 POP SWAP2 SWAP1 POP JUMP JUMPDEST PUSH1 0x0 PUSH1 0x20 DUP3 ADD SWAP1 POP DUP2 DUP2 SUB PUSH1 0x0 DUP4 ADD MSTORE PUSH2 0x30F4 DUP2 PUSH2 0x2BE8 JUMP JUMPDEST SWAP1 POP SWAP2 SWAP1 POP JUMP JUMPDEST PUSH1 0x0 PUSH1 0x20 DUP3 ADD SWAP1 POP DUP2 DUP2 SUB PUSH1 0x0 DUP4 ADD MSTORE PUSH2 0x3114 DUP2 PUSH2 0x2C0B JUMP JUMPDEST SWAP1 POP SWAP2 SWAP1 POP JUMP JUMPDEST PUSH1 0x0 PUSH1 0x20 DUP3 ADD SWAP1 POP DUP2 DUP2 SUB PUSH1 0x0 DUP4 ADD MSTORE PUSH2 0x3134 DUP2 PUSH2 0x2C2E JUMP JUMPDEST SWAP1 POP SWAP2 SWAP1 POP JUMP JUMPDEST PUSH1 0x0 PUSH1 0x20 DUP3 ADD SWAP1 POP DUP2 DUP2 SUB PUSH1 0x0 DUP4 ADD MSTORE PUSH2 0x3154 DUP2 PUSH2 0x2C51 JUMP JUMPDEST SWAP1 POP SWAP2 SWAP1 POP JUMP JUMPDEST PUSH1 0x0 PUSH1 0x20 DUP3 ADD SWAP1 POP DUP2 DUP2 SUB PUSH1 0x0 DUP4 ADD MSTORE PUSH2 0x3174 DUP2 PUSH2 0x2C97 JUMP JUMPDEST SWAP1 POP SWAP2 SWAP1 POP JUMP JUMPDEST PUSH1 0x0 PUSH1 0x20 DUP3 ADD SWAP1 POP DUP2 DUP2 SUB PUSH1 0x0 DUP4 ADD MSTORE PUSH2 0x3194 DUP2 PUSH2 0x2CBA JUMP JUMPDEST SWAP1 POP SWAP2 SWAP1 POP JUMP JUMPDEST PUSH1 0x0 PUSH1 0x20 DUP3 ADD SWAP1 POP DUP2 DUP2 SUB PUSH1 0x0 DUP4 ADD MSTORE PUSH2 0x31B4 DUP2 PUSH2 0x2CDD JUMP JUMPDEST SWAP1 POP SWAP2 SWAP1 POP JUMP JUMPDEST PUSH1 0x0 PUSH1 0x20 DUP3 ADD SWAP1 POP DUP2 DUP2 SUB PUSH1 0x0 DUP4 ADD MSTORE PUSH2 0x31D4 DUP2 PUSH2 0x2D00 JUMP JUMPDEST SWAP1 POP SWAP2 SWAP1 POP JUMP JUMPDEST PUSH1 0x0 PUSH1 0x20 DUP3 ADD SWAP1 POP DUP2 DUP2 SUB PUSH1 0x0 DUP4 ADD MSTORE PUSH2 0x31F4 DUP2 PUSH2 0x2D23 JUMP JUMPDEST SWAP1 POP SWAP2 SWAP1 POP JUMP JUMPDEST PUSH1 0x0 PUSH1 0x20 DUP3 ADD SWAP1 POP DUP2 DUP2 SUB PUSH1 0x0 DUP4 ADD MSTORE PUSH2 0x3214 DUP2 PUSH2 0x2D46 JUMP JUMPDEST SWAP1 POP SWAP2 SWAP1 POP JUMP JUMPDEST PUSH1 0x0 PUSH1 0x20 DUP3 ADD SWAP1 POP DUP2 DUP2 SUB PUSH1 0x0 DUP4 ADD MSTORE PUSH2 0x3234 DUP2 PUSH2 0x2D69 JUMP JUMPDEST SWAP1 POP SWAP2 SWAP1 POP JUMP JUMPDEST PUSH1 0x0 PUSH1 0x20 DUP3 ADD SWAP1 POP DUP2 DUP2 SUB PUSH1 0x0 DUP4 ADD MSTORE PUSH2 0x3255 DUP2 DUP5 PUSH2 0x2D8C JUMP JUMPDEST SWAP1 POP SWAP3 SWAP2 POP POP JUMP JUMPDEST PUSH1 0x0 PUSH1 0x40 DUP3 ADD SWAP1 POP PUSH2 0x3272 PUSH1 0x0 DUP4 ADD DUP6 PUSH2 0x2DC9 JUMP JUMPDEST PUSH2 0x327F PUSH1 0x20 DUP4 ADD DUP5 PUSH2 0x29E2 JUMP JUMPDEST SWAP4 SWAP3 POP POP POP JUMP JUMPDEST PUSH1 0x0 PUSH1 0x60 DUP3 ADD SWAP1 POP PUSH2 0x329B PUSH1 0x0 DUP4 ADD DUP7 PUSH2 0x2DC9 JUMP JUMPDEST PUSH2 0x32A8 PUSH1 0x20 DUP4 ADD DUP6 PUSH2 0x29E2 JUMP JUMPDEST PUSH2 0x32B5 PUSH1 0x40 DUP4 ADD DUP5 PUSH2 0x2DC9 JUMP JUMPDEST SWAP5 SWAP4 POP POP POP POP JUMP JUMPDEST PUSH1 0x0 PUSH1 0x60 DUP3 ADD SWAP1 POP PUSH2 0x32D2 PUSH1 0x0 DUP4 ADD DUP7 PUSH2 0x2DC9 JUMP JUMPDEST PUSH2 0x32DF PUSH1 0x20 DUP4 ADD DUP6 PUSH2 0x2DC9 JUMP JUMPDEST PUSH2 0x32EC PUSH1 0x40 DUP4 ADD DUP5 PUSH2 0x29E2 JUMP JUMPDEST SWAP5 SWAP4 POP POP POP POP JUMP JUMPDEST PUSH1 0x0 PUSH2 0x32FE PUSH2 0x330F JUMP JUMPDEST SWAP1 POP PUSH2 0x330A DUP3 DUP3 PUSH2 0x3549 JUMP JUMPDEST SWAP2 SWAP1 POP JUMP JUMPDEST PUSH1 0x0 PUSH1 0x40 MLOAD SWAP1 POP SWAP1 JUMP JUMPDEST PUSH1 0x0 PUSH8 0xFFFFFFFFFFFFFFFF DUP3 GT ISZERO PUSH2 0x3334 JUMPI PUSH2 0x3333 PUSH2 0x35A9 JUMP JUMPDEST JUMPDEST PUSH1 0x20 DUP3 MUL SWAP1 POP PUSH1 0x20 DUP2 ADD SWAP1 POP SWAP2 SWAP1 POP JUMP JUMPDEST PUSH1 0x0 PUSH8 0xFFFFFFFFFFFFFFFF DUP3 GT ISZERO PUSH2 0x3360 JUMPI PUSH2 0x335F PUSH2 0x35A9 JUMP JUMPDEST JUMPDEST PUSH2 0x3369 DUP3 PUSH2 0x35FB JUMP JUMPDEST SWAP1 POP PUSH1 0x20 DUP2 ADD SWAP1 POP SWAP2 SWAP1 POP JUMP JUMPDEST PUSH1 0x0 PUSH8 0xFFFFFFFFFFFFFFFF DUP3 GT ISZERO PUSH2 0x3391 JUMPI PUSH2 0x3390 PUSH2 0x35A9 JUMP JUMPDEST JUMPDEST PUSH2 0x339A DUP3 PUSH2 0x35FB JUMP JUMPDEST SWAP1 POP PUSH1 0x20 DUP2 ADD SWAP1 POP SWAP2 SWAP1 POP JUMP JUMPDEST PUSH1 0x0 DUP2 MLOAD SWAP1 POP SWAP2 SWAP1 POP JUMP JUMPDEST PUSH1 0x0 DUP2 MLOAD SWAP1 POP SWAP2 SWAP1 POP JUMP JUMPDEST PUSH1 0x0 DUP3 DUP3 MSTORE PUSH1 0x20 DUP3 ADD SWAP1 POP SWAP3 SWAP2 POP POP JUMP JUMPDEST PUSH1 0x0 DUP2 SWAP1 POP SWAP3 SWAP2 POP POP JUMP JUMPDEST PUSH1 0x0 DUP3 DUP3 MSTORE PUSH1 0x20 DUP3 ADD SWAP1 POP SWAP3 SWAP2 POP POP JUMP JUMPDEST PUSH1 0x0 DUP3 DUP3 MSTORE PUSH1 0x20 DUP3 ADD SWAP1 POP SWAP3 SWAP2 POP POP JUMP JUMPDEST PUSH1 0x0 PUSH2 0x3406 DUP3 PUSH2 0x34FD JUMP JUMPDEST SWAP2 POP PUSH2 0x3411 DUP4 PUSH2 0x34FD JUMP JUMPDEST SWAP3 POP DUP2 PUSH32 0xFFFFFFFFFFFFFFFFFFFFFFFFFFFFFFFFFFFFFFFFFFFFFFFFFFFFFFFFFFFFFFFF DIV DUP4 GT DUP3 ISZERO ISZERO AND ISZERO PUSH2 0x344A JUMPI PUSH2 0x3449 PUSH2 0x357A JUMP JUMPDEST JUMPDEST DUP3 DUP3 MUL SWAP1 POP SWAP3 SWAP2 POP POP JUMP JUMPDEST PUSH1 0x0 PUSH2 0x3460 DUP3 PUSH2 0x34FD JUMP JUMPDEST SWAP2 POP PUSH2 0x346B DUP4 PUSH2 0x34FD JUMP JUMPDEST SWAP3 POP DUP3 DUP3 LT ISZERO PUSH2 0x347E JUMPI PUSH2 0x347D PUSH2 0x357A JUMP JUMPDEST JUMPDEST DUP3 DUP3 SUB SWAP1 POP SWAP3 SWAP2 POP POP JUMP JUMPDEST PUSH1 0x0 PUSH2 0x3494 DUP3 PUSH2 0x34DD JUMP JUMPDEST SWAP1 POP SWAP2 SWAP1 POP JUMP JUMPDEST PUSH1 0x0 DUP2 ISZERO ISZERO SWAP1 POP SWAP2 SWAP1 POP JUMP JUMPDEST PUSH1 0x0 DUP2 SWAP1 POP SWAP2 SWAP1 POP JUMP JUMPDEST PUSH1 0x0 PUSH32 0xFFFFFFFF00000000000000000000000000000000000000000000000000000000 DUP3 AND SWAP1 POP SWAP2 SWAP1 POP JUMP JUMPDEST PUSH1 0x0 PUSH20 0xFFFFFFFFFFFFFFFFFFFFFFFFFFFFFFFFFFFFFFFF DUP3 AND SWAP1 POP SWAP2 SWAP1 POP JUMP JUMPDEST PUSH1 0x0 DUP2 SWAP1 POP SWAP2 SWAP1 POP JUMP JUMPDEST DUP3 DUP2 DUP4 CALLDATACOPY PUSH1 0x0 DUP4 DUP4 ADD MSTORE POP POP POP JUMP JUMPDEST PUSH1 0x0 JUMPDEST DUP4 DUP2 LT ISZERO PUSH2 0x3534 JUMPI DUP1 DUP3 ADD MLOAD DUP2 DUP5 ADD MSTORE PUSH1 0x20 DUP2 ADD SWAP1 POP PUSH2 0x3519 JUMP JUMPDEST DUP4 DUP2 GT ISZERO PUSH2 0x3543 JUMPI PUSH1 0x0 DUP5 DUP5 ADD MSTORE JUMPDEST POP POP POP POP JUMP JUMPDEST PUSH2 0x3552 DUP3 PUSH2 0x35FB JUMP JUMPDEST DUP2 ADD DUP2 DUP2 LT PUSH8 0xFFFFFFFFFFFFFFFF DUP3 GT OR ISZERO PUSH2 0x3571 JUMPI PUSH2 0x3570 PUSH2 0x35A9 JUMP JUMPDEST JUMPDEST DUP1 PUSH1 0x40 MSTORE POP POP POP JUMP JUMPDEST PUSH32 0x4E487B7100000000000000000000000000000000000000000000000000000000 PUSH1 0x0 MSTORE PUSH1 0x11 PUSH1 0x4 MSTORE PUSH1 0x24 PUSH1 0x0 REVERT JUMPDEST PUSH32 0x4E487B7100000000000000000000000000000000000000000000000000000000 PUSH1 0x0 MSTORE PUSH1 0x41 PUSH1 0x4 MSTORE PUSH1 0x24 PUSH1 0x0 REVERT JUMPDEST PUSH1 0x0 DUP1 REVERT JUMPDEST PUSH1 0x0 DUP1 REVERT JUMPDEST PUSH1 0x0 DUP1 REVERT JUMPDEST PUSH1 0x0 DUP1 REVERT JUMPDEST PUSH1 0x0 DUP1 REVERT JUMPDEST PUSH1 0x0 DUP1 REVERT JUMPDEST PUSH1 0x0 DUP1 REVERT JUMPDEST PUSH1 0x0 PUSH1 0x1F NOT PUSH1 0x1F DUP4 ADD AND SWAP1 POP SWAP2 SWAP1 POP JUMP JUMPDEST PUSH32 0x4D61726B6574706C6163653A207072696365206D757374206E6F74206265207A PUSH1 0x0 DUP3 ADD MSTORE PUSH32 0x65726F0000000000000000000000000000000000000000000000000000000000 PUSH1 0x20 DUP3 ADD MSTORE POP JUMP JUMPDEST PUSH32 0x5061757361626C653A206E6F7420706175736564000000000000000000000000 PUSH1 0x0 DUP3 ADD MSTORE POP JUMP JUMPDEST PUSH32 0x4D61726B6574706C6163653A204974656D20697320616C7265616479206C6973 PUSH1 0x0 DUP3 ADD MSTORE PUSH32 0x7465640000000000000000000000000000000000000000000000000000000000 PUSH1 0x20 DUP3 ADD MSTORE POP JUMP JUMPDEST PUSH32 0x4D61726B6574706C6163653A20616D6F756E74206973207A65726F0000000000 PUSH1 0x0 DUP3 ADD MSTORE POP JUMP JUMPDEST PUSH32 0x4F776E61626C653A206E6577206F776E657220697320746865207A65726F2061 PUSH1 0x0 DUP3 ADD MSTORE PUSH32 0x6464726573730000000000000000000000000000000000000000000000000000 PUSH1 0x20 DUP3 ADD MSTORE POP JUMP JUMPDEST PUSH32 0x416464726573733A20696E73756666696369656E742062616C616E636520666F PUSH1 0x0 DUP3 ADD MSTORE PUSH32 0x722063616C6C0000000000000000000000000000000000000000000000000000 PUSH1 0x20 DUP3 ADD MSTORE POP JUMP JUMPDEST PUSH32 0x5061757361626C653A2070617573656400000000000000000000000000000000 PUSH1 0x0 DUP3 ADD MSTORE POP JUMP JUMPDEST PUSH32 0x4D61726B6574706C6163653A207072696365206973207A65726F000000000000 PUSH1 0x0 DUP3 ADD MSTORE POP JUMP JUMPDEST PUSH32 0x4D61726B6574706C6163653A204F6E6C792061646D696E2063616E2063616C6C PUSH1 0x0 DUP3 ADD MSTORE PUSH32 0x20746869732066756E6374696F6E000000000000000000000000000000000000 PUSH1 0x20 DUP3 ADD MSTORE POP JUMP JUMPDEST PUSH32 0x4F776E61626C653A2063616C6C6572206973206E6F7420746865206F776E6572 PUSH1 0x0 DUP3 ADD MSTORE POP JUMP JUMPDEST PUSH32 0x4D61726B6574706C6163653A204E6F7420656E6F75676820616D6F756E742074 PUSH1 0x0 DUP3 ADD MSTORE PUSH32 0x6F2073656C6C0000000000000000000000000000000000000000000000000000 PUSH1 0x20 DUP3 ADD MSTORE POP JUMP JUMPDEST PUSH32 0x4D61726B6574706C6163653A20696E76616C6964207472616465207072696365 PUSH1 0x0 DUP3 ADD MSTORE POP JUMP JUMPDEST POP JUMP JUMPDEST PUSH32 0x416464726573733A2063616C6C20746F206E6F6E2D636F6E7472616374000000 PUSH1 0x0 DUP3 ADD MSTORE POP JUMP JUMPDEST PUSH32 0x4D61726B6574706C6163653A2053616C6520696E616374697665206F7220616C PUSH1 0x0 DUP3 ADD MSTORE PUSH32 0x726561647920736F6C6400000000000000000000000000000000000000000000 PUSH1 0x20 DUP3 ADD MSTORE POP JUMP JUMPDEST PUSH32 0x4D61726B6574706C6163653A206F776E65722063616E6E6F7420627579000000 PUSH1 0x0 DUP3 ADD MSTORE POP JUMP JUMPDEST PUSH32 0x5361666545524332303A204552433230206F7065726174696F6E20646964206E PUSH1 0x0 DUP3 ADD MSTORE PUSH32 0x6F74207375636365656400000000000000000000000000000000000000000000 PUSH1 0x20 DUP3 ADD MSTORE POP JUMP JUMPDEST PUSH32 0x5265656E7472616E637947756172643A207265656E7472616E742063616C6C00 PUSH1 0x0 DUP3 ADD MSTORE POP JUMP JUMPDEST PUSH32 0x4D61726B6574706C6163653A20616D6F756E74206D757374206E6F7420626520 PUSH1 0x0 DUP3 ADD MSTORE PUSH32 0x7A65726F00000000000000000000000000000000000000000000000000000000 PUSH1 0x20 DUP3 ADD MSTORE POP JUMP JUMPDEST PUSH32 0x4D61726B6574706C6163653A2042616C616E6365206F66206974656D73206C65 PUSH1 0x0 DUP3 ADD MSTORE PUSH32 0x7373207468616E20616D6F756E74000000000000000000000000000000000000 PUSH1 0x20 DUP3 ADD MSTORE POP JUMP JUMPDEST PUSH2 0x3A9F DUP2 PUSH2 0x3489 JUMP JUMPDEST DUP2 EQ PUSH2 0x3AAA JUMPI PUSH1 0x0 DUP1 REVERT JUMPDEST POP JUMP JUMPDEST PUSH2 0x3AB6 DUP2 PUSH2 0x349B JUMP JUMPDEST DUP2 EQ PUSH2 0x3AC1 JUMPI PUSH1 0x0 DUP1 REVERT JUMPDEST POP JUMP JUMPDEST PUSH2 0x3ACD DUP2 PUSH2 0x34B1 JUMP JUMPDEST DUP2 EQ PUSH2 0x3AD8 JUMPI PUSH1 0x0 DUP1 REVERT JUMPDEST POP JUMP JUMPDEST PUSH2 0x3AE4 DUP2 PUSH2 0x34FD JUMP JUMPDEST DUP2 EQ PUSH2 0x3AEF JUMPI PUSH1 0x0 DUP1 REVERT JUMPDEST POP JUMP INVALID LOG2 PUSH5 0x6970667358 0x22 SLT KECCAK256 MOD 0xE9 0x4D 0xE6 0xC4 GASPRICE 0xBE MLOAD NOT JUMPI MSTORE GASPRICE DELEGATECALL DIV CALLVALUE RETURN 0xC DUP9 COINBASE 0xAF 0xAB 0xB3 0xDE SWAP1 0xB1 SLOAD EXTCODESIZE OR CREATE 0xDE PUSH30 0x8864736F6C63430008070033000000000000000000000000000000000000 "
				},
				"gasEstimates": {
					"creation": {
						"codeDepositCost": "3028800",
						"executionCost": "infinite",
						"totalCost": "infinite"
					},
					"external": {
						"UITNFT()": "infinite",
						"UITToken()": "infinite",
						"accessControl()": "2560",
						"buy(uint256,address,uint256,uint256)": "infinite",
						"createAndListNFT((string,bool),uint256,uint256)": "infinite",
						"deList(uint256)": "infinite",
						"itemsForSale(uint256,address)": "infinite",
						"list(uint256,uint256,uint256)": "infinite",
						"onERC1155BatchReceived(address,address,uint256[],uint256[],bytes)": "infinite",
						"onERC1155Received(address,address,uint256,uint256,bytes)": "infinite",
						"owner()": "2661",
						"pause()": "infinite",
						"paused()": "2568",
						"renounceOwnership()": "30547",
						"setAccessControl(address)": "27080",
						"supportsInterface(bytes4)": "751",
						"transferOwnership(address)": "30983",
						"unpause()": "infinite",
						"updateAmountNFT(uint256,uint256)": "infinite",
						"updatePrice(uint256,uint256)": "infinite"
					}
				},
				"methodIdentifiers": {
					"UITNFT()": "3b88699b",
					"UITToken()": "2fe7a96d",
					"accessControl()": "13007d55",
					"buy(uint256,address,uint256,uint256)": "706910ff",
					"createAndListNFT((string,bool),uint256,uint256)": "cb361428",
					"deList(uint256)": "43be2d03",
					"itemsForSale(uint256,address)": "b46878ca",
					"list(uint256,uint256,uint256)": "19aeb490",
					"onERC1155BatchReceived(address,address,uint256[],uint256[],bytes)": "bc197c81",
					"onERC1155Received(address,address,uint256,uint256,bytes)": "f23a6e61",
					"owner()": "8da5cb5b",
					"pause()": "8456cb59",
					"paused()": "5c975abb",
					"renounceOwnership()": "715018a6",
					"setAccessControl(address)": "19129e5a",
					"supportsInterface(bytes4)": "01ffc9a7",
					"transferOwnership(address)": "f2fde38b",
					"unpause()": "3f4ba83a",
					"updateAmountNFT(uint256,uint256)": "c1f7f0f5",
					"updatePrice(uint256,uint256)": "82367b2d"
				}
			},
			"userdoc": {
				"kind": "user",
				"methods": {
					"buy(uint256,address,uint256,uint256)": {
						"notice": "USER"
					},
					"createAndListNFT((string,bool),uint256,uint256)": {
						"notice": "ADMIN"
					},
					"deList(uint256)": {
						"notice": "USER"
					},
					"list(uint256,uint256,uint256)": {
						"notice": "USER"
					},
					"updateAmountNFT(uint256,uint256)": {
						"notice": "ADMIN"
					},
					"updatePrice(uint256,uint256)": {
						"notice": "USER, ADMIN"
					}
				},
				"version": 1
			}
		}
	}
}