{
	"contracts/studentmanager/SubjectContract.sol": {
		"SubjectContract": {
			"abi": [
				{
					"inputs": [
						{
							"internalType": "address",
							"name": "_owner",
							"type": "address"
						},
						{
							"internalType": "address",
							"name": "_accessControll",
							"type": "address"
						}
					],
					"stateMutability": "nonpayable",
					"type": "constructor"
				},
				{
					"anonymous": false,
					"inputs": [
						{
							"indexed": false,
							"internalType": "uint256",
							"name": "timestamp",
							"type": "uint256"
						}
					],
					"name": "Close",
					"type": "event"
				},
				{
					"anonymous": false,
					"inputs": [
						{
							"indexed": false,
							"internalType": "uint256",
							"name": "studentslength",
							"type": "uint256"
						},
						{
							"indexed": false,
							"internalType": "uint256",
							"name": "timestamp",
							"type": "uint256"
						}
					],
					"name": "Confirm",
					"type": "event"
				},
				{
					"anonymous": false,
					"inputs": [
						{
							"indexed": true,
							"internalType": "uint256",
							"name": "id",
							"type": "uint256"
						}
					],
					"name": "CreatedNewSubject",
					"type": "event"
				},
				{
					"anonymous": false,
					"inputs": [
						{
							"indexed": false,
							"internalType": "address",
							"name": "student",
							"type": "address"
						},
						{
							"indexed": false,
							"internalType": "uint256",
							"name": "timestamp",
							"type": "uint256"
						}
					],
					"name": "UnConfirm",
					"type": "event"
				},
				{
					"inputs": [],
					"name": "UITToken",
					"outputs": [
						{
							"internalType": "address",
							"name": "",
							"type": "address"
						}
					],
					"stateMutability": "view",
					"type": "function"
				},
				{
					"inputs": [],
					"name": "accessControll",
					"outputs": [
						{
							"internalType": "contract IAccessControl",
							"name": "",
							"type": "address"
						}
					],
					"stateMutability": "view",
					"type": "function"
				},
				{
					"inputs": [
						{
							"internalType": "address[]",
							"name": "_students",
							"type": "address[]"
						}
					],
					"name": "addStudentToSubject",
					"outputs": [],
					"stateMutability": "nonpayable",
					"type": "function"
				},
				{
					"inputs": [
						{
							"internalType": "address",
							"name": "",
							"type": "address"
						}
					],
					"name": "addressToStudent",
					"outputs": [
						{
							"internalType": "address",
							"name": "studentAddress",
							"type": "address"
						},
						{
							"internalType": "bool",
							"name": "participantToTrue",
							"type": "bool"
						}
					],
					"stateMutability": "view",
					"type": "function"
				},
				{
					"inputs": [],
					"name": "amount",
					"outputs": [
						{
							"internalType": "uint256",
							"name": "",
							"type": "uint256"
						}
					],
					"stateMutability": "view",
					"type": "function"
				},
				{
					"inputs": [],
					"name": "cancelRegister",
					"outputs": [],
					"stateMutability": "nonpayable",
					"type": "function"
				},
				{
					"inputs": [],
					"name": "close",
					"outputs": [],
					"stateMutability": "nonpayable",
					"type": "function"
				},
				{
					"inputs": [
						{
							"internalType": "address",
							"name": "",
							"type": "address"
						}
					],
					"name": "completedAddress",
					"outputs": [
						{
							"internalType": "bool",
							"name": "",
							"type": "bool"
						}
					],
					"stateMutability": "view",
					"type": "function"
				},
				{
					"inputs": [
						{
							"internalType": "address[]",
							"name": "_student",
							"type": "address[]"
						}
					],
					"name": "confirmCompletedAddress",
					"outputs": [],
					"stateMutability": "nonpayable",
					"type": "function"
				},
				{
					"inputs": [],
					"name": "getParticipantList",
					"outputs": [
						{
							"internalType": "address[]",
							"name": "",
							"type": "address[]"
						}
					],
					"stateMutability": "view",
					"type": "function"
				},
				{
					"inputs": [],
					"name": "getParticipantListCompleted",
					"outputs": [
						{
							"internalType": "address[]",
							"name": "",
							"type": "address[]"
						}
					],
					"stateMutability": "view",
					"type": "function"
				},
				{
					"inputs": [],
					"name": "owner",
					"outputs": [
						{
							"internalType": "address",
							"name": "",
							"type": "address"
						}
					],
					"stateMutability": "view",
					"type": "function"
				},
				{
					"inputs": [],
					"name": "register",
					"outputs": [],
					"stateMutability": "nonpayable",
					"type": "function"
				},
				{
					"inputs": [
						{
							"internalType": "uint256",
							"name": "_subjectId",
							"type": "uint256"
						},
						{
							"internalType": "string",
							"name": "_urlMetadata",
							"type": "string"
						},
						{
							"internalType": "uint256",
							"name": "_maxEntrant",
							"type": "uint256"
						},
						{
							"internalType": "address",
							"name": "_persionInCharge",
							"type": "address"
						},
						{
							"internalType": "uint256",
							"name": "_startTime",
							"type": "uint256"
						},
						{
							"internalType": "uint256",
							"name": "_endTimeToRegister",
							"type": "uint256"
						},
						{
							"internalType": "uint256",
							"name": "_endTime",
							"type": "uint256"
						},
						{
							"internalType": "uint256",
							"name": "_endTimeToConfirm",
							"type": "uint256"
						}
					],
					"name": "setBasicForSubject",
					"outputs": [],
					"stateMutability": "nonpayable",
					"type": "function"
				},
				{
					"inputs": [],
					"name": "start",
					"outputs": [],
					"stateMutability": "nonpayable",
					"type": "function"
				},
				{
					"inputs": [],
					"name": "status",
					"outputs": [
						{
							"internalType": "enum ISubjectContract.Status",
							"name": "",
							"type": "uint8"
						}
					],
					"stateMutability": "view",
					"type": "function"
				},
				{
					"inputs": [
						{
							"internalType": "uint256",
							"name": "",
							"type": "uint256"
						}
					],
					"name": "student",
					"outputs": [
						{
							"internalType": "address",
							"name": "",
							"type": "address"
						}
					],
					"stateMutability": "view",
					"type": "function"
				},
				{
					"inputs": [],
					"name": "subject",
					"outputs": [
						{
							"internalType": "uint256",
							"name": "Id",
							"type": "uint256"
						},
						{
							"internalType": "string",
							"name": "urlMetadata",
							"type": "string"
						},
						{
							"internalType": "uint256",
							"name": "maxEntrant",
							"type": "uint256"
						},
						{
							"internalType": "address",
							"name": "personInCharge",
							"type": "address"
						},
						{
							"internalType": "uint256",
							"name": "startTime",
							"type": "uint256"
						},
						{
							"internalType": "uint256",
							"name": "endTimeToRegister",
							"type": "uint256"
						},
						{
							"internalType": "uint256",
							"name": "endTime",
							"type": "uint256"
						},
						{
							"internalType": "uint256",
							"name": "endTimeToConfirm",
							"type": "uint256"
						}
					],
					"stateMutability": "view",
					"type": "function"
				}
			],
			"devdoc": {
				"kind": "dev",
				"methods": {},
				"version": 1
			},
			"evm": {
				"assembly": "    /* \"contracts/studentmanager/SubjectContract.sol\":157:6996  contract SubjectContract is ISubjectContract {\r... */\n  mstore(0x40, 0xa0)\n    /* \"contracts/studentmanager/SubjectContract.sol\":331:342  Status.Lock */\n  0x00\n    /* \"contracts/studentmanager/SubjectContract.sol\":308:342  Status public status = Status.Lock */\n  0x08\n  exp(0x0100, 0x00)\n  dup2\n  sload\n  dup2\n  0xff\n  mul\n  not\n  and\n  swap1\n  dup4\n  0x02\n  dup2\n  gt\n  iszero\n  tag_1\n  jumpi\n  tag_2\n  tag_3\n  jump\t// in\ntag_2:\ntag_1:\n  mul\n  or\n  swap1\n  sstore\n  pop\n    /* \"contracts/studentmanager/SubjectContract.sol\":1463:1608  constructor(address _owner, address _accessControll) {\r... */\n  callvalue\n  dup1\n  iszero\n  tag_4\n  jumpi\n  0x00\n  dup1\n  revert\ntag_4:\n  pop\n  mload(0x40)\n  sub(codesize, bytecodeSize)\n  dup1\n  bytecodeSize\n  dup4\n  codecopy\n  dup2\n  dup2\n  add\n  0x40\n  mstore\n  dup2\n  add\n  swap1\n  tag_5\n  swap2\n  swap1\n  tag_6\n  jump\t// in\ntag_5:\n    /* \"contracts/studentmanager/SubjectContract.sol\":1535:1541  _owner */\n  dup2\n    /* \"contracts/studentmanager/SubjectContract.sol\":1527:1541  owner = _owner */\n  0xffffffffffffffffffffffffffffffffffffffff\n  and\n  0x80\n  dup2\n  0xffffffffffffffffffffffffffffffffffffffff\n  and\n  0x60\n  shl\n  dup2\n  mstore\n  pop\n  pop\n    /* \"contracts/studentmanager/SubjectContract.sol\":1584:1599  _accessControll */\n  dup1\n    /* \"contracts/studentmanager/SubjectContract.sol\":1552:1566  accessControll */\n  0x09\n  0x00\n    /* \"contracts/studentmanager/SubjectContract.sol\":1552:1600  accessControll = IAccessControl(_accessControll) */\n  0x0100\n  exp\n  dup2\n  sload\n  dup2\n  0xffffffffffffffffffffffffffffffffffffffff\n  mul\n  not\n  and\n  swap1\n  dup4\n  0xffffffffffffffffffffffffffffffffffffffff\n  and\n  mul\n  or\n  swap1\n  sstore\n  pop\n    /* \"contracts/studentmanager/SubjectContract.sol\":1463:1608  constructor(address _owner, address _accessControll) {\r... */\n  pop\n  pop\n    /* \"contracts/studentmanager/SubjectContract.sol\":157:6996  contract SubjectContract is ISubjectContract {\r... */\n  jump(tag_9)\n    /* \"#utility.yul\":7:150   */\ntag_11:\n    /* \"#utility.yul\":64:69   */\n  0x00\n    /* \"#utility.yul\":95:101   */\n  dup2\n    /* \"#utility.yul\":89:102   */\n  mload\n    /* \"#utility.yul\":80:102   */\n  swap1\n  pop\n    /* \"#utility.yul\":111:144   */\n  tag_13\n    /* \"#utility.yul\":138:143   */\n  dup2\n    /* \"#utility.yul\":111:144   */\n  tag_14\n  jump\t// in\ntag_13:\n    /* \"#utility.yul\":7:150   */\n  swap3\n  swap2\n  pop\n  pop\n  jump\t// out\n    /* \"#utility.yul\":156:663   */\ntag_6:\n    /* \"#utility.yul\":235:241   */\n  0x00\n    /* \"#utility.yul\":243:249   */\n  dup1\n    /* \"#utility.yul\":292:294   */\n  0x40\n    /* \"#utility.yul\":280:289   */\n  dup4\n    /* \"#utility.yul\":271:278   */\n  dup6\n    /* \"#utility.yul\":267:290   */\n  sub\n    /* \"#utility.yul\":263:295   */\n  slt\n    /* \"#utility.yul\":260:379   */\n  iszero\n  tag_16\n  jumpi\n    /* \"#utility.yul\":298:377   */\n  tag_17\n  tag_18\n  jump\t// in\ntag_17:\n    /* \"#utility.yul\":260:379   */\ntag_16:\n    /* \"#utility.yul\":418:419   */\n  0x00\n    /* \"#utility.yul\":443:507   */\n  tag_19\n    /* \"#utility.yul\":499:506   */\n  dup6\n    /* \"#utility.yul\":490:496   */\n  dup3\n    /* \"#utility.yul\":479:488   */\n  dup7\n    /* \"#utility.yul\":475:497   */\n  add\n    /* \"#utility.yul\":443:507   */\n  tag_11\n  jump\t// in\ntag_19:\n    /* \"#utility.yul\":433:507   */\n  swap3\n  pop\n    /* \"#utility.yul\":389:517   */\n  pop\n    /* \"#utility.yul\":556:558   */\n  0x20\n    /* \"#utility.yul\":582:646   */\n  tag_20\n    /* \"#utility.yul\":638:645   */\n  dup6\n    /* \"#utility.yul\":629:635   */\n  dup3\n    /* \"#utility.yul\":618:627   */\n  dup7\n    /* \"#utility.yul\":614:636   */\n  add\n    /* \"#utility.yul\":582:646   */\n  tag_11\n  jump\t// in\ntag_20:\n    /* \"#utility.yul\":572:646   */\n  swap2\n  pop\n    /* \"#utility.yul\":527:656   */\n  pop\n    /* \"#utility.yul\":156:663   */\n  swap3\n  pop\n  swap3\n  swap1\n  pop\n  jump\t// out\n    /* \"#utility.yul\":750:846   */\ntag_23:\n    /* \"#utility.yul\":787:794   */\n  0x00\n    /* \"#utility.yul\":816:840   */\n  tag_25\n    /* \"#utility.yul\":834:839   */\n  dup3\n    /* \"#utility.yul\":816:840   */\n  tag_26\n  jump\t// in\ntag_25:\n    /* \"#utility.yul\":805:840   */\n  swap1\n  pop\n    /* \"#utility.yul\":750:846   */\n  swap2\n  swap1\n  pop\n  jump\t// out\n    /* \"#utility.yul\":852:978   */\ntag_26:\n    /* \"#utility.yul\":889:896   */\n  0x00\n    /* \"#utility.yul\":929:971   */\n  0xffffffffffffffffffffffffffffffffffffffff\n    /* \"#utility.yul\":922:927   */\n  dup3\n    /* \"#utility.yul\":918:972   */\n  and\n    /* \"#utility.yul\":907:972   */\n  swap1\n  pop\n    /* \"#utility.yul\":852:978   */\n  swap2\n  swap1\n  pop\n  jump\t// out\n    /* \"#utility.yul\":984:1164   */\ntag_3:\n    /* \"#utility.yul\":1032:1109   */\n  0x4e487b7100000000000000000000000000000000000000000000000000000000\n    /* \"#utility.yul\":1029:1030   */\n  0x00\n    /* \"#utility.yul\":1022:1110   */\n  mstore\n    /* \"#utility.yul\":1129:1133   */\n  0x21\n    /* \"#utility.yul\":1126:1127   */\n  0x04\n    /* \"#utility.yul\":1119:1134   */\n  mstore\n    /* \"#utility.yul\":1153:1157   */\n  0x24\n    /* \"#utility.yul\":1150:1151   */\n  0x00\n    /* \"#utility.yul\":1143:1158   */\n  revert\n    /* \"#utility.yul\":1293:1410   */\ntag_18:\n    /* \"#utility.yul\":1402:1403   */\n  0x00\n    /* \"#utility.yul\":1399:1400   */\n  dup1\n    /* \"#utility.yul\":1392:1404   */\n  revert\n    /* \"#utility.yul\":1416:1538   */\ntag_14:\n    /* \"#utility.yul\":1489:1513   */\n  tag_33\n    /* \"#utility.yul\":1507:1512   */\n  dup2\n    /* \"#utility.yul\":1489:1513   */\n  tag_23\n  jump\t// in\ntag_33:\n    /* \"#utility.yul\":1482:1487   */\n  dup2\n    /* \"#utility.yul\":1479:1514   */\n  eq\n    /* \"#utility.yul\":1469:1532   */\n  tag_34\n  jumpi\n    /* \"#utility.yul\":1528:1529   */\n  0x00\n    /* \"#utility.yul\":1525:1526   */\n  dup1\n    /* \"#utility.yul\":1518:1530   */\n  revert\n    /* \"#utility.yul\":1469:1532   */\ntag_34:\n    /* \"#utility.yul\":1416:1538   */\n  pop\n  jump\t// out\n    /* \"contracts/studentmanager/SubjectContract.sol\":157:6996  contract SubjectContract is ISubjectContract {\r... */\ntag_9:\n  shr(0x60, mload(0x80))\n  codecopy(0x00, dataOffset(sub_0), dataSize(sub_0))\n  0x00\n  assignImmutable(\"0x1bd24dd6132ee48d988d9af2a2861e14cfa127f735144972abbc68ba40aae435\")\n  return(0x00, dataSize(sub_0))\nstop\n\nsub_0: assembly {\n        /* \"contracts/studentmanager/SubjectContract.sol\":157:6996  contract SubjectContract is ISubjectContract {\r... */\n      mstore(0x40, 0x80)\n      callvalue\n      dup1\n      iszero\n      tag_1\n      jumpi\n      0x00\n      dup1\n      revert\n    tag_1:\n      pop\n      jumpi(tag_2, lt(calldatasize, 0x04))\n      shr(0xe0, calldataload(0x00))\n      dup1\n      0x98754710\n      gt\n      tag_21\n      jumpi\n      dup1\n      0xaa4936ce\n      gt\n      tag_22\n      jumpi\n      dup1\n      0xaa4936ce\n      eq\n      tag_16\n      jumpi\n      dup1\n      0xaa8c217c\n      eq\n      tag_17\n      jumpi\n      dup1\n      0xbe9a6555\n      eq\n      tag_18\n      jumpi\n      dup1\n      0xd16e57fe\n      eq\n      tag_19\n      jumpi\n      dup1\n      0xed214fff\n      eq\n      tag_20\n      jumpi\n      jump(tag_2)\n    tag_22:\n      dup1\n      0x98754710\n      eq\n      tag_12\n      jumpi\n      dup1\n      0xa32fb342\n      eq\n      tag_13\n      jumpi\n      dup1\n      0xa53dc8d2\n      eq\n      tag_14\n      jumpi\n      dup1\n      0xa7f44e0d\n      eq\n      tag_15\n      jumpi\n      jump(tag_2)\n    tag_21:\n      dup1\n      0x35955121\n      gt\n      tag_23\n      jumpi\n      dup1\n      0x35955121\n      eq\n      tag_7\n      jumpi\n      dup1\n      0x35f34232\n      eq\n      tag_8\n      jumpi\n      dup1\n      0x43d726d6\n      eq\n      tag_9\n      jumpi\n      dup1\n      0x49aa7033\n      eq\n      tag_10\n      jumpi\n      dup1\n      0x8da5cb5b\n      eq\n      tag_11\n      jumpi\n      jump(tag_2)\n    tag_23:\n      dup1\n      0x0a59a98c\n      eq\n      tag_3\n      jumpi\n      dup1\n      0x1aa3a008\n      eq\n      tag_4\n      jumpi\n      dup1\n      0x200d2ed2\n      eq\n      tag_5\n      jumpi\n      dup1\n      0x2fe7a96d\n      eq\n      tag_6\n      jumpi\n    tag_2:\n      0x00\n      dup1\n      revert\n        /* \"contracts/studentmanager/SubjectContract.sol\":279:301  Subject public subject */\n    tag_3:\n      tag_24\n      tag_25\n      jump\t// in\n    tag_24:\n      mload(0x40)\n      tag_26\n      swap9\n      swap8\n      swap7\n      swap6\n      swap5\n      swap4\n      swap3\n      swap2\n      swap1\n      tag_27\n      jump\t// in\n    tag_26:\n      mload(0x40)\n      dup1\n      swap2\n      sub\n      swap1\n      return\n        /* \"contracts/studentmanager/SubjectContract.sol\":3486:3580  function register() external onlyOpen onlyRoleStudent {\r... */\n    tag_4:\n      tag_28\n      tag_29\n      jump\t// in\n    tag_28:\n      stop\n        /* \"contracts/studentmanager/SubjectContract.sol\":308:342  Status public status = Status.Lock */\n    tag_5:\n      tag_30\n      tag_31\n      jump\t// in\n    tag_30:\n      mload(0x40)\n      tag_32\n      swap2\n      swap1\n      tag_33\n      jump\t// in\n    tag_32:\n      mload(0x40)\n      dup1\n      swap2\n      sub\n      swap1\n      return\n        /* \"contracts/studentmanager/SubjectContract.sol\":351:374  address public UITToken */\n    tag_6:\n      tag_34\n      tag_35\n      jump\t// in\n    tag_34:\n      mload(0x40)\n      tag_36\n      swap2\n      swap1\n      tag_37\n      jump\t// in\n    tag_36:\n      mload(0x40)\n      dup1\n      swap2\n      sub\n      swap1\n      return\n        /* \"contracts/studentmanager/SubjectContract.sol\":2983:3478  function addStudentToSubject(address[] calldata _students)\r... */\n    tag_7:\n      tag_38\n      0x04\n      dup1\n      calldatasize\n      sub\n      dup2\n      add\n      swap1\n      tag_39\n      swap2\n      swap1\n      tag_40\n      jump\t// in\n    tag_39:\n      tag_41\n      jump\t// in\n    tag_38:\n      stop\n        /* \"contracts/studentmanager/SubjectContract.sol\":426:450  address[] public student */\n    tag_8:\n      tag_42\n      0x04\n      dup1\n      calldatasize\n      sub\n      dup2\n      add\n      swap1\n      tag_43\n      swap2\n      swap1\n      tag_44\n      jump\t// in\n    tag_43:\n      tag_45\n      jump\t// in\n    tag_42:\n      mload(0x40)\n      tag_46\n      swap2\n      swap1\n      tag_37\n      jump\t// in\n    tag_46:\n      mload(0x40)\n      dup1\n      swap2\n      sub\n      swap1\n      return\n        /* \"contracts/studentmanager/SubjectContract.sol\":5329:5512  function close() external override onlyOwner {\r... */\n    tag_9:\n      tag_47\n      tag_48\n      jump\t// in\n    tag_47:\n      stop\n        /* \"contracts/studentmanager/SubjectContract.sol\":4215:4479  function cancelRegister() external onlyOpen onlyRoleStudent {\r... */\n    tag_10:\n      tag_49\n      tag_50\n      jump\t// in\n    tag_49:\n      stop\n        /* \"contracts/studentmanager/SubjectContract.sol\":242:272  address public immutable owner */\n    tag_11:\n      tag_51\n      tag_52\n      jump\t// in\n    tag_51:\n      mload(0x40)\n      tag_53\n      swap2\n      swap1\n      tag_37\n      jump\t// in\n    tag_53:\n      mload(0x40)\n      dup1\n      swap2\n      sub\n      swap1\n      return\n        /* \"contracts/studentmanager/SubjectContract.sol\":457:508  mapping(address => Student) public addressToStudent */\n    tag_12:\n      tag_54\n      0x04\n      dup1\n      calldatasize\n      sub\n      dup2\n      add\n      swap1\n      tag_55\n      swap2\n      swap1\n      tag_56\n      jump\t// in\n    tag_55:\n      tag_57\n      jump\t// in\n    tag_54:\n      mload(0x40)\n      tag_58\n      swap3\n      swap2\n      swap1\n      tag_59\n      jump\t// in\n    tag_58:\n      mload(0x40)\n      dup1\n      swap2\n      sub\n      swap1\n      return\n        /* \"contracts/studentmanager/SubjectContract.sol\":610:658  mapping(address => bool) public completedAddress */\n    tag_13:\n      tag_60\n      0x04\n      dup1\n      calldatasize\n      sub\n      dup2\n      add\n      swap1\n      tag_61\n      swap2\n      swap1\n      tag_56\n      jump\t// in\n    tag_61:\n      tag_62\n      jump\t// in\n    tag_60:\n      mload(0x40)\n      tag_63\n      swap2\n      swap1\n      tag_64\n      jump\t// in\n    tag_63:\n      mload(0x40)\n      dup1\n      swap2\n      sub\n      swap1\n      return\n        /* \"contracts/studentmanager/SubjectContract.sol\":1616:2478  function setBasicForSubject(\r... */\n    tag_14:\n      tag_65\n      0x04\n      dup1\n      calldatasize\n      sub\n      dup2\n      add\n      swap1\n      tag_66\n      swap2\n      swap1\n      tag_67\n      jump\t// in\n    tag_66:\n      tag_68\n      jump\t// in\n    tag_65:\n      stop\n        /* \"contracts/studentmanager/SubjectContract.sol\":6030:6488  function getParticipantListCompleted()\r... */\n    tag_15:\n      tag_69\n      tag_70\n      jump\t// in\n    tag_69:\n      mload(0x40)\n      tag_71\n      swap2\n      swap1\n      tag_72\n      jump\t// in\n    tag_71:\n      mload(0x40)\n      dup1\n      swap2\n      sub\n      swap1\n      return\n        /* \"contracts/studentmanager/SubjectContract.sol\":381:417  IAccessControl public accessControll */\n    tag_16:\n      tag_73\n      tag_74\n      jump\t// in\n    tag_73:\n      mload(0x40)\n      tag_75\n      swap2\n      swap1\n      tag_76\n      jump\t// in\n    tag_75:\n      mload(0x40)\n      dup1\n      swap2\n      sub\n      swap1\n      return\n        /* \"contracts/studentmanager/SubjectContract.sol\":582:603  uint256 public amount */\n    tag_17:\n      tag_77\n      tag_78\n      jump\t// in\n    tag_77:\n      mload(0x40)\n      tag_79\n      swap2\n      swap1\n      tag_80\n      jump\t// in\n    tag_79:\n      mload(0x40)\n      dup1\n      swap2\n      sub\n      swap1\n      return\n        /* \"contracts/studentmanager/SubjectContract.sol\":2891:2975  function start() external override onlyOwner {\r... */\n    tag_18:\n      tag_81\n      tag_82\n      jump\t// in\n    tag_81:\n      stop\n        /* \"contracts/studentmanager/SubjectContract.sol\":4487:5321  function confirmCompletedAddress(\r... */\n    tag_19:\n      tag_83\n      0x04\n      dup1\n      calldatasize\n      sub\n      dup2\n      add\n      swap1\n      tag_84\n      swap2\n      swap1\n      tag_40\n      jump\t// in\n    tag_84:\n      tag_85\n      jump\t// in\n    tag_83:\n      stop\n        /* \"contracts/studentmanager/SubjectContract.sol\":5520:6022  function getParticipantList() public view returns (address[] memory) {\r... */\n    tag_20:\n      tag_86\n      tag_87\n      jump\t// in\n    tag_86:\n      mload(0x40)\n      tag_88\n      swap2\n      swap1\n      tag_72\n      jump\t// in\n    tag_88:\n      mload(0x40)\n      dup1\n      swap2\n      sub\n      swap1\n      return\n        /* \"contracts/studentmanager/SubjectContract.sol\":279:301  Subject public subject */\n    tag_25:\n      0x00\n      dup1\n      0x00\n      add\n      sload\n      swap1\n      dup1\n      0x01\n      add\n      dup1\n      sload\n      tag_89\n      swap1\n      tag_90\n      jump\t// in\n    tag_89:\n      dup1\n      0x1f\n      add\n      0x20\n      dup1\n      swap2\n      div\n      mul\n      0x20\n      add\n      mload(0x40)\n      swap1\n      dup2\n      add\n      0x40\n      mstore\n      dup1\n      swap3\n      swap2\n      swap1\n      dup2\n      dup2\n      mstore\n      0x20\n      add\n      dup3\n      dup1\n      sload\n      tag_91\n      swap1\n      tag_90\n      jump\t// in\n    tag_91:\n      dup1\n      iszero\n      tag_92\n      jumpi\n      dup1\n      0x1f\n      lt\n      tag_93\n      jumpi\n      0x0100\n      dup1\n      dup4\n      sload\n      div\n      mul\n      dup4\n      mstore\n      swap2\n      0x20\n      add\n      swap2\n      jump(tag_92)\n    tag_93:\n      dup3\n      add\n      swap2\n      swap1\n      0x00\n      mstore\n      keccak256(0x00, 0x20)\n      swap1\n    tag_94:\n      dup2\n      sload\n      dup2\n      mstore\n      swap1\n      0x01\n      add\n      swap1\n      0x20\n      add\n      dup1\n      dup4\n      gt\n      tag_94\n      jumpi\n      dup3\n      swap1\n      sub\n      0x1f\n      and\n      dup3\n      add\n      swap2\n    tag_92:\n      pop\n      pop\n      pop\n      pop\n      pop\n      swap1\n      dup1\n      0x02\n      add\n      sload\n      swap1\n      dup1\n      0x03\n      add\n      0x00\n      swap1\n      sload\n      swap1\n      0x0100\n      exp\n      swap1\n      div\n      0xffffffffffffffffffffffffffffffffffffffff\n      and\n      swap1\n      dup1\n      0x04\n      add\n      sload\n      swap1\n      dup1\n      0x05\n      add\n      sload\n      swap1\n      dup1\n      0x06\n      add\n      sload\n      swap1\n      dup1\n      0x07\n      add\n      sload\n      swap1\n      pop\n      dup9\n      jump\t// out\n        /* \"contracts/studentmanager/SubjectContract.sol\":3486:3580  function register() external onlyOpen onlyRoleStudent {\r... */\n    tag_29:\n        /* \"contracts/studentmanager/SubjectContract.sol\":925:936  Status.Open */\n      0x01\n        /* \"contracts/studentmanager/SubjectContract.sol\":915:936  status == Status.Open */\n      0x02\n      dup2\n      gt\n      iszero\n      tag_96\n      jumpi\n      tag_97\n      tag_98\n      jump\t// in\n    tag_97:\n    tag_96:\n        /* \"contracts/studentmanager/SubjectContract.sol\":915:921  status */\n      0x08\n      0x00\n      swap1\n      sload\n      swap1\n      0x0100\n      exp\n      swap1\n      div\n      0xff\n      and\n        /* \"contracts/studentmanager/SubjectContract.sol\":915:936  status == Status.Open */\n      0x02\n      dup2\n      gt\n      iszero\n      tag_99\n      jumpi\n      tag_100\n      tag_98\n      jump\t// in\n    tag_100:\n    tag_99:\n      eq\n        /* \"contracts/studentmanager/SubjectContract.sol\":907:954  require(status == Status.Open, \"SC: Only Open\") */\n      tag_101\n      jumpi\n      mload(0x40)\n      0x08c379a000000000000000000000000000000000000000000000000000000000\n      dup2\n      mstore\n      0x04\n      add\n      tag_102\n      swap1\n      tag_103\n      jump\t// in\n    tag_102:\n      mload(0x40)\n      dup1\n      swap2\n      sub\n      swap1\n      revert\n    tag_101:\n        /* \"contracts/studentmanager/SubjectContract.sol\":1335:1349  accessControll */\n      0x09\n      0x00\n      swap1\n      sload\n      swap1\n      0x0100\n      exp\n      swap1\n      div\n      0xffffffffffffffffffffffffffffffffffffffff\n      and\n        /* \"contracts/studentmanager/SubjectContract.sol\":1335:1357  accessControll.hasRole */\n      0xffffffffffffffffffffffffffffffffffffffff\n      and\n      0x91d14854\n        /* \"contracts/studentmanager/SubjectContract.sol\":1358:1378  keccak256(\"STUDENT\") */\n      0xc951d7098b66ba0b8b77265b6e9cf0e187d73125a42bcd0061b09a68be421810\n        /* \"contracts/studentmanager/SubjectContract.sol\":1380:1390  msg.sender */\n      caller\n        /* \"contracts/studentmanager/SubjectContract.sol\":1335:1391  accessControll.hasRole(keccak256(\"STUDENT\"), msg.sender) */\n      mload(0x40)\n      dup4\n      0xffffffff\n      and\n      0xe0\n      shl\n      dup2\n      mstore\n      0x04\n      add\n      tag_105\n      swap3\n      swap2\n      swap1\n      tag_106\n      jump\t// in\n    tag_105:\n      0x20\n      mload(0x40)\n      dup1\n      dup4\n      sub\n      dup2\n      dup7\n      dup1\n      extcodesize\n      iszero\n      dup1\n      iszero\n      tag_107\n      jumpi\n      0x00\n      dup1\n      revert\n    tag_107:\n      pop\n      gas\n      staticcall\n      iszero\n      dup1\n      iszero\n      tag_109\n      jumpi\n      returndatasize\n      0x00\n      dup1\n      returndatacopy\n      revert(0x00, returndatasize)\n    tag_109:\n      pop\n      pop\n      pop\n      pop\n      mload(0x40)\n      returndatasize\n      not(0x1f)\n      0x1f\n      dup3\n      add\n      and\n      dup3\n      add\n      dup1\n      0x40\n      mstore\n      pop\n      dup2\n      add\n      swap1\n      tag_110\n      swap2\n      swap1\n      tag_111\n      jump\t// in\n    tag_110:\n        /* \"contracts/studentmanager/SubjectContract.sol\":1313:1435  require(\r... */\n      tag_112\n      jumpi\n      mload(0x40)\n      0x08c379a000000000000000000000000000000000000000000000000000000000\n      dup2\n      mstore\n      0x04\n      add\n      tag_113\n      swap1\n      tag_114\n      jump\t// in\n    tag_113:\n      mload(0x40)\n      dup1\n      swap2\n      sub\n      swap1\n      revert\n    tag_112:\n        /* \"contracts/studentmanager/SubjectContract.sol\":3551:3572  _register(msg.sender) */\n      tag_116\n        /* \"contracts/studentmanager/SubjectContract.sol\":3561:3571  msg.sender */\n      caller\n        /* \"contracts/studentmanager/SubjectContract.sol\":3551:3560  _register */\n      tag_117\n        /* \"contracts/studentmanager/SubjectContract.sol\":3551:3572  _register(msg.sender) */\n      jump\t// in\n    tag_116:\n        /* \"contracts/studentmanager/SubjectContract.sol\":3486:3580  function register() external onlyOpen onlyRoleStudent {\r... */\n      jump\t// out\n        /* \"contracts/studentmanager/SubjectContract.sol\":308:342  Status public status = Status.Lock */\n    tag_31:\n      0x08\n      0x00\n      swap1\n      sload\n      swap1\n      0x0100\n      exp\n      swap1\n      div\n      0xff\n      and\n      dup2\n      jump\t// out\n        /* \"contracts/studentmanager/SubjectContract.sol\":351:374  address public UITToken */\n    tag_35:\n      0x08\n      0x01\n      swap1\n      sload\n      swap1\n      0x0100\n      exp\n      swap1\n      div\n      0xffffffffffffffffffffffffffffffffffffffff\n      and\n      dup2\n      jump\t// out\n        /* \"contracts/studentmanager/SubjectContract.sol\":2983:3478  function addStudentToSubject(address[] calldata _students)\r... */\n    tag_41:\n        /* \"contracts/studentmanager/SubjectContract.sol\":1145:1159  accessControll */\n      0x09\n      0x00\n      swap1\n      sload\n      swap1\n      0x0100\n      exp\n      swap1\n      div\n      0xffffffffffffffffffffffffffffffffffffffff\n      and\n        /* \"contracts/studentmanager/SubjectContract.sol\":1145:1167  accessControll.hasRole */\n      0xffffffffffffffffffffffffffffffffffffffff\n      and\n      0x91d14854\n        /* \"contracts/studentmanager/SubjectContract.sol\":1168:1189  keccak256(\"LECTURER\") */\n      0xb39b9469ac3ddf8d58f06201f7e17350a277b429ed2a39727bf2f3a5165dba1a\n        /* \"contracts/studentmanager/SubjectContract.sol\":1191:1201  msg.sender */\n      caller\n        /* \"contracts/studentmanager/SubjectContract.sol\":1145:1202  accessControll.hasRole(keccak256(\"LECTURER\"), msg.sender) */\n      mload(0x40)\n      dup4\n      0xffffffff\n      and\n      0xe0\n      shl\n      dup2\n      mstore\n      0x04\n      add\n      tag_119\n      swap3\n      swap2\n      swap1\n      tag_106\n      jump\t// in\n    tag_119:\n      0x20\n      mload(0x40)\n      dup1\n      dup4\n      sub\n      dup2\n      dup7\n      dup1\n      extcodesize\n      iszero\n      dup1\n      iszero\n      tag_120\n      jumpi\n      0x00\n      dup1\n      revert\n    tag_120:\n      pop\n      gas\n      staticcall\n      iszero\n      dup1\n      iszero\n      tag_122\n      jumpi\n      returndatasize\n      0x00\n      dup1\n      returndatacopy\n      revert(0x00, returndatasize)\n    tag_122:\n      pop\n      pop\n      pop\n      pop\n      mload(0x40)\n      returndatasize\n      not(0x1f)\n      0x1f\n      dup3\n      add\n      and\n      dup3\n      add\n      dup1\n      0x40\n      mstore\n      pop\n      dup2\n      add\n      swap1\n      tag_123\n      swap2\n      swap1\n      tag_111\n      jump\t// in\n    tag_123:\n        /* \"contracts/studentmanager/SubjectContract.sol\":1123:1247  require(\r... */\n      tag_124\n      jumpi\n      mload(0x40)\n      0x08c379a000000000000000000000000000000000000000000000000000000000\n      dup2\n      mstore\n      0x04\n      add\n      tag_125\n      swap1\n      tag_126\n      jump\t// in\n    tag_125:\n      mload(0x40)\n      dup1\n      swap2\n      sub\n      swap1\n      revert\n    tag_124:\n        /* \"contracts/studentmanager/SubjectContract.sol\":925:936  Status.Open */\n      0x01\n        /* \"contracts/studentmanager/SubjectContract.sol\":915:936  status == Status.Open */\n      0x02\n      dup2\n      gt\n      iszero\n      tag_128\n      jumpi\n      tag_129\n      tag_98\n      jump\t// in\n    tag_129:\n    tag_128:\n        /* \"contracts/studentmanager/SubjectContract.sol\":915:921  status */\n      0x08\n      0x00\n      swap1\n      sload\n      swap1\n      0x0100\n      exp\n      swap1\n      div\n      0xff\n      and\n        /* \"contracts/studentmanager/SubjectContract.sol\":915:936  status == Status.Open */\n      0x02\n      dup2\n      gt\n      iszero\n      tag_130\n      jumpi\n      tag_131\n      tag_98\n      jump\t// in\n    tag_131:\n    tag_130:\n      eq\n        /* \"contracts/studentmanager/SubjectContract.sol\":907:954  require(status == Status.Open, \"SC: Only Open\") */\n      tag_132\n      jumpi\n      mload(0x40)\n      0x08c379a000000000000000000000000000000000000000000000000000000000\n      dup2\n      mstore\n      0x04\n      add\n      tag_133\n      swap1\n      tag_103\n      jump\t// in\n    tag_133:\n      mload(0x40)\n      dup1\n      swap2\n      sub\n      swap1\n      revert\n    tag_132:\n        /* \"contracts/studentmanager/SubjectContract.sol\":3174:3181  subject */\n      0x00\n        /* \"contracts/studentmanager/SubjectContract.sol\":3174:3196  subject.personInCharge */\n      0x03\n      add\n      0x00\n      swap1\n      sload\n      swap1\n      0x0100\n      exp\n      swap1\n      div\n      0xffffffffffffffffffffffffffffffffffffffff\n      and\n        /* \"contracts/studentmanager/SubjectContract.sol\":3160:3196  msg.sender == subject.personInCharge */\n      0xffffffffffffffffffffffffffffffffffffffff\n      and\n        /* \"contracts/studentmanager/SubjectContract.sol\":3160:3170  msg.sender */\n      caller\n        /* \"contracts/studentmanager/SubjectContract.sol\":3160:3196  msg.sender == subject.personInCharge */\n      0xffffffffffffffffffffffffffffffffffffffff\n      and\n      eq\n        /* \"contracts/studentmanager/SubjectContract.sol\":3138:3253  require(\r... */\n      tag_135\n      jumpi\n      mload(0x40)\n      0x08c379a000000000000000000000000000000000000000000000000000000000\n      dup2\n      mstore\n      0x04\n      add\n      tag_136\n      swap1\n      tag_137\n      jump\t// in\n    tag_136:\n      mload(0x40)\n      dup1\n      swap2\n      sub\n      swap1\n      revert\n    tag_135:\n        /* \"contracts/studentmanager/SubjectContract.sol\":3269:3278  uint256 i */\n      0x00\n        /* \"contracts/studentmanager/SubjectContract.sol\":3264:3471  for (uint256 i = 0; i < _students.length; i++) {\r... */\n    tag_138:\n        /* \"contracts/studentmanager/SubjectContract.sol\":3288:3297  _students */\n      dup3\n      dup3\n        /* \"contracts/studentmanager/SubjectContract.sol\":3288:3304  _students.length */\n      swap1\n      pop\n        /* \"contracts/studentmanager/SubjectContract.sol\":3284:3285  i */\n      dup2\n        /* \"contracts/studentmanager/SubjectContract.sol\":3284:3304  i < _students.length */\n      lt\n        /* \"contracts/studentmanager/SubjectContract.sol\":3264:3471  for (uint256 i = 0; i < _students.length; i++) {\r... */\n      iszero\n      tag_139\n      jumpi\n        /* \"contracts/studentmanager/SubjectContract.sol\":3335:3349  accessControll */\n      0x09\n      0x00\n      swap1\n      sload\n      swap1\n      0x0100\n      exp\n      swap1\n      div\n      0xffffffffffffffffffffffffffffffffffffffff\n      and\n        /* \"contracts/studentmanager/SubjectContract.sol\":3335:3357  accessControll.hasRole */\n      0xffffffffffffffffffffffffffffffffffffffff\n      and\n      0x91d14854\n        /* \"contracts/studentmanager/SubjectContract.sol\":3358:3378  keccak256(\"STUDENT\") */\n      0xc951d7098b66ba0b8b77265b6e9cf0e187d73125a42bcd0061b09a68be421810\n        /* \"contracts/studentmanager/SubjectContract.sol\":3380:3389  _students */\n      dup6\n      dup6\n        /* \"contracts/studentmanager/SubjectContract.sol\":3390:3391  i */\n      dup6\n        /* \"contracts/studentmanager/SubjectContract.sol\":3380:3392  _students[i] */\n      dup2\n      dup2\n      lt\n      tag_141\n      jumpi\n      tag_142\n      tag_143\n      jump\t// in\n    tag_142:\n    tag_141:\n      swap1\n      pop\n      0x20\n      mul\n      add\n      0x20\n      dup2\n      add\n      swap1\n      tag_144\n      swap2\n      swap1\n      tag_56\n      jump\t// in\n    tag_144:\n        /* \"contracts/studentmanager/SubjectContract.sol\":3335:3393  accessControll.hasRole(keccak256(\"STUDENT\"), _students[i]) */\n      mload(0x40)\n      dup4\n      0xffffffff\n      and\n      0xe0\n      shl\n      dup2\n      mstore\n      0x04\n      add\n      tag_145\n      swap3\n      swap2\n      swap1\n      tag_106\n      jump\t// in\n    tag_145:\n      0x20\n      mload(0x40)\n      dup1\n      dup4\n      sub\n      dup2\n      dup7\n      dup1\n      extcodesize\n      iszero\n      dup1\n      iszero\n      tag_146\n      jumpi\n      0x00\n      dup1\n      revert\n    tag_146:\n      pop\n      gas\n      staticcall\n      iszero\n      dup1\n      iszero\n      tag_148\n      jumpi\n      returndatasize\n      0x00\n      dup1\n      returndatacopy\n      revert(0x00, returndatasize)\n    tag_148:\n      pop\n      pop\n      pop\n      pop\n      mload(0x40)\n      returndatasize\n      not(0x1f)\n      0x1f\n      dup3\n      add\n      and\n      dup3\n      add\n      dup1\n      0x40\n      mstore\n      pop\n      dup2\n      add\n      swap1\n      tag_149\n      swap2\n      swap1\n      tag_111\n      jump\t// in\n    tag_149:\n        /* \"contracts/studentmanager/SubjectContract.sol\":3327:3421  require(accessControll.hasRole(keccak256(\"STUDENT\"), _students[i]), \"Should only add student\") */\n      tag_150\n      jumpi\n      mload(0x40)\n      0x08c379a000000000000000000000000000000000000000000000000000000000\n      dup2\n      mstore\n      0x04\n      add\n      tag_151\n      swap1\n      tag_152\n      jump\t// in\n    tag_151:\n      mload(0x40)\n      dup1\n      swap2\n      sub\n      swap1\n      revert\n    tag_150:\n        /* \"contracts/studentmanager/SubjectContract.sol\":3436:3459  _register(_students[i]) */\n      tag_153\n        /* \"contracts/studentmanager/SubjectContract.sol\":3446:3455  _students */\n      dup4\n      dup4\n        /* \"contracts/studentmanager/SubjectContract.sol\":3456:3457  i */\n      dup4\n        /* \"contracts/studentmanager/SubjectContract.sol\":3446:3458  _students[i] */\n      dup2\n      dup2\n      lt\n      tag_154\n      jumpi\n      tag_155\n      tag_143\n      jump\t// in\n    tag_155:\n    tag_154:\n      swap1\n      pop\n      0x20\n      mul\n      add\n      0x20\n      dup2\n      add\n      swap1\n      tag_156\n      swap2\n      swap1\n      tag_56\n      jump\t// in\n    tag_156:\n        /* \"contracts/studentmanager/SubjectContract.sol\":3436:3445  _register */\n      tag_117\n        /* \"contracts/studentmanager/SubjectContract.sol\":3436:3459  _register(_students[i]) */\n      jump\t// in\n    tag_153:\n        /* \"contracts/studentmanager/SubjectContract.sol\":3306:3309  i++ */\n      dup1\n      dup1\n      tag_157\n      swap1\n      tag_158\n      jump\t// in\n    tag_157:\n      swap2\n      pop\n      pop\n        /* \"contracts/studentmanager/SubjectContract.sol\":3264:3471  for (uint256 i = 0; i < _students.length; i++) {\r... */\n      jump(tag_138)\n    tag_139:\n      pop\n        /* \"contracts/studentmanager/SubjectContract.sol\":2983:3478  function addStudentToSubject(address[] calldata _students)\r... */\n      pop\n      pop\n      jump\t// out\n        /* \"contracts/studentmanager/SubjectContract.sol\":426:450  address[] public student */\n    tag_45:\n      0x0a\n      dup2\n      dup2\n      sload\n      dup2\n      lt\n      tag_159\n      jumpi\n      0x00\n      dup1\n      revert\n    tag_159:\n      swap1\n      0x00\n      mstore\n      keccak256(0x00, 0x20)\n      add\n      0x00\n      swap2\n      pop\n      sload\n      swap1\n      0x0100\n      exp\n      swap1\n      div\n      0xffffffffffffffffffffffffffffffffffffffff\n      and\n      dup2\n      jump\t// out\n        /* \"contracts/studentmanager/SubjectContract.sol\":5329:5512  function close() external override onlyOwner {\r... */\n    tag_48:\n        /* \"contracts/studentmanager/SubjectContract.sol\":1036:1041  owner */\n      immutable(\"0x1bd24dd6132ee48d988d9af2a2861e14cfa127f735144972abbc68ba40aae435\")\n        /* \"contracts/studentmanager/SubjectContract.sol\":1022:1041  msg.sender == owner */\n      0xffffffffffffffffffffffffffffffffffffffff\n      and\n        /* \"contracts/studentmanager/SubjectContract.sol\":1022:1032  msg.sender */\n      caller\n        /* \"contracts/studentmanager/SubjectContract.sol\":1022:1041  msg.sender == owner */\n      0xffffffffffffffffffffffffffffffffffffffff\n      and\n      eq\n        /* \"contracts/studentmanager/SubjectContract.sol\":1014:1056  require(msg.sender == owner, \"Only owner\") */\n      tag_162\n      jumpi\n      mload(0x40)\n      0x08c379a000000000000000000000000000000000000000000000000000000000\n      dup2\n      mstore\n      0x04\n      add\n      tag_163\n      swap1\n      tag_164\n      jump\t// in\n    tag_163:\n      mload(0x40)\n      dup1\n      swap2\n      sub\n      swap1\n      revert\n    tag_162:\n        /* \"contracts/studentmanager/SubjectContract.sol\":5394:5406  Status.Close */\n      0x02\n        /* \"contracts/studentmanager/SubjectContract.sol\":5385:5391  status */\n      0x08\n      0x00\n        /* \"contracts/studentmanager/SubjectContract.sol\":5385:5406  status = Status.Close */\n      0x0100\n      exp\n      dup2\n      sload\n      dup2\n      0xff\n      mul\n      not\n      and\n      swap1\n      dup4\n      0x02\n      dup2\n      gt\n      iszero\n      tag_166\n      jumpi\n      tag_167\n      tag_98\n      jump\t// in\n    tag_167:\n    tag_166:\n      mul\n      or\n      swap1\n      sstore\n      pop\n        /* \"contracts/studentmanager/SubjectContract.sol\":5441:5448  subject */\n      0x00\n        /* \"contracts/studentmanager/SubjectContract.sol\":5441:5465  subject.endTimeToConfirm */\n      0x07\n      add\n      sload\n        /* \"contracts/studentmanager/SubjectContract.sol\":5425:5440  block.timestamp */\n      timestamp\n        /* \"contracts/studentmanager/SubjectContract.sol\":5425:5465  block.timestamp>subject.endTimeToConfirm */\n      gt\n        /* \"contracts/studentmanager/SubjectContract.sol\":5417:5466  require(block.timestamp>subject.endTimeToConfirm) */\n      tag_168\n      jumpi\n      0x00\n      dup1\n      revert\n    tag_168:\n        /* \"contracts/studentmanager/SubjectContract.sol\":5482:5504  Close(block.timestamp) */\n      0xbf67515a38ee520223d32c1266d52101c30d936ed1f3e436c8caeb0a43cb06bf\n        /* \"contracts/studentmanager/SubjectContract.sol\":5488:5503  block.timestamp */\n      timestamp\n        /* \"contracts/studentmanager/SubjectContract.sol\":5482:5504  Close(block.timestamp) */\n      mload(0x40)\n      tag_169\n      swap2\n      swap1\n      tag_80\n      jump\t// in\n    tag_169:\n      mload(0x40)\n      dup1\n      swap2\n      sub\n      swap1\n      log1\n        /* \"contracts/studentmanager/SubjectContract.sol\":5329:5512  function close() external override onlyOwner {\r... */\n      jump\t// out\n        /* \"contracts/studentmanager/SubjectContract.sol\":4215:4479  function cancelRegister() external onlyOpen onlyRoleStudent {\r... */\n    tag_50:\n        /* \"contracts/studentmanager/SubjectContract.sol\":925:936  Status.Open */\n      0x01\n        /* \"contracts/studentmanager/SubjectContract.sol\":915:936  status == Status.Open */\n      0x02\n      dup2\n      gt\n      iszero\n      tag_171\n      jumpi\n      tag_172\n      tag_98\n      jump\t// in\n    tag_172:\n    tag_171:\n        /* \"contracts/studentmanager/SubjectContract.sol\":915:921  status */\n      0x08\n      0x00\n      swap1\n      sload\n      swap1\n      0x0100\n      exp\n      swap1\n      div\n      0xff\n      and\n        /* \"contracts/studentmanager/SubjectContract.sol\":915:936  status == Status.Open */\n      0x02\n      dup2\n      gt\n      iszero\n      tag_173\n      jumpi\n      tag_174\n      tag_98\n      jump\t// in\n    tag_174:\n    tag_173:\n      eq\n        /* \"contracts/studentmanager/SubjectContract.sol\":907:954  require(status == Status.Open, \"SC: Only Open\") */\n      tag_175\n      jumpi\n      mload(0x40)\n      0x08c379a000000000000000000000000000000000000000000000000000000000\n      dup2\n      mstore\n      0x04\n      add\n      tag_176\n      swap1\n      tag_103\n      jump\t// in\n    tag_176:\n      mload(0x40)\n      dup1\n      swap2\n      sub\n      swap1\n      revert\n    tag_175:\n        /* \"contracts/studentmanager/SubjectContract.sol\":1335:1349  accessControll */\n      0x09\n      0x00\n      swap1\n      sload\n      swap1\n      0x0100\n      exp\n      swap1\n      div\n      0xffffffffffffffffffffffffffffffffffffffff\n      and\n        /* \"contracts/studentmanager/SubjectContract.sol\":1335:1357  accessControll.hasRole */\n      0xffffffffffffffffffffffffffffffffffffffff\n      and\n      0x91d14854\n        /* \"contracts/studentmanager/SubjectContract.sol\":1358:1378  keccak256(\"STUDENT\") */\n      0xc951d7098b66ba0b8b77265b6e9cf0e187d73125a42bcd0061b09a68be421810\n        /* \"contracts/studentmanager/SubjectContract.sol\":1380:1390  msg.sender */\n      caller\n        /* \"contracts/studentmanager/SubjectContract.sol\":1335:1391  accessControll.hasRole(keccak256(\"STUDENT\"), msg.sender) */\n      mload(0x40)\n      dup4\n      0xffffffff\n      and\n      0xe0\n      shl\n      dup2\n      mstore\n      0x04\n      add\n      tag_178\n      swap3\n      swap2\n      swap1\n      tag_106\n      jump\t// in\n    tag_178:\n      0x20\n      mload(0x40)\n      dup1\n      dup4\n      sub\n      dup2\n      dup7\n      dup1\n      extcodesize\n      iszero\n      dup1\n      iszero\n      tag_179\n      jumpi\n      0x00\n      dup1\n      revert\n    tag_179:\n      pop\n      gas\n      staticcall\n      iszero\n      dup1\n      iszero\n      tag_181\n      jumpi\n      returndatasize\n      0x00\n      dup1\n      returndatacopy\n      revert(0x00, returndatasize)\n    tag_181:\n      pop\n      pop\n      pop\n      pop\n      mload(0x40)\n      returndatasize\n      not(0x1f)\n      0x1f\n      dup3\n      add\n      and\n      dup3\n      add\n      dup1\n      0x40\n      mstore\n      pop\n      dup2\n      add\n      swap1\n      tag_182\n      swap2\n      swap1\n      tag_111\n      jump\t// in\n    tag_182:\n        /* \"contracts/studentmanager/SubjectContract.sol\":1313:1435  require(\r... */\n      tag_183\n      jumpi\n      mload(0x40)\n      0x08c379a000000000000000000000000000000000000000000000000000000000\n      dup2\n      mstore\n      0x04\n      add\n      tag_184\n      swap1\n      tag_114\n      jump\t// in\n    tag_184:\n      mload(0x40)\n      dup1\n      swap2\n      sub\n      swap1\n      revert\n    tag_183:\n        /* \"contracts/studentmanager/SubjectContract.sol\":4286:4310  Student storage instance */\n      0x00\n        /* \"contracts/studentmanager/SubjectContract.sol\":4313:4329  addressToStudent */\n      0x0b\n        /* \"contracts/studentmanager/SubjectContract.sol\":4313:4341  addressToStudent[msg.sender] */\n      0x00\n        /* \"contracts/studentmanager/SubjectContract.sol\":4330:4340  msg.sender */\n      caller\n        /* \"contracts/studentmanager/SubjectContract.sol\":4313:4341  addressToStudent[msg.sender] */\n      0xffffffffffffffffffffffffffffffffffffffff\n      and\n      0xffffffffffffffffffffffffffffffffffffffff\n      and\n      dup2\n      mstore\n      0x20\n      add\n      swap1\n      dup2\n      mstore\n      0x20\n      add\n      0x00\n      keccak256\n        /* \"contracts/studentmanager/SubjectContract.sol\":4286:4341  Student storage instance = addressToStudent[msg.sender] */\n      swap1\n      pop\n        /* \"contracts/studentmanager/SubjectContract.sol\":4360:4368  instance */\n      dup1\n        /* \"contracts/studentmanager/SubjectContract.sol\":4360:4386  instance.participantToTrue */\n      0x00\n      add\n      0x14\n      swap1\n      sload\n      swap1\n      0x0100\n      exp\n      swap1\n      div\n      0xff\n      and\n        /* \"contracts/studentmanager/SubjectContract.sol\":4352:4407  require(instance.participantToTrue, \"SC: cancel error\") */\n      tag_186\n      jumpi\n      mload(0x40)\n      0x08c379a000000000000000000000000000000000000000000000000000000000\n      dup2\n      mstore\n      0x04\n      add\n      tag_187\n      swap1\n      tag_188\n      jump\t// in\n    tag_187:\n      mload(0x40)\n      dup1\n      swap2\n      sub\n      swap1\n      revert\n    tag_186:\n        /* \"contracts/studentmanager/SubjectContract.sol\":4418:4424  amount */\n      0x0c\n      0x00\n        /* \"contracts/studentmanager/SubjectContract.sol\":4418:4426  amount-- */\n      dup2\n      sload\n      dup1\n      swap3\n      swap2\n      swap1\n      tag_189\n      swap1\n      tag_190\n      jump\t// in\n    tag_189:\n      swap2\n      swap1\n      pop\n      sstore\n      pop\n        /* \"contracts/studentmanager/SubjectContract.sol\":4466:4471  false */\n      0x00\n        /* \"contracts/studentmanager/SubjectContract.sol\":4437:4445  instance */\n      dup2\n        /* \"contracts/studentmanager/SubjectContract.sol\":4437:4463  instance.participantToTrue */\n      0x00\n      add\n      0x14\n        /* \"contracts/studentmanager/SubjectContract.sol\":4437:4471  instance.participantToTrue = false */\n      0x0100\n      exp\n      dup2\n      sload\n      dup2\n      0xff\n      mul\n      not\n      and\n      swap1\n      dup4\n      iszero\n      iszero\n      mul\n      or\n      swap1\n      sstore\n      pop\n        /* \"contracts/studentmanager/SubjectContract.sol\":4275:4479  {\r... */\n      pop\n        /* \"contracts/studentmanager/SubjectContract.sol\":4215:4479  function cancelRegister() external onlyOpen onlyRoleStudent {\r... */\n      jump\t// out\n        /* \"contracts/studentmanager/SubjectContract.sol\":242:272  address public immutable owner */\n    tag_52:\n      immutable(\"0x1bd24dd6132ee48d988d9af2a2861e14cfa127f735144972abbc68ba40aae435\")\n      dup2\n      jump\t// out\n        /* \"contracts/studentmanager/SubjectContract.sol\":457:508  mapping(address => Student) public addressToStudent */\n    tag_57:\n      mstore(0x20, 0x0b)\n      dup1\n      0x00\n      mstore\n      keccak256(0x00, 0x40)\n      0x00\n      swap2\n      pop\n      swap1\n      pop\n      dup1\n      0x00\n      add\n      0x00\n      swap1\n      sload\n      swap1\n      0x0100\n      exp\n      swap1\n      div\n      0xffffffffffffffffffffffffffffffffffffffff\n      and\n      swap1\n      dup1\n      0x00\n      add\n      0x14\n      swap1\n      sload\n      swap1\n      0x0100\n      exp\n      swap1\n      div\n      0xff\n      and\n      swap1\n      pop\n      dup3\n      jump\t// out\n        /* \"contracts/studentmanager/SubjectContract.sol\":610:658  mapping(address => bool) public completedAddress */\n    tag_62:\n      mstore(0x20, 0x0d)\n      dup1\n      0x00\n      mstore\n      keccak256(0x00, 0x40)\n      0x00\n      swap2\n      pop\n      sload\n      swap1\n      0x0100\n      exp\n      swap1\n      div\n      0xff\n      and\n      dup2\n      jump\t// out\n        /* \"contracts/studentmanager/SubjectContract.sol\":1616:2478  function setBasicForSubject(\r... */\n    tag_68:\n        /* \"contracts/studentmanager/SubjectContract.sol\":1036:1041  owner */\n      immutable(\"0x1bd24dd6132ee48d988d9af2a2861e14cfa127f735144972abbc68ba40aae435\")\n        /* \"contracts/studentmanager/SubjectContract.sol\":1022:1041  msg.sender == owner */\n      0xffffffffffffffffffffffffffffffffffffffff\n      and\n        /* \"contracts/studentmanager/SubjectContract.sol\":1022:1032  msg.sender */\n      caller\n        /* \"contracts/studentmanager/SubjectContract.sol\":1022:1041  msg.sender == owner */\n      0xffffffffffffffffffffffffffffffffffffffff\n      and\n      eq\n        /* \"contracts/studentmanager/SubjectContract.sol\":1014:1056  require(msg.sender == owner, \"Only owner\") */\n      tag_192\n      jumpi\n      mload(0x40)\n      0x08c379a000000000000000000000000000000000000000000000000000000000\n      dup2\n      mstore\n      0x04\n      add\n      tag_193\n      swap1\n      tag_164\n      jump\t// in\n    tag_193:\n      mload(0x40)\n      dup1\n      swap2\n      sub\n      swap1\n      revert\n    tag_192:\n        /* \"contracts/studentmanager/SubjectContract.sol\":819:830  Status.Lock */\n      0x00\n        /* \"contracts/studentmanager/SubjectContract.sol\":809:830  status == Status.Lock */\n      0x02\n      dup2\n      gt\n      iszero\n      tag_195\n      jumpi\n      tag_196\n      tag_98\n      jump\t// in\n    tag_196:\n    tag_195:\n        /* \"contracts/studentmanager/SubjectContract.sol\":809:815  status */\n      0x08\n      0x00\n      swap1\n      sload\n      swap1\n      0x0100\n      exp\n      swap1\n      div\n      0xff\n      and\n        /* \"contracts/studentmanager/SubjectContract.sol\":809:830  status == Status.Lock */\n      0x02\n      dup2\n      gt\n      iszero\n      tag_197\n      jumpi\n      tag_198\n      tag_98\n      jump\t// in\n    tag_198:\n    tag_197:\n      eq\n        /* \"contracts/studentmanager/SubjectContract.sol\":801:848  require(status == Status.Lock, \"SC: Only Lock\") */\n      tag_199\n      jumpi\n      mload(0x40)\n      0x08c379a000000000000000000000000000000000000000000000000000000000\n      dup2\n      mstore\n      0x04\n      add\n      tag_200\n      swap1\n      tag_201\n      jump\t// in\n    tag_200:\n      mload(0x40)\n      dup1\n      swap2\n      sub\n      swap1\n      revert\n    tag_199:\n        /* \"contracts/studentmanager/SubjectContract.sol\":1999:2009  _startTime */\n      dup4\n        /* \"contracts/studentmanager/SubjectContract.sol\":1981:1996  block.timestamp */\n      timestamp\n        /* \"contracts/studentmanager/SubjectContract.sol\":1981:2009  block.timestamp < _startTime */\n      lt\n        /* \"contracts/studentmanager/SubjectContract.sol\":1981:2061  block.timestamp < _startTime &&\r... */\n      dup1\n      iszero\n      tag_203\n      jumpi\n      pop\n        /* \"contracts/studentmanager/SubjectContract.sol\":2043:2061  _endTimeToRegister */\n      dup3\n        /* \"contracts/studentmanager/SubjectContract.sol\":2030:2040  _startTime */\n      dup5\n        /* \"contracts/studentmanager/SubjectContract.sol\":2030:2061  _startTime < _endTimeToRegister */\n      lt\n        /* \"contracts/studentmanager/SubjectContract.sol\":1981:2061  block.timestamp < _startTime &&\r... */\n    tag_203:\n        /* \"contracts/studentmanager/SubjectContract.sol\":1981:2111  block.timestamp < _startTime &&\r... */\n      dup1\n      iszero\n      tag_204\n      jumpi\n      pop\n        /* \"contracts/studentmanager/SubjectContract.sol\":2103:2111  _endTime */\n      dup2\n        /* \"contracts/studentmanager/SubjectContract.sol\":2082:2100  _endTimeToRegister */\n      dup4\n        /* \"contracts/studentmanager/SubjectContract.sol\":2082:2111  _endTimeToRegister < _endTime */\n      lt\n        /* \"contracts/studentmanager/SubjectContract.sol\":1981:2111  block.timestamp < _startTime &&\r... */\n    tag_204:\n        /* \"contracts/studentmanager/SubjectContract.sol\":1981:2160  block.timestamp < _startTime &&\r... */\n      dup1\n      iszero\n      tag_205\n      jumpi\n      pop\n        /* \"contracts/studentmanager/SubjectContract.sol\":2143:2160  _endTimeToConfirm */\n      dup1\n        /* \"contracts/studentmanager/SubjectContract.sol\":2132:2140  _endTime */\n      dup3\n        /* \"contracts/studentmanager/SubjectContract.sol\":2132:2160  _endTime < _endTimeToConfirm */\n      lt\n        /* \"contracts/studentmanager/SubjectContract.sol\":1981:2160  block.timestamp < _startTime &&\r... */\n    tag_205:\n        /* \"contracts/studentmanager/SubjectContract.sol\":1959:2207  require(\r... */\n      tag_206\n      jumpi\n      mload(0x40)\n      0x08c379a000000000000000000000000000000000000000000000000000000000\n      dup2\n      mstore\n      0x04\n      add\n      tag_207\n      swap1\n      tag_208\n      jump\t// in\n    tag_207:\n      mload(0x40)\n      dup1\n      swap2\n      sub\n      swap1\n      revert\n    tag_206:\n        /* \"contracts/studentmanager/SubjectContract.sol\":2230:2470  Subject(\r... */\n      mload(0x40)\n      dup1\n      0x0100\n      add\n      0x40\n      mstore\n      dup1\n        /* \"contracts/studentmanager/SubjectContract.sol\":2252:2262  _subjectId */\n      dup10\n        /* \"contracts/studentmanager/SubjectContract.sol\":2230:2470  Subject(\r... */\n      dup2\n      mstore\n      0x20\n      add\n        /* \"contracts/studentmanager/SubjectContract.sol\":2277:2289  _urlMetadata */\n      dup9\n        /* \"contracts/studentmanager/SubjectContract.sol\":2230:2470  Subject(\r... */\n      dup2\n      mstore\n      0x20\n      add\n        /* \"contracts/studentmanager/SubjectContract.sol\":2304:2315  _maxEntrant */\n      dup8\n        /* \"contracts/studentmanager/SubjectContract.sol\":2230:2470  Subject(\r... */\n      dup2\n      mstore\n      0x20\n      add\n        /* \"contracts/studentmanager/SubjectContract.sol\":2330:2346  _persionInCharge */\n      dup7\n        /* \"contracts/studentmanager/SubjectContract.sol\":2230:2470  Subject(\r... */\n      0xffffffffffffffffffffffffffffffffffffffff\n      and\n      dup2\n      mstore\n      0x20\n      add\n        /* \"contracts/studentmanager/SubjectContract.sol\":2361:2371  _startTime */\n      dup6\n        /* \"contracts/studentmanager/SubjectContract.sol\":2230:2470  Subject(\r... */\n      dup2\n      mstore\n      0x20\n      add\n        /* \"contracts/studentmanager/SubjectContract.sol\":2386:2404  _endTimeToRegister */\n      dup5\n        /* \"contracts/studentmanager/SubjectContract.sol\":2230:2470  Subject(\r... */\n      dup2\n      mstore\n      0x20\n      add\n        /* \"contracts/studentmanager/SubjectContract.sol\":2419:2427  _endTime */\n      dup4\n        /* \"contracts/studentmanager/SubjectContract.sol\":2230:2470  Subject(\r... */\n      dup2\n      mstore\n      0x20\n      add\n        /* \"contracts/studentmanager/SubjectContract.sol\":2442:2459  _endTimeToConfirm */\n      dup3\n        /* \"contracts/studentmanager/SubjectContract.sol\":2230:2470  Subject(\r... */\n      dup2\n      mstore\n      pop\n        /* \"contracts/studentmanager/SubjectContract.sol\":2220:2227  subject */\n      0x00\n        /* \"contracts/studentmanager/SubjectContract.sol\":2220:2470  subject = Subject(\r... */\n      dup1\n      dup3\n      add\n      mload\n      dup2\n      0x00\n      add\n      sstore\n      0x20\n      dup3\n      add\n      mload\n      dup2\n      0x01\n      add\n      swap1\n      dup1\n      mload\n      swap1\n      0x20\n      add\n      swap1\n      tag_209\n      swap3\n      swap2\n      swap1\n      tag_210\n      jump\t// in\n    tag_209:\n      pop\n      0x40\n      dup3\n      add\n      mload\n      dup2\n      0x02\n      add\n      sstore\n      0x60\n      dup3\n      add\n      mload\n      dup2\n      0x03\n      add\n      exp(0x0100, 0x00)\n      dup2\n      sload\n      dup2\n      0xffffffffffffffffffffffffffffffffffffffff\n      mul\n      not\n      and\n      swap1\n      dup4\n      0xffffffffffffffffffffffffffffffffffffffff\n      and\n      mul\n      or\n      swap1\n      sstore\n      pop\n      0x80\n      dup3\n      add\n      mload\n      dup2\n      0x04\n      add\n      sstore\n      0xa0\n      dup3\n      add\n      mload\n      dup2\n      0x05\n      add\n      sstore\n      0xc0\n      dup3\n      add\n      mload\n      dup2\n      0x06\n      add\n      sstore\n      0xe0\n      dup3\n      add\n      mload\n      dup2\n      0x07\n      add\n      sstore\n      swap1\n      pop\n      pop\n        /* \"contracts/studentmanager/SubjectContract.sol\":1616:2478  function setBasicForSubject(\r... */\n      pop\n      pop\n      pop\n      pop\n      pop\n      pop\n      pop\n      pop\n      jump\t// out\n        /* \"contracts/studentmanager/SubjectContract.sol\":6030:6488  function getParticipantListCompleted()\r... */\n    tag_70:\n        /* \"contracts/studentmanager/SubjectContract.sol\":6117:6133  address[] memory */\n      0x60\n        /* \"contracts/studentmanager/SubjectContract.sol\":6151:6176  address[] memory _student */\n      0x00\n        /* \"contracts/studentmanager/SubjectContract.sol\":6193:6199  amount */\n      sload(0x0c)\n        /* \"contracts/studentmanager/SubjectContract.sol\":6179:6200  new address[](amount) */\n      0xffffffffffffffff\n      dup2\n      gt\n      iszero\n      tag_212\n      jumpi\n      tag_213\n      tag_214\n      jump\t// in\n    tag_213:\n    tag_212:\n      mload(0x40)\n      swap1\n      dup1\n      dup3\n      mstore\n      dup1\n      0x20\n      mul\n      0x20\n      add\n      dup3\n      add\n      0x40\n      mstore\n      dup1\n      iszero\n      tag_215\n      jumpi\n      dup2\n      0x20\n      add\n      0x20\n      dup3\n      mul\n      dup1\n      calldatasize\n      dup4\n      calldatacopy\n      dup1\n      dup3\n      add\n      swap2\n      pop\n      pop\n      swap1\n      pop\n    tag_215:\n      pop\n        /* \"contracts/studentmanager/SubjectContract.sol\":6151:6200  address[] memory _student = new address[](amount) */\n      swap1\n      pop\n        /* \"contracts/studentmanager/SubjectContract.sol\":6211:6224  uint256 index */\n      0x00\n        /* \"contracts/studentmanager/SubjectContract.sol\":6240:6249  uint256 i */\n      dup1\n        /* \"contracts/studentmanager/SubjectContract.sol\":6252:6253  0 */\n      0x00\n        /* \"contracts/studentmanager/SubjectContract.sol\":6240:6253  uint256 i = 0 */\n      swap1\n      pop\n        /* \"contracts/studentmanager/SubjectContract.sol\":6235:6455  for (uint256 i = 0; i < student.length; i++) {\r... */\n    tag_216:\n        /* \"contracts/studentmanager/SubjectContract.sol\":6259:6266  student */\n      0x0a\n        /* \"contracts/studentmanager/SubjectContract.sol\":6259:6273  student.length */\n      dup1\n      sload\n      swap1\n      pop\n        /* \"contracts/studentmanager/SubjectContract.sol\":6255:6256  i */\n      dup2\n        /* \"contracts/studentmanager/SubjectContract.sol\":6255:6273  i < student.length */\n      lt\n        /* \"contracts/studentmanager/SubjectContract.sol\":6235:6455  for (uint256 i = 0; i < student.length; i++) {\r... */\n      iszero\n      tag_217\n      jumpi\n        /* \"contracts/studentmanager/SubjectContract.sol\":6299:6315  completedAddress */\n      0x0d\n        /* \"contracts/studentmanager/SubjectContract.sol\":6299:6327  completedAddress[student[i]] */\n      0x00\n        /* \"contracts/studentmanager/SubjectContract.sol\":6316:6323  student */\n      0x0a\n        /* \"contracts/studentmanager/SubjectContract.sol\":6324:6325  i */\n      dup4\n        /* \"contracts/studentmanager/SubjectContract.sol\":6316:6326  student[i] */\n      dup2\n      sload\n      dup2\n      lt\n      tag_219\n      jumpi\n      tag_220\n      tag_143\n      jump\t// in\n    tag_220:\n    tag_219:\n      swap1\n      0x00\n      mstore\n      keccak256(0x00, 0x20)\n      add\n      0x00\n      swap1\n      sload\n      swap1\n      0x0100\n      exp\n      swap1\n      div\n      0xffffffffffffffffffffffffffffffffffffffff\n      and\n        /* \"contracts/studentmanager/SubjectContract.sol\":6299:6327  completedAddress[student[i]] */\n      0xffffffffffffffffffffffffffffffffffffffff\n      and\n      0xffffffffffffffffffffffffffffffffffffffff\n      and\n      dup2\n      mstore\n      0x20\n      add\n      swap1\n      dup2\n      mstore\n      0x20\n      add\n      0x00\n      keccak256\n      0x00\n      swap1\n      sload\n      swap1\n      0x0100\n      exp\n      swap1\n      div\n      0xff\n      and\n        /* \"contracts/studentmanager/SubjectContract.sol\":6299:6353  completedAddress[student[i]] && student[i]!=address(0) */\n      dup1\n      iszero\n      tag_222\n      jumpi\n      pop\n        /* \"contracts/studentmanager/SubjectContract.sol\":6351:6352  0 */\n      0x00\n        /* \"contracts/studentmanager/SubjectContract.sol\":6331:6353  student[i]!=address(0) */\n      0xffffffffffffffffffffffffffffffffffffffff\n      and\n        /* \"contracts/studentmanager/SubjectContract.sol\":6331:6338  student */\n      0x0a\n        /* \"contracts/studentmanager/SubjectContract.sol\":6339:6340  i */\n      dup3\n        /* \"contracts/studentmanager/SubjectContract.sol\":6331:6341  student[i] */\n      dup2\n      sload\n      dup2\n      lt\n      tag_223\n      jumpi\n      tag_224\n      tag_143\n      jump\t// in\n    tag_224:\n    tag_223:\n      swap1\n      0x00\n      mstore\n      keccak256(0x00, 0x20)\n      add\n      0x00\n      swap1\n      sload\n      swap1\n      0x0100\n      exp\n      swap1\n      div\n      0xffffffffffffffffffffffffffffffffffffffff\n      and\n        /* \"contracts/studentmanager/SubjectContract.sol\":6331:6353  student[i]!=address(0) */\n      0xffffffffffffffffffffffffffffffffffffffff\n      and\n      eq\n      iszero\n        /* \"contracts/studentmanager/SubjectContract.sol\":6299:6353  completedAddress[student[i]] && student[i]!=address(0) */\n    tag_222:\n        /* \"contracts/studentmanager/SubjectContract.sol\":6295:6444  if (completedAddress[student[i]] && student[i]!=address(0)) {\r... */\n      iszero\n      tag_226\n      jumpi\n        /* \"contracts/studentmanager/SubjectContract.sol\":6392:6399  student */\n      0x0a\n        /* \"contracts/studentmanager/SubjectContract.sol\":6400:6401  i */\n      dup2\n        /* \"contracts/studentmanager/SubjectContract.sol\":6392:6402  student[i] */\n      dup2\n      sload\n      dup2\n      lt\n      tag_227\n      jumpi\n      tag_228\n      tag_143\n      jump\t// in\n    tag_228:\n    tag_227:\n      swap1\n      0x00\n      mstore\n      keccak256(0x00, 0x20)\n      add\n      0x00\n      swap1\n      sload\n      swap1\n      0x0100\n      exp\n      swap1\n      div\n      0xffffffffffffffffffffffffffffffffffffffff\n      and\n        /* \"contracts/studentmanager/SubjectContract.sol\":6374:6382  _student */\n      dup4\n        /* \"contracts/studentmanager/SubjectContract.sol\":6383:6388  index */\n      dup4\n        /* \"contracts/studentmanager/SubjectContract.sol\":6374:6389  _student[index] */\n      dup2\n      mload\n      dup2\n      lt\n      tag_230\n      jumpi\n      tag_231\n      tag_143\n      jump\t// in\n    tag_231:\n    tag_230:\n      0x20\n      mul\n      0x20\n      add\n      add\n        /* \"contracts/studentmanager/SubjectContract.sol\":6374:6402  _student[index] = student[i] */\n      swap1\n      0xffffffffffffffffffffffffffffffffffffffff\n      and\n      swap1\n      dup2\n      0xffffffffffffffffffffffffffffffffffffffff\n      and\n      dup2\n      mstore\n      pop\n      pop\n        /* \"contracts/studentmanager/SubjectContract.sol\":6421:6428  index++ */\n      dup2\n      dup1\n      tag_232\n      swap1\n      tag_158\n      jump\t// in\n    tag_232:\n      swap3\n      pop\n      pop\n        /* \"contracts/studentmanager/SubjectContract.sol\":6295:6444  if (completedAddress[student[i]] && student[i]!=address(0)) {\r... */\n    tag_226:\n        /* \"contracts/studentmanager/SubjectContract.sol\":6275:6278  i++ */\n      dup1\n      dup1\n      tag_233\n      swap1\n      tag_158\n      jump\t// in\n    tag_233:\n      swap2\n      pop\n      pop\n        /* \"contracts/studentmanager/SubjectContract.sol\":6235:6455  for (uint256 i = 0; i < student.length; i++) {\r... */\n      jump(tag_216)\n    tag_217:\n      pop\n        /* \"contracts/studentmanager/SubjectContract.sol\":6472:6480  _student */\n      dup2\n        /* \"contracts/studentmanager/SubjectContract.sol\":6465:6480  return _student */\n      swap3\n      pop\n      pop\n      pop\n        /* \"contracts/studentmanager/SubjectContract.sol\":6030:6488  function getParticipantListCompleted()\r... */\n      swap1\n      jump\t// out\n        /* \"contracts/studentmanager/SubjectContract.sol\":381:417  IAccessControl public accessControll */\n    tag_74:\n      0x09\n      0x00\n      swap1\n      sload\n      swap1\n      0x0100\n      exp\n      swap1\n      div\n      0xffffffffffffffffffffffffffffffffffffffff\n      and\n      dup2\n      jump\t// out\n        /* \"contracts/studentmanager/SubjectContract.sol\":582:603  uint256 public amount */\n    tag_78:\n      sload(0x0c)\n      dup2\n      jump\t// out\n        /* \"contracts/studentmanager/SubjectContract.sol\":2891:2975  function start() external override onlyOwner {\r... */\n    tag_82:\n        /* \"contracts/studentmanager/SubjectContract.sol\":1036:1041  owner */\n      immutable(\"0x1bd24dd6132ee48d988d9af2a2861e14cfa127f735144972abbc68ba40aae435\")\n        /* \"contracts/studentmanager/SubjectContract.sol\":1022:1041  msg.sender == owner */\n      0xffffffffffffffffffffffffffffffffffffffff\n      and\n        /* \"contracts/studentmanager/SubjectContract.sol\":1022:1032  msg.sender */\n      caller\n        /* \"contracts/studentmanager/SubjectContract.sol\":1022:1041  msg.sender == owner */\n      0xffffffffffffffffffffffffffffffffffffffff\n      and\n      eq\n        /* \"contracts/studentmanager/SubjectContract.sol\":1014:1056  require(msg.sender == owner, \"Only owner\") */\n      tag_235\n      jumpi\n      mload(0x40)\n      0x08c379a000000000000000000000000000000000000000000000000000000000\n      dup2\n      mstore\n      0x04\n      add\n      tag_236\n      swap1\n      tag_164\n      jump\t// in\n    tag_236:\n      mload(0x40)\n      dup1\n      swap2\n      sub\n      swap1\n      revert\n    tag_235:\n        /* \"contracts/studentmanager/SubjectContract.sol\":2956:2967  Status.Open */\n      0x01\n        /* \"contracts/studentmanager/SubjectContract.sol\":2947:2953  status */\n      0x08\n      0x00\n        /* \"contracts/studentmanager/SubjectContract.sol\":2947:2967  status = Status.Open */\n      0x0100\n      exp\n      dup2\n      sload\n      dup2\n      0xff\n      mul\n      not\n      and\n      swap1\n      dup4\n      0x02\n      dup2\n      gt\n      iszero\n      tag_238\n      jumpi\n      tag_239\n      tag_98\n      jump\t// in\n    tag_239:\n    tag_238:\n      mul\n      or\n      swap1\n      sstore\n      pop\n        /* \"contracts/studentmanager/SubjectContract.sol\":2891:2975  function start() external override onlyOwner {\r... */\n      jump\t// out\n        /* \"contracts/studentmanager/SubjectContract.sol\":4487:5321  function confirmCompletedAddress(\r... */\n    tag_85:\n        /* \"contracts/studentmanager/SubjectContract.sol\":925:936  Status.Open */\n      0x01\n        /* \"contracts/studentmanager/SubjectContract.sol\":915:936  status == Status.Open */\n      0x02\n      dup2\n      gt\n      iszero\n      tag_241\n      jumpi\n      tag_242\n      tag_98\n      jump\t// in\n    tag_242:\n    tag_241:\n        /* \"contracts/studentmanager/SubjectContract.sol\":915:921  status */\n      0x08\n      0x00\n      swap1\n      sload\n      swap1\n      0x0100\n      exp\n      swap1\n      div\n      0xff\n      and\n        /* \"contracts/studentmanager/SubjectContract.sol\":915:936  status == Status.Open */\n      0x02\n      dup2\n      gt\n      iszero\n      tag_243\n      jumpi\n      tag_244\n      tag_98\n      jump\t// in\n    tag_244:\n    tag_243:\n      eq\n        /* \"contracts/studentmanager/SubjectContract.sol\":907:954  require(status == Status.Open, \"SC: Only Open\") */\n      tag_245\n      jumpi\n      mload(0x40)\n      0x08c379a000000000000000000000000000000000000000000000000000000000\n      dup2\n      mstore\n      0x04\n      add\n      tag_246\n      swap1\n      tag_103\n      jump\t// in\n    tag_246:\n      mload(0x40)\n      dup1\n      swap2\n      sub\n      swap1\n      revert\n    tag_245:\n        /* \"contracts/studentmanager/SubjectContract.sol\":1145:1159  accessControll */\n      0x09\n      0x00\n      swap1\n      sload\n      swap1\n      0x0100\n      exp\n      swap1\n      div\n      0xffffffffffffffffffffffffffffffffffffffff\n      and\n        /* \"contracts/studentmanager/SubjectContract.sol\":1145:1167  accessControll.hasRole */\n      0xffffffffffffffffffffffffffffffffffffffff\n      and\n      0x91d14854\n        /* \"contracts/studentmanager/SubjectContract.sol\":1168:1189  keccak256(\"LECTURER\") */\n      0xb39b9469ac3ddf8d58f06201f7e17350a277b429ed2a39727bf2f3a5165dba1a\n        /* \"contracts/studentmanager/SubjectContract.sol\":1191:1201  msg.sender */\n      caller\n        /* \"contracts/studentmanager/SubjectContract.sol\":1145:1202  accessControll.hasRole(keccak256(\"LECTURER\"), msg.sender) */\n      mload(0x40)\n      dup4\n      0xffffffff\n      and\n      0xe0\n      shl\n      dup2\n      mstore\n      0x04\n      add\n      tag_248\n      swap3\n      swap2\n      swap1\n      tag_106\n      jump\t// in\n    tag_248:\n      0x20\n      mload(0x40)\n      dup1\n      dup4\n      sub\n      dup2\n      dup7\n      dup1\n      extcodesize\n      iszero\n      dup1\n      iszero\n      tag_249\n      jumpi\n      0x00\n      dup1\n      revert\n    tag_249:\n      pop\n      gas\n      staticcall\n      iszero\n      dup1\n      iszero\n      tag_251\n      jumpi\n      returndatasize\n      0x00\n      dup1\n      returndatacopy\n      revert(0x00, returndatasize)\n    tag_251:\n      pop\n      pop\n      pop\n      pop\n      mload(0x40)\n      returndatasize\n      not(0x1f)\n      0x1f\n      dup3\n      add\n      and\n      dup3\n      add\n      dup1\n      0x40\n      mstore\n      pop\n      dup2\n      add\n      swap1\n      tag_252\n      swap2\n      swap1\n      tag_111\n      jump\t// in\n    tag_252:\n        /* \"contracts/studentmanager/SubjectContract.sol\":1123:1247  require(\r... */\n      tag_253\n      jumpi\n      mload(0x40)\n      0x08c379a000000000000000000000000000000000000000000000000000000000\n      dup2\n      mstore\n      0x04\n      add\n      tag_254\n      swap1\n      tag_126\n      jump\t// in\n    tag_254:\n      mload(0x40)\n      dup1\n      swap2\n      sub\n      swap1\n      revert\n    tag_253:\n        /* \"contracts/studentmanager/SubjectContract.sol\":4712:4719  subject */\n      0x00\n        /* \"contracts/studentmanager/SubjectContract.sol\":4712:4727  subject.endTime */\n      0x06\n      add\n      sload\n        /* \"contracts/studentmanager/SubjectContract.sol\":4694:4709  block.timestamp */\n      timestamp\n        /* \"contracts/studentmanager/SubjectContract.sol\":4694:4727  block.timestamp > subject.endTime */\n      gt\n        /* \"contracts/studentmanager/SubjectContract.sol\":4694:4790  block.timestamp > subject.endTime &&\r... */\n      dup1\n      iszero\n      tag_256\n      jumpi\n      pop\n        /* \"contracts/studentmanager/SubjectContract.sol\":4766:4773  subject */\n      0x00\n        /* \"contracts/studentmanager/SubjectContract.sol\":4766:4790  subject.endTimeToConfirm */\n      0x07\n      add\n      sload\n        /* \"contracts/studentmanager/SubjectContract.sol\":4748:4763  block.timestamp */\n      timestamp\n        /* \"contracts/studentmanager/SubjectContract.sol\":4748:4790  block.timestamp < subject.endTimeToConfirm */\n      lt\n        /* \"contracts/studentmanager/SubjectContract.sol\":4694:4790  block.timestamp > subject.endTime &&\r... */\n    tag_256:\n        /* \"contracts/studentmanager/SubjectContract.sol\":4672:4801  require(\r... */\n      tag_257\n      jumpi\n      0x00\n      dup1\n      revert\n    tag_257:\n        /* \"contracts/studentmanager/SubjectContract.sol\":4872:4881  uint256 i */\n      0x00\n        /* \"contracts/studentmanager/SubjectContract.sol\":4867:5257  for (uint256 i = 0; i < _student.length; i++) {\r... */\n    tag_258:\n        /* \"contracts/studentmanager/SubjectContract.sol\":4891:4899  _student */\n      dup3\n      dup3\n        /* \"contracts/studentmanager/SubjectContract.sol\":4891:4906  _student.length */\n      swap1\n      pop\n        /* \"contracts/studentmanager/SubjectContract.sol\":4887:4888  i */\n      dup2\n        /* \"contracts/studentmanager/SubjectContract.sol\":4887:4906  i < _student.length */\n      lt\n        /* \"contracts/studentmanager/SubjectContract.sol\":4867:5257  for (uint256 i = 0; i < _student.length; i++) {\r... */\n      iszero\n      tag_259\n      jumpi\n        /* \"contracts/studentmanager/SubjectContract.sol\":4928:4951  Student memory instance */\n      0x00\n        /* \"contracts/studentmanager/SubjectContract.sol\":4954:4970  addressToStudent */\n      0x0b\n        /* \"contracts/studentmanager/SubjectContract.sol\":4954:4983  addressToStudent[_student[i]] */\n      0x00\n        /* \"contracts/studentmanager/SubjectContract.sol\":4971:4979  _student */\n      dup6\n      dup6\n        /* \"contracts/studentmanager/SubjectContract.sol\":4980:4981  i */\n      dup6\n        /* \"contracts/studentmanager/SubjectContract.sol\":4971:4982  _student[i] */\n      dup2\n      dup2\n      lt\n      tag_261\n      jumpi\n      tag_262\n      tag_143\n      jump\t// in\n    tag_262:\n    tag_261:\n      swap1\n      pop\n      0x20\n      mul\n      add\n      0x20\n      dup2\n      add\n      swap1\n      tag_263\n      swap2\n      swap1\n      tag_56\n      jump\t// in\n    tag_263:\n        /* \"contracts/studentmanager/SubjectContract.sol\":4954:4983  addressToStudent[_student[i]] */\n      0xffffffffffffffffffffffffffffffffffffffff\n      and\n      0xffffffffffffffffffffffffffffffffffffffff\n      and\n      dup2\n      mstore\n      0x20\n      add\n      swap1\n      dup2\n      mstore\n      0x20\n      add\n      0x00\n      keccak256\n        /* \"contracts/studentmanager/SubjectContract.sol\":4928:4983  Student memory instance = addressToStudent[_student[i]] */\n      mload(0x40)\n      dup1\n      0x40\n      add\n      0x40\n      mstore\n      swap1\n      dup2\n      0x00\n      dup3\n      add\n      0x00\n      swap1\n      sload\n      swap1\n      0x0100\n      exp\n      swap1\n      div\n      0xffffffffffffffffffffffffffffffffffffffff\n      and\n      0xffffffffffffffffffffffffffffffffffffffff\n      and\n      0xffffffffffffffffffffffffffffffffffffffff\n      and\n      dup2\n      mstore\n      0x20\n      add\n      0x00\n      dup3\n      add\n      0x14\n      swap1\n      sload\n      swap1\n      0x0100\n      exp\n      swap1\n      div\n      0xff\n      and\n      iszero\n      iszero\n      iszero\n      iszero\n      dup2\n      mstore\n      pop\n      pop\n      swap1\n      pop\n        /* \"contracts/studentmanager/SubjectContract.sol\":5006:5014  instance */\n      dup1\n        /* \"contracts/studentmanager/SubjectContract.sol\":5006:5032  instance.participantToTrue */\n      0x20\n      add\n      mload\n        /* \"contracts/studentmanager/SubjectContract.sol\":5006:5074  instance.participantToTrue && instance.studentAddress == _student[i] */\n      dup1\n      iszero\n      tag_264\n      jumpi\n      pop\n        /* \"contracts/studentmanager/SubjectContract.sol\":5063:5071  _student */\n      dup4\n      dup4\n        /* \"contracts/studentmanager/SubjectContract.sol\":5072:5073  i */\n      dup4\n        /* \"contracts/studentmanager/SubjectContract.sol\":5063:5074  _student[i] */\n      dup2\n      dup2\n      lt\n      tag_265\n      jumpi\n      tag_266\n      tag_143\n      jump\t// in\n    tag_266:\n    tag_265:\n      swap1\n      pop\n      0x20\n      mul\n      add\n      0x20\n      dup2\n      add\n      swap1\n      tag_267\n      swap2\n      swap1\n      tag_56\n      jump\t// in\n    tag_267:\n        /* \"contracts/studentmanager/SubjectContract.sol\":5036:5074  instance.studentAddress == _student[i] */\n      0xffffffffffffffffffffffffffffffffffffffff\n      and\n        /* \"contracts/studentmanager/SubjectContract.sol\":5036:5044  instance */\n      dup2\n        /* \"contracts/studentmanager/SubjectContract.sol\":5036:5059  instance.studentAddress */\n      0x00\n      add\n      mload\n        /* \"contracts/studentmanager/SubjectContract.sol\":5036:5074  instance.studentAddress == _student[i] */\n      0xffffffffffffffffffffffffffffffffffffffff\n      and\n      eq\n        /* \"contracts/studentmanager/SubjectContract.sol\":5006:5074  instance.participantToTrue && instance.studentAddress == _student[i] */\n    tag_264:\n        /* \"contracts/studentmanager/SubjectContract.sol\":4998:5095  require(instance.participantToTrue && instance.studentAddress == _student[i], \"SC: cancel error\") */\n      tag_268\n      jumpi\n      mload(0x40)\n      0x08c379a000000000000000000000000000000000000000000000000000000000\n      dup2\n      mstore\n      0x04\n      add\n      tag_269\n      swap1\n      tag_188\n      jump\t// in\n    tag_269:\n      mload(0x40)\n      dup1\n      swap2\n      sub\n      swap1\n      revert\n    tag_268:\n        /* \"contracts/studentmanager/SubjectContract.sol\":5142:5146  true */\n      0x01\n        /* \"contracts/studentmanager/SubjectContract.sol\":5110:5126  completedAddress */\n      0x0d\n        /* \"contracts/studentmanager/SubjectContract.sol\":5110:5139  completedAddress[_student[i]] */\n      0x00\n        /* \"contracts/studentmanager/SubjectContract.sol\":5127:5135  _student */\n      dup7\n      dup7\n        /* \"contracts/studentmanager/SubjectContract.sol\":5136:5137  i */\n      dup7\n        /* \"contracts/studentmanager/SubjectContract.sol\":5127:5138  _student[i] */\n      dup2\n      dup2\n      lt\n      tag_270\n      jumpi\n      tag_271\n      tag_143\n      jump\t// in\n    tag_271:\n    tag_270:\n      swap1\n      pop\n      0x20\n      mul\n      add\n      0x20\n      dup2\n      add\n      swap1\n      tag_272\n      swap2\n      swap1\n      tag_56\n      jump\t// in\n    tag_272:\n        /* \"contracts/studentmanager/SubjectContract.sol\":5110:5139  completedAddress[_student[i]] */\n      0xffffffffffffffffffffffffffffffffffffffff\n      and\n      0xffffffffffffffffffffffffffffffffffffffff\n      and\n      dup2\n      mstore\n      0x20\n      add\n      swap1\n      dup2\n      mstore\n      0x20\n      add\n      0x00\n      keccak256\n      0x00\n        /* \"contracts/studentmanager/SubjectContract.sol\":5110:5146  completedAddress[_student[i]] = true */\n      0x0100\n      exp\n      dup2\n      sload\n      dup2\n      0xff\n      mul\n      not\n      and\n      swap1\n      dup4\n      iszero\n      iszero\n      mul\n      or\n      swap1\n      sstore\n      pop\n        /* \"contracts/studentmanager/SubjectContract.sol\":4913:5257  {\r... */\n      pop\n        /* \"contracts/studentmanager/SubjectContract.sol\":4908:4911  i++ */\n      dup1\n      dup1\n      tag_273\n      swap1\n      tag_158\n      jump\t// in\n    tag_273:\n      swap2\n      pop\n      pop\n        /* \"contracts/studentmanager/SubjectContract.sol\":4867:5257  for (uint256 i = 0; i < _student.length; i++) {\r... */\n      jump(tag_258)\n    tag_259:\n      pop\n        /* \"contracts/studentmanager/SubjectContract.sol\":5272:5313  Confirm(_student.length, block.timestamp) */\n      0x698dd5b92696456649e8994759ccfe7076b1ebe9096ecb083211d8bfe8163842\n        /* \"contracts/studentmanager/SubjectContract.sol\":5280:5288  _student */\n      dup3\n      dup3\n        /* \"contracts/studentmanager/SubjectContract.sol\":5280:5295  _student.length */\n      swap1\n      pop\n        /* \"contracts/studentmanager/SubjectContract.sol\":5297:5312  block.timestamp */\n      timestamp\n        /* \"contracts/studentmanager/SubjectContract.sol\":5272:5313  Confirm(_student.length, block.timestamp) */\n      mload(0x40)\n      tag_274\n      swap3\n      swap2\n      swap1\n      tag_275\n      jump\t// in\n    tag_274:\n      mload(0x40)\n      dup1\n      swap2\n      sub\n      swap1\n      log1\n        /* \"contracts/studentmanager/SubjectContract.sol\":4487:5321  function confirmCompletedAddress(\r... */\n      pop\n      pop\n      jump\t// out\n        /* \"contracts/studentmanager/SubjectContract.sol\":5520:6022  function getParticipantList() public view returns (address[] memory) {\r... */\n    tag_87:\n        /* \"contracts/studentmanager/SubjectContract.sol\":5571:5587  address[] memory */\n      0x60\n        /* \"contracts/studentmanager/SubjectContract.sol\":5600:5625  address[] memory _student */\n      0x00\n        /* \"contracts/studentmanager/SubjectContract.sol\":5642:5648  amount */\n      sload(0x0c)\n        /* \"contracts/studentmanager/SubjectContract.sol\":5628:5649  new address[](amount) */\n      0xffffffffffffffff\n      dup2\n      gt\n      iszero\n      tag_277\n      jumpi\n      tag_278\n      tag_214\n      jump\t// in\n    tag_278:\n    tag_277:\n      mload(0x40)\n      swap1\n      dup1\n      dup3\n      mstore\n      dup1\n      0x20\n      mul\n      0x20\n      add\n      dup3\n      add\n      0x40\n      mstore\n      dup1\n      iszero\n      tag_279\n      jumpi\n      dup2\n      0x20\n      add\n      0x20\n      dup3\n      mul\n      dup1\n      calldatasize\n      dup4\n      calldatacopy\n      dup1\n      dup3\n      add\n      swap2\n      pop\n      pop\n      swap1\n      pop\n    tag_279:\n      pop\n        /* \"contracts/studentmanager/SubjectContract.sol\":5600:5649  address[] memory _student = new address[](amount) */\n      swap1\n      pop\n        /* \"contracts/studentmanager/SubjectContract.sol\":5660:5673  uint256 index */\n      0x00\n        /* \"contracts/studentmanager/SubjectContract.sol\":5689:5698  uint256 i */\n      dup1\n        /* \"contracts/studentmanager/SubjectContract.sol\":5701:5702  0 */\n      0x00\n        /* \"contracts/studentmanager/SubjectContract.sol\":5689:5702  uint256 i = 0 */\n      swap1\n      pop\n        /* \"contracts/studentmanager/SubjectContract.sol\":5684:5989  for (uint256 i = 0; i < student.length; i++) {\r... */\n    tag_280:\n        /* \"contracts/studentmanager/SubjectContract.sol\":5708:5715  student */\n      0x0a\n        /* \"contracts/studentmanager/SubjectContract.sol\":5708:5722  student.length */\n      dup1\n      sload\n      swap1\n      pop\n        /* \"contracts/studentmanager/SubjectContract.sol\":5704:5705  i */\n      dup2\n        /* \"contracts/studentmanager/SubjectContract.sol\":5704:5722  i < student.length */\n      lt\n        /* \"contracts/studentmanager/SubjectContract.sol\":5684:5989  for (uint256 i = 0; i < student.length; i++) {\r... */\n      iszero\n      tag_281\n      jumpi\n        /* \"contracts/studentmanager/SubjectContract.sol\":5748:5764  addressToStudent */\n      0x0b\n        /* \"contracts/studentmanager/SubjectContract.sol\":5748:5776  addressToStudent[student[i]] */\n      0x00\n        /* \"contracts/studentmanager/SubjectContract.sol\":5765:5772  student */\n      0x0a\n        /* \"contracts/studentmanager/SubjectContract.sol\":5773:5774  i */\n      dup4\n        /* \"contracts/studentmanager/SubjectContract.sol\":5765:5775  student[i] */\n      dup2\n      sload\n      dup2\n      lt\n      tag_283\n      jumpi\n      tag_284\n      tag_143\n      jump\t// in\n    tag_284:\n    tag_283:\n      swap1\n      0x00\n      mstore\n      keccak256(0x00, 0x20)\n      add\n      0x00\n      swap1\n      sload\n      swap1\n      0x0100\n      exp\n      swap1\n      div\n      0xffffffffffffffffffffffffffffffffffffffff\n      and\n        /* \"contracts/studentmanager/SubjectContract.sol\":5748:5776  addressToStudent[student[i]] */\n      0xffffffffffffffffffffffffffffffffffffffff\n      and\n      0xffffffffffffffffffffffffffffffffffffffff\n      and\n      dup2\n      mstore\n      0x20\n      add\n      swap1\n      dup2\n      mstore\n      0x20\n      add\n      0x00\n      keccak256\n        /* \"contracts/studentmanager/SubjectContract.sol\":5748:5794  addressToStudent[student[i]].participantToTrue */\n      0x00\n      add\n      0x14\n      swap1\n      sload\n      swap1\n      0x0100\n      exp\n      swap1\n      div\n      0xff\n      and\n        /* \"contracts/studentmanager/SubjectContract.sol\":5748:5854  addressToStudent[student[i]].participantToTrue && addressToStudent[student[i]].studentAddress !=address(0) */\n      dup1\n      iszero\n      tag_286\n      jumpi\n      pop\n        /* \"contracts/studentmanager/SubjectContract.sol\":5852:5853  0 */\n      0x00\n        /* \"contracts/studentmanager/SubjectContract.sol\":5798:5854  addressToStudent[student[i]].studentAddress !=address(0) */\n      0xffffffffffffffffffffffffffffffffffffffff\n      and\n        /* \"contracts/studentmanager/SubjectContract.sol\":5798:5814  addressToStudent */\n      0x0b\n        /* \"contracts/studentmanager/SubjectContract.sol\":5798:5826  addressToStudent[student[i]] */\n      0x00\n        /* \"contracts/studentmanager/SubjectContract.sol\":5815:5822  student */\n      0x0a\n        /* \"contracts/studentmanager/SubjectContract.sol\":5823:5824  i */\n      dup5\n        /* \"contracts/studentmanager/SubjectContract.sol\":5815:5825  student[i] */\n      dup2\n      sload\n      dup2\n      lt\n      tag_287\n      jumpi\n      tag_288\n      tag_143\n      jump\t// in\n    tag_288:\n    tag_287:\n      swap1\n      0x00\n      mstore\n      keccak256(0x00, 0x20)\n      add\n      0x00\n      swap1\n      sload\n      swap1\n      0x0100\n      exp\n      swap1\n      div\n      0xffffffffffffffffffffffffffffffffffffffff\n      and\n        /* \"contracts/studentmanager/SubjectContract.sol\":5798:5826  addressToStudent[student[i]] */\n      0xffffffffffffffffffffffffffffffffffffffff\n      and\n      0xffffffffffffffffffffffffffffffffffffffff\n      and\n      dup2\n      mstore\n      0x20\n      add\n      swap1\n      dup2\n      mstore\n      0x20\n      add\n      0x00\n      keccak256\n        /* \"contracts/studentmanager/SubjectContract.sol\":5798:5841  addressToStudent[student[i]].studentAddress */\n      0x00\n      add\n      0x00\n      swap1\n      sload\n      swap1\n      0x0100\n      exp\n      swap1\n      div\n      0xffffffffffffffffffffffffffffffffffffffff\n      and\n        /* \"contracts/studentmanager/SubjectContract.sol\":5798:5854  addressToStudent[student[i]].studentAddress !=address(0) */\n      0xffffffffffffffffffffffffffffffffffffffff\n      and\n      eq\n      iszero\n        /* \"contracts/studentmanager/SubjectContract.sol\":5748:5854  addressToStudent[student[i]].participantToTrue && addressToStudent[student[i]].studentAddress !=address(0) */\n    tag_286:\n        /* \"contracts/studentmanager/SubjectContract.sol\":5744:5978  if (addressToStudent[student[i]].participantToTrue && addressToStudent[student[i]].studentAddress !=address(0)) {\r... */\n      iszero\n      tag_290\n      jumpi\n        /* \"contracts/studentmanager/SubjectContract.sol\":5893:5909  addressToStudent */\n      0x0b\n        /* \"contracts/studentmanager/SubjectContract.sol\":5893:5921  addressToStudent[student[i]] */\n      0x00\n        /* \"contracts/studentmanager/SubjectContract.sol\":5910:5917  student */\n      0x0a\n        /* \"contracts/studentmanager/SubjectContract.sol\":5918:5919  i */\n      dup4\n        /* \"contracts/studentmanager/SubjectContract.sol\":5910:5920  student[i] */\n      dup2\n      sload\n      dup2\n      lt\n      tag_291\n      jumpi\n      tag_292\n      tag_143\n      jump\t// in\n    tag_292:\n    tag_291:\n      swap1\n      0x00\n      mstore\n      keccak256(0x00, 0x20)\n      add\n      0x00\n      swap1\n      sload\n      swap1\n      0x0100\n      exp\n      swap1\n      div\n      0xffffffffffffffffffffffffffffffffffffffff\n      and\n        /* \"contracts/studentmanager/SubjectContract.sol\":5893:5921  addressToStudent[student[i]] */\n      0xffffffffffffffffffffffffffffffffffffffff\n      and\n      0xffffffffffffffffffffffffffffffffffffffff\n      and\n      dup2\n      mstore\n      0x20\n      add\n      swap1\n      dup2\n      mstore\n      0x20\n      add\n      0x00\n      keccak256\n        /* \"contracts/studentmanager/SubjectContract.sol\":5893:5936  addressToStudent[student[i]].studentAddress */\n      0x00\n      add\n      0x00\n      swap1\n      sload\n      swap1\n      0x0100\n      exp\n      swap1\n      div\n      0xffffffffffffffffffffffffffffffffffffffff\n      and\n        /* \"contracts/studentmanager/SubjectContract.sol\":5875:5883  _student */\n      dup4\n        /* \"contracts/studentmanager/SubjectContract.sol\":5884:5889  index */\n      dup4\n        /* \"contracts/studentmanager/SubjectContract.sol\":5875:5890  _student[index] */\n      dup2\n      mload\n      dup2\n      lt\n      tag_294\n      jumpi\n      tag_295\n      tag_143\n      jump\t// in\n    tag_295:\n    tag_294:\n      0x20\n      mul\n      0x20\n      add\n      add\n        /* \"contracts/studentmanager/SubjectContract.sol\":5875:5936  _student[index] = addressToStudent[student[i]].studentAddress */\n      swap1\n      0xffffffffffffffffffffffffffffffffffffffff\n      and\n      swap1\n      dup2\n      0xffffffffffffffffffffffffffffffffffffffff\n      and\n      dup2\n      mstore\n      pop\n      pop\n        /* \"contracts/studentmanager/SubjectContract.sol\":5955:5962  index++ */\n      dup2\n      dup1\n      tag_296\n      swap1\n      tag_158\n      jump\t// in\n    tag_296:\n      swap3\n      pop\n      pop\n        /* \"contracts/studentmanager/SubjectContract.sol\":5744:5978  if (addressToStudent[student[i]].participantToTrue && addressToStudent[student[i]].studentAddress !=address(0)) {\r... */\n    tag_290:\n        /* \"contracts/studentmanager/SubjectContract.sol\":5724:5727  i++ */\n      dup1\n      dup1\n      tag_297\n      swap1\n      tag_158\n      jump\t// in\n    tag_297:\n      swap2\n      pop\n      pop\n        /* \"contracts/studentmanager/SubjectContract.sol\":5684:5989  for (uint256 i = 0; i < student.length; i++) {\r... */\n      jump(tag_280)\n    tag_281:\n      pop\n        /* \"contracts/studentmanager/SubjectContract.sol\":6006:6014  _student */\n      dup2\n        /* \"contracts/studentmanager/SubjectContract.sol\":5999:6014  return _student */\n      swap3\n      pop\n      pop\n      pop\n        /* \"contracts/studentmanager/SubjectContract.sol\":5520:6022  function getParticipantList() public view returns (address[] memory) {\r... */\n      swap1\n      jump\t// out\n        /* \"contracts/studentmanager/SubjectContract.sol\":3588:4207  function _register(address _student) private {\r... */\n    tag_117:\n        /* \"contracts/studentmanager/SubjectContract.sol\":3644:3668  Student storage instance */\n      0x00\n        /* \"contracts/studentmanager/SubjectContract.sol\":3671:3687  addressToStudent */\n      0x0b\n        /* \"contracts/studentmanager/SubjectContract.sol\":3671:3697  addressToStudent[_student] */\n      0x00\n        /* \"contracts/studentmanager/SubjectContract.sol\":3688:3696  _student */\n      dup4\n        /* \"contracts/studentmanager/SubjectContract.sol\":3671:3697  addressToStudent[_student] */\n      0xffffffffffffffffffffffffffffffffffffffff\n      and\n      0xffffffffffffffffffffffffffffffffffffffff\n      and\n      dup2\n      mstore\n      0x20\n      add\n      swap1\n      dup2\n      mstore\n      0x20\n      add\n      0x00\n      keccak256\n        /* \"contracts/studentmanager/SubjectContract.sol\":3644:3697  Student storage instance = addressToStudent[_student] */\n      swap1\n      pop\n        /* \"contracts/studentmanager/SubjectContract.sol\":3717:3725  instance */\n      dup1\n        /* \"contracts/studentmanager/SubjectContract.sol\":3717:3743  instance.participantToTrue */\n      0x00\n      add\n      0x14\n      swap1\n      sload\n      swap1\n      0x0100\n      exp\n      swap1\n      div\n      0xff\n      and\n        /* \"contracts/studentmanager/SubjectContract.sol\":3716:3743  !instance.participantToTrue */\n      iszero\n        /* \"contracts/studentmanager/SubjectContract.sol\":3708:3766  require(!instance.participantToTrue, \"SC: register error\") */\n      tag_299\n      jumpi\n      mload(0x40)\n      0x08c379a000000000000000000000000000000000000000000000000000000000\n      dup2\n      mstore\n      0x04\n      add\n      tag_300\n      swap1\n      tag_301\n      jump\t// in\n    tag_300:\n      mload(0x40)\n      dup1\n      swap2\n      sub\n      swap1\n      revert\n    tag_299:\n        /* \"contracts/studentmanager/SubjectContract.sol\":3779:3785  amount */\n      0x0c\n      0x00\n        /* \"contracts/studentmanager/SubjectContract.sol\":3779:3787  amount++ */\n      dup2\n      sload\n      dup1\n      swap3\n      swap2\n      swap1\n      tag_302\n      swap1\n      tag_158\n      jump\t// in\n    tag_302:\n      swap2\n      swap1\n      pop\n      sstore\n      pop\n        /* \"contracts/studentmanager/SubjectContract.sol\":3836:3837  0 */\n      0x00\n        /* \"contracts/studentmanager/SubjectContract.sol\":3801:3838  instance.studentAddress != address(0) */\n      0xffffffffffffffffffffffffffffffffffffffff\n      and\n        /* \"contracts/studentmanager/SubjectContract.sol\":3801:3809  instance */\n      dup2\n        /* \"contracts/studentmanager/SubjectContract.sol\":3801:3824  instance.studentAddress */\n      0x00\n      add\n      0x00\n      swap1\n      sload\n      swap1\n      0x0100\n      exp\n      swap1\n      div\n      0xffffffffffffffffffffffffffffffffffffffff\n      and\n        /* \"contracts/studentmanager/SubjectContract.sol\":3801:3838  instance.studentAddress != address(0) */\n      0xffffffffffffffffffffffffffffffffffffffff\n      and\n      eq\n        /* \"contracts/studentmanager/SubjectContract.sol\":3798:4142  if(instance.studentAddress != address(0)){\r... */\n      tag_303\n      jumpi\n        /* \"contracts/studentmanager/SubjectContract.sol\":3883:3887  true */\n      0x01\n        /* \"contracts/studentmanager/SubjectContract.sol\":3854:3862  instance */\n      dup2\n        /* \"contracts/studentmanager/SubjectContract.sol\":3854:3880  instance.participantToTrue */\n      0x00\n      add\n      0x14\n        /* \"contracts/studentmanager/SubjectContract.sol\":3854:3887  instance.participantToTrue = true */\n      0x0100\n      exp\n      dup2\n      sload\n      dup2\n      0xff\n      mul\n      not\n      and\n      swap1\n      dup4\n      iszero\n      iszero\n      mul\n      or\n      swap1\n      sstore\n      pop\n        /* \"contracts/studentmanager/SubjectContract.sol\":3798:4142  if(instance.studentAddress != address(0)){\r... */\n      jump(tag_304)\n    tag_303:\n        /* \"contracts/studentmanager/SubjectContract.sol\":3918:3935  Student memory st */\n      0x00\n        /* \"contracts/studentmanager/SubjectContract.sol\":3938:4047  Student({\r... */\n      mload(0x40)\n      dup1\n      0x40\n      add\n      0x40\n      mstore\n      dup1\n        /* \"contracts/studentmanager/SubjectContract.sol\":3981:3989  _student */\n      dup5\n        /* \"contracts/studentmanager/SubjectContract.sol\":3938:4047  Student({\r... */\n      0xffffffffffffffffffffffffffffffffffffffff\n      and\n      dup2\n      mstore\n      0x20\n      add\n        /* \"contracts/studentmanager/SubjectContract.sol\":4027:4031  true */\n      0x01\n        /* \"contracts/studentmanager/SubjectContract.sol\":3938:4047  Student({\r... */\n      iszero\n      iszero\n      dup2\n      mstore\n      pop\n        /* \"contracts/studentmanager/SubjectContract.sol\":3918:4047  Student memory st = Student({\r... */\n      swap1\n      pop\n        /* \"contracts/studentmanager/SubjectContract.sol\":4091:4093  st */\n      dup1\n        /* \"contracts/studentmanager/SubjectContract.sol\":4062:4078  addressToStudent */\n      0x0b\n        /* \"contracts/studentmanager/SubjectContract.sol\":4062:4088  addressToStudent[_student] */\n      0x00\n        /* \"contracts/studentmanager/SubjectContract.sol\":4079:4087  _student */\n      dup6\n        /* \"contracts/studentmanager/SubjectContract.sol\":4062:4088  addressToStudent[_student] */\n      0xffffffffffffffffffffffffffffffffffffffff\n      and\n      0xffffffffffffffffffffffffffffffffffffffff\n      and\n      dup2\n      mstore\n      0x20\n      add\n      swap1\n      dup2\n      mstore\n      0x20\n      add\n      0x00\n      keccak256\n        /* \"contracts/studentmanager/SubjectContract.sol\":4062:4093  addressToStudent[_student] = st */\n      0x00\n      dup3\n      add\n      mload\n      dup2\n      0x00\n      add\n      exp(0x0100, 0x00)\n      dup2\n      sload\n      dup2\n      0xffffffffffffffffffffffffffffffffffffffff\n      mul\n      not\n      and\n      swap1\n      dup4\n      0xffffffffffffffffffffffffffffffffffffffff\n      and\n      mul\n      or\n      swap1\n      sstore\n      pop\n      0x20\n      dup3\n      add\n      mload\n      dup2\n      0x00\n      add\n      exp(0x0100, 0x14)\n      dup2\n      sload\n      dup2\n      0xff\n      mul\n      not\n      and\n      swap1\n      dup4\n      iszero\n      iszero\n      mul\n      or\n      swap1\n      sstore\n      pop\n      swap1\n      pop\n      pop\n        /* \"contracts/studentmanager/SubjectContract.sol\":4108:4115  student */\n      0x0a\n        /* \"contracts/studentmanager/SubjectContract.sol\":4121:4129  _student */\n      dup4\n        /* \"contracts/studentmanager/SubjectContract.sol\":4108:4130  student.push(_student) */\n      swap1\n      dup1\n      0x01\n      dup2\n      sload\n      add\n      dup1\n      dup3\n      sstore\n      dup1\n      swap2\n      pop\n      pop\n      0x01\n      swap1\n      sub\n      swap1\n      0x00\n      mstore\n      keccak256(0x00, 0x20)\n      add\n      0x00\n      swap1\n      swap2\n      swap1\n      swap2\n      swap1\n      swap2\n      0x0100\n      exp\n      dup2\n      sload\n      dup2\n      0xffffffffffffffffffffffffffffffffffffffff\n      mul\n      not\n      and\n      swap1\n      dup4\n      0xffffffffffffffffffffffffffffffffffffffff\n      and\n      mul\n      or\n      swap1\n      sstore\n      pop\n        /* \"contracts/studentmanager/SubjectContract.sol\":3903:4142  {\r... */\n      pop\n        /* \"contracts/studentmanager/SubjectContract.sol\":3798:4142  if(instance.studentAddress != address(0)){\r... */\n    tag_304:\n        /* \"contracts/studentmanager/SubjectContract.sol\":4180:4187  subject */\n      0x00\n        /* \"contracts/studentmanager/SubjectContract.sol\":4180:4198  subject.maxEntrant */\n      0x02\n      add\n      sload\n        /* \"contracts/studentmanager/SubjectContract.sol\":4170:4176  amount */\n      sload(0x0c)\n        /* \"contracts/studentmanager/SubjectContract.sol\":4170:4198  amount <= subject.maxEntrant */\n      gt\n      iszero\n        /* \"contracts/studentmanager/SubjectContract.sol\":4162:4199  require(amount <= subject.maxEntrant) */\n      tag_306\n      jumpi\n      0x00\n      dup1\n      revert\n    tag_306:\n        /* \"contracts/studentmanager/SubjectContract.sol\":3633:4207  {\r... */\n      pop\n        /* \"contracts/studentmanager/SubjectContract.sol\":3588:4207  function _register(address _student) private {\r... */\n      pop\n      jump\t// out\n    tag_210:\n      dup3\n      dup1\n      sload\n      tag_307\n      swap1\n      tag_90\n      jump\t// in\n    tag_307:\n      swap1\n      0x00\n      mstore\n      keccak256(0x00, 0x20)\n      swap1\n      0x1f\n      add\n      0x20\n      swap1\n      div\n      dup2\n      add\n      swap3\n      dup3\n      tag_309\n      jumpi\n      0x00\n      dup6\n      sstore\n      jump(tag_308)\n    tag_309:\n      dup3\n      0x1f\n      lt\n      tag_310\n      jumpi\n      dup1\n      mload\n      not(0xff)\n      and\n      dup4\n      dup1\n      add\n      or\n      dup6\n      sstore\n      jump(tag_308)\n    tag_310:\n      dup3\n      dup1\n      add\n      0x01\n      add\n      dup6\n      sstore\n      dup3\n      iszero\n      tag_308\n      jumpi\n      swap2\n      dup3\n      add\n    tag_311:\n      dup3\n      dup2\n      gt\n      iszero\n      tag_312\n      jumpi\n      dup3\n      mload\n      dup3\n      sstore\n      swap2\n      0x20\n      add\n      swap2\n      swap1\n      0x01\n      add\n      swap1\n      jump(tag_311)\n    tag_312:\n    tag_308:\n      pop\n      swap1\n      pop\n      tag_313\n      swap2\n      swap1\n      tag_314\n      jump\t// in\n    tag_313:\n      pop\n      swap1\n      jump\t// out\n    tag_314:\n    tag_315:\n      dup1\n      dup3\n      gt\n      iszero\n      tag_316\n      jumpi\n      0x00\n      dup2\n      0x00\n      swap1\n      sstore\n      pop\n      0x01\n      add\n      jump(tag_315)\n    tag_316:\n      pop\n      swap1\n      jump\t// out\n        /* \"#utility.yul\":7:419   */\n    tag_318:\n        /* \"#utility.yul\":85:90   */\n      0x00\n        /* \"#utility.yul\":110:176   */\n      tag_320\n        /* \"#utility.yul\":126:175   */\n      tag_321\n        /* \"#utility.yul\":168:174   */\n      dup5\n        /* \"#utility.yul\":126:175   */\n      tag_322\n      jump\t// in\n    tag_321:\n        /* \"#utility.yul\":110:176   */\n      tag_323\n      jump\t// in\n    tag_320:\n        /* \"#utility.yul\":101:176   */\n      swap1\n      pop\n        /* \"#utility.yul\":199:205   */\n      dup3\n        /* \"#utility.yul\":192:197   */\n      dup2\n        /* \"#utility.yul\":185:206   */\n      mstore\n        /* \"#utility.yul\":237:241   */\n      0x20\n        /* \"#utility.yul\":230:235   */\n      dup2\n        /* \"#utility.yul\":226:242   */\n      add\n        /* \"#utility.yul\":275:278   */\n      dup5\n        /* \"#utility.yul\":266:272   */\n      dup5\n        /* \"#utility.yul\":261:264   */\n      dup5\n        /* \"#utility.yul\":257:273   */\n      add\n        /* \"#utility.yul\":254:279   */\n      gt\n        /* \"#utility.yul\":251:363   */\n      iszero\n      tag_324\n      jumpi\n        /* \"#utility.yul\":282:361   */\n      tag_325\n      tag_326\n      jump\t// in\n    tag_325:\n        /* \"#utility.yul\":251:363   */\n    tag_324:\n        /* \"#utility.yul\":372:413   */\n      tag_327\n        /* \"#utility.yul\":406:412   */\n      dup5\n        /* \"#utility.yul\":401:404   */\n      dup3\n        /* \"#utility.yul\":396:399   */\n      dup6\n        /* \"#utility.yul\":372:413   */\n      tag_328\n      jump\t// in\n    tag_327:\n        /* \"#utility.yul\":91:419   */\n      pop\n        /* \"#utility.yul\":7:419   */\n      swap4\n      swap3\n      pop\n      pop\n      pop\n      jump\t// out\n        /* \"#utility.yul\":425:564   */\n    tag_329:\n        /* \"#utility.yul\":471:476   */\n      0x00\n        /* \"#utility.yul\":509:515   */\n      dup2\n        /* \"#utility.yul\":496:516   */\n      calldataload\n        /* \"#utility.yul\":487:516   */\n      swap1\n      pop\n        /* \"#utility.yul\":525:558   */\n      tag_331\n        /* \"#utility.yul\":552:557   */\n      dup2\n        /* \"#utility.yul\":525:558   */\n      tag_332\n      jump\t// in\n    tag_331:\n        /* \"#utility.yul\":425:564   */\n      swap3\n      swap2\n      pop\n      pop\n      jump\t// out\n        /* \"#utility.yul\":587:1155   */\n    tag_333:\n        /* \"#utility.yul\":660:668   */\n      0x00\n        /* \"#utility.yul\":670:676   */\n      dup1\n        /* \"#utility.yul\":720:723   */\n      dup4\n        /* \"#utility.yul\":713:717   */\n      0x1f\n        /* \"#utility.yul\":705:711   */\n      dup5\n        /* \"#utility.yul\":701:718   */\n      add\n        /* \"#utility.yul\":697:724   */\n      slt\n        /* \"#utility.yul\":687:809   */\n      tag_335\n      jumpi\n        /* \"#utility.yul\":728:807   */\n      tag_336\n      tag_337\n      jump\t// in\n    tag_336:\n        /* \"#utility.yul\":687:809   */\n    tag_335:\n        /* \"#utility.yul\":841:847   */\n      dup3\n        /* \"#utility.yul\":828:848   */\n      calldataload\n        /* \"#utility.yul\":818:848   */\n      swap1\n      pop\n        /* \"#utility.yul\":871:889   */\n      0xffffffffffffffff\n        /* \"#utility.yul\":863:869   */\n      dup2\n        /* \"#utility.yul\":860:890   */\n      gt\n        /* \"#utility.yul\":857:974   */\n      iszero\n      tag_338\n      jumpi\n        /* \"#utility.yul\":893:972   */\n      tag_339\n      tag_340\n      jump\t// in\n    tag_339:\n        /* \"#utility.yul\":857:974   */\n    tag_338:\n        /* \"#utility.yul\":1007:1011   */\n      0x20\n        /* \"#utility.yul\":999:1005   */\n      dup4\n        /* \"#utility.yul\":995:1012   */\n      add\n        /* \"#utility.yul\":983:1012   */\n      swap2\n      pop\n        /* \"#utility.yul\":1061:1064   */\n      dup4\n        /* \"#utility.yul\":1053:1057   */\n      0x20\n        /* \"#utility.yul\":1045:1051   */\n      dup3\n        /* \"#utility.yul\":1041:1058   */\n      mul\n        /* \"#utility.yul\":1031:1039   */\n      dup4\n        /* \"#utility.yul\":1027:1059   */\n      add\n        /* \"#utility.yul\":1024:1065   */\n      gt\n        /* \"#utility.yul\":1021:1149   */\n      iszero\n      tag_341\n      jumpi\n        /* \"#utility.yul\":1068:1147   */\n      tag_342\n      tag_343\n      jump\t// in\n    tag_342:\n        /* \"#utility.yul\":1021:1149   */\n    tag_341:\n        /* \"#utility.yul\":587:1155   */\n      swap3\n      pop\n      swap3\n      swap1\n      pop\n      jump\t// out\n        /* \"#utility.yul\":1161:1298   */\n    tag_344:\n        /* \"#utility.yul\":1215:1220   */\n      0x00\n        /* \"#utility.yul\":1246:1252   */\n      dup2\n        /* \"#utility.yul\":1240:1253   */\n      mload\n        /* \"#utility.yul\":1231:1253   */\n      swap1\n      pop\n        /* \"#utility.yul\":1262:1292   */\n      tag_346\n        /* \"#utility.yul\":1286:1291   */\n      dup2\n        /* \"#utility.yul\":1262:1292   */\n      tag_347\n      jump\t// in\n    tag_346:\n        /* \"#utility.yul\":1161:1298   */\n      swap3\n      swap2\n      pop\n      pop\n      jump\t// out\n        /* \"#utility.yul\":1318:1658   */\n    tag_348:\n        /* \"#utility.yul\":1374:1379   */\n      0x00\n        /* \"#utility.yul\":1423:1426   */\n      dup3\n        /* \"#utility.yul\":1416:1420   */\n      0x1f\n        /* \"#utility.yul\":1408:1414   */\n      dup4\n        /* \"#utility.yul\":1404:1421   */\n      add\n        /* \"#utility.yul\":1400:1427   */\n      slt\n        /* \"#utility.yul\":1390:1512   */\n      tag_350\n      jumpi\n        /* \"#utility.yul\":1431:1510   */\n      tag_351\n      tag_337\n      jump\t// in\n    tag_351:\n        /* \"#utility.yul\":1390:1512   */\n    tag_350:\n        /* \"#utility.yul\":1548:1554   */\n      dup2\n        /* \"#utility.yul\":1535:1555   */\n      calldataload\n        /* \"#utility.yul\":1573:1652   */\n      tag_352\n        /* \"#utility.yul\":1648:1651   */\n      dup5\n        /* \"#utility.yul\":1640:1646   */\n      dup3\n        /* \"#utility.yul\":1633:1637   */\n      0x20\n        /* \"#utility.yul\":1625:1631   */\n      dup7\n        /* \"#utility.yul\":1621:1638   */\n      add\n        /* \"#utility.yul\":1573:1652   */\n      tag_318\n      jump\t// in\n    tag_352:\n        /* \"#utility.yul\":1564:1652   */\n      swap2\n      pop\n        /* \"#utility.yul\":1380:1658   */\n      pop\n        /* \"#utility.yul\":1318:1658   */\n      swap3\n      swap2\n      pop\n      pop\n      jump\t// out\n        /* \"#utility.yul\":1664:1803   */\n    tag_353:\n        /* \"#utility.yul\":1710:1715   */\n      0x00\n        /* \"#utility.yul\":1748:1754   */\n      dup2\n        /* \"#utility.yul\":1735:1755   */\n      calldataload\n        /* \"#utility.yul\":1726:1755   */\n      swap1\n      pop\n        /* \"#utility.yul\":1764:1797   */\n      tag_355\n        /* \"#utility.yul\":1791:1796   */\n      dup2\n        /* \"#utility.yul\":1764:1797   */\n      tag_356\n      jump\t// in\n    tag_355:\n        /* \"#utility.yul\":1664:1803   */\n      swap3\n      swap2\n      pop\n      pop\n      jump\t// out\n        /* \"#utility.yul\":1809:2138   */\n    tag_56:\n        /* \"#utility.yul\":1868:1874   */\n      0x00\n        /* \"#utility.yul\":1917:1919   */\n      0x20\n        /* \"#utility.yul\":1905:1914   */\n      dup3\n        /* \"#utility.yul\":1896:1903   */\n      dup5\n        /* \"#utility.yul\":1892:1915   */\n      sub\n        /* \"#utility.yul\":1888:1920   */\n      slt\n        /* \"#utility.yul\":1885:2004   */\n      iszero\n      tag_358\n      jumpi\n        /* \"#utility.yul\":1923:2002   */\n      tag_359\n      tag_360\n      jump\t// in\n    tag_359:\n        /* \"#utility.yul\":1885:2004   */\n    tag_358:\n        /* \"#utility.yul\":2043:2044   */\n      0x00\n        /* \"#utility.yul\":2068:2121   */\n      tag_361\n        /* \"#utility.yul\":2113:2120   */\n      dup5\n        /* \"#utility.yul\":2104:2110   */\n      dup3\n        /* \"#utility.yul\":2093:2102   */\n      dup6\n        /* \"#utility.yul\":2089:2111   */\n      add\n        /* \"#utility.yul\":2068:2121   */\n      tag_329\n      jump\t// in\n    tag_361:\n        /* \"#utility.yul\":2058:2121   */\n      swap2\n      pop\n        /* \"#utility.yul\":2014:2131   */\n      pop\n        /* \"#utility.yul\":1809:2138   */\n      swap3\n      swap2\n      pop\n      pop\n      jump\t// out\n        /* \"#utility.yul\":2144:2703   */\n    tag_40:\n        /* \"#utility.yul\":2230:2236   */\n      0x00\n        /* \"#utility.yul\":2238:2244   */\n      dup1\n        /* \"#utility.yul\":2287:2289   */\n      0x20\n        /* \"#utility.yul\":2275:2284   */\n      dup4\n        /* \"#utility.yul\":2266:2273   */\n      dup6\n        /* \"#utility.yul\":2262:2285   */\n      sub\n        /* \"#utility.yul\":2258:2290   */\n      slt\n        /* \"#utility.yul\":2255:2374   */\n      iszero\n      tag_363\n      jumpi\n        /* \"#utility.yul\":2293:2372   */\n      tag_364\n      tag_360\n      jump\t// in\n    tag_364:\n        /* \"#utility.yul\":2255:2374   */\n    tag_363:\n        /* \"#utility.yul\":2441:2442   */\n      0x00\n        /* \"#utility.yul\":2430:2439   */\n      dup4\n        /* \"#utility.yul\":2426:2443   */\n      add\n        /* \"#utility.yul\":2413:2444   */\n      calldataload\n        /* \"#utility.yul\":2471:2489   */\n      0xffffffffffffffff\n        /* \"#utility.yul\":2463:2469   */\n      dup2\n        /* \"#utility.yul\":2460:2490   */\n      gt\n        /* \"#utility.yul\":2457:2574   */\n      iszero\n      tag_365\n      jumpi\n        /* \"#utility.yul\":2493:2572   */\n      tag_366\n      tag_367\n      jump\t// in\n    tag_366:\n        /* \"#utility.yul\":2457:2574   */\n    tag_365:\n        /* \"#utility.yul\":2606:2686   */\n      tag_368\n        /* \"#utility.yul\":2678:2685   */\n      dup6\n        /* \"#utility.yul\":2669:2675   */\n      dup3\n        /* \"#utility.yul\":2658:2667   */\n      dup7\n        /* \"#utility.yul\":2654:2676   */\n      add\n        /* \"#utility.yul\":2606:2686   */\n      tag_333\n      jump\t// in\n    tag_368:\n        /* \"#utility.yul\":2588:2686   */\n      swap3\n      pop\n      swap3\n      pop\n        /* \"#utility.yul\":2384:2696   */\n      pop\n        /* \"#utility.yul\":2144:2703   */\n      swap3\n      pop\n      swap3\n      swap1\n      pop\n      jump\t// out\n        /* \"#utility.yul\":2709:3054   */\n    tag_111:\n        /* \"#utility.yul\":2776:2782   */\n      0x00\n        /* \"#utility.yul\":2825:2827   */\n      0x20\n        /* \"#utility.yul\":2813:2822   */\n      dup3\n        /* \"#utility.yul\":2804:2811   */\n      dup5\n        /* \"#utility.yul\":2800:2823   */\n      sub\n        /* \"#utility.yul\":2796:2828   */\n      slt\n        /* \"#utility.yul\":2793:2912   */\n      iszero\n      tag_370\n      jumpi\n        /* \"#utility.yul\":2831:2910   */\n      tag_371\n      tag_360\n      jump\t// in\n    tag_371:\n        /* \"#utility.yul\":2793:2912   */\n    tag_370:\n        /* \"#utility.yul\":2951:2952   */\n      0x00\n        /* \"#utility.yul\":2976:3037   */\n      tag_372\n        /* \"#utility.yul\":3029:3036   */\n      dup5\n        /* \"#utility.yul\":3020:3026   */\n      dup3\n        /* \"#utility.yul\":3009:3018   */\n      dup6\n        /* \"#utility.yul\":3005:3027   */\n      add\n        /* \"#utility.yul\":2976:3037   */\n      tag_344\n      jump\t// in\n    tag_372:\n        /* \"#utility.yul\":2966:3037   */\n      swap2\n      pop\n        /* \"#utility.yul\":2922:3047   */\n      pop\n        /* \"#utility.yul\":2709:3054   */\n      swap3\n      swap2\n      pop\n      pop\n      jump\t// out\n        /* \"#utility.yul\":3060:3389   */\n    tag_44:\n        /* \"#utility.yul\":3119:3125   */\n      0x00\n        /* \"#utility.yul\":3168:3170   */\n      0x20\n        /* \"#utility.yul\":3156:3165   */\n      dup3\n        /* \"#utility.yul\":3147:3154   */\n      dup5\n        /* \"#utility.yul\":3143:3166   */\n      sub\n        /* \"#utility.yul\":3139:3171   */\n      slt\n        /* \"#utility.yul\":3136:3255   */\n      iszero\n      tag_374\n      jumpi\n        /* \"#utility.yul\":3174:3253   */\n      tag_375\n      tag_360\n      jump\t// in\n    tag_375:\n        /* \"#utility.yul\":3136:3255   */\n    tag_374:\n        /* \"#utility.yul\":3294:3295   */\n      0x00\n        /* \"#utility.yul\":3319:3372   */\n      tag_376\n        /* \"#utility.yul\":3364:3371   */\n      dup5\n        /* \"#utility.yul\":3355:3361   */\n      dup3\n        /* \"#utility.yul\":3344:3353   */\n      dup6\n        /* \"#utility.yul\":3340:3362   */\n      add\n        /* \"#utility.yul\":3319:3372   */\n      tag_353\n      jump\t// in\n    tag_376:\n        /* \"#utility.yul\":3309:3372   */\n      swap2\n      pop\n        /* \"#utility.yul\":3265:3382   */\n      pop\n        /* \"#utility.yul\":3060:3389   */\n      swap3\n      swap2\n      pop\n      pop\n      jump\t// out\n        /* \"#utility.yul\":3395:4924   */\n    tag_67:\n        /* \"#utility.yul\":3527:3533   */\n      0x00\n        /* \"#utility.yul\":3535:3541   */\n      dup1\n        /* \"#utility.yul\":3543:3549   */\n      0x00\n        /* \"#utility.yul\":3551:3557   */\n      dup1\n        /* \"#utility.yul\":3559:3565   */\n      0x00\n        /* \"#utility.yul\":3567:3573   */\n      dup1\n        /* \"#utility.yul\":3575:3581   */\n      0x00\n        /* \"#utility.yul\":3583:3589   */\n      dup1\n        /* \"#utility.yul\":3632:3635   */\n      0x0100\n        /* \"#utility.yul\":3620:3629   */\n      dup10\n        /* \"#utility.yul\":3611:3618   */\n      dup12\n        /* \"#utility.yul\":3607:3630   */\n      sub\n        /* \"#utility.yul\":3603:3636   */\n      slt\n        /* \"#utility.yul\":3600:3720   */\n      iszero\n      tag_378\n      jumpi\n        /* \"#utility.yul\":3639:3718   */\n      tag_379\n      tag_360\n      jump\t// in\n    tag_379:\n        /* \"#utility.yul\":3600:3720   */\n    tag_378:\n        /* \"#utility.yul\":3759:3760   */\n      0x00\n        /* \"#utility.yul\":3784:3837   */\n      tag_380\n        /* \"#utility.yul\":3829:3836   */\n      dup12\n        /* \"#utility.yul\":3820:3826   */\n      dup3\n        /* \"#utility.yul\":3809:3818   */\n      dup13\n        /* \"#utility.yul\":3805:3827   */\n      add\n        /* \"#utility.yul\":3784:3837   */\n      tag_353\n      jump\t// in\n    tag_380:\n        /* \"#utility.yul\":3774:3837   */\n      swap9\n      pop\n        /* \"#utility.yul\":3730:3847   */\n      pop\n        /* \"#utility.yul\":3914:3916   */\n      0x20\n        /* \"#utility.yul\":3903:3912   */\n      dup10\n        /* \"#utility.yul\":3899:3917   */\n      add\n        /* \"#utility.yul\":3886:3918   */\n      calldataload\n        /* \"#utility.yul\":3945:3963   */\n      0xffffffffffffffff\n        /* \"#utility.yul\":3937:3943   */\n      dup2\n        /* \"#utility.yul\":3934:3964   */\n      gt\n        /* \"#utility.yul\":3931:4048   */\n      iszero\n      tag_381\n      jumpi\n        /* \"#utility.yul\":3967:4046   */\n      tag_382\n      tag_367\n      jump\t// in\n    tag_382:\n        /* \"#utility.yul\":3931:4048   */\n    tag_381:\n        /* \"#utility.yul\":4072:4135   */\n      tag_383\n        /* \"#utility.yul\":4127:4134   */\n      dup12\n        /* \"#utility.yul\":4118:4124   */\n      dup3\n        /* \"#utility.yul\":4107:4116   */\n      dup13\n        /* \"#utility.yul\":4103:4125   */\n      add\n        /* \"#utility.yul\":4072:4135   */\n      tag_348\n      jump\t// in\n    tag_383:\n        /* \"#utility.yul\":4062:4135   */\n      swap8\n      pop\n        /* \"#utility.yul\":3857:4145   */\n      pop\n        /* \"#utility.yul\":4184:4186   */\n      0x40\n        /* \"#utility.yul\":4210:4263   */\n      tag_384\n        /* \"#utility.yul\":4255:4262   */\n      dup12\n        /* \"#utility.yul\":4246:4252   */\n      dup3\n        /* \"#utility.yul\":4235:4244   */\n      dup13\n        /* \"#utility.yul\":4231:4253   */\n      add\n        /* \"#utility.yul\":4210:4263   */\n      tag_353\n      jump\t// in\n    tag_384:\n        /* \"#utility.yul\":4200:4263   */\n      swap7\n      pop\n        /* \"#utility.yul\":4155:4273   */\n      pop\n        /* \"#utility.yul\":4312:4314   */\n      0x60\n        /* \"#utility.yul\":4338:4391   */\n      tag_385\n        /* \"#utility.yul\":4383:4390   */\n      dup12\n        /* \"#utility.yul\":4374:4380   */\n      dup3\n        /* \"#utility.yul\":4363:4372   */\n      dup13\n        /* \"#utility.yul\":4359:4381   */\n      add\n        /* \"#utility.yul\":4338:4391   */\n      tag_329\n      jump\t// in\n    tag_385:\n        /* \"#utility.yul\":4328:4391   */\n      swap6\n      pop\n        /* \"#utility.yul\":4283:4401   */\n      pop\n        /* \"#utility.yul\":4440:4443   */\n      0x80\n        /* \"#utility.yul\":4467:4520   */\n      tag_386\n        /* \"#utility.yul\":4512:4519   */\n      dup12\n        /* \"#utility.yul\":4503:4509   */\n      dup3\n        /* \"#utility.yul\":4492:4501   */\n      dup13\n        /* \"#utility.yul\":4488:4510   */\n      add\n        /* \"#utility.yul\":4467:4520   */\n      tag_353\n      jump\t// in\n    tag_386:\n        /* \"#utility.yul\":4457:4520   */\n      swap5\n      pop\n        /* \"#utility.yul\":4411:4530   */\n      pop\n        /* \"#utility.yul\":4569:4572   */\n      0xa0\n        /* \"#utility.yul\":4596:4649   */\n      tag_387\n        /* \"#utility.yul\":4641:4648   */\n      dup12\n        /* \"#utility.yul\":4632:4638   */\n      dup3\n        /* \"#utility.yul\":4621:4630   */\n      dup13\n        /* \"#utility.yul\":4617:4639   */\n      add\n        /* \"#utility.yul\":4596:4649   */\n      tag_353\n      jump\t// in\n    tag_387:\n        /* \"#utility.yul\":4586:4649   */\n      swap4\n      pop\n        /* \"#utility.yul\":4540:4659   */\n      pop\n        /* \"#utility.yul\":4698:4701   */\n      0xc0\n        /* \"#utility.yul\":4725:4778   */\n      tag_388\n        /* \"#utility.yul\":4770:4777   */\n      dup12\n        /* \"#utility.yul\":4761:4767   */\n      dup3\n        /* \"#utility.yul\":4750:4759   */\n      dup13\n        /* \"#utility.yul\":4746:4768   */\n      add\n        /* \"#utility.yul\":4725:4778   */\n      tag_353\n      jump\t// in\n    tag_388:\n        /* \"#utility.yul\":4715:4778   */\n      swap3\n      pop\n        /* \"#utility.yul\":4669:4788   */\n      pop\n        /* \"#utility.yul\":4827:4830   */\n      0xe0\n        /* \"#utility.yul\":4854:4907   */\n      tag_389\n        /* \"#utility.yul\":4899:4906   */\n      dup12\n        /* \"#utility.yul\":4890:4896   */\n      dup3\n        /* \"#utility.yul\":4879:4888   */\n      dup13\n        /* \"#utility.yul\":4875:4897   */\n      add\n        /* \"#utility.yul\":4854:4907   */\n      tag_353\n      jump\t// in\n    tag_389:\n        /* \"#utility.yul\":4844:4907   */\n      swap2\n      pop\n        /* \"#utility.yul\":4798:4917   */\n      pop\n        /* \"#utility.yul\":3395:4924   */\n      swap3\n      swap6\n      swap9\n      pop\n      swap3\n      swap6\n      swap9\n      swap1\n      swap4\n      swap7\n      pop\n      jump\t// out\n        /* \"#utility.yul\":4930:5109   */\n    tag_390:\n        /* \"#utility.yul\":4999:5009   */\n      0x00\n        /* \"#utility.yul\":5020:5066   */\n      tag_392\n        /* \"#utility.yul\":5062:5065   */\n      dup4\n        /* \"#utility.yul\":5054:5060   */\n      dup4\n        /* \"#utility.yul\":5020:5066   */\n      tag_393\n      jump\t// in\n    tag_392:\n        /* \"#utility.yul\":5098:5102   */\n      0x20\n        /* \"#utility.yul\":5093:5096   */\n      dup4\n        /* \"#utility.yul\":5089:5103   */\n      add\n        /* \"#utility.yul\":5075:5103   */\n      swap1\n      pop\n        /* \"#utility.yul\":4930:5109   */\n      swap3\n      swap2\n      pop\n      pop\n      jump\t// out\n        /* \"#utility.yul\":5115:5223   */\n    tag_393:\n        /* \"#utility.yul\":5192:5216   */\n      tag_395\n        /* \"#utility.yul\":5210:5215   */\n      dup2\n        /* \"#utility.yul\":5192:5216   */\n      tag_396\n      jump\t// in\n    tag_395:\n        /* \"#utility.yul\":5187:5190   */\n      dup3\n        /* \"#utility.yul\":5180:5217   */\n      mstore\n        /* \"#utility.yul\":5115:5223   */\n      pop\n      pop\n      jump\t// out\n        /* \"#utility.yul\":5229:5347   */\n    tag_397:\n        /* \"#utility.yul\":5316:5340   */\n      tag_399\n        /* \"#utility.yul\":5334:5339   */\n      dup2\n        /* \"#utility.yul\":5316:5340   */\n      tag_396\n      jump\t// in\n    tag_399:\n        /* \"#utility.yul\":5311:5314   */\n      dup3\n        /* \"#utility.yul\":5304:5341   */\n      mstore\n        /* \"#utility.yul\":5229:5347   */\n      pop\n      pop\n      jump\t// out\n        /* \"#utility.yul\":5383:6115   */\n    tag_400:\n        /* \"#utility.yul\":5502:5505   */\n      0x00\n        /* \"#utility.yul\":5531:5585   */\n      tag_402\n        /* \"#utility.yul\":5579:5584   */\n      dup3\n        /* \"#utility.yul\":5531:5585   */\n      tag_403\n      jump\t// in\n    tag_402:\n        /* \"#utility.yul\":5601:5687   */\n      tag_404\n        /* \"#utility.yul\":5680:5686   */\n      dup2\n        /* \"#utility.yul\":5675:5678   */\n      dup6\n        /* \"#utility.yul\":5601:5687   */\n      tag_405\n      jump\t// in\n    tag_404:\n        /* \"#utility.yul\":5594:5687   */\n      swap4\n      pop\n        /* \"#utility.yul\":5711:5767   */\n      tag_406\n        /* \"#utility.yul\":5761:5766   */\n      dup4\n        /* \"#utility.yul\":5711:5767   */\n      tag_407\n      jump\t// in\n    tag_406:\n        /* \"#utility.yul\":5790:5797   */\n      dup1\n        /* \"#utility.yul\":5821:5822   */\n      0x00\n        /* \"#utility.yul\":5806:6090   */\n    tag_408:\n        /* \"#utility.yul\":5831:5837   */\n      dup4\n        /* \"#utility.yul\":5828:5829   */\n      dup2\n        /* \"#utility.yul\":5825:5838   */\n      lt\n        /* \"#utility.yul\":5806:6090   */\n      iszero\n      tag_410\n      jumpi\n        /* \"#utility.yul\":5907:5913   */\n      dup2\n        /* \"#utility.yul\":5901:5914   */\n      mload\n        /* \"#utility.yul\":5934:5997   */\n      tag_411\n        /* \"#utility.yul\":5993:5996   */\n      dup9\n        /* \"#utility.yul\":5978:5991   */\n      dup3\n        /* \"#utility.yul\":5934:5997   */\n      tag_390\n      jump\t// in\n    tag_411:\n        /* \"#utility.yul\":5927:5997   */\n      swap8\n      pop\n        /* \"#utility.yul\":6020:6080   */\n      tag_412\n        /* \"#utility.yul\":6073:6079   */\n      dup4\n        /* \"#utility.yul\":6020:6080   */\n      tag_413\n      jump\t// in\n    tag_412:\n        /* \"#utility.yul\":6010:6080   */\n      swap3\n      pop\n        /* \"#utility.yul\":5866:6090   */\n      pop\n        /* \"#utility.yul\":5853:5854   */\n      0x01\n        /* \"#utility.yul\":5850:5851   */\n      dup2\n        /* \"#utility.yul\":5846:5855   */\n      add\n        /* \"#utility.yul\":5841:5855   */\n      swap1\n      pop\n        /* \"#utility.yul\":5806:6090   */\n      jump(tag_408)\n    tag_410:\n        /* \"#utility.yul\":5810:5824   */\n      pop\n        /* \"#utility.yul\":6106:6109   */\n      dup6\n        /* \"#utility.yul\":6099:6109   */\n      swap4\n      pop\n        /* \"#utility.yul\":5507:6115   */\n      pop\n      pop\n      pop\n        /* \"#utility.yul\":5383:6115   */\n      swap3\n      swap2\n      pop\n      pop\n      jump\t// out\n        /* \"#utility.yul\":6121:6230   */\n    tag_414:\n        /* \"#utility.yul\":6202:6223   */\n      tag_416\n        /* \"#utility.yul\":6217:6222   */\n      dup2\n        /* \"#utility.yul\":6202:6223   */\n      tag_417\n      jump\t// in\n    tag_416:\n        /* \"#utility.yul\":6197:6200   */\n      dup3\n        /* \"#utility.yul\":6190:6224   */\n      mstore\n        /* \"#utility.yul\":6121:6230   */\n      pop\n      pop\n      jump\t// out\n        /* \"#utility.yul\":6236:6354   */\n    tag_418:\n        /* \"#utility.yul\":6323:6347   */\n      tag_420\n        /* \"#utility.yul\":6341:6346   */\n      dup2\n        /* \"#utility.yul\":6323:6347   */\n      tag_421\n      jump\t// in\n    tag_420:\n        /* \"#utility.yul\":6318:6321   */\n      dup3\n        /* \"#utility.yul\":6311:6348   */\n      mstore\n        /* \"#utility.yul\":6236:6354   */\n      pop\n      pop\n      jump\t// out\n        /* \"#utility.yul\":6360:6537   */\n    tag_422:\n        /* \"#utility.yul\":6470:6530   */\n      tag_424\n        /* \"#utility.yul\":6524:6529   */\n      dup2\n        /* \"#utility.yul\":6470:6530   */\n      tag_425\n      jump\t// in\n    tag_424:\n        /* \"#utility.yul\":6465:6468   */\n      dup3\n        /* \"#utility.yul\":6458:6531   */\n      mstore\n        /* \"#utility.yul\":6360:6537   */\n      pop\n      pop\n      jump\t// out\n        /* \"#utility.yul\":6543:6692   */\n    tag_426:\n        /* \"#utility.yul\":6639:6685   */\n      tag_428\n        /* \"#utility.yul\":6679:6684   */\n      dup2\n        /* \"#utility.yul\":6639:6685   */\n      tag_429\n      jump\t// in\n    tag_428:\n        /* \"#utility.yul\":6634:6637   */\n      dup3\n        /* \"#utility.yul\":6627:6686   */\n      mstore\n        /* \"#utility.yul\":6543:6692   */\n      pop\n      pop\n      jump\t// out\n        /* \"#utility.yul\":6698:7062   */\n    tag_430:\n        /* \"#utility.yul\":6786:6789   */\n      0x00\n        /* \"#utility.yul\":6814:6853   */\n      tag_432\n        /* \"#utility.yul\":6847:6852   */\n      dup3\n        /* \"#utility.yul\":6814:6853   */\n      tag_433\n      jump\t// in\n    tag_432:\n        /* \"#utility.yul\":6869:6940   */\n      tag_434\n        /* \"#utility.yul\":6933:6939   */\n      dup2\n        /* \"#utility.yul\":6928:6931   */\n      dup6\n        /* \"#utility.yul\":6869:6940   */\n      tag_435\n      jump\t// in\n    tag_434:\n        /* \"#utility.yul\":6862:6940   */\n      swap4\n      pop\n        /* \"#utility.yul\":6949:7001   */\n      tag_436\n        /* \"#utility.yul\":6994:7000   */\n      dup2\n        /* \"#utility.yul\":6989:6992   */\n      dup6\n        /* \"#utility.yul\":6982:6986   */\n      0x20\n        /* \"#utility.yul\":6975:6980   */\n      dup7\n        /* \"#utility.yul\":6971:6987   */\n      add\n        /* \"#utility.yul\":6949:7001   */\n      tag_437\n      jump\t// in\n    tag_436:\n        /* \"#utility.yul\":7026:7055   */\n      tag_438\n        /* \"#utility.yul\":7048:7054   */\n      dup2\n        /* \"#utility.yul\":7026:7055   */\n      tag_439\n      jump\t// in\n    tag_438:\n        /* \"#utility.yul\":7021:7024   */\n      dup5\n        /* \"#utility.yul\":7017:7056   */\n      add\n        /* \"#utility.yul\":7010:7056   */\n      swap2\n      pop\n        /* \"#utility.yul\":6790:7062   */\n      pop\n        /* \"#utility.yul\":6698:7062   */\n      swap3\n      swap2\n      pop\n      pop\n      jump\t// out\n        /* \"#utility.yul\":7068:7434   */\n    tag_440:\n        /* \"#utility.yul\":7210:7213   */\n      0x00\n        /* \"#utility.yul\":7231:7298   */\n      tag_442\n        /* \"#utility.yul\":7295:7297   */\n      0x10\n        /* \"#utility.yul\":7290:7293   */\n      dup4\n        /* \"#utility.yul\":7231:7298   */\n      tag_435\n      jump\t// in\n    tag_442:\n        /* \"#utility.yul\":7224:7298   */\n      swap2\n      pop\n        /* \"#utility.yul\":7307:7400   */\n      tag_443\n        /* \"#utility.yul\":7396:7399   */\n      dup3\n        /* \"#utility.yul\":7307:7400   */\n      tag_444\n      jump\t// in\n    tag_443:\n        /* \"#utility.yul\":7425:7427   */\n      0x20\n        /* \"#utility.yul\":7420:7423   */\n      dup3\n        /* \"#utility.yul\":7416:7428   */\n      add\n        /* \"#utility.yul\":7409:7428   */\n      swap1\n      pop\n        /* \"#utility.yul\":7068:7434   */\n      swap2\n      swap1\n      pop\n      jump\t// out\n        /* \"#utility.yul\":7440:7806   */\n    tag_445:\n        /* \"#utility.yul\":7582:7585   */\n      0x00\n        /* \"#utility.yul\":7603:7670   */\n      tag_447\n        /* \"#utility.yul\":7667:7669   */\n      0x11\n        /* \"#utility.yul\":7662:7665   */\n      dup4\n        /* \"#utility.yul\":7603:7670   */\n      tag_435\n      jump\t// in\n    tag_447:\n        /* \"#utility.yul\":7596:7670   */\n      swap2\n      pop\n        /* \"#utility.yul\":7679:7772   */\n      tag_448\n        /* \"#utility.yul\":7768:7771   */\n      dup3\n        /* \"#utility.yul\":7679:7772   */\n      tag_449\n      jump\t// in\n    tag_448:\n        /* \"#utility.yul\":7797:7799   */\n      0x20\n        /* \"#utility.yul\":7792:7795   */\n      dup3\n        /* \"#utility.yul\":7788:7800   */\n      add\n        /* \"#utility.yul\":7781:7800   */\n      swap1\n      pop\n        /* \"#utility.yul\":7440:7806   */\n      swap2\n      swap1\n      pop\n      jump\t// out\n        /* \"#utility.yul\":7812:8178   */\n    tag_450:\n        /* \"#utility.yul\":7954:7957   */\n      0x00\n        /* \"#utility.yul\":7975:8042   */\n      tag_452\n        /* \"#utility.yul\":8039:8041   */\n      0x0a\n        /* \"#utility.yul\":8034:8037   */\n      dup4\n        /* \"#utility.yul\":7975:8042   */\n      tag_435\n      jump\t// in\n    tag_452:\n        /* \"#utility.yul\":7968:8042   */\n      swap2\n      pop\n        /* \"#utility.yul\":8051:8144   */\n      tag_453\n        /* \"#utility.yul\":8140:8143   */\n      dup3\n        /* \"#utility.yul\":8051:8144   */\n      tag_454\n      jump\t// in\n    tag_453:\n        /* \"#utility.yul\":8169:8171   */\n      0x20\n        /* \"#utility.yul\":8164:8167   */\n      dup3\n        /* \"#utility.yul\":8160:8172   */\n      add\n        /* \"#utility.yul\":8153:8172   */\n      swap1\n      pop\n        /* \"#utility.yul\":7812:8178   */\n      swap2\n      swap1\n      pop\n      jump\t// out\n        /* \"#utility.yul\":8184:8550   */\n    tag_455:\n        /* \"#utility.yul\":8326:8329   */\n      0x00\n        /* \"#utility.yul\":8347:8414   */\n      tag_457\n        /* \"#utility.yul\":8411:8413   */\n      0x10\n        /* \"#utility.yul\":8406:8409   */\n      dup4\n        /* \"#utility.yul\":8347:8414   */\n      tag_435\n      jump\t// in\n    tag_457:\n        /* \"#utility.yul\":8340:8414   */\n      swap2\n      pop\n        /* \"#utility.yul\":8423:8516   */\n      tag_458\n        /* \"#utility.yul\":8512:8515   */\n      dup3\n        /* \"#utility.yul\":8423:8516   */\n      tag_459\n      jump\t// in\n    tag_458:\n        /* \"#utility.yul\":8541:8543   */\n      0x20\n        /* \"#utility.yul\":8536:8539   */\n      dup3\n        /* \"#utility.yul\":8532:8544   */\n      add\n        /* \"#utility.yul\":8525:8544   */\n      swap1\n      pop\n        /* \"#utility.yul\":8184:8550   */\n      swap2\n      swap1\n      pop\n      jump\t// out\n        /* \"#utility.yul\":8556:8922   */\n    tag_460:\n        /* \"#utility.yul\":8698:8701   */\n      0x00\n        /* \"#utility.yul\":8719:8786   */\n      tag_462\n        /* \"#utility.yul\":8783:8785   */\n      0x1d\n        /* \"#utility.yul\":8778:8781   */\n      dup4\n        /* \"#utility.yul\":8719:8786   */\n      tag_435\n      jump\t// in\n    tag_462:\n        /* \"#utility.yul\":8712:8786   */\n      swap2\n      pop\n        /* \"#utility.yul\":8795:8888   */\n      tag_463\n        /* \"#utility.yul\":8884:8887   */\n      dup3\n        /* \"#utility.yul\":8795:8888   */\n      tag_464\n      jump\t// in\n    tag_463:\n        /* \"#utility.yul\":8913:8915   */\n      0x20\n        /* \"#utility.yul\":8908:8911   */\n      dup3\n        /* \"#utility.yul\":8904:8916   */\n      add\n        /* \"#utility.yul\":8897:8916   */\n      swap1\n      pop\n        /* \"#utility.yul\":8556:8922   */\n      swap2\n      swap1\n      pop\n      jump\t// out\n        /* \"#utility.yul\":8928:9294   */\n    tag_465:\n        /* \"#utility.yul\":9070:9073   */\n      0x00\n        /* \"#utility.yul\":9091:9158   */\n      tag_467\n        /* \"#utility.yul\":9155:9157   */\n      0x12\n        /* \"#utility.yul\":9150:9153   */\n      dup4\n        /* \"#utility.yul\":9091:9158   */\n      tag_435\n      jump\t// in\n    tag_467:\n        /* \"#utility.yul\":9084:9158   */\n      swap2\n      pop\n        /* \"#utility.yul\":9167:9260   */\n      tag_468\n        /* \"#utility.yul\":9256:9259   */\n      dup3\n        /* \"#utility.yul\":9167:9260   */\n      tag_469\n      jump\t// in\n    tag_468:\n        /* \"#utility.yul\":9285:9287   */\n      0x20\n        /* \"#utility.yul\":9280:9283   */\n      dup3\n        /* \"#utility.yul\":9276:9288   */\n      add\n        /* \"#utility.yul\":9269:9288   */\n      swap1\n      pop\n        /* \"#utility.yul\":8928:9294   */\n      swap2\n      swap1\n      pop\n      jump\t// out\n        /* \"#utility.yul\":9300:9666   */\n    tag_470:\n        /* \"#utility.yul\":9442:9445   */\n      0x00\n        /* \"#utility.yul\":9463:9530   */\n      tag_472\n        /* \"#utility.yul\":9527:9529   */\n      0x13\n        /* \"#utility.yul\":9522:9525   */\n      dup4\n        /* \"#utility.yul\":9463:9530   */\n      tag_435\n      jump\t// in\n    tag_472:\n        /* \"#utility.yul\":9456:9530   */\n      swap2\n      pop\n        /* \"#utility.yul\":9539:9632   */\n      tag_473\n        /* \"#utility.yul\":9628:9631   */\n      dup3\n        /* \"#utility.yul\":9539:9632   */\n      tag_474\n      jump\t// in\n    tag_473:\n        /* \"#utility.yul\":9657:9659   */\n      0x20\n        /* \"#utility.yul\":9652:9655   */\n      dup3\n        /* \"#utility.yul\":9648:9660   */\n      add\n        /* \"#utility.yul\":9641:9660   */\n      swap1\n      pop\n        /* \"#utility.yul\":9300:9666   */\n      swap2\n      swap1\n      pop\n      jump\t// out\n        /* \"#utility.yul\":9672:10038   */\n    tag_475:\n        /* \"#utility.yul\":9814:9817   */\n      0x00\n        /* \"#utility.yul\":9835:9902   */\n      tag_477\n        /* \"#utility.yul\":9899:9901   */\n      0x17\n        /* \"#utility.yul\":9894:9897   */\n      dup4\n        /* \"#utility.yul\":9835:9902   */\n      tag_435\n      jump\t// in\n    tag_477:\n        /* \"#utility.yul\":9828:9902   */\n      swap2\n      pop\n        /* \"#utility.yul\":9911:10004   */\n      tag_478\n        /* \"#utility.yul\":10000:10003   */\n      dup3\n        /* \"#utility.yul\":9911:10004   */\n      tag_479\n      jump\t// in\n    tag_478:\n        /* \"#utility.yul\":10029:10031   */\n      0x20\n        /* \"#utility.yul\":10024:10027   */\n      dup3\n        /* \"#utility.yul\":10020:10032   */\n      add\n        /* \"#utility.yul\":10013:10032   */\n      swap1\n      pop\n        /* \"#utility.yul\":9672:10038   */\n      swap2\n      swap1\n      pop\n      jump\t// out\n        /* \"#utility.yul\":10044:10410   */\n    tag_480:\n        /* \"#utility.yul\":10186:10189   */\n      0x00\n        /* \"#utility.yul\":10207:10274   */\n      tag_482\n        /* \"#utility.yul\":10271:10273   */\n      0x0d\n        /* \"#utility.yul\":10266:10269   */\n      dup4\n        /* \"#utility.yul\":10207:10274   */\n      tag_435\n      jump\t// in\n    tag_482:\n        /* \"#utility.yul\":10200:10274   */\n      swap2\n      pop\n        /* \"#utility.yul\":10283:10376   */\n      tag_483\n        /* \"#utility.yul\":10372:10375   */\n      dup3\n        /* \"#utility.yul\":10283:10376   */\n      tag_484\n      jump\t// in\n    tag_483:\n        /* \"#utility.yul\":10401:10403   */\n      0x20\n        /* \"#utility.yul\":10396:10399   */\n      dup3\n        /* \"#utility.yul\":10392:10404   */\n      add\n        /* \"#utility.yul\":10385:10404   */\n      swap1\n      pop\n        /* \"#utility.yul\":10044:10410   */\n      swap2\n      swap1\n      pop\n      jump\t// out\n        /* \"#utility.yul\":10416:10782   */\n    tag_485:\n        /* \"#utility.yul\":10558:10561   */\n      0x00\n        /* \"#utility.yul\":10579:10646   */\n      tag_487\n        /* \"#utility.yul\":10643:10645   */\n      0x0d\n        /* \"#utility.yul\":10638:10641   */\n      dup4\n        /* \"#utility.yul\":10579:10646   */\n      tag_435\n      jump\t// in\n    tag_487:\n        /* \"#utility.yul\":10572:10646   */\n      swap2\n      pop\n        /* \"#utility.yul\":10655:10748   */\n      tag_488\n        /* \"#utility.yul\":10744:10747   */\n      dup3\n        /* \"#utility.yul\":10655:10748   */\n      tag_489\n      jump\t// in\n    tag_488:\n        /* \"#utility.yul\":10773:10775   */\n      0x20\n        /* \"#utility.yul\":10768:10771   */\n      dup3\n        /* \"#utility.yul\":10764:10776   */\n      add\n        /* \"#utility.yul\":10757:10776   */\n      swap1\n      pop\n        /* \"#utility.yul\":10416:10782   */\n      swap2\n      swap1\n      pop\n      jump\t// out\n        /* \"#utility.yul\":10788:10906   */\n    tag_490:\n        /* \"#utility.yul\":10875:10899   */\n      tag_492\n        /* \"#utility.yul\":10893:10898   */\n      dup2\n        /* \"#utility.yul\":10875:10899   */\n      tag_493\n      jump\t// in\n    tag_492:\n        /* \"#utility.yul\":10870:10873   */\n      dup3\n        /* \"#utility.yul\":10863:10900   */\n      mstore\n        /* \"#utility.yul\":10788:10906   */\n      pop\n      pop\n      jump\t// out\n        /* \"#utility.yul\":10912:11134   */\n    tag_37:\n        /* \"#utility.yul\":11005:11009   */\n      0x00\n        /* \"#utility.yul\":11043:11045   */\n      0x20\n        /* \"#utility.yul\":11032:11041   */\n      dup3\n        /* \"#utility.yul\":11028:11046   */\n      add\n        /* \"#utility.yul\":11020:11046   */\n      swap1\n      pop\n        /* \"#utility.yul\":11056:11127   */\n      tag_495\n        /* \"#utility.yul\":11124:11125   */\n      0x00\n        /* \"#utility.yul\":11113:11122   */\n      dup4\n        /* \"#utility.yul\":11109:11126   */\n      add\n        /* \"#utility.yul\":11100:11106   */\n      dup5\n        /* \"#utility.yul\":11056:11127   */\n      tag_397\n      jump\t// in\n    tag_495:\n        /* \"#utility.yul\":10912:11134   */\n      swap3\n      swap2\n      pop\n      pop\n      jump\t// out\n        /* \"#utility.yul\":11140:11460   */\n    tag_59:\n        /* \"#utility.yul\":11255:11259   */\n      0x00\n        /* \"#utility.yul\":11293:11295   */\n      0x40\n        /* \"#utility.yul\":11282:11291   */\n      dup3\n        /* \"#utility.yul\":11278:11296   */\n      add\n        /* \"#utility.yul\":11270:11296   */\n      swap1\n      pop\n        /* \"#utility.yul\":11306:11377   */\n      tag_497\n        /* \"#utility.yul\":11374:11375   */\n      0x00\n        /* \"#utility.yul\":11363:11372   */\n      dup4\n        /* \"#utility.yul\":11359:11376   */\n      add\n        /* \"#utility.yul\":11350:11356   */\n      dup6\n        /* \"#utility.yul\":11306:11377   */\n      tag_397\n      jump\t// in\n    tag_497:\n        /* \"#utility.yul\":11387:11453   */\n      tag_498\n        /* \"#utility.yul\":11449:11451   */\n      0x20\n        /* \"#utility.yul\":11438:11447   */\n      dup4\n        /* \"#utility.yul\":11434:11452   */\n      add\n        /* \"#utility.yul\":11425:11431   */\n      dup5\n        /* \"#utility.yul\":11387:11453   */\n      tag_414\n      jump\t// in\n    tag_498:\n        /* \"#utility.yul\":11140:11460   */\n      swap4\n      swap3\n      pop\n      pop\n      pop\n      jump\t// out\n        /* \"#utility.yul\":11466:11839   */\n    tag_72:\n        /* \"#utility.yul\":11609:11613   */\n      0x00\n        /* \"#utility.yul\":11647:11649   */\n      0x20\n        /* \"#utility.yul\":11636:11645   */\n      dup3\n        /* \"#utility.yul\":11632:11650   */\n      add\n        /* \"#utility.yul\":11624:11650   */\n      swap1\n      pop\n        /* \"#utility.yul\":11696:11705   */\n      dup2\n        /* \"#utility.yul\":11690:11694   */\n      dup2\n        /* \"#utility.yul\":11686:11706   */\n      sub\n        /* \"#utility.yul\":11682:11683   */\n      0x00\n        /* \"#utility.yul\":11671:11680   */\n      dup4\n        /* \"#utility.yul\":11667:11684   */\n      add\n        /* \"#utility.yul\":11660:11707   */\n      mstore\n        /* \"#utility.yul\":11724:11832   */\n      tag_500\n        /* \"#utility.yul\":11827:11831   */\n      dup2\n        /* \"#utility.yul\":11818:11824   */\n      dup5\n        /* \"#utility.yul\":11724:11832   */\n      tag_400\n      jump\t// in\n    tag_500:\n        /* \"#utility.yul\":11716:11832   */\n      swap1\n      pop\n        /* \"#utility.yul\":11466:11839   */\n      swap3\n      swap2\n      pop\n      pop\n      jump\t// out\n        /* \"#utility.yul\":11845:12055   */\n    tag_64:\n        /* \"#utility.yul\":11932:11936   */\n      0x00\n        /* \"#utility.yul\":11970:11972   */\n      0x20\n        /* \"#utility.yul\":11959:11968   */\n      dup3\n        /* \"#utility.yul\":11955:11973   */\n      add\n        /* \"#utility.yul\":11947:11973   */\n      swap1\n      pop\n        /* \"#utility.yul\":11983:12048   */\n      tag_502\n        /* \"#utility.yul\":12045:12046   */\n      0x00\n        /* \"#utility.yul\":12034:12043   */\n      dup4\n        /* \"#utility.yul\":12030:12047   */\n      add\n        /* \"#utility.yul\":12021:12027   */\n      dup5\n        /* \"#utility.yul\":11983:12048   */\n      tag_414\n      jump\t// in\n    tag_502:\n        /* \"#utility.yul\":11845:12055   */\n      swap3\n      swap2\n      pop\n      pop\n      jump\t// out\n        /* \"#utility.yul\":12061:12393   */\n    tag_106:\n        /* \"#utility.yul\":12182:12186   */\n      0x00\n        /* \"#utility.yul\":12220:12222   */\n      0x40\n        /* \"#utility.yul\":12209:12218   */\n      dup3\n        /* \"#utility.yul\":12205:12223   */\n      add\n        /* \"#utility.yul\":12197:12223   */\n      swap1\n      pop\n        /* \"#utility.yul\":12233:12304   */\n      tag_504\n        /* \"#utility.yul\":12301:12302   */\n      0x00\n        /* \"#utility.yul\":12290:12299   */\n      dup4\n        /* \"#utility.yul\":12286:12303   */\n      add\n        /* \"#utility.yul\":12277:12283   */\n      dup6\n        /* \"#utility.yul\":12233:12304   */\n      tag_418\n      jump\t// in\n    tag_504:\n        /* \"#utility.yul\":12314:12386   */\n      tag_505\n        /* \"#utility.yul\":12382:12384   */\n      0x20\n        /* \"#utility.yul\":12371:12380   */\n      dup4\n        /* \"#utility.yul\":12367:12385   */\n      add\n        /* \"#utility.yul\":12358:12364   */\n      dup5\n        /* \"#utility.yul\":12314:12386   */\n      tag_397\n      jump\t// in\n    tag_505:\n        /* \"#utility.yul\":12061:12393   */\n      swap4\n      swap3\n      pop\n      pop\n      pop\n      jump\t// out\n        /* \"#utility.yul\":12399:12667   */\n    tag_76:\n        /* \"#utility.yul\":12515:12519   */\n      0x00\n        /* \"#utility.yul\":12553:12555   */\n      0x20\n        /* \"#utility.yul\":12542:12551   */\n      dup3\n        /* \"#utility.yul\":12538:12556   */\n      add\n        /* \"#utility.yul\":12530:12556   */\n      swap1\n      pop\n        /* \"#utility.yul\":12566:12660   */\n      tag_507\n        /* \"#utility.yul\":12657:12658   */\n      0x00\n        /* \"#utility.yul\":12646:12655   */\n      dup4\n        /* \"#utility.yul\":12642:12659   */\n      add\n        /* \"#utility.yul\":12633:12639   */\n      dup5\n        /* \"#utility.yul\":12566:12660   */\n      tag_422\n      jump\t// in\n    tag_507:\n        /* \"#utility.yul\":12399:12667   */\n      swap3\n      swap2\n      pop\n      pop\n      jump\t// out\n        /* \"#utility.yul\":12673:12913   */\n    tag_33:\n        /* \"#utility.yul\":12775:12779   */\n      0x00\n        /* \"#utility.yul\":12813:12815   */\n      0x20\n        /* \"#utility.yul\":12802:12811   */\n      dup3\n        /* \"#utility.yul\":12798:12816   */\n      add\n        /* \"#utility.yul\":12790:12816   */\n      swap1\n      pop\n        /* \"#utility.yul\":12826:12906   */\n      tag_509\n        /* \"#utility.yul\":12903:12904   */\n      0x00\n        /* \"#utility.yul\":12892:12901   */\n      dup4\n        /* \"#utility.yul\":12888:12905   */\n      add\n        /* \"#utility.yul\":12879:12885   */\n      dup5\n        /* \"#utility.yul\":12826:12906   */\n      tag_426\n      jump\t// in\n    tag_509:\n        /* \"#utility.yul\":12673:12913   */\n      swap3\n      swap2\n      pop\n      pop\n      jump\t// out\n        /* \"#utility.yul\":12919:13338   */\n    tag_188:\n        /* \"#utility.yul\":13085:13089   */\n      0x00\n        /* \"#utility.yul\":13123:13125   */\n      0x20\n        /* \"#utility.yul\":13112:13121   */\n      dup3\n        /* \"#utility.yul\":13108:13126   */\n      add\n        /* \"#utility.yul\":13100:13126   */\n      swap1\n      pop\n        /* \"#utility.yul\":13172:13181   */\n      dup2\n        /* \"#utility.yul\":13166:13170   */\n      dup2\n        /* \"#utility.yul\":13162:13182   */\n      sub\n        /* \"#utility.yul\":13158:13159   */\n      0x00\n        /* \"#utility.yul\":13147:13156   */\n      dup4\n        /* \"#utility.yul\":13143:13160   */\n      add\n        /* \"#utility.yul\":13136:13183   */\n      mstore\n        /* \"#utility.yul\":13200:13331   */\n      tag_511\n        /* \"#utility.yul\":13326:13330   */\n      dup2\n        /* \"#utility.yul\":13200:13331   */\n      tag_440\n      jump\t// in\n    tag_511:\n        /* \"#utility.yul\":13192:13331   */\n      swap1\n      pop\n        /* \"#utility.yul\":12919:13338   */\n      swap2\n      swap1\n      pop\n      jump\t// out\n        /* \"#utility.yul\":13344:13763   */\n    tag_126:\n        /* \"#utility.yul\":13510:13514   */\n      0x00\n        /* \"#utility.yul\":13548:13550   */\n      0x20\n        /* \"#utility.yul\":13537:13546   */\n      dup3\n        /* \"#utility.yul\":13533:13551   */\n      add\n        /* \"#utility.yul\":13525:13551   */\n      swap1\n      pop\n        /* \"#utility.yul\":13597:13606   */\n      dup2\n        /* \"#utility.yul\":13591:13595   */\n      dup2\n        /* \"#utility.yul\":13587:13607   */\n      sub\n        /* \"#utility.yul\":13583:13584   */\n      0x00\n        /* \"#utility.yul\":13572:13581   */\n      dup4\n        /* \"#utility.yul\":13568:13585   */\n      add\n        /* \"#utility.yul\":13561:13608   */\n      mstore\n        /* \"#utility.yul\":13625:13756   */\n      tag_513\n        /* \"#utility.yul\":13751:13755   */\n      dup2\n        /* \"#utility.yul\":13625:13756   */\n      tag_445\n      jump\t// in\n    tag_513:\n        /* \"#utility.yul\":13617:13756   */\n      swap1\n      pop\n        /* \"#utility.yul\":13344:13763   */\n      swap2\n      swap1\n      pop\n      jump\t// out\n        /* \"#utility.yul\":13769:14188   */\n    tag_164:\n        /* \"#utility.yul\":13935:13939   */\n      0x00\n        /* \"#utility.yul\":13973:13975   */\n      0x20\n        /* \"#utility.yul\":13962:13971   */\n      dup3\n        /* \"#utility.yul\":13958:13976   */\n      add\n        /* \"#utility.yul\":13950:13976   */\n      swap1\n      pop\n        /* \"#utility.yul\":14022:14031   */\n      dup2\n        /* \"#utility.yul\":14016:14020   */\n      dup2\n        /* \"#utility.yul\":14012:14032   */\n      sub\n        /* \"#utility.yul\":14008:14009   */\n      0x00\n        /* \"#utility.yul\":13997:14006   */\n      dup4\n        /* \"#utility.yul\":13993:14010   */\n      add\n        /* \"#utility.yul\":13986:14033   */\n      mstore\n        /* \"#utility.yul\":14050:14181   */\n      tag_515\n        /* \"#utility.yul\":14176:14180   */\n      dup2\n        /* \"#utility.yul\":14050:14181   */\n      tag_450\n      jump\t// in\n    tag_515:\n        /* \"#utility.yul\":14042:14181   */\n      swap1\n      pop\n        /* \"#utility.yul\":13769:14188   */\n      swap2\n      swap1\n      pop\n      jump\t// out\n        /* \"#utility.yul\":14194:14613   */\n    tag_114:\n        /* \"#utility.yul\":14360:14364   */\n      0x00\n        /* \"#utility.yul\":14398:14400   */\n      0x20\n        /* \"#utility.yul\":14387:14396   */\n      dup3\n        /* \"#utility.yul\":14383:14401   */\n      add\n        /* \"#utility.yul\":14375:14401   */\n      swap1\n      pop\n        /* \"#utility.yul\":14447:14456   */\n      dup2\n        /* \"#utility.yul\":14441:14445   */\n      dup2\n        /* \"#utility.yul\":14437:14457   */\n      sub\n        /* \"#utility.yul\":14433:14434   */\n      0x00\n        /* \"#utility.yul\":14422:14431   */\n      dup4\n        /* \"#utility.yul\":14418:14435   */\n      add\n        /* \"#utility.yul\":14411:14458   */\n      mstore\n        /* \"#utility.yul\":14475:14606   */\n      tag_517\n        /* \"#utility.yul\":14601:14605   */\n      dup2\n        /* \"#utility.yul\":14475:14606   */\n      tag_455\n      jump\t// in\n    tag_517:\n        /* \"#utility.yul\":14467:14606   */\n      swap1\n      pop\n        /* \"#utility.yul\":14194:14613   */\n      swap2\n      swap1\n      pop\n      jump\t// out\n        /* \"#utility.yul\":14619:15038   */\n    tag_137:\n        /* \"#utility.yul\":14785:14789   */\n      0x00\n        /* \"#utility.yul\":14823:14825   */\n      0x20\n        /* \"#utility.yul\":14812:14821   */\n      dup3\n        /* \"#utility.yul\":14808:14826   */\n      add\n        /* \"#utility.yul\":14800:14826   */\n      swap1\n      pop\n        /* \"#utility.yul\":14872:14881   */\n      dup2\n        /* \"#utility.yul\":14866:14870   */\n      dup2\n        /* \"#utility.yul\":14862:14882   */\n      sub\n        /* \"#utility.yul\":14858:14859   */\n      0x00\n        /* \"#utility.yul\":14847:14856   */\n      dup4\n        /* \"#utility.yul\":14843:14860   */\n      add\n        /* \"#utility.yul\":14836:14883   */\n      mstore\n        /* \"#utility.yul\":14900:15031   */\n      tag_519\n        /* \"#utility.yul\":15026:15030   */\n      dup2\n        /* \"#utility.yul\":14900:15031   */\n      tag_460\n      jump\t// in\n    tag_519:\n        /* \"#utility.yul\":14892:15031   */\n      swap1\n      pop\n        /* \"#utility.yul\":14619:15038   */\n      swap2\n      swap1\n      pop\n      jump\t// out\n        /* \"#utility.yul\":15044:15463   */\n    tag_301:\n        /* \"#utility.yul\":15210:15214   */\n      0x00\n        /* \"#utility.yul\":15248:15250   */\n      0x20\n        /* \"#utility.yul\":15237:15246   */\n      dup3\n        /* \"#utility.yul\":15233:15251   */\n      add\n        /* \"#utility.yul\":15225:15251   */\n      swap1\n      pop\n        /* \"#utility.yul\":15297:15306   */\n      dup2\n        /* \"#utility.yul\":15291:15295   */\n      dup2\n        /* \"#utility.yul\":15287:15307   */\n      sub\n        /* \"#utility.yul\":15283:15284   */\n      0x00\n        /* \"#utility.yul\":15272:15281   */\n      dup4\n        /* \"#utility.yul\":15268:15285   */\n      add\n        /* \"#utility.yul\":15261:15308   */\n      mstore\n        /* \"#utility.yul\":15325:15456   */\n      tag_521\n        /* \"#utility.yul\":15451:15455   */\n      dup2\n        /* \"#utility.yul\":15325:15456   */\n      tag_465\n      jump\t// in\n    tag_521:\n        /* \"#utility.yul\":15317:15456   */\n      swap1\n      pop\n        /* \"#utility.yul\":15044:15463   */\n      swap2\n      swap1\n      pop\n      jump\t// out\n        /* \"#utility.yul\":15469:15888   */\n    tag_208:\n        /* \"#utility.yul\":15635:15639   */\n      0x00\n        /* \"#utility.yul\":15673:15675   */\n      0x20\n        /* \"#utility.yul\":15662:15671   */\n      dup3\n        /* \"#utility.yul\":15658:15676   */\n      add\n        /* \"#utility.yul\":15650:15676   */\n      swap1\n      pop\n        /* \"#utility.yul\":15722:15731   */\n      dup2\n        /* \"#utility.yul\":15716:15720   */\n      dup2\n        /* \"#utility.yul\":15712:15732   */\n      sub\n        /* \"#utility.yul\":15708:15709   */\n      0x00\n        /* \"#utility.yul\":15697:15706   */\n      dup4\n        /* \"#utility.yul\":15693:15710   */\n      add\n        /* \"#utility.yul\":15686:15733   */\n      mstore\n        /* \"#utility.yul\":15750:15881   */\n      tag_523\n        /* \"#utility.yul\":15876:15880   */\n      dup2\n        /* \"#utility.yul\":15750:15881   */\n      tag_470\n      jump\t// in\n    tag_523:\n        /* \"#utility.yul\":15742:15881   */\n      swap1\n      pop\n        /* \"#utility.yul\":15469:15888   */\n      swap2\n      swap1\n      pop\n      jump\t// out\n        /* \"#utility.yul\":15894:16313   */\n    tag_152:\n        /* \"#utility.yul\":16060:16064   */\n      0x00\n        /* \"#utility.yul\":16098:16100   */\n      0x20\n        /* \"#utility.yul\":16087:16096   */\n      dup3\n        /* \"#utility.yul\":16083:16101   */\n      add\n        /* \"#utility.yul\":16075:16101   */\n      swap1\n      pop\n        /* \"#utility.yul\":16147:16156   */\n      dup2\n        /* \"#utility.yul\":16141:16145   */\n      dup2\n        /* \"#utility.yul\":16137:16157   */\n      sub\n        /* \"#utility.yul\":16133:16134   */\n      0x00\n        /* \"#utility.yul\":16122:16131   */\n      dup4\n        /* \"#utility.yul\":16118:16135   */\n      add\n        /* \"#utility.yul\":16111:16158   */\n      mstore\n        /* \"#utility.yul\":16175:16306   */\n      tag_525\n        /* \"#utility.yul\":16301:16305   */\n      dup2\n        /* \"#utility.yul\":16175:16306   */\n      tag_475\n      jump\t// in\n    tag_525:\n        /* \"#utility.yul\":16167:16306   */\n      swap1\n      pop\n        /* \"#utility.yul\":15894:16313   */\n      swap2\n      swap1\n      pop\n      jump\t// out\n        /* \"#utility.yul\":16319:16738   */\n    tag_201:\n        /* \"#utility.yul\":16485:16489   */\n      0x00\n        /* \"#utility.yul\":16523:16525   */\n      0x20\n        /* \"#utility.yul\":16512:16521   */\n      dup3\n        /* \"#utility.yul\":16508:16526   */\n      add\n        /* \"#utility.yul\":16500:16526   */\n      swap1\n      pop\n        /* \"#utility.yul\":16572:16581   */\n      dup2\n        /* \"#utility.yul\":16566:16570   */\n      dup2\n        /* \"#utility.yul\":16562:16582   */\n      sub\n        /* \"#utility.yul\":16558:16559   */\n      0x00\n        /* \"#utility.yul\":16547:16556   */\n      dup4\n        /* \"#utility.yul\":16543:16560   */\n      add\n        /* \"#utility.yul\":16536:16583   */\n      mstore\n        /* \"#utility.yul\":16600:16731   */\n      tag_527\n        /* \"#utility.yul\":16726:16730   */\n      dup2\n        /* \"#utility.yul\":16600:16731   */\n      tag_480\n      jump\t// in\n    tag_527:\n        /* \"#utility.yul\":16592:16731   */\n      swap1\n      pop\n        /* \"#utility.yul\":16319:16738   */\n      swap2\n      swap1\n      pop\n      jump\t// out\n        /* \"#utility.yul\":16744:17163   */\n    tag_103:\n        /* \"#utility.yul\":16910:16914   */\n      0x00\n        /* \"#utility.yul\":16948:16950   */\n      0x20\n        /* \"#utility.yul\":16937:16946   */\n      dup3\n        /* \"#utility.yul\":16933:16951   */\n      add\n        /* \"#utility.yul\":16925:16951   */\n      swap1\n      pop\n        /* \"#utility.yul\":16997:17006   */\n      dup2\n        /* \"#utility.yul\":16991:16995   */\n      dup2\n        /* \"#utility.yul\":16987:17007   */\n      sub\n        /* \"#utility.yul\":16983:16984   */\n      0x00\n        /* \"#utility.yul\":16972:16981   */\n      dup4\n        /* \"#utility.yul\":16968:16985   */\n      add\n        /* \"#utility.yul\":16961:17008   */\n      mstore\n        /* \"#utility.yul\":17025:17156   */\n      tag_529\n        /* \"#utility.yul\":17151:17155   */\n      dup2\n        /* \"#utility.yul\":17025:17156   */\n      tag_485\n      jump\t// in\n    tag_529:\n        /* \"#utility.yul\":17017:17156   */\n      swap1\n      pop\n        /* \"#utility.yul\":16744:17163   */\n      swap2\n      swap1\n      pop\n      jump\t// out\n        /* \"#utility.yul\":17169:17391   */\n    tag_80:\n        /* \"#utility.yul\":17262:17266   */\n      0x00\n        /* \"#utility.yul\":17300:17302   */\n      0x20\n        /* \"#utility.yul\":17289:17298   */\n      dup3\n        /* \"#utility.yul\":17285:17303   */\n      add\n        /* \"#utility.yul\":17277:17303   */\n      swap1\n      pop\n        /* \"#utility.yul\":17313:17384   */\n      tag_531\n        /* \"#utility.yul\":17381:17382   */\n      0x00\n        /* \"#utility.yul\":17370:17379   */\n      dup4\n        /* \"#utility.yul\":17366:17383   */\n      add\n        /* \"#utility.yul\":17357:17363   */\n      dup5\n        /* \"#utility.yul\":17313:17384   */\n      tag_490\n      jump\t// in\n    tag_531:\n        /* \"#utility.yul\":17169:17391   */\n      swap3\n      swap2\n      pop\n      pop\n      jump\t// out\n        /* \"#utility.yul\":17397:18485   */\n    tag_27:\n        /* \"#utility.yul\":17706:17710   */\n      0x00\n        /* \"#utility.yul\":17744:17747   */\n      0x0100\n        /* \"#utility.yul\":17733:17742   */\n      dup3\n        /* \"#utility.yul\":17729:17748   */\n      add\n        /* \"#utility.yul\":17721:17748   */\n      swap1\n      pop\n        /* \"#utility.yul\":17758:17829   */\n      tag_533\n        /* \"#utility.yul\":17826:17827   */\n      0x00\n        /* \"#utility.yul\":17815:17824   */\n      dup4\n        /* \"#utility.yul\":17811:17828   */\n      add\n        /* \"#utility.yul\":17802:17808   */\n      dup12\n        /* \"#utility.yul\":17758:17829   */\n      tag_490\n      jump\t// in\n    tag_533:\n        /* \"#utility.yul\":17876:17885   */\n      dup2\n        /* \"#utility.yul\":17870:17874   */\n      dup2\n        /* \"#utility.yul\":17866:17886   */\n      sub\n        /* \"#utility.yul\":17861:17863   */\n      0x20\n        /* \"#utility.yul\":17850:17859   */\n      dup4\n        /* \"#utility.yul\":17846:17864   */\n      add\n        /* \"#utility.yul\":17839:17887   */\n      mstore\n        /* \"#utility.yul\":17904:17982   */\n      tag_534\n        /* \"#utility.yul\":17977:17981   */\n      dup2\n        /* \"#utility.yul\":17968:17974   */\n      dup11\n        /* \"#utility.yul\":17904:17982   */\n      tag_430\n      jump\t// in\n    tag_534:\n        /* \"#utility.yul\":17896:17982   */\n      swap1\n      pop\n        /* \"#utility.yul\":17992:18064   */\n      tag_535\n        /* \"#utility.yul\":18060:18062   */\n      0x40\n        /* \"#utility.yul\":18049:18058   */\n      dup4\n        /* \"#utility.yul\":18045:18063   */\n      add\n        /* \"#utility.yul\":18036:18042   */\n      dup10\n        /* \"#utility.yul\":17992:18064   */\n      tag_490\n      jump\t// in\n    tag_535:\n        /* \"#utility.yul\":18074:18146   */\n      tag_536\n        /* \"#utility.yul\":18142:18144   */\n      0x60\n        /* \"#utility.yul\":18131:18140   */\n      dup4\n        /* \"#utility.yul\":18127:18145   */\n      add\n        /* \"#utility.yul\":18118:18124   */\n      dup9\n        /* \"#utility.yul\":18074:18146   */\n      tag_397\n      jump\t// in\n    tag_536:\n        /* \"#utility.yul\":18156:18229   */\n      tag_537\n        /* \"#utility.yul\":18224:18227   */\n      0x80\n        /* \"#utility.yul\":18213:18222   */\n      dup4\n        /* \"#utility.yul\":18209:18228   */\n      add\n        /* \"#utility.yul\":18200:18206   */\n      dup8\n        /* \"#utility.yul\":18156:18229   */\n      tag_490\n      jump\t// in\n    tag_537:\n        /* \"#utility.yul\":18239:18312   */\n      tag_538\n        /* \"#utility.yul\":18307:18310   */\n      0xa0\n        /* \"#utility.yul\":18296:18305   */\n      dup4\n        /* \"#utility.yul\":18292:18311   */\n      add\n        /* \"#utility.yul\":18283:18289   */\n      dup7\n        /* \"#utility.yul\":18239:18312   */\n      tag_490\n      jump\t// in\n    tag_538:\n        /* \"#utility.yul\":18322:18395   */\n      tag_539\n        /* \"#utility.yul\":18390:18393   */\n      0xc0\n        /* \"#utility.yul\":18379:18388   */\n      dup4\n        /* \"#utility.yul\":18375:18394   */\n      add\n        /* \"#utility.yul\":18366:18372   */\n      dup6\n        /* \"#utility.yul\":18322:18395   */\n      tag_490\n      jump\t// in\n    tag_539:\n        /* \"#utility.yul\":18405:18478   */\n      tag_540\n        /* \"#utility.yul\":18473:18476   */\n      0xe0\n        /* \"#utility.yul\":18462:18471   */\n      dup4\n        /* \"#utility.yul\":18458:18477   */\n      add\n        /* \"#utility.yul\":18449:18455   */\n      dup5\n        /* \"#utility.yul\":18405:18478   */\n      tag_490\n      jump\t// in\n    tag_540:\n        /* \"#utility.yul\":17397:18485   */\n      swap10\n      swap9\n      pop\n      pop\n      pop\n      pop\n      pop\n      pop\n      pop\n      pop\n      pop\n      jump\t// out\n        /* \"#utility.yul\":18491:18823   */\n    tag_275:\n        /* \"#utility.yul\":18612:18616   */\n      0x00\n        /* \"#utility.yul\":18650:18652   */\n      0x40\n        /* \"#utility.yul\":18639:18648   */\n      dup3\n        /* \"#utility.yul\":18635:18653   */\n      add\n        /* \"#utility.yul\":18627:18653   */\n      swap1\n      pop\n        /* \"#utility.yul\":18663:18734   */\n      tag_542\n        /* \"#utility.yul\":18731:18732   */\n      0x00\n        /* \"#utility.yul\":18720:18729   */\n      dup4\n        /* \"#utility.yul\":18716:18733   */\n      add\n        /* \"#utility.yul\":18707:18713   */\n      dup6\n        /* \"#utility.yul\":18663:18734   */\n      tag_490\n      jump\t// in\n    tag_542:\n        /* \"#utility.yul\":18744:18816   */\n      tag_543\n        /* \"#utility.yul\":18812:18814   */\n      0x20\n        /* \"#utility.yul\":18801:18810   */\n      dup4\n        /* \"#utility.yul\":18797:18815   */\n      add\n        /* \"#utility.yul\":18788:18794   */\n      dup5\n        /* \"#utility.yul\":18744:18816   */\n      tag_490\n      jump\t// in\n    tag_543:\n        /* \"#utility.yul\":18491:18823   */\n      swap4\n      swap3\n      pop\n      pop\n      pop\n      jump\t// out\n        /* \"#utility.yul\":18829:18958   */\n    tag_323:\n        /* \"#utility.yul\":18863:18869   */\n      0x00\n        /* \"#utility.yul\":18890:18910   */\n      tag_545\n      tag_546\n      jump\t// in\n    tag_545:\n        /* \"#utility.yul\":18880:18910   */\n      swap1\n      pop\n        /* \"#utility.yul\":18919:18952   */\n      tag_547\n        /* \"#utility.yul\":18947:18951   */\n      dup3\n        /* \"#utility.yul\":18939:18945   */\n      dup3\n        /* \"#utility.yul\":18919:18952   */\n      tag_548\n      jump\t// in\n    tag_547:\n        /* \"#utility.yul\":18829:18958   */\n      swap2\n      swap1\n      pop\n      jump\t// out\n        /* \"#utility.yul\":18964:19039   */\n    tag_546:\n        /* \"#utility.yul\":18997:19003   */\n      0x00\n        /* \"#utility.yul\":19030:19032   */\n      0x40\n        /* \"#utility.yul\":19024:19033   */\n      mload\n        /* \"#utility.yul\":19014:19033   */\n      swap1\n      pop\n        /* \"#utility.yul\":18964:19039   */\n      swap1\n      jump\t// out\n        /* \"#utility.yul\":19045:19353   */\n    tag_322:\n        /* \"#utility.yul\":19107:19111   */\n      0x00\n        /* \"#utility.yul\":19197:19215   */\n      0xffffffffffffffff\n        /* \"#utility.yul\":19189:19195   */\n      dup3\n        /* \"#utility.yul\":19186:19216   */\n      gt\n        /* \"#utility.yul\":19183:19239   */\n      iszero\n      tag_551\n      jumpi\n        /* \"#utility.yul\":19219:19237   */\n      tag_552\n      tag_214\n      jump\t// in\n    tag_552:\n        /* \"#utility.yul\":19183:19239   */\n    tag_551:\n        /* \"#utility.yul\":19257:19286   */\n      tag_553\n        /* \"#utility.yul\":19279:19285   */\n      dup3\n        /* \"#utility.yul\":19257:19286   */\n      tag_439\n      jump\t// in\n    tag_553:\n        /* \"#utility.yul\":19249:19286   */\n      swap1\n      pop\n        /* \"#utility.yul\":19341:19345   */\n      0x20\n        /* \"#utility.yul\":19335:19339   */\n      dup2\n        /* \"#utility.yul\":19331:19346   */\n      add\n        /* \"#utility.yul\":19323:19346   */\n      swap1\n      pop\n        /* \"#utility.yul\":19045:19353   */\n      swap2\n      swap1\n      pop\n      jump\t// out\n        /* \"#utility.yul\":19359:19491   */\n    tag_407:\n        /* \"#utility.yul\":19426:19430   */\n      0x00\n        /* \"#utility.yul\":19449:19452   */\n      dup2\n        /* \"#utility.yul\":19441:19452   */\n      swap1\n      pop\n        /* \"#utility.yul\":19479:19483   */\n      0x20\n        /* \"#utility.yul\":19474:19477   */\n      dup3\n        /* \"#utility.yul\":19470:19484   */\n      add\n        /* \"#utility.yul\":19462:19484   */\n      swap1\n      pop\n        /* \"#utility.yul\":19359:19491   */\n      swap2\n      swap1\n      pop\n      jump\t// out\n        /* \"#utility.yul\":19497:19611   */\n    tag_403:\n        /* \"#utility.yul\":19564:19570   */\n      0x00\n        /* \"#utility.yul\":19598:19603   */\n      dup2\n        /* \"#utility.yul\":19592:19604   */\n      mload\n        /* \"#utility.yul\":19582:19604   */\n      swap1\n      pop\n        /* \"#utility.yul\":19497:19611   */\n      swap2\n      swap1\n      pop\n      jump\t// out\n        /* \"#utility.yul\":19617:19716   */\n    tag_433:\n        /* \"#utility.yul\":19669:19675   */\n      0x00\n        /* \"#utility.yul\":19703:19708   */\n      dup2\n        /* \"#utility.yul\":19697:19709   */\n      mload\n        /* \"#utility.yul\":19687:19709   */\n      swap1\n      pop\n        /* \"#utility.yul\":19617:19716   */\n      swap2\n      swap1\n      pop\n      jump\t// out\n        /* \"#utility.yul\":19722:19835   */\n    tag_413:\n        /* \"#utility.yul\":19792:19796   */\n      0x00\n        /* \"#utility.yul\":19824:19828   */\n      0x20\n        /* \"#utility.yul\":19819:19822   */\n      dup3\n        /* \"#utility.yul\":19815:19829   */\n      add\n        /* \"#utility.yul\":19807:19829   */\n      swap1\n      pop\n        /* \"#utility.yul\":19722:19835   */\n      swap2\n      swap1\n      pop\n      jump\t// out\n        /* \"#utility.yul\":19841:20025   */\n    tag_405:\n        /* \"#utility.yul\":19940:19951   */\n      0x00\n        /* \"#utility.yul\":19974:19980   */\n      dup3\n        /* \"#utility.yul\":19969:19972   */\n      dup3\n        /* \"#utility.yul\":19962:19981   */\n      mstore\n        /* \"#utility.yul\":20014:20018   */\n      0x20\n        /* \"#utility.yul\":20009:20012   */\n      dup3\n        /* \"#utility.yul\":20005:20019   */\n      add\n        /* \"#utility.yul\":19990:20019   */\n      swap1\n      pop\n        /* \"#utility.yul\":19841:20025   */\n      swap3\n      swap2\n      pop\n      pop\n      jump\t// out\n        /* \"#utility.yul\":20031:20200   */\n    tag_435:\n        /* \"#utility.yul\":20115:20126   */\n      0x00\n        /* \"#utility.yul\":20149:20155   */\n      dup3\n        /* \"#utility.yul\":20144:20147   */\n      dup3\n        /* \"#utility.yul\":20137:20156   */\n      mstore\n        /* \"#utility.yul\":20189:20193   */\n      0x20\n        /* \"#utility.yul\":20184:20187   */\n      dup3\n        /* \"#utility.yul\":20180:20194   */\n      add\n        /* \"#utility.yul\":20165:20194   */\n      swap1\n      pop\n        /* \"#utility.yul\":20031:20200   */\n      swap3\n      swap2\n      pop\n      pop\n      jump\t// out\n        /* \"#utility.yul\":20206:20302   */\n    tag_396:\n        /* \"#utility.yul\":20243:20250   */\n      0x00\n        /* \"#utility.yul\":20272:20296   */\n      tag_561\n        /* \"#utility.yul\":20290:20295   */\n      dup3\n        /* \"#utility.yul\":20272:20296   */\n      tag_562\n      jump\t// in\n    tag_561:\n        /* \"#utility.yul\":20261:20296   */\n      swap1\n      pop\n        /* \"#utility.yul\":20206:20302   */\n      swap2\n      swap1\n      pop\n      jump\t// out\n        /* \"#utility.yul\":20308:20398   */\n    tag_417:\n        /* \"#utility.yul\":20342:20349   */\n      0x00\n        /* \"#utility.yul\":20385:20390   */\n      dup2\n        /* \"#utility.yul\":20378:20391   */\n      iszero\n        /* \"#utility.yul\":20371:20392   */\n      iszero\n        /* \"#utility.yul\":20360:20392   */\n      swap1\n      pop\n        /* \"#utility.yul\":20308:20398   */\n      swap2\n      swap1\n      pop\n      jump\t// out\n        /* \"#utility.yul\":20404:20481   */\n    tag_421:\n        /* \"#utility.yul\":20441:20448   */\n      0x00\n        /* \"#utility.yul\":20470:20475   */\n      dup2\n        /* \"#utility.yul\":20459:20475   */\n      swap1\n      pop\n        /* \"#utility.yul\":20404:20481   */\n      swap2\n      swap1\n      pop\n      jump\t// out\n        /* \"#utility.yul\":20487:20620   */\n    tag_565:\n        /* \"#utility.yul\":20535:20542   */\n      0x00\n        /* \"#utility.yul\":20564:20569   */\n      dup2\n        /* \"#utility.yul\":20553:20569   */\n      swap1\n      pop\n        /* \"#utility.yul\":20570:20614   */\n      tag_567\n        /* \"#utility.yul\":20608:20613   */\n      dup3\n        /* \"#utility.yul\":20570:20614   */\n      tag_568\n      jump\t// in\n    tag_567:\n        /* \"#utility.yul\":20487:20620   */\n      swap2\n      swap1\n      pop\n      jump\t// out\n        /* \"#utility.yul\":20626:20752   */\n    tag_562:\n        /* \"#utility.yul\":20663:20670   */\n      0x00\n        /* \"#utility.yul\":20703:20745   */\n      0xffffffffffffffffffffffffffffffffffffffff\n        /* \"#utility.yul\":20696:20701   */\n      dup3\n        /* \"#utility.yul\":20692:20746   */\n      and\n        /* \"#utility.yul\":20681:20746   */\n      swap1\n      pop\n        /* \"#utility.yul\":20626:20752   */\n      swap2\n      swap1\n      pop\n      jump\t// out\n        /* \"#utility.yul\":20758:20835   */\n    tag_493:\n        /* \"#utility.yul\":20795:20802   */\n      0x00\n        /* \"#utility.yul\":20824:20829   */\n      dup2\n        /* \"#utility.yul\":20813:20829   */\n      swap1\n      pop\n        /* \"#utility.yul\":20758:20835   */\n      swap2\n      swap1\n      pop\n      jump\t// out\n        /* \"#utility.yul\":20841:20990   */\n    tag_425:\n        /* \"#utility.yul\":20914:20923   */\n      0x00\n        /* \"#utility.yul\":20947:20984   */\n      tag_572\n        /* \"#utility.yul\":20978:20983   */\n      dup3\n        /* \"#utility.yul\":20947:20984   */\n      tag_573\n      jump\t// in\n    tag_572:\n        /* \"#utility.yul\":20934:20984   */\n      swap1\n      pop\n        /* \"#utility.yul\":20841:20990   */\n      swap2\n      swap1\n      pop\n      jump\t// out\n        /* \"#utility.yul\":20996:21129   */\n    tag_429:\n        /* \"#utility.yul\":21055:21064   */\n      0x00\n        /* \"#utility.yul\":21088:21123   */\n      tag_575\n        /* \"#utility.yul\":21117:21122   */\n      dup3\n        /* \"#utility.yul\":21088:21123   */\n      tag_565\n      jump\t// in\n    tag_575:\n        /* \"#utility.yul\":21075:21123   */\n      swap1\n      pop\n        /* \"#utility.yul\":20996:21129   */\n      swap2\n      swap1\n      pop\n      jump\t// out\n        /* \"#utility.yul\":21135:21261   */\n    tag_573:\n        /* \"#utility.yul\":21185:21194   */\n      0x00\n        /* \"#utility.yul\":21218:21255   */\n      tag_577\n        /* \"#utility.yul\":21249:21254   */\n      dup3\n        /* \"#utility.yul\":21218:21255   */\n      tag_578\n      jump\t// in\n    tag_577:\n        /* \"#utility.yul\":21205:21255   */\n      swap1\n      pop\n        /* \"#utility.yul\":21135:21261   */\n      swap2\n      swap1\n      pop\n      jump\t// out\n        /* \"#utility.yul\":21267:21380   */\n    tag_578:\n        /* \"#utility.yul\":21317:21326   */\n      0x00\n        /* \"#utility.yul\":21350:21374   */\n      tag_580\n        /* \"#utility.yul\":21368:21373   */\n      dup3\n        /* \"#utility.yul\":21350:21374   */\n      tag_562\n      jump\t// in\n    tag_580:\n        /* \"#utility.yul\":21337:21374   */\n      swap1\n      pop\n        /* \"#utility.yul\":21267:21380   */\n      swap2\n      swap1\n      pop\n      jump\t// out\n        /* \"#utility.yul\":21386:21540   */\n    tag_328:\n        /* \"#utility.yul\":21470:21476   */\n      dup3\n        /* \"#utility.yul\":21465:21468   */\n      dup2\n        /* \"#utility.yul\":21460:21463   */\n      dup4\n        /* \"#utility.yul\":21447:21477   */\n      calldatacopy\n        /* \"#utility.yul\":21532:21533   */\n      0x00\n        /* \"#utility.yul\":21523:21529   */\n      dup4\n        /* \"#utility.yul\":21518:21521   */\n      dup4\n        /* \"#utility.yul\":21514:21530   */\n      add\n        /* \"#utility.yul\":21507:21534   */\n      mstore\n        /* \"#utility.yul\":21386:21540   */\n      pop\n      pop\n      pop\n      jump\t// out\n        /* \"#utility.yul\":21546:21853   */\n    tag_437:\n        /* \"#utility.yul\":21614:21615   */\n      0x00\n        /* \"#utility.yul\":21624:21737   */\n    tag_583:\n        /* \"#utility.yul\":21638:21644   */\n      dup4\n        /* \"#utility.yul\":21635:21636   */\n      dup2\n        /* \"#utility.yul\":21632:21645   */\n      lt\n        /* \"#utility.yul\":21624:21737   */\n      iszero\n      tag_585\n      jumpi\n        /* \"#utility.yul\":21723:21724   */\n      dup1\n        /* \"#utility.yul\":21718:21721   */\n      dup3\n        /* \"#utility.yul\":21714:21725   */\n      add\n        /* \"#utility.yul\":21708:21726   */\n      mload\n        /* \"#utility.yul\":21704:21705   */\n      dup2\n        /* \"#utility.yul\":21699:21702   */\n      dup5\n        /* \"#utility.yul\":21695:21706   */\n      add\n        /* \"#utility.yul\":21688:21727   */\n      mstore\n        /* \"#utility.yul\":21660:21662   */\n      0x20\n        /* \"#utility.yul\":21657:21658   */\n      dup2\n        /* \"#utility.yul\":21653:21663   */\n      add\n        /* \"#utility.yul\":21648:21663   */\n      swap1\n      pop\n        /* \"#utility.yul\":21624:21737   */\n      jump(tag_583)\n    tag_585:\n        /* \"#utility.yul\":21755:21761   */\n      dup4\n        /* \"#utility.yul\":21752:21753   */\n      dup2\n        /* \"#utility.yul\":21749:21762   */\n      gt\n        /* \"#utility.yul\":21746:21847   */\n      iszero\n      tag_586\n      jumpi\n        /* \"#utility.yul\":21835:21836   */\n      0x00\n        /* \"#utility.yul\":21826:21832   */\n      dup5\n        /* \"#utility.yul\":21821:21824   */\n      dup5\n        /* \"#utility.yul\":21817:21833   */\n      add\n        /* \"#utility.yul\":21810:21837   */\n      mstore\n        /* \"#utility.yul\":21746:21847   */\n    tag_586:\n        /* \"#utility.yul\":21595:21853   */\n      pop\n        /* \"#utility.yul\":21546:21853   */\n      pop\n      pop\n      pop\n      jump\t// out\n        /* \"#utility.yul\":21859:22030   */\n    tag_190:\n        /* \"#utility.yul\":21898:21901   */\n      0x00\n        /* \"#utility.yul\":21921:21945   */\n      tag_588\n        /* \"#utility.yul\":21939:21944   */\n      dup3\n        /* \"#utility.yul\":21921:21945   */\n      tag_493\n      jump\t// in\n    tag_588:\n        /* \"#utility.yul\":21912:21945   */\n      swap2\n      pop\n        /* \"#utility.yul\":21967:21971   */\n      0x00\n        /* \"#utility.yul\":21960:21965   */\n      dup3\n        /* \"#utility.yul\":21957:21972   */\n      eq\n        /* \"#utility.yul\":21954:21995   */\n      iszero\n      tag_589\n      jumpi\n        /* \"#utility.yul\":21975:21993   */\n      tag_590\n      tag_591\n      jump\t// in\n    tag_590:\n        /* \"#utility.yul\":21954:21995   */\n    tag_589:\n        /* \"#utility.yul\":22022:22023   */\n      0x01\n        /* \"#utility.yul\":22015:22020   */\n      dup3\n        /* \"#utility.yul\":22011:22024   */\n      sub\n        /* \"#utility.yul\":22004:22024   */\n      swap1\n      pop\n        /* \"#utility.yul\":21859:22030   */\n      swap2\n      swap1\n      pop\n      jump\t// out\n        /* \"#utility.yul\":22036:22356   */\n    tag_90:\n        /* \"#utility.yul\":22080:22086   */\n      0x00\n        /* \"#utility.yul\":22117:22118   */\n      0x02\n        /* \"#utility.yul\":22111:22115   */\n      dup3\n        /* \"#utility.yul\":22107:22119   */\n      div\n        /* \"#utility.yul\":22097:22119   */\n      swap1\n      pop\n        /* \"#utility.yul\":22164:22165   */\n      0x01\n        /* \"#utility.yul\":22158:22162   */\n      dup3\n        /* \"#utility.yul\":22154:22166   */\n      and\n        /* \"#utility.yul\":22185:22203   */\n      dup1\n        /* \"#utility.yul\":22175:22256   */\n      tag_593\n      jumpi\n        /* \"#utility.yul\":22241:22245   */\n      0x7f\n        /* \"#utility.yul\":22233:22239   */\n      dup3\n        /* \"#utility.yul\":22229:22246   */\n      and\n        /* \"#utility.yul\":22219:22246   */\n      swap2\n      pop\n        /* \"#utility.yul\":22175:22256   */\n    tag_593:\n        /* \"#utility.yul\":22303:22305   */\n      0x20\n        /* \"#utility.yul\":22295:22301   */\n      dup3\n        /* \"#utility.yul\":22292:22306   */\n      lt\n        /* \"#utility.yul\":22272:22290   */\n      dup2\n        /* \"#utility.yul\":22269:22307   */\n      eq\n        /* \"#utility.yul\":22266:22350   */\n      iszero\n      tag_594\n      jumpi\n        /* \"#utility.yul\":22322:22340   */\n      tag_595\n      tag_596\n      jump\t// in\n    tag_595:\n        /* \"#utility.yul\":22266:22350   */\n    tag_594:\n        /* \"#utility.yul\":22087:22356   */\n      pop\n        /* \"#utility.yul\":22036:22356   */\n      swap2\n      swap1\n      pop\n      jump\t// out\n        /* \"#utility.yul\":22362:22643   */\n    tag_548:\n        /* \"#utility.yul\":22445:22472   */\n      tag_598\n        /* \"#utility.yul\":22467:22471   */\n      dup3\n        /* \"#utility.yul\":22445:22472   */\n      tag_439\n      jump\t// in\n    tag_598:\n        /* \"#utility.yul\":22437:22443   */\n      dup2\n        /* \"#utility.yul\":22433:22473   */\n      add\n        /* \"#utility.yul\":22575:22581   */\n      dup2\n        /* \"#utility.yul\":22563:22573   */\n      dup2\n        /* \"#utility.yul\":22560:22582   */\n      lt\n        /* \"#utility.yul\":22539:22557   */\n      0xffffffffffffffff\n        /* \"#utility.yul\":22527:22537   */\n      dup3\n        /* \"#utility.yul\":22524:22558   */\n      gt\n        /* \"#utility.yul\":22521:22583   */\n      or\n        /* \"#utility.yul\":22518:22606   */\n      iszero\n      tag_599\n      jumpi\n        /* \"#utility.yul\":22586:22604   */\n      tag_600\n      tag_214\n      jump\t// in\n    tag_600:\n        /* \"#utility.yul\":22518:22606   */\n    tag_599:\n        /* \"#utility.yul\":22626:22636   */\n      dup1\n        /* \"#utility.yul\":22622:22624   */\n      0x40\n        /* \"#utility.yul\":22615:22637   */\n      mstore\n        /* \"#utility.yul\":22405:22643   */\n      pop\n        /* \"#utility.yul\":22362:22643   */\n      pop\n      pop\n      jump\t// out\n        /* \"#utility.yul\":22649:22882   */\n    tag_158:\n        /* \"#utility.yul\":22688:22691   */\n      0x00\n        /* \"#utility.yul\":22711:22735   */\n      tag_602\n        /* \"#utility.yul\":22729:22734   */\n      dup3\n        /* \"#utility.yul\":22711:22735   */\n      tag_493\n      jump\t// in\n    tag_602:\n        /* \"#utility.yul\":22702:22735   */\n      swap2\n      pop\n        /* \"#utility.yul\":22757:22823   */\n      0xffffffffffffffffffffffffffffffffffffffffffffffffffffffffffffffff\n        /* \"#utility.yul\":22750:22755   */\n      dup3\n        /* \"#utility.yul\":22747:22824   */\n      eq\n        /* \"#utility.yul\":22744:22847   */\n      iszero\n      tag_603\n      jumpi\n        /* \"#utility.yul\":22827:22845   */\n      tag_604\n      tag_591\n      jump\t// in\n    tag_604:\n        /* \"#utility.yul\":22744:22847   */\n    tag_603:\n        /* \"#utility.yul\":22874:22875   */\n      0x01\n        /* \"#utility.yul\":22867:22872   */\n      dup3\n        /* \"#utility.yul\":22863:22876   */\n      add\n        /* \"#utility.yul\":22856:22876   */\n      swap1\n      pop\n        /* \"#utility.yul\":22649:22882   */\n      swap2\n      swap1\n      pop\n      jump\t// out\n        /* \"#utility.yul\":22888:23068   */\n    tag_591:\n        /* \"#utility.yul\":22936:23013   */\n      0x4e487b7100000000000000000000000000000000000000000000000000000000\n        /* \"#utility.yul\":22933:22934   */\n      0x00\n        /* \"#utility.yul\":22926:23014   */\n      mstore\n        /* \"#utility.yul\":23033:23037   */\n      0x11\n        /* \"#utility.yul\":23030:23031   */\n      0x04\n        /* \"#utility.yul\":23023:23038   */\n      mstore\n        /* \"#utility.yul\":23057:23061   */\n      0x24\n        /* \"#utility.yul\":23054:23055   */\n      0x00\n        /* \"#utility.yul\":23047:23062   */\n      revert\n        /* \"#utility.yul\":23074:23254   */\n    tag_98:\n        /* \"#utility.yul\":23122:23199   */\n      0x4e487b7100000000000000000000000000000000000000000000000000000000\n        /* \"#utility.yul\":23119:23120   */\n      0x00\n        /* \"#utility.yul\":23112:23200   */\n      mstore\n        /* \"#utility.yul\":23219:23223   */\n      0x21\n        /* \"#utility.yul\":23216:23217   */\n      0x04\n        /* \"#utility.yul\":23209:23224   */\n      mstore\n        /* \"#utility.yul\":23243:23247   */\n      0x24\n        /* \"#utility.yul\":23240:23241   */\n      0x00\n        /* \"#utility.yul\":23233:23248   */\n      revert\n        /* \"#utility.yul\":23260:23440   */\n    tag_596:\n        /* \"#utility.yul\":23308:23385   */\n      0x4e487b7100000000000000000000000000000000000000000000000000000000\n        /* \"#utility.yul\":23305:23306   */\n      0x00\n        /* \"#utility.yul\":23298:23386   */\n      mstore\n        /* \"#utility.yul\":23405:23409   */\n      0x22\n        /* \"#utility.yul\":23402:23403   */\n      0x04\n        /* \"#utility.yul\":23395:23410   */\n      mstore\n        /* \"#utility.yul\":23429:23433   */\n      0x24\n        /* \"#utility.yul\":23426:23427   */\n      0x00\n        /* \"#utility.yul\":23419:23434   */\n      revert\n        /* \"#utility.yul\":23446:23626   */\n    tag_143:\n        /* \"#utility.yul\":23494:23571   */\n      0x4e487b7100000000000000000000000000000000000000000000000000000000\n        /* \"#utility.yul\":23491:23492   */\n      0x00\n        /* \"#utility.yul\":23484:23572   */\n      mstore\n        /* \"#utility.yul\":23591:23595   */\n      0x32\n        /* \"#utility.yul\":23588:23589   */\n      0x04\n        /* \"#utility.yul\":23581:23596   */\n      mstore\n        /* \"#utility.yul\":23615:23619   */\n      0x24\n        /* \"#utility.yul\":23612:23613   */\n      0x00\n        /* \"#utility.yul\":23605:23620   */\n      revert\n        /* \"#utility.yul\":23632:23812   */\n    tag_214:\n        /* \"#utility.yul\":23680:23757   */\n      0x4e487b7100000000000000000000000000000000000000000000000000000000\n        /* \"#utility.yul\":23677:23678   */\n      0x00\n        /* \"#utility.yul\":23670:23758   */\n      mstore\n        /* \"#utility.yul\":23777:23781   */\n      0x41\n        /* \"#utility.yul\":23774:23775   */\n      0x04\n        /* \"#utility.yul\":23767:23782   */\n      mstore\n        /* \"#utility.yul\":23801:23805   */\n      0x24\n        /* \"#utility.yul\":23798:23799   */\n      0x00\n        /* \"#utility.yul\":23791:23806   */\n      revert\n        /* \"#utility.yul\":23818:23935   */\n    tag_340:\n        /* \"#utility.yul\":23927:23928   */\n      0x00\n        /* \"#utility.yul\":23924:23925   */\n      dup1\n        /* \"#utility.yul\":23917:23929   */\n      revert\n        /* \"#utility.yul\":23941:24058   */\n    tag_337:\n        /* \"#utility.yul\":24050:24051   */\n      0x00\n        /* \"#utility.yul\":24047:24048   */\n      dup1\n        /* \"#utility.yul\":24040:24052   */\n      revert\n        /* \"#utility.yul\":24064:24181   */\n    tag_343:\n        /* \"#utility.yul\":24173:24174   */\n      0x00\n        /* \"#utility.yul\":24170:24171   */\n      dup1\n        /* \"#utility.yul\":24163:24175   */\n      revert\n        /* \"#utility.yul\":24187:24304   */\n    tag_326:\n        /* \"#utility.yul\":24296:24297   */\n      0x00\n        /* \"#utility.yul\":24293:24294   */\n      dup1\n        /* \"#utility.yul\":24286:24298   */\n      revert\n        /* \"#utility.yul\":24310:24427   */\n    tag_367:\n        /* \"#utility.yul\":24419:24420   */\n      0x00\n        /* \"#utility.yul\":24416:24417   */\n      dup1\n        /* \"#utility.yul\":24409:24421   */\n      revert\n        /* \"#utility.yul\":24433:24550   */\n    tag_360:\n        /* \"#utility.yul\":24542:24543   */\n      0x00\n        /* \"#utility.yul\":24539:24540   */\n      dup1\n        /* \"#utility.yul\":24532:24544   */\n      revert\n        /* \"#utility.yul\":24556:24658   */\n    tag_439:\n        /* \"#utility.yul\":24597:24603   */\n      0x00\n        /* \"#utility.yul\":24648:24650   */\n      0x1f\n        /* \"#utility.yul\":24644:24651   */\n      not\n        /* \"#utility.yul\":24639:24641   */\n      0x1f\n        /* \"#utility.yul\":24632:24637   */\n      dup4\n        /* \"#utility.yul\":24628:24642   */\n      add\n        /* \"#utility.yul\":24624:24652   */\n      and\n        /* \"#utility.yul\":24614:24652   */\n      swap1\n      pop\n        /* \"#utility.yul\":24556:24658   */\n      swap2\n      swap1\n      pop\n      jump\t// out\n        /* \"#utility.yul\":24664:24830   */\n    tag_444:\n        /* \"#utility.yul\":24804:24822   */\n      0x53433a2063616e63656c206572726f7200000000000000000000000000000000\n        /* \"#utility.yul\":24800:24801   */\n      0x00\n        /* \"#utility.yul\":24792:24798   */\n      dup3\n        /* \"#utility.yul\":24788:24802   */\n      add\n        /* \"#utility.yul\":24781:24823   */\n      mstore\n        /* \"#utility.yul\":24664:24830   */\n      pop\n      jump\t// out\n        /* \"#utility.yul\":24836:25003   */\n    tag_449:\n        /* \"#utility.yul\":24976:24995   */\n      0x4d433a204f6e6c79204c65637475726572000000000000000000000000000000\n        /* \"#utility.yul\":24972:24973   */\n      0x00\n        /* \"#utility.yul\":24964:24970   */\n      dup3\n        /* \"#utility.yul\":24960:24974   */\n      add\n        /* \"#utility.yul\":24953:24996   */\n      mstore\n        /* \"#utility.yul\":24836:25003   */\n      pop\n      jump\t// out\n        /* \"#utility.yul\":25009:25169   */\n    tag_454:\n        /* \"#utility.yul\":25149:25161   */\n      0x4f6e6c79206f776e657200000000000000000000000000000000000000000000\n        /* \"#utility.yul\":25145:25146   */\n      0x00\n        /* \"#utility.yul\":25137:25143   */\n      dup3\n        /* \"#utility.yul\":25133:25147   */\n      add\n        /* \"#utility.yul\":25126:25162   */\n      mstore\n        /* \"#utility.yul\":25009:25169   */\n      pop\n      jump\t// out\n        /* \"#utility.yul\":25175:25341   */\n    tag_459:\n        /* \"#utility.yul\":25315:25333   */\n      0x4d433a204f6e6c792053747564656e7400000000000000000000000000000000\n        /* \"#utility.yul\":25311:25312   */\n      0x00\n        /* \"#utility.yul\":25303:25309   */\n      dup3\n        /* \"#utility.yul\":25299:25313   */\n      add\n        /* \"#utility.yul\":25292:25334   */\n      mstore\n        /* \"#utility.yul\":25175:25341   */\n      pop\n      jump\t// out\n        /* \"#utility.yul\":25347:25526   */\n    tag_464:\n        /* \"#utility.yul\":25487:25518   */\n      0x4d433a204f6e6c792074686520706572736f6e20696e20636861726765000000\n        /* \"#utility.yul\":25483:25484   */\n      0x00\n        /* \"#utility.yul\":25475:25481   */\n      dup3\n        /* \"#utility.yul\":25471:25485   */\n      add\n        /* \"#utility.yul\":25464:25519   */\n      mstore\n        /* \"#utility.yul\":25347:25526   */\n      pop\n      jump\t// out\n        /* \"#utility.yul\":25532:25700   */\n    tag_469:\n        /* \"#utility.yul\":25672:25692   */\n      0x53433a207265676973746572206572726f720000000000000000000000000000\n        /* \"#utility.yul\":25668:25669   */\n      0x00\n        /* \"#utility.yul\":25660:25666   */\n      dup3\n        /* \"#utility.yul\":25656:25670   */\n      add\n        /* \"#utility.yul\":25649:25693   */\n      mstore\n        /* \"#utility.yul\":25532:25700   */\n      pop\n      jump\t// out\n        /* \"#utility.yul\":25706:25875   */\n    tag_474:\n        /* \"#utility.yul\":25846:25867   */\n      0x53433a2054696d6520697320696e76616c696400000000000000000000000000\n        /* \"#utility.yul\":25842:25843   */\n      0x00\n        /* \"#utility.yul\":25834:25840   */\n      dup3\n        /* \"#utility.yul\":25830:25844   */\n      add\n        /* \"#utility.yul\":25823:25868   */\n      mstore\n        /* \"#utility.yul\":25706:25875   */\n      pop\n      jump\t// out\n        /* \"#utility.yul\":25881:26054   */\n    tag_479:\n        /* \"#utility.yul\":26021:26046   */\n      0x53686f756c64206f6e6c79206164642073747564656e74000000000000000000\n        /* \"#utility.yul\":26017:26018   */\n      0x00\n        /* \"#utility.yul\":26009:26015   */\n      dup3\n        /* \"#utility.yul\":26005:26019   */\n      add\n        /* \"#utility.yul\":25998:26047   */\n      mstore\n        /* \"#utility.yul\":25881:26054   */\n      pop\n      jump\t// out\n        /* \"#utility.yul\":26060:26223   */\n    tag_484:\n        /* \"#utility.yul\":26200:26215   */\n      0x53433a204f6e6c79204c6f636b00000000000000000000000000000000000000\n        /* \"#utility.yul\":26196:26197   */\n      0x00\n        /* \"#utility.yul\":26188:26194   */\n      dup3\n        /* \"#utility.yul\":26184:26198   */\n      add\n        /* \"#utility.yul\":26177:26216   */\n      mstore\n        /* \"#utility.yul\":26060:26223   */\n      pop\n      jump\t// out\n        /* \"#utility.yul\":26229:26392   */\n    tag_489:\n        /* \"#utility.yul\":26369:26384   */\n      0x53433a204f6e6c79204f70656e00000000000000000000000000000000000000\n        /* \"#utility.yul\":26365:26366   */\n      0x00\n        /* \"#utility.yul\":26357:26363   */\n      dup3\n        /* \"#utility.yul\":26353:26367   */\n      add\n        /* \"#utility.yul\":26346:26385   */\n      mstore\n        /* \"#utility.yul\":26229:26392   */\n      pop\n      jump\t// out\n        /* \"#utility.yul\":26398:26514   */\n    tag_568:\n        /* \"#utility.yul\":26482:26483   */\n      0x03\n        /* \"#utility.yul\":26475:26480   */\n      dup2\n        /* \"#utility.yul\":26472:26484   */\n      lt\n        /* \"#utility.yul\":26462:26508   */\n      tag_628\n      jumpi\n        /* \"#utility.yul\":26488:26506   */\n      tag_629\n      tag_98\n      jump\t// in\n    tag_629:\n        /* \"#utility.yul\":26462:26508   */\n    tag_628:\n        /* \"#utility.yul\":26398:26514   */\n      pop\n      jump\t// out\n        /* \"#utility.yul\":26520:26642   */\n    tag_332:\n        /* \"#utility.yul\":26593:26617   */\n      tag_631\n        /* \"#utility.yul\":26611:26616   */\n      dup2\n        /* \"#utility.yul\":26593:26617   */\n      tag_396\n      jump\t// in\n    tag_631:\n        /* \"#utility.yul\":26586:26591   */\n      dup2\n        /* \"#utility.yul\":26583:26618   */\n      eq\n        /* \"#utility.yul\":26573:26636   */\n      tag_632\n      jumpi\n        /* \"#utility.yul\":26632:26633   */\n      0x00\n        /* \"#utility.yul\":26629:26630   */\n      dup1\n        /* \"#utility.yul\":26622:26634   */\n      revert\n        /* \"#utility.yul\":26573:26636   */\n    tag_632:\n        /* \"#utility.yul\":26520:26642   */\n      pop\n      jump\t// out\n        /* \"#utility.yul\":26648:26764   */\n    tag_347:\n        /* \"#utility.yul\":26718:26739   */\n      tag_634\n        /* \"#utility.yul\":26733:26738   */\n      dup2\n        /* \"#utility.yul\":26718:26739   */\n      tag_417\n      jump\t// in\n    tag_634:\n        /* \"#utility.yul\":26711:26716   */\n      dup2\n        /* \"#utility.yul\":26708:26740   */\n      eq\n        /* \"#utility.yul\":26698:26758   */\n      tag_635\n      jumpi\n        /* \"#utility.yul\":26754:26755   */\n      0x00\n        /* \"#utility.yul\":26751:26752   */\n      dup1\n        /* \"#utility.yul\":26744:26756   */\n      revert\n        /* \"#utility.yul\":26698:26758   */\n    tag_635:\n        /* \"#utility.yul\":26648:26764   */\n      pop\n      jump\t// out\n        /* \"#utility.yul\":26770:26892   */\n    tag_356:\n        /* \"#utility.yul\":26843:26867   */\n      tag_637\n        /* \"#utility.yul\":26861:26866   */\n      dup2\n        /* \"#utility.yul\":26843:26867   */\n      tag_493\n      jump\t// in\n    tag_637:\n        /* \"#utility.yul\":26836:26841   */\n      dup2\n        /* \"#utility.yul\":26833:26868   */\n      eq\n        /* \"#utility.yul\":26823:26886   */\n      tag_638\n      jumpi\n        /* \"#utility.yul\":26882:26883   */\n      0x00\n        /* \"#utility.yul\":26879:26880   */\n      dup1\n        /* \"#utility.yul\":26872:26884   */\n      revert\n        /* \"#utility.yul\":26823:26886   */\n    tag_638:\n        /* \"#utility.yul\":26770:26892   */\n      pop\n      jump\t// out\n\n    auxdata: 0xa264697066735822122005021917f096beadb9d0dffc667b429d6547a6485039ec3e88001a7dfdbb5c0664736f6c63430008070033\n}\n",
				"bytecode": {
					"linkReferences": {},
					"object": "60a06040526000600860006101000a81548160ff021916908360028111156200002d576200002c62000177565b5b02179055503480156200003f57600080fd5b5060405162002ccb38038062002ccb8339818101604052810190620000659190620000fc565b8173ffffffffffffffffffffffffffffffffffffffff1660808173ffffffffffffffffffffffffffffffffffffffff1660601b8152505080600960006101000a81548173ffffffffffffffffffffffffffffffffffffffff021916908373ffffffffffffffffffffffffffffffffffffffff1602179055505050620001c5565b600081519050620000f681620001ab565b92915050565b60008060408385031215620001165762000115620001a6565b5b60006200012685828601620000e5565b92505060206200013985828601620000e5565b9150509250929050565b6000620001508262000157565b9050919050565b600073ffffffffffffffffffffffffffffffffffffffff82169050919050565b7f4e487b7100000000000000000000000000000000000000000000000000000000600052602160045260246000fd5b600080fd5b620001b68162000143565b8114620001c257600080fd5b50565b60805160601c612ad2620001f9600039600081816109a201528181610cf301528181610d88015261123d0152612ad26000f3fe608060405234801561001057600080fd5b50600436106101165760003560e01c806398754710116100a2578063aa4936ce11610071578063aa4936ce1461029f578063aa8c217c146102bd578063be9a6555146102db578063d16e57fe146102e5578063ed214fff1461030157610116565b80639875471014610204578063a32fb34214610235578063a53dc8d214610265578063a7f44e0d1461028157610116565b806335955121116100e9578063359551211461018657806335f34232146101a257806343d726d6146101d257806349aa7033146101dc5780638da5cb5b146101e657610116565b80630a59a98c1461011b5780631aa3a00814610140578063200d2ed21461014a5780632fe7a96d14610168575b600080fd5b61012361031f565b604051610137989796959493929190612471565b60405180910390f35b6101486103fd565b005b61015261058a565b60405161015f91906122fb565b60405180910390f35b61017061059d565b60405161017d9190612236565b60405180910390f35b6101a0600480360381019061019b9190611e47565b6105c3565b005b6101bc60048036038101906101b79190611ec1565b610961565b6040516101c99190612236565b60405180910390f35b6101da6109a0565b005b6101e4610aa3565b005b6101ee610cf1565b6040516101fb9190612236565b60405180910390f35b61021e60048036038101906102199190611e1a565b610d15565b60405161022c929190612251565b60405180910390f35b61024f600480360381019061024a9190611e1a565b610d66565b60405161025c919061229c565b60405180910390f35b61027f600480360381019061027a9190611eee565b610d86565b005b610289610feb565b604051610296919061227a565b60405180910390f35b6102a761120f565b6040516102b491906122e0565b60405180910390f35b6102c5611235565b6040516102d29190612456565b60405180910390f35b6102e361123b565b005b6102ff60048036038101906102fa9190611e47565b6112f6565b005b610309611707565b604051610316919061227a565b60405180910390f35b6000806000015490806001018054610336906126e3565b80601f0160208091040260200160405190810160405280929190818152602001828054610362906126e3565b80156103af5780601f10610384576101008083540402835291602001916103af565b820191906000526020600020905b81548152906001019060200180831161039257829003601f168201915b5050505050908060020154908060030160009054906101000a900473ffffffffffffffffffffffffffffffffffffffff16908060040154908060050154908060060154908060070154905088565b60016002811115610411576104106127be565b5b600860009054906101000a900460ff166002811115610433576104326127be565b5b14610473576040517f08c379a000000000000000000000000000000000000000000000000000000000815260040161046a90612436565b60405180910390fd5b600960009054906101000a900473ffffffffffffffffffffffffffffffffffffffff1673ffffffffffffffffffffffffffffffffffffffff166391d148547fc951d7098b66ba0b8b77265b6e9cf0e187d73125a42bcd0061b09a68be421810336040518363ffffffff1660e01b81526004016104f09291906122b7565b60206040518083038186803b15801561050857600080fd5b505afa15801561051c573d6000803e3d6000fd5b505050506040513d601f19601f820116820180604052508101906105409190611e94565b61057f576040517f08c379a000000000000000000000000000000000000000000000000000000000815260040161057690612376565b60405180910390fd5b610588336119f2565b565b600860009054906101000a900460ff1681565b600860019054906101000a900473ffffffffffffffffffffffffffffffffffffffff1681565b600960009054906101000a900473ffffffffffffffffffffffffffffffffffffffff1673ffffffffffffffffffffffffffffffffffffffff166391d148547fb39b9469ac3ddf8d58f06201f7e17350a277b429ed2a39727bf2f3a5165dba1a336040518363ffffffff1660e01b81526004016106409291906122b7565b60206040518083038186803b15801561065857600080fd5b505afa15801561066c573d6000803e3d6000fd5b505050506040513d601f19601f820116820180604052508101906106909190611e94565b6106cf576040517f08c379a00000000000000000000000000000000000000000000000000000000081526004016106c690612336565b60405180910390fd5b600160028111156106e3576106e26127be565b5b600860009054906101000a900460ff166002811115610705576107046127be565b5b14610745576040517f08c379a000000000000000000000000000000000000000000000000000000000815260040161073c90612436565b60405180910390fd5b600060030160009054906101000a900473ffffffffffffffffffffffffffffffffffffffff1673ffffffffffffffffffffffffffffffffffffffff163373ffffffffffffffffffffffffffffffffffffffff16146107d8576040517f08c379a00000000000000000000000000000000000000000000000000000000081526004016107cf90612396565b60405180910390fd5b60005b8282905081101561095c57600960009054906101000a900473ffffffffffffffffffffffffffffffffffffffff1673ffffffffffffffffffffffffffffffffffffffff166391d148547fc951d7098b66ba0b8b77265b6e9cf0e187d73125a42bcd0061b09a68be4218108585858181106108585761085761281c565b5b905060200201602081019061086d9190611e1a565b6040518363ffffffff1660e01b815260040161088a9291906122b7565b60206040518083038186803b1580156108a257600080fd5b505afa1580156108b6573d6000803e3d6000fd5b505050506040513d601f19601f820116820180604052508101906108da9190611e94565b610919576040517f08c379a0000000000000000000000000000000000000000000000000000000008152600401610910906123f6565b60405180910390fd5b61094983838381811061092f5761092e61281c565b5b90506020020160208101906109449190611e1a565b6119f2565b808061095490612746565b9150506107db565b505050565b600a818154811061097157600080fd5b906000526020600020016000915054906101000a900473ffffffffffffffffffffffffffffffffffffffff1681565b7f000000000000000000000000000000000000000000000000000000000000000073ffffffffffffffffffffffffffffffffffffffff163373ffffffffffffffffffffffffffffffffffffffff1614610a2e576040517f08c379a0000000000000000000000000000000000000000000000000000000008152600401610a2590612356565b60405180910390fd5b6002600860006101000a81548160ff02191690836002811115610a5457610a536127be565b5b02179055506000600701544211610a6a57600080fd5b7fbf67515a38ee520223d32c1266d52101c30d936ed1f3e436c8caeb0a43cb06bf42604051610a999190612456565b60405180910390a1565b60016002811115610ab757610ab66127be565b5b600860009054906101000a900460ff166002811115610ad957610ad86127be565b5b14610b19576040517f08c379a0000000000000000000000000000000000000000000000000000000008152600401610b1090612436565b60405180910390fd5b600960009054906101000a900473ffffffffffffffffffffffffffffffffffffffff1673ffffffffffffffffffffffffffffffffffffffff166391d148547fc951d7098b66ba0b8b77265b6e9cf0e187d73125a42bcd0061b09a68be421810336040518363ffffffff1660e01b8152600401610b969291906122b7565b60206040518083038186803b158015610bae57600080fd5b505afa158015610bc2573d6000803e3d6000fd5b505050506040513d601f19601f82011682018060405250810190610be69190611e94565b610c25576040517f08c379a0000000000000000000000000000000000000000000000000000000008152600401610c1c90612376565b60405180910390fd5b6000600b60003373ffffffffffffffffffffffffffffffffffffffff1673ffffffffffffffffffffffffffffffffffffffff16815260200190815260200160002090508060000160149054906101000a900460ff16610cb9576040517f08c379a0000000000000000000000000000000000000000000000000000000008152600401610cb090612316565b60405180910390fd5b600c6000815480929190610ccc906126b9565b919050555060008160000160146101000a81548160ff02191690831515021790555050565b7f000000000000000000000000000000000000000000000000000000000000000081565b600b6020528060005260406000206000915090508060000160009054906101000a900473ffffffffffffffffffffffffffffffffffffffff16908060000160149054906101000a900460ff16905082565b600d6020528060005260406000206000915054906101000a900460ff1681565b7f000000000000000000000000000000000000000000000000000000000000000073ffffffffffffffffffffffffffffffffffffffff163373ffffffffffffffffffffffffffffffffffffffff1614610e14576040517f08c379a0000000000000000000000000000000000000000000000000000000008152600401610e0b90612356565b60405180910390fd5b60006002811115610e2857610e276127be565b5b600860009054906101000a900460ff166002811115610e4a57610e496127be565b5b14610e8a576040517f08c379a0000000000000000000000000000000000000000000000000000000008152600401610e8190612416565b60405180910390fd5b8342108015610e9857508284105b8015610ea357508183105b8015610eae57508082105b610eed576040517f08c379a0000000000000000000000000000000000000000000000000000000008152600401610ee4906123d6565b60405180910390fd5b6040518061010001604052808981526020018881526020018781526020018673ffffffffffffffffffffffffffffffffffffffff1681526020018581526020018481526020018381526020018281525060008082015181600001556020820151816001019080519060200190610f64929190611c72565b506040820151816002015560608201518160030160006101000a81548173ffffffffffffffffffffffffffffffffffffffff021916908373ffffffffffffffffffffffffffffffffffffffff1602179055506080820151816004015560a0820151816005015560c0820151816006015560e082015181600701559050505050505050505050565b60606000600c5467ffffffffffffffff81111561100b5761100a61284b565b5b6040519080825280602002602001820160405280156110395781602001602082028036833780820191505090505b509050600080600090505b600a8054905081101561120657600d6000600a83815481106110695761106861281c565b5b9060005260206000200160009054906101000a900473ffffffffffffffffffffffffffffffffffffffff1673ffffffffffffffffffffffffffffffffffffffff1673ffffffffffffffffffffffffffffffffffffffff16815260200190815260200160002060009054906101000a900460ff1680156111535750600073ffffffffffffffffffffffffffffffffffffffff16600a828154811061110f5761110e61281c565b5b9060005260206000200160009054906101000a900473ffffffffffffffffffffffffffffffffffffffff1673ffffffffffffffffffffffffffffffffffffffff1614155b156111f357600a818154811061116c5761116b61281c565b5b9060005260206000200160009054906101000a900473ffffffffffffffffffffffffffffffffffffffff168383815181106111aa576111a961281c565b5b602002602001019073ffffffffffffffffffffffffffffffffffffffff16908173ffffffffffffffffffffffffffffffffffffffff168152505081806111ef90612746565b9250505b80806111fe90612746565b915050611044565b50819250505090565b600960009054906101000a900473ffffffffffffffffffffffffffffffffffffffff1681565b600c5481565b7f000000000000000000000000000000000000000000000000000000000000000073ffffffffffffffffffffffffffffffffffffffff163373ffffffffffffffffffffffffffffffffffffffff16146112c9576040517f08c379a00000000000000000000000000000000000000000000000000000000081526004016112c090612356565b60405180910390fd5b6001600860006101000a81548160ff021916908360028111156112ef576112ee6127be565b5b0217905550565b6001600281111561130a576113096127be565b5b600860009054906101000a900460ff16600281111561132c5761132b6127be565b5b1461136c576040517f08c379a000000000000000000000000000000000000000000000000000000000815260040161136390612436565b60405180910390fd5b600960009054906101000a900473ffffffffffffffffffffffffffffffffffffffff1673ffffffffffffffffffffffffffffffffffffffff166391d148547fb39b9469ac3ddf8d58f06201f7e17350a277b429ed2a39727bf2f3a5165dba1a336040518363ffffffff1660e01b81526004016113e99291906122b7565b60206040518083038186803b15801561140157600080fd5b505afa158015611415573d6000803e3d6000fd5b505050506040513d601f19601f820116820180604052508101906114399190611e94565b611478576040517f08c379a000000000000000000000000000000000000000000000000000000000815260040161146f90612336565b60405180910390fd5b60006006015442118015611490575060006007015442105b61149957600080fd5b60005b828290508110156116c6576000600b60008585858181106114c0576114bf61281c565b5b90506020020160208101906114d59190611e1a565b73ffffffffffffffffffffffffffffffffffffffff1673ffffffffffffffffffffffffffffffffffffffff1681526020019081526020016000206040518060400160405290816000820160009054906101000a900473ffffffffffffffffffffffffffffffffffffffff1673ffffffffffffffffffffffffffffffffffffffff1673ffffffffffffffffffffffffffffffffffffffff1681526020016000820160149054906101000a900460ff1615151515815250509050806020015180156115f457508383838181106115ac576115ab61281c565b5b90506020020160208101906115c19190611e1a565b73ffffffffffffffffffffffffffffffffffffffff16816000015173ffffffffffffffffffffffffffffffffffffffff16145b611633576040517f08c379a000000000000000000000000000000000000000000000000000000000815260040161162a90612316565b60405180910390fd5b6001600d600086868681811061164c5761164b61281c565b5b90506020020160208101906116619190611e1a565b73ffffffffffffffffffffffffffffffffffffffff1673ffffffffffffffffffffffffffffffffffffffff16815260200190815260200160002060006101000a81548160ff0219169083151502179055505080806116be90612746565b91505061149c565b507f698dd5b92696456649e8994759ccfe7076b1ebe9096ecb083211d8bfe816384282829050426040516116fb9291906124f6565b60405180910390a15050565b60606000600c5467ffffffffffffffff8111156117275761172661284b565b5b6040519080825280602002602001820160405280156117555781602001602082028036833780820191505090505b509050600080600090505b600a805490508110156119e957600b6000600a83815481106117855761178461281c565b5b9060005260206000200160009054906101000a900473ffffffffffffffffffffffffffffffffffffffff1673ffffffffffffffffffffffffffffffffffffffff1673ffffffffffffffffffffffffffffffffffffffff16815260200190815260200160002060000160149054906101000a900460ff1680156118d45750600073ffffffffffffffffffffffffffffffffffffffff16600b6000600a84815481106118325761183161281c565b5b9060005260206000200160009054906101000a900473ffffffffffffffffffffffffffffffffffffffff1673ffffffffffffffffffffffffffffffffffffffff1673ffffffffffffffffffffffffffffffffffffffff16815260200190815260200160002060000160009054906101000a900473ffffffffffffffffffffffffffffffffffffffff1673ffffffffffffffffffffffffffffffffffffffff1614155b156119d657600b6000600a83815481106118f1576118f061281c565b5b9060005260206000200160009054906101000a900473ffffffffffffffffffffffffffffffffffffffff1673ffffffffffffffffffffffffffffffffffffffff1673ffffffffffffffffffffffffffffffffffffffff16815260200190815260200160002060000160009054906101000a900473ffffffffffffffffffffffffffffffffffffffff1683838151811061198d5761198c61281c565b5b602002602001019073ffffffffffffffffffffffffffffffffffffffff16908173ffffffffffffffffffffffffffffffffffffffff168152505081806119d290612746565b9250505b80806119e190612746565b915050611760565b50819250505090565b6000600b60008373ffffffffffffffffffffffffffffffffffffffff1673ffffffffffffffffffffffffffffffffffffffff16815260200190815260200160002090508060000160149054906101000a900460ff1615611a87576040517f08c379a0000000000000000000000000000000000000000000000000000000008152600401611a7e906123b6565b60405180910390fd5b600c6000815480929190611a9a90612746565b9190505550600073ffffffffffffffffffffffffffffffffffffffff168160000160009054906101000a900473ffffffffffffffffffffffffffffffffffffffff1673ffffffffffffffffffffffffffffffffffffffff1614611b195760018160000160146101000a81548160ff021916908315150217905550611c5a565b600060405180604001604052808473ffffffffffffffffffffffffffffffffffffffff16815260200160011515815250905080600b60008573ffffffffffffffffffffffffffffffffffffffff1673ffffffffffffffffffffffffffffffffffffffff16815260200190815260200160002060008201518160000160006101000a81548173ffffffffffffffffffffffffffffffffffffffff021916908373ffffffffffffffffffffffffffffffffffffffff16021790555060208201518160000160146101000a81548160ff021916908315150217905550905050600a839080600181540180825580915050600190039060005260206000200160009091909190916101000a81548173ffffffffffffffffffffffffffffffffffffffff021916908373ffffffffffffffffffffffffffffffffffffffff160217905550505b600060020154600c541115611c6e57600080fd5b5050565b828054611c7e906126e3565b90600052602060002090601f016020900481019282611ca05760008555611ce7565b82601f10611cb957805160ff1916838001178555611ce7565b82800160010185558215611ce7579182015b82811115611ce6578251825591602001919060010190611ccb565b5b509050611cf49190611cf8565b5090565b5b80821115611d11576000816000905550600101611cf9565b5090565b6000611d28611d2384612544565b61251f565b905082815260208101848484011115611d4457611d43612889565b5b611d4f848285612677565b509392505050565b600081359050611d6681612a57565b92915050565b60008083601f840112611d8257611d8161287f565b5b8235905067ffffffffffffffff811115611d9f57611d9e61287a565b5b602083019150836020820283011115611dbb57611dba612884565b5b9250929050565b600081519050611dd181612a6e565b92915050565b600082601f830112611dec57611deb61287f565b5b8135611dfc848260208601611d15565b91505092915050565b600081359050611e1481612a85565b92915050565b600060208284031215611e3057611e2f612893565b5b6000611e3e84828501611d57565b91505092915050565b60008060208385031215611e5e57611e5d612893565b5b600083013567ffffffffffffffff811115611e7c57611e7b61288e565b5b611e8885828601611d6c565b92509250509250929050565b600060208284031215611eaa57611ea9612893565b5b6000611eb884828501611dc2565b91505092915050565b600060208284031215611ed757611ed6612893565b5b6000611ee584828501611e05565b91505092915050565b600080600080600080600080610100898b031215611f0f57611f0e612893565b5b6000611f1d8b828c01611e05565b985050602089013567ffffffffffffffff811115611f3e57611f3d61288e565b5b611f4a8b828c01611dd7565b9750506040611f5b8b828c01611e05565b9650506060611f6c8b828c01611d57565b9550506080611f7d8b828c01611e05565b94505060a0611f8e8b828c01611e05565b93505060c0611f9f8b828c01611e05565b92505060e0611fb08b828c01611e05565b9150509295985092959890939650565b6000611fcc8383611fd8565b60208301905092915050565b611fe1816125ca565b82525050565b611ff0816125ca565b82525050565b600061200182612585565b61200b81856125a8565b935061201683612575565b8060005b8381101561204757815161202e8882611fc0565b97506120398361259b565b92505060018101905061201a565b5085935050505092915050565b61205d816125dc565b82525050565b61206c816125e8565b82525050565b61207b8161262f565b82525050565b61208a81612641565b82525050565b600061209b82612590565b6120a581856125b9565b93506120b5818560208601612686565b6120be81612898565b840191505092915050565b60006120d66010836125b9565b91506120e1826128a9565b602082019050919050565b60006120f96011836125b9565b9150612104826128d2565b602082019050919050565b600061211c600a836125b9565b9150612127826128fb565b602082019050919050565b600061213f6010836125b9565b915061214a82612924565b602082019050919050565b6000612162601d836125b9565b915061216d8261294d565b602082019050919050565b60006121856012836125b9565b915061219082612976565b602082019050919050565b60006121a86013836125b9565b91506121b38261299f565b602082019050919050565b60006121cb6017836125b9565b91506121d6826129c8565b602082019050919050565b60006121ee600d836125b9565b91506121f9826129f1565b602082019050919050565b6000612211600d836125b9565b915061221c82612a1a565b602082019050919050565b61223081612625565b82525050565b600060208201905061224b6000830184611fe7565b92915050565b60006040820190506122666000830185611fe7565b6122736020830184612054565b9392505050565b600060208201905081810360008301526122948184611ff6565b905092915050565b60006020820190506122b16000830184612054565b92915050565b60006040820190506122cc6000830185612063565b6122d96020830184611fe7565b9392505050565b60006020820190506122f56000830184612072565b92915050565b60006020820190506123106000830184612081565b92915050565b6000602082019050818103600083015261232f816120c9565b9050919050565b6000602082019050818103600083015261234f816120ec565b9050919050565b6000602082019050818103600083015261236f8161210f565b9050919050565b6000602082019050818103600083015261238f81612132565b9050919050565b600060208201905081810360008301526123af81612155565b9050919050565b600060208201905081810360008301526123cf81612178565b9050919050565b600060208201905081810360008301526123ef8161219b565b9050919050565b6000602082019050818103600083015261240f816121be565b9050919050565b6000602082019050818103600083015261242f816121e1565b9050919050565b6000602082019050818103600083015261244f81612204565b9050919050565b600060208201905061246b6000830184612227565b92915050565b600061010082019050612487600083018b612227565b8181036020830152612499818a612090565b90506124a86040830189612227565b6124b56060830188611fe7565b6124c26080830187612227565b6124cf60a0830186612227565b6124dc60c0830185612227565b6124e960e0830184612227565b9998505050505050505050565b600060408201905061250b6000830185612227565b6125186020830184612227565b9392505050565b600061252961253a565b90506125358282612715565b919050565b6000604051905090565b600067ffffffffffffffff82111561255f5761255e61284b565b5b61256882612898565b9050602081019050919050565b6000819050602082019050919050565b600081519050919050565b600081519050919050565b6000602082019050919050565b600082825260208201905092915050565b600082825260208201905092915050565b60006125d582612605565b9050919050565b60008115159050919050565b6000819050919050565b600081905061260082612a43565b919050565b600073ffffffffffffffffffffffffffffffffffffffff82169050919050565b6000819050919050565b600061263a82612653565b9050919050565b600061264c826125f2565b9050919050565b600061265e82612665565b9050919050565b600061267082612605565b9050919050565b82818337600083830152505050565b60005b838110156126a4578082015181840152602081019050612689565b838111156126b3576000848401525b50505050565b60006126c482612625565b915060008214156126d8576126d761278f565b5b600182039050919050565b600060028204905060018216806126fb57607f821691505b6020821081141561270f5761270e6127ed565b5b50919050565b61271e82612898565b810181811067ffffffffffffffff8211171561273d5761273c61284b565b5b80604052505050565b600061275182612625565b91507fffffffffffffffffffffffffffffffffffffffffffffffffffffffffffffffff8214156127845761278361278f565b5b600182019050919050565b7f4e487b7100000000000000000000000000000000000000000000000000000000600052601160045260246000fd5b7f4e487b7100000000000000000000000000000000000000000000000000000000600052602160045260246000fd5b7f4e487b7100000000000000000000000000000000000000000000000000000000600052602260045260246000fd5b7f4e487b7100000000000000000000000000000000000000000000000000000000600052603260045260246000fd5b7f4e487b7100000000000000000000000000000000000000000000000000000000600052604160045260246000fd5b600080fd5b600080fd5b600080fd5b600080fd5b600080fd5b600080fd5b6000601f19601f8301169050919050565b7f53433a2063616e63656c206572726f7200000000000000000000000000000000600082015250565b7f4d433a204f6e6c79204c65637475726572000000000000000000000000000000600082015250565b7f4f6e6c79206f776e657200000000000000000000000000000000000000000000600082015250565b7f4d433a204f6e6c792053747564656e7400000000000000000000000000000000600082015250565b7f4d433a204f6e6c792074686520706572736f6e20696e20636861726765000000600082015250565b7f53433a207265676973746572206572726f720000000000000000000000000000600082015250565b7f53433a2054696d6520697320696e76616c696400000000000000000000000000600082015250565b7f53686f756c64206f6e6c79206164642073747564656e74000000000000000000600082015250565b7f53433a204f6e6c79204c6f636b00000000000000000000000000000000000000600082015250565b7f53433a204f6e6c79204f70656e00000000000000000000000000000000000000600082015250565b60038110612a5457612a536127be565b5b50565b612a60816125ca565b8114612a6b57600080fd5b50565b612a77816125dc565b8114612a8257600080fd5b50565b612a8e81612625565b8114612a9957600080fd5b5056fea264697066735822122005021917f096beadb9d0dffc667b429d6547a6485039ec3e88001a7dfdbb5c0664736f6c63430008070033",
					"opcodes": "PUSH1 0xA0 PUSH1 0x40 MSTORE PUSH1 0x0 PUSH1 0x8 PUSH1 0x0 PUSH2 0x100 EXP DUP2 SLOAD DUP2 PUSH1 0xFF MUL NOT AND SWAP1 DUP4 PUSH1 0x2 DUP2 GT ISZERO PUSH3 0x2D JUMPI PUSH3 0x2C PUSH3 0x177 JUMP JUMPDEST JUMPDEST MUL OR SWAP1 SSTORE POP CALLVALUE DUP1 ISZERO PUSH3 0x3F JUMPI PUSH1 0x0 DUP1 REVERT JUMPDEST POP PUSH1 0x40 MLOAD PUSH3 0x2CCB CODESIZE SUB DUP1 PUSH3 0x2CCB DUP4 CODECOPY DUP2 DUP2 ADD PUSH1 0x40 MSTORE DUP2 ADD SWAP1 PUSH3 0x65 SWAP2 SWAP1 PUSH3 0xFC JUMP JUMPDEST DUP2 PUSH20 0xFFFFFFFFFFFFFFFFFFFFFFFFFFFFFFFFFFFFFFFF AND PUSH1 0x80 DUP2 PUSH20 0xFFFFFFFFFFFFFFFFFFFFFFFFFFFFFFFFFFFFFFFF AND PUSH1 0x60 SHL DUP2 MSTORE POP POP DUP1 PUSH1 0x9 PUSH1 0x0 PUSH2 0x100 EXP DUP2 SLOAD DUP2 PUSH20 0xFFFFFFFFFFFFFFFFFFFFFFFFFFFFFFFFFFFFFFFF MUL NOT AND SWAP1 DUP4 PUSH20 0xFFFFFFFFFFFFFFFFFFFFFFFFFFFFFFFFFFFFFFFF AND MUL OR SWAP1 SSTORE POP POP POP PUSH3 0x1C5 JUMP JUMPDEST PUSH1 0x0 DUP2 MLOAD SWAP1 POP PUSH3 0xF6 DUP2 PUSH3 0x1AB JUMP JUMPDEST SWAP3 SWAP2 POP POP JUMP JUMPDEST PUSH1 0x0 DUP1 PUSH1 0x40 DUP4 DUP6 SUB SLT ISZERO PUSH3 0x116 JUMPI PUSH3 0x115 PUSH3 0x1A6 JUMP JUMPDEST JUMPDEST PUSH1 0x0 PUSH3 0x126 DUP6 DUP3 DUP7 ADD PUSH3 0xE5 JUMP JUMPDEST SWAP3 POP POP PUSH1 0x20 PUSH3 0x139 DUP6 DUP3 DUP7 ADD PUSH3 0xE5 JUMP JUMPDEST SWAP2 POP POP SWAP3 POP SWAP3 SWAP1 POP JUMP JUMPDEST PUSH1 0x0 PUSH3 0x150 DUP3 PUSH3 0x157 JUMP JUMPDEST SWAP1 POP SWAP2 SWAP1 POP JUMP JUMPDEST PUSH1 0x0 PUSH20 0xFFFFFFFFFFFFFFFFFFFFFFFFFFFFFFFFFFFFFFFF DUP3 AND SWAP1 POP SWAP2 SWAP1 POP JUMP JUMPDEST PUSH32 0x4E487B7100000000000000000000000000000000000000000000000000000000 PUSH1 0x0 MSTORE PUSH1 0x21 PUSH1 0x4 MSTORE PUSH1 0x24 PUSH1 0x0 REVERT JUMPDEST PUSH1 0x0 DUP1 REVERT JUMPDEST PUSH3 0x1B6 DUP2 PUSH3 0x143 JUMP JUMPDEST DUP2 EQ PUSH3 0x1C2 JUMPI PUSH1 0x0 DUP1 REVERT JUMPDEST POP JUMP JUMPDEST PUSH1 0x80 MLOAD PUSH1 0x60 SHR PUSH2 0x2AD2 PUSH3 0x1F9 PUSH1 0x0 CODECOPY PUSH1 0x0 DUP2 DUP2 PUSH2 0x9A2 ADD MSTORE DUP2 DUP2 PUSH2 0xCF3 ADD MSTORE DUP2 DUP2 PUSH2 0xD88 ADD MSTORE PUSH2 0x123D ADD MSTORE PUSH2 0x2AD2 PUSH1 0x0 RETURN INVALID PUSH1 0x80 PUSH1 0x40 MSTORE CALLVALUE DUP1 ISZERO PUSH2 0x10 JUMPI PUSH1 0x0 DUP1 REVERT JUMPDEST POP PUSH1 0x4 CALLDATASIZE LT PUSH2 0x116 JUMPI PUSH1 0x0 CALLDATALOAD PUSH1 0xE0 SHR DUP1 PUSH4 0x98754710 GT PUSH2 0xA2 JUMPI DUP1 PUSH4 0xAA4936CE GT PUSH2 0x71 JUMPI DUP1 PUSH4 0xAA4936CE EQ PUSH2 0x29F JUMPI DUP1 PUSH4 0xAA8C217C EQ PUSH2 0x2BD JUMPI DUP1 PUSH4 0xBE9A6555 EQ PUSH2 0x2DB JUMPI DUP1 PUSH4 0xD16E57FE EQ PUSH2 0x2E5 JUMPI DUP1 PUSH4 0xED214FFF EQ PUSH2 0x301 JUMPI PUSH2 0x116 JUMP JUMPDEST DUP1 PUSH4 0x98754710 EQ PUSH2 0x204 JUMPI DUP1 PUSH4 0xA32FB342 EQ PUSH2 0x235 JUMPI DUP1 PUSH4 0xA53DC8D2 EQ PUSH2 0x265 JUMPI DUP1 PUSH4 0xA7F44E0D EQ PUSH2 0x281 JUMPI PUSH2 0x116 JUMP JUMPDEST DUP1 PUSH4 0x35955121 GT PUSH2 0xE9 JUMPI DUP1 PUSH4 0x35955121 EQ PUSH2 0x186 JUMPI DUP1 PUSH4 0x35F34232 EQ PUSH2 0x1A2 JUMPI DUP1 PUSH4 0x43D726D6 EQ PUSH2 0x1D2 JUMPI DUP1 PUSH4 0x49AA7033 EQ PUSH2 0x1DC JUMPI DUP1 PUSH4 0x8DA5CB5B EQ PUSH2 0x1E6 JUMPI PUSH2 0x116 JUMP JUMPDEST DUP1 PUSH4 0xA59A98C EQ PUSH2 0x11B JUMPI DUP1 PUSH4 0x1AA3A008 EQ PUSH2 0x140 JUMPI DUP1 PUSH4 0x200D2ED2 EQ PUSH2 0x14A JUMPI DUP1 PUSH4 0x2FE7A96D EQ PUSH2 0x168 JUMPI JUMPDEST PUSH1 0x0 DUP1 REVERT JUMPDEST PUSH2 0x123 PUSH2 0x31F JUMP JUMPDEST PUSH1 0x40 MLOAD PUSH2 0x137 SWAP9 SWAP8 SWAP7 SWAP6 SWAP5 SWAP4 SWAP3 SWAP2 SWAP1 PUSH2 0x2471 JUMP JUMPDEST PUSH1 0x40 MLOAD DUP1 SWAP2 SUB SWAP1 RETURN JUMPDEST PUSH2 0x148 PUSH2 0x3FD JUMP JUMPDEST STOP JUMPDEST PUSH2 0x152 PUSH2 0x58A JUMP JUMPDEST PUSH1 0x40 MLOAD PUSH2 0x15F SWAP2 SWAP1 PUSH2 0x22FB JUMP JUMPDEST PUSH1 0x40 MLOAD DUP1 SWAP2 SUB SWAP1 RETURN JUMPDEST PUSH2 0x170 PUSH2 0x59D JUMP JUMPDEST PUSH1 0x40 MLOAD PUSH2 0x17D SWAP2 SWAP1 PUSH2 0x2236 JUMP JUMPDEST PUSH1 0x40 MLOAD DUP1 SWAP2 SUB SWAP1 RETURN JUMPDEST PUSH2 0x1A0 PUSH1 0x4 DUP1 CALLDATASIZE SUB DUP2 ADD SWAP1 PUSH2 0x19B SWAP2 SWAP1 PUSH2 0x1E47 JUMP JUMPDEST PUSH2 0x5C3 JUMP JUMPDEST STOP JUMPDEST PUSH2 0x1BC PUSH1 0x4 DUP1 CALLDATASIZE SUB DUP2 ADD SWAP1 PUSH2 0x1B7 SWAP2 SWAP1 PUSH2 0x1EC1 JUMP JUMPDEST PUSH2 0x961 JUMP JUMPDEST PUSH1 0x40 MLOAD PUSH2 0x1C9 SWAP2 SWAP1 PUSH2 0x2236 JUMP JUMPDEST PUSH1 0x40 MLOAD DUP1 SWAP2 SUB SWAP1 RETURN JUMPDEST PUSH2 0x1DA PUSH2 0x9A0 JUMP JUMPDEST STOP JUMPDEST PUSH2 0x1E4 PUSH2 0xAA3 JUMP JUMPDEST STOP JUMPDEST PUSH2 0x1EE PUSH2 0xCF1 JUMP JUMPDEST PUSH1 0x40 MLOAD PUSH2 0x1FB SWAP2 SWAP1 PUSH2 0x2236 JUMP JUMPDEST PUSH1 0x40 MLOAD DUP1 SWAP2 SUB SWAP1 RETURN JUMPDEST PUSH2 0x21E PUSH1 0x4 DUP1 CALLDATASIZE SUB DUP2 ADD SWAP1 PUSH2 0x219 SWAP2 SWAP1 PUSH2 0x1E1A JUMP JUMPDEST PUSH2 0xD15 JUMP JUMPDEST PUSH1 0x40 MLOAD PUSH2 0x22C SWAP3 SWAP2 SWAP1 PUSH2 0x2251 JUMP JUMPDEST PUSH1 0x40 MLOAD DUP1 SWAP2 SUB SWAP1 RETURN JUMPDEST PUSH2 0x24F PUSH1 0x4 DUP1 CALLDATASIZE SUB DUP2 ADD SWAP1 PUSH2 0x24A SWAP2 SWAP1 PUSH2 0x1E1A JUMP JUMPDEST PUSH2 0xD66 JUMP JUMPDEST PUSH1 0x40 MLOAD PUSH2 0x25C SWAP2 SWAP1 PUSH2 0x229C JUMP JUMPDEST PUSH1 0x40 MLOAD DUP1 SWAP2 SUB SWAP1 RETURN JUMPDEST PUSH2 0x27F PUSH1 0x4 DUP1 CALLDATASIZE SUB DUP2 ADD SWAP1 PUSH2 0x27A SWAP2 SWAP1 PUSH2 0x1EEE JUMP JUMPDEST PUSH2 0xD86 JUMP JUMPDEST STOP JUMPDEST PUSH2 0x289 PUSH2 0xFEB JUMP JUMPDEST PUSH1 0x40 MLOAD PUSH2 0x296 SWAP2 SWAP1 PUSH2 0x227A JUMP JUMPDEST PUSH1 0x40 MLOAD DUP1 SWAP2 SUB SWAP1 RETURN JUMPDEST PUSH2 0x2A7 PUSH2 0x120F JUMP JUMPDEST PUSH1 0x40 MLOAD PUSH2 0x2B4 SWAP2 SWAP1 PUSH2 0x22E0 JUMP JUMPDEST PUSH1 0x40 MLOAD DUP1 SWAP2 SUB SWAP1 RETURN JUMPDEST PUSH2 0x2C5 PUSH2 0x1235 JUMP JUMPDEST PUSH1 0x40 MLOAD PUSH2 0x2D2 SWAP2 SWAP1 PUSH2 0x2456 JUMP JUMPDEST PUSH1 0x40 MLOAD DUP1 SWAP2 SUB SWAP1 RETURN JUMPDEST PUSH2 0x2E3 PUSH2 0x123B JUMP JUMPDEST STOP JUMPDEST PUSH2 0x2FF PUSH1 0x4 DUP1 CALLDATASIZE SUB DUP2 ADD SWAP1 PUSH2 0x2FA SWAP2 SWAP1 PUSH2 0x1E47 JUMP JUMPDEST PUSH2 0x12F6 JUMP JUMPDEST STOP JUMPDEST PUSH2 0x309 PUSH2 0x1707 JUMP JUMPDEST PUSH1 0x40 MLOAD PUSH2 0x316 SWAP2 SWAP1 PUSH2 0x227A JUMP JUMPDEST PUSH1 0x40 MLOAD DUP1 SWAP2 SUB SWAP1 RETURN JUMPDEST PUSH1 0x0 DUP1 PUSH1 0x0 ADD SLOAD SWAP1 DUP1 PUSH1 0x1 ADD DUP1 SLOAD PUSH2 0x336 SWAP1 PUSH2 0x26E3 JUMP JUMPDEST DUP1 PUSH1 0x1F ADD PUSH1 0x20 DUP1 SWAP2 DIV MUL PUSH1 0x20 ADD PUSH1 0x40 MLOAD SWAP1 DUP2 ADD PUSH1 0x40 MSTORE DUP1 SWAP3 SWAP2 SWAP1 DUP2 DUP2 MSTORE PUSH1 0x20 ADD DUP3 DUP1 SLOAD PUSH2 0x362 SWAP1 PUSH2 0x26E3 JUMP JUMPDEST DUP1 ISZERO PUSH2 0x3AF JUMPI DUP1 PUSH1 0x1F LT PUSH2 0x384 JUMPI PUSH2 0x100 DUP1 DUP4 SLOAD DIV MUL DUP4 MSTORE SWAP2 PUSH1 0x20 ADD SWAP2 PUSH2 0x3AF JUMP JUMPDEST DUP3 ADD SWAP2 SWAP1 PUSH1 0x0 MSTORE PUSH1 0x20 PUSH1 0x0 KECCAK256 SWAP1 JUMPDEST DUP2 SLOAD DUP2 MSTORE SWAP1 PUSH1 0x1 ADD SWAP1 PUSH1 0x20 ADD DUP1 DUP4 GT PUSH2 0x392 JUMPI DUP3 SWAP1 SUB PUSH1 0x1F AND DUP3 ADD SWAP2 JUMPDEST POP POP POP POP POP SWAP1 DUP1 PUSH1 0x2 ADD SLOAD SWAP1 DUP1 PUSH1 0x3 ADD PUSH1 0x0 SWAP1 SLOAD SWAP1 PUSH2 0x100 EXP SWAP1 DIV PUSH20 0xFFFFFFFFFFFFFFFFFFFFFFFFFFFFFFFFFFFFFFFF AND SWAP1 DUP1 PUSH1 0x4 ADD SLOAD SWAP1 DUP1 PUSH1 0x5 ADD SLOAD SWAP1 DUP1 PUSH1 0x6 ADD SLOAD SWAP1 DUP1 PUSH1 0x7 ADD SLOAD SWAP1 POP DUP9 JUMP JUMPDEST PUSH1 0x1 PUSH1 0x2 DUP2 GT ISZERO PUSH2 0x411 JUMPI PUSH2 0x410 PUSH2 0x27BE JUMP JUMPDEST JUMPDEST PUSH1 0x8 PUSH1 0x0 SWAP1 SLOAD SWAP1 PUSH2 0x100 EXP SWAP1 DIV PUSH1 0xFF AND PUSH1 0x2 DUP2 GT ISZERO PUSH2 0x433 JUMPI PUSH2 0x432 PUSH2 0x27BE JUMP JUMPDEST JUMPDEST EQ PUSH2 0x473 JUMPI PUSH1 0x40 MLOAD PUSH32 0x8C379A000000000000000000000000000000000000000000000000000000000 DUP2 MSTORE PUSH1 0x4 ADD PUSH2 0x46A SWAP1 PUSH2 0x2436 JUMP JUMPDEST PUSH1 0x40 MLOAD DUP1 SWAP2 SUB SWAP1 REVERT JUMPDEST PUSH1 0x9 PUSH1 0x0 SWAP1 SLOAD SWAP1 PUSH2 0x100 EXP SWAP1 DIV PUSH20 0xFFFFFFFFFFFFFFFFFFFFFFFFFFFFFFFFFFFFFFFF AND PUSH20 0xFFFFFFFFFFFFFFFFFFFFFFFFFFFFFFFFFFFFFFFF AND PUSH4 0x91D14854 PUSH32 0xC951D7098B66BA0B8B77265B6E9CF0E187D73125A42BCD0061B09A68BE421810 CALLER PUSH1 0x40 MLOAD DUP4 PUSH4 0xFFFFFFFF AND PUSH1 0xE0 SHL DUP2 MSTORE PUSH1 0x4 ADD PUSH2 0x4F0 SWAP3 SWAP2 SWAP1 PUSH2 0x22B7 JUMP JUMPDEST PUSH1 0x20 PUSH1 0x40 MLOAD DUP1 DUP4 SUB DUP2 DUP7 DUP1 EXTCODESIZE ISZERO DUP1 ISZERO PUSH2 0x508 JUMPI PUSH1 0x0 DUP1 REVERT JUMPDEST POP GAS STATICCALL ISZERO DUP1 ISZERO PUSH2 0x51C JUMPI RETURNDATASIZE PUSH1 0x0 DUP1 RETURNDATACOPY RETURNDATASIZE PUSH1 0x0 REVERT JUMPDEST POP POP POP POP PUSH1 0x40 MLOAD RETURNDATASIZE PUSH1 0x1F NOT PUSH1 0x1F DUP3 ADD AND DUP3 ADD DUP1 PUSH1 0x40 MSTORE POP DUP2 ADD SWAP1 PUSH2 0x540 SWAP2 SWAP1 PUSH2 0x1E94 JUMP JUMPDEST PUSH2 0x57F JUMPI PUSH1 0x40 MLOAD PUSH32 0x8C379A000000000000000000000000000000000000000000000000000000000 DUP2 MSTORE PUSH1 0x4 ADD PUSH2 0x576 SWAP1 PUSH2 0x2376 JUMP JUMPDEST PUSH1 0x40 MLOAD DUP1 SWAP2 SUB SWAP1 REVERT JUMPDEST PUSH2 0x588 CALLER PUSH2 0x19F2 JUMP JUMPDEST JUMP JUMPDEST PUSH1 0x8 PUSH1 0x0 SWAP1 SLOAD SWAP1 PUSH2 0x100 EXP SWAP1 DIV PUSH1 0xFF AND DUP2 JUMP JUMPDEST PUSH1 0x8 PUSH1 0x1 SWAP1 SLOAD SWAP1 PUSH2 0x100 EXP SWAP1 DIV PUSH20 0xFFFFFFFFFFFFFFFFFFFFFFFFFFFFFFFFFFFFFFFF AND DUP2 JUMP JUMPDEST PUSH1 0x9 PUSH1 0x0 SWAP1 SLOAD SWAP1 PUSH2 0x100 EXP SWAP1 DIV PUSH20 0xFFFFFFFFFFFFFFFFFFFFFFFFFFFFFFFFFFFFFFFF AND PUSH20 0xFFFFFFFFFFFFFFFFFFFFFFFFFFFFFFFFFFFFFFFF AND PUSH4 0x91D14854 PUSH32 0xB39B9469AC3DDF8D58F06201F7E17350A277B429ED2A39727BF2F3A5165DBA1A CALLER PUSH1 0x40 MLOAD DUP4 PUSH4 0xFFFFFFFF AND PUSH1 0xE0 SHL DUP2 MSTORE PUSH1 0x4 ADD PUSH2 0x640 SWAP3 SWAP2 SWAP1 PUSH2 0x22B7 JUMP JUMPDEST PUSH1 0x20 PUSH1 0x40 MLOAD DUP1 DUP4 SUB DUP2 DUP7 DUP1 EXTCODESIZE ISZERO DUP1 ISZERO PUSH2 0x658 JUMPI PUSH1 0x0 DUP1 REVERT JUMPDEST POP GAS STATICCALL ISZERO DUP1 ISZERO PUSH2 0x66C JUMPI RETURNDATASIZE PUSH1 0x0 DUP1 RETURNDATACOPY RETURNDATASIZE PUSH1 0x0 REVERT JUMPDEST POP POP POP POP PUSH1 0x40 MLOAD RETURNDATASIZE PUSH1 0x1F NOT PUSH1 0x1F DUP3 ADD AND DUP3 ADD DUP1 PUSH1 0x40 MSTORE POP DUP2 ADD SWAP1 PUSH2 0x690 SWAP2 SWAP1 PUSH2 0x1E94 JUMP JUMPDEST PUSH2 0x6CF JUMPI PUSH1 0x40 MLOAD PUSH32 0x8C379A000000000000000000000000000000000000000000000000000000000 DUP2 MSTORE PUSH1 0x4 ADD PUSH2 0x6C6 SWAP1 PUSH2 0x2336 JUMP JUMPDEST PUSH1 0x40 MLOAD DUP1 SWAP2 SUB SWAP1 REVERT JUMPDEST PUSH1 0x1 PUSH1 0x2 DUP2 GT ISZERO PUSH2 0x6E3 JUMPI PUSH2 0x6E2 PUSH2 0x27BE JUMP JUMPDEST JUMPDEST PUSH1 0x8 PUSH1 0x0 SWAP1 SLOAD SWAP1 PUSH2 0x100 EXP SWAP1 DIV PUSH1 0xFF AND PUSH1 0x2 DUP2 GT ISZERO PUSH2 0x705 JUMPI PUSH2 0x704 PUSH2 0x27BE JUMP JUMPDEST JUMPDEST EQ PUSH2 0x745 JUMPI PUSH1 0x40 MLOAD PUSH32 0x8C379A000000000000000000000000000000000000000000000000000000000 DUP2 MSTORE PUSH1 0x4 ADD PUSH2 0x73C SWAP1 PUSH2 0x2436 JUMP JUMPDEST PUSH1 0x40 MLOAD DUP1 SWAP2 SUB SWAP1 REVERT JUMPDEST PUSH1 0x0 PUSH1 0x3 ADD PUSH1 0x0 SWAP1 SLOAD SWAP1 PUSH2 0x100 EXP SWAP1 DIV PUSH20 0xFFFFFFFFFFFFFFFFFFFFFFFFFFFFFFFFFFFFFFFF AND PUSH20 0xFFFFFFFFFFFFFFFFFFFFFFFFFFFFFFFFFFFFFFFF AND CALLER PUSH20 0xFFFFFFFFFFFFFFFFFFFFFFFFFFFFFFFFFFFFFFFF AND EQ PUSH2 0x7D8 JUMPI PUSH1 0x40 MLOAD PUSH32 0x8C379A000000000000000000000000000000000000000000000000000000000 DUP2 MSTORE PUSH1 0x4 ADD PUSH2 0x7CF SWAP1 PUSH2 0x2396 JUMP JUMPDEST PUSH1 0x40 MLOAD DUP1 SWAP2 SUB SWAP1 REVERT JUMPDEST PUSH1 0x0 JUMPDEST DUP3 DUP3 SWAP1 POP DUP2 LT ISZERO PUSH2 0x95C JUMPI PUSH1 0x9 PUSH1 0x0 SWAP1 SLOAD SWAP1 PUSH2 0x100 EXP SWAP1 DIV PUSH20 0xFFFFFFFFFFFFFFFFFFFFFFFFFFFFFFFFFFFFFFFF AND PUSH20 0xFFFFFFFFFFFFFFFFFFFFFFFFFFFFFFFFFFFFFFFF AND PUSH4 0x91D14854 PUSH32 0xC951D7098B66BA0B8B77265B6E9CF0E187D73125A42BCD0061B09A68BE421810 DUP6 DUP6 DUP6 DUP2 DUP2 LT PUSH2 0x858 JUMPI PUSH2 0x857 PUSH2 0x281C JUMP JUMPDEST JUMPDEST SWAP1 POP PUSH1 0x20 MUL ADD PUSH1 0x20 DUP2 ADD SWAP1 PUSH2 0x86D SWAP2 SWAP1 PUSH2 0x1E1A JUMP JUMPDEST PUSH1 0x40 MLOAD DUP4 PUSH4 0xFFFFFFFF AND PUSH1 0xE0 SHL DUP2 MSTORE PUSH1 0x4 ADD PUSH2 0x88A SWAP3 SWAP2 SWAP1 PUSH2 0x22B7 JUMP JUMPDEST PUSH1 0x20 PUSH1 0x40 MLOAD DUP1 DUP4 SUB DUP2 DUP7 DUP1 EXTCODESIZE ISZERO DUP1 ISZERO PUSH2 0x8A2 JUMPI PUSH1 0x0 DUP1 REVERT JUMPDEST POP GAS STATICCALL ISZERO DUP1 ISZERO PUSH2 0x8B6 JUMPI RETURNDATASIZE PUSH1 0x0 DUP1 RETURNDATACOPY RETURNDATASIZE PUSH1 0x0 REVERT JUMPDEST POP POP POP POP PUSH1 0x40 MLOAD RETURNDATASIZE PUSH1 0x1F NOT PUSH1 0x1F DUP3 ADD AND DUP3 ADD DUP1 PUSH1 0x40 MSTORE POP DUP2 ADD SWAP1 PUSH2 0x8DA SWAP2 SWAP1 PUSH2 0x1E94 JUMP JUMPDEST PUSH2 0x919 JUMPI PUSH1 0x40 MLOAD PUSH32 0x8C379A000000000000000000000000000000000000000000000000000000000 DUP2 MSTORE PUSH1 0x4 ADD PUSH2 0x910 SWAP1 PUSH2 0x23F6 JUMP JUMPDEST PUSH1 0x40 MLOAD DUP1 SWAP2 SUB SWAP1 REVERT JUMPDEST PUSH2 0x949 DUP4 DUP4 DUP4 DUP2 DUP2 LT PUSH2 0x92F JUMPI PUSH2 0x92E PUSH2 0x281C JUMP JUMPDEST JUMPDEST SWAP1 POP PUSH1 0x20 MUL ADD PUSH1 0x20 DUP2 ADD SWAP1 PUSH2 0x944 SWAP2 SWAP1 PUSH2 0x1E1A JUMP JUMPDEST PUSH2 0x19F2 JUMP JUMPDEST DUP1 DUP1 PUSH2 0x954 SWAP1 PUSH2 0x2746 JUMP JUMPDEST SWAP2 POP POP PUSH2 0x7DB JUMP JUMPDEST POP POP POP JUMP JUMPDEST PUSH1 0xA DUP2 DUP2 SLOAD DUP2 LT PUSH2 0x971 JUMPI PUSH1 0x0 DUP1 REVERT JUMPDEST SWAP1 PUSH1 0x0 MSTORE PUSH1 0x20 PUSH1 0x0 KECCAK256 ADD PUSH1 0x0 SWAP2 POP SLOAD SWAP1 PUSH2 0x100 EXP SWAP1 DIV PUSH20 0xFFFFFFFFFFFFFFFFFFFFFFFFFFFFFFFFFFFFFFFF AND DUP2 JUMP JUMPDEST PUSH32 0x0 PUSH20 0xFFFFFFFFFFFFFFFFFFFFFFFFFFFFFFFFFFFFFFFF AND CALLER PUSH20 0xFFFFFFFFFFFFFFFFFFFFFFFFFFFFFFFFFFFFFFFF AND EQ PUSH2 0xA2E JUMPI PUSH1 0x40 MLOAD PUSH32 0x8C379A000000000000000000000000000000000000000000000000000000000 DUP2 MSTORE PUSH1 0x4 ADD PUSH2 0xA25 SWAP1 PUSH2 0x2356 JUMP JUMPDEST PUSH1 0x40 MLOAD DUP1 SWAP2 SUB SWAP1 REVERT JUMPDEST PUSH1 0x2 PUSH1 0x8 PUSH1 0x0 PUSH2 0x100 EXP DUP2 SLOAD DUP2 PUSH1 0xFF MUL NOT AND SWAP1 DUP4 PUSH1 0x2 DUP2 GT ISZERO PUSH2 0xA54 JUMPI PUSH2 0xA53 PUSH2 0x27BE JUMP JUMPDEST JUMPDEST MUL OR SWAP1 SSTORE POP PUSH1 0x0 PUSH1 0x7 ADD SLOAD TIMESTAMP GT PUSH2 0xA6A JUMPI PUSH1 0x0 DUP1 REVERT JUMPDEST PUSH32 0xBF67515A38EE520223D32C1266D52101C30D936ED1F3E436C8CAEB0A43CB06BF TIMESTAMP PUSH1 0x40 MLOAD PUSH2 0xA99 SWAP2 SWAP1 PUSH2 0x2456 JUMP JUMPDEST PUSH1 0x40 MLOAD DUP1 SWAP2 SUB SWAP1 LOG1 JUMP JUMPDEST PUSH1 0x1 PUSH1 0x2 DUP2 GT ISZERO PUSH2 0xAB7 JUMPI PUSH2 0xAB6 PUSH2 0x27BE JUMP JUMPDEST JUMPDEST PUSH1 0x8 PUSH1 0x0 SWAP1 SLOAD SWAP1 PUSH2 0x100 EXP SWAP1 DIV PUSH1 0xFF AND PUSH1 0x2 DUP2 GT ISZERO PUSH2 0xAD9 JUMPI PUSH2 0xAD8 PUSH2 0x27BE JUMP JUMPDEST JUMPDEST EQ PUSH2 0xB19 JUMPI PUSH1 0x40 MLOAD PUSH32 0x8C379A000000000000000000000000000000000000000000000000000000000 DUP2 MSTORE PUSH1 0x4 ADD PUSH2 0xB10 SWAP1 PUSH2 0x2436 JUMP JUMPDEST PUSH1 0x40 MLOAD DUP1 SWAP2 SUB SWAP1 REVERT JUMPDEST PUSH1 0x9 PUSH1 0x0 SWAP1 SLOAD SWAP1 PUSH2 0x100 EXP SWAP1 DIV PUSH20 0xFFFFFFFFFFFFFFFFFFFFFFFFFFFFFFFFFFFFFFFF AND PUSH20 0xFFFFFFFFFFFFFFFFFFFFFFFFFFFFFFFFFFFFFFFF AND PUSH4 0x91D14854 PUSH32 0xC951D7098B66BA0B8B77265B6E9CF0E187D73125A42BCD0061B09A68BE421810 CALLER PUSH1 0x40 MLOAD DUP4 PUSH4 0xFFFFFFFF AND PUSH1 0xE0 SHL DUP2 MSTORE PUSH1 0x4 ADD PUSH2 0xB96 SWAP3 SWAP2 SWAP1 PUSH2 0x22B7 JUMP JUMPDEST PUSH1 0x20 PUSH1 0x40 MLOAD DUP1 DUP4 SUB DUP2 DUP7 DUP1 EXTCODESIZE ISZERO DUP1 ISZERO PUSH2 0xBAE JUMPI PUSH1 0x0 DUP1 REVERT JUMPDEST POP GAS STATICCALL ISZERO DUP1 ISZERO PUSH2 0xBC2 JUMPI RETURNDATASIZE PUSH1 0x0 DUP1 RETURNDATACOPY RETURNDATASIZE PUSH1 0x0 REVERT JUMPDEST POP POP POP POP PUSH1 0x40 MLOAD RETURNDATASIZE PUSH1 0x1F NOT PUSH1 0x1F DUP3 ADD AND DUP3 ADD DUP1 PUSH1 0x40 MSTORE POP DUP2 ADD SWAP1 PUSH2 0xBE6 SWAP2 SWAP1 PUSH2 0x1E94 JUMP JUMPDEST PUSH2 0xC25 JUMPI PUSH1 0x40 MLOAD PUSH32 0x8C379A000000000000000000000000000000000000000000000000000000000 DUP2 MSTORE PUSH1 0x4 ADD PUSH2 0xC1C SWAP1 PUSH2 0x2376 JUMP JUMPDEST PUSH1 0x40 MLOAD DUP1 SWAP2 SUB SWAP1 REVERT JUMPDEST PUSH1 0x0 PUSH1 0xB PUSH1 0x0 CALLER PUSH20 0xFFFFFFFFFFFFFFFFFFFFFFFFFFFFFFFFFFFFFFFF AND PUSH20 0xFFFFFFFFFFFFFFFFFFFFFFFFFFFFFFFFFFFFFFFF AND DUP2 MSTORE PUSH1 0x20 ADD SWAP1 DUP2 MSTORE PUSH1 0x20 ADD PUSH1 0x0 KECCAK256 SWAP1 POP DUP1 PUSH1 0x0 ADD PUSH1 0x14 SWAP1 SLOAD SWAP1 PUSH2 0x100 EXP SWAP1 DIV PUSH1 0xFF AND PUSH2 0xCB9 JUMPI PUSH1 0x40 MLOAD PUSH32 0x8C379A000000000000000000000000000000000000000000000000000000000 DUP2 MSTORE PUSH1 0x4 ADD PUSH2 0xCB0 SWAP1 PUSH2 0x2316 JUMP JUMPDEST PUSH1 0x40 MLOAD DUP1 SWAP2 SUB SWAP1 REVERT JUMPDEST PUSH1 0xC PUSH1 0x0 DUP2 SLOAD DUP1 SWAP3 SWAP2 SWAP1 PUSH2 0xCCC SWAP1 PUSH2 0x26B9 JUMP JUMPDEST SWAP2 SWAP1 POP SSTORE POP PUSH1 0x0 DUP2 PUSH1 0x0 ADD PUSH1 0x14 PUSH2 0x100 EXP DUP2 SLOAD DUP2 PUSH1 0xFF MUL NOT AND SWAP1 DUP4 ISZERO ISZERO MUL OR SWAP1 SSTORE POP POP JUMP JUMPDEST PUSH32 0x0 DUP2 JUMP JUMPDEST PUSH1 0xB PUSH1 0x20 MSTORE DUP1 PUSH1 0x0 MSTORE PUSH1 0x40 PUSH1 0x0 KECCAK256 PUSH1 0x0 SWAP2 POP SWAP1 POP DUP1 PUSH1 0x0 ADD PUSH1 0x0 SWAP1 SLOAD SWAP1 PUSH2 0x100 EXP SWAP1 DIV PUSH20 0xFFFFFFFFFFFFFFFFFFFFFFFFFFFFFFFFFFFFFFFF AND SWAP1 DUP1 PUSH1 0x0 ADD PUSH1 0x14 SWAP1 SLOAD SWAP1 PUSH2 0x100 EXP SWAP1 DIV PUSH1 0xFF AND SWAP1 POP DUP3 JUMP JUMPDEST PUSH1 0xD PUSH1 0x20 MSTORE DUP1 PUSH1 0x0 MSTORE PUSH1 0x40 PUSH1 0x0 KECCAK256 PUSH1 0x0 SWAP2 POP SLOAD SWAP1 PUSH2 0x100 EXP SWAP1 DIV PUSH1 0xFF AND DUP2 JUMP JUMPDEST PUSH32 0x0 PUSH20 0xFFFFFFFFFFFFFFFFFFFFFFFFFFFFFFFFFFFFFFFF AND CALLER PUSH20 0xFFFFFFFFFFFFFFFFFFFFFFFFFFFFFFFFFFFFFFFF AND EQ PUSH2 0xE14 JUMPI PUSH1 0x40 MLOAD PUSH32 0x8C379A000000000000000000000000000000000000000000000000000000000 DUP2 MSTORE PUSH1 0x4 ADD PUSH2 0xE0B SWAP1 PUSH2 0x2356 JUMP JUMPDEST PUSH1 0x40 MLOAD DUP1 SWAP2 SUB SWAP1 REVERT JUMPDEST PUSH1 0x0 PUSH1 0x2 DUP2 GT ISZERO PUSH2 0xE28 JUMPI PUSH2 0xE27 PUSH2 0x27BE JUMP JUMPDEST JUMPDEST PUSH1 0x8 PUSH1 0x0 SWAP1 SLOAD SWAP1 PUSH2 0x100 EXP SWAP1 DIV PUSH1 0xFF AND PUSH1 0x2 DUP2 GT ISZERO PUSH2 0xE4A JUMPI PUSH2 0xE49 PUSH2 0x27BE JUMP JUMPDEST JUMPDEST EQ PUSH2 0xE8A JUMPI PUSH1 0x40 MLOAD PUSH32 0x8C379A000000000000000000000000000000000000000000000000000000000 DUP2 MSTORE PUSH1 0x4 ADD PUSH2 0xE81 SWAP1 PUSH2 0x2416 JUMP JUMPDEST PUSH1 0x40 MLOAD DUP1 SWAP2 SUB SWAP1 REVERT JUMPDEST DUP4 TIMESTAMP LT DUP1 ISZERO PUSH2 0xE98 JUMPI POP DUP3 DUP5 LT JUMPDEST DUP1 ISZERO PUSH2 0xEA3 JUMPI POP DUP2 DUP4 LT JUMPDEST DUP1 ISZERO PUSH2 0xEAE JUMPI POP DUP1 DUP3 LT JUMPDEST PUSH2 0xEED JUMPI PUSH1 0x40 MLOAD PUSH32 0x8C379A000000000000000000000000000000000000000000000000000000000 DUP2 MSTORE PUSH1 0x4 ADD PUSH2 0xEE4 SWAP1 PUSH2 0x23D6 JUMP JUMPDEST PUSH1 0x40 MLOAD DUP1 SWAP2 SUB SWAP1 REVERT JUMPDEST PUSH1 0x40 MLOAD DUP1 PUSH2 0x100 ADD PUSH1 0x40 MSTORE DUP1 DUP10 DUP2 MSTORE PUSH1 0x20 ADD DUP9 DUP2 MSTORE PUSH1 0x20 ADD DUP8 DUP2 MSTORE PUSH1 0x20 ADD DUP7 PUSH20 0xFFFFFFFFFFFFFFFFFFFFFFFFFFFFFFFFFFFFFFFF AND DUP2 MSTORE PUSH1 0x20 ADD DUP6 DUP2 MSTORE PUSH1 0x20 ADD DUP5 DUP2 MSTORE PUSH1 0x20 ADD DUP4 DUP2 MSTORE PUSH1 0x20 ADD DUP3 DUP2 MSTORE POP PUSH1 0x0 DUP1 DUP3 ADD MLOAD DUP2 PUSH1 0x0 ADD SSTORE PUSH1 0x20 DUP3 ADD MLOAD DUP2 PUSH1 0x1 ADD SWAP1 DUP1 MLOAD SWAP1 PUSH1 0x20 ADD SWAP1 PUSH2 0xF64 SWAP3 SWAP2 SWAP1 PUSH2 0x1C72 JUMP JUMPDEST POP PUSH1 0x40 DUP3 ADD MLOAD DUP2 PUSH1 0x2 ADD SSTORE PUSH1 0x60 DUP3 ADD MLOAD DUP2 PUSH1 0x3 ADD PUSH1 0x0 PUSH2 0x100 EXP DUP2 SLOAD DUP2 PUSH20 0xFFFFFFFFFFFFFFFFFFFFFFFFFFFFFFFFFFFFFFFF MUL NOT AND SWAP1 DUP4 PUSH20 0xFFFFFFFFFFFFFFFFFFFFFFFFFFFFFFFFFFFFFFFF AND MUL OR SWAP1 SSTORE POP PUSH1 0x80 DUP3 ADD MLOAD DUP2 PUSH1 0x4 ADD SSTORE PUSH1 0xA0 DUP3 ADD MLOAD DUP2 PUSH1 0x5 ADD SSTORE PUSH1 0xC0 DUP3 ADD MLOAD DUP2 PUSH1 0x6 ADD SSTORE PUSH1 0xE0 DUP3 ADD MLOAD DUP2 PUSH1 0x7 ADD SSTORE SWAP1 POP POP POP POP POP POP POP POP POP POP JUMP JUMPDEST PUSH1 0x60 PUSH1 0x0 PUSH1 0xC SLOAD PUSH8 0xFFFFFFFFFFFFFFFF DUP2 GT ISZERO PUSH2 0x100B JUMPI PUSH2 0x100A PUSH2 0x284B JUMP JUMPDEST JUMPDEST PUSH1 0x40 MLOAD SWAP1 DUP1 DUP3 MSTORE DUP1 PUSH1 0x20 MUL PUSH1 0x20 ADD DUP3 ADD PUSH1 0x40 MSTORE DUP1 ISZERO PUSH2 0x1039 JUMPI DUP2 PUSH1 0x20 ADD PUSH1 0x20 DUP3 MUL DUP1 CALLDATASIZE DUP4 CALLDATACOPY DUP1 DUP3 ADD SWAP2 POP POP SWAP1 POP JUMPDEST POP SWAP1 POP PUSH1 0x0 DUP1 PUSH1 0x0 SWAP1 POP JUMPDEST PUSH1 0xA DUP1 SLOAD SWAP1 POP DUP2 LT ISZERO PUSH2 0x1206 JUMPI PUSH1 0xD PUSH1 0x0 PUSH1 0xA DUP4 DUP2 SLOAD DUP2 LT PUSH2 0x1069 JUMPI PUSH2 0x1068 PUSH2 0x281C JUMP JUMPDEST JUMPDEST SWAP1 PUSH1 0x0 MSTORE PUSH1 0x20 PUSH1 0x0 KECCAK256 ADD PUSH1 0x0 SWAP1 SLOAD SWAP1 PUSH2 0x100 EXP SWAP1 DIV PUSH20 0xFFFFFFFFFFFFFFFFFFFFFFFFFFFFFFFFFFFFFFFF AND PUSH20 0xFFFFFFFFFFFFFFFFFFFFFFFFFFFFFFFFFFFFFFFF AND PUSH20 0xFFFFFFFFFFFFFFFFFFFFFFFFFFFFFFFFFFFFFFFF AND DUP2 MSTORE PUSH1 0x20 ADD SWAP1 DUP2 MSTORE PUSH1 0x20 ADD PUSH1 0x0 KECCAK256 PUSH1 0x0 SWAP1 SLOAD SWAP1 PUSH2 0x100 EXP SWAP1 DIV PUSH1 0xFF AND DUP1 ISZERO PUSH2 0x1153 JUMPI POP PUSH1 0x0 PUSH20 0xFFFFFFFFFFFFFFFFFFFFFFFFFFFFFFFFFFFFFFFF AND PUSH1 0xA DUP3 DUP2 SLOAD DUP2 LT PUSH2 0x110F JUMPI PUSH2 0x110E PUSH2 0x281C JUMP JUMPDEST JUMPDEST SWAP1 PUSH1 0x0 MSTORE PUSH1 0x20 PUSH1 0x0 KECCAK256 ADD PUSH1 0x0 SWAP1 SLOAD SWAP1 PUSH2 0x100 EXP SWAP1 DIV PUSH20 0xFFFFFFFFFFFFFFFFFFFFFFFFFFFFFFFFFFFFFFFF AND PUSH20 0xFFFFFFFFFFFFFFFFFFFFFFFFFFFFFFFFFFFFFFFF AND EQ ISZERO JUMPDEST ISZERO PUSH2 0x11F3 JUMPI PUSH1 0xA DUP2 DUP2 SLOAD DUP2 LT PUSH2 0x116C JUMPI PUSH2 0x116B PUSH2 0x281C JUMP JUMPDEST JUMPDEST SWAP1 PUSH1 0x0 MSTORE PUSH1 0x20 PUSH1 0x0 KECCAK256 ADD PUSH1 0x0 SWAP1 SLOAD SWAP1 PUSH2 0x100 EXP SWAP1 DIV PUSH20 0xFFFFFFFFFFFFFFFFFFFFFFFFFFFFFFFFFFFFFFFF AND DUP4 DUP4 DUP2 MLOAD DUP2 LT PUSH2 0x11AA JUMPI PUSH2 0x11A9 PUSH2 0x281C JUMP JUMPDEST JUMPDEST PUSH1 0x20 MUL PUSH1 0x20 ADD ADD SWAP1 PUSH20 0xFFFFFFFFFFFFFFFFFFFFFFFFFFFFFFFFFFFFFFFF AND SWAP1 DUP2 PUSH20 0xFFFFFFFFFFFFFFFFFFFFFFFFFFFFFFFFFFFFFFFF AND DUP2 MSTORE POP POP DUP2 DUP1 PUSH2 0x11EF SWAP1 PUSH2 0x2746 JUMP JUMPDEST SWAP3 POP POP JUMPDEST DUP1 DUP1 PUSH2 0x11FE SWAP1 PUSH2 0x2746 JUMP JUMPDEST SWAP2 POP POP PUSH2 0x1044 JUMP JUMPDEST POP DUP2 SWAP3 POP POP POP SWAP1 JUMP JUMPDEST PUSH1 0x9 PUSH1 0x0 SWAP1 SLOAD SWAP1 PUSH2 0x100 EXP SWAP1 DIV PUSH20 0xFFFFFFFFFFFFFFFFFFFFFFFFFFFFFFFFFFFFFFFF AND DUP2 JUMP JUMPDEST PUSH1 0xC SLOAD DUP2 JUMP JUMPDEST PUSH32 0x0 PUSH20 0xFFFFFFFFFFFFFFFFFFFFFFFFFFFFFFFFFFFFFFFF AND CALLER PUSH20 0xFFFFFFFFFFFFFFFFFFFFFFFFFFFFFFFFFFFFFFFF AND EQ PUSH2 0x12C9 JUMPI PUSH1 0x40 MLOAD PUSH32 0x8C379A000000000000000000000000000000000000000000000000000000000 DUP2 MSTORE PUSH1 0x4 ADD PUSH2 0x12C0 SWAP1 PUSH2 0x2356 JUMP JUMPDEST PUSH1 0x40 MLOAD DUP1 SWAP2 SUB SWAP1 REVERT JUMPDEST PUSH1 0x1 PUSH1 0x8 PUSH1 0x0 PUSH2 0x100 EXP DUP2 SLOAD DUP2 PUSH1 0xFF MUL NOT AND SWAP1 DUP4 PUSH1 0x2 DUP2 GT ISZERO PUSH2 0x12EF JUMPI PUSH2 0x12EE PUSH2 0x27BE JUMP JUMPDEST JUMPDEST MUL OR SWAP1 SSTORE POP JUMP JUMPDEST PUSH1 0x1 PUSH1 0x2 DUP2 GT ISZERO PUSH2 0x130A JUMPI PUSH2 0x1309 PUSH2 0x27BE JUMP JUMPDEST JUMPDEST PUSH1 0x8 PUSH1 0x0 SWAP1 SLOAD SWAP1 PUSH2 0x100 EXP SWAP1 DIV PUSH1 0xFF AND PUSH1 0x2 DUP2 GT ISZERO PUSH2 0x132C JUMPI PUSH2 0x132B PUSH2 0x27BE JUMP JUMPDEST JUMPDEST EQ PUSH2 0x136C JUMPI PUSH1 0x40 MLOAD PUSH32 0x8C379A000000000000000000000000000000000000000000000000000000000 DUP2 MSTORE PUSH1 0x4 ADD PUSH2 0x1363 SWAP1 PUSH2 0x2436 JUMP JUMPDEST PUSH1 0x40 MLOAD DUP1 SWAP2 SUB SWAP1 REVERT JUMPDEST PUSH1 0x9 PUSH1 0x0 SWAP1 SLOAD SWAP1 PUSH2 0x100 EXP SWAP1 DIV PUSH20 0xFFFFFFFFFFFFFFFFFFFFFFFFFFFFFFFFFFFFFFFF AND PUSH20 0xFFFFFFFFFFFFFFFFFFFFFFFFFFFFFFFFFFFFFFFF AND PUSH4 0x91D14854 PUSH32 0xB39B9469AC3DDF8D58F06201F7E17350A277B429ED2A39727BF2F3A5165DBA1A CALLER PUSH1 0x40 MLOAD DUP4 PUSH4 0xFFFFFFFF AND PUSH1 0xE0 SHL DUP2 MSTORE PUSH1 0x4 ADD PUSH2 0x13E9 SWAP3 SWAP2 SWAP1 PUSH2 0x22B7 JUMP JUMPDEST PUSH1 0x20 PUSH1 0x40 MLOAD DUP1 DUP4 SUB DUP2 DUP7 DUP1 EXTCODESIZE ISZERO DUP1 ISZERO PUSH2 0x1401 JUMPI PUSH1 0x0 DUP1 REVERT JUMPDEST POP GAS STATICCALL ISZERO DUP1 ISZERO PUSH2 0x1415 JUMPI RETURNDATASIZE PUSH1 0x0 DUP1 RETURNDATACOPY RETURNDATASIZE PUSH1 0x0 REVERT JUMPDEST POP POP POP POP PUSH1 0x40 MLOAD RETURNDATASIZE PUSH1 0x1F NOT PUSH1 0x1F DUP3 ADD AND DUP3 ADD DUP1 PUSH1 0x40 MSTORE POP DUP2 ADD SWAP1 PUSH2 0x1439 SWAP2 SWAP1 PUSH2 0x1E94 JUMP JUMPDEST PUSH2 0x1478 JUMPI PUSH1 0x40 MLOAD PUSH32 0x8C379A000000000000000000000000000000000000000000000000000000000 DUP2 MSTORE PUSH1 0x4 ADD PUSH2 0x146F SWAP1 PUSH2 0x2336 JUMP JUMPDEST PUSH1 0x40 MLOAD DUP1 SWAP2 SUB SWAP1 REVERT JUMPDEST PUSH1 0x0 PUSH1 0x6 ADD SLOAD TIMESTAMP GT DUP1 ISZERO PUSH2 0x1490 JUMPI POP PUSH1 0x0 PUSH1 0x7 ADD SLOAD TIMESTAMP LT JUMPDEST PUSH2 0x1499 JUMPI PUSH1 0x0 DUP1 REVERT JUMPDEST PUSH1 0x0 JUMPDEST DUP3 DUP3 SWAP1 POP DUP2 LT ISZERO PUSH2 0x16C6 JUMPI PUSH1 0x0 PUSH1 0xB PUSH1 0x0 DUP6 DUP6 DUP6 DUP2 DUP2 LT PUSH2 0x14C0 JUMPI PUSH2 0x14BF PUSH2 0x281C JUMP JUMPDEST JUMPDEST SWAP1 POP PUSH1 0x20 MUL ADD PUSH1 0x20 DUP2 ADD SWAP1 PUSH2 0x14D5 SWAP2 SWAP1 PUSH2 0x1E1A JUMP JUMPDEST PUSH20 0xFFFFFFFFFFFFFFFFFFFFFFFFFFFFFFFFFFFFFFFF AND PUSH20 0xFFFFFFFFFFFFFFFFFFFFFFFFFFFFFFFFFFFFFFFF AND DUP2 MSTORE PUSH1 0x20 ADD SWAP1 DUP2 MSTORE PUSH1 0x20 ADD PUSH1 0x0 KECCAK256 PUSH1 0x40 MLOAD DUP1 PUSH1 0x40 ADD PUSH1 0x40 MSTORE SWAP1 DUP2 PUSH1 0x0 DUP3 ADD PUSH1 0x0 SWAP1 SLOAD SWAP1 PUSH2 0x100 EXP SWAP1 DIV PUSH20 0xFFFFFFFFFFFFFFFFFFFFFFFFFFFFFFFFFFFFFFFF AND PUSH20 0xFFFFFFFFFFFFFFFFFFFFFFFFFFFFFFFFFFFFFFFF AND PUSH20 0xFFFFFFFFFFFFFFFFFFFFFFFFFFFFFFFFFFFFFFFF AND DUP2 MSTORE PUSH1 0x20 ADD PUSH1 0x0 DUP3 ADD PUSH1 0x14 SWAP1 SLOAD SWAP1 PUSH2 0x100 EXP SWAP1 DIV PUSH1 0xFF AND ISZERO ISZERO ISZERO ISZERO DUP2 MSTORE POP POP SWAP1 POP DUP1 PUSH1 0x20 ADD MLOAD DUP1 ISZERO PUSH2 0x15F4 JUMPI POP DUP4 DUP4 DUP4 DUP2 DUP2 LT PUSH2 0x15AC JUMPI PUSH2 0x15AB PUSH2 0x281C JUMP JUMPDEST JUMPDEST SWAP1 POP PUSH1 0x20 MUL ADD PUSH1 0x20 DUP2 ADD SWAP1 PUSH2 0x15C1 SWAP2 SWAP1 PUSH2 0x1E1A JUMP JUMPDEST PUSH20 0xFFFFFFFFFFFFFFFFFFFFFFFFFFFFFFFFFFFFFFFF AND DUP2 PUSH1 0x0 ADD MLOAD PUSH20 0xFFFFFFFFFFFFFFFFFFFFFFFFFFFFFFFFFFFFFFFF AND EQ JUMPDEST PUSH2 0x1633 JUMPI PUSH1 0x40 MLOAD PUSH32 0x8C379A000000000000000000000000000000000000000000000000000000000 DUP2 MSTORE PUSH1 0x4 ADD PUSH2 0x162A SWAP1 PUSH2 0x2316 JUMP JUMPDEST PUSH1 0x40 MLOAD DUP1 SWAP2 SUB SWAP1 REVERT JUMPDEST PUSH1 0x1 PUSH1 0xD PUSH1 0x0 DUP7 DUP7 DUP7 DUP2 DUP2 LT PUSH2 0x164C JUMPI PUSH2 0x164B PUSH2 0x281C JUMP JUMPDEST JUMPDEST SWAP1 POP PUSH1 0x20 MUL ADD PUSH1 0x20 DUP2 ADD SWAP1 PUSH2 0x1661 SWAP2 SWAP1 PUSH2 0x1E1A JUMP JUMPDEST PUSH20 0xFFFFFFFFFFFFFFFFFFFFFFFFFFFFFFFFFFFFFFFF AND PUSH20 0xFFFFFFFFFFFFFFFFFFFFFFFFFFFFFFFFFFFFFFFF AND DUP2 MSTORE PUSH1 0x20 ADD SWAP1 DUP2 MSTORE PUSH1 0x20 ADD PUSH1 0x0 KECCAK256 PUSH1 0x0 PUSH2 0x100 EXP DUP2 SLOAD DUP2 PUSH1 0xFF MUL NOT AND SWAP1 DUP4 ISZERO ISZERO MUL OR SWAP1 SSTORE POP POP DUP1 DUP1 PUSH2 0x16BE SWAP1 PUSH2 0x2746 JUMP JUMPDEST SWAP2 POP POP PUSH2 0x149C JUMP JUMPDEST POP PUSH32 0x698DD5B92696456649E8994759CCFE7076B1EBE9096ECB083211D8BFE8163842 DUP3 DUP3 SWAP1 POP TIMESTAMP PUSH1 0x40 MLOAD PUSH2 0x16FB SWAP3 SWAP2 SWAP1 PUSH2 0x24F6 JUMP JUMPDEST PUSH1 0x40 MLOAD DUP1 SWAP2 SUB SWAP1 LOG1 POP POP JUMP JUMPDEST PUSH1 0x60 PUSH1 0x0 PUSH1 0xC SLOAD PUSH8 0xFFFFFFFFFFFFFFFF DUP2 GT ISZERO PUSH2 0x1727 JUMPI PUSH2 0x1726 PUSH2 0x284B JUMP JUMPDEST JUMPDEST PUSH1 0x40 MLOAD SWAP1 DUP1 DUP3 MSTORE DUP1 PUSH1 0x20 MUL PUSH1 0x20 ADD DUP3 ADD PUSH1 0x40 MSTORE DUP1 ISZERO PUSH2 0x1755 JUMPI DUP2 PUSH1 0x20 ADD PUSH1 0x20 DUP3 MUL DUP1 CALLDATASIZE DUP4 CALLDATACOPY DUP1 DUP3 ADD SWAP2 POP POP SWAP1 POP JUMPDEST POP SWAP1 POP PUSH1 0x0 DUP1 PUSH1 0x0 SWAP1 POP JUMPDEST PUSH1 0xA DUP1 SLOAD SWAP1 POP DUP2 LT ISZERO PUSH2 0x19E9 JUMPI PUSH1 0xB PUSH1 0x0 PUSH1 0xA DUP4 DUP2 SLOAD DUP2 LT PUSH2 0x1785 JUMPI PUSH2 0x1784 PUSH2 0x281C JUMP JUMPDEST JUMPDEST SWAP1 PUSH1 0x0 MSTORE PUSH1 0x20 PUSH1 0x0 KECCAK256 ADD PUSH1 0x0 SWAP1 SLOAD SWAP1 PUSH2 0x100 EXP SWAP1 DIV PUSH20 0xFFFFFFFFFFFFFFFFFFFFFFFFFFFFFFFFFFFFFFFF AND PUSH20 0xFFFFFFFFFFFFFFFFFFFFFFFFFFFFFFFFFFFFFFFF AND PUSH20 0xFFFFFFFFFFFFFFFFFFFFFFFFFFFFFFFFFFFFFFFF AND DUP2 MSTORE PUSH1 0x20 ADD SWAP1 DUP2 MSTORE PUSH1 0x20 ADD PUSH1 0x0 KECCAK256 PUSH1 0x0 ADD PUSH1 0x14 SWAP1 SLOAD SWAP1 PUSH2 0x100 EXP SWAP1 DIV PUSH1 0xFF AND DUP1 ISZERO PUSH2 0x18D4 JUMPI POP PUSH1 0x0 PUSH20 0xFFFFFFFFFFFFFFFFFFFFFFFFFFFFFFFFFFFFFFFF AND PUSH1 0xB PUSH1 0x0 PUSH1 0xA DUP5 DUP2 SLOAD DUP2 LT PUSH2 0x1832 JUMPI PUSH2 0x1831 PUSH2 0x281C JUMP JUMPDEST JUMPDEST SWAP1 PUSH1 0x0 MSTORE PUSH1 0x20 PUSH1 0x0 KECCAK256 ADD PUSH1 0x0 SWAP1 SLOAD SWAP1 PUSH2 0x100 EXP SWAP1 DIV PUSH20 0xFFFFFFFFFFFFFFFFFFFFFFFFFFFFFFFFFFFFFFFF AND PUSH20 0xFFFFFFFFFFFFFFFFFFFFFFFFFFFFFFFFFFFFFFFF AND PUSH20 0xFFFFFFFFFFFFFFFFFFFFFFFFFFFFFFFFFFFFFFFF AND DUP2 MSTORE PUSH1 0x20 ADD SWAP1 DUP2 MSTORE PUSH1 0x20 ADD PUSH1 0x0 KECCAK256 PUSH1 0x0 ADD PUSH1 0x0 SWAP1 SLOAD SWAP1 PUSH2 0x100 EXP SWAP1 DIV PUSH20 0xFFFFFFFFFFFFFFFFFFFFFFFFFFFFFFFFFFFFFFFF AND PUSH20 0xFFFFFFFFFFFFFFFFFFFFFFFFFFFFFFFFFFFFFFFF AND EQ ISZERO JUMPDEST ISZERO PUSH2 0x19D6 JUMPI PUSH1 0xB PUSH1 0x0 PUSH1 0xA DUP4 DUP2 SLOAD DUP2 LT PUSH2 0x18F1 JUMPI PUSH2 0x18F0 PUSH2 0x281C JUMP JUMPDEST JUMPDEST SWAP1 PUSH1 0x0 MSTORE PUSH1 0x20 PUSH1 0x0 KECCAK256 ADD PUSH1 0x0 SWAP1 SLOAD SWAP1 PUSH2 0x100 EXP SWAP1 DIV PUSH20 0xFFFFFFFFFFFFFFFFFFFFFFFFFFFFFFFFFFFFFFFF AND PUSH20 0xFFFFFFFFFFFFFFFFFFFFFFFFFFFFFFFFFFFFFFFF AND PUSH20 0xFFFFFFFFFFFFFFFFFFFFFFFFFFFFFFFFFFFFFFFF AND DUP2 MSTORE PUSH1 0x20 ADD SWAP1 DUP2 MSTORE PUSH1 0x20 ADD PUSH1 0x0 KECCAK256 PUSH1 0x0 ADD PUSH1 0x0 SWAP1 SLOAD SWAP1 PUSH2 0x100 EXP SWAP1 DIV PUSH20 0xFFFFFFFFFFFFFFFFFFFFFFFFFFFFFFFFFFFFFFFF AND DUP4 DUP4 DUP2 MLOAD DUP2 LT PUSH2 0x198D JUMPI PUSH2 0x198C PUSH2 0x281C JUMP JUMPDEST JUMPDEST PUSH1 0x20 MUL PUSH1 0x20 ADD ADD SWAP1 PUSH20 0xFFFFFFFFFFFFFFFFFFFFFFFFFFFFFFFFFFFFFFFF AND SWAP1 DUP2 PUSH20 0xFFFFFFFFFFFFFFFFFFFFFFFFFFFFFFFFFFFFFFFF AND DUP2 MSTORE POP POP DUP2 DUP1 PUSH2 0x19D2 SWAP1 PUSH2 0x2746 JUMP JUMPDEST SWAP3 POP POP JUMPDEST DUP1 DUP1 PUSH2 0x19E1 SWAP1 PUSH2 0x2746 JUMP JUMPDEST SWAP2 POP POP PUSH2 0x1760 JUMP JUMPDEST POP DUP2 SWAP3 POP POP POP SWAP1 JUMP JUMPDEST PUSH1 0x0 PUSH1 0xB PUSH1 0x0 DUP4 PUSH20 0xFFFFFFFFFFFFFFFFFFFFFFFFFFFFFFFFFFFFFFFF AND PUSH20 0xFFFFFFFFFFFFFFFFFFFFFFFFFFFFFFFFFFFFFFFF AND DUP2 MSTORE PUSH1 0x20 ADD SWAP1 DUP2 MSTORE PUSH1 0x20 ADD PUSH1 0x0 KECCAK256 SWAP1 POP DUP1 PUSH1 0x0 ADD PUSH1 0x14 SWAP1 SLOAD SWAP1 PUSH2 0x100 EXP SWAP1 DIV PUSH1 0xFF AND ISZERO PUSH2 0x1A87 JUMPI PUSH1 0x40 MLOAD PUSH32 0x8C379A000000000000000000000000000000000000000000000000000000000 DUP2 MSTORE PUSH1 0x4 ADD PUSH2 0x1A7E SWAP1 PUSH2 0x23B6 JUMP JUMPDEST PUSH1 0x40 MLOAD DUP1 SWAP2 SUB SWAP1 REVERT JUMPDEST PUSH1 0xC PUSH1 0x0 DUP2 SLOAD DUP1 SWAP3 SWAP2 SWAP1 PUSH2 0x1A9A SWAP1 PUSH2 0x2746 JUMP JUMPDEST SWAP2 SWAP1 POP SSTORE POP PUSH1 0x0 PUSH20 0xFFFFFFFFFFFFFFFFFFFFFFFFFFFFFFFFFFFFFFFF AND DUP2 PUSH1 0x0 ADD PUSH1 0x0 SWAP1 SLOAD SWAP1 PUSH2 0x100 EXP SWAP1 DIV PUSH20 0xFFFFFFFFFFFFFFFFFFFFFFFFFFFFFFFFFFFFFFFF AND PUSH20 0xFFFFFFFFFFFFFFFFFFFFFFFFFFFFFFFFFFFFFFFF AND EQ PUSH2 0x1B19 JUMPI PUSH1 0x1 DUP2 PUSH1 0x0 ADD PUSH1 0x14 PUSH2 0x100 EXP DUP2 SLOAD DUP2 PUSH1 0xFF MUL NOT AND SWAP1 DUP4 ISZERO ISZERO MUL OR SWAP1 SSTORE POP PUSH2 0x1C5A JUMP JUMPDEST PUSH1 0x0 PUSH1 0x40 MLOAD DUP1 PUSH1 0x40 ADD PUSH1 0x40 MSTORE DUP1 DUP5 PUSH20 0xFFFFFFFFFFFFFFFFFFFFFFFFFFFFFFFFFFFFFFFF AND DUP2 MSTORE PUSH1 0x20 ADD PUSH1 0x1 ISZERO ISZERO DUP2 MSTORE POP SWAP1 POP DUP1 PUSH1 0xB PUSH1 0x0 DUP6 PUSH20 0xFFFFFFFFFFFFFFFFFFFFFFFFFFFFFFFFFFFFFFFF AND PUSH20 0xFFFFFFFFFFFFFFFFFFFFFFFFFFFFFFFFFFFFFFFF AND DUP2 MSTORE PUSH1 0x20 ADD SWAP1 DUP2 MSTORE PUSH1 0x20 ADD PUSH1 0x0 KECCAK256 PUSH1 0x0 DUP3 ADD MLOAD DUP2 PUSH1 0x0 ADD PUSH1 0x0 PUSH2 0x100 EXP DUP2 SLOAD DUP2 PUSH20 0xFFFFFFFFFFFFFFFFFFFFFFFFFFFFFFFFFFFFFFFF MUL NOT AND SWAP1 DUP4 PUSH20 0xFFFFFFFFFFFFFFFFFFFFFFFFFFFFFFFFFFFFFFFF AND MUL OR SWAP1 SSTORE POP PUSH1 0x20 DUP3 ADD MLOAD DUP2 PUSH1 0x0 ADD PUSH1 0x14 PUSH2 0x100 EXP DUP2 SLOAD DUP2 PUSH1 0xFF MUL NOT AND SWAP1 DUP4 ISZERO ISZERO MUL OR SWAP1 SSTORE POP SWAP1 POP POP PUSH1 0xA DUP4 SWAP1 DUP1 PUSH1 0x1 DUP2 SLOAD ADD DUP1 DUP3 SSTORE DUP1 SWAP2 POP POP PUSH1 0x1 SWAP1 SUB SWAP1 PUSH1 0x0 MSTORE PUSH1 0x20 PUSH1 0x0 KECCAK256 ADD PUSH1 0x0 SWAP1 SWAP2 SWAP1 SWAP2 SWAP1 SWAP2 PUSH2 0x100 EXP DUP2 SLOAD DUP2 PUSH20 0xFFFFFFFFFFFFFFFFFFFFFFFFFFFFFFFFFFFFFFFF MUL NOT AND SWAP1 DUP4 PUSH20 0xFFFFFFFFFFFFFFFFFFFFFFFFFFFFFFFFFFFFFFFF AND MUL OR SWAP1 SSTORE POP POP JUMPDEST PUSH1 0x0 PUSH1 0x2 ADD SLOAD PUSH1 0xC SLOAD GT ISZERO PUSH2 0x1C6E JUMPI PUSH1 0x0 DUP1 REVERT JUMPDEST POP POP JUMP JUMPDEST DUP3 DUP1 SLOAD PUSH2 0x1C7E SWAP1 PUSH2 0x26E3 JUMP JUMPDEST SWAP1 PUSH1 0x0 MSTORE PUSH1 0x20 PUSH1 0x0 KECCAK256 SWAP1 PUSH1 0x1F ADD PUSH1 0x20 SWAP1 DIV DUP2 ADD SWAP3 DUP3 PUSH2 0x1CA0 JUMPI PUSH1 0x0 DUP6 SSTORE PUSH2 0x1CE7 JUMP JUMPDEST DUP3 PUSH1 0x1F LT PUSH2 0x1CB9 JUMPI DUP1 MLOAD PUSH1 0xFF NOT AND DUP4 DUP1 ADD OR DUP6 SSTORE PUSH2 0x1CE7 JUMP JUMPDEST DUP3 DUP1 ADD PUSH1 0x1 ADD DUP6 SSTORE DUP3 ISZERO PUSH2 0x1CE7 JUMPI SWAP2 DUP3 ADD JUMPDEST DUP3 DUP2 GT ISZERO PUSH2 0x1CE6 JUMPI DUP3 MLOAD DUP3 SSTORE SWAP2 PUSH1 0x20 ADD SWAP2 SWAP1 PUSH1 0x1 ADD SWAP1 PUSH2 0x1CCB JUMP JUMPDEST JUMPDEST POP SWAP1 POP PUSH2 0x1CF4 SWAP2 SWAP1 PUSH2 0x1CF8 JUMP JUMPDEST POP SWAP1 JUMP JUMPDEST JUMPDEST DUP1 DUP3 GT ISZERO PUSH2 0x1D11 JUMPI PUSH1 0x0 DUP2 PUSH1 0x0 SWAP1 SSTORE POP PUSH1 0x1 ADD PUSH2 0x1CF9 JUMP JUMPDEST POP SWAP1 JUMP JUMPDEST PUSH1 0x0 PUSH2 0x1D28 PUSH2 0x1D23 DUP5 PUSH2 0x2544 JUMP JUMPDEST PUSH2 0x251F JUMP JUMPDEST SWAP1 POP DUP3 DUP2 MSTORE PUSH1 0x20 DUP2 ADD DUP5 DUP5 DUP5 ADD GT ISZERO PUSH2 0x1D44 JUMPI PUSH2 0x1D43 PUSH2 0x2889 JUMP JUMPDEST JUMPDEST PUSH2 0x1D4F DUP5 DUP3 DUP6 PUSH2 0x2677 JUMP JUMPDEST POP SWAP4 SWAP3 POP POP POP JUMP JUMPDEST PUSH1 0x0 DUP2 CALLDATALOAD SWAP1 POP PUSH2 0x1D66 DUP2 PUSH2 0x2A57 JUMP JUMPDEST SWAP3 SWAP2 POP POP JUMP JUMPDEST PUSH1 0x0 DUP1 DUP4 PUSH1 0x1F DUP5 ADD SLT PUSH2 0x1D82 JUMPI PUSH2 0x1D81 PUSH2 0x287F JUMP JUMPDEST JUMPDEST DUP3 CALLDATALOAD SWAP1 POP PUSH8 0xFFFFFFFFFFFFFFFF DUP2 GT ISZERO PUSH2 0x1D9F JUMPI PUSH2 0x1D9E PUSH2 0x287A JUMP JUMPDEST JUMPDEST PUSH1 0x20 DUP4 ADD SWAP2 POP DUP4 PUSH1 0x20 DUP3 MUL DUP4 ADD GT ISZERO PUSH2 0x1DBB JUMPI PUSH2 0x1DBA PUSH2 0x2884 JUMP JUMPDEST JUMPDEST SWAP3 POP SWAP3 SWAP1 POP JUMP JUMPDEST PUSH1 0x0 DUP2 MLOAD SWAP1 POP PUSH2 0x1DD1 DUP2 PUSH2 0x2A6E JUMP JUMPDEST SWAP3 SWAP2 POP POP JUMP JUMPDEST PUSH1 0x0 DUP3 PUSH1 0x1F DUP4 ADD SLT PUSH2 0x1DEC JUMPI PUSH2 0x1DEB PUSH2 0x287F JUMP JUMPDEST JUMPDEST DUP2 CALLDATALOAD PUSH2 0x1DFC DUP5 DUP3 PUSH1 0x20 DUP7 ADD PUSH2 0x1D15 JUMP JUMPDEST SWAP2 POP POP SWAP3 SWAP2 POP POP JUMP JUMPDEST PUSH1 0x0 DUP2 CALLDATALOAD SWAP1 POP PUSH2 0x1E14 DUP2 PUSH2 0x2A85 JUMP JUMPDEST SWAP3 SWAP2 POP POP JUMP JUMPDEST PUSH1 0x0 PUSH1 0x20 DUP3 DUP5 SUB SLT ISZERO PUSH2 0x1E30 JUMPI PUSH2 0x1E2F PUSH2 0x2893 JUMP JUMPDEST JUMPDEST PUSH1 0x0 PUSH2 0x1E3E DUP5 DUP3 DUP6 ADD PUSH2 0x1D57 JUMP JUMPDEST SWAP2 POP POP SWAP3 SWAP2 POP POP JUMP JUMPDEST PUSH1 0x0 DUP1 PUSH1 0x20 DUP4 DUP6 SUB SLT ISZERO PUSH2 0x1E5E JUMPI PUSH2 0x1E5D PUSH2 0x2893 JUMP JUMPDEST JUMPDEST PUSH1 0x0 DUP4 ADD CALLDATALOAD PUSH8 0xFFFFFFFFFFFFFFFF DUP2 GT ISZERO PUSH2 0x1E7C JUMPI PUSH2 0x1E7B PUSH2 0x288E JUMP JUMPDEST JUMPDEST PUSH2 0x1E88 DUP6 DUP3 DUP7 ADD PUSH2 0x1D6C JUMP JUMPDEST SWAP3 POP SWAP3 POP POP SWAP3 POP SWAP3 SWAP1 POP JUMP JUMPDEST PUSH1 0x0 PUSH1 0x20 DUP3 DUP5 SUB SLT ISZERO PUSH2 0x1EAA JUMPI PUSH2 0x1EA9 PUSH2 0x2893 JUMP JUMPDEST JUMPDEST PUSH1 0x0 PUSH2 0x1EB8 DUP5 DUP3 DUP6 ADD PUSH2 0x1DC2 JUMP JUMPDEST SWAP2 POP POP SWAP3 SWAP2 POP POP JUMP JUMPDEST PUSH1 0x0 PUSH1 0x20 DUP3 DUP5 SUB SLT ISZERO PUSH2 0x1ED7 JUMPI PUSH2 0x1ED6 PUSH2 0x2893 JUMP JUMPDEST JUMPDEST PUSH1 0x0 PUSH2 0x1EE5 DUP5 DUP3 DUP6 ADD PUSH2 0x1E05 JUMP JUMPDEST SWAP2 POP POP SWAP3 SWAP2 POP POP JUMP JUMPDEST PUSH1 0x0 DUP1 PUSH1 0x0 DUP1 PUSH1 0x0 DUP1 PUSH1 0x0 DUP1 PUSH2 0x100 DUP10 DUP12 SUB SLT ISZERO PUSH2 0x1F0F JUMPI PUSH2 0x1F0E PUSH2 0x2893 JUMP JUMPDEST JUMPDEST PUSH1 0x0 PUSH2 0x1F1D DUP12 DUP3 DUP13 ADD PUSH2 0x1E05 JUMP JUMPDEST SWAP9 POP POP PUSH1 0x20 DUP10 ADD CALLDATALOAD PUSH8 0xFFFFFFFFFFFFFFFF DUP2 GT ISZERO PUSH2 0x1F3E JUMPI PUSH2 0x1F3D PUSH2 0x288E JUMP JUMPDEST JUMPDEST PUSH2 0x1F4A DUP12 DUP3 DUP13 ADD PUSH2 0x1DD7 JUMP JUMPDEST SWAP8 POP POP PUSH1 0x40 PUSH2 0x1F5B DUP12 DUP3 DUP13 ADD PUSH2 0x1E05 JUMP JUMPDEST SWAP7 POP POP PUSH1 0x60 PUSH2 0x1F6C DUP12 DUP3 DUP13 ADD PUSH2 0x1D57 JUMP JUMPDEST SWAP6 POP POP PUSH1 0x80 PUSH2 0x1F7D DUP12 DUP3 DUP13 ADD PUSH2 0x1E05 JUMP JUMPDEST SWAP5 POP POP PUSH1 0xA0 PUSH2 0x1F8E DUP12 DUP3 DUP13 ADD PUSH2 0x1E05 JUMP JUMPDEST SWAP4 POP POP PUSH1 0xC0 PUSH2 0x1F9F DUP12 DUP3 DUP13 ADD PUSH2 0x1E05 JUMP JUMPDEST SWAP3 POP POP PUSH1 0xE0 PUSH2 0x1FB0 DUP12 DUP3 DUP13 ADD PUSH2 0x1E05 JUMP JUMPDEST SWAP2 POP POP SWAP3 SWAP6 SWAP9 POP SWAP3 SWAP6 SWAP9 SWAP1 SWAP4 SWAP7 POP JUMP JUMPDEST PUSH1 0x0 PUSH2 0x1FCC DUP4 DUP4 PUSH2 0x1FD8 JUMP JUMPDEST PUSH1 0x20 DUP4 ADD SWAP1 POP SWAP3 SWAP2 POP POP JUMP JUMPDEST PUSH2 0x1FE1 DUP2 PUSH2 0x25CA JUMP JUMPDEST DUP3 MSTORE POP POP JUMP JUMPDEST PUSH2 0x1FF0 DUP2 PUSH2 0x25CA JUMP JUMPDEST DUP3 MSTORE POP POP JUMP JUMPDEST PUSH1 0x0 PUSH2 0x2001 DUP3 PUSH2 0x2585 JUMP JUMPDEST PUSH2 0x200B DUP2 DUP6 PUSH2 0x25A8 JUMP JUMPDEST SWAP4 POP PUSH2 0x2016 DUP4 PUSH2 0x2575 JUMP JUMPDEST DUP1 PUSH1 0x0 JUMPDEST DUP4 DUP2 LT ISZERO PUSH2 0x2047 JUMPI DUP2 MLOAD PUSH2 0x202E DUP9 DUP3 PUSH2 0x1FC0 JUMP JUMPDEST SWAP8 POP PUSH2 0x2039 DUP4 PUSH2 0x259B JUMP JUMPDEST SWAP3 POP POP PUSH1 0x1 DUP2 ADD SWAP1 POP PUSH2 0x201A JUMP JUMPDEST POP DUP6 SWAP4 POP POP POP POP SWAP3 SWAP2 POP POP JUMP JUMPDEST PUSH2 0x205D DUP2 PUSH2 0x25DC JUMP JUMPDEST DUP3 MSTORE POP POP JUMP JUMPDEST PUSH2 0x206C DUP2 PUSH2 0x25E8 JUMP JUMPDEST DUP3 MSTORE POP POP JUMP JUMPDEST PUSH2 0x207B DUP2 PUSH2 0x262F JUMP JUMPDEST DUP3 MSTORE POP POP JUMP JUMPDEST PUSH2 0x208A DUP2 PUSH2 0x2641 JUMP JUMPDEST DUP3 MSTORE POP POP JUMP JUMPDEST PUSH1 0x0 PUSH2 0x209B DUP3 PUSH2 0x2590 JUMP JUMPDEST PUSH2 0x20A5 DUP2 DUP6 PUSH2 0x25B9 JUMP JUMPDEST SWAP4 POP PUSH2 0x20B5 DUP2 DUP6 PUSH1 0x20 DUP7 ADD PUSH2 0x2686 JUMP JUMPDEST PUSH2 0x20BE DUP2 PUSH2 0x2898 JUMP JUMPDEST DUP5 ADD SWAP2 POP POP SWAP3 SWAP2 POP POP JUMP JUMPDEST PUSH1 0x0 PUSH2 0x20D6 PUSH1 0x10 DUP4 PUSH2 0x25B9 JUMP JUMPDEST SWAP2 POP PUSH2 0x20E1 DUP3 PUSH2 0x28A9 JUMP JUMPDEST PUSH1 0x20 DUP3 ADD SWAP1 POP SWAP2 SWAP1 POP JUMP JUMPDEST PUSH1 0x0 PUSH2 0x20F9 PUSH1 0x11 DUP4 PUSH2 0x25B9 JUMP JUMPDEST SWAP2 POP PUSH2 0x2104 DUP3 PUSH2 0x28D2 JUMP JUMPDEST PUSH1 0x20 DUP3 ADD SWAP1 POP SWAP2 SWAP1 POP JUMP JUMPDEST PUSH1 0x0 PUSH2 0x211C PUSH1 0xA DUP4 PUSH2 0x25B9 JUMP JUMPDEST SWAP2 POP PUSH2 0x2127 DUP3 PUSH2 0x28FB JUMP JUMPDEST PUSH1 0x20 DUP3 ADD SWAP1 POP SWAP2 SWAP1 POP JUMP JUMPDEST PUSH1 0x0 PUSH2 0x213F PUSH1 0x10 DUP4 PUSH2 0x25B9 JUMP JUMPDEST SWAP2 POP PUSH2 0x214A DUP3 PUSH2 0x2924 JUMP JUMPDEST PUSH1 0x20 DUP3 ADD SWAP1 POP SWAP2 SWAP1 POP JUMP JUMPDEST PUSH1 0x0 PUSH2 0x2162 PUSH1 0x1D DUP4 PUSH2 0x25B9 JUMP JUMPDEST SWAP2 POP PUSH2 0x216D DUP3 PUSH2 0x294D JUMP JUMPDEST PUSH1 0x20 DUP3 ADD SWAP1 POP SWAP2 SWAP1 POP JUMP JUMPDEST PUSH1 0x0 PUSH2 0x2185 PUSH1 0x12 DUP4 PUSH2 0x25B9 JUMP JUMPDEST SWAP2 POP PUSH2 0x2190 DUP3 PUSH2 0x2976 JUMP JUMPDEST PUSH1 0x20 DUP3 ADD SWAP1 POP SWAP2 SWAP1 POP JUMP JUMPDEST PUSH1 0x0 PUSH2 0x21A8 PUSH1 0x13 DUP4 PUSH2 0x25B9 JUMP JUMPDEST SWAP2 POP PUSH2 0x21B3 DUP3 PUSH2 0x299F JUMP JUMPDEST PUSH1 0x20 DUP3 ADD SWAP1 POP SWAP2 SWAP1 POP JUMP JUMPDEST PUSH1 0x0 PUSH2 0x21CB PUSH1 0x17 DUP4 PUSH2 0x25B9 JUMP JUMPDEST SWAP2 POP PUSH2 0x21D6 DUP3 PUSH2 0x29C8 JUMP JUMPDEST PUSH1 0x20 DUP3 ADD SWAP1 POP SWAP2 SWAP1 POP JUMP JUMPDEST PUSH1 0x0 PUSH2 0x21EE PUSH1 0xD DUP4 PUSH2 0x25B9 JUMP JUMPDEST SWAP2 POP PUSH2 0x21F9 DUP3 PUSH2 0x29F1 JUMP JUMPDEST PUSH1 0x20 DUP3 ADD SWAP1 POP SWAP2 SWAP1 POP JUMP JUMPDEST PUSH1 0x0 PUSH2 0x2211 PUSH1 0xD DUP4 PUSH2 0x25B9 JUMP JUMPDEST SWAP2 POP PUSH2 0x221C DUP3 PUSH2 0x2A1A JUMP JUMPDEST PUSH1 0x20 DUP3 ADD SWAP1 POP SWAP2 SWAP1 POP JUMP JUMPDEST PUSH2 0x2230 DUP2 PUSH2 0x2625 JUMP JUMPDEST DUP3 MSTORE POP POP JUMP JUMPDEST PUSH1 0x0 PUSH1 0x20 DUP3 ADD SWAP1 POP PUSH2 0x224B PUSH1 0x0 DUP4 ADD DUP5 PUSH2 0x1FE7 JUMP JUMPDEST SWAP3 SWAP2 POP POP JUMP JUMPDEST PUSH1 0x0 PUSH1 0x40 DUP3 ADD SWAP1 POP PUSH2 0x2266 PUSH1 0x0 DUP4 ADD DUP6 PUSH2 0x1FE7 JUMP JUMPDEST PUSH2 0x2273 PUSH1 0x20 DUP4 ADD DUP5 PUSH2 0x2054 JUMP JUMPDEST SWAP4 SWAP3 POP POP POP JUMP JUMPDEST PUSH1 0x0 PUSH1 0x20 DUP3 ADD SWAP1 POP DUP2 DUP2 SUB PUSH1 0x0 DUP4 ADD MSTORE PUSH2 0x2294 DUP2 DUP5 PUSH2 0x1FF6 JUMP JUMPDEST SWAP1 POP SWAP3 SWAP2 POP POP JUMP JUMPDEST PUSH1 0x0 PUSH1 0x20 DUP3 ADD SWAP1 POP PUSH2 0x22B1 PUSH1 0x0 DUP4 ADD DUP5 PUSH2 0x2054 JUMP JUMPDEST SWAP3 SWAP2 POP POP JUMP JUMPDEST PUSH1 0x0 PUSH1 0x40 DUP3 ADD SWAP1 POP PUSH2 0x22CC PUSH1 0x0 DUP4 ADD DUP6 PUSH2 0x2063 JUMP JUMPDEST PUSH2 0x22D9 PUSH1 0x20 DUP4 ADD DUP5 PUSH2 0x1FE7 JUMP JUMPDEST SWAP4 SWAP3 POP POP POP JUMP JUMPDEST PUSH1 0x0 PUSH1 0x20 DUP3 ADD SWAP1 POP PUSH2 0x22F5 PUSH1 0x0 DUP4 ADD DUP5 PUSH2 0x2072 JUMP JUMPDEST SWAP3 SWAP2 POP POP JUMP JUMPDEST PUSH1 0x0 PUSH1 0x20 DUP3 ADD SWAP1 POP PUSH2 0x2310 PUSH1 0x0 DUP4 ADD DUP5 PUSH2 0x2081 JUMP JUMPDEST SWAP3 SWAP2 POP POP JUMP JUMPDEST PUSH1 0x0 PUSH1 0x20 DUP3 ADD SWAP1 POP DUP2 DUP2 SUB PUSH1 0x0 DUP4 ADD MSTORE PUSH2 0x232F DUP2 PUSH2 0x20C9 JUMP JUMPDEST SWAP1 POP SWAP2 SWAP1 POP JUMP JUMPDEST PUSH1 0x0 PUSH1 0x20 DUP3 ADD SWAP1 POP DUP2 DUP2 SUB PUSH1 0x0 DUP4 ADD MSTORE PUSH2 0x234F DUP2 PUSH2 0x20EC JUMP JUMPDEST SWAP1 POP SWAP2 SWAP1 POP JUMP JUMPDEST PUSH1 0x0 PUSH1 0x20 DUP3 ADD SWAP1 POP DUP2 DUP2 SUB PUSH1 0x0 DUP4 ADD MSTORE PUSH2 0x236F DUP2 PUSH2 0x210F JUMP JUMPDEST SWAP1 POP SWAP2 SWAP1 POP JUMP JUMPDEST PUSH1 0x0 PUSH1 0x20 DUP3 ADD SWAP1 POP DUP2 DUP2 SUB PUSH1 0x0 DUP4 ADD MSTORE PUSH2 0x238F DUP2 PUSH2 0x2132 JUMP JUMPDEST SWAP1 POP SWAP2 SWAP1 POP JUMP JUMPDEST PUSH1 0x0 PUSH1 0x20 DUP3 ADD SWAP1 POP DUP2 DUP2 SUB PUSH1 0x0 DUP4 ADD MSTORE PUSH2 0x23AF DUP2 PUSH2 0x2155 JUMP JUMPDEST SWAP1 POP SWAP2 SWAP1 POP JUMP JUMPDEST PUSH1 0x0 PUSH1 0x20 DUP3 ADD SWAP1 POP DUP2 DUP2 SUB PUSH1 0x0 DUP4 ADD MSTORE PUSH2 0x23CF DUP2 PUSH2 0x2178 JUMP JUMPDEST SWAP1 POP SWAP2 SWAP1 POP JUMP JUMPDEST PUSH1 0x0 PUSH1 0x20 DUP3 ADD SWAP1 POP DUP2 DUP2 SUB PUSH1 0x0 DUP4 ADD MSTORE PUSH2 0x23EF DUP2 PUSH2 0x219B JUMP JUMPDEST SWAP1 POP SWAP2 SWAP1 POP JUMP JUMPDEST PUSH1 0x0 PUSH1 0x20 DUP3 ADD SWAP1 POP DUP2 DUP2 SUB PUSH1 0x0 DUP4 ADD MSTORE PUSH2 0x240F DUP2 PUSH2 0x21BE JUMP JUMPDEST SWAP1 POP SWAP2 SWAP1 POP JUMP JUMPDEST PUSH1 0x0 PUSH1 0x20 DUP3 ADD SWAP1 POP DUP2 DUP2 SUB PUSH1 0x0 DUP4 ADD MSTORE PUSH2 0x242F DUP2 PUSH2 0x21E1 JUMP JUMPDEST SWAP1 POP SWAP2 SWAP1 POP JUMP JUMPDEST PUSH1 0x0 PUSH1 0x20 DUP3 ADD SWAP1 POP DUP2 DUP2 SUB PUSH1 0x0 DUP4 ADD MSTORE PUSH2 0x244F DUP2 PUSH2 0x2204 JUMP JUMPDEST SWAP1 POP SWAP2 SWAP1 POP JUMP JUMPDEST PUSH1 0x0 PUSH1 0x20 DUP3 ADD SWAP1 POP PUSH2 0x246B PUSH1 0x0 DUP4 ADD DUP5 PUSH2 0x2227 JUMP JUMPDEST SWAP3 SWAP2 POP POP JUMP JUMPDEST PUSH1 0x0 PUSH2 0x100 DUP3 ADD SWAP1 POP PUSH2 0x2487 PUSH1 0x0 DUP4 ADD DUP12 PUSH2 0x2227 JUMP JUMPDEST DUP2 DUP2 SUB PUSH1 0x20 DUP4 ADD MSTORE PUSH2 0x2499 DUP2 DUP11 PUSH2 0x2090 JUMP JUMPDEST SWAP1 POP PUSH2 0x24A8 PUSH1 0x40 DUP4 ADD DUP10 PUSH2 0x2227 JUMP JUMPDEST PUSH2 0x24B5 PUSH1 0x60 DUP4 ADD DUP9 PUSH2 0x1FE7 JUMP JUMPDEST PUSH2 0x24C2 PUSH1 0x80 DUP4 ADD DUP8 PUSH2 0x2227 JUMP JUMPDEST PUSH2 0x24CF PUSH1 0xA0 DUP4 ADD DUP7 PUSH2 0x2227 JUMP JUMPDEST PUSH2 0x24DC PUSH1 0xC0 DUP4 ADD DUP6 PUSH2 0x2227 JUMP JUMPDEST PUSH2 0x24E9 PUSH1 0xE0 DUP4 ADD DUP5 PUSH2 0x2227 JUMP JUMPDEST SWAP10 SWAP9 POP POP POP POP POP POP POP POP POP JUMP JUMPDEST PUSH1 0x0 PUSH1 0x40 DUP3 ADD SWAP1 POP PUSH2 0x250B PUSH1 0x0 DUP4 ADD DUP6 PUSH2 0x2227 JUMP JUMPDEST PUSH2 0x2518 PUSH1 0x20 DUP4 ADD DUP5 PUSH2 0x2227 JUMP JUMPDEST SWAP4 SWAP3 POP POP POP JUMP JUMPDEST PUSH1 0x0 PUSH2 0x2529 PUSH2 0x253A JUMP JUMPDEST SWAP1 POP PUSH2 0x2535 DUP3 DUP3 PUSH2 0x2715 JUMP JUMPDEST SWAP2 SWAP1 POP JUMP JUMPDEST PUSH1 0x0 PUSH1 0x40 MLOAD SWAP1 POP SWAP1 JUMP JUMPDEST PUSH1 0x0 PUSH8 0xFFFFFFFFFFFFFFFF DUP3 GT ISZERO PUSH2 0x255F JUMPI PUSH2 0x255E PUSH2 0x284B JUMP JUMPDEST JUMPDEST PUSH2 0x2568 DUP3 PUSH2 0x2898 JUMP JUMPDEST SWAP1 POP PUSH1 0x20 DUP2 ADD SWAP1 POP SWAP2 SWAP1 POP JUMP JUMPDEST PUSH1 0x0 DUP2 SWAP1 POP PUSH1 0x20 DUP3 ADD SWAP1 POP SWAP2 SWAP1 POP JUMP JUMPDEST PUSH1 0x0 DUP2 MLOAD SWAP1 POP SWAP2 SWAP1 POP JUMP JUMPDEST PUSH1 0x0 DUP2 MLOAD SWAP1 POP SWAP2 SWAP1 POP JUMP JUMPDEST PUSH1 0x0 PUSH1 0x20 DUP3 ADD SWAP1 POP SWAP2 SWAP1 POP JUMP JUMPDEST PUSH1 0x0 DUP3 DUP3 MSTORE PUSH1 0x20 DUP3 ADD SWAP1 POP SWAP3 SWAP2 POP POP JUMP JUMPDEST PUSH1 0x0 DUP3 DUP3 MSTORE PUSH1 0x20 DUP3 ADD SWAP1 POP SWAP3 SWAP2 POP POP JUMP JUMPDEST PUSH1 0x0 PUSH2 0x25D5 DUP3 PUSH2 0x2605 JUMP JUMPDEST SWAP1 POP SWAP2 SWAP1 POP JUMP JUMPDEST PUSH1 0x0 DUP2 ISZERO ISZERO SWAP1 POP SWAP2 SWAP1 POP JUMP JUMPDEST PUSH1 0x0 DUP2 SWAP1 POP SWAP2 SWAP1 POP JUMP JUMPDEST PUSH1 0x0 DUP2 SWAP1 POP PUSH2 0x2600 DUP3 PUSH2 0x2A43 JUMP JUMPDEST SWAP2 SWAP1 POP JUMP JUMPDEST PUSH1 0x0 PUSH20 0xFFFFFFFFFFFFFFFFFFFFFFFFFFFFFFFFFFFFFFFF DUP3 AND SWAP1 POP SWAP2 SWAP1 POP JUMP JUMPDEST PUSH1 0x0 DUP2 SWAP1 POP SWAP2 SWAP1 POP JUMP JUMPDEST PUSH1 0x0 PUSH2 0x263A DUP3 PUSH2 0x2653 JUMP JUMPDEST SWAP1 POP SWAP2 SWAP1 POP JUMP JUMPDEST PUSH1 0x0 PUSH2 0x264C DUP3 PUSH2 0x25F2 JUMP JUMPDEST SWAP1 POP SWAP2 SWAP1 POP JUMP JUMPDEST PUSH1 0x0 PUSH2 0x265E DUP3 PUSH2 0x2665 JUMP JUMPDEST SWAP1 POP SWAP2 SWAP1 POP JUMP JUMPDEST PUSH1 0x0 PUSH2 0x2670 DUP3 PUSH2 0x2605 JUMP JUMPDEST SWAP1 POP SWAP2 SWAP1 POP JUMP JUMPDEST DUP3 DUP2 DUP4 CALLDATACOPY PUSH1 0x0 DUP4 DUP4 ADD MSTORE POP POP POP JUMP JUMPDEST PUSH1 0x0 JUMPDEST DUP4 DUP2 LT ISZERO PUSH2 0x26A4 JUMPI DUP1 DUP3 ADD MLOAD DUP2 DUP5 ADD MSTORE PUSH1 0x20 DUP2 ADD SWAP1 POP PUSH2 0x2689 JUMP JUMPDEST DUP4 DUP2 GT ISZERO PUSH2 0x26B3 JUMPI PUSH1 0x0 DUP5 DUP5 ADD MSTORE JUMPDEST POP POP POP POP JUMP JUMPDEST PUSH1 0x0 PUSH2 0x26C4 DUP3 PUSH2 0x2625 JUMP JUMPDEST SWAP2 POP PUSH1 0x0 DUP3 EQ ISZERO PUSH2 0x26D8 JUMPI PUSH2 0x26D7 PUSH2 0x278F JUMP JUMPDEST JUMPDEST PUSH1 0x1 DUP3 SUB SWAP1 POP SWAP2 SWAP1 POP JUMP JUMPDEST PUSH1 0x0 PUSH1 0x2 DUP3 DIV SWAP1 POP PUSH1 0x1 DUP3 AND DUP1 PUSH2 0x26FB JUMPI PUSH1 0x7F DUP3 AND SWAP2 POP JUMPDEST PUSH1 0x20 DUP3 LT DUP2 EQ ISZERO PUSH2 0x270F JUMPI PUSH2 0x270E PUSH2 0x27ED JUMP JUMPDEST JUMPDEST POP SWAP2 SWAP1 POP JUMP JUMPDEST PUSH2 0x271E DUP3 PUSH2 0x2898 JUMP JUMPDEST DUP2 ADD DUP2 DUP2 LT PUSH8 0xFFFFFFFFFFFFFFFF DUP3 GT OR ISZERO PUSH2 0x273D JUMPI PUSH2 0x273C PUSH2 0x284B JUMP JUMPDEST JUMPDEST DUP1 PUSH1 0x40 MSTORE POP POP POP JUMP JUMPDEST PUSH1 0x0 PUSH2 0x2751 DUP3 PUSH2 0x2625 JUMP JUMPDEST SWAP2 POP PUSH32 0xFFFFFFFFFFFFFFFFFFFFFFFFFFFFFFFFFFFFFFFFFFFFFFFFFFFFFFFFFFFFFFFF DUP3 EQ ISZERO PUSH2 0x2784 JUMPI PUSH2 0x2783 PUSH2 0x278F JUMP JUMPDEST JUMPDEST PUSH1 0x1 DUP3 ADD SWAP1 POP SWAP2 SWAP1 POP JUMP JUMPDEST PUSH32 0x4E487B7100000000000000000000000000000000000000000000000000000000 PUSH1 0x0 MSTORE PUSH1 0x11 PUSH1 0x4 MSTORE PUSH1 0x24 PUSH1 0x0 REVERT JUMPDEST PUSH32 0x4E487B7100000000000000000000000000000000000000000000000000000000 PUSH1 0x0 MSTORE PUSH1 0x21 PUSH1 0x4 MSTORE PUSH1 0x24 PUSH1 0x0 REVERT JUMPDEST PUSH32 0x4E487B7100000000000000000000000000000000000000000000000000000000 PUSH1 0x0 MSTORE PUSH1 0x22 PUSH1 0x4 MSTORE PUSH1 0x24 PUSH1 0x0 REVERT JUMPDEST PUSH32 0x4E487B7100000000000000000000000000000000000000000000000000000000 PUSH1 0x0 MSTORE PUSH1 0x32 PUSH1 0x4 MSTORE PUSH1 0x24 PUSH1 0x0 REVERT JUMPDEST PUSH32 0x4E487B7100000000000000000000000000000000000000000000000000000000 PUSH1 0x0 MSTORE PUSH1 0x41 PUSH1 0x4 MSTORE PUSH1 0x24 PUSH1 0x0 REVERT JUMPDEST PUSH1 0x0 DUP1 REVERT JUMPDEST PUSH1 0x0 DUP1 REVERT JUMPDEST PUSH1 0x0 DUP1 REVERT JUMPDEST PUSH1 0x0 DUP1 REVERT JUMPDEST PUSH1 0x0 DUP1 REVERT JUMPDEST PUSH1 0x0 DUP1 REVERT JUMPDEST PUSH1 0x0 PUSH1 0x1F NOT PUSH1 0x1F DUP4 ADD AND SWAP1 POP SWAP2 SWAP1 POP JUMP JUMPDEST PUSH32 0x53433A2063616E63656C206572726F7200000000000000000000000000000000 PUSH1 0x0 DUP3 ADD MSTORE POP JUMP JUMPDEST PUSH32 0x4D433A204F6E6C79204C65637475726572000000000000000000000000000000 PUSH1 0x0 DUP3 ADD MSTORE POP JUMP JUMPDEST PUSH32 0x4F6E6C79206F776E657200000000000000000000000000000000000000000000 PUSH1 0x0 DUP3 ADD MSTORE POP JUMP JUMPDEST PUSH32 0x4D433A204F6E6C792053747564656E7400000000000000000000000000000000 PUSH1 0x0 DUP3 ADD MSTORE POP JUMP JUMPDEST PUSH32 0x4D433A204F6E6C792074686520706572736F6E20696E20636861726765000000 PUSH1 0x0 DUP3 ADD MSTORE POP JUMP JUMPDEST PUSH32 0x53433A207265676973746572206572726F720000000000000000000000000000 PUSH1 0x0 DUP3 ADD MSTORE POP JUMP JUMPDEST PUSH32 0x53433A2054696D6520697320696E76616C696400000000000000000000000000 PUSH1 0x0 DUP3 ADD MSTORE POP JUMP JUMPDEST PUSH32 0x53686F756C64206F6E6C79206164642073747564656E74000000000000000000 PUSH1 0x0 DUP3 ADD MSTORE POP JUMP JUMPDEST PUSH32 0x53433A204F6E6C79204C6F636B00000000000000000000000000000000000000 PUSH1 0x0 DUP3 ADD MSTORE POP JUMP JUMPDEST PUSH32 0x53433A204F6E6C79204F70656E00000000000000000000000000000000000000 PUSH1 0x0 DUP3 ADD MSTORE POP JUMP JUMPDEST PUSH1 0x3 DUP2 LT PUSH2 0x2A54 JUMPI PUSH2 0x2A53 PUSH2 0x27BE JUMP JUMPDEST JUMPDEST POP JUMP JUMPDEST PUSH2 0x2A60 DUP2 PUSH2 0x25CA JUMP JUMPDEST DUP2 EQ PUSH2 0x2A6B JUMPI PUSH1 0x0 DUP1 REVERT JUMPDEST POP JUMP JUMPDEST PUSH2 0x2A77 DUP2 PUSH2 0x25DC JUMP JUMPDEST DUP2 EQ PUSH2 0x2A82 JUMPI PUSH1 0x0 DUP1 REVERT JUMPDEST POP JUMP JUMPDEST PUSH2 0x2A8E DUP2 PUSH2 0x2625 JUMP JUMPDEST DUP2 EQ PUSH2 0x2A99 JUMPI PUSH1 0x0 DUP1 REVERT JUMPDEST POP JUMP INVALID LOG2 PUSH5 0x6970667358 0x22 SLT KECCAK256 SDIV MUL NOT OR CREATE SWAP7 0xBE 0xAD 0xB9 0xD0 0xDF 0xFC PUSH7 0x7B429D6547A648 POP CODECOPY 0xEC RETURNDATACOPY DUP9 STOP BYTE PUSH30 0xFDBB5C0664736F6C63430008070033000000000000000000000000000000 "
				},
				"gasEstimates": {
					"creation": {
						"codeDepositCost": "2192400",
						"executionCost": "infinite",
						"totalCost": "infinite"
					},
					"external": {
						"UITToken()": "2654",
						"accessControll()": "2622",
						"addStudentToSubject(address[])": "infinite",
						"addressToStudent(address)": "infinite",
						"amount()": "2473",
						"cancelRegister()": "infinite",
						"close()": "infinite",
						"completedAddress(address)": "2890",
						"confirmCompletedAddress(address[])": "infinite",
						"getParticipantList()": "infinite",
						"getParticipantListCompleted()": "infinite",
						"owner()": "infinite",
						"register()": "infinite",
						"setBasicForSubject(uint256,string,uint256,address,uint256,uint256,uint256,uint256)": "infinite",
						"start()": "infinite",
						"status()": "2628",
						"student(uint256)": "5001",
						"subject()": "infinite"
					},
					"internal": {
						"_register(address)": "infinite"
					}
				},
				"methodIdentifiers": {
					"UITToken()": "2fe7a96d",
					"accessControll()": "aa4936ce",
					"addStudentToSubject(address[])": "35955121",
					"addressToStudent(address)": "98754710",
					"amount()": "aa8c217c",
					"cancelRegister()": "49aa7033",
					"close()": "43d726d6",
					"completedAddress(address)": "a32fb342",
					"confirmCompletedAddress(address[])": "d16e57fe",
					"getParticipantList()": "ed214fff",
					"getParticipantListCompleted()": "a7f44e0d",
					"owner()": "8da5cb5b",
					"register()": "1aa3a008",
					"setBasicForSubject(uint256,string,uint256,address,uint256,uint256,uint256,uint256)": "a53dc8d2",
					"start()": "be9a6555",
					"status()": "200d2ed2",
					"student(uint256)": "35f34232",
					"subject()": "0a59a98c"
				}
			},
			"userdoc": {
				"kind": "user",
				"methods": {},
				"version": 1
			}
		}
	}
}