{
	"contracts/studentmanager/SubjectContract.sol": {
		"SubjectContract": {
			"abi": [
				{
					"inputs": [
						{
							"internalType": "address",
							"name": "_owner",
							"type": "address"
						},
						{
							"internalType": "address",
							"name": "_accessControll",
							"type": "address"
						}
					],
					"stateMutability": "nonpayable",
					"type": "constructor"
				},
				{
					"anonymous": false,
					"inputs": [
						{
							"indexed": false,
							"internalType": "uint256",
							"name": "timestamp",
							"type": "uint256"
						}
					],
					"name": "Close",
					"type": "event"
				},
				{
					"anonymous": false,
					"inputs": [
						{
							"indexed": false,
							"internalType": "uint256",
							"name": "studentslength",
							"type": "uint256"
						},
						{
							"indexed": false,
							"internalType": "uint256",
							"name": "timestamp",
							"type": "uint256"
						}
					],
					"name": "Confirm",
					"type": "event"
				},
				{
					"anonymous": false,
					"inputs": [
						{
							"indexed": true,
							"internalType": "uint256",
							"name": "id",
							"type": "uint256"
						}
					],
					"name": "CreatedNewSubject",
					"type": "event"
				},
				{
					"anonymous": false,
					"inputs": [
						{
							"indexed": false,
							"internalType": "address",
							"name": "student",
							"type": "address"
						},
						{
							"indexed": false,
							"internalType": "uint256",
							"name": "timestamp",
							"type": "uint256"
						}
					],
					"name": "UnConfirm",
					"type": "event"
				},
				{
					"inputs": [],
					"name": "UITToken",
					"outputs": [
						{
							"internalType": "address",
							"name": "",
							"type": "address"
						}
					],
					"stateMutability": "view",
					"type": "function"
				},
				{
					"inputs": [],
					"name": "accessControll",
					"outputs": [
						{
							"internalType": "contract IAccessControl",
							"name": "",
							"type": "address"
						}
					],
					"stateMutability": "view",
					"type": "function"
				},
				{
					"inputs": [
						{
							"internalType": "address[]",
							"name": "_students",
							"type": "address[]"
						}
					],
					"name": "addStudentToSubject",
					"outputs": [],
					"stateMutability": "nonpayable",
					"type": "function"
				},
				{
					"inputs": [
						{
							"internalType": "address",
							"name": "",
							"type": "address"
						}
					],
					"name": "addressToStudent",
					"outputs": [
						{
							"internalType": "address",
							"name": "studentAddress",
							"type": "address"
						},
						{
							"internalType": "bool",
							"name": "participantToTrue",
							"type": "bool"
						}
					],
					"stateMutability": "view",
					"type": "function"
				},
				{
					"inputs": [],
					"name": "amount",
					"outputs": [
						{
							"internalType": "uint256",
							"name": "",
							"type": "uint256"
						}
					],
					"stateMutability": "view",
					"type": "function"
				},
				{
					"inputs": [],
					"name": "cancelRegister",
					"outputs": [],
					"stateMutability": "nonpayable",
					"type": "function"
				},
				{
					"inputs": [],
					"name": "close",
					"outputs": [],
					"stateMutability": "nonpayable",
					"type": "function"
				},
				{
					"inputs": [
						{
							"internalType": "address",
							"name": "",
							"type": "address"
						}
					],
					"name": "completedAddress",
					"outputs": [
						{
							"internalType": "bool",
							"name": "",
							"type": "bool"
						}
					],
					"stateMutability": "view",
					"type": "function"
				},
				{
					"inputs": [
						{
							"internalType": "address[]",
							"name": "_student",
							"type": "address[]"
						}
					],
					"name": "confirmCompletedAddress",
					"outputs": [],
					"stateMutability": "nonpayable",
					"type": "function"
				},
				{
					"inputs": [],
					"name": "getParticipantList",
					"outputs": [
						{
							"internalType": "address[]",
							"name": "",
							"type": "address[]"
						}
					],
					"stateMutability": "view",
					"type": "function"
				},
				{
					"inputs": [],
					"name": "getParticipantListCompleted",
					"outputs": [
						{
							"internalType": "address[]",
							"name": "",
							"type": "address[]"
						}
					],
					"stateMutability": "view",
					"type": "function"
				},
				{
					"inputs": [],
					"name": "owner",
					"outputs": [
						{
							"internalType": "address",
							"name": "",
							"type": "address"
						}
					],
					"stateMutability": "view",
					"type": "function"
				},
				{
					"inputs": [],
					"name": "register",
					"outputs": [],
					"stateMutability": "nonpayable",
					"type": "function"
				},
				{
					"inputs": [
						{
							"internalType": "uint256",
							"name": "_subjectId",
							"type": "uint256"
						},
						{
							"internalType": "string",
							"name": "_urlMetadata",
							"type": "string"
						},
						{
							"internalType": "uint256",
							"name": "_maxEntrant",
							"type": "uint256"
						},
						{
							"internalType": "address",
							"name": "_persionInCharge",
							"type": "address"
						},
						{
							"internalType": "uint256",
							"name": "_startTime",
							"type": "uint256"
						},
						{
							"internalType": "uint256",
							"name": "_endTimeToRegister",
							"type": "uint256"
						},
						{
							"internalType": "uint256",
							"name": "_endTime",
							"type": "uint256"
						},
						{
							"internalType": "uint256",
							"name": "_endTimeToConfirm",
							"type": "uint256"
						}
					],
					"name": "setBasicForSubject",
					"outputs": [],
					"stateMutability": "nonpayable",
					"type": "function"
				},
				{
					"inputs": [],
					"name": "start",
					"outputs": [],
					"stateMutability": "nonpayable",
					"type": "function"
				},
				{
					"inputs": [],
					"name": "status",
					"outputs": [
						{
							"internalType": "enum ISubjectContract.Status",
							"name": "",
							"type": "uint8"
						}
					],
					"stateMutability": "view",
					"type": "function"
				},
				{
					"inputs": [
						{
							"internalType": "uint256",
							"name": "",
							"type": "uint256"
						}
					],
					"name": "student",
					"outputs": [
						{
							"internalType": "address",
							"name": "",
							"type": "address"
						}
					],
					"stateMutability": "view",
					"type": "function"
				},
				{
					"inputs": [],
					"name": "subject",
					"outputs": [
						{
							"internalType": "uint256",
							"name": "Id",
							"type": "uint256"
						},
						{
							"internalType": "string",
							"name": "urlMetadata",
							"type": "string"
						},
						{
							"internalType": "uint256",
							"name": "maxEntrant",
							"type": "uint256"
						},
						{
							"internalType": "address",
							"name": "personInCharge",
							"type": "address"
						},
						{
							"internalType": "uint256",
							"name": "startTime",
							"type": "uint256"
						},
						{
							"internalType": "uint256",
							"name": "endTimeToRegister",
							"type": "uint256"
						},
						{
							"internalType": "uint256",
							"name": "endTime",
							"type": "uint256"
						},
						{
							"internalType": "uint256",
							"name": "endTimeToConfirm",
							"type": "uint256"
						}
					],
					"stateMutability": "view",
					"type": "function"
				},
				{
					"inputs": [
						{
							"internalType": "address",
							"name": "_student",
							"type": "address"
						}
					],
					"name": "unConfirmCompletedAddress",
					"outputs": [],
					"stateMutability": "nonpayable",
					"type": "function"
				}
			],
			"devdoc": {
				"kind": "dev",
				"methods": {},
				"version": 1
			},
			"evm": {
				"assembly": "    /* \"contracts/studentmanager/SubjectContract.sol\":157:7455  contract SubjectContract is ISubjectContract {\r... */\n  mstore(0x40, 0xa0)\n    /* \"contracts/studentmanager/SubjectContract.sol\":331:342  Status.Lock */\n  0x00\n    /* \"contracts/studentmanager/SubjectContract.sol\":308:342  Status public status = Status.Lock */\n  0x08\n  exp(0x0100, 0x00)\n  dup2\n  sload\n  dup2\n  0xff\n  mul\n  not\n  and\n  swap1\n  dup4\n  0x02\n  dup2\n  gt\n  iszero\n  tag_1\n  jumpi\n  tag_2\n  tag_3\n  jump\t// in\ntag_2:\ntag_1:\n  mul\n  or\n  swap1\n  sstore\n  pop\n    /* \"contracts/studentmanager/SubjectContract.sol\":1463:1608  constructor(address _owner, address _accessControll) {\r... */\n  callvalue\n  dup1\n  iszero\n  tag_4\n  jumpi\n  0x00\n  dup1\n  revert\ntag_4:\n  pop\n  mload(0x40)\n  sub(codesize, bytecodeSize)\n  dup1\n  bytecodeSize\n  dup4\n  codecopy\n  dup2\n  dup2\n  add\n  0x40\n  mstore\n  dup2\n  add\n  swap1\n  tag_5\n  swap2\n  swap1\n  tag_6\n  jump\t// in\ntag_5:\n    /* \"contracts/studentmanager/SubjectContract.sol\":1535:1541  _owner */\n  dup2\n    /* \"contracts/studentmanager/SubjectContract.sol\":1527:1541  owner = _owner */\n  0xffffffffffffffffffffffffffffffffffffffff\n  and\n  0x80\n  dup2\n  0xffffffffffffffffffffffffffffffffffffffff\n  and\n  0x60\n  shl\n  dup2\n  mstore\n  pop\n  pop\n    /* \"contracts/studentmanager/SubjectContract.sol\":1584:1599  _accessControll */\n  dup1\n    /* \"contracts/studentmanager/SubjectContract.sol\":1552:1566  accessControll */\n  0x09\n  0x00\n    /* \"contracts/studentmanager/SubjectContract.sol\":1552:1600  accessControll = IAccessControl(_accessControll) */\n  0x0100\n  exp\n  dup2\n  sload\n  dup2\n  0xffffffffffffffffffffffffffffffffffffffff\n  mul\n  not\n  and\n  swap1\n  dup4\n  0xffffffffffffffffffffffffffffffffffffffff\n  and\n  mul\n  or\n  swap1\n  sstore\n  pop\n    /* \"contracts/studentmanager/SubjectContract.sol\":1463:1608  constructor(address _owner, address _accessControll) {\r... */\n  pop\n  pop\n    /* \"contracts/studentmanager/SubjectContract.sol\":157:7455  contract SubjectContract is ISubjectContract {\r... */\n  jump(tag_9)\n    /* \"#utility.yul\":7:150   */\ntag_11:\n    /* \"#utility.yul\":64:69   */\n  0x00\n    /* \"#utility.yul\":95:101   */\n  dup2\n    /* \"#utility.yul\":89:102   */\n  mload\n    /* \"#utility.yul\":80:102   */\n  swap1\n  pop\n    /* \"#utility.yul\":111:144   */\n  tag_13\n    /* \"#utility.yul\":138:143   */\n  dup2\n    /* \"#utility.yul\":111:144   */\n  tag_14\n  jump\t// in\ntag_13:\n    /* \"#utility.yul\":7:150   */\n  swap3\n  swap2\n  pop\n  pop\n  jump\t// out\n    /* \"#utility.yul\":156:663   */\ntag_6:\n    /* \"#utility.yul\":235:241   */\n  0x00\n    /* \"#utility.yul\":243:249   */\n  dup1\n    /* \"#utility.yul\":292:294   */\n  0x40\n    /* \"#utility.yul\":280:289   */\n  dup4\n    /* \"#utility.yul\":271:278   */\n  dup6\n    /* \"#utility.yul\":267:290   */\n  sub\n    /* \"#utility.yul\":263:295   */\n  slt\n    /* \"#utility.yul\":260:379   */\n  iszero\n  tag_16\n  jumpi\n    /* \"#utility.yul\":298:377   */\n  tag_17\n  tag_18\n  jump\t// in\ntag_17:\n    /* \"#utility.yul\":260:379   */\ntag_16:\n    /* \"#utility.yul\":418:419   */\n  0x00\n    /* \"#utility.yul\":443:507   */\n  tag_19\n    /* \"#utility.yul\":499:506   */\n  dup6\n    /* \"#utility.yul\":490:496   */\n  dup3\n    /* \"#utility.yul\":479:488   */\n  dup7\n    /* \"#utility.yul\":475:497   */\n  add\n    /* \"#utility.yul\":443:507   */\n  tag_11\n  jump\t// in\ntag_19:\n    /* \"#utility.yul\":433:507   */\n  swap3\n  pop\n    /* \"#utility.yul\":389:517   */\n  pop\n    /* \"#utility.yul\":556:558   */\n  0x20\n    /* \"#utility.yul\":582:646   */\n  tag_20\n    /* \"#utility.yul\":638:645   */\n  dup6\n    /* \"#utility.yul\":629:635   */\n  dup3\n    /* \"#utility.yul\":618:627   */\n  dup7\n    /* \"#utility.yul\":614:636   */\n  add\n    /* \"#utility.yul\":582:646   */\n  tag_11\n  jump\t// in\ntag_20:\n    /* \"#utility.yul\":572:646   */\n  swap2\n  pop\n    /* \"#utility.yul\":527:656   */\n  pop\n    /* \"#utility.yul\":156:663   */\n  swap3\n  pop\n  swap3\n  swap1\n  pop\n  jump\t// out\n    /* \"#utility.yul\":750:846   */\ntag_23:\n    /* \"#utility.yul\":787:794   */\n  0x00\n    /* \"#utility.yul\":816:840   */\n  tag_25\n    /* \"#utility.yul\":834:839   */\n  dup3\n    /* \"#utility.yul\":816:840   */\n  tag_26\n  jump\t// in\ntag_25:\n    /* \"#utility.yul\":805:840   */\n  swap1\n  pop\n    /* \"#utility.yul\":750:846   */\n  swap2\n  swap1\n  pop\n  jump\t// out\n    /* \"#utility.yul\":852:978   */\ntag_26:\n    /* \"#utility.yul\":889:896   */\n  0x00\n    /* \"#utility.yul\":929:971   */\n  0xffffffffffffffffffffffffffffffffffffffff\n    /* \"#utility.yul\":922:927   */\n  dup3\n    /* \"#utility.yul\":918:972   */\n  and\n    /* \"#utility.yul\":907:972   */\n  swap1\n  pop\n    /* \"#utility.yul\":852:978   */\n  swap2\n  swap1\n  pop\n  jump\t// out\n    /* \"#utility.yul\":984:1164   */\ntag_3:\n    /* \"#utility.yul\":1032:1109   */\n  0x4e487b7100000000000000000000000000000000000000000000000000000000\n    /* \"#utility.yul\":1029:1030   */\n  0x00\n    /* \"#utility.yul\":1022:1110   */\n  mstore\n    /* \"#utility.yul\":1129:1133   */\n  0x21\n    /* \"#utility.yul\":1126:1127   */\n  0x04\n    /* \"#utility.yul\":1119:1134   */\n  mstore\n    /* \"#utility.yul\":1153:1157   */\n  0x24\n    /* \"#utility.yul\":1150:1151   */\n  0x00\n    /* \"#utility.yul\":1143:1158   */\n  revert\n    /* \"#utility.yul\":1293:1410   */\ntag_18:\n    /* \"#utility.yul\":1402:1403   */\n  0x00\n    /* \"#utility.yul\":1399:1400   */\n  dup1\n    /* \"#utility.yul\":1392:1404   */\n  revert\n    /* \"#utility.yul\":1416:1538   */\ntag_14:\n    /* \"#utility.yul\":1489:1513   */\n  tag_33\n    /* \"#utility.yul\":1507:1512   */\n  dup2\n    /* \"#utility.yul\":1489:1513   */\n  tag_23\n  jump\t// in\ntag_33:\n    /* \"#utility.yul\":1482:1487   */\n  dup2\n    /* \"#utility.yul\":1479:1514   */\n  eq\n    /* \"#utility.yul\":1469:1532   */\n  tag_34\n  jumpi\n    /* \"#utility.yul\":1528:1529   */\n  0x00\n    /* \"#utility.yul\":1525:1526   */\n  dup1\n    /* \"#utility.yul\":1518:1530   */\n  revert\n    /* \"#utility.yul\":1469:1532   */\ntag_34:\n    /* \"#utility.yul\":1416:1538   */\n  pop\n  jump\t// out\n    /* \"contracts/studentmanager/SubjectContract.sol\":157:7455  contract SubjectContract is ISubjectContract {\r... */\ntag_9:\n  shr(0x60, mload(0x80))\n  codecopy(0x00, dataOffset(sub_0), dataSize(sub_0))\n  0x00\n  assignImmutable(\"0x1bd24dd6132ee48d988d9af2a2861e14cfa127f735144972abbc68ba40aae435\")\n  return(0x00, dataSize(sub_0))\nstop\n\nsub_0: assembly {\n        /* \"contracts/studentmanager/SubjectContract.sol\":157:7455  contract SubjectContract is ISubjectContract {\r... */\n      mstore(0x40, 0x80)\n      callvalue\n      dup1\n      iszero\n      tag_1\n      jumpi\n      0x00\n      dup1\n      revert\n    tag_1:\n      pop\n      jumpi(tag_2, lt(calldatasize, 0x04))\n      shr(0xe0, calldataload(0x00))\n      dup1\n      0x8da5cb5b\n      gt\n      tag_22\n      jumpi\n      dup1\n      0xaa4936ce\n      gt\n      tag_23\n      jumpi\n      dup1\n      0xaa4936ce\n      eq\n      tag_17\n      jumpi\n      dup1\n      0xaa8c217c\n      eq\n      tag_18\n      jumpi\n      dup1\n      0xbe9a6555\n      eq\n      tag_19\n      jumpi\n      dup1\n      0xd16e57fe\n      eq\n      tag_20\n      jumpi\n      dup1\n      0xed214fff\n      eq\n      tag_21\n      jumpi\n      jump(tag_2)\n    tag_23:\n      dup1\n      0x8da5cb5b\n      eq\n      tag_12\n      jumpi\n      dup1\n      0x98754710\n      eq\n      tag_13\n      jumpi\n      dup1\n      0xa32fb342\n      eq\n      tag_14\n      jumpi\n      dup1\n      0xa53dc8d2\n      eq\n      tag_15\n      jumpi\n      dup1\n      0xa7f44e0d\n      eq\n      tag_16\n      jumpi\n      jump(tag_2)\n    tag_22:\n      dup1\n      0x35955121\n      gt\n      tag_24\n      jumpi\n      dup1\n      0x35955121\n      eq\n      tag_7\n      jumpi\n      dup1\n      0x35f34232\n      eq\n      tag_8\n      jumpi\n      dup1\n      0x43d726d6\n      eq\n      tag_9\n      jumpi\n      dup1\n      0x49aa7033\n      eq\n      tag_10\n      jumpi\n      dup1\n      0x6e88f230\n      eq\n      tag_11\n      jumpi\n      jump(tag_2)\n    tag_24:\n      dup1\n      0x0a59a98c\n      eq\n      tag_3\n      jumpi\n      dup1\n      0x1aa3a008\n      eq\n      tag_4\n      jumpi\n      dup1\n      0x200d2ed2\n      eq\n      tag_5\n      jumpi\n      dup1\n      0x2fe7a96d\n      eq\n      tag_6\n      jumpi\n    tag_2:\n      0x00\n      dup1\n      revert\n        /* \"contracts/studentmanager/SubjectContract.sol\":279:301  Subject public subject */\n    tag_3:\n      tag_25\n      tag_26\n      jump\t// in\n    tag_25:\n      mload(0x40)\n      tag_27\n      swap9\n      swap8\n      swap7\n      swap6\n      swap5\n      swap4\n      swap3\n      swap2\n      swap1\n      tag_28\n      jump\t// in\n    tag_27:\n      mload(0x40)\n      dup1\n      swap2\n      sub\n      swap1\n      return\n        /* \"contracts/studentmanager/SubjectContract.sol\":3486:3580  function register() external onlyOpen onlyRoleStudent {\r... */\n    tag_4:\n      tag_29\n      tag_30\n      jump\t// in\n    tag_29:\n      stop\n        /* \"contracts/studentmanager/SubjectContract.sol\":308:342  Status public status = Status.Lock */\n    tag_5:\n      tag_31\n      tag_32\n      jump\t// in\n    tag_31:\n      mload(0x40)\n      tag_33\n      swap2\n      swap1\n      tag_34\n      jump\t// in\n    tag_33:\n      mload(0x40)\n      dup1\n      swap2\n      sub\n      swap1\n      return\n        /* \"contracts/studentmanager/SubjectContract.sol\":351:374  address public UITToken */\n    tag_6:\n      tag_35\n      tag_36\n      jump\t// in\n    tag_35:\n      mload(0x40)\n      tag_37\n      swap2\n      swap1\n      tag_38\n      jump\t// in\n    tag_37:\n      mload(0x40)\n      dup1\n      swap2\n      sub\n      swap1\n      return\n        /* \"contracts/studentmanager/SubjectContract.sol\":2983:3478  function addStudentToSubject(address[] calldata _students)\r... */\n    tag_7:\n      tag_39\n      0x04\n      dup1\n      calldatasize\n      sub\n      dup2\n      add\n      swap1\n      tag_40\n      swap2\n      swap1\n      tag_41\n      jump\t// in\n    tag_40:\n      tag_42\n      jump\t// in\n    tag_39:\n      stop\n        /* \"contracts/studentmanager/SubjectContract.sol\":426:450  address[] public student */\n    tag_8:\n      tag_43\n      0x04\n      dup1\n      calldatasize\n      sub\n      dup2\n      add\n      swap1\n      tag_44\n      swap2\n      swap1\n      tag_45\n      jump\t// in\n    tag_44:\n      tag_46\n      jump\t// in\n    tag_43:\n      mload(0x40)\n      tag_47\n      swap2\n      swap1\n      tag_38\n      jump\t// in\n    tag_47:\n      mload(0x40)\n      dup1\n      swap2\n      sub\n      swap1\n      return\n        /* \"contracts/studentmanager/SubjectContract.sol\":5788:5971  function close() external override onlyOwner {\r... */\n    tag_9:\n      tag_48\n      tag_49\n      jump\t// in\n    tag_48:\n      stop\n        /* \"contracts/studentmanager/SubjectContract.sol\":4233:4497  function cancelRegister() external onlyOpen onlyRoleStudent {\r... */\n    tag_10:\n      tag_50\n      tag_51\n      jump\t// in\n    tag_50:\n      stop\n        /* \"contracts/studentmanager/SubjectContract.sol\":5347:5780  function unConfirmCompletedAddress(address _student)\r... */\n    tag_11:\n      tag_52\n      0x04\n      dup1\n      calldatasize\n      sub\n      dup2\n      add\n      swap1\n      tag_53\n      swap2\n      swap1\n      tag_54\n      jump\t// in\n    tag_53:\n      tag_55\n      jump\t// in\n    tag_52:\n      stop\n        /* \"contracts/studentmanager/SubjectContract.sol\":242:272  address public immutable owner */\n    tag_12:\n      tag_56\n      tag_57\n      jump\t// in\n    tag_56:\n      mload(0x40)\n      tag_58\n      swap2\n      swap1\n      tag_38\n      jump\t// in\n    tag_58:\n      mload(0x40)\n      dup1\n      swap2\n      sub\n      swap1\n      return\n        /* \"contracts/studentmanager/SubjectContract.sol\":457:508  mapping(address => Student) public addressToStudent */\n    tag_13:\n      tag_59\n      0x04\n      dup1\n      calldatasize\n      sub\n      dup2\n      add\n      swap1\n      tag_60\n      swap2\n      swap1\n      tag_54\n      jump\t// in\n    tag_60:\n      tag_61\n      jump\t// in\n    tag_59:\n      mload(0x40)\n      tag_62\n      swap3\n      swap2\n      swap1\n      tag_63\n      jump\t// in\n    tag_62:\n      mload(0x40)\n      dup1\n      swap2\n      sub\n      swap1\n      return\n        /* \"contracts/studentmanager/SubjectContract.sol\":610:658  mapping(address => bool) public completedAddress */\n    tag_14:\n      tag_64\n      0x04\n      dup1\n      calldatasize\n      sub\n      dup2\n      add\n      swap1\n      tag_65\n      swap2\n      swap1\n      tag_54\n      jump\t// in\n    tag_65:\n      tag_66\n      jump\t// in\n    tag_64:\n      mload(0x40)\n      tag_67\n      swap2\n      swap1\n      tag_68\n      jump\t// in\n    tag_67:\n      mload(0x40)\n      dup1\n      swap2\n      sub\n      swap1\n      return\n        /* \"contracts/studentmanager/SubjectContract.sol\":1616:2478  function setBasicForSubject(\r... */\n    tag_15:\n      tag_69\n      0x04\n      dup1\n      calldatasize\n      sub\n      dup2\n      add\n      swap1\n      tag_70\n      swap2\n      swap1\n      tag_71\n      jump\t// in\n    tag_70:\n      tag_72\n      jump\t// in\n    tag_69:\n      stop\n        /* \"contracts/studentmanager/SubjectContract.sol\":6489:6947  function getParticipantListCompleted()\r... */\n    tag_16:\n      tag_73\n      tag_74\n      jump\t// in\n    tag_73:\n      mload(0x40)\n      tag_75\n      swap2\n      swap1\n      tag_76\n      jump\t// in\n    tag_75:\n      mload(0x40)\n      dup1\n      swap2\n      sub\n      swap1\n      return\n        /* \"contracts/studentmanager/SubjectContract.sol\":381:417  IAccessControl public accessControll */\n    tag_17:\n      tag_77\n      tag_78\n      jump\t// in\n    tag_77:\n      mload(0x40)\n      tag_79\n      swap2\n      swap1\n      tag_80\n      jump\t// in\n    tag_79:\n      mload(0x40)\n      dup1\n      swap2\n      sub\n      swap1\n      return\n        /* \"contracts/studentmanager/SubjectContract.sol\":582:603  uint256 public amount */\n    tag_18:\n      tag_81\n      tag_82\n      jump\t// in\n    tag_81:\n      mload(0x40)\n      tag_83\n      swap2\n      swap1\n      tag_84\n      jump\t// in\n    tag_83:\n      mload(0x40)\n      dup1\n      swap2\n      sub\n      swap1\n      return\n        /* \"contracts/studentmanager/SubjectContract.sol\":2891:2975  function start() external override onlyOwner {\r... */\n    tag_19:\n      tag_85\n      tag_86\n      jump\t// in\n    tag_85:\n      stop\n        /* \"contracts/studentmanager/SubjectContract.sol\":4505:5339  function confirmCompletedAddress(\r... */\n    tag_20:\n      tag_87\n      0x04\n      dup1\n      calldatasize\n      sub\n      dup2\n      add\n      swap1\n      tag_88\n      swap2\n      swap1\n      tag_41\n      jump\t// in\n    tag_88:\n      tag_89\n      jump\t// in\n    tag_87:\n      stop\n        /* \"contracts/studentmanager/SubjectContract.sol\":5979:6481  function getParticipantList() public view returns (address[] memory) {\r... */\n    tag_21:\n      tag_90\n      tag_91\n      jump\t// in\n    tag_90:\n      mload(0x40)\n      tag_92\n      swap2\n      swap1\n      tag_76\n      jump\t// in\n    tag_92:\n      mload(0x40)\n      dup1\n      swap2\n      sub\n      swap1\n      return\n        /* \"contracts/studentmanager/SubjectContract.sol\":279:301  Subject public subject */\n    tag_26:\n      0x00\n      dup1\n      0x00\n      add\n      sload\n      swap1\n      dup1\n      0x01\n      add\n      dup1\n      sload\n      tag_93\n      swap1\n      tag_94\n      jump\t// in\n    tag_93:\n      dup1\n      0x1f\n      add\n      0x20\n      dup1\n      swap2\n      div\n      mul\n      0x20\n      add\n      mload(0x40)\n      swap1\n      dup2\n      add\n      0x40\n      mstore\n      dup1\n      swap3\n      swap2\n      swap1\n      dup2\n      dup2\n      mstore\n      0x20\n      add\n      dup3\n      dup1\n      sload\n      tag_95\n      swap1\n      tag_94\n      jump\t// in\n    tag_95:\n      dup1\n      iszero\n      tag_96\n      jumpi\n      dup1\n      0x1f\n      lt\n      tag_97\n      jumpi\n      0x0100\n      dup1\n      dup4\n      sload\n      div\n      mul\n      dup4\n      mstore\n      swap2\n      0x20\n      add\n      swap2\n      jump(tag_96)\n    tag_97:\n      dup3\n      add\n      swap2\n      swap1\n      0x00\n      mstore\n      keccak256(0x00, 0x20)\n      swap1\n    tag_98:\n      dup2\n      sload\n      dup2\n      mstore\n      swap1\n      0x01\n      add\n      swap1\n      0x20\n      add\n      dup1\n      dup4\n      gt\n      tag_98\n      jumpi\n      dup3\n      swap1\n      sub\n      0x1f\n      and\n      dup3\n      add\n      swap2\n    tag_96:\n      pop\n      pop\n      pop\n      pop\n      pop\n      swap1\n      dup1\n      0x02\n      add\n      sload\n      swap1\n      dup1\n      0x03\n      add\n      0x00\n      swap1\n      sload\n      swap1\n      0x0100\n      exp\n      swap1\n      div\n      0xffffffffffffffffffffffffffffffffffffffff\n      and\n      swap1\n      dup1\n      0x04\n      add\n      sload\n      swap1\n      dup1\n      0x05\n      add\n      sload\n      swap1\n      dup1\n      0x06\n      add\n      sload\n      swap1\n      dup1\n      0x07\n      add\n      sload\n      swap1\n      pop\n      dup9\n      jump\t// out\n        /* \"contracts/studentmanager/SubjectContract.sol\":3486:3580  function register() external onlyOpen onlyRoleStudent {\r... */\n    tag_30:\n        /* \"contracts/studentmanager/SubjectContract.sol\":925:936  Status.Open */\n      0x01\n        /* \"contracts/studentmanager/SubjectContract.sol\":915:936  status == Status.Open */\n      0x02\n      dup2\n      gt\n      iszero\n      tag_100\n      jumpi\n      tag_101\n      tag_102\n      jump\t// in\n    tag_101:\n    tag_100:\n        /* \"contracts/studentmanager/SubjectContract.sol\":915:921  status */\n      0x08\n      0x00\n      swap1\n      sload\n      swap1\n      0x0100\n      exp\n      swap1\n      div\n      0xff\n      and\n        /* \"contracts/studentmanager/SubjectContract.sol\":915:936  status == Status.Open */\n      0x02\n      dup2\n      gt\n      iszero\n      tag_103\n      jumpi\n      tag_104\n      tag_102\n      jump\t// in\n    tag_104:\n    tag_103:\n      eq\n        /* \"contracts/studentmanager/SubjectContract.sol\":907:954  require(status == Status.Open, \"SC: Only Open\") */\n      tag_105\n      jumpi\n      mload(0x40)\n      0x08c379a000000000000000000000000000000000000000000000000000000000\n      dup2\n      mstore\n      0x04\n      add\n      tag_106\n      swap1\n      tag_107\n      jump\t// in\n    tag_106:\n      mload(0x40)\n      dup1\n      swap2\n      sub\n      swap1\n      revert\n    tag_105:\n        /* \"contracts/studentmanager/SubjectContract.sol\":1335:1349  accessControll */\n      0x09\n      0x00\n      swap1\n      sload\n      swap1\n      0x0100\n      exp\n      swap1\n      div\n      0xffffffffffffffffffffffffffffffffffffffff\n      and\n        /* \"contracts/studentmanager/SubjectContract.sol\":1335:1357  accessControll.hasRole */\n      0xffffffffffffffffffffffffffffffffffffffff\n      and\n      0x91d14854\n        /* \"contracts/studentmanager/SubjectContract.sol\":1358:1378  keccak256(\"STUDENT\") */\n      0xc951d7098b66ba0b8b77265b6e9cf0e187d73125a42bcd0061b09a68be421810\n        /* \"contracts/studentmanager/SubjectContract.sol\":1380:1390  msg.sender */\n      caller\n        /* \"contracts/studentmanager/SubjectContract.sol\":1335:1391  accessControll.hasRole(keccak256(\"STUDENT\"), msg.sender) */\n      mload(0x40)\n      dup4\n      0xffffffff\n      and\n      0xe0\n      shl\n      dup2\n      mstore\n      0x04\n      add\n      tag_109\n      swap3\n      swap2\n      swap1\n      tag_110\n      jump\t// in\n    tag_109:\n      0x20\n      mload(0x40)\n      dup1\n      dup4\n      sub\n      dup2\n      dup7\n      dup1\n      extcodesize\n      iszero\n      dup1\n      iszero\n      tag_111\n      jumpi\n      0x00\n      dup1\n      revert\n    tag_111:\n      pop\n      gas\n      staticcall\n      iszero\n      dup1\n      iszero\n      tag_113\n      jumpi\n      returndatasize\n      0x00\n      dup1\n      returndatacopy\n      revert(0x00, returndatasize)\n    tag_113:\n      pop\n      pop\n      pop\n      pop\n      mload(0x40)\n      returndatasize\n      not(0x1f)\n      0x1f\n      dup3\n      add\n      and\n      dup3\n      add\n      dup1\n      0x40\n      mstore\n      pop\n      dup2\n      add\n      swap1\n      tag_114\n      swap2\n      swap1\n      tag_115\n      jump\t// in\n    tag_114:\n        /* \"contracts/studentmanager/SubjectContract.sol\":1313:1435  require(\r... */\n      tag_116\n      jumpi\n      mload(0x40)\n      0x08c379a000000000000000000000000000000000000000000000000000000000\n      dup2\n      mstore\n      0x04\n      add\n      tag_117\n      swap1\n      tag_118\n      jump\t// in\n    tag_117:\n      mload(0x40)\n      dup1\n      swap2\n      sub\n      swap1\n      revert\n    tag_116:\n        /* \"contracts/studentmanager/SubjectContract.sol\":3551:3572  _register(msg.sender) */\n      tag_120\n        /* \"contracts/studentmanager/SubjectContract.sol\":3561:3571  msg.sender */\n      caller\n        /* \"contracts/studentmanager/SubjectContract.sol\":3551:3560  _register */\n      tag_121\n        /* \"contracts/studentmanager/SubjectContract.sol\":3551:3572  _register(msg.sender) */\n      jump\t// in\n    tag_120:\n        /* \"contracts/studentmanager/SubjectContract.sol\":3486:3580  function register() external onlyOpen onlyRoleStudent {\r... */\n      jump\t// out\n        /* \"contracts/studentmanager/SubjectContract.sol\":308:342  Status public status = Status.Lock */\n    tag_32:\n      0x08\n      0x00\n      swap1\n      sload\n      swap1\n      0x0100\n      exp\n      swap1\n      div\n      0xff\n      and\n      dup2\n      jump\t// out\n        /* \"contracts/studentmanager/SubjectContract.sol\":351:374  address public UITToken */\n    tag_36:\n      0x08\n      0x01\n      swap1\n      sload\n      swap1\n      0x0100\n      exp\n      swap1\n      div\n      0xffffffffffffffffffffffffffffffffffffffff\n      and\n      dup2\n      jump\t// out\n        /* \"contracts/studentmanager/SubjectContract.sol\":2983:3478  function addStudentToSubject(address[] calldata _students)\r... */\n    tag_42:\n        /* \"contracts/studentmanager/SubjectContract.sol\":1145:1159  accessControll */\n      0x09\n      0x00\n      swap1\n      sload\n      swap1\n      0x0100\n      exp\n      swap1\n      div\n      0xffffffffffffffffffffffffffffffffffffffff\n      and\n        /* \"contracts/studentmanager/SubjectContract.sol\":1145:1167  accessControll.hasRole */\n      0xffffffffffffffffffffffffffffffffffffffff\n      and\n      0x91d14854\n        /* \"contracts/studentmanager/SubjectContract.sol\":1168:1189  keccak256(\"LECTURER\") */\n      0xb39b9469ac3ddf8d58f06201f7e17350a277b429ed2a39727bf2f3a5165dba1a\n        /* \"contracts/studentmanager/SubjectContract.sol\":1191:1201  msg.sender */\n      caller\n        /* \"contracts/studentmanager/SubjectContract.sol\":1145:1202  accessControll.hasRole(keccak256(\"LECTURER\"), msg.sender) */\n      mload(0x40)\n      dup4\n      0xffffffff\n      and\n      0xe0\n      shl\n      dup2\n      mstore\n      0x04\n      add\n      tag_123\n      swap3\n      swap2\n      swap1\n      tag_110\n      jump\t// in\n    tag_123:\n      0x20\n      mload(0x40)\n      dup1\n      dup4\n      sub\n      dup2\n      dup7\n      dup1\n      extcodesize\n      iszero\n      dup1\n      iszero\n      tag_124\n      jumpi\n      0x00\n      dup1\n      revert\n    tag_124:\n      pop\n      gas\n      staticcall\n      iszero\n      dup1\n      iszero\n      tag_126\n      jumpi\n      returndatasize\n      0x00\n      dup1\n      returndatacopy\n      revert(0x00, returndatasize)\n    tag_126:\n      pop\n      pop\n      pop\n      pop\n      mload(0x40)\n      returndatasize\n      not(0x1f)\n      0x1f\n      dup3\n      add\n      and\n      dup3\n      add\n      dup1\n      0x40\n      mstore\n      pop\n      dup2\n      add\n      swap1\n      tag_127\n      swap2\n      swap1\n      tag_115\n      jump\t// in\n    tag_127:\n        /* \"contracts/studentmanager/SubjectContract.sol\":1123:1247  require(\r... */\n      tag_128\n      jumpi\n      mload(0x40)\n      0x08c379a000000000000000000000000000000000000000000000000000000000\n      dup2\n      mstore\n      0x04\n      add\n      tag_129\n      swap1\n      tag_130\n      jump\t// in\n    tag_129:\n      mload(0x40)\n      dup1\n      swap2\n      sub\n      swap1\n      revert\n    tag_128:\n        /* \"contracts/studentmanager/SubjectContract.sol\":925:936  Status.Open */\n      0x01\n        /* \"contracts/studentmanager/SubjectContract.sol\":915:936  status == Status.Open */\n      0x02\n      dup2\n      gt\n      iszero\n      tag_132\n      jumpi\n      tag_133\n      tag_102\n      jump\t// in\n    tag_133:\n    tag_132:\n        /* \"contracts/studentmanager/SubjectContract.sol\":915:921  status */\n      0x08\n      0x00\n      swap1\n      sload\n      swap1\n      0x0100\n      exp\n      swap1\n      div\n      0xff\n      and\n        /* \"contracts/studentmanager/SubjectContract.sol\":915:936  status == Status.Open */\n      0x02\n      dup2\n      gt\n      iszero\n      tag_134\n      jumpi\n      tag_135\n      tag_102\n      jump\t// in\n    tag_135:\n    tag_134:\n      eq\n        /* \"contracts/studentmanager/SubjectContract.sol\":907:954  require(status == Status.Open, \"SC: Only Open\") */\n      tag_136\n      jumpi\n      mload(0x40)\n      0x08c379a000000000000000000000000000000000000000000000000000000000\n      dup2\n      mstore\n      0x04\n      add\n      tag_137\n      swap1\n      tag_107\n      jump\t// in\n    tag_137:\n      mload(0x40)\n      dup1\n      swap2\n      sub\n      swap1\n      revert\n    tag_136:\n        /* \"contracts/studentmanager/SubjectContract.sol\":3174:3181  subject */\n      0x00\n        /* \"contracts/studentmanager/SubjectContract.sol\":3174:3196  subject.personInCharge */\n      0x03\n      add\n      0x00\n      swap1\n      sload\n      swap1\n      0x0100\n      exp\n      swap1\n      div\n      0xffffffffffffffffffffffffffffffffffffffff\n      and\n        /* \"contracts/studentmanager/SubjectContract.sol\":3160:3196  msg.sender == subject.personInCharge */\n      0xffffffffffffffffffffffffffffffffffffffff\n      and\n        /* \"contracts/studentmanager/SubjectContract.sol\":3160:3170  msg.sender */\n      caller\n        /* \"contracts/studentmanager/SubjectContract.sol\":3160:3196  msg.sender == subject.personInCharge */\n      0xffffffffffffffffffffffffffffffffffffffff\n      and\n      eq\n        /* \"contracts/studentmanager/SubjectContract.sol\":3138:3253  require(\r... */\n      tag_139\n      jumpi\n      mload(0x40)\n      0x08c379a000000000000000000000000000000000000000000000000000000000\n      dup2\n      mstore\n      0x04\n      add\n      tag_140\n      swap1\n      tag_141\n      jump\t// in\n    tag_140:\n      mload(0x40)\n      dup1\n      swap2\n      sub\n      swap1\n      revert\n    tag_139:\n        /* \"contracts/studentmanager/SubjectContract.sol\":3269:3278  uint256 i */\n      0x00\n        /* \"contracts/studentmanager/SubjectContract.sol\":3264:3471  for (uint256 i = 0; i < _students.length; i++) {\r... */\n    tag_142:\n        /* \"contracts/studentmanager/SubjectContract.sol\":3288:3297  _students */\n      dup3\n      dup3\n        /* \"contracts/studentmanager/SubjectContract.sol\":3288:3304  _students.length */\n      swap1\n      pop\n        /* \"contracts/studentmanager/SubjectContract.sol\":3284:3285  i */\n      dup2\n        /* \"contracts/studentmanager/SubjectContract.sol\":3284:3304  i < _students.length */\n      lt\n        /* \"contracts/studentmanager/SubjectContract.sol\":3264:3471  for (uint256 i = 0; i < _students.length; i++) {\r... */\n      iszero\n      tag_143\n      jumpi\n        /* \"contracts/studentmanager/SubjectContract.sol\":3335:3349  accessControll */\n      0x09\n      0x00\n      swap1\n      sload\n      swap1\n      0x0100\n      exp\n      swap1\n      div\n      0xffffffffffffffffffffffffffffffffffffffff\n      and\n        /* \"contracts/studentmanager/SubjectContract.sol\":3335:3357  accessControll.hasRole */\n      0xffffffffffffffffffffffffffffffffffffffff\n      and\n      0x91d14854\n        /* \"contracts/studentmanager/SubjectContract.sol\":3358:3378  keccak256(\"STUDENT\") */\n      0xc951d7098b66ba0b8b77265b6e9cf0e187d73125a42bcd0061b09a68be421810\n        /* \"contracts/studentmanager/SubjectContract.sol\":3380:3389  _students */\n      dup6\n      dup6\n        /* \"contracts/studentmanager/SubjectContract.sol\":3390:3391  i */\n      dup6\n        /* \"contracts/studentmanager/SubjectContract.sol\":3380:3392  _students[i] */\n      dup2\n      dup2\n      lt\n      tag_145\n      jumpi\n      tag_146\n      tag_147\n      jump\t// in\n    tag_146:\n    tag_145:\n      swap1\n      pop\n      0x20\n      mul\n      add\n      0x20\n      dup2\n      add\n      swap1\n      tag_148\n      swap2\n      swap1\n      tag_54\n      jump\t// in\n    tag_148:\n        /* \"contracts/studentmanager/SubjectContract.sol\":3335:3393  accessControll.hasRole(keccak256(\"STUDENT\"), _students[i]) */\n      mload(0x40)\n      dup4\n      0xffffffff\n      and\n      0xe0\n      shl\n      dup2\n      mstore\n      0x04\n      add\n      tag_149\n      swap3\n      swap2\n      swap1\n      tag_110\n      jump\t// in\n    tag_149:\n      0x20\n      mload(0x40)\n      dup1\n      dup4\n      sub\n      dup2\n      dup7\n      dup1\n      extcodesize\n      iszero\n      dup1\n      iszero\n      tag_150\n      jumpi\n      0x00\n      dup1\n      revert\n    tag_150:\n      pop\n      gas\n      staticcall\n      iszero\n      dup1\n      iszero\n      tag_152\n      jumpi\n      returndatasize\n      0x00\n      dup1\n      returndatacopy\n      revert(0x00, returndatasize)\n    tag_152:\n      pop\n      pop\n      pop\n      pop\n      mload(0x40)\n      returndatasize\n      not(0x1f)\n      0x1f\n      dup3\n      add\n      and\n      dup3\n      add\n      dup1\n      0x40\n      mstore\n      pop\n      dup2\n      add\n      swap1\n      tag_153\n      swap2\n      swap1\n      tag_115\n      jump\t// in\n    tag_153:\n        /* \"contracts/studentmanager/SubjectContract.sol\":3327:3421  require(accessControll.hasRole(keccak256(\"STUDENT\"), _students[i]), \"Should only add student\") */\n      tag_154\n      jumpi\n      mload(0x40)\n      0x08c379a000000000000000000000000000000000000000000000000000000000\n      dup2\n      mstore\n      0x04\n      add\n      tag_155\n      swap1\n      tag_156\n      jump\t// in\n    tag_155:\n      mload(0x40)\n      dup1\n      swap2\n      sub\n      swap1\n      revert\n    tag_154:\n        /* \"contracts/studentmanager/SubjectContract.sol\":3436:3459  _register(_students[i]) */\n      tag_157\n        /* \"contracts/studentmanager/SubjectContract.sol\":3446:3455  _students */\n      dup4\n      dup4\n        /* \"contracts/studentmanager/SubjectContract.sol\":3456:3457  i */\n      dup4\n        /* \"contracts/studentmanager/SubjectContract.sol\":3446:3458  _students[i] */\n      dup2\n      dup2\n      lt\n      tag_158\n      jumpi\n      tag_159\n      tag_147\n      jump\t// in\n    tag_159:\n    tag_158:\n      swap1\n      pop\n      0x20\n      mul\n      add\n      0x20\n      dup2\n      add\n      swap1\n      tag_160\n      swap2\n      swap1\n      tag_54\n      jump\t// in\n    tag_160:\n        /* \"contracts/studentmanager/SubjectContract.sol\":3436:3445  _register */\n      tag_121\n        /* \"contracts/studentmanager/SubjectContract.sol\":3436:3459  _register(_students[i]) */\n      jump\t// in\n    tag_157:\n        /* \"contracts/studentmanager/SubjectContract.sol\":3306:3309  i++ */\n      dup1\n      dup1\n      tag_161\n      swap1\n      tag_162\n      jump\t// in\n    tag_161:\n      swap2\n      pop\n      pop\n        /* \"contracts/studentmanager/SubjectContract.sol\":3264:3471  for (uint256 i = 0; i < _students.length; i++) {\r... */\n      jump(tag_142)\n    tag_143:\n      pop\n        /* \"contracts/studentmanager/SubjectContract.sol\":2983:3478  function addStudentToSubject(address[] calldata _students)\r... */\n      pop\n      pop\n      jump\t// out\n        /* \"contracts/studentmanager/SubjectContract.sol\":426:450  address[] public student */\n    tag_46:\n      0x0a\n      dup2\n      dup2\n      sload\n      dup2\n      lt\n      tag_163\n      jumpi\n      0x00\n      dup1\n      revert\n    tag_163:\n      swap1\n      0x00\n      mstore\n      keccak256(0x00, 0x20)\n      add\n      0x00\n      swap2\n      pop\n      sload\n      swap1\n      0x0100\n      exp\n      swap1\n      div\n      0xffffffffffffffffffffffffffffffffffffffff\n      and\n      dup2\n      jump\t// out\n        /* \"contracts/studentmanager/SubjectContract.sol\":5788:5971  function close() external override onlyOwner {\r... */\n    tag_49:\n        /* \"contracts/studentmanager/SubjectContract.sol\":1036:1041  owner */\n      immutable(\"0x1bd24dd6132ee48d988d9af2a2861e14cfa127f735144972abbc68ba40aae435\")\n        /* \"contracts/studentmanager/SubjectContract.sol\":1022:1041  msg.sender == owner */\n      0xffffffffffffffffffffffffffffffffffffffff\n      and\n        /* \"contracts/studentmanager/SubjectContract.sol\":1022:1032  msg.sender */\n      caller\n        /* \"contracts/studentmanager/SubjectContract.sol\":1022:1041  msg.sender == owner */\n      0xffffffffffffffffffffffffffffffffffffffff\n      and\n      eq\n        /* \"contracts/studentmanager/SubjectContract.sol\":1014:1056  require(msg.sender == owner, \"Only owner\") */\n      tag_166\n      jumpi\n      mload(0x40)\n      0x08c379a000000000000000000000000000000000000000000000000000000000\n      dup2\n      mstore\n      0x04\n      add\n      tag_167\n      swap1\n      tag_168\n      jump\t// in\n    tag_167:\n      mload(0x40)\n      dup1\n      swap2\n      sub\n      swap1\n      revert\n    tag_166:\n        /* \"contracts/studentmanager/SubjectContract.sol\":5853:5865  Status.Close */\n      0x02\n        /* \"contracts/studentmanager/SubjectContract.sol\":5844:5850  status */\n      0x08\n      0x00\n        /* \"contracts/studentmanager/SubjectContract.sol\":5844:5865  status = Status.Close */\n      0x0100\n      exp\n      dup2\n      sload\n      dup2\n      0xff\n      mul\n      not\n      and\n      swap1\n      dup4\n      0x02\n      dup2\n      gt\n      iszero\n      tag_170\n      jumpi\n      tag_171\n      tag_102\n      jump\t// in\n    tag_171:\n    tag_170:\n      mul\n      or\n      swap1\n      sstore\n      pop\n        /* \"contracts/studentmanager/SubjectContract.sol\":5900:5907  subject */\n      0x00\n        /* \"contracts/studentmanager/SubjectContract.sol\":5900:5924  subject.endTimeToConfirm */\n      0x07\n      add\n      sload\n        /* \"contracts/studentmanager/SubjectContract.sol\":5884:5899  block.timestamp */\n      timestamp\n        /* \"contracts/studentmanager/SubjectContract.sol\":5884:5924  block.timestamp>subject.endTimeToConfirm */\n      gt\n        /* \"contracts/studentmanager/SubjectContract.sol\":5876:5925  require(block.timestamp>subject.endTimeToConfirm) */\n      tag_172\n      jumpi\n      0x00\n      dup1\n      revert\n    tag_172:\n        /* \"contracts/studentmanager/SubjectContract.sol\":5941:5963  Close(block.timestamp) */\n      0xbf67515a38ee520223d32c1266d52101c30d936ed1f3e436c8caeb0a43cb06bf\n        /* \"contracts/studentmanager/SubjectContract.sol\":5947:5962  block.timestamp */\n      timestamp\n        /* \"contracts/studentmanager/SubjectContract.sol\":5941:5963  Close(block.timestamp) */\n      mload(0x40)\n      tag_173\n      swap2\n      swap1\n      tag_84\n      jump\t// in\n    tag_173:\n      mload(0x40)\n      dup1\n      swap2\n      sub\n      swap1\n      log1\n        /* \"contracts/studentmanager/SubjectContract.sol\":5788:5971  function close() external override onlyOwner {\r... */\n      jump\t// out\n        /* \"contracts/studentmanager/SubjectContract.sol\":4233:4497  function cancelRegister() external onlyOpen onlyRoleStudent {\r... */\n    tag_51:\n        /* \"contracts/studentmanager/SubjectContract.sol\":925:936  Status.Open */\n      0x01\n        /* \"contracts/studentmanager/SubjectContract.sol\":915:936  status == Status.Open */\n      0x02\n      dup2\n      gt\n      iszero\n      tag_175\n      jumpi\n      tag_176\n      tag_102\n      jump\t// in\n    tag_176:\n    tag_175:\n        /* \"contracts/studentmanager/SubjectContract.sol\":915:921  status */\n      0x08\n      0x00\n      swap1\n      sload\n      swap1\n      0x0100\n      exp\n      swap1\n      div\n      0xff\n      and\n        /* \"contracts/studentmanager/SubjectContract.sol\":915:936  status == Status.Open */\n      0x02\n      dup2\n      gt\n      iszero\n      tag_177\n      jumpi\n      tag_178\n      tag_102\n      jump\t// in\n    tag_178:\n    tag_177:\n      eq\n        /* \"contracts/studentmanager/SubjectContract.sol\":907:954  require(status == Status.Open, \"SC: Only Open\") */\n      tag_179\n      jumpi\n      mload(0x40)\n      0x08c379a000000000000000000000000000000000000000000000000000000000\n      dup2\n      mstore\n      0x04\n      add\n      tag_180\n      swap1\n      tag_107\n      jump\t// in\n    tag_180:\n      mload(0x40)\n      dup1\n      swap2\n      sub\n      swap1\n      revert\n    tag_179:\n        /* \"contracts/studentmanager/SubjectContract.sol\":1335:1349  accessControll */\n      0x09\n      0x00\n      swap1\n      sload\n      swap1\n      0x0100\n      exp\n      swap1\n      div\n      0xffffffffffffffffffffffffffffffffffffffff\n      and\n        /* \"contracts/studentmanager/SubjectContract.sol\":1335:1357  accessControll.hasRole */\n      0xffffffffffffffffffffffffffffffffffffffff\n      and\n      0x91d14854\n        /* \"contracts/studentmanager/SubjectContract.sol\":1358:1378  keccak256(\"STUDENT\") */\n      0xc951d7098b66ba0b8b77265b6e9cf0e187d73125a42bcd0061b09a68be421810\n        /* \"contracts/studentmanager/SubjectContract.sol\":1380:1390  msg.sender */\n      caller\n        /* \"contracts/studentmanager/SubjectContract.sol\":1335:1391  accessControll.hasRole(keccak256(\"STUDENT\"), msg.sender) */\n      mload(0x40)\n      dup4\n      0xffffffff\n      and\n      0xe0\n      shl\n      dup2\n      mstore\n      0x04\n      add\n      tag_182\n      swap3\n      swap2\n      swap1\n      tag_110\n      jump\t// in\n    tag_182:\n      0x20\n      mload(0x40)\n      dup1\n      dup4\n      sub\n      dup2\n      dup7\n      dup1\n      extcodesize\n      iszero\n      dup1\n      iszero\n      tag_183\n      jumpi\n      0x00\n      dup1\n      revert\n    tag_183:\n      pop\n      gas\n      staticcall\n      iszero\n      dup1\n      iszero\n      tag_185\n      jumpi\n      returndatasize\n      0x00\n      dup1\n      returndatacopy\n      revert(0x00, returndatasize)\n    tag_185:\n      pop\n      pop\n      pop\n      pop\n      mload(0x40)\n      returndatasize\n      not(0x1f)\n      0x1f\n      dup3\n      add\n      and\n      dup3\n      add\n      dup1\n      0x40\n      mstore\n      pop\n      dup2\n      add\n      swap1\n      tag_186\n      swap2\n      swap1\n      tag_115\n      jump\t// in\n    tag_186:\n        /* \"contracts/studentmanager/SubjectContract.sol\":1313:1435  require(\r... */\n      tag_187\n      jumpi\n      mload(0x40)\n      0x08c379a000000000000000000000000000000000000000000000000000000000\n      dup2\n      mstore\n      0x04\n      add\n      tag_188\n      swap1\n      tag_118\n      jump\t// in\n    tag_188:\n      mload(0x40)\n      dup1\n      swap2\n      sub\n      swap1\n      revert\n    tag_187:\n        /* \"contracts/studentmanager/SubjectContract.sol\":4304:4328  Student storage instance */\n      0x00\n        /* \"contracts/studentmanager/SubjectContract.sol\":4331:4347  addressToStudent */\n      0x0b\n        /* \"contracts/studentmanager/SubjectContract.sol\":4331:4359  addressToStudent[msg.sender] */\n      0x00\n        /* \"contracts/studentmanager/SubjectContract.sol\":4348:4358  msg.sender */\n      caller\n        /* \"contracts/studentmanager/SubjectContract.sol\":4331:4359  addressToStudent[msg.sender] */\n      0xffffffffffffffffffffffffffffffffffffffff\n      and\n      0xffffffffffffffffffffffffffffffffffffffff\n      and\n      dup2\n      mstore\n      0x20\n      add\n      swap1\n      dup2\n      mstore\n      0x20\n      add\n      0x00\n      keccak256\n        /* \"contracts/studentmanager/SubjectContract.sol\":4304:4359  Student storage instance = addressToStudent[msg.sender] */\n      swap1\n      pop\n        /* \"contracts/studentmanager/SubjectContract.sol\":4378:4386  instance */\n      dup1\n        /* \"contracts/studentmanager/SubjectContract.sol\":4378:4404  instance.participantToTrue */\n      0x00\n      add\n      0x14\n      swap1\n      sload\n      swap1\n      0x0100\n      exp\n      swap1\n      div\n      0xff\n      and\n        /* \"contracts/studentmanager/SubjectContract.sol\":4370:4425  require(instance.participantToTrue, \"SC: cancel error\") */\n      tag_190\n      jumpi\n      mload(0x40)\n      0x08c379a000000000000000000000000000000000000000000000000000000000\n      dup2\n      mstore\n      0x04\n      add\n      tag_191\n      swap1\n      tag_192\n      jump\t// in\n    tag_191:\n      mload(0x40)\n      dup1\n      swap2\n      sub\n      swap1\n      revert\n    tag_190:\n        /* \"contracts/studentmanager/SubjectContract.sol\":4436:4442  amount */\n      0x0c\n      0x00\n        /* \"contracts/studentmanager/SubjectContract.sol\":4436:4444  amount-- */\n      dup2\n      sload\n      dup1\n      swap3\n      swap2\n      swap1\n      tag_193\n      swap1\n      tag_194\n      jump\t// in\n    tag_193:\n      swap2\n      swap1\n      pop\n      sstore\n      pop\n        /* \"contracts/studentmanager/SubjectContract.sol\":4484:4489  false */\n      0x00\n        /* \"contracts/studentmanager/SubjectContract.sol\":4455:4463  instance */\n      dup2\n        /* \"contracts/studentmanager/SubjectContract.sol\":4455:4481  instance.participantToTrue */\n      0x00\n      add\n      0x14\n        /* \"contracts/studentmanager/SubjectContract.sol\":4455:4489  instance.participantToTrue = false */\n      0x0100\n      exp\n      dup2\n      sload\n      dup2\n      0xff\n      mul\n      not\n      and\n      swap1\n      dup4\n      iszero\n      iszero\n      mul\n      or\n      swap1\n      sstore\n      pop\n        /* \"contracts/studentmanager/SubjectContract.sol\":4293:4497  {\r... */\n      pop\n        /* \"contracts/studentmanager/SubjectContract.sol\":4233:4497  function cancelRegister() external onlyOpen onlyRoleStudent {\r... */\n      jump\t// out\n        /* \"contracts/studentmanager/SubjectContract.sol\":5347:5780  function unConfirmCompletedAddress(address _student)\r... */\n    tag_55:\n        /* \"contracts/studentmanager/SubjectContract.sol\":1145:1159  accessControll */\n      0x09\n      0x00\n      swap1\n      sload\n      swap1\n      0x0100\n      exp\n      swap1\n      div\n      0xffffffffffffffffffffffffffffffffffffffff\n      and\n        /* \"contracts/studentmanager/SubjectContract.sol\":1145:1167  accessControll.hasRole */\n      0xffffffffffffffffffffffffffffffffffffffff\n      and\n      0x91d14854\n        /* \"contracts/studentmanager/SubjectContract.sol\":1168:1189  keccak256(\"LECTURER\") */\n      0xb39b9469ac3ddf8d58f06201f7e17350a277b429ed2a39727bf2f3a5165dba1a\n        /* \"contracts/studentmanager/SubjectContract.sol\":1191:1201  msg.sender */\n      caller\n        /* \"contracts/studentmanager/SubjectContract.sol\":1145:1202  accessControll.hasRole(keccak256(\"LECTURER\"), msg.sender) */\n      mload(0x40)\n      dup4\n      0xffffffff\n      and\n      0xe0\n      shl\n      dup2\n      mstore\n      0x04\n      add\n      tag_196\n      swap3\n      swap2\n      swap1\n      tag_110\n      jump\t// in\n    tag_196:\n      0x20\n      mload(0x40)\n      dup1\n      dup4\n      sub\n      dup2\n      dup7\n      dup1\n      extcodesize\n      iszero\n      dup1\n      iszero\n      tag_197\n      jumpi\n      0x00\n      dup1\n      revert\n    tag_197:\n      pop\n      gas\n      staticcall\n      iszero\n      dup1\n      iszero\n      tag_199\n      jumpi\n      returndatasize\n      0x00\n      dup1\n      returndatacopy\n      revert(0x00, returndatasize)\n    tag_199:\n      pop\n      pop\n      pop\n      pop\n      mload(0x40)\n      returndatasize\n      not(0x1f)\n      0x1f\n      dup3\n      add\n      and\n      dup3\n      add\n      dup1\n      0x40\n      mstore\n      pop\n      dup2\n      add\n      swap1\n      tag_200\n      swap2\n      swap1\n      tag_115\n      jump\t// in\n    tag_200:\n        /* \"contracts/studentmanager/SubjectContract.sol\":1123:1247  require(\r... */\n      tag_201\n      jumpi\n      mload(0x40)\n      0x08c379a000000000000000000000000000000000000000000000000000000000\n      dup2\n      mstore\n      0x04\n      add\n      tag_202\n      swap1\n      tag_130\n      jump\t// in\n    tag_202:\n      mload(0x40)\n      dup1\n      swap2\n      sub\n      swap1\n      revert\n    tag_201:\n        /* \"contracts/studentmanager/SubjectContract.sol\":925:936  Status.Open */\n      0x01\n        /* \"contracts/studentmanager/SubjectContract.sol\":915:936  status == Status.Open */\n      0x02\n      dup2\n      gt\n      iszero\n      tag_204\n      jumpi\n      tag_205\n      tag_102\n      jump\t// in\n    tag_205:\n    tag_204:\n        /* \"contracts/studentmanager/SubjectContract.sol\":915:921  status */\n      0x08\n      0x00\n      swap1\n      sload\n      swap1\n      0x0100\n      exp\n      swap1\n      div\n      0xff\n      and\n        /* \"contracts/studentmanager/SubjectContract.sol\":915:936  status == Status.Open */\n      0x02\n      dup2\n      gt\n      iszero\n      tag_206\n      jumpi\n      tag_207\n      tag_102\n      jump\t// in\n    tag_207:\n    tag_206:\n      eq\n        /* \"contracts/studentmanager/SubjectContract.sol\":907:954  require(status == Status.Open, \"SC: Only Open\") */\n      tag_208\n      jumpi\n      mload(0x40)\n      0x08c379a000000000000000000000000000000000000000000000000000000000\n      dup2\n      mstore\n      0x04\n      add\n      tag_209\n      swap1\n      tag_107\n      jump\t// in\n    tag_209:\n      mload(0x40)\n      dup1\n      swap2\n      sub\n      swap1\n      revert\n    tag_208:\n        /* \"contracts/studentmanager/SubjectContract.sol\":5518:5525  subject */\n      0x00\n        /* \"contracts/studentmanager/SubjectContract.sol\":5518:5533  subject.endTime */\n      0x06\n      add\n      sload\n        /* \"contracts/studentmanager/SubjectContract.sol\":5500:5515  block.timestamp */\n      timestamp\n        /* \"contracts/studentmanager/SubjectContract.sol\":5500:5533  block.timestamp > subject.endTime */\n      gt\n        /* \"contracts/studentmanager/SubjectContract.sol\":5500:5596  block.timestamp > subject.endTime &&\r... */\n      dup1\n      iszero\n      tag_211\n      jumpi\n      pop\n        /* \"contracts/studentmanager/SubjectContract.sol\":5572:5579  subject */\n      0x00\n        /* \"contracts/studentmanager/SubjectContract.sol\":5572:5596  subject.endTimeToConfirm */\n      0x07\n      add\n      sload\n        /* \"contracts/studentmanager/SubjectContract.sol\":5554:5569  block.timestamp */\n      timestamp\n        /* \"contracts/studentmanager/SubjectContract.sol\":5554:5596  block.timestamp < subject.endTimeToConfirm */\n      lt\n        /* \"contracts/studentmanager/SubjectContract.sol\":5500:5596  block.timestamp > subject.endTime &&\r... */\n    tag_211:\n        /* \"contracts/studentmanager/SubjectContract.sol\":5478:5607  require(\r... */\n      tag_212\n      jumpi\n      0x00\n      dup1\n      revert\n    tag_212:\n        /* \"contracts/studentmanager/SubjectContract.sol\":5628:5644  completedAddress */\n      0x0d\n        /* \"contracts/studentmanager/SubjectContract.sol\":5628:5654  completedAddress[_student] */\n      0x00\n        /* \"contracts/studentmanager/SubjectContract.sol\":5645:5653  _student */\n      dup3\n        /* \"contracts/studentmanager/SubjectContract.sol\":5628:5654  completedAddress[_student] */\n      0xffffffffffffffffffffffffffffffffffffffff\n      and\n      0xffffffffffffffffffffffffffffffffffffffff\n      and\n      dup2\n      mstore\n      0x20\n      add\n      swap1\n      dup2\n      mstore\n      0x20\n      add\n      0x00\n      keccak256\n      0x00\n      swap1\n      sload\n      swap1\n      0x0100\n      exp\n      swap1\n      div\n      0xff\n      and\n        /* \"contracts/studentmanager/SubjectContract.sol\":5620:5675  require(completedAddress[_student], \"SC: cancel error\") */\n      tag_213\n      jumpi\n      mload(0x40)\n      0x08c379a000000000000000000000000000000000000000000000000000000000\n      dup2\n      mstore\n      0x04\n      add\n      tag_214\n      swap1\n      tag_192\n      jump\t// in\n    tag_214:\n      mload(0x40)\n      dup1\n      swap2\n      sub\n      swap1\n      revert\n    tag_213:\n        /* \"contracts/studentmanager/SubjectContract.sol\":5715:5720  false */\n      0x00\n        /* \"contracts/studentmanager/SubjectContract.sol\":5686:5702  completedAddress */\n      0x0d\n        /* \"contracts/studentmanager/SubjectContract.sol\":5686:5712  completedAddress[_student] */\n      0x00\n        /* \"contracts/studentmanager/SubjectContract.sol\":5703:5711  _student */\n      dup4\n        /* \"contracts/studentmanager/SubjectContract.sol\":5686:5712  completedAddress[_student] */\n      0xffffffffffffffffffffffffffffffffffffffff\n      and\n      0xffffffffffffffffffffffffffffffffffffffff\n      and\n      dup2\n      mstore\n      0x20\n      add\n      swap1\n      dup2\n      mstore\n      0x20\n      add\n      0x00\n      keccak256\n      0x00\n        /* \"contracts/studentmanager/SubjectContract.sol\":5686:5720  completedAddress[_student] = false */\n      0x0100\n      exp\n      dup2\n      sload\n      dup2\n      0xff\n      mul\n      not\n      and\n      swap1\n      dup4\n      iszero\n      iszero\n      mul\n      or\n      swap1\n      sstore\n      pop\n        /* \"contracts/studentmanager/SubjectContract.sol\":5736:5772  UnConfirm(_student, block.timestamp) */\n      0xfe786ec358465053564cb2b843230fd06c070174c46fbc3786d85d894ff39210\n        /* \"contracts/studentmanager/SubjectContract.sol\":5746:5754  _student */\n      dup2\n        /* \"contracts/studentmanager/SubjectContract.sol\":5756:5771  block.timestamp */\n      timestamp\n        /* \"contracts/studentmanager/SubjectContract.sol\":5736:5772  UnConfirm(_student, block.timestamp) */\n      mload(0x40)\n      tag_215\n      swap3\n      swap2\n      swap1\n      tag_216\n      jump\t// in\n    tag_215:\n      mload(0x40)\n      dup1\n      swap2\n      sub\n      swap1\n      log1\n        /* \"contracts/studentmanager/SubjectContract.sol\":5347:5780  function unConfirmCompletedAddress(address _student)\r... */\n      pop\n      jump\t// out\n        /* \"contracts/studentmanager/SubjectContract.sol\":242:272  address public immutable owner */\n    tag_57:\n      immutable(\"0x1bd24dd6132ee48d988d9af2a2861e14cfa127f735144972abbc68ba40aae435\")\n      dup2\n      jump\t// out\n        /* \"contracts/studentmanager/SubjectContract.sol\":457:508  mapping(address => Student) public addressToStudent */\n    tag_61:\n      mstore(0x20, 0x0b)\n      dup1\n      0x00\n      mstore\n      keccak256(0x00, 0x40)\n      0x00\n      swap2\n      pop\n      swap1\n      pop\n      dup1\n      0x00\n      add\n      0x00\n      swap1\n      sload\n      swap1\n      0x0100\n      exp\n      swap1\n      div\n      0xffffffffffffffffffffffffffffffffffffffff\n      and\n      swap1\n      dup1\n      0x00\n      add\n      0x14\n      swap1\n      sload\n      swap1\n      0x0100\n      exp\n      swap1\n      div\n      0xff\n      and\n      swap1\n      pop\n      dup3\n      jump\t// out\n        /* \"contracts/studentmanager/SubjectContract.sol\":610:658  mapping(address => bool) public completedAddress */\n    tag_66:\n      mstore(0x20, 0x0d)\n      dup1\n      0x00\n      mstore\n      keccak256(0x00, 0x40)\n      0x00\n      swap2\n      pop\n      sload\n      swap1\n      0x0100\n      exp\n      swap1\n      div\n      0xff\n      and\n      dup2\n      jump\t// out\n        /* \"contracts/studentmanager/SubjectContract.sol\":1616:2478  function setBasicForSubject(\r... */\n    tag_72:\n        /* \"contracts/studentmanager/SubjectContract.sol\":1036:1041  owner */\n      immutable(\"0x1bd24dd6132ee48d988d9af2a2861e14cfa127f735144972abbc68ba40aae435\")\n        /* \"contracts/studentmanager/SubjectContract.sol\":1022:1041  msg.sender == owner */\n      0xffffffffffffffffffffffffffffffffffffffff\n      and\n        /* \"contracts/studentmanager/SubjectContract.sol\":1022:1032  msg.sender */\n      caller\n        /* \"contracts/studentmanager/SubjectContract.sol\":1022:1041  msg.sender == owner */\n      0xffffffffffffffffffffffffffffffffffffffff\n      and\n      eq\n        /* \"contracts/studentmanager/SubjectContract.sol\":1014:1056  require(msg.sender == owner, \"Only owner\") */\n      tag_218\n      jumpi\n      mload(0x40)\n      0x08c379a000000000000000000000000000000000000000000000000000000000\n      dup2\n      mstore\n      0x04\n      add\n      tag_219\n      swap1\n      tag_168\n      jump\t// in\n    tag_219:\n      mload(0x40)\n      dup1\n      swap2\n      sub\n      swap1\n      revert\n    tag_218:\n        /* \"contracts/studentmanager/SubjectContract.sol\":819:830  Status.Lock */\n      0x00\n        /* \"contracts/studentmanager/SubjectContract.sol\":809:830  status == Status.Lock */\n      0x02\n      dup2\n      gt\n      iszero\n      tag_221\n      jumpi\n      tag_222\n      tag_102\n      jump\t// in\n    tag_222:\n    tag_221:\n        /* \"contracts/studentmanager/SubjectContract.sol\":809:815  status */\n      0x08\n      0x00\n      swap1\n      sload\n      swap1\n      0x0100\n      exp\n      swap1\n      div\n      0xff\n      and\n        /* \"contracts/studentmanager/SubjectContract.sol\":809:830  status == Status.Lock */\n      0x02\n      dup2\n      gt\n      iszero\n      tag_223\n      jumpi\n      tag_224\n      tag_102\n      jump\t// in\n    tag_224:\n    tag_223:\n      eq\n        /* \"contracts/studentmanager/SubjectContract.sol\":801:848  require(status == Status.Lock, \"SC: Only Lock\") */\n      tag_225\n      jumpi\n      mload(0x40)\n      0x08c379a000000000000000000000000000000000000000000000000000000000\n      dup2\n      mstore\n      0x04\n      add\n      tag_226\n      swap1\n      tag_227\n      jump\t// in\n    tag_226:\n      mload(0x40)\n      dup1\n      swap2\n      sub\n      swap1\n      revert\n    tag_225:\n        /* \"contracts/studentmanager/SubjectContract.sol\":1999:2009  _startTime */\n      dup4\n        /* \"contracts/studentmanager/SubjectContract.sol\":1981:1996  block.timestamp */\n      timestamp\n        /* \"contracts/studentmanager/SubjectContract.sol\":1981:2009  block.timestamp < _startTime */\n      lt\n        /* \"contracts/studentmanager/SubjectContract.sol\":1981:2061  block.timestamp < _startTime &&\r... */\n      dup1\n      iszero\n      tag_229\n      jumpi\n      pop\n        /* \"contracts/studentmanager/SubjectContract.sol\":2043:2061  _endTimeToRegister */\n      dup3\n        /* \"contracts/studentmanager/SubjectContract.sol\":2030:2040  _startTime */\n      dup5\n        /* \"contracts/studentmanager/SubjectContract.sol\":2030:2061  _startTime < _endTimeToRegister */\n      lt\n        /* \"contracts/studentmanager/SubjectContract.sol\":1981:2061  block.timestamp < _startTime &&\r... */\n    tag_229:\n        /* \"contracts/studentmanager/SubjectContract.sol\":1981:2111  block.timestamp < _startTime &&\r... */\n      dup1\n      iszero\n      tag_230\n      jumpi\n      pop\n        /* \"contracts/studentmanager/SubjectContract.sol\":2103:2111  _endTime */\n      dup2\n        /* \"contracts/studentmanager/SubjectContract.sol\":2082:2100  _endTimeToRegister */\n      dup4\n        /* \"contracts/studentmanager/SubjectContract.sol\":2082:2111  _endTimeToRegister < _endTime */\n      lt\n        /* \"contracts/studentmanager/SubjectContract.sol\":1981:2111  block.timestamp < _startTime &&\r... */\n    tag_230:\n        /* \"contracts/studentmanager/SubjectContract.sol\":1981:2160  block.timestamp < _startTime &&\r... */\n      dup1\n      iszero\n      tag_231\n      jumpi\n      pop\n        /* \"contracts/studentmanager/SubjectContract.sol\":2143:2160  _endTimeToConfirm */\n      dup1\n        /* \"contracts/studentmanager/SubjectContract.sol\":2132:2140  _endTime */\n      dup3\n        /* \"contracts/studentmanager/SubjectContract.sol\":2132:2160  _endTime < _endTimeToConfirm */\n      lt\n        /* \"contracts/studentmanager/SubjectContract.sol\":1981:2160  block.timestamp < _startTime &&\r... */\n    tag_231:\n        /* \"contracts/studentmanager/SubjectContract.sol\":1959:2207  require(\r... */\n      tag_232\n      jumpi\n      mload(0x40)\n      0x08c379a000000000000000000000000000000000000000000000000000000000\n      dup2\n      mstore\n      0x04\n      add\n      tag_233\n      swap1\n      tag_234\n      jump\t// in\n    tag_233:\n      mload(0x40)\n      dup1\n      swap2\n      sub\n      swap1\n      revert\n    tag_232:\n        /* \"contracts/studentmanager/SubjectContract.sol\":2230:2470  Subject(\r... */\n      mload(0x40)\n      dup1\n      0x0100\n      add\n      0x40\n      mstore\n      dup1\n        /* \"contracts/studentmanager/SubjectContract.sol\":2252:2262  _subjectId */\n      dup10\n        /* \"contracts/studentmanager/SubjectContract.sol\":2230:2470  Subject(\r... */\n      dup2\n      mstore\n      0x20\n      add\n        /* \"contracts/studentmanager/SubjectContract.sol\":2277:2289  _urlMetadata */\n      dup9\n        /* \"contracts/studentmanager/SubjectContract.sol\":2230:2470  Subject(\r... */\n      dup2\n      mstore\n      0x20\n      add\n        /* \"contracts/studentmanager/SubjectContract.sol\":2304:2315  _maxEntrant */\n      dup8\n        /* \"contracts/studentmanager/SubjectContract.sol\":2230:2470  Subject(\r... */\n      dup2\n      mstore\n      0x20\n      add\n        /* \"contracts/studentmanager/SubjectContract.sol\":2330:2346  _persionInCharge */\n      dup7\n        /* \"contracts/studentmanager/SubjectContract.sol\":2230:2470  Subject(\r... */\n      0xffffffffffffffffffffffffffffffffffffffff\n      and\n      dup2\n      mstore\n      0x20\n      add\n        /* \"contracts/studentmanager/SubjectContract.sol\":2361:2371  _startTime */\n      dup6\n        /* \"contracts/studentmanager/SubjectContract.sol\":2230:2470  Subject(\r... */\n      dup2\n      mstore\n      0x20\n      add\n        /* \"contracts/studentmanager/SubjectContract.sol\":2386:2404  _endTimeToRegister */\n      dup5\n        /* \"contracts/studentmanager/SubjectContract.sol\":2230:2470  Subject(\r... */\n      dup2\n      mstore\n      0x20\n      add\n        /* \"contracts/studentmanager/SubjectContract.sol\":2419:2427  _endTime */\n      dup4\n        /* \"contracts/studentmanager/SubjectContract.sol\":2230:2470  Subject(\r... */\n      dup2\n      mstore\n      0x20\n      add\n        /* \"contracts/studentmanager/SubjectContract.sol\":2442:2459  _endTimeToConfirm */\n      dup3\n        /* \"contracts/studentmanager/SubjectContract.sol\":2230:2470  Subject(\r... */\n      dup2\n      mstore\n      pop\n        /* \"contracts/studentmanager/SubjectContract.sol\":2220:2227  subject */\n      0x00\n        /* \"contracts/studentmanager/SubjectContract.sol\":2220:2470  subject = Subject(\r... */\n      dup1\n      dup3\n      add\n      mload\n      dup2\n      0x00\n      add\n      sstore\n      0x20\n      dup3\n      add\n      mload\n      dup2\n      0x01\n      add\n      swap1\n      dup1\n      mload\n      swap1\n      0x20\n      add\n      swap1\n      tag_235\n      swap3\n      swap2\n      swap1\n      tag_236\n      jump\t// in\n    tag_235:\n      pop\n      0x40\n      dup3\n      add\n      mload\n      dup2\n      0x02\n      add\n      sstore\n      0x60\n      dup3\n      add\n      mload\n      dup2\n      0x03\n      add\n      exp(0x0100, 0x00)\n      dup2\n      sload\n      dup2\n      0xffffffffffffffffffffffffffffffffffffffff\n      mul\n      not\n      and\n      swap1\n      dup4\n      0xffffffffffffffffffffffffffffffffffffffff\n      and\n      mul\n      or\n      swap1\n      sstore\n      pop\n      0x80\n      dup3\n      add\n      mload\n      dup2\n      0x04\n      add\n      sstore\n      0xa0\n      dup3\n      add\n      mload\n      dup2\n      0x05\n      add\n      sstore\n      0xc0\n      dup3\n      add\n      mload\n      dup2\n      0x06\n      add\n      sstore\n      0xe0\n      dup3\n      add\n      mload\n      dup2\n      0x07\n      add\n      sstore\n      swap1\n      pop\n      pop\n        /* \"contracts/studentmanager/SubjectContract.sol\":1616:2478  function setBasicForSubject(\r... */\n      pop\n      pop\n      pop\n      pop\n      pop\n      pop\n      pop\n      pop\n      jump\t// out\n        /* \"contracts/studentmanager/SubjectContract.sol\":6489:6947  function getParticipantListCompleted()\r... */\n    tag_74:\n        /* \"contracts/studentmanager/SubjectContract.sol\":6576:6592  address[] memory */\n      0x60\n        /* \"contracts/studentmanager/SubjectContract.sol\":6610:6635  address[] memory _student */\n      0x00\n        /* \"contracts/studentmanager/SubjectContract.sol\":6652:6658  amount */\n      sload(0x0c)\n        /* \"contracts/studentmanager/SubjectContract.sol\":6638:6659  new address[](amount) */\n      0xffffffffffffffff\n      dup2\n      gt\n      iszero\n      tag_238\n      jumpi\n      tag_239\n      tag_240\n      jump\t// in\n    tag_239:\n    tag_238:\n      mload(0x40)\n      swap1\n      dup1\n      dup3\n      mstore\n      dup1\n      0x20\n      mul\n      0x20\n      add\n      dup3\n      add\n      0x40\n      mstore\n      dup1\n      iszero\n      tag_241\n      jumpi\n      dup2\n      0x20\n      add\n      0x20\n      dup3\n      mul\n      dup1\n      calldatasize\n      dup4\n      calldatacopy\n      dup1\n      dup3\n      add\n      swap2\n      pop\n      pop\n      swap1\n      pop\n    tag_241:\n      pop\n        /* \"contracts/studentmanager/SubjectContract.sol\":6610:6659  address[] memory _student = new address[](amount) */\n      swap1\n      pop\n        /* \"contracts/studentmanager/SubjectContract.sol\":6670:6683  uint256 index */\n      0x00\n        /* \"contracts/studentmanager/SubjectContract.sol\":6699:6708  uint256 i */\n      dup1\n        /* \"contracts/studentmanager/SubjectContract.sol\":6711:6712  0 */\n      0x00\n        /* \"contracts/studentmanager/SubjectContract.sol\":6699:6712  uint256 i = 0 */\n      swap1\n      pop\n        /* \"contracts/studentmanager/SubjectContract.sol\":6694:6914  for (uint256 i = 0; i < student.length; i++) {\r... */\n    tag_242:\n        /* \"contracts/studentmanager/SubjectContract.sol\":6718:6725  student */\n      0x0a\n        /* \"contracts/studentmanager/SubjectContract.sol\":6718:6732  student.length */\n      dup1\n      sload\n      swap1\n      pop\n        /* \"contracts/studentmanager/SubjectContract.sol\":6714:6715  i */\n      dup2\n        /* \"contracts/studentmanager/SubjectContract.sol\":6714:6732  i < student.length */\n      lt\n        /* \"contracts/studentmanager/SubjectContract.sol\":6694:6914  for (uint256 i = 0; i < student.length; i++) {\r... */\n      iszero\n      tag_243\n      jumpi\n        /* \"contracts/studentmanager/SubjectContract.sol\":6758:6774  completedAddress */\n      0x0d\n        /* \"contracts/studentmanager/SubjectContract.sol\":6758:6786  completedAddress[student[i]] */\n      0x00\n        /* \"contracts/studentmanager/SubjectContract.sol\":6775:6782  student */\n      0x0a\n        /* \"contracts/studentmanager/SubjectContract.sol\":6783:6784  i */\n      dup4\n        /* \"contracts/studentmanager/SubjectContract.sol\":6775:6785  student[i] */\n      dup2\n      sload\n      dup2\n      lt\n      tag_245\n      jumpi\n      tag_246\n      tag_147\n      jump\t// in\n    tag_246:\n    tag_245:\n      swap1\n      0x00\n      mstore\n      keccak256(0x00, 0x20)\n      add\n      0x00\n      swap1\n      sload\n      swap1\n      0x0100\n      exp\n      swap1\n      div\n      0xffffffffffffffffffffffffffffffffffffffff\n      and\n        /* \"contracts/studentmanager/SubjectContract.sol\":6758:6786  completedAddress[student[i]] */\n      0xffffffffffffffffffffffffffffffffffffffff\n      and\n      0xffffffffffffffffffffffffffffffffffffffff\n      and\n      dup2\n      mstore\n      0x20\n      add\n      swap1\n      dup2\n      mstore\n      0x20\n      add\n      0x00\n      keccak256\n      0x00\n      swap1\n      sload\n      swap1\n      0x0100\n      exp\n      swap1\n      div\n      0xff\n      and\n        /* \"contracts/studentmanager/SubjectContract.sol\":6758:6812  completedAddress[student[i]] && student[i]!=address(0) */\n      dup1\n      iszero\n      tag_248\n      jumpi\n      pop\n        /* \"contracts/studentmanager/SubjectContract.sol\":6810:6811  0 */\n      0x00\n        /* \"contracts/studentmanager/SubjectContract.sol\":6790:6812  student[i]!=address(0) */\n      0xffffffffffffffffffffffffffffffffffffffff\n      and\n        /* \"contracts/studentmanager/SubjectContract.sol\":6790:6797  student */\n      0x0a\n        /* \"contracts/studentmanager/SubjectContract.sol\":6798:6799  i */\n      dup3\n        /* \"contracts/studentmanager/SubjectContract.sol\":6790:6800  student[i] */\n      dup2\n      sload\n      dup2\n      lt\n      tag_249\n      jumpi\n      tag_250\n      tag_147\n      jump\t// in\n    tag_250:\n    tag_249:\n      swap1\n      0x00\n      mstore\n      keccak256(0x00, 0x20)\n      add\n      0x00\n      swap1\n      sload\n      swap1\n      0x0100\n      exp\n      swap1\n      div\n      0xffffffffffffffffffffffffffffffffffffffff\n      and\n        /* \"contracts/studentmanager/SubjectContract.sol\":6790:6812  student[i]!=address(0) */\n      0xffffffffffffffffffffffffffffffffffffffff\n      and\n      eq\n      iszero\n        /* \"contracts/studentmanager/SubjectContract.sol\":6758:6812  completedAddress[student[i]] && student[i]!=address(0) */\n    tag_248:\n        /* \"contracts/studentmanager/SubjectContract.sol\":6754:6903  if (completedAddress[student[i]] && student[i]!=address(0)) {\r... */\n      iszero\n      tag_252\n      jumpi\n        /* \"contracts/studentmanager/SubjectContract.sol\":6851:6858  student */\n      0x0a\n        /* \"contracts/studentmanager/SubjectContract.sol\":6859:6860  i */\n      dup2\n        /* \"contracts/studentmanager/SubjectContract.sol\":6851:6861  student[i] */\n      dup2\n      sload\n      dup2\n      lt\n      tag_253\n      jumpi\n      tag_254\n      tag_147\n      jump\t// in\n    tag_254:\n    tag_253:\n      swap1\n      0x00\n      mstore\n      keccak256(0x00, 0x20)\n      add\n      0x00\n      swap1\n      sload\n      swap1\n      0x0100\n      exp\n      swap1\n      div\n      0xffffffffffffffffffffffffffffffffffffffff\n      and\n        /* \"contracts/studentmanager/SubjectContract.sol\":6833:6841  _student */\n      dup4\n        /* \"contracts/studentmanager/SubjectContract.sol\":6842:6847  index */\n      dup4\n        /* \"contracts/studentmanager/SubjectContract.sol\":6833:6848  _student[index] */\n      dup2\n      mload\n      dup2\n      lt\n      tag_256\n      jumpi\n      tag_257\n      tag_147\n      jump\t// in\n    tag_257:\n    tag_256:\n      0x20\n      mul\n      0x20\n      add\n      add\n        /* \"contracts/studentmanager/SubjectContract.sol\":6833:6861  _student[index] = student[i] */\n      swap1\n      0xffffffffffffffffffffffffffffffffffffffff\n      and\n      swap1\n      dup2\n      0xffffffffffffffffffffffffffffffffffffffff\n      and\n      dup2\n      mstore\n      pop\n      pop\n        /* \"contracts/studentmanager/SubjectContract.sol\":6880:6887  index++ */\n      dup2\n      dup1\n      tag_258\n      swap1\n      tag_162\n      jump\t// in\n    tag_258:\n      swap3\n      pop\n      pop\n        /* \"contracts/studentmanager/SubjectContract.sol\":6754:6903  if (completedAddress[student[i]] && student[i]!=address(0)) {\r... */\n    tag_252:\n        /* \"contracts/studentmanager/SubjectContract.sol\":6734:6737  i++ */\n      dup1\n      dup1\n      tag_259\n      swap1\n      tag_162\n      jump\t// in\n    tag_259:\n      swap2\n      pop\n      pop\n        /* \"contracts/studentmanager/SubjectContract.sol\":6694:6914  for (uint256 i = 0; i < student.length; i++) {\r... */\n      jump(tag_242)\n    tag_243:\n      pop\n        /* \"contracts/studentmanager/SubjectContract.sol\":6931:6939  _student */\n      dup2\n        /* \"contracts/studentmanager/SubjectContract.sol\":6924:6939  return _student */\n      swap3\n      pop\n      pop\n      pop\n        /* \"contracts/studentmanager/SubjectContract.sol\":6489:6947  function getParticipantListCompleted()\r... */\n      swap1\n      jump\t// out\n        /* \"contracts/studentmanager/SubjectContract.sol\":381:417  IAccessControl public accessControll */\n    tag_78:\n      0x09\n      0x00\n      swap1\n      sload\n      swap1\n      0x0100\n      exp\n      swap1\n      div\n      0xffffffffffffffffffffffffffffffffffffffff\n      and\n      dup2\n      jump\t// out\n        /* \"contracts/studentmanager/SubjectContract.sol\":582:603  uint256 public amount */\n    tag_82:\n      sload(0x0c)\n      dup2\n      jump\t// out\n        /* \"contracts/studentmanager/SubjectContract.sol\":2891:2975  function start() external override onlyOwner {\r... */\n    tag_86:\n        /* \"contracts/studentmanager/SubjectContract.sol\":1036:1041  owner */\n      immutable(\"0x1bd24dd6132ee48d988d9af2a2861e14cfa127f735144972abbc68ba40aae435\")\n        /* \"contracts/studentmanager/SubjectContract.sol\":1022:1041  msg.sender == owner */\n      0xffffffffffffffffffffffffffffffffffffffff\n      and\n        /* \"contracts/studentmanager/SubjectContract.sol\":1022:1032  msg.sender */\n      caller\n        /* \"contracts/studentmanager/SubjectContract.sol\":1022:1041  msg.sender == owner */\n      0xffffffffffffffffffffffffffffffffffffffff\n      and\n      eq\n        /* \"contracts/studentmanager/SubjectContract.sol\":1014:1056  require(msg.sender == owner, \"Only owner\") */\n      tag_261\n      jumpi\n      mload(0x40)\n      0x08c379a000000000000000000000000000000000000000000000000000000000\n      dup2\n      mstore\n      0x04\n      add\n      tag_262\n      swap1\n      tag_168\n      jump\t// in\n    tag_262:\n      mload(0x40)\n      dup1\n      swap2\n      sub\n      swap1\n      revert\n    tag_261:\n        /* \"contracts/studentmanager/SubjectContract.sol\":2956:2967  Status.Open */\n      0x01\n        /* \"contracts/studentmanager/SubjectContract.sol\":2947:2953  status */\n      0x08\n      0x00\n        /* \"contracts/studentmanager/SubjectContract.sol\":2947:2967  status = Status.Open */\n      0x0100\n      exp\n      dup2\n      sload\n      dup2\n      0xff\n      mul\n      not\n      and\n      swap1\n      dup4\n      0x02\n      dup2\n      gt\n      iszero\n      tag_264\n      jumpi\n      tag_265\n      tag_102\n      jump\t// in\n    tag_265:\n    tag_264:\n      mul\n      or\n      swap1\n      sstore\n      pop\n        /* \"contracts/studentmanager/SubjectContract.sol\":2891:2975  function start() external override onlyOwner {\r... */\n      jump\t// out\n        /* \"contracts/studentmanager/SubjectContract.sol\":4505:5339  function confirmCompletedAddress(\r... */\n    tag_89:\n        /* \"contracts/studentmanager/SubjectContract.sol\":925:936  Status.Open */\n      0x01\n        /* \"contracts/studentmanager/SubjectContract.sol\":915:936  status == Status.Open */\n      0x02\n      dup2\n      gt\n      iszero\n      tag_267\n      jumpi\n      tag_268\n      tag_102\n      jump\t// in\n    tag_268:\n    tag_267:\n        /* \"contracts/studentmanager/SubjectContract.sol\":915:921  status */\n      0x08\n      0x00\n      swap1\n      sload\n      swap1\n      0x0100\n      exp\n      swap1\n      div\n      0xff\n      and\n        /* \"contracts/studentmanager/SubjectContract.sol\":915:936  status == Status.Open */\n      0x02\n      dup2\n      gt\n      iszero\n      tag_269\n      jumpi\n      tag_270\n      tag_102\n      jump\t// in\n    tag_270:\n    tag_269:\n      eq\n        /* \"contracts/studentmanager/SubjectContract.sol\":907:954  require(status == Status.Open, \"SC: Only Open\") */\n      tag_271\n      jumpi\n      mload(0x40)\n      0x08c379a000000000000000000000000000000000000000000000000000000000\n      dup2\n      mstore\n      0x04\n      add\n      tag_272\n      swap1\n      tag_107\n      jump\t// in\n    tag_272:\n      mload(0x40)\n      dup1\n      swap2\n      sub\n      swap1\n      revert\n    tag_271:\n        /* \"contracts/studentmanager/SubjectContract.sol\":1145:1159  accessControll */\n      0x09\n      0x00\n      swap1\n      sload\n      swap1\n      0x0100\n      exp\n      swap1\n      div\n      0xffffffffffffffffffffffffffffffffffffffff\n      and\n        /* \"contracts/studentmanager/SubjectContract.sol\":1145:1167  accessControll.hasRole */\n      0xffffffffffffffffffffffffffffffffffffffff\n      and\n      0x91d14854\n        /* \"contracts/studentmanager/SubjectContract.sol\":1168:1189  keccak256(\"LECTURER\") */\n      0xb39b9469ac3ddf8d58f06201f7e17350a277b429ed2a39727bf2f3a5165dba1a\n        /* \"contracts/studentmanager/SubjectContract.sol\":1191:1201  msg.sender */\n      caller\n        /* \"contracts/studentmanager/SubjectContract.sol\":1145:1202  accessControll.hasRole(keccak256(\"LECTURER\"), msg.sender) */\n      mload(0x40)\n      dup4\n      0xffffffff\n      and\n      0xe0\n      shl\n      dup2\n      mstore\n      0x04\n      add\n      tag_274\n      swap3\n      swap2\n      swap1\n      tag_110\n      jump\t// in\n    tag_274:\n      0x20\n      mload(0x40)\n      dup1\n      dup4\n      sub\n      dup2\n      dup7\n      dup1\n      extcodesize\n      iszero\n      dup1\n      iszero\n      tag_275\n      jumpi\n      0x00\n      dup1\n      revert\n    tag_275:\n      pop\n      gas\n      staticcall\n      iszero\n      dup1\n      iszero\n      tag_277\n      jumpi\n      returndatasize\n      0x00\n      dup1\n      returndatacopy\n      revert(0x00, returndatasize)\n    tag_277:\n      pop\n      pop\n      pop\n      pop\n      mload(0x40)\n      returndatasize\n      not(0x1f)\n      0x1f\n      dup3\n      add\n      and\n      dup3\n      add\n      dup1\n      0x40\n      mstore\n      pop\n      dup2\n      add\n      swap1\n      tag_278\n      swap2\n      swap1\n      tag_115\n      jump\t// in\n    tag_278:\n        /* \"contracts/studentmanager/SubjectContract.sol\":1123:1247  require(\r... */\n      tag_279\n      jumpi\n      mload(0x40)\n      0x08c379a000000000000000000000000000000000000000000000000000000000\n      dup2\n      mstore\n      0x04\n      add\n      tag_280\n      swap1\n      tag_130\n      jump\t// in\n    tag_280:\n      mload(0x40)\n      dup1\n      swap2\n      sub\n      swap1\n      revert\n    tag_279:\n        /* \"contracts/studentmanager/SubjectContract.sol\":4730:4737  subject */\n      0x00\n        /* \"contracts/studentmanager/SubjectContract.sol\":4730:4745  subject.endTime */\n      0x06\n      add\n      sload\n        /* \"contracts/studentmanager/SubjectContract.sol\":4712:4727  block.timestamp */\n      timestamp\n        /* \"contracts/studentmanager/SubjectContract.sol\":4712:4745  block.timestamp > subject.endTime */\n      gt\n        /* \"contracts/studentmanager/SubjectContract.sol\":4712:4808  block.timestamp > subject.endTime &&\r... */\n      dup1\n      iszero\n      tag_282\n      jumpi\n      pop\n        /* \"contracts/studentmanager/SubjectContract.sol\":4784:4791  subject */\n      0x00\n        /* \"contracts/studentmanager/SubjectContract.sol\":4784:4808  subject.endTimeToConfirm */\n      0x07\n      add\n      sload\n        /* \"contracts/studentmanager/SubjectContract.sol\":4766:4781  block.timestamp */\n      timestamp\n        /* \"contracts/studentmanager/SubjectContract.sol\":4766:4808  block.timestamp < subject.endTimeToConfirm */\n      lt\n        /* \"contracts/studentmanager/SubjectContract.sol\":4712:4808  block.timestamp > subject.endTime &&\r... */\n    tag_282:\n        /* \"contracts/studentmanager/SubjectContract.sol\":4690:4819  require(\r... */\n      tag_283\n      jumpi\n      0x00\n      dup1\n      revert\n    tag_283:\n        /* \"contracts/studentmanager/SubjectContract.sol\":4890:4899  uint256 i */\n      0x00\n        /* \"contracts/studentmanager/SubjectContract.sol\":4885:5275  for (uint256 i = 0; i < _student.length; i++) {\r... */\n    tag_284:\n        /* \"contracts/studentmanager/SubjectContract.sol\":4909:4917  _student */\n      dup3\n      dup3\n        /* \"contracts/studentmanager/SubjectContract.sol\":4909:4924  _student.length */\n      swap1\n      pop\n        /* \"contracts/studentmanager/SubjectContract.sol\":4905:4906  i */\n      dup2\n        /* \"contracts/studentmanager/SubjectContract.sol\":4905:4924  i < _student.length */\n      lt\n        /* \"contracts/studentmanager/SubjectContract.sol\":4885:5275  for (uint256 i = 0; i < _student.length; i++) {\r... */\n      iszero\n      tag_285\n      jumpi\n        /* \"contracts/studentmanager/SubjectContract.sol\":4946:4969  Student memory instance */\n      0x00\n        /* \"contracts/studentmanager/SubjectContract.sol\":4972:4988  addressToStudent */\n      0x0b\n        /* \"contracts/studentmanager/SubjectContract.sol\":4972:5001  addressToStudent[_student[i]] */\n      0x00\n        /* \"contracts/studentmanager/SubjectContract.sol\":4989:4997  _student */\n      dup6\n      dup6\n        /* \"contracts/studentmanager/SubjectContract.sol\":4998:4999  i */\n      dup6\n        /* \"contracts/studentmanager/SubjectContract.sol\":4989:5000  _student[i] */\n      dup2\n      dup2\n      lt\n      tag_287\n      jumpi\n      tag_288\n      tag_147\n      jump\t// in\n    tag_288:\n    tag_287:\n      swap1\n      pop\n      0x20\n      mul\n      add\n      0x20\n      dup2\n      add\n      swap1\n      tag_289\n      swap2\n      swap1\n      tag_54\n      jump\t// in\n    tag_289:\n        /* \"contracts/studentmanager/SubjectContract.sol\":4972:5001  addressToStudent[_student[i]] */\n      0xffffffffffffffffffffffffffffffffffffffff\n      and\n      0xffffffffffffffffffffffffffffffffffffffff\n      and\n      dup2\n      mstore\n      0x20\n      add\n      swap1\n      dup2\n      mstore\n      0x20\n      add\n      0x00\n      keccak256\n        /* \"contracts/studentmanager/SubjectContract.sol\":4946:5001  Student memory instance = addressToStudent[_student[i]] */\n      mload(0x40)\n      dup1\n      0x40\n      add\n      0x40\n      mstore\n      swap1\n      dup2\n      0x00\n      dup3\n      add\n      0x00\n      swap1\n      sload\n      swap1\n      0x0100\n      exp\n      swap1\n      div\n      0xffffffffffffffffffffffffffffffffffffffff\n      and\n      0xffffffffffffffffffffffffffffffffffffffff\n      and\n      0xffffffffffffffffffffffffffffffffffffffff\n      and\n      dup2\n      mstore\n      0x20\n      add\n      0x00\n      dup3\n      add\n      0x14\n      swap1\n      sload\n      swap1\n      0x0100\n      exp\n      swap1\n      div\n      0xff\n      and\n      iszero\n      iszero\n      iszero\n      iszero\n      dup2\n      mstore\n      pop\n      pop\n      swap1\n      pop\n        /* \"contracts/studentmanager/SubjectContract.sol\":5024:5032  instance */\n      dup1\n        /* \"contracts/studentmanager/SubjectContract.sol\":5024:5050  instance.participantToTrue */\n      0x20\n      add\n      mload\n        /* \"contracts/studentmanager/SubjectContract.sol\":5024:5092  instance.participantToTrue && instance.studentAddress == _student[i] */\n      dup1\n      iszero\n      tag_290\n      jumpi\n      pop\n        /* \"contracts/studentmanager/SubjectContract.sol\":5081:5089  _student */\n      dup4\n      dup4\n        /* \"contracts/studentmanager/SubjectContract.sol\":5090:5091  i */\n      dup4\n        /* \"contracts/studentmanager/SubjectContract.sol\":5081:5092  _student[i] */\n      dup2\n      dup2\n      lt\n      tag_291\n      jumpi\n      tag_292\n      tag_147\n      jump\t// in\n    tag_292:\n    tag_291:\n      swap1\n      pop\n      0x20\n      mul\n      add\n      0x20\n      dup2\n      add\n      swap1\n      tag_293\n      swap2\n      swap1\n      tag_54\n      jump\t// in\n    tag_293:\n        /* \"contracts/studentmanager/SubjectContract.sol\":5054:5092  instance.studentAddress == _student[i] */\n      0xffffffffffffffffffffffffffffffffffffffff\n      and\n        /* \"contracts/studentmanager/SubjectContract.sol\":5054:5062  instance */\n      dup2\n        /* \"contracts/studentmanager/SubjectContract.sol\":5054:5077  instance.studentAddress */\n      0x00\n      add\n      mload\n        /* \"contracts/studentmanager/SubjectContract.sol\":5054:5092  instance.studentAddress == _student[i] */\n      0xffffffffffffffffffffffffffffffffffffffff\n      and\n      eq\n        /* \"contracts/studentmanager/SubjectContract.sol\":5024:5092  instance.participantToTrue && instance.studentAddress == _student[i] */\n    tag_290:\n        /* \"contracts/studentmanager/SubjectContract.sol\":5016:5113  require(instance.participantToTrue && instance.studentAddress == _student[i], \"SC: cancel error\") */\n      tag_294\n      jumpi\n      mload(0x40)\n      0x08c379a000000000000000000000000000000000000000000000000000000000\n      dup2\n      mstore\n      0x04\n      add\n      tag_295\n      swap1\n      tag_192\n      jump\t// in\n    tag_295:\n      mload(0x40)\n      dup1\n      swap2\n      sub\n      swap1\n      revert\n    tag_294:\n        /* \"contracts/studentmanager/SubjectContract.sol\":5160:5164  true */\n      0x01\n        /* \"contracts/studentmanager/SubjectContract.sol\":5128:5144  completedAddress */\n      0x0d\n        /* \"contracts/studentmanager/SubjectContract.sol\":5128:5157  completedAddress[_student[i]] */\n      0x00\n        /* \"contracts/studentmanager/SubjectContract.sol\":5145:5153  _student */\n      dup7\n      dup7\n        /* \"contracts/studentmanager/SubjectContract.sol\":5154:5155  i */\n      dup7\n        /* \"contracts/studentmanager/SubjectContract.sol\":5145:5156  _student[i] */\n      dup2\n      dup2\n      lt\n      tag_296\n      jumpi\n      tag_297\n      tag_147\n      jump\t// in\n    tag_297:\n    tag_296:\n      swap1\n      pop\n      0x20\n      mul\n      add\n      0x20\n      dup2\n      add\n      swap1\n      tag_298\n      swap2\n      swap1\n      tag_54\n      jump\t// in\n    tag_298:\n        /* \"contracts/studentmanager/SubjectContract.sol\":5128:5157  completedAddress[_student[i]] */\n      0xffffffffffffffffffffffffffffffffffffffff\n      and\n      0xffffffffffffffffffffffffffffffffffffffff\n      and\n      dup2\n      mstore\n      0x20\n      add\n      swap1\n      dup2\n      mstore\n      0x20\n      add\n      0x00\n      keccak256\n      0x00\n        /* \"contracts/studentmanager/SubjectContract.sol\":5128:5164  completedAddress[_student[i]] = true */\n      0x0100\n      exp\n      dup2\n      sload\n      dup2\n      0xff\n      mul\n      not\n      and\n      swap1\n      dup4\n      iszero\n      iszero\n      mul\n      or\n      swap1\n      sstore\n      pop\n        /* \"contracts/studentmanager/SubjectContract.sol\":4931:5275  {\r... */\n      pop\n        /* \"contracts/studentmanager/SubjectContract.sol\":4926:4929  i++ */\n      dup1\n      dup1\n      tag_299\n      swap1\n      tag_162\n      jump\t// in\n    tag_299:\n      swap2\n      pop\n      pop\n        /* \"contracts/studentmanager/SubjectContract.sol\":4885:5275  for (uint256 i = 0; i < _student.length; i++) {\r... */\n      jump(tag_284)\n    tag_285:\n      pop\n        /* \"contracts/studentmanager/SubjectContract.sol\":5290:5331  Confirm(_student.length, block.timestamp) */\n      0x698dd5b92696456649e8994759ccfe7076b1ebe9096ecb083211d8bfe8163842\n        /* \"contracts/studentmanager/SubjectContract.sol\":5298:5306  _student */\n      dup3\n      dup3\n        /* \"contracts/studentmanager/SubjectContract.sol\":5298:5313  _student.length */\n      swap1\n      pop\n        /* \"contracts/studentmanager/SubjectContract.sol\":5315:5330  block.timestamp */\n      timestamp\n        /* \"contracts/studentmanager/SubjectContract.sol\":5290:5331  Confirm(_student.length, block.timestamp) */\n      mload(0x40)\n      tag_300\n      swap3\n      swap2\n      swap1\n      tag_301\n      jump\t// in\n    tag_300:\n      mload(0x40)\n      dup1\n      swap2\n      sub\n      swap1\n      log1\n        /* \"contracts/studentmanager/SubjectContract.sol\":4505:5339  function confirmCompletedAddress(\r... */\n      pop\n      pop\n      jump\t// out\n        /* \"contracts/studentmanager/SubjectContract.sol\":5979:6481  function getParticipantList() public view returns (address[] memory) {\r... */\n    tag_91:\n        /* \"contracts/studentmanager/SubjectContract.sol\":6030:6046  address[] memory */\n      0x60\n        /* \"contracts/studentmanager/SubjectContract.sol\":6059:6084  address[] memory _student */\n      0x00\n        /* \"contracts/studentmanager/SubjectContract.sol\":6101:6107  amount */\n      sload(0x0c)\n        /* \"contracts/studentmanager/SubjectContract.sol\":6087:6108  new address[](amount) */\n      0xffffffffffffffff\n      dup2\n      gt\n      iszero\n      tag_303\n      jumpi\n      tag_304\n      tag_240\n      jump\t// in\n    tag_304:\n    tag_303:\n      mload(0x40)\n      swap1\n      dup1\n      dup3\n      mstore\n      dup1\n      0x20\n      mul\n      0x20\n      add\n      dup3\n      add\n      0x40\n      mstore\n      dup1\n      iszero\n      tag_305\n      jumpi\n      dup2\n      0x20\n      add\n      0x20\n      dup3\n      mul\n      dup1\n      calldatasize\n      dup4\n      calldatacopy\n      dup1\n      dup3\n      add\n      swap2\n      pop\n      pop\n      swap1\n      pop\n    tag_305:\n      pop\n        /* \"contracts/studentmanager/SubjectContract.sol\":6059:6108  address[] memory _student = new address[](amount) */\n      swap1\n      pop\n        /* \"contracts/studentmanager/SubjectContract.sol\":6119:6132  uint256 index */\n      0x00\n        /* \"contracts/studentmanager/SubjectContract.sol\":6148:6157  uint256 i */\n      dup1\n        /* \"contracts/studentmanager/SubjectContract.sol\":6160:6161  0 */\n      0x00\n        /* \"contracts/studentmanager/SubjectContract.sol\":6148:6161  uint256 i = 0 */\n      swap1\n      pop\n        /* \"contracts/studentmanager/SubjectContract.sol\":6143:6448  for (uint256 i = 0; i < student.length; i++) {\r... */\n    tag_306:\n        /* \"contracts/studentmanager/SubjectContract.sol\":6167:6174  student */\n      0x0a\n        /* \"contracts/studentmanager/SubjectContract.sol\":6167:6181  student.length */\n      dup1\n      sload\n      swap1\n      pop\n        /* \"contracts/studentmanager/SubjectContract.sol\":6163:6164  i */\n      dup2\n        /* \"contracts/studentmanager/SubjectContract.sol\":6163:6181  i < student.length */\n      lt\n        /* \"contracts/studentmanager/SubjectContract.sol\":6143:6448  for (uint256 i = 0; i < student.length; i++) {\r... */\n      iszero\n      tag_307\n      jumpi\n        /* \"contracts/studentmanager/SubjectContract.sol\":6207:6223  addressToStudent */\n      0x0b\n        /* \"contracts/studentmanager/SubjectContract.sol\":6207:6235  addressToStudent[student[i]] */\n      0x00\n        /* \"contracts/studentmanager/SubjectContract.sol\":6224:6231  student */\n      0x0a\n        /* \"contracts/studentmanager/SubjectContract.sol\":6232:6233  i */\n      dup4\n        /* \"contracts/studentmanager/SubjectContract.sol\":6224:6234  student[i] */\n      dup2\n      sload\n      dup2\n      lt\n      tag_309\n      jumpi\n      tag_310\n      tag_147\n      jump\t// in\n    tag_310:\n    tag_309:\n      swap1\n      0x00\n      mstore\n      keccak256(0x00, 0x20)\n      add\n      0x00\n      swap1\n      sload\n      swap1\n      0x0100\n      exp\n      swap1\n      div\n      0xffffffffffffffffffffffffffffffffffffffff\n      and\n        /* \"contracts/studentmanager/SubjectContract.sol\":6207:6235  addressToStudent[student[i]] */\n      0xffffffffffffffffffffffffffffffffffffffff\n      and\n      0xffffffffffffffffffffffffffffffffffffffff\n      and\n      dup2\n      mstore\n      0x20\n      add\n      swap1\n      dup2\n      mstore\n      0x20\n      add\n      0x00\n      keccak256\n        /* \"contracts/studentmanager/SubjectContract.sol\":6207:6253  addressToStudent[student[i]].participantToTrue */\n      0x00\n      add\n      0x14\n      swap1\n      sload\n      swap1\n      0x0100\n      exp\n      swap1\n      div\n      0xff\n      and\n        /* \"contracts/studentmanager/SubjectContract.sol\":6207:6313  addressToStudent[student[i]].participantToTrue && addressToStudent[student[i]].studentAddress !=address(0) */\n      dup1\n      iszero\n      tag_312\n      jumpi\n      pop\n        /* \"contracts/studentmanager/SubjectContract.sol\":6311:6312  0 */\n      0x00\n        /* \"contracts/studentmanager/SubjectContract.sol\":6257:6313  addressToStudent[student[i]].studentAddress !=address(0) */\n      0xffffffffffffffffffffffffffffffffffffffff\n      and\n        /* \"contracts/studentmanager/SubjectContract.sol\":6257:6273  addressToStudent */\n      0x0b\n        /* \"contracts/studentmanager/SubjectContract.sol\":6257:6285  addressToStudent[student[i]] */\n      0x00\n        /* \"contracts/studentmanager/SubjectContract.sol\":6274:6281  student */\n      0x0a\n        /* \"contracts/studentmanager/SubjectContract.sol\":6282:6283  i */\n      dup5\n        /* \"contracts/studentmanager/SubjectContract.sol\":6274:6284  student[i] */\n      dup2\n      sload\n      dup2\n      lt\n      tag_313\n      jumpi\n      tag_314\n      tag_147\n      jump\t// in\n    tag_314:\n    tag_313:\n      swap1\n      0x00\n      mstore\n      keccak256(0x00, 0x20)\n      add\n      0x00\n      swap1\n      sload\n      swap1\n      0x0100\n      exp\n      swap1\n      div\n      0xffffffffffffffffffffffffffffffffffffffff\n      and\n        /* \"contracts/studentmanager/SubjectContract.sol\":6257:6285  addressToStudent[student[i]] */\n      0xffffffffffffffffffffffffffffffffffffffff\n      and\n      0xffffffffffffffffffffffffffffffffffffffff\n      and\n      dup2\n      mstore\n      0x20\n      add\n      swap1\n      dup2\n      mstore\n      0x20\n      add\n      0x00\n      keccak256\n        /* \"contracts/studentmanager/SubjectContract.sol\":6257:6300  addressToStudent[student[i]].studentAddress */\n      0x00\n      add\n      0x00\n      swap1\n      sload\n      swap1\n      0x0100\n      exp\n      swap1\n      div\n      0xffffffffffffffffffffffffffffffffffffffff\n      and\n        /* \"contracts/studentmanager/SubjectContract.sol\":6257:6313  addressToStudent[student[i]].studentAddress !=address(0) */\n      0xffffffffffffffffffffffffffffffffffffffff\n      and\n      eq\n      iszero\n        /* \"contracts/studentmanager/SubjectContract.sol\":6207:6313  addressToStudent[student[i]].participantToTrue && addressToStudent[student[i]].studentAddress !=address(0) */\n    tag_312:\n        /* \"contracts/studentmanager/SubjectContract.sol\":6203:6437  if (addressToStudent[student[i]].participantToTrue && addressToStudent[student[i]].studentAddress !=address(0)) {\r... */\n      iszero\n      tag_316\n      jumpi\n        /* \"contracts/studentmanager/SubjectContract.sol\":6352:6368  addressToStudent */\n      0x0b\n        /* \"contracts/studentmanager/SubjectContract.sol\":6352:6380  addressToStudent[student[i]] */\n      0x00\n        /* \"contracts/studentmanager/SubjectContract.sol\":6369:6376  student */\n      0x0a\n        /* \"contracts/studentmanager/SubjectContract.sol\":6377:6378  i */\n      dup4\n        /* \"contracts/studentmanager/SubjectContract.sol\":6369:6379  student[i] */\n      dup2\n      sload\n      dup2\n      lt\n      tag_317\n      jumpi\n      tag_318\n      tag_147\n      jump\t// in\n    tag_318:\n    tag_317:\n      swap1\n      0x00\n      mstore\n      keccak256(0x00, 0x20)\n      add\n      0x00\n      swap1\n      sload\n      swap1\n      0x0100\n      exp\n      swap1\n      div\n      0xffffffffffffffffffffffffffffffffffffffff\n      and\n        /* \"contracts/studentmanager/SubjectContract.sol\":6352:6380  addressToStudent[student[i]] */\n      0xffffffffffffffffffffffffffffffffffffffff\n      and\n      0xffffffffffffffffffffffffffffffffffffffff\n      and\n      dup2\n      mstore\n      0x20\n      add\n      swap1\n      dup2\n      mstore\n      0x20\n      add\n      0x00\n      keccak256\n        /* \"contracts/studentmanager/SubjectContract.sol\":6352:6395  addressToStudent[student[i]].studentAddress */\n      0x00\n      add\n      0x00\n      swap1\n      sload\n      swap1\n      0x0100\n      exp\n      swap1\n      div\n      0xffffffffffffffffffffffffffffffffffffffff\n      and\n        /* \"contracts/studentmanager/SubjectContract.sol\":6334:6342  _student */\n      dup4\n        /* \"contracts/studentmanager/SubjectContract.sol\":6343:6348  index */\n      dup4\n        /* \"contracts/studentmanager/SubjectContract.sol\":6334:6349  _student[index] */\n      dup2\n      mload\n      dup2\n      lt\n      tag_320\n      jumpi\n      tag_321\n      tag_147\n      jump\t// in\n    tag_321:\n    tag_320:\n      0x20\n      mul\n      0x20\n      add\n      add\n        /* \"contracts/studentmanager/SubjectContract.sol\":6334:6395  _student[index] = addressToStudent[student[i]].studentAddress */\n      swap1\n      0xffffffffffffffffffffffffffffffffffffffff\n      and\n      swap1\n      dup2\n      0xffffffffffffffffffffffffffffffffffffffff\n      and\n      dup2\n      mstore\n      pop\n      pop\n        /* \"contracts/studentmanager/SubjectContract.sol\":6414:6421  index++ */\n      dup2\n      dup1\n      tag_322\n      swap1\n      tag_162\n      jump\t// in\n    tag_322:\n      swap3\n      pop\n      pop\n        /* \"contracts/studentmanager/SubjectContract.sol\":6203:6437  if (addressToStudent[student[i]].participantToTrue && addressToStudent[student[i]].studentAddress !=address(0)) {\r... */\n    tag_316:\n        /* \"contracts/studentmanager/SubjectContract.sol\":6183:6186  i++ */\n      dup1\n      dup1\n      tag_323\n      swap1\n      tag_162\n      jump\t// in\n    tag_323:\n      swap2\n      pop\n      pop\n        /* \"contracts/studentmanager/SubjectContract.sol\":6143:6448  for (uint256 i = 0; i < student.length; i++) {\r... */\n      jump(tag_306)\n    tag_307:\n      pop\n        /* \"contracts/studentmanager/SubjectContract.sol\":6465:6473  _student */\n      dup2\n        /* \"contracts/studentmanager/SubjectContract.sol\":6458:6473  return _student */\n      swap3\n      pop\n      pop\n      pop\n        /* \"contracts/studentmanager/SubjectContract.sol\":5979:6481  function getParticipantList() public view returns (address[] memory) {\r... */\n      swap1\n      jump\t// out\n        /* \"contracts/studentmanager/SubjectContract.sol\":3588:4225  function _register(address _student) private {\r... */\n    tag_121:\n        /* \"contracts/studentmanager/SubjectContract.sol\":3644:3668  Student storage instance */\n      0x00\n        /* \"contracts/studentmanager/SubjectContract.sol\":3671:3687  addressToStudent */\n      0x0b\n        /* \"contracts/studentmanager/SubjectContract.sol\":3671:3697  addressToStudent[_student] */\n      0x00\n        /* \"contracts/studentmanager/SubjectContract.sol\":3688:3696  _student */\n      dup4\n        /* \"contracts/studentmanager/SubjectContract.sol\":3671:3697  addressToStudent[_student] */\n      0xffffffffffffffffffffffffffffffffffffffff\n      and\n      0xffffffffffffffffffffffffffffffffffffffff\n      and\n      dup2\n      mstore\n      0x20\n      add\n      swap1\n      dup2\n      mstore\n      0x20\n      add\n      0x00\n      keccak256\n        /* \"contracts/studentmanager/SubjectContract.sol\":3644:3697  Student storage instance = addressToStudent[_student] */\n      swap1\n      pop\n        /* \"contracts/studentmanager/SubjectContract.sol\":3717:3725  instance */\n      dup1\n        /* \"contracts/studentmanager/SubjectContract.sol\":3717:3743  instance.participantToTrue */\n      0x00\n      add\n      0x14\n      swap1\n      sload\n      swap1\n      0x0100\n      exp\n      swap1\n      div\n      0xff\n      and\n        /* \"contracts/studentmanager/SubjectContract.sol\":3716:3743  !instance.participantToTrue */\n      iszero\n        /* \"contracts/studentmanager/SubjectContract.sol\":3708:3766  require(!instance.participantToTrue, \"SC: register error\") */\n      tag_325\n      jumpi\n      mload(0x40)\n      0x08c379a000000000000000000000000000000000000000000000000000000000\n      dup2\n      mstore\n      0x04\n      add\n      tag_326\n      swap1\n      tag_327\n      jump\t// in\n    tag_326:\n      mload(0x40)\n      dup1\n      swap2\n      sub\n      swap1\n      revert\n    tag_325:\n        /* \"contracts/studentmanager/SubjectContract.sol\":3779:3785  amount */\n      0x0c\n      0x00\n        /* \"contracts/studentmanager/SubjectContract.sol\":3779:3787  amount++ */\n      dup2\n      sload\n      dup1\n      swap3\n      swap2\n      swap1\n      tag_328\n      swap1\n      tag_162\n      jump\t// in\n    tag_328:\n      swap2\n      swap1\n      pop\n      sstore\n      pop\n        /* \"contracts/studentmanager/SubjectContract.sol\":3836:3837  0 */\n      0x00\n        /* \"contracts/studentmanager/SubjectContract.sol\":3801:3838  instance.studentAddress != address(0) */\n      0xffffffffffffffffffffffffffffffffffffffff\n      and\n        /* \"contracts/studentmanager/SubjectContract.sol\":3801:3809  instance */\n      dup2\n        /* \"contracts/studentmanager/SubjectContract.sol\":3801:3824  instance.studentAddress */\n      0x00\n      add\n      0x00\n      swap1\n      sload\n      swap1\n      0x0100\n      exp\n      swap1\n      div\n      0xffffffffffffffffffffffffffffffffffffffff\n      and\n        /* \"contracts/studentmanager/SubjectContract.sol\":3801:3838  instance.studentAddress != address(0) */\n      0xffffffffffffffffffffffffffffffffffffffff\n      and\n      eq\n        /* \"contracts/studentmanager/SubjectContract.sol\":3798:4142  if(instance.studentAddress != address(0)){\r... */\n      tag_329\n      jumpi\n        /* \"contracts/studentmanager/SubjectContract.sol\":3883:3887  true */\n      0x01\n        /* \"contracts/studentmanager/SubjectContract.sol\":3854:3862  instance */\n      dup2\n        /* \"contracts/studentmanager/SubjectContract.sol\":3854:3880  instance.participantToTrue */\n      0x00\n      add\n      0x14\n        /* \"contracts/studentmanager/SubjectContract.sol\":3854:3887  instance.participantToTrue = true */\n      0x0100\n      exp\n      dup2\n      sload\n      dup2\n      0xff\n      mul\n      not\n      and\n      swap1\n      dup4\n      iszero\n      iszero\n      mul\n      or\n      swap1\n      sstore\n      pop\n        /* \"contracts/studentmanager/SubjectContract.sol\":3798:4142  if(instance.studentAddress != address(0)){\r... */\n      jump(tag_330)\n    tag_329:\n        /* \"contracts/studentmanager/SubjectContract.sol\":3918:3935  Student memory st */\n      0x00\n        /* \"contracts/studentmanager/SubjectContract.sol\":3938:4047  Student({\r... */\n      mload(0x40)\n      dup1\n      0x40\n      add\n      0x40\n      mstore\n      dup1\n        /* \"contracts/studentmanager/SubjectContract.sol\":3981:3989  _student */\n      dup5\n        /* \"contracts/studentmanager/SubjectContract.sol\":3938:4047  Student({\r... */\n      0xffffffffffffffffffffffffffffffffffffffff\n      and\n      dup2\n      mstore\n      0x20\n      add\n        /* \"contracts/studentmanager/SubjectContract.sol\":4027:4031  true */\n      0x01\n        /* \"contracts/studentmanager/SubjectContract.sol\":3938:4047  Student({\r... */\n      iszero\n      iszero\n      dup2\n      mstore\n      pop\n        /* \"contracts/studentmanager/SubjectContract.sol\":3918:4047  Student memory st = Student({\r... */\n      swap1\n      pop\n        /* \"contracts/studentmanager/SubjectContract.sol\":4091:4093  st */\n      dup1\n        /* \"contracts/studentmanager/SubjectContract.sol\":4062:4078  addressToStudent */\n      0x0b\n        /* \"contracts/studentmanager/SubjectContract.sol\":4062:4088  addressToStudent[_student] */\n      0x00\n        /* \"contracts/studentmanager/SubjectContract.sol\":4079:4087  _student */\n      dup6\n        /* \"contracts/studentmanager/SubjectContract.sol\":4062:4088  addressToStudent[_student] */\n      0xffffffffffffffffffffffffffffffffffffffff\n      and\n      0xffffffffffffffffffffffffffffffffffffffff\n      and\n      dup2\n      mstore\n      0x20\n      add\n      swap1\n      dup2\n      mstore\n      0x20\n      add\n      0x00\n      keccak256\n        /* \"contracts/studentmanager/SubjectContract.sol\":4062:4093  addressToStudent[_student] = st */\n      0x00\n      dup3\n      add\n      mload\n      dup2\n      0x00\n      add\n      exp(0x0100, 0x00)\n      dup2\n      sload\n      dup2\n      0xffffffffffffffffffffffffffffffffffffffff\n      mul\n      not\n      and\n      swap1\n      dup4\n      0xffffffffffffffffffffffffffffffffffffffff\n      and\n      mul\n      or\n      swap1\n      sstore\n      pop\n      0x20\n      dup3\n      add\n      mload\n      dup2\n      0x00\n      add\n      exp(0x0100, 0x14)\n      dup2\n      sload\n      dup2\n      0xff\n      mul\n      not\n      and\n      swap1\n      dup4\n      iszero\n      iszero\n      mul\n      or\n      swap1\n      sstore\n      pop\n      swap1\n      pop\n      pop\n        /* \"contracts/studentmanager/SubjectContract.sol\":4108:4115  student */\n      0x0a\n        /* \"contracts/studentmanager/SubjectContract.sol\":4121:4129  _student */\n      dup4\n        /* \"contracts/studentmanager/SubjectContract.sol\":4108:4130  student.push(_student) */\n      swap1\n      dup1\n      0x01\n      dup2\n      sload\n      add\n      dup1\n      dup3\n      sstore\n      dup1\n      swap2\n      pop\n      pop\n      0x01\n      swap1\n      sub\n      swap1\n      0x00\n      mstore\n      keccak256(0x00, 0x20)\n      add\n      0x00\n      swap1\n      swap2\n      swap1\n      swap2\n      swap1\n      swap2\n      0x0100\n      exp\n      dup2\n      sload\n      dup2\n      0xffffffffffffffffffffffffffffffffffffffff\n      mul\n      not\n      and\n      swap1\n      dup4\n      0xffffffffffffffffffffffffffffffffffffffff\n      and\n      mul\n      or\n      swap1\n      sstore\n      pop\n        /* \"contracts/studentmanager/SubjectContract.sol\":3903:4142  {\r... */\n      pop\n        /* \"contracts/studentmanager/SubjectContract.sol\":3798:4142  if(instance.studentAddress != address(0)){\r... */\n    tag_330:\n        /* \"contracts/studentmanager/SubjectContract.sol\":4180:4187  subject */\n      0x00\n        /* \"contracts/studentmanager/SubjectContract.sol\":4180:4198  subject.maxEntrant */\n      0x02\n      add\n      sload\n        /* \"contracts/studentmanager/SubjectContract.sol\":4170:4176  amount */\n      sload(0x0c)\n        /* \"contracts/studentmanager/SubjectContract.sol\":4170:4198  amount <= subject.maxEntrant */\n      gt\n      iszero\n        /* \"contracts/studentmanager/SubjectContract.sol\":4162:4217  require(amount <= subject.maxEntrant,\"Reach out limit\") */\n      tag_332\n      jumpi\n      mload(0x40)\n      0x08c379a000000000000000000000000000000000000000000000000000000000\n      dup2\n      mstore\n      0x04\n      add\n      tag_333\n      swap1\n      tag_334\n      jump\t// in\n    tag_333:\n      mload(0x40)\n      dup1\n      swap2\n      sub\n      swap1\n      revert\n    tag_332:\n        /* \"contracts/studentmanager/SubjectContract.sol\":3633:4225  {\r... */\n      pop\n        /* \"contracts/studentmanager/SubjectContract.sol\":3588:4225  function _register(address _student) private {\r... */\n      pop\n      jump\t// out\n    tag_236:\n      dup3\n      dup1\n      sload\n      tag_335\n      swap1\n      tag_94\n      jump\t// in\n    tag_335:\n      swap1\n      0x00\n      mstore\n      keccak256(0x00, 0x20)\n      swap1\n      0x1f\n      add\n      0x20\n      swap1\n      div\n      dup2\n      add\n      swap3\n      dup3\n      tag_337\n      jumpi\n      0x00\n      dup6\n      sstore\n      jump(tag_336)\n    tag_337:\n      dup3\n      0x1f\n      lt\n      tag_338\n      jumpi\n      dup1\n      mload\n      not(0xff)\n      and\n      dup4\n      dup1\n      add\n      or\n      dup6\n      sstore\n      jump(tag_336)\n    tag_338:\n      dup3\n      dup1\n      add\n      0x01\n      add\n      dup6\n      sstore\n      dup3\n      iszero\n      tag_336\n      jumpi\n      swap2\n      dup3\n      add\n    tag_339:\n      dup3\n      dup2\n      gt\n      iszero\n      tag_340\n      jumpi\n      dup3\n      mload\n      dup3\n      sstore\n      swap2\n      0x20\n      add\n      swap2\n      swap1\n      0x01\n      add\n      swap1\n      jump(tag_339)\n    tag_340:\n    tag_336:\n      pop\n      swap1\n      pop\n      tag_341\n      swap2\n      swap1\n      tag_342\n      jump\t// in\n    tag_341:\n      pop\n      swap1\n      jump\t// out\n    tag_342:\n    tag_343:\n      dup1\n      dup3\n      gt\n      iszero\n      tag_344\n      jumpi\n      0x00\n      dup2\n      0x00\n      swap1\n      sstore\n      pop\n      0x01\n      add\n      jump(tag_343)\n    tag_344:\n      pop\n      swap1\n      jump\t// out\n        /* \"#utility.yul\":7:419   */\n    tag_346:\n        /* \"#utility.yul\":85:90   */\n      0x00\n        /* \"#utility.yul\":110:176   */\n      tag_348\n        /* \"#utility.yul\":126:175   */\n      tag_349\n        /* \"#utility.yul\":168:174   */\n      dup5\n        /* \"#utility.yul\":126:175   */\n      tag_350\n      jump\t// in\n    tag_349:\n        /* \"#utility.yul\":110:176   */\n      tag_351\n      jump\t// in\n    tag_348:\n        /* \"#utility.yul\":101:176   */\n      swap1\n      pop\n        /* \"#utility.yul\":199:205   */\n      dup3\n        /* \"#utility.yul\":192:197   */\n      dup2\n        /* \"#utility.yul\":185:206   */\n      mstore\n        /* \"#utility.yul\":237:241   */\n      0x20\n        /* \"#utility.yul\":230:235   */\n      dup2\n        /* \"#utility.yul\":226:242   */\n      add\n        /* \"#utility.yul\":275:278   */\n      dup5\n        /* \"#utility.yul\":266:272   */\n      dup5\n        /* \"#utility.yul\":261:264   */\n      dup5\n        /* \"#utility.yul\":257:273   */\n      add\n        /* \"#utility.yul\":254:279   */\n      gt\n        /* \"#utility.yul\":251:363   */\n      iszero\n      tag_352\n      jumpi\n        /* \"#utility.yul\":282:361   */\n      tag_353\n      tag_354\n      jump\t// in\n    tag_353:\n        /* \"#utility.yul\":251:363   */\n    tag_352:\n        /* \"#utility.yul\":372:413   */\n      tag_355\n        /* \"#utility.yul\":406:412   */\n      dup5\n        /* \"#utility.yul\":401:404   */\n      dup3\n        /* \"#utility.yul\":396:399   */\n      dup6\n        /* \"#utility.yul\":372:413   */\n      tag_356\n      jump\t// in\n    tag_355:\n        /* \"#utility.yul\":91:419   */\n      pop\n        /* \"#utility.yul\":7:419   */\n      swap4\n      swap3\n      pop\n      pop\n      pop\n      jump\t// out\n        /* \"#utility.yul\":425:564   */\n    tag_357:\n        /* \"#utility.yul\":471:476   */\n      0x00\n        /* \"#utility.yul\":509:515   */\n      dup2\n        /* \"#utility.yul\":496:516   */\n      calldataload\n        /* \"#utility.yul\":487:516   */\n      swap1\n      pop\n        /* \"#utility.yul\":525:558   */\n      tag_359\n        /* \"#utility.yul\":552:557   */\n      dup2\n        /* \"#utility.yul\":525:558   */\n      tag_360\n      jump\t// in\n    tag_359:\n        /* \"#utility.yul\":425:564   */\n      swap3\n      swap2\n      pop\n      pop\n      jump\t// out\n        /* \"#utility.yul\":587:1155   */\n    tag_361:\n        /* \"#utility.yul\":660:668   */\n      0x00\n        /* \"#utility.yul\":670:676   */\n      dup1\n        /* \"#utility.yul\":720:723   */\n      dup4\n        /* \"#utility.yul\":713:717   */\n      0x1f\n        /* \"#utility.yul\":705:711   */\n      dup5\n        /* \"#utility.yul\":701:718   */\n      add\n        /* \"#utility.yul\":697:724   */\n      slt\n        /* \"#utility.yul\":687:809   */\n      tag_363\n      jumpi\n        /* \"#utility.yul\":728:807   */\n      tag_364\n      tag_365\n      jump\t// in\n    tag_364:\n        /* \"#utility.yul\":687:809   */\n    tag_363:\n        /* \"#utility.yul\":841:847   */\n      dup3\n        /* \"#utility.yul\":828:848   */\n      calldataload\n        /* \"#utility.yul\":818:848   */\n      swap1\n      pop\n        /* \"#utility.yul\":871:889   */\n      0xffffffffffffffff\n        /* \"#utility.yul\":863:869   */\n      dup2\n        /* \"#utility.yul\":860:890   */\n      gt\n        /* \"#utility.yul\":857:974   */\n      iszero\n      tag_366\n      jumpi\n        /* \"#utility.yul\":893:972   */\n      tag_367\n      tag_368\n      jump\t// in\n    tag_367:\n        /* \"#utility.yul\":857:974   */\n    tag_366:\n        /* \"#utility.yul\":1007:1011   */\n      0x20\n        /* \"#utility.yul\":999:1005   */\n      dup4\n        /* \"#utility.yul\":995:1012   */\n      add\n        /* \"#utility.yul\":983:1012   */\n      swap2\n      pop\n        /* \"#utility.yul\":1061:1064   */\n      dup4\n        /* \"#utility.yul\":1053:1057   */\n      0x20\n        /* \"#utility.yul\":1045:1051   */\n      dup3\n        /* \"#utility.yul\":1041:1058   */\n      mul\n        /* \"#utility.yul\":1031:1039   */\n      dup4\n        /* \"#utility.yul\":1027:1059   */\n      add\n        /* \"#utility.yul\":1024:1065   */\n      gt\n        /* \"#utility.yul\":1021:1149   */\n      iszero\n      tag_369\n      jumpi\n        /* \"#utility.yul\":1068:1147   */\n      tag_370\n      tag_371\n      jump\t// in\n    tag_370:\n        /* \"#utility.yul\":1021:1149   */\n    tag_369:\n        /* \"#utility.yul\":587:1155   */\n      swap3\n      pop\n      swap3\n      swap1\n      pop\n      jump\t// out\n        /* \"#utility.yul\":1161:1298   */\n    tag_372:\n        /* \"#utility.yul\":1215:1220   */\n      0x00\n        /* \"#utility.yul\":1246:1252   */\n      dup2\n        /* \"#utility.yul\":1240:1253   */\n      mload\n        /* \"#utility.yul\":1231:1253   */\n      swap1\n      pop\n        /* \"#utility.yul\":1262:1292   */\n      tag_374\n        /* \"#utility.yul\":1286:1291   */\n      dup2\n        /* \"#utility.yul\":1262:1292   */\n      tag_375\n      jump\t// in\n    tag_374:\n        /* \"#utility.yul\":1161:1298   */\n      swap3\n      swap2\n      pop\n      pop\n      jump\t// out\n        /* \"#utility.yul\":1318:1658   */\n    tag_376:\n        /* \"#utility.yul\":1374:1379   */\n      0x00\n        /* \"#utility.yul\":1423:1426   */\n      dup3\n        /* \"#utility.yul\":1416:1420   */\n      0x1f\n        /* \"#utility.yul\":1408:1414   */\n      dup4\n        /* \"#utility.yul\":1404:1421   */\n      add\n        /* \"#utility.yul\":1400:1427   */\n      slt\n        /* \"#utility.yul\":1390:1512   */\n      tag_378\n      jumpi\n        /* \"#utility.yul\":1431:1510   */\n      tag_379\n      tag_365\n      jump\t// in\n    tag_379:\n        /* \"#utility.yul\":1390:1512   */\n    tag_378:\n        /* \"#utility.yul\":1548:1554   */\n      dup2\n        /* \"#utility.yul\":1535:1555   */\n      calldataload\n        /* \"#utility.yul\":1573:1652   */\n      tag_380\n        /* \"#utility.yul\":1648:1651   */\n      dup5\n        /* \"#utility.yul\":1640:1646   */\n      dup3\n        /* \"#utility.yul\":1633:1637   */\n      0x20\n        /* \"#utility.yul\":1625:1631   */\n      dup7\n        /* \"#utility.yul\":1621:1638   */\n      add\n        /* \"#utility.yul\":1573:1652   */\n      tag_346\n      jump\t// in\n    tag_380:\n        /* \"#utility.yul\":1564:1652   */\n      swap2\n      pop\n        /* \"#utility.yul\":1380:1658   */\n      pop\n        /* \"#utility.yul\":1318:1658   */\n      swap3\n      swap2\n      pop\n      pop\n      jump\t// out\n        /* \"#utility.yul\":1664:1803   */\n    tag_381:\n        /* \"#utility.yul\":1710:1715   */\n      0x00\n        /* \"#utility.yul\":1748:1754   */\n      dup2\n        /* \"#utility.yul\":1735:1755   */\n      calldataload\n        /* \"#utility.yul\":1726:1755   */\n      swap1\n      pop\n        /* \"#utility.yul\":1764:1797   */\n      tag_383\n        /* \"#utility.yul\":1791:1796   */\n      dup2\n        /* \"#utility.yul\":1764:1797   */\n      tag_384\n      jump\t// in\n    tag_383:\n        /* \"#utility.yul\":1664:1803   */\n      swap3\n      swap2\n      pop\n      pop\n      jump\t// out\n        /* \"#utility.yul\":1809:2138   */\n    tag_54:\n        /* \"#utility.yul\":1868:1874   */\n      0x00\n        /* \"#utility.yul\":1917:1919   */\n      0x20\n        /* \"#utility.yul\":1905:1914   */\n      dup3\n        /* \"#utility.yul\":1896:1903   */\n      dup5\n        /* \"#utility.yul\":1892:1915   */\n      sub\n        /* \"#utility.yul\":1888:1920   */\n      slt\n        /* \"#utility.yul\":1885:2004   */\n      iszero\n      tag_386\n      jumpi\n        /* \"#utility.yul\":1923:2002   */\n      tag_387\n      tag_388\n      jump\t// in\n    tag_387:\n        /* \"#utility.yul\":1885:2004   */\n    tag_386:\n        /* \"#utility.yul\":2043:2044   */\n      0x00\n        /* \"#utility.yul\":2068:2121   */\n      tag_389\n        /* \"#utility.yul\":2113:2120   */\n      dup5\n        /* \"#utility.yul\":2104:2110   */\n      dup3\n        /* \"#utility.yul\":2093:2102   */\n      dup6\n        /* \"#utility.yul\":2089:2111   */\n      add\n        /* \"#utility.yul\":2068:2121   */\n      tag_357\n      jump\t// in\n    tag_389:\n        /* \"#utility.yul\":2058:2121   */\n      swap2\n      pop\n        /* \"#utility.yul\":2014:2131   */\n      pop\n        /* \"#utility.yul\":1809:2138   */\n      swap3\n      swap2\n      pop\n      pop\n      jump\t// out\n        /* \"#utility.yul\":2144:2703   */\n    tag_41:\n        /* \"#utility.yul\":2230:2236   */\n      0x00\n        /* \"#utility.yul\":2238:2244   */\n      dup1\n        /* \"#utility.yul\":2287:2289   */\n      0x20\n        /* \"#utility.yul\":2275:2284   */\n      dup4\n        /* \"#utility.yul\":2266:2273   */\n      dup6\n        /* \"#utility.yul\":2262:2285   */\n      sub\n        /* \"#utility.yul\":2258:2290   */\n      slt\n        /* \"#utility.yul\":2255:2374   */\n      iszero\n      tag_391\n      jumpi\n        /* \"#utility.yul\":2293:2372   */\n      tag_392\n      tag_388\n      jump\t// in\n    tag_392:\n        /* \"#utility.yul\":2255:2374   */\n    tag_391:\n        /* \"#utility.yul\":2441:2442   */\n      0x00\n        /* \"#utility.yul\":2430:2439   */\n      dup4\n        /* \"#utility.yul\":2426:2443   */\n      add\n        /* \"#utility.yul\":2413:2444   */\n      calldataload\n        /* \"#utility.yul\":2471:2489   */\n      0xffffffffffffffff\n        /* \"#utility.yul\":2463:2469   */\n      dup2\n        /* \"#utility.yul\":2460:2490   */\n      gt\n        /* \"#utility.yul\":2457:2574   */\n      iszero\n      tag_393\n      jumpi\n        /* \"#utility.yul\":2493:2572   */\n      tag_394\n      tag_395\n      jump\t// in\n    tag_394:\n        /* \"#utility.yul\":2457:2574   */\n    tag_393:\n        /* \"#utility.yul\":2606:2686   */\n      tag_396\n        /* \"#utility.yul\":2678:2685   */\n      dup6\n        /* \"#utility.yul\":2669:2675   */\n      dup3\n        /* \"#utility.yul\":2658:2667   */\n      dup7\n        /* \"#utility.yul\":2654:2676   */\n      add\n        /* \"#utility.yul\":2606:2686   */\n      tag_361\n      jump\t// in\n    tag_396:\n        /* \"#utility.yul\":2588:2686   */\n      swap3\n      pop\n      swap3\n      pop\n        /* \"#utility.yul\":2384:2696   */\n      pop\n        /* \"#utility.yul\":2144:2703   */\n      swap3\n      pop\n      swap3\n      swap1\n      pop\n      jump\t// out\n        /* \"#utility.yul\":2709:3054   */\n    tag_115:\n        /* \"#utility.yul\":2776:2782   */\n      0x00\n        /* \"#utility.yul\":2825:2827   */\n      0x20\n        /* \"#utility.yul\":2813:2822   */\n      dup3\n        /* \"#utility.yul\":2804:2811   */\n      dup5\n        /* \"#utility.yul\":2800:2823   */\n      sub\n        /* \"#utility.yul\":2796:2828   */\n      slt\n        /* \"#utility.yul\":2793:2912   */\n      iszero\n      tag_398\n      jumpi\n        /* \"#utility.yul\":2831:2910   */\n      tag_399\n      tag_388\n      jump\t// in\n    tag_399:\n        /* \"#utility.yul\":2793:2912   */\n    tag_398:\n        /* \"#utility.yul\":2951:2952   */\n      0x00\n        /* \"#utility.yul\":2976:3037   */\n      tag_400\n        /* \"#utility.yul\":3029:3036   */\n      dup5\n        /* \"#utility.yul\":3020:3026   */\n      dup3\n        /* \"#utility.yul\":3009:3018   */\n      dup6\n        /* \"#utility.yul\":3005:3027   */\n      add\n        /* \"#utility.yul\":2976:3037   */\n      tag_372\n      jump\t// in\n    tag_400:\n        /* \"#utility.yul\":2966:3037   */\n      swap2\n      pop\n        /* \"#utility.yul\":2922:3047   */\n      pop\n        /* \"#utility.yul\":2709:3054   */\n      swap3\n      swap2\n      pop\n      pop\n      jump\t// out\n        /* \"#utility.yul\":3060:3389   */\n    tag_45:\n        /* \"#utility.yul\":3119:3125   */\n      0x00\n        /* \"#utility.yul\":3168:3170   */\n      0x20\n        /* \"#utility.yul\":3156:3165   */\n      dup3\n        /* \"#utility.yul\":3147:3154   */\n      dup5\n        /* \"#utility.yul\":3143:3166   */\n      sub\n        /* \"#utility.yul\":3139:3171   */\n      slt\n        /* \"#utility.yul\":3136:3255   */\n      iszero\n      tag_402\n      jumpi\n        /* \"#utility.yul\":3174:3253   */\n      tag_403\n      tag_388\n      jump\t// in\n    tag_403:\n        /* \"#utility.yul\":3136:3255   */\n    tag_402:\n        /* \"#utility.yul\":3294:3295   */\n      0x00\n        /* \"#utility.yul\":3319:3372   */\n      tag_404\n        /* \"#utility.yul\":3364:3371   */\n      dup5\n        /* \"#utility.yul\":3355:3361   */\n      dup3\n        /* \"#utility.yul\":3344:3353   */\n      dup6\n        /* \"#utility.yul\":3340:3362   */\n      add\n        /* \"#utility.yul\":3319:3372   */\n      tag_381\n      jump\t// in\n    tag_404:\n        /* \"#utility.yul\":3309:3372   */\n      swap2\n      pop\n        /* \"#utility.yul\":3265:3382   */\n      pop\n        /* \"#utility.yul\":3060:3389   */\n      swap3\n      swap2\n      pop\n      pop\n      jump\t// out\n        /* \"#utility.yul\":3395:4924   */\n    tag_71:\n        /* \"#utility.yul\":3527:3533   */\n      0x00\n        /* \"#utility.yul\":3535:3541   */\n      dup1\n        /* \"#utility.yul\":3543:3549   */\n      0x00\n        /* \"#utility.yul\":3551:3557   */\n      dup1\n        /* \"#utility.yul\":3559:3565   */\n      0x00\n        /* \"#utility.yul\":3567:3573   */\n      dup1\n        /* \"#utility.yul\":3575:3581   */\n      0x00\n        /* \"#utility.yul\":3583:3589   */\n      dup1\n        /* \"#utility.yul\":3632:3635   */\n      0x0100\n        /* \"#utility.yul\":3620:3629   */\n      dup10\n        /* \"#utility.yul\":3611:3618   */\n      dup12\n        /* \"#utility.yul\":3607:3630   */\n      sub\n        /* \"#utility.yul\":3603:3636   */\n      slt\n        /* \"#utility.yul\":3600:3720   */\n      iszero\n      tag_406\n      jumpi\n        /* \"#utility.yul\":3639:3718   */\n      tag_407\n      tag_388\n      jump\t// in\n    tag_407:\n        /* \"#utility.yul\":3600:3720   */\n    tag_406:\n        /* \"#utility.yul\":3759:3760   */\n      0x00\n        /* \"#utility.yul\":3784:3837   */\n      tag_408\n        /* \"#utility.yul\":3829:3836   */\n      dup12\n        /* \"#utility.yul\":3820:3826   */\n      dup3\n        /* \"#utility.yul\":3809:3818   */\n      dup13\n        /* \"#utility.yul\":3805:3827   */\n      add\n        /* \"#utility.yul\":3784:3837   */\n      tag_381\n      jump\t// in\n    tag_408:\n        /* \"#utility.yul\":3774:3837   */\n      swap9\n      pop\n        /* \"#utility.yul\":3730:3847   */\n      pop\n        /* \"#utility.yul\":3914:3916   */\n      0x20\n        /* \"#utility.yul\":3903:3912   */\n      dup10\n        /* \"#utility.yul\":3899:3917   */\n      add\n        /* \"#utility.yul\":3886:3918   */\n      calldataload\n        /* \"#utility.yul\":3945:3963   */\n      0xffffffffffffffff\n        /* \"#utility.yul\":3937:3943   */\n      dup2\n        /* \"#utility.yul\":3934:3964   */\n      gt\n        /* \"#utility.yul\":3931:4048   */\n      iszero\n      tag_409\n      jumpi\n        /* \"#utility.yul\":3967:4046   */\n      tag_410\n      tag_395\n      jump\t// in\n    tag_410:\n        /* \"#utility.yul\":3931:4048   */\n    tag_409:\n        /* \"#utility.yul\":4072:4135   */\n      tag_411\n        /* \"#utility.yul\":4127:4134   */\n      dup12\n        /* \"#utility.yul\":4118:4124   */\n      dup3\n        /* \"#utility.yul\":4107:4116   */\n      dup13\n        /* \"#utility.yul\":4103:4125   */\n      add\n        /* \"#utility.yul\":4072:4135   */\n      tag_376\n      jump\t// in\n    tag_411:\n        /* \"#utility.yul\":4062:4135   */\n      swap8\n      pop\n        /* \"#utility.yul\":3857:4145   */\n      pop\n        /* \"#utility.yul\":4184:4186   */\n      0x40\n        /* \"#utility.yul\":4210:4263   */\n      tag_412\n        /* \"#utility.yul\":4255:4262   */\n      dup12\n        /* \"#utility.yul\":4246:4252   */\n      dup3\n        /* \"#utility.yul\":4235:4244   */\n      dup13\n        /* \"#utility.yul\":4231:4253   */\n      add\n        /* \"#utility.yul\":4210:4263   */\n      tag_381\n      jump\t// in\n    tag_412:\n        /* \"#utility.yul\":4200:4263   */\n      swap7\n      pop\n        /* \"#utility.yul\":4155:4273   */\n      pop\n        /* \"#utility.yul\":4312:4314   */\n      0x60\n        /* \"#utility.yul\":4338:4391   */\n      tag_413\n        /* \"#utility.yul\":4383:4390   */\n      dup12\n        /* \"#utility.yul\":4374:4380   */\n      dup3\n        /* \"#utility.yul\":4363:4372   */\n      dup13\n        /* \"#utility.yul\":4359:4381   */\n      add\n        /* \"#utility.yul\":4338:4391   */\n      tag_357\n      jump\t// in\n    tag_413:\n        /* \"#utility.yul\":4328:4391   */\n      swap6\n      pop\n        /* \"#utility.yul\":4283:4401   */\n      pop\n        /* \"#utility.yul\":4440:4443   */\n      0x80\n        /* \"#utility.yul\":4467:4520   */\n      tag_414\n        /* \"#utility.yul\":4512:4519   */\n      dup12\n        /* \"#utility.yul\":4503:4509   */\n      dup3\n        /* \"#utility.yul\":4492:4501   */\n      dup13\n        /* \"#utility.yul\":4488:4510   */\n      add\n        /* \"#utility.yul\":4467:4520   */\n      tag_381\n      jump\t// in\n    tag_414:\n        /* \"#utility.yul\":4457:4520   */\n      swap5\n      pop\n        /* \"#utility.yul\":4411:4530   */\n      pop\n        /* \"#utility.yul\":4569:4572   */\n      0xa0\n        /* \"#utility.yul\":4596:4649   */\n      tag_415\n        /* \"#utility.yul\":4641:4648   */\n      dup12\n        /* \"#utility.yul\":4632:4638   */\n      dup3\n        /* \"#utility.yul\":4621:4630   */\n      dup13\n        /* \"#utility.yul\":4617:4639   */\n      add\n        /* \"#utility.yul\":4596:4649   */\n      tag_381\n      jump\t// in\n    tag_415:\n        /* \"#utility.yul\":4586:4649   */\n      swap4\n      pop\n        /* \"#utility.yul\":4540:4659   */\n      pop\n        /* \"#utility.yul\":4698:4701   */\n      0xc0\n        /* \"#utility.yul\":4725:4778   */\n      tag_416\n        /* \"#utility.yul\":4770:4777   */\n      dup12\n        /* \"#utility.yul\":4761:4767   */\n      dup3\n        /* \"#utility.yul\":4750:4759   */\n      dup13\n        /* \"#utility.yul\":4746:4768   */\n      add\n        /* \"#utility.yul\":4725:4778   */\n      tag_381\n      jump\t// in\n    tag_416:\n        /* \"#utility.yul\":4715:4778   */\n      swap3\n      pop\n        /* \"#utility.yul\":4669:4788   */\n      pop\n        /* \"#utility.yul\":4827:4830   */\n      0xe0\n        /* \"#utility.yul\":4854:4907   */\n      tag_417\n        /* \"#utility.yul\":4899:4906   */\n      dup12\n        /* \"#utility.yul\":4890:4896   */\n      dup3\n        /* \"#utility.yul\":4879:4888   */\n      dup13\n        /* \"#utility.yul\":4875:4897   */\n      add\n        /* \"#utility.yul\":4854:4907   */\n      tag_381\n      jump\t// in\n    tag_417:\n        /* \"#utility.yul\":4844:4907   */\n      swap2\n      pop\n        /* \"#utility.yul\":4798:4917   */\n      pop\n        /* \"#utility.yul\":3395:4924   */\n      swap3\n      swap6\n      swap9\n      pop\n      swap3\n      swap6\n      swap9\n      swap1\n      swap4\n      swap7\n      pop\n      jump\t// out\n        /* \"#utility.yul\":4930:5109   */\n    tag_418:\n        /* \"#utility.yul\":4999:5009   */\n      0x00\n        /* \"#utility.yul\":5020:5066   */\n      tag_420\n        /* \"#utility.yul\":5062:5065   */\n      dup4\n        /* \"#utility.yul\":5054:5060   */\n      dup4\n        /* \"#utility.yul\":5020:5066   */\n      tag_421\n      jump\t// in\n    tag_420:\n        /* \"#utility.yul\":5098:5102   */\n      0x20\n        /* \"#utility.yul\":5093:5096   */\n      dup4\n        /* \"#utility.yul\":5089:5103   */\n      add\n        /* \"#utility.yul\":5075:5103   */\n      swap1\n      pop\n        /* \"#utility.yul\":4930:5109   */\n      swap3\n      swap2\n      pop\n      pop\n      jump\t// out\n        /* \"#utility.yul\":5115:5223   */\n    tag_421:\n        /* \"#utility.yul\":5192:5216   */\n      tag_423\n        /* \"#utility.yul\":5210:5215   */\n      dup2\n        /* \"#utility.yul\":5192:5216   */\n      tag_424\n      jump\t// in\n    tag_423:\n        /* \"#utility.yul\":5187:5190   */\n      dup3\n        /* \"#utility.yul\":5180:5217   */\n      mstore\n        /* \"#utility.yul\":5115:5223   */\n      pop\n      pop\n      jump\t// out\n        /* \"#utility.yul\":5229:5347   */\n    tag_425:\n        /* \"#utility.yul\":5316:5340   */\n      tag_427\n        /* \"#utility.yul\":5334:5339   */\n      dup2\n        /* \"#utility.yul\":5316:5340   */\n      tag_424\n      jump\t// in\n    tag_427:\n        /* \"#utility.yul\":5311:5314   */\n      dup3\n        /* \"#utility.yul\":5304:5341   */\n      mstore\n        /* \"#utility.yul\":5229:5347   */\n      pop\n      pop\n      jump\t// out\n        /* \"#utility.yul\":5383:6115   */\n    tag_428:\n        /* \"#utility.yul\":5502:5505   */\n      0x00\n        /* \"#utility.yul\":5531:5585   */\n      tag_430\n        /* \"#utility.yul\":5579:5584   */\n      dup3\n        /* \"#utility.yul\":5531:5585   */\n      tag_431\n      jump\t// in\n    tag_430:\n        /* \"#utility.yul\":5601:5687   */\n      tag_432\n        /* \"#utility.yul\":5680:5686   */\n      dup2\n        /* \"#utility.yul\":5675:5678   */\n      dup6\n        /* \"#utility.yul\":5601:5687   */\n      tag_433\n      jump\t// in\n    tag_432:\n        /* \"#utility.yul\":5594:5687   */\n      swap4\n      pop\n        /* \"#utility.yul\":5711:5767   */\n      tag_434\n        /* \"#utility.yul\":5761:5766   */\n      dup4\n        /* \"#utility.yul\":5711:5767   */\n      tag_435\n      jump\t// in\n    tag_434:\n        /* \"#utility.yul\":5790:5797   */\n      dup1\n        /* \"#utility.yul\":5821:5822   */\n      0x00\n        /* \"#utility.yul\":5806:6090   */\n    tag_436:\n        /* \"#utility.yul\":5831:5837   */\n      dup4\n        /* \"#utility.yul\":5828:5829   */\n      dup2\n        /* \"#utility.yul\":5825:5838   */\n      lt\n        /* \"#utility.yul\":5806:6090   */\n      iszero\n      tag_438\n      jumpi\n        /* \"#utility.yul\":5907:5913   */\n      dup2\n        /* \"#utility.yul\":5901:5914   */\n      mload\n        /* \"#utility.yul\":5934:5997   */\n      tag_439\n        /* \"#utility.yul\":5993:5996   */\n      dup9\n        /* \"#utility.yul\":5978:5991   */\n      dup3\n        /* \"#utility.yul\":5934:5997   */\n      tag_418\n      jump\t// in\n    tag_439:\n        /* \"#utility.yul\":5927:5997   */\n      swap8\n      pop\n        /* \"#utility.yul\":6020:6080   */\n      tag_440\n        /* \"#utility.yul\":6073:6079   */\n      dup4\n        /* \"#utility.yul\":6020:6080   */\n      tag_441\n      jump\t// in\n    tag_440:\n        /* \"#utility.yul\":6010:6080   */\n      swap3\n      pop\n        /* \"#utility.yul\":5866:6090   */\n      pop\n        /* \"#utility.yul\":5853:5854   */\n      0x01\n        /* \"#utility.yul\":5850:5851   */\n      dup2\n        /* \"#utility.yul\":5846:5855   */\n      add\n        /* \"#utility.yul\":5841:5855   */\n      swap1\n      pop\n        /* \"#utility.yul\":5806:6090   */\n      jump(tag_436)\n    tag_438:\n        /* \"#utility.yul\":5810:5824   */\n      pop\n        /* \"#utility.yul\":6106:6109   */\n      dup6\n        /* \"#utility.yul\":6099:6109   */\n      swap4\n      pop\n        /* \"#utility.yul\":5507:6115   */\n      pop\n      pop\n      pop\n        /* \"#utility.yul\":5383:6115   */\n      swap3\n      swap2\n      pop\n      pop\n      jump\t// out\n        /* \"#utility.yul\":6121:6230   */\n    tag_442:\n        /* \"#utility.yul\":6202:6223   */\n      tag_444\n        /* \"#utility.yul\":6217:6222   */\n      dup2\n        /* \"#utility.yul\":6202:6223   */\n      tag_445\n      jump\t// in\n    tag_444:\n        /* \"#utility.yul\":6197:6200   */\n      dup3\n        /* \"#utility.yul\":6190:6224   */\n      mstore\n        /* \"#utility.yul\":6121:6230   */\n      pop\n      pop\n      jump\t// out\n        /* \"#utility.yul\":6236:6354   */\n    tag_446:\n        /* \"#utility.yul\":6323:6347   */\n      tag_448\n        /* \"#utility.yul\":6341:6346   */\n      dup2\n        /* \"#utility.yul\":6323:6347   */\n      tag_449\n      jump\t// in\n    tag_448:\n        /* \"#utility.yul\":6318:6321   */\n      dup3\n        /* \"#utility.yul\":6311:6348   */\n      mstore\n        /* \"#utility.yul\":6236:6354   */\n      pop\n      pop\n      jump\t// out\n        /* \"#utility.yul\":6360:6537   */\n    tag_450:\n        /* \"#utility.yul\":6470:6530   */\n      tag_452\n        /* \"#utility.yul\":6524:6529   */\n      dup2\n        /* \"#utility.yul\":6470:6530   */\n      tag_453\n      jump\t// in\n    tag_452:\n        /* \"#utility.yul\":6465:6468   */\n      dup3\n        /* \"#utility.yul\":6458:6531   */\n      mstore\n        /* \"#utility.yul\":6360:6537   */\n      pop\n      pop\n      jump\t// out\n        /* \"#utility.yul\":6543:6692   */\n    tag_454:\n        /* \"#utility.yul\":6639:6685   */\n      tag_456\n        /* \"#utility.yul\":6679:6684   */\n      dup2\n        /* \"#utility.yul\":6639:6685   */\n      tag_457\n      jump\t// in\n    tag_456:\n        /* \"#utility.yul\":6634:6637   */\n      dup3\n        /* \"#utility.yul\":6627:6686   */\n      mstore\n        /* \"#utility.yul\":6543:6692   */\n      pop\n      pop\n      jump\t// out\n        /* \"#utility.yul\":6698:7062   */\n    tag_458:\n        /* \"#utility.yul\":6786:6789   */\n      0x00\n        /* \"#utility.yul\":6814:6853   */\n      tag_460\n        /* \"#utility.yul\":6847:6852   */\n      dup3\n        /* \"#utility.yul\":6814:6853   */\n      tag_461\n      jump\t// in\n    tag_460:\n        /* \"#utility.yul\":6869:6940   */\n      tag_462\n        /* \"#utility.yul\":6933:6939   */\n      dup2\n        /* \"#utility.yul\":6928:6931   */\n      dup6\n        /* \"#utility.yul\":6869:6940   */\n      tag_463\n      jump\t// in\n    tag_462:\n        /* \"#utility.yul\":6862:6940   */\n      swap4\n      pop\n        /* \"#utility.yul\":6949:7001   */\n      tag_464\n        /* \"#utility.yul\":6994:7000   */\n      dup2\n        /* \"#utility.yul\":6989:6992   */\n      dup6\n        /* \"#utility.yul\":6982:6986   */\n      0x20\n        /* \"#utility.yul\":6975:6980   */\n      dup7\n        /* \"#utility.yul\":6971:6987   */\n      add\n        /* \"#utility.yul\":6949:7001   */\n      tag_465\n      jump\t// in\n    tag_464:\n        /* \"#utility.yul\":7026:7055   */\n      tag_466\n        /* \"#utility.yul\":7048:7054   */\n      dup2\n        /* \"#utility.yul\":7026:7055   */\n      tag_467\n      jump\t// in\n    tag_466:\n        /* \"#utility.yul\":7021:7024   */\n      dup5\n        /* \"#utility.yul\":7017:7056   */\n      add\n        /* \"#utility.yul\":7010:7056   */\n      swap2\n      pop\n        /* \"#utility.yul\":6790:7062   */\n      pop\n        /* \"#utility.yul\":6698:7062   */\n      swap3\n      swap2\n      pop\n      pop\n      jump\t// out\n        /* \"#utility.yul\":7068:7434   */\n    tag_468:\n        /* \"#utility.yul\":7210:7213   */\n      0x00\n        /* \"#utility.yul\":7231:7298   */\n      tag_470\n        /* \"#utility.yul\":7295:7297   */\n      0x10\n        /* \"#utility.yul\":7290:7293   */\n      dup4\n        /* \"#utility.yul\":7231:7298   */\n      tag_463\n      jump\t// in\n    tag_470:\n        /* \"#utility.yul\":7224:7298   */\n      swap2\n      pop\n        /* \"#utility.yul\":7307:7400   */\n      tag_471\n        /* \"#utility.yul\":7396:7399   */\n      dup3\n        /* \"#utility.yul\":7307:7400   */\n      tag_472\n      jump\t// in\n    tag_471:\n        /* \"#utility.yul\":7425:7427   */\n      0x20\n        /* \"#utility.yul\":7420:7423   */\n      dup3\n        /* \"#utility.yul\":7416:7428   */\n      add\n        /* \"#utility.yul\":7409:7428   */\n      swap1\n      pop\n        /* \"#utility.yul\":7068:7434   */\n      swap2\n      swap1\n      pop\n      jump\t// out\n        /* \"#utility.yul\":7440:7806   */\n    tag_473:\n        /* \"#utility.yul\":7582:7585   */\n      0x00\n        /* \"#utility.yul\":7603:7670   */\n      tag_475\n        /* \"#utility.yul\":7667:7669   */\n      0x11\n        /* \"#utility.yul\":7662:7665   */\n      dup4\n        /* \"#utility.yul\":7603:7670   */\n      tag_463\n      jump\t// in\n    tag_475:\n        /* \"#utility.yul\":7596:7670   */\n      swap2\n      pop\n        /* \"#utility.yul\":7679:7772   */\n      tag_476\n        /* \"#utility.yul\":7768:7771   */\n      dup3\n        /* \"#utility.yul\":7679:7772   */\n      tag_477\n      jump\t// in\n    tag_476:\n        /* \"#utility.yul\":7797:7799   */\n      0x20\n        /* \"#utility.yul\":7792:7795   */\n      dup3\n        /* \"#utility.yul\":7788:7800   */\n      add\n        /* \"#utility.yul\":7781:7800   */\n      swap1\n      pop\n        /* \"#utility.yul\":7440:7806   */\n      swap2\n      swap1\n      pop\n      jump\t// out\n        /* \"#utility.yul\":7812:8178   */\n    tag_478:\n        /* \"#utility.yul\":7954:7957   */\n      0x00\n        /* \"#utility.yul\":7975:8042   */\n      tag_480\n        /* \"#utility.yul\":8039:8041   */\n      0x0a\n        /* \"#utility.yul\":8034:8037   */\n      dup4\n        /* \"#utility.yul\":7975:8042   */\n      tag_463\n      jump\t// in\n    tag_480:\n        /* \"#utility.yul\":7968:8042   */\n      swap2\n      pop\n        /* \"#utility.yul\":8051:8144   */\n      tag_481\n        /* \"#utility.yul\":8140:8143   */\n      dup3\n        /* \"#utility.yul\":8051:8144   */\n      tag_482\n      jump\t// in\n    tag_481:\n        /* \"#utility.yul\":8169:8171   */\n      0x20\n        /* \"#utility.yul\":8164:8167   */\n      dup3\n        /* \"#utility.yul\":8160:8172   */\n      add\n        /* \"#utility.yul\":8153:8172   */\n      swap1\n      pop\n        /* \"#utility.yul\":7812:8178   */\n      swap2\n      swap1\n      pop\n      jump\t// out\n        /* \"#utility.yul\":8184:8550   */\n    tag_483:\n        /* \"#utility.yul\":8326:8329   */\n      0x00\n        /* \"#utility.yul\":8347:8414   */\n      tag_485\n        /* \"#utility.yul\":8411:8413   */\n      0x10\n        /* \"#utility.yul\":8406:8409   */\n      dup4\n        /* \"#utility.yul\":8347:8414   */\n      tag_463\n      jump\t// in\n    tag_485:\n        /* \"#utility.yul\":8340:8414   */\n      swap2\n      pop\n        /* \"#utility.yul\":8423:8516   */\n      tag_486\n        /* \"#utility.yul\":8512:8515   */\n      dup3\n        /* \"#utility.yul\":8423:8516   */\n      tag_487\n      jump\t// in\n    tag_486:\n        /* \"#utility.yul\":8541:8543   */\n      0x20\n        /* \"#utility.yul\":8536:8539   */\n      dup3\n        /* \"#utility.yul\":8532:8544   */\n      add\n        /* \"#utility.yul\":8525:8544   */\n      swap1\n      pop\n        /* \"#utility.yul\":8184:8550   */\n      swap2\n      swap1\n      pop\n      jump\t// out\n        /* \"#utility.yul\":8556:8922   */\n    tag_488:\n        /* \"#utility.yul\":8698:8701   */\n      0x00\n        /* \"#utility.yul\":8719:8786   */\n      tag_490\n        /* \"#utility.yul\":8783:8785   */\n      0x1d\n        /* \"#utility.yul\":8778:8781   */\n      dup4\n        /* \"#utility.yul\":8719:8786   */\n      tag_463\n      jump\t// in\n    tag_490:\n        /* \"#utility.yul\":8712:8786   */\n      swap2\n      pop\n        /* \"#utility.yul\":8795:8888   */\n      tag_491\n        /* \"#utility.yul\":8884:8887   */\n      dup3\n        /* \"#utility.yul\":8795:8888   */\n      tag_492\n      jump\t// in\n    tag_491:\n        /* \"#utility.yul\":8913:8915   */\n      0x20\n        /* \"#utility.yul\":8908:8911   */\n      dup3\n        /* \"#utility.yul\":8904:8916   */\n      add\n        /* \"#utility.yul\":8897:8916   */\n      swap1\n      pop\n        /* \"#utility.yul\":8556:8922   */\n      swap2\n      swap1\n      pop\n      jump\t// out\n        /* \"#utility.yul\":8928:9294   */\n    tag_493:\n        /* \"#utility.yul\":9070:9073   */\n      0x00\n        /* \"#utility.yul\":9091:9158   */\n      tag_495\n        /* \"#utility.yul\":9155:9157   */\n      0x12\n        /* \"#utility.yul\":9150:9153   */\n      dup4\n        /* \"#utility.yul\":9091:9158   */\n      tag_463\n      jump\t// in\n    tag_495:\n        /* \"#utility.yul\":9084:9158   */\n      swap2\n      pop\n        /* \"#utility.yul\":9167:9260   */\n      tag_496\n        /* \"#utility.yul\":9256:9259   */\n      dup3\n        /* \"#utility.yul\":9167:9260   */\n      tag_497\n      jump\t// in\n    tag_496:\n        /* \"#utility.yul\":9285:9287   */\n      0x20\n        /* \"#utility.yul\":9280:9283   */\n      dup3\n        /* \"#utility.yul\":9276:9288   */\n      add\n        /* \"#utility.yul\":9269:9288   */\n      swap1\n      pop\n        /* \"#utility.yul\":8928:9294   */\n      swap2\n      swap1\n      pop\n      jump\t// out\n        /* \"#utility.yul\":9300:9666   */\n    tag_498:\n        /* \"#utility.yul\":9442:9445   */\n      0x00\n        /* \"#utility.yul\":9463:9530   */\n      tag_500\n        /* \"#utility.yul\":9527:9529   */\n      0x13\n        /* \"#utility.yul\":9522:9525   */\n      dup4\n        /* \"#utility.yul\":9463:9530   */\n      tag_463\n      jump\t// in\n    tag_500:\n        /* \"#utility.yul\":9456:9530   */\n      swap2\n      pop\n        /* \"#utility.yul\":9539:9632   */\n      tag_501\n        /* \"#utility.yul\":9628:9631   */\n      dup3\n        /* \"#utility.yul\":9539:9632   */\n      tag_502\n      jump\t// in\n    tag_501:\n        /* \"#utility.yul\":9657:9659   */\n      0x20\n        /* \"#utility.yul\":9652:9655   */\n      dup3\n        /* \"#utility.yul\":9648:9660   */\n      add\n        /* \"#utility.yul\":9641:9660   */\n      swap1\n      pop\n        /* \"#utility.yul\":9300:9666   */\n      swap2\n      swap1\n      pop\n      jump\t// out\n        /* \"#utility.yul\":9672:10038   */\n    tag_503:\n        /* \"#utility.yul\":9814:9817   */\n      0x00\n        /* \"#utility.yul\":9835:9902   */\n      tag_505\n        /* \"#utility.yul\":9899:9901   */\n      0x17\n        /* \"#utility.yul\":9894:9897   */\n      dup4\n        /* \"#utility.yul\":9835:9902   */\n      tag_463\n      jump\t// in\n    tag_505:\n        /* \"#utility.yul\":9828:9902   */\n      swap2\n      pop\n        /* \"#utility.yul\":9911:10004   */\n      tag_506\n        /* \"#utility.yul\":10000:10003   */\n      dup3\n        /* \"#utility.yul\":9911:10004   */\n      tag_507\n      jump\t// in\n    tag_506:\n        /* \"#utility.yul\":10029:10031   */\n      0x20\n        /* \"#utility.yul\":10024:10027   */\n      dup3\n        /* \"#utility.yul\":10020:10032   */\n      add\n        /* \"#utility.yul\":10013:10032   */\n      swap1\n      pop\n        /* \"#utility.yul\":9672:10038   */\n      swap2\n      swap1\n      pop\n      jump\t// out\n        /* \"#utility.yul\":10044:10410   */\n    tag_508:\n        /* \"#utility.yul\":10186:10189   */\n      0x00\n        /* \"#utility.yul\":10207:10274   */\n      tag_510\n        /* \"#utility.yul\":10271:10273   */\n      0x0f\n        /* \"#utility.yul\":10266:10269   */\n      dup4\n        /* \"#utility.yul\":10207:10274   */\n      tag_463\n      jump\t// in\n    tag_510:\n        /* \"#utility.yul\":10200:10274   */\n      swap2\n      pop\n        /* \"#utility.yul\":10283:10376   */\n      tag_511\n        /* \"#utility.yul\":10372:10375   */\n      dup3\n        /* \"#utility.yul\":10283:10376   */\n      tag_512\n      jump\t// in\n    tag_511:\n        /* \"#utility.yul\":10401:10403   */\n      0x20\n        /* \"#utility.yul\":10396:10399   */\n      dup3\n        /* \"#utility.yul\":10392:10404   */\n      add\n        /* \"#utility.yul\":10385:10404   */\n      swap1\n      pop\n        /* \"#utility.yul\":10044:10410   */\n      swap2\n      swap1\n      pop\n      jump\t// out\n        /* \"#utility.yul\":10416:10782   */\n    tag_513:\n        /* \"#utility.yul\":10558:10561   */\n      0x00\n        /* \"#utility.yul\":10579:10646   */\n      tag_515\n        /* \"#utility.yul\":10643:10645   */\n      0x0d\n        /* \"#utility.yul\":10638:10641   */\n      dup4\n        /* \"#utility.yul\":10579:10646   */\n      tag_463\n      jump\t// in\n    tag_515:\n        /* \"#utility.yul\":10572:10646   */\n      swap2\n      pop\n        /* \"#utility.yul\":10655:10748   */\n      tag_516\n        /* \"#utility.yul\":10744:10747   */\n      dup3\n        /* \"#utility.yul\":10655:10748   */\n      tag_517\n      jump\t// in\n    tag_516:\n        /* \"#utility.yul\":10773:10775   */\n      0x20\n        /* \"#utility.yul\":10768:10771   */\n      dup3\n        /* \"#utility.yul\":10764:10776   */\n      add\n        /* \"#utility.yul\":10757:10776   */\n      swap1\n      pop\n        /* \"#utility.yul\":10416:10782   */\n      swap2\n      swap1\n      pop\n      jump\t// out\n        /* \"#utility.yul\":10788:11154   */\n    tag_518:\n        /* \"#utility.yul\":10930:10933   */\n      0x00\n        /* \"#utility.yul\":10951:11018   */\n      tag_520\n        /* \"#utility.yul\":11015:11017   */\n      0x0d\n        /* \"#utility.yul\":11010:11013   */\n      dup4\n        /* \"#utility.yul\":10951:11018   */\n      tag_463\n      jump\t// in\n    tag_520:\n        /* \"#utility.yul\":10944:11018   */\n      swap2\n      pop\n        /* \"#utility.yul\":11027:11120   */\n      tag_521\n        /* \"#utility.yul\":11116:11119   */\n      dup3\n        /* \"#utility.yul\":11027:11120   */\n      tag_522\n      jump\t// in\n    tag_521:\n        /* \"#utility.yul\":11145:11147   */\n      0x20\n        /* \"#utility.yul\":11140:11143   */\n      dup3\n        /* \"#utility.yul\":11136:11148   */\n      add\n        /* \"#utility.yul\":11129:11148   */\n      swap1\n      pop\n        /* \"#utility.yul\":10788:11154   */\n      swap2\n      swap1\n      pop\n      jump\t// out\n        /* \"#utility.yul\":11160:11278   */\n    tag_523:\n        /* \"#utility.yul\":11247:11271   */\n      tag_525\n        /* \"#utility.yul\":11265:11270   */\n      dup2\n        /* \"#utility.yul\":11247:11271   */\n      tag_526\n      jump\t// in\n    tag_525:\n        /* \"#utility.yul\":11242:11245   */\n      dup3\n        /* \"#utility.yul\":11235:11272   */\n      mstore\n        /* \"#utility.yul\":11160:11278   */\n      pop\n      pop\n      jump\t// out\n        /* \"#utility.yul\":11284:11506   */\n    tag_38:\n        /* \"#utility.yul\":11377:11381   */\n      0x00\n        /* \"#utility.yul\":11415:11417   */\n      0x20\n        /* \"#utility.yul\":11404:11413   */\n      dup3\n        /* \"#utility.yul\":11400:11418   */\n      add\n        /* \"#utility.yul\":11392:11418   */\n      swap1\n      pop\n        /* \"#utility.yul\":11428:11499   */\n      tag_528\n        /* \"#utility.yul\":11496:11497   */\n      0x00\n        /* \"#utility.yul\":11485:11494   */\n      dup4\n        /* \"#utility.yul\":11481:11498   */\n      add\n        /* \"#utility.yul\":11472:11478   */\n      dup5\n        /* \"#utility.yul\":11428:11499   */\n      tag_425\n      jump\t// in\n    tag_528:\n        /* \"#utility.yul\":11284:11506   */\n      swap3\n      swap2\n      pop\n      pop\n      jump\t// out\n        /* \"#utility.yul\":11512:11832   */\n    tag_63:\n        /* \"#utility.yul\":11627:11631   */\n      0x00\n        /* \"#utility.yul\":11665:11667   */\n      0x40\n        /* \"#utility.yul\":11654:11663   */\n      dup3\n        /* \"#utility.yul\":11650:11668   */\n      add\n        /* \"#utility.yul\":11642:11668   */\n      swap1\n      pop\n        /* \"#utility.yul\":11678:11749   */\n      tag_530\n        /* \"#utility.yul\":11746:11747   */\n      0x00\n        /* \"#utility.yul\":11735:11744   */\n      dup4\n        /* \"#utility.yul\":11731:11748   */\n      add\n        /* \"#utility.yul\":11722:11728   */\n      dup6\n        /* \"#utility.yul\":11678:11749   */\n      tag_425\n      jump\t// in\n    tag_530:\n        /* \"#utility.yul\":11759:11825   */\n      tag_531\n        /* \"#utility.yul\":11821:11823   */\n      0x20\n        /* \"#utility.yul\":11810:11819   */\n      dup4\n        /* \"#utility.yul\":11806:11824   */\n      add\n        /* \"#utility.yul\":11797:11803   */\n      dup5\n        /* \"#utility.yul\":11759:11825   */\n      tag_442\n      jump\t// in\n    tag_531:\n        /* \"#utility.yul\":11512:11832   */\n      swap4\n      swap3\n      pop\n      pop\n      pop\n      jump\t// out\n        /* \"#utility.yul\":11838:12170   */\n    tag_216:\n        /* \"#utility.yul\":11959:11963   */\n      0x00\n        /* \"#utility.yul\":11997:11999   */\n      0x40\n        /* \"#utility.yul\":11986:11995   */\n      dup3\n        /* \"#utility.yul\":11982:12000   */\n      add\n        /* \"#utility.yul\":11974:12000   */\n      swap1\n      pop\n        /* \"#utility.yul\":12010:12081   */\n      tag_533\n        /* \"#utility.yul\":12078:12079   */\n      0x00\n        /* \"#utility.yul\":12067:12076   */\n      dup4\n        /* \"#utility.yul\":12063:12080   */\n      add\n        /* \"#utility.yul\":12054:12060   */\n      dup6\n        /* \"#utility.yul\":12010:12081   */\n      tag_425\n      jump\t// in\n    tag_533:\n        /* \"#utility.yul\":12091:12163   */\n      tag_534\n        /* \"#utility.yul\":12159:12161   */\n      0x20\n        /* \"#utility.yul\":12148:12157   */\n      dup4\n        /* \"#utility.yul\":12144:12162   */\n      add\n        /* \"#utility.yul\":12135:12141   */\n      dup5\n        /* \"#utility.yul\":12091:12163   */\n      tag_523\n      jump\t// in\n    tag_534:\n        /* \"#utility.yul\":11838:12170   */\n      swap4\n      swap3\n      pop\n      pop\n      pop\n      jump\t// out\n        /* \"#utility.yul\":12176:12549   */\n    tag_76:\n        /* \"#utility.yul\":12319:12323   */\n      0x00\n        /* \"#utility.yul\":12357:12359   */\n      0x20\n        /* \"#utility.yul\":12346:12355   */\n      dup3\n        /* \"#utility.yul\":12342:12360   */\n      add\n        /* \"#utility.yul\":12334:12360   */\n      swap1\n      pop\n        /* \"#utility.yul\":12406:12415   */\n      dup2\n        /* \"#utility.yul\":12400:12404   */\n      dup2\n        /* \"#utility.yul\":12396:12416   */\n      sub\n        /* \"#utility.yul\":12392:12393   */\n      0x00\n        /* \"#utility.yul\":12381:12390   */\n      dup4\n        /* \"#utility.yul\":12377:12394   */\n      add\n        /* \"#utility.yul\":12370:12417   */\n      mstore\n        /* \"#utility.yul\":12434:12542   */\n      tag_536\n        /* \"#utility.yul\":12537:12541   */\n      dup2\n        /* \"#utility.yul\":12528:12534   */\n      dup5\n        /* \"#utility.yul\":12434:12542   */\n      tag_428\n      jump\t// in\n    tag_536:\n        /* \"#utility.yul\":12426:12542   */\n      swap1\n      pop\n        /* \"#utility.yul\":12176:12549   */\n      swap3\n      swap2\n      pop\n      pop\n      jump\t// out\n        /* \"#utility.yul\":12555:12765   */\n    tag_68:\n        /* \"#utility.yul\":12642:12646   */\n      0x00\n        /* \"#utility.yul\":12680:12682   */\n      0x20\n        /* \"#utility.yul\":12669:12678   */\n      dup3\n        /* \"#utility.yul\":12665:12683   */\n      add\n        /* \"#utility.yul\":12657:12683   */\n      swap1\n      pop\n        /* \"#utility.yul\":12693:12758   */\n      tag_538\n        /* \"#utility.yul\":12755:12756   */\n      0x00\n        /* \"#utility.yul\":12744:12753   */\n      dup4\n        /* \"#utility.yul\":12740:12757   */\n      add\n        /* \"#utility.yul\":12731:12737   */\n      dup5\n        /* \"#utility.yul\":12693:12758   */\n      tag_442\n      jump\t// in\n    tag_538:\n        /* \"#utility.yul\":12555:12765   */\n      swap3\n      swap2\n      pop\n      pop\n      jump\t// out\n        /* \"#utility.yul\":12771:13103   */\n    tag_110:\n        /* \"#utility.yul\":12892:12896   */\n      0x00\n        /* \"#utility.yul\":12930:12932   */\n      0x40\n        /* \"#utility.yul\":12919:12928   */\n      dup3\n        /* \"#utility.yul\":12915:12933   */\n      add\n        /* \"#utility.yul\":12907:12933   */\n      swap1\n      pop\n        /* \"#utility.yul\":12943:13014   */\n      tag_540\n        /* \"#utility.yul\":13011:13012   */\n      0x00\n        /* \"#utility.yul\":13000:13009   */\n      dup4\n        /* \"#utility.yul\":12996:13013   */\n      add\n        /* \"#utility.yul\":12987:12993   */\n      dup6\n        /* \"#utility.yul\":12943:13014   */\n      tag_446\n      jump\t// in\n    tag_540:\n        /* \"#utility.yul\":13024:13096   */\n      tag_541\n        /* \"#utility.yul\":13092:13094   */\n      0x20\n        /* \"#utility.yul\":13081:13090   */\n      dup4\n        /* \"#utility.yul\":13077:13095   */\n      add\n        /* \"#utility.yul\":13068:13074   */\n      dup5\n        /* \"#utility.yul\":13024:13096   */\n      tag_425\n      jump\t// in\n    tag_541:\n        /* \"#utility.yul\":12771:13103   */\n      swap4\n      swap3\n      pop\n      pop\n      pop\n      jump\t// out\n        /* \"#utility.yul\":13109:13377   */\n    tag_80:\n        /* \"#utility.yul\":13225:13229   */\n      0x00\n        /* \"#utility.yul\":13263:13265   */\n      0x20\n        /* \"#utility.yul\":13252:13261   */\n      dup3\n        /* \"#utility.yul\":13248:13266   */\n      add\n        /* \"#utility.yul\":13240:13266   */\n      swap1\n      pop\n        /* \"#utility.yul\":13276:13370   */\n      tag_543\n        /* \"#utility.yul\":13367:13368   */\n      0x00\n        /* \"#utility.yul\":13356:13365   */\n      dup4\n        /* \"#utility.yul\":13352:13369   */\n      add\n        /* \"#utility.yul\":13343:13349   */\n      dup5\n        /* \"#utility.yul\":13276:13370   */\n      tag_450\n      jump\t// in\n    tag_543:\n        /* \"#utility.yul\":13109:13377   */\n      swap3\n      swap2\n      pop\n      pop\n      jump\t// out\n        /* \"#utility.yul\":13383:13623   */\n    tag_34:\n        /* \"#utility.yul\":13485:13489   */\n      0x00\n        /* \"#utility.yul\":13523:13525   */\n      0x20\n        /* \"#utility.yul\":13512:13521   */\n      dup3\n        /* \"#utility.yul\":13508:13526   */\n      add\n        /* \"#utility.yul\":13500:13526   */\n      swap1\n      pop\n        /* \"#utility.yul\":13536:13616   */\n      tag_545\n        /* \"#utility.yul\":13613:13614   */\n      0x00\n        /* \"#utility.yul\":13602:13611   */\n      dup4\n        /* \"#utility.yul\":13598:13615   */\n      add\n        /* \"#utility.yul\":13589:13595   */\n      dup5\n        /* \"#utility.yul\":13536:13616   */\n      tag_454\n      jump\t// in\n    tag_545:\n        /* \"#utility.yul\":13383:13623   */\n      swap3\n      swap2\n      pop\n      pop\n      jump\t// out\n        /* \"#utility.yul\":13629:14048   */\n    tag_192:\n        /* \"#utility.yul\":13795:13799   */\n      0x00\n        /* \"#utility.yul\":13833:13835   */\n      0x20\n        /* \"#utility.yul\":13822:13831   */\n      dup3\n        /* \"#utility.yul\":13818:13836   */\n      add\n        /* \"#utility.yul\":13810:13836   */\n      swap1\n      pop\n        /* \"#utility.yul\":13882:13891   */\n      dup2\n        /* \"#utility.yul\":13876:13880   */\n      dup2\n        /* \"#utility.yul\":13872:13892   */\n      sub\n        /* \"#utility.yul\":13868:13869   */\n      0x00\n        /* \"#utility.yul\":13857:13866   */\n      dup4\n        /* \"#utility.yul\":13853:13870   */\n      add\n        /* \"#utility.yul\":13846:13893   */\n      mstore\n        /* \"#utility.yul\":13910:14041   */\n      tag_547\n        /* \"#utility.yul\":14036:14040   */\n      dup2\n        /* \"#utility.yul\":13910:14041   */\n      tag_468\n      jump\t// in\n    tag_547:\n        /* \"#utility.yul\":13902:14041   */\n      swap1\n      pop\n        /* \"#utility.yul\":13629:14048   */\n      swap2\n      swap1\n      pop\n      jump\t// out\n        /* \"#utility.yul\":14054:14473   */\n    tag_130:\n        /* \"#utility.yul\":14220:14224   */\n      0x00\n        /* \"#utility.yul\":14258:14260   */\n      0x20\n        /* \"#utility.yul\":14247:14256   */\n      dup3\n        /* \"#utility.yul\":14243:14261   */\n      add\n        /* \"#utility.yul\":14235:14261   */\n      swap1\n      pop\n        /* \"#utility.yul\":14307:14316   */\n      dup2\n        /* \"#utility.yul\":14301:14305   */\n      dup2\n        /* \"#utility.yul\":14297:14317   */\n      sub\n        /* \"#utility.yul\":14293:14294   */\n      0x00\n        /* \"#utility.yul\":14282:14291   */\n      dup4\n        /* \"#utility.yul\":14278:14295   */\n      add\n        /* \"#utility.yul\":14271:14318   */\n      mstore\n        /* \"#utility.yul\":14335:14466   */\n      tag_549\n        /* \"#utility.yul\":14461:14465   */\n      dup2\n        /* \"#utility.yul\":14335:14466   */\n      tag_473\n      jump\t// in\n    tag_549:\n        /* \"#utility.yul\":14327:14466   */\n      swap1\n      pop\n        /* \"#utility.yul\":14054:14473   */\n      swap2\n      swap1\n      pop\n      jump\t// out\n        /* \"#utility.yul\":14479:14898   */\n    tag_168:\n        /* \"#utility.yul\":14645:14649   */\n      0x00\n        /* \"#utility.yul\":14683:14685   */\n      0x20\n        /* \"#utility.yul\":14672:14681   */\n      dup3\n        /* \"#utility.yul\":14668:14686   */\n      add\n        /* \"#utility.yul\":14660:14686   */\n      swap1\n      pop\n        /* \"#utility.yul\":14732:14741   */\n      dup2\n        /* \"#utility.yul\":14726:14730   */\n      dup2\n        /* \"#utility.yul\":14722:14742   */\n      sub\n        /* \"#utility.yul\":14718:14719   */\n      0x00\n        /* \"#utility.yul\":14707:14716   */\n      dup4\n        /* \"#utility.yul\":14703:14720   */\n      add\n        /* \"#utility.yul\":14696:14743   */\n      mstore\n        /* \"#utility.yul\":14760:14891   */\n      tag_551\n        /* \"#utility.yul\":14886:14890   */\n      dup2\n        /* \"#utility.yul\":14760:14891   */\n      tag_478\n      jump\t// in\n    tag_551:\n        /* \"#utility.yul\":14752:14891   */\n      swap1\n      pop\n        /* \"#utility.yul\":14479:14898   */\n      swap2\n      swap1\n      pop\n      jump\t// out\n        /* \"#utility.yul\":14904:15323   */\n    tag_118:\n        /* \"#utility.yul\":15070:15074   */\n      0x00\n        /* \"#utility.yul\":15108:15110   */\n      0x20\n        /* \"#utility.yul\":15097:15106   */\n      dup3\n        /* \"#utility.yul\":15093:15111   */\n      add\n        /* \"#utility.yul\":15085:15111   */\n      swap1\n      pop\n        /* \"#utility.yul\":15157:15166   */\n      dup2\n        /* \"#utility.yul\":15151:15155   */\n      dup2\n        /* \"#utility.yul\":15147:15167   */\n      sub\n        /* \"#utility.yul\":15143:15144   */\n      0x00\n        /* \"#utility.yul\":15132:15141   */\n      dup4\n        /* \"#utility.yul\":15128:15145   */\n      add\n        /* \"#utility.yul\":15121:15168   */\n      mstore\n        /* \"#utility.yul\":15185:15316   */\n      tag_553\n        /* \"#utility.yul\":15311:15315   */\n      dup2\n        /* \"#utility.yul\":15185:15316   */\n      tag_483\n      jump\t// in\n    tag_553:\n        /* \"#utility.yul\":15177:15316   */\n      swap1\n      pop\n        /* \"#utility.yul\":14904:15323   */\n      swap2\n      swap1\n      pop\n      jump\t// out\n        /* \"#utility.yul\":15329:15748   */\n    tag_141:\n        /* \"#utility.yul\":15495:15499   */\n      0x00\n        /* \"#utility.yul\":15533:15535   */\n      0x20\n        /* \"#utility.yul\":15522:15531   */\n      dup3\n        /* \"#utility.yul\":15518:15536   */\n      add\n        /* \"#utility.yul\":15510:15536   */\n      swap1\n      pop\n        /* \"#utility.yul\":15582:15591   */\n      dup2\n        /* \"#utility.yul\":15576:15580   */\n      dup2\n        /* \"#utility.yul\":15572:15592   */\n      sub\n        /* \"#utility.yul\":15568:15569   */\n      0x00\n        /* \"#utility.yul\":15557:15566   */\n      dup4\n        /* \"#utility.yul\":15553:15570   */\n      add\n        /* \"#utility.yul\":15546:15593   */\n      mstore\n        /* \"#utility.yul\":15610:15741   */\n      tag_555\n        /* \"#utility.yul\":15736:15740   */\n      dup2\n        /* \"#utility.yul\":15610:15741   */\n      tag_488\n      jump\t// in\n    tag_555:\n        /* \"#utility.yul\":15602:15741   */\n      swap1\n      pop\n        /* \"#utility.yul\":15329:15748   */\n      swap2\n      swap1\n      pop\n      jump\t// out\n        /* \"#utility.yul\":15754:16173   */\n    tag_327:\n        /* \"#utility.yul\":15920:15924   */\n      0x00\n        /* \"#utility.yul\":15958:15960   */\n      0x20\n        /* \"#utility.yul\":15947:15956   */\n      dup3\n        /* \"#utility.yul\":15943:15961   */\n      add\n        /* \"#utility.yul\":15935:15961   */\n      swap1\n      pop\n        /* \"#utility.yul\":16007:16016   */\n      dup2\n        /* \"#utility.yul\":16001:16005   */\n      dup2\n        /* \"#utility.yul\":15997:16017   */\n      sub\n        /* \"#utility.yul\":15993:15994   */\n      0x00\n        /* \"#utility.yul\":15982:15991   */\n      dup4\n        /* \"#utility.yul\":15978:15995   */\n      add\n        /* \"#utility.yul\":15971:16018   */\n      mstore\n        /* \"#utility.yul\":16035:16166   */\n      tag_557\n        /* \"#utility.yul\":16161:16165   */\n      dup2\n        /* \"#utility.yul\":16035:16166   */\n      tag_493\n      jump\t// in\n    tag_557:\n        /* \"#utility.yul\":16027:16166   */\n      swap1\n      pop\n        /* \"#utility.yul\":15754:16173   */\n      swap2\n      swap1\n      pop\n      jump\t// out\n        /* \"#utility.yul\":16179:16598   */\n    tag_234:\n        /* \"#utility.yul\":16345:16349   */\n      0x00\n        /* \"#utility.yul\":16383:16385   */\n      0x20\n        /* \"#utility.yul\":16372:16381   */\n      dup3\n        /* \"#utility.yul\":16368:16386   */\n      add\n        /* \"#utility.yul\":16360:16386   */\n      swap1\n      pop\n        /* \"#utility.yul\":16432:16441   */\n      dup2\n        /* \"#utility.yul\":16426:16430   */\n      dup2\n        /* \"#utility.yul\":16422:16442   */\n      sub\n        /* \"#utility.yul\":16418:16419   */\n      0x00\n        /* \"#utility.yul\":16407:16416   */\n      dup4\n        /* \"#utility.yul\":16403:16420   */\n      add\n        /* \"#utility.yul\":16396:16443   */\n      mstore\n        /* \"#utility.yul\":16460:16591   */\n      tag_559\n        /* \"#utility.yul\":16586:16590   */\n      dup2\n        /* \"#utility.yul\":16460:16591   */\n      tag_498\n      jump\t// in\n    tag_559:\n        /* \"#utility.yul\":16452:16591   */\n      swap1\n      pop\n        /* \"#utility.yul\":16179:16598   */\n      swap2\n      swap1\n      pop\n      jump\t// out\n        /* \"#utility.yul\":16604:17023   */\n    tag_156:\n        /* \"#utility.yul\":16770:16774   */\n      0x00\n        /* \"#utility.yul\":16808:16810   */\n      0x20\n        /* \"#utility.yul\":16797:16806   */\n      dup3\n        /* \"#utility.yul\":16793:16811   */\n      add\n        /* \"#utility.yul\":16785:16811   */\n      swap1\n      pop\n        /* \"#utility.yul\":16857:16866   */\n      dup2\n        /* \"#utility.yul\":16851:16855   */\n      dup2\n        /* \"#utility.yul\":16847:16867   */\n      sub\n        /* \"#utility.yul\":16843:16844   */\n      0x00\n        /* \"#utility.yul\":16832:16841   */\n      dup4\n        /* \"#utility.yul\":16828:16845   */\n      add\n        /* \"#utility.yul\":16821:16868   */\n      mstore\n        /* \"#utility.yul\":16885:17016   */\n      tag_561\n        /* \"#utility.yul\":17011:17015   */\n      dup2\n        /* \"#utility.yul\":16885:17016   */\n      tag_503\n      jump\t// in\n    tag_561:\n        /* \"#utility.yul\":16877:17016   */\n      swap1\n      pop\n        /* \"#utility.yul\":16604:17023   */\n      swap2\n      swap1\n      pop\n      jump\t// out\n        /* \"#utility.yul\":17029:17448   */\n    tag_334:\n        /* \"#utility.yul\":17195:17199   */\n      0x00\n        /* \"#utility.yul\":17233:17235   */\n      0x20\n        /* \"#utility.yul\":17222:17231   */\n      dup3\n        /* \"#utility.yul\":17218:17236   */\n      add\n        /* \"#utility.yul\":17210:17236   */\n      swap1\n      pop\n        /* \"#utility.yul\":17282:17291   */\n      dup2\n        /* \"#utility.yul\":17276:17280   */\n      dup2\n        /* \"#utility.yul\":17272:17292   */\n      sub\n        /* \"#utility.yul\":17268:17269   */\n      0x00\n        /* \"#utility.yul\":17257:17266   */\n      dup4\n        /* \"#utility.yul\":17253:17270   */\n      add\n        /* \"#utility.yul\":17246:17293   */\n      mstore\n        /* \"#utility.yul\":17310:17441   */\n      tag_563\n        /* \"#utility.yul\":17436:17440   */\n      dup2\n        /* \"#utility.yul\":17310:17441   */\n      tag_508\n      jump\t// in\n    tag_563:\n        /* \"#utility.yul\":17302:17441   */\n      swap1\n      pop\n        /* \"#utility.yul\":17029:17448   */\n      swap2\n      swap1\n      pop\n      jump\t// out\n        /* \"#utility.yul\":17454:17873   */\n    tag_227:\n        /* \"#utility.yul\":17620:17624   */\n      0x00\n        /* \"#utility.yul\":17658:17660   */\n      0x20\n        /* \"#utility.yul\":17647:17656   */\n      dup3\n        /* \"#utility.yul\":17643:17661   */\n      add\n        /* \"#utility.yul\":17635:17661   */\n      swap1\n      pop\n        /* \"#utility.yul\":17707:17716   */\n      dup2\n        /* \"#utility.yul\":17701:17705   */\n      dup2\n        /* \"#utility.yul\":17697:17717   */\n      sub\n        /* \"#utility.yul\":17693:17694   */\n      0x00\n        /* \"#utility.yul\":17682:17691   */\n      dup4\n        /* \"#utility.yul\":17678:17695   */\n      add\n        /* \"#utility.yul\":17671:17718   */\n      mstore\n        /* \"#utility.yul\":17735:17866   */\n      tag_565\n        /* \"#utility.yul\":17861:17865   */\n      dup2\n        /* \"#utility.yul\":17735:17866   */\n      tag_513\n      jump\t// in\n    tag_565:\n        /* \"#utility.yul\":17727:17866   */\n      swap1\n      pop\n        /* \"#utility.yul\":17454:17873   */\n      swap2\n      swap1\n      pop\n      jump\t// out\n        /* \"#utility.yul\":17879:18298   */\n    tag_107:\n        /* \"#utility.yul\":18045:18049   */\n      0x00\n        /* \"#utility.yul\":18083:18085   */\n      0x20\n        /* \"#utility.yul\":18072:18081   */\n      dup3\n        /* \"#utility.yul\":18068:18086   */\n      add\n        /* \"#utility.yul\":18060:18086   */\n      swap1\n      pop\n        /* \"#utility.yul\":18132:18141   */\n      dup2\n        /* \"#utility.yul\":18126:18130   */\n      dup2\n        /* \"#utility.yul\":18122:18142   */\n      sub\n        /* \"#utility.yul\":18118:18119   */\n      0x00\n        /* \"#utility.yul\":18107:18116   */\n      dup4\n        /* \"#utility.yul\":18103:18120   */\n      add\n        /* \"#utility.yul\":18096:18143   */\n      mstore\n        /* \"#utility.yul\":18160:18291   */\n      tag_567\n        /* \"#utility.yul\":18286:18290   */\n      dup2\n        /* \"#utility.yul\":18160:18291   */\n      tag_518\n      jump\t// in\n    tag_567:\n        /* \"#utility.yul\":18152:18291   */\n      swap1\n      pop\n        /* \"#utility.yul\":17879:18298   */\n      swap2\n      swap1\n      pop\n      jump\t// out\n        /* \"#utility.yul\":18304:18526   */\n    tag_84:\n        /* \"#utility.yul\":18397:18401   */\n      0x00\n        /* \"#utility.yul\":18435:18437   */\n      0x20\n        /* \"#utility.yul\":18424:18433   */\n      dup3\n        /* \"#utility.yul\":18420:18438   */\n      add\n        /* \"#utility.yul\":18412:18438   */\n      swap1\n      pop\n        /* \"#utility.yul\":18448:18519   */\n      tag_569\n        /* \"#utility.yul\":18516:18517   */\n      0x00\n        /* \"#utility.yul\":18505:18514   */\n      dup4\n        /* \"#utility.yul\":18501:18518   */\n      add\n        /* \"#utility.yul\":18492:18498   */\n      dup5\n        /* \"#utility.yul\":18448:18519   */\n      tag_523\n      jump\t// in\n    tag_569:\n        /* \"#utility.yul\":18304:18526   */\n      swap3\n      swap2\n      pop\n      pop\n      jump\t// out\n        /* \"#utility.yul\":18532:19620   */\n    tag_28:\n        /* \"#utility.yul\":18841:18845   */\n      0x00\n        /* \"#utility.yul\":18879:18882   */\n      0x0100\n        /* \"#utility.yul\":18868:18877   */\n      dup3\n        /* \"#utility.yul\":18864:18883   */\n      add\n        /* \"#utility.yul\":18856:18883   */\n      swap1\n      pop\n        /* \"#utility.yul\":18893:18964   */\n      tag_571\n        /* \"#utility.yul\":18961:18962   */\n      0x00\n        /* \"#utility.yul\":18950:18959   */\n      dup4\n        /* \"#utility.yul\":18946:18963   */\n      add\n        /* \"#utility.yul\":18937:18943   */\n      dup12\n        /* \"#utility.yul\":18893:18964   */\n      tag_523\n      jump\t// in\n    tag_571:\n        /* \"#utility.yul\":19011:19020   */\n      dup2\n        /* \"#utility.yul\":19005:19009   */\n      dup2\n        /* \"#utility.yul\":19001:19021   */\n      sub\n        /* \"#utility.yul\":18996:18998   */\n      0x20\n        /* \"#utility.yul\":18985:18994   */\n      dup4\n        /* \"#utility.yul\":18981:18999   */\n      add\n        /* \"#utility.yul\":18974:19022   */\n      mstore\n        /* \"#utility.yul\":19039:19117   */\n      tag_572\n        /* \"#utility.yul\":19112:19116   */\n      dup2\n        /* \"#utility.yul\":19103:19109   */\n      dup11\n        /* \"#utility.yul\":19039:19117   */\n      tag_458\n      jump\t// in\n    tag_572:\n        /* \"#utility.yul\":19031:19117   */\n      swap1\n      pop\n        /* \"#utility.yul\":19127:19199   */\n      tag_573\n        /* \"#utility.yul\":19195:19197   */\n      0x40\n        /* \"#utility.yul\":19184:19193   */\n      dup4\n        /* \"#utility.yul\":19180:19198   */\n      add\n        /* \"#utility.yul\":19171:19177   */\n      dup10\n        /* \"#utility.yul\":19127:19199   */\n      tag_523\n      jump\t// in\n    tag_573:\n        /* \"#utility.yul\":19209:19281   */\n      tag_574\n        /* \"#utility.yul\":19277:19279   */\n      0x60\n        /* \"#utility.yul\":19266:19275   */\n      dup4\n        /* \"#utility.yul\":19262:19280   */\n      add\n        /* \"#utility.yul\":19253:19259   */\n      dup9\n        /* \"#utility.yul\":19209:19281   */\n      tag_425\n      jump\t// in\n    tag_574:\n        /* \"#utility.yul\":19291:19364   */\n      tag_575\n        /* \"#utility.yul\":19359:19362   */\n      0x80\n        /* \"#utility.yul\":19348:19357   */\n      dup4\n        /* \"#utility.yul\":19344:19363   */\n      add\n        /* \"#utility.yul\":19335:19341   */\n      dup8\n        /* \"#utility.yul\":19291:19364   */\n      tag_523\n      jump\t// in\n    tag_575:\n        /* \"#utility.yul\":19374:19447   */\n      tag_576\n        /* \"#utility.yul\":19442:19445   */\n      0xa0\n        /* \"#utility.yul\":19431:19440   */\n      dup4\n        /* \"#utility.yul\":19427:19446   */\n      add\n        /* \"#utility.yul\":19418:19424   */\n      dup7\n        /* \"#utility.yul\":19374:19447   */\n      tag_523\n      jump\t// in\n    tag_576:\n        /* \"#utility.yul\":19457:19530   */\n      tag_577\n        /* \"#utility.yul\":19525:19528   */\n      0xc0\n        /* \"#utility.yul\":19514:19523   */\n      dup4\n        /* \"#utility.yul\":19510:19529   */\n      add\n        /* \"#utility.yul\":19501:19507   */\n      dup6\n        /* \"#utility.yul\":19457:19530   */\n      tag_523\n      jump\t// in\n    tag_577:\n        /* \"#utility.yul\":19540:19613   */\n      tag_578\n        /* \"#utility.yul\":19608:19611   */\n      0xe0\n        /* \"#utility.yul\":19597:19606   */\n      dup4\n        /* \"#utility.yul\":19593:19612   */\n      add\n        /* \"#utility.yul\":19584:19590   */\n      dup5\n        /* \"#utility.yul\":19540:19613   */\n      tag_523\n      jump\t// in\n    tag_578:\n        /* \"#utility.yul\":18532:19620   */\n      swap10\n      swap9\n      pop\n      pop\n      pop\n      pop\n      pop\n      pop\n      pop\n      pop\n      pop\n      jump\t// out\n        /* \"#utility.yul\":19626:19958   */\n    tag_301:\n        /* \"#utility.yul\":19747:19751   */\n      0x00\n        /* \"#utility.yul\":19785:19787   */\n      0x40\n        /* \"#utility.yul\":19774:19783   */\n      dup3\n        /* \"#utility.yul\":19770:19788   */\n      add\n        /* \"#utility.yul\":19762:19788   */\n      swap1\n      pop\n        /* \"#utility.yul\":19798:19869   */\n      tag_580\n        /* \"#utility.yul\":19866:19867   */\n      0x00\n        /* \"#utility.yul\":19855:19864   */\n      dup4\n        /* \"#utility.yul\":19851:19868   */\n      add\n        /* \"#utility.yul\":19842:19848   */\n      dup6\n        /* \"#utility.yul\":19798:19869   */\n      tag_523\n      jump\t// in\n    tag_580:\n        /* \"#utility.yul\":19879:19951   */\n      tag_581\n        /* \"#utility.yul\":19947:19949   */\n      0x20\n        /* \"#utility.yul\":19936:19945   */\n      dup4\n        /* \"#utility.yul\":19932:19950   */\n      add\n        /* \"#utility.yul\":19923:19929   */\n      dup5\n        /* \"#utility.yul\":19879:19951   */\n      tag_523\n      jump\t// in\n    tag_581:\n        /* \"#utility.yul\":19626:19958   */\n      swap4\n      swap3\n      pop\n      pop\n      pop\n      jump\t// out\n        /* \"#utility.yul\":19964:20093   */\n    tag_351:\n        /* \"#utility.yul\":19998:20004   */\n      0x00\n        /* \"#utility.yul\":20025:20045   */\n      tag_583\n      tag_584\n      jump\t// in\n    tag_583:\n        /* \"#utility.yul\":20015:20045   */\n      swap1\n      pop\n        /* \"#utility.yul\":20054:20087   */\n      tag_585\n        /* \"#utility.yul\":20082:20086   */\n      dup3\n        /* \"#utility.yul\":20074:20080   */\n      dup3\n        /* \"#utility.yul\":20054:20087   */\n      tag_586\n      jump\t// in\n    tag_585:\n        /* \"#utility.yul\":19964:20093   */\n      swap2\n      swap1\n      pop\n      jump\t// out\n        /* \"#utility.yul\":20099:20174   */\n    tag_584:\n        /* \"#utility.yul\":20132:20138   */\n      0x00\n        /* \"#utility.yul\":20165:20167   */\n      0x40\n        /* \"#utility.yul\":20159:20168   */\n      mload\n        /* \"#utility.yul\":20149:20168   */\n      swap1\n      pop\n        /* \"#utility.yul\":20099:20174   */\n      swap1\n      jump\t// out\n        /* \"#utility.yul\":20180:20488   */\n    tag_350:\n        /* \"#utility.yul\":20242:20246   */\n      0x00\n        /* \"#utility.yul\":20332:20350   */\n      0xffffffffffffffff\n        /* \"#utility.yul\":20324:20330   */\n      dup3\n        /* \"#utility.yul\":20321:20351   */\n      gt\n        /* \"#utility.yul\":20318:20374   */\n      iszero\n      tag_589\n      jumpi\n        /* \"#utility.yul\":20354:20372   */\n      tag_590\n      tag_240\n      jump\t// in\n    tag_590:\n        /* \"#utility.yul\":20318:20374   */\n    tag_589:\n        /* \"#utility.yul\":20392:20421   */\n      tag_591\n        /* \"#utility.yul\":20414:20420   */\n      dup3\n        /* \"#utility.yul\":20392:20421   */\n      tag_467\n      jump\t// in\n    tag_591:\n        /* \"#utility.yul\":20384:20421   */\n      swap1\n      pop\n        /* \"#utility.yul\":20476:20480   */\n      0x20\n        /* \"#utility.yul\":20470:20474   */\n      dup2\n        /* \"#utility.yul\":20466:20481   */\n      add\n        /* \"#utility.yul\":20458:20481   */\n      swap1\n      pop\n        /* \"#utility.yul\":20180:20488   */\n      swap2\n      swap1\n      pop\n      jump\t// out\n        /* \"#utility.yul\":20494:20626   */\n    tag_435:\n        /* \"#utility.yul\":20561:20565   */\n      0x00\n        /* \"#utility.yul\":20584:20587   */\n      dup2\n        /* \"#utility.yul\":20576:20587   */\n      swap1\n      pop\n        /* \"#utility.yul\":20614:20618   */\n      0x20\n        /* \"#utility.yul\":20609:20612   */\n      dup3\n        /* \"#utility.yul\":20605:20619   */\n      add\n        /* \"#utility.yul\":20597:20619   */\n      swap1\n      pop\n        /* \"#utility.yul\":20494:20626   */\n      swap2\n      swap1\n      pop\n      jump\t// out\n        /* \"#utility.yul\":20632:20746   */\n    tag_431:\n        /* \"#utility.yul\":20699:20705   */\n      0x00\n        /* \"#utility.yul\":20733:20738   */\n      dup2\n        /* \"#utility.yul\":20727:20739   */\n      mload\n        /* \"#utility.yul\":20717:20739   */\n      swap1\n      pop\n        /* \"#utility.yul\":20632:20746   */\n      swap2\n      swap1\n      pop\n      jump\t// out\n        /* \"#utility.yul\":20752:20851   */\n    tag_461:\n        /* \"#utility.yul\":20804:20810   */\n      0x00\n        /* \"#utility.yul\":20838:20843   */\n      dup2\n        /* \"#utility.yul\":20832:20844   */\n      mload\n        /* \"#utility.yul\":20822:20844   */\n      swap1\n      pop\n        /* \"#utility.yul\":20752:20851   */\n      swap2\n      swap1\n      pop\n      jump\t// out\n        /* \"#utility.yul\":20857:20970   */\n    tag_441:\n        /* \"#utility.yul\":20927:20931   */\n      0x00\n        /* \"#utility.yul\":20959:20963   */\n      0x20\n        /* \"#utility.yul\":20954:20957   */\n      dup3\n        /* \"#utility.yul\":20950:20964   */\n      add\n        /* \"#utility.yul\":20942:20964   */\n      swap1\n      pop\n        /* \"#utility.yul\":20857:20970   */\n      swap2\n      swap1\n      pop\n      jump\t// out\n        /* \"#utility.yul\":20976:21160   */\n    tag_433:\n        /* \"#utility.yul\":21075:21086   */\n      0x00\n        /* \"#utility.yul\":21109:21115   */\n      dup3\n        /* \"#utility.yul\":21104:21107   */\n      dup3\n        /* \"#utility.yul\":21097:21116   */\n      mstore\n        /* \"#utility.yul\":21149:21153   */\n      0x20\n        /* \"#utility.yul\":21144:21147   */\n      dup3\n        /* \"#utility.yul\":21140:21154   */\n      add\n        /* \"#utility.yul\":21125:21154   */\n      swap1\n      pop\n        /* \"#utility.yul\":20976:21160   */\n      swap3\n      swap2\n      pop\n      pop\n      jump\t// out\n        /* \"#utility.yul\":21166:21335   */\n    tag_463:\n        /* \"#utility.yul\":21250:21261   */\n      0x00\n        /* \"#utility.yul\":21284:21290   */\n      dup3\n        /* \"#utility.yul\":21279:21282   */\n      dup3\n        /* \"#utility.yul\":21272:21291   */\n      mstore\n        /* \"#utility.yul\":21324:21328   */\n      0x20\n        /* \"#utility.yul\":21319:21322   */\n      dup3\n        /* \"#utility.yul\":21315:21329   */\n      add\n        /* \"#utility.yul\":21300:21329   */\n      swap1\n      pop\n        /* \"#utility.yul\":21166:21335   */\n      swap3\n      swap2\n      pop\n      pop\n      jump\t// out\n        /* \"#utility.yul\":21341:21437   */\n    tag_424:\n        /* \"#utility.yul\":21378:21385   */\n      0x00\n        /* \"#utility.yul\":21407:21431   */\n      tag_599\n        /* \"#utility.yul\":21425:21430   */\n      dup3\n        /* \"#utility.yul\":21407:21431   */\n      tag_600\n      jump\t// in\n    tag_599:\n        /* \"#utility.yul\":21396:21431   */\n      swap1\n      pop\n        /* \"#utility.yul\":21341:21437   */\n      swap2\n      swap1\n      pop\n      jump\t// out\n        /* \"#utility.yul\":21443:21533   */\n    tag_445:\n        /* \"#utility.yul\":21477:21484   */\n      0x00\n        /* \"#utility.yul\":21520:21525   */\n      dup2\n        /* \"#utility.yul\":21513:21526   */\n      iszero\n        /* \"#utility.yul\":21506:21527   */\n      iszero\n        /* \"#utility.yul\":21495:21527   */\n      swap1\n      pop\n        /* \"#utility.yul\":21443:21533   */\n      swap2\n      swap1\n      pop\n      jump\t// out\n        /* \"#utility.yul\":21539:21616   */\n    tag_449:\n        /* \"#utility.yul\":21576:21583   */\n      0x00\n        /* \"#utility.yul\":21605:21610   */\n      dup2\n        /* \"#utility.yul\":21594:21610   */\n      swap1\n      pop\n        /* \"#utility.yul\":21539:21616   */\n      swap2\n      swap1\n      pop\n      jump\t// out\n        /* \"#utility.yul\":21622:21755   */\n    tag_603:\n        /* \"#utility.yul\":21670:21677   */\n      0x00\n        /* \"#utility.yul\":21699:21704   */\n      dup2\n        /* \"#utility.yul\":21688:21704   */\n      swap1\n      pop\n        /* \"#utility.yul\":21705:21749   */\n      tag_605\n        /* \"#utility.yul\":21743:21748   */\n      dup3\n        /* \"#utility.yul\":21705:21749   */\n      tag_606\n      jump\t// in\n    tag_605:\n        /* \"#utility.yul\":21622:21755   */\n      swap2\n      swap1\n      pop\n      jump\t// out\n        /* \"#utility.yul\":21761:21887   */\n    tag_600:\n        /* \"#utility.yul\":21798:21805   */\n      0x00\n        /* \"#utility.yul\":21838:21880   */\n      0xffffffffffffffffffffffffffffffffffffffff\n        /* \"#utility.yul\":21831:21836   */\n      dup3\n        /* \"#utility.yul\":21827:21881   */\n      and\n        /* \"#utility.yul\":21816:21881   */\n      swap1\n      pop\n        /* \"#utility.yul\":21761:21887   */\n      swap2\n      swap1\n      pop\n      jump\t// out\n        /* \"#utility.yul\":21893:21970   */\n    tag_526:\n        /* \"#utility.yul\":21930:21937   */\n      0x00\n        /* \"#utility.yul\":21959:21964   */\n      dup2\n        /* \"#utility.yul\":21948:21964   */\n      swap1\n      pop\n        /* \"#utility.yul\":21893:21970   */\n      swap2\n      swap1\n      pop\n      jump\t// out\n        /* \"#utility.yul\":21976:22125   */\n    tag_453:\n        /* \"#utility.yul\":22049:22058   */\n      0x00\n        /* \"#utility.yul\":22082:22119   */\n      tag_610\n        /* \"#utility.yul\":22113:22118   */\n      dup3\n        /* \"#utility.yul\":22082:22119   */\n      tag_611\n      jump\t// in\n    tag_610:\n        /* \"#utility.yul\":22069:22119   */\n      swap1\n      pop\n        /* \"#utility.yul\":21976:22125   */\n      swap2\n      swap1\n      pop\n      jump\t// out\n        /* \"#utility.yul\":22131:22264   */\n    tag_457:\n        /* \"#utility.yul\":22190:22199   */\n      0x00\n        /* \"#utility.yul\":22223:22258   */\n      tag_613\n        /* \"#utility.yul\":22252:22257   */\n      dup3\n        /* \"#utility.yul\":22223:22258   */\n      tag_603\n      jump\t// in\n    tag_613:\n        /* \"#utility.yul\":22210:22258   */\n      swap1\n      pop\n        /* \"#utility.yul\":22131:22264   */\n      swap2\n      swap1\n      pop\n      jump\t// out\n        /* \"#utility.yul\":22270:22396   */\n    tag_611:\n        /* \"#utility.yul\":22320:22329   */\n      0x00\n        /* \"#utility.yul\":22353:22390   */\n      tag_615\n        /* \"#utility.yul\":22384:22389   */\n      dup3\n        /* \"#utility.yul\":22353:22390   */\n      tag_616\n      jump\t// in\n    tag_615:\n        /* \"#utility.yul\":22340:22390   */\n      swap1\n      pop\n        /* \"#utility.yul\":22270:22396   */\n      swap2\n      swap1\n      pop\n      jump\t// out\n        /* \"#utility.yul\":22402:22515   */\n    tag_616:\n        /* \"#utility.yul\":22452:22461   */\n      0x00\n        /* \"#utility.yul\":22485:22509   */\n      tag_618\n        /* \"#utility.yul\":22503:22508   */\n      dup3\n        /* \"#utility.yul\":22485:22509   */\n      tag_600\n      jump\t// in\n    tag_618:\n        /* \"#utility.yul\":22472:22509   */\n      swap1\n      pop\n        /* \"#utility.yul\":22402:22515   */\n      swap2\n      swap1\n      pop\n      jump\t// out\n        /* \"#utility.yul\":22521:22675   */\n    tag_356:\n        /* \"#utility.yul\":22605:22611   */\n      dup3\n        /* \"#utility.yul\":22600:22603   */\n      dup2\n        /* \"#utility.yul\":22595:22598   */\n      dup4\n        /* \"#utility.yul\":22582:22612   */\n      calldatacopy\n        /* \"#utility.yul\":22667:22668   */\n      0x00\n        /* \"#utility.yul\":22658:22664   */\n      dup4\n        /* \"#utility.yul\":22653:22656   */\n      dup4\n        /* \"#utility.yul\":22649:22665   */\n      add\n        /* \"#utility.yul\":22642:22669   */\n      mstore\n        /* \"#utility.yul\":22521:22675   */\n      pop\n      pop\n      pop\n      jump\t// out\n        /* \"#utility.yul\":22681:22988   */\n    tag_465:\n        /* \"#utility.yul\":22749:22750   */\n      0x00\n        /* \"#utility.yul\":22759:22872   */\n    tag_621:\n        /* \"#utility.yul\":22773:22779   */\n      dup4\n        /* \"#utility.yul\":22770:22771   */\n      dup2\n        /* \"#utility.yul\":22767:22780   */\n      lt\n        /* \"#utility.yul\":22759:22872   */\n      iszero\n      tag_623\n      jumpi\n        /* \"#utility.yul\":22858:22859   */\n      dup1\n        /* \"#utility.yul\":22853:22856   */\n      dup3\n        /* \"#utility.yul\":22849:22860   */\n      add\n        /* \"#utility.yul\":22843:22861   */\n      mload\n        /* \"#utility.yul\":22839:22840   */\n      dup2\n        /* \"#utility.yul\":22834:22837   */\n      dup5\n        /* \"#utility.yul\":22830:22841   */\n      add\n        /* \"#utility.yul\":22823:22862   */\n      mstore\n        /* \"#utility.yul\":22795:22797   */\n      0x20\n        /* \"#utility.yul\":22792:22793   */\n      dup2\n        /* \"#utility.yul\":22788:22798   */\n      add\n        /* \"#utility.yul\":22783:22798   */\n      swap1\n      pop\n        /* \"#utility.yul\":22759:22872   */\n      jump(tag_621)\n    tag_623:\n        /* \"#utility.yul\":22890:22896   */\n      dup4\n        /* \"#utility.yul\":22887:22888   */\n      dup2\n        /* \"#utility.yul\":22884:22897   */\n      gt\n        /* \"#utility.yul\":22881:22982   */\n      iszero\n      tag_624\n      jumpi\n        /* \"#utility.yul\":22970:22971   */\n      0x00\n        /* \"#utility.yul\":22961:22967   */\n      dup5\n        /* \"#utility.yul\":22956:22959   */\n      dup5\n        /* \"#utility.yul\":22952:22968   */\n      add\n        /* \"#utility.yul\":22945:22972   */\n      mstore\n        /* \"#utility.yul\":22881:22982   */\n    tag_624:\n        /* \"#utility.yul\":22730:22988   */\n      pop\n        /* \"#utility.yul\":22681:22988   */\n      pop\n      pop\n      pop\n      jump\t// out\n        /* \"#utility.yul\":22994:23165   */\n    tag_194:\n        /* \"#utility.yul\":23033:23036   */\n      0x00\n        /* \"#utility.yul\":23056:23080   */\n      tag_626\n        /* \"#utility.yul\":23074:23079   */\n      dup3\n        /* \"#utility.yul\":23056:23080   */\n      tag_526\n      jump\t// in\n    tag_626:\n        /* \"#utility.yul\":23047:23080   */\n      swap2\n      pop\n        /* \"#utility.yul\":23102:23106   */\n      0x00\n        /* \"#utility.yul\":23095:23100   */\n      dup3\n        /* \"#utility.yul\":23092:23107   */\n      eq\n        /* \"#utility.yul\":23089:23130   */\n      iszero\n      tag_627\n      jumpi\n        /* \"#utility.yul\":23110:23128   */\n      tag_628\n      tag_629\n      jump\t// in\n    tag_628:\n        /* \"#utility.yul\":23089:23130   */\n    tag_627:\n        /* \"#utility.yul\":23157:23158   */\n      0x01\n        /* \"#utility.yul\":23150:23155   */\n      dup3\n        /* \"#utility.yul\":23146:23159   */\n      sub\n        /* \"#utility.yul\":23139:23159   */\n      swap1\n      pop\n        /* \"#utility.yul\":22994:23165   */\n      swap2\n      swap1\n      pop\n      jump\t// out\n        /* \"#utility.yul\":23171:23491   */\n    tag_94:\n        /* \"#utility.yul\":23215:23221   */\n      0x00\n        /* \"#utility.yul\":23252:23253   */\n      0x02\n        /* \"#utility.yul\":23246:23250   */\n      dup3\n        /* \"#utility.yul\":23242:23254   */\n      div\n        /* \"#utility.yul\":23232:23254   */\n      swap1\n      pop\n        /* \"#utility.yul\":23299:23300   */\n      0x01\n        /* \"#utility.yul\":23293:23297   */\n      dup3\n        /* \"#utility.yul\":23289:23301   */\n      and\n        /* \"#utility.yul\":23320:23338   */\n      dup1\n        /* \"#utility.yul\":23310:23391   */\n      tag_631\n      jumpi\n        /* \"#utility.yul\":23376:23380   */\n      0x7f\n        /* \"#utility.yul\":23368:23374   */\n      dup3\n        /* \"#utility.yul\":23364:23381   */\n      and\n        /* \"#utility.yul\":23354:23381   */\n      swap2\n      pop\n        /* \"#utility.yul\":23310:23391   */\n    tag_631:\n        /* \"#utility.yul\":23438:23440   */\n      0x20\n        /* \"#utility.yul\":23430:23436   */\n      dup3\n        /* \"#utility.yul\":23427:23441   */\n      lt\n        /* \"#utility.yul\":23407:23425   */\n      dup2\n        /* \"#utility.yul\":23404:23442   */\n      eq\n        /* \"#utility.yul\":23401:23485   */\n      iszero\n      tag_632\n      jumpi\n        /* \"#utility.yul\":23457:23475   */\n      tag_633\n      tag_634\n      jump\t// in\n    tag_633:\n        /* \"#utility.yul\":23401:23485   */\n    tag_632:\n        /* \"#utility.yul\":23222:23491   */\n      pop\n        /* \"#utility.yul\":23171:23491   */\n      swap2\n      swap1\n      pop\n      jump\t// out\n        /* \"#utility.yul\":23497:23778   */\n    tag_586:\n        /* \"#utility.yul\":23580:23607   */\n      tag_636\n        /* \"#utility.yul\":23602:23606   */\n      dup3\n        /* \"#utility.yul\":23580:23607   */\n      tag_467\n      jump\t// in\n    tag_636:\n        /* \"#utility.yul\":23572:23578   */\n      dup2\n        /* \"#utility.yul\":23568:23608   */\n      add\n        /* \"#utility.yul\":23710:23716   */\n      dup2\n        /* \"#utility.yul\":23698:23708   */\n      dup2\n        /* \"#utility.yul\":23695:23717   */\n      lt\n        /* \"#utility.yul\":23674:23692   */\n      0xffffffffffffffff\n        /* \"#utility.yul\":23662:23672   */\n      dup3\n        /* \"#utility.yul\":23659:23693   */\n      gt\n        /* \"#utility.yul\":23656:23718   */\n      or\n        /* \"#utility.yul\":23653:23741   */\n      iszero\n      tag_637\n      jumpi\n        /* \"#utility.yul\":23721:23739   */\n      tag_638\n      tag_240\n      jump\t// in\n    tag_638:\n        /* \"#utility.yul\":23653:23741   */\n    tag_637:\n        /* \"#utility.yul\":23761:23771   */\n      dup1\n        /* \"#utility.yul\":23757:23759   */\n      0x40\n        /* \"#utility.yul\":23750:23772   */\n      mstore\n        /* \"#utility.yul\":23540:23778   */\n      pop\n        /* \"#utility.yul\":23497:23778   */\n      pop\n      pop\n      jump\t// out\n        /* \"#utility.yul\":23784:24017   */\n    tag_162:\n        /* \"#utility.yul\":23823:23826   */\n      0x00\n        /* \"#utility.yul\":23846:23870   */\n      tag_640\n        /* \"#utility.yul\":23864:23869   */\n      dup3\n        /* \"#utility.yul\":23846:23870   */\n      tag_526\n      jump\t// in\n    tag_640:\n        /* \"#utility.yul\":23837:23870   */\n      swap2\n      pop\n        /* \"#utility.yul\":23892:23958   */\n      0xffffffffffffffffffffffffffffffffffffffffffffffffffffffffffffffff\n        /* \"#utility.yul\":23885:23890   */\n      dup3\n        /* \"#utility.yul\":23882:23959   */\n      eq\n        /* \"#utility.yul\":23879:23982   */\n      iszero\n      tag_641\n      jumpi\n        /* \"#utility.yul\":23962:23980   */\n      tag_642\n      tag_629\n      jump\t// in\n    tag_642:\n        /* \"#utility.yul\":23879:23982   */\n    tag_641:\n        /* \"#utility.yul\":24009:24010   */\n      0x01\n        /* \"#utility.yul\":24002:24007   */\n      dup3\n        /* \"#utility.yul\":23998:24011   */\n      add\n        /* \"#utility.yul\":23991:24011   */\n      swap1\n      pop\n        /* \"#utility.yul\":23784:24017   */\n      swap2\n      swap1\n      pop\n      jump\t// out\n        /* \"#utility.yul\":24023:24203   */\n    tag_629:\n        /* \"#utility.yul\":24071:24148   */\n      0x4e487b7100000000000000000000000000000000000000000000000000000000\n        /* \"#utility.yul\":24068:24069   */\n      0x00\n        /* \"#utility.yul\":24061:24149   */\n      mstore\n        /* \"#utility.yul\":24168:24172   */\n      0x11\n        /* \"#utility.yul\":24165:24166   */\n      0x04\n        /* \"#utility.yul\":24158:24173   */\n      mstore\n        /* \"#utility.yul\":24192:24196   */\n      0x24\n        /* \"#utility.yul\":24189:24190   */\n      0x00\n        /* \"#utility.yul\":24182:24197   */\n      revert\n        /* \"#utility.yul\":24209:24389   */\n    tag_102:\n        /* \"#utility.yul\":24257:24334   */\n      0x4e487b7100000000000000000000000000000000000000000000000000000000\n        /* \"#utility.yul\":24254:24255   */\n      0x00\n        /* \"#utility.yul\":24247:24335   */\n      mstore\n        /* \"#utility.yul\":24354:24358   */\n      0x21\n        /* \"#utility.yul\":24351:24352   */\n      0x04\n        /* \"#utility.yul\":24344:24359   */\n      mstore\n        /* \"#utility.yul\":24378:24382   */\n      0x24\n        /* \"#utility.yul\":24375:24376   */\n      0x00\n        /* \"#utility.yul\":24368:24383   */\n      revert\n        /* \"#utility.yul\":24395:24575   */\n    tag_634:\n        /* \"#utility.yul\":24443:24520   */\n      0x4e487b7100000000000000000000000000000000000000000000000000000000\n        /* \"#utility.yul\":24440:24441   */\n      0x00\n        /* \"#utility.yul\":24433:24521   */\n      mstore\n        /* \"#utility.yul\":24540:24544   */\n      0x22\n        /* \"#utility.yul\":24537:24538   */\n      0x04\n        /* \"#utility.yul\":24530:24545   */\n      mstore\n        /* \"#utility.yul\":24564:24568   */\n      0x24\n        /* \"#utility.yul\":24561:24562   */\n      0x00\n        /* \"#utility.yul\":24554:24569   */\n      revert\n        /* \"#utility.yul\":24581:24761   */\n    tag_147:\n        /* \"#utility.yul\":24629:24706   */\n      0x4e487b7100000000000000000000000000000000000000000000000000000000\n        /* \"#utility.yul\":24626:24627   */\n      0x00\n        /* \"#utility.yul\":24619:24707   */\n      mstore\n        /* \"#utility.yul\":24726:24730   */\n      0x32\n        /* \"#utility.yul\":24723:24724   */\n      0x04\n        /* \"#utility.yul\":24716:24731   */\n      mstore\n        /* \"#utility.yul\":24750:24754   */\n      0x24\n        /* \"#utility.yul\":24747:24748   */\n      0x00\n        /* \"#utility.yul\":24740:24755   */\n      revert\n        /* \"#utility.yul\":24767:24947   */\n    tag_240:\n        /* \"#utility.yul\":24815:24892   */\n      0x4e487b7100000000000000000000000000000000000000000000000000000000\n        /* \"#utility.yul\":24812:24813   */\n      0x00\n        /* \"#utility.yul\":24805:24893   */\n      mstore\n        /* \"#utility.yul\":24912:24916   */\n      0x41\n        /* \"#utility.yul\":24909:24910   */\n      0x04\n        /* \"#utility.yul\":24902:24917   */\n      mstore\n        /* \"#utility.yul\":24936:24940   */\n      0x24\n        /* \"#utility.yul\":24933:24934   */\n      0x00\n        /* \"#utility.yul\":24926:24941   */\n      revert\n        /* \"#utility.yul\":24953:25070   */\n    tag_368:\n        /* \"#utility.yul\":25062:25063   */\n      0x00\n        /* \"#utility.yul\":25059:25060   */\n      dup1\n        /* \"#utility.yul\":25052:25064   */\n      revert\n        /* \"#utility.yul\":25076:25193   */\n    tag_365:\n        /* \"#utility.yul\":25185:25186   */\n      0x00\n        /* \"#utility.yul\":25182:25183   */\n      dup1\n        /* \"#utility.yul\":25175:25187   */\n      revert\n        /* \"#utility.yul\":25199:25316   */\n    tag_371:\n        /* \"#utility.yul\":25308:25309   */\n      0x00\n        /* \"#utility.yul\":25305:25306   */\n      dup1\n        /* \"#utility.yul\":25298:25310   */\n      revert\n        /* \"#utility.yul\":25322:25439   */\n    tag_354:\n        /* \"#utility.yul\":25431:25432   */\n      0x00\n        /* \"#utility.yul\":25428:25429   */\n      dup1\n        /* \"#utility.yul\":25421:25433   */\n      revert\n        /* \"#utility.yul\":25445:25562   */\n    tag_395:\n        /* \"#utility.yul\":25554:25555   */\n      0x00\n        /* \"#utility.yul\":25551:25552   */\n      dup1\n        /* \"#utility.yul\":25544:25556   */\n      revert\n        /* \"#utility.yul\":25568:25685   */\n    tag_388:\n        /* \"#utility.yul\":25677:25678   */\n      0x00\n        /* \"#utility.yul\":25674:25675   */\n      dup1\n        /* \"#utility.yul\":25667:25679   */\n      revert\n        /* \"#utility.yul\":25691:25793   */\n    tag_467:\n        /* \"#utility.yul\":25732:25738   */\n      0x00\n        /* \"#utility.yul\":25783:25785   */\n      0x1f\n        /* \"#utility.yul\":25779:25786   */\n      not\n        /* \"#utility.yul\":25774:25776   */\n      0x1f\n        /* \"#utility.yul\":25767:25772   */\n      dup4\n        /* \"#utility.yul\":25763:25777   */\n      add\n        /* \"#utility.yul\":25759:25787   */\n      and\n        /* \"#utility.yul\":25749:25787   */\n      swap1\n      pop\n        /* \"#utility.yul\":25691:25793   */\n      swap2\n      swap1\n      pop\n      jump\t// out\n        /* \"#utility.yul\":25799:25965   */\n    tag_472:\n        /* \"#utility.yul\":25939:25957   */\n      0x53433a2063616e63656c206572726f7200000000000000000000000000000000\n        /* \"#utility.yul\":25935:25936   */\n      0x00\n        /* \"#utility.yul\":25927:25933   */\n      dup3\n        /* \"#utility.yul\":25923:25937   */\n      add\n        /* \"#utility.yul\":25916:25958   */\n      mstore\n        /* \"#utility.yul\":25799:25965   */\n      pop\n      jump\t// out\n        /* \"#utility.yul\":25971:26138   */\n    tag_477:\n        /* \"#utility.yul\":26111:26130   */\n      0x4d433a204f6e6c79204c65637475726572000000000000000000000000000000\n        /* \"#utility.yul\":26107:26108   */\n      0x00\n        /* \"#utility.yul\":26099:26105   */\n      dup3\n        /* \"#utility.yul\":26095:26109   */\n      add\n        /* \"#utility.yul\":26088:26131   */\n      mstore\n        /* \"#utility.yul\":25971:26138   */\n      pop\n      jump\t// out\n        /* \"#utility.yul\":26144:26304   */\n    tag_482:\n        /* \"#utility.yul\":26284:26296   */\n      0x4f6e6c79206f776e657200000000000000000000000000000000000000000000\n        /* \"#utility.yul\":26280:26281   */\n      0x00\n        /* \"#utility.yul\":26272:26278   */\n      dup3\n        /* \"#utility.yul\":26268:26282   */\n      add\n        /* \"#utility.yul\":26261:26297   */\n      mstore\n        /* \"#utility.yul\":26144:26304   */\n      pop\n      jump\t// out\n        /* \"#utility.yul\":26310:26476   */\n    tag_487:\n        /* \"#utility.yul\":26450:26468   */\n      0x4d433a204f6e6c792053747564656e7400000000000000000000000000000000\n        /* \"#utility.yul\":26446:26447   */\n      0x00\n        /* \"#utility.yul\":26438:26444   */\n      dup3\n        /* \"#utility.yul\":26434:26448   */\n      add\n        /* \"#utility.yul\":26427:26469   */\n      mstore\n        /* \"#utility.yul\":26310:26476   */\n      pop\n      jump\t// out\n        /* \"#utility.yul\":26482:26661   */\n    tag_492:\n        /* \"#utility.yul\":26622:26653   */\n      0x4d433a204f6e6c792074686520706572736f6e20696e20636861726765000000\n        /* \"#utility.yul\":26618:26619   */\n      0x00\n        /* \"#utility.yul\":26610:26616   */\n      dup3\n        /* \"#utility.yul\":26606:26620   */\n      add\n        /* \"#utility.yul\":26599:26654   */\n      mstore\n        /* \"#utility.yul\":26482:26661   */\n      pop\n      jump\t// out\n        /* \"#utility.yul\":26667:26835   */\n    tag_497:\n        /* \"#utility.yul\":26807:26827   */\n      0x53433a207265676973746572206572726f720000000000000000000000000000\n        /* \"#utility.yul\":26803:26804   */\n      0x00\n        /* \"#utility.yul\":26795:26801   */\n      dup3\n        /* \"#utility.yul\":26791:26805   */\n      add\n        /* \"#utility.yul\":26784:26828   */\n      mstore\n        /* \"#utility.yul\":26667:26835   */\n      pop\n      jump\t// out\n        /* \"#utility.yul\":26841:27010   */\n    tag_502:\n        /* \"#utility.yul\":26981:27002   */\n      0x53433a2054696d6520697320696e76616c696400000000000000000000000000\n        /* \"#utility.yul\":26977:26978   */\n      0x00\n        /* \"#utility.yul\":26969:26975   */\n      dup3\n        /* \"#utility.yul\":26965:26979   */\n      add\n        /* \"#utility.yul\":26958:27003   */\n      mstore\n        /* \"#utility.yul\":26841:27010   */\n      pop\n      jump\t// out\n        /* \"#utility.yul\":27016:27189   */\n    tag_507:\n        /* \"#utility.yul\":27156:27181   */\n      0x53686f756c64206f6e6c79206164642073747564656e74000000000000000000\n        /* \"#utility.yul\":27152:27153   */\n      0x00\n        /* \"#utility.yul\":27144:27150   */\n      dup3\n        /* \"#utility.yul\":27140:27154   */\n      add\n        /* \"#utility.yul\":27133:27182   */\n      mstore\n        /* \"#utility.yul\":27016:27189   */\n      pop\n      jump\t// out\n        /* \"#utility.yul\":27195:27360   */\n    tag_512:\n        /* \"#utility.yul\":27335:27352   */\n      0x5265616368206f7574206c696d69740000000000000000000000000000000000\n        /* \"#utility.yul\":27331:27332   */\n      0x00\n        /* \"#utility.yul\":27323:27329   */\n      dup3\n        /* \"#utility.yul\":27319:27333   */\n      add\n        /* \"#utility.yul\":27312:27353   */\n      mstore\n        /* \"#utility.yul\":27195:27360   */\n      pop\n      jump\t// out\n        /* \"#utility.yul\":27366:27529   */\n    tag_517:\n        /* \"#utility.yul\":27506:27521   */\n      0x53433a204f6e6c79204c6f636b00000000000000000000000000000000000000\n        /* \"#utility.yul\":27502:27503   */\n      0x00\n        /* \"#utility.yul\":27494:27500   */\n      dup3\n        /* \"#utility.yul\":27490:27504   */\n      add\n        /* \"#utility.yul\":27483:27522   */\n      mstore\n        /* \"#utility.yul\":27366:27529   */\n      pop\n      jump\t// out\n        /* \"#utility.yul\":27535:27698   */\n    tag_522:\n        /* \"#utility.yul\":27675:27690   */\n      0x53433a204f6e6c79204f70656e00000000000000000000000000000000000000\n        /* \"#utility.yul\":27671:27672   */\n      0x00\n        /* \"#utility.yul\":27663:27669   */\n      dup3\n        /* \"#utility.yul\":27659:27673   */\n      add\n        /* \"#utility.yul\":27652:27691   */\n      mstore\n        /* \"#utility.yul\":27535:27698   */\n      pop\n      jump\t// out\n        /* \"#utility.yul\":27704:27820   */\n    tag_606:\n        /* \"#utility.yul\":27788:27789   */\n      0x03\n        /* \"#utility.yul\":27781:27786   */\n      dup2\n        /* \"#utility.yul\":27778:27790   */\n      lt\n        /* \"#utility.yul\":27768:27814   */\n      tag_667\n      jumpi\n        /* \"#utility.yul\":27794:27812   */\n      tag_668\n      tag_102\n      jump\t// in\n    tag_668:\n        /* \"#utility.yul\":27768:27814   */\n    tag_667:\n        /* \"#utility.yul\":27704:27820   */\n      pop\n      jump\t// out\n        /* \"#utility.yul\":27826:27948   */\n    tag_360:\n        /* \"#utility.yul\":27899:27923   */\n      tag_670\n        /* \"#utility.yul\":27917:27922   */\n      dup2\n        /* \"#utility.yul\":27899:27923   */\n      tag_424\n      jump\t// in\n    tag_670:\n        /* \"#utility.yul\":27892:27897   */\n      dup2\n        /* \"#utility.yul\":27889:27924   */\n      eq\n        /* \"#utility.yul\":27879:27942   */\n      tag_671\n      jumpi\n        /* \"#utility.yul\":27938:27939   */\n      0x00\n        /* \"#utility.yul\":27935:27936   */\n      dup1\n        /* \"#utility.yul\":27928:27940   */\n      revert\n        /* \"#utility.yul\":27879:27942   */\n    tag_671:\n        /* \"#utility.yul\":27826:27948   */\n      pop\n      jump\t// out\n        /* \"#utility.yul\":27954:28070   */\n    tag_375:\n        /* \"#utility.yul\":28024:28045   */\n      tag_673\n        /* \"#utility.yul\":28039:28044   */\n      dup2\n        /* \"#utility.yul\":28024:28045   */\n      tag_445\n      jump\t// in\n    tag_673:\n        /* \"#utility.yul\":28017:28022   */\n      dup2\n        /* \"#utility.yul\":28014:28046   */\n      eq\n        /* \"#utility.yul\":28004:28064   */\n      tag_674\n      jumpi\n        /* \"#utility.yul\":28060:28061   */\n      0x00\n        /* \"#utility.yul\":28057:28058   */\n      dup1\n        /* \"#utility.yul\":28050:28062   */\n      revert\n        /* \"#utility.yul\":28004:28064   */\n    tag_674:\n        /* \"#utility.yul\":27954:28070   */\n      pop\n      jump\t// out\n        /* \"#utility.yul\":28076:28198   */\n    tag_384:\n        /* \"#utility.yul\":28149:28173   */\n      tag_676\n        /* \"#utility.yul\":28167:28172   */\n      dup2\n        /* \"#utility.yul\":28149:28173   */\n      tag_526\n      jump\t// in\n    tag_676:\n        /* \"#utility.yul\":28142:28147   */\n      dup2\n        /* \"#utility.yul\":28139:28174   */\n      eq\n        /* \"#utility.yul\":28129:28192   */\n      tag_677\n      jumpi\n        /* \"#utility.yul\":28188:28189   */\n      0x00\n        /* \"#utility.yul\":28185:28186   */\n      dup1\n        /* \"#utility.yul\":28178:28190   */\n      revert\n        /* \"#utility.yul\":28129:28192   */\n    tag_677:\n        /* \"#utility.yul\":28076:28198   */\n      pop\n      jump\t// out\n\n    auxdata: 0xa26469706673582212206cbdf205facb7e11e4dcd609b4ee41f260f64167df8529c9173528df6f14532a64736f6c63430008070033\n}\n",
				"bytecode": {
					"linkReferences": {},
					"object": "60a06040526000600860006101000a81548160ff021916908360028111156200002d576200002c62000177565b5b02179055503480156200003f57600080fd5b5060405162003080380380620030808339818101604052810190620000659190620000fc565b8173ffffffffffffffffffffffffffffffffffffffff1660808173ffffffffffffffffffffffffffffffffffffffff1660601b8152505080600960006101000a81548173ffffffffffffffffffffffffffffffffffffffff021916908373ffffffffffffffffffffffffffffffffffffffff1602179055505050620001c5565b600081519050620000f681620001ab565b92915050565b60008060408385031215620001165762000115620001a6565b5b60006200012685828601620000e5565b92505060206200013985828601620000e5565b9150509250929050565b6000620001508262000157565b9050919050565b600073ffffffffffffffffffffffffffffffffffffffff82169050919050565b7f4e487b7100000000000000000000000000000000000000000000000000000000600052602160045260246000fd5b600080fd5b620001b68162000143565b8114620001c257600080fd5b50565b60805160601c612e87620001f9600039600081816109c901528181610fdd0152818161107201526115270152612e876000f3fe608060405234801561001057600080fd5b50600436106101215760003560e01c80638da5cb5b116100ad578063aa4936ce11610071578063aa4936ce146102c6578063aa8c217c146102e4578063be9a655514610302578063d16e57fe1461030c578063ed214fff1461032857610121565b80638da5cb5b1461020d578063987547101461022b578063a32fb3421461025c578063a53dc8d21461028c578063a7f44e0d146102a857610121565b806335955121116100f4578063359551211461019157806335f34232146101ad57806343d726d6146101dd57806349aa7033146101e75780636e88f230146101f157610121565b80630a59a98c146101265780631aa3a0081461014b578063200d2ed2146101555780632fe7a96d14610173575b600080fd5b61012e610346565b6040516101429897969594939291906127fd565b60405180910390f35b610153610424565b005b61015d6105b1565b60405161016a9190612667565b60405180910390f35b61017b6105c4565b6040516101889190612579565b60405180910390f35b6101ab60048036038101906101a69190612167565b6105ea565b005b6101c760048036038101906101c291906121e1565b610988565b6040516101d49190612579565b60405180910390f35b6101e56109c7565b005b6101ef610aca565b005b61020b6004803603810190610206919061213a565b610d18565b005b610215610fdb565b6040516102229190612579565b60405180910390f35b6102456004803603810190610240919061213a565b610fff565b604051610253929190612594565b60405180910390f35b6102766004803603810190610271919061213a565b611050565b6040516102839190612608565b60405180910390f35b6102a660048036038101906102a1919061220e565b611070565b005b6102b06112d5565b6040516102bd91906125e6565b60405180910390f35b6102ce6114f9565b6040516102db919061264c565b60405180910390f35b6102ec61151f565b6040516102f991906127e2565b60405180910390f35b61030a611525565b005b61032660048036038101906103219190612167565b6115e0565b005b6103306119f1565b60405161033d91906125e6565b60405180910390f35b600080600001549080600101805461035d90612a6f565b80601f016020809104026020016040519081016040528092919081815260200182805461038990612a6f565b80156103d65780601f106103ab576101008083540402835291602001916103d6565b820191906000526020600020905b8154815290600101906020018083116103b957829003601f168201915b5050505050908060020154908060030160009054906101000a900473ffffffffffffffffffffffffffffffffffffffff16908060040154908060050154908060060154908060070154905088565b6001600281111561043857610437612b4a565b5b600860009054906101000a900460ff16600281111561045a57610459612b4a565b5b1461049a576040517f08c379a0000000000000000000000000000000000000000000000000000000008152600401610491906127c2565b60405180910390fd5b600960009054906101000a900473ffffffffffffffffffffffffffffffffffffffff1673ffffffffffffffffffffffffffffffffffffffff166391d148547fc951d7098b66ba0b8b77265b6e9cf0e187d73125a42bcd0061b09a68be421810336040518363ffffffff1660e01b8152600401610517929190612623565b60206040518083038186803b15801561052f57600080fd5b505afa158015610543573d6000803e3d6000fd5b505050506040513d601f19601f8201168201806040525081019061056791906121b4565b6105a6576040517f08c379a000000000000000000000000000000000000000000000000000000000815260040161059d906126e2565b60405180910390fd5b6105af33611cdc565b565b600860009054906101000a900460ff1681565b600860019054906101000a900473ffffffffffffffffffffffffffffffffffffffff1681565b600960009054906101000a900473ffffffffffffffffffffffffffffffffffffffff1673ffffffffffffffffffffffffffffffffffffffff166391d148547fb39b9469ac3ddf8d58f06201f7e17350a277b429ed2a39727bf2f3a5165dba1a336040518363ffffffff1660e01b8152600401610667929190612623565b60206040518083038186803b15801561067f57600080fd5b505afa158015610693573d6000803e3d6000fd5b505050506040513d601f19601f820116820180604052508101906106b791906121b4565b6106f6576040517f08c379a00000000000000000000000000000000000000000000000000000000081526004016106ed906126a2565b60405180910390fd5b6001600281111561070a57610709612b4a565b5b600860009054906101000a900460ff16600281111561072c5761072b612b4a565b5b1461076c576040517f08c379a0000000000000000000000000000000000000000000000000000000008152600401610763906127c2565b60405180910390fd5b600060030160009054906101000a900473ffffffffffffffffffffffffffffffffffffffff1673ffffffffffffffffffffffffffffffffffffffff163373ffffffffffffffffffffffffffffffffffffffff16146107ff576040517f08c379a00000000000000000000000000000000000000000000000000000000081526004016107f690612702565b60405180910390fd5b60005b8282905081101561098357600960009054906101000a900473ffffffffffffffffffffffffffffffffffffffff1673ffffffffffffffffffffffffffffffffffffffff166391d148547fc951d7098b66ba0b8b77265b6e9cf0e187d73125a42bcd0061b09a68be42181085858581811061087f5761087e612ba8565b5b9050602002016020810190610894919061213a565b6040518363ffffffff1660e01b81526004016108b1929190612623565b60206040518083038186803b1580156108c957600080fd5b505afa1580156108dd573d6000803e3d6000fd5b505050506040513d601f19601f8201168201806040525081019061090191906121b4565b610940576040517f08c379a000000000000000000000000000000000000000000000000000000000815260040161093790612762565b60405180910390fd5b61097083838381811061095657610955612ba8565b5b905060200201602081019061096b919061213a565b611cdc565b808061097b90612ad2565b915050610802565b505050565b600a818154811061099857600080fd5b906000526020600020016000915054906101000a900473ffffffffffffffffffffffffffffffffffffffff1681565b7f000000000000000000000000000000000000000000000000000000000000000073ffffffffffffffffffffffffffffffffffffffff163373ffffffffffffffffffffffffffffffffffffffff1614610a55576040517f08c379a0000000000000000000000000000000000000000000000000000000008152600401610a4c906126c2565b60405180910390fd5b6002600860006101000a81548160ff02191690836002811115610a7b57610a7a612b4a565b5b02179055506000600701544211610a9157600080fd5b7fbf67515a38ee520223d32c1266d52101c30d936ed1f3e436c8caeb0a43cb06bf42604051610ac091906127e2565b60405180910390a1565b60016002811115610ade57610add612b4a565b5b600860009054906101000a900460ff166002811115610b0057610aff612b4a565b5b14610b40576040517f08c379a0000000000000000000000000000000000000000000000000000000008152600401610b37906127c2565b60405180910390fd5b600960009054906101000a900473ffffffffffffffffffffffffffffffffffffffff1673ffffffffffffffffffffffffffffffffffffffff166391d148547fc951d7098b66ba0b8b77265b6e9cf0e187d73125a42bcd0061b09a68be421810336040518363ffffffff1660e01b8152600401610bbd929190612623565b60206040518083038186803b158015610bd557600080fd5b505afa158015610be9573d6000803e3d6000fd5b505050506040513d601f19601f82011682018060405250810190610c0d91906121b4565b610c4c576040517f08c379a0000000000000000000000000000000000000000000000000000000008152600401610c43906126e2565b60405180910390fd5b6000600b60003373ffffffffffffffffffffffffffffffffffffffff1673ffffffffffffffffffffffffffffffffffffffff16815260200190815260200160002090508060000160149054906101000a900460ff16610ce0576040517f08c379a0000000000000000000000000000000000000000000000000000000008152600401610cd790612682565b60405180910390fd5b600c6000815480929190610cf390612a45565b919050555060008160000160146101000a81548160ff02191690831515021790555050565b600960009054906101000a900473ffffffffffffffffffffffffffffffffffffffff1673ffffffffffffffffffffffffffffffffffffffff166391d148547fb39b9469ac3ddf8d58f06201f7e17350a277b429ed2a39727bf2f3a5165dba1a336040518363ffffffff1660e01b8152600401610d95929190612623565b60206040518083038186803b158015610dad57600080fd5b505afa158015610dc1573d6000803e3d6000fd5b505050506040513d601f19601f82011682018060405250810190610de591906121b4565b610e24576040517f08c379a0000000000000000000000000000000000000000000000000000000008152600401610e1b906126a2565b60405180910390fd5b60016002811115610e3857610e37612b4a565b5b600860009054906101000a900460ff166002811115610e5a57610e59612b4a565b5b14610e9a576040517f08c379a0000000000000000000000000000000000000000000000000000000008152600401610e91906127c2565b60405180910390fd5b60006006015442118015610eb2575060006007015442105b610ebb57600080fd5b600d60008273ffffffffffffffffffffffffffffffffffffffff1673ffffffffffffffffffffffffffffffffffffffff16815260200190815260200160002060009054906101000a900460ff16610f47576040517f08c379a0000000000000000000000000000000000000000000000000000000008152600401610f3e90612682565b60405180910390fd5b6000600d60008373ffffffffffffffffffffffffffffffffffffffff1673ffffffffffffffffffffffffffffffffffffffff16815260200190815260200160002060006101000a81548160ff0219169083151502179055507ffe786ec358465053564cb2b843230fd06c070174c46fbc3786d85d894ff392108142604051610fd09291906125bd565b60405180910390a150565b7f000000000000000000000000000000000000000000000000000000000000000081565b600b6020528060005260406000206000915090508060000160009054906101000a900473ffffffffffffffffffffffffffffffffffffffff16908060000160149054906101000a900460ff16905082565b600d6020528060005260406000206000915054906101000a900460ff1681565b7f000000000000000000000000000000000000000000000000000000000000000073ffffffffffffffffffffffffffffffffffffffff163373ffffffffffffffffffffffffffffffffffffffff16146110fe576040517f08c379a00000000000000000000000000000000000000000000000000000000081526004016110f5906126c2565b60405180910390fd5b6000600281111561111257611111612b4a565b5b600860009054906101000a900460ff16600281111561113457611133612b4a565b5b14611174576040517f08c379a000000000000000000000000000000000000000000000000000000000815260040161116b906127a2565b60405180910390fd5b834210801561118257508284105b801561118d57508183105b801561119857508082105b6111d7576040517f08c379a00000000000000000000000000000000000000000000000000000000081526004016111ce90612742565b60405180910390fd5b6040518061010001604052808981526020018881526020018781526020018673ffffffffffffffffffffffffffffffffffffffff168152602001858152602001848152602001838152602001828152506000808201518160000155602082015181600101908051906020019061124e929190611f92565b506040820151816002015560608201518160030160006101000a81548173ffffffffffffffffffffffffffffffffffffffff021916908373ffffffffffffffffffffffffffffffffffffffff1602179055506080820151816004015560a0820151816005015560c0820151816006015560e082015181600701559050505050505050505050565b60606000600c5467ffffffffffffffff8111156112f5576112f4612bd7565b5b6040519080825280602002602001820160405280156113235781602001602082028036833780820191505090505b509050600080600090505b600a805490508110156114f057600d6000600a838154811061135357611352612ba8565b5b9060005260206000200160009054906101000a900473ffffffffffffffffffffffffffffffffffffffff1673ffffffffffffffffffffffffffffffffffffffff1673ffffffffffffffffffffffffffffffffffffffff16815260200190815260200160002060009054906101000a900460ff16801561143d5750600073ffffffffffffffffffffffffffffffffffffffff16600a82815481106113f9576113f8612ba8565b5b9060005260206000200160009054906101000a900473ffffffffffffffffffffffffffffffffffffffff1673ffffffffffffffffffffffffffffffffffffffff1614155b156114dd57600a818154811061145657611455612ba8565b5b9060005260206000200160009054906101000a900473ffffffffffffffffffffffffffffffffffffffff1683838151811061149457611493612ba8565b5b602002602001019073ffffffffffffffffffffffffffffffffffffffff16908173ffffffffffffffffffffffffffffffffffffffff168152505081806114d990612ad2565b9250505b80806114e890612ad2565b91505061132e565b50819250505090565b600960009054906101000a900473ffffffffffffffffffffffffffffffffffffffff1681565b600c5481565b7f000000000000000000000000000000000000000000000000000000000000000073ffffffffffffffffffffffffffffffffffffffff163373ffffffffffffffffffffffffffffffffffffffff16146115b3576040517f08c379a00000000000000000000000000000000000000000000000000000000081526004016115aa906126c2565b60405180910390fd5b6001600860006101000a81548160ff021916908360028111156115d9576115d8612b4a565b5b0217905550565b600160028111156115f4576115f3612b4a565b5b600860009054906101000a900460ff16600281111561161657611615612b4a565b5b14611656576040517f08c379a000000000000000000000000000000000000000000000000000000000815260040161164d906127c2565b60405180910390fd5b600960009054906101000a900473ffffffffffffffffffffffffffffffffffffffff1673ffffffffffffffffffffffffffffffffffffffff166391d148547fb39b9469ac3ddf8d58f06201f7e17350a277b429ed2a39727bf2f3a5165dba1a336040518363ffffffff1660e01b81526004016116d3929190612623565b60206040518083038186803b1580156116eb57600080fd5b505afa1580156116ff573d6000803e3d6000fd5b505050506040513d601f19601f8201168201806040525081019061172391906121b4565b611762576040517f08c379a0000000000000000000000000000000000000000000000000000000008152600401611759906126a2565b60405180910390fd5b6000600601544211801561177a575060006007015442105b61178357600080fd5b60005b828290508110156119b0576000600b60008585858181106117aa576117a9612ba8565b5b90506020020160208101906117bf919061213a565b73ffffffffffffffffffffffffffffffffffffffff1673ffffffffffffffffffffffffffffffffffffffff1681526020019081526020016000206040518060400160405290816000820160009054906101000a900473ffffffffffffffffffffffffffffffffffffffff1673ffffffffffffffffffffffffffffffffffffffff1673ffffffffffffffffffffffffffffffffffffffff1681526020016000820160149054906101000a900460ff1615151515815250509050806020015180156118de575083838381811061189657611895612ba8565b5b90506020020160208101906118ab919061213a565b73ffffffffffffffffffffffffffffffffffffffff16816000015173ffffffffffffffffffffffffffffffffffffffff16145b61191d576040517f08c379a000000000000000000000000000000000000000000000000000000000815260040161191490612682565b60405180910390fd5b6001600d600086868681811061193657611935612ba8565b5b905060200201602081019061194b919061213a565b73ffffffffffffffffffffffffffffffffffffffff1673ffffffffffffffffffffffffffffffffffffffff16815260200190815260200160002060006101000a81548160ff0219169083151502179055505080806119a890612ad2565b915050611786565b507f698dd5b92696456649e8994759ccfe7076b1ebe9096ecb083211d8bfe816384282829050426040516119e5929190612882565b60405180910390a15050565b60606000600c5467ffffffffffffffff811115611a1157611a10612bd7565b5b604051908082528060200260200182016040528015611a3f5781602001602082028036833780820191505090505b509050600080600090505b600a80549050811015611cd357600b6000600a8381548110611a6f57611a6e612ba8565b5b9060005260206000200160009054906101000a900473ffffffffffffffffffffffffffffffffffffffff1673ffffffffffffffffffffffffffffffffffffffff1673ffffffffffffffffffffffffffffffffffffffff16815260200190815260200160002060000160149054906101000a900460ff168015611bbe5750600073ffffffffffffffffffffffffffffffffffffffff16600b6000600a8481548110611b1c57611b1b612ba8565b5b9060005260206000200160009054906101000a900473ffffffffffffffffffffffffffffffffffffffff1673ffffffffffffffffffffffffffffffffffffffff1673ffffffffffffffffffffffffffffffffffffffff16815260200190815260200160002060000160009054906101000a900473ffffffffffffffffffffffffffffffffffffffff1673ffffffffffffffffffffffffffffffffffffffff1614155b15611cc057600b6000600a8381548110611bdb57611bda612ba8565b5b9060005260206000200160009054906101000a900473ffffffffffffffffffffffffffffffffffffffff1673ffffffffffffffffffffffffffffffffffffffff1673ffffffffffffffffffffffffffffffffffffffff16815260200190815260200160002060000160009054906101000a900473ffffffffffffffffffffffffffffffffffffffff16838381518110611c7757611c76612ba8565b5b602002602001019073ffffffffffffffffffffffffffffffffffffffff16908173ffffffffffffffffffffffffffffffffffffffff16815250508180611cbc90612ad2565b9250505b8080611ccb90612ad2565b915050611a4a565b50819250505090565b6000600b60008373ffffffffffffffffffffffffffffffffffffffff1673ffffffffffffffffffffffffffffffffffffffff16815260200190815260200160002090508060000160149054906101000a900460ff1615611d71576040517f08c379a0000000000000000000000000000000000000000000000000000000008152600401611d6890612722565b60405180910390fd5b600c6000815480929190611d8490612ad2565b9190505550600073ffffffffffffffffffffffffffffffffffffffff168160000160009054906101000a900473ffffffffffffffffffffffffffffffffffffffff1673ffffffffffffffffffffffffffffffffffffffff1614611e035760018160000160146101000a81548160ff021916908315150217905550611f44565b600060405180604001604052808473ffffffffffffffffffffffffffffffffffffffff16815260200160011515815250905080600b60008573ffffffffffffffffffffffffffffffffffffffff1673ffffffffffffffffffffffffffffffffffffffff16815260200190815260200160002060008201518160000160006101000a81548173ffffffffffffffffffffffffffffffffffffffff021916908373ffffffffffffffffffffffffffffffffffffffff16021790555060208201518160000160146101000a81548160ff021916908315150217905550905050600a839080600181540180825580915050600190039060005260206000200160009091909190916101000a81548173ffffffffffffffffffffffffffffffffffffffff021916908373ffffffffffffffffffffffffffffffffffffffff160217905550505b600060020154600c541115611f8e576040517f08c379a0000000000000000000000000000000000000000000000000000000008152600401611f8590612782565b60405180910390fd5b5050565b828054611f9e90612a6f565b90600052602060002090601f016020900481019282611fc05760008555612007565b82601f10611fd957805160ff1916838001178555612007565b82800160010185558215612007579182015b82811115612006578251825591602001919060010190611feb565b5b5090506120149190612018565b5090565b5b80821115612031576000816000905550600101612019565b5090565b6000612048612043846128d0565b6128ab565b90508281526020810184848401111561206457612063612c15565b5b61206f848285612a03565b509392505050565b60008135905061208681612e0c565b92915050565b60008083601f8401126120a2576120a1612c0b565b5b8235905067ffffffffffffffff8111156120bf576120be612c06565b5b6020830191508360208202830111156120db576120da612c10565b5b9250929050565b6000815190506120f181612e23565b92915050565b600082601f83011261210c5761210b612c0b565b5b813561211c848260208601612035565b91505092915050565b60008135905061213481612e3a565b92915050565b6000602082840312156121505761214f612c1f565b5b600061215e84828501612077565b91505092915050565b6000806020838503121561217e5761217d612c1f565b5b600083013567ffffffffffffffff81111561219c5761219b612c1a565b5b6121a88582860161208c565b92509250509250929050565b6000602082840312156121ca576121c9612c1f565b5b60006121d8848285016120e2565b91505092915050565b6000602082840312156121f7576121f6612c1f565b5b600061220584828501612125565b91505092915050565b600080600080600080600080610100898b03121561222f5761222e612c1f565b5b600061223d8b828c01612125565b985050602089013567ffffffffffffffff81111561225e5761225d612c1a565b5b61226a8b828c016120f7565b975050604061227b8b828c01612125565b965050606061228c8b828c01612077565b955050608061229d8b828c01612125565b94505060a06122ae8b828c01612125565b93505060c06122bf8b828c01612125565b92505060e06122d08b828c01612125565b9150509295985092959890939650565b60006122ec83836122f8565b60208301905092915050565b61230181612956565b82525050565b61231081612956565b82525050565b600061232182612911565b61232b8185612934565b935061233683612901565b8060005b8381101561236757815161234e88826122e0565b975061235983612927565b92505060018101905061233a565b5085935050505092915050565b61237d81612968565b82525050565b61238c81612974565b82525050565b61239b816129bb565b82525050565b6123aa816129cd565b82525050565b60006123bb8261291c565b6123c58185612945565b93506123d5818560208601612a12565b6123de81612c24565b840191505092915050565b60006123f6601083612945565b915061240182612c35565b602082019050919050565b6000612419601183612945565b915061242482612c5e565b602082019050919050565b600061243c600a83612945565b915061244782612c87565b602082019050919050565b600061245f601083612945565b915061246a82612cb0565b602082019050919050565b6000612482601d83612945565b915061248d82612cd9565b602082019050919050565b60006124a5601283612945565b91506124b082612d02565b602082019050919050565b60006124c8601383612945565b91506124d382612d2b565b602082019050919050565b60006124eb601783612945565b91506124f682612d54565b602082019050919050565b600061250e600f83612945565b915061251982612d7d565b602082019050919050565b6000612531600d83612945565b915061253c82612da6565b602082019050919050565b6000612554600d83612945565b915061255f82612dcf565b602082019050919050565b612573816129b1565b82525050565b600060208201905061258e6000830184612307565b92915050565b60006040820190506125a96000830185612307565b6125b66020830184612374565b9392505050565b60006040820190506125d26000830185612307565b6125df602083018461256a565b9392505050565b600060208201905081810360008301526126008184612316565b905092915050565b600060208201905061261d6000830184612374565b92915050565b60006040820190506126386000830185612383565b6126456020830184612307565b9392505050565b60006020820190506126616000830184612392565b92915050565b600060208201905061267c60008301846123a1565b92915050565b6000602082019050818103600083015261269b816123e9565b9050919050565b600060208201905081810360008301526126bb8161240c565b9050919050565b600060208201905081810360008301526126db8161242f565b9050919050565b600060208201905081810360008301526126fb81612452565b9050919050565b6000602082019050818103600083015261271b81612475565b9050919050565b6000602082019050818103600083015261273b81612498565b9050919050565b6000602082019050818103600083015261275b816124bb565b9050919050565b6000602082019050818103600083015261277b816124de565b9050919050565b6000602082019050818103600083015261279b81612501565b9050919050565b600060208201905081810360008301526127bb81612524565b9050919050565b600060208201905081810360008301526127db81612547565b9050919050565b60006020820190506127f7600083018461256a565b92915050565b600061010082019050612813600083018b61256a565b8181036020830152612825818a6123b0565b9050612834604083018961256a565b6128416060830188612307565b61284e608083018761256a565b61285b60a083018661256a565b61286860c083018561256a565b61287560e083018461256a565b9998505050505050505050565b6000604082019050612897600083018561256a565b6128a4602083018461256a565b9392505050565b60006128b56128c6565b90506128c18282612aa1565b919050565b6000604051905090565b600067ffffffffffffffff8211156128eb576128ea612bd7565b5b6128f482612c24565b9050602081019050919050565b6000819050602082019050919050565b600081519050919050565b600081519050919050565b6000602082019050919050565b600082825260208201905092915050565b600082825260208201905092915050565b600061296182612991565b9050919050565b60008115159050919050565b6000819050919050565b600081905061298c82612df8565b919050565b600073ffffffffffffffffffffffffffffffffffffffff82169050919050565b6000819050919050565b60006129c6826129df565b9050919050565b60006129d88261297e565b9050919050565b60006129ea826129f1565b9050919050565b60006129fc82612991565b9050919050565b82818337600083830152505050565b60005b83811015612a30578082015181840152602081019050612a15565b83811115612a3f576000848401525b50505050565b6000612a50826129b1565b91506000821415612a6457612a63612b1b565b5b600182039050919050565b60006002820490506001821680612a8757607f821691505b60208210811415612a9b57612a9a612b79565b5b50919050565b612aaa82612c24565b810181811067ffffffffffffffff82111715612ac957612ac8612bd7565b5b80604052505050565b6000612add826129b1565b91507fffffffffffffffffffffffffffffffffffffffffffffffffffffffffffffffff821415612b1057612b0f612b1b565b5b600182019050919050565b7f4e487b7100000000000000000000000000000000000000000000000000000000600052601160045260246000fd5b7f4e487b7100000000000000000000000000000000000000000000000000000000600052602160045260246000fd5b7f4e487b7100000000000000000000000000000000000000000000000000000000600052602260045260246000fd5b7f4e487b7100000000000000000000000000000000000000000000000000000000600052603260045260246000fd5b7f4e487b7100000000000000000000000000000000000000000000000000000000600052604160045260246000fd5b600080fd5b600080fd5b600080fd5b600080fd5b600080fd5b600080fd5b6000601f19601f8301169050919050565b7f53433a2063616e63656c206572726f7200000000000000000000000000000000600082015250565b7f4d433a204f6e6c79204c65637475726572000000000000000000000000000000600082015250565b7f4f6e6c79206f776e657200000000000000000000000000000000000000000000600082015250565b7f4d433a204f6e6c792053747564656e7400000000000000000000000000000000600082015250565b7f4d433a204f6e6c792074686520706572736f6e20696e20636861726765000000600082015250565b7f53433a207265676973746572206572726f720000000000000000000000000000600082015250565b7f53433a2054696d6520697320696e76616c696400000000000000000000000000600082015250565b7f53686f756c64206f6e6c79206164642073747564656e74000000000000000000600082015250565b7f5265616368206f7574206c696d69740000000000000000000000000000000000600082015250565b7f53433a204f6e6c79204c6f636b00000000000000000000000000000000000000600082015250565b7f53433a204f6e6c79204f70656e00000000000000000000000000000000000000600082015250565b60038110612e0957612e08612b4a565b5b50565b612e1581612956565b8114612e2057600080fd5b50565b612e2c81612968565b8114612e3757600080fd5b50565b612e43816129b1565b8114612e4e57600080fd5b5056fea26469706673582212206cbdf205facb7e11e4dcd609b4ee41f260f64167df8529c9173528df6f14532a64736f6c63430008070033",
					"opcodes": "PUSH1 0xA0 PUSH1 0x40 MSTORE PUSH1 0x0 PUSH1 0x8 PUSH1 0x0 PUSH2 0x100 EXP DUP2 SLOAD DUP2 PUSH1 0xFF MUL NOT AND SWAP1 DUP4 PUSH1 0x2 DUP2 GT ISZERO PUSH3 0x2D JUMPI PUSH3 0x2C PUSH3 0x177 JUMP JUMPDEST JUMPDEST MUL OR SWAP1 SSTORE POP CALLVALUE DUP1 ISZERO PUSH3 0x3F JUMPI PUSH1 0x0 DUP1 REVERT JUMPDEST POP PUSH1 0x40 MLOAD PUSH3 0x3080 CODESIZE SUB DUP1 PUSH3 0x3080 DUP4 CODECOPY DUP2 DUP2 ADD PUSH1 0x40 MSTORE DUP2 ADD SWAP1 PUSH3 0x65 SWAP2 SWAP1 PUSH3 0xFC JUMP JUMPDEST DUP2 PUSH20 0xFFFFFFFFFFFFFFFFFFFFFFFFFFFFFFFFFFFFFFFF AND PUSH1 0x80 DUP2 PUSH20 0xFFFFFFFFFFFFFFFFFFFFFFFFFFFFFFFFFFFFFFFF AND PUSH1 0x60 SHL DUP2 MSTORE POP POP DUP1 PUSH1 0x9 PUSH1 0x0 PUSH2 0x100 EXP DUP2 SLOAD DUP2 PUSH20 0xFFFFFFFFFFFFFFFFFFFFFFFFFFFFFFFFFFFFFFFF MUL NOT AND SWAP1 DUP4 PUSH20 0xFFFFFFFFFFFFFFFFFFFFFFFFFFFFFFFFFFFFFFFF AND MUL OR SWAP1 SSTORE POP POP POP PUSH3 0x1C5 JUMP JUMPDEST PUSH1 0x0 DUP2 MLOAD SWAP1 POP PUSH3 0xF6 DUP2 PUSH3 0x1AB JUMP JUMPDEST SWAP3 SWAP2 POP POP JUMP JUMPDEST PUSH1 0x0 DUP1 PUSH1 0x40 DUP4 DUP6 SUB SLT ISZERO PUSH3 0x116 JUMPI PUSH3 0x115 PUSH3 0x1A6 JUMP JUMPDEST JUMPDEST PUSH1 0x0 PUSH3 0x126 DUP6 DUP3 DUP7 ADD PUSH3 0xE5 JUMP JUMPDEST SWAP3 POP POP PUSH1 0x20 PUSH3 0x139 DUP6 DUP3 DUP7 ADD PUSH3 0xE5 JUMP JUMPDEST SWAP2 POP POP SWAP3 POP SWAP3 SWAP1 POP JUMP JUMPDEST PUSH1 0x0 PUSH3 0x150 DUP3 PUSH3 0x157 JUMP JUMPDEST SWAP1 POP SWAP2 SWAP1 POP JUMP JUMPDEST PUSH1 0x0 PUSH20 0xFFFFFFFFFFFFFFFFFFFFFFFFFFFFFFFFFFFFFFFF DUP3 AND SWAP1 POP SWAP2 SWAP1 POP JUMP JUMPDEST PUSH32 0x4E487B7100000000000000000000000000000000000000000000000000000000 PUSH1 0x0 MSTORE PUSH1 0x21 PUSH1 0x4 MSTORE PUSH1 0x24 PUSH1 0x0 REVERT JUMPDEST PUSH1 0x0 DUP1 REVERT JUMPDEST PUSH3 0x1B6 DUP2 PUSH3 0x143 JUMP JUMPDEST DUP2 EQ PUSH3 0x1C2 JUMPI PUSH1 0x0 DUP1 REVERT JUMPDEST POP JUMP JUMPDEST PUSH1 0x80 MLOAD PUSH1 0x60 SHR PUSH2 0x2E87 PUSH3 0x1F9 PUSH1 0x0 CODECOPY PUSH1 0x0 DUP2 DUP2 PUSH2 0x9C9 ADD MSTORE DUP2 DUP2 PUSH2 0xFDD ADD MSTORE DUP2 DUP2 PUSH2 0x1072 ADD MSTORE PUSH2 0x1527 ADD MSTORE PUSH2 0x2E87 PUSH1 0x0 RETURN INVALID PUSH1 0x80 PUSH1 0x40 MSTORE CALLVALUE DUP1 ISZERO PUSH2 0x10 JUMPI PUSH1 0x0 DUP1 REVERT JUMPDEST POP PUSH1 0x4 CALLDATASIZE LT PUSH2 0x121 JUMPI PUSH1 0x0 CALLDATALOAD PUSH1 0xE0 SHR DUP1 PUSH4 0x8DA5CB5B GT PUSH2 0xAD JUMPI DUP1 PUSH4 0xAA4936CE GT PUSH2 0x71 JUMPI DUP1 PUSH4 0xAA4936CE EQ PUSH2 0x2C6 JUMPI DUP1 PUSH4 0xAA8C217C EQ PUSH2 0x2E4 JUMPI DUP1 PUSH4 0xBE9A6555 EQ PUSH2 0x302 JUMPI DUP1 PUSH4 0xD16E57FE EQ PUSH2 0x30C JUMPI DUP1 PUSH4 0xED214FFF EQ PUSH2 0x328 JUMPI PUSH2 0x121 JUMP JUMPDEST DUP1 PUSH4 0x8DA5CB5B EQ PUSH2 0x20D JUMPI DUP1 PUSH4 0x98754710 EQ PUSH2 0x22B JUMPI DUP1 PUSH4 0xA32FB342 EQ PUSH2 0x25C JUMPI DUP1 PUSH4 0xA53DC8D2 EQ PUSH2 0x28C JUMPI DUP1 PUSH4 0xA7F44E0D EQ PUSH2 0x2A8 JUMPI PUSH2 0x121 JUMP JUMPDEST DUP1 PUSH4 0x35955121 GT PUSH2 0xF4 JUMPI DUP1 PUSH4 0x35955121 EQ PUSH2 0x191 JUMPI DUP1 PUSH4 0x35F34232 EQ PUSH2 0x1AD JUMPI DUP1 PUSH4 0x43D726D6 EQ PUSH2 0x1DD JUMPI DUP1 PUSH4 0x49AA7033 EQ PUSH2 0x1E7 JUMPI DUP1 PUSH4 0x6E88F230 EQ PUSH2 0x1F1 JUMPI PUSH2 0x121 JUMP JUMPDEST DUP1 PUSH4 0xA59A98C EQ PUSH2 0x126 JUMPI DUP1 PUSH4 0x1AA3A008 EQ PUSH2 0x14B JUMPI DUP1 PUSH4 0x200D2ED2 EQ PUSH2 0x155 JUMPI DUP1 PUSH4 0x2FE7A96D EQ PUSH2 0x173 JUMPI JUMPDEST PUSH1 0x0 DUP1 REVERT JUMPDEST PUSH2 0x12E PUSH2 0x346 JUMP JUMPDEST PUSH1 0x40 MLOAD PUSH2 0x142 SWAP9 SWAP8 SWAP7 SWAP6 SWAP5 SWAP4 SWAP3 SWAP2 SWAP1 PUSH2 0x27FD JUMP JUMPDEST PUSH1 0x40 MLOAD DUP1 SWAP2 SUB SWAP1 RETURN JUMPDEST PUSH2 0x153 PUSH2 0x424 JUMP JUMPDEST STOP JUMPDEST PUSH2 0x15D PUSH2 0x5B1 JUMP JUMPDEST PUSH1 0x40 MLOAD PUSH2 0x16A SWAP2 SWAP1 PUSH2 0x2667 JUMP JUMPDEST PUSH1 0x40 MLOAD DUP1 SWAP2 SUB SWAP1 RETURN JUMPDEST PUSH2 0x17B PUSH2 0x5C4 JUMP JUMPDEST PUSH1 0x40 MLOAD PUSH2 0x188 SWAP2 SWAP1 PUSH2 0x2579 JUMP JUMPDEST PUSH1 0x40 MLOAD DUP1 SWAP2 SUB SWAP1 RETURN JUMPDEST PUSH2 0x1AB PUSH1 0x4 DUP1 CALLDATASIZE SUB DUP2 ADD SWAP1 PUSH2 0x1A6 SWAP2 SWAP1 PUSH2 0x2167 JUMP JUMPDEST PUSH2 0x5EA JUMP JUMPDEST STOP JUMPDEST PUSH2 0x1C7 PUSH1 0x4 DUP1 CALLDATASIZE SUB DUP2 ADD SWAP1 PUSH2 0x1C2 SWAP2 SWAP1 PUSH2 0x21E1 JUMP JUMPDEST PUSH2 0x988 JUMP JUMPDEST PUSH1 0x40 MLOAD PUSH2 0x1D4 SWAP2 SWAP1 PUSH2 0x2579 JUMP JUMPDEST PUSH1 0x40 MLOAD DUP1 SWAP2 SUB SWAP1 RETURN JUMPDEST PUSH2 0x1E5 PUSH2 0x9C7 JUMP JUMPDEST STOP JUMPDEST PUSH2 0x1EF PUSH2 0xACA JUMP JUMPDEST STOP JUMPDEST PUSH2 0x20B PUSH1 0x4 DUP1 CALLDATASIZE SUB DUP2 ADD SWAP1 PUSH2 0x206 SWAP2 SWAP1 PUSH2 0x213A JUMP JUMPDEST PUSH2 0xD18 JUMP JUMPDEST STOP JUMPDEST PUSH2 0x215 PUSH2 0xFDB JUMP JUMPDEST PUSH1 0x40 MLOAD PUSH2 0x222 SWAP2 SWAP1 PUSH2 0x2579 JUMP JUMPDEST PUSH1 0x40 MLOAD DUP1 SWAP2 SUB SWAP1 RETURN JUMPDEST PUSH2 0x245 PUSH1 0x4 DUP1 CALLDATASIZE SUB DUP2 ADD SWAP1 PUSH2 0x240 SWAP2 SWAP1 PUSH2 0x213A JUMP JUMPDEST PUSH2 0xFFF JUMP JUMPDEST PUSH1 0x40 MLOAD PUSH2 0x253 SWAP3 SWAP2 SWAP1 PUSH2 0x2594 JUMP JUMPDEST PUSH1 0x40 MLOAD DUP1 SWAP2 SUB SWAP1 RETURN JUMPDEST PUSH2 0x276 PUSH1 0x4 DUP1 CALLDATASIZE SUB DUP2 ADD SWAP1 PUSH2 0x271 SWAP2 SWAP1 PUSH2 0x213A JUMP JUMPDEST PUSH2 0x1050 JUMP JUMPDEST PUSH1 0x40 MLOAD PUSH2 0x283 SWAP2 SWAP1 PUSH2 0x2608 JUMP JUMPDEST PUSH1 0x40 MLOAD DUP1 SWAP2 SUB SWAP1 RETURN JUMPDEST PUSH2 0x2A6 PUSH1 0x4 DUP1 CALLDATASIZE SUB DUP2 ADD SWAP1 PUSH2 0x2A1 SWAP2 SWAP1 PUSH2 0x220E JUMP JUMPDEST PUSH2 0x1070 JUMP JUMPDEST STOP JUMPDEST PUSH2 0x2B0 PUSH2 0x12D5 JUMP JUMPDEST PUSH1 0x40 MLOAD PUSH2 0x2BD SWAP2 SWAP1 PUSH2 0x25E6 JUMP JUMPDEST PUSH1 0x40 MLOAD DUP1 SWAP2 SUB SWAP1 RETURN JUMPDEST PUSH2 0x2CE PUSH2 0x14F9 JUMP JUMPDEST PUSH1 0x40 MLOAD PUSH2 0x2DB SWAP2 SWAP1 PUSH2 0x264C JUMP JUMPDEST PUSH1 0x40 MLOAD DUP1 SWAP2 SUB SWAP1 RETURN JUMPDEST PUSH2 0x2EC PUSH2 0x151F JUMP JUMPDEST PUSH1 0x40 MLOAD PUSH2 0x2F9 SWAP2 SWAP1 PUSH2 0x27E2 JUMP JUMPDEST PUSH1 0x40 MLOAD DUP1 SWAP2 SUB SWAP1 RETURN JUMPDEST PUSH2 0x30A PUSH2 0x1525 JUMP JUMPDEST STOP JUMPDEST PUSH2 0x326 PUSH1 0x4 DUP1 CALLDATASIZE SUB DUP2 ADD SWAP1 PUSH2 0x321 SWAP2 SWAP1 PUSH2 0x2167 JUMP JUMPDEST PUSH2 0x15E0 JUMP JUMPDEST STOP JUMPDEST PUSH2 0x330 PUSH2 0x19F1 JUMP JUMPDEST PUSH1 0x40 MLOAD PUSH2 0x33D SWAP2 SWAP1 PUSH2 0x25E6 JUMP JUMPDEST PUSH1 0x40 MLOAD DUP1 SWAP2 SUB SWAP1 RETURN JUMPDEST PUSH1 0x0 DUP1 PUSH1 0x0 ADD SLOAD SWAP1 DUP1 PUSH1 0x1 ADD DUP1 SLOAD PUSH2 0x35D SWAP1 PUSH2 0x2A6F JUMP JUMPDEST DUP1 PUSH1 0x1F ADD PUSH1 0x20 DUP1 SWAP2 DIV MUL PUSH1 0x20 ADD PUSH1 0x40 MLOAD SWAP1 DUP2 ADD PUSH1 0x40 MSTORE DUP1 SWAP3 SWAP2 SWAP1 DUP2 DUP2 MSTORE PUSH1 0x20 ADD DUP3 DUP1 SLOAD PUSH2 0x389 SWAP1 PUSH2 0x2A6F JUMP JUMPDEST DUP1 ISZERO PUSH2 0x3D6 JUMPI DUP1 PUSH1 0x1F LT PUSH2 0x3AB JUMPI PUSH2 0x100 DUP1 DUP4 SLOAD DIV MUL DUP4 MSTORE SWAP2 PUSH1 0x20 ADD SWAP2 PUSH2 0x3D6 JUMP JUMPDEST DUP3 ADD SWAP2 SWAP1 PUSH1 0x0 MSTORE PUSH1 0x20 PUSH1 0x0 KECCAK256 SWAP1 JUMPDEST DUP2 SLOAD DUP2 MSTORE SWAP1 PUSH1 0x1 ADD SWAP1 PUSH1 0x20 ADD DUP1 DUP4 GT PUSH2 0x3B9 JUMPI DUP3 SWAP1 SUB PUSH1 0x1F AND DUP3 ADD SWAP2 JUMPDEST POP POP POP POP POP SWAP1 DUP1 PUSH1 0x2 ADD SLOAD SWAP1 DUP1 PUSH1 0x3 ADD PUSH1 0x0 SWAP1 SLOAD SWAP1 PUSH2 0x100 EXP SWAP1 DIV PUSH20 0xFFFFFFFFFFFFFFFFFFFFFFFFFFFFFFFFFFFFFFFF AND SWAP1 DUP1 PUSH1 0x4 ADD SLOAD SWAP1 DUP1 PUSH1 0x5 ADD SLOAD SWAP1 DUP1 PUSH1 0x6 ADD SLOAD SWAP1 DUP1 PUSH1 0x7 ADD SLOAD SWAP1 POP DUP9 JUMP JUMPDEST PUSH1 0x1 PUSH1 0x2 DUP2 GT ISZERO PUSH2 0x438 JUMPI PUSH2 0x437 PUSH2 0x2B4A JUMP JUMPDEST JUMPDEST PUSH1 0x8 PUSH1 0x0 SWAP1 SLOAD SWAP1 PUSH2 0x100 EXP SWAP1 DIV PUSH1 0xFF AND PUSH1 0x2 DUP2 GT ISZERO PUSH2 0x45A JUMPI PUSH2 0x459 PUSH2 0x2B4A JUMP JUMPDEST JUMPDEST EQ PUSH2 0x49A JUMPI PUSH1 0x40 MLOAD PUSH32 0x8C379A000000000000000000000000000000000000000000000000000000000 DUP2 MSTORE PUSH1 0x4 ADD PUSH2 0x491 SWAP1 PUSH2 0x27C2 JUMP JUMPDEST PUSH1 0x40 MLOAD DUP1 SWAP2 SUB SWAP1 REVERT JUMPDEST PUSH1 0x9 PUSH1 0x0 SWAP1 SLOAD SWAP1 PUSH2 0x100 EXP SWAP1 DIV PUSH20 0xFFFFFFFFFFFFFFFFFFFFFFFFFFFFFFFFFFFFFFFF AND PUSH20 0xFFFFFFFFFFFFFFFFFFFFFFFFFFFFFFFFFFFFFFFF AND PUSH4 0x91D14854 PUSH32 0xC951D7098B66BA0B8B77265B6E9CF0E187D73125A42BCD0061B09A68BE421810 CALLER PUSH1 0x40 MLOAD DUP4 PUSH4 0xFFFFFFFF AND PUSH1 0xE0 SHL DUP2 MSTORE PUSH1 0x4 ADD PUSH2 0x517 SWAP3 SWAP2 SWAP1 PUSH2 0x2623 JUMP JUMPDEST PUSH1 0x20 PUSH1 0x40 MLOAD DUP1 DUP4 SUB DUP2 DUP7 DUP1 EXTCODESIZE ISZERO DUP1 ISZERO PUSH2 0x52F JUMPI PUSH1 0x0 DUP1 REVERT JUMPDEST POP GAS STATICCALL ISZERO DUP1 ISZERO PUSH2 0x543 JUMPI RETURNDATASIZE PUSH1 0x0 DUP1 RETURNDATACOPY RETURNDATASIZE PUSH1 0x0 REVERT JUMPDEST POP POP POP POP PUSH1 0x40 MLOAD RETURNDATASIZE PUSH1 0x1F NOT PUSH1 0x1F DUP3 ADD AND DUP3 ADD DUP1 PUSH1 0x40 MSTORE POP DUP2 ADD SWAP1 PUSH2 0x567 SWAP2 SWAP1 PUSH2 0x21B4 JUMP JUMPDEST PUSH2 0x5A6 JUMPI PUSH1 0x40 MLOAD PUSH32 0x8C379A000000000000000000000000000000000000000000000000000000000 DUP2 MSTORE PUSH1 0x4 ADD PUSH2 0x59D SWAP1 PUSH2 0x26E2 JUMP JUMPDEST PUSH1 0x40 MLOAD DUP1 SWAP2 SUB SWAP1 REVERT JUMPDEST PUSH2 0x5AF CALLER PUSH2 0x1CDC JUMP JUMPDEST JUMP JUMPDEST PUSH1 0x8 PUSH1 0x0 SWAP1 SLOAD SWAP1 PUSH2 0x100 EXP SWAP1 DIV PUSH1 0xFF AND DUP2 JUMP JUMPDEST PUSH1 0x8 PUSH1 0x1 SWAP1 SLOAD SWAP1 PUSH2 0x100 EXP SWAP1 DIV PUSH20 0xFFFFFFFFFFFFFFFFFFFFFFFFFFFFFFFFFFFFFFFF AND DUP2 JUMP JUMPDEST PUSH1 0x9 PUSH1 0x0 SWAP1 SLOAD SWAP1 PUSH2 0x100 EXP SWAP1 DIV PUSH20 0xFFFFFFFFFFFFFFFFFFFFFFFFFFFFFFFFFFFFFFFF AND PUSH20 0xFFFFFFFFFFFFFFFFFFFFFFFFFFFFFFFFFFFFFFFF AND PUSH4 0x91D14854 PUSH32 0xB39B9469AC3DDF8D58F06201F7E17350A277B429ED2A39727BF2F3A5165DBA1A CALLER PUSH1 0x40 MLOAD DUP4 PUSH4 0xFFFFFFFF AND PUSH1 0xE0 SHL DUP2 MSTORE PUSH1 0x4 ADD PUSH2 0x667 SWAP3 SWAP2 SWAP1 PUSH2 0x2623 JUMP JUMPDEST PUSH1 0x20 PUSH1 0x40 MLOAD DUP1 DUP4 SUB DUP2 DUP7 DUP1 EXTCODESIZE ISZERO DUP1 ISZERO PUSH2 0x67F JUMPI PUSH1 0x0 DUP1 REVERT JUMPDEST POP GAS STATICCALL ISZERO DUP1 ISZERO PUSH2 0x693 JUMPI RETURNDATASIZE PUSH1 0x0 DUP1 RETURNDATACOPY RETURNDATASIZE PUSH1 0x0 REVERT JUMPDEST POP POP POP POP PUSH1 0x40 MLOAD RETURNDATASIZE PUSH1 0x1F NOT PUSH1 0x1F DUP3 ADD AND DUP3 ADD DUP1 PUSH1 0x40 MSTORE POP DUP2 ADD SWAP1 PUSH2 0x6B7 SWAP2 SWAP1 PUSH2 0x21B4 JUMP JUMPDEST PUSH2 0x6F6 JUMPI PUSH1 0x40 MLOAD PUSH32 0x8C379A000000000000000000000000000000000000000000000000000000000 DUP2 MSTORE PUSH1 0x4 ADD PUSH2 0x6ED SWAP1 PUSH2 0x26A2 JUMP JUMPDEST PUSH1 0x40 MLOAD DUP1 SWAP2 SUB SWAP1 REVERT JUMPDEST PUSH1 0x1 PUSH1 0x2 DUP2 GT ISZERO PUSH2 0x70A JUMPI PUSH2 0x709 PUSH2 0x2B4A JUMP JUMPDEST JUMPDEST PUSH1 0x8 PUSH1 0x0 SWAP1 SLOAD SWAP1 PUSH2 0x100 EXP SWAP1 DIV PUSH1 0xFF AND PUSH1 0x2 DUP2 GT ISZERO PUSH2 0x72C JUMPI PUSH2 0x72B PUSH2 0x2B4A JUMP JUMPDEST JUMPDEST EQ PUSH2 0x76C JUMPI PUSH1 0x40 MLOAD PUSH32 0x8C379A000000000000000000000000000000000000000000000000000000000 DUP2 MSTORE PUSH1 0x4 ADD PUSH2 0x763 SWAP1 PUSH2 0x27C2 JUMP JUMPDEST PUSH1 0x40 MLOAD DUP1 SWAP2 SUB SWAP1 REVERT JUMPDEST PUSH1 0x0 PUSH1 0x3 ADD PUSH1 0x0 SWAP1 SLOAD SWAP1 PUSH2 0x100 EXP SWAP1 DIV PUSH20 0xFFFFFFFFFFFFFFFFFFFFFFFFFFFFFFFFFFFFFFFF AND PUSH20 0xFFFFFFFFFFFFFFFFFFFFFFFFFFFFFFFFFFFFFFFF AND CALLER PUSH20 0xFFFFFFFFFFFFFFFFFFFFFFFFFFFFFFFFFFFFFFFF AND EQ PUSH2 0x7FF JUMPI PUSH1 0x40 MLOAD PUSH32 0x8C379A000000000000000000000000000000000000000000000000000000000 DUP2 MSTORE PUSH1 0x4 ADD PUSH2 0x7F6 SWAP1 PUSH2 0x2702 JUMP JUMPDEST PUSH1 0x40 MLOAD DUP1 SWAP2 SUB SWAP1 REVERT JUMPDEST PUSH1 0x0 JUMPDEST DUP3 DUP3 SWAP1 POP DUP2 LT ISZERO PUSH2 0x983 JUMPI PUSH1 0x9 PUSH1 0x0 SWAP1 SLOAD SWAP1 PUSH2 0x100 EXP SWAP1 DIV PUSH20 0xFFFFFFFFFFFFFFFFFFFFFFFFFFFFFFFFFFFFFFFF AND PUSH20 0xFFFFFFFFFFFFFFFFFFFFFFFFFFFFFFFFFFFFFFFF AND PUSH4 0x91D14854 PUSH32 0xC951D7098B66BA0B8B77265B6E9CF0E187D73125A42BCD0061B09A68BE421810 DUP6 DUP6 DUP6 DUP2 DUP2 LT PUSH2 0x87F JUMPI PUSH2 0x87E PUSH2 0x2BA8 JUMP JUMPDEST JUMPDEST SWAP1 POP PUSH1 0x20 MUL ADD PUSH1 0x20 DUP2 ADD SWAP1 PUSH2 0x894 SWAP2 SWAP1 PUSH2 0x213A JUMP JUMPDEST PUSH1 0x40 MLOAD DUP4 PUSH4 0xFFFFFFFF AND PUSH1 0xE0 SHL DUP2 MSTORE PUSH1 0x4 ADD PUSH2 0x8B1 SWAP3 SWAP2 SWAP1 PUSH2 0x2623 JUMP JUMPDEST PUSH1 0x20 PUSH1 0x40 MLOAD DUP1 DUP4 SUB DUP2 DUP7 DUP1 EXTCODESIZE ISZERO DUP1 ISZERO PUSH2 0x8C9 JUMPI PUSH1 0x0 DUP1 REVERT JUMPDEST POP GAS STATICCALL ISZERO DUP1 ISZERO PUSH2 0x8DD JUMPI RETURNDATASIZE PUSH1 0x0 DUP1 RETURNDATACOPY RETURNDATASIZE PUSH1 0x0 REVERT JUMPDEST POP POP POP POP PUSH1 0x40 MLOAD RETURNDATASIZE PUSH1 0x1F NOT PUSH1 0x1F DUP3 ADD AND DUP3 ADD DUP1 PUSH1 0x40 MSTORE POP DUP2 ADD SWAP1 PUSH2 0x901 SWAP2 SWAP1 PUSH2 0x21B4 JUMP JUMPDEST PUSH2 0x940 JUMPI PUSH1 0x40 MLOAD PUSH32 0x8C379A000000000000000000000000000000000000000000000000000000000 DUP2 MSTORE PUSH1 0x4 ADD PUSH2 0x937 SWAP1 PUSH2 0x2762 JUMP JUMPDEST PUSH1 0x40 MLOAD DUP1 SWAP2 SUB SWAP1 REVERT JUMPDEST PUSH2 0x970 DUP4 DUP4 DUP4 DUP2 DUP2 LT PUSH2 0x956 JUMPI PUSH2 0x955 PUSH2 0x2BA8 JUMP JUMPDEST JUMPDEST SWAP1 POP PUSH1 0x20 MUL ADD PUSH1 0x20 DUP2 ADD SWAP1 PUSH2 0x96B SWAP2 SWAP1 PUSH2 0x213A JUMP JUMPDEST PUSH2 0x1CDC JUMP JUMPDEST DUP1 DUP1 PUSH2 0x97B SWAP1 PUSH2 0x2AD2 JUMP JUMPDEST SWAP2 POP POP PUSH2 0x802 JUMP JUMPDEST POP POP POP JUMP JUMPDEST PUSH1 0xA DUP2 DUP2 SLOAD DUP2 LT PUSH2 0x998 JUMPI PUSH1 0x0 DUP1 REVERT JUMPDEST SWAP1 PUSH1 0x0 MSTORE PUSH1 0x20 PUSH1 0x0 KECCAK256 ADD PUSH1 0x0 SWAP2 POP SLOAD SWAP1 PUSH2 0x100 EXP SWAP1 DIV PUSH20 0xFFFFFFFFFFFFFFFFFFFFFFFFFFFFFFFFFFFFFFFF AND DUP2 JUMP JUMPDEST PUSH32 0x0 PUSH20 0xFFFFFFFFFFFFFFFFFFFFFFFFFFFFFFFFFFFFFFFF AND CALLER PUSH20 0xFFFFFFFFFFFFFFFFFFFFFFFFFFFFFFFFFFFFFFFF AND EQ PUSH2 0xA55 JUMPI PUSH1 0x40 MLOAD PUSH32 0x8C379A000000000000000000000000000000000000000000000000000000000 DUP2 MSTORE PUSH1 0x4 ADD PUSH2 0xA4C SWAP1 PUSH2 0x26C2 JUMP JUMPDEST PUSH1 0x40 MLOAD DUP1 SWAP2 SUB SWAP1 REVERT JUMPDEST PUSH1 0x2 PUSH1 0x8 PUSH1 0x0 PUSH2 0x100 EXP DUP2 SLOAD DUP2 PUSH1 0xFF MUL NOT AND SWAP1 DUP4 PUSH1 0x2 DUP2 GT ISZERO PUSH2 0xA7B JUMPI PUSH2 0xA7A PUSH2 0x2B4A JUMP JUMPDEST JUMPDEST MUL OR SWAP1 SSTORE POP PUSH1 0x0 PUSH1 0x7 ADD SLOAD TIMESTAMP GT PUSH2 0xA91 JUMPI PUSH1 0x0 DUP1 REVERT JUMPDEST PUSH32 0xBF67515A38EE520223D32C1266D52101C30D936ED1F3E436C8CAEB0A43CB06BF TIMESTAMP PUSH1 0x40 MLOAD PUSH2 0xAC0 SWAP2 SWAP1 PUSH2 0x27E2 JUMP JUMPDEST PUSH1 0x40 MLOAD DUP1 SWAP2 SUB SWAP1 LOG1 JUMP JUMPDEST PUSH1 0x1 PUSH1 0x2 DUP2 GT ISZERO PUSH2 0xADE JUMPI PUSH2 0xADD PUSH2 0x2B4A JUMP JUMPDEST JUMPDEST PUSH1 0x8 PUSH1 0x0 SWAP1 SLOAD SWAP1 PUSH2 0x100 EXP SWAP1 DIV PUSH1 0xFF AND PUSH1 0x2 DUP2 GT ISZERO PUSH2 0xB00 JUMPI PUSH2 0xAFF PUSH2 0x2B4A JUMP JUMPDEST JUMPDEST EQ PUSH2 0xB40 JUMPI PUSH1 0x40 MLOAD PUSH32 0x8C379A000000000000000000000000000000000000000000000000000000000 DUP2 MSTORE PUSH1 0x4 ADD PUSH2 0xB37 SWAP1 PUSH2 0x27C2 JUMP JUMPDEST PUSH1 0x40 MLOAD DUP1 SWAP2 SUB SWAP1 REVERT JUMPDEST PUSH1 0x9 PUSH1 0x0 SWAP1 SLOAD SWAP1 PUSH2 0x100 EXP SWAP1 DIV PUSH20 0xFFFFFFFFFFFFFFFFFFFFFFFFFFFFFFFFFFFFFFFF AND PUSH20 0xFFFFFFFFFFFFFFFFFFFFFFFFFFFFFFFFFFFFFFFF AND PUSH4 0x91D14854 PUSH32 0xC951D7098B66BA0B8B77265B6E9CF0E187D73125A42BCD0061B09A68BE421810 CALLER PUSH1 0x40 MLOAD DUP4 PUSH4 0xFFFFFFFF AND PUSH1 0xE0 SHL DUP2 MSTORE PUSH1 0x4 ADD PUSH2 0xBBD SWAP3 SWAP2 SWAP1 PUSH2 0x2623 JUMP JUMPDEST PUSH1 0x20 PUSH1 0x40 MLOAD DUP1 DUP4 SUB DUP2 DUP7 DUP1 EXTCODESIZE ISZERO DUP1 ISZERO PUSH2 0xBD5 JUMPI PUSH1 0x0 DUP1 REVERT JUMPDEST POP GAS STATICCALL ISZERO DUP1 ISZERO PUSH2 0xBE9 JUMPI RETURNDATASIZE PUSH1 0x0 DUP1 RETURNDATACOPY RETURNDATASIZE PUSH1 0x0 REVERT JUMPDEST POP POP POP POP PUSH1 0x40 MLOAD RETURNDATASIZE PUSH1 0x1F NOT PUSH1 0x1F DUP3 ADD AND DUP3 ADD DUP1 PUSH1 0x40 MSTORE POP DUP2 ADD SWAP1 PUSH2 0xC0D SWAP2 SWAP1 PUSH2 0x21B4 JUMP JUMPDEST PUSH2 0xC4C JUMPI PUSH1 0x40 MLOAD PUSH32 0x8C379A000000000000000000000000000000000000000000000000000000000 DUP2 MSTORE PUSH1 0x4 ADD PUSH2 0xC43 SWAP1 PUSH2 0x26E2 JUMP JUMPDEST PUSH1 0x40 MLOAD DUP1 SWAP2 SUB SWAP1 REVERT JUMPDEST PUSH1 0x0 PUSH1 0xB PUSH1 0x0 CALLER PUSH20 0xFFFFFFFFFFFFFFFFFFFFFFFFFFFFFFFFFFFFFFFF AND PUSH20 0xFFFFFFFFFFFFFFFFFFFFFFFFFFFFFFFFFFFFFFFF AND DUP2 MSTORE PUSH1 0x20 ADD SWAP1 DUP2 MSTORE PUSH1 0x20 ADD PUSH1 0x0 KECCAK256 SWAP1 POP DUP1 PUSH1 0x0 ADD PUSH1 0x14 SWAP1 SLOAD SWAP1 PUSH2 0x100 EXP SWAP1 DIV PUSH1 0xFF AND PUSH2 0xCE0 JUMPI PUSH1 0x40 MLOAD PUSH32 0x8C379A000000000000000000000000000000000000000000000000000000000 DUP2 MSTORE PUSH1 0x4 ADD PUSH2 0xCD7 SWAP1 PUSH2 0x2682 JUMP JUMPDEST PUSH1 0x40 MLOAD DUP1 SWAP2 SUB SWAP1 REVERT JUMPDEST PUSH1 0xC PUSH1 0x0 DUP2 SLOAD DUP1 SWAP3 SWAP2 SWAP1 PUSH2 0xCF3 SWAP1 PUSH2 0x2A45 JUMP JUMPDEST SWAP2 SWAP1 POP SSTORE POP PUSH1 0x0 DUP2 PUSH1 0x0 ADD PUSH1 0x14 PUSH2 0x100 EXP DUP2 SLOAD DUP2 PUSH1 0xFF MUL NOT AND SWAP1 DUP4 ISZERO ISZERO MUL OR SWAP1 SSTORE POP POP JUMP JUMPDEST PUSH1 0x9 PUSH1 0x0 SWAP1 SLOAD SWAP1 PUSH2 0x100 EXP SWAP1 DIV PUSH20 0xFFFFFFFFFFFFFFFFFFFFFFFFFFFFFFFFFFFFFFFF AND PUSH20 0xFFFFFFFFFFFFFFFFFFFFFFFFFFFFFFFFFFFFFFFF AND PUSH4 0x91D14854 PUSH32 0xB39B9469AC3DDF8D58F06201F7E17350A277B429ED2A39727BF2F3A5165DBA1A CALLER PUSH1 0x40 MLOAD DUP4 PUSH4 0xFFFFFFFF AND PUSH1 0xE0 SHL DUP2 MSTORE PUSH1 0x4 ADD PUSH2 0xD95 SWAP3 SWAP2 SWAP1 PUSH2 0x2623 JUMP JUMPDEST PUSH1 0x20 PUSH1 0x40 MLOAD DUP1 DUP4 SUB DUP2 DUP7 DUP1 EXTCODESIZE ISZERO DUP1 ISZERO PUSH2 0xDAD JUMPI PUSH1 0x0 DUP1 REVERT JUMPDEST POP GAS STATICCALL ISZERO DUP1 ISZERO PUSH2 0xDC1 JUMPI RETURNDATASIZE PUSH1 0x0 DUP1 RETURNDATACOPY RETURNDATASIZE PUSH1 0x0 REVERT JUMPDEST POP POP POP POP PUSH1 0x40 MLOAD RETURNDATASIZE PUSH1 0x1F NOT PUSH1 0x1F DUP3 ADD AND DUP3 ADD DUP1 PUSH1 0x40 MSTORE POP DUP2 ADD SWAP1 PUSH2 0xDE5 SWAP2 SWAP1 PUSH2 0x21B4 JUMP JUMPDEST PUSH2 0xE24 JUMPI PUSH1 0x40 MLOAD PUSH32 0x8C379A000000000000000000000000000000000000000000000000000000000 DUP2 MSTORE PUSH1 0x4 ADD PUSH2 0xE1B SWAP1 PUSH2 0x26A2 JUMP JUMPDEST PUSH1 0x40 MLOAD DUP1 SWAP2 SUB SWAP1 REVERT JUMPDEST PUSH1 0x1 PUSH1 0x2 DUP2 GT ISZERO PUSH2 0xE38 JUMPI PUSH2 0xE37 PUSH2 0x2B4A JUMP JUMPDEST JUMPDEST PUSH1 0x8 PUSH1 0x0 SWAP1 SLOAD SWAP1 PUSH2 0x100 EXP SWAP1 DIV PUSH1 0xFF AND PUSH1 0x2 DUP2 GT ISZERO PUSH2 0xE5A JUMPI PUSH2 0xE59 PUSH2 0x2B4A JUMP JUMPDEST JUMPDEST EQ PUSH2 0xE9A JUMPI PUSH1 0x40 MLOAD PUSH32 0x8C379A000000000000000000000000000000000000000000000000000000000 DUP2 MSTORE PUSH1 0x4 ADD PUSH2 0xE91 SWAP1 PUSH2 0x27C2 JUMP JUMPDEST PUSH1 0x40 MLOAD DUP1 SWAP2 SUB SWAP1 REVERT JUMPDEST PUSH1 0x0 PUSH1 0x6 ADD SLOAD TIMESTAMP GT DUP1 ISZERO PUSH2 0xEB2 JUMPI POP PUSH1 0x0 PUSH1 0x7 ADD SLOAD TIMESTAMP LT JUMPDEST PUSH2 0xEBB JUMPI PUSH1 0x0 DUP1 REVERT JUMPDEST PUSH1 0xD PUSH1 0x0 DUP3 PUSH20 0xFFFFFFFFFFFFFFFFFFFFFFFFFFFFFFFFFFFFFFFF AND PUSH20 0xFFFFFFFFFFFFFFFFFFFFFFFFFFFFFFFFFFFFFFFF AND DUP2 MSTORE PUSH1 0x20 ADD SWAP1 DUP2 MSTORE PUSH1 0x20 ADD PUSH1 0x0 KECCAK256 PUSH1 0x0 SWAP1 SLOAD SWAP1 PUSH2 0x100 EXP SWAP1 DIV PUSH1 0xFF AND PUSH2 0xF47 JUMPI PUSH1 0x40 MLOAD PUSH32 0x8C379A000000000000000000000000000000000000000000000000000000000 DUP2 MSTORE PUSH1 0x4 ADD PUSH2 0xF3E SWAP1 PUSH2 0x2682 JUMP JUMPDEST PUSH1 0x40 MLOAD DUP1 SWAP2 SUB SWAP1 REVERT JUMPDEST PUSH1 0x0 PUSH1 0xD PUSH1 0x0 DUP4 PUSH20 0xFFFFFFFFFFFFFFFFFFFFFFFFFFFFFFFFFFFFFFFF AND PUSH20 0xFFFFFFFFFFFFFFFFFFFFFFFFFFFFFFFFFFFFFFFF AND DUP2 MSTORE PUSH1 0x20 ADD SWAP1 DUP2 MSTORE PUSH1 0x20 ADD PUSH1 0x0 KECCAK256 PUSH1 0x0 PUSH2 0x100 EXP DUP2 SLOAD DUP2 PUSH1 0xFF MUL NOT AND SWAP1 DUP4 ISZERO ISZERO MUL OR SWAP1 SSTORE POP PUSH32 0xFE786EC358465053564CB2B843230FD06C070174C46FBC3786D85D894FF39210 DUP2 TIMESTAMP PUSH1 0x40 MLOAD PUSH2 0xFD0 SWAP3 SWAP2 SWAP1 PUSH2 0x25BD JUMP JUMPDEST PUSH1 0x40 MLOAD DUP1 SWAP2 SUB SWAP1 LOG1 POP JUMP JUMPDEST PUSH32 0x0 DUP2 JUMP JUMPDEST PUSH1 0xB PUSH1 0x20 MSTORE DUP1 PUSH1 0x0 MSTORE PUSH1 0x40 PUSH1 0x0 KECCAK256 PUSH1 0x0 SWAP2 POP SWAP1 POP DUP1 PUSH1 0x0 ADD PUSH1 0x0 SWAP1 SLOAD SWAP1 PUSH2 0x100 EXP SWAP1 DIV PUSH20 0xFFFFFFFFFFFFFFFFFFFFFFFFFFFFFFFFFFFFFFFF AND SWAP1 DUP1 PUSH1 0x0 ADD PUSH1 0x14 SWAP1 SLOAD SWAP1 PUSH2 0x100 EXP SWAP1 DIV PUSH1 0xFF AND SWAP1 POP DUP3 JUMP JUMPDEST PUSH1 0xD PUSH1 0x20 MSTORE DUP1 PUSH1 0x0 MSTORE PUSH1 0x40 PUSH1 0x0 KECCAK256 PUSH1 0x0 SWAP2 POP SLOAD SWAP1 PUSH2 0x100 EXP SWAP1 DIV PUSH1 0xFF AND DUP2 JUMP JUMPDEST PUSH32 0x0 PUSH20 0xFFFFFFFFFFFFFFFFFFFFFFFFFFFFFFFFFFFFFFFF AND CALLER PUSH20 0xFFFFFFFFFFFFFFFFFFFFFFFFFFFFFFFFFFFFFFFF AND EQ PUSH2 0x10FE JUMPI PUSH1 0x40 MLOAD PUSH32 0x8C379A000000000000000000000000000000000000000000000000000000000 DUP2 MSTORE PUSH1 0x4 ADD PUSH2 0x10F5 SWAP1 PUSH2 0x26C2 JUMP JUMPDEST PUSH1 0x40 MLOAD DUP1 SWAP2 SUB SWAP1 REVERT JUMPDEST PUSH1 0x0 PUSH1 0x2 DUP2 GT ISZERO PUSH2 0x1112 JUMPI PUSH2 0x1111 PUSH2 0x2B4A JUMP JUMPDEST JUMPDEST PUSH1 0x8 PUSH1 0x0 SWAP1 SLOAD SWAP1 PUSH2 0x100 EXP SWAP1 DIV PUSH1 0xFF AND PUSH1 0x2 DUP2 GT ISZERO PUSH2 0x1134 JUMPI PUSH2 0x1133 PUSH2 0x2B4A JUMP JUMPDEST JUMPDEST EQ PUSH2 0x1174 JUMPI PUSH1 0x40 MLOAD PUSH32 0x8C379A000000000000000000000000000000000000000000000000000000000 DUP2 MSTORE PUSH1 0x4 ADD PUSH2 0x116B SWAP1 PUSH2 0x27A2 JUMP JUMPDEST PUSH1 0x40 MLOAD DUP1 SWAP2 SUB SWAP1 REVERT JUMPDEST DUP4 TIMESTAMP LT DUP1 ISZERO PUSH2 0x1182 JUMPI POP DUP3 DUP5 LT JUMPDEST DUP1 ISZERO PUSH2 0x118D JUMPI POP DUP2 DUP4 LT JUMPDEST DUP1 ISZERO PUSH2 0x1198 JUMPI POP DUP1 DUP3 LT JUMPDEST PUSH2 0x11D7 JUMPI PUSH1 0x40 MLOAD PUSH32 0x8C379A000000000000000000000000000000000000000000000000000000000 DUP2 MSTORE PUSH1 0x4 ADD PUSH2 0x11CE SWAP1 PUSH2 0x2742 JUMP JUMPDEST PUSH1 0x40 MLOAD DUP1 SWAP2 SUB SWAP1 REVERT JUMPDEST PUSH1 0x40 MLOAD DUP1 PUSH2 0x100 ADD PUSH1 0x40 MSTORE DUP1 DUP10 DUP2 MSTORE PUSH1 0x20 ADD DUP9 DUP2 MSTORE PUSH1 0x20 ADD DUP8 DUP2 MSTORE PUSH1 0x20 ADD DUP7 PUSH20 0xFFFFFFFFFFFFFFFFFFFFFFFFFFFFFFFFFFFFFFFF AND DUP2 MSTORE PUSH1 0x20 ADD DUP6 DUP2 MSTORE PUSH1 0x20 ADD DUP5 DUP2 MSTORE PUSH1 0x20 ADD DUP4 DUP2 MSTORE PUSH1 0x20 ADD DUP3 DUP2 MSTORE POP PUSH1 0x0 DUP1 DUP3 ADD MLOAD DUP2 PUSH1 0x0 ADD SSTORE PUSH1 0x20 DUP3 ADD MLOAD DUP2 PUSH1 0x1 ADD SWAP1 DUP1 MLOAD SWAP1 PUSH1 0x20 ADD SWAP1 PUSH2 0x124E SWAP3 SWAP2 SWAP1 PUSH2 0x1F92 JUMP JUMPDEST POP PUSH1 0x40 DUP3 ADD MLOAD DUP2 PUSH1 0x2 ADD SSTORE PUSH1 0x60 DUP3 ADD MLOAD DUP2 PUSH1 0x3 ADD PUSH1 0x0 PUSH2 0x100 EXP DUP2 SLOAD DUP2 PUSH20 0xFFFFFFFFFFFFFFFFFFFFFFFFFFFFFFFFFFFFFFFF MUL NOT AND SWAP1 DUP4 PUSH20 0xFFFFFFFFFFFFFFFFFFFFFFFFFFFFFFFFFFFFFFFF AND MUL OR SWAP1 SSTORE POP PUSH1 0x80 DUP3 ADD MLOAD DUP2 PUSH1 0x4 ADD SSTORE PUSH1 0xA0 DUP3 ADD MLOAD DUP2 PUSH1 0x5 ADD SSTORE PUSH1 0xC0 DUP3 ADD MLOAD DUP2 PUSH1 0x6 ADD SSTORE PUSH1 0xE0 DUP3 ADD MLOAD DUP2 PUSH1 0x7 ADD SSTORE SWAP1 POP POP POP POP POP POP POP POP POP POP JUMP JUMPDEST PUSH1 0x60 PUSH1 0x0 PUSH1 0xC SLOAD PUSH8 0xFFFFFFFFFFFFFFFF DUP2 GT ISZERO PUSH2 0x12F5 JUMPI PUSH2 0x12F4 PUSH2 0x2BD7 JUMP JUMPDEST JUMPDEST PUSH1 0x40 MLOAD SWAP1 DUP1 DUP3 MSTORE DUP1 PUSH1 0x20 MUL PUSH1 0x20 ADD DUP3 ADD PUSH1 0x40 MSTORE DUP1 ISZERO PUSH2 0x1323 JUMPI DUP2 PUSH1 0x20 ADD PUSH1 0x20 DUP3 MUL DUP1 CALLDATASIZE DUP4 CALLDATACOPY DUP1 DUP3 ADD SWAP2 POP POP SWAP1 POP JUMPDEST POP SWAP1 POP PUSH1 0x0 DUP1 PUSH1 0x0 SWAP1 POP JUMPDEST PUSH1 0xA DUP1 SLOAD SWAP1 POP DUP2 LT ISZERO PUSH2 0x14F0 JUMPI PUSH1 0xD PUSH1 0x0 PUSH1 0xA DUP4 DUP2 SLOAD DUP2 LT PUSH2 0x1353 JUMPI PUSH2 0x1352 PUSH2 0x2BA8 JUMP JUMPDEST JUMPDEST SWAP1 PUSH1 0x0 MSTORE PUSH1 0x20 PUSH1 0x0 KECCAK256 ADD PUSH1 0x0 SWAP1 SLOAD SWAP1 PUSH2 0x100 EXP SWAP1 DIV PUSH20 0xFFFFFFFFFFFFFFFFFFFFFFFFFFFFFFFFFFFFFFFF AND PUSH20 0xFFFFFFFFFFFFFFFFFFFFFFFFFFFFFFFFFFFFFFFF AND PUSH20 0xFFFFFFFFFFFFFFFFFFFFFFFFFFFFFFFFFFFFFFFF AND DUP2 MSTORE PUSH1 0x20 ADD SWAP1 DUP2 MSTORE PUSH1 0x20 ADD PUSH1 0x0 KECCAK256 PUSH1 0x0 SWAP1 SLOAD SWAP1 PUSH2 0x100 EXP SWAP1 DIV PUSH1 0xFF AND DUP1 ISZERO PUSH2 0x143D JUMPI POP PUSH1 0x0 PUSH20 0xFFFFFFFFFFFFFFFFFFFFFFFFFFFFFFFFFFFFFFFF AND PUSH1 0xA DUP3 DUP2 SLOAD DUP2 LT PUSH2 0x13F9 JUMPI PUSH2 0x13F8 PUSH2 0x2BA8 JUMP JUMPDEST JUMPDEST SWAP1 PUSH1 0x0 MSTORE PUSH1 0x20 PUSH1 0x0 KECCAK256 ADD PUSH1 0x0 SWAP1 SLOAD SWAP1 PUSH2 0x100 EXP SWAP1 DIV PUSH20 0xFFFFFFFFFFFFFFFFFFFFFFFFFFFFFFFFFFFFFFFF AND PUSH20 0xFFFFFFFFFFFFFFFFFFFFFFFFFFFFFFFFFFFFFFFF AND EQ ISZERO JUMPDEST ISZERO PUSH2 0x14DD JUMPI PUSH1 0xA DUP2 DUP2 SLOAD DUP2 LT PUSH2 0x1456 JUMPI PUSH2 0x1455 PUSH2 0x2BA8 JUMP JUMPDEST JUMPDEST SWAP1 PUSH1 0x0 MSTORE PUSH1 0x20 PUSH1 0x0 KECCAK256 ADD PUSH1 0x0 SWAP1 SLOAD SWAP1 PUSH2 0x100 EXP SWAP1 DIV PUSH20 0xFFFFFFFFFFFFFFFFFFFFFFFFFFFFFFFFFFFFFFFF AND DUP4 DUP4 DUP2 MLOAD DUP2 LT PUSH2 0x1494 JUMPI PUSH2 0x1493 PUSH2 0x2BA8 JUMP JUMPDEST JUMPDEST PUSH1 0x20 MUL PUSH1 0x20 ADD ADD SWAP1 PUSH20 0xFFFFFFFFFFFFFFFFFFFFFFFFFFFFFFFFFFFFFFFF AND SWAP1 DUP2 PUSH20 0xFFFFFFFFFFFFFFFFFFFFFFFFFFFFFFFFFFFFFFFF AND DUP2 MSTORE POP POP DUP2 DUP1 PUSH2 0x14D9 SWAP1 PUSH2 0x2AD2 JUMP JUMPDEST SWAP3 POP POP JUMPDEST DUP1 DUP1 PUSH2 0x14E8 SWAP1 PUSH2 0x2AD2 JUMP JUMPDEST SWAP2 POP POP PUSH2 0x132E JUMP JUMPDEST POP DUP2 SWAP3 POP POP POP SWAP1 JUMP JUMPDEST PUSH1 0x9 PUSH1 0x0 SWAP1 SLOAD SWAP1 PUSH2 0x100 EXP SWAP1 DIV PUSH20 0xFFFFFFFFFFFFFFFFFFFFFFFFFFFFFFFFFFFFFFFF AND DUP2 JUMP JUMPDEST PUSH1 0xC SLOAD DUP2 JUMP JUMPDEST PUSH32 0x0 PUSH20 0xFFFFFFFFFFFFFFFFFFFFFFFFFFFFFFFFFFFFFFFF AND CALLER PUSH20 0xFFFFFFFFFFFFFFFFFFFFFFFFFFFFFFFFFFFFFFFF AND EQ PUSH2 0x15B3 JUMPI PUSH1 0x40 MLOAD PUSH32 0x8C379A000000000000000000000000000000000000000000000000000000000 DUP2 MSTORE PUSH1 0x4 ADD PUSH2 0x15AA SWAP1 PUSH2 0x26C2 JUMP JUMPDEST PUSH1 0x40 MLOAD DUP1 SWAP2 SUB SWAP1 REVERT JUMPDEST PUSH1 0x1 PUSH1 0x8 PUSH1 0x0 PUSH2 0x100 EXP DUP2 SLOAD DUP2 PUSH1 0xFF MUL NOT AND SWAP1 DUP4 PUSH1 0x2 DUP2 GT ISZERO PUSH2 0x15D9 JUMPI PUSH2 0x15D8 PUSH2 0x2B4A JUMP JUMPDEST JUMPDEST MUL OR SWAP1 SSTORE POP JUMP JUMPDEST PUSH1 0x1 PUSH1 0x2 DUP2 GT ISZERO PUSH2 0x15F4 JUMPI PUSH2 0x15F3 PUSH2 0x2B4A JUMP JUMPDEST JUMPDEST PUSH1 0x8 PUSH1 0x0 SWAP1 SLOAD SWAP1 PUSH2 0x100 EXP SWAP1 DIV PUSH1 0xFF AND PUSH1 0x2 DUP2 GT ISZERO PUSH2 0x1616 JUMPI PUSH2 0x1615 PUSH2 0x2B4A JUMP JUMPDEST JUMPDEST EQ PUSH2 0x1656 JUMPI PUSH1 0x40 MLOAD PUSH32 0x8C379A000000000000000000000000000000000000000000000000000000000 DUP2 MSTORE PUSH1 0x4 ADD PUSH2 0x164D SWAP1 PUSH2 0x27C2 JUMP JUMPDEST PUSH1 0x40 MLOAD DUP1 SWAP2 SUB SWAP1 REVERT JUMPDEST PUSH1 0x9 PUSH1 0x0 SWAP1 SLOAD SWAP1 PUSH2 0x100 EXP SWAP1 DIV PUSH20 0xFFFFFFFFFFFFFFFFFFFFFFFFFFFFFFFFFFFFFFFF AND PUSH20 0xFFFFFFFFFFFFFFFFFFFFFFFFFFFFFFFFFFFFFFFF AND PUSH4 0x91D14854 PUSH32 0xB39B9469AC3DDF8D58F06201F7E17350A277B429ED2A39727BF2F3A5165DBA1A CALLER PUSH1 0x40 MLOAD DUP4 PUSH4 0xFFFFFFFF AND PUSH1 0xE0 SHL DUP2 MSTORE PUSH1 0x4 ADD PUSH2 0x16D3 SWAP3 SWAP2 SWAP1 PUSH2 0x2623 JUMP JUMPDEST PUSH1 0x20 PUSH1 0x40 MLOAD DUP1 DUP4 SUB DUP2 DUP7 DUP1 EXTCODESIZE ISZERO DUP1 ISZERO PUSH2 0x16EB JUMPI PUSH1 0x0 DUP1 REVERT JUMPDEST POP GAS STATICCALL ISZERO DUP1 ISZERO PUSH2 0x16FF JUMPI RETURNDATASIZE PUSH1 0x0 DUP1 RETURNDATACOPY RETURNDATASIZE PUSH1 0x0 REVERT JUMPDEST POP POP POP POP PUSH1 0x40 MLOAD RETURNDATASIZE PUSH1 0x1F NOT PUSH1 0x1F DUP3 ADD AND DUP3 ADD DUP1 PUSH1 0x40 MSTORE POP DUP2 ADD SWAP1 PUSH2 0x1723 SWAP2 SWAP1 PUSH2 0x21B4 JUMP JUMPDEST PUSH2 0x1762 JUMPI PUSH1 0x40 MLOAD PUSH32 0x8C379A000000000000000000000000000000000000000000000000000000000 DUP2 MSTORE PUSH1 0x4 ADD PUSH2 0x1759 SWAP1 PUSH2 0x26A2 JUMP JUMPDEST PUSH1 0x40 MLOAD DUP1 SWAP2 SUB SWAP1 REVERT JUMPDEST PUSH1 0x0 PUSH1 0x6 ADD SLOAD TIMESTAMP GT DUP1 ISZERO PUSH2 0x177A JUMPI POP PUSH1 0x0 PUSH1 0x7 ADD SLOAD TIMESTAMP LT JUMPDEST PUSH2 0x1783 JUMPI PUSH1 0x0 DUP1 REVERT JUMPDEST PUSH1 0x0 JUMPDEST DUP3 DUP3 SWAP1 POP DUP2 LT ISZERO PUSH2 0x19B0 JUMPI PUSH1 0x0 PUSH1 0xB PUSH1 0x0 DUP6 DUP6 DUP6 DUP2 DUP2 LT PUSH2 0x17AA JUMPI PUSH2 0x17A9 PUSH2 0x2BA8 JUMP JUMPDEST JUMPDEST SWAP1 POP PUSH1 0x20 MUL ADD PUSH1 0x20 DUP2 ADD SWAP1 PUSH2 0x17BF SWAP2 SWAP1 PUSH2 0x213A JUMP JUMPDEST PUSH20 0xFFFFFFFFFFFFFFFFFFFFFFFFFFFFFFFFFFFFFFFF AND PUSH20 0xFFFFFFFFFFFFFFFFFFFFFFFFFFFFFFFFFFFFFFFF AND DUP2 MSTORE PUSH1 0x20 ADD SWAP1 DUP2 MSTORE PUSH1 0x20 ADD PUSH1 0x0 KECCAK256 PUSH1 0x40 MLOAD DUP1 PUSH1 0x40 ADD PUSH1 0x40 MSTORE SWAP1 DUP2 PUSH1 0x0 DUP3 ADD PUSH1 0x0 SWAP1 SLOAD SWAP1 PUSH2 0x100 EXP SWAP1 DIV PUSH20 0xFFFFFFFFFFFFFFFFFFFFFFFFFFFFFFFFFFFFFFFF AND PUSH20 0xFFFFFFFFFFFFFFFFFFFFFFFFFFFFFFFFFFFFFFFF AND PUSH20 0xFFFFFFFFFFFFFFFFFFFFFFFFFFFFFFFFFFFFFFFF AND DUP2 MSTORE PUSH1 0x20 ADD PUSH1 0x0 DUP3 ADD PUSH1 0x14 SWAP1 SLOAD SWAP1 PUSH2 0x100 EXP SWAP1 DIV PUSH1 0xFF AND ISZERO ISZERO ISZERO ISZERO DUP2 MSTORE POP POP SWAP1 POP DUP1 PUSH1 0x20 ADD MLOAD DUP1 ISZERO PUSH2 0x18DE JUMPI POP DUP4 DUP4 DUP4 DUP2 DUP2 LT PUSH2 0x1896 JUMPI PUSH2 0x1895 PUSH2 0x2BA8 JUMP JUMPDEST JUMPDEST SWAP1 POP PUSH1 0x20 MUL ADD PUSH1 0x20 DUP2 ADD SWAP1 PUSH2 0x18AB SWAP2 SWAP1 PUSH2 0x213A JUMP JUMPDEST PUSH20 0xFFFFFFFFFFFFFFFFFFFFFFFFFFFFFFFFFFFFFFFF AND DUP2 PUSH1 0x0 ADD MLOAD PUSH20 0xFFFFFFFFFFFFFFFFFFFFFFFFFFFFFFFFFFFFFFFF AND EQ JUMPDEST PUSH2 0x191D JUMPI PUSH1 0x40 MLOAD PUSH32 0x8C379A000000000000000000000000000000000000000000000000000000000 DUP2 MSTORE PUSH1 0x4 ADD PUSH2 0x1914 SWAP1 PUSH2 0x2682 JUMP JUMPDEST PUSH1 0x40 MLOAD DUP1 SWAP2 SUB SWAP1 REVERT JUMPDEST PUSH1 0x1 PUSH1 0xD PUSH1 0x0 DUP7 DUP7 DUP7 DUP2 DUP2 LT PUSH2 0x1936 JUMPI PUSH2 0x1935 PUSH2 0x2BA8 JUMP JUMPDEST JUMPDEST SWAP1 POP PUSH1 0x20 MUL ADD PUSH1 0x20 DUP2 ADD SWAP1 PUSH2 0x194B SWAP2 SWAP1 PUSH2 0x213A JUMP JUMPDEST PUSH20 0xFFFFFFFFFFFFFFFFFFFFFFFFFFFFFFFFFFFFFFFF AND PUSH20 0xFFFFFFFFFFFFFFFFFFFFFFFFFFFFFFFFFFFFFFFF AND DUP2 MSTORE PUSH1 0x20 ADD SWAP1 DUP2 MSTORE PUSH1 0x20 ADD PUSH1 0x0 KECCAK256 PUSH1 0x0 PUSH2 0x100 EXP DUP2 SLOAD DUP2 PUSH1 0xFF MUL NOT AND SWAP1 DUP4 ISZERO ISZERO MUL OR SWAP1 SSTORE POP POP DUP1 DUP1 PUSH2 0x19A8 SWAP1 PUSH2 0x2AD2 JUMP JUMPDEST SWAP2 POP POP PUSH2 0x1786 JUMP JUMPDEST POP PUSH32 0x698DD5B92696456649E8994759CCFE7076B1EBE9096ECB083211D8BFE8163842 DUP3 DUP3 SWAP1 POP TIMESTAMP PUSH1 0x40 MLOAD PUSH2 0x19E5 SWAP3 SWAP2 SWAP1 PUSH2 0x2882 JUMP JUMPDEST PUSH1 0x40 MLOAD DUP1 SWAP2 SUB SWAP1 LOG1 POP POP JUMP JUMPDEST PUSH1 0x60 PUSH1 0x0 PUSH1 0xC SLOAD PUSH8 0xFFFFFFFFFFFFFFFF DUP2 GT ISZERO PUSH2 0x1A11 JUMPI PUSH2 0x1A10 PUSH2 0x2BD7 JUMP JUMPDEST JUMPDEST PUSH1 0x40 MLOAD SWAP1 DUP1 DUP3 MSTORE DUP1 PUSH1 0x20 MUL PUSH1 0x20 ADD DUP3 ADD PUSH1 0x40 MSTORE DUP1 ISZERO PUSH2 0x1A3F JUMPI DUP2 PUSH1 0x20 ADD PUSH1 0x20 DUP3 MUL DUP1 CALLDATASIZE DUP4 CALLDATACOPY DUP1 DUP3 ADD SWAP2 POP POP SWAP1 POP JUMPDEST POP SWAP1 POP PUSH1 0x0 DUP1 PUSH1 0x0 SWAP1 POP JUMPDEST PUSH1 0xA DUP1 SLOAD SWAP1 POP DUP2 LT ISZERO PUSH2 0x1CD3 JUMPI PUSH1 0xB PUSH1 0x0 PUSH1 0xA DUP4 DUP2 SLOAD DUP2 LT PUSH2 0x1A6F JUMPI PUSH2 0x1A6E PUSH2 0x2BA8 JUMP JUMPDEST JUMPDEST SWAP1 PUSH1 0x0 MSTORE PUSH1 0x20 PUSH1 0x0 KECCAK256 ADD PUSH1 0x0 SWAP1 SLOAD SWAP1 PUSH2 0x100 EXP SWAP1 DIV PUSH20 0xFFFFFFFFFFFFFFFFFFFFFFFFFFFFFFFFFFFFFFFF AND PUSH20 0xFFFFFFFFFFFFFFFFFFFFFFFFFFFFFFFFFFFFFFFF AND PUSH20 0xFFFFFFFFFFFFFFFFFFFFFFFFFFFFFFFFFFFFFFFF AND DUP2 MSTORE PUSH1 0x20 ADD SWAP1 DUP2 MSTORE PUSH1 0x20 ADD PUSH1 0x0 KECCAK256 PUSH1 0x0 ADD PUSH1 0x14 SWAP1 SLOAD SWAP1 PUSH2 0x100 EXP SWAP1 DIV PUSH1 0xFF AND DUP1 ISZERO PUSH2 0x1BBE JUMPI POP PUSH1 0x0 PUSH20 0xFFFFFFFFFFFFFFFFFFFFFFFFFFFFFFFFFFFFFFFF AND PUSH1 0xB PUSH1 0x0 PUSH1 0xA DUP5 DUP2 SLOAD DUP2 LT PUSH2 0x1B1C JUMPI PUSH2 0x1B1B PUSH2 0x2BA8 JUMP JUMPDEST JUMPDEST SWAP1 PUSH1 0x0 MSTORE PUSH1 0x20 PUSH1 0x0 KECCAK256 ADD PUSH1 0x0 SWAP1 SLOAD SWAP1 PUSH2 0x100 EXP SWAP1 DIV PUSH20 0xFFFFFFFFFFFFFFFFFFFFFFFFFFFFFFFFFFFFFFFF AND PUSH20 0xFFFFFFFFFFFFFFFFFFFFFFFFFFFFFFFFFFFFFFFF AND PUSH20 0xFFFFFFFFFFFFFFFFFFFFFFFFFFFFFFFFFFFFFFFF AND DUP2 MSTORE PUSH1 0x20 ADD SWAP1 DUP2 MSTORE PUSH1 0x20 ADD PUSH1 0x0 KECCAK256 PUSH1 0x0 ADD PUSH1 0x0 SWAP1 SLOAD SWAP1 PUSH2 0x100 EXP SWAP1 DIV PUSH20 0xFFFFFFFFFFFFFFFFFFFFFFFFFFFFFFFFFFFFFFFF AND PUSH20 0xFFFFFFFFFFFFFFFFFFFFFFFFFFFFFFFFFFFFFFFF AND EQ ISZERO JUMPDEST ISZERO PUSH2 0x1CC0 JUMPI PUSH1 0xB PUSH1 0x0 PUSH1 0xA DUP4 DUP2 SLOAD DUP2 LT PUSH2 0x1BDB JUMPI PUSH2 0x1BDA PUSH2 0x2BA8 JUMP JUMPDEST JUMPDEST SWAP1 PUSH1 0x0 MSTORE PUSH1 0x20 PUSH1 0x0 KECCAK256 ADD PUSH1 0x0 SWAP1 SLOAD SWAP1 PUSH2 0x100 EXP SWAP1 DIV PUSH20 0xFFFFFFFFFFFFFFFFFFFFFFFFFFFFFFFFFFFFFFFF AND PUSH20 0xFFFFFFFFFFFFFFFFFFFFFFFFFFFFFFFFFFFFFFFF AND PUSH20 0xFFFFFFFFFFFFFFFFFFFFFFFFFFFFFFFFFFFFFFFF AND DUP2 MSTORE PUSH1 0x20 ADD SWAP1 DUP2 MSTORE PUSH1 0x20 ADD PUSH1 0x0 KECCAK256 PUSH1 0x0 ADD PUSH1 0x0 SWAP1 SLOAD SWAP1 PUSH2 0x100 EXP SWAP1 DIV PUSH20 0xFFFFFFFFFFFFFFFFFFFFFFFFFFFFFFFFFFFFFFFF AND DUP4 DUP4 DUP2 MLOAD DUP2 LT PUSH2 0x1C77 JUMPI PUSH2 0x1C76 PUSH2 0x2BA8 JUMP JUMPDEST JUMPDEST PUSH1 0x20 MUL PUSH1 0x20 ADD ADD SWAP1 PUSH20 0xFFFFFFFFFFFFFFFFFFFFFFFFFFFFFFFFFFFFFFFF AND SWAP1 DUP2 PUSH20 0xFFFFFFFFFFFFFFFFFFFFFFFFFFFFFFFFFFFFFFFF AND DUP2 MSTORE POP POP DUP2 DUP1 PUSH2 0x1CBC SWAP1 PUSH2 0x2AD2 JUMP JUMPDEST SWAP3 POP POP JUMPDEST DUP1 DUP1 PUSH2 0x1CCB SWAP1 PUSH2 0x2AD2 JUMP JUMPDEST SWAP2 POP POP PUSH2 0x1A4A JUMP JUMPDEST POP DUP2 SWAP3 POP POP POP SWAP1 JUMP JUMPDEST PUSH1 0x0 PUSH1 0xB PUSH1 0x0 DUP4 PUSH20 0xFFFFFFFFFFFFFFFFFFFFFFFFFFFFFFFFFFFFFFFF AND PUSH20 0xFFFFFFFFFFFFFFFFFFFFFFFFFFFFFFFFFFFFFFFF AND DUP2 MSTORE PUSH1 0x20 ADD SWAP1 DUP2 MSTORE PUSH1 0x20 ADD PUSH1 0x0 KECCAK256 SWAP1 POP DUP1 PUSH1 0x0 ADD PUSH1 0x14 SWAP1 SLOAD SWAP1 PUSH2 0x100 EXP SWAP1 DIV PUSH1 0xFF AND ISZERO PUSH2 0x1D71 JUMPI PUSH1 0x40 MLOAD PUSH32 0x8C379A000000000000000000000000000000000000000000000000000000000 DUP2 MSTORE PUSH1 0x4 ADD PUSH2 0x1D68 SWAP1 PUSH2 0x2722 JUMP JUMPDEST PUSH1 0x40 MLOAD DUP1 SWAP2 SUB SWAP1 REVERT JUMPDEST PUSH1 0xC PUSH1 0x0 DUP2 SLOAD DUP1 SWAP3 SWAP2 SWAP1 PUSH2 0x1D84 SWAP1 PUSH2 0x2AD2 JUMP JUMPDEST SWAP2 SWAP1 POP SSTORE POP PUSH1 0x0 PUSH20 0xFFFFFFFFFFFFFFFFFFFFFFFFFFFFFFFFFFFFFFFF AND DUP2 PUSH1 0x0 ADD PUSH1 0x0 SWAP1 SLOAD SWAP1 PUSH2 0x100 EXP SWAP1 DIV PUSH20 0xFFFFFFFFFFFFFFFFFFFFFFFFFFFFFFFFFFFFFFFF AND PUSH20 0xFFFFFFFFFFFFFFFFFFFFFFFFFFFFFFFFFFFFFFFF AND EQ PUSH2 0x1E03 JUMPI PUSH1 0x1 DUP2 PUSH1 0x0 ADD PUSH1 0x14 PUSH2 0x100 EXP DUP2 SLOAD DUP2 PUSH1 0xFF MUL NOT AND SWAP1 DUP4 ISZERO ISZERO MUL OR SWAP1 SSTORE POP PUSH2 0x1F44 JUMP JUMPDEST PUSH1 0x0 PUSH1 0x40 MLOAD DUP1 PUSH1 0x40 ADD PUSH1 0x40 MSTORE DUP1 DUP5 PUSH20 0xFFFFFFFFFFFFFFFFFFFFFFFFFFFFFFFFFFFFFFFF AND DUP2 MSTORE PUSH1 0x20 ADD PUSH1 0x1 ISZERO ISZERO DUP2 MSTORE POP SWAP1 POP DUP1 PUSH1 0xB PUSH1 0x0 DUP6 PUSH20 0xFFFFFFFFFFFFFFFFFFFFFFFFFFFFFFFFFFFFFFFF AND PUSH20 0xFFFFFFFFFFFFFFFFFFFFFFFFFFFFFFFFFFFFFFFF AND DUP2 MSTORE PUSH1 0x20 ADD SWAP1 DUP2 MSTORE PUSH1 0x20 ADD PUSH1 0x0 KECCAK256 PUSH1 0x0 DUP3 ADD MLOAD DUP2 PUSH1 0x0 ADD PUSH1 0x0 PUSH2 0x100 EXP DUP2 SLOAD DUP2 PUSH20 0xFFFFFFFFFFFFFFFFFFFFFFFFFFFFFFFFFFFFFFFF MUL NOT AND SWAP1 DUP4 PUSH20 0xFFFFFFFFFFFFFFFFFFFFFFFFFFFFFFFFFFFFFFFF AND MUL OR SWAP1 SSTORE POP PUSH1 0x20 DUP3 ADD MLOAD DUP2 PUSH1 0x0 ADD PUSH1 0x14 PUSH2 0x100 EXP DUP2 SLOAD DUP2 PUSH1 0xFF MUL NOT AND SWAP1 DUP4 ISZERO ISZERO MUL OR SWAP1 SSTORE POP SWAP1 POP POP PUSH1 0xA DUP4 SWAP1 DUP1 PUSH1 0x1 DUP2 SLOAD ADD DUP1 DUP3 SSTORE DUP1 SWAP2 POP POP PUSH1 0x1 SWAP1 SUB SWAP1 PUSH1 0x0 MSTORE PUSH1 0x20 PUSH1 0x0 KECCAK256 ADD PUSH1 0x0 SWAP1 SWAP2 SWAP1 SWAP2 SWAP1 SWAP2 PUSH2 0x100 EXP DUP2 SLOAD DUP2 PUSH20 0xFFFFFFFFFFFFFFFFFFFFFFFFFFFFFFFFFFFFFFFF MUL NOT AND SWAP1 DUP4 PUSH20 0xFFFFFFFFFFFFFFFFFFFFFFFFFFFFFFFFFFFFFFFF AND MUL OR SWAP1 SSTORE POP POP JUMPDEST PUSH1 0x0 PUSH1 0x2 ADD SLOAD PUSH1 0xC SLOAD GT ISZERO PUSH2 0x1F8E JUMPI PUSH1 0x40 MLOAD PUSH32 0x8C379A000000000000000000000000000000000000000000000000000000000 DUP2 MSTORE PUSH1 0x4 ADD PUSH2 0x1F85 SWAP1 PUSH2 0x2782 JUMP JUMPDEST PUSH1 0x40 MLOAD DUP1 SWAP2 SUB SWAP1 REVERT JUMPDEST POP POP JUMP JUMPDEST DUP3 DUP1 SLOAD PUSH2 0x1F9E SWAP1 PUSH2 0x2A6F JUMP JUMPDEST SWAP1 PUSH1 0x0 MSTORE PUSH1 0x20 PUSH1 0x0 KECCAK256 SWAP1 PUSH1 0x1F ADD PUSH1 0x20 SWAP1 DIV DUP2 ADD SWAP3 DUP3 PUSH2 0x1FC0 JUMPI PUSH1 0x0 DUP6 SSTORE PUSH2 0x2007 JUMP JUMPDEST DUP3 PUSH1 0x1F LT PUSH2 0x1FD9 JUMPI DUP1 MLOAD PUSH1 0xFF NOT AND DUP4 DUP1 ADD OR DUP6 SSTORE PUSH2 0x2007 JUMP JUMPDEST DUP3 DUP1 ADD PUSH1 0x1 ADD DUP6 SSTORE DUP3 ISZERO PUSH2 0x2007 JUMPI SWAP2 DUP3 ADD JUMPDEST DUP3 DUP2 GT ISZERO PUSH2 0x2006 JUMPI DUP3 MLOAD DUP3 SSTORE SWAP2 PUSH1 0x20 ADD SWAP2 SWAP1 PUSH1 0x1 ADD SWAP1 PUSH2 0x1FEB JUMP JUMPDEST JUMPDEST POP SWAP1 POP PUSH2 0x2014 SWAP2 SWAP1 PUSH2 0x2018 JUMP JUMPDEST POP SWAP1 JUMP JUMPDEST JUMPDEST DUP1 DUP3 GT ISZERO PUSH2 0x2031 JUMPI PUSH1 0x0 DUP2 PUSH1 0x0 SWAP1 SSTORE POP PUSH1 0x1 ADD PUSH2 0x2019 JUMP JUMPDEST POP SWAP1 JUMP JUMPDEST PUSH1 0x0 PUSH2 0x2048 PUSH2 0x2043 DUP5 PUSH2 0x28D0 JUMP JUMPDEST PUSH2 0x28AB JUMP JUMPDEST SWAP1 POP DUP3 DUP2 MSTORE PUSH1 0x20 DUP2 ADD DUP5 DUP5 DUP5 ADD GT ISZERO PUSH2 0x2064 JUMPI PUSH2 0x2063 PUSH2 0x2C15 JUMP JUMPDEST JUMPDEST PUSH2 0x206F DUP5 DUP3 DUP6 PUSH2 0x2A03 JUMP JUMPDEST POP SWAP4 SWAP3 POP POP POP JUMP JUMPDEST PUSH1 0x0 DUP2 CALLDATALOAD SWAP1 POP PUSH2 0x2086 DUP2 PUSH2 0x2E0C JUMP JUMPDEST SWAP3 SWAP2 POP POP JUMP JUMPDEST PUSH1 0x0 DUP1 DUP4 PUSH1 0x1F DUP5 ADD SLT PUSH2 0x20A2 JUMPI PUSH2 0x20A1 PUSH2 0x2C0B JUMP JUMPDEST JUMPDEST DUP3 CALLDATALOAD SWAP1 POP PUSH8 0xFFFFFFFFFFFFFFFF DUP2 GT ISZERO PUSH2 0x20BF JUMPI PUSH2 0x20BE PUSH2 0x2C06 JUMP JUMPDEST JUMPDEST PUSH1 0x20 DUP4 ADD SWAP2 POP DUP4 PUSH1 0x20 DUP3 MUL DUP4 ADD GT ISZERO PUSH2 0x20DB JUMPI PUSH2 0x20DA PUSH2 0x2C10 JUMP JUMPDEST JUMPDEST SWAP3 POP SWAP3 SWAP1 POP JUMP JUMPDEST PUSH1 0x0 DUP2 MLOAD SWAP1 POP PUSH2 0x20F1 DUP2 PUSH2 0x2E23 JUMP JUMPDEST SWAP3 SWAP2 POP POP JUMP JUMPDEST PUSH1 0x0 DUP3 PUSH1 0x1F DUP4 ADD SLT PUSH2 0x210C JUMPI PUSH2 0x210B PUSH2 0x2C0B JUMP JUMPDEST JUMPDEST DUP2 CALLDATALOAD PUSH2 0x211C DUP5 DUP3 PUSH1 0x20 DUP7 ADD PUSH2 0x2035 JUMP JUMPDEST SWAP2 POP POP SWAP3 SWAP2 POP POP JUMP JUMPDEST PUSH1 0x0 DUP2 CALLDATALOAD SWAP1 POP PUSH2 0x2134 DUP2 PUSH2 0x2E3A JUMP JUMPDEST SWAP3 SWAP2 POP POP JUMP JUMPDEST PUSH1 0x0 PUSH1 0x20 DUP3 DUP5 SUB SLT ISZERO PUSH2 0x2150 JUMPI PUSH2 0x214F PUSH2 0x2C1F JUMP JUMPDEST JUMPDEST PUSH1 0x0 PUSH2 0x215E DUP5 DUP3 DUP6 ADD PUSH2 0x2077 JUMP JUMPDEST SWAP2 POP POP SWAP3 SWAP2 POP POP JUMP JUMPDEST PUSH1 0x0 DUP1 PUSH1 0x20 DUP4 DUP6 SUB SLT ISZERO PUSH2 0x217E JUMPI PUSH2 0x217D PUSH2 0x2C1F JUMP JUMPDEST JUMPDEST PUSH1 0x0 DUP4 ADD CALLDATALOAD PUSH8 0xFFFFFFFFFFFFFFFF DUP2 GT ISZERO PUSH2 0x219C JUMPI PUSH2 0x219B PUSH2 0x2C1A JUMP JUMPDEST JUMPDEST PUSH2 0x21A8 DUP6 DUP3 DUP7 ADD PUSH2 0x208C JUMP JUMPDEST SWAP3 POP SWAP3 POP POP SWAP3 POP SWAP3 SWAP1 POP JUMP JUMPDEST PUSH1 0x0 PUSH1 0x20 DUP3 DUP5 SUB SLT ISZERO PUSH2 0x21CA JUMPI PUSH2 0x21C9 PUSH2 0x2C1F JUMP JUMPDEST JUMPDEST PUSH1 0x0 PUSH2 0x21D8 DUP5 DUP3 DUP6 ADD PUSH2 0x20E2 JUMP JUMPDEST SWAP2 POP POP SWAP3 SWAP2 POP POP JUMP JUMPDEST PUSH1 0x0 PUSH1 0x20 DUP3 DUP5 SUB SLT ISZERO PUSH2 0x21F7 JUMPI PUSH2 0x21F6 PUSH2 0x2C1F JUMP JUMPDEST JUMPDEST PUSH1 0x0 PUSH2 0x2205 DUP5 DUP3 DUP6 ADD PUSH2 0x2125 JUMP JUMPDEST SWAP2 POP POP SWAP3 SWAP2 POP POP JUMP JUMPDEST PUSH1 0x0 DUP1 PUSH1 0x0 DUP1 PUSH1 0x0 DUP1 PUSH1 0x0 DUP1 PUSH2 0x100 DUP10 DUP12 SUB SLT ISZERO PUSH2 0x222F JUMPI PUSH2 0x222E PUSH2 0x2C1F JUMP JUMPDEST JUMPDEST PUSH1 0x0 PUSH2 0x223D DUP12 DUP3 DUP13 ADD PUSH2 0x2125 JUMP JUMPDEST SWAP9 POP POP PUSH1 0x20 DUP10 ADD CALLDATALOAD PUSH8 0xFFFFFFFFFFFFFFFF DUP2 GT ISZERO PUSH2 0x225E JUMPI PUSH2 0x225D PUSH2 0x2C1A JUMP JUMPDEST JUMPDEST PUSH2 0x226A DUP12 DUP3 DUP13 ADD PUSH2 0x20F7 JUMP JUMPDEST SWAP8 POP POP PUSH1 0x40 PUSH2 0x227B DUP12 DUP3 DUP13 ADD PUSH2 0x2125 JUMP JUMPDEST SWAP7 POP POP PUSH1 0x60 PUSH2 0x228C DUP12 DUP3 DUP13 ADD PUSH2 0x2077 JUMP JUMPDEST SWAP6 POP POP PUSH1 0x80 PUSH2 0x229D DUP12 DUP3 DUP13 ADD PUSH2 0x2125 JUMP JUMPDEST SWAP5 POP POP PUSH1 0xA0 PUSH2 0x22AE DUP12 DUP3 DUP13 ADD PUSH2 0x2125 JUMP JUMPDEST SWAP4 POP POP PUSH1 0xC0 PUSH2 0x22BF DUP12 DUP3 DUP13 ADD PUSH2 0x2125 JUMP JUMPDEST SWAP3 POP POP PUSH1 0xE0 PUSH2 0x22D0 DUP12 DUP3 DUP13 ADD PUSH2 0x2125 JUMP JUMPDEST SWAP2 POP POP SWAP3 SWAP6 SWAP9 POP SWAP3 SWAP6 SWAP9 SWAP1 SWAP4 SWAP7 POP JUMP JUMPDEST PUSH1 0x0 PUSH2 0x22EC DUP4 DUP4 PUSH2 0x22F8 JUMP JUMPDEST PUSH1 0x20 DUP4 ADD SWAP1 POP SWAP3 SWAP2 POP POP JUMP JUMPDEST PUSH2 0x2301 DUP2 PUSH2 0x2956 JUMP JUMPDEST DUP3 MSTORE POP POP JUMP JUMPDEST PUSH2 0x2310 DUP2 PUSH2 0x2956 JUMP JUMPDEST DUP3 MSTORE POP POP JUMP JUMPDEST PUSH1 0x0 PUSH2 0x2321 DUP3 PUSH2 0x2911 JUMP JUMPDEST PUSH2 0x232B DUP2 DUP6 PUSH2 0x2934 JUMP JUMPDEST SWAP4 POP PUSH2 0x2336 DUP4 PUSH2 0x2901 JUMP JUMPDEST DUP1 PUSH1 0x0 JUMPDEST DUP4 DUP2 LT ISZERO PUSH2 0x2367 JUMPI DUP2 MLOAD PUSH2 0x234E DUP9 DUP3 PUSH2 0x22E0 JUMP JUMPDEST SWAP8 POP PUSH2 0x2359 DUP4 PUSH2 0x2927 JUMP JUMPDEST SWAP3 POP POP PUSH1 0x1 DUP2 ADD SWAP1 POP PUSH2 0x233A JUMP JUMPDEST POP DUP6 SWAP4 POP POP POP POP SWAP3 SWAP2 POP POP JUMP JUMPDEST PUSH2 0x237D DUP2 PUSH2 0x2968 JUMP JUMPDEST DUP3 MSTORE POP POP JUMP JUMPDEST PUSH2 0x238C DUP2 PUSH2 0x2974 JUMP JUMPDEST DUP3 MSTORE POP POP JUMP JUMPDEST PUSH2 0x239B DUP2 PUSH2 0x29BB JUMP JUMPDEST DUP3 MSTORE POP POP JUMP JUMPDEST PUSH2 0x23AA DUP2 PUSH2 0x29CD JUMP JUMPDEST DUP3 MSTORE POP POP JUMP JUMPDEST PUSH1 0x0 PUSH2 0x23BB DUP3 PUSH2 0x291C JUMP JUMPDEST PUSH2 0x23C5 DUP2 DUP6 PUSH2 0x2945 JUMP JUMPDEST SWAP4 POP PUSH2 0x23D5 DUP2 DUP6 PUSH1 0x20 DUP7 ADD PUSH2 0x2A12 JUMP JUMPDEST PUSH2 0x23DE DUP2 PUSH2 0x2C24 JUMP JUMPDEST DUP5 ADD SWAP2 POP POP SWAP3 SWAP2 POP POP JUMP JUMPDEST PUSH1 0x0 PUSH2 0x23F6 PUSH1 0x10 DUP4 PUSH2 0x2945 JUMP JUMPDEST SWAP2 POP PUSH2 0x2401 DUP3 PUSH2 0x2C35 JUMP JUMPDEST PUSH1 0x20 DUP3 ADD SWAP1 POP SWAP2 SWAP1 POP JUMP JUMPDEST PUSH1 0x0 PUSH2 0x2419 PUSH1 0x11 DUP4 PUSH2 0x2945 JUMP JUMPDEST SWAP2 POP PUSH2 0x2424 DUP3 PUSH2 0x2C5E JUMP JUMPDEST PUSH1 0x20 DUP3 ADD SWAP1 POP SWAP2 SWAP1 POP JUMP JUMPDEST PUSH1 0x0 PUSH2 0x243C PUSH1 0xA DUP4 PUSH2 0x2945 JUMP JUMPDEST SWAP2 POP PUSH2 0x2447 DUP3 PUSH2 0x2C87 JUMP JUMPDEST PUSH1 0x20 DUP3 ADD SWAP1 POP SWAP2 SWAP1 POP JUMP JUMPDEST PUSH1 0x0 PUSH2 0x245F PUSH1 0x10 DUP4 PUSH2 0x2945 JUMP JUMPDEST SWAP2 POP PUSH2 0x246A DUP3 PUSH2 0x2CB0 JUMP JUMPDEST PUSH1 0x20 DUP3 ADD SWAP1 POP SWAP2 SWAP1 POP JUMP JUMPDEST PUSH1 0x0 PUSH2 0x2482 PUSH1 0x1D DUP4 PUSH2 0x2945 JUMP JUMPDEST SWAP2 POP PUSH2 0x248D DUP3 PUSH2 0x2CD9 JUMP JUMPDEST PUSH1 0x20 DUP3 ADD SWAP1 POP SWAP2 SWAP1 POP JUMP JUMPDEST PUSH1 0x0 PUSH2 0x24A5 PUSH1 0x12 DUP4 PUSH2 0x2945 JUMP JUMPDEST SWAP2 POP PUSH2 0x24B0 DUP3 PUSH2 0x2D02 JUMP JUMPDEST PUSH1 0x20 DUP3 ADD SWAP1 POP SWAP2 SWAP1 POP JUMP JUMPDEST PUSH1 0x0 PUSH2 0x24C8 PUSH1 0x13 DUP4 PUSH2 0x2945 JUMP JUMPDEST SWAP2 POP PUSH2 0x24D3 DUP3 PUSH2 0x2D2B JUMP JUMPDEST PUSH1 0x20 DUP3 ADD SWAP1 POP SWAP2 SWAP1 POP JUMP JUMPDEST PUSH1 0x0 PUSH2 0x24EB PUSH1 0x17 DUP4 PUSH2 0x2945 JUMP JUMPDEST SWAP2 POP PUSH2 0x24F6 DUP3 PUSH2 0x2D54 JUMP JUMPDEST PUSH1 0x20 DUP3 ADD SWAP1 POP SWAP2 SWAP1 POP JUMP JUMPDEST PUSH1 0x0 PUSH2 0x250E PUSH1 0xF DUP4 PUSH2 0x2945 JUMP JUMPDEST SWAP2 POP PUSH2 0x2519 DUP3 PUSH2 0x2D7D JUMP JUMPDEST PUSH1 0x20 DUP3 ADD SWAP1 POP SWAP2 SWAP1 POP JUMP JUMPDEST PUSH1 0x0 PUSH2 0x2531 PUSH1 0xD DUP4 PUSH2 0x2945 JUMP JUMPDEST SWAP2 POP PUSH2 0x253C DUP3 PUSH2 0x2DA6 JUMP JUMPDEST PUSH1 0x20 DUP3 ADD SWAP1 POP SWAP2 SWAP1 POP JUMP JUMPDEST PUSH1 0x0 PUSH2 0x2554 PUSH1 0xD DUP4 PUSH2 0x2945 JUMP JUMPDEST SWAP2 POP PUSH2 0x255F DUP3 PUSH2 0x2DCF JUMP JUMPDEST PUSH1 0x20 DUP3 ADD SWAP1 POP SWAP2 SWAP1 POP JUMP JUMPDEST PUSH2 0x2573 DUP2 PUSH2 0x29B1 JUMP JUMPDEST DUP3 MSTORE POP POP JUMP JUMPDEST PUSH1 0x0 PUSH1 0x20 DUP3 ADD SWAP1 POP PUSH2 0x258E PUSH1 0x0 DUP4 ADD DUP5 PUSH2 0x2307 JUMP JUMPDEST SWAP3 SWAP2 POP POP JUMP JUMPDEST PUSH1 0x0 PUSH1 0x40 DUP3 ADD SWAP1 POP PUSH2 0x25A9 PUSH1 0x0 DUP4 ADD DUP6 PUSH2 0x2307 JUMP JUMPDEST PUSH2 0x25B6 PUSH1 0x20 DUP4 ADD DUP5 PUSH2 0x2374 JUMP JUMPDEST SWAP4 SWAP3 POP POP POP JUMP JUMPDEST PUSH1 0x0 PUSH1 0x40 DUP3 ADD SWAP1 POP PUSH2 0x25D2 PUSH1 0x0 DUP4 ADD DUP6 PUSH2 0x2307 JUMP JUMPDEST PUSH2 0x25DF PUSH1 0x20 DUP4 ADD DUP5 PUSH2 0x256A JUMP JUMPDEST SWAP4 SWAP3 POP POP POP JUMP JUMPDEST PUSH1 0x0 PUSH1 0x20 DUP3 ADD SWAP1 POP DUP2 DUP2 SUB PUSH1 0x0 DUP4 ADD MSTORE PUSH2 0x2600 DUP2 DUP5 PUSH2 0x2316 JUMP JUMPDEST SWAP1 POP SWAP3 SWAP2 POP POP JUMP JUMPDEST PUSH1 0x0 PUSH1 0x20 DUP3 ADD SWAP1 POP PUSH2 0x261D PUSH1 0x0 DUP4 ADD DUP5 PUSH2 0x2374 JUMP JUMPDEST SWAP3 SWAP2 POP POP JUMP JUMPDEST PUSH1 0x0 PUSH1 0x40 DUP3 ADD SWAP1 POP PUSH2 0x2638 PUSH1 0x0 DUP4 ADD DUP6 PUSH2 0x2383 JUMP JUMPDEST PUSH2 0x2645 PUSH1 0x20 DUP4 ADD DUP5 PUSH2 0x2307 JUMP JUMPDEST SWAP4 SWAP3 POP POP POP JUMP JUMPDEST PUSH1 0x0 PUSH1 0x20 DUP3 ADD SWAP1 POP PUSH2 0x2661 PUSH1 0x0 DUP4 ADD DUP5 PUSH2 0x2392 JUMP JUMPDEST SWAP3 SWAP2 POP POP JUMP JUMPDEST PUSH1 0x0 PUSH1 0x20 DUP3 ADD SWAP1 POP PUSH2 0x267C PUSH1 0x0 DUP4 ADD DUP5 PUSH2 0x23A1 JUMP JUMPDEST SWAP3 SWAP2 POP POP JUMP JUMPDEST PUSH1 0x0 PUSH1 0x20 DUP3 ADD SWAP1 POP DUP2 DUP2 SUB PUSH1 0x0 DUP4 ADD MSTORE PUSH2 0x269B DUP2 PUSH2 0x23E9 JUMP JUMPDEST SWAP1 POP SWAP2 SWAP1 POP JUMP JUMPDEST PUSH1 0x0 PUSH1 0x20 DUP3 ADD SWAP1 POP DUP2 DUP2 SUB PUSH1 0x0 DUP4 ADD MSTORE PUSH2 0x26BB DUP2 PUSH2 0x240C JUMP JUMPDEST SWAP1 POP SWAP2 SWAP1 POP JUMP JUMPDEST PUSH1 0x0 PUSH1 0x20 DUP3 ADD SWAP1 POP DUP2 DUP2 SUB PUSH1 0x0 DUP4 ADD MSTORE PUSH2 0x26DB DUP2 PUSH2 0x242F JUMP JUMPDEST SWAP1 POP SWAP2 SWAP1 POP JUMP JUMPDEST PUSH1 0x0 PUSH1 0x20 DUP3 ADD SWAP1 POP DUP2 DUP2 SUB PUSH1 0x0 DUP4 ADD MSTORE PUSH2 0x26FB DUP2 PUSH2 0x2452 JUMP JUMPDEST SWAP1 POP SWAP2 SWAP1 POP JUMP JUMPDEST PUSH1 0x0 PUSH1 0x20 DUP3 ADD SWAP1 POP DUP2 DUP2 SUB PUSH1 0x0 DUP4 ADD MSTORE PUSH2 0x271B DUP2 PUSH2 0x2475 JUMP JUMPDEST SWAP1 POP SWAP2 SWAP1 POP JUMP JUMPDEST PUSH1 0x0 PUSH1 0x20 DUP3 ADD SWAP1 POP DUP2 DUP2 SUB PUSH1 0x0 DUP4 ADD MSTORE PUSH2 0x273B DUP2 PUSH2 0x2498 JUMP JUMPDEST SWAP1 POP SWAP2 SWAP1 POP JUMP JUMPDEST PUSH1 0x0 PUSH1 0x20 DUP3 ADD SWAP1 POP DUP2 DUP2 SUB PUSH1 0x0 DUP4 ADD MSTORE PUSH2 0x275B DUP2 PUSH2 0x24BB JUMP JUMPDEST SWAP1 POP SWAP2 SWAP1 POP JUMP JUMPDEST PUSH1 0x0 PUSH1 0x20 DUP3 ADD SWAP1 POP DUP2 DUP2 SUB PUSH1 0x0 DUP4 ADD MSTORE PUSH2 0x277B DUP2 PUSH2 0x24DE JUMP JUMPDEST SWAP1 POP SWAP2 SWAP1 POP JUMP JUMPDEST PUSH1 0x0 PUSH1 0x20 DUP3 ADD SWAP1 POP DUP2 DUP2 SUB PUSH1 0x0 DUP4 ADD MSTORE PUSH2 0x279B DUP2 PUSH2 0x2501 JUMP JUMPDEST SWAP1 POP SWAP2 SWAP1 POP JUMP JUMPDEST PUSH1 0x0 PUSH1 0x20 DUP3 ADD SWAP1 POP DUP2 DUP2 SUB PUSH1 0x0 DUP4 ADD MSTORE PUSH2 0x27BB DUP2 PUSH2 0x2524 JUMP JUMPDEST SWAP1 POP SWAP2 SWAP1 POP JUMP JUMPDEST PUSH1 0x0 PUSH1 0x20 DUP3 ADD SWAP1 POP DUP2 DUP2 SUB PUSH1 0x0 DUP4 ADD MSTORE PUSH2 0x27DB DUP2 PUSH2 0x2547 JUMP JUMPDEST SWAP1 POP SWAP2 SWAP1 POP JUMP JUMPDEST PUSH1 0x0 PUSH1 0x20 DUP3 ADD SWAP1 POP PUSH2 0x27F7 PUSH1 0x0 DUP4 ADD DUP5 PUSH2 0x256A JUMP JUMPDEST SWAP3 SWAP2 POP POP JUMP JUMPDEST PUSH1 0x0 PUSH2 0x100 DUP3 ADD SWAP1 POP PUSH2 0x2813 PUSH1 0x0 DUP4 ADD DUP12 PUSH2 0x256A JUMP JUMPDEST DUP2 DUP2 SUB PUSH1 0x20 DUP4 ADD MSTORE PUSH2 0x2825 DUP2 DUP11 PUSH2 0x23B0 JUMP JUMPDEST SWAP1 POP PUSH2 0x2834 PUSH1 0x40 DUP4 ADD DUP10 PUSH2 0x256A JUMP JUMPDEST PUSH2 0x2841 PUSH1 0x60 DUP4 ADD DUP9 PUSH2 0x2307 JUMP JUMPDEST PUSH2 0x284E PUSH1 0x80 DUP4 ADD DUP8 PUSH2 0x256A JUMP JUMPDEST PUSH2 0x285B PUSH1 0xA0 DUP4 ADD DUP7 PUSH2 0x256A JUMP JUMPDEST PUSH2 0x2868 PUSH1 0xC0 DUP4 ADD DUP6 PUSH2 0x256A JUMP JUMPDEST PUSH2 0x2875 PUSH1 0xE0 DUP4 ADD DUP5 PUSH2 0x256A JUMP JUMPDEST SWAP10 SWAP9 POP POP POP POP POP POP POP POP POP JUMP JUMPDEST PUSH1 0x0 PUSH1 0x40 DUP3 ADD SWAP1 POP PUSH2 0x2897 PUSH1 0x0 DUP4 ADD DUP6 PUSH2 0x256A JUMP JUMPDEST PUSH2 0x28A4 PUSH1 0x20 DUP4 ADD DUP5 PUSH2 0x256A JUMP JUMPDEST SWAP4 SWAP3 POP POP POP JUMP JUMPDEST PUSH1 0x0 PUSH2 0x28B5 PUSH2 0x28C6 JUMP JUMPDEST SWAP1 POP PUSH2 0x28C1 DUP3 DUP3 PUSH2 0x2AA1 JUMP JUMPDEST SWAP2 SWAP1 POP JUMP JUMPDEST PUSH1 0x0 PUSH1 0x40 MLOAD SWAP1 POP SWAP1 JUMP JUMPDEST PUSH1 0x0 PUSH8 0xFFFFFFFFFFFFFFFF DUP3 GT ISZERO PUSH2 0x28EB JUMPI PUSH2 0x28EA PUSH2 0x2BD7 JUMP JUMPDEST JUMPDEST PUSH2 0x28F4 DUP3 PUSH2 0x2C24 JUMP JUMPDEST SWAP1 POP PUSH1 0x20 DUP2 ADD SWAP1 POP SWAP2 SWAP1 POP JUMP JUMPDEST PUSH1 0x0 DUP2 SWAP1 POP PUSH1 0x20 DUP3 ADD SWAP1 POP SWAP2 SWAP1 POP JUMP JUMPDEST PUSH1 0x0 DUP2 MLOAD SWAP1 POP SWAP2 SWAP1 POP JUMP JUMPDEST PUSH1 0x0 DUP2 MLOAD SWAP1 POP SWAP2 SWAP1 POP JUMP JUMPDEST PUSH1 0x0 PUSH1 0x20 DUP3 ADD SWAP1 POP SWAP2 SWAP1 POP JUMP JUMPDEST PUSH1 0x0 DUP3 DUP3 MSTORE PUSH1 0x20 DUP3 ADD SWAP1 POP SWAP3 SWAP2 POP POP JUMP JUMPDEST PUSH1 0x0 DUP3 DUP3 MSTORE PUSH1 0x20 DUP3 ADD SWAP1 POP SWAP3 SWAP2 POP POP JUMP JUMPDEST PUSH1 0x0 PUSH2 0x2961 DUP3 PUSH2 0x2991 JUMP JUMPDEST SWAP1 POP SWAP2 SWAP1 POP JUMP JUMPDEST PUSH1 0x0 DUP2 ISZERO ISZERO SWAP1 POP SWAP2 SWAP1 POP JUMP JUMPDEST PUSH1 0x0 DUP2 SWAP1 POP SWAP2 SWAP1 POP JUMP JUMPDEST PUSH1 0x0 DUP2 SWAP1 POP PUSH2 0x298C DUP3 PUSH2 0x2DF8 JUMP JUMPDEST SWAP2 SWAP1 POP JUMP JUMPDEST PUSH1 0x0 PUSH20 0xFFFFFFFFFFFFFFFFFFFFFFFFFFFFFFFFFFFFFFFF DUP3 AND SWAP1 POP SWAP2 SWAP1 POP JUMP JUMPDEST PUSH1 0x0 DUP2 SWAP1 POP SWAP2 SWAP1 POP JUMP JUMPDEST PUSH1 0x0 PUSH2 0x29C6 DUP3 PUSH2 0x29DF JUMP JUMPDEST SWAP1 POP SWAP2 SWAP1 POP JUMP JUMPDEST PUSH1 0x0 PUSH2 0x29D8 DUP3 PUSH2 0x297E JUMP JUMPDEST SWAP1 POP SWAP2 SWAP1 POP JUMP JUMPDEST PUSH1 0x0 PUSH2 0x29EA DUP3 PUSH2 0x29F1 JUMP JUMPDEST SWAP1 POP SWAP2 SWAP1 POP JUMP JUMPDEST PUSH1 0x0 PUSH2 0x29FC DUP3 PUSH2 0x2991 JUMP JUMPDEST SWAP1 POP SWAP2 SWAP1 POP JUMP JUMPDEST DUP3 DUP2 DUP4 CALLDATACOPY PUSH1 0x0 DUP4 DUP4 ADD MSTORE POP POP POP JUMP JUMPDEST PUSH1 0x0 JUMPDEST DUP4 DUP2 LT ISZERO PUSH2 0x2A30 JUMPI DUP1 DUP3 ADD MLOAD DUP2 DUP5 ADD MSTORE PUSH1 0x20 DUP2 ADD SWAP1 POP PUSH2 0x2A15 JUMP JUMPDEST DUP4 DUP2 GT ISZERO PUSH2 0x2A3F JUMPI PUSH1 0x0 DUP5 DUP5 ADD MSTORE JUMPDEST POP POP POP POP JUMP JUMPDEST PUSH1 0x0 PUSH2 0x2A50 DUP3 PUSH2 0x29B1 JUMP JUMPDEST SWAP2 POP PUSH1 0x0 DUP3 EQ ISZERO PUSH2 0x2A64 JUMPI PUSH2 0x2A63 PUSH2 0x2B1B JUMP JUMPDEST JUMPDEST PUSH1 0x1 DUP3 SUB SWAP1 POP SWAP2 SWAP1 POP JUMP JUMPDEST PUSH1 0x0 PUSH1 0x2 DUP3 DIV SWAP1 POP PUSH1 0x1 DUP3 AND DUP1 PUSH2 0x2A87 JUMPI PUSH1 0x7F DUP3 AND SWAP2 POP JUMPDEST PUSH1 0x20 DUP3 LT DUP2 EQ ISZERO PUSH2 0x2A9B JUMPI PUSH2 0x2A9A PUSH2 0x2B79 JUMP JUMPDEST JUMPDEST POP SWAP2 SWAP1 POP JUMP JUMPDEST PUSH2 0x2AAA DUP3 PUSH2 0x2C24 JUMP JUMPDEST DUP2 ADD DUP2 DUP2 LT PUSH8 0xFFFFFFFFFFFFFFFF DUP3 GT OR ISZERO PUSH2 0x2AC9 JUMPI PUSH2 0x2AC8 PUSH2 0x2BD7 JUMP JUMPDEST JUMPDEST DUP1 PUSH1 0x40 MSTORE POP POP POP JUMP JUMPDEST PUSH1 0x0 PUSH2 0x2ADD DUP3 PUSH2 0x29B1 JUMP JUMPDEST SWAP2 POP PUSH32 0xFFFFFFFFFFFFFFFFFFFFFFFFFFFFFFFFFFFFFFFFFFFFFFFFFFFFFFFFFFFFFFFF DUP3 EQ ISZERO PUSH2 0x2B10 JUMPI PUSH2 0x2B0F PUSH2 0x2B1B JUMP JUMPDEST JUMPDEST PUSH1 0x1 DUP3 ADD SWAP1 POP SWAP2 SWAP1 POP JUMP JUMPDEST PUSH32 0x4E487B7100000000000000000000000000000000000000000000000000000000 PUSH1 0x0 MSTORE PUSH1 0x11 PUSH1 0x4 MSTORE PUSH1 0x24 PUSH1 0x0 REVERT JUMPDEST PUSH32 0x4E487B7100000000000000000000000000000000000000000000000000000000 PUSH1 0x0 MSTORE PUSH1 0x21 PUSH1 0x4 MSTORE PUSH1 0x24 PUSH1 0x0 REVERT JUMPDEST PUSH32 0x4E487B7100000000000000000000000000000000000000000000000000000000 PUSH1 0x0 MSTORE PUSH1 0x22 PUSH1 0x4 MSTORE PUSH1 0x24 PUSH1 0x0 REVERT JUMPDEST PUSH32 0x4E487B7100000000000000000000000000000000000000000000000000000000 PUSH1 0x0 MSTORE PUSH1 0x32 PUSH1 0x4 MSTORE PUSH1 0x24 PUSH1 0x0 REVERT JUMPDEST PUSH32 0x4E487B7100000000000000000000000000000000000000000000000000000000 PUSH1 0x0 MSTORE PUSH1 0x41 PUSH1 0x4 MSTORE PUSH1 0x24 PUSH1 0x0 REVERT JUMPDEST PUSH1 0x0 DUP1 REVERT JUMPDEST PUSH1 0x0 DUP1 REVERT JUMPDEST PUSH1 0x0 DUP1 REVERT JUMPDEST PUSH1 0x0 DUP1 REVERT JUMPDEST PUSH1 0x0 DUP1 REVERT JUMPDEST PUSH1 0x0 DUP1 REVERT JUMPDEST PUSH1 0x0 PUSH1 0x1F NOT PUSH1 0x1F DUP4 ADD AND SWAP1 POP SWAP2 SWAP1 POP JUMP JUMPDEST PUSH32 0x53433A2063616E63656C206572726F7200000000000000000000000000000000 PUSH1 0x0 DUP3 ADD MSTORE POP JUMP JUMPDEST PUSH32 0x4D433A204F6E6C79204C65637475726572000000000000000000000000000000 PUSH1 0x0 DUP3 ADD MSTORE POP JUMP JUMPDEST PUSH32 0x4F6E6C79206F776E657200000000000000000000000000000000000000000000 PUSH1 0x0 DUP3 ADD MSTORE POP JUMP JUMPDEST PUSH32 0x4D433A204F6E6C792053747564656E7400000000000000000000000000000000 PUSH1 0x0 DUP3 ADD MSTORE POP JUMP JUMPDEST PUSH32 0x4D433A204F6E6C792074686520706572736F6E20696E20636861726765000000 PUSH1 0x0 DUP3 ADD MSTORE POP JUMP JUMPDEST PUSH32 0x53433A207265676973746572206572726F720000000000000000000000000000 PUSH1 0x0 DUP3 ADD MSTORE POP JUMP JUMPDEST PUSH32 0x53433A2054696D6520697320696E76616C696400000000000000000000000000 PUSH1 0x0 DUP3 ADD MSTORE POP JUMP JUMPDEST PUSH32 0x53686F756C64206F6E6C79206164642073747564656E74000000000000000000 PUSH1 0x0 DUP3 ADD MSTORE POP JUMP JUMPDEST PUSH32 0x5265616368206F7574206C696D69740000000000000000000000000000000000 PUSH1 0x0 DUP3 ADD MSTORE POP JUMP JUMPDEST PUSH32 0x53433A204F6E6C79204C6F636B00000000000000000000000000000000000000 PUSH1 0x0 DUP3 ADD MSTORE POP JUMP JUMPDEST PUSH32 0x53433A204F6E6C79204F70656E00000000000000000000000000000000000000 PUSH1 0x0 DUP3 ADD MSTORE POP JUMP JUMPDEST PUSH1 0x3 DUP2 LT PUSH2 0x2E09 JUMPI PUSH2 0x2E08 PUSH2 0x2B4A JUMP JUMPDEST JUMPDEST POP JUMP JUMPDEST PUSH2 0x2E15 DUP2 PUSH2 0x2956 JUMP JUMPDEST DUP2 EQ PUSH2 0x2E20 JUMPI PUSH1 0x0 DUP1 REVERT JUMPDEST POP JUMP JUMPDEST PUSH2 0x2E2C DUP2 PUSH2 0x2968 JUMP JUMPDEST DUP2 EQ PUSH2 0x2E37 JUMPI PUSH1 0x0 DUP1 REVERT JUMPDEST POP JUMP JUMPDEST PUSH2 0x2E43 DUP2 PUSH2 0x29B1 JUMP JUMPDEST DUP2 EQ PUSH2 0x2E4E JUMPI PUSH1 0x0 DUP1 REVERT JUMPDEST POP JUMP INVALID LOG2 PUSH5 0x6970667358 0x22 SLT KECCAK256 PUSH13 0xBDF205FACB7E11E4DCD609B4EE COINBASE CALLCODE PUSH1 0xF6 COINBASE PUSH8 0xDF8529C9173528DF PUSH16 0x14532A64736F6C634300080700330000 "
				},
				"gasEstimates": {
					"creation": {
						"codeDepositCost": "2382200",
						"executionCost": "infinite",
						"totalCost": "infinite"
					},
					"external": {
						"UITToken()": "2654",
						"accessControll()": "2622",
						"addStudentToSubject(address[])": "infinite",
						"addressToStudent(address)": "infinite",
						"amount()": "2473",
						"cancelRegister()": "infinite",
						"close()": "infinite",
						"completedAddress(address)": "2912",
						"confirmCompletedAddress(address[])": "infinite",
						"getParticipantList()": "infinite",
						"getParticipantListCompleted()": "infinite",
						"owner()": "infinite",
						"register()": "infinite",
						"setBasicForSubject(uint256,string,uint256,address,uint256,uint256,uint256,uint256)": "infinite",
						"start()": "infinite",
						"status()": "2628",
						"student(uint256)": "5001",
						"subject()": "infinite",
						"unConfirmCompletedAddress(address)": "infinite"
					},
					"internal": {
						"_register(address)": "infinite"
					}
				},
				"methodIdentifiers": {
					"UITToken()": "2fe7a96d",
					"accessControll()": "aa4936ce",
					"addStudentToSubject(address[])": "35955121",
					"addressToStudent(address)": "98754710",
					"amount()": "aa8c217c",
					"cancelRegister()": "49aa7033",
					"close()": "43d726d6",
					"completedAddress(address)": "a32fb342",
					"confirmCompletedAddress(address[])": "d16e57fe",
					"getParticipantList()": "ed214fff",
					"getParticipantListCompleted()": "a7f44e0d",
					"owner()": "8da5cb5b",
					"register()": "1aa3a008",
					"setBasicForSubject(uint256,string,uint256,address,uint256,uint256,uint256,uint256)": "a53dc8d2",
					"start()": "be9a6555",
					"status()": "200d2ed2",
					"student(uint256)": "35f34232",
					"subject()": "0a59a98c",
					"unConfirmCompletedAddress(address)": "6e88f230"
				}
			},
			"userdoc": {
				"kind": "user",
				"methods": {},
				"version": 1
			}
		}
	}
}