{
	"contracts/studentmanager/TuitionContract.sol": {
		"TuitionContract": {
			"abi": [
				{
					"inputs": [
						{
							"internalType": "address",
							"name": "_owner",
							"type": "address"
						},
						{
							"internalType": "address",
							"name": "_accessControll",
							"type": "address"
						},
						{
							"internalType": "address",
							"name": "_rewardDistributor",
							"type": "address"
						}
					],
					"stateMutability": "nonpayable",
					"type": "constructor"
				},
				{
					"anonymous": false,
					"inputs": [
						{
							"indexed": false,
							"internalType": "uint256",
							"name": "timestamp",
							"type": "uint256"
						}
					],
					"name": "Close",
					"type": "event"
				},
				{
					"anonymous": false,
					"inputs": [
						{
							"indexed": true,
							"internalType": "uint256",
							"name": "id",
							"type": "uint256"
						}
					],
					"name": "CreatedNewTuition",
					"type": "event"
				},
				{
					"anonymous": false,
					"inputs": [
						{
							"indexed": false,
							"internalType": "address",
							"name": "student",
							"type": "address"
						},
						{
							"indexed": false,
							"internalType": "uint256",
							"name": "timestamp",
							"type": "uint256"
						},
						{
							"indexed": false,
							"internalType": "enum ITuitionContract.PaymentMethod",
							"name": "_method",
							"type": "uint8"
						}
					],
					"name": "Payment",
					"type": "event"
				},
				{
					"inputs": [],
					"name": "accessControll",
					"outputs": [
						{
							"internalType": "contract IAccessControl",
							"name": "",
							"type": "address"
						}
					],
					"stateMutability": "view",
					"type": "function"
				},
				{
					"inputs": [
						{
							"internalType": "address[]",
							"name": "_students",
							"type": "address[]"
						}
					],
					"name": "addStudentToTuition",
					"outputs": [],
					"stateMutability": "nonpayable",
					"type": "function"
				},
				{
					"inputs": [],
					"name": "amount",
					"outputs": [
						{
							"internalType": "uint256",
							"name": "",
							"type": "uint256"
						}
					],
					"stateMutability": "view",
					"type": "function"
				},
				{
					"inputs": [],
					"name": "close",
					"outputs": [],
					"stateMutability": "nonpayable",
					"type": "function"
				},
				{
					"inputs": [
						{
							"internalType": "address",
							"name": "",
							"type": "address"
						}
					],
					"name": "completedAddress",
					"outputs": [
						{
							"internalType": "bool",
							"name": "",
							"type": "bool"
						}
					],
					"stateMutability": "view",
					"type": "function"
				},
				{
					"inputs": [],
					"name": "getParticipantList",
					"outputs": [
						{
							"internalType": "address[]",
							"name": "",
							"type": "address[]"
						}
					],
					"stateMutability": "view",
					"type": "function"
				},
				{
					"inputs": [],
					"name": "getParticipantListCompleted",
					"outputs": [
						{
							"internalType": "address[]",
							"name": "",
							"type": "address[]"
						}
					],
					"stateMutability": "view",
					"type": "function"
				},
				{
					"inputs": [],
					"name": "owner",
					"outputs": [
						{
							"internalType": "address",
							"name": "",
							"type": "address"
						}
					],
					"stateMutability": "view",
					"type": "function"
				},
				{
					"inputs": [
						{
							"internalType": "address",
							"name": "",
							"type": "address"
						}
					],
					"name": "participantToIndex",
					"outputs": [
						{
							"internalType": "uint256",
							"name": "",
							"type": "uint256"
						}
					],
					"stateMutability": "view",
					"type": "function"
				},
				{
					"inputs": [
						{
							"internalType": "address",
							"name": "",
							"type": "address"
						}
					],
					"name": "participantToTrue",
					"outputs": [
						{
							"internalType": "bool",
							"name": "",
							"type": "bool"
						}
					],
					"stateMutability": "view",
					"type": "function"
				},
				{
					"inputs": [
						{
							"internalType": "uint256",
							"name": "",
							"type": "uint256"
						}
					],
					"name": "participants",
					"outputs": [
						{
							"internalType": "address",
							"name": "",
							"type": "address"
						}
					],
					"stateMutability": "view",
					"type": "function"
				},
				{
					"inputs": [],
					"name": "paymentByCurrency",
					"outputs": [],
					"stateMutability": "nonpayable",
					"type": "function"
				},
				{
					"inputs": [],
					"name": "paymentByToken",
					"outputs": [],
					"stateMutability": "nonpayable",
					"type": "function"
				},
				{
					"inputs": [
						{
							"internalType": "address",
							"name": "_student",
							"type": "address"
						}
					],
					"name": "removeStudentFromTuition",
					"outputs": [],
					"stateMutability": "nonpayable",
					"type": "function"
				},
				{
					"inputs": [],
					"name": "rewardDistributor",
					"outputs": [
						{
							"internalType": "address",
							"name": "",
							"type": "address"
						}
					],
					"stateMutability": "view",
					"type": "function"
				},
				{
					"inputs": [
						{
							"internalType": "uint256",
							"name": "_tuitionId",
							"type": "uint256"
						},
						{
							"internalType": "string",
							"name": "_urlMetadata",
							"type": "string"
						},
						{
							"internalType": "uint256",
							"name": "_feeByToken",
							"type": "uint256"
						},
						{
							"internalType": "uint256",
							"name": "_startTime",
							"type": "uint256"
						},
						{
							"internalType": "uint256",
							"name": "_endTime",
							"type": "uint256"
						}
					],
					"name": "setBasicForTuition",
					"outputs": [],
					"stateMutability": "nonpayable",
					"type": "function"
				},
				{
					"inputs": [],
					"name": "start",
					"outputs": [],
					"stateMutability": "nonpayable",
					"type": "function"
				},
				{
					"inputs": [],
					"name": "status",
					"outputs": [
						{
							"internalType": "enum ITuitionContract.Status",
							"name": "",
							"type": "uint8"
						}
					],
					"stateMutability": "view",
					"type": "function"
				},
				{
					"inputs": [],
					"name": "tuition",
					"outputs": [
						{
							"internalType": "uint256",
							"name": "Id",
							"type": "uint256"
						},
						{
							"internalType": "string",
							"name": "urlMetadata",
							"type": "string"
						},
						{
							"internalType": "uint256",
							"name": "feeByToken",
							"type": "uint256"
						},
						{
							"internalType": "uint256",
							"name": "startTime",
							"type": "uint256"
						},
						{
							"internalType": "uint256",
							"name": "endTime",
							"type": "uint256"
						}
					],
					"stateMutability": "view",
					"type": "function"
				}
			],
			"devdoc": {
				"kind": "dev",
				"methods": {},
				"version": 1
			},
			"evm": {
				"assembly": "    /* \"contracts/studentmanager/TuitionContract.sol\":204:5338  contract TuitionContract is ITuitionContract {\r... */\n  mstore(0x40, 0xa0)\n    /* \"contracts/studentmanager/TuitionContract.sol\":380:391  Status.Lock */\n  0x00\n    /* \"contracts/studentmanager/TuitionContract.sol\":357:391  Status public status = Status.Lock */\n  0x05\n  exp(0x0100, 0x00)\n  dup2\n  sload\n  dup2\n  0xff\n  mul\n  not\n  and\n  swap1\n  dup4\n  0x02\n  dup2\n  gt\n  iszero\n  tag_1\n  jumpi\n  tag_2\n  tag_3\n  jump\t// in\ntag_2:\ntag_1:\n  mul\n  or\n  swap1\n  sstore\n  pop\n    /* \"contracts/studentmanager/TuitionContract.sol\":1407:1663  constructor(\r... */\n  callvalue\n  dup1\n  iszero\n  tag_4\n  jumpi\n  0x00\n  dup1\n  revert\ntag_4:\n  pop\n  mload(0x40)\n  sub(codesize, bytecodeSize)\n  dup1\n  bytecodeSize\n  dup4\n  codecopy\n  dup2\n  dup2\n  add\n  0x40\n  mstore\n  dup2\n  add\n  swap1\n  tag_5\n  swap2\n  swap1\n  tag_6\n  jump\t// in\ntag_5:\n    /* \"contracts/studentmanager/TuitionContract.sol\":1541:1547  _owner */\n  dup3\n    /* \"contracts/studentmanager/TuitionContract.sol\":1533:1547  owner = _owner */\n  0xffffffffffffffffffffffffffffffffffffffff\n  and\n  0x80\n  dup2\n  0xffffffffffffffffffffffffffffffffffffffff\n  and\n  0x60\n  shl\n  dup2\n  mstore\n  pop\n  pop\n    /* \"contracts/studentmanager/TuitionContract.sol\":1590:1605  _accessControll */\n  dup2\n    /* \"contracts/studentmanager/TuitionContract.sol\":1558:1572  accessControll */\n  0x05\n  0x01\n    /* \"contracts/studentmanager/TuitionContract.sol\":1558:1606  accessControll = IAccessControl(_accessControll) */\n  0x0100\n  exp\n  dup2\n  sload\n  dup2\n  0xffffffffffffffffffffffffffffffffffffffff\n  mul\n  not\n  and\n  swap1\n  dup4\n  0xffffffffffffffffffffffffffffffffffffffff\n  and\n  mul\n  or\n  swap1\n  sstore\n  pop\n    /* \"contracts/studentmanager/TuitionContract.sol\":1637:1655  _rewardDistributor */\n  dup1\n    /* \"contracts/studentmanager/TuitionContract.sol\":1617:1634  rewardDistributor */\n  0x06\n  0x00\n    /* \"contracts/studentmanager/TuitionContract.sol\":1617:1655  rewardDistributor = _rewardDistributor */\n  0x0100\n  exp\n  dup2\n  sload\n  dup2\n  0xffffffffffffffffffffffffffffffffffffffff\n  mul\n  not\n  and\n  swap1\n  dup4\n  0xffffffffffffffffffffffffffffffffffffffff\n  and\n  mul\n  or\n  swap1\n  sstore\n  pop\n    /* \"contracts/studentmanager/TuitionContract.sol\":1407:1663  constructor(\r... */\n  pop\n  pop\n  pop\n    /* \"contracts/studentmanager/TuitionContract.sol\":204:5338  contract TuitionContract is ITuitionContract {\r... */\n  jump(tag_9)\n    /* \"#utility.yul\":7:150   */\ntag_11:\n    /* \"#utility.yul\":64:69   */\n  0x00\n    /* \"#utility.yul\":95:101   */\n  dup2\n    /* \"#utility.yul\":89:102   */\n  mload\n    /* \"#utility.yul\":80:102   */\n  swap1\n  pop\n    /* \"#utility.yul\":111:144   */\n  tag_13\n    /* \"#utility.yul\":138:143   */\n  dup2\n    /* \"#utility.yul\":111:144   */\n  tag_14\n  jump\t// in\ntag_13:\n    /* \"#utility.yul\":7:150   */\n  swap3\n  swap2\n  pop\n  pop\n  jump\t// out\n    /* \"#utility.yul\":156:819   */\ntag_6:\n    /* \"#utility.yul\":244:250   */\n  0x00\n    /* \"#utility.yul\":252:258   */\n  dup1\n    /* \"#utility.yul\":260:266   */\n  0x00\n    /* \"#utility.yul\":309:311   */\n  0x60\n    /* \"#utility.yul\":297:306   */\n  dup5\n    /* \"#utility.yul\":288:295   */\n  dup7\n    /* \"#utility.yul\":284:307   */\n  sub\n    /* \"#utility.yul\":280:312   */\n  slt\n    /* \"#utility.yul\":277:396   */\n  iszero\n  tag_16\n  jumpi\n    /* \"#utility.yul\":315:394   */\n  tag_17\n  tag_18\n  jump\t// in\ntag_17:\n    /* \"#utility.yul\":277:396   */\ntag_16:\n    /* \"#utility.yul\":435:436   */\n  0x00\n    /* \"#utility.yul\":460:524   */\n  tag_19\n    /* \"#utility.yul\":516:523   */\n  dup7\n    /* \"#utility.yul\":507:513   */\n  dup3\n    /* \"#utility.yul\":496:505   */\n  dup8\n    /* \"#utility.yul\":492:514   */\n  add\n    /* \"#utility.yul\":460:524   */\n  tag_11\n  jump\t// in\ntag_19:\n    /* \"#utility.yul\":450:524   */\n  swap4\n  pop\n    /* \"#utility.yul\":406:534   */\n  pop\n    /* \"#utility.yul\":573:575   */\n  0x20\n    /* \"#utility.yul\":599:663   */\n  tag_20\n    /* \"#utility.yul\":655:662   */\n  dup7\n    /* \"#utility.yul\":646:652   */\n  dup3\n    /* \"#utility.yul\":635:644   */\n  dup8\n    /* \"#utility.yul\":631:653   */\n  add\n    /* \"#utility.yul\":599:663   */\n  tag_11\n  jump\t// in\ntag_20:\n    /* \"#utility.yul\":589:663   */\n  swap3\n  pop\n    /* \"#utility.yul\":544:673   */\n  pop\n    /* \"#utility.yul\":712:714   */\n  0x40\n    /* \"#utility.yul\":738:802   */\n  tag_21\n    /* \"#utility.yul\":794:801   */\n  dup7\n    /* \"#utility.yul\":785:791   */\n  dup3\n    /* \"#utility.yul\":774:783   */\n  dup8\n    /* \"#utility.yul\":770:792   */\n  add\n    /* \"#utility.yul\":738:802   */\n  tag_11\n  jump\t// in\ntag_21:\n    /* \"#utility.yul\":728:802   */\n  swap2\n  pop\n    /* \"#utility.yul\":683:812   */\n  pop\n    /* \"#utility.yul\":156:819   */\n  swap3\n  pop\n  swap3\n  pop\n  swap3\n  jump\t// out\n    /* \"#utility.yul\":906:1002   */\ntag_24:\n    /* \"#utility.yul\":943:950   */\n  0x00\n    /* \"#utility.yul\":972:996   */\n  tag_26\n    /* \"#utility.yul\":990:995   */\n  dup3\n    /* \"#utility.yul\":972:996   */\n  tag_27\n  jump\t// in\ntag_26:\n    /* \"#utility.yul\":961:996   */\n  swap1\n  pop\n    /* \"#utility.yul\":906:1002   */\n  swap2\n  swap1\n  pop\n  jump\t// out\n    /* \"#utility.yul\":1008:1134   */\ntag_27:\n    /* \"#utility.yul\":1045:1052   */\n  0x00\n    /* \"#utility.yul\":1085:1127   */\n  0xffffffffffffffffffffffffffffffffffffffff\n    /* \"#utility.yul\":1078:1083   */\n  dup3\n    /* \"#utility.yul\":1074:1128   */\n  and\n    /* \"#utility.yul\":1063:1128   */\n  swap1\n  pop\n    /* \"#utility.yul\":1008:1134   */\n  swap2\n  swap1\n  pop\n  jump\t// out\n    /* \"#utility.yul\":1140:1320   */\ntag_3:\n    /* \"#utility.yul\":1188:1265   */\n  0x4e487b7100000000000000000000000000000000000000000000000000000000\n    /* \"#utility.yul\":1185:1186   */\n  0x00\n    /* \"#utility.yul\":1178:1266   */\n  mstore\n    /* \"#utility.yul\":1285:1289   */\n  0x21\n    /* \"#utility.yul\":1282:1283   */\n  0x04\n    /* \"#utility.yul\":1275:1290   */\n  mstore\n    /* \"#utility.yul\":1309:1313   */\n  0x24\n    /* \"#utility.yul\":1306:1307   */\n  0x00\n    /* \"#utility.yul\":1299:1314   */\n  revert\n    /* \"#utility.yul\":1449:1566   */\ntag_18:\n    /* \"#utility.yul\":1558:1559   */\n  0x00\n    /* \"#utility.yul\":1555:1556   */\n  dup1\n    /* \"#utility.yul\":1548:1560   */\n  revert\n    /* \"#utility.yul\":1572:1694   */\ntag_14:\n    /* \"#utility.yul\":1645:1669   */\n  tag_34\n    /* \"#utility.yul\":1663:1668   */\n  dup2\n    /* \"#utility.yul\":1645:1669   */\n  tag_24\n  jump\t// in\ntag_34:\n    /* \"#utility.yul\":1638:1643   */\n  dup2\n    /* \"#utility.yul\":1635:1670   */\n  eq\n    /* \"#utility.yul\":1625:1688   */\n  tag_35\n  jumpi\n    /* \"#utility.yul\":1684:1685   */\n  0x00\n    /* \"#utility.yul\":1681:1682   */\n  dup1\n    /* \"#utility.yul\":1674:1686   */\n  revert\n    /* \"#utility.yul\":1625:1688   */\ntag_35:\n    /* \"#utility.yul\":1572:1694   */\n  pop\n  jump\t// out\n    /* \"contracts/studentmanager/TuitionContract.sol\":204:5338  contract TuitionContract is ITuitionContract {\r... */\ntag_9:\n  shr(0x60, mload(0x80))\n  codecopy(0x00, dataOffset(sub_0), dataSize(sub_0))\n  0x00\n  assignImmutable(\"0x24f23eb2b7ec20f09b3b2a21f8addc5e0a93cdf731b4f8ae02783fb7a15edd99\")\n  return(0x00, dataSize(sub_0))\nstop\n\nsub_0: assembly {\n        /* \"contracts/studentmanager/TuitionContract.sol\":204:5338  contract TuitionContract is ITuitionContract {\r... */\n      mstore(0x40, 0x80)\n      callvalue\n      dup1\n      iszero\n      tag_1\n      jumpi\n      0x00\n      dup1\n      revert\n    tag_1:\n      pop\n      jumpi(tag_2, lt(calldatasize, 0x04))\n      shr(0xe0, calldataload(0x00))\n      dup1\n      0xa32fb342\n      gt\n      tag_22\n      jumpi\n      dup1\n      0xacc2166a\n      gt\n      tag_23\n      jumpi\n      dup1\n      0xacc2166a\n      eq\n      tag_17\n      jumpi\n      dup1\n      0xb1319f41\n      eq\n      tag_18\n      jumpi\n      dup1\n      0xbe9a6555\n      eq\n      tag_19\n      jumpi\n      dup1\n      0xd95fe6a0\n      eq\n      tag_20\n      jumpi\n      dup1\n      0xed214fff\n      eq\n      tag_21\n      jumpi\n      jump(tag_2)\n    tag_23:\n      dup1\n      0xa32fb342\n      eq\n      tag_12\n      jumpi\n      dup1\n      0xa7f44e0d\n      eq\n      tag_13\n      jumpi\n      dup1\n      0xa8a86c10\n      eq\n      tag_14\n      jumpi\n      dup1\n      0xaa4936ce\n      eq\n      tag_15\n      jumpi\n      dup1\n      0xaa8c217c\n      eq\n      tag_16\n      jumpi\n      jump(tag_2)\n    tag_22:\n      dup1\n      0x43d726d6\n      gt\n      tag_24\n      jumpi\n      dup1\n      0x43d726d6\n      eq\n      tag_7\n      jumpi\n      dup1\n      0x633d8390\n      eq\n      tag_8\n      jumpi\n      dup1\n      0x727cb110\n      eq\n      tag_9\n      jumpi\n      dup1\n      0x8da5cb5b\n      eq\n      tag_10\n      jumpi\n      dup1\n      0x9846a1a0\n      eq\n      tag_11\n      jumpi\n      jump(tag_2)\n    tag_24:\n      dup1\n      0x04227ab8\n      eq\n      tag_3\n      jumpi\n      dup1\n      0x08003d6b\n      eq\n      tag_4\n      jumpi\n      dup1\n      0x200d2ed2\n      eq\n      tag_5\n      jumpi\n      dup1\n      0x35c1d349\n      eq\n      tag_6\n      jumpi\n    tag_2:\n      0x00\n      dup1\n      revert\n        /* \"contracts/studentmanager/TuitionContract.sol\":2385:2972  function addStudentToTuition(address[] calldata _students)\r... */\n    tag_3:\n      tag_25\n      0x04\n      dup1\n      calldatasize\n      sub\n      dup2\n      add\n      swap1\n      tag_26\n      swap2\n      swap1\n      tag_27\n      jump\t// in\n    tag_26:\n      tag_28\n      jump\t// in\n    tag_25:\n      stop\n        /* \"contracts/studentmanager/TuitionContract.sol\":1671:2276  function setBasicForTuition(\r... */\n    tag_4:\n      tag_29\n      0x04\n      dup1\n      calldatasize\n      sub\n      dup2\n      add\n      swap1\n      tag_30\n      swap2\n      swap1\n      tag_31\n      jump\t// in\n    tag_30:\n      tag_32\n      jump\t// in\n    tag_29:\n      stop\n        /* \"contracts/studentmanager/TuitionContract.sol\":357:391  Status public status = Status.Lock */\n    tag_5:\n      tag_33\n      tag_34\n      jump\t// in\n    tag_33:\n      mload(0x40)\n      tag_35\n      swap2\n      swap1\n      tag_36\n      jump\t// in\n    tag_35:\n      mload(0x40)\n      dup1\n      swap2\n      sub\n      swap1\n      return\n        /* \"contracts/studentmanager/TuitionContract.sol\":484:513  address[] public participants */\n    tag_6:\n      tag_37\n      0x04\n      dup1\n      calldatasize\n      sub\n      dup2\n      add\n      swap1\n      tag_38\n      swap2\n      swap1\n      tag_39\n      jump\t// in\n    tag_38:\n      tag_40\n      jump\t// in\n    tag_37:\n      mload(0x40)\n      tag_41\n      swap2\n      swap1\n      tag_42\n      jump\t// in\n    tag_41:\n      mload(0x40)\n      dup1\n      swap2\n      sub\n      swap1\n      return\n        /* \"contracts/studentmanager/TuitionContract.sol\":4255:4429  function close() external override onlyOwner {\r... */\n    tag_7:\n      tag_43\n      tag_44\n      jump\t// in\n    tag_43:\n      stop\n        /* \"contracts/studentmanager/TuitionContract.sol\":3296:3866  function paymentByToken() external override onlyRoleStudent {\r... */\n    tag_8:\n      tag_45\n      tag_46\n      jump\t// in\n    tag_45:\n      stop\n        /* \"contracts/studentmanager/TuitionContract.sol\":2980:3288  function removeStudentFromTuition(address _student) external onlyRoleAdmin {\r... */\n    tag_9:\n      tag_47\n      0x04\n      dup1\n      calldatasize\n      sub\n      dup2\n      add\n      swap1\n      tag_48\n      swap2\n      swap1\n      tag_49\n      jump\t// in\n    tag_48:\n      tag_50\n      jump\t// in\n    tag_47:\n      stop\n        /* \"contracts/studentmanager/TuitionContract.sol\":291:321  address public immutable owner */\n    tag_10:\n      tag_51\n      tag_52\n      jump\t// in\n    tag_51:\n      mload(0x40)\n      tag_53\n      swap2\n      swap1\n      tag_42\n      jump\t// in\n    tag_53:\n      mload(0x40)\n      dup1\n      swap2\n      sub\n      swap1\n      return\n        /* \"contracts/studentmanager/TuitionContract.sol\":3874:4247  function paymentByCurrency()\r... */\n    tag_11:\n      tag_54\n      tag_55\n      jump\t// in\n    tag_54:\n      stop\n        /* \"contracts/studentmanager/TuitionContract.sol\":664:711  mapping(address =>bool) public completedAddress */\n    tag_12:\n      tag_56\n      0x04\n      dup1\n      calldatasize\n      sub\n      dup2\n      add\n      swap1\n      tag_57\n      swap2\n      swap1\n      tag_49\n      jump\t// in\n    tag_57:\n      tag_58\n      jump\t// in\n    tag_56:\n      mload(0x40)\n      tag_59\n      swap2\n      swap1\n      tag_60\n      jump\t// in\n    tag_59:\n      mload(0x40)\n      dup1\n      swap2\n      sub\n      swap1\n      return\n        /* \"contracts/studentmanager/TuitionContract.sol\":4891:5335  function getParticipantListCompleted()\r... */\n    tag_13:\n      tag_61\n      tag_62\n      jump\t// in\n    tag_61:\n      mload(0x40)\n      tag_63\n      swap2\n      swap1\n      tag_64\n      jump\t// in\n    tag_63:\n      mload(0x40)\n      dup1\n      swap2\n      sub\n      swap1\n      return\n        /* \"contracts/studentmanager/TuitionContract.sol\":328:350  Tuition public tuition */\n    tag_14:\n      tag_65\n      tag_66\n      jump\t// in\n    tag_65:\n      mload(0x40)\n      tag_67\n      swap6\n      swap5\n      swap4\n      swap3\n      swap2\n      swap1\n      tag_68\n      jump\t// in\n    tag_67:\n      mload(0x40)\n      dup1\n      swap2\n      sub\n      swap1\n      return\n        /* \"contracts/studentmanager/TuitionContract.sol\":400:436  IAccessControl public accessControll */\n    tag_15:\n      tag_69\n      tag_70\n      jump\t// in\n    tag_69:\n      mload(0x40)\n      tag_71\n      swap2\n      swap1\n      tag_72\n      jump\t// in\n    tag_71:\n      mload(0x40)\n      dup1\n      swap2\n      sub\n      swap1\n      return\n        /* \"contracts/studentmanager/TuitionContract.sol\":520:541  uint256 public amount */\n    tag_16:\n      tag_73\n      tag_74\n      jump\t// in\n    tag_73:\n      mload(0x40)\n      tag_75\n      swap2\n      swap1\n      tag_76\n      jump\t// in\n    tag_75:\n      mload(0x40)\n      dup1\n      swap2\n      sub\n      swap1\n      return\n        /* \"contracts/studentmanager/TuitionContract.sol\":443:475  address public rewardDistributor */\n    tag_17:\n      tag_77\n      tag_78\n      jump\t// in\n    tag_77:\n      mload(0x40)\n      tag_79\n      swap2\n      swap1\n      tag_42\n      jump\t// in\n    tag_79:\n      mload(0x40)\n      dup1\n      swap2\n      sub\n      swap1\n      return\n        /* \"contracts/studentmanager/TuitionContract.sol\":608:657  mapping(address => bool) public participantToTrue */\n    tag_18:\n      tag_80\n      0x04\n      dup1\n      calldatasize\n      sub\n      dup2\n      add\n      swap1\n      tag_81\n      swap2\n      swap1\n      tag_49\n      jump\t// in\n    tag_81:\n      tag_82\n      jump\t// in\n    tag_80:\n      mload(0x40)\n      tag_83\n      swap2\n      swap1\n      tag_60\n      jump\t// in\n    tag_83:\n      mload(0x40)\n      dup1\n      swap2\n      sub\n      swap1\n      return\n        /* \"contracts/studentmanager/TuitionContract.sol\":2284:2377  function start() external override onlyOwner onlyLock {\r... */\n    tag_19:\n      tag_84\n      tag_85\n      jump\t// in\n    tag_84:\n      stop\n        /* \"contracts/studentmanager/TuitionContract.sol\":548:601  mapping(address => uint256) public participantToIndex */\n    tag_20:\n      tag_86\n      0x04\n      dup1\n      calldatasize\n      sub\n      dup2\n      add\n      swap1\n      tag_87\n      swap2\n      swap1\n      tag_49\n      jump\t// in\n    tag_87:\n      tag_88\n      jump\t// in\n    tag_86:\n      mload(0x40)\n      tag_89\n      swap2\n      swap1\n      tag_76\n      jump\t// in\n    tag_89:\n      mload(0x40)\n      dup1\n      swap2\n      sub\n      swap1\n      return\n        /* \"contracts/studentmanager/TuitionContract.sol\":4437:4883  function getParticipantList() public view override returns (address[] memory) {\r... */\n    tag_21:\n      tag_90\n      tag_91\n      jump\t// in\n    tag_90:\n      mload(0x40)\n      tag_92\n      swap2\n      swap1\n      tag_64\n      jump\t// in\n    tag_92:\n      mload(0x40)\n      dup1\n      swap2\n      sub\n      swap1\n      return\n        /* \"contracts/studentmanager/TuitionContract.sol\":2385:2972  function addStudentToTuition(address[] calldata _students)\r... */\n    tag_28:\n        /* \"contracts/studentmanager/TuitionContract.sol\":1092:1106  accessControll */\n      0x05\n      0x01\n      swap1\n      sload\n      swap1\n      0x0100\n      exp\n      swap1\n      div\n      0xffffffffffffffffffffffffffffffffffffffff\n      and\n        /* \"contracts/studentmanager/TuitionContract.sol\":1092:1114  accessControll.hasRole */\n      0xffffffffffffffffffffffffffffffffffffffff\n      and\n      0x91d14854\n        /* \"contracts/studentmanager/TuitionContract.sol\":1115:1133  keccak256(\"ADMIN\") */\n      0xdf8b4c520ffe197c5343c6f5aec59570151ef9a492f2c624fd45ddde6135ec42\n        /* \"contracts/studentmanager/TuitionContract.sol\":1135:1145  msg.sender */\n      caller\n        /* \"contracts/studentmanager/TuitionContract.sol\":1092:1146  accessControll.hasRole(keccak256(\"ADMIN\"), msg.sender) */\n      mload(0x40)\n      dup4\n      0xffffffff\n      and\n      0xe0\n      shl\n      dup2\n      mstore\n      0x04\n      add\n      tag_94\n      swap3\n      swap2\n      swap1\n      tag_95\n      jump\t// in\n    tag_94:\n      0x20\n      mload(0x40)\n      dup1\n      dup4\n      sub\n      dup2\n      dup7\n      dup1\n      extcodesize\n      iszero\n      dup1\n      iszero\n      tag_96\n      jumpi\n      0x00\n      dup1\n      revert\n    tag_96:\n      pop\n      gas\n      staticcall\n      iszero\n      dup1\n      iszero\n      tag_98\n      jumpi\n      returndatasize\n      0x00\n      dup1\n      returndatacopy\n      revert(0x00, returndatasize)\n    tag_98:\n      pop\n      pop\n      pop\n      pop\n      mload(0x40)\n      returndatasize\n      not(0x1f)\n      0x1f\n      dup3\n      add\n      and\n      dup3\n      add\n      dup1\n      0x40\n      mstore\n      pop\n      dup2\n      add\n      swap1\n      tag_99\n      swap2\n      swap1\n      tag_100\n      jump\t// in\n    tag_99:\n        /* \"contracts/studentmanager/TuitionContract.sol\":1070:1191  require(\r... */\n      tag_101\n      jumpi\n      mload(0x40)\n      0x08c379a000000000000000000000000000000000000000000000000000000000\n      dup2\n      mstore\n      0x04\n      add\n      tag_102\n      swap1\n      tag_103\n      jump\t// in\n    tag_102:\n      mload(0x40)\n      dup1\n      swap2\n      sub\n      swap1\n      revert\n    tag_101:\n        /* \"contracts/studentmanager/TuitionContract.sol\":875:886  Status.Open */\n      0x01\n        /* \"contracts/studentmanager/TuitionContract.sol\":865:886  status == Status.Open */\n      0x02\n      dup2\n      gt\n      iszero\n      tag_105\n      jumpi\n      tag_106\n      tag_107\n      jump\t// in\n    tag_106:\n    tag_105:\n        /* \"contracts/studentmanager/TuitionContract.sol\":865:871  status */\n      0x05\n      0x00\n      swap1\n      sload\n      swap1\n      0x0100\n      exp\n      swap1\n      div\n      0xff\n      and\n        /* \"contracts/studentmanager/TuitionContract.sol\":865:886  status == Status.Open */\n      0x02\n      dup2\n      gt\n      iszero\n      tag_108\n      jumpi\n      tag_109\n      tag_107\n      jump\t// in\n    tag_109:\n    tag_108:\n      eq\n        /* \"contracts/studentmanager/TuitionContract.sol\":857:904  require(status == Status.Open, \"MC: Only Open\") */\n      tag_110\n      jumpi\n      mload(0x40)\n      0x08c379a000000000000000000000000000000000000000000000000000000000\n      dup2\n      mstore\n      0x04\n      add\n      tag_111\n      swap1\n      tag_112\n      jump\t// in\n    tag_111:\n      mload(0x40)\n      dup1\n      swap2\n      sub\n      swap1\n      revert\n    tag_110:\n        /* \"contracts/studentmanager/TuitionContract.sol\":2542:2551  uint256 i */\n      0x00\n        /* \"contracts/studentmanager/TuitionContract.sol\":2537:2965  for (uint256 i = 0; i < _students.length; i++) {\r... */\n    tag_114:\n        /* \"contracts/studentmanager/TuitionContract.sol\":2561:2570  _students */\n      dup3\n      dup3\n        /* \"contracts/studentmanager/TuitionContract.sol\":2561:2577  _students.length */\n      swap1\n      pop\n        /* \"contracts/studentmanager/TuitionContract.sol\":2557:2558  i */\n      dup2\n        /* \"contracts/studentmanager/TuitionContract.sol\":2557:2577  i < _students.length */\n      lt\n        /* \"contracts/studentmanager/TuitionContract.sol\":2537:2965  for (uint256 i = 0; i < _students.length; i++) {\r... */\n      iszero\n      tag_115\n      jumpi\n        /* \"contracts/studentmanager/TuitionContract.sol\":2607:2621  accessControll */\n      0x05\n      0x01\n      swap1\n      sload\n      swap1\n      0x0100\n      exp\n      swap1\n      div\n      0xffffffffffffffffffffffffffffffffffffffff\n      and\n        /* \"contracts/studentmanager/TuitionContract.sol\":2607:2629  accessControll.hasRole */\n      0xffffffffffffffffffffffffffffffffffffffff\n      and\n      0x91d14854\n        /* \"contracts/studentmanager/TuitionContract.sol\":2630:2650  keccak256(\"STUDENT\") */\n      0xc951d7098b66ba0b8b77265b6e9cf0e187d73125a42bcd0061b09a68be421810\n        /* \"contracts/studentmanager/TuitionContract.sol\":2652:2661  _students */\n      dup6\n      dup6\n        /* \"contracts/studentmanager/TuitionContract.sol\":2662:2663  i */\n      dup6\n        /* \"contracts/studentmanager/TuitionContract.sol\":2652:2664  _students[i] */\n      dup2\n      dup2\n      lt\n      tag_117\n      jumpi\n      tag_118\n      tag_119\n      jump\t// in\n    tag_118:\n    tag_117:\n      swap1\n      pop\n      0x20\n      mul\n      add\n      0x20\n      dup2\n      add\n      swap1\n      tag_120\n      swap2\n      swap1\n      tag_49\n      jump\t// in\n    tag_120:\n        /* \"contracts/studentmanager/TuitionContract.sol\":2607:2665  accessControll.hasRole(keccak256(\"STUDENT\"), _students[i]) */\n      mload(0x40)\n      dup4\n      0xffffffff\n      and\n      0xe0\n      shl\n      dup2\n      mstore\n      0x04\n      add\n      tag_121\n      swap3\n      swap2\n      swap1\n      tag_95\n      jump\t// in\n    tag_121:\n      0x20\n      mload(0x40)\n      dup1\n      dup4\n      sub\n      dup2\n      dup7\n      dup1\n      extcodesize\n      iszero\n      dup1\n      iszero\n      tag_122\n      jumpi\n      0x00\n      dup1\n      revert\n    tag_122:\n      pop\n      gas\n      staticcall\n      iszero\n      dup1\n      iszero\n      tag_124\n      jumpi\n      returndatasize\n      0x00\n      dup1\n      returndatacopy\n      revert(0x00, returndatasize)\n    tag_124:\n      pop\n      pop\n      pop\n      pop\n      mload(0x40)\n      returndatasize\n      not(0x1f)\n      0x1f\n      dup3\n      add\n      and\n      dup3\n      add\n      dup1\n      0x40\n      mstore\n      pop\n      dup2\n      add\n      swap1\n      tag_125\n      swap2\n      swap1\n      tag_100\n      jump\t// in\n    tag_125:\n        /* \"contracts/studentmanager/TuitionContract.sol\":2599:2693  require(accessControll.hasRole(keccak256(\"STUDENT\"), _students[i]), \"Should only add student\") */\n      tag_126\n      jumpi\n      mload(0x40)\n      0x08c379a000000000000000000000000000000000000000000000000000000000\n      dup2\n      mstore\n      0x04\n      add\n      tag_127\n      swap1\n      tag_128\n      jump\t// in\n    tag_127:\n      mload(0x40)\n      dup1\n      swap2\n      sub\n      swap1\n      revert\n    tag_126:\n        /* \"contracts/studentmanager/TuitionContract.sol\":2717:2734  participantToTrue */\n      0x0a\n        /* \"contracts/studentmanager/TuitionContract.sol\":2717:2748  participantToTrue[_students[i]] */\n      0x00\n        /* \"contracts/studentmanager/TuitionContract.sol\":2735:2744  _students */\n      dup5\n      dup5\n        /* \"contracts/studentmanager/TuitionContract.sol\":2745:2746  i */\n      dup5\n        /* \"contracts/studentmanager/TuitionContract.sol\":2735:2747  _students[i] */\n      dup2\n      dup2\n      lt\n      tag_129\n      jumpi\n      tag_130\n      tag_119\n      jump\t// in\n    tag_130:\n    tag_129:\n      swap1\n      pop\n      0x20\n      mul\n      add\n      0x20\n      dup2\n      add\n      swap1\n      tag_131\n      swap2\n      swap1\n      tag_49\n      jump\t// in\n    tag_131:\n        /* \"contracts/studentmanager/TuitionContract.sol\":2717:2748  participantToTrue[_students[i]] */\n      0xffffffffffffffffffffffffffffffffffffffff\n      and\n      0xffffffffffffffffffffffffffffffffffffffff\n      and\n      dup2\n      mstore\n      0x20\n      add\n      swap1\n      dup2\n      mstore\n      0x20\n      add\n      0x00\n      keccak256\n      0x00\n      swap1\n      sload\n      swap1\n      0x0100\n      exp\n      swap1\n      div\n      0xff\n      and\n        /* \"contracts/studentmanager/TuitionContract.sol\":2716:2748  !participantToTrue[_students[i]] */\n      iszero\n        /* \"contracts/studentmanager/TuitionContract.sol\":2708:2758  require(!participantToTrue[_students[i]], \"Added\") */\n      tag_132\n      jumpi\n      mload(0x40)\n      0x08c379a000000000000000000000000000000000000000000000000000000000\n      dup2\n      mstore\n      0x04\n      add\n      tag_133\n      swap1\n      tag_134\n      jump\t// in\n    tag_133:\n      mload(0x40)\n      dup1\n      swap2\n      sub\n      swap1\n      revert\n    tag_132:\n        /* \"contracts/studentmanager/TuitionContract.sol\":2773:2785  participants */\n      0x07\n        /* \"contracts/studentmanager/TuitionContract.sol\":2791:2800  _students */\n      dup4\n      dup4\n        /* \"contracts/studentmanager/TuitionContract.sol\":2801:2802  i */\n      dup4\n        /* \"contracts/studentmanager/TuitionContract.sol\":2791:2803  _students[i] */\n      dup2\n      dup2\n      lt\n      tag_135\n      jumpi\n      tag_136\n      tag_119\n      jump\t// in\n    tag_136:\n    tag_135:\n      swap1\n      pop\n      0x20\n      mul\n      add\n      0x20\n      dup2\n      add\n      swap1\n      tag_137\n      swap2\n      swap1\n      tag_49\n      jump\t// in\n    tag_137:\n        /* \"contracts/studentmanager/TuitionContract.sol\":2773:2804  participants.push(_students[i]) */\n      swap1\n      dup1\n      0x01\n      dup2\n      sload\n      add\n      dup1\n      dup3\n      sstore\n      dup1\n      swap2\n      pop\n      pop\n      0x01\n      swap1\n      sub\n      swap1\n      0x00\n      mstore\n      keccak256(0x00, 0x20)\n      add\n      0x00\n      swap1\n      swap2\n      swap1\n      swap2\n      swap1\n      swap2\n      0x0100\n      exp\n      dup2\n      sload\n      dup2\n      0xffffffffffffffffffffffffffffffffffffffff\n      mul\n      not\n      and\n      swap1\n      dup4\n      0xffffffffffffffffffffffffffffffffffffffff\n      and\n      mul\n      or\n      swap1\n      sstore\n      pop\n        /* \"contracts/studentmanager/TuitionContract.sol\":2876:2877  1 */\n      0x01\n        /* \"contracts/studentmanager/TuitionContract.sol\":2854:2866  participants */\n      0x07\n        /* \"contracts/studentmanager/TuitionContract.sol\":2854:2873  participants.length */\n      dup1\n      sload\n      swap1\n      pop\n        /* \"contracts/studentmanager/TuitionContract.sol\":2854:2877  participants.length - 1 */\n      tag_139\n      swap2\n      swap1\n      tag_140\n      jump\t// in\n    tag_139:\n        /* \"contracts/studentmanager/TuitionContract.sol\":2819:2837  participantToIndex */\n      0x09\n        /* \"contracts/studentmanager/TuitionContract.sol\":2819:2851  participantToIndex[_students[i]] */\n      0x00\n        /* \"contracts/studentmanager/TuitionContract.sol\":2838:2847  _students */\n      dup6\n      dup6\n        /* \"contracts/studentmanager/TuitionContract.sol\":2848:2849  i */\n      dup6\n        /* \"contracts/studentmanager/TuitionContract.sol\":2838:2850  _students[i] */\n      dup2\n      dup2\n      lt\n      tag_141\n      jumpi\n      tag_142\n      tag_119\n      jump\t// in\n    tag_142:\n    tag_141:\n      swap1\n      pop\n      0x20\n      mul\n      add\n      0x20\n      dup2\n      add\n      swap1\n      tag_143\n      swap2\n      swap1\n      tag_49\n      jump\t// in\n    tag_143:\n        /* \"contracts/studentmanager/TuitionContract.sol\":2819:2851  participantToIndex[_students[i]] */\n      0xffffffffffffffffffffffffffffffffffffffff\n      and\n      0xffffffffffffffffffffffffffffffffffffffff\n      and\n      dup2\n      mstore\n      0x20\n      add\n      swap1\n      dup2\n      mstore\n      0x20\n      add\n      0x00\n      keccak256\n        /* \"contracts/studentmanager/TuitionContract.sol\":2819:2877  participantToIndex[_students[i]] = participants.length - 1 */\n      dup2\n      swap1\n      sstore\n      pop\n        /* \"contracts/studentmanager/TuitionContract.sol\":2926:2930  true */\n      0x01\n        /* \"contracts/studentmanager/TuitionContract.sol\":2892:2909  participantToTrue */\n      0x0a\n        /* \"contracts/studentmanager/TuitionContract.sol\":2892:2923  participantToTrue[_students[i]] */\n      0x00\n        /* \"contracts/studentmanager/TuitionContract.sol\":2910:2919  _students */\n      dup6\n      dup6\n        /* \"contracts/studentmanager/TuitionContract.sol\":2920:2921  i */\n      dup6\n        /* \"contracts/studentmanager/TuitionContract.sol\":2910:2922  _students[i] */\n      dup2\n      dup2\n      lt\n      tag_144\n      jumpi\n      tag_145\n      tag_119\n      jump\t// in\n    tag_145:\n    tag_144:\n      swap1\n      pop\n      0x20\n      mul\n      add\n      0x20\n      dup2\n      add\n      swap1\n      tag_146\n      swap2\n      swap1\n      tag_49\n      jump\t// in\n    tag_146:\n        /* \"contracts/studentmanager/TuitionContract.sol\":2892:2923  participantToTrue[_students[i]] */\n      0xffffffffffffffffffffffffffffffffffffffff\n      and\n      0xffffffffffffffffffffffffffffffffffffffff\n      and\n      dup2\n      mstore\n      0x20\n      add\n      swap1\n      dup2\n      mstore\n      0x20\n      add\n      0x00\n      keccak256\n      0x00\n        /* \"contracts/studentmanager/TuitionContract.sol\":2892:2930  participantToTrue[_students[i]] = true */\n      0x0100\n      exp\n      dup2\n      sload\n      dup2\n      0xff\n      mul\n      not\n      and\n      swap1\n      dup4\n      iszero\n      iszero\n      mul\n      or\n      swap1\n      sstore\n      pop\n        /* \"contracts/studentmanager/TuitionContract.sol\":2945:2951  amount */\n      0x08\n      0x00\n        /* \"contracts/studentmanager/TuitionContract.sol\":2945:2953  amount++ */\n      dup2\n      sload\n      dup1\n      swap3\n      swap2\n      swap1\n      tag_147\n      swap1\n      tag_148\n      jump\t// in\n    tag_147:\n      swap2\n      swap1\n      pop\n      sstore\n      pop\n        /* \"contracts/studentmanager/TuitionContract.sol\":2579:2582  i++ */\n      dup1\n      dup1\n      tag_149\n      swap1\n      tag_148\n      jump\t// in\n    tag_149:\n      swap2\n      pop\n      pop\n        /* \"contracts/studentmanager/TuitionContract.sol\":2537:2965  for (uint256 i = 0; i < _students.length; i++) {\r... */\n      jump(tag_114)\n    tag_115:\n      pop\n        /* \"contracts/studentmanager/TuitionContract.sol\":2385:2972  function addStudentToTuition(address[] calldata _students)\r... */\n      pop\n      pop\n      jump\t// out\n        /* \"contracts/studentmanager/TuitionContract.sol\":1671:2276  function setBasicForTuition(\r... */\n    tag_32:\n        /* \"contracts/studentmanager/TuitionContract.sol\":986:991  owner */\n      immutable(\"0x24f23eb2b7ec20f09b3b2a21f8addc5e0a93cdf731b4f8ae02783fb7a15edd99\")\n        /* \"contracts/studentmanager/TuitionContract.sol\":972:991  msg.sender == owner */\n      0xffffffffffffffffffffffffffffffffffffffff\n      and\n        /* \"contracts/studentmanager/TuitionContract.sol\":972:982  msg.sender */\n      caller\n        /* \"contracts/studentmanager/TuitionContract.sol\":972:991  msg.sender == owner */\n      0xffffffffffffffffffffffffffffffffffffffff\n      and\n      eq\n        /* \"contracts/studentmanager/TuitionContract.sol\":964:1006  require(msg.sender == owner, \"Only Owner\") */\n      tag_151\n      jumpi\n      mload(0x40)\n      0x08c379a000000000000000000000000000000000000000000000000000000000\n      dup2\n      mstore\n      0x04\n      add\n      tag_152\n      swap1\n      tag_153\n      jump\t// in\n    tag_152:\n      mload(0x40)\n      dup1\n      swap2\n      sub\n      swap1\n      revert\n    tag_151:\n        /* \"contracts/studentmanager/TuitionContract.sol\":769:780  Status.Lock */\n      0x00\n        /* \"contracts/studentmanager/TuitionContract.sol\":759:780  status == Status.Lock */\n      0x02\n      dup2\n      gt\n      iszero\n      tag_155\n      jumpi\n      tag_156\n      tag_107\n      jump\t// in\n    tag_156:\n    tag_155:\n        /* \"contracts/studentmanager/TuitionContract.sol\":759:765  status */\n      0x05\n      0x00\n      swap1\n      sload\n      swap1\n      0x0100\n      exp\n      swap1\n      div\n      0xff\n      and\n        /* \"contracts/studentmanager/TuitionContract.sol\":759:780  status == Status.Lock */\n      0x02\n      dup2\n      gt\n      iszero\n      tag_157\n      jumpi\n      tag_158\n      tag_107\n      jump\t// in\n    tag_158:\n    tag_157:\n      eq\n        /* \"contracts/studentmanager/TuitionContract.sol\":751:798  require(status == Status.Lock, \"MC: Only Lock\") */\n      tag_159\n      jumpi\n      mload(0x40)\n      0x08c379a000000000000000000000000000000000000000000000000000000000\n      dup2\n      mstore\n      0x04\n      add\n      tag_160\n      swap1\n      tag_161\n      jump\t// in\n    tag_160:\n      mload(0x40)\n      dup1\n      swap2\n      sub\n      swap1\n      revert\n    tag_159:\n        /* \"contracts/studentmanager/TuitionContract.sol\":1928:1929  0 */\n      0x00\n        /* \"contracts/studentmanager/TuitionContract.sol\":1914:1925  _feeByToken */\n      dup4\n        /* \"contracts/studentmanager/TuitionContract.sol\":1914:1929  _feeByToken > 0 */\n      gt\n        /* \"contracts/studentmanager/TuitionContract.sol\":1906:1968  require(_feeByToken > 0, \"MC: Award should greater than Zero\") */\n      tag_163\n      jumpi\n      mload(0x40)\n      0x08c379a000000000000000000000000000000000000000000000000000000000\n      dup2\n      mstore\n      0x04\n      add\n      tag_164\n      swap1\n      tag_165\n      jump\t// in\n    tag_164:\n      mload(0x40)\n      dup1\n      swap2\n      sub\n      swap1\n      revert\n    tag_163:\n        /* \"contracts/studentmanager/TuitionContract.sol\":2019:2029  _startTime */\n      dup2\n        /* \"contracts/studentmanager/TuitionContract.sol\":2001:2016  block.timestamp */\n      timestamp\n        /* \"contracts/studentmanager/TuitionContract.sol\":2001:2029  block.timestamp < _startTime */\n      lt\n        /* \"contracts/studentmanager/TuitionContract.sol\":2001:2054  block.timestamp < _startTime && _startTime < _endTime */\n      dup1\n      iszero\n      tag_166\n      jumpi\n      pop\n        /* \"contracts/studentmanager/TuitionContract.sol\":2046:2054  _endTime */\n      dup1\n        /* \"contracts/studentmanager/TuitionContract.sol\":2033:2043  _startTime */\n      dup3\n        /* \"contracts/studentmanager/TuitionContract.sol\":2033:2054  _startTime < _endTime */\n      lt\n        /* \"contracts/studentmanager/TuitionContract.sol\":2001:2054  block.timestamp < _startTime && _startTime < _endTime */\n    tag_166:\n        /* \"contracts/studentmanager/TuitionContract.sol\":1979:2101  require(\r... */\n      tag_167\n      jumpi\n      mload(0x40)\n      0x08c379a000000000000000000000000000000000000000000000000000000000\n      dup2\n      mstore\n      0x04\n      add\n      tag_168\n      swap1\n      tag_169\n      jump\t// in\n    tag_168:\n      mload(0x40)\n      dup1\n      swap2\n      sub\n      swap1\n      revert\n    tag_167:\n        /* \"contracts/studentmanager/TuitionContract.sol\":2124:2268  Tuition(\r... */\n      mload(0x40)\n      dup1\n      0xa0\n      add\n      0x40\n      mstore\n      dup1\n        /* \"contracts/studentmanager/TuitionContract.sol\":2146:2156  _tuitionId */\n      dup7\n        /* \"contracts/studentmanager/TuitionContract.sol\":2124:2268  Tuition(\r... */\n      dup2\n      mstore\n      0x20\n      add\n        /* \"contracts/studentmanager/TuitionContract.sol\":2171:2183  _urlMetadata */\n      dup6\n        /* \"contracts/studentmanager/TuitionContract.sol\":2124:2268  Tuition(\r... */\n      dup2\n      mstore\n      0x20\n      add\n        /* \"contracts/studentmanager/TuitionContract.sol\":2198:2209  _feeByToken */\n      dup5\n        /* \"contracts/studentmanager/TuitionContract.sol\":2124:2268  Tuition(\r... */\n      dup2\n      mstore\n      0x20\n      add\n        /* \"contracts/studentmanager/TuitionContract.sol\":2224:2234  _startTime */\n      dup4\n        /* \"contracts/studentmanager/TuitionContract.sol\":2124:2268  Tuition(\r... */\n      dup2\n      mstore\n      0x20\n      add\n        /* \"contracts/studentmanager/TuitionContract.sol\":2249:2257  _endTime */\n      dup3\n        /* \"contracts/studentmanager/TuitionContract.sol\":2124:2268  Tuition(\r... */\n      dup2\n      mstore\n      pop\n        /* \"contracts/studentmanager/TuitionContract.sol\":2114:2121  tuition */\n      0x00\n        /* \"contracts/studentmanager/TuitionContract.sol\":2114:2268  tuition = Tuition(\r... */\n      dup1\n      dup3\n      add\n      mload\n      dup2\n      0x00\n      add\n      sstore\n      0x20\n      dup3\n      add\n      mload\n      dup2\n      0x01\n      add\n      swap1\n      dup1\n      mload\n      swap1\n      0x20\n      add\n      swap1\n      tag_170\n      swap3\n      swap2\n      swap1\n      tag_171\n      jump\t// in\n    tag_170:\n      pop\n      0x40\n      dup3\n      add\n      mload\n      dup2\n      0x02\n      add\n      sstore\n      0x60\n      dup3\n      add\n      mload\n      dup2\n      0x03\n      add\n      sstore\n      0x80\n      dup3\n      add\n      mload\n      dup2\n      0x04\n      add\n      sstore\n      swap1\n      pop\n      pop\n        /* \"contracts/studentmanager/TuitionContract.sol\":1671:2276  function setBasicForTuition(\r... */\n      pop\n      pop\n      pop\n      pop\n      pop\n      jump\t// out\n        /* \"contracts/studentmanager/TuitionContract.sol\":357:391  Status public status = Status.Lock */\n    tag_34:\n      0x05\n      0x00\n      swap1\n      sload\n      swap1\n      0x0100\n      exp\n      swap1\n      div\n      0xff\n      and\n      dup2\n      jump\t// out\n        /* \"contracts/studentmanager/TuitionContract.sol\":484:513  address[] public participants */\n    tag_40:\n      0x07\n      dup2\n      dup2\n      sload\n      dup2\n      lt\n      tag_172\n      jumpi\n      0x00\n      dup1\n      revert\n    tag_172:\n      swap1\n      0x00\n      mstore\n      keccak256(0x00, 0x20)\n      add\n      0x00\n      swap2\n      pop\n      sload\n      swap1\n      0x0100\n      exp\n      swap1\n      div\n      0xffffffffffffffffffffffffffffffffffffffff\n      and\n      dup2\n      jump\t// out\n        /* \"contracts/studentmanager/TuitionContract.sol\":4255:4429  function close() external override onlyOwner {\r... */\n    tag_44:\n        /* \"contracts/studentmanager/TuitionContract.sol\":986:991  owner */\n      immutable(\"0x24f23eb2b7ec20f09b3b2a21f8addc5e0a93cdf731b4f8ae02783fb7a15edd99\")\n        /* \"contracts/studentmanager/TuitionContract.sol\":972:991  msg.sender == owner */\n      0xffffffffffffffffffffffffffffffffffffffff\n      and\n        /* \"contracts/studentmanager/TuitionContract.sol\":972:982  msg.sender */\n      caller\n        /* \"contracts/studentmanager/TuitionContract.sol\":972:991  msg.sender == owner */\n      0xffffffffffffffffffffffffffffffffffffffff\n      and\n      eq\n        /* \"contracts/studentmanager/TuitionContract.sol\":964:1006  require(msg.sender == owner, \"Only Owner\") */\n      tag_175\n      jumpi\n      mload(0x40)\n      0x08c379a000000000000000000000000000000000000000000000000000000000\n      dup2\n      mstore\n      0x04\n      add\n      tag_176\n      swap1\n      tag_153\n      jump\t// in\n    tag_176:\n      mload(0x40)\n      dup1\n      swap2\n      sub\n      swap1\n      revert\n    tag_175:\n        /* \"contracts/studentmanager/TuitionContract.sol\":4320:4332  Status.Close */\n      0x02\n        /* \"contracts/studentmanager/TuitionContract.sol\":4311:4317  status */\n      0x05\n      0x00\n        /* \"contracts/studentmanager/TuitionContract.sol\":4311:4332  status = Status.Close */\n      0x0100\n      exp\n      dup2\n      sload\n      dup2\n      0xff\n      mul\n      not\n      and\n      swap1\n      dup4\n      0x02\n      dup2\n      gt\n      iszero\n      tag_178\n      jumpi\n      tag_179\n      tag_107\n      jump\t// in\n    tag_179:\n    tag_178:\n      mul\n      or\n      swap1\n      sstore\n      pop\n        /* \"contracts/studentmanager/TuitionContract.sol\":4367:4374  tuition */\n      0x00\n        /* \"contracts/studentmanager/TuitionContract.sol\":4367:4382  tuition.endTime */\n      0x04\n      add\n      sload\n        /* \"contracts/studentmanager/TuitionContract.sol\":4351:4366  block.timestamp */\n      timestamp\n        /* \"contracts/studentmanager/TuitionContract.sol\":4351:4382  block.timestamp>tuition.endTime */\n      gt\n        /* \"contracts/studentmanager/TuitionContract.sol\":4343:4383  require(block.timestamp>tuition.endTime) */\n      tag_180\n      jumpi\n      0x00\n      dup1\n      revert\n    tag_180:\n        /* \"contracts/studentmanager/TuitionContract.sol\":4399:4421  Close(block.timestamp) */\n      0xbf67515a38ee520223d32c1266d52101c30d936ed1f3e436c8caeb0a43cb06bf\n        /* \"contracts/studentmanager/TuitionContract.sol\":4405:4420  block.timestamp */\n      timestamp\n        /* \"contracts/studentmanager/TuitionContract.sol\":4399:4421  Close(block.timestamp) */\n      mload(0x40)\n      tag_181\n      swap2\n      swap1\n      tag_76\n      jump\t// in\n    tag_181:\n      mload(0x40)\n      dup1\n      swap2\n      sub\n      swap1\n      log1\n        /* \"contracts/studentmanager/TuitionContract.sol\":4255:4429  function close() external override onlyOwner {\r... */\n      jump\t// out\n        /* \"contracts/studentmanager/TuitionContract.sol\":3296:3866  function paymentByToken() external override onlyRoleStudent {\r... */\n    tag_46:\n        /* \"contracts/studentmanager/TuitionContract.sol\":1279:1293  accessControll */\n      0x05\n      0x01\n      swap1\n      sload\n      swap1\n      0x0100\n      exp\n      swap1\n      div\n      0xffffffffffffffffffffffffffffffffffffffff\n      and\n        /* \"contracts/studentmanager/TuitionContract.sol\":1279:1301  accessControll.hasRole */\n      0xffffffffffffffffffffffffffffffffffffffff\n      and\n      0x91d14854\n        /* \"contracts/studentmanager/TuitionContract.sol\":1302:1322  keccak256(\"STUDENT\") */\n      0xc951d7098b66ba0b8b77265b6e9cf0e187d73125a42bcd0061b09a68be421810\n        /* \"contracts/studentmanager/TuitionContract.sol\":1324:1334  msg.sender */\n      caller\n        /* \"contracts/studentmanager/TuitionContract.sol\":1279:1335  accessControll.hasRole(keccak256(\"STUDENT\"), msg.sender) */\n      mload(0x40)\n      dup4\n      0xffffffff\n      and\n      0xe0\n      shl\n      dup2\n      mstore\n      0x04\n      add\n      tag_183\n      swap3\n      swap2\n      swap1\n      tag_95\n      jump\t// in\n    tag_183:\n      0x20\n      mload(0x40)\n      dup1\n      dup4\n      sub\n      dup2\n      dup7\n      dup1\n      extcodesize\n      iszero\n      dup1\n      iszero\n      tag_184\n      jumpi\n      0x00\n      dup1\n      revert\n    tag_184:\n      pop\n      gas\n      staticcall\n      iszero\n      dup1\n      iszero\n      tag_186\n      jumpi\n      returndatasize\n      0x00\n      dup1\n      returndatacopy\n      revert(0x00, returndatasize)\n    tag_186:\n      pop\n      pop\n      pop\n      pop\n      mload(0x40)\n      returndatasize\n      not(0x1f)\n      0x1f\n      dup3\n      add\n      and\n      dup3\n      add\n      dup1\n      0x40\n      mstore\n      pop\n      dup2\n      add\n      swap1\n      tag_187\n      swap2\n      swap1\n      tag_100\n      jump\t// in\n    tag_187:\n        /* \"contracts/studentmanager/TuitionContract.sol\":1257:1379  require(\r... */\n      tag_188\n      jumpi\n      mload(0x40)\n      0x08c379a000000000000000000000000000000000000000000000000000000000\n      dup2\n      mstore\n      0x04\n      add\n      tag_189\n      swap1\n      tag_190\n      jump\t// in\n    tag_189:\n      mload(0x40)\n      dup1\n      swap2\n      sub\n      swap1\n      revert\n    tag_188:\n        /* \"contracts/studentmanager/TuitionContract.sol\":3375:3392  participantToTrue */\n      0x0a\n        /* \"contracts/studentmanager/TuitionContract.sol\":3375:3404  participantToTrue[msg.sender] */\n      0x00\n        /* \"contracts/studentmanager/TuitionContract.sol\":3393:3403  msg.sender */\n      caller\n        /* \"contracts/studentmanager/TuitionContract.sol\":3375:3404  participantToTrue[msg.sender] */\n      0xffffffffffffffffffffffffffffffffffffffff\n      and\n      0xffffffffffffffffffffffffffffffffffffffff\n      and\n      dup2\n      mstore\n      0x20\n      add\n      swap1\n      dup2\n      mstore\n      0x20\n      add\n      0x00\n      keccak256\n      0x00\n      swap1\n      sload\n      swap1\n      0x0100\n      exp\n      swap1\n      div\n      0xff\n      and\n        /* \"contracts/studentmanager/TuitionContract.sol\":3367:3432  require(participantToTrue[msg.sender], \"TC: You are not in list\") */\n      tag_192\n      jumpi\n      mload(0x40)\n      0x08c379a000000000000000000000000000000000000000000000000000000000\n      dup2\n      mstore\n      0x04\n      add\n      tag_193\n      swap1\n      tag_194\n      jump\t// in\n    tag_193:\n      mload(0x40)\n      dup1\n      swap2\n      sub\n      swap1\n      revert\n    tag_192:\n        /* \"contracts/studentmanager/TuitionContract.sol\":3453:3469  completedAddress */\n      0x0b\n        /* \"contracts/studentmanager/TuitionContract.sol\":3453:3481  completedAddress[msg.sender] */\n      0x00\n        /* \"contracts/studentmanager/TuitionContract.sol\":3470:3480  msg.sender */\n      caller\n        /* \"contracts/studentmanager/TuitionContract.sol\":3453:3481  completedAddress[msg.sender] */\n      0xffffffffffffffffffffffffffffffffffffffff\n      and\n      0xffffffffffffffffffffffffffffffffffffffff\n      and\n      dup2\n      mstore\n      0x20\n      add\n      swap1\n      dup2\n      mstore\n      0x20\n      add\n      0x00\n      keccak256\n      0x00\n      swap1\n      sload\n      swap1\n      0x0100\n      exp\n      swap1\n      div\n      0xff\n      and\n        /* \"contracts/studentmanager/TuitionContract.sol\":3452:3481  !completedAddress[msg.sender] */\n      iszero\n        /* \"contracts/studentmanager/TuitionContract.sol\":3443:3506  require( !completedAddress[msg.sender], \"TC: You paid tuition\") */\n      tag_195\n      jumpi\n      mload(0x40)\n      0x08c379a000000000000000000000000000000000000000000000000000000000\n      dup2\n      mstore\n      0x04\n      add\n      tag_196\n      swap1\n      tag_197\n      jump\t// in\n    tag_196:\n      mload(0x40)\n      dup1\n      swap2\n      sub\n      swap1\n      revert\n    tag_195:\n        /* \"contracts/studentmanager/TuitionContract.sol\":3517:3533  address UITToken */\n      0x00\n        /* \"contracts/studentmanager/TuitionContract.sol\":3555:3572  rewardDistributor */\n      0x06\n      0x00\n      swap1\n      sload\n      swap1\n      0x0100\n      exp\n      swap1\n      div\n      0xffffffffffffffffffffffffffffffffffffffff\n      and\n        /* \"contracts/studentmanager/TuitionContract.sol\":3536:3592  IRewardDistributor(rewardDistributor).getUITTokenAddress */\n      0xffffffffffffffffffffffffffffffffffffffff\n      and\n      0xc59671c1\n        /* \"contracts/studentmanager/TuitionContract.sol\":3536:3594  IRewardDistributor(rewardDistributor).getUITTokenAddress() */\n      mload(0x40)\n      dup2\n      0xffffffff\n      and\n      0xe0\n      shl\n      dup2\n      mstore\n      0x04\n      add\n      0x20\n      mload(0x40)\n      dup1\n      dup4\n      sub\n      dup2\n      dup7\n      dup1\n      extcodesize\n      iszero\n      dup1\n      iszero\n      tag_198\n      jumpi\n      0x00\n      dup1\n      revert\n    tag_198:\n      pop\n      gas\n      staticcall\n      iszero\n      dup1\n      iszero\n      tag_200\n      jumpi\n      returndatasize\n      0x00\n      dup1\n      returndatacopy\n      revert(0x00, returndatasize)\n    tag_200:\n      pop\n      pop\n      pop\n      pop\n      mload(0x40)\n      returndatasize\n      not(0x1f)\n      0x1f\n      dup3\n      add\n      and\n      dup3\n      add\n      dup1\n      0x40\n      mstore\n      pop\n      dup2\n      add\n      swap1\n      tag_201\n      swap2\n      swap1\n      tag_202\n      jump\t// in\n    tag_201:\n        /* \"contracts/studentmanager/TuitionContract.sol\":3517:3594  address UITToken = IRewardDistributor(rewardDistributor).getUITTokenAddress() */\n      swap1\n      pop\n        /* \"contracts/studentmanager/TuitionContract.sol\":3605:3739  IERC20(UITToken).safeTransferFrom(\r... */\n      tag_203\n        /* \"contracts/studentmanager/TuitionContract.sol\":3653:3663  msg.sender */\n      caller\n        /* \"contracts/studentmanager/TuitionContract.sol\":3678:3695  rewardDistributor */\n      0x06\n      0x00\n      swap1\n      sload\n      swap1\n      0x0100\n      exp\n      swap1\n      div\n      0xffffffffffffffffffffffffffffffffffffffff\n      and\n        /* \"contracts/studentmanager/TuitionContract.sol\":3710:3717  tuition */\n      0x00\n        /* \"contracts/studentmanager/TuitionContract.sol\":3710:3728  tuition.feeByToken */\n      0x02\n      add\n      sload\n        /* \"contracts/studentmanager/TuitionContract.sol\":3612:3620  UITToken */\n      dup5\n        /* \"contracts/studentmanager/TuitionContract.sol\":3605:3638  IERC20(UITToken).safeTransferFrom */\n      0xffffffffffffffffffffffffffffffffffffffff\n      and\n      tag_204\n      swap1\n        /* \"contracts/studentmanager/TuitionContract.sol\":3605:3739  IERC20(UITToken).safeTransferFrom(\r... */\n      swap4\n      swap3\n      swap2\n      swap1\n      0xffffffff\n      and\n      jump\t// in\n    tag_203:\n        /* \"contracts/studentmanager/TuitionContract.sol\":3781:3785  true */\n      0x01\n        /* \"contracts/studentmanager/TuitionContract.sol\":3750:3766  completedAddress */\n      0x0b\n        /* \"contracts/studentmanager/TuitionContract.sol\":3750:3778  completedAddress[msg.sender] */\n      0x00\n        /* \"contracts/studentmanager/TuitionContract.sol\":3767:3777  msg.sender */\n      caller\n        /* \"contracts/studentmanager/TuitionContract.sol\":3750:3778  completedAddress[msg.sender] */\n      0xffffffffffffffffffffffffffffffffffffffff\n      and\n      0xffffffffffffffffffffffffffffffffffffffff\n      and\n      dup2\n      mstore\n      0x20\n      add\n      swap1\n      dup2\n      mstore\n      0x20\n      add\n      0x00\n      keccak256\n      0x00\n        /* \"contracts/studentmanager/TuitionContract.sol\":3750:3785  completedAddress[msg.sender] = true */\n      0x0100\n      exp\n      dup2\n      sload\n      dup2\n      0xff\n      mul\n      not\n      and\n      swap1\n      dup4\n      iszero\n      iszero\n      mul\n      or\n      swap1\n      sstore\n      pop\n        /* \"contracts/studentmanager/TuitionContract.sol\":3801:3858  Payment(msg.sender, block.timestamp, PaymentMethod.Token) */\n      0x34f914f46f0a40eb0e7b1396063b87a1819f28ed7b5a63829d59f41eba61a1ae\n        /* \"contracts/studentmanager/TuitionContract.sol\":3809:3819  msg.sender */\n      caller\n        /* \"contracts/studentmanager/TuitionContract.sol\":3821:3836  block.timestamp */\n      timestamp\n        /* \"contracts/studentmanager/TuitionContract.sol\":3838:3857  PaymentMethod.Token */\n      0x00\n        /* \"contracts/studentmanager/TuitionContract.sol\":3801:3858  Payment(msg.sender, block.timestamp, PaymentMethod.Token) */\n      mload(0x40)\n      tag_205\n      swap4\n      swap3\n      swap2\n      swap1\n      tag_206\n      jump\t// in\n    tag_205:\n      mload(0x40)\n      dup1\n      swap2\n      sub\n      swap1\n      log1\n        /* \"contracts/studentmanager/TuitionContract.sol\":3356:3866  {\r... */\n      pop\n        /* \"contracts/studentmanager/TuitionContract.sol\":3296:3866  function paymentByToken() external override onlyRoleStudent {\r... */\n      jump\t// out\n        /* \"contracts/studentmanager/TuitionContract.sol\":2980:3288  function removeStudentFromTuition(address _student) external onlyRoleAdmin {\r... */\n    tag_50:\n        /* \"contracts/studentmanager/TuitionContract.sol\":1092:1106  accessControll */\n      0x05\n      0x01\n      swap1\n      sload\n      swap1\n      0x0100\n      exp\n      swap1\n      div\n      0xffffffffffffffffffffffffffffffffffffffff\n      and\n        /* \"contracts/studentmanager/TuitionContract.sol\":1092:1114  accessControll.hasRole */\n      0xffffffffffffffffffffffffffffffffffffffff\n      and\n      0x91d14854\n        /* \"contracts/studentmanager/TuitionContract.sol\":1115:1133  keccak256(\"ADMIN\") */\n      0xdf8b4c520ffe197c5343c6f5aec59570151ef9a492f2c624fd45ddde6135ec42\n        /* \"contracts/studentmanager/TuitionContract.sol\":1135:1145  msg.sender */\n      caller\n        /* \"contracts/studentmanager/TuitionContract.sol\":1092:1146  accessControll.hasRole(keccak256(\"ADMIN\"), msg.sender) */\n      mload(0x40)\n      dup4\n      0xffffffff\n      and\n      0xe0\n      shl\n      dup2\n      mstore\n      0x04\n      add\n      tag_208\n      swap3\n      swap2\n      swap1\n      tag_95\n      jump\t// in\n    tag_208:\n      0x20\n      mload(0x40)\n      dup1\n      dup4\n      sub\n      dup2\n      dup7\n      dup1\n      extcodesize\n      iszero\n      dup1\n      iszero\n      tag_209\n      jumpi\n      0x00\n      dup1\n      revert\n    tag_209:\n      pop\n      gas\n      staticcall\n      iszero\n      dup1\n      iszero\n      tag_211\n      jumpi\n      returndatasize\n      0x00\n      dup1\n      returndatacopy\n      revert(0x00, returndatasize)\n    tag_211:\n      pop\n      pop\n      pop\n      pop\n      mload(0x40)\n      returndatasize\n      not(0x1f)\n      0x1f\n      dup3\n      add\n      and\n      dup3\n      add\n      dup1\n      0x40\n      mstore\n      pop\n      dup2\n      add\n      swap1\n      tag_212\n      swap2\n      swap1\n      tag_100\n      jump\t// in\n    tag_212:\n        /* \"contracts/studentmanager/TuitionContract.sol\":1070:1191  require(\r... */\n      tag_213\n      jumpi\n      mload(0x40)\n      0x08c379a000000000000000000000000000000000000000000000000000000000\n      dup2\n      mstore\n      0x04\n      add\n      tag_214\n      swap1\n      tag_103\n      jump\t// in\n    tag_214:\n      mload(0x40)\n      dup1\n      swap2\n      sub\n      swap1\n      revert\n    tag_213:\n        /* \"contracts/studentmanager/TuitionContract.sol\":3074:3091  participantToTrue */\n      0x0a\n        /* \"contracts/studentmanager/TuitionContract.sol\":3074:3101  participantToTrue[_student] */\n      0x00\n        /* \"contracts/studentmanager/TuitionContract.sol\":3092:3100  _student */\n      dup3\n        /* \"contracts/studentmanager/TuitionContract.sol\":3074:3101  participantToTrue[_student] */\n      0xffffffffffffffffffffffffffffffffffffffff\n      and\n      0xffffffffffffffffffffffffffffffffffffffff\n      and\n      dup2\n      mstore\n      0x20\n      add\n      swap1\n      dup2\n      mstore\n      0x20\n      add\n      0x00\n      keccak256\n      0x00\n      swap1\n      sload\n      swap1\n      0x0100\n      exp\n      swap1\n      div\n      0xff\n      and\n        /* \"contracts/studentmanager/TuitionContract.sol\":3066:3123  require(participantToTrue[_student], \"Error when remove\") */\n      tag_216\n      jumpi\n      mload(0x40)\n      0x08c379a000000000000000000000000000000000000000000000000000000000\n      dup2\n      mstore\n      0x04\n      add\n      tag_217\n      swap1\n      tag_218\n      jump\t// in\n    tag_217:\n      mload(0x40)\n      dup1\n      swap2\n      sub\n      swap1\n      revert\n    tag_216:\n        /* \"contracts/studentmanager/TuitionContract.sol\":3134:3147  uint256 index */\n      0x00\n        /* \"contracts/studentmanager/TuitionContract.sol\":3150:3168  participantToIndex */\n      0x09\n        /* \"contracts/studentmanager/TuitionContract.sol\":3150:3178  participantToIndex[_student] */\n      0x00\n        /* \"contracts/studentmanager/TuitionContract.sol\":3169:3177  _student */\n      dup4\n        /* \"contracts/studentmanager/TuitionContract.sol\":3150:3178  participantToIndex[_student] */\n      0xffffffffffffffffffffffffffffffffffffffff\n      and\n      0xffffffffffffffffffffffffffffffffffffffff\n      and\n      dup2\n      mstore\n      0x20\n      add\n      swap1\n      dup2\n      mstore\n      0x20\n      add\n      0x00\n      keccak256\n      sload\n        /* \"contracts/studentmanager/TuitionContract.sol\":3134:3178  uint256 index = participantToIndex[_student] */\n      swap1\n      pop\n        /* \"contracts/studentmanager/TuitionContract.sol\":3189:3195  amount */\n      0x08\n      0x00\n        /* \"contracts/studentmanager/TuitionContract.sol\":3189:3197  amount-- */\n      dup2\n      sload\n      dup1\n      swap3\n      swap2\n      swap1\n      tag_219\n      swap1\n      tag_220\n      jump\t// in\n    tag_219:\n      swap2\n      swap1\n      pop\n      sstore\n      pop\n        /* \"contracts/studentmanager/TuitionContract.sol\":3238:3243  false */\n      0x00\n        /* \"contracts/studentmanager/TuitionContract.sol\":3208:3225  participantToTrue */\n      0x0a\n        /* \"contracts/studentmanager/TuitionContract.sol\":3208:3235  participantToTrue[_student] */\n      0x00\n        /* \"contracts/studentmanager/TuitionContract.sol\":3226:3234  _student */\n      dup5\n        /* \"contracts/studentmanager/TuitionContract.sol\":3208:3235  participantToTrue[_student] */\n      0xffffffffffffffffffffffffffffffffffffffff\n      and\n      0xffffffffffffffffffffffffffffffffffffffff\n      and\n      dup2\n      mstore\n      0x20\n      add\n      swap1\n      dup2\n      mstore\n      0x20\n      add\n      0x00\n      keccak256\n      0x00\n        /* \"contracts/studentmanager/TuitionContract.sol\":3208:3243  participantToTrue[_student] = false */\n      0x0100\n      exp\n      dup2\n      sload\n      dup2\n      0xff\n      mul\n      not\n      and\n      swap1\n      dup4\n      iszero\n      iszero\n      mul\n      or\n      swap1\n      sstore\n      pop\n        /* \"contracts/studentmanager/TuitionContract.sol\":3261:3273  participants */\n      0x07\n        /* \"contracts/studentmanager/TuitionContract.sol\":3274:3279  index */\n      dup2\n        /* \"contracts/studentmanager/TuitionContract.sol\":3261:3280  participants[index] */\n      dup2\n      sload\n      dup2\n      lt\n      tag_221\n      jumpi\n      tag_222\n      tag_119\n      jump\t// in\n    tag_222:\n    tag_221:\n      swap1\n      0x00\n      mstore\n      keccak256(0x00, 0x20)\n      add\n      0x00\n        /* \"contracts/studentmanager/TuitionContract.sol\":3254:3280  delete participants[index] */\n      0x0100\n      exp\n      dup2\n      sload\n      swap1\n      0xffffffffffffffffffffffffffffffffffffffff\n      mul\n      not\n      and\n      swap1\n      sstore\n        /* \"contracts/studentmanager/TuitionContract.sol\":3055:3288  {\r... */\n      pop\n        /* \"contracts/studentmanager/TuitionContract.sol\":2980:3288  function removeStudentFromTuition(address _student) external onlyRoleAdmin {\r... */\n      pop\n      jump\t// out\n        /* \"contracts/studentmanager/TuitionContract.sol\":291:321  address public immutable owner */\n    tag_52:\n      immutable(\"0x24f23eb2b7ec20f09b3b2a21f8addc5e0a93cdf731b4f8ae02783fb7a15edd99\")\n      dup2\n      jump\t// out\n        /* \"contracts/studentmanager/TuitionContract.sol\":3874:4247  function paymentByCurrency()\r... */\n    tag_55:\n        /* \"contracts/studentmanager/TuitionContract.sol\":1092:1106  accessControll */\n      0x05\n      0x01\n      swap1\n      sload\n      swap1\n      0x0100\n      exp\n      swap1\n      div\n      0xffffffffffffffffffffffffffffffffffffffff\n      and\n        /* \"contracts/studentmanager/TuitionContract.sol\":1092:1114  accessControll.hasRole */\n      0xffffffffffffffffffffffffffffffffffffffff\n      and\n      0x91d14854\n        /* \"contracts/studentmanager/TuitionContract.sol\":1115:1133  keccak256(\"ADMIN\") */\n      0xdf8b4c520ffe197c5343c6f5aec59570151ef9a492f2c624fd45ddde6135ec42\n        /* \"contracts/studentmanager/TuitionContract.sol\":1135:1145  msg.sender */\n      caller\n        /* \"contracts/studentmanager/TuitionContract.sol\":1092:1146  accessControll.hasRole(keccak256(\"ADMIN\"), msg.sender) */\n      mload(0x40)\n      dup4\n      0xffffffff\n      and\n      0xe0\n      shl\n      dup2\n      mstore\n      0x04\n      add\n      tag_225\n      swap3\n      swap2\n      swap1\n      tag_95\n      jump\t// in\n    tag_225:\n      0x20\n      mload(0x40)\n      dup1\n      dup4\n      sub\n      dup2\n      dup7\n      dup1\n      extcodesize\n      iszero\n      dup1\n      iszero\n      tag_226\n      jumpi\n      0x00\n      dup1\n      revert\n    tag_226:\n      pop\n      gas\n      staticcall\n      iszero\n      dup1\n      iszero\n      tag_228\n      jumpi\n      returndatasize\n      0x00\n      dup1\n      returndatacopy\n      revert(0x00, returndatasize)\n    tag_228:\n      pop\n      pop\n      pop\n      pop\n      mload(0x40)\n      returndatasize\n      not(0x1f)\n      0x1f\n      dup3\n      add\n      and\n      dup3\n      add\n      dup1\n      0x40\n      mstore\n      pop\n      dup2\n      add\n      swap1\n      tag_229\n      swap2\n      swap1\n      tag_100\n      jump\t// in\n    tag_229:\n        /* \"contracts/studentmanager/TuitionContract.sol\":1070:1191  require(\r... */\n      tag_230\n      jumpi\n      mload(0x40)\n      0x08c379a000000000000000000000000000000000000000000000000000000000\n      dup2\n      mstore\n      0x04\n      add\n      tag_231\n      swap1\n      tag_103\n      jump\t// in\n    tag_231:\n      mload(0x40)\n      dup1\n      swap2\n      sub\n      swap1\n      revert\n    tag_230:\n        /* \"contracts/studentmanager/TuitionContract.sol\":3986:4003  participantToTrue */\n      0x0a\n        /* \"contracts/studentmanager/TuitionContract.sol\":3986:4015  participantToTrue[msg.sender] */\n      0x00\n        /* \"contracts/studentmanager/TuitionContract.sol\":4004:4014  msg.sender */\n      caller\n        /* \"contracts/studentmanager/TuitionContract.sol\":3986:4015  participantToTrue[msg.sender] */\n      0xffffffffffffffffffffffffffffffffffffffff\n      and\n      0xffffffffffffffffffffffffffffffffffffffff\n      and\n      dup2\n      mstore\n      0x20\n      add\n      swap1\n      dup2\n      mstore\n      0x20\n      add\n      0x00\n      keccak256\n      0x00\n      swap1\n      sload\n      swap1\n      0x0100\n      exp\n      swap1\n      div\n      0xff\n      and\n        /* \"contracts/studentmanager/TuitionContract.sol\":3978:4043  require(participantToTrue[msg.sender], \"TC: You are not in list\") */\n      tag_233\n      jumpi\n      mload(0x40)\n      0x08c379a000000000000000000000000000000000000000000000000000000000\n      dup2\n      mstore\n      0x04\n      add\n      tag_234\n      swap1\n      tag_194\n      jump\t// in\n    tag_234:\n      mload(0x40)\n      dup1\n      swap2\n      sub\n      swap1\n      revert\n    tag_233:\n        /* \"contracts/studentmanager/TuitionContract.sol\":4064:4080  completedAddress */\n      0x0b\n        /* \"contracts/studentmanager/TuitionContract.sol\":4064:4092  completedAddress[msg.sender] */\n      0x00\n        /* \"contracts/studentmanager/TuitionContract.sol\":4081:4091  msg.sender */\n      caller\n        /* \"contracts/studentmanager/TuitionContract.sol\":4064:4092  completedAddress[msg.sender] */\n      0xffffffffffffffffffffffffffffffffffffffff\n      and\n      0xffffffffffffffffffffffffffffffffffffffff\n      and\n      dup2\n      mstore\n      0x20\n      add\n      swap1\n      dup2\n      mstore\n      0x20\n      add\n      0x00\n      keccak256\n      0x00\n      swap1\n      sload\n      swap1\n      0x0100\n      exp\n      swap1\n      div\n      0xff\n      and\n        /* \"contracts/studentmanager/TuitionContract.sol\":4063:4092  !completedAddress[msg.sender] */\n      iszero\n        /* \"contracts/studentmanager/TuitionContract.sol\":4054:4117  require( !completedAddress[msg.sender], \"TC: You paid tuition\") */\n      tag_235\n      jumpi\n      mload(0x40)\n      0x08c379a000000000000000000000000000000000000000000000000000000000\n      dup2\n      mstore\n      0x04\n      add\n      tag_236\n      swap1\n      tag_197\n      jump\t// in\n    tag_236:\n      mload(0x40)\n      dup1\n      swap2\n      sub\n      swap1\n      revert\n    tag_235:\n        /* \"contracts/studentmanager/TuitionContract.sol\":4159:4163  true */\n      0x01\n        /* \"contracts/studentmanager/TuitionContract.sol\":4128:4144  completedAddress */\n      0x0b\n        /* \"contracts/studentmanager/TuitionContract.sol\":4128:4156  completedAddress[msg.sender] */\n      0x00\n        /* \"contracts/studentmanager/TuitionContract.sol\":4145:4155  msg.sender */\n      caller\n        /* \"contracts/studentmanager/TuitionContract.sol\":4128:4156  completedAddress[msg.sender] */\n      0xffffffffffffffffffffffffffffffffffffffff\n      and\n      0xffffffffffffffffffffffffffffffffffffffff\n      and\n      dup2\n      mstore\n      0x20\n      add\n      swap1\n      dup2\n      mstore\n      0x20\n      add\n      0x00\n      keccak256\n      0x00\n        /* \"contracts/studentmanager/TuitionContract.sol\":4128:4163  completedAddress[msg.sender] = true */\n      0x0100\n      exp\n      dup2\n      sload\n      dup2\n      0xff\n      mul\n      not\n      and\n      swap1\n      dup4\n      iszero\n      iszero\n      mul\n      or\n      swap1\n      sstore\n      pop\n        /* \"contracts/studentmanager/TuitionContract.sol\":4179:4239  Payment(msg.sender, block.timestamp, PaymentMethod.Currency) */\n      0x34f914f46f0a40eb0e7b1396063b87a1819f28ed7b5a63829d59f41eba61a1ae\n        /* \"contracts/studentmanager/TuitionContract.sol\":4187:4197  msg.sender */\n      caller\n        /* \"contracts/studentmanager/TuitionContract.sol\":4199:4214  block.timestamp */\n      timestamp\n        /* \"contracts/studentmanager/TuitionContract.sol\":4216:4238  PaymentMethod.Currency */\n      0x01\n        /* \"contracts/studentmanager/TuitionContract.sol\":4179:4239  Payment(msg.sender, block.timestamp, PaymentMethod.Currency) */\n      mload(0x40)\n      tag_237\n      swap4\n      swap3\n      swap2\n      swap1\n      tag_206\n      jump\t// in\n    tag_237:\n      mload(0x40)\n      dup1\n      swap2\n      sub\n      swap1\n      log1\n        /* \"contracts/studentmanager/TuitionContract.sol\":3874:4247  function paymentByCurrency()\r... */\n      jump\t// out\n        /* \"contracts/studentmanager/TuitionContract.sol\":664:711  mapping(address =>bool) public completedAddress */\n    tag_58:\n      mstore(0x20, 0x0b)\n      dup1\n      0x00\n      mstore\n      keccak256(0x00, 0x40)\n      0x00\n      swap2\n      pop\n      sload\n      swap1\n      0x0100\n      exp\n      swap1\n      div\n      0xff\n      and\n      dup2\n      jump\t// out\n        /* \"contracts/studentmanager/TuitionContract.sol\":4891:5335  function getParticipantListCompleted()\r... */\n    tag_62:\n        /* \"contracts/studentmanager/TuitionContract.sol\":4978:4994  address[] memory */\n      0x60\n        /* \"contracts/studentmanager/TuitionContract.sol\":5012:5036  address[] memory student */\n      0x00\n        /* \"contracts/studentmanager/TuitionContract.sol\":5053:5059  amount */\n      sload(0x08)\n        /* \"contracts/studentmanager/TuitionContract.sol\":5039:5060  new address[](amount) */\n      0xffffffffffffffff\n      dup2\n      gt\n      iszero\n      tag_239\n      jumpi\n      tag_240\n      tag_241\n      jump\t// in\n    tag_240:\n    tag_239:\n      mload(0x40)\n      swap1\n      dup1\n      dup3\n      mstore\n      dup1\n      0x20\n      mul\n      0x20\n      add\n      dup3\n      add\n      0x40\n      mstore\n      dup1\n      iszero\n      tag_242\n      jumpi\n      dup2\n      0x20\n      add\n      0x20\n      dup3\n      mul\n      dup1\n      calldatasize\n      dup4\n      calldatacopy\n      dup1\n      dup3\n      add\n      swap2\n      pop\n      pop\n      swap1\n      pop\n    tag_242:\n      pop\n        /* \"contracts/studentmanager/TuitionContract.sol\":5012:5060  address[] memory student = new address[](amount) */\n      swap1\n      pop\n        /* \"contracts/studentmanager/TuitionContract.sol\":5071:5084  uint256 index */\n      0x00\n        /* \"contracts/studentmanager/TuitionContract.sol\":5100:5109  uint256 i */\n      dup1\n        /* \"contracts/studentmanager/TuitionContract.sol\":5112:5113  0 */\n      0x00\n        /* \"contracts/studentmanager/TuitionContract.sol\":5100:5113  uint256 i = 0 */\n      swap1\n      pop\n        /* \"contracts/studentmanager/TuitionContract.sol\":5095:5303  for (uint256 i = 0; i < participants.length; i++) {\r... */\n    tag_243:\n        /* \"contracts/studentmanager/TuitionContract.sol\":5119:5131  participants */\n      0x07\n        /* \"contracts/studentmanager/TuitionContract.sol\":5119:5138  participants.length */\n      dup1\n      sload\n      swap1\n      pop\n        /* \"contracts/studentmanager/TuitionContract.sol\":5115:5116  i */\n      dup2\n        /* \"contracts/studentmanager/TuitionContract.sol\":5115:5138  i < participants.length */\n      lt\n        /* \"contracts/studentmanager/TuitionContract.sol\":5095:5303  for (uint256 i = 0; i < participants.length; i++) {\r... */\n      iszero\n      tag_244\n      jumpi\n        /* \"contracts/studentmanager/TuitionContract.sol\":5164:5180  completedAddress */\n      0x0b\n        /* \"contracts/studentmanager/TuitionContract.sol\":5164:5197  completedAddress[participants[i]] */\n      0x00\n        /* \"contracts/studentmanager/TuitionContract.sol\":5181:5193  participants */\n      0x07\n        /* \"contracts/studentmanager/TuitionContract.sol\":5194:5195  i */\n      dup4\n        /* \"contracts/studentmanager/TuitionContract.sol\":5181:5196  participants[i] */\n      dup2\n      sload\n      dup2\n      lt\n      tag_246\n      jumpi\n      tag_247\n      tag_119\n      jump\t// in\n    tag_247:\n    tag_246:\n      swap1\n      0x00\n      mstore\n      keccak256(0x00, 0x20)\n      add\n      0x00\n      swap1\n      sload\n      swap1\n      0x0100\n      exp\n      swap1\n      div\n      0xffffffffffffffffffffffffffffffffffffffff\n      and\n        /* \"contracts/studentmanager/TuitionContract.sol\":5164:5197  completedAddress[participants[i]] */\n      0xffffffffffffffffffffffffffffffffffffffff\n      and\n      0xffffffffffffffffffffffffffffffffffffffff\n      and\n      dup2\n      mstore\n      0x20\n      add\n      swap1\n      dup2\n      mstore\n      0x20\n      add\n      0x00\n      keccak256\n      0x00\n      swap1\n      sload\n      swap1\n      0x0100\n      exp\n      swap1\n      div\n      0xff\n      and\n        /* \"contracts/studentmanager/TuitionContract.sol\":5160:5292  if (completedAddress[participants[i]]) {\r... */\n      iszero\n      tag_249\n      jumpi\n        /* \"contracts/studentmanager/TuitionContract.sol\":5235:5247  participants */\n      0x07\n        /* \"contracts/studentmanager/TuitionContract.sol\":5248:5249  i */\n      dup2\n        /* \"contracts/studentmanager/TuitionContract.sol\":5235:5250  participants[i] */\n      dup2\n      sload\n      dup2\n      lt\n      tag_250\n      jumpi\n      tag_251\n      tag_119\n      jump\t// in\n    tag_251:\n    tag_250:\n      swap1\n      0x00\n      mstore\n      keccak256(0x00, 0x20)\n      add\n      0x00\n      swap1\n      sload\n      swap1\n      0x0100\n      exp\n      swap1\n      div\n      0xffffffffffffffffffffffffffffffffffffffff\n      and\n        /* \"contracts/studentmanager/TuitionContract.sol\":5218:5225  student */\n      dup4\n        /* \"contracts/studentmanager/TuitionContract.sol\":5226:5231  index */\n      dup4\n        /* \"contracts/studentmanager/TuitionContract.sol\":5218:5232  student[index] */\n      dup2\n      mload\n      dup2\n      lt\n      tag_253\n      jumpi\n      tag_254\n      tag_119\n      jump\t// in\n    tag_254:\n    tag_253:\n      0x20\n      mul\n      0x20\n      add\n      add\n        /* \"contracts/studentmanager/TuitionContract.sol\":5218:5250  student[index] = participants[i] */\n      swap1\n      0xffffffffffffffffffffffffffffffffffffffff\n      and\n      swap1\n      dup2\n      0xffffffffffffffffffffffffffffffffffffffff\n      and\n      dup2\n      mstore\n      pop\n      pop\n        /* \"contracts/studentmanager/TuitionContract.sol\":5269:5276  index++ */\n      dup2\n      dup1\n      tag_255\n      swap1\n      tag_148\n      jump\t// in\n    tag_255:\n      swap3\n      pop\n      pop\n        /* \"contracts/studentmanager/TuitionContract.sol\":5160:5292  if (completedAddress[participants[i]]) {\r... */\n    tag_249:\n        /* \"contracts/studentmanager/TuitionContract.sol\":5140:5143  i++ */\n      dup1\n      dup1\n      tag_256\n      swap1\n      tag_148\n      jump\t// in\n    tag_256:\n      swap2\n      pop\n      pop\n        /* \"contracts/studentmanager/TuitionContract.sol\":5095:5303  for (uint256 i = 0; i < participants.length; i++) {\r... */\n      jump(tag_243)\n    tag_244:\n      pop\n        /* \"contracts/studentmanager/TuitionContract.sol\":5320:5327  student */\n      dup2\n        /* \"contracts/studentmanager/TuitionContract.sol\":5313:5327  return student */\n      swap3\n      pop\n      pop\n      pop\n        /* \"contracts/studentmanager/TuitionContract.sol\":4891:5335  function getParticipantListCompleted()\r... */\n      swap1\n      jump\t// out\n        /* \"contracts/studentmanager/TuitionContract.sol\":328:350  Tuition public tuition */\n    tag_66:\n      0x00\n      dup1\n      0x00\n      add\n      sload\n      swap1\n      dup1\n      0x01\n      add\n      dup1\n      sload\n      tag_257\n      swap1\n      tag_258\n      jump\t// in\n    tag_257:\n      dup1\n      0x1f\n      add\n      0x20\n      dup1\n      swap2\n      div\n      mul\n      0x20\n      add\n      mload(0x40)\n      swap1\n      dup2\n      add\n      0x40\n      mstore\n      dup1\n      swap3\n      swap2\n      swap1\n      dup2\n      dup2\n      mstore\n      0x20\n      add\n      dup3\n      dup1\n      sload\n      tag_259\n      swap1\n      tag_258\n      jump\t// in\n    tag_259:\n      dup1\n      iszero\n      tag_260\n      jumpi\n      dup1\n      0x1f\n      lt\n      tag_261\n      jumpi\n      0x0100\n      dup1\n      dup4\n      sload\n      div\n      mul\n      dup4\n      mstore\n      swap2\n      0x20\n      add\n      swap2\n      jump(tag_260)\n    tag_261:\n      dup3\n      add\n      swap2\n      swap1\n      0x00\n      mstore\n      keccak256(0x00, 0x20)\n      swap1\n    tag_262:\n      dup2\n      sload\n      dup2\n      mstore\n      swap1\n      0x01\n      add\n      swap1\n      0x20\n      add\n      dup1\n      dup4\n      gt\n      tag_262\n      jumpi\n      dup3\n      swap1\n      sub\n      0x1f\n      and\n      dup3\n      add\n      swap2\n    tag_260:\n      pop\n      pop\n      pop\n      pop\n      pop\n      swap1\n      dup1\n      0x02\n      add\n      sload\n      swap1\n      dup1\n      0x03\n      add\n      sload\n      swap1\n      dup1\n      0x04\n      add\n      sload\n      swap1\n      pop\n      dup6\n      jump\t// out\n        /* \"contracts/studentmanager/TuitionContract.sol\":400:436  IAccessControl public accessControll */\n    tag_70:\n      0x05\n      0x01\n      swap1\n      sload\n      swap1\n      0x0100\n      exp\n      swap1\n      div\n      0xffffffffffffffffffffffffffffffffffffffff\n      and\n      dup2\n      jump\t// out\n        /* \"contracts/studentmanager/TuitionContract.sol\":520:541  uint256 public amount */\n    tag_74:\n      sload(0x08)\n      dup2\n      jump\t// out\n        /* \"contracts/studentmanager/TuitionContract.sol\":443:475  address public rewardDistributor */\n    tag_78:\n      0x06\n      0x00\n      swap1\n      sload\n      swap1\n      0x0100\n      exp\n      swap1\n      div\n      0xffffffffffffffffffffffffffffffffffffffff\n      and\n      dup2\n      jump\t// out\n        /* \"contracts/studentmanager/TuitionContract.sol\":608:657  mapping(address => bool) public participantToTrue */\n    tag_82:\n      mstore(0x20, 0x0a)\n      dup1\n      0x00\n      mstore\n      keccak256(0x00, 0x40)\n      0x00\n      swap2\n      pop\n      sload\n      swap1\n      0x0100\n      exp\n      swap1\n      div\n      0xff\n      and\n      dup2\n      jump\t// out\n        /* \"contracts/studentmanager/TuitionContract.sol\":2284:2377  function start() external override onlyOwner onlyLock {\r... */\n    tag_85:\n        /* \"contracts/studentmanager/TuitionContract.sol\":986:991  owner */\n      immutable(\"0x24f23eb2b7ec20f09b3b2a21f8addc5e0a93cdf731b4f8ae02783fb7a15edd99\")\n        /* \"contracts/studentmanager/TuitionContract.sol\":972:991  msg.sender == owner */\n      0xffffffffffffffffffffffffffffffffffffffff\n      and\n        /* \"contracts/studentmanager/TuitionContract.sol\":972:982  msg.sender */\n      caller\n        /* \"contracts/studentmanager/TuitionContract.sol\":972:991  msg.sender == owner */\n      0xffffffffffffffffffffffffffffffffffffffff\n      and\n      eq\n        /* \"contracts/studentmanager/TuitionContract.sol\":964:1006  require(msg.sender == owner, \"Only Owner\") */\n      tag_264\n      jumpi\n      mload(0x40)\n      0x08c379a000000000000000000000000000000000000000000000000000000000\n      dup2\n      mstore\n      0x04\n      add\n      tag_265\n      swap1\n      tag_153\n      jump\t// in\n    tag_265:\n      mload(0x40)\n      dup1\n      swap2\n      sub\n      swap1\n      revert\n    tag_264:\n        /* \"contracts/studentmanager/TuitionContract.sol\":769:780  Status.Lock */\n      0x00\n        /* \"contracts/studentmanager/TuitionContract.sol\":759:780  status == Status.Lock */\n      0x02\n      dup2\n      gt\n      iszero\n      tag_267\n      jumpi\n      tag_268\n      tag_107\n      jump\t// in\n    tag_268:\n    tag_267:\n        /* \"contracts/studentmanager/TuitionContract.sol\":759:765  status */\n      0x05\n      0x00\n      swap1\n      sload\n      swap1\n      0x0100\n      exp\n      swap1\n      div\n      0xff\n      and\n        /* \"contracts/studentmanager/TuitionContract.sol\":759:780  status == Status.Lock */\n      0x02\n      dup2\n      gt\n      iszero\n      tag_269\n      jumpi\n      tag_270\n      tag_107\n      jump\t// in\n    tag_270:\n    tag_269:\n      eq\n        /* \"contracts/studentmanager/TuitionContract.sol\":751:798  require(status == Status.Lock, \"MC: Only Lock\") */\n      tag_271\n      jumpi\n      mload(0x40)\n      0x08c379a000000000000000000000000000000000000000000000000000000000\n      dup2\n      mstore\n      0x04\n      add\n      tag_272\n      swap1\n      tag_161\n      jump\t// in\n    tag_272:\n      mload(0x40)\n      dup1\n      swap2\n      sub\n      swap1\n      revert\n    tag_271:\n        /* \"contracts/studentmanager/TuitionContract.sol\":2358:2369  Status.Open */\n      0x01\n        /* \"contracts/studentmanager/TuitionContract.sol\":2349:2355  status */\n      0x05\n      0x00\n        /* \"contracts/studentmanager/TuitionContract.sol\":2349:2369  status = Status.Open */\n      0x0100\n      exp\n      dup2\n      sload\n      dup2\n      0xff\n      mul\n      not\n      and\n      swap1\n      dup4\n      0x02\n      dup2\n      gt\n      iszero\n      tag_274\n      jumpi\n      tag_275\n      tag_107\n      jump\t// in\n    tag_275:\n    tag_274:\n      mul\n      or\n      swap1\n      sstore\n      pop\n        /* \"contracts/studentmanager/TuitionContract.sol\":2284:2377  function start() external override onlyOwner onlyLock {\r... */\n      jump\t// out\n        /* \"contracts/studentmanager/TuitionContract.sol\":548:601  mapping(address => uint256) public participantToIndex */\n    tag_88:\n      mstore(0x20, 0x09)\n      dup1\n      0x00\n      mstore\n      keccak256(0x00, 0x40)\n      0x00\n      swap2\n      pop\n      swap1\n      pop\n      sload\n      dup2\n      jump\t// out\n        /* \"contracts/studentmanager/TuitionContract.sol\":4437:4883  function getParticipantList() public view override returns (address[] memory) {\r... */\n    tag_91:\n        /* \"contracts/studentmanager/TuitionContract.sol\":4497:4513  address[] memory */\n      0x60\n        /* \"contracts/studentmanager/TuitionContract.sol\":4526:4550  address[] memory student */\n      0x00\n        /* \"contracts/studentmanager/TuitionContract.sol\":4567:4573  amount */\n      sload(0x08)\n        /* \"contracts/studentmanager/TuitionContract.sol\":4553:4574  new address[](amount) */\n      0xffffffffffffffff\n      dup2\n      gt\n      iszero\n      tag_277\n      jumpi\n      tag_278\n      tag_241\n      jump\t// in\n    tag_278:\n    tag_277:\n      mload(0x40)\n      swap1\n      dup1\n      dup3\n      mstore\n      dup1\n      0x20\n      mul\n      0x20\n      add\n      dup3\n      add\n      0x40\n      mstore\n      dup1\n      iszero\n      tag_279\n      jumpi\n      dup2\n      0x20\n      add\n      0x20\n      dup3\n      mul\n      dup1\n      calldatasize\n      dup4\n      calldatacopy\n      dup1\n      dup3\n      add\n      swap2\n      pop\n      pop\n      swap1\n      pop\n    tag_279:\n      pop\n        /* \"contracts/studentmanager/TuitionContract.sol\":4526:4574  address[] memory student = new address[](amount) */\n      swap1\n      pop\n        /* \"contracts/studentmanager/TuitionContract.sol\":4585:4598  uint256 index */\n      0x00\n        /* \"contracts/studentmanager/TuitionContract.sol\":4614:4623  uint256 i */\n      dup1\n        /* \"contracts/studentmanager/TuitionContract.sol\":4626:4627  0 */\n      0x00\n        /* \"contracts/studentmanager/TuitionContract.sol\":4614:4627  uint256 i = 0 */\n      swap1\n      pop\n        /* \"contracts/studentmanager/TuitionContract.sol\":4609:4851  for (uint256 i = 0; i < participants.length; i++) {\r... */\n    tag_280:\n        /* \"contracts/studentmanager/TuitionContract.sol\":4633:4645  participants */\n      0x07\n        /* \"contracts/studentmanager/TuitionContract.sol\":4633:4652  participants.length */\n      dup1\n      sload\n      swap1\n      pop\n        /* \"contracts/studentmanager/TuitionContract.sol\":4629:4630  i */\n      dup2\n        /* \"contracts/studentmanager/TuitionContract.sol\":4629:4652  i < participants.length */\n      lt\n        /* \"contracts/studentmanager/TuitionContract.sol\":4609:4851  for (uint256 i = 0; i < participants.length; i++) {\r... */\n      iszero\n      tag_281\n      jumpi\n        /* \"contracts/studentmanager/TuitionContract.sol\":4678:4695  participantToTrue */\n      0x0a\n        /* \"contracts/studentmanager/TuitionContract.sol\":4678:4712  participantToTrue[participants[i]] */\n      0x00\n        /* \"contracts/studentmanager/TuitionContract.sol\":4696:4708  participants */\n      0x07\n        /* \"contracts/studentmanager/TuitionContract.sol\":4709:4710  i */\n      dup4\n        /* \"contracts/studentmanager/TuitionContract.sol\":4696:4711  participants[i] */\n      dup2\n      sload\n      dup2\n      lt\n      tag_283\n      jumpi\n      tag_284\n      tag_119\n      jump\t// in\n    tag_284:\n    tag_283:\n      swap1\n      0x00\n      mstore\n      keccak256(0x00, 0x20)\n      add\n      0x00\n      swap1\n      sload\n      swap1\n      0x0100\n      exp\n      swap1\n      div\n      0xffffffffffffffffffffffffffffffffffffffff\n      and\n        /* \"contracts/studentmanager/TuitionContract.sol\":4678:4712  participantToTrue[participants[i]] */\n      0xffffffffffffffffffffffffffffffffffffffff\n      and\n      0xffffffffffffffffffffffffffffffffffffffff\n      and\n      dup2\n      mstore\n      0x20\n      add\n      swap1\n      dup2\n      mstore\n      0x20\n      add\n      0x00\n      keccak256\n      0x00\n      swap1\n      sload\n      swap1\n      0x0100\n      exp\n      swap1\n      div\n      0xff\n      and\n        /* \"contracts/studentmanager/TuitionContract.sol\":4678:4745  participantToTrue[participants[i]] && participants[i] != address(0) */\n      dup1\n      iszero\n      tag_286\n      jumpi\n      pop\n        /* \"contracts/studentmanager/TuitionContract.sol\":4743:4744  0 */\n      0x00\n        /* \"contracts/studentmanager/TuitionContract.sol\":4716:4745  participants[i] != address(0) */\n      0xffffffffffffffffffffffffffffffffffffffff\n      and\n        /* \"contracts/studentmanager/TuitionContract.sol\":4716:4728  participants */\n      0x07\n        /* \"contracts/studentmanager/TuitionContract.sol\":4729:4730  i */\n      dup3\n        /* \"contracts/studentmanager/TuitionContract.sol\":4716:4731  participants[i] */\n      dup2\n      sload\n      dup2\n      lt\n      tag_287\n      jumpi\n      tag_288\n      tag_119\n      jump\t// in\n    tag_288:\n    tag_287:\n      swap1\n      0x00\n      mstore\n      keccak256(0x00, 0x20)\n      add\n      0x00\n      swap1\n      sload\n      swap1\n      0x0100\n      exp\n      swap1\n      div\n      0xffffffffffffffffffffffffffffffffffffffff\n      and\n        /* \"contracts/studentmanager/TuitionContract.sol\":4716:4745  participants[i] != address(0) */\n      0xffffffffffffffffffffffffffffffffffffffff\n      and\n      eq\n      iszero\n        /* \"contracts/studentmanager/TuitionContract.sol\":4678:4745  participantToTrue[participants[i]] && participants[i] != address(0) */\n    tag_286:\n        /* \"contracts/studentmanager/TuitionContract.sol\":4674:4840  if (participantToTrue[participants[i]] && participants[i] != address(0)) {\r... */\n      iszero\n      tag_290\n      jumpi\n        /* \"contracts/studentmanager/TuitionContract.sol\":4783:4795  participants */\n      0x07\n        /* \"contracts/studentmanager/TuitionContract.sol\":4796:4797  i */\n      dup2\n        /* \"contracts/studentmanager/TuitionContract.sol\":4783:4798  participants[i] */\n      dup2\n      sload\n      dup2\n      lt\n      tag_291\n      jumpi\n      tag_292\n      tag_119\n      jump\t// in\n    tag_292:\n    tag_291:\n      swap1\n      0x00\n      mstore\n      keccak256(0x00, 0x20)\n      add\n      0x00\n      swap1\n      sload\n      swap1\n      0x0100\n      exp\n      swap1\n      div\n      0xffffffffffffffffffffffffffffffffffffffff\n      and\n        /* \"contracts/studentmanager/TuitionContract.sol\":4766:4773  student */\n      dup4\n        /* \"contracts/studentmanager/TuitionContract.sol\":4774:4779  index */\n      dup4\n        /* \"contracts/studentmanager/TuitionContract.sol\":4766:4780  student[index] */\n      dup2\n      mload\n      dup2\n      lt\n      tag_294\n      jumpi\n      tag_295\n      tag_119\n      jump\t// in\n    tag_295:\n    tag_294:\n      0x20\n      mul\n      0x20\n      add\n      add\n        /* \"contracts/studentmanager/TuitionContract.sol\":4766:4798  student[index] = participants[i] */\n      swap1\n      0xffffffffffffffffffffffffffffffffffffffff\n      and\n      swap1\n      dup2\n      0xffffffffffffffffffffffffffffffffffffffff\n      and\n      dup2\n      mstore\n      pop\n      pop\n        /* \"contracts/studentmanager/TuitionContract.sol\":4817:4824  index++ */\n      dup2\n      dup1\n      tag_296\n      swap1\n      tag_148\n      jump\t// in\n    tag_296:\n      swap3\n      pop\n      pop\n        /* \"contracts/studentmanager/TuitionContract.sol\":4674:4840  if (participantToTrue[participants[i]] && participants[i] != address(0)) {\r... */\n    tag_290:\n        /* \"contracts/studentmanager/TuitionContract.sol\":4654:4657  i++ */\n      dup1\n      dup1\n      tag_297\n      swap1\n      tag_148\n      jump\t// in\n    tag_297:\n      swap2\n      pop\n      pop\n        /* \"contracts/studentmanager/TuitionContract.sol\":4609:4851  for (uint256 i = 0; i < participants.length; i++) {\r... */\n      jump(tag_280)\n    tag_281:\n      pop\n        /* \"contracts/studentmanager/TuitionContract.sol\":4868:4875  student */\n      dup2\n        /* \"contracts/studentmanager/TuitionContract.sol\":4861:4875  return student */\n      swap3\n      pop\n      pop\n      pop\n        /* \"contracts/studentmanager/TuitionContract.sol\":4437:4883  function getParticipantList() public view override returns (address[] memory) {\r... */\n      swap1\n      jump\t// out\n        /* \"@openzeppelin/contracts/token/ERC20/utils/SafeERC20.sol\":912:1153  function safeTransferFrom(... */\n    tag_204:\n        /* \"@openzeppelin/contracts/token/ERC20/utils/SafeERC20.sol\":1050:1146  _callOptionalReturn(token, abi.encodeWithSelector(token.transferFrom.selector, from, to, value)) */\n      tag_299\n        /* \"@openzeppelin/contracts/token/ERC20/utils/SafeERC20.sol\":1070:1075  token */\n      dup5\n        /* \"@openzeppelin/contracts/token/ERC20/utils/SafeERC20.sol\":1100:1127  token.transferFrom.selector */\n      shl(0xe0, 0x23b872dd)\n        /* \"@openzeppelin/contracts/token/ERC20/utils/SafeERC20.sol\":1129:1133  from */\n      dup6\n        /* \"@openzeppelin/contracts/token/ERC20/utils/SafeERC20.sol\":1135:1137  to */\n      dup6\n        /* \"@openzeppelin/contracts/token/ERC20/utils/SafeERC20.sol\":1139:1144  value */\n      dup6\n        /* \"@openzeppelin/contracts/token/ERC20/utils/SafeERC20.sol\":1077:1145  abi.encodeWithSelector(token.transferFrom.selector, from, to, value) */\n      add(0x24, mload(0x40))\n      tag_300\n      swap4\n      swap3\n      swap2\n      swap1\n      tag_301\n      jump\t// in\n    tag_300:\n      mload(0x40)\n      0x20\n      dup2\n      dup4\n      sub\n      sub\n      dup2\n      mstore\n      swap1\n      0x40\n      mstore\n      swap1\n      not(0xffffffffffffffffffffffffffffffffffffffffffffffffffffffff)\n      and\n      0x20\n      dup3\n      add\n      dup1\n      mload\n      0xffffffffffffffffffffffffffffffffffffffffffffffffffffffff\n      dup4\n      dup2\n      dup4\n      and\n      or\n      dup4\n      mstore\n      pop\n      pop\n      pop\n      pop\n        /* \"@openzeppelin/contracts/token/ERC20/utils/SafeERC20.sol\":1050:1069  _callOptionalReturn */\n      tag_302\n        /* \"@openzeppelin/contracts/token/ERC20/utils/SafeERC20.sol\":1050:1146  _callOptionalReturn(token, abi.encodeWithSelector(token.transferFrom.selector, from, to, value)) */\n      jump\t// in\n    tag_299:\n        /* \"@openzeppelin/contracts/token/ERC20/utils/SafeERC20.sol\":912:1153  function safeTransferFrom(... */\n      pop\n      pop\n      pop\n      pop\n      jump\t// out\n        /* \"@openzeppelin/contracts/token/ERC20/utils/SafeERC20.sol\":3207:3913  function _callOptionalReturn(IERC20 token, bytes memory data) private {... */\n    tag_302:\n        /* \"@openzeppelin/contracts/token/ERC20/utils/SafeERC20.sol\":3626:3649  bytes memory returndata */\n      0x00\n        /* \"@openzeppelin/contracts/token/ERC20/utils/SafeERC20.sol\":3652:3721  address(token).functionCall(data, \"SafeERC20: low-level call failed\") */\n      tag_304\n        /* \"@openzeppelin/contracts/token/ERC20/utils/SafeERC20.sol\":3680:3684  data */\n      dup3\n        /* \"@openzeppelin/contracts/token/ERC20/utils/SafeERC20.sol\":3652:3721  address(token).functionCall(data, \"SafeERC20: low-level call failed\") */\n      mload(0x40)\n      dup1\n      0x40\n      add\n      0x40\n      mstore\n      dup1\n      0x20\n      dup2\n      mstore\n      0x20\n      add\n      0x5361666545524332303a206c6f772d6c6576656c2063616c6c206661696c6564\n      dup2\n      mstore\n      pop\n        /* \"@openzeppelin/contracts/token/ERC20/utils/SafeERC20.sol\":3660:3665  token */\n      dup6\n        /* \"@openzeppelin/contracts/token/ERC20/utils/SafeERC20.sol\":3652:3679  address(token).functionCall */\n      0xffffffffffffffffffffffffffffffffffffffff\n      and\n      tag_305\n      swap1\n        /* \"@openzeppelin/contracts/token/ERC20/utils/SafeERC20.sol\":3652:3721  address(token).functionCall(data, \"SafeERC20: low-level call failed\") */\n      swap3\n      swap2\n      swap1\n      0xffffffff\n      and\n      jump\t// in\n    tag_304:\n        /* \"@openzeppelin/contracts/token/ERC20/utils/SafeERC20.sol\":3626:3721  bytes memory returndata = address(token).functionCall(data, \"SafeERC20: low-level call failed\") */\n      swap1\n      pop\n        /* \"@openzeppelin/contracts/token/ERC20/utils/SafeERC20.sol\":3755:3756  0 */\n      0x00\n        /* \"@openzeppelin/contracts/token/ERC20/utils/SafeERC20.sol\":3735:3745  returndata */\n      dup2\n        /* \"@openzeppelin/contracts/token/ERC20/utils/SafeERC20.sol\":3735:3752  returndata.length */\n      mload\n        /* \"@openzeppelin/contracts/token/ERC20/utils/SafeERC20.sol\":3735:3756  returndata.length > 0 */\n      gt\n        /* \"@openzeppelin/contracts/token/ERC20/utils/SafeERC20.sol\":3731:3907  if (returndata.length > 0) {... */\n      iszero\n      tag_306\n      jumpi\n        /* \"@openzeppelin/contracts/token/ERC20/utils/SafeERC20.sol\":3830:3840  returndata */\n      dup1\n        /* \"@openzeppelin/contracts/token/ERC20/utils/SafeERC20.sol\":3819:3849  abi.decode(returndata, (bool)) */\n      dup1\n      0x20\n      add\n      swap1\n      mload\n      dup2\n      add\n      swap1\n      tag_307\n      swap2\n      swap1\n      tag_100\n      jump\t// in\n    tag_307:\n        /* \"@openzeppelin/contracts/token/ERC20/utils/SafeERC20.sol\":3811:3896  require(abi.decode(returndata, (bool)), \"SafeERC20: ERC20 operation did not succeed\") */\n      tag_308\n      jumpi\n      mload(0x40)\n      0x08c379a000000000000000000000000000000000000000000000000000000000\n      dup2\n      mstore\n      0x04\n      add\n      tag_309\n      swap1\n      tag_310\n      jump\t// in\n    tag_309:\n      mload(0x40)\n      dup1\n      swap2\n      sub\n      swap1\n      revert\n    tag_308:\n        /* \"@openzeppelin/contracts/token/ERC20/utils/SafeERC20.sol\":3731:3907  if (returndata.length > 0) {... */\n    tag_306:\n        /* \"@openzeppelin/contracts/token/ERC20/utils/SafeERC20.sol\":3277:3913  {... */\n      pop\n        /* \"@openzeppelin/contracts/token/ERC20/utils/SafeERC20.sol\":3207:3913  function _callOptionalReturn(IERC20 token, bytes memory data) private {... */\n      pop\n      pop\n      jump\t// out\n        /* \"@openzeppelin/contracts/utils/Address.sol\":3861:4084  function functionCall(... */\n    tag_305:\n        /* \"@openzeppelin/contracts/utils/Address.sol\":3994:4006  bytes memory */\n      0x60\n        /* \"@openzeppelin/contracts/utils/Address.sol\":4025:4077  functionCallWithValue(target, data, 0, errorMessage) */\n      tag_312\n        /* \"@openzeppelin/contracts/utils/Address.sol\":4047:4053  target */\n      dup5\n        /* \"@openzeppelin/contracts/utils/Address.sol\":4055:4059  data */\n      dup5\n        /* \"@openzeppelin/contracts/utils/Address.sol\":4061:4062  0 */\n      0x00\n        /* \"@openzeppelin/contracts/utils/Address.sol\":4064:4076  errorMessage */\n      dup6\n        /* \"@openzeppelin/contracts/utils/Address.sol\":4025:4046  functionCallWithValue */\n      tag_313\n        /* \"@openzeppelin/contracts/utils/Address.sol\":4025:4077  functionCallWithValue(target, data, 0, errorMessage) */\n      jump\t// in\n    tag_312:\n        /* \"@openzeppelin/contracts/utils/Address.sol\":4018:4077  return functionCallWithValue(target, data, 0, errorMessage) */\n      swap1\n      pop\n        /* \"@openzeppelin/contracts/utils/Address.sol\":3861:4084  function functionCall(... */\n      swap4\n      swap3\n      pop\n      pop\n      pop\n      jump\t// out\n        /* \"@openzeppelin/contracts/utils/Address.sol\":4948:5447  function functionCallWithValue(... */\n    tag_313:\n        /* \"@openzeppelin/contracts/utils/Address.sol\":5113:5125  bytes memory */\n      0x60\n        /* \"@openzeppelin/contracts/utils/Address.sol\":5170:5175  value */\n      dup3\n        /* \"@openzeppelin/contracts/utils/Address.sol\":5145:5166  address(this).balance */\n      selfbalance\n        /* \"@openzeppelin/contracts/utils/Address.sol\":5145:5175  address(this).balance >= value */\n      lt\n      iszero\n        /* \"@openzeppelin/contracts/utils/Address.sol\":5137:5218  require(address(this).balance >= value, \"Address: insufficient balance for call\") */\n      tag_315\n      jumpi\n      mload(0x40)\n      0x08c379a000000000000000000000000000000000000000000000000000000000\n      dup2\n      mstore\n      0x04\n      add\n      tag_316\n      swap1\n      tag_317\n      jump\t// in\n    tag_316:\n      mload(0x40)\n      dup1\n      swap2\n      sub\n      swap1\n      revert\n    tag_315:\n        /* \"@openzeppelin/contracts/utils/Address.sol\":5236:5254  isContract(target) */\n      tag_318\n        /* \"@openzeppelin/contracts/utils/Address.sol\":5247:5253  target */\n      dup6\n        /* \"@openzeppelin/contracts/utils/Address.sol\":5236:5246  isContract */\n      tag_319\n        /* \"@openzeppelin/contracts/utils/Address.sol\":5236:5254  isContract(target) */\n      jump\t// in\n    tag_318:\n        /* \"@openzeppelin/contracts/utils/Address.sol\":5228:5288  require(isContract(target), \"Address: call to non-contract\") */\n      tag_320\n      jumpi\n      mload(0x40)\n      0x08c379a000000000000000000000000000000000000000000000000000000000\n      dup2\n      mstore\n      0x04\n      add\n      tag_321\n      swap1\n      tag_322\n      jump\t// in\n    tag_321:\n      mload(0x40)\n      dup1\n      swap2\n      sub\n      swap1\n      revert\n    tag_320:\n        /* \"@openzeppelin/contracts/utils/Address.sol\":5300:5312  bool success */\n      0x00\n        /* \"@openzeppelin/contracts/utils/Address.sol\":5314:5337  bytes memory returndata */\n      dup1\n        /* \"@openzeppelin/contracts/utils/Address.sol\":5341:5347  target */\n      dup7\n        /* \"@openzeppelin/contracts/utils/Address.sol\":5341:5352  target.call */\n      0xffffffffffffffffffffffffffffffffffffffff\n      and\n        /* \"@openzeppelin/contracts/utils/Address.sol\":5360:5365  value */\n      dup6\n        /* \"@openzeppelin/contracts/utils/Address.sol\":5367:5371  data */\n      dup8\n        /* \"@openzeppelin/contracts/utils/Address.sol\":5341:5372  target.call{value: value}(data) */\n      mload(0x40)\n      tag_323\n      swap2\n      swap1\n      tag_324\n      jump\t// in\n    tag_323:\n      0x00\n      mload(0x40)\n      dup1\n      dup4\n      sub\n      dup2\n      dup6\n      dup8\n      gas\n      call\n      swap3\n      pop\n      pop\n      pop\n      returndatasize\n      dup1\n      0x00\n      dup2\n      eq\n      tag_327\n      jumpi\n      mload(0x40)\n      swap2\n      pop\n      and(add(returndatasize, 0x3f), not(0x1f))\n      dup3\n      add\n      0x40\n      mstore\n      returndatasize\n      dup3\n      mstore\n      returndatasize\n      0x00\n      0x20\n      dup5\n      add\n      returndatacopy\n      jump(tag_326)\n    tag_327:\n      0x60\n      swap2\n      pop\n    tag_326:\n      pop\n        /* \"@openzeppelin/contracts/utils/Address.sol\":5299:5372  (bool success, bytes memory returndata) = target.call{value: value}(data) */\n      swap2\n      pop\n      swap2\n      pop\n        /* \"@openzeppelin/contracts/utils/Address.sol\":5389:5440  verifyCallResult(success, returndata, errorMessage) */\n      tag_328\n        /* \"@openzeppelin/contracts/utils/Address.sol\":5406:5413  success */\n      dup3\n        /* \"@openzeppelin/contracts/utils/Address.sol\":5415:5425  returndata */\n      dup3\n        /* \"@openzeppelin/contracts/utils/Address.sol\":5427:5439  errorMessage */\n      dup7\n        /* \"@openzeppelin/contracts/utils/Address.sol\":5389:5405  verifyCallResult */\n      tag_329\n        /* \"@openzeppelin/contracts/utils/Address.sol\":5389:5440  verifyCallResult(success, returndata, errorMessage) */\n      jump\t// in\n    tag_328:\n        /* \"@openzeppelin/contracts/utils/Address.sol\":5382:5440  return verifyCallResult(success, returndata, errorMessage) */\n      swap3\n      pop\n      pop\n      pop\n        /* \"@openzeppelin/contracts/utils/Address.sol\":4948:5447  function functionCallWithValue(... */\n      swap5\n      swap4\n      pop\n      pop\n      pop\n      pop\n      jump\t// out\n        /* \"@openzeppelin/contracts/utils/Address.sol\":1175:1495  function isContract(address account) internal view returns (bool) {... */\n    tag_319:\n        /* \"@openzeppelin/contracts/utils/Address.sol\":1235:1239  bool */\n      0x00\n        /* \"@openzeppelin/contracts/utils/Address.sol\":1487:1488  0 */\n      dup1\n        /* \"@openzeppelin/contracts/utils/Address.sol\":1465:1472  account */\n      dup3\n        /* \"@openzeppelin/contracts/utils/Address.sol\":1465:1484  account.code.length */\n      0xffffffffffffffffffffffffffffffffffffffff\n      and\n      extcodesize\n        /* \"@openzeppelin/contracts/utils/Address.sol\":1465:1488  account.code.length > 0 */\n      gt\n        /* \"@openzeppelin/contracts/utils/Address.sol\":1458:1488  return account.code.length > 0 */\n      swap1\n      pop\n        /* \"@openzeppelin/contracts/utils/Address.sol\":1175:1495  function isContract(address account) internal view returns (bool) {... */\n      swap2\n      swap1\n      pop\n      jump\t// out\n        /* \"@openzeppelin/contracts/utils/Address.sol\":7561:8253  function verifyCallResult(... */\n    tag_329:\n        /* \"@openzeppelin/contracts/utils/Address.sol\":7707:7719  bytes memory */\n      0x60\n        /* \"@openzeppelin/contracts/utils/Address.sol\":7735:7742  success */\n      dup4\n        /* \"@openzeppelin/contracts/utils/Address.sol\":7731:8247  if (success) {... */\n      iszero\n      tag_332\n      jumpi\n        /* \"@openzeppelin/contracts/utils/Address.sol\":7765:7775  returndata */\n      dup3\n        /* \"@openzeppelin/contracts/utils/Address.sol\":7758:7775  return returndata */\n      swap1\n      pop\n      jump(tag_331)\n        /* \"@openzeppelin/contracts/utils/Address.sol\":7731:8247  if (success) {... */\n    tag_332:\n        /* \"@openzeppelin/contracts/utils/Address.sol\":7896:7897  0 */\n      0x00\n        /* \"@openzeppelin/contracts/utils/Address.sol\":7876:7886  returndata */\n      dup4\n        /* \"@openzeppelin/contracts/utils/Address.sol\":7876:7893  returndata.length */\n      mload\n        /* \"@openzeppelin/contracts/utils/Address.sol\":7876:7897  returndata.length > 0 */\n      gt\n        /* \"@openzeppelin/contracts/utils/Address.sol\":7872:8237  if (returndata.length > 0) {... */\n      iszero\n      tag_334\n      jumpi\n        /* \"@openzeppelin/contracts/utils/Address.sol\":8070:8080  returndata */\n      dup3\n        /* \"@openzeppelin/contracts/utils/Address.sol\":8064:8081  mload(returndata) */\n      mload\n        /* \"@openzeppelin/contracts/utils/Address.sol\":8130:8145  returndata_size */\n      dup1\n        /* \"@openzeppelin/contracts/utils/Address.sol\":8117:8127  returndata */\n      dup5\n        /* \"@openzeppelin/contracts/utils/Address.sol\":8113:8115  32 */\n      0x20\n        /* \"@openzeppelin/contracts/utils/Address.sol\":8109:8128  add(32, returndata) */\n      add\n        /* \"@openzeppelin/contracts/utils/Address.sol\":8102:8146  revert(add(32, returndata), returndata_size) */\n      revert\n        /* \"@openzeppelin/contracts/utils/Address.sol\":7872:8237  if (returndata.length > 0) {... */\n    tag_334:\n        /* \"@openzeppelin/contracts/utils/Address.sol\":8209:8221  errorMessage */\n      dup2\n        /* \"@openzeppelin/contracts/utils/Address.sol\":8202:8222  revert(errorMessage) */\n      mload(0x40)\n      0x08c379a000000000000000000000000000000000000000000000000000000000\n      dup2\n      mstore\n      0x04\n      add\n      tag_336\n      swap2\n      swap1\n      tag_337\n      jump\t// in\n    tag_336:\n      mload(0x40)\n      dup1\n      swap2\n      sub\n      swap1\n      revert\n        /* \"@openzeppelin/contracts/utils/Address.sol\":7561:8253  function verifyCallResult(... */\n    tag_331:\n      swap4\n      swap3\n      pop\n      pop\n      pop\n      jump\t// out\n    tag_171:\n      dup3\n      dup1\n      sload\n      tag_338\n      swap1\n      tag_258\n      jump\t// in\n    tag_338:\n      swap1\n      0x00\n      mstore\n      keccak256(0x00, 0x20)\n      swap1\n      0x1f\n      add\n      0x20\n      swap1\n      div\n      dup2\n      add\n      swap3\n      dup3\n      tag_340\n      jumpi\n      0x00\n      dup6\n      sstore\n      jump(tag_339)\n    tag_340:\n      dup3\n      0x1f\n      lt\n      tag_341\n      jumpi\n      dup1\n      mload\n      not(0xff)\n      and\n      dup4\n      dup1\n      add\n      or\n      dup6\n      sstore\n      jump(tag_339)\n    tag_341:\n      dup3\n      dup1\n      add\n      0x01\n      add\n      dup6\n      sstore\n      dup3\n      iszero\n      tag_339\n      jumpi\n      swap2\n      dup3\n      add\n    tag_342:\n      dup3\n      dup2\n      gt\n      iszero\n      tag_343\n      jumpi\n      dup3\n      mload\n      dup3\n      sstore\n      swap2\n      0x20\n      add\n      swap2\n      swap1\n      0x01\n      add\n      swap1\n      jump(tag_342)\n    tag_343:\n    tag_339:\n      pop\n      swap1\n      pop\n      tag_344\n      swap2\n      swap1\n      tag_345\n      jump\t// in\n    tag_344:\n      pop\n      swap1\n      jump\t// out\n    tag_345:\n    tag_346:\n      dup1\n      dup3\n      gt\n      iszero\n      tag_347\n      jumpi\n      0x00\n      dup2\n      0x00\n      swap1\n      sstore\n      pop\n      0x01\n      add\n      jump(tag_346)\n    tag_347:\n      pop\n      swap1\n      jump\t// out\n        /* \"#utility.yul\":7:419   */\n    tag_349:\n        /* \"#utility.yul\":85:90   */\n      0x00\n        /* \"#utility.yul\":110:176   */\n      tag_351\n        /* \"#utility.yul\":126:175   */\n      tag_352\n        /* \"#utility.yul\":168:174   */\n      dup5\n        /* \"#utility.yul\":126:175   */\n      tag_353\n      jump\t// in\n    tag_352:\n        /* \"#utility.yul\":110:176   */\n      tag_354\n      jump\t// in\n    tag_351:\n        /* \"#utility.yul\":101:176   */\n      swap1\n      pop\n        /* \"#utility.yul\":199:205   */\n      dup3\n        /* \"#utility.yul\":192:197   */\n      dup2\n        /* \"#utility.yul\":185:206   */\n      mstore\n        /* \"#utility.yul\":237:241   */\n      0x20\n        /* \"#utility.yul\":230:235   */\n      dup2\n        /* \"#utility.yul\":226:242   */\n      add\n        /* \"#utility.yul\":275:278   */\n      dup5\n        /* \"#utility.yul\":266:272   */\n      dup5\n        /* \"#utility.yul\":261:264   */\n      dup5\n        /* \"#utility.yul\":257:273   */\n      add\n        /* \"#utility.yul\":254:279   */\n      gt\n        /* \"#utility.yul\":251:363   */\n      iszero\n      tag_355\n      jumpi\n        /* \"#utility.yul\":282:361   */\n      tag_356\n      tag_357\n      jump\t// in\n    tag_356:\n        /* \"#utility.yul\":251:363   */\n    tag_355:\n        /* \"#utility.yul\":372:413   */\n      tag_358\n        /* \"#utility.yul\":406:412   */\n      dup5\n        /* \"#utility.yul\":401:404   */\n      dup3\n        /* \"#utility.yul\":396:399   */\n      dup6\n        /* \"#utility.yul\":372:413   */\n      tag_359\n      jump\t// in\n    tag_358:\n        /* \"#utility.yul\":91:419   */\n      pop\n        /* \"#utility.yul\":7:419   */\n      swap4\n      swap3\n      pop\n      pop\n      pop\n      jump\t// out\n        /* \"#utility.yul\":425:564   */\n    tag_360:\n        /* \"#utility.yul\":471:476   */\n      0x00\n        /* \"#utility.yul\":509:515   */\n      dup2\n        /* \"#utility.yul\":496:516   */\n      calldataload\n        /* \"#utility.yul\":487:516   */\n      swap1\n      pop\n        /* \"#utility.yul\":525:558   */\n      tag_362\n        /* \"#utility.yul\":552:557   */\n      dup2\n        /* \"#utility.yul\":525:558   */\n      tag_363\n      jump\t// in\n    tag_362:\n        /* \"#utility.yul\":425:564   */\n      swap3\n      swap2\n      pop\n      pop\n      jump\t// out\n        /* \"#utility.yul\":570:713   */\n    tag_364:\n        /* \"#utility.yul\":627:632   */\n      0x00\n        /* \"#utility.yul\":658:664   */\n      dup2\n        /* \"#utility.yul\":652:665   */\n      mload\n        /* \"#utility.yul\":643:665   */\n      swap1\n      pop\n        /* \"#utility.yul\":674:707   */\n      tag_366\n        /* \"#utility.yul\":701:706   */\n      dup2\n        /* \"#utility.yul\":674:707   */\n      tag_363\n      jump\t// in\n    tag_366:\n        /* \"#utility.yul\":570:713   */\n      swap3\n      swap2\n      pop\n      pop\n      jump\t// out\n        /* \"#utility.yul\":736:1304   */\n    tag_367:\n        /* \"#utility.yul\":809:817   */\n      0x00\n        /* \"#utility.yul\":819:825   */\n      dup1\n        /* \"#utility.yul\":869:872   */\n      dup4\n        /* \"#utility.yul\":862:866   */\n      0x1f\n        /* \"#utility.yul\":854:860   */\n      dup5\n        /* \"#utility.yul\":850:867   */\n      add\n        /* \"#utility.yul\":846:873   */\n      slt\n        /* \"#utility.yul\":836:958   */\n      tag_369\n      jumpi\n        /* \"#utility.yul\":877:956   */\n      tag_370\n      tag_371\n      jump\t// in\n    tag_370:\n        /* \"#utility.yul\":836:958   */\n    tag_369:\n        /* \"#utility.yul\":990:996   */\n      dup3\n        /* \"#utility.yul\":977:997   */\n      calldataload\n        /* \"#utility.yul\":967:997   */\n      swap1\n      pop\n        /* \"#utility.yul\":1020:1038   */\n      0xffffffffffffffff\n        /* \"#utility.yul\":1012:1018   */\n      dup2\n        /* \"#utility.yul\":1009:1039   */\n      gt\n        /* \"#utility.yul\":1006:1123   */\n      iszero\n      tag_372\n      jumpi\n        /* \"#utility.yul\":1042:1121   */\n      tag_373\n      tag_374\n      jump\t// in\n    tag_373:\n        /* \"#utility.yul\":1006:1123   */\n    tag_372:\n        /* \"#utility.yul\":1156:1160   */\n      0x20\n        /* \"#utility.yul\":1148:1154   */\n      dup4\n        /* \"#utility.yul\":1144:1161   */\n      add\n        /* \"#utility.yul\":1132:1161   */\n      swap2\n      pop\n        /* \"#utility.yul\":1210:1213   */\n      dup4\n        /* \"#utility.yul\":1202:1206   */\n      0x20\n        /* \"#utility.yul\":1194:1200   */\n      dup3\n        /* \"#utility.yul\":1190:1207   */\n      mul\n        /* \"#utility.yul\":1180:1188   */\n      dup4\n        /* \"#utility.yul\":1176:1208   */\n      add\n        /* \"#utility.yul\":1173:1214   */\n      gt\n        /* \"#utility.yul\":1170:1298   */\n      iszero\n      tag_375\n      jumpi\n        /* \"#utility.yul\":1217:1296   */\n      tag_376\n      tag_377\n      jump\t// in\n    tag_376:\n        /* \"#utility.yul\":1170:1298   */\n    tag_375:\n        /* \"#utility.yul\":736:1304   */\n      swap3\n      pop\n      swap3\n      swap1\n      pop\n      jump\t// out\n        /* \"#utility.yul\":1310:1447   */\n    tag_378:\n        /* \"#utility.yul\":1364:1369   */\n      0x00\n        /* \"#utility.yul\":1395:1401   */\n      dup2\n        /* \"#utility.yul\":1389:1402   */\n      mload\n        /* \"#utility.yul\":1380:1402   */\n      swap1\n      pop\n        /* \"#utility.yul\":1411:1441   */\n      tag_380\n        /* \"#utility.yul\":1435:1440   */\n      dup2\n        /* \"#utility.yul\":1411:1441   */\n      tag_381\n      jump\t// in\n    tag_380:\n        /* \"#utility.yul\":1310:1447   */\n      swap3\n      swap2\n      pop\n      pop\n      jump\t// out\n        /* \"#utility.yul\":1467:1807   */\n    tag_382:\n        /* \"#utility.yul\":1523:1528   */\n      0x00\n        /* \"#utility.yul\":1572:1575   */\n      dup3\n        /* \"#utility.yul\":1565:1569   */\n      0x1f\n        /* \"#utility.yul\":1557:1563   */\n      dup4\n        /* \"#utility.yul\":1553:1570   */\n      add\n        /* \"#utility.yul\":1549:1576   */\n      slt\n        /* \"#utility.yul\":1539:1661   */\n      tag_384\n      jumpi\n        /* \"#utility.yul\":1580:1659   */\n      tag_385\n      tag_371\n      jump\t// in\n    tag_385:\n        /* \"#utility.yul\":1539:1661   */\n    tag_384:\n        /* \"#utility.yul\":1697:1703   */\n      dup2\n        /* \"#utility.yul\":1684:1704   */\n      calldataload\n        /* \"#utility.yul\":1722:1801   */\n      tag_386\n        /* \"#utility.yul\":1797:1800   */\n      dup5\n        /* \"#utility.yul\":1789:1795   */\n      dup3\n        /* \"#utility.yul\":1782:1786   */\n      0x20\n        /* \"#utility.yul\":1774:1780   */\n      dup7\n        /* \"#utility.yul\":1770:1787   */\n      add\n        /* \"#utility.yul\":1722:1801   */\n      tag_349\n      jump\t// in\n    tag_386:\n        /* \"#utility.yul\":1713:1801   */\n      swap2\n      pop\n        /* \"#utility.yul\":1529:1807   */\n      pop\n        /* \"#utility.yul\":1467:1807   */\n      swap3\n      swap2\n      pop\n      pop\n      jump\t// out\n        /* \"#utility.yul\":1813:1952   */\n    tag_387:\n        /* \"#utility.yul\":1859:1864   */\n      0x00\n        /* \"#utility.yul\":1897:1903   */\n      dup2\n        /* \"#utility.yul\":1884:1904   */\n      calldataload\n        /* \"#utility.yul\":1875:1904   */\n      swap1\n      pop\n        /* \"#utility.yul\":1913:1946   */\n      tag_389\n        /* \"#utility.yul\":1940:1945   */\n      dup2\n        /* \"#utility.yul\":1913:1946   */\n      tag_390\n      jump\t// in\n    tag_389:\n        /* \"#utility.yul\":1813:1952   */\n      swap3\n      swap2\n      pop\n      pop\n      jump\t// out\n        /* \"#utility.yul\":1958:2287   */\n    tag_49:\n        /* \"#utility.yul\":2017:2023   */\n      0x00\n        /* \"#utility.yul\":2066:2068   */\n      0x20\n        /* \"#utility.yul\":2054:2063   */\n      dup3\n        /* \"#utility.yul\":2045:2052   */\n      dup5\n        /* \"#utility.yul\":2041:2064   */\n      sub\n        /* \"#utility.yul\":2037:2069   */\n      slt\n        /* \"#utility.yul\":2034:2153   */\n      iszero\n      tag_392\n      jumpi\n        /* \"#utility.yul\":2072:2151   */\n      tag_393\n      tag_394\n      jump\t// in\n    tag_393:\n        /* \"#utility.yul\":2034:2153   */\n    tag_392:\n        /* \"#utility.yul\":2192:2193   */\n      0x00\n        /* \"#utility.yul\":2217:2270   */\n      tag_395\n        /* \"#utility.yul\":2262:2269   */\n      dup5\n        /* \"#utility.yul\":2253:2259   */\n      dup3\n        /* \"#utility.yul\":2242:2251   */\n      dup6\n        /* \"#utility.yul\":2238:2260   */\n      add\n        /* \"#utility.yul\":2217:2270   */\n      tag_360\n      jump\t// in\n    tag_395:\n        /* \"#utility.yul\":2207:2270   */\n      swap2\n      pop\n        /* \"#utility.yul\":2163:2280   */\n      pop\n        /* \"#utility.yul\":1958:2287   */\n      swap3\n      swap2\n      pop\n      pop\n      jump\t// out\n        /* \"#utility.yul\":2293:2644   */\n    tag_202:\n        /* \"#utility.yul\":2363:2369   */\n      0x00\n        /* \"#utility.yul\":2412:2414   */\n      0x20\n        /* \"#utility.yul\":2400:2409   */\n      dup3\n        /* \"#utility.yul\":2391:2398   */\n      dup5\n        /* \"#utility.yul\":2387:2410   */\n      sub\n        /* \"#utility.yul\":2383:2415   */\n      slt\n        /* \"#utility.yul\":2380:2499   */\n      iszero\n      tag_397\n      jumpi\n        /* \"#utility.yul\":2418:2497   */\n      tag_398\n      tag_394\n      jump\t// in\n    tag_398:\n        /* \"#utility.yul\":2380:2499   */\n    tag_397:\n        /* \"#utility.yul\":2538:2539   */\n      0x00\n        /* \"#utility.yul\":2563:2627   */\n      tag_399\n        /* \"#utility.yul\":2619:2626   */\n      dup5\n        /* \"#utility.yul\":2610:2616   */\n      dup3\n        /* \"#utility.yul\":2599:2608   */\n      dup6\n        /* \"#utility.yul\":2595:2617   */\n      add\n        /* \"#utility.yul\":2563:2627   */\n      tag_364\n      jump\t// in\n    tag_399:\n        /* \"#utility.yul\":2553:2627   */\n      swap2\n      pop\n        /* \"#utility.yul\":2509:2637   */\n      pop\n        /* \"#utility.yul\":2293:2644   */\n      swap3\n      swap2\n      pop\n      pop\n      jump\t// out\n        /* \"#utility.yul\":2650:3209   */\n    tag_27:\n        /* \"#utility.yul\":2736:2742   */\n      0x00\n        /* \"#utility.yul\":2744:2750   */\n      dup1\n        /* \"#utility.yul\":2793:2795   */\n      0x20\n        /* \"#utility.yul\":2781:2790   */\n      dup4\n        /* \"#utility.yul\":2772:2779   */\n      dup6\n        /* \"#utility.yul\":2768:2791   */\n      sub\n        /* \"#utility.yul\":2764:2796   */\n      slt\n        /* \"#utility.yul\":2761:2880   */\n      iszero\n      tag_401\n      jumpi\n        /* \"#utility.yul\":2799:2878   */\n      tag_402\n      tag_394\n      jump\t// in\n    tag_402:\n        /* \"#utility.yul\":2761:2880   */\n    tag_401:\n        /* \"#utility.yul\":2947:2948   */\n      0x00\n        /* \"#utility.yul\":2936:2945   */\n      dup4\n        /* \"#utility.yul\":2932:2949   */\n      add\n        /* \"#utility.yul\":2919:2950   */\n      calldataload\n        /* \"#utility.yul\":2977:2995   */\n      0xffffffffffffffff\n        /* \"#utility.yul\":2969:2975   */\n      dup2\n        /* \"#utility.yul\":2966:2996   */\n      gt\n        /* \"#utility.yul\":2963:3080   */\n      iszero\n      tag_403\n      jumpi\n        /* \"#utility.yul\":2999:3078   */\n      tag_404\n      tag_405\n      jump\t// in\n    tag_404:\n        /* \"#utility.yul\":2963:3080   */\n    tag_403:\n        /* \"#utility.yul\":3112:3192   */\n      tag_406\n        /* \"#utility.yul\":3184:3191   */\n      dup6\n        /* \"#utility.yul\":3175:3181   */\n      dup3\n        /* \"#utility.yul\":3164:3173   */\n      dup7\n        /* \"#utility.yul\":3160:3182   */\n      add\n        /* \"#utility.yul\":3112:3192   */\n      tag_367\n      jump\t// in\n    tag_406:\n        /* \"#utility.yul\":3094:3192   */\n      swap3\n      pop\n      swap3\n      pop\n        /* \"#utility.yul\":2890:3202   */\n      pop\n        /* \"#utility.yul\":2650:3209   */\n      swap3\n      pop\n      swap3\n      swap1\n      pop\n      jump\t// out\n        /* \"#utility.yul\":3215:3560   */\n    tag_100:\n        /* \"#utility.yul\":3282:3288   */\n      0x00\n        /* \"#utility.yul\":3331:3333   */\n      0x20\n        /* \"#utility.yul\":3319:3328   */\n      dup3\n        /* \"#utility.yul\":3310:3317   */\n      dup5\n        /* \"#utility.yul\":3306:3329   */\n      sub\n        /* \"#utility.yul\":3302:3334   */\n      slt\n        /* \"#utility.yul\":3299:3418   */\n      iszero\n      tag_408\n      jumpi\n        /* \"#utility.yul\":3337:3416   */\n      tag_409\n      tag_394\n      jump\t// in\n    tag_409:\n        /* \"#utility.yul\":3299:3418   */\n    tag_408:\n        /* \"#utility.yul\":3457:3458   */\n      0x00\n        /* \"#utility.yul\":3482:3543   */\n      tag_410\n        /* \"#utility.yul\":3535:3542   */\n      dup5\n        /* \"#utility.yul\":3526:3532   */\n      dup3\n        /* \"#utility.yul\":3515:3524   */\n      dup6\n        /* \"#utility.yul\":3511:3533   */\n      add\n        /* \"#utility.yul\":3482:3543   */\n      tag_378\n      jump\t// in\n    tag_410:\n        /* \"#utility.yul\":3472:3543   */\n      swap2\n      pop\n        /* \"#utility.yul\":3428:3553   */\n      pop\n        /* \"#utility.yul\":3215:3560   */\n      swap3\n      swap2\n      pop\n      pop\n      jump\t// out\n        /* \"#utility.yul\":3566:3895   */\n    tag_39:\n        /* \"#utility.yul\":3625:3631   */\n      0x00\n        /* \"#utility.yul\":3674:3676   */\n      0x20\n        /* \"#utility.yul\":3662:3671   */\n      dup3\n        /* \"#utility.yul\":3653:3660   */\n      dup5\n        /* \"#utility.yul\":3649:3672   */\n      sub\n        /* \"#utility.yul\":3645:3677   */\n      slt\n        /* \"#utility.yul\":3642:3761   */\n      iszero\n      tag_412\n      jumpi\n        /* \"#utility.yul\":3680:3759   */\n      tag_413\n      tag_394\n      jump\t// in\n    tag_413:\n        /* \"#utility.yul\":3642:3761   */\n    tag_412:\n        /* \"#utility.yul\":3800:3801   */\n      0x00\n        /* \"#utility.yul\":3825:3878   */\n      tag_414\n        /* \"#utility.yul\":3870:3877   */\n      dup5\n        /* \"#utility.yul\":3861:3867   */\n      dup3\n        /* \"#utility.yul\":3850:3859   */\n      dup6\n        /* \"#utility.yul\":3846:3868   */\n      add\n        /* \"#utility.yul\":3825:3878   */\n      tag_387\n      jump\t// in\n    tag_414:\n        /* \"#utility.yul\":3815:3878   */\n      swap2\n      pop\n        /* \"#utility.yul\":3771:3888   */\n      pop\n        /* \"#utility.yul\":3566:3895   */\n      swap3\n      swap2\n      pop\n      pop\n      jump\t// out\n        /* \"#utility.yul\":3901:4992   */\n    tag_31:\n        /* \"#utility.yul\":4006:4012   */\n      0x00\n        /* \"#utility.yul\":4014:4020   */\n      dup1\n        /* \"#utility.yul\":4022:4028   */\n      0x00\n        /* \"#utility.yul\":4030:4036   */\n      dup1\n        /* \"#utility.yul\":4038:4044   */\n      0x00\n        /* \"#utility.yul\":4087:4090   */\n      0xa0\n        /* \"#utility.yul\":4075:4084   */\n      dup7\n        /* \"#utility.yul\":4066:4073   */\n      dup9\n        /* \"#utility.yul\":4062:4085   */\n      sub\n        /* \"#utility.yul\":4058:4091   */\n      slt\n        /* \"#utility.yul\":4055:4175   */\n      iszero\n      tag_416\n      jumpi\n        /* \"#utility.yul\":4094:4173   */\n      tag_417\n      tag_394\n      jump\t// in\n    tag_417:\n        /* \"#utility.yul\":4055:4175   */\n    tag_416:\n        /* \"#utility.yul\":4214:4215   */\n      0x00\n        /* \"#utility.yul\":4239:4292   */\n      tag_418\n        /* \"#utility.yul\":4284:4291   */\n      dup9\n        /* \"#utility.yul\":4275:4281   */\n      dup3\n        /* \"#utility.yul\":4264:4273   */\n      dup10\n        /* \"#utility.yul\":4260:4282   */\n      add\n        /* \"#utility.yul\":4239:4292   */\n      tag_387\n      jump\t// in\n    tag_418:\n        /* \"#utility.yul\":4229:4292   */\n      swap6\n      pop\n        /* \"#utility.yul\":4185:4302   */\n      pop\n        /* \"#utility.yul\":4369:4371   */\n      0x20\n        /* \"#utility.yul\":4358:4367   */\n      dup7\n        /* \"#utility.yul\":4354:4372   */\n      add\n        /* \"#utility.yul\":4341:4373   */\n      calldataload\n        /* \"#utility.yul\":4400:4418   */\n      0xffffffffffffffff\n        /* \"#utility.yul\":4392:4398   */\n      dup2\n        /* \"#utility.yul\":4389:4419   */\n      gt\n        /* \"#utility.yul\":4386:4503   */\n      iszero\n      tag_419\n      jumpi\n        /* \"#utility.yul\":4422:4501   */\n      tag_420\n      tag_405\n      jump\t// in\n    tag_420:\n        /* \"#utility.yul\":4386:4503   */\n    tag_419:\n        /* \"#utility.yul\":4527:4590   */\n      tag_421\n        /* \"#utility.yul\":4582:4589   */\n      dup9\n        /* \"#utility.yul\":4573:4579   */\n      dup3\n        /* \"#utility.yul\":4562:4571   */\n      dup10\n        /* \"#utility.yul\":4558:4580   */\n      add\n        /* \"#utility.yul\":4527:4590   */\n      tag_382\n      jump\t// in\n    tag_421:\n        /* \"#utility.yul\":4517:4590   */\n      swap5\n      pop\n        /* \"#utility.yul\":4312:4600   */\n      pop\n        /* \"#utility.yul\":4639:4641   */\n      0x40\n        /* \"#utility.yul\":4665:4718   */\n      tag_422\n        /* \"#utility.yul\":4710:4717   */\n      dup9\n        /* \"#utility.yul\":4701:4707   */\n      dup3\n        /* \"#utility.yul\":4690:4699   */\n      dup10\n        /* \"#utility.yul\":4686:4708   */\n      add\n        /* \"#utility.yul\":4665:4718   */\n      tag_387\n      jump\t// in\n    tag_422:\n        /* \"#utility.yul\":4655:4718   */\n      swap4\n      pop\n        /* \"#utility.yul\":4610:4728   */\n      pop\n        /* \"#utility.yul\":4767:4769   */\n      0x60\n        /* \"#utility.yul\":4793:4846   */\n      tag_423\n        /* \"#utility.yul\":4838:4845   */\n      dup9\n        /* \"#utility.yul\":4829:4835   */\n      dup3\n        /* \"#utility.yul\":4818:4827   */\n      dup10\n        /* \"#utility.yul\":4814:4836   */\n      add\n        /* \"#utility.yul\":4793:4846   */\n      tag_387\n      jump\t// in\n    tag_423:\n        /* \"#utility.yul\":4783:4846   */\n      swap3\n      pop\n        /* \"#utility.yul\":4738:4856   */\n      pop\n        /* \"#utility.yul\":4895:4898   */\n      0x80\n        /* \"#utility.yul\":4922:4975   */\n      tag_424\n        /* \"#utility.yul\":4967:4974   */\n      dup9\n        /* \"#utility.yul\":4958:4964   */\n      dup3\n        /* \"#utility.yul\":4947:4956   */\n      dup10\n        /* \"#utility.yul\":4943:4965   */\n      add\n        /* \"#utility.yul\":4922:4975   */\n      tag_387\n      jump\t// in\n    tag_424:\n        /* \"#utility.yul\":4912:4975   */\n      swap2\n      pop\n        /* \"#utility.yul\":4866:4985   */\n      pop\n        /* \"#utility.yul\":3901:4992   */\n      swap3\n      swap6\n      pop\n      swap3\n      swap6\n      swap1\n      swap4\n      pop\n      jump\t// out\n        /* \"#utility.yul\":4998:5177   */\n    tag_425:\n        /* \"#utility.yul\":5067:5077   */\n      0x00\n        /* \"#utility.yul\":5088:5134   */\n      tag_427\n        /* \"#utility.yul\":5130:5133   */\n      dup4\n        /* \"#utility.yul\":5122:5128   */\n      dup4\n        /* \"#utility.yul\":5088:5134   */\n      tag_428\n      jump\t// in\n    tag_427:\n        /* \"#utility.yul\":5166:5170   */\n      0x20\n        /* \"#utility.yul\":5161:5164   */\n      dup4\n        /* \"#utility.yul\":5157:5171   */\n      add\n        /* \"#utility.yul\":5143:5171   */\n      swap1\n      pop\n        /* \"#utility.yul\":4998:5177   */\n      swap3\n      swap2\n      pop\n      pop\n      jump\t// out\n        /* \"#utility.yul\":5183:5291   */\n    tag_428:\n        /* \"#utility.yul\":5260:5284   */\n      tag_430\n        /* \"#utility.yul\":5278:5283   */\n      dup2\n        /* \"#utility.yul\":5260:5284   */\n      tag_431\n      jump\t// in\n    tag_430:\n        /* \"#utility.yul\":5255:5258   */\n      dup3\n        /* \"#utility.yul\":5248:5285   */\n      mstore\n        /* \"#utility.yul\":5183:5291   */\n      pop\n      pop\n      jump\t// out\n        /* \"#utility.yul\":5297:5415   */\n    tag_432:\n        /* \"#utility.yul\":5384:5408   */\n      tag_434\n        /* \"#utility.yul\":5402:5407   */\n      dup2\n        /* \"#utility.yul\":5384:5408   */\n      tag_431\n      jump\t// in\n    tag_434:\n        /* \"#utility.yul\":5379:5382   */\n      dup3\n        /* \"#utility.yul\":5372:5409   */\n      mstore\n        /* \"#utility.yul\":5297:5415   */\n      pop\n      pop\n      jump\t// out\n        /* \"#utility.yul\":5451:6183   */\n    tag_435:\n        /* \"#utility.yul\":5570:5573   */\n      0x00\n        /* \"#utility.yul\":5599:5653   */\n      tag_437\n        /* \"#utility.yul\":5647:5652   */\n      dup3\n        /* \"#utility.yul\":5599:5653   */\n      tag_438\n      jump\t// in\n    tag_437:\n        /* \"#utility.yul\":5669:5755   */\n      tag_439\n        /* \"#utility.yul\":5748:5754   */\n      dup2\n        /* \"#utility.yul\":5743:5746   */\n      dup6\n        /* \"#utility.yul\":5669:5755   */\n      tag_440\n      jump\t// in\n    tag_439:\n        /* \"#utility.yul\":5662:5755   */\n      swap4\n      pop\n        /* \"#utility.yul\":5779:5835   */\n      tag_441\n        /* \"#utility.yul\":5829:5834   */\n      dup4\n        /* \"#utility.yul\":5779:5835   */\n      tag_442\n      jump\t// in\n    tag_441:\n        /* \"#utility.yul\":5858:5865   */\n      dup1\n        /* \"#utility.yul\":5889:5890   */\n      0x00\n        /* \"#utility.yul\":5874:6158   */\n    tag_443:\n        /* \"#utility.yul\":5899:5905   */\n      dup4\n        /* \"#utility.yul\":5896:5897   */\n      dup2\n        /* \"#utility.yul\":5893:5906   */\n      lt\n        /* \"#utility.yul\":5874:6158   */\n      iszero\n      tag_445\n      jumpi\n        /* \"#utility.yul\":5975:5981   */\n      dup2\n        /* \"#utility.yul\":5969:5982   */\n      mload\n        /* \"#utility.yul\":6002:6065   */\n      tag_446\n        /* \"#utility.yul\":6061:6064   */\n      dup9\n        /* \"#utility.yul\":6046:6059   */\n      dup3\n        /* \"#utility.yul\":6002:6065   */\n      tag_425\n      jump\t// in\n    tag_446:\n        /* \"#utility.yul\":5995:6065   */\n      swap8\n      pop\n        /* \"#utility.yul\":6088:6148   */\n      tag_447\n        /* \"#utility.yul\":6141:6147   */\n      dup4\n        /* \"#utility.yul\":6088:6148   */\n      tag_448\n      jump\t// in\n    tag_447:\n        /* \"#utility.yul\":6078:6148   */\n      swap3\n      pop\n        /* \"#utility.yul\":5934:6158   */\n      pop\n        /* \"#utility.yul\":5921:5922   */\n      0x01\n        /* \"#utility.yul\":5918:5919   */\n      dup2\n        /* \"#utility.yul\":5914:5923   */\n      add\n        /* \"#utility.yul\":5909:5923   */\n      swap1\n      pop\n        /* \"#utility.yul\":5874:6158   */\n      jump(tag_443)\n    tag_445:\n        /* \"#utility.yul\":5878:5892   */\n      pop\n        /* \"#utility.yul\":6174:6177   */\n      dup6\n        /* \"#utility.yul\":6167:6177   */\n      swap4\n      pop\n        /* \"#utility.yul\":5575:6183   */\n      pop\n      pop\n      pop\n        /* \"#utility.yul\":5451:6183   */\n      swap3\n      swap2\n      pop\n      pop\n      jump\t// out\n        /* \"#utility.yul\":6189:6298   */\n    tag_449:\n        /* \"#utility.yul\":6270:6291   */\n      tag_451\n        /* \"#utility.yul\":6285:6290   */\n      dup2\n        /* \"#utility.yul\":6270:6291   */\n      tag_452\n      jump\t// in\n    tag_451:\n        /* \"#utility.yul\":6265:6268   */\n      dup3\n        /* \"#utility.yul\":6258:6292   */\n      mstore\n        /* \"#utility.yul\":6189:6298   */\n      pop\n      pop\n      jump\t// out\n        /* \"#utility.yul\":6304:6422   */\n    tag_453:\n        /* \"#utility.yul\":6391:6415   */\n      tag_455\n        /* \"#utility.yul\":6409:6414   */\n      dup2\n        /* \"#utility.yul\":6391:6415   */\n      tag_456\n      jump\t// in\n    tag_455:\n        /* \"#utility.yul\":6386:6389   */\n      dup3\n        /* \"#utility.yul\":6379:6416   */\n      mstore\n        /* \"#utility.yul\":6304:6422   */\n      pop\n      pop\n      jump\t// out\n        /* \"#utility.yul\":6428:6801   */\n    tag_457:\n        /* \"#utility.yul\":6532:6535   */\n      0x00\n        /* \"#utility.yul\":6560:6598   */\n      tag_459\n        /* \"#utility.yul\":6592:6597   */\n      dup3\n        /* \"#utility.yul\":6560:6598   */\n      tag_460\n      jump\t// in\n    tag_459:\n        /* \"#utility.yul\":6614:6702   */\n      tag_461\n        /* \"#utility.yul\":6695:6701   */\n      dup2\n        /* \"#utility.yul\":6690:6693   */\n      dup6\n        /* \"#utility.yul\":6614:6702   */\n      tag_462\n      jump\t// in\n    tag_461:\n        /* \"#utility.yul\":6607:6702   */\n      swap4\n      pop\n        /* \"#utility.yul\":6711:6763   */\n      tag_463\n        /* \"#utility.yul\":6756:6762   */\n      dup2\n        /* \"#utility.yul\":6751:6754   */\n      dup6\n        /* \"#utility.yul\":6744:6748   */\n      0x20\n        /* \"#utility.yul\":6737:6742   */\n      dup7\n        /* \"#utility.yul\":6733:6749   */\n      add\n        /* \"#utility.yul\":6711:6763   */\n      tag_464\n      jump\t// in\n    tag_463:\n        /* \"#utility.yul\":6788:6794   */\n      dup1\n        /* \"#utility.yul\":6783:6786   */\n      dup5\n        /* \"#utility.yul\":6779:6795   */\n      add\n        /* \"#utility.yul\":6772:6795   */\n      swap2\n      pop\n        /* \"#utility.yul\":6536:6801   */\n      pop\n        /* \"#utility.yul\":6428:6801   */\n      swap3\n      swap2\n      pop\n      pop\n      jump\t// out\n        /* \"#utility.yul\":6807:6984   */\n    tag_465:\n        /* \"#utility.yul\":6917:6977   */\n      tag_467\n        /* \"#utility.yul\":6971:6976   */\n      dup2\n        /* \"#utility.yul\":6917:6977   */\n      tag_468\n      jump\t// in\n    tag_467:\n        /* \"#utility.yul\":6912:6915   */\n      dup3\n        /* \"#utility.yul\":6905:6978   */\n      mstore\n        /* \"#utility.yul\":6807:6984   */\n      pop\n      pop\n      jump\t// out\n        /* \"#utility.yul\":6990:7153   */\n    tag_469:\n        /* \"#utility.yul\":7093:7146   */\n      tag_471\n        /* \"#utility.yul\":7140:7145   */\n      dup2\n        /* \"#utility.yul\":7093:7146   */\n      tag_472\n      jump\t// in\n    tag_471:\n        /* \"#utility.yul\":7088:7091   */\n      dup3\n        /* \"#utility.yul\":7081:7147   */\n      mstore\n        /* \"#utility.yul\":6990:7153   */\n      pop\n      pop\n      jump\t// out\n        /* \"#utility.yul\":7159:7308   */\n    tag_473:\n        /* \"#utility.yul\":7255:7301   */\n      tag_475\n        /* \"#utility.yul\":7295:7300   */\n      dup2\n        /* \"#utility.yul\":7255:7301   */\n      tag_476\n      jump\t// in\n    tag_475:\n        /* \"#utility.yul\":7250:7253   */\n      dup3\n        /* \"#utility.yul\":7243:7302   */\n      mstore\n        /* \"#utility.yul\":7159:7308   */\n      pop\n      pop\n      jump\t// out\n        /* \"#utility.yul\":7314:7678   */\n    tag_477:\n        /* \"#utility.yul\":7402:7405   */\n      0x00\n        /* \"#utility.yul\":7430:7469   */\n      tag_479\n        /* \"#utility.yul\":7463:7468   */\n      dup3\n        /* \"#utility.yul\":7430:7469   */\n      tag_480\n      jump\t// in\n    tag_479:\n        /* \"#utility.yul\":7485:7556   */\n      tag_481\n        /* \"#utility.yul\":7549:7555   */\n      dup2\n        /* \"#utility.yul\":7544:7547   */\n      dup6\n        /* \"#utility.yul\":7485:7556   */\n      tag_482\n      jump\t// in\n    tag_481:\n        /* \"#utility.yul\":7478:7556   */\n      swap4\n      pop\n        /* \"#utility.yul\":7565:7617   */\n      tag_483\n        /* \"#utility.yul\":7610:7616   */\n      dup2\n        /* \"#utility.yul\":7605:7608   */\n      dup6\n        /* \"#utility.yul\":7598:7602   */\n      0x20\n        /* \"#utility.yul\":7591:7596   */\n      dup7\n        /* \"#utility.yul\":7587:7603   */\n      add\n        /* \"#utility.yul\":7565:7617   */\n      tag_464\n      jump\t// in\n    tag_483:\n        /* \"#utility.yul\":7642:7671   */\n      tag_484\n        /* \"#utility.yul\":7664:7670   */\n      dup2\n        /* \"#utility.yul\":7642:7671   */\n      tag_485\n      jump\t// in\n    tag_484:\n        /* \"#utility.yul\":7637:7640   */\n      dup5\n        /* \"#utility.yul\":7633:7672   */\n      add\n        /* \"#utility.yul\":7626:7672   */\n      swap2\n      pop\n        /* \"#utility.yul\":7406:7678   */\n      pop\n        /* \"#utility.yul\":7314:7678   */\n      swap3\n      swap2\n      pop\n      pop\n      jump\t// out\n        /* \"#utility.yul\":7684:8049   */\n    tag_486:\n        /* \"#utility.yul\":7826:7829   */\n      0x00\n        /* \"#utility.yul\":7847:7913   */\n      tag_488\n        /* \"#utility.yul\":7911:7912   */\n      0x05\n        /* \"#utility.yul\":7906:7909   */\n      dup4\n        /* \"#utility.yul\":7847:7913   */\n      tag_482\n      jump\t// in\n    tag_488:\n        /* \"#utility.yul\":7840:7913   */\n      swap2\n      pop\n        /* \"#utility.yul\":7922:8015   */\n      tag_489\n        /* \"#utility.yul\":8011:8014   */\n      dup3\n        /* \"#utility.yul\":7922:8015   */\n      tag_490\n      jump\t// in\n    tag_489:\n        /* \"#utility.yul\":8040:8042   */\n      0x20\n        /* \"#utility.yul\":8035:8038   */\n      dup3\n        /* \"#utility.yul\":8031:8043   */\n      add\n        /* \"#utility.yul\":8024:8043   */\n      swap1\n      pop\n        /* \"#utility.yul\":7684:8049   */\n      swap2\n      swap1\n      pop\n      jump\t// out\n        /* \"#utility.yul\":8055:8421   */\n    tag_491:\n        /* \"#utility.yul\":8197:8200   */\n      0x00\n        /* \"#utility.yul\":8218:8285   */\n      tag_493\n        /* \"#utility.yul\":8282:8284   */\n      0x11\n        /* \"#utility.yul\":8277:8280   */\n      dup4\n        /* \"#utility.yul\":8218:8285   */\n      tag_482\n      jump\t// in\n    tag_493:\n        /* \"#utility.yul\":8211:8285   */\n      swap2\n      pop\n        /* \"#utility.yul\":8294:8387   */\n      tag_494\n        /* \"#utility.yul\":8383:8386   */\n      dup3\n        /* \"#utility.yul\":8294:8387   */\n      tag_495\n      jump\t// in\n    tag_494:\n        /* \"#utility.yul\":8412:8414   */\n      0x20\n        /* \"#utility.yul\":8407:8410   */\n      dup3\n        /* \"#utility.yul\":8403:8415   */\n      add\n        /* \"#utility.yul\":8396:8415   */\n      swap1\n      pop\n        /* \"#utility.yul\":8055:8421   */\n      swap2\n      swap1\n      pop\n      jump\t// out\n        /* \"#utility.yul\":8427:8793   */\n    tag_496:\n        /* \"#utility.yul\":8569:8572   */\n      0x00\n        /* \"#utility.yul\":8590:8657   */\n      tag_498\n        /* \"#utility.yul\":8654:8656   */\n      0x11\n        /* \"#utility.yul\":8649:8652   */\n      dup4\n        /* \"#utility.yul\":8590:8657   */\n      tag_482\n      jump\t// in\n    tag_498:\n        /* \"#utility.yul\":8583:8657   */\n      swap2\n      pop\n        /* \"#utility.yul\":8666:8759   */\n      tag_499\n        /* \"#utility.yul\":8755:8758   */\n      dup3\n        /* \"#utility.yul\":8666:8759   */\n      tag_500\n      jump\t// in\n    tag_499:\n        /* \"#utility.yul\":8784:8786   */\n      0x20\n        /* \"#utility.yul\":8779:8782   */\n      dup3\n        /* \"#utility.yul\":8775:8787   */\n      add\n        /* \"#utility.yul\":8768:8787   */\n      swap1\n      pop\n        /* \"#utility.yul\":8427:8793   */\n      swap2\n      swap1\n      pop\n      jump\t// out\n        /* \"#utility.yul\":8799:9165   */\n    tag_501:\n        /* \"#utility.yul\":8941:8944   */\n      0x00\n        /* \"#utility.yul\":8962:9029   */\n      tag_503\n        /* \"#utility.yul\":9026:9028   */\n      0x14\n        /* \"#utility.yul\":9021:9024   */\n      dup4\n        /* \"#utility.yul\":8962:9029   */\n      tag_482\n      jump\t// in\n    tag_503:\n        /* \"#utility.yul\":8955:9029   */\n      swap2\n      pop\n        /* \"#utility.yul\":9038:9131   */\n      tag_504\n        /* \"#utility.yul\":9127:9130   */\n      dup3\n        /* \"#utility.yul\":9038:9131   */\n      tag_505\n      jump\t// in\n    tag_504:\n        /* \"#utility.yul\":9156:9158   */\n      0x20\n        /* \"#utility.yul\":9151:9154   */\n      dup3\n        /* \"#utility.yul\":9147:9159   */\n      add\n        /* \"#utility.yul\":9140:9159   */\n      swap1\n      pop\n        /* \"#utility.yul\":8799:9165   */\n      swap2\n      swap1\n      pop\n      jump\t// out\n        /* \"#utility.yul\":9171:9537   */\n    tag_506:\n        /* \"#utility.yul\":9313:9316   */\n      0x00\n        /* \"#utility.yul\":9334:9401   */\n      tag_508\n        /* \"#utility.yul\":9398:9400   */\n      0x10\n        /* \"#utility.yul\":9393:9396   */\n      dup4\n        /* \"#utility.yul\":9334:9401   */\n      tag_482\n      jump\t// in\n    tag_508:\n        /* \"#utility.yul\":9327:9401   */\n      swap2\n      pop\n        /* \"#utility.yul\":9410:9503   */\n      tag_509\n        /* \"#utility.yul\":9499:9502   */\n      dup3\n        /* \"#utility.yul\":9410:9503   */\n      tag_510\n      jump\t// in\n    tag_509:\n        /* \"#utility.yul\":9528:9530   */\n      0x20\n        /* \"#utility.yul\":9523:9526   */\n      dup3\n        /* \"#utility.yul\":9519:9531   */\n      add\n        /* \"#utility.yul\":9512:9531   */\n      swap1\n      pop\n        /* \"#utility.yul\":9171:9537   */\n      swap2\n      swap1\n      pop\n      jump\t// out\n        /* \"#utility.yul\":9543:9909   */\n    tag_511:\n        /* \"#utility.yul\":9685:9688   */\n      0x00\n        /* \"#utility.yul\":9706:9773   */\n      tag_513\n        /* \"#utility.yul\":9770:9772   */\n      0x0d\n        /* \"#utility.yul\":9765:9768   */\n      dup4\n        /* \"#utility.yul\":9706:9773   */\n      tag_482\n      jump\t// in\n    tag_513:\n        /* \"#utility.yul\":9699:9773   */\n      swap2\n      pop\n        /* \"#utility.yul\":9782:9875   */\n      tag_514\n        /* \"#utility.yul\":9871:9874   */\n      dup3\n        /* \"#utility.yul\":9782:9875   */\n      tag_515\n      jump\t// in\n    tag_514:\n        /* \"#utility.yul\":9900:9902   */\n      0x20\n        /* \"#utility.yul\":9895:9898   */\n      dup3\n        /* \"#utility.yul\":9891:9903   */\n      add\n        /* \"#utility.yul\":9884:9903   */\n      swap1\n      pop\n        /* \"#utility.yul\":9543:9909   */\n      swap2\n      swap1\n      pop\n      jump\t// out\n        /* \"#utility.yul\":9915:10281   */\n    tag_516:\n        /* \"#utility.yul\":10057:10060   */\n      0x00\n        /* \"#utility.yul\":10078:10145   */\n      tag_518\n        /* \"#utility.yul\":10142:10144   */\n      0x26\n        /* \"#utility.yul\":10137:10140   */\n      dup4\n        /* \"#utility.yul\":10078:10145   */\n      tag_482\n      jump\t// in\n    tag_518:\n        /* \"#utility.yul\":10071:10145   */\n      swap2\n      pop\n        /* \"#utility.yul\":10154:10247   */\n      tag_519\n        /* \"#utility.yul\":10243:10246   */\n      dup3\n        /* \"#utility.yul\":10154:10247   */\n      tag_520\n      jump\t// in\n    tag_519:\n        /* \"#utility.yul\":10272:10274   */\n      0x40\n        /* \"#utility.yul\":10267:10270   */\n      dup3\n        /* \"#utility.yul\":10263:10275   */\n      add\n        /* \"#utility.yul\":10256:10275   */\n      swap1\n      pop\n        /* \"#utility.yul\":9915:10281   */\n      swap2\n      swap1\n      pop\n      jump\t// out\n        /* \"#utility.yul\":10287:10653   */\n    tag_521:\n        /* \"#utility.yul\":10429:10432   */\n      0x00\n        /* \"#utility.yul\":10450:10517   */\n      tag_523\n        /* \"#utility.yul\":10514:10516   */\n      0x13\n        /* \"#utility.yul\":10509:10512   */\n      dup4\n        /* \"#utility.yul\":10450:10517   */\n      tag_482\n      jump\t// in\n    tag_523:\n        /* \"#utility.yul\":10443:10517   */\n      swap2\n      pop\n        /* \"#utility.yul\":10526:10619   */\n      tag_524\n        /* \"#utility.yul\":10615:10618   */\n      dup3\n        /* \"#utility.yul\":10526:10619   */\n      tag_525\n      jump\t// in\n    tag_524:\n        /* \"#utility.yul\":10644:10646   */\n      0x20\n        /* \"#utility.yul\":10639:10642   */\n      dup3\n        /* \"#utility.yul\":10635:10647   */\n      add\n        /* \"#utility.yul\":10628:10647   */\n      swap1\n      pop\n        /* \"#utility.yul\":10287:10653   */\n      swap2\n      swap1\n      pop\n      jump\t// out\n        /* \"#utility.yul\":10659:11025   */\n    tag_526:\n        /* \"#utility.yul\":10801:10804   */\n      0x00\n        /* \"#utility.yul\":10822:10889   */\n      tag_528\n        /* \"#utility.yul\":10886:10888   */\n      0x17\n        /* \"#utility.yul\":10881:10884   */\n      dup4\n        /* \"#utility.yul\":10822:10889   */\n      tag_482\n      jump\t// in\n    tag_528:\n        /* \"#utility.yul\":10815:10889   */\n      swap2\n      pop\n        /* \"#utility.yul\":10898:10991   */\n      tag_529\n        /* \"#utility.yul\":10987:10990   */\n      dup3\n        /* \"#utility.yul\":10898:10991   */\n      tag_530\n      jump\t// in\n    tag_529:\n        /* \"#utility.yul\":11016:11018   */\n      0x20\n        /* \"#utility.yul\":11011:11014   */\n      dup3\n        /* \"#utility.yul\":11007:11019   */\n      add\n        /* \"#utility.yul\":11000:11019   */\n      swap1\n      pop\n        /* \"#utility.yul\":10659:11025   */\n      swap2\n      swap1\n      pop\n      jump\t// out\n        /* \"#utility.yul\":11031:11397   */\n    tag_531:\n        /* \"#utility.yul\":11173:11176   */\n      0x00\n        /* \"#utility.yul\":11194:11261   */\n      tag_533\n        /* \"#utility.yul\":11258:11260   */\n      0x0d\n        /* \"#utility.yul\":11253:11256   */\n      dup4\n        /* \"#utility.yul\":11194:11261   */\n      tag_482\n      jump\t// in\n    tag_533:\n        /* \"#utility.yul\":11187:11261   */\n      swap2\n      pop\n        /* \"#utility.yul\":11270:11363   */\n      tag_534\n        /* \"#utility.yul\":11359:11362   */\n      dup3\n        /* \"#utility.yul\":11270:11363   */\n      tag_535\n      jump\t// in\n    tag_534:\n        /* \"#utility.yul\":11388:11390   */\n      0x20\n        /* \"#utility.yul\":11383:11386   */\n      dup3\n        /* \"#utility.yul\":11379:11391   */\n      add\n        /* \"#utility.yul\":11372:11391   */\n      swap1\n      pop\n        /* \"#utility.yul\":11031:11397   */\n      swap2\n      swap1\n      pop\n      jump\t// out\n        /* \"#utility.yul\":11403:11769   */\n    tag_536:\n        /* \"#utility.yul\":11545:11548   */\n      0x00\n        /* \"#utility.yul\":11566:11633   */\n      tag_538\n        /* \"#utility.yul\":11630:11632   */\n      0x1d\n        /* \"#utility.yul\":11625:11628   */\n      dup4\n        /* \"#utility.yul\":11566:11633   */\n      tag_482\n      jump\t// in\n    tag_538:\n        /* \"#utility.yul\":11559:11633   */\n      swap2\n      pop\n        /* \"#utility.yul\":11642:11735   */\n      tag_539\n        /* \"#utility.yul\":11731:11734   */\n      dup3\n        /* \"#utility.yul\":11642:11735   */\n      tag_540\n      jump\t// in\n    tag_539:\n        /* \"#utility.yul\":11760:11762   */\n      0x20\n        /* \"#utility.yul\":11755:11758   */\n      dup3\n        /* \"#utility.yul\":11751:11763   */\n      add\n        /* \"#utility.yul\":11744:11763   */\n      swap1\n      pop\n        /* \"#utility.yul\":11403:11769   */\n      swap2\n      swap1\n      pop\n      jump\t// out\n        /* \"#utility.yul\":11775:12141   */\n    tag_541:\n        /* \"#utility.yul\":11917:11920   */\n      0x00\n        /* \"#utility.yul\":11938:12005   */\n      tag_543\n        /* \"#utility.yul\":12002:12004   */\n      0x22\n        /* \"#utility.yul\":11997:12000   */\n      dup4\n        /* \"#utility.yul\":11938:12005   */\n      tag_482\n      jump\t// in\n    tag_543:\n        /* \"#utility.yul\":11931:12005   */\n      swap2\n      pop\n        /* \"#utility.yul\":12014:12107   */\n      tag_544\n        /* \"#utility.yul\":12103:12106   */\n      dup3\n        /* \"#utility.yul\":12014:12107   */\n      tag_545\n      jump\t// in\n    tag_544:\n        /* \"#utility.yul\":12132:12134   */\n      0x40\n        /* \"#utility.yul\":12127:12130   */\n      dup3\n        /* \"#utility.yul\":12123:12135   */\n      add\n        /* \"#utility.yul\":12116:12135   */\n      swap1\n      pop\n        /* \"#utility.yul\":11775:12141   */\n      swap2\n      swap1\n      pop\n      jump\t// out\n        /* \"#utility.yul\":12147:12513   */\n    tag_546:\n        /* \"#utility.yul\":12289:12292   */\n      0x00\n        /* \"#utility.yul\":12310:12377   */\n      tag_548\n        /* \"#utility.yul\":12374:12376   */\n      0x17\n        /* \"#utility.yul\":12369:12372   */\n      dup4\n        /* \"#utility.yul\":12310:12377   */\n      tag_482\n      jump\t// in\n    tag_548:\n        /* \"#utility.yul\":12303:12377   */\n      swap2\n      pop\n        /* \"#utility.yul\":12386:12479   */\n      tag_549\n        /* \"#utility.yul\":12475:12478   */\n      dup3\n        /* \"#utility.yul\":12386:12479   */\n      tag_550\n      jump\t// in\n    tag_549:\n        /* \"#utility.yul\":12504:12506   */\n      0x20\n        /* \"#utility.yul\":12499:12502   */\n      dup3\n        /* \"#utility.yul\":12495:12507   */\n      add\n        /* \"#utility.yul\":12488:12507   */\n      swap1\n      pop\n        /* \"#utility.yul\":12147:12513   */\n      swap2\n      swap1\n      pop\n      jump\t// out\n        /* \"#utility.yul\":12519:12885   */\n    tag_551:\n        /* \"#utility.yul\":12661:12664   */\n      0x00\n        /* \"#utility.yul\":12682:12749   */\n      tag_553\n        /* \"#utility.yul\":12746:12748   */\n      0x2a\n        /* \"#utility.yul\":12741:12744   */\n      dup4\n        /* \"#utility.yul\":12682:12749   */\n      tag_482\n      jump\t// in\n    tag_553:\n        /* \"#utility.yul\":12675:12749   */\n      swap2\n      pop\n        /* \"#utility.yul\":12758:12851   */\n      tag_554\n        /* \"#utility.yul\":12847:12850   */\n      dup3\n        /* \"#utility.yul\":12758:12851   */\n      tag_555\n      jump\t// in\n    tag_554:\n        /* \"#utility.yul\":12876:12878   */\n      0x40\n        /* \"#utility.yul\":12871:12874   */\n      dup3\n        /* \"#utility.yul\":12867:12879   */\n      add\n        /* \"#utility.yul\":12860:12879   */\n      swap1\n      pop\n        /* \"#utility.yul\":12519:12885   */\n      swap2\n      swap1\n      pop\n      jump\t// out\n        /* \"#utility.yul\":12891:13257   */\n    tag_556:\n        /* \"#utility.yul\":13033:13036   */\n      0x00\n        /* \"#utility.yul\":13054:13121   */\n      tag_558\n        /* \"#utility.yul\":13118:13120   */\n      0x0a\n        /* \"#utility.yul\":13113:13116   */\n      dup4\n        /* \"#utility.yul\":13054:13121   */\n      tag_482\n      jump\t// in\n    tag_558:\n        /* \"#utility.yul\":13047:13121   */\n      swap2\n      pop\n        /* \"#utility.yul\":13130:13223   */\n      tag_559\n        /* \"#utility.yul\":13219:13222   */\n      dup3\n        /* \"#utility.yul\":13130:13223   */\n      tag_560\n      jump\t// in\n    tag_559:\n        /* \"#utility.yul\":13248:13250   */\n      0x20\n        /* \"#utility.yul\":13243:13246   */\n      dup3\n        /* \"#utility.yul\":13239:13251   */\n      add\n        /* \"#utility.yul\":13232:13251   */\n      swap1\n      pop\n        /* \"#utility.yul\":12891:13257   */\n      swap2\n      swap1\n      pop\n      jump\t// out\n        /* \"#utility.yul\":13263:13381   */\n    tag_561:\n        /* \"#utility.yul\":13350:13374   */\n      tag_563\n        /* \"#utility.yul\":13368:13373   */\n      dup2\n        /* \"#utility.yul\":13350:13374   */\n      tag_564\n      jump\t// in\n    tag_563:\n        /* \"#utility.yul\":13345:13348   */\n      dup3\n        /* \"#utility.yul\":13338:13375   */\n      mstore\n        /* \"#utility.yul\":13263:13381   */\n      pop\n      pop\n      jump\t// out\n        /* \"#utility.yul\":13387:13658   */\n    tag_324:\n        /* \"#utility.yul\":13517:13520   */\n      0x00\n        /* \"#utility.yul\":13539:13632   */\n      tag_566\n        /* \"#utility.yul\":13628:13631   */\n      dup3\n        /* \"#utility.yul\":13619:13625   */\n      dup5\n        /* \"#utility.yul\":13539:13632   */\n      tag_457\n      jump\t// in\n    tag_566:\n        /* \"#utility.yul\":13532:13632   */\n      swap2\n      pop\n        /* \"#utility.yul\":13649:13652   */\n      dup2\n        /* \"#utility.yul\":13642:13652   */\n      swap1\n      pop\n        /* \"#utility.yul\":13387:13658   */\n      swap3\n      swap2\n      pop\n      pop\n      jump\t// out\n        /* \"#utility.yul\":13664:13886   */\n    tag_42:\n        /* \"#utility.yul\":13757:13761   */\n      0x00\n        /* \"#utility.yul\":13795:13797   */\n      0x20\n        /* \"#utility.yul\":13784:13793   */\n      dup3\n        /* \"#utility.yul\":13780:13798   */\n      add\n        /* \"#utility.yul\":13772:13798   */\n      swap1\n      pop\n        /* \"#utility.yul\":13808:13879   */\n      tag_568\n        /* \"#utility.yul\":13876:13877   */\n      0x00\n        /* \"#utility.yul\":13865:13874   */\n      dup4\n        /* \"#utility.yul\":13861:13878   */\n      add\n        /* \"#utility.yul\":13852:13858   */\n      dup5\n        /* \"#utility.yul\":13808:13879   */\n      tag_432\n      jump\t// in\n    tag_568:\n        /* \"#utility.yul\":13664:13886   */\n      swap3\n      swap2\n      pop\n      pop\n      jump\t// out\n        /* \"#utility.yul\":13892:14334   */\n    tag_301:\n        /* \"#utility.yul\":14041:14045   */\n      0x00\n        /* \"#utility.yul\":14079:14081   */\n      0x60\n        /* \"#utility.yul\":14068:14077   */\n      dup3\n        /* \"#utility.yul\":14064:14082   */\n      add\n        /* \"#utility.yul\":14056:14082   */\n      swap1\n      pop\n        /* \"#utility.yul\":14092:14163   */\n      tag_570\n        /* \"#utility.yul\":14160:14161   */\n      0x00\n        /* \"#utility.yul\":14149:14158   */\n      dup4\n        /* \"#utility.yul\":14145:14162   */\n      add\n        /* \"#utility.yul\":14136:14142   */\n      dup7\n        /* \"#utility.yul\":14092:14163   */\n      tag_432\n      jump\t// in\n    tag_570:\n        /* \"#utility.yul\":14173:14245   */\n      tag_571\n        /* \"#utility.yul\":14241:14243   */\n      0x20\n        /* \"#utility.yul\":14230:14239   */\n      dup4\n        /* \"#utility.yul\":14226:14244   */\n      add\n        /* \"#utility.yul\":14217:14223   */\n      dup6\n        /* \"#utility.yul\":14173:14245   */\n      tag_432\n      jump\t// in\n    tag_571:\n        /* \"#utility.yul\":14255:14327   */\n      tag_572\n        /* \"#utility.yul\":14323:14325   */\n      0x40\n        /* \"#utility.yul\":14312:14321   */\n      dup4\n        /* \"#utility.yul\":14308:14326   */\n      add\n        /* \"#utility.yul\":14299:14305   */\n      dup5\n        /* \"#utility.yul\":14255:14327   */\n      tag_561\n      jump\t// in\n    tag_572:\n        /* \"#utility.yul\":13892:14334   */\n      swap5\n      swap4\n      pop\n      pop\n      pop\n      pop\n      jump\t// out\n        /* \"#utility.yul\":14340:14814   */\n    tag_206:\n        /* \"#utility.yul\":14505:14509   */\n      0x00\n        /* \"#utility.yul\":14543:14545   */\n      0x60\n        /* \"#utility.yul\":14532:14541   */\n      dup3\n        /* \"#utility.yul\":14528:14546   */\n      add\n        /* \"#utility.yul\":14520:14546   */\n      swap1\n      pop\n        /* \"#utility.yul\":14556:14627   */\n      tag_574\n        /* \"#utility.yul\":14624:14625   */\n      0x00\n        /* \"#utility.yul\":14613:14622   */\n      dup4\n        /* \"#utility.yul\":14609:14626   */\n      add\n        /* \"#utility.yul\":14600:14606   */\n      dup7\n        /* \"#utility.yul\":14556:14627   */\n      tag_432\n      jump\t// in\n    tag_574:\n        /* \"#utility.yul\":14637:14709   */\n      tag_575\n        /* \"#utility.yul\":14705:14707   */\n      0x20\n        /* \"#utility.yul\":14694:14703   */\n      dup4\n        /* \"#utility.yul\":14690:14708   */\n      add\n        /* \"#utility.yul\":14681:14687   */\n      dup6\n        /* \"#utility.yul\":14637:14709   */\n      tag_561\n      jump\t// in\n    tag_575:\n        /* \"#utility.yul\":14719:14807   */\n      tag_576\n        /* \"#utility.yul\":14803:14805   */\n      0x40\n        /* \"#utility.yul\":14792:14801   */\n      dup4\n        /* \"#utility.yul\":14788:14806   */\n      add\n        /* \"#utility.yul\":14779:14785   */\n      dup5\n        /* \"#utility.yul\":14719:14807   */\n      tag_469\n      jump\t// in\n    tag_576:\n        /* \"#utility.yul\":14340:14814   */\n      swap5\n      swap4\n      pop\n      pop\n      pop\n      pop\n      jump\t// out\n        /* \"#utility.yul\":14820:15193   */\n    tag_64:\n        /* \"#utility.yul\":14963:14967   */\n      0x00\n        /* \"#utility.yul\":15001:15003   */\n      0x20\n        /* \"#utility.yul\":14990:14999   */\n      dup3\n        /* \"#utility.yul\":14986:15004   */\n      add\n        /* \"#utility.yul\":14978:15004   */\n      swap1\n      pop\n        /* \"#utility.yul\":15050:15059   */\n      dup2\n        /* \"#utility.yul\":15044:15048   */\n      dup2\n        /* \"#utility.yul\":15040:15060   */\n      sub\n        /* \"#utility.yul\":15036:15037   */\n      0x00\n        /* \"#utility.yul\":15025:15034   */\n      dup4\n        /* \"#utility.yul\":15021:15038   */\n      add\n        /* \"#utility.yul\":15014:15061   */\n      mstore\n        /* \"#utility.yul\":15078:15186   */\n      tag_578\n        /* \"#utility.yul\":15181:15185   */\n      dup2\n        /* \"#utility.yul\":15172:15178   */\n      dup5\n        /* \"#utility.yul\":15078:15186   */\n      tag_435\n      jump\t// in\n    tag_578:\n        /* \"#utility.yul\":15070:15186   */\n      swap1\n      pop\n        /* \"#utility.yul\":14820:15193   */\n      swap3\n      swap2\n      pop\n      pop\n      jump\t// out\n        /* \"#utility.yul\":15199:15409   */\n    tag_60:\n        /* \"#utility.yul\":15286:15290   */\n      0x00\n        /* \"#utility.yul\":15324:15326   */\n      0x20\n        /* \"#utility.yul\":15313:15322   */\n      dup3\n        /* \"#utility.yul\":15309:15327   */\n      add\n        /* \"#utility.yul\":15301:15327   */\n      swap1\n      pop\n        /* \"#utility.yul\":15337:15402   */\n      tag_580\n        /* \"#utility.yul\":15399:15400   */\n      0x00\n        /* \"#utility.yul\":15388:15397   */\n      dup4\n        /* \"#utility.yul\":15384:15401   */\n      add\n        /* \"#utility.yul\":15375:15381   */\n      dup5\n        /* \"#utility.yul\":15337:15402   */\n      tag_449\n      jump\t// in\n    tag_580:\n        /* \"#utility.yul\":15199:15409   */\n      swap3\n      swap2\n      pop\n      pop\n      jump\t// out\n        /* \"#utility.yul\":15415:15747   */\n    tag_95:\n        /* \"#utility.yul\":15536:15540   */\n      0x00\n        /* \"#utility.yul\":15574:15576   */\n      0x40\n        /* \"#utility.yul\":15563:15572   */\n      dup3\n        /* \"#utility.yul\":15559:15577   */\n      add\n        /* \"#utility.yul\":15551:15577   */\n      swap1\n      pop\n        /* \"#utility.yul\":15587:15658   */\n      tag_582\n        /* \"#utility.yul\":15655:15656   */\n      0x00\n        /* \"#utility.yul\":15644:15653   */\n      dup4\n        /* \"#utility.yul\":15640:15657   */\n      add\n        /* \"#utility.yul\":15631:15637   */\n      dup6\n        /* \"#utility.yul\":15587:15658   */\n      tag_453\n      jump\t// in\n    tag_582:\n        /* \"#utility.yul\":15668:15740   */\n      tag_583\n        /* \"#utility.yul\":15736:15738   */\n      0x20\n        /* \"#utility.yul\":15725:15734   */\n      dup4\n        /* \"#utility.yul\":15721:15739   */\n      add\n        /* \"#utility.yul\":15712:15718   */\n      dup5\n        /* \"#utility.yul\":15668:15740   */\n      tag_432\n      jump\t// in\n    tag_583:\n        /* \"#utility.yul\":15415:15747   */\n      swap4\n      swap3\n      pop\n      pop\n      pop\n      jump\t// out\n        /* \"#utility.yul\":15753:16021   */\n    tag_72:\n        /* \"#utility.yul\":15869:15873   */\n      0x00\n        /* \"#utility.yul\":15907:15909   */\n      0x20\n        /* \"#utility.yul\":15896:15905   */\n      dup3\n        /* \"#utility.yul\":15892:15910   */\n      add\n        /* \"#utility.yul\":15884:15910   */\n      swap1\n      pop\n        /* \"#utility.yul\":15920:16014   */\n      tag_585\n        /* \"#utility.yul\":16011:16012   */\n      0x00\n        /* \"#utility.yul\":16000:16009   */\n      dup4\n        /* \"#utility.yul\":15996:16013   */\n      add\n        /* \"#utility.yul\":15987:15993   */\n      dup5\n        /* \"#utility.yul\":15920:16014   */\n      tag_465\n      jump\t// in\n    tag_585:\n        /* \"#utility.yul\":15753:16021   */\n      swap3\n      swap2\n      pop\n      pop\n      jump\t// out\n        /* \"#utility.yul\":16027:16267   */\n    tag_36:\n        /* \"#utility.yul\":16129:16133   */\n      0x00\n        /* \"#utility.yul\":16167:16169   */\n      0x20\n        /* \"#utility.yul\":16156:16165   */\n      dup3\n        /* \"#utility.yul\":16152:16170   */\n      add\n        /* \"#utility.yul\":16144:16170   */\n      swap1\n      pop\n        /* \"#utility.yul\":16180:16260   */\n      tag_587\n        /* \"#utility.yul\":16257:16258   */\n      0x00\n        /* \"#utility.yul\":16246:16255   */\n      dup4\n        /* \"#utility.yul\":16242:16259   */\n      add\n        /* \"#utility.yul\":16233:16239   */\n      dup5\n        /* \"#utility.yul\":16180:16260   */\n      tag_473\n      jump\t// in\n    tag_587:\n        /* \"#utility.yul\":16027:16267   */\n      swap3\n      swap2\n      pop\n      pop\n      jump\t// out\n        /* \"#utility.yul\":16273:16586   */\n    tag_337:\n        /* \"#utility.yul\":16386:16390   */\n      0x00\n        /* \"#utility.yul\":16424:16426   */\n      0x20\n        /* \"#utility.yul\":16413:16422   */\n      dup3\n        /* \"#utility.yul\":16409:16427   */\n      add\n        /* \"#utility.yul\":16401:16427   */\n      swap1\n      pop\n        /* \"#utility.yul\":16473:16482   */\n      dup2\n        /* \"#utility.yul\":16467:16471   */\n      dup2\n        /* \"#utility.yul\":16463:16483   */\n      sub\n        /* \"#utility.yul\":16459:16460   */\n      0x00\n        /* \"#utility.yul\":16448:16457   */\n      dup4\n        /* \"#utility.yul\":16444:16461   */\n      add\n        /* \"#utility.yul\":16437:16484   */\n      mstore\n        /* \"#utility.yul\":16501:16579   */\n      tag_589\n        /* \"#utility.yul\":16574:16578   */\n      dup2\n        /* \"#utility.yul\":16565:16571   */\n      dup5\n        /* \"#utility.yul\":16501:16579   */\n      tag_477\n      jump\t// in\n    tag_589:\n        /* \"#utility.yul\":16493:16579   */\n      swap1\n      pop\n        /* \"#utility.yul\":16273:16586   */\n      swap3\n      swap2\n      pop\n      pop\n      jump\t// out\n        /* \"#utility.yul\":16592:17011   */\n    tag_134:\n        /* \"#utility.yul\":16758:16762   */\n      0x00\n        /* \"#utility.yul\":16796:16798   */\n      0x20\n        /* \"#utility.yul\":16785:16794   */\n      dup3\n        /* \"#utility.yul\":16781:16799   */\n      add\n        /* \"#utility.yul\":16773:16799   */\n      swap1\n      pop\n        /* \"#utility.yul\":16845:16854   */\n      dup2\n        /* \"#utility.yul\":16839:16843   */\n      dup2\n        /* \"#utility.yul\":16835:16855   */\n      sub\n        /* \"#utility.yul\":16831:16832   */\n      0x00\n        /* \"#utility.yul\":16820:16829   */\n      dup4\n        /* \"#utility.yul\":16816:16833   */\n      add\n        /* \"#utility.yul\":16809:16856   */\n      mstore\n        /* \"#utility.yul\":16873:17004   */\n      tag_591\n        /* \"#utility.yul\":16999:17003   */\n      dup2\n        /* \"#utility.yul\":16873:17004   */\n      tag_486\n      jump\t// in\n    tag_591:\n        /* \"#utility.yul\":16865:17004   */\n      swap1\n      pop\n        /* \"#utility.yul\":16592:17011   */\n      swap2\n      swap1\n      pop\n      jump\t// out\n        /* \"#utility.yul\":17017:17436   */\n    tag_103:\n        /* \"#utility.yul\":17183:17187   */\n      0x00\n        /* \"#utility.yul\":17221:17223   */\n      0x20\n        /* \"#utility.yul\":17210:17219   */\n      dup3\n        /* \"#utility.yul\":17206:17224   */\n      add\n        /* \"#utility.yul\":17198:17224   */\n      swap1\n      pop\n        /* \"#utility.yul\":17270:17279   */\n      dup2\n        /* \"#utility.yul\":17264:17268   */\n      dup2\n        /* \"#utility.yul\":17260:17280   */\n      sub\n        /* \"#utility.yul\":17256:17257   */\n      0x00\n        /* \"#utility.yul\":17245:17254   */\n      dup4\n        /* \"#utility.yul\":17241:17258   */\n      add\n        /* \"#utility.yul\":17234:17281   */\n      mstore\n        /* \"#utility.yul\":17298:17429   */\n      tag_593\n        /* \"#utility.yul\":17424:17428   */\n      dup2\n        /* \"#utility.yul\":17298:17429   */\n      tag_491\n      jump\t// in\n    tag_593:\n        /* \"#utility.yul\":17290:17429   */\n      swap1\n      pop\n        /* \"#utility.yul\":17017:17436   */\n      swap2\n      swap1\n      pop\n      jump\t// out\n        /* \"#utility.yul\":17442:17861   */\n    tag_218:\n        /* \"#utility.yul\":17608:17612   */\n      0x00\n        /* \"#utility.yul\":17646:17648   */\n      0x20\n        /* \"#utility.yul\":17635:17644   */\n      dup3\n        /* \"#utility.yul\":17631:17649   */\n      add\n        /* \"#utility.yul\":17623:17649   */\n      swap1\n      pop\n        /* \"#utility.yul\":17695:17704   */\n      dup2\n        /* \"#utility.yul\":17689:17693   */\n      dup2\n        /* \"#utility.yul\":17685:17705   */\n      sub\n        /* \"#utility.yul\":17681:17682   */\n      0x00\n        /* \"#utility.yul\":17670:17679   */\n      dup4\n        /* \"#utility.yul\":17666:17683   */\n      add\n        /* \"#utility.yul\":17659:17706   */\n      mstore\n        /* \"#utility.yul\":17723:17854   */\n      tag_595\n        /* \"#utility.yul\":17849:17853   */\n      dup2\n        /* \"#utility.yul\":17723:17854   */\n      tag_496\n      jump\t// in\n    tag_595:\n        /* \"#utility.yul\":17715:17854   */\n      swap1\n      pop\n        /* \"#utility.yul\":17442:17861   */\n      swap2\n      swap1\n      pop\n      jump\t// out\n        /* \"#utility.yul\":17867:18286   */\n    tag_197:\n        /* \"#utility.yul\":18033:18037   */\n      0x00\n        /* \"#utility.yul\":18071:18073   */\n      0x20\n        /* \"#utility.yul\":18060:18069   */\n      dup3\n        /* \"#utility.yul\":18056:18074   */\n      add\n        /* \"#utility.yul\":18048:18074   */\n      swap1\n      pop\n        /* \"#utility.yul\":18120:18129   */\n      dup2\n        /* \"#utility.yul\":18114:18118   */\n      dup2\n        /* \"#utility.yul\":18110:18130   */\n      sub\n        /* \"#utility.yul\":18106:18107   */\n      0x00\n        /* \"#utility.yul\":18095:18104   */\n      dup4\n        /* \"#utility.yul\":18091:18108   */\n      add\n        /* \"#utility.yul\":18084:18131   */\n      mstore\n        /* \"#utility.yul\":18148:18279   */\n      tag_597\n        /* \"#utility.yul\":18274:18278   */\n      dup2\n        /* \"#utility.yul\":18148:18279   */\n      tag_501\n      jump\t// in\n    tag_597:\n        /* \"#utility.yul\":18140:18279   */\n      swap1\n      pop\n        /* \"#utility.yul\":17867:18286   */\n      swap2\n      swap1\n      pop\n      jump\t// out\n        /* \"#utility.yul\":18292:18711   */\n    tag_190:\n        /* \"#utility.yul\":18458:18462   */\n      0x00\n        /* \"#utility.yul\":18496:18498   */\n      0x20\n        /* \"#utility.yul\":18485:18494   */\n      dup3\n        /* \"#utility.yul\":18481:18499   */\n      add\n        /* \"#utility.yul\":18473:18499   */\n      swap1\n      pop\n        /* \"#utility.yul\":18545:18554   */\n      dup2\n        /* \"#utility.yul\":18539:18543   */\n      dup2\n        /* \"#utility.yul\":18535:18555   */\n      sub\n        /* \"#utility.yul\":18531:18532   */\n      0x00\n        /* \"#utility.yul\":18520:18529   */\n      dup4\n        /* \"#utility.yul\":18516:18533   */\n      add\n        /* \"#utility.yul\":18509:18556   */\n      mstore\n        /* \"#utility.yul\":18573:18704   */\n      tag_599\n        /* \"#utility.yul\":18699:18703   */\n      dup2\n        /* \"#utility.yul\":18573:18704   */\n      tag_506\n      jump\t// in\n    tag_599:\n        /* \"#utility.yul\":18565:18704   */\n      swap1\n      pop\n        /* \"#utility.yul\":18292:18711   */\n      swap2\n      swap1\n      pop\n      jump\t// out\n        /* \"#utility.yul\":18717:19136   */\n    tag_112:\n        /* \"#utility.yul\":18883:18887   */\n      0x00\n        /* \"#utility.yul\":18921:18923   */\n      0x20\n        /* \"#utility.yul\":18910:18919   */\n      dup3\n        /* \"#utility.yul\":18906:18924   */\n      add\n        /* \"#utility.yul\":18898:18924   */\n      swap1\n      pop\n        /* \"#utility.yul\":18970:18979   */\n      dup2\n        /* \"#utility.yul\":18964:18968   */\n      dup2\n        /* \"#utility.yul\":18960:18980   */\n      sub\n        /* \"#utility.yul\":18956:18957   */\n      0x00\n        /* \"#utility.yul\":18945:18954   */\n      dup4\n        /* \"#utility.yul\":18941:18958   */\n      add\n        /* \"#utility.yul\":18934:18981   */\n      mstore\n        /* \"#utility.yul\":18998:19129   */\n      tag_601\n        /* \"#utility.yul\":19124:19128   */\n      dup2\n        /* \"#utility.yul\":18998:19129   */\n      tag_511\n      jump\t// in\n    tag_601:\n        /* \"#utility.yul\":18990:19129   */\n      swap1\n      pop\n        /* \"#utility.yul\":18717:19136   */\n      swap2\n      swap1\n      pop\n      jump\t// out\n        /* \"#utility.yul\":19142:19561   */\n    tag_317:\n        /* \"#utility.yul\":19308:19312   */\n      0x00\n        /* \"#utility.yul\":19346:19348   */\n      0x20\n        /* \"#utility.yul\":19335:19344   */\n      dup3\n        /* \"#utility.yul\":19331:19349   */\n      add\n        /* \"#utility.yul\":19323:19349   */\n      swap1\n      pop\n        /* \"#utility.yul\":19395:19404   */\n      dup2\n        /* \"#utility.yul\":19389:19393   */\n      dup2\n        /* \"#utility.yul\":19385:19405   */\n      sub\n        /* \"#utility.yul\":19381:19382   */\n      0x00\n        /* \"#utility.yul\":19370:19379   */\n      dup4\n        /* \"#utility.yul\":19366:19383   */\n      add\n        /* \"#utility.yul\":19359:19406   */\n      mstore\n        /* \"#utility.yul\":19423:19554   */\n      tag_603\n        /* \"#utility.yul\":19549:19553   */\n      dup2\n        /* \"#utility.yul\":19423:19554   */\n      tag_516\n      jump\t// in\n    tag_603:\n        /* \"#utility.yul\":19415:19554   */\n      swap1\n      pop\n        /* \"#utility.yul\":19142:19561   */\n      swap2\n      swap1\n      pop\n      jump\t// out\n        /* \"#utility.yul\":19567:19986   */\n    tag_169:\n        /* \"#utility.yul\":19733:19737   */\n      0x00\n        /* \"#utility.yul\":19771:19773   */\n      0x20\n        /* \"#utility.yul\":19760:19769   */\n      dup3\n        /* \"#utility.yul\":19756:19774   */\n      add\n        /* \"#utility.yul\":19748:19774   */\n      swap1\n      pop\n        /* \"#utility.yul\":19820:19829   */\n      dup2\n        /* \"#utility.yul\":19814:19818   */\n      dup2\n        /* \"#utility.yul\":19810:19830   */\n      sub\n        /* \"#utility.yul\":19806:19807   */\n      0x00\n        /* \"#utility.yul\":19795:19804   */\n      dup4\n        /* \"#utility.yul\":19791:19808   */\n      add\n        /* \"#utility.yul\":19784:19831   */\n      mstore\n        /* \"#utility.yul\":19848:19979   */\n      tag_605\n        /* \"#utility.yul\":19974:19978   */\n      dup2\n        /* \"#utility.yul\":19848:19979   */\n      tag_521\n      jump\t// in\n    tag_605:\n        /* \"#utility.yul\":19840:19979   */\n      swap1\n      pop\n        /* \"#utility.yul\":19567:19986   */\n      swap2\n      swap1\n      pop\n      jump\t// out\n        /* \"#utility.yul\":19992:20411   */\n    tag_128:\n        /* \"#utility.yul\":20158:20162   */\n      0x00\n        /* \"#utility.yul\":20196:20198   */\n      0x20\n        /* \"#utility.yul\":20185:20194   */\n      dup3\n        /* \"#utility.yul\":20181:20199   */\n      add\n        /* \"#utility.yul\":20173:20199   */\n      swap1\n      pop\n        /* \"#utility.yul\":20245:20254   */\n      dup2\n        /* \"#utility.yul\":20239:20243   */\n      dup2\n        /* \"#utility.yul\":20235:20255   */\n      sub\n        /* \"#utility.yul\":20231:20232   */\n      0x00\n        /* \"#utility.yul\":20220:20229   */\n      dup4\n        /* \"#utility.yul\":20216:20233   */\n      add\n        /* \"#utility.yul\":20209:20256   */\n      mstore\n        /* \"#utility.yul\":20273:20404   */\n      tag_607\n        /* \"#utility.yul\":20399:20403   */\n      dup2\n        /* \"#utility.yul\":20273:20404   */\n      tag_526\n      jump\t// in\n    tag_607:\n        /* \"#utility.yul\":20265:20404   */\n      swap1\n      pop\n        /* \"#utility.yul\":19992:20411   */\n      swap2\n      swap1\n      pop\n      jump\t// out\n        /* \"#utility.yul\":20417:20836   */\n    tag_161:\n        /* \"#utility.yul\":20583:20587   */\n      0x00\n        /* \"#utility.yul\":20621:20623   */\n      0x20\n        /* \"#utility.yul\":20610:20619   */\n      dup3\n        /* \"#utility.yul\":20606:20624   */\n      add\n        /* \"#utility.yul\":20598:20624   */\n      swap1\n      pop\n        /* \"#utility.yul\":20670:20679   */\n      dup2\n        /* \"#utility.yul\":20664:20668   */\n      dup2\n        /* \"#utility.yul\":20660:20680   */\n      sub\n        /* \"#utility.yul\":20656:20657   */\n      0x00\n        /* \"#utility.yul\":20645:20654   */\n      dup4\n        /* \"#utility.yul\":20641:20658   */\n      add\n        /* \"#utility.yul\":20634:20681   */\n      mstore\n        /* \"#utility.yul\":20698:20829   */\n      tag_609\n        /* \"#utility.yul\":20824:20828   */\n      dup2\n        /* \"#utility.yul\":20698:20829   */\n      tag_531\n      jump\t// in\n    tag_609:\n        /* \"#utility.yul\":20690:20829   */\n      swap1\n      pop\n        /* \"#utility.yul\":20417:20836   */\n      swap2\n      swap1\n      pop\n      jump\t// out\n        /* \"#utility.yul\":20842:21261   */\n    tag_322:\n        /* \"#utility.yul\":21008:21012   */\n      0x00\n        /* \"#utility.yul\":21046:21048   */\n      0x20\n        /* \"#utility.yul\":21035:21044   */\n      dup3\n        /* \"#utility.yul\":21031:21049   */\n      add\n        /* \"#utility.yul\":21023:21049   */\n      swap1\n      pop\n        /* \"#utility.yul\":21095:21104   */\n      dup2\n        /* \"#utility.yul\":21089:21093   */\n      dup2\n        /* \"#utility.yul\":21085:21105   */\n      sub\n        /* \"#utility.yul\":21081:21082   */\n      0x00\n        /* \"#utility.yul\":21070:21079   */\n      dup4\n        /* \"#utility.yul\":21066:21083   */\n      add\n        /* \"#utility.yul\":21059:21106   */\n      mstore\n        /* \"#utility.yul\":21123:21254   */\n      tag_611\n        /* \"#utility.yul\":21249:21253   */\n      dup2\n        /* \"#utility.yul\":21123:21254   */\n      tag_536\n      jump\t// in\n    tag_611:\n        /* \"#utility.yul\":21115:21254   */\n      swap1\n      pop\n        /* \"#utility.yul\":20842:21261   */\n      swap2\n      swap1\n      pop\n      jump\t// out\n        /* \"#utility.yul\":21267:21686   */\n    tag_165:\n        /* \"#utility.yul\":21433:21437   */\n      0x00\n        /* \"#utility.yul\":21471:21473   */\n      0x20\n        /* \"#utility.yul\":21460:21469   */\n      dup3\n        /* \"#utility.yul\":21456:21474   */\n      add\n        /* \"#utility.yul\":21448:21474   */\n      swap1\n      pop\n        /* \"#utility.yul\":21520:21529   */\n      dup2\n        /* \"#utility.yul\":21514:21518   */\n      dup2\n        /* \"#utility.yul\":21510:21530   */\n      sub\n        /* \"#utility.yul\":21506:21507   */\n      0x00\n        /* \"#utility.yul\":21495:21504   */\n      dup4\n        /* \"#utility.yul\":21491:21508   */\n      add\n        /* \"#utility.yul\":21484:21531   */\n      mstore\n        /* \"#utility.yul\":21548:21679   */\n      tag_613\n        /* \"#utility.yul\":21674:21678   */\n      dup2\n        /* \"#utility.yul\":21548:21679   */\n      tag_541\n      jump\t// in\n    tag_613:\n        /* \"#utility.yul\":21540:21679   */\n      swap1\n      pop\n        /* \"#utility.yul\":21267:21686   */\n      swap2\n      swap1\n      pop\n      jump\t// out\n        /* \"#utility.yul\":21692:22111   */\n    tag_194:\n        /* \"#utility.yul\":21858:21862   */\n      0x00\n        /* \"#utility.yul\":21896:21898   */\n      0x20\n        /* \"#utility.yul\":21885:21894   */\n      dup3\n        /* \"#utility.yul\":21881:21899   */\n      add\n        /* \"#utility.yul\":21873:21899   */\n      swap1\n      pop\n        /* \"#utility.yul\":21945:21954   */\n      dup2\n        /* \"#utility.yul\":21939:21943   */\n      dup2\n        /* \"#utility.yul\":21935:21955   */\n      sub\n        /* \"#utility.yul\":21931:21932   */\n      0x00\n        /* \"#utility.yul\":21920:21929   */\n      dup4\n        /* \"#utility.yul\":21916:21933   */\n      add\n        /* \"#utility.yul\":21909:21956   */\n      mstore\n        /* \"#utility.yul\":21973:22104   */\n      tag_615\n        /* \"#utility.yul\":22099:22103   */\n      dup2\n        /* \"#utility.yul\":21973:22104   */\n      tag_546\n      jump\t// in\n    tag_615:\n        /* \"#utility.yul\":21965:22104   */\n      swap1\n      pop\n        /* \"#utility.yul\":21692:22111   */\n      swap2\n      swap1\n      pop\n      jump\t// out\n        /* \"#utility.yul\":22117:22536   */\n    tag_310:\n        /* \"#utility.yul\":22283:22287   */\n      0x00\n        /* \"#utility.yul\":22321:22323   */\n      0x20\n        /* \"#utility.yul\":22310:22319   */\n      dup3\n        /* \"#utility.yul\":22306:22324   */\n      add\n        /* \"#utility.yul\":22298:22324   */\n      swap1\n      pop\n        /* \"#utility.yul\":22370:22379   */\n      dup2\n        /* \"#utility.yul\":22364:22368   */\n      dup2\n        /* \"#utility.yul\":22360:22380   */\n      sub\n        /* \"#utility.yul\":22356:22357   */\n      0x00\n        /* \"#utility.yul\":22345:22354   */\n      dup4\n        /* \"#utility.yul\":22341:22358   */\n      add\n        /* \"#utility.yul\":22334:22381   */\n      mstore\n        /* \"#utility.yul\":22398:22529   */\n      tag_617\n        /* \"#utility.yul\":22524:22528   */\n      dup2\n        /* \"#utility.yul\":22398:22529   */\n      tag_551\n      jump\t// in\n    tag_617:\n        /* \"#utility.yul\":22390:22529   */\n      swap1\n      pop\n        /* \"#utility.yul\":22117:22536   */\n      swap2\n      swap1\n      pop\n      jump\t// out\n        /* \"#utility.yul\":22542:22961   */\n    tag_153:\n        /* \"#utility.yul\":22708:22712   */\n      0x00\n        /* \"#utility.yul\":22746:22748   */\n      0x20\n        /* \"#utility.yul\":22735:22744   */\n      dup3\n        /* \"#utility.yul\":22731:22749   */\n      add\n        /* \"#utility.yul\":22723:22749   */\n      swap1\n      pop\n        /* \"#utility.yul\":22795:22804   */\n      dup2\n        /* \"#utility.yul\":22789:22793   */\n      dup2\n        /* \"#utility.yul\":22785:22805   */\n      sub\n        /* \"#utility.yul\":22781:22782   */\n      0x00\n        /* \"#utility.yul\":22770:22779   */\n      dup4\n        /* \"#utility.yul\":22766:22783   */\n      add\n        /* \"#utility.yul\":22759:22806   */\n      mstore\n        /* \"#utility.yul\":22823:22954   */\n      tag_619\n        /* \"#utility.yul\":22949:22953   */\n      dup2\n        /* \"#utility.yul\":22823:22954   */\n      tag_556\n      jump\t// in\n    tag_619:\n        /* \"#utility.yul\":22815:22954   */\n      swap1\n      pop\n        /* \"#utility.yul\":22542:22961   */\n      swap2\n      swap1\n      pop\n      jump\t// out\n        /* \"#utility.yul\":22967:23189   */\n    tag_76:\n        /* \"#utility.yul\":23060:23064   */\n      0x00\n        /* \"#utility.yul\":23098:23100   */\n      0x20\n        /* \"#utility.yul\":23087:23096   */\n      dup3\n        /* \"#utility.yul\":23083:23101   */\n      add\n        /* \"#utility.yul\":23075:23101   */\n      swap1\n      pop\n        /* \"#utility.yul\":23111:23182   */\n      tag_621\n        /* \"#utility.yul\":23179:23180   */\n      0x00\n        /* \"#utility.yul\":23168:23177   */\n      dup4\n        /* \"#utility.yul\":23164:23181   */\n      add\n        /* \"#utility.yul\":23155:23161   */\n      dup5\n        /* \"#utility.yul\":23111:23182   */\n      tag_561\n      jump\t// in\n    tag_621:\n        /* \"#utility.yul\":22967:23189   */\n      swap3\n      swap2\n      pop\n      pop\n      jump\t// out\n        /* \"#utility.yul\":23195:23950   */\n    tag_68:\n        /* \"#utility.yul\":23420:23424   */\n      0x00\n        /* \"#utility.yul\":23458:23461   */\n      0xa0\n        /* \"#utility.yul\":23447:23456   */\n      dup3\n        /* \"#utility.yul\":23443:23462   */\n      add\n        /* \"#utility.yul\":23435:23462   */\n      swap1\n      pop\n        /* \"#utility.yul\":23472:23543   */\n      tag_623\n        /* \"#utility.yul\":23540:23541   */\n      0x00\n        /* \"#utility.yul\":23529:23538   */\n      dup4\n        /* \"#utility.yul\":23525:23542   */\n      add\n        /* \"#utility.yul\":23516:23522   */\n      dup9\n        /* \"#utility.yul\":23472:23543   */\n      tag_561\n      jump\t// in\n    tag_623:\n        /* \"#utility.yul\":23590:23599   */\n      dup2\n        /* \"#utility.yul\":23584:23588   */\n      dup2\n        /* \"#utility.yul\":23580:23600   */\n      sub\n        /* \"#utility.yul\":23575:23577   */\n      0x20\n        /* \"#utility.yul\":23564:23573   */\n      dup4\n        /* \"#utility.yul\":23560:23578   */\n      add\n        /* \"#utility.yul\":23553:23601   */\n      mstore\n        /* \"#utility.yul\":23618:23696   */\n      tag_624\n        /* \"#utility.yul\":23691:23695   */\n      dup2\n        /* \"#utility.yul\":23682:23688   */\n      dup8\n        /* \"#utility.yul\":23618:23696   */\n      tag_477\n      jump\t// in\n    tag_624:\n        /* \"#utility.yul\":23610:23696   */\n      swap1\n      pop\n        /* \"#utility.yul\":23706:23778   */\n      tag_625\n        /* \"#utility.yul\":23774:23776   */\n      0x40\n        /* \"#utility.yul\":23763:23772   */\n      dup4\n        /* \"#utility.yul\":23759:23777   */\n      add\n        /* \"#utility.yul\":23750:23756   */\n      dup7\n        /* \"#utility.yul\":23706:23778   */\n      tag_561\n      jump\t// in\n    tag_625:\n        /* \"#utility.yul\":23788:23860   */\n      tag_626\n        /* \"#utility.yul\":23856:23858   */\n      0x60\n        /* \"#utility.yul\":23845:23854   */\n      dup4\n        /* \"#utility.yul\":23841:23859   */\n      add\n        /* \"#utility.yul\":23832:23838   */\n      dup6\n        /* \"#utility.yul\":23788:23860   */\n      tag_561\n      jump\t// in\n    tag_626:\n        /* \"#utility.yul\":23870:23943   */\n      tag_627\n        /* \"#utility.yul\":23938:23941   */\n      0x80\n        /* \"#utility.yul\":23927:23936   */\n      dup4\n        /* \"#utility.yul\":23923:23942   */\n      add\n        /* \"#utility.yul\":23914:23920   */\n      dup5\n        /* \"#utility.yul\":23870:23943   */\n      tag_561\n      jump\t// in\n    tag_627:\n        /* \"#utility.yul\":23195:23950   */\n      swap7\n      swap6\n      pop\n      pop\n      pop\n      pop\n      pop\n      pop\n      jump\t// out\n        /* \"#utility.yul\":23956:24085   */\n    tag_354:\n        /* \"#utility.yul\":23990:23996   */\n      0x00\n        /* \"#utility.yul\":24017:24037   */\n      tag_629\n      tag_630\n      jump\t// in\n    tag_629:\n        /* \"#utility.yul\":24007:24037   */\n      swap1\n      pop\n        /* \"#utility.yul\":24046:24079   */\n      tag_631\n        /* \"#utility.yul\":24074:24078   */\n      dup3\n        /* \"#utility.yul\":24066:24072   */\n      dup3\n        /* \"#utility.yul\":24046:24079   */\n      tag_632\n      jump\t// in\n    tag_631:\n        /* \"#utility.yul\":23956:24085   */\n      swap2\n      swap1\n      pop\n      jump\t// out\n        /* \"#utility.yul\":24091:24166   */\n    tag_630:\n        /* \"#utility.yul\":24124:24130   */\n      0x00\n        /* \"#utility.yul\":24157:24159   */\n      0x40\n        /* \"#utility.yul\":24151:24160   */\n      mload\n        /* \"#utility.yul\":24141:24160   */\n      swap1\n      pop\n        /* \"#utility.yul\":24091:24166   */\n      swap1\n      jump\t// out\n        /* \"#utility.yul\":24172:24480   */\n    tag_353:\n        /* \"#utility.yul\":24234:24238   */\n      0x00\n        /* \"#utility.yul\":24324:24342   */\n      0xffffffffffffffff\n        /* \"#utility.yul\":24316:24322   */\n      dup3\n        /* \"#utility.yul\":24313:24343   */\n      gt\n        /* \"#utility.yul\":24310:24366   */\n      iszero\n      tag_635\n      jumpi\n        /* \"#utility.yul\":24346:24364   */\n      tag_636\n      tag_241\n      jump\t// in\n    tag_636:\n        /* \"#utility.yul\":24310:24366   */\n    tag_635:\n        /* \"#utility.yul\":24384:24413   */\n      tag_637\n        /* \"#utility.yul\":24406:24412   */\n      dup3\n        /* \"#utility.yul\":24384:24413   */\n      tag_485\n      jump\t// in\n    tag_637:\n        /* \"#utility.yul\":24376:24413   */\n      swap1\n      pop\n        /* \"#utility.yul\":24468:24472   */\n      0x20\n        /* \"#utility.yul\":24462:24466   */\n      dup2\n        /* \"#utility.yul\":24458:24473   */\n      add\n        /* \"#utility.yul\":24450:24473   */\n      swap1\n      pop\n        /* \"#utility.yul\":24172:24480   */\n      swap2\n      swap1\n      pop\n      jump\t// out\n        /* \"#utility.yul\":24486:24618   */\n    tag_442:\n        /* \"#utility.yul\":24553:24557   */\n      0x00\n        /* \"#utility.yul\":24576:24579   */\n      dup2\n        /* \"#utility.yul\":24568:24579   */\n      swap1\n      pop\n        /* \"#utility.yul\":24606:24610   */\n      0x20\n        /* \"#utility.yul\":24601:24604   */\n      dup3\n        /* \"#utility.yul\":24597:24611   */\n      add\n        /* \"#utility.yul\":24589:24611   */\n      swap1\n      pop\n        /* \"#utility.yul\":24486:24618   */\n      swap2\n      swap1\n      pop\n      jump\t// out\n        /* \"#utility.yul\":24624:24738   */\n    tag_438:\n        /* \"#utility.yul\":24691:24697   */\n      0x00\n        /* \"#utility.yul\":24725:24730   */\n      dup2\n        /* \"#utility.yul\":24719:24731   */\n      mload\n        /* \"#utility.yul\":24709:24731   */\n      swap1\n      pop\n        /* \"#utility.yul\":24624:24738   */\n      swap2\n      swap1\n      pop\n      jump\t// out\n        /* \"#utility.yul\":24744:24842   */\n    tag_460:\n        /* \"#utility.yul\":24795:24801   */\n      0x00\n        /* \"#utility.yul\":24829:24834   */\n      dup2\n        /* \"#utility.yul\":24823:24835   */\n      mload\n        /* \"#utility.yul\":24813:24835   */\n      swap1\n      pop\n        /* \"#utility.yul\":24744:24842   */\n      swap2\n      swap1\n      pop\n      jump\t// out\n        /* \"#utility.yul\":24848:24947   */\n    tag_480:\n        /* \"#utility.yul\":24900:24906   */\n      0x00\n        /* \"#utility.yul\":24934:24939   */\n      dup2\n        /* \"#utility.yul\":24928:24940   */\n      mload\n        /* \"#utility.yul\":24918:24940   */\n      swap1\n      pop\n        /* \"#utility.yul\":24848:24947   */\n      swap2\n      swap1\n      pop\n      jump\t// out\n        /* \"#utility.yul\":24953:25066   */\n    tag_448:\n        /* \"#utility.yul\":25023:25027   */\n      0x00\n        /* \"#utility.yul\":25055:25059   */\n      0x20\n        /* \"#utility.yul\":25050:25053   */\n      dup3\n        /* \"#utility.yul\":25046:25060   */\n      add\n        /* \"#utility.yul\":25038:25060   */\n      swap1\n      pop\n        /* \"#utility.yul\":24953:25066   */\n      swap2\n      swap1\n      pop\n      jump\t// out\n        /* \"#utility.yul\":25072:25256   */\n    tag_440:\n        /* \"#utility.yul\":25171:25182   */\n      0x00\n        /* \"#utility.yul\":25205:25211   */\n      dup3\n        /* \"#utility.yul\":25200:25203   */\n      dup3\n        /* \"#utility.yul\":25193:25212   */\n      mstore\n        /* \"#utility.yul\":25245:25249   */\n      0x20\n        /* \"#utility.yul\":25240:25243   */\n      dup3\n        /* \"#utility.yul\":25236:25250   */\n      add\n        /* \"#utility.yul\":25221:25250   */\n      swap1\n      pop\n        /* \"#utility.yul\":25072:25256   */\n      swap3\n      swap2\n      pop\n      pop\n      jump\t// out\n        /* \"#utility.yul\":25262:25409   */\n    tag_462:\n        /* \"#utility.yul\":25363:25374   */\n      0x00\n        /* \"#utility.yul\":25400:25403   */\n      dup2\n        /* \"#utility.yul\":25385:25403   */\n      swap1\n      pop\n        /* \"#utility.yul\":25262:25409   */\n      swap3\n      swap2\n      pop\n      pop\n      jump\t// out\n        /* \"#utility.yul\":25415:25584   */\n    tag_482:\n        /* \"#utility.yul\":25499:25510   */\n      0x00\n        /* \"#utility.yul\":25533:25539   */\n      dup3\n        /* \"#utility.yul\":25528:25531   */\n      dup3\n        /* \"#utility.yul\":25521:25540   */\n      mstore\n        /* \"#utility.yul\":25573:25577   */\n      0x20\n        /* \"#utility.yul\":25568:25571   */\n      dup3\n        /* \"#utility.yul\":25564:25578   */\n      add\n        /* \"#utility.yul\":25549:25578   */\n      swap1\n      pop\n        /* \"#utility.yul\":25415:25584   */\n      swap3\n      swap2\n      pop\n      pop\n      jump\t// out\n        /* \"#utility.yul\":25590:25781   */\n    tag_140:\n        /* \"#utility.yul\":25630:25634   */\n      0x00\n        /* \"#utility.yul\":25650:25670   */\n      tag_647\n        /* \"#utility.yul\":25668:25669   */\n      dup3\n        /* \"#utility.yul\":25650:25670   */\n      tag_564\n      jump\t// in\n    tag_647:\n        /* \"#utility.yul\":25645:25670   */\n      swap2\n      pop\n        /* \"#utility.yul\":25684:25704   */\n      tag_648\n        /* \"#utility.yul\":25702:25703   */\n      dup4\n        /* \"#utility.yul\":25684:25704   */\n      tag_564\n      jump\t// in\n    tag_648:\n        /* \"#utility.yul\":25679:25704   */\n      swap3\n      pop\n        /* \"#utility.yul\":25723:25724   */\n      dup3\n        /* \"#utility.yul\":25720:25721   */\n      dup3\n        /* \"#utility.yul\":25717:25725   */\n      lt\n        /* \"#utility.yul\":25714:25748   */\n      iszero\n      tag_649\n      jumpi\n        /* \"#utility.yul\":25728:25746   */\n      tag_650\n      tag_651\n      jump\t// in\n    tag_650:\n        /* \"#utility.yul\":25714:25748   */\n    tag_649:\n        /* \"#utility.yul\":25773:25774   */\n      dup3\n        /* \"#utility.yul\":25770:25771   */\n      dup3\n        /* \"#utility.yul\":25766:25775   */\n      sub\n        /* \"#utility.yul\":25758:25775   */\n      swap1\n      pop\n        /* \"#utility.yul\":25590:25781   */\n      swap3\n      swap2\n      pop\n      pop\n      jump\t// out\n        /* \"#utility.yul\":25787:25883   */\n    tag_431:\n        /* \"#utility.yul\":25824:25831   */\n      0x00\n        /* \"#utility.yul\":25853:25877   */\n      tag_653\n        /* \"#utility.yul\":25871:25876   */\n      dup3\n        /* \"#utility.yul\":25853:25877   */\n      tag_654\n      jump\t// in\n    tag_653:\n        /* \"#utility.yul\":25842:25877   */\n      swap1\n      pop\n        /* \"#utility.yul\":25787:25883   */\n      swap2\n      swap1\n      pop\n      jump\t// out\n        /* \"#utility.yul\":25889:25979   */\n    tag_452:\n        /* \"#utility.yul\":25923:25930   */\n      0x00\n        /* \"#utility.yul\":25966:25971   */\n      dup2\n        /* \"#utility.yul\":25959:25972   */\n      iszero\n        /* \"#utility.yul\":25952:25973   */\n      iszero\n        /* \"#utility.yul\":25941:25973   */\n      swap1\n      pop\n        /* \"#utility.yul\":25889:25979   */\n      swap2\n      swap1\n      pop\n      jump\t// out\n        /* \"#utility.yul\":25985:26062   */\n    tag_456:\n        /* \"#utility.yul\":26022:26029   */\n      0x00\n        /* \"#utility.yul\":26051:26056   */\n      dup2\n        /* \"#utility.yul\":26040:26056   */\n      swap1\n      pop\n        /* \"#utility.yul\":25985:26062   */\n      swap2\n      swap1\n      pop\n      jump\t// out\n        /* \"#utility.yul\":26068:26215   */\n    tag_657:\n        /* \"#utility.yul\":26123:26130   */\n      0x00\n        /* \"#utility.yul\":26152:26157   */\n      dup2\n        /* \"#utility.yul\":26141:26157   */\n      swap1\n      pop\n        /* \"#utility.yul\":26158:26209   */\n      tag_659\n        /* \"#utility.yul\":26203:26208   */\n      dup3\n        /* \"#utility.yul\":26158:26209   */\n      tag_660\n      jump\t// in\n    tag_659:\n        /* \"#utility.yul\":26068:26215   */\n      swap2\n      swap1\n      pop\n      jump\t// out\n        /* \"#utility.yul\":26221:26354   */\n    tag_661:\n        /* \"#utility.yul\":26269:26276   */\n      0x00\n        /* \"#utility.yul\":26298:26303   */\n      dup2\n        /* \"#utility.yul\":26287:26303   */\n      swap1\n      pop\n        /* \"#utility.yul\":26304:26348   */\n      tag_663\n        /* \"#utility.yul\":26342:26347   */\n      dup3\n        /* \"#utility.yul\":26304:26348   */\n      tag_664\n      jump\t// in\n    tag_663:\n        /* \"#utility.yul\":26221:26354   */\n      swap2\n      swap1\n      pop\n      jump\t// out\n        /* \"#utility.yul\":26360:26486   */\n    tag_654:\n        /* \"#utility.yul\":26397:26404   */\n      0x00\n        /* \"#utility.yul\":26437:26479   */\n      0xffffffffffffffffffffffffffffffffffffffff\n        /* \"#utility.yul\":26430:26435   */\n      dup3\n        /* \"#utility.yul\":26426:26480   */\n      and\n        /* \"#utility.yul\":26415:26480   */\n      swap1\n      pop\n        /* \"#utility.yul\":26360:26486   */\n      swap2\n      swap1\n      pop\n      jump\t// out\n        /* \"#utility.yul\":26492:26569   */\n    tag_564:\n        /* \"#utility.yul\":26529:26536   */\n      0x00\n        /* \"#utility.yul\":26558:26563   */\n      dup2\n        /* \"#utility.yul\":26547:26563   */\n      swap1\n      pop\n        /* \"#utility.yul\":26492:26569   */\n      swap2\n      swap1\n      pop\n      jump\t// out\n        /* \"#utility.yul\":26575:26724   */\n    tag_468:\n        /* \"#utility.yul\":26648:26657   */\n      0x00\n        /* \"#utility.yul\":26681:26718   */\n      tag_668\n        /* \"#utility.yul\":26712:26717   */\n      dup3\n        /* \"#utility.yul\":26681:26718   */\n      tag_669\n      jump\t// in\n    tag_668:\n        /* \"#utility.yul\":26668:26718   */\n      swap1\n      pop\n        /* \"#utility.yul\":26575:26724   */\n      swap2\n      swap1\n      pop\n      jump\t// out\n        /* \"#utility.yul\":26730:26877   */\n    tag_472:\n        /* \"#utility.yul\":26796:26805   */\n      0x00\n        /* \"#utility.yul\":26829:26871   */\n      tag_671\n        /* \"#utility.yul\":26865:26870   */\n      dup3\n        /* \"#utility.yul\":26829:26871   */\n      tag_657\n      jump\t// in\n    tag_671:\n        /* \"#utility.yul\":26816:26871   */\n      swap1\n      pop\n        /* \"#utility.yul\":26730:26877   */\n      swap2\n      swap1\n      pop\n      jump\t// out\n        /* \"#utility.yul\":26883:27016   */\n    tag_476:\n        /* \"#utility.yul\":26942:26951   */\n      0x00\n        /* \"#utility.yul\":26975:27010   */\n      tag_673\n        /* \"#utility.yul\":27004:27009   */\n      dup3\n        /* \"#utility.yul\":26975:27010   */\n      tag_661\n      jump\t// in\n    tag_673:\n        /* \"#utility.yul\":26962:27010   */\n      swap1\n      pop\n        /* \"#utility.yul\":26883:27016   */\n      swap2\n      swap1\n      pop\n      jump\t// out\n        /* \"#utility.yul\":27022:27148   */\n    tag_669:\n        /* \"#utility.yul\":27072:27081   */\n      0x00\n        /* \"#utility.yul\":27105:27142   */\n      tag_675\n        /* \"#utility.yul\":27136:27141   */\n      dup3\n        /* \"#utility.yul\":27105:27142   */\n      tag_676\n      jump\t// in\n    tag_675:\n        /* \"#utility.yul\":27092:27142   */\n      swap1\n      pop\n        /* \"#utility.yul\":27022:27148   */\n      swap2\n      swap1\n      pop\n      jump\t// out\n        /* \"#utility.yul\":27154:27267   */\n    tag_676:\n        /* \"#utility.yul\":27204:27213   */\n      0x00\n        /* \"#utility.yul\":27237:27261   */\n      tag_678\n        /* \"#utility.yul\":27255:27260   */\n      dup3\n        /* \"#utility.yul\":27237:27261   */\n      tag_654\n      jump\t// in\n    tag_678:\n        /* \"#utility.yul\":27224:27261   */\n      swap1\n      pop\n        /* \"#utility.yul\":27154:27267   */\n      swap2\n      swap1\n      pop\n      jump\t// out\n        /* \"#utility.yul\":27273:27427   */\n    tag_359:\n        /* \"#utility.yul\":27357:27363   */\n      dup3\n        /* \"#utility.yul\":27352:27355   */\n      dup2\n        /* \"#utility.yul\":27347:27350   */\n      dup4\n        /* \"#utility.yul\":27334:27364   */\n      calldatacopy\n        /* \"#utility.yul\":27419:27420   */\n      0x00\n        /* \"#utility.yul\":27410:27416   */\n      dup4\n        /* \"#utility.yul\":27405:27408   */\n      dup4\n        /* \"#utility.yul\":27401:27417   */\n      add\n        /* \"#utility.yul\":27394:27421   */\n      mstore\n        /* \"#utility.yul\":27273:27427   */\n      pop\n      pop\n      pop\n      jump\t// out\n        /* \"#utility.yul\":27433:27740   */\n    tag_464:\n        /* \"#utility.yul\":27501:27502   */\n      0x00\n        /* \"#utility.yul\":27511:27624   */\n    tag_681:\n        /* \"#utility.yul\":27525:27531   */\n      dup4\n        /* \"#utility.yul\":27522:27523   */\n      dup2\n        /* \"#utility.yul\":27519:27532   */\n      lt\n        /* \"#utility.yul\":27511:27624   */\n      iszero\n      tag_683\n      jumpi\n        /* \"#utility.yul\":27610:27611   */\n      dup1\n        /* \"#utility.yul\":27605:27608   */\n      dup3\n        /* \"#utility.yul\":27601:27612   */\n      add\n        /* \"#utility.yul\":27595:27613   */\n      mload\n        /* \"#utility.yul\":27591:27592   */\n      dup2\n        /* \"#utility.yul\":27586:27589   */\n      dup5\n        /* \"#utility.yul\":27582:27593   */\n      add\n        /* \"#utility.yul\":27575:27614   */\n      mstore\n        /* \"#utility.yul\":27547:27549   */\n      0x20\n        /* \"#utility.yul\":27544:27545   */\n      dup2\n        /* \"#utility.yul\":27540:27550   */\n      add\n        /* \"#utility.yul\":27535:27550   */\n      swap1\n      pop\n        /* \"#utility.yul\":27511:27624   */\n      jump(tag_681)\n    tag_683:\n        /* \"#utility.yul\":27642:27648   */\n      dup4\n        /* \"#utility.yul\":27639:27640   */\n      dup2\n        /* \"#utility.yul\":27636:27649   */\n      gt\n        /* \"#utility.yul\":27633:27734   */\n      iszero\n      tag_684\n      jumpi\n        /* \"#utility.yul\":27722:27723   */\n      0x00\n        /* \"#utility.yul\":27713:27719   */\n      dup5\n        /* \"#utility.yul\":27708:27711   */\n      dup5\n        /* \"#utility.yul\":27704:27720   */\n      add\n        /* \"#utility.yul\":27697:27724   */\n      mstore\n        /* \"#utility.yul\":27633:27734   */\n    tag_684:\n        /* \"#utility.yul\":27482:27740   */\n      pop\n        /* \"#utility.yul\":27433:27740   */\n      pop\n      pop\n      pop\n      jump\t// out\n        /* \"#utility.yul\":27746:27917   */\n    tag_220:\n        /* \"#utility.yul\":27785:27788   */\n      0x00\n        /* \"#utility.yul\":27808:27832   */\n      tag_686\n        /* \"#utility.yul\":27826:27831   */\n      dup3\n        /* \"#utility.yul\":27808:27832   */\n      tag_564\n      jump\t// in\n    tag_686:\n        /* \"#utility.yul\":27799:27832   */\n      swap2\n      pop\n        /* \"#utility.yul\":27854:27858   */\n      0x00\n        /* \"#utility.yul\":27847:27852   */\n      dup3\n        /* \"#utility.yul\":27844:27859   */\n      eq\n        /* \"#utility.yul\":27841:27882   */\n      iszero\n      tag_687\n      jumpi\n        /* \"#utility.yul\":27862:27880   */\n      tag_688\n      tag_651\n      jump\t// in\n    tag_688:\n        /* \"#utility.yul\":27841:27882   */\n    tag_687:\n        /* \"#utility.yul\":27909:27910   */\n      0x01\n        /* \"#utility.yul\":27902:27907   */\n      dup3\n        /* \"#utility.yul\":27898:27911   */\n      sub\n        /* \"#utility.yul\":27891:27911   */\n      swap1\n      pop\n        /* \"#utility.yul\":27746:27917   */\n      swap2\n      swap1\n      pop\n      jump\t// out\n        /* \"#utility.yul\":27923:28243   */\n    tag_258:\n        /* \"#utility.yul\":27967:27973   */\n      0x00\n        /* \"#utility.yul\":28004:28005   */\n      0x02\n        /* \"#utility.yul\":27998:28002   */\n      dup3\n        /* \"#utility.yul\":27994:28006   */\n      div\n        /* \"#utility.yul\":27984:28006   */\n      swap1\n      pop\n        /* \"#utility.yul\":28051:28052   */\n      0x01\n        /* \"#utility.yul\":28045:28049   */\n      dup3\n        /* \"#utility.yul\":28041:28053   */\n      and\n        /* \"#utility.yul\":28072:28090   */\n      dup1\n        /* \"#utility.yul\":28062:28143   */\n      tag_690\n      jumpi\n        /* \"#utility.yul\":28128:28132   */\n      0x7f\n        /* \"#utility.yul\":28120:28126   */\n      dup3\n        /* \"#utility.yul\":28116:28133   */\n      and\n        /* \"#utility.yul\":28106:28133   */\n      swap2\n      pop\n        /* \"#utility.yul\":28062:28143   */\n    tag_690:\n        /* \"#utility.yul\":28190:28192   */\n      0x20\n        /* \"#utility.yul\":28182:28188   */\n      dup3\n        /* \"#utility.yul\":28179:28193   */\n      lt\n        /* \"#utility.yul\":28159:28177   */\n      dup2\n        /* \"#utility.yul\":28156:28194   */\n      eq\n        /* \"#utility.yul\":28153:28237   */\n      iszero\n      tag_691\n      jumpi\n        /* \"#utility.yul\":28209:28227   */\n      tag_692\n      tag_693\n      jump\t// in\n    tag_692:\n        /* \"#utility.yul\":28153:28237   */\n    tag_691:\n        /* \"#utility.yul\":27974:28243   */\n      pop\n        /* \"#utility.yul\":27923:28243   */\n      swap2\n      swap1\n      pop\n      jump\t// out\n        /* \"#utility.yul\":28249:28530   */\n    tag_632:\n        /* \"#utility.yul\":28332:28359   */\n      tag_695\n        /* \"#utility.yul\":28354:28358   */\n      dup3\n        /* \"#utility.yul\":28332:28359   */\n      tag_485\n      jump\t// in\n    tag_695:\n        /* \"#utility.yul\":28324:28330   */\n      dup2\n        /* \"#utility.yul\":28320:28360   */\n      add\n        /* \"#utility.yul\":28462:28468   */\n      dup2\n        /* \"#utility.yul\":28450:28460   */\n      dup2\n        /* \"#utility.yul\":28447:28469   */\n      lt\n        /* \"#utility.yul\":28426:28444   */\n      0xffffffffffffffff\n        /* \"#utility.yul\":28414:28424   */\n      dup3\n        /* \"#utility.yul\":28411:28445   */\n      gt\n        /* \"#utility.yul\":28408:28470   */\n      or\n        /* \"#utility.yul\":28405:28493   */\n      iszero\n      tag_696\n      jumpi\n        /* \"#utility.yul\":28473:28491   */\n      tag_697\n      tag_241\n      jump\t// in\n    tag_697:\n        /* \"#utility.yul\":28405:28493   */\n    tag_696:\n        /* \"#utility.yul\":28513:28523   */\n      dup1\n        /* \"#utility.yul\":28509:28511   */\n      0x40\n        /* \"#utility.yul\":28502:28524   */\n      mstore\n        /* \"#utility.yul\":28292:28530   */\n      pop\n        /* \"#utility.yul\":28249:28530   */\n      pop\n      pop\n      jump\t// out\n        /* \"#utility.yul\":28536:28769   */\n    tag_148:\n        /* \"#utility.yul\":28575:28578   */\n      0x00\n        /* \"#utility.yul\":28598:28622   */\n      tag_699\n        /* \"#utility.yul\":28616:28621   */\n      dup3\n        /* \"#utility.yul\":28598:28622   */\n      tag_564\n      jump\t// in\n    tag_699:\n        /* \"#utility.yul\":28589:28622   */\n      swap2\n      pop\n        /* \"#utility.yul\":28644:28710   */\n      0xffffffffffffffffffffffffffffffffffffffffffffffffffffffffffffffff\n        /* \"#utility.yul\":28637:28642   */\n      dup3\n        /* \"#utility.yul\":28634:28711   */\n      eq\n        /* \"#utility.yul\":28631:28734   */\n      iszero\n      tag_700\n      jumpi\n        /* \"#utility.yul\":28714:28732   */\n      tag_701\n      tag_651\n      jump\t// in\n    tag_701:\n        /* \"#utility.yul\":28631:28734   */\n    tag_700:\n        /* \"#utility.yul\":28761:28762   */\n      0x01\n        /* \"#utility.yul\":28754:28759   */\n      dup3\n        /* \"#utility.yul\":28750:28763   */\n      add\n        /* \"#utility.yul\":28743:28763   */\n      swap1\n      pop\n        /* \"#utility.yul\":28536:28769   */\n      swap2\n      swap1\n      pop\n      jump\t// out\n        /* \"#utility.yul\":28775:28955   */\n    tag_651:\n        /* \"#utility.yul\":28823:28900   */\n      0x4e487b7100000000000000000000000000000000000000000000000000000000\n        /* \"#utility.yul\":28820:28821   */\n      0x00\n        /* \"#utility.yul\":28813:28901   */\n      mstore\n        /* \"#utility.yul\":28920:28924   */\n      0x11\n        /* \"#utility.yul\":28917:28918   */\n      0x04\n        /* \"#utility.yul\":28910:28925   */\n      mstore\n        /* \"#utility.yul\":28944:28948   */\n      0x24\n        /* \"#utility.yul\":28941:28942   */\n      0x00\n        /* \"#utility.yul\":28934:28949   */\n      revert\n        /* \"#utility.yul\":28961:29141   */\n    tag_107:\n        /* \"#utility.yul\":29009:29086   */\n      0x4e487b7100000000000000000000000000000000000000000000000000000000\n        /* \"#utility.yul\":29006:29007   */\n      0x00\n        /* \"#utility.yul\":28999:29087   */\n      mstore\n        /* \"#utility.yul\":29106:29110   */\n      0x21\n        /* \"#utility.yul\":29103:29104   */\n      0x04\n        /* \"#utility.yul\":29096:29111   */\n      mstore\n        /* \"#utility.yul\":29130:29134   */\n      0x24\n        /* \"#utility.yul\":29127:29128   */\n      0x00\n        /* \"#utility.yul\":29120:29135   */\n      revert\n        /* \"#utility.yul\":29147:29327   */\n    tag_693:\n        /* \"#utility.yul\":29195:29272   */\n      0x4e487b7100000000000000000000000000000000000000000000000000000000\n        /* \"#utility.yul\":29192:29193   */\n      0x00\n        /* \"#utility.yul\":29185:29273   */\n      mstore\n        /* \"#utility.yul\":29292:29296   */\n      0x22\n        /* \"#utility.yul\":29289:29290   */\n      0x04\n        /* \"#utility.yul\":29282:29297   */\n      mstore\n        /* \"#utility.yul\":29316:29320   */\n      0x24\n        /* \"#utility.yul\":29313:29314   */\n      0x00\n        /* \"#utility.yul\":29306:29321   */\n      revert\n        /* \"#utility.yul\":29333:29513   */\n    tag_119:\n        /* \"#utility.yul\":29381:29458   */\n      0x4e487b7100000000000000000000000000000000000000000000000000000000\n        /* \"#utility.yul\":29378:29379   */\n      0x00\n        /* \"#utility.yul\":29371:29459   */\n      mstore\n        /* \"#utility.yul\":29478:29482   */\n      0x32\n        /* \"#utility.yul\":29475:29476   */\n      0x04\n        /* \"#utility.yul\":29468:29483   */\n      mstore\n        /* \"#utility.yul\":29502:29506   */\n      0x24\n        /* \"#utility.yul\":29499:29500   */\n      0x00\n        /* \"#utility.yul\":29492:29507   */\n      revert\n        /* \"#utility.yul\":29519:29699   */\n    tag_241:\n        /* \"#utility.yul\":29567:29644   */\n      0x4e487b7100000000000000000000000000000000000000000000000000000000\n        /* \"#utility.yul\":29564:29565   */\n      0x00\n        /* \"#utility.yul\":29557:29645   */\n      mstore\n        /* \"#utility.yul\":29664:29668   */\n      0x41\n        /* \"#utility.yul\":29661:29662   */\n      0x04\n        /* \"#utility.yul\":29654:29669   */\n      mstore\n        /* \"#utility.yul\":29688:29692   */\n      0x24\n        /* \"#utility.yul\":29685:29686   */\n      0x00\n        /* \"#utility.yul\":29678:29693   */\n      revert\n        /* \"#utility.yul\":29705:29822   */\n    tag_374:\n        /* \"#utility.yul\":29814:29815   */\n      0x00\n        /* \"#utility.yul\":29811:29812   */\n      dup1\n        /* \"#utility.yul\":29804:29816   */\n      revert\n        /* \"#utility.yul\":29828:29945   */\n    tag_371:\n        /* \"#utility.yul\":29937:29938   */\n      0x00\n        /* \"#utility.yul\":29934:29935   */\n      dup1\n        /* \"#utility.yul\":29927:29939   */\n      revert\n        /* \"#utility.yul\":29951:30068   */\n    tag_377:\n        /* \"#utility.yul\":30060:30061   */\n      0x00\n        /* \"#utility.yul\":30057:30058   */\n      dup1\n        /* \"#utility.yul\":30050:30062   */\n      revert\n        /* \"#utility.yul\":30074:30191   */\n    tag_357:\n        /* \"#utility.yul\":30183:30184   */\n      0x00\n        /* \"#utility.yul\":30180:30181   */\n      dup1\n        /* \"#utility.yul\":30173:30185   */\n      revert\n        /* \"#utility.yul\":30197:30314   */\n    tag_405:\n        /* \"#utility.yul\":30306:30307   */\n      0x00\n        /* \"#utility.yul\":30303:30304   */\n      dup1\n        /* \"#utility.yul\":30296:30308   */\n      revert\n        /* \"#utility.yul\":30320:30437   */\n    tag_394:\n        /* \"#utility.yul\":30429:30430   */\n      0x00\n        /* \"#utility.yul\":30426:30427   */\n      dup1\n        /* \"#utility.yul\":30419:30431   */\n      revert\n        /* \"#utility.yul\":30443:30545   */\n    tag_485:\n        /* \"#utility.yul\":30484:30490   */\n      0x00\n        /* \"#utility.yul\":30535:30537   */\n      0x1f\n        /* \"#utility.yul\":30531:30538   */\n      not\n        /* \"#utility.yul\":30526:30528   */\n      0x1f\n        /* \"#utility.yul\":30519:30524   */\n      dup4\n        /* \"#utility.yul\":30515:30529   */\n      add\n        /* \"#utility.yul\":30511:30539   */\n      and\n        /* \"#utility.yul\":30501:30539   */\n      swap1\n      pop\n        /* \"#utility.yul\":30443:30545   */\n      swap2\n      swap1\n      pop\n      jump\t// out\n        /* \"#utility.yul\":30551:30706   */\n    tag_490:\n        /* \"#utility.yul\":30691:30698   */\n      0x4164646564000000000000000000000000000000000000000000000000000000\n        /* \"#utility.yul\":30687:30688   */\n      0x00\n        /* \"#utility.yul\":30679:30685   */\n      dup3\n        /* \"#utility.yul\":30675:30689   */\n      add\n        /* \"#utility.yul\":30668:30699   */\n      mstore\n        /* \"#utility.yul\":30551:30706   */\n      pop\n      jump\t// out\n        /* \"#utility.yul\":30712:30879   */\n    tag_495:\n        /* \"#utility.yul\":30852:30871   */\n      0x4d433a204f6e6c79204c65637475726572000000000000000000000000000000\n        /* \"#utility.yul\":30848:30849   */\n      0x00\n        /* \"#utility.yul\":30840:30846   */\n      dup3\n        /* \"#utility.yul\":30836:30850   */\n      add\n        /* \"#utility.yul\":30829:30872   */\n      mstore\n        /* \"#utility.yul\":30712:30879   */\n      pop\n      jump\t// out\n        /* \"#utility.yul\":30885:31052   */\n    tag_500:\n        /* \"#utility.yul\":31025:31044   */\n      0x4572726f72207768656e2072656d6f7665000000000000000000000000000000\n        /* \"#utility.yul\":31021:31022   */\n      0x00\n        /* \"#utility.yul\":31013:31019   */\n      dup3\n        /* \"#utility.yul\":31009:31023   */\n      add\n        /* \"#utility.yul\":31002:31045   */\n      mstore\n        /* \"#utility.yul\":30885:31052   */\n      pop\n      jump\t// out\n        /* \"#utility.yul\":31058:31228   */\n    tag_505:\n        /* \"#utility.yul\":31198:31220   */\n      0x54433a20596f7520706169642074756974696f6e000000000000000000000000\n        /* \"#utility.yul\":31194:31195   */\n      0x00\n        /* \"#utility.yul\":31186:31192   */\n      dup3\n        /* \"#utility.yul\":31182:31196   */\n      add\n        /* \"#utility.yul\":31175:31221   */\n      mstore\n        /* \"#utility.yul\":31058:31228   */\n      pop\n      jump\t// out\n        /* \"#utility.yul\":31234:31400   */\n    tag_510:\n        /* \"#utility.yul\":31374:31392   */\n      0x4d433a204f6e6c792053747564656e7400000000000000000000000000000000\n        /* \"#utility.yul\":31370:31371   */\n      0x00\n        /* \"#utility.yul\":31362:31368   */\n      dup3\n        /* \"#utility.yul\":31358:31372   */\n      add\n        /* \"#utility.yul\":31351:31393   */\n      mstore\n        /* \"#utility.yul\":31234:31400   */\n      pop\n      jump\t// out\n        /* \"#utility.yul\":31406:31569   */\n    tag_515:\n        /* \"#utility.yul\":31546:31561   */\n      0x4d433a204f6e6c79204f70656e00000000000000000000000000000000000000\n        /* \"#utility.yul\":31542:31543   */\n      0x00\n        /* \"#utility.yul\":31534:31540   */\n      dup3\n        /* \"#utility.yul\":31530:31544   */\n      add\n        /* \"#utility.yul\":31523:31562   */\n      mstore\n        /* \"#utility.yul\":31406:31569   */\n      pop\n      jump\t// out\n        /* \"#utility.yul\":31575:31800   */\n    tag_520:\n        /* \"#utility.yul\":31715:31749   */\n      0x416464726573733a20696e73756666696369656e742062616c616e636520666f\n        /* \"#utility.yul\":31711:31712   */\n      0x00\n        /* \"#utility.yul\":31703:31709   */\n      dup3\n        /* \"#utility.yul\":31699:31713   */\n      add\n        /* \"#utility.yul\":31692:31750   */\n      mstore\n        /* \"#utility.yul\":31784:31792   */\n      0x722063616c6c0000000000000000000000000000000000000000000000000000\n        /* \"#utility.yul\":31779:31781   */\n      0x20\n        /* \"#utility.yul\":31771:31777   */\n      dup3\n        /* \"#utility.yul\":31767:31782   */\n      add\n        /* \"#utility.yul\":31760:31793   */\n      mstore\n        /* \"#utility.yul\":31575:31800   */\n      pop\n      jump\t// out\n        /* \"#utility.yul\":31806:31975   */\n    tag_525:\n        /* \"#utility.yul\":31946:31967   */\n      0x4d433a2054696d6520697320696e76616c696400000000000000000000000000\n        /* \"#utility.yul\":31942:31943   */\n      0x00\n        /* \"#utility.yul\":31934:31940   */\n      dup3\n        /* \"#utility.yul\":31930:31944   */\n      add\n        /* \"#utility.yul\":31923:31968   */\n      mstore\n        /* \"#utility.yul\":31806:31975   */\n      pop\n      jump\t// out\n        /* \"#utility.yul\":31981:32154   */\n    tag_530:\n        /* \"#utility.yul\":32121:32146   */\n      0x53686f756c64206f6e6c79206164642073747564656e74000000000000000000\n        /* \"#utility.yul\":32117:32118   */\n      0x00\n        /* \"#utility.yul\":32109:32115   */\n      dup3\n        /* \"#utility.yul\":32105:32119   */\n      add\n        /* \"#utility.yul\":32098:32147   */\n      mstore\n        /* \"#utility.yul\":31981:32154   */\n      pop\n      jump\t// out\n        /* \"#utility.yul\":32160:32323   */\n    tag_535:\n        /* \"#utility.yul\":32300:32315   */\n      0x4d433a204f6e6c79204c6f636b00000000000000000000000000000000000000\n        /* \"#utility.yul\":32296:32297   */\n      0x00\n        /* \"#utility.yul\":32288:32294   */\n      dup3\n        /* \"#utility.yul\":32284:32298   */\n      add\n        /* \"#utility.yul\":32277:32316   */\n      mstore\n        /* \"#utility.yul\":32160:32323   */\n      pop\n      jump\t// out\n        /* \"#utility.yul\":32329:32508   */\n    tag_540:\n        /* \"#utility.yul\":32469:32500   */\n      0x416464726573733a2063616c6c20746f206e6f6e2d636f6e7472616374000000\n        /* \"#utility.yul\":32465:32466   */\n      0x00\n        /* \"#utility.yul\":32457:32463   */\n      dup3\n        /* \"#utility.yul\":32453:32467   */\n      add\n        /* \"#utility.yul\":32446:32501   */\n      mstore\n        /* \"#utility.yul\":32329:32508   */\n      pop\n      jump\t// out\n        /* \"#utility.yul\":32514:32735   */\n    tag_545:\n        /* \"#utility.yul\":32654:32688   */\n      0x4d433a2041776172642073686f756c642067726561746572207468616e205a65\n        /* \"#utility.yul\":32650:32651   */\n      0x00\n        /* \"#utility.yul\":32642:32648   */\n      dup3\n        /* \"#utility.yul\":32638:32652   */\n      add\n        /* \"#utility.yul\":32631:32689   */\n      mstore\n        /* \"#utility.yul\":32723:32727   */\n      0x726f000000000000000000000000000000000000000000000000000000000000\n        /* \"#utility.yul\":32718:32720   */\n      0x20\n        /* \"#utility.yul\":32710:32716   */\n      dup3\n        /* \"#utility.yul\":32706:32721   */\n      add\n        /* \"#utility.yul\":32699:32728   */\n      mstore\n        /* \"#utility.yul\":32514:32735   */\n      pop\n      jump\t// out\n        /* \"#utility.yul\":32741:32914   */\n    tag_550:\n        /* \"#utility.yul\":32881:32906   */\n      0x54433a20596f7520617265206e6f7420696e206c697374000000000000000000\n        /* \"#utility.yul\":32877:32878   */\n      0x00\n        /* \"#utility.yul\":32869:32875   */\n      dup3\n        /* \"#utility.yul\":32865:32879   */\n      add\n        /* \"#utility.yul\":32858:32907   */\n      mstore\n        /* \"#utility.yul\":32741:32914   */\n      pop\n      jump\t// out\n        /* \"#utility.yul\":32920:33149   */\n    tag_555:\n        /* \"#utility.yul\":33060:33094   */\n      0x5361666545524332303a204552433230206f7065726174696f6e20646964206e\n        /* \"#utility.yul\":33056:33057   */\n      0x00\n        /* \"#utility.yul\":33048:33054   */\n      dup3\n        /* \"#utility.yul\":33044:33058   */\n      add\n        /* \"#utility.yul\":33037:33095   */\n      mstore\n        /* \"#utility.yul\":33129:33141   */\n      0x6f74207375636365656400000000000000000000000000000000000000000000\n        /* \"#utility.yul\":33124:33126   */\n      0x20\n        /* \"#utility.yul\":33116:33122   */\n      dup3\n        /* \"#utility.yul\":33112:33127   */\n      add\n        /* \"#utility.yul\":33105:33142   */\n      mstore\n        /* \"#utility.yul\":32920:33149   */\n      pop\n      jump\t// out\n        /* \"#utility.yul\":33155:33315   */\n    tag_560:\n        /* \"#utility.yul\":33295:33307   */\n      0x4f6e6c79204f776e657200000000000000000000000000000000000000000000\n        /* \"#utility.yul\":33291:33292   */\n      0x00\n        /* \"#utility.yul\":33283:33289   */\n      dup3\n        /* \"#utility.yul\":33279:33293   */\n      add\n        /* \"#utility.yul\":33272:33308   */\n      mstore\n        /* \"#utility.yul\":33155:33315   */\n      pop\n      jump\t// out\n        /* \"#utility.yul\":33321:33444   */\n    tag_660:\n        /* \"#utility.yul\":33412:33413   */\n      0x02\n        /* \"#utility.yul\":33405:33410   */\n      dup2\n        /* \"#utility.yul\":33402:33414   */\n      lt\n        /* \"#utility.yul\":33392:33438   */\n      tag_730\n      jumpi\n        /* \"#utility.yul\":33418:33436   */\n      tag_731\n      tag_107\n      jump\t// in\n    tag_731:\n        /* \"#utility.yul\":33392:33438   */\n    tag_730:\n        /* \"#utility.yul\":33321:33444   */\n      pop\n      jump\t// out\n        /* \"#utility.yul\":33450:33566   */\n    tag_664:\n        /* \"#utility.yul\":33534:33535   */\n      0x03\n        /* \"#utility.yul\":33527:33532   */\n      dup2\n        /* \"#utility.yul\":33524:33536   */\n      lt\n        /* \"#utility.yul\":33514:33560   */\n      tag_733\n      jumpi\n        /* \"#utility.yul\":33540:33558   */\n      tag_734\n      tag_107\n      jump\t// in\n    tag_734:\n        /* \"#utility.yul\":33514:33560   */\n    tag_733:\n        /* \"#utility.yul\":33450:33566   */\n      pop\n      jump\t// out\n        /* \"#utility.yul\":33572:33694   */\n    tag_363:\n        /* \"#utility.yul\":33645:33669   */\n      tag_736\n        /* \"#utility.yul\":33663:33668   */\n      dup2\n        /* \"#utility.yul\":33645:33669   */\n      tag_431\n      jump\t// in\n    tag_736:\n        /* \"#utility.yul\":33638:33643   */\n      dup2\n        /* \"#utility.yul\":33635:33670   */\n      eq\n        /* \"#utility.yul\":33625:33688   */\n      tag_737\n      jumpi\n        /* \"#utility.yul\":33684:33685   */\n      0x00\n        /* \"#utility.yul\":33681:33682   */\n      dup1\n        /* \"#utility.yul\":33674:33686   */\n      revert\n        /* \"#utility.yul\":33625:33688   */\n    tag_737:\n        /* \"#utility.yul\":33572:33694   */\n      pop\n      jump\t// out\n        /* \"#utility.yul\":33700:33816   */\n    tag_381:\n        /* \"#utility.yul\":33770:33791   */\n      tag_739\n        /* \"#utility.yul\":33785:33790   */\n      dup2\n        /* \"#utility.yul\":33770:33791   */\n      tag_452\n      jump\t// in\n    tag_739:\n        /* \"#utility.yul\":33763:33768   */\n      dup2\n        /* \"#utility.yul\":33760:33792   */\n      eq\n        /* \"#utility.yul\":33750:33810   */\n      tag_740\n      jumpi\n        /* \"#utility.yul\":33806:33807   */\n      0x00\n        /* \"#utility.yul\":33803:33804   */\n      dup1\n        /* \"#utility.yul\":33796:33808   */\n      revert\n        /* \"#utility.yul\":33750:33810   */\n    tag_740:\n        /* \"#utility.yul\":33700:33816   */\n      pop\n      jump\t// out\n        /* \"#utility.yul\":33822:33944   */\n    tag_390:\n        /* \"#utility.yul\":33895:33919   */\n      tag_742\n        /* \"#utility.yul\":33913:33918   */\n      dup2\n        /* \"#utility.yul\":33895:33919   */\n      tag_564\n      jump\t// in\n    tag_742:\n        /* \"#utility.yul\":33888:33893   */\n      dup2\n        /* \"#utility.yul\":33885:33920   */\n      eq\n        /* \"#utility.yul\":33875:33938   */\n      tag_743\n      jumpi\n        /* \"#utility.yul\":33934:33935   */\n      0x00\n        /* \"#utility.yul\":33931:33932   */\n      dup1\n        /* \"#utility.yul\":33924:33936   */\n      revert\n        /* \"#utility.yul\":33875:33938   */\n    tag_743:\n        /* \"#utility.yul\":33822:33944   */\n      pop\n      jump\t// out\n\n    auxdata: 0xa2646970667358221220cd360bd8d5666ae2a2f33cc4f3e0149c9ec8353523fe57a8f6a7dd83afb9ec7964736f6c63430008070033\n}\n",
				"bytecode": {
					"linkReferences": {},
					"object": "60a06040526000600560006101000a81548160ff021916908360028111156200002d576200002c620001ce565b5b02179055503480156200003f57600080fd5b50604051620032963803806200329683398181016040528101906200006591906200013e565b8273ffffffffffffffffffffffffffffffffffffffff1660808173ffffffffffffffffffffffffffffffffffffffff1660601b8152505081600560016101000a81548173ffffffffffffffffffffffffffffffffffffffff021916908373ffffffffffffffffffffffffffffffffffffffff16021790555080600660006101000a81548173ffffffffffffffffffffffffffffffffffffffff021916908373ffffffffffffffffffffffffffffffffffffffff1602179055505050506200021c565b600081519050620001388162000202565b92915050565b6000806000606084860312156200015a5762000159620001fd565b5b60006200016a8682870162000127565b93505060206200017d8682870162000127565b9250506040620001908682870162000127565b9150509250925092565b6000620001a782620001ae565b9050919050565b600073ffffffffffffffffffffffffffffffffffffffff82169050919050565b7f4e487b7100000000000000000000000000000000000000000000000000000000600052602160045260246000fd5b600080fd5b6200020d816200019a565b81146200021957600080fd5b50565b60805160601c613046620002506000396000818161088401528181610ae10152818161122901526117f301526130466000f3fe608060405234801561001057600080fd5b50600436106101215760003560e01c8063a32fb342116100ad578063acc2166a11610071578063acc2166a146102b0578063b1319f41146102ce578063be9a6555146102fe578063d95fe6a014610308578063ed214fff1461033857610121565b8063a32fb34214610204578063a7f44e0d14610234578063a8a86c1014610252578063aa4936ce14610274578063aa8c217c1461029257610121565b806343d726d6116100f457806343d726d6146101ac578063633d8390146101b6578063727cb110146101c05780638da5cb5b146101dc5780639846a1a0146101fa57610121565b806304227ab81461012657806308003d6b14610142578063200d2ed21461015e57806335c1d3491461017c575b600080fd5b610140600480360381019061013b919061207b565b610356565b005b61015c60048036038101906101579190612122565b610882565b005b610166610a8d565b604051610173919061263f565b60405180910390f35b610196600480360381019061019191906120f5565b610aa0565b6040516101a39190612535565b60405180910390f35b6101b4610adf565b005b6101be610be2565b005b6101da60048036038101906101d59190612021565b610f96565b005b6101e4611227565b6040516101f19190612535565b60405180910390f35b61020261124b565b005b61021e60048036038101906102199190612021565b611506565b60405161022b91906125e0565b60405180910390f35b61023c611526565b60405161024991906125be565b60405180910390f35b61025a6116d3565b60405161026b959493929190612877565b60405180910390f35b61027c61177f565b6040516102899190612624565b60405180910390f35b61029a6117a5565b6040516102a7919061285c565b60405180910390f35b6102b86117ab565b6040516102c59190612535565b60405180910390f35b6102e860048036038101906102e39190612021565b6117d1565b6040516102f591906125e0565b60405180910390f35b6103066117f1565b005b610322600480360381019061031d9190612021565b611922565b60405161032f919061285c565b60405180910390f35b61034061193a565b60405161034d91906125be565b60405180910390f35b600560019054906101000a900473ffffffffffffffffffffffffffffffffffffffff1673ffffffffffffffffffffffffffffffffffffffff166391d148547fdf8b4c520ffe197c5343c6f5aec59570151ef9a492f2c624fd45ddde6135ec42336040518363ffffffff1660e01b81526004016103d39291906125fb565b60206040518083038186803b1580156103eb57600080fd5b505afa1580156103ff573d6000803e3d6000fd5b505050506040513d601f19601f8201168201806040525081019061042391906120c8565b610462576040517f08c379a00000000000000000000000000000000000000000000000000000000081526004016104599061269c565b60405180910390fd5b6001600281111561047657610475612bdf565b5b600560009054906101000a900460ff16600281111561049857610497612bdf565b5b146104d8576040517f08c379a00000000000000000000000000000000000000000000000000000000081526004016104cf9061271c565b60405180910390fd5b60005b8282905081101561087d57600560019054906101000a900473ffffffffffffffffffffffffffffffffffffffff1673ffffffffffffffffffffffffffffffffffffffff166391d148547fc951d7098b66ba0b8b77265b6e9cf0e187d73125a42bcd0061b09a68be42181085858581811061055857610557612c3d565b5b905060200201602081019061056d9190612021565b6040518363ffffffff1660e01b815260040161058a9291906125fb565b60206040518083038186803b1580156105a257600080fd5b505afa1580156105b6573d6000803e3d6000fd5b505050506040513d601f19601f820116820180604052508101906105da91906120c8565b610619576040517f08c379a00000000000000000000000000000000000000000000000000000000081526004016106109061277c565b60405180910390fd5b600a60008484848181106106305761062f612c3d565b5b90506020020160208101906106459190612021565b73ffffffffffffffffffffffffffffffffffffffff1673ffffffffffffffffffffffffffffffffffffffff16815260200190815260200160002060009054906101000a900460ff16156106cd576040517f08c379a00000000000000000000000000000000000000000000000000000000081526004016106c49061267c565b60405180910390fd5b60078383838181106106e2576106e1612c3d565b5b90506020020160208101906106f79190612021565b9080600181540180825580915050600190039060005260206000200160009091909190916101000a81548173ffffffffffffffffffffffffffffffffffffffff021916908373ffffffffffffffffffffffffffffffffffffffff16021790555060016007805490506107699190612992565b600960008585858181106107805761077f612c3d565b5b90506020020160208101906107959190612021565b73ffffffffffffffffffffffffffffffffffffffff1673ffffffffffffffffffffffffffffffffffffffff168152602001908152602001600020819055506001600a60008585858181106107ec576107eb612c3d565b5b90506020020160208101906108019190612021565b73ffffffffffffffffffffffffffffffffffffffff1673ffffffffffffffffffffffffffffffffffffffff16815260200190815260200160002060006101000a81548160ff0219169083151502179055506008600081548092919061086590612b67565b9190505550808061087590612b67565b9150506104db565b505050565b7f000000000000000000000000000000000000000000000000000000000000000073ffffffffffffffffffffffffffffffffffffffff163373ffffffffffffffffffffffffffffffffffffffff1614610910576040517f08c379a00000000000000000000000000000000000000000000000000000000081526004016109079061283c565b60405180910390fd5b6000600281111561092457610923612bdf565b5b600560009054906101000a900460ff16600281111561094657610945612bdf565b5b14610986576040517f08c379a000000000000000000000000000000000000000000000000000000000815260040161097d9061279c565b60405180910390fd5b600083116109c9576040517f08c379a00000000000000000000000000000000000000000000000000000000081526004016109c0906127dc565b60405180910390fd5b81421080156109d757508082105b610a16576040517f08c379a0000000000000000000000000000000000000000000000000000000008152600401610a0d9061275c565b60405180910390fd5b6040518060a001604052808681526020018581526020018481526020018381526020018281525060008082015181600001556020820151816001019080519060200190610a64929190611e64565b506040820151816002015560608201518160030155608082015181600401559050505050505050565b600560009054906101000a900460ff1681565b60078181548110610ab057600080fd5b906000526020600020016000915054906101000a900473ffffffffffffffffffffffffffffffffffffffff1681565b7f000000000000000000000000000000000000000000000000000000000000000073ffffffffffffffffffffffffffffffffffffffff163373ffffffffffffffffffffffffffffffffffffffff1614610b6d576040517f08c379a0000000000000000000000000000000000000000000000000000000008152600401610b649061283c565b60405180910390fd5b6002600560006101000a81548160ff02191690836002811115610b9357610b92612bdf565b5b02179055506000600401544211610ba957600080fd5b7fbf67515a38ee520223d32c1266d52101c30d936ed1f3e436c8caeb0a43cb06bf42604051610bd8919061285c565b60405180910390a1565b600560019054906101000a900473ffffffffffffffffffffffffffffffffffffffff1673ffffffffffffffffffffffffffffffffffffffff166391d148547fc951d7098b66ba0b8b77265b6e9cf0e187d73125a42bcd0061b09a68be421810336040518363ffffffff1660e01b8152600401610c5f9291906125fb565b60206040518083038186803b158015610c7757600080fd5b505afa158015610c8b573d6000803e3d6000fd5b505050506040513d601f19601f82011682018060405250810190610caf91906120c8565b610cee576040517f08c379a0000000000000000000000000000000000000000000000000000000008152600401610ce5906126fc565b60405180910390fd5b600a60003373ffffffffffffffffffffffffffffffffffffffff1673ffffffffffffffffffffffffffffffffffffffff16815260200190815260200160002060009054906101000a900460ff16610d7a576040517f08c379a0000000000000000000000000000000000000000000000000000000008152600401610d71906127fc565b60405180910390fd5b600b60003373ffffffffffffffffffffffffffffffffffffffff1673ffffffffffffffffffffffffffffffffffffffff16815260200190815260200160002060009054906101000a900460ff1615610e07576040517f08c379a0000000000000000000000000000000000000000000000000000000008152600401610dfe906126dc565b60405180910390fd5b6000600660009054906101000a900473ffffffffffffffffffffffffffffffffffffffff1673ffffffffffffffffffffffffffffffffffffffff1663c59671c16040518163ffffffff1660e01b815260040160206040518083038186803b158015610e7157600080fd5b505afa158015610e85573d6000803e3d6000fd5b505050506040513d601f19601f82011682018060405250810190610ea9919061204e565b9050610eff33600660009054906101000a900473ffffffffffffffffffffffffffffffffffffffff166000600201548473ffffffffffffffffffffffffffffffffffffffff16611b5e909392919063ffffffff16565b6001600b60003373ffffffffffffffffffffffffffffffffffffffff1673ffffffffffffffffffffffffffffffffffffffff16815260200190815260200160002060006101000a81548160ff0219169083151502179055507f34f914f46f0a40eb0e7b1396063b87a1819f28ed7b5a63829d59f41eba61a1ae33426000604051610f8b93929190612587565b60405180910390a150565b600560019054906101000a900473ffffffffffffffffffffffffffffffffffffffff1673ffffffffffffffffffffffffffffffffffffffff166391d148547fdf8b4c520ffe197c5343c6f5aec59570151ef9a492f2c624fd45ddde6135ec42336040518363ffffffff1660e01b81526004016110139291906125fb565b60206040518083038186803b15801561102b57600080fd5b505afa15801561103f573d6000803e3d6000fd5b505050506040513d601f19601f8201168201806040525081019061106391906120c8565b6110a2576040517f08c379a00000000000000000000000000000000000000000000000000000000081526004016110999061269c565b60405180910390fd5b600a60008273ffffffffffffffffffffffffffffffffffffffff1673ffffffffffffffffffffffffffffffffffffffff16815260200190815260200160002060009054906101000a900460ff1661112e576040517f08c379a0000000000000000000000000000000000000000000000000000000008152600401611125906126bc565b60405180910390fd5b6000600960008373ffffffffffffffffffffffffffffffffffffffff1673ffffffffffffffffffffffffffffffffffffffff1681526020019081526020016000205490506008600081548092919061118590612ada565b91905055506000600a60008473ffffffffffffffffffffffffffffffffffffffff1673ffffffffffffffffffffffffffffffffffffffff16815260200190815260200160002060006101000a81548160ff021916908315150217905550600781815481106111f6576111f5612c3d565b5b9060005260206000200160006101000a81549073ffffffffffffffffffffffffffffffffffffffff02191690555050565b7f000000000000000000000000000000000000000000000000000000000000000081565b600560019054906101000a900473ffffffffffffffffffffffffffffffffffffffff1673ffffffffffffffffffffffffffffffffffffffff166391d148547fdf8b4c520ffe197c5343c6f5aec59570151ef9a492f2c624fd45ddde6135ec42336040518363ffffffff1660e01b81526004016112c89291906125fb565b60206040518083038186803b1580156112e057600080fd5b505afa1580156112f4573d6000803e3d6000fd5b505050506040513d601f19601f8201168201806040525081019061131891906120c8565b611357576040517f08c379a000000000000000000000000000000000000000000000000000000000815260040161134e9061269c565b60405180910390fd5b600a60003373ffffffffffffffffffffffffffffffffffffffff1673ffffffffffffffffffffffffffffffffffffffff16815260200190815260200160002060009054906101000a900460ff166113e3576040517f08c379a00000000000000000000000000000000000000000000000000000000081526004016113da906127fc565b60405180910390fd5b600b60003373ffffffffffffffffffffffffffffffffffffffff1673ffffffffffffffffffffffffffffffffffffffff16815260200190815260200160002060009054906101000a900460ff1615611470576040517f08c379a0000000000000000000000000000000000000000000000000000000008152600401611467906126dc565b60405180910390fd5b6001600b60003373ffffffffffffffffffffffffffffffffffffffff1673ffffffffffffffffffffffffffffffffffffffff16815260200190815260200160002060006101000a81548160ff0219169083151502179055507f34f914f46f0a40eb0e7b1396063b87a1819f28ed7b5a63829d59f41eba61a1ae334260016040516114fc93929190612587565b60405180910390a1565b600b6020528060005260406000206000915054906101000a900460ff1681565b6060600060085467ffffffffffffffff81111561154657611545612c6c565b5b6040519080825280602002602001820160405280156115745781602001602082028036833780820191505090505b509050600080600090505b6007805490508110156116ca57600b6000600783815481106115a4576115a3612c3d565b5b9060005260206000200160009054906101000a900473ffffffffffffffffffffffffffffffffffffffff1673ffffffffffffffffffffffffffffffffffffffff1673ffffffffffffffffffffffffffffffffffffffff16815260200190815260200160002060009054906101000a900460ff16156116b757600781815481106116305761162f612c3d565b5b9060005260206000200160009054906101000a900473ffffffffffffffffffffffffffffffffffffffff1683838151811061166e5761166d612c3d565b5b602002602001019073ffffffffffffffffffffffffffffffffffffffff16908173ffffffffffffffffffffffffffffffffffffffff168152505081806116b390612b67565b9250505b80806116c290612b67565b91505061157f565b50819250505090565b60008060000154908060010180546116ea90612b04565b80601f016020809104026020016040519081016040528092919081815260200182805461171690612b04565b80156117635780601f1061173857610100808354040283529160200191611763565b820191906000526020600020905b81548152906001019060200180831161174657829003601f168201915b5050505050908060020154908060030154908060040154905085565b600560019054906101000a900473ffffffffffffffffffffffffffffffffffffffff1681565b60085481565b600660009054906101000a900473ffffffffffffffffffffffffffffffffffffffff1681565b600a6020528060005260406000206000915054906101000a900460ff1681565b7f000000000000000000000000000000000000000000000000000000000000000073ffffffffffffffffffffffffffffffffffffffff163373ffffffffffffffffffffffffffffffffffffffff161461187f576040517f08c379a00000000000000000000000000000000000000000000000000000000081526004016118769061283c565b60405180910390fd5b6000600281111561189357611892612bdf565b5b600560009054906101000a900460ff1660028111156118b5576118b4612bdf565b5b146118f5576040517f08c379a00000000000000000000000000000000000000000000000000000000081526004016118ec9061279c565b60405180910390fd5b6001600560006101000a81548160ff0219169083600281111561191b5761191a612bdf565b5b0217905550565b60096020528060005260406000206000915090505481565b6060600060085467ffffffffffffffff81111561195a57611959612c6c565b5b6040519080825280602002602001820160405280156119885781602001602082028036833780820191505090505b509050600080600090505b600780549050811015611b5557600a6000600783815481106119b8576119b7612c3d565b5b9060005260206000200160009054906101000a900473ffffffffffffffffffffffffffffffffffffffff1673ffffffffffffffffffffffffffffffffffffffff1673ffffffffffffffffffffffffffffffffffffffff16815260200190815260200160002060009054906101000a900460ff168015611aa25750600073ffffffffffffffffffffffffffffffffffffffff1660078281548110611a5e57611a5d612c3d565b5b9060005260206000200160009054906101000a900473ffffffffffffffffffffffffffffffffffffffff1673ffffffffffffffffffffffffffffffffffffffff1614155b15611b425760078181548110611abb57611aba612c3d565b5b9060005260206000200160009054906101000a900473ffffffffffffffffffffffffffffffffffffffff16838381518110611af957611af8612c3d565b5b602002602001019073ffffffffffffffffffffffffffffffffffffffff16908173ffffffffffffffffffffffffffffffffffffffff16815250508180611b3e90612b67565b9250505b8080611b4d90612b67565b915050611993565b50819250505090565b611be1846323b872dd60e01b858585604051602401611b7f93929190612550565b604051602081830303815290604052907bffffffffffffffffffffffffffffffffffffffffffffffffffffffff19166020820180517bffffffffffffffffffffffffffffffffffffffffffffffffffffffff8381831617835250505050611be7565b50505050565b6000611c49826040518060400160405280602081526020017f5361666545524332303a206c6f772d6c6576656c2063616c6c206661696c65648152508573ffffffffffffffffffffffffffffffffffffffff16611cae9092919063ffffffff16565b9050600081511115611ca95780806020019051810190611c6991906120c8565b611ca8576040517f08c379a0000000000000000000000000000000000000000000000000000000008152600401611c9f9061281c565b60405180910390fd5b5b505050565b6060611cbd8484600085611cc6565b90509392505050565b606082471015611d0b576040517f08c379a0000000000000000000000000000000000000000000000000000000008152600401611d029061273c565b60405180910390fd5b611d1485611dda565b611d53576040517f08c379a0000000000000000000000000000000000000000000000000000000008152600401611d4a906127bc565b60405180910390fd5b6000808673ffffffffffffffffffffffffffffffffffffffff168587604051611d7c919061251e565b60006040518083038185875af1925050503d8060008114611db9576040519150601f19603f3d011682016040523d82523d6000602084013e611dbe565b606091505b5091509150611dce828286611dfd565b92505050949350505050565b6000808273ffffffffffffffffffffffffffffffffffffffff163b119050919050565b60608315611e0d57829050611e5d565b600083511115611e205782518084602001fd5b816040517f08c379a0000000000000000000000000000000000000000000000000000000008152600401611e54919061265a565b60405180910390fd5b9392505050565b828054611e7090612b04565b90600052602060002090601f016020900481019282611e925760008555611ed9565b82601f10611eab57805160ff1916838001178555611ed9565b82800160010185558215611ed9579182015b82811115611ed8578251825591602001919060010190611ebd565b5b509050611ee69190611eea565b5090565b5b80821115611f03576000816000905550600101611eeb565b5090565b6000611f1a611f15846128f6565b6128d1565b905082815260208101848484011115611f3657611f35612caa565b5b611f41848285612a98565b509392505050565b600081359050611f5881612fcb565b92915050565b600081519050611f6d81612fcb565b92915050565b60008083601f840112611f8957611f88612ca0565b5b8235905067ffffffffffffffff811115611fa657611fa5612c9b565b5b602083019150836020820283011115611fc257611fc1612ca5565b5b9250929050565b600081519050611fd881612fe2565b92915050565b600082601f830112611ff357611ff2612ca0565b5b8135612003848260208601611f07565b91505092915050565b60008135905061201b81612ff9565b92915050565b60006020828403121561203757612036612cb4565b5b600061204584828501611f49565b91505092915050565b60006020828403121561206457612063612cb4565b5b600061207284828501611f5e565b91505092915050565b6000806020838503121561209257612091612cb4565b5b600083013567ffffffffffffffff8111156120b0576120af612caf565b5b6120bc85828601611f73565b92509250509250929050565b6000602082840312156120de576120dd612cb4565b5b60006120ec84828501611fc9565b91505092915050565b60006020828403121561210b5761210a612cb4565b5b60006121198482850161200c565b91505092915050565b600080600080600060a0868803121561213e5761213d612cb4565b5b600061214c8882890161200c565b955050602086013567ffffffffffffffff81111561216d5761216c612caf565b5b61217988828901611fde565b945050604061218a8882890161200c565b935050606061219b8882890161200c565b92505060806121ac8882890161200c565b9150509295509295909350565b60006121c583836121d1565b60208301905092915050565b6121da816129c6565b82525050565b6121e9816129c6565b82525050565b60006121fa82612937565b6122048185612965565b935061220f83612927565b8060005b8381101561224057815161222788826121b9565b975061223283612958565b925050600181019050612213565b5085935050505092915050565b612256816129d8565b82525050565b612265816129e4565b82525050565b600061227682612942565b6122808185612976565b9350612290818560208601612aa7565b80840191505092915050565b6122a581612a3e565b82525050565b6122b481612a50565b82525050565b6122c381612a62565b82525050565b60006122d48261294d565b6122de8185612981565b93506122ee818560208601612aa7565b6122f781612cb9565b840191505092915050565b600061230f600583612981565b915061231a82612cca565b602082019050919050565b6000612332601183612981565b915061233d82612cf3565b602082019050919050565b6000612355601183612981565b915061236082612d1c565b602082019050919050565b6000612378601483612981565b915061238382612d45565b602082019050919050565b600061239b601083612981565b91506123a682612d6e565b602082019050919050565b60006123be600d83612981565b91506123c982612d97565b602082019050919050565b60006123e1602683612981565b91506123ec82612dc0565b604082019050919050565b6000612404601383612981565b915061240f82612e0f565b602082019050919050565b6000612427601783612981565b915061243282612e38565b602082019050919050565b600061244a600d83612981565b915061245582612e61565b602082019050919050565b600061246d601d83612981565b915061247882612e8a565b602082019050919050565b6000612490602283612981565b915061249b82612eb3565b604082019050919050565b60006124b3601783612981565b91506124be82612f02565b602082019050919050565b60006124d6602a83612981565b91506124e182612f2b565b604082019050919050565b60006124f9600a83612981565b915061250482612f7a565b602082019050919050565b61251881612a34565b82525050565b600061252a828461226b565b915081905092915050565b600060208201905061254a60008301846121e0565b92915050565b600060608201905061256560008301866121e0565b61257260208301856121e0565b61257f604083018461250f565b949350505050565b600060608201905061259c60008301866121e0565b6125a9602083018561250f565b6125b660408301846122ab565b949350505050565b600060208201905081810360008301526125d881846121ef565b905092915050565b60006020820190506125f5600083018461224d565b92915050565b6000604082019050612610600083018561225c565b61261d60208301846121e0565b9392505050565b6000602082019050612639600083018461229c565b92915050565b600060208201905061265460008301846122ba565b92915050565b6000602082019050818103600083015261267481846122c9565b905092915050565b6000602082019050818103600083015261269581612302565b9050919050565b600060208201905081810360008301526126b581612325565b9050919050565b600060208201905081810360008301526126d581612348565b9050919050565b600060208201905081810360008301526126f58161236b565b9050919050565b600060208201905081810360008301526127158161238e565b9050919050565b60006020820190508181036000830152612735816123b1565b9050919050565b60006020820190508181036000830152612755816123d4565b9050919050565b60006020820190508181036000830152612775816123f7565b9050919050565b600060208201905081810360008301526127958161241a565b9050919050565b600060208201905081810360008301526127b58161243d565b9050919050565b600060208201905081810360008301526127d581612460565b9050919050565b600060208201905081810360008301526127f581612483565b9050919050565b60006020820190508181036000830152612815816124a6565b9050919050565b60006020820190508181036000830152612835816124c9565b9050919050565b60006020820190508181036000830152612855816124ec565b9050919050565b6000602082019050612871600083018461250f565b92915050565b600060a08201905061288c600083018861250f565b818103602083015261289e81876122c9565b90506128ad604083018661250f565b6128ba606083018561250f565b6128c7608083018461250f565b9695505050505050565b60006128db6128ec565b90506128e78282612b36565b919050565b6000604051905090565b600067ffffffffffffffff82111561291157612910612c6c565b5b61291a82612cb9565b9050602081019050919050565b6000819050602082019050919050565b600081519050919050565b600081519050919050565b600081519050919050565b6000602082019050919050565b600082825260208201905092915050565b600081905092915050565b600082825260208201905092915050565b600061299d82612a34565b91506129a883612a34565b9250828210156129bb576129ba612bb0565b5b828203905092915050565b60006129d182612a14565b9050919050565b60008115159050919050565b6000819050919050565b60008190506129fc82612fa3565b919050565b6000819050612a0f82612fb7565b919050565b600073ffffffffffffffffffffffffffffffffffffffff82169050919050565b6000819050919050565b6000612a4982612a74565b9050919050565b6000612a5b826129ee565b9050919050565b6000612a6d82612a01565b9050919050565b6000612a7f82612a86565b9050919050565b6000612a9182612a14565b9050919050565b82818337600083830152505050565b60005b83811015612ac5578082015181840152602081019050612aaa565b83811115612ad4576000848401525b50505050565b6000612ae582612a34565b91506000821415612af957612af8612bb0565b5b600182039050919050565b60006002820490506001821680612b1c57607f821691505b60208210811415612b3057612b2f612c0e565b5b50919050565b612b3f82612cb9565b810181811067ffffffffffffffff82111715612b5e57612b5d612c6c565b5b80604052505050565b6000612b7282612a34565b91507fffffffffffffffffffffffffffffffffffffffffffffffffffffffffffffffff821415612ba557612ba4612bb0565b5b600182019050919050565b7f4e487b7100000000000000000000000000000000000000000000000000000000600052601160045260246000fd5b7f4e487b7100000000000000000000000000000000000000000000000000000000600052602160045260246000fd5b7f4e487b7100000000000000000000000000000000000000000000000000000000600052602260045260246000fd5b7f4e487b7100000000000000000000000000000000000000000000000000000000600052603260045260246000fd5b7f4e487b7100000000000000000000000000000000000000000000000000000000600052604160045260246000fd5b600080fd5b600080fd5b600080fd5b600080fd5b600080fd5b600080fd5b6000601f19601f8301169050919050565b7f4164646564000000000000000000000000000000000000000000000000000000600082015250565b7f4d433a204f6e6c79204c65637475726572000000000000000000000000000000600082015250565b7f4572726f72207768656e2072656d6f7665000000000000000000000000000000600082015250565b7f54433a20596f7520706169642074756974696f6e000000000000000000000000600082015250565b7f4d433a204f6e6c792053747564656e7400000000000000000000000000000000600082015250565b7f4d433a204f6e6c79204f70656e00000000000000000000000000000000000000600082015250565b7f416464726573733a20696e73756666696369656e742062616c616e636520666f60008201527f722063616c6c0000000000000000000000000000000000000000000000000000602082015250565b7f4d433a2054696d6520697320696e76616c696400000000000000000000000000600082015250565b7f53686f756c64206f6e6c79206164642073747564656e74000000000000000000600082015250565b7f4d433a204f6e6c79204c6f636b00000000000000000000000000000000000000600082015250565b7f416464726573733a2063616c6c20746f206e6f6e2d636f6e7472616374000000600082015250565b7f4d433a2041776172642073686f756c642067726561746572207468616e205a6560008201527f726f000000000000000000000000000000000000000000000000000000000000602082015250565b7f54433a20596f7520617265206e6f7420696e206c697374000000000000000000600082015250565b7f5361666545524332303a204552433230206f7065726174696f6e20646964206e60008201527f6f74207375636365656400000000000000000000000000000000000000000000602082015250565b7f4f6e6c79204f776e657200000000000000000000000000000000000000000000600082015250565b60028110612fb457612fb3612bdf565b5b50565b60038110612fc857612fc7612bdf565b5b50565b612fd4816129c6565b8114612fdf57600080fd5b50565b612feb816129d8565b8114612ff657600080fd5b50565b61300281612a34565b811461300d57600080fd5b5056fea2646970667358221220cd360bd8d5666ae2a2f33cc4f3e0149c9ec8353523fe57a8f6a7dd83afb9ec7964736f6c63430008070033",
					"opcodes": "PUSH1 0xA0 PUSH1 0x40 MSTORE PUSH1 0x0 PUSH1 0x5 PUSH1 0x0 PUSH2 0x100 EXP DUP2 SLOAD DUP2 PUSH1 0xFF MUL NOT AND SWAP1 DUP4 PUSH1 0x2 DUP2 GT ISZERO PUSH3 0x2D JUMPI PUSH3 0x2C PUSH3 0x1CE JUMP JUMPDEST JUMPDEST MUL OR SWAP1 SSTORE POP CALLVALUE DUP1 ISZERO PUSH3 0x3F JUMPI PUSH1 0x0 DUP1 REVERT JUMPDEST POP PUSH1 0x40 MLOAD PUSH3 0x3296 CODESIZE SUB DUP1 PUSH3 0x3296 DUP4 CODECOPY DUP2 DUP2 ADD PUSH1 0x40 MSTORE DUP2 ADD SWAP1 PUSH3 0x65 SWAP2 SWAP1 PUSH3 0x13E JUMP JUMPDEST DUP3 PUSH20 0xFFFFFFFFFFFFFFFFFFFFFFFFFFFFFFFFFFFFFFFF AND PUSH1 0x80 DUP2 PUSH20 0xFFFFFFFFFFFFFFFFFFFFFFFFFFFFFFFFFFFFFFFF AND PUSH1 0x60 SHL DUP2 MSTORE POP POP DUP2 PUSH1 0x5 PUSH1 0x1 PUSH2 0x100 EXP DUP2 SLOAD DUP2 PUSH20 0xFFFFFFFFFFFFFFFFFFFFFFFFFFFFFFFFFFFFFFFF MUL NOT AND SWAP1 DUP4 PUSH20 0xFFFFFFFFFFFFFFFFFFFFFFFFFFFFFFFFFFFFFFFF AND MUL OR SWAP1 SSTORE POP DUP1 PUSH1 0x6 PUSH1 0x0 PUSH2 0x100 EXP DUP2 SLOAD DUP2 PUSH20 0xFFFFFFFFFFFFFFFFFFFFFFFFFFFFFFFFFFFFFFFF MUL NOT AND SWAP1 DUP4 PUSH20 0xFFFFFFFFFFFFFFFFFFFFFFFFFFFFFFFFFFFFFFFF AND MUL OR SWAP1 SSTORE POP POP POP POP PUSH3 0x21C JUMP JUMPDEST PUSH1 0x0 DUP2 MLOAD SWAP1 POP PUSH3 0x138 DUP2 PUSH3 0x202 JUMP JUMPDEST SWAP3 SWAP2 POP POP JUMP JUMPDEST PUSH1 0x0 DUP1 PUSH1 0x0 PUSH1 0x60 DUP5 DUP7 SUB SLT ISZERO PUSH3 0x15A JUMPI PUSH3 0x159 PUSH3 0x1FD JUMP JUMPDEST JUMPDEST PUSH1 0x0 PUSH3 0x16A DUP7 DUP3 DUP8 ADD PUSH3 0x127 JUMP JUMPDEST SWAP4 POP POP PUSH1 0x20 PUSH3 0x17D DUP7 DUP3 DUP8 ADD PUSH3 0x127 JUMP JUMPDEST SWAP3 POP POP PUSH1 0x40 PUSH3 0x190 DUP7 DUP3 DUP8 ADD PUSH3 0x127 JUMP JUMPDEST SWAP2 POP POP SWAP3 POP SWAP3 POP SWAP3 JUMP JUMPDEST PUSH1 0x0 PUSH3 0x1A7 DUP3 PUSH3 0x1AE JUMP JUMPDEST SWAP1 POP SWAP2 SWAP1 POP JUMP JUMPDEST PUSH1 0x0 PUSH20 0xFFFFFFFFFFFFFFFFFFFFFFFFFFFFFFFFFFFFFFFF DUP3 AND SWAP1 POP SWAP2 SWAP1 POP JUMP JUMPDEST PUSH32 0x4E487B7100000000000000000000000000000000000000000000000000000000 PUSH1 0x0 MSTORE PUSH1 0x21 PUSH1 0x4 MSTORE PUSH1 0x24 PUSH1 0x0 REVERT JUMPDEST PUSH1 0x0 DUP1 REVERT JUMPDEST PUSH3 0x20D DUP2 PUSH3 0x19A JUMP JUMPDEST DUP2 EQ PUSH3 0x219 JUMPI PUSH1 0x0 DUP1 REVERT JUMPDEST POP JUMP JUMPDEST PUSH1 0x80 MLOAD PUSH1 0x60 SHR PUSH2 0x3046 PUSH3 0x250 PUSH1 0x0 CODECOPY PUSH1 0x0 DUP2 DUP2 PUSH2 0x884 ADD MSTORE DUP2 DUP2 PUSH2 0xAE1 ADD MSTORE DUP2 DUP2 PUSH2 0x1229 ADD MSTORE PUSH2 0x17F3 ADD MSTORE PUSH2 0x3046 PUSH1 0x0 RETURN INVALID PUSH1 0x80 PUSH1 0x40 MSTORE CALLVALUE DUP1 ISZERO PUSH2 0x10 JUMPI PUSH1 0x0 DUP1 REVERT JUMPDEST POP PUSH1 0x4 CALLDATASIZE LT PUSH2 0x121 JUMPI PUSH1 0x0 CALLDATALOAD PUSH1 0xE0 SHR DUP1 PUSH4 0xA32FB342 GT PUSH2 0xAD JUMPI DUP1 PUSH4 0xACC2166A GT PUSH2 0x71 JUMPI DUP1 PUSH4 0xACC2166A EQ PUSH2 0x2B0 JUMPI DUP1 PUSH4 0xB1319F41 EQ PUSH2 0x2CE JUMPI DUP1 PUSH4 0xBE9A6555 EQ PUSH2 0x2FE JUMPI DUP1 PUSH4 0xD95FE6A0 EQ PUSH2 0x308 JUMPI DUP1 PUSH4 0xED214FFF EQ PUSH2 0x338 JUMPI PUSH2 0x121 JUMP JUMPDEST DUP1 PUSH4 0xA32FB342 EQ PUSH2 0x204 JUMPI DUP1 PUSH4 0xA7F44E0D EQ PUSH2 0x234 JUMPI DUP1 PUSH4 0xA8A86C10 EQ PUSH2 0x252 JUMPI DUP1 PUSH4 0xAA4936CE EQ PUSH2 0x274 JUMPI DUP1 PUSH4 0xAA8C217C EQ PUSH2 0x292 JUMPI PUSH2 0x121 JUMP JUMPDEST DUP1 PUSH4 0x43D726D6 GT PUSH2 0xF4 JUMPI DUP1 PUSH4 0x43D726D6 EQ PUSH2 0x1AC JUMPI DUP1 PUSH4 0x633D8390 EQ PUSH2 0x1B6 JUMPI DUP1 PUSH4 0x727CB110 EQ PUSH2 0x1C0 JUMPI DUP1 PUSH4 0x8DA5CB5B EQ PUSH2 0x1DC JUMPI DUP1 PUSH4 0x9846A1A0 EQ PUSH2 0x1FA JUMPI PUSH2 0x121 JUMP JUMPDEST DUP1 PUSH4 0x4227AB8 EQ PUSH2 0x126 JUMPI DUP1 PUSH4 0x8003D6B EQ PUSH2 0x142 JUMPI DUP1 PUSH4 0x200D2ED2 EQ PUSH2 0x15E JUMPI DUP1 PUSH4 0x35C1D349 EQ PUSH2 0x17C JUMPI JUMPDEST PUSH1 0x0 DUP1 REVERT JUMPDEST PUSH2 0x140 PUSH1 0x4 DUP1 CALLDATASIZE SUB DUP2 ADD SWAP1 PUSH2 0x13B SWAP2 SWAP1 PUSH2 0x207B JUMP JUMPDEST PUSH2 0x356 JUMP JUMPDEST STOP JUMPDEST PUSH2 0x15C PUSH1 0x4 DUP1 CALLDATASIZE SUB DUP2 ADD SWAP1 PUSH2 0x157 SWAP2 SWAP1 PUSH2 0x2122 JUMP JUMPDEST PUSH2 0x882 JUMP JUMPDEST STOP JUMPDEST PUSH2 0x166 PUSH2 0xA8D JUMP JUMPDEST PUSH1 0x40 MLOAD PUSH2 0x173 SWAP2 SWAP1 PUSH2 0x263F JUMP JUMPDEST PUSH1 0x40 MLOAD DUP1 SWAP2 SUB SWAP1 RETURN JUMPDEST PUSH2 0x196 PUSH1 0x4 DUP1 CALLDATASIZE SUB DUP2 ADD SWAP1 PUSH2 0x191 SWAP2 SWAP1 PUSH2 0x20F5 JUMP JUMPDEST PUSH2 0xAA0 JUMP JUMPDEST PUSH1 0x40 MLOAD PUSH2 0x1A3 SWAP2 SWAP1 PUSH2 0x2535 JUMP JUMPDEST PUSH1 0x40 MLOAD DUP1 SWAP2 SUB SWAP1 RETURN JUMPDEST PUSH2 0x1B4 PUSH2 0xADF JUMP JUMPDEST STOP JUMPDEST PUSH2 0x1BE PUSH2 0xBE2 JUMP JUMPDEST STOP JUMPDEST PUSH2 0x1DA PUSH1 0x4 DUP1 CALLDATASIZE SUB DUP2 ADD SWAP1 PUSH2 0x1D5 SWAP2 SWAP1 PUSH2 0x2021 JUMP JUMPDEST PUSH2 0xF96 JUMP JUMPDEST STOP JUMPDEST PUSH2 0x1E4 PUSH2 0x1227 JUMP JUMPDEST PUSH1 0x40 MLOAD PUSH2 0x1F1 SWAP2 SWAP1 PUSH2 0x2535 JUMP JUMPDEST PUSH1 0x40 MLOAD DUP1 SWAP2 SUB SWAP1 RETURN JUMPDEST PUSH2 0x202 PUSH2 0x124B JUMP JUMPDEST STOP JUMPDEST PUSH2 0x21E PUSH1 0x4 DUP1 CALLDATASIZE SUB DUP2 ADD SWAP1 PUSH2 0x219 SWAP2 SWAP1 PUSH2 0x2021 JUMP JUMPDEST PUSH2 0x1506 JUMP JUMPDEST PUSH1 0x40 MLOAD PUSH2 0x22B SWAP2 SWAP1 PUSH2 0x25E0 JUMP JUMPDEST PUSH1 0x40 MLOAD DUP1 SWAP2 SUB SWAP1 RETURN JUMPDEST PUSH2 0x23C PUSH2 0x1526 JUMP JUMPDEST PUSH1 0x40 MLOAD PUSH2 0x249 SWAP2 SWAP1 PUSH2 0x25BE JUMP JUMPDEST PUSH1 0x40 MLOAD DUP1 SWAP2 SUB SWAP1 RETURN JUMPDEST PUSH2 0x25A PUSH2 0x16D3 JUMP JUMPDEST PUSH1 0x40 MLOAD PUSH2 0x26B SWAP6 SWAP5 SWAP4 SWAP3 SWAP2 SWAP1 PUSH2 0x2877 JUMP JUMPDEST PUSH1 0x40 MLOAD DUP1 SWAP2 SUB SWAP1 RETURN JUMPDEST PUSH2 0x27C PUSH2 0x177F JUMP JUMPDEST PUSH1 0x40 MLOAD PUSH2 0x289 SWAP2 SWAP1 PUSH2 0x2624 JUMP JUMPDEST PUSH1 0x40 MLOAD DUP1 SWAP2 SUB SWAP1 RETURN JUMPDEST PUSH2 0x29A PUSH2 0x17A5 JUMP JUMPDEST PUSH1 0x40 MLOAD PUSH2 0x2A7 SWAP2 SWAP1 PUSH2 0x285C JUMP JUMPDEST PUSH1 0x40 MLOAD DUP1 SWAP2 SUB SWAP1 RETURN JUMPDEST PUSH2 0x2B8 PUSH2 0x17AB JUMP JUMPDEST PUSH1 0x40 MLOAD PUSH2 0x2C5 SWAP2 SWAP1 PUSH2 0x2535 JUMP JUMPDEST PUSH1 0x40 MLOAD DUP1 SWAP2 SUB SWAP1 RETURN JUMPDEST PUSH2 0x2E8 PUSH1 0x4 DUP1 CALLDATASIZE SUB DUP2 ADD SWAP1 PUSH2 0x2E3 SWAP2 SWAP1 PUSH2 0x2021 JUMP JUMPDEST PUSH2 0x17D1 JUMP JUMPDEST PUSH1 0x40 MLOAD PUSH2 0x2F5 SWAP2 SWAP1 PUSH2 0x25E0 JUMP JUMPDEST PUSH1 0x40 MLOAD DUP1 SWAP2 SUB SWAP1 RETURN JUMPDEST PUSH2 0x306 PUSH2 0x17F1 JUMP JUMPDEST STOP JUMPDEST PUSH2 0x322 PUSH1 0x4 DUP1 CALLDATASIZE SUB DUP2 ADD SWAP1 PUSH2 0x31D SWAP2 SWAP1 PUSH2 0x2021 JUMP JUMPDEST PUSH2 0x1922 JUMP JUMPDEST PUSH1 0x40 MLOAD PUSH2 0x32F SWAP2 SWAP1 PUSH2 0x285C JUMP JUMPDEST PUSH1 0x40 MLOAD DUP1 SWAP2 SUB SWAP1 RETURN JUMPDEST PUSH2 0x340 PUSH2 0x193A JUMP JUMPDEST PUSH1 0x40 MLOAD PUSH2 0x34D SWAP2 SWAP1 PUSH2 0x25BE JUMP JUMPDEST PUSH1 0x40 MLOAD DUP1 SWAP2 SUB SWAP1 RETURN JUMPDEST PUSH1 0x5 PUSH1 0x1 SWAP1 SLOAD SWAP1 PUSH2 0x100 EXP SWAP1 DIV PUSH20 0xFFFFFFFFFFFFFFFFFFFFFFFFFFFFFFFFFFFFFFFF AND PUSH20 0xFFFFFFFFFFFFFFFFFFFFFFFFFFFFFFFFFFFFFFFF AND PUSH4 0x91D14854 PUSH32 0xDF8B4C520FFE197C5343C6F5AEC59570151EF9A492F2C624FD45DDDE6135EC42 CALLER PUSH1 0x40 MLOAD DUP4 PUSH4 0xFFFFFFFF AND PUSH1 0xE0 SHL DUP2 MSTORE PUSH1 0x4 ADD PUSH2 0x3D3 SWAP3 SWAP2 SWAP1 PUSH2 0x25FB JUMP JUMPDEST PUSH1 0x20 PUSH1 0x40 MLOAD DUP1 DUP4 SUB DUP2 DUP7 DUP1 EXTCODESIZE ISZERO DUP1 ISZERO PUSH2 0x3EB JUMPI PUSH1 0x0 DUP1 REVERT JUMPDEST POP GAS STATICCALL ISZERO DUP1 ISZERO PUSH2 0x3FF JUMPI RETURNDATASIZE PUSH1 0x0 DUP1 RETURNDATACOPY RETURNDATASIZE PUSH1 0x0 REVERT JUMPDEST POP POP POP POP PUSH1 0x40 MLOAD RETURNDATASIZE PUSH1 0x1F NOT PUSH1 0x1F DUP3 ADD AND DUP3 ADD DUP1 PUSH1 0x40 MSTORE POP DUP2 ADD SWAP1 PUSH2 0x423 SWAP2 SWAP1 PUSH2 0x20C8 JUMP JUMPDEST PUSH2 0x462 JUMPI PUSH1 0x40 MLOAD PUSH32 0x8C379A000000000000000000000000000000000000000000000000000000000 DUP2 MSTORE PUSH1 0x4 ADD PUSH2 0x459 SWAP1 PUSH2 0x269C JUMP JUMPDEST PUSH1 0x40 MLOAD DUP1 SWAP2 SUB SWAP1 REVERT JUMPDEST PUSH1 0x1 PUSH1 0x2 DUP2 GT ISZERO PUSH2 0x476 JUMPI PUSH2 0x475 PUSH2 0x2BDF JUMP JUMPDEST JUMPDEST PUSH1 0x5 PUSH1 0x0 SWAP1 SLOAD SWAP1 PUSH2 0x100 EXP SWAP1 DIV PUSH1 0xFF AND PUSH1 0x2 DUP2 GT ISZERO PUSH2 0x498 JUMPI PUSH2 0x497 PUSH2 0x2BDF JUMP JUMPDEST JUMPDEST EQ PUSH2 0x4D8 JUMPI PUSH1 0x40 MLOAD PUSH32 0x8C379A000000000000000000000000000000000000000000000000000000000 DUP2 MSTORE PUSH1 0x4 ADD PUSH2 0x4CF SWAP1 PUSH2 0x271C JUMP JUMPDEST PUSH1 0x40 MLOAD DUP1 SWAP2 SUB SWAP1 REVERT JUMPDEST PUSH1 0x0 JUMPDEST DUP3 DUP3 SWAP1 POP DUP2 LT ISZERO PUSH2 0x87D JUMPI PUSH1 0x5 PUSH1 0x1 SWAP1 SLOAD SWAP1 PUSH2 0x100 EXP SWAP1 DIV PUSH20 0xFFFFFFFFFFFFFFFFFFFFFFFFFFFFFFFFFFFFFFFF AND PUSH20 0xFFFFFFFFFFFFFFFFFFFFFFFFFFFFFFFFFFFFFFFF AND PUSH4 0x91D14854 PUSH32 0xC951D7098B66BA0B8B77265B6E9CF0E187D73125A42BCD0061B09A68BE421810 DUP6 DUP6 DUP6 DUP2 DUP2 LT PUSH2 0x558 JUMPI PUSH2 0x557 PUSH2 0x2C3D JUMP JUMPDEST JUMPDEST SWAP1 POP PUSH1 0x20 MUL ADD PUSH1 0x20 DUP2 ADD SWAP1 PUSH2 0x56D SWAP2 SWAP1 PUSH2 0x2021 JUMP JUMPDEST PUSH1 0x40 MLOAD DUP4 PUSH4 0xFFFFFFFF AND PUSH1 0xE0 SHL DUP2 MSTORE PUSH1 0x4 ADD PUSH2 0x58A SWAP3 SWAP2 SWAP1 PUSH2 0x25FB JUMP JUMPDEST PUSH1 0x20 PUSH1 0x40 MLOAD DUP1 DUP4 SUB DUP2 DUP7 DUP1 EXTCODESIZE ISZERO DUP1 ISZERO PUSH2 0x5A2 JUMPI PUSH1 0x0 DUP1 REVERT JUMPDEST POP GAS STATICCALL ISZERO DUP1 ISZERO PUSH2 0x5B6 JUMPI RETURNDATASIZE PUSH1 0x0 DUP1 RETURNDATACOPY RETURNDATASIZE PUSH1 0x0 REVERT JUMPDEST POP POP POP POP PUSH1 0x40 MLOAD RETURNDATASIZE PUSH1 0x1F NOT PUSH1 0x1F DUP3 ADD AND DUP3 ADD DUP1 PUSH1 0x40 MSTORE POP DUP2 ADD SWAP1 PUSH2 0x5DA SWAP2 SWAP1 PUSH2 0x20C8 JUMP JUMPDEST PUSH2 0x619 JUMPI PUSH1 0x40 MLOAD PUSH32 0x8C379A000000000000000000000000000000000000000000000000000000000 DUP2 MSTORE PUSH1 0x4 ADD PUSH2 0x610 SWAP1 PUSH2 0x277C JUMP JUMPDEST PUSH1 0x40 MLOAD DUP1 SWAP2 SUB SWAP1 REVERT JUMPDEST PUSH1 0xA PUSH1 0x0 DUP5 DUP5 DUP5 DUP2 DUP2 LT PUSH2 0x630 JUMPI PUSH2 0x62F PUSH2 0x2C3D JUMP JUMPDEST JUMPDEST SWAP1 POP PUSH1 0x20 MUL ADD PUSH1 0x20 DUP2 ADD SWAP1 PUSH2 0x645 SWAP2 SWAP1 PUSH2 0x2021 JUMP JUMPDEST PUSH20 0xFFFFFFFFFFFFFFFFFFFFFFFFFFFFFFFFFFFFFFFF AND PUSH20 0xFFFFFFFFFFFFFFFFFFFFFFFFFFFFFFFFFFFFFFFF AND DUP2 MSTORE PUSH1 0x20 ADD SWAP1 DUP2 MSTORE PUSH1 0x20 ADD PUSH1 0x0 KECCAK256 PUSH1 0x0 SWAP1 SLOAD SWAP1 PUSH2 0x100 EXP SWAP1 DIV PUSH1 0xFF AND ISZERO PUSH2 0x6CD JUMPI PUSH1 0x40 MLOAD PUSH32 0x8C379A000000000000000000000000000000000000000000000000000000000 DUP2 MSTORE PUSH1 0x4 ADD PUSH2 0x6C4 SWAP1 PUSH2 0x267C JUMP JUMPDEST PUSH1 0x40 MLOAD DUP1 SWAP2 SUB SWAP1 REVERT JUMPDEST PUSH1 0x7 DUP4 DUP4 DUP4 DUP2 DUP2 LT PUSH2 0x6E2 JUMPI PUSH2 0x6E1 PUSH2 0x2C3D JUMP JUMPDEST JUMPDEST SWAP1 POP PUSH1 0x20 MUL ADD PUSH1 0x20 DUP2 ADD SWAP1 PUSH2 0x6F7 SWAP2 SWAP1 PUSH2 0x2021 JUMP JUMPDEST SWAP1 DUP1 PUSH1 0x1 DUP2 SLOAD ADD DUP1 DUP3 SSTORE DUP1 SWAP2 POP POP PUSH1 0x1 SWAP1 SUB SWAP1 PUSH1 0x0 MSTORE PUSH1 0x20 PUSH1 0x0 KECCAK256 ADD PUSH1 0x0 SWAP1 SWAP2 SWAP1 SWAP2 SWAP1 SWAP2 PUSH2 0x100 EXP DUP2 SLOAD DUP2 PUSH20 0xFFFFFFFFFFFFFFFFFFFFFFFFFFFFFFFFFFFFFFFF MUL NOT AND SWAP1 DUP4 PUSH20 0xFFFFFFFFFFFFFFFFFFFFFFFFFFFFFFFFFFFFFFFF AND MUL OR SWAP1 SSTORE POP PUSH1 0x1 PUSH1 0x7 DUP1 SLOAD SWAP1 POP PUSH2 0x769 SWAP2 SWAP1 PUSH2 0x2992 JUMP JUMPDEST PUSH1 0x9 PUSH1 0x0 DUP6 DUP6 DUP6 DUP2 DUP2 LT PUSH2 0x780 JUMPI PUSH2 0x77F PUSH2 0x2C3D JUMP JUMPDEST JUMPDEST SWAP1 POP PUSH1 0x20 MUL ADD PUSH1 0x20 DUP2 ADD SWAP1 PUSH2 0x795 SWAP2 SWAP1 PUSH2 0x2021 JUMP JUMPDEST PUSH20 0xFFFFFFFFFFFFFFFFFFFFFFFFFFFFFFFFFFFFFFFF AND PUSH20 0xFFFFFFFFFFFFFFFFFFFFFFFFFFFFFFFFFFFFFFFF AND DUP2 MSTORE PUSH1 0x20 ADD SWAP1 DUP2 MSTORE PUSH1 0x20 ADD PUSH1 0x0 KECCAK256 DUP2 SWAP1 SSTORE POP PUSH1 0x1 PUSH1 0xA PUSH1 0x0 DUP6 DUP6 DUP6 DUP2 DUP2 LT PUSH2 0x7EC JUMPI PUSH2 0x7EB PUSH2 0x2C3D JUMP JUMPDEST JUMPDEST SWAP1 POP PUSH1 0x20 MUL ADD PUSH1 0x20 DUP2 ADD SWAP1 PUSH2 0x801 SWAP2 SWAP1 PUSH2 0x2021 JUMP JUMPDEST PUSH20 0xFFFFFFFFFFFFFFFFFFFFFFFFFFFFFFFFFFFFFFFF AND PUSH20 0xFFFFFFFFFFFFFFFFFFFFFFFFFFFFFFFFFFFFFFFF AND DUP2 MSTORE PUSH1 0x20 ADD SWAP1 DUP2 MSTORE PUSH1 0x20 ADD PUSH1 0x0 KECCAK256 PUSH1 0x0 PUSH2 0x100 EXP DUP2 SLOAD DUP2 PUSH1 0xFF MUL NOT AND SWAP1 DUP4 ISZERO ISZERO MUL OR SWAP1 SSTORE POP PUSH1 0x8 PUSH1 0x0 DUP2 SLOAD DUP1 SWAP3 SWAP2 SWAP1 PUSH2 0x865 SWAP1 PUSH2 0x2B67 JUMP JUMPDEST SWAP2 SWAP1 POP SSTORE POP DUP1 DUP1 PUSH2 0x875 SWAP1 PUSH2 0x2B67 JUMP JUMPDEST SWAP2 POP POP PUSH2 0x4DB JUMP JUMPDEST POP POP POP JUMP JUMPDEST PUSH32 0x0 PUSH20 0xFFFFFFFFFFFFFFFFFFFFFFFFFFFFFFFFFFFFFFFF AND CALLER PUSH20 0xFFFFFFFFFFFFFFFFFFFFFFFFFFFFFFFFFFFFFFFF AND EQ PUSH2 0x910 JUMPI PUSH1 0x40 MLOAD PUSH32 0x8C379A000000000000000000000000000000000000000000000000000000000 DUP2 MSTORE PUSH1 0x4 ADD PUSH2 0x907 SWAP1 PUSH2 0x283C JUMP JUMPDEST PUSH1 0x40 MLOAD DUP1 SWAP2 SUB SWAP1 REVERT JUMPDEST PUSH1 0x0 PUSH1 0x2 DUP2 GT ISZERO PUSH2 0x924 JUMPI PUSH2 0x923 PUSH2 0x2BDF JUMP JUMPDEST JUMPDEST PUSH1 0x5 PUSH1 0x0 SWAP1 SLOAD SWAP1 PUSH2 0x100 EXP SWAP1 DIV PUSH1 0xFF AND PUSH1 0x2 DUP2 GT ISZERO PUSH2 0x946 JUMPI PUSH2 0x945 PUSH2 0x2BDF JUMP JUMPDEST JUMPDEST EQ PUSH2 0x986 JUMPI PUSH1 0x40 MLOAD PUSH32 0x8C379A000000000000000000000000000000000000000000000000000000000 DUP2 MSTORE PUSH1 0x4 ADD PUSH2 0x97D SWAP1 PUSH2 0x279C JUMP JUMPDEST PUSH1 0x40 MLOAD DUP1 SWAP2 SUB SWAP1 REVERT JUMPDEST PUSH1 0x0 DUP4 GT PUSH2 0x9C9 JUMPI PUSH1 0x40 MLOAD PUSH32 0x8C379A000000000000000000000000000000000000000000000000000000000 DUP2 MSTORE PUSH1 0x4 ADD PUSH2 0x9C0 SWAP1 PUSH2 0x27DC JUMP JUMPDEST PUSH1 0x40 MLOAD DUP1 SWAP2 SUB SWAP1 REVERT JUMPDEST DUP2 TIMESTAMP LT DUP1 ISZERO PUSH2 0x9D7 JUMPI POP DUP1 DUP3 LT JUMPDEST PUSH2 0xA16 JUMPI PUSH1 0x40 MLOAD PUSH32 0x8C379A000000000000000000000000000000000000000000000000000000000 DUP2 MSTORE PUSH1 0x4 ADD PUSH2 0xA0D SWAP1 PUSH2 0x275C JUMP JUMPDEST PUSH1 0x40 MLOAD DUP1 SWAP2 SUB SWAP1 REVERT JUMPDEST PUSH1 0x40 MLOAD DUP1 PUSH1 0xA0 ADD PUSH1 0x40 MSTORE DUP1 DUP7 DUP2 MSTORE PUSH1 0x20 ADD DUP6 DUP2 MSTORE PUSH1 0x20 ADD DUP5 DUP2 MSTORE PUSH1 0x20 ADD DUP4 DUP2 MSTORE PUSH1 0x20 ADD DUP3 DUP2 MSTORE POP PUSH1 0x0 DUP1 DUP3 ADD MLOAD DUP2 PUSH1 0x0 ADD SSTORE PUSH1 0x20 DUP3 ADD MLOAD DUP2 PUSH1 0x1 ADD SWAP1 DUP1 MLOAD SWAP1 PUSH1 0x20 ADD SWAP1 PUSH2 0xA64 SWAP3 SWAP2 SWAP1 PUSH2 0x1E64 JUMP JUMPDEST POP PUSH1 0x40 DUP3 ADD MLOAD DUP2 PUSH1 0x2 ADD SSTORE PUSH1 0x60 DUP3 ADD MLOAD DUP2 PUSH1 0x3 ADD SSTORE PUSH1 0x80 DUP3 ADD MLOAD DUP2 PUSH1 0x4 ADD SSTORE SWAP1 POP POP POP POP POP POP POP JUMP JUMPDEST PUSH1 0x5 PUSH1 0x0 SWAP1 SLOAD SWAP1 PUSH2 0x100 EXP SWAP1 DIV PUSH1 0xFF AND DUP2 JUMP JUMPDEST PUSH1 0x7 DUP2 DUP2 SLOAD DUP2 LT PUSH2 0xAB0 JUMPI PUSH1 0x0 DUP1 REVERT JUMPDEST SWAP1 PUSH1 0x0 MSTORE PUSH1 0x20 PUSH1 0x0 KECCAK256 ADD PUSH1 0x0 SWAP2 POP SLOAD SWAP1 PUSH2 0x100 EXP SWAP1 DIV PUSH20 0xFFFFFFFFFFFFFFFFFFFFFFFFFFFFFFFFFFFFFFFF AND DUP2 JUMP JUMPDEST PUSH32 0x0 PUSH20 0xFFFFFFFFFFFFFFFFFFFFFFFFFFFFFFFFFFFFFFFF AND CALLER PUSH20 0xFFFFFFFFFFFFFFFFFFFFFFFFFFFFFFFFFFFFFFFF AND EQ PUSH2 0xB6D JUMPI PUSH1 0x40 MLOAD PUSH32 0x8C379A000000000000000000000000000000000000000000000000000000000 DUP2 MSTORE PUSH1 0x4 ADD PUSH2 0xB64 SWAP1 PUSH2 0x283C JUMP JUMPDEST PUSH1 0x40 MLOAD DUP1 SWAP2 SUB SWAP1 REVERT JUMPDEST PUSH1 0x2 PUSH1 0x5 PUSH1 0x0 PUSH2 0x100 EXP DUP2 SLOAD DUP2 PUSH1 0xFF MUL NOT AND SWAP1 DUP4 PUSH1 0x2 DUP2 GT ISZERO PUSH2 0xB93 JUMPI PUSH2 0xB92 PUSH2 0x2BDF JUMP JUMPDEST JUMPDEST MUL OR SWAP1 SSTORE POP PUSH1 0x0 PUSH1 0x4 ADD SLOAD TIMESTAMP GT PUSH2 0xBA9 JUMPI PUSH1 0x0 DUP1 REVERT JUMPDEST PUSH32 0xBF67515A38EE520223D32C1266D52101C30D936ED1F3E436C8CAEB0A43CB06BF TIMESTAMP PUSH1 0x40 MLOAD PUSH2 0xBD8 SWAP2 SWAP1 PUSH2 0x285C JUMP JUMPDEST PUSH1 0x40 MLOAD DUP1 SWAP2 SUB SWAP1 LOG1 JUMP JUMPDEST PUSH1 0x5 PUSH1 0x1 SWAP1 SLOAD SWAP1 PUSH2 0x100 EXP SWAP1 DIV PUSH20 0xFFFFFFFFFFFFFFFFFFFFFFFFFFFFFFFFFFFFFFFF AND PUSH20 0xFFFFFFFFFFFFFFFFFFFFFFFFFFFFFFFFFFFFFFFF AND PUSH4 0x91D14854 PUSH32 0xC951D7098B66BA0B8B77265B6E9CF0E187D73125A42BCD0061B09A68BE421810 CALLER PUSH1 0x40 MLOAD DUP4 PUSH4 0xFFFFFFFF AND PUSH1 0xE0 SHL DUP2 MSTORE PUSH1 0x4 ADD PUSH2 0xC5F SWAP3 SWAP2 SWAP1 PUSH2 0x25FB JUMP JUMPDEST PUSH1 0x20 PUSH1 0x40 MLOAD DUP1 DUP4 SUB DUP2 DUP7 DUP1 EXTCODESIZE ISZERO DUP1 ISZERO PUSH2 0xC77 JUMPI PUSH1 0x0 DUP1 REVERT JUMPDEST POP GAS STATICCALL ISZERO DUP1 ISZERO PUSH2 0xC8B JUMPI RETURNDATASIZE PUSH1 0x0 DUP1 RETURNDATACOPY RETURNDATASIZE PUSH1 0x0 REVERT JUMPDEST POP POP POP POP PUSH1 0x40 MLOAD RETURNDATASIZE PUSH1 0x1F NOT PUSH1 0x1F DUP3 ADD AND DUP3 ADD DUP1 PUSH1 0x40 MSTORE POP DUP2 ADD SWAP1 PUSH2 0xCAF SWAP2 SWAP1 PUSH2 0x20C8 JUMP JUMPDEST PUSH2 0xCEE JUMPI PUSH1 0x40 MLOAD PUSH32 0x8C379A000000000000000000000000000000000000000000000000000000000 DUP2 MSTORE PUSH1 0x4 ADD PUSH2 0xCE5 SWAP1 PUSH2 0x26FC JUMP JUMPDEST PUSH1 0x40 MLOAD DUP1 SWAP2 SUB SWAP1 REVERT JUMPDEST PUSH1 0xA PUSH1 0x0 CALLER PUSH20 0xFFFFFFFFFFFFFFFFFFFFFFFFFFFFFFFFFFFFFFFF AND PUSH20 0xFFFFFFFFFFFFFFFFFFFFFFFFFFFFFFFFFFFFFFFF AND DUP2 MSTORE PUSH1 0x20 ADD SWAP1 DUP2 MSTORE PUSH1 0x20 ADD PUSH1 0x0 KECCAK256 PUSH1 0x0 SWAP1 SLOAD SWAP1 PUSH2 0x100 EXP SWAP1 DIV PUSH1 0xFF AND PUSH2 0xD7A JUMPI PUSH1 0x40 MLOAD PUSH32 0x8C379A000000000000000000000000000000000000000000000000000000000 DUP2 MSTORE PUSH1 0x4 ADD PUSH2 0xD71 SWAP1 PUSH2 0x27FC JUMP JUMPDEST PUSH1 0x40 MLOAD DUP1 SWAP2 SUB SWAP1 REVERT JUMPDEST PUSH1 0xB PUSH1 0x0 CALLER PUSH20 0xFFFFFFFFFFFFFFFFFFFFFFFFFFFFFFFFFFFFFFFF AND PUSH20 0xFFFFFFFFFFFFFFFFFFFFFFFFFFFFFFFFFFFFFFFF AND DUP2 MSTORE PUSH1 0x20 ADD SWAP1 DUP2 MSTORE PUSH1 0x20 ADD PUSH1 0x0 KECCAK256 PUSH1 0x0 SWAP1 SLOAD SWAP1 PUSH2 0x100 EXP SWAP1 DIV PUSH1 0xFF AND ISZERO PUSH2 0xE07 JUMPI PUSH1 0x40 MLOAD PUSH32 0x8C379A000000000000000000000000000000000000000000000000000000000 DUP2 MSTORE PUSH1 0x4 ADD PUSH2 0xDFE SWAP1 PUSH2 0x26DC JUMP JUMPDEST PUSH1 0x40 MLOAD DUP1 SWAP2 SUB SWAP1 REVERT JUMPDEST PUSH1 0x0 PUSH1 0x6 PUSH1 0x0 SWAP1 SLOAD SWAP1 PUSH2 0x100 EXP SWAP1 DIV PUSH20 0xFFFFFFFFFFFFFFFFFFFFFFFFFFFFFFFFFFFFFFFF AND PUSH20 0xFFFFFFFFFFFFFFFFFFFFFFFFFFFFFFFFFFFFFFFF AND PUSH4 0xC59671C1 PUSH1 0x40 MLOAD DUP2 PUSH4 0xFFFFFFFF AND PUSH1 0xE0 SHL DUP2 MSTORE PUSH1 0x4 ADD PUSH1 0x20 PUSH1 0x40 MLOAD DUP1 DUP4 SUB DUP2 DUP7 DUP1 EXTCODESIZE ISZERO DUP1 ISZERO PUSH2 0xE71 JUMPI PUSH1 0x0 DUP1 REVERT JUMPDEST POP GAS STATICCALL ISZERO DUP1 ISZERO PUSH2 0xE85 JUMPI RETURNDATASIZE PUSH1 0x0 DUP1 RETURNDATACOPY RETURNDATASIZE PUSH1 0x0 REVERT JUMPDEST POP POP POP POP PUSH1 0x40 MLOAD RETURNDATASIZE PUSH1 0x1F NOT PUSH1 0x1F DUP3 ADD AND DUP3 ADD DUP1 PUSH1 0x40 MSTORE POP DUP2 ADD SWAP1 PUSH2 0xEA9 SWAP2 SWAP1 PUSH2 0x204E JUMP JUMPDEST SWAP1 POP PUSH2 0xEFF CALLER PUSH1 0x6 PUSH1 0x0 SWAP1 SLOAD SWAP1 PUSH2 0x100 EXP SWAP1 DIV PUSH20 0xFFFFFFFFFFFFFFFFFFFFFFFFFFFFFFFFFFFFFFFF AND PUSH1 0x0 PUSH1 0x2 ADD SLOAD DUP5 PUSH20 0xFFFFFFFFFFFFFFFFFFFFFFFFFFFFFFFFFFFFFFFF AND PUSH2 0x1B5E SWAP1 SWAP4 SWAP3 SWAP2 SWAP1 PUSH4 0xFFFFFFFF AND JUMP JUMPDEST PUSH1 0x1 PUSH1 0xB PUSH1 0x0 CALLER PUSH20 0xFFFFFFFFFFFFFFFFFFFFFFFFFFFFFFFFFFFFFFFF AND PUSH20 0xFFFFFFFFFFFFFFFFFFFFFFFFFFFFFFFFFFFFFFFF AND DUP2 MSTORE PUSH1 0x20 ADD SWAP1 DUP2 MSTORE PUSH1 0x20 ADD PUSH1 0x0 KECCAK256 PUSH1 0x0 PUSH2 0x100 EXP DUP2 SLOAD DUP2 PUSH1 0xFF MUL NOT AND SWAP1 DUP4 ISZERO ISZERO MUL OR SWAP1 SSTORE POP PUSH32 0x34F914F46F0A40EB0E7B1396063B87A1819F28ED7B5A63829D59F41EBA61A1AE CALLER TIMESTAMP PUSH1 0x0 PUSH1 0x40 MLOAD PUSH2 0xF8B SWAP4 SWAP3 SWAP2 SWAP1 PUSH2 0x2587 JUMP JUMPDEST PUSH1 0x40 MLOAD DUP1 SWAP2 SUB SWAP1 LOG1 POP JUMP JUMPDEST PUSH1 0x5 PUSH1 0x1 SWAP1 SLOAD SWAP1 PUSH2 0x100 EXP SWAP1 DIV PUSH20 0xFFFFFFFFFFFFFFFFFFFFFFFFFFFFFFFFFFFFFFFF AND PUSH20 0xFFFFFFFFFFFFFFFFFFFFFFFFFFFFFFFFFFFFFFFF AND PUSH4 0x91D14854 PUSH32 0xDF8B4C520FFE197C5343C6F5AEC59570151EF9A492F2C624FD45DDDE6135EC42 CALLER PUSH1 0x40 MLOAD DUP4 PUSH4 0xFFFFFFFF AND PUSH1 0xE0 SHL DUP2 MSTORE PUSH1 0x4 ADD PUSH2 0x1013 SWAP3 SWAP2 SWAP1 PUSH2 0x25FB JUMP JUMPDEST PUSH1 0x20 PUSH1 0x40 MLOAD DUP1 DUP4 SUB DUP2 DUP7 DUP1 EXTCODESIZE ISZERO DUP1 ISZERO PUSH2 0x102B JUMPI PUSH1 0x0 DUP1 REVERT JUMPDEST POP GAS STATICCALL ISZERO DUP1 ISZERO PUSH2 0x103F JUMPI RETURNDATASIZE PUSH1 0x0 DUP1 RETURNDATACOPY RETURNDATASIZE PUSH1 0x0 REVERT JUMPDEST POP POP POP POP PUSH1 0x40 MLOAD RETURNDATASIZE PUSH1 0x1F NOT PUSH1 0x1F DUP3 ADD AND DUP3 ADD DUP1 PUSH1 0x40 MSTORE POP DUP2 ADD SWAP1 PUSH2 0x1063 SWAP2 SWAP1 PUSH2 0x20C8 JUMP JUMPDEST PUSH2 0x10A2 JUMPI PUSH1 0x40 MLOAD PUSH32 0x8C379A000000000000000000000000000000000000000000000000000000000 DUP2 MSTORE PUSH1 0x4 ADD PUSH2 0x1099 SWAP1 PUSH2 0x269C JUMP JUMPDEST PUSH1 0x40 MLOAD DUP1 SWAP2 SUB SWAP1 REVERT JUMPDEST PUSH1 0xA PUSH1 0x0 DUP3 PUSH20 0xFFFFFFFFFFFFFFFFFFFFFFFFFFFFFFFFFFFFFFFF AND PUSH20 0xFFFFFFFFFFFFFFFFFFFFFFFFFFFFFFFFFFFFFFFF AND DUP2 MSTORE PUSH1 0x20 ADD SWAP1 DUP2 MSTORE PUSH1 0x20 ADD PUSH1 0x0 KECCAK256 PUSH1 0x0 SWAP1 SLOAD SWAP1 PUSH2 0x100 EXP SWAP1 DIV PUSH1 0xFF AND PUSH2 0x112E JUMPI PUSH1 0x40 MLOAD PUSH32 0x8C379A000000000000000000000000000000000000000000000000000000000 DUP2 MSTORE PUSH1 0x4 ADD PUSH2 0x1125 SWAP1 PUSH2 0x26BC JUMP JUMPDEST PUSH1 0x40 MLOAD DUP1 SWAP2 SUB SWAP1 REVERT JUMPDEST PUSH1 0x0 PUSH1 0x9 PUSH1 0x0 DUP4 PUSH20 0xFFFFFFFFFFFFFFFFFFFFFFFFFFFFFFFFFFFFFFFF AND PUSH20 0xFFFFFFFFFFFFFFFFFFFFFFFFFFFFFFFFFFFFFFFF AND DUP2 MSTORE PUSH1 0x20 ADD SWAP1 DUP2 MSTORE PUSH1 0x20 ADD PUSH1 0x0 KECCAK256 SLOAD SWAP1 POP PUSH1 0x8 PUSH1 0x0 DUP2 SLOAD DUP1 SWAP3 SWAP2 SWAP1 PUSH2 0x1185 SWAP1 PUSH2 0x2ADA JUMP JUMPDEST SWAP2 SWAP1 POP SSTORE POP PUSH1 0x0 PUSH1 0xA PUSH1 0x0 DUP5 PUSH20 0xFFFFFFFFFFFFFFFFFFFFFFFFFFFFFFFFFFFFFFFF AND PUSH20 0xFFFFFFFFFFFFFFFFFFFFFFFFFFFFFFFFFFFFFFFF AND DUP2 MSTORE PUSH1 0x20 ADD SWAP1 DUP2 MSTORE PUSH1 0x20 ADD PUSH1 0x0 KECCAK256 PUSH1 0x0 PUSH2 0x100 EXP DUP2 SLOAD DUP2 PUSH1 0xFF MUL NOT AND SWAP1 DUP4 ISZERO ISZERO MUL OR SWAP1 SSTORE POP PUSH1 0x7 DUP2 DUP2 SLOAD DUP2 LT PUSH2 0x11F6 JUMPI PUSH2 0x11F5 PUSH2 0x2C3D JUMP JUMPDEST JUMPDEST SWAP1 PUSH1 0x0 MSTORE PUSH1 0x20 PUSH1 0x0 KECCAK256 ADD PUSH1 0x0 PUSH2 0x100 EXP DUP2 SLOAD SWAP1 PUSH20 0xFFFFFFFFFFFFFFFFFFFFFFFFFFFFFFFFFFFFFFFF MUL NOT AND SWAP1 SSTORE POP POP JUMP JUMPDEST PUSH32 0x0 DUP2 JUMP JUMPDEST PUSH1 0x5 PUSH1 0x1 SWAP1 SLOAD SWAP1 PUSH2 0x100 EXP SWAP1 DIV PUSH20 0xFFFFFFFFFFFFFFFFFFFFFFFFFFFFFFFFFFFFFFFF AND PUSH20 0xFFFFFFFFFFFFFFFFFFFFFFFFFFFFFFFFFFFFFFFF AND PUSH4 0x91D14854 PUSH32 0xDF8B4C520FFE197C5343C6F5AEC59570151EF9A492F2C624FD45DDDE6135EC42 CALLER PUSH1 0x40 MLOAD DUP4 PUSH4 0xFFFFFFFF AND PUSH1 0xE0 SHL DUP2 MSTORE PUSH1 0x4 ADD PUSH2 0x12C8 SWAP3 SWAP2 SWAP1 PUSH2 0x25FB JUMP JUMPDEST PUSH1 0x20 PUSH1 0x40 MLOAD DUP1 DUP4 SUB DUP2 DUP7 DUP1 EXTCODESIZE ISZERO DUP1 ISZERO PUSH2 0x12E0 JUMPI PUSH1 0x0 DUP1 REVERT JUMPDEST POP GAS STATICCALL ISZERO DUP1 ISZERO PUSH2 0x12F4 JUMPI RETURNDATASIZE PUSH1 0x0 DUP1 RETURNDATACOPY RETURNDATASIZE PUSH1 0x0 REVERT JUMPDEST POP POP POP POP PUSH1 0x40 MLOAD RETURNDATASIZE PUSH1 0x1F NOT PUSH1 0x1F DUP3 ADD AND DUP3 ADD DUP1 PUSH1 0x40 MSTORE POP DUP2 ADD SWAP1 PUSH2 0x1318 SWAP2 SWAP1 PUSH2 0x20C8 JUMP JUMPDEST PUSH2 0x1357 JUMPI PUSH1 0x40 MLOAD PUSH32 0x8C379A000000000000000000000000000000000000000000000000000000000 DUP2 MSTORE PUSH1 0x4 ADD PUSH2 0x134E SWAP1 PUSH2 0x269C JUMP JUMPDEST PUSH1 0x40 MLOAD DUP1 SWAP2 SUB SWAP1 REVERT JUMPDEST PUSH1 0xA PUSH1 0x0 CALLER PUSH20 0xFFFFFFFFFFFFFFFFFFFFFFFFFFFFFFFFFFFFFFFF AND PUSH20 0xFFFFFFFFFFFFFFFFFFFFFFFFFFFFFFFFFFFFFFFF AND DUP2 MSTORE PUSH1 0x20 ADD SWAP1 DUP2 MSTORE PUSH1 0x20 ADD PUSH1 0x0 KECCAK256 PUSH1 0x0 SWAP1 SLOAD SWAP1 PUSH2 0x100 EXP SWAP1 DIV PUSH1 0xFF AND PUSH2 0x13E3 JUMPI PUSH1 0x40 MLOAD PUSH32 0x8C379A000000000000000000000000000000000000000000000000000000000 DUP2 MSTORE PUSH1 0x4 ADD PUSH2 0x13DA SWAP1 PUSH2 0x27FC JUMP JUMPDEST PUSH1 0x40 MLOAD DUP1 SWAP2 SUB SWAP1 REVERT JUMPDEST PUSH1 0xB PUSH1 0x0 CALLER PUSH20 0xFFFFFFFFFFFFFFFFFFFFFFFFFFFFFFFFFFFFFFFF AND PUSH20 0xFFFFFFFFFFFFFFFFFFFFFFFFFFFFFFFFFFFFFFFF AND DUP2 MSTORE PUSH1 0x20 ADD SWAP1 DUP2 MSTORE PUSH1 0x20 ADD PUSH1 0x0 KECCAK256 PUSH1 0x0 SWAP1 SLOAD SWAP1 PUSH2 0x100 EXP SWAP1 DIV PUSH1 0xFF AND ISZERO PUSH2 0x1470 JUMPI PUSH1 0x40 MLOAD PUSH32 0x8C379A000000000000000000000000000000000000000000000000000000000 DUP2 MSTORE PUSH1 0x4 ADD PUSH2 0x1467 SWAP1 PUSH2 0x26DC JUMP JUMPDEST PUSH1 0x40 MLOAD DUP1 SWAP2 SUB SWAP1 REVERT JUMPDEST PUSH1 0x1 PUSH1 0xB PUSH1 0x0 CALLER PUSH20 0xFFFFFFFFFFFFFFFFFFFFFFFFFFFFFFFFFFFFFFFF AND PUSH20 0xFFFFFFFFFFFFFFFFFFFFFFFFFFFFFFFFFFFFFFFF AND DUP2 MSTORE PUSH1 0x20 ADD SWAP1 DUP2 MSTORE PUSH1 0x20 ADD PUSH1 0x0 KECCAK256 PUSH1 0x0 PUSH2 0x100 EXP DUP2 SLOAD DUP2 PUSH1 0xFF MUL NOT AND SWAP1 DUP4 ISZERO ISZERO MUL OR SWAP1 SSTORE POP PUSH32 0x34F914F46F0A40EB0E7B1396063B87A1819F28ED7B5A63829D59F41EBA61A1AE CALLER TIMESTAMP PUSH1 0x1 PUSH1 0x40 MLOAD PUSH2 0x14FC SWAP4 SWAP3 SWAP2 SWAP1 PUSH2 0x2587 JUMP JUMPDEST PUSH1 0x40 MLOAD DUP1 SWAP2 SUB SWAP1 LOG1 JUMP JUMPDEST PUSH1 0xB PUSH1 0x20 MSTORE DUP1 PUSH1 0x0 MSTORE PUSH1 0x40 PUSH1 0x0 KECCAK256 PUSH1 0x0 SWAP2 POP SLOAD SWAP1 PUSH2 0x100 EXP SWAP1 DIV PUSH1 0xFF AND DUP2 JUMP JUMPDEST PUSH1 0x60 PUSH1 0x0 PUSH1 0x8 SLOAD PUSH8 0xFFFFFFFFFFFFFFFF DUP2 GT ISZERO PUSH2 0x1546 JUMPI PUSH2 0x1545 PUSH2 0x2C6C JUMP JUMPDEST JUMPDEST PUSH1 0x40 MLOAD SWAP1 DUP1 DUP3 MSTORE DUP1 PUSH1 0x20 MUL PUSH1 0x20 ADD DUP3 ADD PUSH1 0x40 MSTORE DUP1 ISZERO PUSH2 0x1574 JUMPI DUP2 PUSH1 0x20 ADD PUSH1 0x20 DUP3 MUL DUP1 CALLDATASIZE DUP4 CALLDATACOPY DUP1 DUP3 ADD SWAP2 POP POP SWAP1 POP JUMPDEST POP SWAP1 POP PUSH1 0x0 DUP1 PUSH1 0x0 SWAP1 POP JUMPDEST PUSH1 0x7 DUP1 SLOAD SWAP1 POP DUP2 LT ISZERO PUSH2 0x16CA JUMPI PUSH1 0xB PUSH1 0x0 PUSH1 0x7 DUP4 DUP2 SLOAD DUP2 LT PUSH2 0x15A4 JUMPI PUSH2 0x15A3 PUSH2 0x2C3D JUMP JUMPDEST JUMPDEST SWAP1 PUSH1 0x0 MSTORE PUSH1 0x20 PUSH1 0x0 KECCAK256 ADD PUSH1 0x0 SWAP1 SLOAD SWAP1 PUSH2 0x100 EXP SWAP1 DIV PUSH20 0xFFFFFFFFFFFFFFFFFFFFFFFFFFFFFFFFFFFFFFFF AND PUSH20 0xFFFFFFFFFFFFFFFFFFFFFFFFFFFFFFFFFFFFFFFF AND PUSH20 0xFFFFFFFFFFFFFFFFFFFFFFFFFFFFFFFFFFFFFFFF AND DUP2 MSTORE PUSH1 0x20 ADD SWAP1 DUP2 MSTORE PUSH1 0x20 ADD PUSH1 0x0 KECCAK256 PUSH1 0x0 SWAP1 SLOAD SWAP1 PUSH2 0x100 EXP SWAP1 DIV PUSH1 0xFF AND ISZERO PUSH2 0x16B7 JUMPI PUSH1 0x7 DUP2 DUP2 SLOAD DUP2 LT PUSH2 0x1630 JUMPI PUSH2 0x162F PUSH2 0x2C3D JUMP JUMPDEST JUMPDEST SWAP1 PUSH1 0x0 MSTORE PUSH1 0x20 PUSH1 0x0 KECCAK256 ADD PUSH1 0x0 SWAP1 SLOAD SWAP1 PUSH2 0x100 EXP SWAP1 DIV PUSH20 0xFFFFFFFFFFFFFFFFFFFFFFFFFFFFFFFFFFFFFFFF AND DUP4 DUP4 DUP2 MLOAD DUP2 LT PUSH2 0x166E JUMPI PUSH2 0x166D PUSH2 0x2C3D JUMP JUMPDEST JUMPDEST PUSH1 0x20 MUL PUSH1 0x20 ADD ADD SWAP1 PUSH20 0xFFFFFFFFFFFFFFFFFFFFFFFFFFFFFFFFFFFFFFFF AND SWAP1 DUP2 PUSH20 0xFFFFFFFFFFFFFFFFFFFFFFFFFFFFFFFFFFFFFFFF AND DUP2 MSTORE POP POP DUP2 DUP1 PUSH2 0x16B3 SWAP1 PUSH2 0x2B67 JUMP JUMPDEST SWAP3 POP POP JUMPDEST DUP1 DUP1 PUSH2 0x16C2 SWAP1 PUSH2 0x2B67 JUMP JUMPDEST SWAP2 POP POP PUSH2 0x157F JUMP JUMPDEST POP DUP2 SWAP3 POP POP POP SWAP1 JUMP JUMPDEST PUSH1 0x0 DUP1 PUSH1 0x0 ADD SLOAD SWAP1 DUP1 PUSH1 0x1 ADD DUP1 SLOAD PUSH2 0x16EA SWAP1 PUSH2 0x2B04 JUMP JUMPDEST DUP1 PUSH1 0x1F ADD PUSH1 0x20 DUP1 SWAP2 DIV MUL PUSH1 0x20 ADD PUSH1 0x40 MLOAD SWAP1 DUP2 ADD PUSH1 0x40 MSTORE DUP1 SWAP3 SWAP2 SWAP1 DUP2 DUP2 MSTORE PUSH1 0x20 ADD DUP3 DUP1 SLOAD PUSH2 0x1716 SWAP1 PUSH2 0x2B04 JUMP JUMPDEST DUP1 ISZERO PUSH2 0x1763 JUMPI DUP1 PUSH1 0x1F LT PUSH2 0x1738 JUMPI PUSH2 0x100 DUP1 DUP4 SLOAD DIV MUL DUP4 MSTORE SWAP2 PUSH1 0x20 ADD SWAP2 PUSH2 0x1763 JUMP JUMPDEST DUP3 ADD SWAP2 SWAP1 PUSH1 0x0 MSTORE PUSH1 0x20 PUSH1 0x0 KECCAK256 SWAP1 JUMPDEST DUP2 SLOAD DUP2 MSTORE SWAP1 PUSH1 0x1 ADD SWAP1 PUSH1 0x20 ADD DUP1 DUP4 GT PUSH2 0x1746 JUMPI DUP3 SWAP1 SUB PUSH1 0x1F AND DUP3 ADD SWAP2 JUMPDEST POP POP POP POP POP SWAP1 DUP1 PUSH1 0x2 ADD SLOAD SWAP1 DUP1 PUSH1 0x3 ADD SLOAD SWAP1 DUP1 PUSH1 0x4 ADD SLOAD SWAP1 POP DUP6 JUMP JUMPDEST PUSH1 0x5 PUSH1 0x1 SWAP1 SLOAD SWAP1 PUSH2 0x100 EXP SWAP1 DIV PUSH20 0xFFFFFFFFFFFFFFFFFFFFFFFFFFFFFFFFFFFFFFFF AND DUP2 JUMP JUMPDEST PUSH1 0x8 SLOAD DUP2 JUMP JUMPDEST PUSH1 0x6 PUSH1 0x0 SWAP1 SLOAD SWAP1 PUSH2 0x100 EXP SWAP1 DIV PUSH20 0xFFFFFFFFFFFFFFFFFFFFFFFFFFFFFFFFFFFFFFFF AND DUP2 JUMP JUMPDEST PUSH1 0xA PUSH1 0x20 MSTORE DUP1 PUSH1 0x0 MSTORE PUSH1 0x40 PUSH1 0x0 KECCAK256 PUSH1 0x0 SWAP2 POP SLOAD SWAP1 PUSH2 0x100 EXP SWAP1 DIV PUSH1 0xFF AND DUP2 JUMP JUMPDEST PUSH32 0x0 PUSH20 0xFFFFFFFFFFFFFFFFFFFFFFFFFFFFFFFFFFFFFFFF AND CALLER PUSH20 0xFFFFFFFFFFFFFFFFFFFFFFFFFFFFFFFFFFFFFFFF AND EQ PUSH2 0x187F JUMPI PUSH1 0x40 MLOAD PUSH32 0x8C379A000000000000000000000000000000000000000000000000000000000 DUP2 MSTORE PUSH1 0x4 ADD PUSH2 0x1876 SWAP1 PUSH2 0x283C JUMP JUMPDEST PUSH1 0x40 MLOAD DUP1 SWAP2 SUB SWAP1 REVERT JUMPDEST PUSH1 0x0 PUSH1 0x2 DUP2 GT ISZERO PUSH2 0x1893 JUMPI PUSH2 0x1892 PUSH2 0x2BDF JUMP JUMPDEST JUMPDEST PUSH1 0x5 PUSH1 0x0 SWAP1 SLOAD SWAP1 PUSH2 0x100 EXP SWAP1 DIV PUSH1 0xFF AND PUSH1 0x2 DUP2 GT ISZERO PUSH2 0x18B5 JUMPI PUSH2 0x18B4 PUSH2 0x2BDF JUMP JUMPDEST JUMPDEST EQ PUSH2 0x18F5 JUMPI PUSH1 0x40 MLOAD PUSH32 0x8C379A000000000000000000000000000000000000000000000000000000000 DUP2 MSTORE PUSH1 0x4 ADD PUSH2 0x18EC SWAP1 PUSH2 0x279C JUMP JUMPDEST PUSH1 0x40 MLOAD DUP1 SWAP2 SUB SWAP1 REVERT JUMPDEST PUSH1 0x1 PUSH1 0x5 PUSH1 0x0 PUSH2 0x100 EXP DUP2 SLOAD DUP2 PUSH1 0xFF MUL NOT AND SWAP1 DUP4 PUSH1 0x2 DUP2 GT ISZERO PUSH2 0x191B JUMPI PUSH2 0x191A PUSH2 0x2BDF JUMP JUMPDEST JUMPDEST MUL OR SWAP1 SSTORE POP JUMP JUMPDEST PUSH1 0x9 PUSH1 0x20 MSTORE DUP1 PUSH1 0x0 MSTORE PUSH1 0x40 PUSH1 0x0 KECCAK256 PUSH1 0x0 SWAP2 POP SWAP1 POP SLOAD DUP2 JUMP JUMPDEST PUSH1 0x60 PUSH1 0x0 PUSH1 0x8 SLOAD PUSH8 0xFFFFFFFFFFFFFFFF DUP2 GT ISZERO PUSH2 0x195A JUMPI PUSH2 0x1959 PUSH2 0x2C6C JUMP JUMPDEST JUMPDEST PUSH1 0x40 MLOAD SWAP1 DUP1 DUP3 MSTORE DUP1 PUSH1 0x20 MUL PUSH1 0x20 ADD DUP3 ADD PUSH1 0x40 MSTORE DUP1 ISZERO PUSH2 0x1988 JUMPI DUP2 PUSH1 0x20 ADD PUSH1 0x20 DUP3 MUL DUP1 CALLDATASIZE DUP4 CALLDATACOPY DUP1 DUP3 ADD SWAP2 POP POP SWAP1 POP JUMPDEST POP SWAP1 POP PUSH1 0x0 DUP1 PUSH1 0x0 SWAP1 POP JUMPDEST PUSH1 0x7 DUP1 SLOAD SWAP1 POP DUP2 LT ISZERO PUSH2 0x1B55 JUMPI PUSH1 0xA PUSH1 0x0 PUSH1 0x7 DUP4 DUP2 SLOAD DUP2 LT PUSH2 0x19B8 JUMPI PUSH2 0x19B7 PUSH2 0x2C3D JUMP JUMPDEST JUMPDEST SWAP1 PUSH1 0x0 MSTORE PUSH1 0x20 PUSH1 0x0 KECCAK256 ADD PUSH1 0x0 SWAP1 SLOAD SWAP1 PUSH2 0x100 EXP SWAP1 DIV PUSH20 0xFFFFFFFFFFFFFFFFFFFFFFFFFFFFFFFFFFFFFFFF AND PUSH20 0xFFFFFFFFFFFFFFFFFFFFFFFFFFFFFFFFFFFFFFFF AND PUSH20 0xFFFFFFFFFFFFFFFFFFFFFFFFFFFFFFFFFFFFFFFF AND DUP2 MSTORE PUSH1 0x20 ADD SWAP1 DUP2 MSTORE PUSH1 0x20 ADD PUSH1 0x0 KECCAK256 PUSH1 0x0 SWAP1 SLOAD SWAP1 PUSH2 0x100 EXP SWAP1 DIV PUSH1 0xFF AND DUP1 ISZERO PUSH2 0x1AA2 JUMPI POP PUSH1 0x0 PUSH20 0xFFFFFFFFFFFFFFFFFFFFFFFFFFFFFFFFFFFFFFFF AND PUSH1 0x7 DUP3 DUP2 SLOAD DUP2 LT PUSH2 0x1A5E JUMPI PUSH2 0x1A5D PUSH2 0x2C3D JUMP JUMPDEST JUMPDEST SWAP1 PUSH1 0x0 MSTORE PUSH1 0x20 PUSH1 0x0 KECCAK256 ADD PUSH1 0x0 SWAP1 SLOAD SWAP1 PUSH2 0x100 EXP SWAP1 DIV PUSH20 0xFFFFFFFFFFFFFFFFFFFFFFFFFFFFFFFFFFFFFFFF AND PUSH20 0xFFFFFFFFFFFFFFFFFFFFFFFFFFFFFFFFFFFFFFFF AND EQ ISZERO JUMPDEST ISZERO PUSH2 0x1B42 JUMPI PUSH1 0x7 DUP2 DUP2 SLOAD DUP2 LT PUSH2 0x1ABB JUMPI PUSH2 0x1ABA PUSH2 0x2C3D JUMP JUMPDEST JUMPDEST SWAP1 PUSH1 0x0 MSTORE PUSH1 0x20 PUSH1 0x0 KECCAK256 ADD PUSH1 0x0 SWAP1 SLOAD SWAP1 PUSH2 0x100 EXP SWAP1 DIV PUSH20 0xFFFFFFFFFFFFFFFFFFFFFFFFFFFFFFFFFFFFFFFF AND DUP4 DUP4 DUP2 MLOAD DUP2 LT PUSH2 0x1AF9 JUMPI PUSH2 0x1AF8 PUSH2 0x2C3D JUMP JUMPDEST JUMPDEST PUSH1 0x20 MUL PUSH1 0x20 ADD ADD SWAP1 PUSH20 0xFFFFFFFFFFFFFFFFFFFFFFFFFFFFFFFFFFFFFFFF AND SWAP1 DUP2 PUSH20 0xFFFFFFFFFFFFFFFFFFFFFFFFFFFFFFFFFFFFFFFF AND DUP2 MSTORE POP POP DUP2 DUP1 PUSH2 0x1B3E SWAP1 PUSH2 0x2B67 JUMP JUMPDEST SWAP3 POP POP JUMPDEST DUP1 DUP1 PUSH2 0x1B4D SWAP1 PUSH2 0x2B67 JUMP JUMPDEST SWAP2 POP POP PUSH2 0x1993 JUMP JUMPDEST POP DUP2 SWAP3 POP POP POP SWAP1 JUMP JUMPDEST PUSH2 0x1BE1 DUP5 PUSH4 0x23B872DD PUSH1 0xE0 SHL DUP6 DUP6 DUP6 PUSH1 0x40 MLOAD PUSH1 0x24 ADD PUSH2 0x1B7F SWAP4 SWAP3 SWAP2 SWAP1 PUSH2 0x2550 JUMP JUMPDEST PUSH1 0x40 MLOAD PUSH1 0x20 DUP2 DUP4 SUB SUB DUP2 MSTORE SWAP1 PUSH1 0x40 MSTORE SWAP1 PUSH28 0xFFFFFFFFFFFFFFFFFFFFFFFFFFFFFFFFFFFFFFFFFFFFFFFFFFFFFFFF NOT AND PUSH1 0x20 DUP3 ADD DUP1 MLOAD PUSH28 0xFFFFFFFFFFFFFFFFFFFFFFFFFFFFFFFFFFFFFFFFFFFFFFFFFFFFFFFF DUP4 DUP2 DUP4 AND OR DUP4 MSTORE POP POP POP POP PUSH2 0x1BE7 JUMP JUMPDEST POP POP POP POP JUMP JUMPDEST PUSH1 0x0 PUSH2 0x1C49 DUP3 PUSH1 0x40 MLOAD DUP1 PUSH1 0x40 ADD PUSH1 0x40 MSTORE DUP1 PUSH1 0x20 DUP2 MSTORE PUSH1 0x20 ADD PUSH32 0x5361666545524332303A206C6F772D6C6576656C2063616C6C206661696C6564 DUP2 MSTORE POP DUP6 PUSH20 0xFFFFFFFFFFFFFFFFFFFFFFFFFFFFFFFFFFFFFFFF AND PUSH2 0x1CAE SWAP1 SWAP3 SWAP2 SWAP1 PUSH4 0xFFFFFFFF AND JUMP JUMPDEST SWAP1 POP PUSH1 0x0 DUP2 MLOAD GT ISZERO PUSH2 0x1CA9 JUMPI DUP1 DUP1 PUSH1 0x20 ADD SWAP1 MLOAD DUP2 ADD SWAP1 PUSH2 0x1C69 SWAP2 SWAP1 PUSH2 0x20C8 JUMP JUMPDEST PUSH2 0x1CA8 JUMPI PUSH1 0x40 MLOAD PUSH32 0x8C379A000000000000000000000000000000000000000000000000000000000 DUP2 MSTORE PUSH1 0x4 ADD PUSH2 0x1C9F SWAP1 PUSH2 0x281C JUMP JUMPDEST PUSH1 0x40 MLOAD DUP1 SWAP2 SUB SWAP1 REVERT JUMPDEST JUMPDEST POP POP POP JUMP JUMPDEST PUSH1 0x60 PUSH2 0x1CBD DUP5 DUP5 PUSH1 0x0 DUP6 PUSH2 0x1CC6 JUMP JUMPDEST SWAP1 POP SWAP4 SWAP3 POP POP POP JUMP JUMPDEST PUSH1 0x60 DUP3 SELFBALANCE LT ISZERO PUSH2 0x1D0B JUMPI PUSH1 0x40 MLOAD PUSH32 0x8C379A000000000000000000000000000000000000000000000000000000000 DUP2 MSTORE PUSH1 0x4 ADD PUSH2 0x1D02 SWAP1 PUSH2 0x273C JUMP JUMPDEST PUSH1 0x40 MLOAD DUP1 SWAP2 SUB SWAP1 REVERT JUMPDEST PUSH2 0x1D14 DUP6 PUSH2 0x1DDA JUMP JUMPDEST PUSH2 0x1D53 JUMPI PUSH1 0x40 MLOAD PUSH32 0x8C379A000000000000000000000000000000000000000000000000000000000 DUP2 MSTORE PUSH1 0x4 ADD PUSH2 0x1D4A SWAP1 PUSH2 0x27BC JUMP JUMPDEST PUSH1 0x40 MLOAD DUP1 SWAP2 SUB SWAP1 REVERT JUMPDEST PUSH1 0x0 DUP1 DUP7 PUSH20 0xFFFFFFFFFFFFFFFFFFFFFFFFFFFFFFFFFFFFFFFF AND DUP6 DUP8 PUSH1 0x40 MLOAD PUSH2 0x1D7C SWAP2 SWAP1 PUSH2 0x251E JUMP JUMPDEST PUSH1 0x0 PUSH1 0x40 MLOAD DUP1 DUP4 SUB DUP2 DUP6 DUP8 GAS CALL SWAP3 POP POP POP RETURNDATASIZE DUP1 PUSH1 0x0 DUP2 EQ PUSH2 0x1DB9 JUMPI PUSH1 0x40 MLOAD SWAP2 POP PUSH1 0x1F NOT PUSH1 0x3F RETURNDATASIZE ADD AND DUP3 ADD PUSH1 0x40 MSTORE RETURNDATASIZE DUP3 MSTORE RETURNDATASIZE PUSH1 0x0 PUSH1 0x20 DUP5 ADD RETURNDATACOPY PUSH2 0x1DBE JUMP JUMPDEST PUSH1 0x60 SWAP2 POP JUMPDEST POP SWAP2 POP SWAP2 POP PUSH2 0x1DCE DUP3 DUP3 DUP7 PUSH2 0x1DFD JUMP JUMPDEST SWAP3 POP POP POP SWAP5 SWAP4 POP POP POP POP JUMP JUMPDEST PUSH1 0x0 DUP1 DUP3 PUSH20 0xFFFFFFFFFFFFFFFFFFFFFFFFFFFFFFFFFFFFFFFF AND EXTCODESIZE GT SWAP1 POP SWAP2 SWAP1 POP JUMP JUMPDEST PUSH1 0x60 DUP4 ISZERO PUSH2 0x1E0D JUMPI DUP3 SWAP1 POP PUSH2 0x1E5D JUMP JUMPDEST PUSH1 0x0 DUP4 MLOAD GT ISZERO PUSH2 0x1E20 JUMPI DUP3 MLOAD DUP1 DUP5 PUSH1 0x20 ADD REVERT JUMPDEST DUP2 PUSH1 0x40 MLOAD PUSH32 0x8C379A000000000000000000000000000000000000000000000000000000000 DUP2 MSTORE PUSH1 0x4 ADD PUSH2 0x1E54 SWAP2 SWAP1 PUSH2 0x265A JUMP JUMPDEST PUSH1 0x40 MLOAD DUP1 SWAP2 SUB SWAP1 REVERT JUMPDEST SWAP4 SWAP3 POP POP POP JUMP JUMPDEST DUP3 DUP1 SLOAD PUSH2 0x1E70 SWAP1 PUSH2 0x2B04 JUMP JUMPDEST SWAP1 PUSH1 0x0 MSTORE PUSH1 0x20 PUSH1 0x0 KECCAK256 SWAP1 PUSH1 0x1F ADD PUSH1 0x20 SWAP1 DIV DUP2 ADD SWAP3 DUP3 PUSH2 0x1E92 JUMPI PUSH1 0x0 DUP6 SSTORE PUSH2 0x1ED9 JUMP JUMPDEST DUP3 PUSH1 0x1F LT PUSH2 0x1EAB JUMPI DUP1 MLOAD PUSH1 0xFF NOT AND DUP4 DUP1 ADD OR DUP6 SSTORE PUSH2 0x1ED9 JUMP JUMPDEST DUP3 DUP1 ADD PUSH1 0x1 ADD DUP6 SSTORE DUP3 ISZERO PUSH2 0x1ED9 JUMPI SWAP2 DUP3 ADD JUMPDEST DUP3 DUP2 GT ISZERO PUSH2 0x1ED8 JUMPI DUP3 MLOAD DUP3 SSTORE SWAP2 PUSH1 0x20 ADD SWAP2 SWAP1 PUSH1 0x1 ADD SWAP1 PUSH2 0x1EBD JUMP JUMPDEST JUMPDEST POP SWAP1 POP PUSH2 0x1EE6 SWAP2 SWAP1 PUSH2 0x1EEA JUMP JUMPDEST POP SWAP1 JUMP JUMPDEST JUMPDEST DUP1 DUP3 GT ISZERO PUSH2 0x1F03 JUMPI PUSH1 0x0 DUP2 PUSH1 0x0 SWAP1 SSTORE POP PUSH1 0x1 ADD PUSH2 0x1EEB JUMP JUMPDEST POP SWAP1 JUMP JUMPDEST PUSH1 0x0 PUSH2 0x1F1A PUSH2 0x1F15 DUP5 PUSH2 0x28F6 JUMP JUMPDEST PUSH2 0x28D1 JUMP JUMPDEST SWAP1 POP DUP3 DUP2 MSTORE PUSH1 0x20 DUP2 ADD DUP5 DUP5 DUP5 ADD GT ISZERO PUSH2 0x1F36 JUMPI PUSH2 0x1F35 PUSH2 0x2CAA JUMP JUMPDEST JUMPDEST PUSH2 0x1F41 DUP5 DUP3 DUP6 PUSH2 0x2A98 JUMP JUMPDEST POP SWAP4 SWAP3 POP POP POP JUMP JUMPDEST PUSH1 0x0 DUP2 CALLDATALOAD SWAP1 POP PUSH2 0x1F58 DUP2 PUSH2 0x2FCB JUMP JUMPDEST SWAP3 SWAP2 POP POP JUMP JUMPDEST PUSH1 0x0 DUP2 MLOAD SWAP1 POP PUSH2 0x1F6D DUP2 PUSH2 0x2FCB JUMP JUMPDEST SWAP3 SWAP2 POP POP JUMP JUMPDEST PUSH1 0x0 DUP1 DUP4 PUSH1 0x1F DUP5 ADD SLT PUSH2 0x1F89 JUMPI PUSH2 0x1F88 PUSH2 0x2CA0 JUMP JUMPDEST JUMPDEST DUP3 CALLDATALOAD SWAP1 POP PUSH8 0xFFFFFFFFFFFFFFFF DUP2 GT ISZERO PUSH2 0x1FA6 JUMPI PUSH2 0x1FA5 PUSH2 0x2C9B JUMP JUMPDEST JUMPDEST PUSH1 0x20 DUP4 ADD SWAP2 POP DUP4 PUSH1 0x20 DUP3 MUL DUP4 ADD GT ISZERO PUSH2 0x1FC2 JUMPI PUSH2 0x1FC1 PUSH2 0x2CA5 JUMP JUMPDEST JUMPDEST SWAP3 POP SWAP3 SWAP1 POP JUMP JUMPDEST PUSH1 0x0 DUP2 MLOAD SWAP1 POP PUSH2 0x1FD8 DUP2 PUSH2 0x2FE2 JUMP JUMPDEST SWAP3 SWAP2 POP POP JUMP JUMPDEST PUSH1 0x0 DUP3 PUSH1 0x1F DUP4 ADD SLT PUSH2 0x1FF3 JUMPI PUSH2 0x1FF2 PUSH2 0x2CA0 JUMP JUMPDEST JUMPDEST DUP2 CALLDATALOAD PUSH2 0x2003 DUP5 DUP3 PUSH1 0x20 DUP7 ADD PUSH2 0x1F07 JUMP JUMPDEST SWAP2 POP POP SWAP3 SWAP2 POP POP JUMP JUMPDEST PUSH1 0x0 DUP2 CALLDATALOAD SWAP1 POP PUSH2 0x201B DUP2 PUSH2 0x2FF9 JUMP JUMPDEST SWAP3 SWAP2 POP POP JUMP JUMPDEST PUSH1 0x0 PUSH1 0x20 DUP3 DUP5 SUB SLT ISZERO PUSH2 0x2037 JUMPI PUSH2 0x2036 PUSH2 0x2CB4 JUMP JUMPDEST JUMPDEST PUSH1 0x0 PUSH2 0x2045 DUP5 DUP3 DUP6 ADD PUSH2 0x1F49 JUMP JUMPDEST SWAP2 POP POP SWAP3 SWAP2 POP POP JUMP JUMPDEST PUSH1 0x0 PUSH1 0x20 DUP3 DUP5 SUB SLT ISZERO PUSH2 0x2064 JUMPI PUSH2 0x2063 PUSH2 0x2CB4 JUMP JUMPDEST JUMPDEST PUSH1 0x0 PUSH2 0x2072 DUP5 DUP3 DUP6 ADD PUSH2 0x1F5E JUMP JUMPDEST SWAP2 POP POP SWAP3 SWAP2 POP POP JUMP JUMPDEST PUSH1 0x0 DUP1 PUSH1 0x20 DUP4 DUP6 SUB SLT ISZERO PUSH2 0x2092 JUMPI PUSH2 0x2091 PUSH2 0x2CB4 JUMP JUMPDEST JUMPDEST PUSH1 0x0 DUP4 ADD CALLDATALOAD PUSH8 0xFFFFFFFFFFFFFFFF DUP2 GT ISZERO PUSH2 0x20B0 JUMPI PUSH2 0x20AF PUSH2 0x2CAF JUMP JUMPDEST JUMPDEST PUSH2 0x20BC DUP6 DUP3 DUP7 ADD PUSH2 0x1F73 JUMP JUMPDEST SWAP3 POP SWAP3 POP POP SWAP3 POP SWAP3 SWAP1 POP JUMP JUMPDEST PUSH1 0x0 PUSH1 0x20 DUP3 DUP5 SUB SLT ISZERO PUSH2 0x20DE JUMPI PUSH2 0x20DD PUSH2 0x2CB4 JUMP JUMPDEST JUMPDEST PUSH1 0x0 PUSH2 0x20EC DUP5 DUP3 DUP6 ADD PUSH2 0x1FC9 JUMP JUMPDEST SWAP2 POP POP SWAP3 SWAP2 POP POP JUMP JUMPDEST PUSH1 0x0 PUSH1 0x20 DUP3 DUP5 SUB SLT ISZERO PUSH2 0x210B JUMPI PUSH2 0x210A PUSH2 0x2CB4 JUMP JUMPDEST JUMPDEST PUSH1 0x0 PUSH2 0x2119 DUP5 DUP3 DUP6 ADD PUSH2 0x200C JUMP JUMPDEST SWAP2 POP POP SWAP3 SWAP2 POP POP JUMP JUMPDEST PUSH1 0x0 DUP1 PUSH1 0x0 DUP1 PUSH1 0x0 PUSH1 0xA0 DUP7 DUP9 SUB SLT ISZERO PUSH2 0x213E JUMPI PUSH2 0x213D PUSH2 0x2CB4 JUMP JUMPDEST JUMPDEST PUSH1 0x0 PUSH2 0x214C DUP9 DUP3 DUP10 ADD PUSH2 0x200C JUMP JUMPDEST SWAP6 POP POP PUSH1 0x20 DUP7 ADD CALLDATALOAD PUSH8 0xFFFFFFFFFFFFFFFF DUP2 GT ISZERO PUSH2 0x216D JUMPI PUSH2 0x216C PUSH2 0x2CAF JUMP JUMPDEST JUMPDEST PUSH2 0x2179 DUP9 DUP3 DUP10 ADD PUSH2 0x1FDE JUMP JUMPDEST SWAP5 POP POP PUSH1 0x40 PUSH2 0x218A DUP9 DUP3 DUP10 ADD PUSH2 0x200C JUMP JUMPDEST SWAP4 POP POP PUSH1 0x60 PUSH2 0x219B DUP9 DUP3 DUP10 ADD PUSH2 0x200C JUMP JUMPDEST SWAP3 POP POP PUSH1 0x80 PUSH2 0x21AC DUP9 DUP3 DUP10 ADD PUSH2 0x200C JUMP JUMPDEST SWAP2 POP POP SWAP3 SWAP6 POP SWAP3 SWAP6 SWAP1 SWAP4 POP JUMP JUMPDEST PUSH1 0x0 PUSH2 0x21C5 DUP4 DUP4 PUSH2 0x21D1 JUMP JUMPDEST PUSH1 0x20 DUP4 ADD SWAP1 POP SWAP3 SWAP2 POP POP JUMP JUMPDEST PUSH2 0x21DA DUP2 PUSH2 0x29C6 JUMP JUMPDEST DUP3 MSTORE POP POP JUMP JUMPDEST PUSH2 0x21E9 DUP2 PUSH2 0x29C6 JUMP JUMPDEST DUP3 MSTORE POP POP JUMP JUMPDEST PUSH1 0x0 PUSH2 0x21FA DUP3 PUSH2 0x2937 JUMP JUMPDEST PUSH2 0x2204 DUP2 DUP6 PUSH2 0x2965 JUMP JUMPDEST SWAP4 POP PUSH2 0x220F DUP4 PUSH2 0x2927 JUMP JUMPDEST DUP1 PUSH1 0x0 JUMPDEST DUP4 DUP2 LT ISZERO PUSH2 0x2240 JUMPI DUP2 MLOAD PUSH2 0x2227 DUP9 DUP3 PUSH2 0x21B9 JUMP JUMPDEST SWAP8 POP PUSH2 0x2232 DUP4 PUSH2 0x2958 JUMP JUMPDEST SWAP3 POP POP PUSH1 0x1 DUP2 ADD SWAP1 POP PUSH2 0x2213 JUMP JUMPDEST POP DUP6 SWAP4 POP POP POP POP SWAP3 SWAP2 POP POP JUMP JUMPDEST PUSH2 0x2256 DUP2 PUSH2 0x29D8 JUMP JUMPDEST DUP3 MSTORE POP POP JUMP JUMPDEST PUSH2 0x2265 DUP2 PUSH2 0x29E4 JUMP JUMPDEST DUP3 MSTORE POP POP JUMP JUMPDEST PUSH1 0x0 PUSH2 0x2276 DUP3 PUSH2 0x2942 JUMP JUMPDEST PUSH2 0x2280 DUP2 DUP6 PUSH2 0x2976 JUMP JUMPDEST SWAP4 POP PUSH2 0x2290 DUP2 DUP6 PUSH1 0x20 DUP7 ADD PUSH2 0x2AA7 JUMP JUMPDEST DUP1 DUP5 ADD SWAP2 POP POP SWAP3 SWAP2 POP POP JUMP JUMPDEST PUSH2 0x22A5 DUP2 PUSH2 0x2A3E JUMP JUMPDEST DUP3 MSTORE POP POP JUMP JUMPDEST PUSH2 0x22B4 DUP2 PUSH2 0x2A50 JUMP JUMPDEST DUP3 MSTORE POP POP JUMP JUMPDEST PUSH2 0x22C3 DUP2 PUSH2 0x2A62 JUMP JUMPDEST DUP3 MSTORE POP POP JUMP JUMPDEST PUSH1 0x0 PUSH2 0x22D4 DUP3 PUSH2 0x294D JUMP JUMPDEST PUSH2 0x22DE DUP2 DUP6 PUSH2 0x2981 JUMP JUMPDEST SWAP4 POP PUSH2 0x22EE DUP2 DUP6 PUSH1 0x20 DUP7 ADD PUSH2 0x2AA7 JUMP JUMPDEST PUSH2 0x22F7 DUP2 PUSH2 0x2CB9 JUMP JUMPDEST DUP5 ADD SWAP2 POP POP SWAP3 SWAP2 POP POP JUMP JUMPDEST PUSH1 0x0 PUSH2 0x230F PUSH1 0x5 DUP4 PUSH2 0x2981 JUMP JUMPDEST SWAP2 POP PUSH2 0x231A DUP3 PUSH2 0x2CCA JUMP JUMPDEST PUSH1 0x20 DUP3 ADD SWAP1 POP SWAP2 SWAP1 POP JUMP JUMPDEST PUSH1 0x0 PUSH2 0x2332 PUSH1 0x11 DUP4 PUSH2 0x2981 JUMP JUMPDEST SWAP2 POP PUSH2 0x233D DUP3 PUSH2 0x2CF3 JUMP JUMPDEST PUSH1 0x20 DUP3 ADD SWAP1 POP SWAP2 SWAP1 POP JUMP JUMPDEST PUSH1 0x0 PUSH2 0x2355 PUSH1 0x11 DUP4 PUSH2 0x2981 JUMP JUMPDEST SWAP2 POP PUSH2 0x2360 DUP3 PUSH2 0x2D1C JUMP JUMPDEST PUSH1 0x20 DUP3 ADD SWAP1 POP SWAP2 SWAP1 POP JUMP JUMPDEST PUSH1 0x0 PUSH2 0x2378 PUSH1 0x14 DUP4 PUSH2 0x2981 JUMP JUMPDEST SWAP2 POP PUSH2 0x2383 DUP3 PUSH2 0x2D45 JUMP JUMPDEST PUSH1 0x20 DUP3 ADD SWAP1 POP SWAP2 SWAP1 POP JUMP JUMPDEST PUSH1 0x0 PUSH2 0x239B PUSH1 0x10 DUP4 PUSH2 0x2981 JUMP JUMPDEST SWAP2 POP PUSH2 0x23A6 DUP3 PUSH2 0x2D6E JUMP JUMPDEST PUSH1 0x20 DUP3 ADD SWAP1 POP SWAP2 SWAP1 POP JUMP JUMPDEST PUSH1 0x0 PUSH2 0x23BE PUSH1 0xD DUP4 PUSH2 0x2981 JUMP JUMPDEST SWAP2 POP PUSH2 0x23C9 DUP3 PUSH2 0x2D97 JUMP JUMPDEST PUSH1 0x20 DUP3 ADD SWAP1 POP SWAP2 SWAP1 POP JUMP JUMPDEST PUSH1 0x0 PUSH2 0x23E1 PUSH1 0x26 DUP4 PUSH2 0x2981 JUMP JUMPDEST SWAP2 POP PUSH2 0x23EC DUP3 PUSH2 0x2DC0 JUMP JUMPDEST PUSH1 0x40 DUP3 ADD SWAP1 POP SWAP2 SWAP1 POP JUMP JUMPDEST PUSH1 0x0 PUSH2 0x2404 PUSH1 0x13 DUP4 PUSH2 0x2981 JUMP JUMPDEST SWAP2 POP PUSH2 0x240F DUP3 PUSH2 0x2E0F JUMP JUMPDEST PUSH1 0x20 DUP3 ADD SWAP1 POP SWAP2 SWAP1 POP JUMP JUMPDEST PUSH1 0x0 PUSH2 0x2427 PUSH1 0x17 DUP4 PUSH2 0x2981 JUMP JUMPDEST SWAP2 POP PUSH2 0x2432 DUP3 PUSH2 0x2E38 JUMP JUMPDEST PUSH1 0x20 DUP3 ADD SWAP1 POP SWAP2 SWAP1 POP JUMP JUMPDEST PUSH1 0x0 PUSH2 0x244A PUSH1 0xD DUP4 PUSH2 0x2981 JUMP JUMPDEST SWAP2 POP PUSH2 0x2455 DUP3 PUSH2 0x2E61 JUMP JUMPDEST PUSH1 0x20 DUP3 ADD SWAP1 POP SWAP2 SWAP1 POP JUMP JUMPDEST PUSH1 0x0 PUSH2 0x246D PUSH1 0x1D DUP4 PUSH2 0x2981 JUMP JUMPDEST SWAP2 POP PUSH2 0x2478 DUP3 PUSH2 0x2E8A JUMP JUMPDEST PUSH1 0x20 DUP3 ADD SWAP1 POP SWAP2 SWAP1 POP JUMP JUMPDEST PUSH1 0x0 PUSH2 0x2490 PUSH1 0x22 DUP4 PUSH2 0x2981 JUMP JUMPDEST SWAP2 POP PUSH2 0x249B DUP3 PUSH2 0x2EB3 JUMP JUMPDEST PUSH1 0x40 DUP3 ADD SWAP1 POP SWAP2 SWAP1 POP JUMP JUMPDEST PUSH1 0x0 PUSH2 0x24B3 PUSH1 0x17 DUP4 PUSH2 0x2981 JUMP JUMPDEST SWAP2 POP PUSH2 0x24BE DUP3 PUSH2 0x2F02 JUMP JUMPDEST PUSH1 0x20 DUP3 ADD SWAP1 POP SWAP2 SWAP1 POP JUMP JUMPDEST PUSH1 0x0 PUSH2 0x24D6 PUSH1 0x2A DUP4 PUSH2 0x2981 JUMP JUMPDEST SWAP2 POP PUSH2 0x24E1 DUP3 PUSH2 0x2F2B JUMP JUMPDEST PUSH1 0x40 DUP3 ADD SWAP1 POP SWAP2 SWAP1 POP JUMP JUMPDEST PUSH1 0x0 PUSH2 0x24F9 PUSH1 0xA DUP4 PUSH2 0x2981 JUMP JUMPDEST SWAP2 POP PUSH2 0x2504 DUP3 PUSH2 0x2F7A JUMP JUMPDEST PUSH1 0x20 DUP3 ADD SWAP1 POP SWAP2 SWAP1 POP JUMP JUMPDEST PUSH2 0x2518 DUP2 PUSH2 0x2A34 JUMP JUMPDEST DUP3 MSTORE POP POP JUMP JUMPDEST PUSH1 0x0 PUSH2 0x252A DUP3 DUP5 PUSH2 0x226B JUMP JUMPDEST SWAP2 POP DUP2 SWAP1 POP SWAP3 SWAP2 POP POP JUMP JUMPDEST PUSH1 0x0 PUSH1 0x20 DUP3 ADD SWAP1 POP PUSH2 0x254A PUSH1 0x0 DUP4 ADD DUP5 PUSH2 0x21E0 JUMP JUMPDEST SWAP3 SWAP2 POP POP JUMP JUMPDEST PUSH1 0x0 PUSH1 0x60 DUP3 ADD SWAP1 POP PUSH2 0x2565 PUSH1 0x0 DUP4 ADD DUP7 PUSH2 0x21E0 JUMP JUMPDEST PUSH2 0x2572 PUSH1 0x20 DUP4 ADD DUP6 PUSH2 0x21E0 JUMP JUMPDEST PUSH2 0x257F PUSH1 0x40 DUP4 ADD DUP5 PUSH2 0x250F JUMP JUMPDEST SWAP5 SWAP4 POP POP POP POP JUMP JUMPDEST PUSH1 0x0 PUSH1 0x60 DUP3 ADD SWAP1 POP PUSH2 0x259C PUSH1 0x0 DUP4 ADD DUP7 PUSH2 0x21E0 JUMP JUMPDEST PUSH2 0x25A9 PUSH1 0x20 DUP4 ADD DUP6 PUSH2 0x250F JUMP JUMPDEST PUSH2 0x25B6 PUSH1 0x40 DUP4 ADD DUP5 PUSH2 0x22AB JUMP JUMPDEST SWAP5 SWAP4 POP POP POP POP JUMP JUMPDEST PUSH1 0x0 PUSH1 0x20 DUP3 ADD SWAP1 POP DUP2 DUP2 SUB PUSH1 0x0 DUP4 ADD MSTORE PUSH2 0x25D8 DUP2 DUP5 PUSH2 0x21EF JUMP JUMPDEST SWAP1 POP SWAP3 SWAP2 POP POP JUMP JUMPDEST PUSH1 0x0 PUSH1 0x20 DUP3 ADD SWAP1 POP PUSH2 0x25F5 PUSH1 0x0 DUP4 ADD DUP5 PUSH2 0x224D JUMP JUMPDEST SWAP3 SWAP2 POP POP JUMP JUMPDEST PUSH1 0x0 PUSH1 0x40 DUP3 ADD SWAP1 POP PUSH2 0x2610 PUSH1 0x0 DUP4 ADD DUP6 PUSH2 0x225C JUMP JUMPDEST PUSH2 0x261D PUSH1 0x20 DUP4 ADD DUP5 PUSH2 0x21E0 JUMP JUMPDEST SWAP4 SWAP3 POP POP POP JUMP JUMPDEST PUSH1 0x0 PUSH1 0x20 DUP3 ADD SWAP1 POP PUSH2 0x2639 PUSH1 0x0 DUP4 ADD DUP5 PUSH2 0x229C JUMP JUMPDEST SWAP3 SWAP2 POP POP JUMP JUMPDEST PUSH1 0x0 PUSH1 0x20 DUP3 ADD SWAP1 POP PUSH2 0x2654 PUSH1 0x0 DUP4 ADD DUP5 PUSH2 0x22BA JUMP JUMPDEST SWAP3 SWAP2 POP POP JUMP JUMPDEST PUSH1 0x0 PUSH1 0x20 DUP3 ADD SWAP1 POP DUP2 DUP2 SUB PUSH1 0x0 DUP4 ADD MSTORE PUSH2 0x2674 DUP2 DUP5 PUSH2 0x22C9 JUMP JUMPDEST SWAP1 POP SWAP3 SWAP2 POP POP JUMP JUMPDEST PUSH1 0x0 PUSH1 0x20 DUP3 ADD SWAP1 POP DUP2 DUP2 SUB PUSH1 0x0 DUP4 ADD MSTORE PUSH2 0x2695 DUP2 PUSH2 0x2302 JUMP JUMPDEST SWAP1 POP SWAP2 SWAP1 POP JUMP JUMPDEST PUSH1 0x0 PUSH1 0x20 DUP3 ADD SWAP1 POP DUP2 DUP2 SUB PUSH1 0x0 DUP4 ADD MSTORE PUSH2 0x26B5 DUP2 PUSH2 0x2325 JUMP JUMPDEST SWAP1 POP SWAP2 SWAP1 POP JUMP JUMPDEST PUSH1 0x0 PUSH1 0x20 DUP3 ADD SWAP1 POP DUP2 DUP2 SUB PUSH1 0x0 DUP4 ADD MSTORE PUSH2 0x26D5 DUP2 PUSH2 0x2348 JUMP JUMPDEST SWAP1 POP SWAP2 SWAP1 POP JUMP JUMPDEST PUSH1 0x0 PUSH1 0x20 DUP3 ADD SWAP1 POP DUP2 DUP2 SUB PUSH1 0x0 DUP4 ADD MSTORE PUSH2 0x26F5 DUP2 PUSH2 0x236B JUMP JUMPDEST SWAP1 POP SWAP2 SWAP1 POP JUMP JUMPDEST PUSH1 0x0 PUSH1 0x20 DUP3 ADD SWAP1 POP DUP2 DUP2 SUB PUSH1 0x0 DUP4 ADD MSTORE PUSH2 0x2715 DUP2 PUSH2 0x238E JUMP JUMPDEST SWAP1 POP SWAP2 SWAP1 POP JUMP JUMPDEST PUSH1 0x0 PUSH1 0x20 DUP3 ADD SWAP1 POP DUP2 DUP2 SUB PUSH1 0x0 DUP4 ADD MSTORE PUSH2 0x2735 DUP2 PUSH2 0x23B1 JUMP JUMPDEST SWAP1 POP SWAP2 SWAP1 POP JUMP JUMPDEST PUSH1 0x0 PUSH1 0x20 DUP3 ADD SWAP1 POP DUP2 DUP2 SUB PUSH1 0x0 DUP4 ADD MSTORE PUSH2 0x2755 DUP2 PUSH2 0x23D4 JUMP JUMPDEST SWAP1 POP SWAP2 SWAP1 POP JUMP JUMPDEST PUSH1 0x0 PUSH1 0x20 DUP3 ADD SWAP1 POP DUP2 DUP2 SUB PUSH1 0x0 DUP4 ADD MSTORE PUSH2 0x2775 DUP2 PUSH2 0x23F7 JUMP JUMPDEST SWAP1 POP SWAP2 SWAP1 POP JUMP JUMPDEST PUSH1 0x0 PUSH1 0x20 DUP3 ADD SWAP1 POP DUP2 DUP2 SUB PUSH1 0x0 DUP4 ADD MSTORE PUSH2 0x2795 DUP2 PUSH2 0x241A JUMP JUMPDEST SWAP1 POP SWAP2 SWAP1 POP JUMP JUMPDEST PUSH1 0x0 PUSH1 0x20 DUP3 ADD SWAP1 POP DUP2 DUP2 SUB PUSH1 0x0 DUP4 ADD MSTORE PUSH2 0x27B5 DUP2 PUSH2 0x243D JUMP JUMPDEST SWAP1 POP SWAP2 SWAP1 POP JUMP JUMPDEST PUSH1 0x0 PUSH1 0x20 DUP3 ADD SWAP1 POP DUP2 DUP2 SUB PUSH1 0x0 DUP4 ADD MSTORE PUSH2 0x27D5 DUP2 PUSH2 0x2460 JUMP JUMPDEST SWAP1 POP SWAP2 SWAP1 POP JUMP JUMPDEST PUSH1 0x0 PUSH1 0x20 DUP3 ADD SWAP1 POP DUP2 DUP2 SUB PUSH1 0x0 DUP4 ADD MSTORE PUSH2 0x27F5 DUP2 PUSH2 0x2483 JUMP JUMPDEST SWAP1 POP SWAP2 SWAP1 POP JUMP JUMPDEST PUSH1 0x0 PUSH1 0x20 DUP3 ADD SWAP1 POP DUP2 DUP2 SUB PUSH1 0x0 DUP4 ADD MSTORE PUSH2 0x2815 DUP2 PUSH2 0x24A6 JUMP JUMPDEST SWAP1 POP SWAP2 SWAP1 POP JUMP JUMPDEST PUSH1 0x0 PUSH1 0x20 DUP3 ADD SWAP1 POP DUP2 DUP2 SUB PUSH1 0x0 DUP4 ADD MSTORE PUSH2 0x2835 DUP2 PUSH2 0x24C9 JUMP JUMPDEST SWAP1 POP SWAP2 SWAP1 POP JUMP JUMPDEST PUSH1 0x0 PUSH1 0x20 DUP3 ADD SWAP1 POP DUP2 DUP2 SUB PUSH1 0x0 DUP4 ADD MSTORE PUSH2 0x2855 DUP2 PUSH2 0x24EC JUMP JUMPDEST SWAP1 POP SWAP2 SWAP1 POP JUMP JUMPDEST PUSH1 0x0 PUSH1 0x20 DUP3 ADD SWAP1 POP PUSH2 0x2871 PUSH1 0x0 DUP4 ADD DUP5 PUSH2 0x250F JUMP JUMPDEST SWAP3 SWAP2 POP POP JUMP JUMPDEST PUSH1 0x0 PUSH1 0xA0 DUP3 ADD SWAP1 POP PUSH2 0x288C PUSH1 0x0 DUP4 ADD DUP9 PUSH2 0x250F JUMP JUMPDEST DUP2 DUP2 SUB PUSH1 0x20 DUP4 ADD MSTORE PUSH2 0x289E DUP2 DUP8 PUSH2 0x22C9 JUMP JUMPDEST SWAP1 POP PUSH2 0x28AD PUSH1 0x40 DUP4 ADD DUP7 PUSH2 0x250F JUMP JUMPDEST PUSH2 0x28BA PUSH1 0x60 DUP4 ADD DUP6 PUSH2 0x250F JUMP JUMPDEST PUSH2 0x28C7 PUSH1 0x80 DUP4 ADD DUP5 PUSH2 0x250F JUMP JUMPDEST SWAP7 SWAP6 POP POP POP POP POP POP JUMP JUMPDEST PUSH1 0x0 PUSH2 0x28DB PUSH2 0x28EC JUMP JUMPDEST SWAP1 POP PUSH2 0x28E7 DUP3 DUP3 PUSH2 0x2B36 JUMP JUMPDEST SWAP2 SWAP1 POP JUMP JUMPDEST PUSH1 0x0 PUSH1 0x40 MLOAD SWAP1 POP SWAP1 JUMP JUMPDEST PUSH1 0x0 PUSH8 0xFFFFFFFFFFFFFFFF DUP3 GT ISZERO PUSH2 0x2911 JUMPI PUSH2 0x2910 PUSH2 0x2C6C JUMP JUMPDEST JUMPDEST PUSH2 0x291A DUP3 PUSH2 0x2CB9 JUMP JUMPDEST SWAP1 POP PUSH1 0x20 DUP2 ADD SWAP1 POP SWAP2 SWAP1 POP JUMP JUMPDEST PUSH1 0x0 DUP2 SWAP1 POP PUSH1 0x20 DUP3 ADD SWAP1 POP SWAP2 SWAP1 POP JUMP JUMPDEST PUSH1 0x0 DUP2 MLOAD SWAP1 POP SWAP2 SWAP1 POP JUMP JUMPDEST PUSH1 0x0 DUP2 MLOAD SWAP1 POP SWAP2 SWAP1 POP JUMP JUMPDEST PUSH1 0x0 DUP2 MLOAD SWAP1 POP SWAP2 SWAP1 POP JUMP JUMPDEST PUSH1 0x0 PUSH1 0x20 DUP3 ADD SWAP1 POP SWAP2 SWAP1 POP JUMP JUMPDEST PUSH1 0x0 DUP3 DUP3 MSTORE PUSH1 0x20 DUP3 ADD SWAP1 POP SWAP3 SWAP2 POP POP JUMP JUMPDEST PUSH1 0x0 DUP2 SWAP1 POP SWAP3 SWAP2 POP POP JUMP JUMPDEST PUSH1 0x0 DUP3 DUP3 MSTORE PUSH1 0x20 DUP3 ADD SWAP1 POP SWAP3 SWAP2 POP POP JUMP JUMPDEST PUSH1 0x0 PUSH2 0x299D DUP3 PUSH2 0x2A34 JUMP JUMPDEST SWAP2 POP PUSH2 0x29A8 DUP4 PUSH2 0x2A34 JUMP JUMPDEST SWAP3 POP DUP3 DUP3 LT ISZERO PUSH2 0x29BB JUMPI PUSH2 0x29BA PUSH2 0x2BB0 JUMP JUMPDEST JUMPDEST DUP3 DUP3 SUB SWAP1 POP SWAP3 SWAP2 POP POP JUMP JUMPDEST PUSH1 0x0 PUSH2 0x29D1 DUP3 PUSH2 0x2A14 JUMP JUMPDEST SWAP1 POP SWAP2 SWAP1 POP JUMP JUMPDEST PUSH1 0x0 DUP2 ISZERO ISZERO SWAP1 POP SWAP2 SWAP1 POP JUMP JUMPDEST PUSH1 0x0 DUP2 SWAP1 POP SWAP2 SWAP1 POP JUMP JUMPDEST PUSH1 0x0 DUP2 SWAP1 POP PUSH2 0x29FC DUP3 PUSH2 0x2FA3 JUMP JUMPDEST SWAP2 SWAP1 POP JUMP JUMPDEST PUSH1 0x0 DUP2 SWAP1 POP PUSH2 0x2A0F DUP3 PUSH2 0x2FB7 JUMP JUMPDEST SWAP2 SWAP1 POP JUMP JUMPDEST PUSH1 0x0 PUSH20 0xFFFFFFFFFFFFFFFFFFFFFFFFFFFFFFFFFFFFFFFF DUP3 AND SWAP1 POP SWAP2 SWAP1 POP JUMP JUMPDEST PUSH1 0x0 DUP2 SWAP1 POP SWAP2 SWAP1 POP JUMP JUMPDEST PUSH1 0x0 PUSH2 0x2A49 DUP3 PUSH2 0x2A74 JUMP JUMPDEST SWAP1 POP SWAP2 SWAP1 POP JUMP JUMPDEST PUSH1 0x0 PUSH2 0x2A5B DUP3 PUSH2 0x29EE JUMP JUMPDEST SWAP1 POP SWAP2 SWAP1 POP JUMP JUMPDEST PUSH1 0x0 PUSH2 0x2A6D DUP3 PUSH2 0x2A01 JUMP JUMPDEST SWAP1 POP SWAP2 SWAP1 POP JUMP JUMPDEST PUSH1 0x0 PUSH2 0x2A7F DUP3 PUSH2 0x2A86 JUMP JUMPDEST SWAP1 POP SWAP2 SWAP1 POP JUMP JUMPDEST PUSH1 0x0 PUSH2 0x2A91 DUP3 PUSH2 0x2A14 JUMP JUMPDEST SWAP1 POP SWAP2 SWAP1 POP JUMP JUMPDEST DUP3 DUP2 DUP4 CALLDATACOPY PUSH1 0x0 DUP4 DUP4 ADD MSTORE POP POP POP JUMP JUMPDEST PUSH1 0x0 JUMPDEST DUP4 DUP2 LT ISZERO PUSH2 0x2AC5 JUMPI DUP1 DUP3 ADD MLOAD DUP2 DUP5 ADD MSTORE PUSH1 0x20 DUP2 ADD SWAP1 POP PUSH2 0x2AAA JUMP JUMPDEST DUP4 DUP2 GT ISZERO PUSH2 0x2AD4 JUMPI PUSH1 0x0 DUP5 DUP5 ADD MSTORE JUMPDEST POP POP POP POP JUMP JUMPDEST PUSH1 0x0 PUSH2 0x2AE5 DUP3 PUSH2 0x2A34 JUMP JUMPDEST SWAP2 POP PUSH1 0x0 DUP3 EQ ISZERO PUSH2 0x2AF9 JUMPI PUSH2 0x2AF8 PUSH2 0x2BB0 JUMP JUMPDEST JUMPDEST PUSH1 0x1 DUP3 SUB SWAP1 POP SWAP2 SWAP1 POP JUMP JUMPDEST PUSH1 0x0 PUSH1 0x2 DUP3 DIV SWAP1 POP PUSH1 0x1 DUP3 AND DUP1 PUSH2 0x2B1C JUMPI PUSH1 0x7F DUP3 AND SWAP2 POP JUMPDEST PUSH1 0x20 DUP3 LT DUP2 EQ ISZERO PUSH2 0x2B30 JUMPI PUSH2 0x2B2F PUSH2 0x2C0E JUMP JUMPDEST JUMPDEST POP SWAP2 SWAP1 POP JUMP JUMPDEST PUSH2 0x2B3F DUP3 PUSH2 0x2CB9 JUMP JUMPDEST DUP2 ADD DUP2 DUP2 LT PUSH8 0xFFFFFFFFFFFFFFFF DUP3 GT OR ISZERO PUSH2 0x2B5E JUMPI PUSH2 0x2B5D PUSH2 0x2C6C JUMP JUMPDEST JUMPDEST DUP1 PUSH1 0x40 MSTORE POP POP POP JUMP JUMPDEST PUSH1 0x0 PUSH2 0x2B72 DUP3 PUSH2 0x2A34 JUMP JUMPDEST SWAP2 POP PUSH32 0xFFFFFFFFFFFFFFFFFFFFFFFFFFFFFFFFFFFFFFFFFFFFFFFFFFFFFFFFFFFFFFFF DUP3 EQ ISZERO PUSH2 0x2BA5 JUMPI PUSH2 0x2BA4 PUSH2 0x2BB0 JUMP JUMPDEST JUMPDEST PUSH1 0x1 DUP3 ADD SWAP1 POP SWAP2 SWAP1 POP JUMP JUMPDEST PUSH32 0x4E487B7100000000000000000000000000000000000000000000000000000000 PUSH1 0x0 MSTORE PUSH1 0x11 PUSH1 0x4 MSTORE PUSH1 0x24 PUSH1 0x0 REVERT JUMPDEST PUSH32 0x4E487B7100000000000000000000000000000000000000000000000000000000 PUSH1 0x0 MSTORE PUSH1 0x21 PUSH1 0x4 MSTORE PUSH1 0x24 PUSH1 0x0 REVERT JUMPDEST PUSH32 0x4E487B7100000000000000000000000000000000000000000000000000000000 PUSH1 0x0 MSTORE PUSH1 0x22 PUSH1 0x4 MSTORE PUSH1 0x24 PUSH1 0x0 REVERT JUMPDEST PUSH32 0x4E487B7100000000000000000000000000000000000000000000000000000000 PUSH1 0x0 MSTORE PUSH1 0x32 PUSH1 0x4 MSTORE PUSH1 0x24 PUSH1 0x0 REVERT JUMPDEST PUSH32 0x4E487B7100000000000000000000000000000000000000000000000000000000 PUSH1 0x0 MSTORE PUSH1 0x41 PUSH1 0x4 MSTORE PUSH1 0x24 PUSH1 0x0 REVERT JUMPDEST PUSH1 0x0 DUP1 REVERT JUMPDEST PUSH1 0x0 DUP1 REVERT JUMPDEST PUSH1 0x0 DUP1 REVERT JUMPDEST PUSH1 0x0 DUP1 REVERT JUMPDEST PUSH1 0x0 DUP1 REVERT JUMPDEST PUSH1 0x0 DUP1 REVERT JUMPDEST PUSH1 0x0 PUSH1 0x1F NOT PUSH1 0x1F DUP4 ADD AND SWAP1 POP SWAP2 SWAP1 POP JUMP JUMPDEST PUSH32 0x4164646564000000000000000000000000000000000000000000000000000000 PUSH1 0x0 DUP3 ADD MSTORE POP JUMP JUMPDEST PUSH32 0x4D433A204F6E6C79204C65637475726572000000000000000000000000000000 PUSH1 0x0 DUP3 ADD MSTORE POP JUMP JUMPDEST PUSH32 0x4572726F72207768656E2072656D6F7665000000000000000000000000000000 PUSH1 0x0 DUP3 ADD MSTORE POP JUMP JUMPDEST PUSH32 0x54433A20596F7520706169642074756974696F6E000000000000000000000000 PUSH1 0x0 DUP3 ADD MSTORE POP JUMP JUMPDEST PUSH32 0x4D433A204F6E6C792053747564656E7400000000000000000000000000000000 PUSH1 0x0 DUP3 ADD MSTORE POP JUMP JUMPDEST PUSH32 0x4D433A204F6E6C79204F70656E00000000000000000000000000000000000000 PUSH1 0x0 DUP3 ADD MSTORE POP JUMP JUMPDEST PUSH32 0x416464726573733A20696E73756666696369656E742062616C616E636520666F PUSH1 0x0 DUP3 ADD MSTORE PUSH32 0x722063616C6C0000000000000000000000000000000000000000000000000000 PUSH1 0x20 DUP3 ADD MSTORE POP JUMP JUMPDEST PUSH32 0x4D433A2054696D6520697320696E76616C696400000000000000000000000000 PUSH1 0x0 DUP3 ADD MSTORE POP JUMP JUMPDEST PUSH32 0x53686F756C64206F6E6C79206164642073747564656E74000000000000000000 PUSH1 0x0 DUP3 ADD MSTORE POP JUMP JUMPDEST PUSH32 0x4D433A204F6E6C79204C6F636B00000000000000000000000000000000000000 PUSH1 0x0 DUP3 ADD MSTORE POP JUMP JUMPDEST PUSH32 0x416464726573733A2063616C6C20746F206E6F6E2D636F6E7472616374000000 PUSH1 0x0 DUP3 ADD MSTORE POP JUMP JUMPDEST PUSH32 0x4D433A2041776172642073686F756C642067726561746572207468616E205A65 PUSH1 0x0 DUP3 ADD MSTORE PUSH32 0x726F000000000000000000000000000000000000000000000000000000000000 PUSH1 0x20 DUP3 ADD MSTORE POP JUMP JUMPDEST PUSH32 0x54433A20596F7520617265206E6F7420696E206C697374000000000000000000 PUSH1 0x0 DUP3 ADD MSTORE POP JUMP JUMPDEST PUSH32 0x5361666545524332303A204552433230206F7065726174696F6E20646964206E PUSH1 0x0 DUP3 ADD MSTORE PUSH32 0x6F74207375636365656400000000000000000000000000000000000000000000 PUSH1 0x20 DUP3 ADD MSTORE POP JUMP JUMPDEST PUSH32 0x4F6E6C79204F776E657200000000000000000000000000000000000000000000 PUSH1 0x0 DUP3 ADD MSTORE POP JUMP JUMPDEST PUSH1 0x2 DUP2 LT PUSH2 0x2FB4 JUMPI PUSH2 0x2FB3 PUSH2 0x2BDF JUMP JUMPDEST JUMPDEST POP JUMP JUMPDEST PUSH1 0x3 DUP2 LT PUSH2 0x2FC8 JUMPI PUSH2 0x2FC7 PUSH2 0x2BDF JUMP JUMPDEST JUMPDEST POP JUMP JUMPDEST PUSH2 0x2FD4 DUP2 PUSH2 0x29C6 JUMP JUMPDEST DUP2 EQ PUSH2 0x2FDF JUMPI PUSH1 0x0 DUP1 REVERT JUMPDEST POP JUMP JUMPDEST PUSH2 0x2FEB DUP2 PUSH2 0x29D8 JUMP JUMPDEST DUP2 EQ PUSH2 0x2FF6 JUMPI PUSH1 0x0 DUP1 REVERT JUMPDEST POP JUMP JUMPDEST PUSH2 0x3002 DUP2 PUSH2 0x2A34 JUMP JUMPDEST DUP2 EQ PUSH2 0x300D JUMPI PUSH1 0x0 DUP1 REVERT JUMPDEST POP JUMP INVALID LOG2 PUSH5 0x6970667358 0x22 SLT KECCAK256 0xCD CALLDATASIZE SIGNEXTEND 0xD8 0xD5 PUSH7 0x6AE2A2F33CC4F3 0xE0 EQ SWAP13 SWAP15 0xC8 CALLDATALOAD CALLDATALOAD 0x23 INVALID JUMPI 0xA8 0xF6 0xA7 0xDD DUP4 0xAF 0xB9 0xEC PUSH26 0x64736F6C63430008070033000000000000000000000000000000 "
				},
				"gasEstimates": {
					"creation": {
						"codeDepositCost": "2471600",
						"executionCost": "infinite",
						"totalCost": "infinite"
					},
					"external": {
						"accessControll()": "2739",
						"addStudentToTuition(address[])": "infinite",
						"amount()": "2540",
						"close()": "infinite",
						"completedAddress(address)": "2868",
						"getParticipantList()": "infinite",
						"getParticipantListCompleted()": "infinite",
						"owner()": "infinite",
						"participantToIndex(address)": "2902",
						"participantToTrue(address)": "2889",
						"participants(uint256)": "5046",
						"paymentByCurrency()": "infinite",
						"paymentByToken()": "infinite",
						"removeStudentFromTuition(address)": "infinite",
						"rewardDistributor()": "2536",
						"setBasicForTuition(uint256,string,uint256,uint256,uint256)": "infinite",
						"start()": "infinite",
						"status()": "2628",
						"tuition()": "infinite"
					}
				},
				"methodIdentifiers": {
					"accessControll()": "aa4936ce",
					"addStudentToTuition(address[])": "04227ab8",
					"amount()": "aa8c217c",
					"close()": "43d726d6",
					"completedAddress(address)": "a32fb342",
					"getParticipantList()": "ed214fff",
					"getParticipantListCompleted()": "a7f44e0d",
					"owner()": "8da5cb5b",
					"participantToIndex(address)": "d95fe6a0",
					"participantToTrue(address)": "b1319f41",
					"participants(uint256)": "35c1d349",
					"paymentByCurrency()": "9846a1a0",
					"paymentByToken()": "633d8390",
					"removeStudentFromTuition(address)": "727cb110",
					"rewardDistributor()": "acc2166a",
					"setBasicForTuition(uint256,string,uint256,uint256,uint256)": "08003d6b",
					"start()": "be9a6555",
					"status()": "200d2ed2",
					"tuition()": "a8a86c10"
				}
			},
			"userdoc": {
				"kind": "user",
				"methods": {},
				"version": 1
			}
		}
	}
}