{
	"contracts/studentmanager/AccessControl.sol": {
		"AccessControl": {
			"abi": [
				{
					"inputs": [],
					"stateMutability": "nonpayable",
					"type": "constructor"
				},
				{
					"anonymous": false,
					"inputs": [
						{
							"indexed": true,
							"internalType": "bytes32",
							"name": "role",
							"type": "bytes32"
						},
						{
							"indexed": true,
							"internalType": "bytes32",
							"name": "previousAdminRole",
							"type": "bytes32"
						},
						{
							"indexed": true,
							"internalType": "bytes32",
							"name": "newAdminRole",
							"type": "bytes32"
						}
					],
					"name": "RoleAdminChanged",
					"type": "event"
				},
				{
					"anonymous": false,
					"inputs": [
						{
							"indexed": true,
							"internalType": "bytes32",
							"name": "role",
							"type": "bytes32"
						},
						{
							"indexed": true,
							"internalType": "address",
							"name": "account",
							"type": "address"
						},
						{
							"indexed": true,
							"internalType": "address",
							"name": "sender",
							"type": "address"
						}
					],
					"name": "RoleGranted",
					"type": "event"
				},
				{
					"anonymous": false,
					"inputs": [
						{
							"indexed": true,
							"internalType": "bytes32",
							"name": "role",
							"type": "bytes32"
						},
						{
							"indexed": true,
							"internalType": "address",
							"name": "account",
							"type": "address"
						}
					],
					"name": "RoleRevoked",
					"type": "event"
				},
				{
					"inputs": [
						{
							"internalType": "bytes32",
							"name": "role",
							"type": "bytes32"
						}
					],
					"name": "addNewRoleAdmin",
					"outputs": [],
					"stateMutability": "nonpayable",
					"type": "function"
				},
				{
					"inputs": [
						{
							"internalType": "bytes32",
							"name": "role",
							"type": "bytes32"
						}
					],
					"name": "getRoleExist",
					"outputs": [
						{
							"internalType": "bytes32",
							"name": "",
							"type": "bytes32"
						}
					],
					"stateMutability": "view",
					"type": "function"
				},
				{
					"inputs": [
						{
							"internalType": "bytes32",
							"name": "role",
							"type": "bytes32"
						},
						{
							"internalType": "address",
							"name": "account",
							"type": "address"
						}
					],
					"name": "grantRole",
					"outputs": [],
					"stateMutability": "nonpayable",
					"type": "function"
				},
				{
					"inputs": [
						{
							"internalType": "bytes32",
							"name": "role",
							"type": "bytes32"
						},
						{
							"internalType": "address",
							"name": "account",
							"type": "address"
						}
					],
					"name": "hasRole",
					"outputs": [
						{
							"internalType": "bool",
							"name": "",
							"type": "bool"
						}
					],
					"stateMutability": "view",
					"type": "function"
				},
				{
					"inputs": [
						{
							"internalType": "bytes32",
							"name": "role",
							"type": "bytes32"
						}
					],
					"name": "removeNewRoleAdmin",
					"outputs": [],
					"stateMutability": "nonpayable",
					"type": "function"
				},
				{
					"inputs": [
						{
							"internalType": "bytes32",
							"name": "role",
							"type": "bytes32"
						}
					],
					"name": "renounceRole",
					"outputs": [],
					"stateMutability": "nonpayable",
					"type": "function"
				},
				{
					"inputs": [
						{
							"internalType": "bytes32",
							"name": "role",
							"type": "bytes32"
						},
						{
							"internalType": "address",
							"name": "account",
							"type": "address"
						}
					],
					"name": "revokeRole",
					"outputs": [],
					"stateMutability": "nonpayable",
					"type": "function"
				}
			],
			"devdoc": {
				"kind": "dev",
				"methods": {},
				"version": 1
			},
			"evm": {
				"assembly": "    /* \"contracts/studentmanager/AccessControl.sol\":161:2861  contract AccessControl is Context, IAccessControl {\r... */\n  mstore(0x40, 0x80)\n    /* \"contracts/studentmanager/AccessControl.sol\":300:318  keccak256(\"ADMIN\") */\n  0xdf8b4c520ffe197c5343c6f5aec59570151ef9a492f2c624fd45ddde6135ec42\n    /* \"contracts/studentmanager/AccessControl.sol\":270:318  bytes32 internal ADMIN_ROLE = keccak256(\"ADMIN\") */\n  0x01\n  sstore\n    /* \"contracts/studentmanager/AccessControl.sol\":358:379  keccak256(\"LECTURER\") */\n  0xb39b9469ac3ddf8d58f06201f7e17350a277b429ed2a39727bf2f3a5165dba1a\n    /* \"contracts/studentmanager/AccessControl.sol\":325:379  bytes32 internal LECTURER_ROLE = keccak256(\"LECTURER\") */\n  0x02\n  sstore\n    /* \"contracts/studentmanager/AccessControl.sol\":418:438  keccak256(\"STUDENT\") */\n  0xc951d7098b66ba0b8b77265b6e9cf0e187d73125a42bcd0061b09a68be421810\n    /* \"contracts/studentmanager/AccessControl.sol\":386:438  bytes32 internal STUDENT_ROLE = keccak256(\"STUDENT\") */\n  0x03\n  sstore\n    /* \"contracts/studentmanager/AccessControl.sol\":447:678  constructor() {\r... */\n  callvalue\n  dup1\n  iszero\n  tag_1\n  jumpi\n  0x00\n  dup1\n  revert\ntag_1:\n  pop\n    /* \"contracts/studentmanager/AccessControl.sol\":515:519  true */\n  0x01\n    /* \"contracts/studentmanager/AccessControl.sol\":472:478  _roles */\n  0x00\n    /* \"contracts/studentmanager/AccessControl.sol\":472:490  _roles[ADMIN_ROLE] */\n  dup1\n    /* \"contracts/studentmanager/AccessControl.sol\":479:489  ADMIN_ROLE */\n  sload(0x01)\n    /* \"contracts/studentmanager/AccessControl.sol\":472:490  _roles[ADMIN_ROLE] */\n  dup2\n  mstore\n  0x20\n  add\n  swap1\n  dup2\n  mstore\n  0x20\n  add\n  0x00\n  keccak256\n    /* \"contracts/studentmanager/AccessControl.sol\":472:498  _roles[ADMIN_ROLE].members */\n  0x00\n  add\n    /* \"contracts/studentmanager/AccessControl.sol\":472:512  _roles[ADMIN_ROLE].members[_msgSender()] */\n  0x00\n    /* \"contracts/studentmanager/AccessControl.sol\":499:511  _msgSender() */\n  tag_4\n    /* \"contracts/studentmanager/AccessControl.sol\":499:509  _msgSender */\n  shl(0x20, tag_5)\n    /* \"contracts/studentmanager/AccessControl.sol\":499:511  _msgSender() */\n  0x20\n  shr\n  jump\t// in\ntag_4:\n    /* \"contracts/studentmanager/AccessControl.sol\":472:512  _roles[ADMIN_ROLE].members[_msgSender()] */\n  0xffffffffffffffffffffffffffffffffffffffff\n  and\n  0xffffffffffffffffffffffffffffffffffffffff\n  and\n  dup2\n  mstore\n  0x20\n  add\n  swap1\n  dup2\n  mstore\n  0x20\n  add\n  0x00\n  keccak256\n  0x00\n    /* \"contracts/studentmanager/AccessControl.sol\":472:519  _roles[ADMIN_ROLE].members[_msgSender()] = true */\n  0x0100\n  exp\n  dup2\n  sload\n  dup2\n  0xff\n  mul\n  not\n  and\n  swap1\n  dup4\n  iszero\n  iszero\n  mul\n  or\n  swap1\n  sstore\n  pop\n    /* \"contracts/studentmanager/AccessControl.sol\":556:566  ADMIN_ROLE */\n  sload(0x01)\n    /* \"contracts/studentmanager/AccessControl.sol\":530:536  _roles */\n  0x00\n    /* \"contracts/studentmanager/AccessControl.sol\":530:548  _roles[ADMIN_ROLE] */\n  dup1\n    /* \"contracts/studentmanager/AccessControl.sol\":537:547  ADMIN_ROLE */\n  sload(0x01)\n    /* \"contracts/studentmanager/AccessControl.sol\":530:548  _roles[ADMIN_ROLE] */\n  dup2\n  mstore\n  0x20\n  add\n  swap1\n  dup2\n  mstore\n  0x20\n  add\n  0x00\n  keccak256\n    /* \"contracts/studentmanager/AccessControl.sol\":530:553  _roles[ADMIN_ROLE].role */\n  0x01\n  add\n    /* \"contracts/studentmanager/AccessControl.sol\":530:566  _roles[ADMIN_ROLE].role = ADMIN_ROLE */\n  dup2\n  swap1\n  sstore\n  pop\n    /* \"contracts/studentmanager/AccessControl.sol\":606:619  LECTURER_ROLE */\n  sload(0x02)\n    /* \"contracts/studentmanager/AccessControl.sol\":577:583  _roles */\n  0x00\n    /* \"contracts/studentmanager/AccessControl.sol\":577:598  _roles[LECTURER_ROLE] */\n  dup1\n    /* \"contracts/studentmanager/AccessControl.sol\":584:597  LECTURER_ROLE */\n  sload(0x02)\n    /* \"contracts/studentmanager/AccessControl.sol\":577:598  _roles[LECTURER_ROLE] */\n  dup2\n  mstore\n  0x20\n  add\n  swap1\n  dup2\n  mstore\n  0x20\n  add\n  0x00\n  keccak256\n    /* \"contracts/studentmanager/AccessControl.sol\":577:603  _roles[LECTURER_ROLE].role */\n  0x01\n  add\n    /* \"contracts/studentmanager/AccessControl.sol\":577:619  _roles[LECTURER_ROLE].role = LECTURER_ROLE */\n  dup2\n  swap1\n  sstore\n  pop\n    /* \"contracts/studentmanager/AccessControl.sol\":658:670  STUDENT_ROLE */\n  sload(0x03)\n    /* \"contracts/studentmanager/AccessControl.sol\":630:636  _roles */\n  0x00\n    /* \"contracts/studentmanager/AccessControl.sol\":630:650  _roles[STUDENT_ROLE] */\n  dup1\n    /* \"contracts/studentmanager/AccessControl.sol\":637:649  STUDENT_ROLE */\n  sload(0x03)\n    /* \"contracts/studentmanager/AccessControl.sol\":630:650  _roles[STUDENT_ROLE] */\n  dup2\n  mstore\n  0x20\n  add\n  swap1\n  dup2\n  mstore\n  0x20\n  add\n  0x00\n  keccak256\n    /* \"contracts/studentmanager/AccessControl.sol\":630:655  _roles[STUDENT_ROLE].role */\n  0x01\n  add\n    /* \"contracts/studentmanager/AccessControl.sol\":630:670  _roles[STUDENT_ROLE].role = STUDENT_ROLE */\n  dup2\n  swap1\n  sstore\n  pop\n    /* \"contracts/studentmanager/AccessControl.sol\":161:2861  contract AccessControl is Context, IAccessControl {\r... */\n  jump(tag_6)\n    /* \"@openzeppelin/contracts/utils/Context.sol\":640:736  function _msgSender() internal view virtual returns (address) {... */\ntag_5:\n    /* \"@openzeppelin/contracts/utils/Context.sol\":693:700  address */\n  0x00\n    /* \"@openzeppelin/contracts/utils/Context.sol\":719:729  msg.sender */\n  caller\n    /* \"@openzeppelin/contracts/utils/Context.sol\":712:729  return msg.sender */\n  swap1\n  pop\n    /* \"@openzeppelin/contracts/utils/Context.sol\":640:736  function _msgSender() internal view virtual returns (address) {... */\n  swap1\n  jump\t// out\n    /* \"contracts/studentmanager/AccessControl.sol\":161:2861  contract AccessControl is Context, IAccessControl {\r... */\ntag_6:\n  dataSize(sub_0)\n  dup1\n  dataOffset(sub_0)\n  0x00\n  codecopy\n  0x00\n  return\nstop\n\nsub_0: assembly {\n        /* \"contracts/studentmanager/AccessControl.sol\":161:2861  contract AccessControl is Context, IAccessControl {\r... */\n      mstore(0x40, 0x80)\n      callvalue\n      dup1\n      iszero\n      tag_1\n      jumpi\n      0x00\n      dup1\n      revert\n    tag_1:\n      pop\n      jumpi(tag_2, lt(calldatasize, 0x04))\n      shr(0xe0, calldataload(0x00))\n      dup1\n      0x8bb9c5bf\n      gt\n      tag_10\n      jumpi\n      dup1\n      0x8bb9c5bf\n      eq\n      tag_6\n      jumpi\n      dup1\n      0x91d14854\n      eq\n      tag_7\n      jumpi\n      dup1\n      0xbaaf4123\n      eq\n      tag_8\n      jumpi\n      dup1\n      0xd547741f\n      eq\n      tag_9\n      jumpi\n      jump(tag_2)\n    tag_10:\n      dup1\n      0x2f2ff15d\n      eq\n      tag_3\n      jumpi\n      dup1\n      0x4bca15fa\n      eq\n      tag_4\n      jumpi\n      dup1\n      0x67cf635f\n      eq\n      tag_5\n      jumpi\n    tag_2:\n      0x00\n      dup1\n      revert\n        /* \"contracts/studentmanager/AccessControl.sol\":1298:1616  function grantRole(bytes32 role, address account)\r... */\n    tag_3:\n      tag_11\n      0x04\n      dup1\n      calldatasize\n      sub\n      dup2\n      add\n      swap1\n      tag_12\n      swap2\n      swap1\n      tag_13\n      jump\t// in\n    tag_12:\n      tag_14\n      jump\t// in\n    tag_11:\n      stop\n        /* \"contracts/studentmanager/AccessControl.sol\":2251:2486  function addNewRoleAdmin(bytes32 role) public override virtual onlyRole(ADMIN_ROLE) {\r... */\n    tag_4:\n      tag_15\n      0x04\n      dup1\n      calldatasize\n      sub\n      dup2\n      add\n      swap1\n      tag_16\n      swap2\n      swap1\n      tag_17\n      jump\t// in\n    tag_16:\n      tag_18\n      jump\t// in\n    tag_15:\n      stop\n        /* \"contracts/studentmanager/AccessControl.sol\":1172:1290  function getRoleExist(bytes32 role) public view override returns (bytes32) {\r... */\n    tag_5:\n      tag_19\n      0x04\n      dup1\n      calldatasize\n      sub\n      dup2\n      add\n      swap1\n      tag_20\n      swap2\n      swap1\n      tag_17\n      jump\t// in\n    tag_20:\n      tag_21\n      jump\t// in\n    tag_19:\n      mload(0x40)\n      tag_22\n      swap2\n      swap1\n      tag_23\n      jump\t// in\n    tag_22:\n      mload(0x40)\n      dup1\n      swap2\n      sub\n      swap1\n      return\n        /* \"contracts/studentmanager/AccessControl.sol\":1959:2243  function renounceRole(bytes32 role)\r... */\n    tag_6:\n      tag_24\n      0x04\n      dup1\n      calldatasize\n      sub\n      dup2\n      add\n      swap1\n      tag_25\n      swap2\n      swap1\n      tag_17\n      jump\t// in\n    tag_25:\n      tag_26\n      jump\t// in\n    tag_24:\n      stop\n        /* \"contracts/studentmanager/AccessControl.sol\":955:1164  function hasRole(bytes32 role, address account)\r... */\n    tag_7:\n      tag_27\n      0x04\n      dup1\n      calldatasize\n      sub\n      dup2\n      add\n      swap1\n      tag_28\n      swap2\n      swap1\n      tag_13\n      jump\t// in\n    tag_28:\n      tag_29\n      jump\t// in\n    tag_27:\n      mload(0x40)\n      tag_30\n      swap2\n      swap1\n      tag_31\n      jump\t// in\n    tag_30:\n      mload(0x40)\n      dup1\n      swap2\n      sub\n      swap1\n      return\n        /* \"contracts/studentmanager/AccessControl.sol\":2494:2858  function removeNewRoleAdmin(bytes32 role)\r... */\n    tag_8:\n      tag_32\n      0x04\n      dup1\n      calldatasize\n      sub\n      dup2\n      add\n      swap1\n      tag_33\n      swap2\n      swap1\n      tag_17\n      jump\t// in\n    tag_33:\n      tag_34\n      jump\t// in\n    tag_32:\n      stop\n        /* \"contracts/studentmanager/AccessControl.sol\":1624:1951  function revokeRole(bytes32 role, address account)\r... */\n    tag_9:\n      tag_35\n      0x04\n      dup1\n      calldatasize\n      sub\n      dup2\n      add\n      swap1\n      tag_36\n      swap2\n      swap1\n      tag_13\n      jump\t// in\n    tag_36:\n      tag_37\n      jump\t// in\n    tag_35:\n      stop\n        /* \"contracts/studentmanager/AccessControl.sol\":1298:1616  function grantRole(bytes32 role, address account)\r... */\n    tag_14:\n        /* \"contracts/studentmanager/AccessControl.sol\":1405:1409  role */\n      dup2\n        /* \"contracts/studentmanager/AccessControl.sol\":902:903  0 */\n      0x00\n        /* \"contracts/studentmanager/AccessControl.sol\":894:904  bytes32(0) */\n      dup1\n      shl\n        /* \"contracts/studentmanager/AccessControl.sol\":872:890  getRoleExist(role) */\n      tag_39\n        /* \"contracts/studentmanager/AccessControl.sol\":885:889  role */\n      dup3\n        /* \"contracts/studentmanager/AccessControl.sol\":872:884  getRoleExist */\n      tag_21\n        /* \"contracts/studentmanager/AccessControl.sol\":872:890  getRoleExist(role) */\n      jump\t// in\n    tag_39:\n        /* \"contracts/studentmanager/AccessControl.sol\":872:904  getRoleExist(role) != bytes32(0) */\n      eq\n      iszero\n        /* \"contracts/studentmanager/AccessControl.sol\":864:927  require(getRoleExist(role) != bytes32(0), \"Role isn't existed\") */\n      tag_40\n      jumpi\n      mload(0x40)\n      0x08c379a000000000000000000000000000000000000000000000000000000000\n      dup2\n      mstore\n      0x04\n      add\n      tag_41\n      swap1\n      tag_42\n      jump\t// in\n    tag_41:\n      mload(0x40)\n      dup1\n      swap2\n      sub\n      swap1\n      revert\n    tag_40:\n        /* \"contracts/studentmanager/AccessControl.sol\":1429:1439  ADMIN_ROLE */\n      sload(0x01)\n        /* \"contracts/studentmanager/AccessControl.sol\":737:764  hasRole(role, _msgSender()) */\n      tag_44\n        /* \"contracts/studentmanager/AccessControl.sol\":745:749  role */\n      dup2\n        /* \"contracts/studentmanager/AccessControl.sol\":751:763  _msgSender() */\n      tag_45\n        /* \"contracts/studentmanager/AccessControl.sol\":751:761  _msgSender */\n      tag_46\n        /* \"contracts/studentmanager/AccessControl.sol\":751:763  _msgSender() */\n      jump\t// in\n    tag_45:\n        /* \"contracts/studentmanager/AccessControl.sol\":737:744  hasRole */\n      tag_29\n        /* \"contracts/studentmanager/AccessControl.sol\":737:764  hasRole(role, _msgSender()) */\n      jump\t// in\n    tag_44:\n        /* \"contracts/studentmanager/AccessControl.sol\":729:788  require(hasRole(role, _msgSender()), \"You are not allowed\") */\n      tag_47\n      jumpi\n      mload(0x40)\n      0x08c379a000000000000000000000000000000000000000000000000000000000\n      dup2\n      mstore\n      0x04\n      add\n      tag_48\n      swap1\n      tag_49\n      jump\t// in\n    tag_48:\n      mload(0x40)\n      dup1\n      swap2\n      sub\n      swap1\n      revert\n    tag_47:\n        /* \"contracts/studentmanager/AccessControl.sol\":1462:1484  hasRole(role, account) */\n      tag_51\n        /* \"contracts/studentmanager/AccessControl.sol\":1470:1474  role */\n      dup5\n        /* \"contracts/studentmanager/AccessControl.sol\":1476:1483  account */\n      dup5\n        /* \"contracts/studentmanager/AccessControl.sol\":1462:1469  hasRole */\n      tag_29\n        /* \"contracts/studentmanager/AccessControl.sol\":1462:1484  hasRole(role, account) */\n      jump\t// in\n    tag_51:\n        /* \"contracts/studentmanager/AccessControl.sol\":1457:1609  if (!hasRole(role, account)) {\r... */\n      tag_52\n      jumpi\n        /* \"contracts/studentmanager/AccessControl.sol\":1533:1537  true */\n      0x01\n        /* \"contracts/studentmanager/AccessControl.sol\":1501:1507  _roles */\n      0x00\n        /* \"contracts/studentmanager/AccessControl.sol\":1501:1513  _roles[role] */\n      dup1\n        /* \"contracts/studentmanager/AccessControl.sol\":1508:1512  role */\n      dup7\n        /* \"contracts/studentmanager/AccessControl.sol\":1501:1513  _roles[role] */\n      dup2\n      mstore\n      0x20\n      add\n      swap1\n      dup2\n      mstore\n      0x20\n      add\n      0x00\n      keccak256\n        /* \"contracts/studentmanager/AccessControl.sol\":1501:1521  _roles[role].members */\n      0x00\n      add\n        /* \"contracts/studentmanager/AccessControl.sol\":1501:1530  _roles[role].members[account] */\n      0x00\n        /* \"contracts/studentmanager/AccessControl.sol\":1522:1529  account */\n      dup6\n        /* \"contracts/studentmanager/AccessControl.sol\":1501:1530  _roles[role].members[account] */\n      0xffffffffffffffffffffffffffffffffffffffff\n      and\n      0xffffffffffffffffffffffffffffffffffffffff\n      and\n      dup2\n      mstore\n      0x20\n      add\n      swap1\n      dup2\n      mstore\n      0x20\n      add\n      0x00\n      keccak256\n      0x00\n        /* \"contracts/studentmanager/AccessControl.sol\":1501:1537  _roles[role].members[account] = true */\n      0x0100\n      exp\n      dup2\n      sload\n      dup2\n      0xff\n      mul\n      not\n      and\n      swap1\n      dup4\n      iszero\n      iszero\n      mul\n      or\n      swap1\n      sstore\n      pop\n        /* \"contracts/studentmanager/AccessControl.sol\":1584:1596  _msgSender() */\n      tag_53\n        /* \"contracts/studentmanager/AccessControl.sol\":1584:1594  _msgSender */\n      tag_46\n        /* \"contracts/studentmanager/AccessControl.sol\":1584:1596  _msgSender() */\n      jump\t// in\n    tag_53:\n        /* \"contracts/studentmanager/AccessControl.sol\":1557:1597  RoleGranted(role, account, _msgSender()) */\n      0xffffffffffffffffffffffffffffffffffffffff\n      and\n        /* \"contracts/studentmanager/AccessControl.sol\":1575:1582  account */\n      dup4\n        /* \"contracts/studentmanager/AccessControl.sol\":1557:1597  RoleGranted(role, account, _msgSender()) */\n      0xffffffffffffffffffffffffffffffffffffffff\n      and\n        /* \"contracts/studentmanager/AccessControl.sol\":1569:1573  role */\n      dup6\n        /* \"contracts/studentmanager/AccessControl.sol\":1557:1597  RoleGranted(role, account, _msgSender()) */\n      0x2f8788117e7eff1d82e926ec794901d17c78024a50270940304540a733656f0d\n      mload(0x40)\n      mload(0x40)\n      dup1\n      swap2\n      sub\n      swap1\n      log4\n        /* \"contracts/studentmanager/AccessControl.sol\":1457:1609  if (!hasRole(role, account)) {\r... */\n    tag_52:\n        /* \"contracts/studentmanager/AccessControl.sol\":938:939  _ */\n      pop\n        /* \"contracts/studentmanager/AccessControl.sol\":1298:1616  function grantRole(bytes32 role, address account)\r... */\n      pop\n      pop\n      pop\n      jump\t// out\n        /* \"contracts/studentmanager/AccessControl.sol\":2251:2486  function addNewRoleAdmin(bytes32 role) public override virtual onlyRole(ADMIN_ROLE) {\r... */\n    tag_18:\n        /* \"contracts/studentmanager/AccessControl.sol\":2323:2333  ADMIN_ROLE */\n      sload(0x01)\n        /* \"contracts/studentmanager/AccessControl.sol\":737:764  hasRole(role, _msgSender()) */\n      tag_55\n        /* \"contracts/studentmanager/AccessControl.sol\":745:749  role */\n      dup2\n        /* \"contracts/studentmanager/AccessControl.sol\":751:763  _msgSender() */\n      tag_56\n        /* \"contracts/studentmanager/AccessControl.sol\":751:761  _msgSender */\n      tag_46\n        /* \"contracts/studentmanager/AccessControl.sol\":751:763  _msgSender() */\n      jump\t// in\n    tag_56:\n        /* \"contracts/studentmanager/AccessControl.sol\":737:744  hasRole */\n      tag_29\n        /* \"contracts/studentmanager/AccessControl.sol\":737:764  hasRole(role, _msgSender()) */\n      jump\t// in\n    tag_55:\n        /* \"contracts/studentmanager/AccessControl.sol\":729:788  require(hasRole(role, _msgSender()), \"You are not allowed\") */\n      tag_57\n      jumpi\n      mload(0x40)\n      0x08c379a000000000000000000000000000000000000000000000000000000000\n      dup2\n      mstore\n      0x04\n      add\n      tag_58\n      swap1\n      tag_49\n      jump\t// in\n    tag_58:\n      mload(0x40)\n      dup1\n      swap2\n      sub\n      swap1\n      revert\n    tag_57:\n        /* \"contracts/studentmanager/AccessControl.sol\":2384:2385  0 */\n      0x00\n        /* \"contracts/studentmanager/AccessControl.sol\":2376:2386  bytes32(0) */\n      dup1\n      shl\n        /* \"contracts/studentmanager/AccessControl.sol\":2354:2372  getRoleExist(role) */\n      tag_60\n        /* \"contracts/studentmanager/AccessControl.sol\":2367:2371  role */\n      dup4\n        /* \"contracts/studentmanager/AccessControl.sol\":2354:2366  getRoleExist */\n      tag_21\n        /* \"contracts/studentmanager/AccessControl.sol\":2354:2372  getRoleExist(role) */\n      jump\t// in\n    tag_60:\n        /* \"contracts/studentmanager/AccessControl.sol\":2354:2386  getRoleExist(role) == bytes32(0) */\n      eq\n        /* \"contracts/studentmanager/AccessControl.sol\":2346:2387  require(getRoleExist(role) == bytes32(0)) */\n      tag_61\n      jumpi\n      0x00\n      dup1\n      revert\n    tag_61:\n        /* \"contracts/studentmanager/AccessControl.sol\":2418:2422  role */\n      dup2\n        /* \"contracts/studentmanager/AccessControl.sol\":2398:2404  _roles */\n      0x00\n        /* \"contracts/studentmanager/AccessControl.sol\":2398:2410  _roles[role] */\n      dup1\n        /* \"contracts/studentmanager/AccessControl.sol\":2405:2409  role */\n      dup5\n        /* \"contracts/studentmanager/AccessControl.sol\":2398:2410  _roles[role] */\n      dup2\n      mstore\n      0x20\n      add\n      swap1\n      dup2\n      mstore\n      0x20\n      add\n      0x00\n      keccak256\n        /* \"contracts/studentmanager/AccessControl.sol\":2398:2415  _roles[role].role */\n      0x01\n      add\n        /* \"contracts/studentmanager/AccessControl.sol\":2398:2422  _roles[role].role = role */\n      dup2\n      swap1\n      sstore\n      pop\n        /* \"contracts/studentmanager/AccessControl.sol\":2473:2477  role */\n      dup2\n        /* \"contracts/studentmanager/AccessControl.sol\":2469:2470  0 */\n      0x00\n        /* \"contracts/studentmanager/AccessControl.sol\":2461:2471  bytes32(0) */\n      dup1\n      shl\n        /* \"contracts/studentmanager/AccessControl.sol\":2455:2459  role */\n      dup4\n        /* \"contracts/studentmanager/AccessControl.sol\":2438:2478  RoleAdminChanged(role, bytes32(0), role) */\n      0xbd79b86ffe0ab8e8776151514217cd7cacd52c909f66475c3af44e129f0b00ff\n      mload(0x40)\n      mload(0x40)\n      dup1\n      swap2\n      sub\n      swap1\n      log4\n        /* \"contracts/studentmanager/AccessControl.sol\":2251:2486  function addNewRoleAdmin(bytes32 role) public override virtual onlyRole(ADMIN_ROLE) {\r... */\n      pop\n      pop\n      jump\t// out\n        /* \"contracts/studentmanager/AccessControl.sol\":1172:1290  function getRoleExist(bytes32 role) public view override returns (bytes32) {\r... */\n    tag_21:\n        /* \"contracts/studentmanager/AccessControl.sol\":1238:1245  bytes32 */\n      0x00\n        /* \"contracts/studentmanager/AccessControl.sol\":1265:1271  _roles */\n      dup1\n        /* \"contracts/studentmanager/AccessControl.sol\":1265:1277  _roles[role] */\n      0x00\n        /* \"contracts/studentmanager/AccessControl.sol\":1272:1276  role */\n      dup4\n        /* \"contracts/studentmanager/AccessControl.sol\":1265:1277  _roles[role] */\n      dup2\n      mstore\n      0x20\n      add\n      swap1\n      dup2\n      mstore\n      0x20\n      add\n      0x00\n      keccak256\n        /* \"contracts/studentmanager/AccessControl.sol\":1265:1282  _roles[role].role */\n      0x01\n      add\n      sload\n        /* \"contracts/studentmanager/AccessControl.sol\":1258:1282  return _roles[role].role */\n      swap1\n      pop\n        /* \"contracts/studentmanager/AccessControl.sol\":1172:1290  function getRoleExist(bytes32 role) public view override returns (bytes32) {\r... */\n      swap2\n      swap1\n      pop\n      jump\t// out\n        /* \"contracts/studentmanager/AccessControl.sol\":1959:2243  function renounceRole(bytes32 role)\r... */\n    tag_26:\n        /* \"contracts/studentmanager/AccessControl.sol\":2047:2065  getRoleExist(role) */\n      tag_63\n        /* \"contracts/studentmanager/AccessControl.sol\":2060:2064  role */\n      dup2\n        /* \"contracts/studentmanager/AccessControl.sol\":2047:2059  getRoleExist */\n      tag_21\n        /* \"contracts/studentmanager/AccessControl.sol\":2047:2065  getRoleExist(role) */\n      jump\t// in\n    tag_63:\n        /* \"contracts/studentmanager/AccessControl.sol\":737:764  hasRole(role, _msgSender()) */\n      tag_65\n        /* \"contracts/studentmanager/AccessControl.sol\":745:749  role */\n      dup2\n        /* \"contracts/studentmanager/AccessControl.sol\":751:763  _msgSender() */\n      tag_66\n        /* \"contracts/studentmanager/AccessControl.sol\":751:761  _msgSender */\n      tag_46\n        /* \"contracts/studentmanager/AccessControl.sol\":751:763  _msgSender() */\n      jump\t// in\n    tag_66:\n        /* \"contracts/studentmanager/AccessControl.sol\":737:744  hasRole */\n      tag_29\n        /* \"contracts/studentmanager/AccessControl.sol\":737:764  hasRole(role, _msgSender()) */\n      jump\t// in\n    tag_65:\n        /* \"contracts/studentmanager/AccessControl.sol\":729:788  require(hasRole(role, _msgSender()), \"You are not allowed\") */\n      tag_67\n      jumpi\n      mload(0x40)\n      0x08c379a000000000000000000000000000000000000000000000000000000000\n      dup2\n      mstore\n      0x04\n      add\n      tag_68\n      swap1\n      tag_49\n      jump\t// in\n    tag_68:\n      mload(0x40)\n      dup1\n      swap2\n      sub\n      swap1\n      revert\n    tag_67:\n        /* \"contracts/studentmanager/AccessControl.sol\":2087:2114  hasRole(role, _msgSender()) */\n      tag_70\n        /* \"contracts/studentmanager/AccessControl.sol\":2095:2099  role */\n      dup3\n        /* \"contracts/studentmanager/AccessControl.sol\":2101:2113  _msgSender() */\n      tag_71\n        /* \"contracts/studentmanager/AccessControl.sol\":2101:2111  _msgSender */\n      tag_46\n        /* \"contracts/studentmanager/AccessControl.sol\":2101:2113  _msgSender() */\n      jump\t// in\n    tag_71:\n        /* \"contracts/studentmanager/AccessControl.sol\":2087:2094  hasRole */\n      tag_29\n        /* \"contracts/studentmanager/AccessControl.sol\":2087:2114  hasRole(role, _msgSender()) */\n      jump\t// in\n    tag_70:\n        /* \"contracts/studentmanager/AccessControl.sol\":2083:2236  if (hasRole(role, _msgSender())) {\r... */\n      iszero\n      tag_72\n      jumpi\n        /* \"contracts/studentmanager/AccessControl.sol\":2168:2173  false */\n      0x00\n        /* \"contracts/studentmanager/AccessControl.sol\":2131:2137  _roles */\n      dup1\n        /* \"contracts/studentmanager/AccessControl.sol\":2131:2143  _roles[role] */\n      0x00\n        /* \"contracts/studentmanager/AccessControl.sol\":2138:2142  role */\n      dup5\n        /* \"contracts/studentmanager/AccessControl.sol\":2131:2143  _roles[role] */\n      dup2\n      mstore\n      0x20\n      add\n      swap1\n      dup2\n      mstore\n      0x20\n      add\n      0x00\n      keccak256\n        /* \"contracts/studentmanager/AccessControl.sol\":2131:2151  _roles[role].members */\n      0x00\n      add\n        /* \"contracts/studentmanager/AccessControl.sol\":2131:2165  _roles[role].members[_msgSender()] */\n      0x00\n        /* \"contracts/studentmanager/AccessControl.sol\":2152:2164  _msgSender() */\n      tag_73\n        /* \"contracts/studentmanager/AccessControl.sol\":2152:2162  _msgSender */\n      tag_46\n        /* \"contracts/studentmanager/AccessControl.sol\":2152:2164  _msgSender() */\n      jump\t// in\n    tag_73:\n        /* \"contracts/studentmanager/AccessControl.sol\":2131:2165  _roles[role].members[_msgSender()] */\n      0xffffffffffffffffffffffffffffffffffffffff\n      and\n      0xffffffffffffffffffffffffffffffffffffffff\n      and\n      dup2\n      mstore\n      0x20\n      add\n      swap1\n      dup2\n      mstore\n      0x20\n      add\n      0x00\n      keccak256\n      0x00\n        /* \"contracts/studentmanager/AccessControl.sol\":2131:2173  _roles[role].members[_msgSender()] = false */\n      0x0100\n      exp\n      dup2\n      sload\n      dup2\n      0xff\n      mul\n      not\n      and\n      swap1\n      dup4\n      iszero\n      iszero\n      mul\n      or\n      swap1\n      sstore\n      pop\n        /* \"contracts/studentmanager/AccessControl.sol\":2211:2223  _msgSender() */\n      tag_74\n        /* \"contracts/studentmanager/AccessControl.sol\":2211:2221  _msgSender */\n      tag_46\n        /* \"contracts/studentmanager/AccessControl.sol\":2211:2223  _msgSender() */\n      jump\t// in\n    tag_74:\n        /* \"contracts/studentmanager/AccessControl.sol\":2193:2224  RoleRevoked(role, _msgSender()) */\n      0xffffffffffffffffffffffffffffffffffffffff\n      and\n        /* \"contracts/studentmanager/AccessControl.sol\":2205:2209  role */\n      dup3\n        /* \"contracts/studentmanager/AccessControl.sol\":2193:2224  RoleRevoked(role, _msgSender()) */\n      0x155aaafb6329a2098580462df33ec4b7441b19729b9601c5fc17ae1cf99a8a52\n      mload(0x40)\n      mload(0x40)\n      dup1\n      swap2\n      sub\n      swap1\n      log3\n        /* \"contracts/studentmanager/AccessControl.sol\":2083:2236  if (hasRole(role, _msgSender())) {\r... */\n    tag_72:\n        /* \"contracts/studentmanager/AccessControl.sol\":1959:2243  function renounceRole(bytes32 role)\r... */\n      pop\n      pop\n      jump\t// out\n        /* \"contracts/studentmanager/AccessControl.sol\":955:1164  function hasRole(bytes32 role, address account)\r... */\n    tag_29:\n        /* \"contracts/studentmanager/AccessControl.sol\":1098:1102  bool */\n      0x00\n        /* \"contracts/studentmanager/AccessControl.sol\":1056:1060  role */\n      dup3\n        /* \"contracts/studentmanager/AccessControl.sol\":902:903  0 */\n      0x00\n        /* \"contracts/studentmanager/AccessControl.sol\":894:904  bytes32(0) */\n      dup1\n      shl\n        /* \"contracts/studentmanager/AccessControl.sol\":872:890  getRoleExist(role) */\n      tag_76\n        /* \"contracts/studentmanager/AccessControl.sol\":885:889  role */\n      dup3\n        /* \"contracts/studentmanager/AccessControl.sol\":872:884  getRoleExist */\n      tag_21\n        /* \"contracts/studentmanager/AccessControl.sol\":872:890  getRoleExist(role) */\n      jump\t// in\n    tag_76:\n        /* \"contracts/studentmanager/AccessControl.sol\":872:904  getRoleExist(role) != bytes32(0) */\n      eq\n      iszero\n        /* \"contracts/studentmanager/AccessControl.sol\":864:927  require(getRoleExist(role) != bytes32(0), \"Role isn't existed\") */\n      tag_77\n      jumpi\n      mload(0x40)\n      0x08c379a000000000000000000000000000000000000000000000000000000000\n      dup2\n      mstore\n      0x04\n      add\n      tag_78\n      swap1\n      tag_42\n      jump\t// in\n    tag_78:\n      mload(0x40)\n      dup1\n      swap2\n      sub\n      swap1\n      revert\n    tag_77:\n        /* \"contracts/studentmanager/AccessControl.sol\":1127:1133  _roles */\n      0x00\n        /* \"contracts/studentmanager/AccessControl.sol\":1127:1139  _roles[role] */\n      dup1\n        /* \"contracts/studentmanager/AccessControl.sol\":1134:1138  role */\n      dup6\n        /* \"contracts/studentmanager/AccessControl.sol\":1127:1139  _roles[role] */\n      dup2\n      mstore\n      0x20\n      add\n      swap1\n      dup2\n      mstore\n      0x20\n      add\n      0x00\n      keccak256\n        /* \"contracts/studentmanager/AccessControl.sol\":1127:1147  _roles[role].members */\n      0x00\n      add\n        /* \"contracts/studentmanager/AccessControl.sol\":1127:1156  _roles[role].members[account] */\n      0x00\n        /* \"contracts/studentmanager/AccessControl.sol\":1148:1155  account */\n      dup5\n        /* \"contracts/studentmanager/AccessControl.sol\":1127:1156  _roles[role].members[account] */\n      0xffffffffffffffffffffffffffffffffffffffff\n      and\n      0xffffffffffffffffffffffffffffffffffffffff\n      and\n      dup2\n      mstore\n      0x20\n      add\n      swap1\n      dup2\n      mstore\n      0x20\n      add\n      0x00\n      keccak256\n      0x00\n      swap1\n      sload\n      swap1\n      0x0100\n      exp\n      swap1\n      div\n      0xff\n      and\n        /* \"contracts/studentmanager/AccessControl.sol\":1120:1156  return _roles[role].members[account] */\n      swap2\n      pop\n        /* \"contracts/studentmanager/AccessControl.sol\":955:1164  function hasRole(bytes32 role, address account)\r... */\n      pop\n      swap3\n      swap2\n      pop\n      pop\n      jump\t// out\n        /* \"contracts/studentmanager/AccessControl.sol\":2494:2858  function removeNewRoleAdmin(bytes32 role)\r... */\n    tag_34:\n        /* \"contracts/studentmanager/AccessControl.sol\":2610:2614  role */\n      dup1\n        /* \"contracts/studentmanager/AccessControl.sol\":902:903  0 */\n      0x00\n        /* \"contracts/studentmanager/AccessControl.sol\":894:904  bytes32(0) */\n      dup1\n      shl\n        /* \"contracts/studentmanager/AccessControl.sol\":872:890  getRoleExist(role) */\n      tag_81\n        /* \"contracts/studentmanager/AccessControl.sol\":885:889  role */\n      dup3\n        /* \"contracts/studentmanager/AccessControl.sol\":872:884  getRoleExist */\n      tag_21\n        /* \"contracts/studentmanager/AccessControl.sol\":872:890  getRoleExist(role) */\n      jump\t// in\n    tag_81:\n        /* \"contracts/studentmanager/AccessControl.sol\":872:904  getRoleExist(role) != bytes32(0) */\n      eq\n      iszero\n        /* \"contracts/studentmanager/AccessControl.sol\":864:927  require(getRoleExist(role) != bytes32(0), \"Role isn't existed\") */\n      tag_82\n      jumpi\n      mload(0x40)\n      0x08c379a000000000000000000000000000000000000000000000000000000000\n      dup2\n      mstore\n      0x04\n      add\n      tag_83\n      swap1\n      tag_42\n      jump\t// in\n    tag_83:\n      mload(0x40)\n      dup1\n      swap2\n      sub\n      swap1\n      revert\n    tag_82:\n        /* \"contracts/studentmanager/AccessControl.sol\":2634:2644  ADMIN_ROLE */\n      sload(0x01)\n        /* \"contracts/studentmanager/AccessControl.sol\":737:764  hasRole(role, _msgSender()) */\n      tag_85\n        /* \"contracts/studentmanager/AccessControl.sol\":745:749  role */\n      dup2\n        /* \"contracts/studentmanager/AccessControl.sol\":751:763  _msgSender() */\n      tag_86\n        /* \"contracts/studentmanager/AccessControl.sol\":751:761  _msgSender */\n      tag_46\n        /* \"contracts/studentmanager/AccessControl.sol\":751:763  _msgSender() */\n      jump\t// in\n    tag_86:\n        /* \"contracts/studentmanager/AccessControl.sol\":737:744  hasRole */\n      tag_29\n        /* \"contracts/studentmanager/AccessControl.sol\":737:764  hasRole(role, _msgSender()) */\n      jump\t// in\n    tag_85:\n        /* \"contracts/studentmanager/AccessControl.sol\":729:788  require(hasRole(role, _msgSender()), \"You are not allowed\") */\n      tag_87\n      jumpi\n      mload(0x40)\n      0x08c379a000000000000000000000000000000000000000000000000000000000\n      dup2\n      mstore\n      0x04\n      add\n      tag_88\n      swap1\n      tag_49\n      jump\t// in\n    tag_88:\n      mload(0x40)\n      dup1\n      swap2\n      sub\n      swap1\n      revert\n    tag_87:\n        /* \"contracts/studentmanager/AccessControl.sol\":2678:2688  ADMIN_ROLE */\n      sload(0x01)\n        /* \"contracts/studentmanager/AccessControl.sol\":2670:2674  role */\n      dup4\n        /* \"contracts/studentmanager/AccessControl.sol\":2670:2688  role != ADMIN_ROLE */\n      eq\n      iszero\n        /* \"contracts/studentmanager/AccessControl.sol\":2662:2689  require(role != ADMIN_ROLE) */\n      tag_90\n      jumpi\n      0x00\n      dup1\n      revert\n    tag_90:\n        /* \"contracts/studentmanager/AccessControl.sol\":2700:2725  bytes32 previousAdminRole */\n      0x00\n        /* \"contracts/studentmanager/AccessControl.sol\":2728:2746  getRoleExist(role) */\n      tag_91\n        /* \"contracts/studentmanager/AccessControl.sol\":2741:2745  role */\n      dup5\n        /* \"contracts/studentmanager/AccessControl.sol\":2728:2740  getRoleExist */\n      tag_21\n        /* \"contracts/studentmanager/AccessControl.sol\":2728:2746  getRoleExist(role) */\n      jump\t// in\n    tag_91:\n        /* \"contracts/studentmanager/AccessControl.sol\":2700:2746  bytes32 previousAdminRole = getRoleExist(role) */\n      swap1\n      pop\n        /* \"contracts/studentmanager/AccessControl.sol\":2785:2786  0 */\n      0x00\n        /* \"contracts/studentmanager/AccessControl.sol\":2777:2787  bytes32(0) */\n      dup1\n      shl\n        /* \"contracts/studentmanager/AccessControl.sol\":2757:2763  _roles */\n      0x00\n        /* \"contracts/studentmanager/AccessControl.sol\":2757:2769  _roles[role] */\n      dup1\n        /* \"contracts/studentmanager/AccessControl.sol\":2764:2768  role */\n      dup7\n        /* \"contracts/studentmanager/AccessControl.sol\":2757:2769  _roles[role] */\n      dup2\n      mstore\n      0x20\n      add\n      swap1\n      dup2\n      mstore\n      0x20\n      add\n      0x00\n      keccak256\n        /* \"contracts/studentmanager/AccessControl.sol\":2757:2774  _roles[role].role */\n      0x01\n      add\n        /* \"contracts/studentmanager/AccessControl.sol\":2757:2787  _roles[role].role = bytes32(0) */\n      dup2\n      swap1\n      sstore\n      pop\n        /* \"contracts/studentmanager/AccessControl.sol\":2845:2849  role */\n      dup4\n        /* \"contracts/studentmanager/AccessControl.sol\":2826:2843  previousAdminRole */\n      dup2\n        /* \"contracts/studentmanager/AccessControl.sol\":2820:2824  role */\n      dup6\n        /* \"contracts/studentmanager/AccessControl.sol\":2803:2850  RoleAdminChanged(role, previousAdminRole, role) */\n      0xbd79b86ffe0ab8e8776151514217cd7cacd52c909f66475c3af44e129f0b00ff\n      mload(0x40)\n      mload(0x40)\n      dup1\n      swap2\n      sub\n      swap1\n      log4\n        /* \"contracts/studentmanager/AccessControl.sol\":2651:2858  {\r... */\n      pop\n        /* \"contracts/studentmanager/AccessControl.sol\":938:939  _ */\n      pop\n        /* \"contracts/studentmanager/AccessControl.sol\":2494:2858  function removeNewRoleAdmin(bytes32 role)\r... */\n      pop\n      pop\n      jump\t// out\n        /* \"contracts/studentmanager/AccessControl.sol\":1624:1951  function revokeRole(bytes32 role, address account)\r... */\n    tag_37:\n        /* \"contracts/studentmanager/AccessControl.sol\":1749:1753  role */\n      dup2\n        /* \"contracts/studentmanager/AccessControl.sol\":902:903  0 */\n      0x00\n        /* \"contracts/studentmanager/AccessControl.sol\":894:904  bytes32(0) */\n      dup1\n      shl\n        /* \"contracts/studentmanager/AccessControl.sol\":872:890  getRoleExist(role) */\n      tag_93\n        /* \"contracts/studentmanager/AccessControl.sol\":885:889  role */\n      dup3\n        /* \"contracts/studentmanager/AccessControl.sol\":872:884  getRoleExist */\n      tag_21\n        /* \"contracts/studentmanager/AccessControl.sol\":872:890  getRoleExist(role) */\n      jump\t// in\n    tag_93:\n        /* \"contracts/studentmanager/AccessControl.sol\":872:904  getRoleExist(role) != bytes32(0) */\n      eq\n      iszero\n        /* \"contracts/studentmanager/AccessControl.sol\":864:927  require(getRoleExist(role) != bytes32(0), \"Role isn't existed\") */\n      tag_94\n      jumpi\n      mload(0x40)\n      0x08c379a000000000000000000000000000000000000000000000000000000000\n      dup2\n      mstore\n      0x04\n      add\n      tag_95\n      swap1\n      tag_42\n      jump\t// in\n    tag_95:\n      mload(0x40)\n      dup1\n      swap2\n      sub\n      swap1\n      revert\n    tag_94:\n        /* \"contracts/studentmanager/AccessControl.sol\":1773:1783  ADMIN_ROLE */\n      sload(0x01)\n        /* \"contracts/studentmanager/AccessControl.sol\":737:764  hasRole(role, _msgSender()) */\n      tag_97\n        /* \"contracts/studentmanager/AccessControl.sol\":745:749  role */\n      dup2\n        /* \"contracts/studentmanager/AccessControl.sol\":751:763  _msgSender() */\n      tag_98\n        /* \"contracts/studentmanager/AccessControl.sol\":751:761  _msgSender */\n      tag_46\n        /* \"contracts/studentmanager/AccessControl.sol\":751:763  _msgSender() */\n      jump\t// in\n    tag_98:\n        /* \"contracts/studentmanager/AccessControl.sol\":737:744  hasRole */\n      tag_29\n        /* \"contracts/studentmanager/AccessControl.sol\":737:764  hasRole(role, _msgSender()) */\n      jump\t// in\n    tag_97:\n        /* \"contracts/studentmanager/AccessControl.sol\":729:788  require(hasRole(role, _msgSender()), \"You are not allowed\") */\n      tag_99\n      jumpi\n      mload(0x40)\n      0x08c379a000000000000000000000000000000000000000000000000000000000\n      dup2\n      mstore\n      0x04\n      add\n      tag_100\n      swap1\n      tag_49\n      jump\t// in\n    tag_100:\n      mload(0x40)\n      dup1\n      swap2\n      sub\n      swap1\n      revert\n    tag_99:\n        /* \"contracts/studentmanager/AccessControl.sol\":1805:1827  hasRole(role, account) */\n      tag_102\n        /* \"contracts/studentmanager/AccessControl.sol\":1813:1817  role */\n      dup5\n        /* \"contracts/studentmanager/AccessControl.sol\":1819:1826  account */\n      dup5\n        /* \"contracts/studentmanager/AccessControl.sol\":1805:1812  hasRole */\n      tag_29\n        /* \"contracts/studentmanager/AccessControl.sol\":1805:1827  hasRole(role, account) */\n      jump\t// in\n    tag_102:\n        /* \"contracts/studentmanager/AccessControl.sol\":1801:1944  if (hasRole(role, account)) {\r... */\n      iszero\n      tag_103\n      jumpi\n        /* \"contracts/studentmanager/AccessControl.sol\":1876:1881  false */\n      0x00\n        /* \"contracts/studentmanager/AccessControl.sol\":1844:1850  _roles */\n      dup1\n        /* \"contracts/studentmanager/AccessControl.sol\":1844:1856  _roles[role] */\n      0x00\n        /* \"contracts/studentmanager/AccessControl.sol\":1851:1855  role */\n      dup7\n        /* \"contracts/studentmanager/AccessControl.sol\":1844:1856  _roles[role] */\n      dup2\n      mstore\n      0x20\n      add\n      swap1\n      dup2\n      mstore\n      0x20\n      add\n      0x00\n      keccak256\n        /* \"contracts/studentmanager/AccessControl.sol\":1844:1864  _roles[role].members */\n      0x00\n      add\n        /* \"contracts/studentmanager/AccessControl.sol\":1844:1873  _roles[role].members[account] */\n      0x00\n        /* \"contracts/studentmanager/AccessControl.sol\":1865:1872  account */\n      dup6\n        /* \"contracts/studentmanager/AccessControl.sol\":1844:1873  _roles[role].members[account] */\n      0xffffffffffffffffffffffffffffffffffffffff\n      and\n      0xffffffffffffffffffffffffffffffffffffffff\n      and\n      dup2\n      mstore\n      0x20\n      add\n      swap1\n      dup2\n      mstore\n      0x20\n      add\n      0x00\n      keccak256\n      0x00\n        /* \"contracts/studentmanager/AccessControl.sol\":1844:1881  _roles[role].members[account] = false */\n      0x0100\n      exp\n      dup2\n      sload\n      dup2\n      0xff\n      mul\n      not\n      and\n      swap1\n      dup4\n      iszero\n      iszero\n      mul\n      or\n      swap1\n      sstore\n      pop\n        /* \"contracts/studentmanager/AccessControl.sol\":1919:1931  _msgSender() */\n      tag_104\n        /* \"contracts/studentmanager/AccessControl.sol\":1919:1929  _msgSender */\n      tag_46\n        /* \"contracts/studentmanager/AccessControl.sol\":1919:1931  _msgSender() */\n      jump\t// in\n    tag_104:\n        /* \"contracts/studentmanager/AccessControl.sol\":1901:1932  RoleRevoked(role, _msgSender()) */\n      0xffffffffffffffffffffffffffffffffffffffff\n      and\n        /* \"contracts/studentmanager/AccessControl.sol\":1913:1917  role */\n      dup5\n        /* \"contracts/studentmanager/AccessControl.sol\":1901:1932  RoleRevoked(role, _msgSender()) */\n      0x155aaafb6329a2098580462df33ec4b7441b19729b9601c5fc17ae1cf99a8a52\n      mload(0x40)\n      mload(0x40)\n      dup1\n      swap2\n      sub\n      swap1\n      log3\n        /* \"contracts/studentmanager/AccessControl.sol\":1801:1944  if (hasRole(role, account)) {\r... */\n    tag_103:\n        /* \"contracts/studentmanager/AccessControl.sol\":938:939  _ */\n      pop\n        /* \"contracts/studentmanager/AccessControl.sol\":1624:1951  function revokeRole(bytes32 role, address account)\r... */\n      pop\n      pop\n      pop\n      jump\t// out\n        /* \"@openzeppelin/contracts/utils/Context.sol\":640:736  function _msgSender() internal view virtual returns (address) {... */\n    tag_46:\n        /* \"@openzeppelin/contracts/utils/Context.sol\":693:700  address */\n      0x00\n        /* \"@openzeppelin/contracts/utils/Context.sol\":719:729  msg.sender */\n      caller\n        /* \"@openzeppelin/contracts/utils/Context.sol\":712:729  return msg.sender */\n      swap1\n      pop\n        /* \"@openzeppelin/contracts/utils/Context.sol\":640:736  function _msgSender() internal view virtual returns (address) {... */\n      swap1\n      jump\t// out\n        /* \"#utility.yul\":7:146   */\n    tag_107:\n        /* \"#utility.yul\":53:58   */\n      0x00\n        /* \"#utility.yul\":91:97   */\n      dup2\n        /* \"#utility.yul\":78:98   */\n      calldataload\n        /* \"#utility.yul\":69:98   */\n      swap1\n      pop\n        /* \"#utility.yul\":107:140   */\n      tag_109\n        /* \"#utility.yul\":134:139   */\n      dup2\n        /* \"#utility.yul\":107:140   */\n      tag_110\n      jump\t// in\n    tag_109:\n        /* \"#utility.yul\":7:146   */\n      swap3\n      swap2\n      pop\n      pop\n      jump\t// out\n        /* \"#utility.yul\":152:291   */\n    tag_111:\n        /* \"#utility.yul\":198:203   */\n      0x00\n        /* \"#utility.yul\":236:242   */\n      dup2\n        /* \"#utility.yul\":223:243   */\n      calldataload\n        /* \"#utility.yul\":214:243   */\n      swap1\n      pop\n        /* \"#utility.yul\":252:285   */\n      tag_113\n        /* \"#utility.yul\":279:284   */\n      dup2\n        /* \"#utility.yul\":252:285   */\n      tag_114\n      jump\t// in\n    tag_113:\n        /* \"#utility.yul\":152:291   */\n      swap3\n      swap2\n      pop\n      pop\n      jump\t// out\n        /* \"#utility.yul\":297:626   */\n    tag_17:\n        /* \"#utility.yul\":356:362   */\n      0x00\n        /* \"#utility.yul\":405:407   */\n      0x20\n        /* \"#utility.yul\":393:402   */\n      dup3\n        /* \"#utility.yul\":384:391   */\n      dup5\n        /* \"#utility.yul\":380:403   */\n      sub\n        /* \"#utility.yul\":376:408   */\n      slt\n        /* \"#utility.yul\":373:492   */\n      iszero\n      tag_116\n      jumpi\n        /* \"#utility.yul\":411:490   */\n      tag_117\n      tag_118\n      jump\t// in\n    tag_117:\n        /* \"#utility.yul\":373:492   */\n    tag_116:\n        /* \"#utility.yul\":531:532   */\n      0x00\n        /* \"#utility.yul\":556:609   */\n      tag_119\n        /* \"#utility.yul\":601:608   */\n      dup5\n        /* \"#utility.yul\":592:598   */\n      dup3\n        /* \"#utility.yul\":581:590   */\n      dup6\n        /* \"#utility.yul\":577:599   */\n      add\n        /* \"#utility.yul\":556:609   */\n      tag_111\n      jump\t// in\n    tag_119:\n        /* \"#utility.yul\":546:609   */\n      swap2\n      pop\n        /* \"#utility.yul\":502:619   */\n      pop\n        /* \"#utility.yul\":297:626   */\n      swap3\n      swap2\n      pop\n      pop\n      jump\t// out\n        /* \"#utility.yul\":632:1106   */\n    tag_13:\n        /* \"#utility.yul\":700:706   */\n      0x00\n        /* \"#utility.yul\":708:714   */\n      dup1\n        /* \"#utility.yul\":757:759   */\n      0x40\n        /* \"#utility.yul\":745:754   */\n      dup4\n        /* \"#utility.yul\":736:743   */\n      dup6\n        /* \"#utility.yul\":732:755   */\n      sub\n        /* \"#utility.yul\":728:760   */\n      slt\n        /* \"#utility.yul\":725:844   */\n      iszero\n      tag_121\n      jumpi\n        /* \"#utility.yul\":763:842   */\n      tag_122\n      tag_118\n      jump\t// in\n    tag_122:\n        /* \"#utility.yul\":725:844   */\n    tag_121:\n        /* \"#utility.yul\":883:884   */\n      0x00\n        /* \"#utility.yul\":908:961   */\n      tag_123\n        /* \"#utility.yul\":953:960   */\n      dup6\n        /* \"#utility.yul\":944:950   */\n      dup3\n        /* \"#utility.yul\":933:942   */\n      dup7\n        /* \"#utility.yul\":929:951   */\n      add\n        /* \"#utility.yul\":908:961   */\n      tag_111\n      jump\t// in\n    tag_123:\n        /* \"#utility.yul\":898:961   */\n      swap3\n      pop\n        /* \"#utility.yul\":854:971   */\n      pop\n        /* \"#utility.yul\":1010:1012   */\n      0x20\n        /* \"#utility.yul\":1036:1089   */\n      tag_124\n        /* \"#utility.yul\":1081:1088   */\n      dup6\n        /* \"#utility.yul\":1072:1078   */\n      dup3\n        /* \"#utility.yul\":1061:1070   */\n      dup7\n        /* \"#utility.yul\":1057:1079   */\n      add\n        /* \"#utility.yul\":1036:1089   */\n      tag_107\n      jump\t// in\n    tag_124:\n        /* \"#utility.yul\":1026:1089   */\n      swap2\n      pop\n        /* \"#utility.yul\":981:1099   */\n      pop\n        /* \"#utility.yul\":632:1106   */\n      swap3\n      pop\n      swap3\n      swap1\n      pop\n      jump\t// out\n        /* \"#utility.yul\":1112:1221   */\n    tag_125:\n        /* \"#utility.yul\":1193:1214   */\n      tag_127\n        /* \"#utility.yul\":1208:1213   */\n      dup2\n        /* \"#utility.yul\":1193:1214   */\n      tag_128\n      jump\t// in\n    tag_127:\n        /* \"#utility.yul\":1188:1191   */\n      dup3\n        /* \"#utility.yul\":1181:1215   */\n      mstore\n        /* \"#utility.yul\":1112:1221   */\n      pop\n      pop\n      jump\t// out\n        /* \"#utility.yul\":1227:1345   */\n    tag_129:\n        /* \"#utility.yul\":1314:1338   */\n      tag_131\n        /* \"#utility.yul\":1332:1337   */\n      dup2\n        /* \"#utility.yul\":1314:1338   */\n      tag_132\n      jump\t// in\n    tag_131:\n        /* \"#utility.yul\":1309:1312   */\n      dup3\n        /* \"#utility.yul\":1302:1339   */\n      mstore\n        /* \"#utility.yul\":1227:1345   */\n      pop\n      pop\n      jump\t// out\n        /* \"#utility.yul\":1351:1717   */\n    tag_133:\n        /* \"#utility.yul\":1493:1496   */\n      0x00\n        /* \"#utility.yul\":1514:1581   */\n      tag_135\n        /* \"#utility.yul\":1578:1580   */\n      0x13\n        /* \"#utility.yul\":1573:1576   */\n      dup4\n        /* \"#utility.yul\":1514:1581   */\n      tag_136\n      jump\t// in\n    tag_135:\n        /* \"#utility.yul\":1507:1581   */\n      swap2\n      pop\n        /* \"#utility.yul\":1590:1683   */\n      tag_137\n        /* \"#utility.yul\":1679:1682   */\n      dup3\n        /* \"#utility.yul\":1590:1683   */\n      tag_138\n      jump\t// in\n    tag_137:\n        /* \"#utility.yul\":1708:1710   */\n      0x20\n        /* \"#utility.yul\":1703:1706   */\n      dup3\n        /* \"#utility.yul\":1699:1711   */\n      add\n        /* \"#utility.yul\":1692:1711   */\n      swap1\n      pop\n        /* \"#utility.yul\":1351:1717   */\n      swap2\n      swap1\n      pop\n      jump\t// out\n        /* \"#utility.yul\":1723:2089   */\n    tag_139:\n        /* \"#utility.yul\":1865:1868   */\n      0x00\n        /* \"#utility.yul\":1886:1953   */\n      tag_141\n        /* \"#utility.yul\":1950:1952   */\n      0x12\n        /* \"#utility.yul\":1945:1948   */\n      dup4\n        /* \"#utility.yul\":1886:1953   */\n      tag_136\n      jump\t// in\n    tag_141:\n        /* \"#utility.yul\":1879:1953   */\n      swap2\n      pop\n        /* \"#utility.yul\":1962:2055   */\n      tag_142\n        /* \"#utility.yul\":2051:2054   */\n      dup3\n        /* \"#utility.yul\":1962:2055   */\n      tag_143\n      jump\t// in\n    tag_142:\n        /* \"#utility.yul\":2080:2082   */\n      0x20\n        /* \"#utility.yul\":2075:2078   */\n      dup3\n        /* \"#utility.yul\":2071:2083   */\n      add\n        /* \"#utility.yul\":2064:2083   */\n      swap1\n      pop\n        /* \"#utility.yul\":1723:2089   */\n      swap2\n      swap1\n      pop\n      jump\t// out\n        /* \"#utility.yul\":2095:2305   */\n    tag_31:\n        /* \"#utility.yul\":2182:2186   */\n      0x00\n        /* \"#utility.yul\":2220:2222   */\n      0x20\n        /* \"#utility.yul\":2209:2218   */\n      dup3\n        /* \"#utility.yul\":2205:2223   */\n      add\n        /* \"#utility.yul\":2197:2223   */\n      swap1\n      pop\n        /* \"#utility.yul\":2233:2298   */\n      tag_145\n        /* \"#utility.yul\":2295:2296   */\n      0x00\n        /* \"#utility.yul\":2284:2293   */\n      dup4\n        /* \"#utility.yul\":2280:2297   */\n      add\n        /* \"#utility.yul\":2271:2277   */\n      dup5\n        /* \"#utility.yul\":2233:2298   */\n      tag_125\n      jump\t// in\n    tag_145:\n        /* \"#utility.yul\":2095:2305   */\n      swap3\n      swap2\n      pop\n      pop\n      jump\t// out\n        /* \"#utility.yul\":2311:2533   */\n    tag_23:\n        /* \"#utility.yul\":2404:2408   */\n      0x00\n        /* \"#utility.yul\":2442:2444   */\n      0x20\n        /* \"#utility.yul\":2431:2440   */\n      dup3\n        /* \"#utility.yul\":2427:2445   */\n      add\n        /* \"#utility.yul\":2419:2445   */\n      swap1\n      pop\n        /* \"#utility.yul\":2455:2526   */\n      tag_147\n        /* \"#utility.yul\":2523:2524   */\n      0x00\n        /* \"#utility.yul\":2512:2521   */\n      dup4\n        /* \"#utility.yul\":2508:2525   */\n      add\n        /* \"#utility.yul\":2499:2505   */\n      dup5\n        /* \"#utility.yul\":2455:2526   */\n      tag_129\n      jump\t// in\n    tag_147:\n        /* \"#utility.yul\":2311:2533   */\n      swap3\n      swap2\n      pop\n      pop\n      jump\t// out\n        /* \"#utility.yul\":2539:2958   */\n    tag_49:\n        /* \"#utility.yul\":2705:2709   */\n      0x00\n        /* \"#utility.yul\":2743:2745   */\n      0x20\n        /* \"#utility.yul\":2732:2741   */\n      dup3\n        /* \"#utility.yul\":2728:2746   */\n      add\n        /* \"#utility.yul\":2720:2746   */\n      swap1\n      pop\n        /* \"#utility.yul\":2792:2801   */\n      dup2\n        /* \"#utility.yul\":2786:2790   */\n      dup2\n        /* \"#utility.yul\":2782:2802   */\n      sub\n        /* \"#utility.yul\":2778:2779   */\n      0x00\n        /* \"#utility.yul\":2767:2776   */\n      dup4\n        /* \"#utility.yul\":2763:2780   */\n      add\n        /* \"#utility.yul\":2756:2803   */\n      mstore\n        /* \"#utility.yul\":2820:2951   */\n      tag_149\n        /* \"#utility.yul\":2946:2950   */\n      dup2\n        /* \"#utility.yul\":2820:2951   */\n      tag_133\n      jump\t// in\n    tag_149:\n        /* \"#utility.yul\":2812:2951   */\n      swap1\n      pop\n        /* \"#utility.yul\":2539:2958   */\n      swap2\n      swap1\n      pop\n      jump\t// out\n        /* \"#utility.yul\":2964:3383   */\n    tag_42:\n        /* \"#utility.yul\":3130:3134   */\n      0x00\n        /* \"#utility.yul\":3168:3170   */\n      0x20\n        /* \"#utility.yul\":3157:3166   */\n      dup3\n        /* \"#utility.yul\":3153:3171   */\n      add\n        /* \"#utility.yul\":3145:3171   */\n      swap1\n      pop\n        /* \"#utility.yul\":3217:3226   */\n      dup2\n        /* \"#utility.yul\":3211:3215   */\n      dup2\n        /* \"#utility.yul\":3207:3227   */\n      sub\n        /* \"#utility.yul\":3203:3204   */\n      0x00\n        /* \"#utility.yul\":3192:3201   */\n      dup4\n        /* \"#utility.yul\":3188:3205   */\n      add\n        /* \"#utility.yul\":3181:3228   */\n      mstore\n        /* \"#utility.yul\":3245:3376   */\n      tag_151\n        /* \"#utility.yul\":3371:3375   */\n      dup2\n        /* \"#utility.yul\":3245:3376   */\n      tag_139\n      jump\t// in\n    tag_151:\n        /* \"#utility.yul\":3237:3376   */\n      swap1\n      pop\n        /* \"#utility.yul\":2964:3383   */\n      swap2\n      swap1\n      pop\n      jump\t// out\n        /* \"#utility.yul\":3470:3639   */\n    tag_136:\n        /* \"#utility.yul\":3554:3565   */\n      0x00\n        /* \"#utility.yul\":3588:3594   */\n      dup3\n        /* \"#utility.yul\":3583:3586   */\n      dup3\n        /* \"#utility.yul\":3576:3595   */\n      mstore\n        /* \"#utility.yul\":3628:3632   */\n      0x20\n        /* \"#utility.yul\":3623:3626   */\n      dup3\n        /* \"#utility.yul\":3619:3633   */\n      add\n        /* \"#utility.yul\":3604:3633   */\n      swap1\n      pop\n        /* \"#utility.yul\":3470:3639   */\n      swap3\n      swap2\n      pop\n      pop\n      jump\t// out\n        /* \"#utility.yul\":3645:3741   */\n    tag_155:\n        /* \"#utility.yul\":3682:3689   */\n      0x00\n        /* \"#utility.yul\":3711:3735   */\n      tag_157\n        /* \"#utility.yul\":3729:3734   */\n      dup3\n        /* \"#utility.yul\":3711:3735   */\n      tag_158\n      jump\t// in\n    tag_157:\n        /* \"#utility.yul\":3700:3735   */\n      swap1\n      pop\n        /* \"#utility.yul\":3645:3741   */\n      swap2\n      swap1\n      pop\n      jump\t// out\n        /* \"#utility.yul\":3747:3837   */\n    tag_128:\n        /* \"#utility.yul\":3781:3788   */\n      0x00\n        /* \"#utility.yul\":3824:3829   */\n      dup2\n        /* \"#utility.yul\":3817:3830   */\n      iszero\n        /* \"#utility.yul\":3810:3831   */\n      iszero\n        /* \"#utility.yul\":3799:3831   */\n      swap1\n      pop\n        /* \"#utility.yul\":3747:3837   */\n      swap2\n      swap1\n      pop\n      jump\t// out\n        /* \"#utility.yul\":3843:3920   */\n    tag_132:\n        /* \"#utility.yul\":3880:3887   */\n      0x00\n        /* \"#utility.yul\":3909:3914   */\n      dup2\n        /* \"#utility.yul\":3898:3914   */\n      swap1\n      pop\n        /* \"#utility.yul\":3843:3920   */\n      swap2\n      swap1\n      pop\n      jump\t// out\n        /* \"#utility.yul\":3926:4052   */\n    tag_158:\n        /* \"#utility.yul\":3963:3970   */\n      0x00\n        /* \"#utility.yul\":4003:4045   */\n      0xffffffffffffffffffffffffffffffffffffffff\n        /* \"#utility.yul\":3996:4001   */\n      dup3\n        /* \"#utility.yul\":3992:4046   */\n      and\n        /* \"#utility.yul\":3981:4046   */\n      swap1\n      pop\n        /* \"#utility.yul\":3926:4052   */\n      swap2\n      swap1\n      pop\n      jump\t// out\n        /* \"#utility.yul\":4181:4298   */\n    tag_118:\n        /* \"#utility.yul\":4290:4291   */\n      0x00\n        /* \"#utility.yul\":4287:4288   */\n      dup1\n        /* \"#utility.yul\":4280:4292   */\n      revert\n        /* \"#utility.yul\":4304:4473   */\n    tag_138:\n        /* \"#utility.yul\":4444:4465   */\n      0x596f7520617265206e6f7420616c6c6f77656400000000000000000000000000\n        /* \"#utility.yul\":4440:4441   */\n      0x00\n        /* \"#utility.yul\":4432:4438   */\n      dup3\n        /* \"#utility.yul\":4428:4442   */\n      add\n        /* \"#utility.yul\":4421:4466   */\n      mstore\n        /* \"#utility.yul\":4304:4473   */\n      pop\n      jump\t// out\n        /* \"#utility.yul\":4479:4647   */\n    tag_143:\n        /* \"#utility.yul\":4619:4639   */\n      0x526f6c652069736e277420657869737465640000000000000000000000000000\n        /* \"#utility.yul\":4615:4616   */\n      0x00\n        /* \"#utility.yul\":4607:4613   */\n      dup3\n        /* \"#utility.yul\":4603:4617   */\n      add\n        /* \"#utility.yul\":4596:4640   */\n      mstore\n        /* \"#utility.yul\":4479:4647   */\n      pop\n      jump\t// out\n        /* \"#utility.yul\":4653:4775   */\n    tag_110:\n        /* \"#utility.yul\":4726:4750   */\n      tag_168\n        /* \"#utility.yul\":4744:4749   */\n      dup2\n        /* \"#utility.yul\":4726:4750   */\n      tag_155\n      jump\t// in\n    tag_168:\n        /* \"#utility.yul\":4719:4724   */\n      dup2\n        /* \"#utility.yul\":4716:4751   */\n      eq\n        /* \"#utility.yul\":4706:4769   */\n      tag_169\n      jumpi\n        /* \"#utility.yul\":4765:4766   */\n      0x00\n        /* \"#utility.yul\":4762:4763   */\n      dup1\n        /* \"#utility.yul\":4755:4767   */\n      revert\n        /* \"#utility.yul\":4706:4769   */\n    tag_169:\n        /* \"#utility.yul\":4653:4775   */\n      pop\n      jump\t// out\n        /* \"#utility.yul\":4781:4903   */\n    tag_114:\n        /* \"#utility.yul\":4854:4878   */\n      tag_171\n        /* \"#utility.yul\":4872:4877   */\n      dup2\n        /* \"#utility.yul\":4854:4878   */\n      tag_132\n      jump\t// in\n    tag_171:\n        /* \"#utility.yul\":4847:4852   */\n      dup2\n        /* \"#utility.yul\":4844:4879   */\n      eq\n        /* \"#utility.yul\":4834:4897   */\n      tag_172\n      jumpi\n        /* \"#utility.yul\":4893:4894   */\n      0x00\n        /* \"#utility.yul\":4890:4891   */\n      dup1\n        /* \"#utility.yul\":4883:4895   */\n      revert\n        /* \"#utility.yul\":4834:4897   */\n    tag_172:\n        /* \"#utility.yul\":4781:4903   */\n      pop\n      jump\t// out\n\n    auxdata: 0xa26469706673582212205ea090f55018c6e3f009da0a7f875c8f24251236bbc0a904bf7c2559f7ab56f864736f6c63430008070033\n}\n",
				"bytecode": {
					"linkReferences": {},
					"object": "60806040527fdf8b4c520ffe197c5343c6f5aec59570151ef9a492f2c624fd45ddde6135ec426001557fb39b9469ac3ddf8d58f06201f7e17350a277b429ed2a39727bf2f3a5165dba1a6002557fc951d7098b66ba0b8b77265b6e9cf0e187d73125a42bcd0061b09a68be42181060035534801561007c57600080fd5b506001600080600154815260200190815260200160002060000160006100a661015660201b60201c565b73ffffffffffffffffffffffffffffffffffffffff1673ffffffffffffffffffffffffffffffffffffffff16815260200190815260200160002060006101000a81548160ff02191690831515021790555060015460008060015481526020019081526020016000206001018190555060025460008060025481526020019081526020016000206001018190555060035460008060035481526020019081526020016000206001018190555061015e565b600033905090565b610ac18061016d6000396000f3fe608060405234801561001057600080fd5b506004361061007d5760003560e01c80638bb9c5bf1161005b5780638bb9c5bf146100ea57806391d1485414610106578063baaf412314610136578063d547741f146101525761007d565b80632f2ff15d146100825780634bca15fa1461009e57806367cf635f146100ba575b600080fd5b61009c60048036038101906100979190610893565b61016e565b005b6100b860048036038101906100b39190610866565b6102f2565b005b6100d460048036038101906100cf9190610866565b6103ac565b6040516100e19190610952565b60405180910390f35b61010460048036038101906100ff9190610866565b6103cb565b005b610120600480360381019061011b9190610893565b6104fc565b60405161012d9190610937565b60405180910390f35b610150600480360381019061014b9190610866565b6105b6565b005b61016c60048036038101906101679190610893565b6106c6565b005b816000801b61017c826103ac565b14156101bd576040517f08c379a00000000000000000000000000000000000000000000000000000000081526004016101b49061098d565b60405180910390fd5b6001546101d1816101cc610834565b6104fc565b610210576040517f08c379a00000000000000000000000000000000000000000000000000000000081526004016102079061096d565b60405180910390fd5b61021a84846104fc565b6102ec57600160008086815260200190815260200160002060000160008573ffffffffffffffffffffffffffffffffffffffff1673ffffffffffffffffffffffffffffffffffffffff16815260200190815260200160002060006101000a81548160ff021916908315150217905550610291610834565b73ffffffffffffffffffffffffffffffffffffffff168373ffffffffffffffffffffffffffffffffffffffff16857f2f8788117e7eff1d82e926ec794901d17c78024a50270940304540a733656f0d60405160405180910390a45b50505050565b60015461030681610301610834565b6104fc565b610345576040517f08c379a000000000000000000000000000000000000000000000000000000000815260040161033c9061096d565b60405180910390fd5b6000801b610352836103ac565b1461035c57600080fd5b8160008084815260200190815260200160002060010181905550816000801b837fbd79b86ffe0ab8e8776151514217cd7cacd52c909f66475c3af44e129f0b00ff60405160405180910390a45050565b6000806000838152602001908152602001600020600101549050919050565b6103d4816103ac565b6103e5816103e0610834565b6104fc565b610424576040517f08c379a000000000000000000000000000000000000000000000000000000000815260040161041b9061096d565b60405180910390fd5b61043582610430610834565b6104fc565b156104f8576000806000848152602001908152602001600020600001600061045b610834565b73ffffffffffffffffffffffffffffffffffffffff1673ffffffffffffffffffffffffffffffffffffffff16815260200190815260200160002060006101000a81548160ff0219169083151502179055506104b4610834565b73ffffffffffffffffffffffffffffffffffffffff16827f155aaafb6329a2098580462df33ec4b7441b19729b9601c5fc17ae1cf99a8a5260405160405180910390a35b5050565b6000826000801b61050c826103ac565b141561054d576040517f08c379a00000000000000000000000000000000000000000000000000000000081526004016105449061098d565b60405180910390fd5b60008085815260200190815260200160002060000160008473ffffffffffffffffffffffffffffffffffffffff1673ffffffffffffffffffffffffffffffffffffffff16815260200190815260200160002060009054906101000a900460ff1691505092915050565b806000801b6105c4826103ac565b1415610605576040517f08c379a00000000000000000000000000000000000000000000000000000000081526004016105fc9061098d565b60405180910390fd5b60015461061981610614610834565b6104fc565b610658576040517f08c379a000000000000000000000000000000000000000000000000000000000815260040161064f9061096d565b60405180910390fd5b60015483141561066757600080fd5b6000610672846103ac565b90506000801b600080868152602001908152602001600020600101819055508381857fbd79b86ffe0ab8e8776151514217cd7cacd52c909f66475c3af44e129f0b00ff60405160405180910390a450505050565b816000801b6106d4826103ac565b1415610715576040517f08c379a000000000000000000000000000000000000000000000000000000000815260040161070c9061098d565b60405180910390fd5b60015461072981610724610834565b6104fc565b610768576040517f08c379a000000000000000000000000000000000000000000000000000000000815260040161075f9061096d565b60405180910390fd5b61077284846104fc565b1561082e57600080600086815260200190815260200160002060000160008573ffffffffffffffffffffffffffffffffffffffff1673ffffffffffffffffffffffffffffffffffffffff16815260200190815260200160002060006101000a81548160ff0219169083151502179055506107ea610834565b73ffffffffffffffffffffffffffffffffffffffff16847f155aaafb6329a2098580462df33ec4b7441b19729b9601c5fc17ae1cf99a8a5260405160405180910390a35b50505050565b600033905090565b60008135905061084b81610a5d565b92915050565b60008135905061086081610a74565b92915050565b60006020828403121561087c5761087b610a06565b5b600061088a84828501610851565b91505092915050565b600080604083850312156108aa576108a9610a06565b5b60006108b885828601610851565b92505060206108c98582860161083c565b9150509250929050565b6108dc816109d0565b82525050565b6108eb816109dc565b82525050565b60006108fe6013836109ad565b915061090982610a0b565b602082019050919050565b60006109216012836109ad565b915061092c82610a34565b602082019050919050565b600060208201905061094c60008301846108d3565b92915050565b600060208201905061096760008301846108e2565b92915050565b60006020820190508181036000830152610986816108f1565b9050919050565b600060208201905081810360008301526109a681610914565b9050919050565b600082825260208201905092915050565b60006109c9826109e6565b9050919050565b60008115159050919050565b6000819050919050565b600073ffffffffffffffffffffffffffffffffffffffff82169050919050565b600080fd5b7f596f7520617265206e6f7420616c6c6f77656400000000000000000000000000600082015250565b7f526f6c652069736e277420657869737465640000000000000000000000000000600082015250565b610a66816109be565b8114610a7157600080fd5b50565b610a7d816109dc565b8114610a8857600080fd5b5056fea26469706673582212205ea090f55018c6e3f009da0a7f875c8f24251236bbc0a904bf7c2559f7ab56f864736f6c63430008070033",
					"opcodes": "PUSH1 0x80 PUSH1 0x40 MSTORE PUSH32 0xDF8B4C520FFE197C5343C6F5AEC59570151EF9A492F2C624FD45DDDE6135EC42 PUSH1 0x1 SSTORE PUSH32 0xB39B9469AC3DDF8D58F06201F7E17350A277B429ED2A39727BF2F3A5165DBA1A PUSH1 0x2 SSTORE PUSH32 0xC951D7098B66BA0B8B77265B6E9CF0E187D73125A42BCD0061B09A68BE421810 PUSH1 0x3 SSTORE CALLVALUE DUP1 ISZERO PUSH2 0x7C JUMPI PUSH1 0x0 DUP1 REVERT JUMPDEST POP PUSH1 0x1 PUSH1 0x0 DUP1 PUSH1 0x1 SLOAD DUP2 MSTORE PUSH1 0x20 ADD SWAP1 DUP2 MSTORE PUSH1 0x20 ADD PUSH1 0x0 KECCAK256 PUSH1 0x0 ADD PUSH1 0x0 PUSH2 0xA6 PUSH2 0x156 PUSH1 0x20 SHL PUSH1 0x20 SHR JUMP JUMPDEST PUSH20 0xFFFFFFFFFFFFFFFFFFFFFFFFFFFFFFFFFFFFFFFF AND PUSH20 0xFFFFFFFFFFFFFFFFFFFFFFFFFFFFFFFFFFFFFFFF AND DUP2 MSTORE PUSH1 0x20 ADD SWAP1 DUP2 MSTORE PUSH1 0x20 ADD PUSH1 0x0 KECCAK256 PUSH1 0x0 PUSH2 0x100 EXP DUP2 SLOAD DUP2 PUSH1 0xFF MUL NOT AND SWAP1 DUP4 ISZERO ISZERO MUL OR SWAP1 SSTORE POP PUSH1 0x1 SLOAD PUSH1 0x0 DUP1 PUSH1 0x1 SLOAD DUP2 MSTORE PUSH1 0x20 ADD SWAP1 DUP2 MSTORE PUSH1 0x20 ADD PUSH1 0x0 KECCAK256 PUSH1 0x1 ADD DUP2 SWAP1 SSTORE POP PUSH1 0x2 SLOAD PUSH1 0x0 DUP1 PUSH1 0x2 SLOAD DUP2 MSTORE PUSH1 0x20 ADD SWAP1 DUP2 MSTORE PUSH1 0x20 ADD PUSH1 0x0 KECCAK256 PUSH1 0x1 ADD DUP2 SWAP1 SSTORE POP PUSH1 0x3 SLOAD PUSH1 0x0 DUP1 PUSH1 0x3 SLOAD DUP2 MSTORE PUSH1 0x20 ADD SWAP1 DUP2 MSTORE PUSH1 0x20 ADD PUSH1 0x0 KECCAK256 PUSH1 0x1 ADD DUP2 SWAP1 SSTORE POP PUSH2 0x15E JUMP JUMPDEST PUSH1 0x0 CALLER SWAP1 POP SWAP1 JUMP JUMPDEST PUSH2 0xAC1 DUP1 PUSH2 0x16D PUSH1 0x0 CODECOPY PUSH1 0x0 RETURN INVALID PUSH1 0x80 PUSH1 0x40 MSTORE CALLVALUE DUP1 ISZERO PUSH2 0x10 JUMPI PUSH1 0x0 DUP1 REVERT JUMPDEST POP PUSH1 0x4 CALLDATASIZE LT PUSH2 0x7D JUMPI PUSH1 0x0 CALLDATALOAD PUSH1 0xE0 SHR DUP1 PUSH4 0x8BB9C5BF GT PUSH2 0x5B JUMPI DUP1 PUSH4 0x8BB9C5BF EQ PUSH2 0xEA JUMPI DUP1 PUSH4 0x91D14854 EQ PUSH2 0x106 JUMPI DUP1 PUSH4 0xBAAF4123 EQ PUSH2 0x136 JUMPI DUP1 PUSH4 0xD547741F EQ PUSH2 0x152 JUMPI PUSH2 0x7D JUMP JUMPDEST DUP1 PUSH4 0x2F2FF15D EQ PUSH2 0x82 JUMPI DUP1 PUSH4 0x4BCA15FA EQ PUSH2 0x9E JUMPI DUP1 PUSH4 0x67CF635F EQ PUSH2 0xBA JUMPI JUMPDEST PUSH1 0x0 DUP1 REVERT JUMPDEST PUSH2 0x9C PUSH1 0x4 DUP1 CALLDATASIZE SUB DUP2 ADD SWAP1 PUSH2 0x97 SWAP2 SWAP1 PUSH2 0x893 JUMP JUMPDEST PUSH2 0x16E JUMP JUMPDEST STOP JUMPDEST PUSH2 0xB8 PUSH1 0x4 DUP1 CALLDATASIZE SUB DUP2 ADD SWAP1 PUSH2 0xB3 SWAP2 SWAP1 PUSH2 0x866 JUMP JUMPDEST PUSH2 0x2F2 JUMP JUMPDEST STOP JUMPDEST PUSH2 0xD4 PUSH1 0x4 DUP1 CALLDATASIZE SUB DUP2 ADD SWAP1 PUSH2 0xCF SWAP2 SWAP1 PUSH2 0x866 JUMP JUMPDEST PUSH2 0x3AC JUMP JUMPDEST PUSH1 0x40 MLOAD PUSH2 0xE1 SWAP2 SWAP1 PUSH2 0x952 JUMP JUMPDEST PUSH1 0x40 MLOAD DUP1 SWAP2 SUB SWAP1 RETURN JUMPDEST PUSH2 0x104 PUSH1 0x4 DUP1 CALLDATASIZE SUB DUP2 ADD SWAP1 PUSH2 0xFF SWAP2 SWAP1 PUSH2 0x866 JUMP JUMPDEST PUSH2 0x3CB JUMP JUMPDEST STOP JUMPDEST PUSH2 0x120 PUSH1 0x4 DUP1 CALLDATASIZE SUB DUP2 ADD SWAP1 PUSH2 0x11B SWAP2 SWAP1 PUSH2 0x893 JUMP JUMPDEST PUSH2 0x4FC JUMP JUMPDEST PUSH1 0x40 MLOAD PUSH2 0x12D SWAP2 SWAP1 PUSH2 0x937 JUMP JUMPDEST PUSH1 0x40 MLOAD DUP1 SWAP2 SUB SWAP1 RETURN JUMPDEST PUSH2 0x150 PUSH1 0x4 DUP1 CALLDATASIZE SUB DUP2 ADD SWAP1 PUSH2 0x14B SWAP2 SWAP1 PUSH2 0x866 JUMP JUMPDEST PUSH2 0x5B6 JUMP JUMPDEST STOP JUMPDEST PUSH2 0x16C PUSH1 0x4 DUP1 CALLDATASIZE SUB DUP2 ADD SWAP1 PUSH2 0x167 SWAP2 SWAP1 PUSH2 0x893 JUMP JUMPDEST PUSH2 0x6C6 JUMP JUMPDEST STOP JUMPDEST DUP2 PUSH1 0x0 DUP1 SHL PUSH2 0x17C DUP3 PUSH2 0x3AC JUMP JUMPDEST EQ ISZERO PUSH2 0x1BD JUMPI PUSH1 0x40 MLOAD PUSH32 0x8C379A000000000000000000000000000000000000000000000000000000000 DUP2 MSTORE PUSH1 0x4 ADD PUSH2 0x1B4 SWAP1 PUSH2 0x98D JUMP JUMPDEST PUSH1 0x40 MLOAD DUP1 SWAP2 SUB SWAP1 REVERT JUMPDEST PUSH1 0x1 SLOAD PUSH2 0x1D1 DUP2 PUSH2 0x1CC PUSH2 0x834 JUMP JUMPDEST PUSH2 0x4FC JUMP JUMPDEST PUSH2 0x210 JUMPI PUSH1 0x40 MLOAD PUSH32 0x8C379A000000000000000000000000000000000000000000000000000000000 DUP2 MSTORE PUSH1 0x4 ADD PUSH2 0x207 SWAP1 PUSH2 0x96D JUMP JUMPDEST PUSH1 0x40 MLOAD DUP1 SWAP2 SUB SWAP1 REVERT JUMPDEST PUSH2 0x21A DUP5 DUP5 PUSH2 0x4FC JUMP JUMPDEST PUSH2 0x2EC JUMPI PUSH1 0x1 PUSH1 0x0 DUP1 DUP7 DUP2 MSTORE PUSH1 0x20 ADD SWAP1 DUP2 MSTORE PUSH1 0x20 ADD PUSH1 0x0 KECCAK256 PUSH1 0x0 ADD PUSH1 0x0 DUP6 PUSH20 0xFFFFFFFFFFFFFFFFFFFFFFFFFFFFFFFFFFFFFFFF AND PUSH20 0xFFFFFFFFFFFFFFFFFFFFFFFFFFFFFFFFFFFFFFFF AND DUP2 MSTORE PUSH1 0x20 ADD SWAP1 DUP2 MSTORE PUSH1 0x20 ADD PUSH1 0x0 KECCAK256 PUSH1 0x0 PUSH2 0x100 EXP DUP2 SLOAD DUP2 PUSH1 0xFF MUL NOT AND SWAP1 DUP4 ISZERO ISZERO MUL OR SWAP1 SSTORE POP PUSH2 0x291 PUSH2 0x834 JUMP JUMPDEST PUSH20 0xFFFFFFFFFFFFFFFFFFFFFFFFFFFFFFFFFFFFFFFF AND DUP4 PUSH20 0xFFFFFFFFFFFFFFFFFFFFFFFFFFFFFFFFFFFFFFFF AND DUP6 PUSH32 0x2F8788117E7EFF1D82E926EC794901D17C78024A50270940304540A733656F0D PUSH1 0x40 MLOAD PUSH1 0x40 MLOAD DUP1 SWAP2 SUB SWAP1 LOG4 JUMPDEST POP POP POP POP JUMP JUMPDEST PUSH1 0x1 SLOAD PUSH2 0x306 DUP2 PUSH2 0x301 PUSH2 0x834 JUMP JUMPDEST PUSH2 0x4FC JUMP JUMPDEST PUSH2 0x345 JUMPI PUSH1 0x40 MLOAD PUSH32 0x8C379A000000000000000000000000000000000000000000000000000000000 DUP2 MSTORE PUSH1 0x4 ADD PUSH2 0x33C SWAP1 PUSH2 0x96D JUMP JUMPDEST PUSH1 0x40 MLOAD DUP1 SWAP2 SUB SWAP1 REVERT JUMPDEST PUSH1 0x0 DUP1 SHL PUSH2 0x352 DUP4 PUSH2 0x3AC JUMP JUMPDEST EQ PUSH2 0x35C JUMPI PUSH1 0x0 DUP1 REVERT JUMPDEST DUP2 PUSH1 0x0 DUP1 DUP5 DUP2 MSTORE PUSH1 0x20 ADD SWAP1 DUP2 MSTORE PUSH1 0x20 ADD PUSH1 0x0 KECCAK256 PUSH1 0x1 ADD DUP2 SWAP1 SSTORE POP DUP2 PUSH1 0x0 DUP1 SHL DUP4 PUSH32 0xBD79B86FFE0AB8E8776151514217CD7CACD52C909F66475C3AF44E129F0B00FF PUSH1 0x40 MLOAD PUSH1 0x40 MLOAD DUP1 SWAP2 SUB SWAP1 LOG4 POP POP JUMP JUMPDEST PUSH1 0x0 DUP1 PUSH1 0x0 DUP4 DUP2 MSTORE PUSH1 0x20 ADD SWAP1 DUP2 MSTORE PUSH1 0x20 ADD PUSH1 0x0 KECCAK256 PUSH1 0x1 ADD SLOAD SWAP1 POP SWAP2 SWAP1 POP JUMP JUMPDEST PUSH2 0x3D4 DUP2 PUSH2 0x3AC JUMP JUMPDEST PUSH2 0x3E5 DUP2 PUSH2 0x3E0 PUSH2 0x834 JUMP JUMPDEST PUSH2 0x4FC JUMP JUMPDEST PUSH2 0x424 JUMPI PUSH1 0x40 MLOAD PUSH32 0x8C379A000000000000000000000000000000000000000000000000000000000 DUP2 MSTORE PUSH1 0x4 ADD PUSH2 0x41B SWAP1 PUSH2 0x96D JUMP JUMPDEST PUSH1 0x40 MLOAD DUP1 SWAP2 SUB SWAP1 REVERT JUMPDEST PUSH2 0x435 DUP3 PUSH2 0x430 PUSH2 0x834 JUMP JUMPDEST PUSH2 0x4FC JUMP JUMPDEST ISZERO PUSH2 0x4F8 JUMPI PUSH1 0x0 DUP1 PUSH1 0x0 DUP5 DUP2 MSTORE PUSH1 0x20 ADD SWAP1 DUP2 MSTORE PUSH1 0x20 ADD PUSH1 0x0 KECCAK256 PUSH1 0x0 ADD PUSH1 0x0 PUSH2 0x45B PUSH2 0x834 JUMP JUMPDEST PUSH20 0xFFFFFFFFFFFFFFFFFFFFFFFFFFFFFFFFFFFFFFFF AND PUSH20 0xFFFFFFFFFFFFFFFFFFFFFFFFFFFFFFFFFFFFFFFF AND DUP2 MSTORE PUSH1 0x20 ADD SWAP1 DUP2 MSTORE PUSH1 0x20 ADD PUSH1 0x0 KECCAK256 PUSH1 0x0 PUSH2 0x100 EXP DUP2 SLOAD DUP2 PUSH1 0xFF MUL NOT AND SWAP1 DUP4 ISZERO ISZERO MUL OR SWAP1 SSTORE POP PUSH2 0x4B4 PUSH2 0x834 JUMP JUMPDEST PUSH20 0xFFFFFFFFFFFFFFFFFFFFFFFFFFFFFFFFFFFFFFFF AND DUP3 PUSH32 0x155AAAFB6329A2098580462DF33EC4B7441B19729B9601C5FC17AE1CF99A8A52 PUSH1 0x40 MLOAD PUSH1 0x40 MLOAD DUP1 SWAP2 SUB SWAP1 LOG3 JUMPDEST POP POP JUMP JUMPDEST PUSH1 0x0 DUP3 PUSH1 0x0 DUP1 SHL PUSH2 0x50C DUP3 PUSH2 0x3AC JUMP JUMPDEST EQ ISZERO PUSH2 0x54D JUMPI PUSH1 0x40 MLOAD PUSH32 0x8C379A000000000000000000000000000000000000000000000000000000000 DUP2 MSTORE PUSH1 0x4 ADD PUSH2 0x544 SWAP1 PUSH2 0x98D JUMP JUMPDEST PUSH1 0x40 MLOAD DUP1 SWAP2 SUB SWAP1 REVERT JUMPDEST PUSH1 0x0 DUP1 DUP6 DUP2 MSTORE PUSH1 0x20 ADD SWAP1 DUP2 MSTORE PUSH1 0x20 ADD PUSH1 0x0 KECCAK256 PUSH1 0x0 ADD PUSH1 0x0 DUP5 PUSH20 0xFFFFFFFFFFFFFFFFFFFFFFFFFFFFFFFFFFFFFFFF AND PUSH20 0xFFFFFFFFFFFFFFFFFFFFFFFFFFFFFFFFFFFFFFFF AND DUP2 MSTORE PUSH1 0x20 ADD SWAP1 DUP2 MSTORE PUSH1 0x20 ADD PUSH1 0x0 KECCAK256 PUSH1 0x0 SWAP1 SLOAD SWAP1 PUSH2 0x100 EXP SWAP1 DIV PUSH1 0xFF AND SWAP2 POP POP SWAP3 SWAP2 POP POP JUMP JUMPDEST DUP1 PUSH1 0x0 DUP1 SHL PUSH2 0x5C4 DUP3 PUSH2 0x3AC JUMP JUMPDEST EQ ISZERO PUSH2 0x605 JUMPI PUSH1 0x40 MLOAD PUSH32 0x8C379A000000000000000000000000000000000000000000000000000000000 DUP2 MSTORE PUSH1 0x4 ADD PUSH2 0x5FC SWAP1 PUSH2 0x98D JUMP JUMPDEST PUSH1 0x40 MLOAD DUP1 SWAP2 SUB SWAP1 REVERT JUMPDEST PUSH1 0x1 SLOAD PUSH2 0x619 DUP2 PUSH2 0x614 PUSH2 0x834 JUMP JUMPDEST PUSH2 0x4FC JUMP JUMPDEST PUSH2 0x658 JUMPI PUSH1 0x40 MLOAD PUSH32 0x8C379A000000000000000000000000000000000000000000000000000000000 DUP2 MSTORE PUSH1 0x4 ADD PUSH2 0x64F SWAP1 PUSH2 0x96D JUMP JUMPDEST PUSH1 0x40 MLOAD DUP1 SWAP2 SUB SWAP1 REVERT JUMPDEST PUSH1 0x1 SLOAD DUP4 EQ ISZERO PUSH2 0x667 JUMPI PUSH1 0x0 DUP1 REVERT JUMPDEST PUSH1 0x0 PUSH2 0x672 DUP5 PUSH2 0x3AC JUMP JUMPDEST SWAP1 POP PUSH1 0x0 DUP1 SHL PUSH1 0x0 DUP1 DUP7 DUP2 MSTORE PUSH1 0x20 ADD SWAP1 DUP2 MSTORE PUSH1 0x20 ADD PUSH1 0x0 KECCAK256 PUSH1 0x1 ADD DUP2 SWAP1 SSTORE POP DUP4 DUP2 DUP6 PUSH32 0xBD79B86FFE0AB8E8776151514217CD7CACD52C909F66475C3AF44E129F0B00FF PUSH1 0x40 MLOAD PUSH1 0x40 MLOAD DUP1 SWAP2 SUB SWAP1 LOG4 POP POP POP POP JUMP JUMPDEST DUP2 PUSH1 0x0 DUP1 SHL PUSH2 0x6D4 DUP3 PUSH2 0x3AC JUMP JUMPDEST EQ ISZERO PUSH2 0x715 JUMPI PUSH1 0x40 MLOAD PUSH32 0x8C379A000000000000000000000000000000000000000000000000000000000 DUP2 MSTORE PUSH1 0x4 ADD PUSH2 0x70C SWAP1 PUSH2 0x98D JUMP JUMPDEST PUSH1 0x40 MLOAD DUP1 SWAP2 SUB SWAP1 REVERT JUMPDEST PUSH1 0x1 SLOAD PUSH2 0x729 DUP2 PUSH2 0x724 PUSH2 0x834 JUMP JUMPDEST PUSH2 0x4FC JUMP JUMPDEST PUSH2 0x768 JUMPI PUSH1 0x40 MLOAD PUSH32 0x8C379A000000000000000000000000000000000000000000000000000000000 DUP2 MSTORE PUSH1 0x4 ADD PUSH2 0x75F SWAP1 PUSH2 0x96D JUMP JUMPDEST PUSH1 0x40 MLOAD DUP1 SWAP2 SUB SWAP1 REVERT JUMPDEST PUSH2 0x772 DUP5 DUP5 PUSH2 0x4FC JUMP JUMPDEST ISZERO PUSH2 0x82E JUMPI PUSH1 0x0 DUP1 PUSH1 0x0 DUP7 DUP2 MSTORE PUSH1 0x20 ADD SWAP1 DUP2 MSTORE PUSH1 0x20 ADD PUSH1 0x0 KECCAK256 PUSH1 0x0 ADD PUSH1 0x0 DUP6 PUSH20 0xFFFFFFFFFFFFFFFFFFFFFFFFFFFFFFFFFFFFFFFF AND PUSH20 0xFFFFFFFFFFFFFFFFFFFFFFFFFFFFFFFFFFFFFFFF AND DUP2 MSTORE PUSH1 0x20 ADD SWAP1 DUP2 MSTORE PUSH1 0x20 ADD PUSH1 0x0 KECCAK256 PUSH1 0x0 PUSH2 0x100 EXP DUP2 SLOAD DUP2 PUSH1 0xFF MUL NOT AND SWAP1 DUP4 ISZERO ISZERO MUL OR SWAP1 SSTORE POP PUSH2 0x7EA PUSH2 0x834 JUMP JUMPDEST PUSH20 0xFFFFFFFFFFFFFFFFFFFFFFFFFFFFFFFFFFFFFFFF AND DUP5 PUSH32 0x155AAAFB6329A2098580462DF33EC4B7441B19729B9601C5FC17AE1CF99A8A52 PUSH1 0x40 MLOAD PUSH1 0x40 MLOAD DUP1 SWAP2 SUB SWAP1 LOG3 JUMPDEST POP POP POP POP JUMP JUMPDEST PUSH1 0x0 CALLER SWAP1 POP SWAP1 JUMP JUMPDEST PUSH1 0x0 DUP2 CALLDATALOAD SWAP1 POP PUSH2 0x84B DUP2 PUSH2 0xA5D JUMP JUMPDEST SWAP3 SWAP2 POP POP JUMP JUMPDEST PUSH1 0x0 DUP2 CALLDATALOAD SWAP1 POP PUSH2 0x860 DUP2 PUSH2 0xA74 JUMP JUMPDEST SWAP3 SWAP2 POP POP JUMP JUMPDEST PUSH1 0x0 PUSH1 0x20 DUP3 DUP5 SUB SLT ISZERO PUSH2 0x87C JUMPI PUSH2 0x87B PUSH2 0xA06 JUMP JUMPDEST JUMPDEST PUSH1 0x0 PUSH2 0x88A DUP5 DUP3 DUP6 ADD PUSH2 0x851 JUMP JUMPDEST SWAP2 POP POP SWAP3 SWAP2 POP POP JUMP JUMPDEST PUSH1 0x0 DUP1 PUSH1 0x40 DUP4 DUP6 SUB SLT ISZERO PUSH2 0x8AA JUMPI PUSH2 0x8A9 PUSH2 0xA06 JUMP JUMPDEST JUMPDEST PUSH1 0x0 PUSH2 0x8B8 DUP6 DUP3 DUP7 ADD PUSH2 0x851 JUMP JUMPDEST SWAP3 POP POP PUSH1 0x20 PUSH2 0x8C9 DUP6 DUP3 DUP7 ADD PUSH2 0x83C JUMP JUMPDEST SWAP2 POP POP SWAP3 POP SWAP3 SWAP1 POP JUMP JUMPDEST PUSH2 0x8DC DUP2 PUSH2 0x9D0 JUMP JUMPDEST DUP3 MSTORE POP POP JUMP JUMPDEST PUSH2 0x8EB DUP2 PUSH2 0x9DC JUMP JUMPDEST DUP3 MSTORE POP POP JUMP JUMPDEST PUSH1 0x0 PUSH2 0x8FE PUSH1 0x13 DUP4 PUSH2 0x9AD JUMP JUMPDEST SWAP2 POP PUSH2 0x909 DUP3 PUSH2 0xA0B JUMP JUMPDEST PUSH1 0x20 DUP3 ADD SWAP1 POP SWAP2 SWAP1 POP JUMP JUMPDEST PUSH1 0x0 PUSH2 0x921 PUSH1 0x12 DUP4 PUSH2 0x9AD JUMP JUMPDEST SWAP2 POP PUSH2 0x92C DUP3 PUSH2 0xA34 JUMP JUMPDEST PUSH1 0x20 DUP3 ADD SWAP1 POP SWAP2 SWAP1 POP JUMP JUMPDEST PUSH1 0x0 PUSH1 0x20 DUP3 ADD SWAP1 POP PUSH2 0x94C PUSH1 0x0 DUP4 ADD DUP5 PUSH2 0x8D3 JUMP JUMPDEST SWAP3 SWAP2 POP POP JUMP JUMPDEST PUSH1 0x0 PUSH1 0x20 DUP3 ADD SWAP1 POP PUSH2 0x967 PUSH1 0x0 DUP4 ADD DUP5 PUSH2 0x8E2 JUMP JUMPDEST SWAP3 SWAP2 POP POP JUMP JUMPDEST PUSH1 0x0 PUSH1 0x20 DUP3 ADD SWAP1 POP DUP2 DUP2 SUB PUSH1 0x0 DUP4 ADD MSTORE PUSH2 0x986 DUP2 PUSH2 0x8F1 JUMP JUMPDEST SWAP1 POP SWAP2 SWAP1 POP JUMP JUMPDEST PUSH1 0x0 PUSH1 0x20 DUP3 ADD SWAP1 POP DUP2 DUP2 SUB PUSH1 0x0 DUP4 ADD MSTORE PUSH2 0x9A6 DUP2 PUSH2 0x914 JUMP JUMPDEST SWAP1 POP SWAP2 SWAP1 POP JUMP JUMPDEST PUSH1 0x0 DUP3 DUP3 MSTORE PUSH1 0x20 DUP3 ADD SWAP1 POP SWAP3 SWAP2 POP POP JUMP JUMPDEST PUSH1 0x0 PUSH2 0x9C9 DUP3 PUSH2 0x9E6 JUMP JUMPDEST SWAP1 POP SWAP2 SWAP1 POP JUMP JUMPDEST PUSH1 0x0 DUP2 ISZERO ISZERO SWAP1 POP SWAP2 SWAP1 POP JUMP JUMPDEST PUSH1 0x0 DUP2 SWAP1 POP SWAP2 SWAP1 POP JUMP JUMPDEST PUSH1 0x0 PUSH20 0xFFFFFFFFFFFFFFFFFFFFFFFFFFFFFFFFFFFFFFFF DUP3 AND SWAP1 POP SWAP2 SWAP1 POP JUMP JUMPDEST PUSH1 0x0 DUP1 REVERT JUMPDEST PUSH32 0x596F7520617265206E6F7420616C6C6F77656400000000000000000000000000 PUSH1 0x0 DUP3 ADD MSTORE POP JUMP JUMPDEST PUSH32 0x526F6C652069736E277420657869737465640000000000000000000000000000 PUSH1 0x0 DUP3 ADD MSTORE POP JUMP JUMPDEST PUSH2 0xA66 DUP2 PUSH2 0x9BE JUMP JUMPDEST DUP2 EQ PUSH2 0xA71 JUMPI PUSH1 0x0 DUP1 REVERT JUMPDEST POP JUMP JUMPDEST PUSH2 0xA7D DUP2 PUSH2 0x9DC JUMP JUMPDEST DUP2 EQ PUSH2 0xA88 JUMPI PUSH1 0x0 DUP1 REVERT JUMPDEST POP JUMP INVALID LOG2 PUSH5 0x6970667358 0x22 SLT KECCAK256 0x5E LOG0 SWAP1 CREATE2 POP XOR 0xC6 0xE3 CREATE MULMOD 0xDA EXP PUSH32 0x875C8F24251236BBC0A904BF7C2559F7AB56F864736F6C634300080700330000 "
				},
				"gasEstimates": {
					"creation": {
						"codeDepositCost": "550600",
						"executionCost": "infinite",
						"totalCost": "infinite"
					},
					"external": {
						"addNewRoleAdmin(bytes32)": "infinite",
						"getRoleExist(bytes32)": "infinite",
						"grantRole(bytes32,address)": "infinite",
						"hasRole(bytes32,address)": "5426",
						"removeNewRoleAdmin(bytes32)": "infinite",
						"renounceRole(bytes32)": "infinite",
						"revokeRole(bytes32,address)": "infinite"
					}
				},
				"methodIdentifiers": {
					"addNewRoleAdmin(bytes32)": "4bca15fa",
					"getRoleExist(bytes32)": "67cf635f",
					"grantRole(bytes32,address)": "2f2ff15d",
					"hasRole(bytes32,address)": "91d14854",
					"removeNewRoleAdmin(bytes32)": "baaf4123",
					"renounceRole(bytes32)": "8bb9c5bf",
					"revokeRole(bytes32,address)": "d547741f"
				}
			},
			"userdoc": {
				"kind": "user",
				"methods": {},
				"version": 1
			}
		}
	}
}