{
	"contracts/studentmanager/TuitionContract.sol": {
		"TuitionContract": {
			"abi": [
				{
					"inputs": [
						{
							"internalType": "address",
							"name": "_owner",
							"type": "address"
						},
						{
							"internalType": "address",
							"name": "_accessControll",
							"type": "address"
						},
						{
							"internalType": "address",
							"name": "_rewardDistributor",
							"type": "address"
						}
					],
					"stateMutability": "nonpayable",
					"type": "constructor"
				},
				{
					"anonymous": false,
					"inputs": [
						{
							"indexed": false,
							"internalType": "uint256",
							"name": "timestamp",
							"type": "uint256"
						}
					],
					"name": "Close",
					"type": "event"
				},
				{
					"anonymous": false,
					"inputs": [
						{
							"indexed": true,
							"internalType": "uint256",
							"name": "id",
							"type": "uint256"
						}
					],
					"name": "CreatedNewTuition",
					"type": "event"
				},
				{
					"anonymous": false,
					"inputs": [
						{
							"indexed": false,
							"internalType": "address",
							"name": "student",
							"type": "address"
						},
						{
							"indexed": false,
							"internalType": "uint256",
							"name": "timestamp",
							"type": "uint256"
						},
						{
							"indexed": false,
							"internalType": "enum ITuitionContract.PaymentMethod",
							"name": "_method",
							"type": "uint8"
						}
					],
					"name": "Payment",
					"type": "event"
				},
				{
					"inputs": [],
					"name": "UITToken",
					"outputs": [
						{
							"internalType": "address",
							"name": "",
							"type": "address"
						}
					],
					"stateMutability": "view",
					"type": "function"
				},
				{
					"inputs": [],
					"name": "accessControll",
					"outputs": [
						{
							"internalType": "contract IAccessControl",
							"name": "",
							"type": "address"
						}
					],
					"stateMutability": "view",
					"type": "function"
				},
				{
					"inputs": [
						{
							"internalType": "address[]",
							"name": "_students",
							"type": "address[]"
						}
					],
					"name": "addStudentToTuition",
					"outputs": [],
					"stateMutability": "nonpayable",
					"type": "function"
				},
				{
					"inputs": [],
					"name": "amount",
					"outputs": [
						{
							"internalType": "uint256",
							"name": "",
							"type": "uint256"
						}
					],
					"stateMutability": "view",
					"type": "function"
				},
				{
					"inputs": [],
					"name": "close",
					"outputs": [],
					"stateMutability": "nonpayable",
					"type": "function"
				},
				{
					"inputs": [
						{
							"internalType": "address",
							"name": "",
							"type": "address"
						}
					],
					"name": "completedAddress",
					"outputs": [
						{
							"internalType": "bool",
							"name": "",
							"type": "bool"
						}
					],
					"stateMutability": "view",
					"type": "function"
				},
				{
					"inputs": [],
					"name": "getParticipantList",
					"outputs": [
						{
							"internalType": "address[]",
							"name": "",
							"type": "address[]"
						}
					],
					"stateMutability": "view",
					"type": "function"
				},
				{
					"inputs": [],
					"name": "getParticipantListCompleted",
					"outputs": [
						{
							"internalType": "address[]",
							"name": "",
							"type": "address[]"
						}
					],
					"stateMutability": "view",
					"type": "function"
				},
				{
					"inputs": [],
					"name": "owner",
					"outputs": [
						{
							"internalType": "address",
							"name": "",
							"type": "address"
						}
					],
					"stateMutability": "view",
					"type": "function"
				},
				{
					"inputs": [
						{
							"internalType": "address",
							"name": "",
							"type": "address"
						}
					],
					"name": "participantToIndex",
					"outputs": [
						{
							"internalType": "uint256",
							"name": "",
							"type": "uint256"
						}
					],
					"stateMutability": "view",
					"type": "function"
				},
				{
					"inputs": [
						{
							"internalType": "address",
							"name": "",
							"type": "address"
						}
					],
					"name": "participantToTrue",
					"outputs": [
						{
							"internalType": "bool",
							"name": "",
							"type": "bool"
						}
					],
					"stateMutability": "view",
					"type": "function"
				},
				{
					"inputs": [
						{
							"internalType": "uint256",
							"name": "",
							"type": "uint256"
						}
					],
					"name": "participants",
					"outputs": [
						{
							"internalType": "address",
							"name": "",
							"type": "address"
						}
					],
					"stateMutability": "view",
					"type": "function"
				},
				{
					"inputs": [
						{
							"internalType": "address",
							"name": "student",
							"type": "address"
						}
					],
					"name": "paymentByCurrency",
					"outputs": [],
					"stateMutability": "nonpayable",
					"type": "function"
				},
				{
					"inputs": [],
					"name": "paymentByToken",
					"outputs": [],
					"stateMutability": "nonpayable",
					"type": "function"
				},
				{
					"inputs": [
						{
							"internalType": "address",
							"name": "_student",
							"type": "address"
						}
					],
					"name": "removeStudentFromTuition",
					"outputs": [],
					"stateMutability": "nonpayable",
					"type": "function"
				},
				{
					"inputs": [],
					"name": "rewardDistributor",
					"outputs": [
						{
							"internalType": "address",
							"name": "",
							"type": "address"
						}
					],
					"stateMutability": "view",
					"type": "function"
				},
				{
					"inputs": [
						{
							"internalType": "uint256",
							"name": "_tuitionId",
							"type": "uint256"
						},
						{
							"internalType": "string",
							"name": "_urlMetadata",
							"type": "string"
						},
						{
							"internalType": "uint256",
							"name": "_feeByToken",
							"type": "uint256"
						},
						{
							"internalType": "uint256",
							"name": "_startTime",
							"type": "uint256"
						},
						{
							"internalType": "uint256",
							"name": "_endTime",
							"type": "uint256"
						}
					],
					"name": "setBasicForTuition",
					"outputs": [],
					"stateMutability": "nonpayable",
					"type": "function"
				},
				{
					"inputs": [],
					"name": "start",
					"outputs": [],
					"stateMutability": "nonpayable",
					"type": "function"
				},
				{
					"inputs": [],
					"name": "status",
					"outputs": [
						{
							"internalType": "enum ITuitionContract.Status",
							"name": "",
							"type": "uint8"
						}
					],
					"stateMutability": "view",
					"type": "function"
				},
				{
					"inputs": [],
					"name": "tuition",
					"outputs": [
						{
							"internalType": "uint256",
							"name": "Id",
							"type": "uint256"
						},
						{
							"internalType": "string",
							"name": "urlMetadata",
							"type": "string"
						},
						{
							"internalType": "uint256",
							"name": "feeByToken",
							"type": "uint256"
						},
						{
							"internalType": "uint256",
							"name": "startTime",
							"type": "uint256"
						},
						{
							"internalType": "uint256",
							"name": "endTime",
							"type": "uint256"
						}
					],
					"stateMutability": "view",
					"type": "function"
				}
			],
			"devdoc": {
				"kind": "dev",
				"methods": {},
				"version": 1
			},
			"evm": {
				"assembly": "    /* \"contracts/studentmanager/TuitionContract.sol\":157:5043  contract TuitionContract is ITuitionContract {\r... */\n  mstore(0x40, 0xa0)\n    /* \"contracts/studentmanager/TuitionContract.sol\":333:344  Status.Lock */\n  0x00\n    /* \"contracts/studentmanager/TuitionContract.sol\":310:344  Status public status = Status.Lock */\n  0x05\n  exp(0x0100, 0x00)\n  dup2\n  sload\n  dup2\n  0xff\n  mul\n  not\n  and\n  swap1\n  dup4\n  0x02\n  dup2\n  gt\n  iszero\n  tag_1\n  jumpi\n  tag_2\n  tag_3\n  jump\t// in\ntag_2:\ntag_1:\n  mul\n  or\n  swap1\n  sstore\n  pop\n    /* \"contracts/studentmanager/TuitionContract.sol\":1390:1646  constructor(\r... */\n  callvalue\n  dup1\n  iszero\n  tag_4\n  jumpi\n  0x00\n  dup1\n  revert\ntag_4:\n  pop\n  mload(0x40)\n  sub(codesize, bytecodeSize)\n  dup1\n  bytecodeSize\n  dup4\n  codecopy\n  dup2\n  dup2\n  add\n  0x40\n  mstore\n  dup2\n  add\n  swap1\n  tag_5\n  swap2\n  swap1\n  tag_6\n  jump\t// in\ntag_5:\n    /* \"contracts/studentmanager/TuitionContract.sol\":1524:1530  _owner */\n  dup3\n    /* \"contracts/studentmanager/TuitionContract.sol\":1516:1530  owner = _owner */\n  0xffffffffffffffffffffffffffffffffffffffff\n  and\n  0x80\n  dup2\n  0xffffffffffffffffffffffffffffffffffffffff\n  and\n  0x60\n  shl\n  dup2\n  mstore\n  pop\n  pop\n    /* \"contracts/studentmanager/TuitionContract.sol\":1573:1588  _accessControll */\n  dup2\n    /* \"contracts/studentmanager/TuitionContract.sol\":1541:1555  accessControll */\n  0x06\n  0x00\n    /* \"contracts/studentmanager/TuitionContract.sol\":1541:1589  accessControll = IAccessControl(_accessControll) */\n  0x0100\n  exp\n  dup2\n  sload\n  dup2\n  0xffffffffffffffffffffffffffffffffffffffff\n  mul\n  not\n  and\n  swap1\n  dup4\n  0xffffffffffffffffffffffffffffffffffffffff\n  and\n  mul\n  or\n  swap1\n  sstore\n  pop\n    /* \"contracts/studentmanager/TuitionContract.sol\":1620:1638  _rewardDistributor */\n  dup1\n    /* \"contracts/studentmanager/TuitionContract.sol\":1600:1617  rewardDistributor */\n  0x07\n  0x00\n    /* \"contracts/studentmanager/TuitionContract.sol\":1600:1638  rewardDistributor = _rewardDistributor */\n  0x0100\n  exp\n  dup2\n  sload\n  dup2\n  0xffffffffffffffffffffffffffffffffffffffff\n  mul\n  not\n  and\n  swap1\n  dup4\n  0xffffffffffffffffffffffffffffffffffffffff\n  and\n  mul\n  or\n  swap1\n  sstore\n  pop\n    /* \"contracts/studentmanager/TuitionContract.sol\":1390:1646  constructor(\r... */\n  pop\n  pop\n  pop\n    /* \"contracts/studentmanager/TuitionContract.sol\":157:5043  contract TuitionContract is ITuitionContract {\r... */\n  jump(tag_9)\n    /* \"#utility.yul\":7:150   */\ntag_11:\n    /* \"#utility.yul\":64:69   */\n  0x00\n    /* \"#utility.yul\":95:101   */\n  dup2\n    /* \"#utility.yul\":89:102   */\n  mload\n    /* \"#utility.yul\":80:102   */\n  swap1\n  pop\n    /* \"#utility.yul\":111:144   */\n  tag_13\n    /* \"#utility.yul\":138:143   */\n  dup2\n    /* \"#utility.yul\":111:144   */\n  tag_14\n  jump\t// in\ntag_13:\n    /* \"#utility.yul\":7:150   */\n  swap3\n  swap2\n  pop\n  pop\n  jump\t// out\n    /* \"#utility.yul\":156:819   */\ntag_6:\n    /* \"#utility.yul\":244:250   */\n  0x00\n    /* \"#utility.yul\":252:258   */\n  dup1\n    /* \"#utility.yul\":260:266   */\n  0x00\n    /* \"#utility.yul\":309:311   */\n  0x60\n    /* \"#utility.yul\":297:306   */\n  dup5\n    /* \"#utility.yul\":288:295   */\n  dup7\n    /* \"#utility.yul\":284:307   */\n  sub\n    /* \"#utility.yul\":280:312   */\n  slt\n    /* \"#utility.yul\":277:396   */\n  iszero\n  tag_16\n  jumpi\n    /* \"#utility.yul\":315:394   */\n  tag_17\n  tag_18\n  jump\t// in\ntag_17:\n    /* \"#utility.yul\":277:396   */\ntag_16:\n    /* \"#utility.yul\":435:436   */\n  0x00\n    /* \"#utility.yul\":460:524   */\n  tag_19\n    /* \"#utility.yul\":516:523   */\n  dup7\n    /* \"#utility.yul\":507:513   */\n  dup3\n    /* \"#utility.yul\":496:505   */\n  dup8\n    /* \"#utility.yul\":492:514   */\n  add\n    /* \"#utility.yul\":460:524   */\n  tag_11\n  jump\t// in\ntag_19:\n    /* \"#utility.yul\":450:524   */\n  swap4\n  pop\n    /* \"#utility.yul\":406:534   */\n  pop\n    /* \"#utility.yul\":573:575   */\n  0x20\n    /* \"#utility.yul\":599:663   */\n  tag_20\n    /* \"#utility.yul\":655:662   */\n  dup7\n    /* \"#utility.yul\":646:652   */\n  dup3\n    /* \"#utility.yul\":635:644   */\n  dup8\n    /* \"#utility.yul\":631:653   */\n  add\n    /* \"#utility.yul\":599:663   */\n  tag_11\n  jump\t// in\ntag_20:\n    /* \"#utility.yul\":589:663   */\n  swap3\n  pop\n    /* \"#utility.yul\":544:673   */\n  pop\n    /* \"#utility.yul\":712:714   */\n  0x40\n    /* \"#utility.yul\":738:802   */\n  tag_21\n    /* \"#utility.yul\":794:801   */\n  dup7\n    /* \"#utility.yul\":785:791   */\n  dup3\n    /* \"#utility.yul\":774:783   */\n  dup8\n    /* \"#utility.yul\":770:792   */\n  add\n    /* \"#utility.yul\":738:802   */\n  tag_11\n  jump\t// in\ntag_21:\n    /* \"#utility.yul\":728:802   */\n  swap2\n  pop\n    /* \"#utility.yul\":683:812   */\n  pop\n    /* \"#utility.yul\":156:819   */\n  swap3\n  pop\n  swap3\n  pop\n  swap3\n  jump\t// out\n    /* \"#utility.yul\":906:1002   */\ntag_24:\n    /* \"#utility.yul\":943:950   */\n  0x00\n    /* \"#utility.yul\":972:996   */\n  tag_26\n    /* \"#utility.yul\":990:995   */\n  dup3\n    /* \"#utility.yul\":972:996   */\n  tag_27\n  jump\t// in\ntag_26:\n    /* \"#utility.yul\":961:996   */\n  swap1\n  pop\n    /* \"#utility.yul\":906:1002   */\n  swap2\n  swap1\n  pop\n  jump\t// out\n    /* \"#utility.yul\":1008:1134   */\ntag_27:\n    /* \"#utility.yul\":1045:1052   */\n  0x00\n    /* \"#utility.yul\":1085:1127   */\n  0xffffffffffffffffffffffffffffffffffffffff\n    /* \"#utility.yul\":1078:1083   */\n  dup3\n    /* \"#utility.yul\":1074:1128   */\n  and\n    /* \"#utility.yul\":1063:1128   */\n  swap1\n  pop\n    /* \"#utility.yul\":1008:1134   */\n  swap2\n  swap1\n  pop\n  jump\t// out\n    /* \"#utility.yul\":1140:1320   */\ntag_3:\n    /* \"#utility.yul\":1188:1265   */\n  0x4e487b7100000000000000000000000000000000000000000000000000000000\n    /* \"#utility.yul\":1185:1186   */\n  0x00\n    /* \"#utility.yul\":1178:1266   */\n  mstore\n    /* \"#utility.yul\":1285:1289   */\n  0x21\n    /* \"#utility.yul\":1282:1283   */\n  0x04\n    /* \"#utility.yul\":1275:1290   */\n  mstore\n    /* \"#utility.yul\":1309:1313   */\n  0x24\n    /* \"#utility.yul\":1306:1307   */\n  0x00\n    /* \"#utility.yul\":1299:1314   */\n  revert\n    /* \"#utility.yul\":1449:1566   */\ntag_18:\n    /* \"#utility.yul\":1558:1559   */\n  0x00\n    /* \"#utility.yul\":1555:1556   */\n  dup1\n    /* \"#utility.yul\":1548:1560   */\n  revert\n    /* \"#utility.yul\":1572:1694   */\ntag_14:\n    /* \"#utility.yul\":1645:1669   */\n  tag_34\n    /* \"#utility.yul\":1663:1668   */\n  dup2\n    /* \"#utility.yul\":1645:1669   */\n  tag_24\n  jump\t// in\ntag_34:\n    /* \"#utility.yul\":1638:1643   */\n  dup2\n    /* \"#utility.yul\":1635:1670   */\n  eq\n    /* \"#utility.yul\":1625:1688   */\n  tag_35\n  jumpi\n    /* \"#utility.yul\":1684:1685   */\n  0x00\n    /* \"#utility.yul\":1681:1682   */\n  dup1\n    /* \"#utility.yul\":1674:1686   */\n  revert\n    /* \"#utility.yul\":1625:1688   */\ntag_35:\n    /* \"#utility.yul\":1572:1694   */\n  pop\n  jump\t// out\n    /* \"contracts/studentmanager/TuitionContract.sol\":157:5043  contract TuitionContract is ITuitionContract {\r... */\ntag_9:\n  shr(0x60, mload(0x80))\n  codecopy(0x00, dataOffset(sub_0), dataSize(sub_0))\n  0x00\n  assignImmutable(\"0x1bd24dd6132ee48d988d9af2a2861e14cfa127f735144972abbc68ba40aae435\")\n  return(0x00, dataSize(sub_0))\nstop\n\nsub_0: assembly {\n        /* \"contracts/studentmanager/TuitionContract.sol\":157:5043  contract TuitionContract is ITuitionContract {\r... */\n      mstore(0x40, 0x80)\n      callvalue\n      dup1\n      iszero\n      tag_1\n      jumpi\n      0x00\n      dup1\n      revert\n    tag_1:\n      pop\n      jumpi(tag_2, lt(calldatasize, 0x04))\n      shr(0xe0, calldataload(0x00))\n      dup1\n      0xa7f44e0d\n      gt\n      tag_23\n      jumpi\n      dup1\n      0xb1319f41\n      gt\n      tag_24\n      jumpi\n      dup1\n      0xb1319f41\n      eq\n      tag_18\n      jumpi\n      dup1\n      0xbe9a6555\n      eq\n      tag_19\n      jumpi\n      dup1\n      0xd95fe6a0\n      eq\n      tag_20\n      jumpi\n      dup1\n      0xed214fff\n      eq\n      tag_21\n      jumpi\n      dup1\n      0xf1d0d198\n      eq\n      tag_22\n      jumpi\n      jump(tag_2)\n    tag_24:\n      dup1\n      0xa7f44e0d\n      eq\n      tag_13\n      jumpi\n      dup1\n      0xa8a86c10\n      eq\n      tag_14\n      jumpi\n      dup1\n      0xaa4936ce\n      eq\n      tag_15\n      jumpi\n      dup1\n      0xaa8c217c\n      eq\n      tag_16\n      jumpi\n      dup1\n      0xacc2166a\n      eq\n      tag_17\n      jumpi\n      jump(tag_2)\n    tag_23:\n      dup1\n      0x43d726d6\n      gt\n      tag_25\n      jumpi\n      dup1\n      0x43d726d6\n      eq\n      tag_8\n      jumpi\n      dup1\n      0x633d8390\n      eq\n      tag_9\n      jumpi\n      dup1\n      0x727cb110\n      eq\n      tag_10\n      jumpi\n      dup1\n      0x8da5cb5b\n      eq\n      tag_11\n      jumpi\n      dup1\n      0xa32fb342\n      eq\n      tag_12\n      jumpi\n      jump(tag_2)\n    tag_25:\n      dup1\n      0x04227ab8\n      eq\n      tag_3\n      jumpi\n      dup1\n      0x08003d6b\n      eq\n      tag_4\n      jumpi\n      dup1\n      0x200d2ed2\n      eq\n      tag_5\n      jumpi\n      dup1\n      0x2fe7a96d\n      eq\n      tag_6\n      jumpi\n      dup1\n      0x35c1d349\n      eq\n      tag_7\n      jumpi\n    tag_2:\n      0x00\n      dup1\n      revert\n        /* \"contracts/studentmanager/TuitionContract.sol\":2368:2955  function addStudentToTuition(address[] calldata _students)\r... */\n    tag_3:\n      tag_26\n      0x04\n      dup1\n      calldatasize\n      sub\n      dup2\n      add\n      swap1\n      tag_27\n      swap2\n      swap1\n      tag_28\n      jump\t// in\n    tag_27:\n      tag_29\n      jump\t// in\n    tag_26:\n      stop\n        /* \"contracts/studentmanager/TuitionContract.sol\":1654:2259  function setBasicForTuition(\r... */\n    tag_4:\n      tag_30\n      0x04\n      dup1\n      calldatasize\n      sub\n      dup2\n      add\n      swap1\n      tag_31\n      swap2\n      swap1\n      tag_32\n      jump\t// in\n    tag_31:\n      tag_33\n      jump\t// in\n    tag_30:\n      stop\n        /* \"contracts/studentmanager/TuitionContract.sol\":310:344  Status public status = Status.Lock */\n    tag_5:\n      tag_34\n      tag_35\n      jump\t// in\n    tag_34:\n      mload(0x40)\n      tag_36\n      swap2\n      swap1\n      tag_37\n      jump\t// in\n    tag_36:\n      mload(0x40)\n      dup1\n      swap2\n      sub\n      swap1\n      return\n        /* \"contracts/studentmanager/TuitionContract.sol\":353:376  address public UITToken */\n    tag_6:\n      tag_38\n      tag_39\n      jump\t// in\n    tag_38:\n      mload(0x40)\n      tag_40\n      swap2\n      swap1\n      tag_41\n      jump\t// in\n    tag_40:\n      mload(0x40)\n      dup1\n      swap2\n      sub\n      swap1\n      return\n        /* \"contracts/studentmanager/TuitionContract.sol\":467:496  address[] public participants */\n    tag_7:\n      tag_42\n      0x04\n      dup1\n      calldatasize\n      sub\n      dup2\n      add\n      swap1\n      tag_43\n      swap2\n      swap1\n      tag_44\n      jump\t// in\n    tag_43:\n      tag_45\n      jump\t// in\n    tag_42:\n      mload(0x40)\n      tag_46\n      swap2\n      swap1\n      tag_41\n      jump\t// in\n    tag_46:\n      mload(0x40)\n      dup1\n      swap2\n      sub\n      swap1\n      return\n        /* \"contracts/studentmanager/TuitionContract.sol\":4011:4134  function close() external override onlyOwner {\r... */\n    tag_8:\n      tag_47\n      tag_48\n      jump\t// in\n    tag_47:\n      stop\n        /* \"contracts/studentmanager/TuitionContract.sol\":3279:3685  function paymentByToken() external override onlyRoleStudent {\r... */\n    tag_9:\n      tag_49\n      tag_50\n      jump\t// in\n    tag_49:\n      stop\n        /* \"contracts/studentmanager/TuitionContract.sol\":2963:3271  function removeStudentFromTuition(address _student) external onlyRoleAdmin {\r... */\n    tag_10:\n      tag_51\n      0x04\n      dup1\n      calldatasize\n      sub\n      dup2\n      add\n      swap1\n      tag_52\n      swap2\n      swap1\n      tag_53\n      jump\t// in\n    tag_52:\n      tag_54\n      jump\t// in\n    tag_51:\n      stop\n        /* \"contracts/studentmanager/TuitionContract.sol\":244:274  address public immutable owner */\n    tag_11:\n      tag_55\n      tag_56\n      jump\t// in\n    tag_55:\n      mload(0x40)\n      tag_57\n      swap2\n      swap1\n      tag_41\n      jump\t// in\n    tag_57:\n      mload(0x40)\n      dup1\n      swap2\n      sub\n      swap1\n      return\n        /* \"contracts/studentmanager/TuitionContract.sol\":647:694  mapping(address =>bool) public completedAddress */\n    tag_12:\n      tag_58\n      0x04\n      dup1\n      calldatasize\n      sub\n      dup2\n      add\n      swap1\n      tag_59\n      swap2\n      swap1\n      tag_53\n      jump\t// in\n    tag_59:\n      tag_60\n      jump\t// in\n    tag_58:\n      mload(0x40)\n      tag_61\n      swap2\n      swap1\n      tag_62\n      jump\t// in\n    tag_61:\n      mload(0x40)\n      dup1\n      swap2\n      sub\n      swap1\n      return\n        /* \"contracts/studentmanager/TuitionContract.sol\":4596:5040  function getParticipantListCompleted()\r... */\n    tag_13:\n      tag_63\n      tag_64\n      jump\t// in\n    tag_63:\n      mload(0x40)\n      tag_65\n      swap2\n      swap1\n      tag_66\n      jump\t// in\n    tag_65:\n      mload(0x40)\n      dup1\n      swap2\n      sub\n      swap1\n      return\n        /* \"contracts/studentmanager/TuitionContract.sol\":281:303  Tuition public tuition */\n    tag_14:\n      tag_67\n      tag_68\n      jump\t// in\n    tag_67:\n      mload(0x40)\n      tag_69\n      swap6\n      swap5\n      swap4\n      swap3\n      swap2\n      swap1\n      tag_70\n      jump\t// in\n    tag_69:\n      mload(0x40)\n      dup1\n      swap2\n      sub\n      swap1\n      return\n        /* \"contracts/studentmanager/TuitionContract.sol\":383:419  IAccessControl public accessControll */\n    tag_15:\n      tag_71\n      tag_72\n      jump\t// in\n    tag_71:\n      mload(0x40)\n      tag_73\n      swap2\n      swap1\n      tag_74\n      jump\t// in\n    tag_73:\n      mload(0x40)\n      dup1\n      swap2\n      sub\n      swap1\n      return\n        /* \"contracts/studentmanager/TuitionContract.sol\":503:524  uint256 public amount */\n    tag_16:\n      tag_75\n      tag_76\n      jump\t// in\n    tag_75:\n      mload(0x40)\n      tag_77\n      swap2\n      swap1\n      tag_78\n      jump\t// in\n    tag_77:\n      mload(0x40)\n      dup1\n      swap2\n      sub\n      swap1\n      return\n        /* \"contracts/studentmanager/TuitionContract.sol\":426:458  address public rewardDistributor */\n    tag_17:\n      tag_79\n      tag_80\n      jump\t// in\n    tag_79:\n      mload(0x40)\n      tag_81\n      swap2\n      swap1\n      tag_41\n      jump\t// in\n    tag_81:\n      mload(0x40)\n      dup1\n      swap2\n      sub\n      swap1\n      return\n        /* \"contracts/studentmanager/TuitionContract.sol\":591:640  mapping(address => bool) public participantToTrue */\n    tag_18:\n      tag_82\n      0x04\n      dup1\n      calldatasize\n      sub\n      dup2\n      add\n      swap1\n      tag_83\n      swap2\n      swap1\n      tag_53\n      jump\t// in\n    tag_83:\n      tag_84\n      jump\t// in\n    tag_82:\n      mload(0x40)\n      tag_85\n      swap2\n      swap1\n      tag_62\n      jump\t// in\n    tag_85:\n      mload(0x40)\n      dup1\n      swap2\n      sub\n      swap1\n      return\n        /* \"contracts/studentmanager/TuitionContract.sol\":2267:2360  function start() external override onlyOwner onlyLock {\r... */\n    tag_19:\n      tag_86\n      tag_87\n      jump\t// in\n    tag_86:\n      stop\n        /* \"contracts/studentmanager/TuitionContract.sol\":531:584  mapping(address => uint256) public participantToIndex */\n    tag_20:\n      tag_88\n      0x04\n      dup1\n      calldatasize\n      sub\n      dup2\n      add\n      swap1\n      tag_89\n      swap2\n      swap1\n      tag_53\n      jump\t// in\n    tag_89:\n      tag_90\n      jump\t// in\n    tag_88:\n      mload(0x40)\n      tag_91\n      swap2\n      swap1\n      tag_78\n      jump\t// in\n    tag_91:\n      mload(0x40)\n      dup1\n      swap2\n      sub\n      swap1\n      return\n        /* \"contracts/studentmanager/TuitionContract.sol\":4142:4588  function getParticipantList() public view override returns (address[] memory) {\r... */\n    tag_21:\n      tag_92\n      tag_93\n      jump\t// in\n    tag_92:\n      mload(0x40)\n      tag_94\n      swap2\n      swap1\n      tag_66\n      jump\t// in\n    tag_94:\n      mload(0x40)\n      dup1\n      swap2\n      sub\n      swap1\n      return\n        /* \"contracts/studentmanager/TuitionContract.sol\":3693:4003  function paymentByCurrency(address student)\r... */\n    tag_22:\n      tag_95\n      0x04\n      dup1\n      calldatasize\n      sub\n      dup2\n      add\n      swap1\n      tag_96\n      swap2\n      swap1\n      tag_53\n      jump\t// in\n    tag_96:\n      tag_97\n      jump\t// in\n    tag_95:\n      stop\n        /* \"contracts/studentmanager/TuitionContract.sol\":2368:2955  function addStudentToTuition(address[] calldata _students)\r... */\n    tag_29:\n        /* \"contracts/studentmanager/TuitionContract.sol\":1075:1089  accessControll */\n      0x06\n      0x00\n      swap1\n      sload\n      swap1\n      0x0100\n      exp\n      swap1\n      div\n      0xffffffffffffffffffffffffffffffffffffffff\n      and\n        /* \"contracts/studentmanager/TuitionContract.sol\":1075:1097  accessControll.hasRole */\n      0xffffffffffffffffffffffffffffffffffffffff\n      and\n      0x91d14854\n        /* \"contracts/studentmanager/TuitionContract.sol\":1098:1116  keccak256(\"ADMIN\") */\n      0xdf8b4c520ffe197c5343c6f5aec59570151ef9a492f2c624fd45ddde6135ec42\n        /* \"contracts/studentmanager/TuitionContract.sol\":1118:1128  msg.sender */\n      caller\n        /* \"contracts/studentmanager/TuitionContract.sol\":1075:1129  accessControll.hasRole(keccak256(\"ADMIN\"), msg.sender) */\n      mload(0x40)\n      dup4\n      0xffffffff\n      and\n      0xe0\n      shl\n      dup2\n      mstore\n      0x04\n      add\n      tag_99\n      swap3\n      swap2\n      swap1\n      tag_100\n      jump\t// in\n    tag_99:\n      0x20\n      mload(0x40)\n      dup1\n      dup4\n      sub\n      dup2\n      dup7\n      dup1\n      extcodesize\n      iszero\n      dup1\n      iszero\n      tag_101\n      jumpi\n      0x00\n      dup1\n      revert\n    tag_101:\n      pop\n      gas\n      staticcall\n      iszero\n      dup1\n      iszero\n      tag_103\n      jumpi\n      returndatasize\n      0x00\n      dup1\n      returndatacopy\n      revert(0x00, returndatasize)\n    tag_103:\n      pop\n      pop\n      pop\n      pop\n      mload(0x40)\n      returndatasize\n      not(0x1f)\n      0x1f\n      dup3\n      add\n      and\n      dup3\n      add\n      dup1\n      0x40\n      mstore\n      pop\n      dup2\n      add\n      swap1\n      tag_104\n      swap2\n      swap1\n      tag_105\n      jump\t// in\n    tag_104:\n        /* \"contracts/studentmanager/TuitionContract.sol\":1053:1174  require(\r... */\n      tag_106\n      jumpi\n      mload(0x40)\n      0x08c379a000000000000000000000000000000000000000000000000000000000\n      dup2\n      mstore\n      0x04\n      add\n      tag_107\n      swap1\n      tag_108\n      jump\t// in\n    tag_107:\n      mload(0x40)\n      dup1\n      swap2\n      sub\n      swap1\n      revert\n    tag_106:\n        /* \"contracts/studentmanager/TuitionContract.sol\":858:869  Status.Open */\n      0x01\n        /* \"contracts/studentmanager/TuitionContract.sol\":848:869  status == Status.Open */\n      0x02\n      dup2\n      gt\n      iszero\n      tag_110\n      jumpi\n      tag_111\n      tag_112\n      jump\t// in\n    tag_111:\n    tag_110:\n        /* \"contracts/studentmanager/TuitionContract.sol\":848:854  status */\n      0x05\n      0x00\n      swap1\n      sload\n      swap1\n      0x0100\n      exp\n      swap1\n      div\n      0xff\n      and\n        /* \"contracts/studentmanager/TuitionContract.sol\":848:869  status == Status.Open */\n      0x02\n      dup2\n      gt\n      iszero\n      tag_113\n      jumpi\n      tag_114\n      tag_112\n      jump\t// in\n    tag_114:\n    tag_113:\n      eq\n        /* \"contracts/studentmanager/TuitionContract.sol\":840:887  require(status == Status.Open, \"MC: Only Open\") */\n      tag_115\n      jumpi\n      mload(0x40)\n      0x08c379a000000000000000000000000000000000000000000000000000000000\n      dup2\n      mstore\n      0x04\n      add\n      tag_116\n      swap1\n      tag_117\n      jump\t// in\n    tag_116:\n      mload(0x40)\n      dup1\n      swap2\n      sub\n      swap1\n      revert\n    tag_115:\n        /* \"contracts/studentmanager/TuitionContract.sol\":2525:2534  uint256 i */\n      0x00\n        /* \"contracts/studentmanager/TuitionContract.sol\":2520:2948  for (uint256 i = 0; i < _students.length; i++) {\r... */\n    tag_119:\n        /* \"contracts/studentmanager/TuitionContract.sol\":2544:2553  _students */\n      dup3\n      dup3\n        /* \"contracts/studentmanager/TuitionContract.sol\":2544:2560  _students.length */\n      swap1\n      pop\n        /* \"contracts/studentmanager/TuitionContract.sol\":2540:2541  i */\n      dup2\n        /* \"contracts/studentmanager/TuitionContract.sol\":2540:2560  i < _students.length */\n      lt\n        /* \"contracts/studentmanager/TuitionContract.sol\":2520:2948  for (uint256 i = 0; i < _students.length; i++) {\r... */\n      iszero\n      tag_120\n      jumpi\n        /* \"contracts/studentmanager/TuitionContract.sol\":2590:2604  accessControll */\n      0x06\n      0x00\n      swap1\n      sload\n      swap1\n      0x0100\n      exp\n      swap1\n      div\n      0xffffffffffffffffffffffffffffffffffffffff\n      and\n        /* \"contracts/studentmanager/TuitionContract.sol\":2590:2612  accessControll.hasRole */\n      0xffffffffffffffffffffffffffffffffffffffff\n      and\n      0x91d14854\n        /* \"contracts/studentmanager/TuitionContract.sol\":2613:2633  keccak256(\"STUDENT\") */\n      0xc951d7098b66ba0b8b77265b6e9cf0e187d73125a42bcd0061b09a68be421810\n        /* \"contracts/studentmanager/TuitionContract.sol\":2635:2644  _students */\n      dup6\n      dup6\n        /* \"contracts/studentmanager/TuitionContract.sol\":2645:2646  i */\n      dup6\n        /* \"contracts/studentmanager/TuitionContract.sol\":2635:2647  _students[i] */\n      dup2\n      dup2\n      lt\n      tag_122\n      jumpi\n      tag_123\n      tag_124\n      jump\t// in\n    tag_123:\n    tag_122:\n      swap1\n      pop\n      0x20\n      mul\n      add\n      0x20\n      dup2\n      add\n      swap1\n      tag_125\n      swap2\n      swap1\n      tag_53\n      jump\t// in\n    tag_125:\n        /* \"contracts/studentmanager/TuitionContract.sol\":2590:2648  accessControll.hasRole(keccak256(\"STUDENT\"), _students[i]) */\n      mload(0x40)\n      dup4\n      0xffffffff\n      and\n      0xe0\n      shl\n      dup2\n      mstore\n      0x04\n      add\n      tag_126\n      swap3\n      swap2\n      swap1\n      tag_100\n      jump\t// in\n    tag_126:\n      0x20\n      mload(0x40)\n      dup1\n      dup4\n      sub\n      dup2\n      dup7\n      dup1\n      extcodesize\n      iszero\n      dup1\n      iszero\n      tag_127\n      jumpi\n      0x00\n      dup1\n      revert\n    tag_127:\n      pop\n      gas\n      staticcall\n      iszero\n      dup1\n      iszero\n      tag_129\n      jumpi\n      returndatasize\n      0x00\n      dup1\n      returndatacopy\n      revert(0x00, returndatasize)\n    tag_129:\n      pop\n      pop\n      pop\n      pop\n      mload(0x40)\n      returndatasize\n      not(0x1f)\n      0x1f\n      dup3\n      add\n      and\n      dup3\n      add\n      dup1\n      0x40\n      mstore\n      pop\n      dup2\n      add\n      swap1\n      tag_130\n      swap2\n      swap1\n      tag_105\n      jump\t// in\n    tag_130:\n        /* \"contracts/studentmanager/TuitionContract.sol\":2582:2676  require(accessControll.hasRole(keccak256(\"STUDENT\"), _students[i]), \"Should only add student\") */\n      tag_131\n      jumpi\n      mload(0x40)\n      0x08c379a000000000000000000000000000000000000000000000000000000000\n      dup2\n      mstore\n      0x04\n      add\n      tag_132\n      swap1\n      tag_133\n      jump\t// in\n    tag_132:\n      mload(0x40)\n      dup1\n      swap2\n      sub\n      swap1\n      revert\n    tag_131:\n        /* \"contracts/studentmanager/TuitionContract.sol\":2700:2717  participantToTrue */\n      0x0b\n        /* \"contracts/studentmanager/TuitionContract.sol\":2700:2731  participantToTrue[_students[i]] */\n      0x00\n        /* \"contracts/studentmanager/TuitionContract.sol\":2718:2727  _students */\n      dup5\n      dup5\n        /* \"contracts/studentmanager/TuitionContract.sol\":2728:2729  i */\n      dup5\n        /* \"contracts/studentmanager/TuitionContract.sol\":2718:2730  _students[i] */\n      dup2\n      dup2\n      lt\n      tag_134\n      jumpi\n      tag_135\n      tag_124\n      jump\t// in\n    tag_135:\n    tag_134:\n      swap1\n      pop\n      0x20\n      mul\n      add\n      0x20\n      dup2\n      add\n      swap1\n      tag_136\n      swap2\n      swap1\n      tag_53\n      jump\t// in\n    tag_136:\n        /* \"contracts/studentmanager/TuitionContract.sol\":2700:2731  participantToTrue[_students[i]] */\n      0xffffffffffffffffffffffffffffffffffffffff\n      and\n      0xffffffffffffffffffffffffffffffffffffffff\n      and\n      dup2\n      mstore\n      0x20\n      add\n      swap1\n      dup2\n      mstore\n      0x20\n      add\n      0x00\n      keccak256\n      0x00\n      swap1\n      sload\n      swap1\n      0x0100\n      exp\n      swap1\n      div\n      0xff\n      and\n        /* \"contracts/studentmanager/TuitionContract.sol\":2699:2731  !participantToTrue[_students[i]] */\n      iszero\n        /* \"contracts/studentmanager/TuitionContract.sol\":2691:2741  require(!participantToTrue[_students[i]], \"Added\") */\n      tag_137\n      jumpi\n      mload(0x40)\n      0x08c379a000000000000000000000000000000000000000000000000000000000\n      dup2\n      mstore\n      0x04\n      add\n      tag_138\n      swap1\n      tag_139\n      jump\t// in\n    tag_138:\n      mload(0x40)\n      dup1\n      swap2\n      sub\n      swap1\n      revert\n    tag_137:\n        /* \"contracts/studentmanager/TuitionContract.sol\":2756:2768  participants */\n      0x08\n        /* \"contracts/studentmanager/TuitionContract.sol\":2774:2783  _students */\n      dup4\n      dup4\n        /* \"contracts/studentmanager/TuitionContract.sol\":2784:2785  i */\n      dup4\n        /* \"contracts/studentmanager/TuitionContract.sol\":2774:2786  _students[i] */\n      dup2\n      dup2\n      lt\n      tag_140\n      jumpi\n      tag_141\n      tag_124\n      jump\t// in\n    tag_141:\n    tag_140:\n      swap1\n      pop\n      0x20\n      mul\n      add\n      0x20\n      dup2\n      add\n      swap1\n      tag_142\n      swap2\n      swap1\n      tag_53\n      jump\t// in\n    tag_142:\n        /* \"contracts/studentmanager/TuitionContract.sol\":2756:2787  participants.push(_students[i]) */\n      swap1\n      dup1\n      0x01\n      dup2\n      sload\n      add\n      dup1\n      dup3\n      sstore\n      dup1\n      swap2\n      pop\n      pop\n      0x01\n      swap1\n      sub\n      swap1\n      0x00\n      mstore\n      keccak256(0x00, 0x20)\n      add\n      0x00\n      swap1\n      swap2\n      swap1\n      swap2\n      swap1\n      swap2\n      0x0100\n      exp\n      dup2\n      sload\n      dup2\n      0xffffffffffffffffffffffffffffffffffffffff\n      mul\n      not\n      and\n      swap1\n      dup4\n      0xffffffffffffffffffffffffffffffffffffffff\n      and\n      mul\n      or\n      swap1\n      sstore\n      pop\n        /* \"contracts/studentmanager/TuitionContract.sol\":2859:2860  1 */\n      0x01\n        /* \"contracts/studentmanager/TuitionContract.sol\":2837:2849  participants */\n      0x08\n        /* \"contracts/studentmanager/TuitionContract.sol\":2837:2856  participants.length */\n      dup1\n      sload\n      swap1\n      pop\n        /* \"contracts/studentmanager/TuitionContract.sol\":2837:2860  participants.length - 1 */\n      tag_144\n      swap2\n      swap1\n      tag_145\n      jump\t// in\n    tag_144:\n        /* \"contracts/studentmanager/TuitionContract.sol\":2802:2820  participantToIndex */\n      0x0a\n        /* \"contracts/studentmanager/TuitionContract.sol\":2802:2834  participantToIndex[_students[i]] */\n      0x00\n        /* \"contracts/studentmanager/TuitionContract.sol\":2821:2830  _students */\n      dup6\n      dup6\n        /* \"contracts/studentmanager/TuitionContract.sol\":2831:2832  i */\n      dup6\n        /* \"contracts/studentmanager/TuitionContract.sol\":2821:2833  _students[i] */\n      dup2\n      dup2\n      lt\n      tag_146\n      jumpi\n      tag_147\n      tag_124\n      jump\t// in\n    tag_147:\n    tag_146:\n      swap1\n      pop\n      0x20\n      mul\n      add\n      0x20\n      dup2\n      add\n      swap1\n      tag_148\n      swap2\n      swap1\n      tag_53\n      jump\t// in\n    tag_148:\n        /* \"contracts/studentmanager/TuitionContract.sol\":2802:2834  participantToIndex[_students[i]] */\n      0xffffffffffffffffffffffffffffffffffffffff\n      and\n      0xffffffffffffffffffffffffffffffffffffffff\n      and\n      dup2\n      mstore\n      0x20\n      add\n      swap1\n      dup2\n      mstore\n      0x20\n      add\n      0x00\n      keccak256\n        /* \"contracts/studentmanager/TuitionContract.sol\":2802:2860  participantToIndex[_students[i]] = participants.length - 1 */\n      dup2\n      swap1\n      sstore\n      pop\n        /* \"contracts/studentmanager/TuitionContract.sol\":2909:2913  true */\n      0x01\n        /* \"contracts/studentmanager/TuitionContract.sol\":2875:2892  participantToTrue */\n      0x0b\n        /* \"contracts/studentmanager/TuitionContract.sol\":2875:2906  participantToTrue[_students[i]] */\n      0x00\n        /* \"contracts/studentmanager/TuitionContract.sol\":2893:2902  _students */\n      dup6\n      dup6\n        /* \"contracts/studentmanager/TuitionContract.sol\":2903:2904  i */\n      dup6\n        /* \"contracts/studentmanager/TuitionContract.sol\":2893:2905  _students[i] */\n      dup2\n      dup2\n      lt\n      tag_149\n      jumpi\n      tag_150\n      tag_124\n      jump\t// in\n    tag_150:\n    tag_149:\n      swap1\n      pop\n      0x20\n      mul\n      add\n      0x20\n      dup2\n      add\n      swap1\n      tag_151\n      swap2\n      swap1\n      tag_53\n      jump\t// in\n    tag_151:\n        /* \"contracts/studentmanager/TuitionContract.sol\":2875:2906  participantToTrue[_students[i]] */\n      0xffffffffffffffffffffffffffffffffffffffff\n      and\n      0xffffffffffffffffffffffffffffffffffffffff\n      and\n      dup2\n      mstore\n      0x20\n      add\n      swap1\n      dup2\n      mstore\n      0x20\n      add\n      0x00\n      keccak256\n      0x00\n        /* \"contracts/studentmanager/TuitionContract.sol\":2875:2913  participantToTrue[_students[i]] = true */\n      0x0100\n      exp\n      dup2\n      sload\n      dup2\n      0xff\n      mul\n      not\n      and\n      swap1\n      dup4\n      iszero\n      iszero\n      mul\n      or\n      swap1\n      sstore\n      pop\n        /* \"contracts/studentmanager/TuitionContract.sol\":2928:2934  amount */\n      0x09\n      0x00\n        /* \"contracts/studentmanager/TuitionContract.sol\":2928:2936  amount++ */\n      dup2\n      sload\n      dup1\n      swap3\n      swap2\n      swap1\n      tag_152\n      swap1\n      tag_153\n      jump\t// in\n    tag_152:\n      swap2\n      swap1\n      pop\n      sstore\n      pop\n        /* \"contracts/studentmanager/TuitionContract.sol\":2562:2565  i++ */\n      dup1\n      dup1\n      tag_154\n      swap1\n      tag_153\n      jump\t// in\n    tag_154:\n      swap2\n      pop\n      pop\n        /* \"contracts/studentmanager/TuitionContract.sol\":2520:2948  for (uint256 i = 0; i < _students.length; i++) {\r... */\n      jump(tag_119)\n    tag_120:\n      pop\n        /* \"contracts/studentmanager/TuitionContract.sol\":2368:2955  function addStudentToTuition(address[] calldata _students)\r... */\n      pop\n      pop\n      jump\t// out\n        /* \"contracts/studentmanager/TuitionContract.sol\":1654:2259  function setBasicForTuition(\r... */\n    tag_33:\n        /* \"contracts/studentmanager/TuitionContract.sol\":969:974  owner */\n      immutable(\"0x1bd24dd6132ee48d988d9af2a2861e14cfa127f735144972abbc68ba40aae435\")\n        /* \"contracts/studentmanager/TuitionContract.sol\":955:974  msg.sender == owner */\n      0xffffffffffffffffffffffffffffffffffffffff\n      and\n        /* \"contracts/studentmanager/TuitionContract.sol\":955:965  msg.sender */\n      caller\n        /* \"contracts/studentmanager/TuitionContract.sol\":955:974  msg.sender == owner */\n      0xffffffffffffffffffffffffffffffffffffffff\n      and\n      eq\n        /* \"contracts/studentmanager/TuitionContract.sol\":947:989  require(msg.sender == owner, \"Only Owner\") */\n      tag_156\n      jumpi\n      mload(0x40)\n      0x08c379a000000000000000000000000000000000000000000000000000000000\n      dup2\n      mstore\n      0x04\n      add\n      tag_157\n      swap1\n      tag_158\n      jump\t// in\n    tag_157:\n      mload(0x40)\n      dup1\n      swap2\n      sub\n      swap1\n      revert\n    tag_156:\n        /* \"contracts/studentmanager/TuitionContract.sol\":752:763  Status.Lock */\n      0x00\n        /* \"contracts/studentmanager/TuitionContract.sol\":742:763  status == Status.Lock */\n      0x02\n      dup2\n      gt\n      iszero\n      tag_160\n      jumpi\n      tag_161\n      tag_112\n      jump\t// in\n    tag_161:\n    tag_160:\n        /* \"contracts/studentmanager/TuitionContract.sol\":742:748  status */\n      0x05\n      0x00\n      swap1\n      sload\n      swap1\n      0x0100\n      exp\n      swap1\n      div\n      0xff\n      and\n        /* \"contracts/studentmanager/TuitionContract.sol\":742:763  status == Status.Lock */\n      0x02\n      dup2\n      gt\n      iszero\n      tag_162\n      jumpi\n      tag_163\n      tag_112\n      jump\t// in\n    tag_163:\n    tag_162:\n      eq\n        /* \"contracts/studentmanager/TuitionContract.sol\":734:781  require(status == Status.Lock, \"MC: Only Lock\") */\n      tag_164\n      jumpi\n      mload(0x40)\n      0x08c379a000000000000000000000000000000000000000000000000000000000\n      dup2\n      mstore\n      0x04\n      add\n      tag_165\n      swap1\n      tag_166\n      jump\t// in\n    tag_165:\n      mload(0x40)\n      dup1\n      swap2\n      sub\n      swap1\n      revert\n    tag_164:\n        /* \"contracts/studentmanager/TuitionContract.sol\":1911:1912  0 */\n      0x00\n        /* \"contracts/studentmanager/TuitionContract.sol\":1897:1908  _feeByToken */\n      dup4\n        /* \"contracts/studentmanager/TuitionContract.sol\":1897:1912  _feeByToken > 0 */\n      gt\n        /* \"contracts/studentmanager/TuitionContract.sol\":1889:1951  require(_feeByToken > 0, \"MC: Award should greater than Zero\") */\n      tag_168\n      jumpi\n      mload(0x40)\n      0x08c379a000000000000000000000000000000000000000000000000000000000\n      dup2\n      mstore\n      0x04\n      add\n      tag_169\n      swap1\n      tag_170\n      jump\t// in\n    tag_169:\n      mload(0x40)\n      dup1\n      swap2\n      sub\n      swap1\n      revert\n    tag_168:\n        /* \"contracts/studentmanager/TuitionContract.sol\":2002:2012  _startTime */\n      dup2\n        /* \"contracts/studentmanager/TuitionContract.sol\":1984:1999  block.timestamp */\n      timestamp\n        /* \"contracts/studentmanager/TuitionContract.sol\":1984:2012  block.timestamp < _startTime */\n      lt\n        /* \"contracts/studentmanager/TuitionContract.sol\":1984:2037  block.timestamp < _startTime && _startTime < _endTime */\n      dup1\n      iszero\n      tag_171\n      jumpi\n      pop\n        /* \"contracts/studentmanager/TuitionContract.sol\":2029:2037  _endTime */\n      dup1\n        /* \"contracts/studentmanager/TuitionContract.sol\":2016:2026  _startTime */\n      dup3\n        /* \"contracts/studentmanager/TuitionContract.sol\":2016:2037  _startTime < _endTime */\n      lt\n        /* \"contracts/studentmanager/TuitionContract.sol\":1984:2037  block.timestamp < _startTime && _startTime < _endTime */\n    tag_171:\n        /* \"contracts/studentmanager/TuitionContract.sol\":1962:2084  require(\r... */\n      tag_172\n      jumpi\n      mload(0x40)\n      0x08c379a000000000000000000000000000000000000000000000000000000000\n      dup2\n      mstore\n      0x04\n      add\n      tag_173\n      swap1\n      tag_174\n      jump\t// in\n    tag_173:\n      mload(0x40)\n      dup1\n      swap2\n      sub\n      swap1\n      revert\n    tag_172:\n        /* \"contracts/studentmanager/TuitionContract.sol\":2107:2251  Tuition(\r... */\n      mload(0x40)\n      dup1\n      0xa0\n      add\n      0x40\n      mstore\n      dup1\n        /* \"contracts/studentmanager/TuitionContract.sol\":2129:2139  _tuitionId */\n      dup7\n        /* \"contracts/studentmanager/TuitionContract.sol\":2107:2251  Tuition(\r... */\n      dup2\n      mstore\n      0x20\n      add\n        /* \"contracts/studentmanager/TuitionContract.sol\":2154:2166  _urlMetadata */\n      dup6\n        /* \"contracts/studentmanager/TuitionContract.sol\":2107:2251  Tuition(\r... */\n      dup2\n      mstore\n      0x20\n      add\n        /* \"contracts/studentmanager/TuitionContract.sol\":2181:2192  _feeByToken */\n      dup5\n        /* \"contracts/studentmanager/TuitionContract.sol\":2107:2251  Tuition(\r... */\n      dup2\n      mstore\n      0x20\n      add\n        /* \"contracts/studentmanager/TuitionContract.sol\":2207:2217  _startTime */\n      dup4\n        /* \"contracts/studentmanager/TuitionContract.sol\":2107:2251  Tuition(\r... */\n      dup2\n      mstore\n      0x20\n      add\n        /* \"contracts/studentmanager/TuitionContract.sol\":2232:2240  _endTime */\n      dup3\n        /* \"contracts/studentmanager/TuitionContract.sol\":2107:2251  Tuition(\r... */\n      dup2\n      mstore\n      pop\n        /* \"contracts/studentmanager/TuitionContract.sol\":2097:2104  tuition */\n      0x00\n        /* \"contracts/studentmanager/TuitionContract.sol\":2097:2251  tuition = Tuition(\r... */\n      dup1\n      dup3\n      add\n      mload\n      dup2\n      0x00\n      add\n      sstore\n      0x20\n      dup3\n      add\n      mload\n      dup2\n      0x01\n      add\n      swap1\n      dup1\n      mload\n      swap1\n      0x20\n      add\n      swap1\n      tag_175\n      swap3\n      swap2\n      swap1\n      tag_176\n      jump\t// in\n    tag_175:\n      pop\n      0x40\n      dup3\n      add\n      mload\n      dup2\n      0x02\n      add\n      sstore\n      0x60\n      dup3\n      add\n      mload\n      dup2\n      0x03\n      add\n      sstore\n      0x80\n      dup3\n      add\n      mload\n      dup2\n      0x04\n      add\n      sstore\n      swap1\n      pop\n      pop\n        /* \"contracts/studentmanager/TuitionContract.sol\":1654:2259  function setBasicForTuition(\r... */\n      pop\n      pop\n      pop\n      pop\n      pop\n      jump\t// out\n        /* \"contracts/studentmanager/TuitionContract.sol\":310:344  Status public status = Status.Lock */\n    tag_35:\n      0x05\n      0x00\n      swap1\n      sload\n      swap1\n      0x0100\n      exp\n      swap1\n      div\n      0xff\n      and\n      dup2\n      jump\t// out\n        /* \"contracts/studentmanager/TuitionContract.sol\":353:376  address public UITToken */\n    tag_39:\n      0x05\n      0x01\n      swap1\n      sload\n      swap1\n      0x0100\n      exp\n      swap1\n      div\n      0xffffffffffffffffffffffffffffffffffffffff\n      and\n      dup2\n      jump\t// out\n        /* \"contracts/studentmanager/TuitionContract.sol\":467:496  address[] public participants */\n    tag_45:\n      0x08\n      dup2\n      dup2\n      sload\n      dup2\n      lt\n      tag_177\n      jumpi\n      0x00\n      dup1\n      revert\n    tag_177:\n      swap1\n      0x00\n      mstore\n      keccak256(0x00, 0x20)\n      add\n      0x00\n      swap2\n      pop\n      sload\n      swap1\n      0x0100\n      exp\n      swap1\n      div\n      0xffffffffffffffffffffffffffffffffffffffff\n      and\n      dup2\n      jump\t// out\n        /* \"contracts/studentmanager/TuitionContract.sol\":4011:4134  function close() external override onlyOwner {\r... */\n    tag_48:\n        /* \"contracts/studentmanager/TuitionContract.sol\":969:974  owner */\n      immutable(\"0x1bd24dd6132ee48d988d9af2a2861e14cfa127f735144972abbc68ba40aae435\")\n        /* \"contracts/studentmanager/TuitionContract.sol\":955:974  msg.sender == owner */\n      0xffffffffffffffffffffffffffffffffffffffff\n      and\n        /* \"contracts/studentmanager/TuitionContract.sol\":955:965  msg.sender */\n      caller\n        /* \"contracts/studentmanager/TuitionContract.sol\":955:974  msg.sender == owner */\n      0xffffffffffffffffffffffffffffffffffffffff\n      and\n      eq\n        /* \"contracts/studentmanager/TuitionContract.sol\":947:989  require(msg.sender == owner, \"Only Owner\") */\n      tag_180\n      jumpi\n      mload(0x40)\n      0x08c379a000000000000000000000000000000000000000000000000000000000\n      dup2\n      mstore\n      0x04\n      add\n      tag_181\n      swap1\n      tag_158\n      jump\t// in\n    tag_181:\n      mload(0x40)\n      dup1\n      swap2\n      sub\n      swap1\n      revert\n    tag_180:\n        /* \"contracts/studentmanager/TuitionContract.sol\":4076:4088  Status.Close */\n      0x02\n        /* \"contracts/studentmanager/TuitionContract.sol\":4067:4073  status */\n      0x05\n      0x00\n        /* \"contracts/studentmanager/TuitionContract.sol\":4067:4088  status = Status.Close */\n      0x0100\n      exp\n      dup2\n      sload\n      dup2\n      0xff\n      mul\n      not\n      and\n      swap1\n      dup4\n      0x02\n      dup2\n      gt\n      iszero\n      tag_183\n      jumpi\n      tag_184\n      tag_112\n      jump\t// in\n    tag_184:\n    tag_183:\n      mul\n      or\n      swap1\n      sstore\n      pop\n        /* \"contracts/studentmanager/TuitionContract.sol\":4104:4126  Close(block.timestamp) */\n      0xbf67515a38ee520223d32c1266d52101c30d936ed1f3e436c8caeb0a43cb06bf\n        /* \"contracts/studentmanager/TuitionContract.sol\":4110:4125  block.timestamp */\n      timestamp\n        /* \"contracts/studentmanager/TuitionContract.sol\":4104:4126  Close(block.timestamp) */\n      mload(0x40)\n      tag_185\n      swap2\n      swap1\n      tag_78\n      jump\t// in\n    tag_185:\n      mload(0x40)\n      dup1\n      swap2\n      sub\n      swap1\n      log1\n        /* \"contracts/studentmanager/TuitionContract.sol\":4011:4134  function close() external override onlyOwner {\r... */\n      jump\t// out\n        /* \"contracts/studentmanager/TuitionContract.sol\":3279:3685  function paymentByToken() external override onlyRoleStudent {\r... */\n    tag_50:\n        /* \"contracts/studentmanager/TuitionContract.sol\":1262:1276  accessControll */\n      0x06\n      0x00\n      swap1\n      sload\n      swap1\n      0x0100\n      exp\n      swap1\n      div\n      0xffffffffffffffffffffffffffffffffffffffff\n      and\n        /* \"contracts/studentmanager/TuitionContract.sol\":1262:1284  accessControll.hasRole */\n      0xffffffffffffffffffffffffffffffffffffffff\n      and\n      0x91d14854\n        /* \"contracts/studentmanager/TuitionContract.sol\":1285:1305  keccak256(\"STUDENT\") */\n      0xc951d7098b66ba0b8b77265b6e9cf0e187d73125a42bcd0061b09a68be421810\n        /* \"contracts/studentmanager/TuitionContract.sol\":1307:1317  msg.sender */\n      caller\n        /* \"contracts/studentmanager/TuitionContract.sol\":1262:1318  accessControll.hasRole(keccak256(\"STUDENT\"), msg.sender) */\n      mload(0x40)\n      dup4\n      0xffffffff\n      and\n      0xe0\n      shl\n      dup2\n      mstore\n      0x04\n      add\n      tag_187\n      swap3\n      swap2\n      swap1\n      tag_100\n      jump\t// in\n    tag_187:\n      0x20\n      mload(0x40)\n      dup1\n      dup4\n      sub\n      dup2\n      dup7\n      dup1\n      extcodesize\n      iszero\n      dup1\n      iszero\n      tag_188\n      jumpi\n      0x00\n      dup1\n      revert\n    tag_188:\n      pop\n      gas\n      staticcall\n      iszero\n      dup1\n      iszero\n      tag_190\n      jumpi\n      returndatasize\n      0x00\n      dup1\n      returndatacopy\n      revert(0x00, returndatasize)\n    tag_190:\n      pop\n      pop\n      pop\n      pop\n      mload(0x40)\n      returndatasize\n      not(0x1f)\n      0x1f\n      dup3\n      add\n      and\n      dup3\n      add\n      dup1\n      0x40\n      mstore\n      pop\n      dup2\n      add\n      swap1\n      tag_191\n      swap2\n      swap1\n      tag_105\n      jump\t// in\n    tag_191:\n        /* \"contracts/studentmanager/TuitionContract.sol\":1240:1362  require(\r... */\n      tag_192\n      jumpi\n      mload(0x40)\n      0x08c379a000000000000000000000000000000000000000000000000000000000\n      dup2\n      mstore\n      0x04\n      add\n      tag_193\n      swap1\n      tag_194\n      jump\t// in\n    tag_193:\n      mload(0x40)\n      dup1\n      swap2\n      sub\n      swap1\n      revert\n    tag_192:\n        /* \"contracts/studentmanager/TuitionContract.sol\":3359:3376  participantToTrue */\n      0x0b\n        /* \"contracts/studentmanager/TuitionContract.sol\":3359:3388  participantToTrue[msg.sender] */\n      0x00\n        /* \"contracts/studentmanager/TuitionContract.sol\":3377:3387  msg.sender */\n      caller\n        /* \"contracts/studentmanager/TuitionContract.sol\":3359:3388  participantToTrue[msg.sender] */\n      0xffffffffffffffffffffffffffffffffffffffff\n      and\n      0xffffffffffffffffffffffffffffffffffffffff\n      and\n      dup2\n      mstore\n      0x20\n      add\n      swap1\n      dup2\n      mstore\n      0x20\n      add\n      0x00\n      keccak256\n      0x00\n      swap1\n      sload\n      swap1\n      0x0100\n      exp\n      swap1\n      div\n      0xff\n      and\n        /* \"contracts/studentmanager/TuitionContract.sol\":3358:3388  !participantToTrue[msg.sender] */\n      iszero\n        /* \"contracts/studentmanager/TuitionContract.sol\":3350:3413  require(!participantToTrue[msg.sender], \"TC: You paid tuition\") */\n      tag_196\n      jumpi\n      mload(0x40)\n      0x08c379a000000000000000000000000000000000000000000000000000000000\n      dup2\n      mstore\n      0x04\n      add\n      tag_197\n      swap1\n      tag_198\n      jump\t// in\n    tag_197:\n      mload(0x40)\n      dup1\n      swap2\n      sub\n      swap1\n      revert\n    tag_196:\n        /* \"contracts/studentmanager/TuitionContract.sol\":3424:3558  IERC20(UITToken).safeTransferFrom(\r... */\n      tag_199\n        /* \"contracts/studentmanager/TuitionContract.sol\":3472:3482  msg.sender */\n      caller\n        /* \"contracts/studentmanager/TuitionContract.sol\":3497:3514  rewardDistributor */\n      0x07\n      0x00\n      swap1\n      sload\n      swap1\n      0x0100\n      exp\n      swap1\n      div\n      0xffffffffffffffffffffffffffffffffffffffff\n      and\n        /* \"contracts/studentmanager/TuitionContract.sol\":3529:3536  tuition */\n      0x00\n        /* \"contracts/studentmanager/TuitionContract.sol\":3529:3547  tuition.feeByToken */\n      0x02\n      add\n      sload\n        /* \"contracts/studentmanager/TuitionContract.sol\":3431:3439  UITToken */\n      0x05\n      0x01\n      swap1\n      sload\n      swap1\n      0x0100\n      exp\n      swap1\n      div\n      0xffffffffffffffffffffffffffffffffffffffff\n      and\n        /* \"contracts/studentmanager/TuitionContract.sol\":3424:3457  IERC20(UITToken).safeTransferFrom */\n      0xffffffffffffffffffffffffffffffffffffffff\n      and\n      tag_200\n      swap1\n        /* \"contracts/studentmanager/TuitionContract.sol\":3424:3558  IERC20(UITToken).safeTransferFrom(\r... */\n      swap4\n      swap3\n      swap2\n      swap1\n      0xffffffff\n      and\n      jump\t// in\n    tag_199:\n        /* \"contracts/studentmanager/TuitionContract.sol\":3600:3604  true */\n      0x01\n        /* \"contracts/studentmanager/TuitionContract.sol\":3569:3585  completedAddress */\n      0x0c\n        /* \"contracts/studentmanager/TuitionContract.sol\":3569:3597  completedAddress[msg.sender] */\n      0x00\n        /* \"contracts/studentmanager/TuitionContract.sol\":3586:3596  msg.sender */\n      caller\n        /* \"contracts/studentmanager/TuitionContract.sol\":3569:3597  completedAddress[msg.sender] */\n      0xffffffffffffffffffffffffffffffffffffffff\n      and\n      0xffffffffffffffffffffffffffffffffffffffff\n      and\n      dup2\n      mstore\n      0x20\n      add\n      swap1\n      dup2\n      mstore\n      0x20\n      add\n      0x00\n      keccak256\n      0x00\n        /* \"contracts/studentmanager/TuitionContract.sol\":3569:3604  completedAddress[msg.sender] = true */\n      0x0100\n      exp\n      dup2\n      sload\n      dup2\n      0xff\n      mul\n      not\n      and\n      swap1\n      dup4\n      iszero\n      iszero\n      mul\n      or\n      swap1\n      sstore\n      pop\n        /* \"contracts/studentmanager/TuitionContract.sol\":3620:3677  Payment(msg.sender, block.timestamp, PaymentMethod.Token) */\n      0x34f914f46f0a40eb0e7b1396063b87a1819f28ed7b5a63829d59f41eba61a1ae\n        /* \"contracts/studentmanager/TuitionContract.sol\":3628:3638  msg.sender */\n      caller\n        /* \"contracts/studentmanager/TuitionContract.sol\":3640:3655  block.timestamp */\n      timestamp\n        /* \"contracts/studentmanager/TuitionContract.sol\":3657:3676  PaymentMethod.Token */\n      0x00\n        /* \"contracts/studentmanager/TuitionContract.sol\":3620:3677  Payment(msg.sender, block.timestamp, PaymentMethod.Token) */\n      mload(0x40)\n      tag_201\n      swap4\n      swap3\n      swap2\n      swap1\n      tag_202\n      jump\t// in\n    tag_201:\n      mload(0x40)\n      dup1\n      swap2\n      sub\n      swap1\n      log1\n        /* \"contracts/studentmanager/TuitionContract.sol\":3279:3685  function paymentByToken() external override onlyRoleStudent {\r... */\n      jump\t// out\n        /* \"contracts/studentmanager/TuitionContract.sol\":2963:3271  function removeStudentFromTuition(address _student) external onlyRoleAdmin {\r... */\n    tag_54:\n        /* \"contracts/studentmanager/TuitionContract.sol\":1075:1089  accessControll */\n      0x06\n      0x00\n      swap1\n      sload\n      swap1\n      0x0100\n      exp\n      swap1\n      div\n      0xffffffffffffffffffffffffffffffffffffffff\n      and\n        /* \"contracts/studentmanager/TuitionContract.sol\":1075:1097  accessControll.hasRole */\n      0xffffffffffffffffffffffffffffffffffffffff\n      and\n      0x91d14854\n        /* \"contracts/studentmanager/TuitionContract.sol\":1098:1116  keccak256(\"ADMIN\") */\n      0xdf8b4c520ffe197c5343c6f5aec59570151ef9a492f2c624fd45ddde6135ec42\n        /* \"contracts/studentmanager/TuitionContract.sol\":1118:1128  msg.sender */\n      caller\n        /* \"contracts/studentmanager/TuitionContract.sol\":1075:1129  accessControll.hasRole(keccak256(\"ADMIN\"), msg.sender) */\n      mload(0x40)\n      dup4\n      0xffffffff\n      and\n      0xe0\n      shl\n      dup2\n      mstore\n      0x04\n      add\n      tag_204\n      swap3\n      swap2\n      swap1\n      tag_100\n      jump\t// in\n    tag_204:\n      0x20\n      mload(0x40)\n      dup1\n      dup4\n      sub\n      dup2\n      dup7\n      dup1\n      extcodesize\n      iszero\n      dup1\n      iszero\n      tag_205\n      jumpi\n      0x00\n      dup1\n      revert\n    tag_205:\n      pop\n      gas\n      staticcall\n      iszero\n      dup1\n      iszero\n      tag_207\n      jumpi\n      returndatasize\n      0x00\n      dup1\n      returndatacopy\n      revert(0x00, returndatasize)\n    tag_207:\n      pop\n      pop\n      pop\n      pop\n      mload(0x40)\n      returndatasize\n      not(0x1f)\n      0x1f\n      dup3\n      add\n      and\n      dup3\n      add\n      dup1\n      0x40\n      mstore\n      pop\n      dup2\n      add\n      swap1\n      tag_208\n      swap2\n      swap1\n      tag_105\n      jump\t// in\n    tag_208:\n        /* \"contracts/studentmanager/TuitionContract.sol\":1053:1174  require(\r... */\n      tag_209\n      jumpi\n      mload(0x40)\n      0x08c379a000000000000000000000000000000000000000000000000000000000\n      dup2\n      mstore\n      0x04\n      add\n      tag_210\n      swap1\n      tag_108\n      jump\t// in\n    tag_210:\n      mload(0x40)\n      dup1\n      swap2\n      sub\n      swap1\n      revert\n    tag_209:\n        /* \"contracts/studentmanager/TuitionContract.sol\":3057:3074  participantToTrue */\n      0x0b\n        /* \"contracts/studentmanager/TuitionContract.sol\":3057:3084  participantToTrue[_student] */\n      0x00\n        /* \"contracts/studentmanager/TuitionContract.sol\":3075:3083  _student */\n      dup3\n        /* \"contracts/studentmanager/TuitionContract.sol\":3057:3084  participantToTrue[_student] */\n      0xffffffffffffffffffffffffffffffffffffffff\n      and\n      0xffffffffffffffffffffffffffffffffffffffff\n      and\n      dup2\n      mstore\n      0x20\n      add\n      swap1\n      dup2\n      mstore\n      0x20\n      add\n      0x00\n      keccak256\n      0x00\n      swap1\n      sload\n      swap1\n      0x0100\n      exp\n      swap1\n      div\n      0xff\n      and\n        /* \"contracts/studentmanager/TuitionContract.sol\":3049:3106  require(participantToTrue[_student], \"Error when remove\") */\n      tag_212\n      jumpi\n      mload(0x40)\n      0x08c379a000000000000000000000000000000000000000000000000000000000\n      dup2\n      mstore\n      0x04\n      add\n      tag_213\n      swap1\n      tag_214\n      jump\t// in\n    tag_213:\n      mload(0x40)\n      dup1\n      swap2\n      sub\n      swap1\n      revert\n    tag_212:\n        /* \"contracts/studentmanager/TuitionContract.sol\":3117:3130  uint256 index */\n      0x00\n        /* \"contracts/studentmanager/TuitionContract.sol\":3133:3151  participantToIndex */\n      0x0a\n        /* \"contracts/studentmanager/TuitionContract.sol\":3133:3161  participantToIndex[_student] */\n      0x00\n        /* \"contracts/studentmanager/TuitionContract.sol\":3152:3160  _student */\n      dup4\n        /* \"contracts/studentmanager/TuitionContract.sol\":3133:3161  participantToIndex[_student] */\n      0xffffffffffffffffffffffffffffffffffffffff\n      and\n      0xffffffffffffffffffffffffffffffffffffffff\n      and\n      dup2\n      mstore\n      0x20\n      add\n      swap1\n      dup2\n      mstore\n      0x20\n      add\n      0x00\n      keccak256\n      sload\n        /* \"contracts/studentmanager/TuitionContract.sol\":3117:3161  uint256 index = participantToIndex[_student] */\n      swap1\n      pop\n        /* \"contracts/studentmanager/TuitionContract.sol\":3172:3178  amount */\n      0x09\n      0x00\n        /* \"contracts/studentmanager/TuitionContract.sol\":3172:3180  amount-- */\n      dup2\n      sload\n      dup1\n      swap3\n      swap2\n      swap1\n      tag_215\n      swap1\n      tag_216\n      jump\t// in\n    tag_215:\n      swap2\n      swap1\n      pop\n      sstore\n      pop\n        /* \"contracts/studentmanager/TuitionContract.sol\":3221:3226  false */\n      0x00\n        /* \"contracts/studentmanager/TuitionContract.sol\":3191:3208  participantToTrue */\n      0x0b\n        /* \"contracts/studentmanager/TuitionContract.sol\":3191:3218  participantToTrue[_student] */\n      0x00\n        /* \"contracts/studentmanager/TuitionContract.sol\":3209:3217  _student */\n      dup5\n        /* \"contracts/studentmanager/TuitionContract.sol\":3191:3218  participantToTrue[_student] */\n      0xffffffffffffffffffffffffffffffffffffffff\n      and\n      0xffffffffffffffffffffffffffffffffffffffff\n      and\n      dup2\n      mstore\n      0x20\n      add\n      swap1\n      dup2\n      mstore\n      0x20\n      add\n      0x00\n      keccak256\n      0x00\n        /* \"contracts/studentmanager/TuitionContract.sol\":3191:3226  participantToTrue[_student] = false */\n      0x0100\n      exp\n      dup2\n      sload\n      dup2\n      0xff\n      mul\n      not\n      and\n      swap1\n      dup4\n      iszero\n      iszero\n      mul\n      or\n      swap1\n      sstore\n      pop\n        /* \"contracts/studentmanager/TuitionContract.sol\":3244:3256  participants */\n      0x08\n        /* \"contracts/studentmanager/TuitionContract.sol\":3257:3262  index */\n      dup2\n        /* \"contracts/studentmanager/TuitionContract.sol\":3244:3263  participants[index] */\n      dup2\n      sload\n      dup2\n      lt\n      tag_217\n      jumpi\n      tag_218\n      tag_124\n      jump\t// in\n    tag_218:\n    tag_217:\n      swap1\n      0x00\n      mstore\n      keccak256(0x00, 0x20)\n      add\n      0x00\n        /* \"contracts/studentmanager/TuitionContract.sol\":3237:3263  delete participants[index] */\n      0x0100\n      exp\n      dup2\n      sload\n      swap1\n      0xffffffffffffffffffffffffffffffffffffffff\n      mul\n      not\n      and\n      swap1\n      sstore\n        /* \"contracts/studentmanager/TuitionContract.sol\":3038:3271  {\r... */\n      pop\n        /* \"contracts/studentmanager/TuitionContract.sol\":2963:3271  function removeStudentFromTuition(address _student) external onlyRoleAdmin {\r... */\n      pop\n      jump\t// out\n        /* \"contracts/studentmanager/TuitionContract.sol\":244:274  address public immutable owner */\n    tag_56:\n      immutable(\"0x1bd24dd6132ee48d988d9af2a2861e14cfa127f735144972abbc68ba40aae435\")\n      dup2\n      jump\t// out\n        /* \"contracts/studentmanager/TuitionContract.sol\":647:694  mapping(address =>bool) public completedAddress */\n    tag_60:\n      mstore(0x20, 0x0c)\n      dup1\n      0x00\n      mstore\n      keccak256(0x00, 0x40)\n      0x00\n      swap2\n      pop\n      sload\n      swap1\n      0x0100\n      exp\n      swap1\n      div\n      0xff\n      and\n      dup2\n      jump\t// out\n        /* \"contracts/studentmanager/TuitionContract.sol\":4596:5040  function getParticipantListCompleted()\r... */\n    tag_64:\n        /* \"contracts/studentmanager/TuitionContract.sol\":4683:4699  address[] memory */\n      0x60\n        /* \"contracts/studentmanager/TuitionContract.sol\":4717:4741  address[] memory student */\n      0x00\n        /* \"contracts/studentmanager/TuitionContract.sol\":4758:4764  amount */\n      sload(0x09)\n        /* \"contracts/studentmanager/TuitionContract.sol\":4744:4765  new address[](amount) */\n      0xffffffffffffffff\n      dup2\n      gt\n      iszero\n      tag_221\n      jumpi\n      tag_222\n      tag_223\n      jump\t// in\n    tag_222:\n    tag_221:\n      mload(0x40)\n      swap1\n      dup1\n      dup3\n      mstore\n      dup1\n      0x20\n      mul\n      0x20\n      add\n      dup3\n      add\n      0x40\n      mstore\n      dup1\n      iszero\n      tag_224\n      jumpi\n      dup2\n      0x20\n      add\n      0x20\n      dup3\n      mul\n      dup1\n      calldatasize\n      dup4\n      calldatacopy\n      dup1\n      dup3\n      add\n      swap2\n      pop\n      pop\n      swap1\n      pop\n    tag_224:\n      pop\n        /* \"contracts/studentmanager/TuitionContract.sol\":4717:4765  address[] memory student = new address[](amount) */\n      swap1\n      pop\n        /* \"contracts/studentmanager/TuitionContract.sol\":4776:4789  uint256 index */\n      0x00\n        /* \"contracts/studentmanager/TuitionContract.sol\":4805:4814  uint256 i */\n      dup1\n        /* \"contracts/studentmanager/TuitionContract.sol\":4817:4818  0 */\n      0x00\n        /* \"contracts/studentmanager/TuitionContract.sol\":4805:4818  uint256 i = 0 */\n      swap1\n      pop\n        /* \"contracts/studentmanager/TuitionContract.sol\":4800:5008  for (uint256 i = 0; i < participants.length; i++) {\r... */\n    tag_225:\n        /* \"contracts/studentmanager/TuitionContract.sol\":4824:4836  participants */\n      0x08\n        /* \"contracts/studentmanager/TuitionContract.sol\":4824:4843  participants.length */\n      dup1\n      sload\n      swap1\n      pop\n        /* \"contracts/studentmanager/TuitionContract.sol\":4820:4821  i */\n      dup2\n        /* \"contracts/studentmanager/TuitionContract.sol\":4820:4843  i < participants.length */\n      lt\n        /* \"contracts/studentmanager/TuitionContract.sol\":4800:5008  for (uint256 i = 0; i < participants.length; i++) {\r... */\n      iszero\n      tag_226\n      jumpi\n        /* \"contracts/studentmanager/TuitionContract.sol\":4869:4885  completedAddress */\n      0x0c\n        /* \"contracts/studentmanager/TuitionContract.sol\":4869:4902  completedAddress[participants[i]] */\n      0x00\n        /* \"contracts/studentmanager/TuitionContract.sol\":4886:4898  participants */\n      0x08\n        /* \"contracts/studentmanager/TuitionContract.sol\":4899:4900  i */\n      dup4\n        /* \"contracts/studentmanager/TuitionContract.sol\":4886:4901  participants[i] */\n      dup2\n      sload\n      dup2\n      lt\n      tag_228\n      jumpi\n      tag_229\n      tag_124\n      jump\t// in\n    tag_229:\n    tag_228:\n      swap1\n      0x00\n      mstore\n      keccak256(0x00, 0x20)\n      add\n      0x00\n      swap1\n      sload\n      swap1\n      0x0100\n      exp\n      swap1\n      div\n      0xffffffffffffffffffffffffffffffffffffffff\n      and\n        /* \"contracts/studentmanager/TuitionContract.sol\":4869:4902  completedAddress[participants[i]] */\n      0xffffffffffffffffffffffffffffffffffffffff\n      and\n      0xffffffffffffffffffffffffffffffffffffffff\n      and\n      dup2\n      mstore\n      0x20\n      add\n      swap1\n      dup2\n      mstore\n      0x20\n      add\n      0x00\n      keccak256\n      0x00\n      swap1\n      sload\n      swap1\n      0x0100\n      exp\n      swap1\n      div\n      0xff\n      and\n        /* \"contracts/studentmanager/TuitionContract.sol\":4865:4997  if (completedAddress[participants[i]]) {\r... */\n      iszero\n      tag_231\n      jumpi\n        /* \"contracts/studentmanager/TuitionContract.sol\":4940:4952  participants */\n      0x08\n        /* \"contracts/studentmanager/TuitionContract.sol\":4953:4954  i */\n      dup2\n        /* \"contracts/studentmanager/TuitionContract.sol\":4940:4955  participants[i] */\n      dup2\n      sload\n      dup2\n      lt\n      tag_232\n      jumpi\n      tag_233\n      tag_124\n      jump\t// in\n    tag_233:\n    tag_232:\n      swap1\n      0x00\n      mstore\n      keccak256(0x00, 0x20)\n      add\n      0x00\n      swap1\n      sload\n      swap1\n      0x0100\n      exp\n      swap1\n      div\n      0xffffffffffffffffffffffffffffffffffffffff\n      and\n        /* \"contracts/studentmanager/TuitionContract.sol\":4923:4930  student */\n      dup4\n        /* \"contracts/studentmanager/TuitionContract.sol\":4931:4936  index */\n      dup4\n        /* \"contracts/studentmanager/TuitionContract.sol\":4923:4937  student[index] */\n      dup2\n      mload\n      dup2\n      lt\n      tag_235\n      jumpi\n      tag_236\n      tag_124\n      jump\t// in\n    tag_236:\n    tag_235:\n      0x20\n      mul\n      0x20\n      add\n      add\n        /* \"contracts/studentmanager/TuitionContract.sol\":4923:4955  student[index] = participants[i] */\n      swap1\n      0xffffffffffffffffffffffffffffffffffffffff\n      and\n      swap1\n      dup2\n      0xffffffffffffffffffffffffffffffffffffffff\n      and\n      dup2\n      mstore\n      pop\n      pop\n        /* \"contracts/studentmanager/TuitionContract.sol\":4974:4981  index++ */\n      dup2\n      dup1\n      tag_237\n      swap1\n      tag_153\n      jump\t// in\n    tag_237:\n      swap3\n      pop\n      pop\n        /* \"contracts/studentmanager/TuitionContract.sol\":4865:4997  if (completedAddress[participants[i]]) {\r... */\n    tag_231:\n        /* \"contracts/studentmanager/TuitionContract.sol\":4845:4848  i++ */\n      dup1\n      dup1\n      tag_238\n      swap1\n      tag_153\n      jump\t// in\n    tag_238:\n      swap2\n      pop\n      pop\n        /* \"contracts/studentmanager/TuitionContract.sol\":4800:5008  for (uint256 i = 0; i < participants.length; i++) {\r... */\n      jump(tag_225)\n    tag_226:\n      pop\n        /* \"contracts/studentmanager/TuitionContract.sol\":5025:5032  student */\n      dup2\n        /* \"contracts/studentmanager/TuitionContract.sol\":5018:5032  return student */\n      swap3\n      pop\n      pop\n      pop\n        /* \"contracts/studentmanager/TuitionContract.sol\":4596:5040  function getParticipantListCompleted()\r... */\n      swap1\n      jump\t// out\n        /* \"contracts/studentmanager/TuitionContract.sol\":281:303  Tuition public tuition */\n    tag_68:\n      0x00\n      dup1\n      0x00\n      add\n      sload\n      swap1\n      dup1\n      0x01\n      add\n      dup1\n      sload\n      tag_239\n      swap1\n      tag_240\n      jump\t// in\n    tag_239:\n      dup1\n      0x1f\n      add\n      0x20\n      dup1\n      swap2\n      div\n      mul\n      0x20\n      add\n      mload(0x40)\n      swap1\n      dup2\n      add\n      0x40\n      mstore\n      dup1\n      swap3\n      swap2\n      swap1\n      dup2\n      dup2\n      mstore\n      0x20\n      add\n      dup3\n      dup1\n      sload\n      tag_241\n      swap1\n      tag_240\n      jump\t// in\n    tag_241:\n      dup1\n      iszero\n      tag_242\n      jumpi\n      dup1\n      0x1f\n      lt\n      tag_243\n      jumpi\n      0x0100\n      dup1\n      dup4\n      sload\n      div\n      mul\n      dup4\n      mstore\n      swap2\n      0x20\n      add\n      swap2\n      jump(tag_242)\n    tag_243:\n      dup3\n      add\n      swap2\n      swap1\n      0x00\n      mstore\n      keccak256(0x00, 0x20)\n      swap1\n    tag_244:\n      dup2\n      sload\n      dup2\n      mstore\n      swap1\n      0x01\n      add\n      swap1\n      0x20\n      add\n      dup1\n      dup4\n      gt\n      tag_244\n      jumpi\n      dup3\n      swap1\n      sub\n      0x1f\n      and\n      dup3\n      add\n      swap2\n    tag_242:\n      pop\n      pop\n      pop\n      pop\n      pop\n      swap1\n      dup1\n      0x02\n      add\n      sload\n      swap1\n      dup1\n      0x03\n      add\n      sload\n      swap1\n      dup1\n      0x04\n      add\n      sload\n      swap1\n      pop\n      dup6\n      jump\t// out\n        /* \"contracts/studentmanager/TuitionContract.sol\":383:419  IAccessControl public accessControll */\n    tag_72:\n      0x06\n      0x00\n      swap1\n      sload\n      swap1\n      0x0100\n      exp\n      swap1\n      div\n      0xffffffffffffffffffffffffffffffffffffffff\n      and\n      dup2\n      jump\t// out\n        /* \"contracts/studentmanager/TuitionContract.sol\":503:524  uint256 public amount */\n    tag_76:\n      sload(0x09)\n      dup2\n      jump\t// out\n        /* \"contracts/studentmanager/TuitionContract.sol\":426:458  address public rewardDistributor */\n    tag_80:\n      0x07\n      0x00\n      swap1\n      sload\n      swap1\n      0x0100\n      exp\n      swap1\n      div\n      0xffffffffffffffffffffffffffffffffffffffff\n      and\n      dup2\n      jump\t// out\n        /* \"contracts/studentmanager/TuitionContract.sol\":591:640  mapping(address => bool) public participantToTrue */\n    tag_84:\n      mstore(0x20, 0x0b)\n      dup1\n      0x00\n      mstore\n      keccak256(0x00, 0x40)\n      0x00\n      swap2\n      pop\n      sload\n      swap1\n      0x0100\n      exp\n      swap1\n      div\n      0xff\n      and\n      dup2\n      jump\t// out\n        /* \"contracts/studentmanager/TuitionContract.sol\":2267:2360  function start() external override onlyOwner onlyLock {\r... */\n    tag_87:\n        /* \"contracts/studentmanager/TuitionContract.sol\":969:974  owner */\n      immutable(\"0x1bd24dd6132ee48d988d9af2a2861e14cfa127f735144972abbc68ba40aae435\")\n        /* \"contracts/studentmanager/TuitionContract.sol\":955:974  msg.sender == owner */\n      0xffffffffffffffffffffffffffffffffffffffff\n      and\n        /* \"contracts/studentmanager/TuitionContract.sol\":955:965  msg.sender */\n      caller\n        /* \"contracts/studentmanager/TuitionContract.sol\":955:974  msg.sender == owner */\n      0xffffffffffffffffffffffffffffffffffffffff\n      and\n      eq\n        /* \"contracts/studentmanager/TuitionContract.sol\":947:989  require(msg.sender == owner, \"Only Owner\") */\n      tag_246\n      jumpi\n      mload(0x40)\n      0x08c379a000000000000000000000000000000000000000000000000000000000\n      dup2\n      mstore\n      0x04\n      add\n      tag_247\n      swap1\n      tag_158\n      jump\t// in\n    tag_247:\n      mload(0x40)\n      dup1\n      swap2\n      sub\n      swap1\n      revert\n    tag_246:\n        /* \"contracts/studentmanager/TuitionContract.sol\":752:763  Status.Lock */\n      0x00\n        /* \"contracts/studentmanager/TuitionContract.sol\":742:763  status == Status.Lock */\n      0x02\n      dup2\n      gt\n      iszero\n      tag_249\n      jumpi\n      tag_250\n      tag_112\n      jump\t// in\n    tag_250:\n    tag_249:\n        /* \"contracts/studentmanager/TuitionContract.sol\":742:748  status */\n      0x05\n      0x00\n      swap1\n      sload\n      swap1\n      0x0100\n      exp\n      swap1\n      div\n      0xff\n      and\n        /* \"contracts/studentmanager/TuitionContract.sol\":742:763  status == Status.Lock */\n      0x02\n      dup2\n      gt\n      iszero\n      tag_251\n      jumpi\n      tag_252\n      tag_112\n      jump\t// in\n    tag_252:\n    tag_251:\n      eq\n        /* \"contracts/studentmanager/TuitionContract.sol\":734:781  require(status == Status.Lock, \"MC: Only Lock\") */\n      tag_253\n      jumpi\n      mload(0x40)\n      0x08c379a000000000000000000000000000000000000000000000000000000000\n      dup2\n      mstore\n      0x04\n      add\n      tag_254\n      swap1\n      tag_166\n      jump\t// in\n    tag_254:\n      mload(0x40)\n      dup1\n      swap2\n      sub\n      swap1\n      revert\n    tag_253:\n        /* \"contracts/studentmanager/TuitionContract.sol\":2341:2352  Status.Open */\n      0x01\n        /* \"contracts/studentmanager/TuitionContract.sol\":2332:2338  status */\n      0x05\n      0x00\n        /* \"contracts/studentmanager/TuitionContract.sol\":2332:2352  status = Status.Open */\n      0x0100\n      exp\n      dup2\n      sload\n      dup2\n      0xff\n      mul\n      not\n      and\n      swap1\n      dup4\n      0x02\n      dup2\n      gt\n      iszero\n      tag_256\n      jumpi\n      tag_257\n      tag_112\n      jump\t// in\n    tag_257:\n    tag_256:\n      mul\n      or\n      swap1\n      sstore\n      pop\n        /* \"contracts/studentmanager/TuitionContract.sol\":2267:2360  function start() external override onlyOwner onlyLock {\r... */\n      jump\t// out\n        /* \"contracts/studentmanager/TuitionContract.sol\":531:584  mapping(address => uint256) public participantToIndex */\n    tag_90:\n      mstore(0x20, 0x0a)\n      dup1\n      0x00\n      mstore\n      keccak256(0x00, 0x40)\n      0x00\n      swap2\n      pop\n      swap1\n      pop\n      sload\n      dup2\n      jump\t// out\n        /* \"contracts/studentmanager/TuitionContract.sol\":4142:4588  function getParticipantList() public view override returns (address[] memory) {\r... */\n    tag_93:\n        /* \"contracts/studentmanager/TuitionContract.sol\":4202:4218  address[] memory */\n      0x60\n        /* \"contracts/studentmanager/TuitionContract.sol\":4231:4255  address[] memory student */\n      0x00\n        /* \"contracts/studentmanager/TuitionContract.sol\":4272:4278  amount */\n      sload(0x09)\n        /* \"contracts/studentmanager/TuitionContract.sol\":4258:4279  new address[](amount) */\n      0xffffffffffffffff\n      dup2\n      gt\n      iszero\n      tag_259\n      jumpi\n      tag_260\n      tag_223\n      jump\t// in\n    tag_260:\n    tag_259:\n      mload(0x40)\n      swap1\n      dup1\n      dup3\n      mstore\n      dup1\n      0x20\n      mul\n      0x20\n      add\n      dup3\n      add\n      0x40\n      mstore\n      dup1\n      iszero\n      tag_261\n      jumpi\n      dup2\n      0x20\n      add\n      0x20\n      dup3\n      mul\n      dup1\n      calldatasize\n      dup4\n      calldatacopy\n      dup1\n      dup3\n      add\n      swap2\n      pop\n      pop\n      swap1\n      pop\n    tag_261:\n      pop\n        /* \"contracts/studentmanager/TuitionContract.sol\":4231:4279  address[] memory student = new address[](amount) */\n      swap1\n      pop\n        /* \"contracts/studentmanager/TuitionContract.sol\":4290:4303  uint256 index */\n      0x00\n        /* \"contracts/studentmanager/TuitionContract.sol\":4319:4328  uint256 i */\n      dup1\n        /* \"contracts/studentmanager/TuitionContract.sol\":4331:4332  0 */\n      0x00\n        /* \"contracts/studentmanager/TuitionContract.sol\":4319:4332  uint256 i = 0 */\n      swap1\n      pop\n        /* \"contracts/studentmanager/TuitionContract.sol\":4314:4556  for (uint256 i = 0; i < participants.length; i++) {\r... */\n    tag_262:\n        /* \"contracts/studentmanager/TuitionContract.sol\":4338:4350  participants */\n      0x08\n        /* \"contracts/studentmanager/TuitionContract.sol\":4338:4357  participants.length */\n      dup1\n      sload\n      swap1\n      pop\n        /* \"contracts/studentmanager/TuitionContract.sol\":4334:4335  i */\n      dup2\n        /* \"contracts/studentmanager/TuitionContract.sol\":4334:4357  i < participants.length */\n      lt\n        /* \"contracts/studentmanager/TuitionContract.sol\":4314:4556  for (uint256 i = 0; i < participants.length; i++) {\r... */\n      iszero\n      tag_263\n      jumpi\n        /* \"contracts/studentmanager/TuitionContract.sol\":4383:4400  participantToTrue */\n      0x0b\n        /* \"contracts/studentmanager/TuitionContract.sol\":4383:4417  participantToTrue[participants[i]] */\n      0x00\n        /* \"contracts/studentmanager/TuitionContract.sol\":4401:4413  participants */\n      0x08\n        /* \"contracts/studentmanager/TuitionContract.sol\":4414:4415  i */\n      dup4\n        /* \"contracts/studentmanager/TuitionContract.sol\":4401:4416  participants[i] */\n      dup2\n      sload\n      dup2\n      lt\n      tag_265\n      jumpi\n      tag_266\n      tag_124\n      jump\t// in\n    tag_266:\n    tag_265:\n      swap1\n      0x00\n      mstore\n      keccak256(0x00, 0x20)\n      add\n      0x00\n      swap1\n      sload\n      swap1\n      0x0100\n      exp\n      swap1\n      div\n      0xffffffffffffffffffffffffffffffffffffffff\n      and\n        /* \"contracts/studentmanager/TuitionContract.sol\":4383:4417  participantToTrue[participants[i]] */\n      0xffffffffffffffffffffffffffffffffffffffff\n      and\n      0xffffffffffffffffffffffffffffffffffffffff\n      and\n      dup2\n      mstore\n      0x20\n      add\n      swap1\n      dup2\n      mstore\n      0x20\n      add\n      0x00\n      keccak256\n      0x00\n      swap1\n      sload\n      swap1\n      0x0100\n      exp\n      swap1\n      div\n      0xff\n      and\n        /* \"contracts/studentmanager/TuitionContract.sol\":4383:4450  participantToTrue[participants[i]] && participants[i] != address(0) */\n      dup1\n      iszero\n      tag_268\n      jumpi\n      pop\n        /* \"contracts/studentmanager/TuitionContract.sol\":4448:4449  0 */\n      0x00\n        /* \"contracts/studentmanager/TuitionContract.sol\":4421:4450  participants[i] != address(0) */\n      0xffffffffffffffffffffffffffffffffffffffff\n      and\n        /* \"contracts/studentmanager/TuitionContract.sol\":4421:4433  participants */\n      0x08\n        /* \"contracts/studentmanager/TuitionContract.sol\":4434:4435  i */\n      dup3\n        /* \"contracts/studentmanager/TuitionContract.sol\":4421:4436  participants[i] */\n      dup2\n      sload\n      dup2\n      lt\n      tag_269\n      jumpi\n      tag_270\n      tag_124\n      jump\t// in\n    tag_270:\n    tag_269:\n      swap1\n      0x00\n      mstore\n      keccak256(0x00, 0x20)\n      add\n      0x00\n      swap1\n      sload\n      swap1\n      0x0100\n      exp\n      swap1\n      div\n      0xffffffffffffffffffffffffffffffffffffffff\n      and\n        /* \"contracts/studentmanager/TuitionContract.sol\":4421:4450  participants[i] != address(0) */\n      0xffffffffffffffffffffffffffffffffffffffff\n      and\n      eq\n      iszero\n        /* \"contracts/studentmanager/TuitionContract.sol\":4383:4450  participantToTrue[participants[i]] && participants[i] != address(0) */\n    tag_268:\n        /* \"contracts/studentmanager/TuitionContract.sol\":4379:4545  if (participantToTrue[participants[i]] && participants[i] != address(0)) {\r... */\n      iszero\n      tag_272\n      jumpi\n        /* \"contracts/studentmanager/TuitionContract.sol\":4488:4500  participants */\n      0x08\n        /* \"contracts/studentmanager/TuitionContract.sol\":4501:4502  i */\n      dup2\n        /* \"contracts/studentmanager/TuitionContract.sol\":4488:4503  participants[i] */\n      dup2\n      sload\n      dup2\n      lt\n      tag_273\n      jumpi\n      tag_274\n      tag_124\n      jump\t// in\n    tag_274:\n    tag_273:\n      swap1\n      0x00\n      mstore\n      keccak256(0x00, 0x20)\n      add\n      0x00\n      swap1\n      sload\n      swap1\n      0x0100\n      exp\n      swap1\n      div\n      0xffffffffffffffffffffffffffffffffffffffff\n      and\n        /* \"contracts/studentmanager/TuitionContract.sol\":4471:4478  student */\n      dup4\n        /* \"contracts/studentmanager/TuitionContract.sol\":4479:4484  index */\n      dup4\n        /* \"contracts/studentmanager/TuitionContract.sol\":4471:4485  student[index] */\n      dup2\n      mload\n      dup2\n      lt\n      tag_276\n      jumpi\n      tag_277\n      tag_124\n      jump\t// in\n    tag_277:\n    tag_276:\n      0x20\n      mul\n      0x20\n      add\n      add\n        /* \"contracts/studentmanager/TuitionContract.sol\":4471:4503  student[index] = participants[i] */\n      swap1\n      0xffffffffffffffffffffffffffffffffffffffff\n      and\n      swap1\n      dup2\n      0xffffffffffffffffffffffffffffffffffffffff\n      and\n      dup2\n      mstore\n      pop\n      pop\n        /* \"contracts/studentmanager/TuitionContract.sol\":4522:4529  index++ */\n      dup2\n      dup1\n      tag_278\n      swap1\n      tag_153\n      jump\t// in\n    tag_278:\n      swap3\n      pop\n      pop\n        /* \"contracts/studentmanager/TuitionContract.sol\":4379:4545  if (participantToTrue[participants[i]] && participants[i] != address(0)) {\r... */\n    tag_272:\n        /* \"contracts/studentmanager/TuitionContract.sol\":4359:4362  i++ */\n      dup1\n      dup1\n      tag_279\n      swap1\n      tag_153\n      jump\t// in\n    tag_279:\n      swap2\n      pop\n      pop\n        /* \"contracts/studentmanager/TuitionContract.sol\":4314:4556  for (uint256 i = 0; i < participants.length; i++) {\r... */\n      jump(tag_262)\n    tag_263:\n      pop\n        /* \"contracts/studentmanager/TuitionContract.sol\":4573:4580  student */\n      dup2\n        /* \"contracts/studentmanager/TuitionContract.sol\":4566:4580  return student */\n      swap3\n      pop\n      pop\n      pop\n        /* \"contracts/studentmanager/TuitionContract.sol\":4142:4588  function getParticipantList() public view override returns (address[] memory) {\r... */\n      swap1\n      jump\t// out\n        /* \"contracts/studentmanager/TuitionContract.sol\":3693:4003  function paymentByCurrency(address student)\r... */\n    tag_97:\n        /* \"contracts/studentmanager/TuitionContract.sol\":1075:1089  accessControll */\n      0x06\n      0x00\n      swap1\n      sload\n      swap1\n      0x0100\n      exp\n      swap1\n      div\n      0xffffffffffffffffffffffffffffffffffffffff\n      and\n        /* \"contracts/studentmanager/TuitionContract.sol\":1075:1097  accessControll.hasRole */\n      0xffffffffffffffffffffffffffffffffffffffff\n      and\n      0x91d14854\n        /* \"contracts/studentmanager/TuitionContract.sol\":1098:1116  keccak256(\"ADMIN\") */\n      0xdf8b4c520ffe197c5343c6f5aec59570151ef9a492f2c624fd45ddde6135ec42\n        /* \"contracts/studentmanager/TuitionContract.sol\":1118:1128  msg.sender */\n      caller\n        /* \"contracts/studentmanager/TuitionContract.sol\":1075:1129  accessControll.hasRole(keccak256(\"ADMIN\"), msg.sender) */\n      mload(0x40)\n      dup4\n      0xffffffff\n      and\n      0xe0\n      shl\n      dup2\n      mstore\n      0x04\n      add\n      tag_281\n      swap3\n      swap2\n      swap1\n      tag_100\n      jump\t// in\n    tag_281:\n      0x20\n      mload(0x40)\n      dup1\n      dup4\n      sub\n      dup2\n      dup7\n      dup1\n      extcodesize\n      iszero\n      dup1\n      iszero\n      tag_282\n      jumpi\n      0x00\n      dup1\n      revert\n    tag_282:\n      pop\n      gas\n      staticcall\n      iszero\n      dup1\n      iszero\n      tag_284\n      jumpi\n      returndatasize\n      0x00\n      dup1\n      returndatacopy\n      revert(0x00, returndatasize)\n    tag_284:\n      pop\n      pop\n      pop\n      pop\n      mload(0x40)\n      returndatasize\n      not(0x1f)\n      0x1f\n      dup3\n      add\n      and\n      dup3\n      add\n      dup1\n      0x40\n      mstore\n      pop\n      dup2\n      add\n      swap1\n      tag_285\n      swap2\n      swap1\n      tag_105\n      jump\t// in\n    tag_285:\n        /* \"contracts/studentmanager/TuitionContract.sol\":1053:1174  require(\r... */\n      tag_286\n      jumpi\n      mload(0x40)\n      0x08c379a000000000000000000000000000000000000000000000000000000000\n      dup2\n      mstore\n      0x04\n      add\n      tag_287\n      swap1\n      tag_108\n      jump\t// in\n    tag_287:\n      mload(0x40)\n      dup1\n      swap2\n      sub\n      swap1\n      revert\n    tag_286:\n        /* \"contracts/studentmanager/TuitionContract.sol\":3821:3838  participantToTrue */\n      0x0b\n        /* \"contracts/studentmanager/TuitionContract.sol\":3821:3847  participantToTrue[student] */\n      0x00\n        /* \"contracts/studentmanager/TuitionContract.sol\":3839:3846  student */\n      dup3\n        /* \"contracts/studentmanager/TuitionContract.sol\":3821:3847  participantToTrue[student] */\n      0xffffffffffffffffffffffffffffffffffffffff\n      and\n      0xffffffffffffffffffffffffffffffffffffffff\n      and\n      dup2\n      mstore\n      0x20\n      add\n      swap1\n      dup2\n      mstore\n      0x20\n      add\n      0x00\n      keccak256\n      0x00\n      swap1\n      sload\n      swap1\n      0x0100\n      exp\n      swap1\n      div\n      0xff\n      and\n        /* \"contracts/studentmanager/TuitionContract.sol\":3820:3847  !participantToTrue[student] */\n      iszero\n        /* \"contracts/studentmanager/TuitionContract.sol\":3812:3876  require(!participantToTrue[student], \"TC: Student paid tuition\") */\n      tag_289\n      jumpi\n      mload(0x40)\n      0x08c379a000000000000000000000000000000000000000000000000000000000\n      dup2\n      mstore\n      0x04\n      add\n      tag_290\n      swap1\n      tag_291\n      jump\t// in\n    tag_290:\n      mload(0x40)\n      dup1\n      swap2\n      sub\n      swap1\n      revert\n    tag_289:\n        /* \"contracts/studentmanager/TuitionContract.sol\":3918:3922  true */\n      0x01\n        /* \"contracts/studentmanager/TuitionContract.sol\":3887:3903  completedAddress */\n      0x0c\n        /* \"contracts/studentmanager/TuitionContract.sol\":3887:3915  completedAddress[msg.sender] */\n      0x00\n        /* \"contracts/studentmanager/TuitionContract.sol\":3904:3914  msg.sender */\n      caller\n        /* \"contracts/studentmanager/TuitionContract.sol\":3887:3915  completedAddress[msg.sender] */\n      0xffffffffffffffffffffffffffffffffffffffff\n      and\n      0xffffffffffffffffffffffffffffffffffffffff\n      and\n      dup2\n      mstore\n      0x20\n      add\n      swap1\n      dup2\n      mstore\n      0x20\n      add\n      0x00\n      keccak256\n      0x00\n        /* \"contracts/studentmanager/TuitionContract.sol\":3887:3922  completedAddress[msg.sender] = true */\n      0x0100\n      exp\n      dup2\n      sload\n      dup2\n      0xff\n      mul\n      not\n      and\n      swap1\n      dup4\n      iszero\n      iszero\n      mul\n      or\n      swap1\n      sstore\n      pop\n        /* \"contracts/studentmanager/TuitionContract.sol\":3938:3995  Payment(student, block.timestamp, PaymentMethod.Currency) */\n      0x34f914f46f0a40eb0e7b1396063b87a1819f28ed7b5a63829d59f41eba61a1ae\n        /* \"contracts/studentmanager/TuitionContract.sol\":3946:3953  student */\n      dup2\n        /* \"contracts/studentmanager/TuitionContract.sol\":3955:3970  block.timestamp */\n      timestamp\n        /* \"contracts/studentmanager/TuitionContract.sol\":3972:3994  PaymentMethod.Currency */\n      0x01\n        /* \"contracts/studentmanager/TuitionContract.sol\":3938:3995  Payment(student, block.timestamp, PaymentMethod.Currency) */\n      mload(0x40)\n      tag_292\n      swap4\n      swap3\n      swap2\n      swap1\n      tag_202\n      jump\t// in\n    tag_292:\n      mload(0x40)\n      dup1\n      swap2\n      sub\n      swap1\n      log1\n        /* \"contracts/studentmanager/TuitionContract.sol\":3693:4003  function paymentByCurrency(address student)\r... */\n      pop\n      jump\t// out\n        /* \"@openzeppelin/contracts/token/ERC20/utils/SafeERC20.sol\":912:1153  function safeTransferFrom(... */\n    tag_200:\n        /* \"@openzeppelin/contracts/token/ERC20/utils/SafeERC20.sol\":1050:1146  _callOptionalReturn(token, abi.encodeWithSelector(token.transferFrom.selector, from, to, value)) */\n      tag_294\n        /* \"@openzeppelin/contracts/token/ERC20/utils/SafeERC20.sol\":1070:1075  token */\n      dup5\n        /* \"@openzeppelin/contracts/token/ERC20/utils/SafeERC20.sol\":1100:1127  token.transferFrom.selector */\n      shl(0xe0, 0x23b872dd)\n        /* \"@openzeppelin/contracts/token/ERC20/utils/SafeERC20.sol\":1129:1133  from */\n      dup6\n        /* \"@openzeppelin/contracts/token/ERC20/utils/SafeERC20.sol\":1135:1137  to */\n      dup6\n        /* \"@openzeppelin/contracts/token/ERC20/utils/SafeERC20.sol\":1139:1144  value */\n      dup6\n        /* \"@openzeppelin/contracts/token/ERC20/utils/SafeERC20.sol\":1077:1145  abi.encodeWithSelector(token.transferFrom.selector, from, to, value) */\n      add(0x24, mload(0x40))\n      tag_295\n      swap4\n      swap3\n      swap2\n      swap1\n      tag_296\n      jump\t// in\n    tag_295:\n      mload(0x40)\n      0x20\n      dup2\n      dup4\n      sub\n      sub\n      dup2\n      mstore\n      swap1\n      0x40\n      mstore\n      swap1\n      not(0xffffffffffffffffffffffffffffffffffffffffffffffffffffffff)\n      and\n      0x20\n      dup3\n      add\n      dup1\n      mload\n      0xffffffffffffffffffffffffffffffffffffffffffffffffffffffff\n      dup4\n      dup2\n      dup4\n      and\n      or\n      dup4\n      mstore\n      pop\n      pop\n      pop\n      pop\n        /* \"@openzeppelin/contracts/token/ERC20/utils/SafeERC20.sol\":1050:1069  _callOptionalReturn */\n      tag_297\n        /* \"@openzeppelin/contracts/token/ERC20/utils/SafeERC20.sol\":1050:1146  _callOptionalReturn(token, abi.encodeWithSelector(token.transferFrom.selector, from, to, value)) */\n      jump\t// in\n    tag_294:\n        /* \"@openzeppelin/contracts/token/ERC20/utils/SafeERC20.sol\":912:1153  function safeTransferFrom(... */\n      pop\n      pop\n      pop\n      pop\n      jump\t// out\n        /* \"@openzeppelin/contracts/token/ERC20/utils/SafeERC20.sol\":3207:3913  function _callOptionalReturn(IERC20 token, bytes memory data) private {... */\n    tag_297:\n        /* \"@openzeppelin/contracts/token/ERC20/utils/SafeERC20.sol\":3626:3649  bytes memory returndata */\n      0x00\n        /* \"@openzeppelin/contracts/token/ERC20/utils/SafeERC20.sol\":3652:3721  address(token).functionCall(data, \"SafeERC20: low-level call failed\") */\n      tag_299\n        /* \"@openzeppelin/contracts/token/ERC20/utils/SafeERC20.sol\":3680:3684  data */\n      dup3\n        /* \"@openzeppelin/contracts/token/ERC20/utils/SafeERC20.sol\":3652:3721  address(token).functionCall(data, \"SafeERC20: low-level call failed\") */\n      mload(0x40)\n      dup1\n      0x40\n      add\n      0x40\n      mstore\n      dup1\n      0x20\n      dup2\n      mstore\n      0x20\n      add\n      0x5361666545524332303a206c6f772d6c6576656c2063616c6c206661696c6564\n      dup2\n      mstore\n      pop\n        /* \"@openzeppelin/contracts/token/ERC20/utils/SafeERC20.sol\":3660:3665  token */\n      dup6\n        /* \"@openzeppelin/contracts/token/ERC20/utils/SafeERC20.sol\":3652:3679  address(token).functionCall */\n      0xffffffffffffffffffffffffffffffffffffffff\n      and\n      tag_300\n      swap1\n        /* \"@openzeppelin/contracts/token/ERC20/utils/SafeERC20.sol\":3652:3721  address(token).functionCall(data, \"SafeERC20: low-level call failed\") */\n      swap3\n      swap2\n      swap1\n      0xffffffff\n      and\n      jump\t// in\n    tag_299:\n        /* \"@openzeppelin/contracts/token/ERC20/utils/SafeERC20.sol\":3626:3721  bytes memory returndata = address(token).functionCall(data, \"SafeERC20: low-level call failed\") */\n      swap1\n      pop\n        /* \"@openzeppelin/contracts/token/ERC20/utils/SafeERC20.sol\":3755:3756  0 */\n      0x00\n        /* \"@openzeppelin/contracts/token/ERC20/utils/SafeERC20.sol\":3735:3745  returndata */\n      dup2\n        /* \"@openzeppelin/contracts/token/ERC20/utils/SafeERC20.sol\":3735:3752  returndata.length */\n      mload\n        /* \"@openzeppelin/contracts/token/ERC20/utils/SafeERC20.sol\":3735:3756  returndata.length > 0 */\n      gt\n        /* \"@openzeppelin/contracts/token/ERC20/utils/SafeERC20.sol\":3731:3907  if (returndata.length > 0) {... */\n      iszero\n      tag_301\n      jumpi\n        /* \"@openzeppelin/contracts/token/ERC20/utils/SafeERC20.sol\":3830:3840  returndata */\n      dup1\n        /* \"@openzeppelin/contracts/token/ERC20/utils/SafeERC20.sol\":3819:3849  abi.decode(returndata, (bool)) */\n      dup1\n      0x20\n      add\n      swap1\n      mload\n      dup2\n      add\n      swap1\n      tag_302\n      swap2\n      swap1\n      tag_105\n      jump\t// in\n    tag_302:\n        /* \"@openzeppelin/contracts/token/ERC20/utils/SafeERC20.sol\":3811:3896  require(abi.decode(returndata, (bool)), \"SafeERC20: ERC20 operation did not succeed\") */\n      tag_303\n      jumpi\n      mload(0x40)\n      0x08c379a000000000000000000000000000000000000000000000000000000000\n      dup2\n      mstore\n      0x04\n      add\n      tag_304\n      swap1\n      tag_305\n      jump\t// in\n    tag_304:\n      mload(0x40)\n      dup1\n      swap2\n      sub\n      swap1\n      revert\n    tag_303:\n        /* \"@openzeppelin/contracts/token/ERC20/utils/SafeERC20.sol\":3731:3907  if (returndata.length > 0) {... */\n    tag_301:\n        /* \"@openzeppelin/contracts/token/ERC20/utils/SafeERC20.sol\":3277:3913  {... */\n      pop\n        /* \"@openzeppelin/contracts/token/ERC20/utils/SafeERC20.sol\":3207:3913  function _callOptionalReturn(IERC20 token, bytes memory data) private {... */\n      pop\n      pop\n      jump\t// out\n        /* \"@openzeppelin/contracts/utils/Address.sol\":3861:4084  function functionCall(... */\n    tag_300:\n        /* \"@openzeppelin/contracts/utils/Address.sol\":3994:4006  bytes memory */\n      0x60\n        /* \"@openzeppelin/contracts/utils/Address.sol\":4025:4077  functionCallWithValue(target, data, 0, errorMessage) */\n      tag_307\n        /* \"@openzeppelin/contracts/utils/Address.sol\":4047:4053  target */\n      dup5\n        /* \"@openzeppelin/contracts/utils/Address.sol\":4055:4059  data */\n      dup5\n        /* \"@openzeppelin/contracts/utils/Address.sol\":4061:4062  0 */\n      0x00\n        /* \"@openzeppelin/contracts/utils/Address.sol\":4064:4076  errorMessage */\n      dup6\n        /* \"@openzeppelin/contracts/utils/Address.sol\":4025:4046  functionCallWithValue */\n      tag_308\n        /* \"@openzeppelin/contracts/utils/Address.sol\":4025:4077  functionCallWithValue(target, data, 0, errorMessage) */\n      jump\t// in\n    tag_307:\n        /* \"@openzeppelin/contracts/utils/Address.sol\":4018:4077  return functionCallWithValue(target, data, 0, errorMessage) */\n      swap1\n      pop\n        /* \"@openzeppelin/contracts/utils/Address.sol\":3861:4084  function functionCall(... */\n      swap4\n      swap3\n      pop\n      pop\n      pop\n      jump\t// out\n        /* \"@openzeppelin/contracts/utils/Address.sol\":4948:5447  function functionCallWithValue(... */\n    tag_308:\n        /* \"@openzeppelin/contracts/utils/Address.sol\":5113:5125  bytes memory */\n      0x60\n        /* \"@openzeppelin/contracts/utils/Address.sol\":5170:5175  value */\n      dup3\n        /* \"@openzeppelin/contracts/utils/Address.sol\":5145:5166  address(this).balance */\n      selfbalance\n        /* \"@openzeppelin/contracts/utils/Address.sol\":5145:5175  address(this).balance >= value */\n      lt\n      iszero\n        /* \"@openzeppelin/contracts/utils/Address.sol\":5137:5218  require(address(this).balance >= value, \"Address: insufficient balance for call\") */\n      tag_310\n      jumpi\n      mload(0x40)\n      0x08c379a000000000000000000000000000000000000000000000000000000000\n      dup2\n      mstore\n      0x04\n      add\n      tag_311\n      swap1\n      tag_312\n      jump\t// in\n    tag_311:\n      mload(0x40)\n      dup1\n      swap2\n      sub\n      swap1\n      revert\n    tag_310:\n        /* \"@openzeppelin/contracts/utils/Address.sol\":5236:5254  isContract(target) */\n      tag_313\n        /* \"@openzeppelin/contracts/utils/Address.sol\":5247:5253  target */\n      dup6\n        /* \"@openzeppelin/contracts/utils/Address.sol\":5236:5246  isContract */\n      tag_314\n        /* \"@openzeppelin/contracts/utils/Address.sol\":5236:5254  isContract(target) */\n      jump\t// in\n    tag_313:\n        /* \"@openzeppelin/contracts/utils/Address.sol\":5228:5288  require(isContract(target), \"Address: call to non-contract\") */\n      tag_315\n      jumpi\n      mload(0x40)\n      0x08c379a000000000000000000000000000000000000000000000000000000000\n      dup2\n      mstore\n      0x04\n      add\n      tag_316\n      swap1\n      tag_317\n      jump\t// in\n    tag_316:\n      mload(0x40)\n      dup1\n      swap2\n      sub\n      swap1\n      revert\n    tag_315:\n        /* \"@openzeppelin/contracts/utils/Address.sol\":5300:5312  bool success */\n      0x00\n        /* \"@openzeppelin/contracts/utils/Address.sol\":5314:5337  bytes memory returndata */\n      dup1\n        /* \"@openzeppelin/contracts/utils/Address.sol\":5341:5347  target */\n      dup7\n        /* \"@openzeppelin/contracts/utils/Address.sol\":5341:5352  target.call */\n      0xffffffffffffffffffffffffffffffffffffffff\n      and\n        /* \"@openzeppelin/contracts/utils/Address.sol\":5360:5365  value */\n      dup6\n        /* \"@openzeppelin/contracts/utils/Address.sol\":5367:5371  data */\n      dup8\n        /* \"@openzeppelin/contracts/utils/Address.sol\":5341:5372  target.call{value: value}(data) */\n      mload(0x40)\n      tag_318\n      swap2\n      swap1\n      tag_319\n      jump\t// in\n    tag_318:\n      0x00\n      mload(0x40)\n      dup1\n      dup4\n      sub\n      dup2\n      dup6\n      dup8\n      gas\n      call\n      swap3\n      pop\n      pop\n      pop\n      returndatasize\n      dup1\n      0x00\n      dup2\n      eq\n      tag_322\n      jumpi\n      mload(0x40)\n      swap2\n      pop\n      and(add(returndatasize, 0x3f), not(0x1f))\n      dup3\n      add\n      0x40\n      mstore\n      returndatasize\n      dup3\n      mstore\n      returndatasize\n      0x00\n      0x20\n      dup5\n      add\n      returndatacopy\n      jump(tag_321)\n    tag_322:\n      0x60\n      swap2\n      pop\n    tag_321:\n      pop\n        /* \"@openzeppelin/contracts/utils/Address.sol\":5299:5372  (bool success, bytes memory returndata) = target.call{value: value}(data) */\n      swap2\n      pop\n      swap2\n      pop\n        /* \"@openzeppelin/contracts/utils/Address.sol\":5389:5440  verifyCallResult(success, returndata, errorMessage) */\n      tag_323\n        /* \"@openzeppelin/contracts/utils/Address.sol\":5406:5413  success */\n      dup3\n        /* \"@openzeppelin/contracts/utils/Address.sol\":5415:5425  returndata */\n      dup3\n        /* \"@openzeppelin/contracts/utils/Address.sol\":5427:5439  errorMessage */\n      dup7\n        /* \"@openzeppelin/contracts/utils/Address.sol\":5389:5405  verifyCallResult */\n      tag_324\n        /* \"@openzeppelin/contracts/utils/Address.sol\":5389:5440  verifyCallResult(success, returndata, errorMessage) */\n      jump\t// in\n    tag_323:\n        /* \"@openzeppelin/contracts/utils/Address.sol\":5382:5440  return verifyCallResult(success, returndata, errorMessage) */\n      swap3\n      pop\n      pop\n      pop\n        /* \"@openzeppelin/contracts/utils/Address.sol\":4948:5447  function functionCallWithValue(... */\n      swap5\n      swap4\n      pop\n      pop\n      pop\n      pop\n      jump\t// out\n        /* \"@openzeppelin/contracts/utils/Address.sol\":1175:1495  function isContract(address account) internal view returns (bool) {... */\n    tag_314:\n        /* \"@openzeppelin/contracts/utils/Address.sol\":1235:1239  bool */\n      0x00\n        /* \"@openzeppelin/contracts/utils/Address.sol\":1487:1488  0 */\n      dup1\n        /* \"@openzeppelin/contracts/utils/Address.sol\":1465:1472  account */\n      dup3\n        /* \"@openzeppelin/contracts/utils/Address.sol\":1465:1484  account.code.length */\n      0xffffffffffffffffffffffffffffffffffffffff\n      and\n      extcodesize\n        /* \"@openzeppelin/contracts/utils/Address.sol\":1465:1488  account.code.length > 0 */\n      gt\n        /* \"@openzeppelin/contracts/utils/Address.sol\":1458:1488  return account.code.length > 0 */\n      swap1\n      pop\n        /* \"@openzeppelin/contracts/utils/Address.sol\":1175:1495  function isContract(address account) internal view returns (bool) {... */\n      swap2\n      swap1\n      pop\n      jump\t// out\n        /* \"@openzeppelin/contracts/utils/Address.sol\":7561:8253  function verifyCallResult(... */\n    tag_324:\n        /* \"@openzeppelin/contracts/utils/Address.sol\":7707:7719  bytes memory */\n      0x60\n        /* \"@openzeppelin/contracts/utils/Address.sol\":7735:7742  success */\n      dup4\n        /* \"@openzeppelin/contracts/utils/Address.sol\":7731:8247  if (success) {... */\n      iszero\n      tag_327\n      jumpi\n        /* \"@openzeppelin/contracts/utils/Address.sol\":7765:7775  returndata */\n      dup3\n        /* \"@openzeppelin/contracts/utils/Address.sol\":7758:7775  return returndata */\n      swap1\n      pop\n      jump(tag_326)\n        /* \"@openzeppelin/contracts/utils/Address.sol\":7731:8247  if (success) {... */\n    tag_327:\n        /* \"@openzeppelin/contracts/utils/Address.sol\":7896:7897  0 */\n      0x00\n        /* \"@openzeppelin/contracts/utils/Address.sol\":7876:7886  returndata */\n      dup4\n        /* \"@openzeppelin/contracts/utils/Address.sol\":7876:7893  returndata.length */\n      mload\n        /* \"@openzeppelin/contracts/utils/Address.sol\":7876:7897  returndata.length > 0 */\n      gt\n        /* \"@openzeppelin/contracts/utils/Address.sol\":7872:8237  if (returndata.length > 0) {... */\n      iszero\n      tag_329\n      jumpi\n        /* \"@openzeppelin/contracts/utils/Address.sol\":8070:8080  returndata */\n      dup3\n        /* \"@openzeppelin/contracts/utils/Address.sol\":8064:8081  mload(returndata) */\n      mload\n        /* \"@openzeppelin/contracts/utils/Address.sol\":8130:8145  returndata_size */\n      dup1\n        /* \"@openzeppelin/contracts/utils/Address.sol\":8117:8127  returndata */\n      dup5\n        /* \"@openzeppelin/contracts/utils/Address.sol\":8113:8115  32 */\n      0x20\n        /* \"@openzeppelin/contracts/utils/Address.sol\":8109:8128  add(32, returndata) */\n      add\n        /* \"@openzeppelin/contracts/utils/Address.sol\":8102:8146  revert(add(32, returndata), returndata_size) */\n      revert\n        /* \"@openzeppelin/contracts/utils/Address.sol\":7872:8237  if (returndata.length > 0) {... */\n    tag_329:\n        /* \"@openzeppelin/contracts/utils/Address.sol\":8209:8221  errorMessage */\n      dup2\n        /* \"@openzeppelin/contracts/utils/Address.sol\":8202:8222  revert(errorMessage) */\n      mload(0x40)\n      0x08c379a000000000000000000000000000000000000000000000000000000000\n      dup2\n      mstore\n      0x04\n      add\n      tag_331\n      swap2\n      swap1\n      tag_332\n      jump\t// in\n    tag_331:\n      mload(0x40)\n      dup1\n      swap2\n      sub\n      swap1\n      revert\n        /* \"@openzeppelin/contracts/utils/Address.sol\":7561:8253  function verifyCallResult(... */\n    tag_326:\n      swap4\n      swap3\n      pop\n      pop\n      pop\n      jump\t// out\n    tag_176:\n      dup3\n      dup1\n      sload\n      tag_333\n      swap1\n      tag_240\n      jump\t// in\n    tag_333:\n      swap1\n      0x00\n      mstore\n      keccak256(0x00, 0x20)\n      swap1\n      0x1f\n      add\n      0x20\n      swap1\n      div\n      dup2\n      add\n      swap3\n      dup3\n      tag_335\n      jumpi\n      0x00\n      dup6\n      sstore\n      jump(tag_334)\n    tag_335:\n      dup3\n      0x1f\n      lt\n      tag_336\n      jumpi\n      dup1\n      mload\n      not(0xff)\n      and\n      dup4\n      dup1\n      add\n      or\n      dup6\n      sstore\n      jump(tag_334)\n    tag_336:\n      dup3\n      dup1\n      add\n      0x01\n      add\n      dup6\n      sstore\n      dup3\n      iszero\n      tag_334\n      jumpi\n      swap2\n      dup3\n      add\n    tag_337:\n      dup3\n      dup2\n      gt\n      iszero\n      tag_338\n      jumpi\n      dup3\n      mload\n      dup3\n      sstore\n      swap2\n      0x20\n      add\n      swap2\n      swap1\n      0x01\n      add\n      swap1\n      jump(tag_337)\n    tag_338:\n    tag_334:\n      pop\n      swap1\n      pop\n      tag_339\n      swap2\n      swap1\n      tag_340\n      jump\t// in\n    tag_339:\n      pop\n      swap1\n      jump\t// out\n    tag_340:\n    tag_341:\n      dup1\n      dup3\n      gt\n      iszero\n      tag_342\n      jumpi\n      0x00\n      dup2\n      0x00\n      swap1\n      sstore\n      pop\n      0x01\n      add\n      jump(tag_341)\n    tag_342:\n      pop\n      swap1\n      jump\t// out\n        /* \"#utility.yul\":7:419   */\n    tag_344:\n        /* \"#utility.yul\":85:90   */\n      0x00\n        /* \"#utility.yul\":110:176   */\n      tag_346\n        /* \"#utility.yul\":126:175   */\n      tag_347\n        /* \"#utility.yul\":168:174   */\n      dup5\n        /* \"#utility.yul\":126:175   */\n      tag_348\n      jump\t// in\n    tag_347:\n        /* \"#utility.yul\":110:176   */\n      tag_349\n      jump\t// in\n    tag_346:\n        /* \"#utility.yul\":101:176   */\n      swap1\n      pop\n        /* \"#utility.yul\":199:205   */\n      dup3\n        /* \"#utility.yul\":192:197   */\n      dup2\n        /* \"#utility.yul\":185:206   */\n      mstore\n        /* \"#utility.yul\":237:241   */\n      0x20\n        /* \"#utility.yul\":230:235   */\n      dup2\n        /* \"#utility.yul\":226:242   */\n      add\n        /* \"#utility.yul\":275:278   */\n      dup5\n        /* \"#utility.yul\":266:272   */\n      dup5\n        /* \"#utility.yul\":261:264   */\n      dup5\n        /* \"#utility.yul\":257:273   */\n      add\n        /* \"#utility.yul\":254:279   */\n      gt\n        /* \"#utility.yul\":251:363   */\n      iszero\n      tag_350\n      jumpi\n        /* \"#utility.yul\":282:361   */\n      tag_351\n      tag_352\n      jump\t// in\n    tag_351:\n        /* \"#utility.yul\":251:363   */\n    tag_350:\n        /* \"#utility.yul\":372:413   */\n      tag_353\n        /* \"#utility.yul\":406:412   */\n      dup5\n        /* \"#utility.yul\":401:404   */\n      dup3\n        /* \"#utility.yul\":396:399   */\n      dup6\n        /* \"#utility.yul\":372:413   */\n      tag_354\n      jump\t// in\n    tag_353:\n        /* \"#utility.yul\":91:419   */\n      pop\n        /* \"#utility.yul\":7:419   */\n      swap4\n      swap3\n      pop\n      pop\n      pop\n      jump\t// out\n        /* \"#utility.yul\":425:564   */\n    tag_355:\n        /* \"#utility.yul\":471:476   */\n      0x00\n        /* \"#utility.yul\":509:515   */\n      dup2\n        /* \"#utility.yul\":496:516   */\n      calldataload\n        /* \"#utility.yul\":487:516   */\n      swap1\n      pop\n        /* \"#utility.yul\":525:558   */\n      tag_357\n        /* \"#utility.yul\":552:557   */\n      dup2\n        /* \"#utility.yul\":525:558   */\n      tag_358\n      jump\t// in\n    tag_357:\n        /* \"#utility.yul\":425:564   */\n      swap3\n      swap2\n      pop\n      pop\n      jump\t// out\n        /* \"#utility.yul\":587:1155   */\n    tag_359:\n        /* \"#utility.yul\":660:668   */\n      0x00\n        /* \"#utility.yul\":670:676   */\n      dup1\n        /* \"#utility.yul\":720:723   */\n      dup4\n        /* \"#utility.yul\":713:717   */\n      0x1f\n        /* \"#utility.yul\":705:711   */\n      dup5\n        /* \"#utility.yul\":701:718   */\n      add\n        /* \"#utility.yul\":697:724   */\n      slt\n        /* \"#utility.yul\":687:809   */\n      tag_361\n      jumpi\n        /* \"#utility.yul\":728:807   */\n      tag_362\n      tag_363\n      jump\t// in\n    tag_362:\n        /* \"#utility.yul\":687:809   */\n    tag_361:\n        /* \"#utility.yul\":841:847   */\n      dup3\n        /* \"#utility.yul\":828:848   */\n      calldataload\n        /* \"#utility.yul\":818:848   */\n      swap1\n      pop\n        /* \"#utility.yul\":871:889   */\n      0xffffffffffffffff\n        /* \"#utility.yul\":863:869   */\n      dup2\n        /* \"#utility.yul\":860:890   */\n      gt\n        /* \"#utility.yul\":857:974   */\n      iszero\n      tag_364\n      jumpi\n        /* \"#utility.yul\":893:972   */\n      tag_365\n      tag_366\n      jump\t// in\n    tag_365:\n        /* \"#utility.yul\":857:974   */\n    tag_364:\n        /* \"#utility.yul\":1007:1011   */\n      0x20\n        /* \"#utility.yul\":999:1005   */\n      dup4\n        /* \"#utility.yul\":995:1012   */\n      add\n        /* \"#utility.yul\":983:1012   */\n      swap2\n      pop\n        /* \"#utility.yul\":1061:1064   */\n      dup4\n        /* \"#utility.yul\":1053:1057   */\n      0x20\n        /* \"#utility.yul\":1045:1051   */\n      dup3\n        /* \"#utility.yul\":1041:1058   */\n      mul\n        /* \"#utility.yul\":1031:1039   */\n      dup4\n        /* \"#utility.yul\":1027:1059   */\n      add\n        /* \"#utility.yul\":1024:1065   */\n      gt\n        /* \"#utility.yul\":1021:1149   */\n      iszero\n      tag_367\n      jumpi\n        /* \"#utility.yul\":1068:1147   */\n      tag_368\n      tag_369\n      jump\t// in\n    tag_368:\n        /* \"#utility.yul\":1021:1149   */\n    tag_367:\n        /* \"#utility.yul\":587:1155   */\n      swap3\n      pop\n      swap3\n      swap1\n      pop\n      jump\t// out\n        /* \"#utility.yul\":1161:1298   */\n    tag_370:\n        /* \"#utility.yul\":1215:1220   */\n      0x00\n        /* \"#utility.yul\":1246:1252   */\n      dup2\n        /* \"#utility.yul\":1240:1253   */\n      mload\n        /* \"#utility.yul\":1231:1253   */\n      swap1\n      pop\n        /* \"#utility.yul\":1262:1292   */\n      tag_372\n        /* \"#utility.yul\":1286:1291   */\n      dup2\n        /* \"#utility.yul\":1262:1292   */\n      tag_373\n      jump\t// in\n    tag_372:\n        /* \"#utility.yul\":1161:1298   */\n      swap3\n      swap2\n      pop\n      pop\n      jump\t// out\n        /* \"#utility.yul\":1318:1658   */\n    tag_374:\n        /* \"#utility.yul\":1374:1379   */\n      0x00\n        /* \"#utility.yul\":1423:1426   */\n      dup3\n        /* \"#utility.yul\":1416:1420   */\n      0x1f\n        /* \"#utility.yul\":1408:1414   */\n      dup4\n        /* \"#utility.yul\":1404:1421   */\n      add\n        /* \"#utility.yul\":1400:1427   */\n      slt\n        /* \"#utility.yul\":1390:1512   */\n      tag_376\n      jumpi\n        /* \"#utility.yul\":1431:1510   */\n      tag_377\n      tag_363\n      jump\t// in\n    tag_377:\n        /* \"#utility.yul\":1390:1512   */\n    tag_376:\n        /* \"#utility.yul\":1548:1554   */\n      dup2\n        /* \"#utility.yul\":1535:1555   */\n      calldataload\n        /* \"#utility.yul\":1573:1652   */\n      tag_378\n        /* \"#utility.yul\":1648:1651   */\n      dup5\n        /* \"#utility.yul\":1640:1646   */\n      dup3\n        /* \"#utility.yul\":1633:1637   */\n      0x20\n        /* \"#utility.yul\":1625:1631   */\n      dup7\n        /* \"#utility.yul\":1621:1638   */\n      add\n        /* \"#utility.yul\":1573:1652   */\n      tag_344\n      jump\t// in\n    tag_378:\n        /* \"#utility.yul\":1564:1652   */\n      swap2\n      pop\n        /* \"#utility.yul\":1380:1658   */\n      pop\n        /* \"#utility.yul\":1318:1658   */\n      swap3\n      swap2\n      pop\n      pop\n      jump\t// out\n        /* \"#utility.yul\":1664:1803   */\n    tag_379:\n        /* \"#utility.yul\":1710:1715   */\n      0x00\n        /* \"#utility.yul\":1748:1754   */\n      dup2\n        /* \"#utility.yul\":1735:1755   */\n      calldataload\n        /* \"#utility.yul\":1726:1755   */\n      swap1\n      pop\n        /* \"#utility.yul\":1764:1797   */\n      tag_381\n        /* \"#utility.yul\":1791:1796   */\n      dup2\n        /* \"#utility.yul\":1764:1797   */\n      tag_382\n      jump\t// in\n    tag_381:\n        /* \"#utility.yul\":1664:1803   */\n      swap3\n      swap2\n      pop\n      pop\n      jump\t// out\n        /* \"#utility.yul\":1809:2138   */\n    tag_53:\n        /* \"#utility.yul\":1868:1874   */\n      0x00\n        /* \"#utility.yul\":1917:1919   */\n      0x20\n        /* \"#utility.yul\":1905:1914   */\n      dup3\n        /* \"#utility.yul\":1896:1903   */\n      dup5\n        /* \"#utility.yul\":1892:1915   */\n      sub\n        /* \"#utility.yul\":1888:1920   */\n      slt\n        /* \"#utility.yul\":1885:2004   */\n      iszero\n      tag_384\n      jumpi\n        /* \"#utility.yul\":1923:2002   */\n      tag_385\n      tag_386\n      jump\t// in\n    tag_385:\n        /* \"#utility.yul\":1885:2004   */\n    tag_384:\n        /* \"#utility.yul\":2043:2044   */\n      0x00\n        /* \"#utility.yul\":2068:2121   */\n      tag_387\n        /* \"#utility.yul\":2113:2120   */\n      dup5\n        /* \"#utility.yul\":2104:2110   */\n      dup3\n        /* \"#utility.yul\":2093:2102   */\n      dup6\n        /* \"#utility.yul\":2089:2111   */\n      add\n        /* \"#utility.yul\":2068:2121   */\n      tag_355\n      jump\t// in\n    tag_387:\n        /* \"#utility.yul\":2058:2121   */\n      swap2\n      pop\n        /* \"#utility.yul\":2014:2131   */\n      pop\n        /* \"#utility.yul\":1809:2138   */\n      swap3\n      swap2\n      pop\n      pop\n      jump\t// out\n        /* \"#utility.yul\":2144:2703   */\n    tag_28:\n        /* \"#utility.yul\":2230:2236   */\n      0x00\n        /* \"#utility.yul\":2238:2244   */\n      dup1\n        /* \"#utility.yul\":2287:2289   */\n      0x20\n        /* \"#utility.yul\":2275:2284   */\n      dup4\n        /* \"#utility.yul\":2266:2273   */\n      dup6\n        /* \"#utility.yul\":2262:2285   */\n      sub\n        /* \"#utility.yul\":2258:2290   */\n      slt\n        /* \"#utility.yul\":2255:2374   */\n      iszero\n      tag_389\n      jumpi\n        /* \"#utility.yul\":2293:2372   */\n      tag_390\n      tag_386\n      jump\t// in\n    tag_390:\n        /* \"#utility.yul\":2255:2374   */\n    tag_389:\n        /* \"#utility.yul\":2441:2442   */\n      0x00\n        /* \"#utility.yul\":2430:2439   */\n      dup4\n        /* \"#utility.yul\":2426:2443   */\n      add\n        /* \"#utility.yul\":2413:2444   */\n      calldataload\n        /* \"#utility.yul\":2471:2489   */\n      0xffffffffffffffff\n        /* \"#utility.yul\":2463:2469   */\n      dup2\n        /* \"#utility.yul\":2460:2490   */\n      gt\n        /* \"#utility.yul\":2457:2574   */\n      iszero\n      tag_391\n      jumpi\n        /* \"#utility.yul\":2493:2572   */\n      tag_392\n      tag_393\n      jump\t// in\n    tag_392:\n        /* \"#utility.yul\":2457:2574   */\n    tag_391:\n        /* \"#utility.yul\":2606:2686   */\n      tag_394\n        /* \"#utility.yul\":2678:2685   */\n      dup6\n        /* \"#utility.yul\":2669:2675   */\n      dup3\n        /* \"#utility.yul\":2658:2667   */\n      dup7\n        /* \"#utility.yul\":2654:2676   */\n      add\n        /* \"#utility.yul\":2606:2686   */\n      tag_359\n      jump\t// in\n    tag_394:\n        /* \"#utility.yul\":2588:2686   */\n      swap3\n      pop\n      swap3\n      pop\n        /* \"#utility.yul\":2384:2696   */\n      pop\n        /* \"#utility.yul\":2144:2703   */\n      swap3\n      pop\n      swap3\n      swap1\n      pop\n      jump\t// out\n        /* \"#utility.yul\":2709:3054   */\n    tag_105:\n        /* \"#utility.yul\":2776:2782   */\n      0x00\n        /* \"#utility.yul\":2825:2827   */\n      0x20\n        /* \"#utility.yul\":2813:2822   */\n      dup3\n        /* \"#utility.yul\":2804:2811   */\n      dup5\n        /* \"#utility.yul\":2800:2823   */\n      sub\n        /* \"#utility.yul\":2796:2828   */\n      slt\n        /* \"#utility.yul\":2793:2912   */\n      iszero\n      tag_396\n      jumpi\n        /* \"#utility.yul\":2831:2910   */\n      tag_397\n      tag_386\n      jump\t// in\n    tag_397:\n        /* \"#utility.yul\":2793:2912   */\n    tag_396:\n        /* \"#utility.yul\":2951:2952   */\n      0x00\n        /* \"#utility.yul\":2976:3037   */\n      tag_398\n        /* \"#utility.yul\":3029:3036   */\n      dup5\n        /* \"#utility.yul\":3020:3026   */\n      dup3\n        /* \"#utility.yul\":3009:3018   */\n      dup6\n        /* \"#utility.yul\":3005:3027   */\n      add\n        /* \"#utility.yul\":2976:3037   */\n      tag_370\n      jump\t// in\n    tag_398:\n        /* \"#utility.yul\":2966:3037   */\n      swap2\n      pop\n        /* \"#utility.yul\":2922:3047   */\n      pop\n        /* \"#utility.yul\":2709:3054   */\n      swap3\n      swap2\n      pop\n      pop\n      jump\t// out\n        /* \"#utility.yul\":3060:3389   */\n    tag_44:\n        /* \"#utility.yul\":3119:3125   */\n      0x00\n        /* \"#utility.yul\":3168:3170   */\n      0x20\n        /* \"#utility.yul\":3156:3165   */\n      dup3\n        /* \"#utility.yul\":3147:3154   */\n      dup5\n        /* \"#utility.yul\":3143:3166   */\n      sub\n        /* \"#utility.yul\":3139:3171   */\n      slt\n        /* \"#utility.yul\":3136:3255   */\n      iszero\n      tag_400\n      jumpi\n        /* \"#utility.yul\":3174:3253   */\n      tag_401\n      tag_386\n      jump\t// in\n    tag_401:\n        /* \"#utility.yul\":3136:3255   */\n    tag_400:\n        /* \"#utility.yul\":3294:3295   */\n      0x00\n        /* \"#utility.yul\":3319:3372   */\n      tag_402\n        /* \"#utility.yul\":3364:3371   */\n      dup5\n        /* \"#utility.yul\":3355:3361   */\n      dup3\n        /* \"#utility.yul\":3344:3353   */\n      dup6\n        /* \"#utility.yul\":3340:3362   */\n      add\n        /* \"#utility.yul\":3319:3372   */\n      tag_379\n      jump\t// in\n    tag_402:\n        /* \"#utility.yul\":3309:3372   */\n      swap2\n      pop\n        /* \"#utility.yul\":3265:3382   */\n      pop\n        /* \"#utility.yul\":3060:3389   */\n      swap3\n      swap2\n      pop\n      pop\n      jump\t// out\n        /* \"#utility.yul\":3395:4486   */\n    tag_32:\n        /* \"#utility.yul\":3500:3506   */\n      0x00\n        /* \"#utility.yul\":3508:3514   */\n      dup1\n        /* \"#utility.yul\":3516:3522   */\n      0x00\n        /* \"#utility.yul\":3524:3530   */\n      dup1\n        /* \"#utility.yul\":3532:3538   */\n      0x00\n        /* \"#utility.yul\":3581:3584   */\n      0xa0\n        /* \"#utility.yul\":3569:3578   */\n      dup7\n        /* \"#utility.yul\":3560:3567   */\n      dup9\n        /* \"#utility.yul\":3556:3579   */\n      sub\n        /* \"#utility.yul\":3552:3585   */\n      slt\n        /* \"#utility.yul\":3549:3669   */\n      iszero\n      tag_404\n      jumpi\n        /* \"#utility.yul\":3588:3667   */\n      tag_405\n      tag_386\n      jump\t// in\n    tag_405:\n        /* \"#utility.yul\":3549:3669   */\n    tag_404:\n        /* \"#utility.yul\":3708:3709   */\n      0x00\n        /* \"#utility.yul\":3733:3786   */\n      tag_406\n        /* \"#utility.yul\":3778:3785   */\n      dup9\n        /* \"#utility.yul\":3769:3775   */\n      dup3\n        /* \"#utility.yul\":3758:3767   */\n      dup10\n        /* \"#utility.yul\":3754:3776   */\n      add\n        /* \"#utility.yul\":3733:3786   */\n      tag_379\n      jump\t// in\n    tag_406:\n        /* \"#utility.yul\":3723:3786   */\n      swap6\n      pop\n        /* \"#utility.yul\":3679:3796   */\n      pop\n        /* \"#utility.yul\":3863:3865   */\n      0x20\n        /* \"#utility.yul\":3852:3861   */\n      dup7\n        /* \"#utility.yul\":3848:3866   */\n      add\n        /* \"#utility.yul\":3835:3867   */\n      calldataload\n        /* \"#utility.yul\":3894:3912   */\n      0xffffffffffffffff\n        /* \"#utility.yul\":3886:3892   */\n      dup2\n        /* \"#utility.yul\":3883:3913   */\n      gt\n        /* \"#utility.yul\":3880:3997   */\n      iszero\n      tag_407\n      jumpi\n        /* \"#utility.yul\":3916:3995   */\n      tag_408\n      tag_393\n      jump\t// in\n    tag_408:\n        /* \"#utility.yul\":3880:3997   */\n    tag_407:\n        /* \"#utility.yul\":4021:4084   */\n      tag_409\n        /* \"#utility.yul\":4076:4083   */\n      dup9\n        /* \"#utility.yul\":4067:4073   */\n      dup3\n        /* \"#utility.yul\":4056:4065   */\n      dup10\n        /* \"#utility.yul\":4052:4074   */\n      add\n        /* \"#utility.yul\":4021:4084   */\n      tag_374\n      jump\t// in\n    tag_409:\n        /* \"#utility.yul\":4011:4084   */\n      swap5\n      pop\n        /* \"#utility.yul\":3806:4094   */\n      pop\n        /* \"#utility.yul\":4133:4135   */\n      0x40\n        /* \"#utility.yul\":4159:4212   */\n      tag_410\n        /* \"#utility.yul\":4204:4211   */\n      dup9\n        /* \"#utility.yul\":4195:4201   */\n      dup3\n        /* \"#utility.yul\":4184:4193   */\n      dup10\n        /* \"#utility.yul\":4180:4202   */\n      add\n        /* \"#utility.yul\":4159:4212   */\n      tag_379\n      jump\t// in\n    tag_410:\n        /* \"#utility.yul\":4149:4212   */\n      swap4\n      pop\n        /* \"#utility.yul\":4104:4222   */\n      pop\n        /* \"#utility.yul\":4261:4263   */\n      0x60\n        /* \"#utility.yul\":4287:4340   */\n      tag_411\n        /* \"#utility.yul\":4332:4339   */\n      dup9\n        /* \"#utility.yul\":4323:4329   */\n      dup3\n        /* \"#utility.yul\":4312:4321   */\n      dup10\n        /* \"#utility.yul\":4308:4330   */\n      add\n        /* \"#utility.yul\":4287:4340   */\n      tag_379\n      jump\t// in\n    tag_411:\n        /* \"#utility.yul\":4277:4340   */\n      swap3\n      pop\n        /* \"#utility.yul\":4232:4350   */\n      pop\n        /* \"#utility.yul\":4389:4392   */\n      0x80\n        /* \"#utility.yul\":4416:4469   */\n      tag_412\n        /* \"#utility.yul\":4461:4468   */\n      dup9\n        /* \"#utility.yul\":4452:4458   */\n      dup3\n        /* \"#utility.yul\":4441:4450   */\n      dup10\n        /* \"#utility.yul\":4437:4459   */\n      add\n        /* \"#utility.yul\":4416:4469   */\n      tag_379\n      jump\t// in\n    tag_412:\n        /* \"#utility.yul\":4406:4469   */\n      swap2\n      pop\n        /* \"#utility.yul\":4360:4479   */\n      pop\n        /* \"#utility.yul\":3395:4486   */\n      swap3\n      swap6\n      pop\n      swap3\n      swap6\n      swap1\n      swap4\n      pop\n      jump\t// out\n        /* \"#utility.yul\":4492:4671   */\n    tag_413:\n        /* \"#utility.yul\":4561:4571   */\n      0x00\n        /* \"#utility.yul\":4582:4628   */\n      tag_415\n        /* \"#utility.yul\":4624:4627   */\n      dup4\n        /* \"#utility.yul\":4616:4622   */\n      dup4\n        /* \"#utility.yul\":4582:4628   */\n      tag_416\n      jump\t// in\n    tag_415:\n        /* \"#utility.yul\":4660:4664   */\n      0x20\n        /* \"#utility.yul\":4655:4658   */\n      dup4\n        /* \"#utility.yul\":4651:4665   */\n      add\n        /* \"#utility.yul\":4637:4665   */\n      swap1\n      pop\n        /* \"#utility.yul\":4492:4671   */\n      swap3\n      swap2\n      pop\n      pop\n      jump\t// out\n        /* \"#utility.yul\":4677:4785   */\n    tag_416:\n        /* \"#utility.yul\":4754:4778   */\n      tag_418\n        /* \"#utility.yul\":4772:4777   */\n      dup2\n        /* \"#utility.yul\":4754:4778   */\n      tag_419\n      jump\t// in\n    tag_418:\n        /* \"#utility.yul\":4749:4752   */\n      dup3\n        /* \"#utility.yul\":4742:4779   */\n      mstore\n        /* \"#utility.yul\":4677:4785   */\n      pop\n      pop\n      jump\t// out\n        /* \"#utility.yul\":4791:4909   */\n    tag_420:\n        /* \"#utility.yul\":4878:4902   */\n      tag_422\n        /* \"#utility.yul\":4896:4901   */\n      dup2\n        /* \"#utility.yul\":4878:4902   */\n      tag_419\n      jump\t// in\n    tag_422:\n        /* \"#utility.yul\":4873:4876   */\n      dup3\n        /* \"#utility.yul\":4866:4903   */\n      mstore\n        /* \"#utility.yul\":4791:4909   */\n      pop\n      pop\n      jump\t// out\n        /* \"#utility.yul\":4945:5677   */\n    tag_423:\n        /* \"#utility.yul\":5064:5067   */\n      0x00\n        /* \"#utility.yul\":5093:5147   */\n      tag_425\n        /* \"#utility.yul\":5141:5146   */\n      dup3\n        /* \"#utility.yul\":5093:5147   */\n      tag_426\n      jump\t// in\n    tag_425:\n        /* \"#utility.yul\":5163:5249   */\n      tag_427\n        /* \"#utility.yul\":5242:5248   */\n      dup2\n        /* \"#utility.yul\":5237:5240   */\n      dup6\n        /* \"#utility.yul\":5163:5249   */\n      tag_428\n      jump\t// in\n    tag_427:\n        /* \"#utility.yul\":5156:5249   */\n      swap4\n      pop\n        /* \"#utility.yul\":5273:5329   */\n      tag_429\n        /* \"#utility.yul\":5323:5328   */\n      dup4\n        /* \"#utility.yul\":5273:5329   */\n      tag_430\n      jump\t// in\n    tag_429:\n        /* \"#utility.yul\":5352:5359   */\n      dup1\n        /* \"#utility.yul\":5383:5384   */\n      0x00\n        /* \"#utility.yul\":5368:5652   */\n    tag_431:\n        /* \"#utility.yul\":5393:5399   */\n      dup4\n        /* \"#utility.yul\":5390:5391   */\n      dup2\n        /* \"#utility.yul\":5387:5400   */\n      lt\n        /* \"#utility.yul\":5368:5652   */\n      iszero\n      tag_433\n      jumpi\n        /* \"#utility.yul\":5469:5475   */\n      dup2\n        /* \"#utility.yul\":5463:5476   */\n      mload\n        /* \"#utility.yul\":5496:5559   */\n      tag_434\n        /* \"#utility.yul\":5555:5558   */\n      dup9\n        /* \"#utility.yul\":5540:5553   */\n      dup3\n        /* \"#utility.yul\":5496:5559   */\n      tag_413\n      jump\t// in\n    tag_434:\n        /* \"#utility.yul\":5489:5559   */\n      swap8\n      pop\n        /* \"#utility.yul\":5582:5642   */\n      tag_435\n        /* \"#utility.yul\":5635:5641   */\n      dup4\n        /* \"#utility.yul\":5582:5642   */\n      tag_436\n      jump\t// in\n    tag_435:\n        /* \"#utility.yul\":5572:5642   */\n      swap3\n      pop\n        /* \"#utility.yul\":5428:5652   */\n      pop\n        /* \"#utility.yul\":5415:5416   */\n      0x01\n        /* \"#utility.yul\":5412:5413   */\n      dup2\n        /* \"#utility.yul\":5408:5417   */\n      add\n        /* \"#utility.yul\":5403:5417   */\n      swap1\n      pop\n        /* \"#utility.yul\":5368:5652   */\n      jump(tag_431)\n    tag_433:\n        /* \"#utility.yul\":5372:5386   */\n      pop\n        /* \"#utility.yul\":5668:5671   */\n      dup6\n        /* \"#utility.yul\":5661:5671   */\n      swap4\n      pop\n        /* \"#utility.yul\":5069:5677   */\n      pop\n      pop\n      pop\n        /* \"#utility.yul\":4945:5677   */\n      swap3\n      swap2\n      pop\n      pop\n      jump\t// out\n        /* \"#utility.yul\":5683:5792   */\n    tag_437:\n        /* \"#utility.yul\":5764:5785   */\n      tag_439\n        /* \"#utility.yul\":5779:5784   */\n      dup2\n        /* \"#utility.yul\":5764:5785   */\n      tag_440\n      jump\t// in\n    tag_439:\n        /* \"#utility.yul\":5759:5762   */\n      dup3\n        /* \"#utility.yul\":5752:5786   */\n      mstore\n        /* \"#utility.yul\":5683:5792   */\n      pop\n      pop\n      jump\t// out\n        /* \"#utility.yul\":5798:5916   */\n    tag_441:\n        /* \"#utility.yul\":5885:5909   */\n      tag_443\n        /* \"#utility.yul\":5903:5908   */\n      dup2\n        /* \"#utility.yul\":5885:5909   */\n      tag_444\n      jump\t// in\n    tag_443:\n        /* \"#utility.yul\":5880:5883   */\n      dup3\n        /* \"#utility.yul\":5873:5910   */\n      mstore\n        /* \"#utility.yul\":5798:5916   */\n      pop\n      pop\n      jump\t// out\n        /* \"#utility.yul\":5922:6295   */\n    tag_445:\n        /* \"#utility.yul\":6026:6029   */\n      0x00\n        /* \"#utility.yul\":6054:6092   */\n      tag_447\n        /* \"#utility.yul\":6086:6091   */\n      dup3\n        /* \"#utility.yul\":6054:6092   */\n      tag_448\n      jump\t// in\n    tag_447:\n        /* \"#utility.yul\":6108:6196   */\n      tag_449\n        /* \"#utility.yul\":6189:6195   */\n      dup2\n        /* \"#utility.yul\":6184:6187   */\n      dup6\n        /* \"#utility.yul\":6108:6196   */\n      tag_450\n      jump\t// in\n    tag_449:\n        /* \"#utility.yul\":6101:6196   */\n      swap4\n      pop\n        /* \"#utility.yul\":6205:6257   */\n      tag_451\n        /* \"#utility.yul\":6250:6256   */\n      dup2\n        /* \"#utility.yul\":6245:6248   */\n      dup6\n        /* \"#utility.yul\":6238:6242   */\n      0x20\n        /* \"#utility.yul\":6231:6236   */\n      dup7\n        /* \"#utility.yul\":6227:6243   */\n      add\n        /* \"#utility.yul\":6205:6257   */\n      tag_452\n      jump\t// in\n    tag_451:\n        /* \"#utility.yul\":6282:6288   */\n      dup1\n        /* \"#utility.yul\":6277:6280   */\n      dup5\n        /* \"#utility.yul\":6273:6289   */\n      add\n        /* \"#utility.yul\":6266:6289   */\n      swap2\n      pop\n        /* \"#utility.yul\":6030:6295   */\n      pop\n        /* \"#utility.yul\":5922:6295   */\n      swap3\n      swap2\n      pop\n      pop\n      jump\t// out\n        /* \"#utility.yul\":6301:6478   */\n    tag_453:\n        /* \"#utility.yul\":6411:6471   */\n      tag_455\n        /* \"#utility.yul\":6465:6470   */\n      dup2\n        /* \"#utility.yul\":6411:6471   */\n      tag_456\n      jump\t// in\n    tag_455:\n        /* \"#utility.yul\":6406:6409   */\n      dup3\n        /* \"#utility.yul\":6399:6472   */\n      mstore\n        /* \"#utility.yul\":6301:6478   */\n      pop\n      pop\n      jump\t// out\n        /* \"#utility.yul\":6484:6647   */\n    tag_457:\n        /* \"#utility.yul\":6587:6640   */\n      tag_459\n        /* \"#utility.yul\":6634:6639   */\n      dup2\n        /* \"#utility.yul\":6587:6640   */\n      tag_460\n      jump\t// in\n    tag_459:\n        /* \"#utility.yul\":6582:6585   */\n      dup3\n        /* \"#utility.yul\":6575:6641   */\n      mstore\n        /* \"#utility.yul\":6484:6647   */\n      pop\n      pop\n      jump\t// out\n        /* \"#utility.yul\":6653:6802   */\n    tag_461:\n        /* \"#utility.yul\":6749:6795   */\n      tag_463\n        /* \"#utility.yul\":6789:6794   */\n      dup2\n        /* \"#utility.yul\":6749:6795   */\n      tag_464\n      jump\t// in\n    tag_463:\n        /* \"#utility.yul\":6744:6747   */\n      dup3\n        /* \"#utility.yul\":6737:6796   */\n      mstore\n        /* \"#utility.yul\":6653:6802   */\n      pop\n      pop\n      jump\t// out\n        /* \"#utility.yul\":6808:7172   */\n    tag_465:\n        /* \"#utility.yul\":6896:6899   */\n      0x00\n        /* \"#utility.yul\":6924:6963   */\n      tag_467\n        /* \"#utility.yul\":6957:6962   */\n      dup3\n        /* \"#utility.yul\":6924:6963   */\n      tag_468\n      jump\t// in\n    tag_467:\n        /* \"#utility.yul\":6979:7050   */\n      tag_469\n        /* \"#utility.yul\":7043:7049   */\n      dup2\n        /* \"#utility.yul\":7038:7041   */\n      dup6\n        /* \"#utility.yul\":6979:7050   */\n      tag_470\n      jump\t// in\n    tag_469:\n        /* \"#utility.yul\":6972:7050   */\n      swap4\n      pop\n        /* \"#utility.yul\":7059:7111   */\n      tag_471\n        /* \"#utility.yul\":7104:7110   */\n      dup2\n        /* \"#utility.yul\":7099:7102   */\n      dup6\n        /* \"#utility.yul\":7092:7096   */\n      0x20\n        /* \"#utility.yul\":7085:7090   */\n      dup7\n        /* \"#utility.yul\":7081:7097   */\n      add\n        /* \"#utility.yul\":7059:7111   */\n      tag_452\n      jump\t// in\n    tag_471:\n        /* \"#utility.yul\":7136:7165   */\n      tag_472\n        /* \"#utility.yul\":7158:7164   */\n      dup2\n        /* \"#utility.yul\":7136:7165   */\n      tag_473\n      jump\t// in\n    tag_472:\n        /* \"#utility.yul\":7131:7134   */\n      dup5\n        /* \"#utility.yul\":7127:7166   */\n      add\n        /* \"#utility.yul\":7120:7166   */\n      swap2\n      pop\n        /* \"#utility.yul\":6900:7172   */\n      pop\n        /* \"#utility.yul\":6808:7172   */\n      swap3\n      swap2\n      pop\n      pop\n      jump\t// out\n        /* \"#utility.yul\":7178:7543   */\n    tag_474:\n        /* \"#utility.yul\":7320:7323   */\n      0x00\n        /* \"#utility.yul\":7341:7407   */\n      tag_476\n        /* \"#utility.yul\":7405:7406   */\n      0x05\n        /* \"#utility.yul\":7400:7403   */\n      dup4\n        /* \"#utility.yul\":7341:7407   */\n      tag_470\n      jump\t// in\n    tag_476:\n        /* \"#utility.yul\":7334:7407   */\n      swap2\n      pop\n        /* \"#utility.yul\":7416:7509   */\n      tag_477\n        /* \"#utility.yul\":7505:7508   */\n      dup3\n        /* \"#utility.yul\":7416:7509   */\n      tag_478\n      jump\t// in\n    tag_477:\n        /* \"#utility.yul\":7534:7536   */\n      0x20\n        /* \"#utility.yul\":7529:7532   */\n      dup3\n        /* \"#utility.yul\":7525:7537   */\n      add\n        /* \"#utility.yul\":7518:7537   */\n      swap1\n      pop\n        /* \"#utility.yul\":7178:7543   */\n      swap2\n      swap1\n      pop\n      jump\t// out\n        /* \"#utility.yul\":7549:7915   */\n    tag_479:\n        /* \"#utility.yul\":7691:7694   */\n      0x00\n        /* \"#utility.yul\":7712:7779   */\n      tag_481\n        /* \"#utility.yul\":7776:7778   */\n      0x11\n        /* \"#utility.yul\":7771:7774   */\n      dup4\n        /* \"#utility.yul\":7712:7779   */\n      tag_470\n      jump\t// in\n    tag_481:\n        /* \"#utility.yul\":7705:7779   */\n      swap2\n      pop\n        /* \"#utility.yul\":7788:7881   */\n      tag_482\n        /* \"#utility.yul\":7877:7880   */\n      dup3\n        /* \"#utility.yul\":7788:7881   */\n      tag_483\n      jump\t// in\n    tag_482:\n        /* \"#utility.yul\":7906:7908   */\n      0x20\n        /* \"#utility.yul\":7901:7904   */\n      dup3\n        /* \"#utility.yul\":7897:7909   */\n      add\n        /* \"#utility.yul\":7890:7909   */\n      swap1\n      pop\n        /* \"#utility.yul\":7549:7915   */\n      swap2\n      swap1\n      pop\n      jump\t// out\n        /* \"#utility.yul\":7921:8287   */\n    tag_484:\n        /* \"#utility.yul\":8063:8066   */\n      0x00\n        /* \"#utility.yul\":8084:8151   */\n      tag_486\n        /* \"#utility.yul\":8148:8150   */\n      0x11\n        /* \"#utility.yul\":8143:8146   */\n      dup4\n        /* \"#utility.yul\":8084:8151   */\n      tag_470\n      jump\t// in\n    tag_486:\n        /* \"#utility.yul\":8077:8151   */\n      swap2\n      pop\n        /* \"#utility.yul\":8160:8253   */\n      tag_487\n        /* \"#utility.yul\":8249:8252   */\n      dup3\n        /* \"#utility.yul\":8160:8253   */\n      tag_488\n      jump\t// in\n    tag_487:\n        /* \"#utility.yul\":8278:8280   */\n      0x20\n        /* \"#utility.yul\":8273:8276   */\n      dup3\n        /* \"#utility.yul\":8269:8281   */\n      add\n        /* \"#utility.yul\":8262:8281   */\n      swap1\n      pop\n        /* \"#utility.yul\":7921:8287   */\n      swap2\n      swap1\n      pop\n      jump\t// out\n        /* \"#utility.yul\":8293:8659   */\n    tag_489:\n        /* \"#utility.yul\":8435:8438   */\n      0x00\n        /* \"#utility.yul\":8456:8523   */\n      tag_491\n        /* \"#utility.yul\":8520:8522   */\n      0x14\n        /* \"#utility.yul\":8515:8518   */\n      dup4\n        /* \"#utility.yul\":8456:8523   */\n      tag_470\n      jump\t// in\n    tag_491:\n        /* \"#utility.yul\":8449:8523   */\n      swap2\n      pop\n        /* \"#utility.yul\":8532:8625   */\n      tag_492\n        /* \"#utility.yul\":8621:8624   */\n      dup3\n        /* \"#utility.yul\":8532:8625   */\n      tag_493\n      jump\t// in\n    tag_492:\n        /* \"#utility.yul\":8650:8652   */\n      0x20\n        /* \"#utility.yul\":8645:8648   */\n      dup3\n        /* \"#utility.yul\":8641:8653   */\n      add\n        /* \"#utility.yul\":8634:8653   */\n      swap1\n      pop\n        /* \"#utility.yul\":8293:8659   */\n      swap2\n      swap1\n      pop\n      jump\t// out\n        /* \"#utility.yul\":8665:9031   */\n    tag_494:\n        /* \"#utility.yul\":8807:8810   */\n      0x00\n        /* \"#utility.yul\":8828:8895   */\n      tag_496\n        /* \"#utility.yul\":8892:8894   */\n      0x18\n        /* \"#utility.yul\":8887:8890   */\n      dup4\n        /* \"#utility.yul\":8828:8895   */\n      tag_470\n      jump\t// in\n    tag_496:\n        /* \"#utility.yul\":8821:8895   */\n      swap2\n      pop\n        /* \"#utility.yul\":8904:8997   */\n      tag_497\n        /* \"#utility.yul\":8993:8996   */\n      dup3\n        /* \"#utility.yul\":8904:8997   */\n      tag_498\n      jump\t// in\n    tag_497:\n        /* \"#utility.yul\":9022:9024   */\n      0x20\n        /* \"#utility.yul\":9017:9020   */\n      dup3\n        /* \"#utility.yul\":9013:9025   */\n      add\n        /* \"#utility.yul\":9006:9025   */\n      swap1\n      pop\n        /* \"#utility.yul\":8665:9031   */\n      swap2\n      swap1\n      pop\n      jump\t// out\n        /* \"#utility.yul\":9037:9403   */\n    tag_499:\n        /* \"#utility.yul\":9179:9182   */\n      0x00\n        /* \"#utility.yul\":9200:9267   */\n      tag_501\n        /* \"#utility.yul\":9264:9266   */\n      0x10\n        /* \"#utility.yul\":9259:9262   */\n      dup4\n        /* \"#utility.yul\":9200:9267   */\n      tag_470\n      jump\t// in\n    tag_501:\n        /* \"#utility.yul\":9193:9267   */\n      swap2\n      pop\n        /* \"#utility.yul\":9276:9369   */\n      tag_502\n        /* \"#utility.yul\":9365:9368   */\n      dup3\n        /* \"#utility.yul\":9276:9369   */\n      tag_503\n      jump\t// in\n    tag_502:\n        /* \"#utility.yul\":9394:9396   */\n      0x20\n        /* \"#utility.yul\":9389:9392   */\n      dup3\n        /* \"#utility.yul\":9385:9397   */\n      add\n        /* \"#utility.yul\":9378:9397   */\n      swap1\n      pop\n        /* \"#utility.yul\":9037:9403   */\n      swap2\n      swap1\n      pop\n      jump\t// out\n        /* \"#utility.yul\":9409:9775   */\n    tag_504:\n        /* \"#utility.yul\":9551:9554   */\n      0x00\n        /* \"#utility.yul\":9572:9639   */\n      tag_506\n        /* \"#utility.yul\":9636:9638   */\n      0x0d\n        /* \"#utility.yul\":9631:9634   */\n      dup4\n        /* \"#utility.yul\":9572:9639   */\n      tag_470\n      jump\t// in\n    tag_506:\n        /* \"#utility.yul\":9565:9639   */\n      swap2\n      pop\n        /* \"#utility.yul\":9648:9741   */\n      tag_507\n        /* \"#utility.yul\":9737:9740   */\n      dup3\n        /* \"#utility.yul\":9648:9741   */\n      tag_508\n      jump\t// in\n    tag_507:\n        /* \"#utility.yul\":9766:9768   */\n      0x20\n        /* \"#utility.yul\":9761:9764   */\n      dup3\n        /* \"#utility.yul\":9757:9769   */\n      add\n        /* \"#utility.yul\":9750:9769   */\n      swap1\n      pop\n        /* \"#utility.yul\":9409:9775   */\n      swap2\n      swap1\n      pop\n      jump\t// out\n        /* \"#utility.yul\":9781:10147   */\n    tag_509:\n        /* \"#utility.yul\":9923:9926   */\n      0x00\n        /* \"#utility.yul\":9944:10011   */\n      tag_511\n        /* \"#utility.yul\":10008:10010   */\n      0x26\n        /* \"#utility.yul\":10003:10006   */\n      dup4\n        /* \"#utility.yul\":9944:10011   */\n      tag_470\n      jump\t// in\n    tag_511:\n        /* \"#utility.yul\":9937:10011   */\n      swap2\n      pop\n        /* \"#utility.yul\":10020:10113   */\n      tag_512\n        /* \"#utility.yul\":10109:10112   */\n      dup3\n        /* \"#utility.yul\":10020:10113   */\n      tag_513\n      jump\t// in\n    tag_512:\n        /* \"#utility.yul\":10138:10140   */\n      0x40\n        /* \"#utility.yul\":10133:10136   */\n      dup3\n        /* \"#utility.yul\":10129:10141   */\n      add\n        /* \"#utility.yul\":10122:10141   */\n      swap1\n      pop\n        /* \"#utility.yul\":9781:10147   */\n      swap2\n      swap1\n      pop\n      jump\t// out\n        /* \"#utility.yul\":10153:10519   */\n    tag_514:\n        /* \"#utility.yul\":10295:10298   */\n      0x00\n        /* \"#utility.yul\":10316:10383   */\n      tag_516\n        /* \"#utility.yul\":10380:10382   */\n      0x13\n        /* \"#utility.yul\":10375:10378   */\n      dup4\n        /* \"#utility.yul\":10316:10383   */\n      tag_470\n      jump\t// in\n    tag_516:\n        /* \"#utility.yul\":10309:10383   */\n      swap2\n      pop\n        /* \"#utility.yul\":10392:10485   */\n      tag_517\n        /* \"#utility.yul\":10481:10484   */\n      dup3\n        /* \"#utility.yul\":10392:10485   */\n      tag_518\n      jump\t// in\n    tag_517:\n        /* \"#utility.yul\":10510:10512   */\n      0x20\n        /* \"#utility.yul\":10505:10508   */\n      dup3\n        /* \"#utility.yul\":10501:10513   */\n      add\n        /* \"#utility.yul\":10494:10513   */\n      swap1\n      pop\n        /* \"#utility.yul\":10153:10519   */\n      swap2\n      swap1\n      pop\n      jump\t// out\n        /* \"#utility.yul\":10525:10891   */\n    tag_519:\n        /* \"#utility.yul\":10667:10670   */\n      0x00\n        /* \"#utility.yul\":10688:10755   */\n      tag_521\n        /* \"#utility.yul\":10752:10754   */\n      0x17\n        /* \"#utility.yul\":10747:10750   */\n      dup4\n        /* \"#utility.yul\":10688:10755   */\n      tag_470\n      jump\t// in\n    tag_521:\n        /* \"#utility.yul\":10681:10755   */\n      swap2\n      pop\n        /* \"#utility.yul\":10764:10857   */\n      tag_522\n        /* \"#utility.yul\":10853:10856   */\n      dup3\n        /* \"#utility.yul\":10764:10857   */\n      tag_523\n      jump\t// in\n    tag_522:\n        /* \"#utility.yul\":10882:10884   */\n      0x20\n        /* \"#utility.yul\":10877:10880   */\n      dup3\n        /* \"#utility.yul\":10873:10885   */\n      add\n        /* \"#utility.yul\":10866:10885   */\n      swap1\n      pop\n        /* \"#utility.yul\":10525:10891   */\n      swap2\n      swap1\n      pop\n      jump\t// out\n        /* \"#utility.yul\":10897:11263   */\n    tag_524:\n        /* \"#utility.yul\":11039:11042   */\n      0x00\n        /* \"#utility.yul\":11060:11127   */\n      tag_526\n        /* \"#utility.yul\":11124:11126   */\n      0x0d\n        /* \"#utility.yul\":11119:11122   */\n      dup4\n        /* \"#utility.yul\":11060:11127   */\n      tag_470\n      jump\t// in\n    tag_526:\n        /* \"#utility.yul\":11053:11127   */\n      swap2\n      pop\n        /* \"#utility.yul\":11136:11229   */\n      tag_527\n        /* \"#utility.yul\":11225:11228   */\n      dup3\n        /* \"#utility.yul\":11136:11229   */\n      tag_528\n      jump\t// in\n    tag_527:\n        /* \"#utility.yul\":11254:11256   */\n      0x20\n        /* \"#utility.yul\":11249:11252   */\n      dup3\n        /* \"#utility.yul\":11245:11257   */\n      add\n        /* \"#utility.yul\":11238:11257   */\n      swap1\n      pop\n        /* \"#utility.yul\":10897:11263   */\n      swap2\n      swap1\n      pop\n      jump\t// out\n        /* \"#utility.yul\":11269:11635   */\n    tag_529:\n        /* \"#utility.yul\":11411:11414   */\n      0x00\n        /* \"#utility.yul\":11432:11499   */\n      tag_531\n        /* \"#utility.yul\":11496:11498   */\n      0x1d\n        /* \"#utility.yul\":11491:11494   */\n      dup4\n        /* \"#utility.yul\":11432:11499   */\n      tag_470\n      jump\t// in\n    tag_531:\n        /* \"#utility.yul\":11425:11499   */\n      swap2\n      pop\n        /* \"#utility.yul\":11508:11601   */\n      tag_532\n        /* \"#utility.yul\":11597:11600   */\n      dup3\n        /* \"#utility.yul\":11508:11601   */\n      tag_533\n      jump\t// in\n    tag_532:\n        /* \"#utility.yul\":11626:11628   */\n      0x20\n        /* \"#utility.yul\":11621:11624   */\n      dup3\n        /* \"#utility.yul\":11617:11629   */\n      add\n        /* \"#utility.yul\":11610:11629   */\n      swap1\n      pop\n        /* \"#utility.yul\":11269:11635   */\n      swap2\n      swap1\n      pop\n      jump\t// out\n        /* \"#utility.yul\":11641:12007   */\n    tag_534:\n        /* \"#utility.yul\":11783:11786   */\n      0x00\n        /* \"#utility.yul\":11804:11871   */\n      tag_536\n        /* \"#utility.yul\":11868:11870   */\n      0x22\n        /* \"#utility.yul\":11863:11866   */\n      dup4\n        /* \"#utility.yul\":11804:11871   */\n      tag_470\n      jump\t// in\n    tag_536:\n        /* \"#utility.yul\":11797:11871   */\n      swap2\n      pop\n        /* \"#utility.yul\":11880:11973   */\n      tag_537\n        /* \"#utility.yul\":11969:11972   */\n      dup3\n        /* \"#utility.yul\":11880:11973   */\n      tag_538\n      jump\t// in\n    tag_537:\n        /* \"#utility.yul\":11998:12000   */\n      0x40\n        /* \"#utility.yul\":11993:11996   */\n      dup3\n        /* \"#utility.yul\":11989:12001   */\n      add\n        /* \"#utility.yul\":11982:12001   */\n      swap1\n      pop\n        /* \"#utility.yul\":11641:12007   */\n      swap2\n      swap1\n      pop\n      jump\t// out\n        /* \"#utility.yul\":12013:12379   */\n    tag_539:\n        /* \"#utility.yul\":12155:12158   */\n      0x00\n        /* \"#utility.yul\":12176:12243   */\n      tag_541\n        /* \"#utility.yul\":12240:12242   */\n      0x2a\n        /* \"#utility.yul\":12235:12238   */\n      dup4\n        /* \"#utility.yul\":12176:12243   */\n      tag_470\n      jump\t// in\n    tag_541:\n        /* \"#utility.yul\":12169:12243   */\n      swap2\n      pop\n        /* \"#utility.yul\":12252:12345   */\n      tag_542\n        /* \"#utility.yul\":12341:12344   */\n      dup3\n        /* \"#utility.yul\":12252:12345   */\n      tag_543\n      jump\t// in\n    tag_542:\n        /* \"#utility.yul\":12370:12372   */\n      0x40\n        /* \"#utility.yul\":12365:12368   */\n      dup3\n        /* \"#utility.yul\":12361:12373   */\n      add\n        /* \"#utility.yul\":12354:12373   */\n      swap1\n      pop\n        /* \"#utility.yul\":12013:12379   */\n      swap2\n      swap1\n      pop\n      jump\t// out\n        /* \"#utility.yul\":12385:12751   */\n    tag_544:\n        /* \"#utility.yul\":12527:12530   */\n      0x00\n        /* \"#utility.yul\":12548:12615   */\n      tag_546\n        /* \"#utility.yul\":12612:12614   */\n      0x0a\n        /* \"#utility.yul\":12607:12610   */\n      dup4\n        /* \"#utility.yul\":12548:12615   */\n      tag_470\n      jump\t// in\n    tag_546:\n        /* \"#utility.yul\":12541:12615   */\n      swap2\n      pop\n        /* \"#utility.yul\":12624:12717   */\n      tag_547\n        /* \"#utility.yul\":12713:12716   */\n      dup3\n        /* \"#utility.yul\":12624:12717   */\n      tag_548\n      jump\t// in\n    tag_547:\n        /* \"#utility.yul\":12742:12744   */\n      0x20\n        /* \"#utility.yul\":12737:12740   */\n      dup3\n        /* \"#utility.yul\":12733:12745   */\n      add\n        /* \"#utility.yul\":12726:12745   */\n      swap1\n      pop\n        /* \"#utility.yul\":12385:12751   */\n      swap2\n      swap1\n      pop\n      jump\t// out\n        /* \"#utility.yul\":12757:12875   */\n    tag_549:\n        /* \"#utility.yul\":12844:12868   */\n      tag_551\n        /* \"#utility.yul\":12862:12867   */\n      dup2\n        /* \"#utility.yul\":12844:12868   */\n      tag_552\n      jump\t// in\n    tag_551:\n        /* \"#utility.yul\":12839:12842   */\n      dup3\n        /* \"#utility.yul\":12832:12869   */\n      mstore\n        /* \"#utility.yul\":12757:12875   */\n      pop\n      pop\n      jump\t// out\n        /* \"#utility.yul\":12881:13152   */\n    tag_319:\n        /* \"#utility.yul\":13011:13014   */\n      0x00\n        /* \"#utility.yul\":13033:13126   */\n      tag_554\n        /* \"#utility.yul\":13122:13125   */\n      dup3\n        /* \"#utility.yul\":13113:13119   */\n      dup5\n        /* \"#utility.yul\":13033:13126   */\n      tag_445\n      jump\t// in\n    tag_554:\n        /* \"#utility.yul\":13026:13126   */\n      swap2\n      pop\n        /* \"#utility.yul\":13143:13146   */\n      dup2\n        /* \"#utility.yul\":13136:13146   */\n      swap1\n      pop\n        /* \"#utility.yul\":12881:13152   */\n      swap3\n      swap2\n      pop\n      pop\n      jump\t// out\n        /* \"#utility.yul\":13158:13380   */\n    tag_41:\n        /* \"#utility.yul\":13251:13255   */\n      0x00\n        /* \"#utility.yul\":13289:13291   */\n      0x20\n        /* \"#utility.yul\":13278:13287   */\n      dup3\n        /* \"#utility.yul\":13274:13292   */\n      add\n        /* \"#utility.yul\":13266:13292   */\n      swap1\n      pop\n        /* \"#utility.yul\":13302:13373   */\n      tag_556\n        /* \"#utility.yul\":13370:13371   */\n      0x00\n        /* \"#utility.yul\":13359:13368   */\n      dup4\n        /* \"#utility.yul\":13355:13372   */\n      add\n        /* \"#utility.yul\":13346:13352   */\n      dup5\n        /* \"#utility.yul\":13302:13373   */\n      tag_420\n      jump\t// in\n    tag_556:\n        /* \"#utility.yul\":13158:13380   */\n      swap3\n      swap2\n      pop\n      pop\n      jump\t// out\n        /* \"#utility.yul\":13386:13828   */\n    tag_296:\n        /* \"#utility.yul\":13535:13539   */\n      0x00\n        /* \"#utility.yul\":13573:13575   */\n      0x60\n        /* \"#utility.yul\":13562:13571   */\n      dup3\n        /* \"#utility.yul\":13558:13576   */\n      add\n        /* \"#utility.yul\":13550:13576   */\n      swap1\n      pop\n        /* \"#utility.yul\":13586:13657   */\n      tag_558\n        /* \"#utility.yul\":13654:13655   */\n      0x00\n        /* \"#utility.yul\":13643:13652   */\n      dup4\n        /* \"#utility.yul\":13639:13656   */\n      add\n        /* \"#utility.yul\":13630:13636   */\n      dup7\n        /* \"#utility.yul\":13586:13657   */\n      tag_420\n      jump\t// in\n    tag_558:\n        /* \"#utility.yul\":13667:13739   */\n      tag_559\n        /* \"#utility.yul\":13735:13737   */\n      0x20\n        /* \"#utility.yul\":13724:13733   */\n      dup4\n        /* \"#utility.yul\":13720:13738   */\n      add\n        /* \"#utility.yul\":13711:13717   */\n      dup6\n        /* \"#utility.yul\":13667:13739   */\n      tag_420\n      jump\t// in\n    tag_559:\n        /* \"#utility.yul\":13749:13821   */\n      tag_560\n        /* \"#utility.yul\":13817:13819   */\n      0x40\n        /* \"#utility.yul\":13806:13815   */\n      dup4\n        /* \"#utility.yul\":13802:13820   */\n      add\n        /* \"#utility.yul\":13793:13799   */\n      dup5\n        /* \"#utility.yul\":13749:13821   */\n      tag_549\n      jump\t// in\n    tag_560:\n        /* \"#utility.yul\":13386:13828   */\n      swap5\n      swap4\n      pop\n      pop\n      pop\n      pop\n      jump\t// out\n        /* \"#utility.yul\":13834:14308   */\n    tag_202:\n        /* \"#utility.yul\":13999:14003   */\n      0x00\n        /* \"#utility.yul\":14037:14039   */\n      0x60\n        /* \"#utility.yul\":14026:14035   */\n      dup3\n        /* \"#utility.yul\":14022:14040   */\n      add\n        /* \"#utility.yul\":14014:14040   */\n      swap1\n      pop\n        /* \"#utility.yul\":14050:14121   */\n      tag_562\n        /* \"#utility.yul\":14118:14119   */\n      0x00\n        /* \"#utility.yul\":14107:14116   */\n      dup4\n        /* \"#utility.yul\":14103:14120   */\n      add\n        /* \"#utility.yul\":14094:14100   */\n      dup7\n        /* \"#utility.yul\":14050:14121   */\n      tag_420\n      jump\t// in\n    tag_562:\n        /* \"#utility.yul\":14131:14203   */\n      tag_563\n        /* \"#utility.yul\":14199:14201   */\n      0x20\n        /* \"#utility.yul\":14188:14197   */\n      dup4\n        /* \"#utility.yul\":14184:14202   */\n      add\n        /* \"#utility.yul\":14175:14181   */\n      dup6\n        /* \"#utility.yul\":14131:14203   */\n      tag_549\n      jump\t// in\n    tag_563:\n        /* \"#utility.yul\":14213:14301   */\n      tag_564\n        /* \"#utility.yul\":14297:14299   */\n      0x40\n        /* \"#utility.yul\":14286:14295   */\n      dup4\n        /* \"#utility.yul\":14282:14300   */\n      add\n        /* \"#utility.yul\":14273:14279   */\n      dup5\n        /* \"#utility.yul\":14213:14301   */\n      tag_457\n      jump\t// in\n    tag_564:\n        /* \"#utility.yul\":13834:14308   */\n      swap5\n      swap4\n      pop\n      pop\n      pop\n      pop\n      jump\t// out\n        /* \"#utility.yul\":14314:14687   */\n    tag_66:\n        /* \"#utility.yul\":14457:14461   */\n      0x00\n        /* \"#utility.yul\":14495:14497   */\n      0x20\n        /* \"#utility.yul\":14484:14493   */\n      dup3\n        /* \"#utility.yul\":14480:14498   */\n      add\n        /* \"#utility.yul\":14472:14498   */\n      swap1\n      pop\n        /* \"#utility.yul\":14544:14553   */\n      dup2\n        /* \"#utility.yul\":14538:14542   */\n      dup2\n        /* \"#utility.yul\":14534:14554   */\n      sub\n        /* \"#utility.yul\":14530:14531   */\n      0x00\n        /* \"#utility.yul\":14519:14528   */\n      dup4\n        /* \"#utility.yul\":14515:14532   */\n      add\n        /* \"#utility.yul\":14508:14555   */\n      mstore\n        /* \"#utility.yul\":14572:14680   */\n      tag_566\n        /* \"#utility.yul\":14675:14679   */\n      dup2\n        /* \"#utility.yul\":14666:14672   */\n      dup5\n        /* \"#utility.yul\":14572:14680   */\n      tag_423\n      jump\t// in\n    tag_566:\n        /* \"#utility.yul\":14564:14680   */\n      swap1\n      pop\n        /* \"#utility.yul\":14314:14687   */\n      swap3\n      swap2\n      pop\n      pop\n      jump\t// out\n        /* \"#utility.yul\":14693:14903   */\n    tag_62:\n        /* \"#utility.yul\":14780:14784   */\n      0x00\n        /* \"#utility.yul\":14818:14820   */\n      0x20\n        /* \"#utility.yul\":14807:14816   */\n      dup3\n        /* \"#utility.yul\":14803:14821   */\n      add\n        /* \"#utility.yul\":14795:14821   */\n      swap1\n      pop\n        /* \"#utility.yul\":14831:14896   */\n      tag_568\n        /* \"#utility.yul\":14893:14894   */\n      0x00\n        /* \"#utility.yul\":14882:14891   */\n      dup4\n        /* \"#utility.yul\":14878:14895   */\n      add\n        /* \"#utility.yul\":14869:14875   */\n      dup5\n        /* \"#utility.yul\":14831:14896   */\n      tag_437\n      jump\t// in\n    tag_568:\n        /* \"#utility.yul\":14693:14903   */\n      swap3\n      swap2\n      pop\n      pop\n      jump\t// out\n        /* \"#utility.yul\":14909:15241   */\n    tag_100:\n        /* \"#utility.yul\":15030:15034   */\n      0x00\n        /* \"#utility.yul\":15068:15070   */\n      0x40\n        /* \"#utility.yul\":15057:15066   */\n      dup3\n        /* \"#utility.yul\":15053:15071   */\n      add\n        /* \"#utility.yul\":15045:15071   */\n      swap1\n      pop\n        /* \"#utility.yul\":15081:15152   */\n      tag_570\n        /* \"#utility.yul\":15149:15150   */\n      0x00\n        /* \"#utility.yul\":15138:15147   */\n      dup4\n        /* \"#utility.yul\":15134:15151   */\n      add\n        /* \"#utility.yul\":15125:15131   */\n      dup6\n        /* \"#utility.yul\":15081:15152   */\n      tag_441\n      jump\t// in\n    tag_570:\n        /* \"#utility.yul\":15162:15234   */\n      tag_571\n        /* \"#utility.yul\":15230:15232   */\n      0x20\n        /* \"#utility.yul\":15219:15228   */\n      dup4\n        /* \"#utility.yul\":15215:15233   */\n      add\n        /* \"#utility.yul\":15206:15212   */\n      dup5\n        /* \"#utility.yul\":15162:15234   */\n      tag_420\n      jump\t// in\n    tag_571:\n        /* \"#utility.yul\":14909:15241   */\n      swap4\n      swap3\n      pop\n      pop\n      pop\n      jump\t// out\n        /* \"#utility.yul\":15247:15515   */\n    tag_74:\n        /* \"#utility.yul\":15363:15367   */\n      0x00\n        /* \"#utility.yul\":15401:15403   */\n      0x20\n        /* \"#utility.yul\":15390:15399   */\n      dup3\n        /* \"#utility.yul\":15386:15404   */\n      add\n        /* \"#utility.yul\":15378:15404   */\n      swap1\n      pop\n        /* \"#utility.yul\":15414:15508   */\n      tag_573\n        /* \"#utility.yul\":15505:15506   */\n      0x00\n        /* \"#utility.yul\":15494:15503   */\n      dup4\n        /* \"#utility.yul\":15490:15507   */\n      add\n        /* \"#utility.yul\":15481:15487   */\n      dup5\n        /* \"#utility.yul\":15414:15508   */\n      tag_453\n      jump\t// in\n    tag_573:\n        /* \"#utility.yul\":15247:15515   */\n      swap3\n      swap2\n      pop\n      pop\n      jump\t// out\n        /* \"#utility.yul\":15521:15761   */\n    tag_37:\n        /* \"#utility.yul\":15623:15627   */\n      0x00\n        /* \"#utility.yul\":15661:15663   */\n      0x20\n        /* \"#utility.yul\":15650:15659   */\n      dup3\n        /* \"#utility.yul\":15646:15664   */\n      add\n        /* \"#utility.yul\":15638:15664   */\n      swap1\n      pop\n        /* \"#utility.yul\":15674:15754   */\n      tag_575\n        /* \"#utility.yul\":15751:15752   */\n      0x00\n        /* \"#utility.yul\":15740:15749   */\n      dup4\n        /* \"#utility.yul\":15736:15753   */\n      add\n        /* \"#utility.yul\":15727:15733   */\n      dup5\n        /* \"#utility.yul\":15674:15754   */\n      tag_461\n      jump\t// in\n    tag_575:\n        /* \"#utility.yul\":15521:15761   */\n      swap3\n      swap2\n      pop\n      pop\n      jump\t// out\n        /* \"#utility.yul\":15767:16080   */\n    tag_332:\n        /* \"#utility.yul\":15880:15884   */\n      0x00\n        /* \"#utility.yul\":15918:15920   */\n      0x20\n        /* \"#utility.yul\":15907:15916   */\n      dup3\n        /* \"#utility.yul\":15903:15921   */\n      add\n        /* \"#utility.yul\":15895:15921   */\n      swap1\n      pop\n        /* \"#utility.yul\":15967:15976   */\n      dup2\n        /* \"#utility.yul\":15961:15965   */\n      dup2\n        /* \"#utility.yul\":15957:15977   */\n      sub\n        /* \"#utility.yul\":15953:15954   */\n      0x00\n        /* \"#utility.yul\":15942:15951   */\n      dup4\n        /* \"#utility.yul\":15938:15955   */\n      add\n        /* \"#utility.yul\":15931:15978   */\n      mstore\n        /* \"#utility.yul\":15995:16073   */\n      tag_577\n        /* \"#utility.yul\":16068:16072   */\n      dup2\n        /* \"#utility.yul\":16059:16065   */\n      dup5\n        /* \"#utility.yul\":15995:16073   */\n      tag_465\n      jump\t// in\n    tag_577:\n        /* \"#utility.yul\":15987:16073   */\n      swap1\n      pop\n        /* \"#utility.yul\":15767:16080   */\n      swap3\n      swap2\n      pop\n      pop\n      jump\t// out\n        /* \"#utility.yul\":16086:16505   */\n    tag_139:\n        /* \"#utility.yul\":16252:16256   */\n      0x00\n        /* \"#utility.yul\":16290:16292   */\n      0x20\n        /* \"#utility.yul\":16279:16288   */\n      dup3\n        /* \"#utility.yul\":16275:16293   */\n      add\n        /* \"#utility.yul\":16267:16293   */\n      swap1\n      pop\n        /* \"#utility.yul\":16339:16348   */\n      dup2\n        /* \"#utility.yul\":16333:16337   */\n      dup2\n        /* \"#utility.yul\":16329:16349   */\n      sub\n        /* \"#utility.yul\":16325:16326   */\n      0x00\n        /* \"#utility.yul\":16314:16323   */\n      dup4\n        /* \"#utility.yul\":16310:16327   */\n      add\n        /* \"#utility.yul\":16303:16350   */\n      mstore\n        /* \"#utility.yul\":16367:16498   */\n      tag_579\n        /* \"#utility.yul\":16493:16497   */\n      dup2\n        /* \"#utility.yul\":16367:16498   */\n      tag_474\n      jump\t// in\n    tag_579:\n        /* \"#utility.yul\":16359:16498   */\n      swap1\n      pop\n        /* \"#utility.yul\":16086:16505   */\n      swap2\n      swap1\n      pop\n      jump\t// out\n        /* \"#utility.yul\":16511:16930   */\n    tag_108:\n        /* \"#utility.yul\":16677:16681   */\n      0x00\n        /* \"#utility.yul\":16715:16717   */\n      0x20\n        /* \"#utility.yul\":16704:16713   */\n      dup3\n        /* \"#utility.yul\":16700:16718   */\n      add\n        /* \"#utility.yul\":16692:16718   */\n      swap1\n      pop\n        /* \"#utility.yul\":16764:16773   */\n      dup2\n        /* \"#utility.yul\":16758:16762   */\n      dup2\n        /* \"#utility.yul\":16754:16774   */\n      sub\n        /* \"#utility.yul\":16750:16751   */\n      0x00\n        /* \"#utility.yul\":16739:16748   */\n      dup4\n        /* \"#utility.yul\":16735:16752   */\n      add\n        /* \"#utility.yul\":16728:16775   */\n      mstore\n        /* \"#utility.yul\":16792:16923   */\n      tag_581\n        /* \"#utility.yul\":16918:16922   */\n      dup2\n        /* \"#utility.yul\":16792:16923   */\n      tag_479\n      jump\t// in\n    tag_581:\n        /* \"#utility.yul\":16784:16923   */\n      swap1\n      pop\n        /* \"#utility.yul\":16511:16930   */\n      swap2\n      swap1\n      pop\n      jump\t// out\n        /* \"#utility.yul\":16936:17355   */\n    tag_214:\n        /* \"#utility.yul\":17102:17106   */\n      0x00\n        /* \"#utility.yul\":17140:17142   */\n      0x20\n        /* \"#utility.yul\":17129:17138   */\n      dup3\n        /* \"#utility.yul\":17125:17143   */\n      add\n        /* \"#utility.yul\":17117:17143   */\n      swap1\n      pop\n        /* \"#utility.yul\":17189:17198   */\n      dup2\n        /* \"#utility.yul\":17183:17187   */\n      dup2\n        /* \"#utility.yul\":17179:17199   */\n      sub\n        /* \"#utility.yul\":17175:17176   */\n      0x00\n        /* \"#utility.yul\":17164:17173   */\n      dup4\n        /* \"#utility.yul\":17160:17177   */\n      add\n        /* \"#utility.yul\":17153:17200   */\n      mstore\n        /* \"#utility.yul\":17217:17348   */\n      tag_583\n        /* \"#utility.yul\":17343:17347   */\n      dup2\n        /* \"#utility.yul\":17217:17348   */\n      tag_484\n      jump\t// in\n    tag_583:\n        /* \"#utility.yul\":17209:17348   */\n      swap1\n      pop\n        /* \"#utility.yul\":16936:17355   */\n      swap2\n      swap1\n      pop\n      jump\t// out\n        /* \"#utility.yul\":17361:17780   */\n    tag_198:\n        /* \"#utility.yul\":17527:17531   */\n      0x00\n        /* \"#utility.yul\":17565:17567   */\n      0x20\n        /* \"#utility.yul\":17554:17563   */\n      dup3\n        /* \"#utility.yul\":17550:17568   */\n      add\n        /* \"#utility.yul\":17542:17568   */\n      swap1\n      pop\n        /* \"#utility.yul\":17614:17623   */\n      dup2\n        /* \"#utility.yul\":17608:17612   */\n      dup2\n        /* \"#utility.yul\":17604:17624   */\n      sub\n        /* \"#utility.yul\":17600:17601   */\n      0x00\n        /* \"#utility.yul\":17589:17598   */\n      dup4\n        /* \"#utility.yul\":17585:17602   */\n      add\n        /* \"#utility.yul\":17578:17625   */\n      mstore\n        /* \"#utility.yul\":17642:17773   */\n      tag_585\n        /* \"#utility.yul\":17768:17772   */\n      dup2\n        /* \"#utility.yul\":17642:17773   */\n      tag_489\n      jump\t// in\n    tag_585:\n        /* \"#utility.yul\":17634:17773   */\n      swap1\n      pop\n        /* \"#utility.yul\":17361:17780   */\n      swap2\n      swap1\n      pop\n      jump\t// out\n        /* \"#utility.yul\":17786:18205   */\n    tag_291:\n        /* \"#utility.yul\":17952:17956   */\n      0x00\n        /* \"#utility.yul\":17990:17992   */\n      0x20\n        /* \"#utility.yul\":17979:17988   */\n      dup3\n        /* \"#utility.yul\":17975:17993   */\n      add\n        /* \"#utility.yul\":17967:17993   */\n      swap1\n      pop\n        /* \"#utility.yul\":18039:18048   */\n      dup2\n        /* \"#utility.yul\":18033:18037   */\n      dup2\n        /* \"#utility.yul\":18029:18049   */\n      sub\n        /* \"#utility.yul\":18025:18026   */\n      0x00\n        /* \"#utility.yul\":18014:18023   */\n      dup4\n        /* \"#utility.yul\":18010:18027   */\n      add\n        /* \"#utility.yul\":18003:18050   */\n      mstore\n        /* \"#utility.yul\":18067:18198   */\n      tag_587\n        /* \"#utility.yul\":18193:18197   */\n      dup2\n        /* \"#utility.yul\":18067:18198   */\n      tag_494\n      jump\t// in\n    tag_587:\n        /* \"#utility.yul\":18059:18198   */\n      swap1\n      pop\n        /* \"#utility.yul\":17786:18205   */\n      swap2\n      swap1\n      pop\n      jump\t// out\n        /* \"#utility.yul\":18211:18630   */\n    tag_194:\n        /* \"#utility.yul\":18377:18381   */\n      0x00\n        /* \"#utility.yul\":18415:18417   */\n      0x20\n        /* \"#utility.yul\":18404:18413   */\n      dup3\n        /* \"#utility.yul\":18400:18418   */\n      add\n        /* \"#utility.yul\":18392:18418   */\n      swap1\n      pop\n        /* \"#utility.yul\":18464:18473   */\n      dup2\n        /* \"#utility.yul\":18458:18462   */\n      dup2\n        /* \"#utility.yul\":18454:18474   */\n      sub\n        /* \"#utility.yul\":18450:18451   */\n      0x00\n        /* \"#utility.yul\":18439:18448   */\n      dup4\n        /* \"#utility.yul\":18435:18452   */\n      add\n        /* \"#utility.yul\":18428:18475   */\n      mstore\n        /* \"#utility.yul\":18492:18623   */\n      tag_589\n        /* \"#utility.yul\":18618:18622   */\n      dup2\n        /* \"#utility.yul\":18492:18623   */\n      tag_499\n      jump\t// in\n    tag_589:\n        /* \"#utility.yul\":18484:18623   */\n      swap1\n      pop\n        /* \"#utility.yul\":18211:18630   */\n      swap2\n      swap1\n      pop\n      jump\t// out\n        /* \"#utility.yul\":18636:19055   */\n    tag_117:\n        /* \"#utility.yul\":18802:18806   */\n      0x00\n        /* \"#utility.yul\":18840:18842   */\n      0x20\n        /* \"#utility.yul\":18829:18838   */\n      dup3\n        /* \"#utility.yul\":18825:18843   */\n      add\n        /* \"#utility.yul\":18817:18843   */\n      swap1\n      pop\n        /* \"#utility.yul\":18889:18898   */\n      dup2\n        /* \"#utility.yul\":18883:18887   */\n      dup2\n        /* \"#utility.yul\":18879:18899   */\n      sub\n        /* \"#utility.yul\":18875:18876   */\n      0x00\n        /* \"#utility.yul\":18864:18873   */\n      dup4\n        /* \"#utility.yul\":18860:18877   */\n      add\n        /* \"#utility.yul\":18853:18900   */\n      mstore\n        /* \"#utility.yul\":18917:19048   */\n      tag_591\n        /* \"#utility.yul\":19043:19047   */\n      dup2\n        /* \"#utility.yul\":18917:19048   */\n      tag_504\n      jump\t// in\n    tag_591:\n        /* \"#utility.yul\":18909:19048   */\n      swap1\n      pop\n        /* \"#utility.yul\":18636:19055   */\n      swap2\n      swap1\n      pop\n      jump\t// out\n        /* \"#utility.yul\":19061:19480   */\n    tag_312:\n        /* \"#utility.yul\":19227:19231   */\n      0x00\n        /* \"#utility.yul\":19265:19267   */\n      0x20\n        /* \"#utility.yul\":19254:19263   */\n      dup3\n        /* \"#utility.yul\":19250:19268   */\n      add\n        /* \"#utility.yul\":19242:19268   */\n      swap1\n      pop\n        /* \"#utility.yul\":19314:19323   */\n      dup2\n        /* \"#utility.yul\":19308:19312   */\n      dup2\n        /* \"#utility.yul\":19304:19324   */\n      sub\n        /* \"#utility.yul\":19300:19301   */\n      0x00\n        /* \"#utility.yul\":19289:19298   */\n      dup4\n        /* \"#utility.yul\":19285:19302   */\n      add\n        /* \"#utility.yul\":19278:19325   */\n      mstore\n        /* \"#utility.yul\":19342:19473   */\n      tag_593\n        /* \"#utility.yul\":19468:19472   */\n      dup2\n        /* \"#utility.yul\":19342:19473   */\n      tag_509\n      jump\t// in\n    tag_593:\n        /* \"#utility.yul\":19334:19473   */\n      swap1\n      pop\n        /* \"#utility.yul\":19061:19480   */\n      swap2\n      swap1\n      pop\n      jump\t// out\n        /* \"#utility.yul\":19486:19905   */\n    tag_174:\n        /* \"#utility.yul\":19652:19656   */\n      0x00\n        /* \"#utility.yul\":19690:19692   */\n      0x20\n        /* \"#utility.yul\":19679:19688   */\n      dup3\n        /* \"#utility.yul\":19675:19693   */\n      add\n        /* \"#utility.yul\":19667:19693   */\n      swap1\n      pop\n        /* \"#utility.yul\":19739:19748   */\n      dup2\n        /* \"#utility.yul\":19733:19737   */\n      dup2\n        /* \"#utility.yul\":19729:19749   */\n      sub\n        /* \"#utility.yul\":19725:19726   */\n      0x00\n        /* \"#utility.yul\":19714:19723   */\n      dup4\n        /* \"#utility.yul\":19710:19727   */\n      add\n        /* \"#utility.yul\":19703:19750   */\n      mstore\n        /* \"#utility.yul\":19767:19898   */\n      tag_595\n        /* \"#utility.yul\":19893:19897   */\n      dup2\n        /* \"#utility.yul\":19767:19898   */\n      tag_514\n      jump\t// in\n    tag_595:\n        /* \"#utility.yul\":19759:19898   */\n      swap1\n      pop\n        /* \"#utility.yul\":19486:19905   */\n      swap2\n      swap1\n      pop\n      jump\t// out\n        /* \"#utility.yul\":19911:20330   */\n    tag_133:\n        /* \"#utility.yul\":20077:20081   */\n      0x00\n        /* \"#utility.yul\":20115:20117   */\n      0x20\n        /* \"#utility.yul\":20104:20113   */\n      dup3\n        /* \"#utility.yul\":20100:20118   */\n      add\n        /* \"#utility.yul\":20092:20118   */\n      swap1\n      pop\n        /* \"#utility.yul\":20164:20173   */\n      dup2\n        /* \"#utility.yul\":20158:20162   */\n      dup2\n        /* \"#utility.yul\":20154:20174   */\n      sub\n        /* \"#utility.yul\":20150:20151   */\n      0x00\n        /* \"#utility.yul\":20139:20148   */\n      dup4\n        /* \"#utility.yul\":20135:20152   */\n      add\n        /* \"#utility.yul\":20128:20175   */\n      mstore\n        /* \"#utility.yul\":20192:20323   */\n      tag_597\n        /* \"#utility.yul\":20318:20322   */\n      dup2\n        /* \"#utility.yul\":20192:20323   */\n      tag_519\n      jump\t// in\n    tag_597:\n        /* \"#utility.yul\":20184:20323   */\n      swap1\n      pop\n        /* \"#utility.yul\":19911:20330   */\n      swap2\n      swap1\n      pop\n      jump\t// out\n        /* \"#utility.yul\":20336:20755   */\n    tag_166:\n        /* \"#utility.yul\":20502:20506   */\n      0x00\n        /* \"#utility.yul\":20540:20542   */\n      0x20\n        /* \"#utility.yul\":20529:20538   */\n      dup3\n        /* \"#utility.yul\":20525:20543   */\n      add\n        /* \"#utility.yul\":20517:20543   */\n      swap1\n      pop\n        /* \"#utility.yul\":20589:20598   */\n      dup2\n        /* \"#utility.yul\":20583:20587   */\n      dup2\n        /* \"#utility.yul\":20579:20599   */\n      sub\n        /* \"#utility.yul\":20575:20576   */\n      0x00\n        /* \"#utility.yul\":20564:20573   */\n      dup4\n        /* \"#utility.yul\":20560:20577   */\n      add\n        /* \"#utility.yul\":20553:20600   */\n      mstore\n        /* \"#utility.yul\":20617:20748   */\n      tag_599\n        /* \"#utility.yul\":20743:20747   */\n      dup2\n        /* \"#utility.yul\":20617:20748   */\n      tag_524\n      jump\t// in\n    tag_599:\n        /* \"#utility.yul\":20609:20748   */\n      swap1\n      pop\n        /* \"#utility.yul\":20336:20755   */\n      swap2\n      swap1\n      pop\n      jump\t// out\n        /* \"#utility.yul\":20761:21180   */\n    tag_317:\n        /* \"#utility.yul\":20927:20931   */\n      0x00\n        /* \"#utility.yul\":20965:20967   */\n      0x20\n        /* \"#utility.yul\":20954:20963   */\n      dup3\n        /* \"#utility.yul\":20950:20968   */\n      add\n        /* \"#utility.yul\":20942:20968   */\n      swap1\n      pop\n        /* \"#utility.yul\":21014:21023   */\n      dup2\n        /* \"#utility.yul\":21008:21012   */\n      dup2\n        /* \"#utility.yul\":21004:21024   */\n      sub\n        /* \"#utility.yul\":21000:21001   */\n      0x00\n        /* \"#utility.yul\":20989:20998   */\n      dup4\n        /* \"#utility.yul\":20985:21002   */\n      add\n        /* \"#utility.yul\":20978:21025   */\n      mstore\n        /* \"#utility.yul\":21042:21173   */\n      tag_601\n        /* \"#utility.yul\":21168:21172   */\n      dup2\n        /* \"#utility.yul\":21042:21173   */\n      tag_529\n      jump\t// in\n    tag_601:\n        /* \"#utility.yul\":21034:21173   */\n      swap1\n      pop\n        /* \"#utility.yul\":20761:21180   */\n      swap2\n      swap1\n      pop\n      jump\t// out\n        /* \"#utility.yul\":21186:21605   */\n    tag_170:\n        /* \"#utility.yul\":21352:21356   */\n      0x00\n        /* \"#utility.yul\":21390:21392   */\n      0x20\n        /* \"#utility.yul\":21379:21388   */\n      dup3\n        /* \"#utility.yul\":21375:21393   */\n      add\n        /* \"#utility.yul\":21367:21393   */\n      swap1\n      pop\n        /* \"#utility.yul\":21439:21448   */\n      dup2\n        /* \"#utility.yul\":21433:21437   */\n      dup2\n        /* \"#utility.yul\":21429:21449   */\n      sub\n        /* \"#utility.yul\":21425:21426   */\n      0x00\n        /* \"#utility.yul\":21414:21423   */\n      dup4\n        /* \"#utility.yul\":21410:21427   */\n      add\n        /* \"#utility.yul\":21403:21450   */\n      mstore\n        /* \"#utility.yul\":21467:21598   */\n      tag_603\n        /* \"#utility.yul\":21593:21597   */\n      dup2\n        /* \"#utility.yul\":21467:21598   */\n      tag_534\n      jump\t// in\n    tag_603:\n        /* \"#utility.yul\":21459:21598   */\n      swap1\n      pop\n        /* \"#utility.yul\":21186:21605   */\n      swap2\n      swap1\n      pop\n      jump\t// out\n        /* \"#utility.yul\":21611:22030   */\n    tag_305:\n        /* \"#utility.yul\":21777:21781   */\n      0x00\n        /* \"#utility.yul\":21815:21817   */\n      0x20\n        /* \"#utility.yul\":21804:21813   */\n      dup3\n        /* \"#utility.yul\":21800:21818   */\n      add\n        /* \"#utility.yul\":21792:21818   */\n      swap1\n      pop\n        /* \"#utility.yul\":21864:21873   */\n      dup2\n        /* \"#utility.yul\":21858:21862   */\n      dup2\n        /* \"#utility.yul\":21854:21874   */\n      sub\n        /* \"#utility.yul\":21850:21851   */\n      0x00\n        /* \"#utility.yul\":21839:21848   */\n      dup4\n        /* \"#utility.yul\":21835:21852   */\n      add\n        /* \"#utility.yul\":21828:21875   */\n      mstore\n        /* \"#utility.yul\":21892:22023   */\n      tag_605\n        /* \"#utility.yul\":22018:22022   */\n      dup2\n        /* \"#utility.yul\":21892:22023   */\n      tag_539\n      jump\t// in\n    tag_605:\n        /* \"#utility.yul\":21884:22023   */\n      swap1\n      pop\n        /* \"#utility.yul\":21611:22030   */\n      swap2\n      swap1\n      pop\n      jump\t// out\n        /* \"#utility.yul\":22036:22455   */\n    tag_158:\n        /* \"#utility.yul\":22202:22206   */\n      0x00\n        /* \"#utility.yul\":22240:22242   */\n      0x20\n        /* \"#utility.yul\":22229:22238   */\n      dup3\n        /* \"#utility.yul\":22225:22243   */\n      add\n        /* \"#utility.yul\":22217:22243   */\n      swap1\n      pop\n        /* \"#utility.yul\":22289:22298   */\n      dup2\n        /* \"#utility.yul\":22283:22287   */\n      dup2\n        /* \"#utility.yul\":22279:22299   */\n      sub\n        /* \"#utility.yul\":22275:22276   */\n      0x00\n        /* \"#utility.yul\":22264:22273   */\n      dup4\n        /* \"#utility.yul\":22260:22277   */\n      add\n        /* \"#utility.yul\":22253:22300   */\n      mstore\n        /* \"#utility.yul\":22317:22448   */\n      tag_607\n        /* \"#utility.yul\":22443:22447   */\n      dup2\n        /* \"#utility.yul\":22317:22448   */\n      tag_544\n      jump\t// in\n    tag_607:\n        /* \"#utility.yul\":22309:22448   */\n      swap1\n      pop\n        /* \"#utility.yul\":22036:22455   */\n      swap2\n      swap1\n      pop\n      jump\t// out\n        /* \"#utility.yul\":22461:22683   */\n    tag_78:\n        /* \"#utility.yul\":22554:22558   */\n      0x00\n        /* \"#utility.yul\":22592:22594   */\n      0x20\n        /* \"#utility.yul\":22581:22590   */\n      dup3\n        /* \"#utility.yul\":22577:22595   */\n      add\n        /* \"#utility.yul\":22569:22595   */\n      swap1\n      pop\n        /* \"#utility.yul\":22605:22676   */\n      tag_609\n        /* \"#utility.yul\":22673:22674   */\n      0x00\n        /* \"#utility.yul\":22662:22671   */\n      dup4\n        /* \"#utility.yul\":22658:22675   */\n      add\n        /* \"#utility.yul\":22649:22655   */\n      dup5\n        /* \"#utility.yul\":22605:22676   */\n      tag_549\n      jump\t// in\n    tag_609:\n        /* \"#utility.yul\":22461:22683   */\n      swap3\n      swap2\n      pop\n      pop\n      jump\t// out\n        /* \"#utility.yul\":22689:23444   */\n    tag_70:\n        /* \"#utility.yul\":22914:22918   */\n      0x00\n        /* \"#utility.yul\":22952:22955   */\n      0xa0\n        /* \"#utility.yul\":22941:22950   */\n      dup3\n        /* \"#utility.yul\":22937:22956   */\n      add\n        /* \"#utility.yul\":22929:22956   */\n      swap1\n      pop\n        /* \"#utility.yul\":22966:23037   */\n      tag_611\n        /* \"#utility.yul\":23034:23035   */\n      0x00\n        /* \"#utility.yul\":23023:23032   */\n      dup4\n        /* \"#utility.yul\":23019:23036   */\n      add\n        /* \"#utility.yul\":23010:23016   */\n      dup9\n        /* \"#utility.yul\":22966:23037   */\n      tag_549\n      jump\t// in\n    tag_611:\n        /* \"#utility.yul\":23084:23093   */\n      dup2\n        /* \"#utility.yul\":23078:23082   */\n      dup2\n        /* \"#utility.yul\":23074:23094   */\n      sub\n        /* \"#utility.yul\":23069:23071   */\n      0x20\n        /* \"#utility.yul\":23058:23067   */\n      dup4\n        /* \"#utility.yul\":23054:23072   */\n      add\n        /* \"#utility.yul\":23047:23095   */\n      mstore\n        /* \"#utility.yul\":23112:23190   */\n      tag_612\n        /* \"#utility.yul\":23185:23189   */\n      dup2\n        /* \"#utility.yul\":23176:23182   */\n      dup8\n        /* \"#utility.yul\":23112:23190   */\n      tag_465\n      jump\t// in\n    tag_612:\n        /* \"#utility.yul\":23104:23190   */\n      swap1\n      pop\n        /* \"#utility.yul\":23200:23272   */\n      tag_613\n        /* \"#utility.yul\":23268:23270   */\n      0x40\n        /* \"#utility.yul\":23257:23266   */\n      dup4\n        /* \"#utility.yul\":23253:23271   */\n      add\n        /* \"#utility.yul\":23244:23250   */\n      dup7\n        /* \"#utility.yul\":23200:23272   */\n      tag_549\n      jump\t// in\n    tag_613:\n        /* \"#utility.yul\":23282:23354   */\n      tag_614\n        /* \"#utility.yul\":23350:23352   */\n      0x60\n        /* \"#utility.yul\":23339:23348   */\n      dup4\n        /* \"#utility.yul\":23335:23353   */\n      add\n        /* \"#utility.yul\":23326:23332   */\n      dup6\n        /* \"#utility.yul\":23282:23354   */\n      tag_549\n      jump\t// in\n    tag_614:\n        /* \"#utility.yul\":23364:23437   */\n      tag_615\n        /* \"#utility.yul\":23432:23435   */\n      0x80\n        /* \"#utility.yul\":23421:23430   */\n      dup4\n        /* \"#utility.yul\":23417:23436   */\n      add\n        /* \"#utility.yul\":23408:23414   */\n      dup5\n        /* \"#utility.yul\":23364:23437   */\n      tag_549\n      jump\t// in\n    tag_615:\n        /* \"#utility.yul\":22689:23444   */\n      swap7\n      swap6\n      pop\n      pop\n      pop\n      pop\n      pop\n      pop\n      jump\t// out\n        /* \"#utility.yul\":23450:23579   */\n    tag_349:\n        /* \"#utility.yul\":23484:23490   */\n      0x00\n        /* \"#utility.yul\":23511:23531   */\n      tag_617\n      tag_618\n      jump\t// in\n    tag_617:\n        /* \"#utility.yul\":23501:23531   */\n      swap1\n      pop\n        /* \"#utility.yul\":23540:23573   */\n      tag_619\n        /* \"#utility.yul\":23568:23572   */\n      dup3\n        /* \"#utility.yul\":23560:23566   */\n      dup3\n        /* \"#utility.yul\":23540:23573   */\n      tag_620\n      jump\t// in\n    tag_619:\n        /* \"#utility.yul\":23450:23579   */\n      swap2\n      swap1\n      pop\n      jump\t// out\n        /* \"#utility.yul\":23585:23660   */\n    tag_618:\n        /* \"#utility.yul\":23618:23624   */\n      0x00\n        /* \"#utility.yul\":23651:23653   */\n      0x40\n        /* \"#utility.yul\":23645:23654   */\n      mload\n        /* \"#utility.yul\":23635:23654   */\n      swap1\n      pop\n        /* \"#utility.yul\":23585:23660   */\n      swap1\n      jump\t// out\n        /* \"#utility.yul\":23666:23974   */\n    tag_348:\n        /* \"#utility.yul\":23728:23732   */\n      0x00\n        /* \"#utility.yul\":23818:23836   */\n      0xffffffffffffffff\n        /* \"#utility.yul\":23810:23816   */\n      dup3\n        /* \"#utility.yul\":23807:23837   */\n      gt\n        /* \"#utility.yul\":23804:23860   */\n      iszero\n      tag_623\n      jumpi\n        /* \"#utility.yul\":23840:23858   */\n      tag_624\n      tag_223\n      jump\t// in\n    tag_624:\n        /* \"#utility.yul\":23804:23860   */\n    tag_623:\n        /* \"#utility.yul\":23878:23907   */\n      tag_625\n        /* \"#utility.yul\":23900:23906   */\n      dup3\n        /* \"#utility.yul\":23878:23907   */\n      tag_473\n      jump\t// in\n    tag_625:\n        /* \"#utility.yul\":23870:23907   */\n      swap1\n      pop\n        /* \"#utility.yul\":23962:23966   */\n      0x20\n        /* \"#utility.yul\":23956:23960   */\n      dup2\n        /* \"#utility.yul\":23952:23967   */\n      add\n        /* \"#utility.yul\":23944:23967   */\n      swap1\n      pop\n        /* \"#utility.yul\":23666:23974   */\n      swap2\n      swap1\n      pop\n      jump\t// out\n        /* \"#utility.yul\":23980:24112   */\n    tag_430:\n        /* \"#utility.yul\":24047:24051   */\n      0x00\n        /* \"#utility.yul\":24070:24073   */\n      dup2\n        /* \"#utility.yul\":24062:24073   */\n      swap1\n      pop\n        /* \"#utility.yul\":24100:24104   */\n      0x20\n        /* \"#utility.yul\":24095:24098   */\n      dup3\n        /* \"#utility.yul\":24091:24105   */\n      add\n        /* \"#utility.yul\":24083:24105   */\n      swap1\n      pop\n        /* \"#utility.yul\":23980:24112   */\n      swap2\n      swap1\n      pop\n      jump\t// out\n        /* \"#utility.yul\":24118:24232   */\n    tag_426:\n        /* \"#utility.yul\":24185:24191   */\n      0x00\n        /* \"#utility.yul\":24219:24224   */\n      dup2\n        /* \"#utility.yul\":24213:24225   */\n      mload\n        /* \"#utility.yul\":24203:24225   */\n      swap1\n      pop\n        /* \"#utility.yul\":24118:24232   */\n      swap2\n      swap1\n      pop\n      jump\t// out\n        /* \"#utility.yul\":24238:24336   */\n    tag_448:\n        /* \"#utility.yul\":24289:24295   */\n      0x00\n        /* \"#utility.yul\":24323:24328   */\n      dup2\n        /* \"#utility.yul\":24317:24329   */\n      mload\n        /* \"#utility.yul\":24307:24329   */\n      swap1\n      pop\n        /* \"#utility.yul\":24238:24336   */\n      swap2\n      swap1\n      pop\n      jump\t// out\n        /* \"#utility.yul\":24342:24441   */\n    tag_468:\n        /* \"#utility.yul\":24394:24400   */\n      0x00\n        /* \"#utility.yul\":24428:24433   */\n      dup2\n        /* \"#utility.yul\":24422:24434   */\n      mload\n        /* \"#utility.yul\":24412:24434   */\n      swap1\n      pop\n        /* \"#utility.yul\":24342:24441   */\n      swap2\n      swap1\n      pop\n      jump\t// out\n        /* \"#utility.yul\":24447:24560   */\n    tag_436:\n        /* \"#utility.yul\":24517:24521   */\n      0x00\n        /* \"#utility.yul\":24549:24553   */\n      0x20\n        /* \"#utility.yul\":24544:24547   */\n      dup3\n        /* \"#utility.yul\":24540:24554   */\n      add\n        /* \"#utility.yul\":24532:24554   */\n      swap1\n      pop\n        /* \"#utility.yul\":24447:24560   */\n      swap2\n      swap1\n      pop\n      jump\t// out\n        /* \"#utility.yul\":24566:24750   */\n    tag_428:\n        /* \"#utility.yul\":24665:24676   */\n      0x00\n        /* \"#utility.yul\":24699:24705   */\n      dup3\n        /* \"#utility.yul\":24694:24697   */\n      dup3\n        /* \"#utility.yul\":24687:24706   */\n      mstore\n        /* \"#utility.yul\":24739:24743   */\n      0x20\n        /* \"#utility.yul\":24734:24737   */\n      dup3\n        /* \"#utility.yul\":24730:24744   */\n      add\n        /* \"#utility.yul\":24715:24744   */\n      swap1\n      pop\n        /* \"#utility.yul\":24566:24750   */\n      swap3\n      swap2\n      pop\n      pop\n      jump\t// out\n        /* \"#utility.yul\":24756:24903   */\n    tag_450:\n        /* \"#utility.yul\":24857:24868   */\n      0x00\n        /* \"#utility.yul\":24894:24897   */\n      dup2\n        /* \"#utility.yul\":24879:24897   */\n      swap1\n      pop\n        /* \"#utility.yul\":24756:24903   */\n      swap3\n      swap2\n      pop\n      pop\n      jump\t// out\n        /* \"#utility.yul\":24909:25078   */\n    tag_470:\n        /* \"#utility.yul\":24993:25004   */\n      0x00\n        /* \"#utility.yul\":25027:25033   */\n      dup3\n        /* \"#utility.yul\":25022:25025   */\n      dup3\n        /* \"#utility.yul\":25015:25034   */\n      mstore\n        /* \"#utility.yul\":25067:25071   */\n      0x20\n        /* \"#utility.yul\":25062:25065   */\n      dup3\n        /* \"#utility.yul\":25058:25072   */\n      add\n        /* \"#utility.yul\":25043:25072   */\n      swap1\n      pop\n        /* \"#utility.yul\":24909:25078   */\n      swap3\n      swap2\n      pop\n      pop\n      jump\t// out\n        /* \"#utility.yul\":25084:25275   */\n    tag_145:\n        /* \"#utility.yul\":25124:25128   */\n      0x00\n        /* \"#utility.yul\":25144:25164   */\n      tag_635\n        /* \"#utility.yul\":25162:25163   */\n      dup3\n        /* \"#utility.yul\":25144:25164   */\n      tag_552\n      jump\t// in\n    tag_635:\n        /* \"#utility.yul\":25139:25164   */\n      swap2\n      pop\n        /* \"#utility.yul\":25178:25198   */\n      tag_636\n        /* \"#utility.yul\":25196:25197   */\n      dup4\n        /* \"#utility.yul\":25178:25198   */\n      tag_552\n      jump\t// in\n    tag_636:\n        /* \"#utility.yul\":25173:25198   */\n      swap3\n      pop\n        /* \"#utility.yul\":25217:25218   */\n      dup3\n        /* \"#utility.yul\":25214:25215   */\n      dup3\n        /* \"#utility.yul\":25211:25219   */\n      lt\n        /* \"#utility.yul\":25208:25242   */\n      iszero\n      tag_637\n      jumpi\n        /* \"#utility.yul\":25222:25240   */\n      tag_638\n      tag_639\n      jump\t// in\n    tag_638:\n        /* \"#utility.yul\":25208:25242   */\n    tag_637:\n        /* \"#utility.yul\":25267:25268   */\n      dup3\n        /* \"#utility.yul\":25264:25265   */\n      dup3\n        /* \"#utility.yul\":25260:25269   */\n      sub\n        /* \"#utility.yul\":25252:25269   */\n      swap1\n      pop\n        /* \"#utility.yul\":25084:25275   */\n      swap3\n      swap2\n      pop\n      pop\n      jump\t// out\n        /* \"#utility.yul\":25281:25377   */\n    tag_419:\n        /* \"#utility.yul\":25318:25325   */\n      0x00\n        /* \"#utility.yul\":25347:25371   */\n      tag_641\n        /* \"#utility.yul\":25365:25370   */\n      dup3\n        /* \"#utility.yul\":25347:25371   */\n      tag_642\n      jump\t// in\n    tag_641:\n        /* \"#utility.yul\":25336:25371   */\n      swap1\n      pop\n        /* \"#utility.yul\":25281:25377   */\n      swap2\n      swap1\n      pop\n      jump\t// out\n        /* \"#utility.yul\":25383:25473   */\n    tag_440:\n        /* \"#utility.yul\":25417:25424   */\n      0x00\n        /* \"#utility.yul\":25460:25465   */\n      dup2\n        /* \"#utility.yul\":25453:25466   */\n      iszero\n        /* \"#utility.yul\":25446:25467   */\n      iszero\n        /* \"#utility.yul\":25435:25467   */\n      swap1\n      pop\n        /* \"#utility.yul\":25383:25473   */\n      swap2\n      swap1\n      pop\n      jump\t// out\n        /* \"#utility.yul\":25479:25556   */\n    tag_444:\n        /* \"#utility.yul\":25516:25523   */\n      0x00\n        /* \"#utility.yul\":25545:25550   */\n      dup2\n        /* \"#utility.yul\":25534:25550   */\n      swap1\n      pop\n        /* \"#utility.yul\":25479:25556   */\n      swap2\n      swap1\n      pop\n      jump\t// out\n        /* \"#utility.yul\":25562:25709   */\n    tag_645:\n        /* \"#utility.yul\":25617:25624   */\n      0x00\n        /* \"#utility.yul\":25646:25651   */\n      dup2\n        /* \"#utility.yul\":25635:25651   */\n      swap1\n      pop\n        /* \"#utility.yul\":25652:25703   */\n      tag_647\n        /* \"#utility.yul\":25697:25702   */\n      dup3\n        /* \"#utility.yul\":25652:25703   */\n      tag_648\n      jump\t// in\n    tag_647:\n        /* \"#utility.yul\":25562:25709   */\n      swap2\n      swap1\n      pop\n      jump\t// out\n        /* \"#utility.yul\":25715:25848   */\n    tag_649:\n        /* \"#utility.yul\":25763:25770   */\n      0x00\n        /* \"#utility.yul\":25792:25797   */\n      dup2\n        /* \"#utility.yul\":25781:25797   */\n      swap1\n      pop\n        /* \"#utility.yul\":25798:25842   */\n      tag_651\n        /* \"#utility.yul\":25836:25841   */\n      dup3\n        /* \"#utility.yul\":25798:25842   */\n      tag_652\n      jump\t// in\n    tag_651:\n        /* \"#utility.yul\":25715:25848   */\n      swap2\n      swap1\n      pop\n      jump\t// out\n        /* \"#utility.yul\":25854:25980   */\n    tag_642:\n        /* \"#utility.yul\":25891:25898   */\n      0x00\n        /* \"#utility.yul\":25931:25973   */\n      0xffffffffffffffffffffffffffffffffffffffff\n        /* \"#utility.yul\":25924:25929   */\n      dup3\n        /* \"#utility.yul\":25920:25974   */\n      and\n        /* \"#utility.yul\":25909:25974   */\n      swap1\n      pop\n        /* \"#utility.yul\":25854:25980   */\n      swap2\n      swap1\n      pop\n      jump\t// out\n        /* \"#utility.yul\":25986:26063   */\n    tag_552:\n        /* \"#utility.yul\":26023:26030   */\n      0x00\n        /* \"#utility.yul\":26052:26057   */\n      dup2\n        /* \"#utility.yul\":26041:26057   */\n      swap1\n      pop\n        /* \"#utility.yul\":25986:26063   */\n      swap2\n      swap1\n      pop\n      jump\t// out\n        /* \"#utility.yul\":26069:26218   */\n    tag_456:\n        /* \"#utility.yul\":26142:26151   */\n      0x00\n        /* \"#utility.yul\":26175:26212   */\n      tag_656\n        /* \"#utility.yul\":26206:26211   */\n      dup3\n        /* \"#utility.yul\":26175:26212   */\n      tag_657\n      jump\t// in\n    tag_656:\n        /* \"#utility.yul\":26162:26212   */\n      swap1\n      pop\n        /* \"#utility.yul\":26069:26218   */\n      swap2\n      swap1\n      pop\n      jump\t// out\n        /* \"#utility.yul\":26224:26371   */\n    tag_460:\n        /* \"#utility.yul\":26290:26299   */\n      0x00\n        /* \"#utility.yul\":26323:26365   */\n      tag_659\n        /* \"#utility.yul\":26359:26364   */\n      dup3\n        /* \"#utility.yul\":26323:26365   */\n      tag_645\n      jump\t// in\n    tag_659:\n        /* \"#utility.yul\":26310:26365   */\n      swap1\n      pop\n        /* \"#utility.yul\":26224:26371   */\n      swap2\n      swap1\n      pop\n      jump\t// out\n        /* \"#utility.yul\":26377:26510   */\n    tag_464:\n        /* \"#utility.yul\":26436:26445   */\n      0x00\n        /* \"#utility.yul\":26469:26504   */\n      tag_661\n        /* \"#utility.yul\":26498:26503   */\n      dup3\n        /* \"#utility.yul\":26469:26504   */\n      tag_649\n      jump\t// in\n    tag_661:\n        /* \"#utility.yul\":26456:26504   */\n      swap1\n      pop\n        /* \"#utility.yul\":26377:26510   */\n      swap2\n      swap1\n      pop\n      jump\t// out\n        /* \"#utility.yul\":26516:26642   */\n    tag_657:\n        /* \"#utility.yul\":26566:26575   */\n      0x00\n        /* \"#utility.yul\":26599:26636   */\n      tag_663\n        /* \"#utility.yul\":26630:26635   */\n      dup3\n        /* \"#utility.yul\":26599:26636   */\n      tag_664\n      jump\t// in\n    tag_663:\n        /* \"#utility.yul\":26586:26636   */\n      swap1\n      pop\n        /* \"#utility.yul\":26516:26642   */\n      swap2\n      swap1\n      pop\n      jump\t// out\n        /* \"#utility.yul\":26648:26761   */\n    tag_664:\n        /* \"#utility.yul\":26698:26707   */\n      0x00\n        /* \"#utility.yul\":26731:26755   */\n      tag_666\n        /* \"#utility.yul\":26749:26754   */\n      dup3\n        /* \"#utility.yul\":26731:26755   */\n      tag_642\n      jump\t// in\n    tag_666:\n        /* \"#utility.yul\":26718:26755   */\n      swap1\n      pop\n        /* \"#utility.yul\":26648:26761   */\n      swap2\n      swap1\n      pop\n      jump\t// out\n        /* \"#utility.yul\":26767:26921   */\n    tag_354:\n        /* \"#utility.yul\":26851:26857   */\n      dup3\n        /* \"#utility.yul\":26846:26849   */\n      dup2\n        /* \"#utility.yul\":26841:26844   */\n      dup4\n        /* \"#utility.yul\":26828:26858   */\n      calldatacopy\n        /* \"#utility.yul\":26913:26914   */\n      0x00\n        /* \"#utility.yul\":26904:26910   */\n      dup4\n        /* \"#utility.yul\":26899:26902   */\n      dup4\n        /* \"#utility.yul\":26895:26911   */\n      add\n        /* \"#utility.yul\":26888:26915   */\n      mstore\n        /* \"#utility.yul\":26767:26921   */\n      pop\n      pop\n      pop\n      jump\t// out\n        /* \"#utility.yul\":26927:27234   */\n    tag_452:\n        /* \"#utility.yul\":26995:26996   */\n      0x00\n        /* \"#utility.yul\":27005:27118   */\n    tag_669:\n        /* \"#utility.yul\":27019:27025   */\n      dup4\n        /* \"#utility.yul\":27016:27017   */\n      dup2\n        /* \"#utility.yul\":27013:27026   */\n      lt\n        /* \"#utility.yul\":27005:27118   */\n      iszero\n      tag_671\n      jumpi\n        /* \"#utility.yul\":27104:27105   */\n      dup1\n        /* \"#utility.yul\":27099:27102   */\n      dup3\n        /* \"#utility.yul\":27095:27106   */\n      add\n        /* \"#utility.yul\":27089:27107   */\n      mload\n        /* \"#utility.yul\":27085:27086   */\n      dup2\n        /* \"#utility.yul\":27080:27083   */\n      dup5\n        /* \"#utility.yul\":27076:27087   */\n      add\n        /* \"#utility.yul\":27069:27108   */\n      mstore\n        /* \"#utility.yul\":27041:27043   */\n      0x20\n        /* \"#utility.yul\":27038:27039   */\n      dup2\n        /* \"#utility.yul\":27034:27044   */\n      add\n        /* \"#utility.yul\":27029:27044   */\n      swap1\n      pop\n        /* \"#utility.yul\":27005:27118   */\n      jump(tag_669)\n    tag_671:\n        /* \"#utility.yul\":27136:27142   */\n      dup4\n        /* \"#utility.yul\":27133:27134   */\n      dup2\n        /* \"#utility.yul\":27130:27143   */\n      gt\n        /* \"#utility.yul\":27127:27228   */\n      iszero\n      tag_672\n      jumpi\n        /* \"#utility.yul\":27216:27217   */\n      0x00\n        /* \"#utility.yul\":27207:27213   */\n      dup5\n        /* \"#utility.yul\":27202:27205   */\n      dup5\n        /* \"#utility.yul\":27198:27214   */\n      add\n        /* \"#utility.yul\":27191:27218   */\n      mstore\n        /* \"#utility.yul\":27127:27228   */\n    tag_672:\n        /* \"#utility.yul\":26976:27234   */\n      pop\n        /* \"#utility.yul\":26927:27234   */\n      pop\n      pop\n      pop\n      jump\t// out\n        /* \"#utility.yul\":27240:27411   */\n    tag_216:\n        /* \"#utility.yul\":27279:27282   */\n      0x00\n        /* \"#utility.yul\":27302:27326   */\n      tag_674\n        /* \"#utility.yul\":27320:27325   */\n      dup3\n        /* \"#utility.yul\":27302:27326   */\n      tag_552\n      jump\t// in\n    tag_674:\n        /* \"#utility.yul\":27293:27326   */\n      swap2\n      pop\n        /* \"#utility.yul\":27348:27352   */\n      0x00\n        /* \"#utility.yul\":27341:27346   */\n      dup3\n        /* \"#utility.yul\":27338:27353   */\n      eq\n        /* \"#utility.yul\":27335:27376   */\n      iszero\n      tag_675\n      jumpi\n        /* \"#utility.yul\":27356:27374   */\n      tag_676\n      tag_639\n      jump\t// in\n    tag_676:\n        /* \"#utility.yul\":27335:27376   */\n    tag_675:\n        /* \"#utility.yul\":27403:27404   */\n      0x01\n        /* \"#utility.yul\":27396:27401   */\n      dup3\n        /* \"#utility.yul\":27392:27405   */\n      sub\n        /* \"#utility.yul\":27385:27405   */\n      swap1\n      pop\n        /* \"#utility.yul\":27240:27411   */\n      swap2\n      swap1\n      pop\n      jump\t// out\n        /* \"#utility.yul\":27417:27737   */\n    tag_240:\n        /* \"#utility.yul\":27461:27467   */\n      0x00\n        /* \"#utility.yul\":27498:27499   */\n      0x02\n        /* \"#utility.yul\":27492:27496   */\n      dup3\n        /* \"#utility.yul\":27488:27500   */\n      div\n        /* \"#utility.yul\":27478:27500   */\n      swap1\n      pop\n        /* \"#utility.yul\":27545:27546   */\n      0x01\n        /* \"#utility.yul\":27539:27543   */\n      dup3\n        /* \"#utility.yul\":27535:27547   */\n      and\n        /* \"#utility.yul\":27566:27584   */\n      dup1\n        /* \"#utility.yul\":27556:27637   */\n      tag_678\n      jumpi\n        /* \"#utility.yul\":27622:27626   */\n      0x7f\n        /* \"#utility.yul\":27614:27620   */\n      dup3\n        /* \"#utility.yul\":27610:27627   */\n      and\n        /* \"#utility.yul\":27600:27627   */\n      swap2\n      pop\n        /* \"#utility.yul\":27556:27637   */\n    tag_678:\n        /* \"#utility.yul\":27684:27686   */\n      0x20\n        /* \"#utility.yul\":27676:27682   */\n      dup3\n        /* \"#utility.yul\":27673:27687   */\n      lt\n        /* \"#utility.yul\":27653:27671   */\n      dup2\n        /* \"#utility.yul\":27650:27688   */\n      eq\n        /* \"#utility.yul\":27647:27731   */\n      iszero\n      tag_679\n      jumpi\n        /* \"#utility.yul\":27703:27721   */\n      tag_680\n      tag_681\n      jump\t// in\n    tag_680:\n        /* \"#utility.yul\":27647:27731   */\n    tag_679:\n        /* \"#utility.yul\":27468:27737   */\n      pop\n        /* \"#utility.yul\":27417:27737   */\n      swap2\n      swap1\n      pop\n      jump\t// out\n        /* \"#utility.yul\":27743:28024   */\n    tag_620:\n        /* \"#utility.yul\":27826:27853   */\n      tag_683\n        /* \"#utility.yul\":27848:27852   */\n      dup3\n        /* \"#utility.yul\":27826:27853   */\n      tag_473\n      jump\t// in\n    tag_683:\n        /* \"#utility.yul\":27818:27824   */\n      dup2\n        /* \"#utility.yul\":27814:27854   */\n      add\n        /* \"#utility.yul\":27956:27962   */\n      dup2\n        /* \"#utility.yul\":27944:27954   */\n      dup2\n        /* \"#utility.yul\":27941:27963   */\n      lt\n        /* \"#utility.yul\":27920:27938   */\n      0xffffffffffffffff\n        /* \"#utility.yul\":27908:27918   */\n      dup3\n        /* \"#utility.yul\":27905:27939   */\n      gt\n        /* \"#utility.yul\":27902:27964   */\n      or\n        /* \"#utility.yul\":27899:27987   */\n      iszero\n      tag_684\n      jumpi\n        /* \"#utility.yul\":27967:27985   */\n      tag_685\n      tag_223\n      jump\t// in\n    tag_685:\n        /* \"#utility.yul\":27899:27987   */\n    tag_684:\n        /* \"#utility.yul\":28007:28017   */\n      dup1\n        /* \"#utility.yul\":28003:28005   */\n      0x40\n        /* \"#utility.yul\":27996:28018   */\n      mstore\n        /* \"#utility.yul\":27786:28024   */\n      pop\n        /* \"#utility.yul\":27743:28024   */\n      pop\n      pop\n      jump\t// out\n        /* \"#utility.yul\":28030:28263   */\n    tag_153:\n        /* \"#utility.yul\":28069:28072   */\n      0x00\n        /* \"#utility.yul\":28092:28116   */\n      tag_687\n        /* \"#utility.yul\":28110:28115   */\n      dup3\n        /* \"#utility.yul\":28092:28116   */\n      tag_552\n      jump\t// in\n    tag_687:\n        /* \"#utility.yul\":28083:28116   */\n      swap2\n      pop\n        /* \"#utility.yul\":28138:28204   */\n      0xffffffffffffffffffffffffffffffffffffffffffffffffffffffffffffffff\n        /* \"#utility.yul\":28131:28136   */\n      dup3\n        /* \"#utility.yul\":28128:28205   */\n      eq\n        /* \"#utility.yul\":28125:28228   */\n      iszero\n      tag_688\n      jumpi\n        /* \"#utility.yul\":28208:28226   */\n      tag_689\n      tag_639\n      jump\t// in\n    tag_689:\n        /* \"#utility.yul\":28125:28228   */\n    tag_688:\n        /* \"#utility.yul\":28255:28256   */\n      0x01\n        /* \"#utility.yul\":28248:28253   */\n      dup3\n        /* \"#utility.yul\":28244:28257   */\n      add\n        /* \"#utility.yul\":28237:28257   */\n      swap1\n      pop\n        /* \"#utility.yul\":28030:28263   */\n      swap2\n      swap1\n      pop\n      jump\t// out\n        /* \"#utility.yul\":28269:28449   */\n    tag_639:\n        /* \"#utility.yul\":28317:28394   */\n      0x4e487b7100000000000000000000000000000000000000000000000000000000\n        /* \"#utility.yul\":28314:28315   */\n      0x00\n        /* \"#utility.yul\":28307:28395   */\n      mstore\n        /* \"#utility.yul\":28414:28418   */\n      0x11\n        /* \"#utility.yul\":28411:28412   */\n      0x04\n        /* \"#utility.yul\":28404:28419   */\n      mstore\n        /* \"#utility.yul\":28438:28442   */\n      0x24\n        /* \"#utility.yul\":28435:28436   */\n      0x00\n        /* \"#utility.yul\":28428:28443   */\n      revert\n        /* \"#utility.yul\":28455:28635   */\n    tag_112:\n        /* \"#utility.yul\":28503:28580   */\n      0x4e487b7100000000000000000000000000000000000000000000000000000000\n        /* \"#utility.yul\":28500:28501   */\n      0x00\n        /* \"#utility.yul\":28493:28581   */\n      mstore\n        /* \"#utility.yul\":28600:28604   */\n      0x21\n        /* \"#utility.yul\":28597:28598   */\n      0x04\n        /* \"#utility.yul\":28590:28605   */\n      mstore\n        /* \"#utility.yul\":28624:28628   */\n      0x24\n        /* \"#utility.yul\":28621:28622   */\n      0x00\n        /* \"#utility.yul\":28614:28629   */\n      revert\n        /* \"#utility.yul\":28641:28821   */\n    tag_681:\n        /* \"#utility.yul\":28689:28766   */\n      0x4e487b7100000000000000000000000000000000000000000000000000000000\n        /* \"#utility.yul\":28686:28687   */\n      0x00\n        /* \"#utility.yul\":28679:28767   */\n      mstore\n        /* \"#utility.yul\":28786:28790   */\n      0x22\n        /* \"#utility.yul\":28783:28784   */\n      0x04\n        /* \"#utility.yul\":28776:28791   */\n      mstore\n        /* \"#utility.yul\":28810:28814   */\n      0x24\n        /* \"#utility.yul\":28807:28808   */\n      0x00\n        /* \"#utility.yul\":28800:28815   */\n      revert\n        /* \"#utility.yul\":28827:29007   */\n    tag_124:\n        /* \"#utility.yul\":28875:28952   */\n      0x4e487b7100000000000000000000000000000000000000000000000000000000\n        /* \"#utility.yul\":28872:28873   */\n      0x00\n        /* \"#utility.yul\":28865:28953   */\n      mstore\n        /* \"#utility.yul\":28972:28976   */\n      0x32\n        /* \"#utility.yul\":28969:28970   */\n      0x04\n        /* \"#utility.yul\":28962:28977   */\n      mstore\n        /* \"#utility.yul\":28996:29000   */\n      0x24\n        /* \"#utility.yul\":28993:28994   */\n      0x00\n        /* \"#utility.yul\":28986:29001   */\n      revert\n        /* \"#utility.yul\":29013:29193   */\n    tag_223:\n        /* \"#utility.yul\":29061:29138   */\n      0x4e487b7100000000000000000000000000000000000000000000000000000000\n        /* \"#utility.yul\":29058:29059   */\n      0x00\n        /* \"#utility.yul\":29051:29139   */\n      mstore\n        /* \"#utility.yul\":29158:29162   */\n      0x41\n        /* \"#utility.yul\":29155:29156   */\n      0x04\n        /* \"#utility.yul\":29148:29163   */\n      mstore\n        /* \"#utility.yul\":29182:29186   */\n      0x24\n        /* \"#utility.yul\":29179:29180   */\n      0x00\n        /* \"#utility.yul\":29172:29187   */\n      revert\n        /* \"#utility.yul\":29199:29316   */\n    tag_366:\n        /* \"#utility.yul\":29308:29309   */\n      0x00\n        /* \"#utility.yul\":29305:29306   */\n      dup1\n        /* \"#utility.yul\":29298:29310   */\n      revert\n        /* \"#utility.yul\":29322:29439   */\n    tag_363:\n        /* \"#utility.yul\":29431:29432   */\n      0x00\n        /* \"#utility.yul\":29428:29429   */\n      dup1\n        /* \"#utility.yul\":29421:29433   */\n      revert\n        /* \"#utility.yul\":29445:29562   */\n    tag_369:\n        /* \"#utility.yul\":29554:29555   */\n      0x00\n        /* \"#utility.yul\":29551:29552   */\n      dup1\n        /* \"#utility.yul\":29544:29556   */\n      revert\n        /* \"#utility.yul\":29568:29685   */\n    tag_352:\n        /* \"#utility.yul\":29677:29678   */\n      0x00\n        /* \"#utility.yul\":29674:29675   */\n      dup1\n        /* \"#utility.yul\":29667:29679   */\n      revert\n        /* \"#utility.yul\":29691:29808   */\n    tag_393:\n        /* \"#utility.yul\":29800:29801   */\n      0x00\n        /* \"#utility.yul\":29797:29798   */\n      dup1\n        /* \"#utility.yul\":29790:29802   */\n      revert\n        /* \"#utility.yul\":29814:29931   */\n    tag_386:\n        /* \"#utility.yul\":29923:29924   */\n      0x00\n        /* \"#utility.yul\":29920:29921   */\n      dup1\n        /* \"#utility.yul\":29913:29925   */\n      revert\n        /* \"#utility.yul\":29937:30039   */\n    tag_473:\n        /* \"#utility.yul\":29978:29984   */\n      0x00\n        /* \"#utility.yul\":30029:30031   */\n      0x1f\n        /* \"#utility.yul\":30025:30032   */\n      not\n        /* \"#utility.yul\":30020:30022   */\n      0x1f\n        /* \"#utility.yul\":30013:30018   */\n      dup4\n        /* \"#utility.yul\":30009:30023   */\n      add\n        /* \"#utility.yul\":30005:30033   */\n      and\n        /* \"#utility.yul\":29995:30033   */\n      swap1\n      pop\n        /* \"#utility.yul\":29937:30039   */\n      swap2\n      swap1\n      pop\n      jump\t// out\n        /* \"#utility.yul\":30045:30200   */\n    tag_478:\n        /* \"#utility.yul\":30185:30192   */\n      0x4164646564000000000000000000000000000000000000000000000000000000\n        /* \"#utility.yul\":30181:30182   */\n      0x00\n        /* \"#utility.yul\":30173:30179   */\n      dup3\n        /* \"#utility.yul\":30169:30183   */\n      add\n        /* \"#utility.yul\":30162:30193   */\n      mstore\n        /* \"#utility.yul\":30045:30200   */\n      pop\n      jump\t// out\n        /* \"#utility.yul\":30206:30373   */\n    tag_483:\n        /* \"#utility.yul\":30346:30365   */\n      0x4d433a204f6e6c79204c65637475726572000000000000000000000000000000\n        /* \"#utility.yul\":30342:30343   */\n      0x00\n        /* \"#utility.yul\":30334:30340   */\n      dup3\n        /* \"#utility.yul\":30330:30344   */\n      add\n        /* \"#utility.yul\":30323:30366   */\n      mstore\n        /* \"#utility.yul\":30206:30373   */\n      pop\n      jump\t// out\n        /* \"#utility.yul\":30379:30546   */\n    tag_488:\n        /* \"#utility.yul\":30519:30538   */\n      0x4572726f72207768656e2072656d6f7665000000000000000000000000000000\n        /* \"#utility.yul\":30515:30516   */\n      0x00\n        /* \"#utility.yul\":30507:30513   */\n      dup3\n        /* \"#utility.yul\":30503:30517   */\n      add\n        /* \"#utility.yul\":30496:30539   */\n      mstore\n        /* \"#utility.yul\":30379:30546   */\n      pop\n      jump\t// out\n        /* \"#utility.yul\":30552:30722   */\n    tag_493:\n        /* \"#utility.yul\":30692:30714   */\n      0x54433a20596f7520706169642074756974696f6e000000000000000000000000\n        /* \"#utility.yul\":30688:30689   */\n      0x00\n        /* \"#utility.yul\":30680:30686   */\n      dup3\n        /* \"#utility.yul\":30676:30690   */\n      add\n        /* \"#utility.yul\":30669:30715   */\n      mstore\n        /* \"#utility.yul\":30552:30722   */\n      pop\n      jump\t// out\n        /* \"#utility.yul\":30728:30902   */\n    tag_498:\n        /* \"#utility.yul\":30868:30894   */\n      0x54433a2053747564656e7420706169642074756974696f6e0000000000000000\n        /* \"#utility.yul\":30864:30865   */\n      0x00\n        /* \"#utility.yul\":30856:30862   */\n      dup3\n        /* \"#utility.yul\":30852:30866   */\n      add\n        /* \"#utility.yul\":30845:30895   */\n      mstore\n        /* \"#utility.yul\":30728:30902   */\n      pop\n      jump\t// out\n        /* \"#utility.yul\":30908:31074   */\n    tag_503:\n        /* \"#utility.yul\":31048:31066   */\n      0x4d433a204f6e6c792053747564656e7400000000000000000000000000000000\n        /* \"#utility.yul\":31044:31045   */\n      0x00\n        /* \"#utility.yul\":31036:31042   */\n      dup3\n        /* \"#utility.yul\":31032:31046   */\n      add\n        /* \"#utility.yul\":31025:31067   */\n      mstore\n        /* \"#utility.yul\":30908:31074   */\n      pop\n      jump\t// out\n        /* \"#utility.yul\":31080:31243   */\n    tag_508:\n        /* \"#utility.yul\":31220:31235   */\n      0x4d433a204f6e6c79204f70656e00000000000000000000000000000000000000\n        /* \"#utility.yul\":31216:31217   */\n      0x00\n        /* \"#utility.yul\":31208:31214   */\n      dup3\n        /* \"#utility.yul\":31204:31218   */\n      add\n        /* \"#utility.yul\":31197:31236   */\n      mstore\n        /* \"#utility.yul\":31080:31243   */\n      pop\n      jump\t// out\n        /* \"#utility.yul\":31249:31474   */\n    tag_513:\n        /* \"#utility.yul\":31389:31423   */\n      0x416464726573733a20696e73756666696369656e742062616c616e636520666f\n        /* \"#utility.yul\":31385:31386   */\n      0x00\n        /* \"#utility.yul\":31377:31383   */\n      dup3\n        /* \"#utility.yul\":31373:31387   */\n      add\n        /* \"#utility.yul\":31366:31424   */\n      mstore\n        /* \"#utility.yul\":31458:31466   */\n      0x722063616c6c0000000000000000000000000000000000000000000000000000\n        /* \"#utility.yul\":31453:31455   */\n      0x20\n        /* \"#utility.yul\":31445:31451   */\n      dup3\n        /* \"#utility.yul\":31441:31456   */\n      add\n        /* \"#utility.yul\":31434:31467   */\n      mstore\n        /* \"#utility.yul\":31249:31474   */\n      pop\n      jump\t// out\n        /* \"#utility.yul\":31480:31649   */\n    tag_518:\n        /* \"#utility.yul\":31620:31641   */\n      0x4d433a2054696d6520697320696e76616c696400000000000000000000000000\n        /* \"#utility.yul\":31616:31617   */\n      0x00\n        /* \"#utility.yul\":31608:31614   */\n      dup3\n        /* \"#utility.yul\":31604:31618   */\n      add\n        /* \"#utility.yul\":31597:31642   */\n      mstore\n        /* \"#utility.yul\":31480:31649   */\n      pop\n      jump\t// out\n        /* \"#utility.yul\":31655:31828   */\n    tag_523:\n        /* \"#utility.yul\":31795:31820   */\n      0x53686f756c64206f6e6c79206164642073747564656e74000000000000000000\n        /* \"#utility.yul\":31791:31792   */\n      0x00\n        /* \"#utility.yul\":31783:31789   */\n      dup3\n        /* \"#utility.yul\":31779:31793   */\n      add\n        /* \"#utility.yul\":31772:31821   */\n      mstore\n        /* \"#utility.yul\":31655:31828   */\n      pop\n      jump\t// out\n        /* \"#utility.yul\":31834:31997   */\n    tag_528:\n        /* \"#utility.yul\":31974:31989   */\n      0x4d433a204f6e6c79204c6f636b00000000000000000000000000000000000000\n        /* \"#utility.yul\":31970:31971   */\n      0x00\n        /* \"#utility.yul\":31962:31968   */\n      dup3\n        /* \"#utility.yul\":31958:31972   */\n      add\n        /* \"#utility.yul\":31951:31990   */\n      mstore\n        /* \"#utility.yul\":31834:31997   */\n      pop\n      jump\t// out\n        /* \"#utility.yul\":32003:32182   */\n    tag_533:\n        /* \"#utility.yul\":32143:32174   */\n      0x416464726573733a2063616c6c20746f206e6f6e2d636f6e7472616374000000\n        /* \"#utility.yul\":32139:32140   */\n      0x00\n        /* \"#utility.yul\":32131:32137   */\n      dup3\n        /* \"#utility.yul\":32127:32141   */\n      add\n        /* \"#utility.yul\":32120:32175   */\n      mstore\n        /* \"#utility.yul\":32003:32182   */\n      pop\n      jump\t// out\n        /* \"#utility.yul\":32188:32409   */\n    tag_538:\n        /* \"#utility.yul\":32328:32362   */\n      0x4d433a2041776172642073686f756c642067726561746572207468616e205a65\n        /* \"#utility.yul\":32324:32325   */\n      0x00\n        /* \"#utility.yul\":32316:32322   */\n      dup3\n        /* \"#utility.yul\":32312:32326   */\n      add\n        /* \"#utility.yul\":32305:32363   */\n      mstore\n        /* \"#utility.yul\":32397:32401   */\n      0x726f000000000000000000000000000000000000000000000000000000000000\n        /* \"#utility.yul\":32392:32394   */\n      0x20\n        /* \"#utility.yul\":32384:32390   */\n      dup3\n        /* \"#utility.yul\":32380:32395   */\n      add\n        /* \"#utility.yul\":32373:32402   */\n      mstore\n        /* \"#utility.yul\":32188:32409   */\n      pop\n      jump\t// out\n        /* \"#utility.yul\":32415:32644   */\n    tag_543:\n        /* \"#utility.yul\":32555:32589   */\n      0x5361666545524332303a204552433230206f7065726174696f6e20646964206e\n        /* \"#utility.yul\":32551:32552   */\n      0x00\n        /* \"#utility.yul\":32543:32549   */\n      dup3\n        /* \"#utility.yul\":32539:32553   */\n      add\n        /* \"#utility.yul\":32532:32590   */\n      mstore\n        /* \"#utility.yul\":32624:32636   */\n      0x6f74207375636365656400000000000000000000000000000000000000000000\n        /* \"#utility.yul\":32619:32621   */\n      0x20\n        /* \"#utility.yul\":32611:32617   */\n      dup3\n        /* \"#utility.yul\":32607:32622   */\n      add\n        /* \"#utility.yul\":32600:32637   */\n      mstore\n        /* \"#utility.yul\":32415:32644   */\n      pop\n      jump\t// out\n        /* \"#utility.yul\":32650:32810   */\n    tag_548:\n        /* \"#utility.yul\":32790:32802   */\n      0x4f6e6c79204f776e657200000000000000000000000000000000000000000000\n        /* \"#utility.yul\":32786:32787   */\n      0x00\n        /* \"#utility.yul\":32778:32784   */\n      dup3\n        /* \"#utility.yul\":32774:32788   */\n      add\n        /* \"#utility.yul\":32767:32803   */\n      mstore\n        /* \"#utility.yul\":32650:32810   */\n      pop\n      jump\t// out\n        /* \"#utility.yul\":32816:32939   */\n    tag_648:\n        /* \"#utility.yul\":32907:32908   */\n      0x02\n        /* \"#utility.yul\":32900:32905   */\n      dup2\n        /* \"#utility.yul\":32897:32909   */\n      lt\n        /* \"#utility.yul\":32887:32933   */\n      tag_718\n      jumpi\n        /* \"#utility.yul\":32913:32931   */\n      tag_719\n      tag_112\n      jump\t// in\n    tag_719:\n        /* \"#utility.yul\":32887:32933   */\n    tag_718:\n        /* \"#utility.yul\":32816:32939   */\n      pop\n      jump\t// out\n        /* \"#utility.yul\":32945:33061   */\n    tag_652:\n        /* \"#utility.yul\":33029:33030   */\n      0x03\n        /* \"#utility.yul\":33022:33027   */\n      dup2\n        /* \"#utility.yul\":33019:33031   */\n      lt\n        /* \"#utility.yul\":33009:33055   */\n      tag_721\n      jumpi\n        /* \"#utility.yul\":33035:33053   */\n      tag_722\n      tag_112\n      jump\t// in\n    tag_722:\n        /* \"#utility.yul\":33009:33055   */\n    tag_721:\n        /* \"#utility.yul\":32945:33061   */\n      pop\n      jump\t// out\n        /* \"#utility.yul\":33067:33189   */\n    tag_358:\n        /* \"#utility.yul\":33140:33164   */\n      tag_724\n        /* \"#utility.yul\":33158:33163   */\n      dup2\n        /* \"#utility.yul\":33140:33164   */\n      tag_419\n      jump\t// in\n    tag_724:\n        /* \"#utility.yul\":33133:33138   */\n      dup2\n        /* \"#utility.yul\":33130:33165   */\n      eq\n        /* \"#utility.yul\":33120:33183   */\n      tag_725\n      jumpi\n        /* \"#utility.yul\":33179:33180   */\n      0x00\n        /* \"#utility.yul\":33176:33177   */\n      dup1\n        /* \"#utility.yul\":33169:33181   */\n      revert\n        /* \"#utility.yul\":33120:33183   */\n    tag_725:\n        /* \"#utility.yul\":33067:33189   */\n      pop\n      jump\t// out\n        /* \"#utility.yul\":33195:33311   */\n    tag_373:\n        /* \"#utility.yul\":33265:33286   */\n      tag_727\n        /* \"#utility.yul\":33280:33285   */\n      dup2\n        /* \"#utility.yul\":33265:33286   */\n      tag_440\n      jump\t// in\n    tag_727:\n        /* \"#utility.yul\":33258:33263   */\n      dup2\n        /* \"#utility.yul\":33255:33287   */\n      eq\n        /* \"#utility.yul\":33245:33305   */\n      tag_728\n      jumpi\n        /* \"#utility.yul\":33301:33302   */\n      0x00\n        /* \"#utility.yul\":33298:33299   */\n      dup1\n        /* \"#utility.yul\":33291:33303   */\n      revert\n        /* \"#utility.yul\":33245:33305   */\n    tag_728:\n        /* \"#utility.yul\":33195:33311   */\n      pop\n      jump\t// out\n        /* \"#utility.yul\":33317:33439   */\n    tag_382:\n        /* \"#utility.yul\":33390:33414   */\n      tag_730\n        /* \"#utility.yul\":33408:33413   */\n      dup2\n        /* \"#utility.yul\":33390:33414   */\n      tag_552\n      jump\t// in\n    tag_730:\n        /* \"#utility.yul\":33383:33388   */\n      dup2\n        /* \"#utility.yul\":33380:33415   */\n      eq\n        /* \"#utility.yul\":33370:33433   */\n      tag_731\n      jumpi\n        /* \"#utility.yul\":33429:33430   */\n      0x00\n        /* \"#utility.yul\":33426:33427   */\n      dup1\n        /* \"#utility.yul\":33419:33431   */\n      revert\n        /* \"#utility.yul\":33370:33433   */\n    tag_731:\n        /* \"#utility.yul\":33317:33439   */\n      pop\n      jump\t// out\n\n    auxdata: 0xa2646970667358221220cb4f37502c2c0ee0797baa0c1d6aa9fe9b479c32d25dc8a5688e09b3ffe69b4f64736f6c63430008070033\n}\n",
				"bytecode": {
					"linkReferences": {},
					"object": "60a06040526000600560006101000a81548160ff021916908360028111156200002d576200002c620001ce565b5b02179055503480156200003f57600080fd5b506040516200310a3803806200310a83398181016040528101906200006591906200013e565b8273ffffffffffffffffffffffffffffffffffffffff1660808173ffffffffffffffffffffffffffffffffffffffff1660601b8152505081600660006101000a81548173ffffffffffffffffffffffffffffffffffffffff021916908373ffffffffffffffffffffffffffffffffffffffff16021790555080600760006101000a81548173ffffffffffffffffffffffffffffffffffffffff021916908373ffffffffffffffffffffffffffffffffffffffff1602179055505050506200021c565b600081519050620001388162000202565b92915050565b6000806000606084860312156200015a5762000159620001fd565b5b60006200016a8682870162000127565b93505060206200017d8682870162000127565b9250506040620001908682870162000127565b9150509250925092565b6000620001a782620001ae565b9050919050565b600073ffffffffffffffffffffffffffffffffffffffff82169050919050565b7f4e487b7100000000000000000000000000000000000000000000000000000000600052602160045260246000fd5b600080fd5b6200020d816200019a565b81146200021957600080fd5b50565b60805160601c612eba62000250600039600081816108bf01528181610b420152818161116a01526114790152612eba6000f3fe608060405234801561001057600080fd5b506004361061012c5760003560e01c8063a7f44e0d116100ad578063b1319f4111610071578063b1319f41146102ed578063be9a65551461031d578063d95fe6a014610327578063ed214fff14610357578063f1d0d198146103755761012c565b8063a7f44e0d14610253578063a8a86c1014610271578063aa4936ce14610293578063aa8c217c146102b1578063acc2166a146102cf5761012c565b806343d726d6116100f457806343d726d6146101d5578063633d8390146101df578063727cb110146101e95780638da5cb5b14610205578063a32fb342146102235761012c565b806304227ab81461013157806308003d6b1461014d578063200d2ed2146101695780632fe7a96d1461018757806335c1d349146101a5575b600080fd5b61014b60048036038101906101469190611eef565b610391565b005b61016760048036038101906101629190611f96565b6108bd565b005b610171610ac8565b60405161017e91906124b3565b60405180910390f35b61018f610adb565b60405161019c91906123a9565b60405180910390f35b6101bf60048036038101906101ba9190611f69565b610b01565b6040516101cc91906123a9565b60405180910390f35b6101dd610b40565b005b6101e7610c32565b005b61020360048036038101906101fe9190611ec2565b610ed7565b005b61020d611168565b60405161021a91906123a9565b60405180910390f35b61023d60048036038101906102389190611ec2565b61118c565b60405161024a9190612454565b60405180910390f35b61025b6111ac565b6040516102689190612432565b60405180910390f35b610279611359565b60405161028a9594939291906126eb565b60405180910390f35b61029b611405565b6040516102a89190612498565b60405180910390f35b6102b961142b565b6040516102c691906126d0565b60405180910390f35b6102d7611431565b6040516102e491906123a9565b60405180910390f35b61030760048036038101906103029190611ec2565b611457565b6040516103149190612454565b60405180910390f35b610325611477565b005b610341600480360381019061033c9190611ec2565b6115a8565b60405161034e91906126d0565b60405180910390f35b61035f6115c0565b60405161036c9190612432565b60405180910390f35b61038f600480360381019061038a9190611ec2565b6117e4565b005b600660009054906101000a900473ffffffffffffffffffffffffffffffffffffffff1673ffffffffffffffffffffffffffffffffffffffff166391d148547fdf8b4c520ffe197c5343c6f5aec59570151ef9a492f2c624fd45ddde6135ec42336040518363ffffffff1660e01b815260040161040e92919061246f565b60206040518083038186803b15801561042657600080fd5b505afa15801561043a573d6000803e3d6000fd5b505050506040513d601f19601f8201168201806040525081019061045e9190611f3c565b61049d576040517f08c379a000000000000000000000000000000000000000000000000000000000815260040161049490612510565b60405180910390fd5b600160028111156104b1576104b0612a53565b5b600560009054906101000a900460ff1660028111156104d3576104d2612a53565b5b14610513576040517f08c379a000000000000000000000000000000000000000000000000000000000815260040161050a906125b0565b60405180910390fd5b60005b828290508110156108b857600660009054906101000a900473ffffffffffffffffffffffffffffffffffffffff1673ffffffffffffffffffffffffffffffffffffffff166391d148547fc951d7098b66ba0b8b77265b6e9cf0e187d73125a42bcd0061b09a68be42181085858581811061059357610592612ab1565b5b90506020020160208101906105a89190611ec2565b6040518363ffffffff1660e01b81526004016105c592919061246f565b60206040518083038186803b1580156105dd57600080fd5b505afa1580156105f1573d6000803e3d6000fd5b505050506040513d601f19601f820116820180604052508101906106159190611f3c565b610654576040517f08c379a000000000000000000000000000000000000000000000000000000000815260040161064b90612610565b60405180910390fd5b600b600084848481811061066b5761066a612ab1565b5b90506020020160208101906106809190611ec2565b73ffffffffffffffffffffffffffffffffffffffff1673ffffffffffffffffffffffffffffffffffffffff16815260200190815260200160002060009054906101000a900460ff1615610708576040517f08c379a00000000000000000000000000000000000000000000000000000000081526004016106ff906124f0565b60405180910390fd5b600883838381811061071d5761071c612ab1565b5b90506020020160208101906107329190611ec2565b9080600181540180825580915050600190039060005260206000200160009091909190916101000a81548173ffffffffffffffffffffffffffffffffffffffff021916908373ffffffffffffffffffffffffffffffffffffffff16021790555060016008805490506107a49190612806565b600a60008585858181106107bb576107ba612ab1565b5b90506020020160208101906107d09190611ec2565b73ffffffffffffffffffffffffffffffffffffffff1673ffffffffffffffffffffffffffffffffffffffff168152602001908152602001600020819055506001600b600085858581811061082757610826612ab1565b5b905060200201602081019061083c9190611ec2565b73ffffffffffffffffffffffffffffffffffffffff1673ffffffffffffffffffffffffffffffffffffffff16815260200190815260200160002060006101000a81548160ff021916908315150217905550600960008154809291906108a0906129db565b919050555080806108b0906129db565b915050610516565b505050565b7f000000000000000000000000000000000000000000000000000000000000000073ffffffffffffffffffffffffffffffffffffffff163373ffffffffffffffffffffffffffffffffffffffff161461094b576040517f08c379a0000000000000000000000000000000000000000000000000000000008152600401610942906126b0565b60405180910390fd5b6000600281111561095f5761095e612a53565b5b600560009054906101000a900460ff16600281111561098157610980612a53565b5b146109c1576040517f08c379a00000000000000000000000000000000000000000000000000000000081526004016109b890612630565b60405180910390fd5b60008311610a04576040517f08c379a00000000000000000000000000000000000000000000000000000000081526004016109fb90612670565b60405180910390fd5b8142108015610a1257508082105b610a51576040517f08c379a0000000000000000000000000000000000000000000000000000000008152600401610a48906125f0565b60405180910390fd5b6040518060a001604052808681526020018581526020018481526020018381526020018281525060008082015181600001556020820151816001019080519060200190610a9f929190611d1a565b506040820151816002015560608201518160030155608082015181600401559050505050505050565b600560009054906101000a900460ff1681565b600560019054906101000a900473ffffffffffffffffffffffffffffffffffffffff1681565b60088181548110610b1157600080fd5b906000526020600020016000915054906101000a900473ffffffffffffffffffffffffffffffffffffffff1681565b7f000000000000000000000000000000000000000000000000000000000000000073ffffffffffffffffffffffffffffffffffffffff163373ffffffffffffffffffffffffffffffffffffffff1614610bce576040517f08c379a0000000000000000000000000000000000000000000000000000000008152600401610bc5906126b0565b60405180910390fd5b6002600560006101000a81548160ff02191690836002811115610bf457610bf3612a53565b5b02179055507fbf67515a38ee520223d32c1266d52101c30d936ed1f3e436c8caeb0a43cb06bf42604051610c2891906126d0565b60405180910390a1565b600660009054906101000a900473ffffffffffffffffffffffffffffffffffffffff1673ffffffffffffffffffffffffffffffffffffffff166391d148547fc951d7098b66ba0b8b77265b6e9cf0e187d73125a42bcd0061b09a68be421810336040518363ffffffff1660e01b8152600401610caf92919061246f565b60206040518083038186803b158015610cc757600080fd5b505afa158015610cdb573d6000803e3d6000fd5b505050506040513d601f19601f82011682018060405250810190610cff9190611f3c565b610d3e576040517f08c379a0000000000000000000000000000000000000000000000000000000008152600401610d3590612590565b60405180910390fd5b600b60003373ffffffffffffffffffffffffffffffffffffffff1673ffffffffffffffffffffffffffffffffffffffff16815260200190815260200160002060009054906101000a900460ff1615610dcb576040517f08c379a0000000000000000000000000000000000000000000000000000000008152600401610dc290612550565b60405180910390fd5b610e4133600760009054906101000a900473ffffffffffffffffffffffffffffffffffffffff16600060020154600560019054906101000a900473ffffffffffffffffffffffffffffffffffffffff1673ffffffffffffffffffffffffffffffffffffffff16611a14909392919063ffffffff16565b6001600c60003373ffffffffffffffffffffffffffffffffffffffff1673ffffffffffffffffffffffffffffffffffffffff16815260200190815260200160002060006101000a81548160ff0219169083151502179055507f34f914f46f0a40eb0e7b1396063b87a1819f28ed7b5a63829d59f41eba61a1ae33426000604051610ecd939291906123fb565b60405180910390a1565b600660009054906101000a900473ffffffffffffffffffffffffffffffffffffffff1673ffffffffffffffffffffffffffffffffffffffff166391d148547fdf8b4c520ffe197c5343c6f5aec59570151ef9a492f2c624fd45ddde6135ec42336040518363ffffffff1660e01b8152600401610f5492919061246f565b60206040518083038186803b158015610f6c57600080fd5b505afa158015610f80573d6000803e3d6000fd5b505050506040513d601f19601f82011682018060405250810190610fa49190611f3c565b610fe3576040517f08c379a0000000000000000000000000000000000000000000000000000000008152600401610fda90612510565b60405180910390fd5b600b60008273ffffffffffffffffffffffffffffffffffffffff1673ffffffffffffffffffffffffffffffffffffffff16815260200190815260200160002060009054906101000a900460ff1661106f576040517f08c379a000000000000000000000000000000000000000000000000000000000815260040161106690612530565b60405180910390fd5b6000600a60008373ffffffffffffffffffffffffffffffffffffffff1673ffffffffffffffffffffffffffffffffffffffff168152602001908152602001600020549050600960008154809291906110c69061294e565b91905055506000600b60008473ffffffffffffffffffffffffffffffffffffffff1673ffffffffffffffffffffffffffffffffffffffff16815260200190815260200160002060006101000a81548160ff0219169083151502179055506008818154811061113757611136612ab1565b5b9060005260206000200160006101000a81549073ffffffffffffffffffffffffffffffffffffffff02191690555050565b7f000000000000000000000000000000000000000000000000000000000000000081565b600c6020528060005260406000206000915054906101000a900460ff1681565b6060600060095467ffffffffffffffff8111156111cc576111cb612ae0565b5b6040519080825280602002602001820160405280156111fa5781602001602082028036833780820191505090505b509050600080600090505b60088054905081101561135057600c60006008838154811061122a57611229612ab1565b5b9060005260206000200160009054906101000a900473ffffffffffffffffffffffffffffffffffffffff1673ffffffffffffffffffffffffffffffffffffffff1673ffffffffffffffffffffffffffffffffffffffff16815260200190815260200160002060009054906101000a900460ff161561133d57600881815481106112b6576112b5612ab1565b5b9060005260206000200160009054906101000a900473ffffffffffffffffffffffffffffffffffffffff168383815181106112f4576112f3612ab1565b5b602002602001019073ffffffffffffffffffffffffffffffffffffffff16908173ffffffffffffffffffffffffffffffffffffffff16815250508180611339906129db565b9250505b8080611348906129db565b915050611205565b50819250505090565b600080600001549080600101805461137090612978565b80601f016020809104026020016040519081016040528092919081815260200182805461139c90612978565b80156113e95780601f106113be576101008083540402835291602001916113e9565b820191906000526020600020905b8154815290600101906020018083116113cc57829003601f168201915b5050505050908060020154908060030154908060040154905085565b600660009054906101000a900473ffffffffffffffffffffffffffffffffffffffff1681565b60095481565b600760009054906101000a900473ffffffffffffffffffffffffffffffffffffffff1681565b600b6020528060005260406000206000915054906101000a900460ff1681565b7f000000000000000000000000000000000000000000000000000000000000000073ffffffffffffffffffffffffffffffffffffffff163373ffffffffffffffffffffffffffffffffffffffff1614611505576040517f08c379a00000000000000000000000000000000000000000000000000000000081526004016114fc906126b0565b60405180910390fd5b6000600281111561151957611518612a53565b5b600560009054906101000a900460ff16600281111561153b5761153a612a53565b5b1461157b576040517f08c379a000000000000000000000000000000000000000000000000000000000815260040161157290612630565b60405180910390fd5b6001600560006101000a81548160ff021916908360028111156115a1576115a0612a53565b5b0217905550565b600a6020528060005260406000206000915090505481565b6060600060095467ffffffffffffffff8111156115e0576115df612ae0565b5b60405190808252806020026020018201604052801561160e5781602001602082028036833780820191505090505b509050600080600090505b6008805490508110156117db57600b60006008838154811061163e5761163d612ab1565b5b9060005260206000200160009054906101000a900473ffffffffffffffffffffffffffffffffffffffff1673ffffffffffffffffffffffffffffffffffffffff1673ffffffffffffffffffffffffffffffffffffffff16815260200190815260200160002060009054906101000a900460ff1680156117285750600073ffffffffffffffffffffffffffffffffffffffff16600882815481106116e4576116e3612ab1565b5b9060005260206000200160009054906101000a900473ffffffffffffffffffffffffffffffffffffffff1673ffffffffffffffffffffffffffffffffffffffff1614155b156117c8576008818154811061174157611740612ab1565b5b9060005260206000200160009054906101000a900473ffffffffffffffffffffffffffffffffffffffff1683838151811061177f5761177e612ab1565b5b602002602001019073ffffffffffffffffffffffffffffffffffffffff16908173ffffffffffffffffffffffffffffffffffffffff168152505081806117c4906129db565b9250505b80806117d3906129db565b915050611619565b50819250505090565b600660009054906101000a900473ffffffffffffffffffffffffffffffffffffffff1673ffffffffffffffffffffffffffffffffffffffff166391d148547fdf8b4c520ffe197c5343c6f5aec59570151ef9a492f2c624fd45ddde6135ec42336040518363ffffffff1660e01b815260040161186192919061246f565b60206040518083038186803b15801561187957600080fd5b505afa15801561188d573d6000803e3d6000fd5b505050506040513d601f19601f820116820180604052508101906118b19190611f3c565b6118f0576040517f08c379a00000000000000000000000000000000000000000000000000000000081526004016118e790612510565b60405180910390fd5b600b60008273ffffffffffffffffffffffffffffffffffffffff1673ffffffffffffffffffffffffffffffffffffffff16815260200190815260200160002060009054906101000a900460ff161561197d576040517f08c379a000000000000000000000000000000000000000000000000000000000815260040161197490612570565b60405180910390fd5b6001600c60003373ffffffffffffffffffffffffffffffffffffffff1673ffffffffffffffffffffffffffffffffffffffff16815260200190815260200160002060006101000a81548160ff0219169083151502179055507f34f914f46f0a40eb0e7b1396063b87a1819f28ed7b5a63829d59f41eba61a1ae81426001604051611a09939291906123fb565b60405180910390a150565b611a97846323b872dd60e01b858585604051602401611a35939291906123c4565b604051602081830303815290604052907bffffffffffffffffffffffffffffffffffffffffffffffffffffffff19166020820180517bffffffffffffffffffffffffffffffffffffffffffffffffffffffff8381831617835250505050611a9d565b50505050565b6000611aff826040518060400160405280602081526020017f5361666545524332303a206c6f772d6c6576656c2063616c6c206661696c65648152508573ffffffffffffffffffffffffffffffffffffffff16611b649092919063ffffffff16565b9050600081511115611b5f5780806020019051810190611b1f9190611f3c565b611b5e576040517f08c379a0000000000000000000000000000000000000000000000000000000008152600401611b5590612690565b60405180910390fd5b5b505050565b6060611b738484600085611b7c565b90509392505050565b606082471015611bc1576040517f08c379a0000000000000000000000000000000000000000000000000000000008152600401611bb8906125d0565b60405180910390fd5b611bca85611c90565b611c09576040517f08c379a0000000000000000000000000000000000000000000000000000000008152600401611c0090612650565b60405180910390fd5b6000808673ffffffffffffffffffffffffffffffffffffffff168587604051611c329190612392565b60006040518083038185875af1925050503d8060008114611c6f576040519150601f19603f3d011682016040523d82523d6000602084013e611c74565b606091505b5091509150611c84828286611cb3565b92505050949350505050565b6000808273ffffffffffffffffffffffffffffffffffffffff163b119050919050565b60608315611cc357829050611d13565b600083511115611cd65782518084602001fd5b816040517f08c379a0000000000000000000000000000000000000000000000000000000008152600401611d0a91906124ce565b60405180910390fd5b9392505050565b828054611d2690612978565b90600052602060002090601f016020900481019282611d485760008555611d8f565b82601f10611d6157805160ff1916838001178555611d8f565b82800160010185558215611d8f579182015b82811115611d8e578251825591602001919060010190611d73565b5b509050611d9c9190611da0565b5090565b5b80821115611db9576000816000905550600101611da1565b5090565b6000611dd0611dcb8461276a565b612745565b905082815260208101848484011115611dec57611deb612b1e565b5b611df784828561290c565b509392505050565b600081359050611e0e81612e3f565b92915050565b60008083601f840112611e2a57611e29612b14565b5b8235905067ffffffffffffffff811115611e4757611e46612b0f565b5b602083019150836020820283011115611e6357611e62612b19565b5b9250929050565b600081519050611e7981612e56565b92915050565b600082601f830112611e9457611e93612b14565b5b8135611ea4848260208601611dbd565b91505092915050565b600081359050611ebc81612e6d565b92915050565b600060208284031215611ed857611ed7612b28565b5b6000611ee684828501611dff565b91505092915050565b60008060208385031215611f0657611f05612b28565b5b600083013567ffffffffffffffff811115611f2457611f23612b23565b5b611f3085828601611e14565b92509250509250929050565b600060208284031215611f5257611f51612b28565b5b6000611f6084828501611e6a565b91505092915050565b600060208284031215611f7f57611f7e612b28565b5b6000611f8d84828501611ead565b91505092915050565b600080600080600060a08688031215611fb257611fb1612b28565b5b6000611fc088828901611ead565b955050602086013567ffffffffffffffff811115611fe157611fe0612b23565b5b611fed88828901611e7f565b9450506040611ffe88828901611ead565b935050606061200f88828901611ead565b925050608061202088828901611ead565b9150509295509295909350565b60006120398383612045565b60208301905092915050565b61204e8161283a565b82525050565b61205d8161283a565b82525050565b600061206e826127ab565b61207881856127d9565b93506120838361279b565b8060005b838110156120b457815161209b888261202d565b97506120a6836127cc565b925050600181019050612087565b5085935050505092915050565b6120ca8161284c565b82525050565b6120d981612858565b82525050565b60006120ea826127b6565b6120f481856127ea565b935061210481856020860161291b565b80840191505092915050565b612119816128b2565b82525050565b612128816128c4565b82525050565b612137816128d6565b82525050565b6000612148826127c1565b61215281856127f5565b935061216281856020860161291b565b61216b81612b2d565b840191505092915050565b60006121836005836127f5565b915061218e82612b3e565b602082019050919050565b60006121a66011836127f5565b91506121b182612b67565b602082019050919050565b60006121c96011836127f5565b91506121d482612b90565b602082019050919050565b60006121ec6014836127f5565b91506121f782612bb9565b602082019050919050565b600061220f6018836127f5565b915061221a82612be2565b602082019050919050565b60006122326010836127f5565b915061223d82612c0b565b602082019050919050565b6000612255600d836127f5565b915061226082612c34565b602082019050919050565b60006122786026836127f5565b915061228382612c5d565b604082019050919050565b600061229b6013836127f5565b91506122a682612cac565b602082019050919050565b60006122be6017836127f5565b91506122c982612cd5565b602082019050919050565b60006122e1600d836127f5565b91506122ec82612cfe565b602082019050919050565b6000612304601d836127f5565b915061230f82612d27565b602082019050919050565b60006123276022836127f5565b915061233282612d50565b604082019050919050565b600061234a602a836127f5565b915061235582612d9f565b604082019050919050565b600061236d600a836127f5565b915061237882612dee565b602082019050919050565b61238c816128a8565b82525050565b600061239e82846120df565b915081905092915050565b60006020820190506123be6000830184612054565b92915050565b60006060820190506123d96000830186612054565b6123e66020830185612054565b6123f36040830184612383565b949350505050565b60006060820190506124106000830186612054565b61241d6020830185612383565b61242a604083018461211f565b949350505050565b6000602082019050818103600083015261244c8184612063565b905092915050565b600060208201905061246960008301846120c1565b92915050565b600060408201905061248460008301856120d0565b6124916020830184612054565b9392505050565b60006020820190506124ad6000830184612110565b92915050565b60006020820190506124c8600083018461212e565b92915050565b600060208201905081810360008301526124e8818461213d565b905092915050565b6000602082019050818103600083015261250981612176565b9050919050565b6000602082019050818103600083015261252981612199565b9050919050565b60006020820190508181036000830152612549816121bc565b9050919050565b60006020820190508181036000830152612569816121df565b9050919050565b6000602082019050818103600083015261258981612202565b9050919050565b600060208201905081810360008301526125a981612225565b9050919050565b600060208201905081810360008301526125c981612248565b9050919050565b600060208201905081810360008301526125e98161226b565b9050919050565b600060208201905081810360008301526126098161228e565b9050919050565b60006020820190508181036000830152612629816122b1565b9050919050565b60006020820190508181036000830152612649816122d4565b9050919050565b60006020820190508181036000830152612669816122f7565b9050919050565b600060208201905081810360008301526126898161231a565b9050919050565b600060208201905081810360008301526126a98161233d565b9050919050565b600060208201905081810360008301526126c981612360565b9050919050565b60006020820190506126e56000830184612383565b92915050565b600060a0820190506127006000830188612383565b8181036020830152612712818761213d565b90506127216040830186612383565b61272e6060830185612383565b61273b6080830184612383565b9695505050505050565b600061274f612760565b905061275b82826129aa565b919050565b6000604051905090565b600067ffffffffffffffff82111561278557612784612ae0565b5b61278e82612b2d565b9050602081019050919050565b6000819050602082019050919050565b600081519050919050565b600081519050919050565b600081519050919050565b6000602082019050919050565b600082825260208201905092915050565b600081905092915050565b600082825260208201905092915050565b6000612811826128a8565b915061281c836128a8565b92508282101561282f5761282e612a24565b5b828203905092915050565b600061284582612888565b9050919050565b60008115159050919050565b6000819050919050565b600081905061287082612e17565b919050565b600081905061288382612e2b565b919050565b600073ffffffffffffffffffffffffffffffffffffffff82169050919050565b6000819050919050565b60006128bd826128e8565b9050919050565b60006128cf82612862565b9050919050565b60006128e182612875565b9050919050565b60006128f3826128fa565b9050919050565b600061290582612888565b9050919050565b82818337600083830152505050565b60005b8381101561293957808201518184015260208101905061291e565b83811115612948576000848401525b50505050565b6000612959826128a8565b9150600082141561296d5761296c612a24565b5b600182039050919050565b6000600282049050600182168061299057607f821691505b602082108114156129a4576129a3612a82565b5b50919050565b6129b382612b2d565b810181811067ffffffffffffffff821117156129d2576129d1612ae0565b5b80604052505050565b60006129e6826128a8565b91507fffffffffffffffffffffffffffffffffffffffffffffffffffffffffffffffff821415612a1957612a18612a24565b5b600182019050919050565b7f4e487b7100000000000000000000000000000000000000000000000000000000600052601160045260246000fd5b7f4e487b7100000000000000000000000000000000000000000000000000000000600052602160045260246000fd5b7f4e487b7100000000000000000000000000000000000000000000000000000000600052602260045260246000fd5b7f4e487b7100000000000000000000000000000000000000000000000000000000600052603260045260246000fd5b7f4e487b7100000000000000000000000000000000000000000000000000000000600052604160045260246000fd5b600080fd5b600080fd5b600080fd5b600080fd5b600080fd5b600080fd5b6000601f19601f8301169050919050565b7f4164646564000000000000000000000000000000000000000000000000000000600082015250565b7f4d433a204f6e6c79204c65637475726572000000000000000000000000000000600082015250565b7f4572726f72207768656e2072656d6f7665000000000000000000000000000000600082015250565b7f54433a20596f7520706169642074756974696f6e000000000000000000000000600082015250565b7f54433a2053747564656e7420706169642074756974696f6e0000000000000000600082015250565b7f4d433a204f6e6c792053747564656e7400000000000000000000000000000000600082015250565b7f4d433a204f6e6c79204f70656e00000000000000000000000000000000000000600082015250565b7f416464726573733a20696e73756666696369656e742062616c616e636520666f60008201527f722063616c6c0000000000000000000000000000000000000000000000000000602082015250565b7f4d433a2054696d6520697320696e76616c696400000000000000000000000000600082015250565b7f53686f756c64206f6e6c79206164642073747564656e74000000000000000000600082015250565b7f4d433a204f6e6c79204c6f636b00000000000000000000000000000000000000600082015250565b7f416464726573733a2063616c6c20746f206e6f6e2d636f6e7472616374000000600082015250565b7f4d433a2041776172642073686f756c642067726561746572207468616e205a6560008201527f726f000000000000000000000000000000000000000000000000000000000000602082015250565b7f5361666545524332303a204552433230206f7065726174696f6e20646964206e60008201527f6f74207375636365656400000000000000000000000000000000000000000000602082015250565b7f4f6e6c79204f776e657200000000000000000000000000000000000000000000600082015250565b60028110612e2857612e27612a53565b5b50565b60038110612e3c57612e3b612a53565b5b50565b612e488161283a565b8114612e5357600080fd5b50565b612e5f8161284c565b8114612e6a57600080fd5b50565b612e76816128a8565b8114612e8157600080fd5b5056fea2646970667358221220cb4f37502c2c0ee0797baa0c1d6aa9fe9b479c32d25dc8a5688e09b3ffe69b4f64736f6c63430008070033",
					"opcodes": "PUSH1 0xA0 PUSH1 0x40 MSTORE PUSH1 0x0 PUSH1 0x5 PUSH1 0x0 PUSH2 0x100 EXP DUP2 SLOAD DUP2 PUSH1 0xFF MUL NOT AND SWAP1 DUP4 PUSH1 0x2 DUP2 GT ISZERO PUSH3 0x2D JUMPI PUSH3 0x2C PUSH3 0x1CE JUMP JUMPDEST JUMPDEST MUL OR SWAP1 SSTORE POP CALLVALUE DUP1 ISZERO PUSH3 0x3F JUMPI PUSH1 0x0 DUP1 REVERT JUMPDEST POP PUSH1 0x40 MLOAD PUSH3 0x310A CODESIZE SUB DUP1 PUSH3 0x310A DUP4 CODECOPY DUP2 DUP2 ADD PUSH1 0x40 MSTORE DUP2 ADD SWAP1 PUSH3 0x65 SWAP2 SWAP1 PUSH3 0x13E JUMP JUMPDEST DUP3 PUSH20 0xFFFFFFFFFFFFFFFFFFFFFFFFFFFFFFFFFFFFFFFF AND PUSH1 0x80 DUP2 PUSH20 0xFFFFFFFFFFFFFFFFFFFFFFFFFFFFFFFFFFFFFFFF AND PUSH1 0x60 SHL DUP2 MSTORE POP POP DUP2 PUSH1 0x6 PUSH1 0x0 PUSH2 0x100 EXP DUP2 SLOAD DUP2 PUSH20 0xFFFFFFFFFFFFFFFFFFFFFFFFFFFFFFFFFFFFFFFF MUL NOT AND SWAP1 DUP4 PUSH20 0xFFFFFFFFFFFFFFFFFFFFFFFFFFFFFFFFFFFFFFFF AND MUL OR SWAP1 SSTORE POP DUP1 PUSH1 0x7 PUSH1 0x0 PUSH2 0x100 EXP DUP2 SLOAD DUP2 PUSH20 0xFFFFFFFFFFFFFFFFFFFFFFFFFFFFFFFFFFFFFFFF MUL NOT AND SWAP1 DUP4 PUSH20 0xFFFFFFFFFFFFFFFFFFFFFFFFFFFFFFFFFFFFFFFF AND MUL OR SWAP1 SSTORE POP POP POP POP PUSH3 0x21C JUMP JUMPDEST PUSH1 0x0 DUP2 MLOAD SWAP1 POP PUSH3 0x138 DUP2 PUSH3 0x202 JUMP JUMPDEST SWAP3 SWAP2 POP POP JUMP JUMPDEST PUSH1 0x0 DUP1 PUSH1 0x0 PUSH1 0x60 DUP5 DUP7 SUB SLT ISZERO PUSH3 0x15A JUMPI PUSH3 0x159 PUSH3 0x1FD JUMP JUMPDEST JUMPDEST PUSH1 0x0 PUSH3 0x16A DUP7 DUP3 DUP8 ADD PUSH3 0x127 JUMP JUMPDEST SWAP4 POP POP PUSH1 0x20 PUSH3 0x17D DUP7 DUP3 DUP8 ADD PUSH3 0x127 JUMP JUMPDEST SWAP3 POP POP PUSH1 0x40 PUSH3 0x190 DUP7 DUP3 DUP8 ADD PUSH3 0x127 JUMP JUMPDEST SWAP2 POP POP SWAP3 POP SWAP3 POP SWAP3 JUMP JUMPDEST PUSH1 0x0 PUSH3 0x1A7 DUP3 PUSH3 0x1AE JUMP JUMPDEST SWAP1 POP SWAP2 SWAP1 POP JUMP JUMPDEST PUSH1 0x0 PUSH20 0xFFFFFFFFFFFFFFFFFFFFFFFFFFFFFFFFFFFFFFFF DUP3 AND SWAP1 POP SWAP2 SWAP1 POP JUMP JUMPDEST PUSH32 0x4E487B7100000000000000000000000000000000000000000000000000000000 PUSH1 0x0 MSTORE PUSH1 0x21 PUSH1 0x4 MSTORE PUSH1 0x24 PUSH1 0x0 REVERT JUMPDEST PUSH1 0x0 DUP1 REVERT JUMPDEST PUSH3 0x20D DUP2 PUSH3 0x19A JUMP JUMPDEST DUP2 EQ PUSH3 0x219 JUMPI PUSH1 0x0 DUP1 REVERT JUMPDEST POP JUMP JUMPDEST PUSH1 0x80 MLOAD PUSH1 0x60 SHR PUSH2 0x2EBA PUSH3 0x250 PUSH1 0x0 CODECOPY PUSH1 0x0 DUP2 DUP2 PUSH2 0x8BF ADD MSTORE DUP2 DUP2 PUSH2 0xB42 ADD MSTORE DUP2 DUP2 PUSH2 0x116A ADD MSTORE PUSH2 0x1479 ADD MSTORE PUSH2 0x2EBA PUSH1 0x0 RETURN INVALID PUSH1 0x80 PUSH1 0x40 MSTORE CALLVALUE DUP1 ISZERO PUSH2 0x10 JUMPI PUSH1 0x0 DUP1 REVERT JUMPDEST POP PUSH1 0x4 CALLDATASIZE LT PUSH2 0x12C JUMPI PUSH1 0x0 CALLDATALOAD PUSH1 0xE0 SHR DUP1 PUSH4 0xA7F44E0D GT PUSH2 0xAD JUMPI DUP1 PUSH4 0xB1319F41 GT PUSH2 0x71 JUMPI DUP1 PUSH4 0xB1319F41 EQ PUSH2 0x2ED JUMPI DUP1 PUSH4 0xBE9A6555 EQ PUSH2 0x31D JUMPI DUP1 PUSH4 0xD95FE6A0 EQ PUSH2 0x327 JUMPI DUP1 PUSH4 0xED214FFF EQ PUSH2 0x357 JUMPI DUP1 PUSH4 0xF1D0D198 EQ PUSH2 0x375 JUMPI PUSH2 0x12C JUMP JUMPDEST DUP1 PUSH4 0xA7F44E0D EQ PUSH2 0x253 JUMPI DUP1 PUSH4 0xA8A86C10 EQ PUSH2 0x271 JUMPI DUP1 PUSH4 0xAA4936CE EQ PUSH2 0x293 JUMPI DUP1 PUSH4 0xAA8C217C EQ PUSH2 0x2B1 JUMPI DUP1 PUSH4 0xACC2166A EQ PUSH2 0x2CF JUMPI PUSH2 0x12C JUMP JUMPDEST DUP1 PUSH4 0x43D726D6 GT PUSH2 0xF4 JUMPI DUP1 PUSH4 0x43D726D6 EQ PUSH2 0x1D5 JUMPI DUP1 PUSH4 0x633D8390 EQ PUSH2 0x1DF JUMPI DUP1 PUSH4 0x727CB110 EQ PUSH2 0x1E9 JUMPI DUP1 PUSH4 0x8DA5CB5B EQ PUSH2 0x205 JUMPI DUP1 PUSH4 0xA32FB342 EQ PUSH2 0x223 JUMPI PUSH2 0x12C JUMP JUMPDEST DUP1 PUSH4 0x4227AB8 EQ PUSH2 0x131 JUMPI DUP1 PUSH4 0x8003D6B EQ PUSH2 0x14D JUMPI DUP1 PUSH4 0x200D2ED2 EQ PUSH2 0x169 JUMPI DUP1 PUSH4 0x2FE7A96D EQ PUSH2 0x187 JUMPI DUP1 PUSH4 0x35C1D349 EQ PUSH2 0x1A5 JUMPI JUMPDEST PUSH1 0x0 DUP1 REVERT JUMPDEST PUSH2 0x14B PUSH1 0x4 DUP1 CALLDATASIZE SUB DUP2 ADD SWAP1 PUSH2 0x146 SWAP2 SWAP1 PUSH2 0x1EEF JUMP JUMPDEST PUSH2 0x391 JUMP JUMPDEST STOP JUMPDEST PUSH2 0x167 PUSH1 0x4 DUP1 CALLDATASIZE SUB DUP2 ADD SWAP1 PUSH2 0x162 SWAP2 SWAP1 PUSH2 0x1F96 JUMP JUMPDEST PUSH2 0x8BD JUMP JUMPDEST STOP JUMPDEST PUSH2 0x171 PUSH2 0xAC8 JUMP JUMPDEST PUSH1 0x40 MLOAD PUSH2 0x17E SWAP2 SWAP1 PUSH2 0x24B3 JUMP JUMPDEST PUSH1 0x40 MLOAD DUP1 SWAP2 SUB SWAP1 RETURN JUMPDEST PUSH2 0x18F PUSH2 0xADB JUMP JUMPDEST PUSH1 0x40 MLOAD PUSH2 0x19C SWAP2 SWAP1 PUSH2 0x23A9 JUMP JUMPDEST PUSH1 0x40 MLOAD DUP1 SWAP2 SUB SWAP1 RETURN JUMPDEST PUSH2 0x1BF PUSH1 0x4 DUP1 CALLDATASIZE SUB DUP2 ADD SWAP1 PUSH2 0x1BA SWAP2 SWAP1 PUSH2 0x1F69 JUMP JUMPDEST PUSH2 0xB01 JUMP JUMPDEST PUSH1 0x40 MLOAD PUSH2 0x1CC SWAP2 SWAP1 PUSH2 0x23A9 JUMP JUMPDEST PUSH1 0x40 MLOAD DUP1 SWAP2 SUB SWAP1 RETURN JUMPDEST PUSH2 0x1DD PUSH2 0xB40 JUMP JUMPDEST STOP JUMPDEST PUSH2 0x1E7 PUSH2 0xC32 JUMP JUMPDEST STOP JUMPDEST PUSH2 0x203 PUSH1 0x4 DUP1 CALLDATASIZE SUB DUP2 ADD SWAP1 PUSH2 0x1FE SWAP2 SWAP1 PUSH2 0x1EC2 JUMP JUMPDEST PUSH2 0xED7 JUMP JUMPDEST STOP JUMPDEST PUSH2 0x20D PUSH2 0x1168 JUMP JUMPDEST PUSH1 0x40 MLOAD PUSH2 0x21A SWAP2 SWAP1 PUSH2 0x23A9 JUMP JUMPDEST PUSH1 0x40 MLOAD DUP1 SWAP2 SUB SWAP1 RETURN JUMPDEST PUSH2 0x23D PUSH1 0x4 DUP1 CALLDATASIZE SUB DUP2 ADD SWAP1 PUSH2 0x238 SWAP2 SWAP1 PUSH2 0x1EC2 JUMP JUMPDEST PUSH2 0x118C JUMP JUMPDEST PUSH1 0x40 MLOAD PUSH2 0x24A SWAP2 SWAP1 PUSH2 0x2454 JUMP JUMPDEST PUSH1 0x40 MLOAD DUP1 SWAP2 SUB SWAP1 RETURN JUMPDEST PUSH2 0x25B PUSH2 0x11AC JUMP JUMPDEST PUSH1 0x40 MLOAD PUSH2 0x268 SWAP2 SWAP1 PUSH2 0x2432 JUMP JUMPDEST PUSH1 0x40 MLOAD DUP1 SWAP2 SUB SWAP1 RETURN JUMPDEST PUSH2 0x279 PUSH2 0x1359 JUMP JUMPDEST PUSH1 0x40 MLOAD PUSH2 0x28A SWAP6 SWAP5 SWAP4 SWAP3 SWAP2 SWAP1 PUSH2 0x26EB JUMP JUMPDEST PUSH1 0x40 MLOAD DUP1 SWAP2 SUB SWAP1 RETURN JUMPDEST PUSH2 0x29B PUSH2 0x1405 JUMP JUMPDEST PUSH1 0x40 MLOAD PUSH2 0x2A8 SWAP2 SWAP1 PUSH2 0x2498 JUMP JUMPDEST PUSH1 0x40 MLOAD DUP1 SWAP2 SUB SWAP1 RETURN JUMPDEST PUSH2 0x2B9 PUSH2 0x142B JUMP JUMPDEST PUSH1 0x40 MLOAD PUSH2 0x2C6 SWAP2 SWAP1 PUSH2 0x26D0 JUMP JUMPDEST PUSH1 0x40 MLOAD DUP1 SWAP2 SUB SWAP1 RETURN JUMPDEST PUSH2 0x2D7 PUSH2 0x1431 JUMP JUMPDEST PUSH1 0x40 MLOAD PUSH2 0x2E4 SWAP2 SWAP1 PUSH2 0x23A9 JUMP JUMPDEST PUSH1 0x40 MLOAD DUP1 SWAP2 SUB SWAP1 RETURN JUMPDEST PUSH2 0x307 PUSH1 0x4 DUP1 CALLDATASIZE SUB DUP2 ADD SWAP1 PUSH2 0x302 SWAP2 SWAP1 PUSH2 0x1EC2 JUMP JUMPDEST PUSH2 0x1457 JUMP JUMPDEST PUSH1 0x40 MLOAD PUSH2 0x314 SWAP2 SWAP1 PUSH2 0x2454 JUMP JUMPDEST PUSH1 0x40 MLOAD DUP1 SWAP2 SUB SWAP1 RETURN JUMPDEST PUSH2 0x325 PUSH2 0x1477 JUMP JUMPDEST STOP JUMPDEST PUSH2 0x341 PUSH1 0x4 DUP1 CALLDATASIZE SUB DUP2 ADD SWAP1 PUSH2 0x33C SWAP2 SWAP1 PUSH2 0x1EC2 JUMP JUMPDEST PUSH2 0x15A8 JUMP JUMPDEST PUSH1 0x40 MLOAD PUSH2 0x34E SWAP2 SWAP1 PUSH2 0x26D0 JUMP JUMPDEST PUSH1 0x40 MLOAD DUP1 SWAP2 SUB SWAP1 RETURN JUMPDEST PUSH2 0x35F PUSH2 0x15C0 JUMP JUMPDEST PUSH1 0x40 MLOAD PUSH2 0x36C SWAP2 SWAP1 PUSH2 0x2432 JUMP JUMPDEST PUSH1 0x40 MLOAD DUP1 SWAP2 SUB SWAP1 RETURN JUMPDEST PUSH2 0x38F PUSH1 0x4 DUP1 CALLDATASIZE SUB DUP2 ADD SWAP1 PUSH2 0x38A SWAP2 SWAP1 PUSH2 0x1EC2 JUMP JUMPDEST PUSH2 0x17E4 JUMP JUMPDEST STOP JUMPDEST PUSH1 0x6 PUSH1 0x0 SWAP1 SLOAD SWAP1 PUSH2 0x100 EXP SWAP1 DIV PUSH20 0xFFFFFFFFFFFFFFFFFFFFFFFFFFFFFFFFFFFFFFFF AND PUSH20 0xFFFFFFFFFFFFFFFFFFFFFFFFFFFFFFFFFFFFFFFF AND PUSH4 0x91D14854 PUSH32 0xDF8B4C520FFE197C5343C6F5AEC59570151EF9A492F2C624FD45DDDE6135EC42 CALLER PUSH1 0x40 MLOAD DUP4 PUSH4 0xFFFFFFFF AND PUSH1 0xE0 SHL DUP2 MSTORE PUSH1 0x4 ADD PUSH2 0x40E SWAP3 SWAP2 SWAP1 PUSH2 0x246F JUMP JUMPDEST PUSH1 0x20 PUSH1 0x40 MLOAD DUP1 DUP4 SUB DUP2 DUP7 DUP1 EXTCODESIZE ISZERO DUP1 ISZERO PUSH2 0x426 JUMPI PUSH1 0x0 DUP1 REVERT JUMPDEST POP GAS STATICCALL ISZERO DUP1 ISZERO PUSH2 0x43A JUMPI RETURNDATASIZE PUSH1 0x0 DUP1 RETURNDATACOPY RETURNDATASIZE PUSH1 0x0 REVERT JUMPDEST POP POP POP POP PUSH1 0x40 MLOAD RETURNDATASIZE PUSH1 0x1F NOT PUSH1 0x1F DUP3 ADD AND DUP3 ADD DUP1 PUSH1 0x40 MSTORE POP DUP2 ADD SWAP1 PUSH2 0x45E SWAP2 SWAP1 PUSH2 0x1F3C JUMP JUMPDEST PUSH2 0x49D JUMPI PUSH1 0x40 MLOAD PUSH32 0x8C379A000000000000000000000000000000000000000000000000000000000 DUP2 MSTORE PUSH1 0x4 ADD PUSH2 0x494 SWAP1 PUSH2 0x2510 JUMP JUMPDEST PUSH1 0x40 MLOAD DUP1 SWAP2 SUB SWAP1 REVERT JUMPDEST PUSH1 0x1 PUSH1 0x2 DUP2 GT ISZERO PUSH2 0x4B1 JUMPI PUSH2 0x4B0 PUSH2 0x2A53 JUMP JUMPDEST JUMPDEST PUSH1 0x5 PUSH1 0x0 SWAP1 SLOAD SWAP1 PUSH2 0x100 EXP SWAP1 DIV PUSH1 0xFF AND PUSH1 0x2 DUP2 GT ISZERO PUSH2 0x4D3 JUMPI PUSH2 0x4D2 PUSH2 0x2A53 JUMP JUMPDEST JUMPDEST EQ PUSH2 0x513 JUMPI PUSH1 0x40 MLOAD PUSH32 0x8C379A000000000000000000000000000000000000000000000000000000000 DUP2 MSTORE PUSH1 0x4 ADD PUSH2 0x50A SWAP1 PUSH2 0x25B0 JUMP JUMPDEST PUSH1 0x40 MLOAD DUP1 SWAP2 SUB SWAP1 REVERT JUMPDEST PUSH1 0x0 JUMPDEST DUP3 DUP3 SWAP1 POP DUP2 LT ISZERO PUSH2 0x8B8 JUMPI PUSH1 0x6 PUSH1 0x0 SWAP1 SLOAD SWAP1 PUSH2 0x100 EXP SWAP1 DIV PUSH20 0xFFFFFFFFFFFFFFFFFFFFFFFFFFFFFFFFFFFFFFFF AND PUSH20 0xFFFFFFFFFFFFFFFFFFFFFFFFFFFFFFFFFFFFFFFF AND PUSH4 0x91D14854 PUSH32 0xC951D7098B66BA0B8B77265B6E9CF0E187D73125A42BCD0061B09A68BE421810 DUP6 DUP6 DUP6 DUP2 DUP2 LT PUSH2 0x593 JUMPI PUSH2 0x592 PUSH2 0x2AB1 JUMP JUMPDEST JUMPDEST SWAP1 POP PUSH1 0x20 MUL ADD PUSH1 0x20 DUP2 ADD SWAP1 PUSH2 0x5A8 SWAP2 SWAP1 PUSH2 0x1EC2 JUMP JUMPDEST PUSH1 0x40 MLOAD DUP4 PUSH4 0xFFFFFFFF AND PUSH1 0xE0 SHL DUP2 MSTORE PUSH1 0x4 ADD PUSH2 0x5C5 SWAP3 SWAP2 SWAP1 PUSH2 0x246F JUMP JUMPDEST PUSH1 0x20 PUSH1 0x40 MLOAD DUP1 DUP4 SUB DUP2 DUP7 DUP1 EXTCODESIZE ISZERO DUP1 ISZERO PUSH2 0x5DD JUMPI PUSH1 0x0 DUP1 REVERT JUMPDEST POP GAS STATICCALL ISZERO DUP1 ISZERO PUSH2 0x5F1 JUMPI RETURNDATASIZE PUSH1 0x0 DUP1 RETURNDATACOPY RETURNDATASIZE PUSH1 0x0 REVERT JUMPDEST POP POP POP POP PUSH1 0x40 MLOAD RETURNDATASIZE PUSH1 0x1F NOT PUSH1 0x1F DUP3 ADD AND DUP3 ADD DUP1 PUSH1 0x40 MSTORE POP DUP2 ADD SWAP1 PUSH2 0x615 SWAP2 SWAP1 PUSH2 0x1F3C JUMP JUMPDEST PUSH2 0x654 JUMPI PUSH1 0x40 MLOAD PUSH32 0x8C379A000000000000000000000000000000000000000000000000000000000 DUP2 MSTORE PUSH1 0x4 ADD PUSH2 0x64B SWAP1 PUSH2 0x2610 JUMP JUMPDEST PUSH1 0x40 MLOAD DUP1 SWAP2 SUB SWAP1 REVERT JUMPDEST PUSH1 0xB PUSH1 0x0 DUP5 DUP5 DUP5 DUP2 DUP2 LT PUSH2 0x66B JUMPI PUSH2 0x66A PUSH2 0x2AB1 JUMP JUMPDEST JUMPDEST SWAP1 POP PUSH1 0x20 MUL ADD PUSH1 0x20 DUP2 ADD SWAP1 PUSH2 0x680 SWAP2 SWAP1 PUSH2 0x1EC2 JUMP JUMPDEST PUSH20 0xFFFFFFFFFFFFFFFFFFFFFFFFFFFFFFFFFFFFFFFF AND PUSH20 0xFFFFFFFFFFFFFFFFFFFFFFFFFFFFFFFFFFFFFFFF AND DUP2 MSTORE PUSH1 0x20 ADD SWAP1 DUP2 MSTORE PUSH1 0x20 ADD PUSH1 0x0 KECCAK256 PUSH1 0x0 SWAP1 SLOAD SWAP1 PUSH2 0x100 EXP SWAP1 DIV PUSH1 0xFF AND ISZERO PUSH2 0x708 JUMPI PUSH1 0x40 MLOAD PUSH32 0x8C379A000000000000000000000000000000000000000000000000000000000 DUP2 MSTORE PUSH1 0x4 ADD PUSH2 0x6FF SWAP1 PUSH2 0x24F0 JUMP JUMPDEST PUSH1 0x40 MLOAD DUP1 SWAP2 SUB SWAP1 REVERT JUMPDEST PUSH1 0x8 DUP4 DUP4 DUP4 DUP2 DUP2 LT PUSH2 0x71D JUMPI PUSH2 0x71C PUSH2 0x2AB1 JUMP JUMPDEST JUMPDEST SWAP1 POP PUSH1 0x20 MUL ADD PUSH1 0x20 DUP2 ADD SWAP1 PUSH2 0x732 SWAP2 SWAP1 PUSH2 0x1EC2 JUMP JUMPDEST SWAP1 DUP1 PUSH1 0x1 DUP2 SLOAD ADD DUP1 DUP3 SSTORE DUP1 SWAP2 POP POP PUSH1 0x1 SWAP1 SUB SWAP1 PUSH1 0x0 MSTORE PUSH1 0x20 PUSH1 0x0 KECCAK256 ADD PUSH1 0x0 SWAP1 SWAP2 SWAP1 SWAP2 SWAP1 SWAP2 PUSH2 0x100 EXP DUP2 SLOAD DUP2 PUSH20 0xFFFFFFFFFFFFFFFFFFFFFFFFFFFFFFFFFFFFFFFF MUL NOT AND SWAP1 DUP4 PUSH20 0xFFFFFFFFFFFFFFFFFFFFFFFFFFFFFFFFFFFFFFFF AND MUL OR SWAP1 SSTORE POP PUSH1 0x1 PUSH1 0x8 DUP1 SLOAD SWAP1 POP PUSH2 0x7A4 SWAP2 SWAP1 PUSH2 0x2806 JUMP JUMPDEST PUSH1 0xA PUSH1 0x0 DUP6 DUP6 DUP6 DUP2 DUP2 LT PUSH2 0x7BB JUMPI PUSH2 0x7BA PUSH2 0x2AB1 JUMP JUMPDEST JUMPDEST SWAP1 POP PUSH1 0x20 MUL ADD PUSH1 0x20 DUP2 ADD SWAP1 PUSH2 0x7D0 SWAP2 SWAP1 PUSH2 0x1EC2 JUMP JUMPDEST PUSH20 0xFFFFFFFFFFFFFFFFFFFFFFFFFFFFFFFFFFFFFFFF AND PUSH20 0xFFFFFFFFFFFFFFFFFFFFFFFFFFFFFFFFFFFFFFFF AND DUP2 MSTORE PUSH1 0x20 ADD SWAP1 DUP2 MSTORE PUSH1 0x20 ADD PUSH1 0x0 KECCAK256 DUP2 SWAP1 SSTORE POP PUSH1 0x1 PUSH1 0xB PUSH1 0x0 DUP6 DUP6 DUP6 DUP2 DUP2 LT PUSH2 0x827 JUMPI PUSH2 0x826 PUSH2 0x2AB1 JUMP JUMPDEST JUMPDEST SWAP1 POP PUSH1 0x20 MUL ADD PUSH1 0x20 DUP2 ADD SWAP1 PUSH2 0x83C SWAP2 SWAP1 PUSH2 0x1EC2 JUMP JUMPDEST PUSH20 0xFFFFFFFFFFFFFFFFFFFFFFFFFFFFFFFFFFFFFFFF AND PUSH20 0xFFFFFFFFFFFFFFFFFFFFFFFFFFFFFFFFFFFFFFFF AND DUP2 MSTORE PUSH1 0x20 ADD SWAP1 DUP2 MSTORE PUSH1 0x20 ADD PUSH1 0x0 KECCAK256 PUSH1 0x0 PUSH2 0x100 EXP DUP2 SLOAD DUP2 PUSH1 0xFF MUL NOT AND SWAP1 DUP4 ISZERO ISZERO MUL OR SWAP1 SSTORE POP PUSH1 0x9 PUSH1 0x0 DUP2 SLOAD DUP1 SWAP3 SWAP2 SWAP1 PUSH2 0x8A0 SWAP1 PUSH2 0x29DB JUMP JUMPDEST SWAP2 SWAP1 POP SSTORE POP DUP1 DUP1 PUSH2 0x8B0 SWAP1 PUSH2 0x29DB JUMP JUMPDEST SWAP2 POP POP PUSH2 0x516 JUMP JUMPDEST POP POP POP JUMP JUMPDEST PUSH32 0x0 PUSH20 0xFFFFFFFFFFFFFFFFFFFFFFFFFFFFFFFFFFFFFFFF AND CALLER PUSH20 0xFFFFFFFFFFFFFFFFFFFFFFFFFFFFFFFFFFFFFFFF AND EQ PUSH2 0x94B JUMPI PUSH1 0x40 MLOAD PUSH32 0x8C379A000000000000000000000000000000000000000000000000000000000 DUP2 MSTORE PUSH1 0x4 ADD PUSH2 0x942 SWAP1 PUSH2 0x26B0 JUMP JUMPDEST PUSH1 0x40 MLOAD DUP1 SWAP2 SUB SWAP1 REVERT JUMPDEST PUSH1 0x0 PUSH1 0x2 DUP2 GT ISZERO PUSH2 0x95F JUMPI PUSH2 0x95E PUSH2 0x2A53 JUMP JUMPDEST JUMPDEST PUSH1 0x5 PUSH1 0x0 SWAP1 SLOAD SWAP1 PUSH2 0x100 EXP SWAP1 DIV PUSH1 0xFF AND PUSH1 0x2 DUP2 GT ISZERO PUSH2 0x981 JUMPI PUSH2 0x980 PUSH2 0x2A53 JUMP JUMPDEST JUMPDEST EQ PUSH2 0x9C1 JUMPI PUSH1 0x40 MLOAD PUSH32 0x8C379A000000000000000000000000000000000000000000000000000000000 DUP2 MSTORE PUSH1 0x4 ADD PUSH2 0x9B8 SWAP1 PUSH2 0x2630 JUMP JUMPDEST PUSH1 0x40 MLOAD DUP1 SWAP2 SUB SWAP1 REVERT JUMPDEST PUSH1 0x0 DUP4 GT PUSH2 0xA04 JUMPI PUSH1 0x40 MLOAD PUSH32 0x8C379A000000000000000000000000000000000000000000000000000000000 DUP2 MSTORE PUSH1 0x4 ADD PUSH2 0x9FB SWAP1 PUSH2 0x2670 JUMP JUMPDEST PUSH1 0x40 MLOAD DUP1 SWAP2 SUB SWAP1 REVERT JUMPDEST DUP2 TIMESTAMP LT DUP1 ISZERO PUSH2 0xA12 JUMPI POP DUP1 DUP3 LT JUMPDEST PUSH2 0xA51 JUMPI PUSH1 0x40 MLOAD PUSH32 0x8C379A000000000000000000000000000000000000000000000000000000000 DUP2 MSTORE PUSH1 0x4 ADD PUSH2 0xA48 SWAP1 PUSH2 0x25F0 JUMP JUMPDEST PUSH1 0x40 MLOAD DUP1 SWAP2 SUB SWAP1 REVERT JUMPDEST PUSH1 0x40 MLOAD DUP1 PUSH1 0xA0 ADD PUSH1 0x40 MSTORE DUP1 DUP7 DUP2 MSTORE PUSH1 0x20 ADD DUP6 DUP2 MSTORE PUSH1 0x20 ADD DUP5 DUP2 MSTORE PUSH1 0x20 ADD DUP4 DUP2 MSTORE PUSH1 0x20 ADD DUP3 DUP2 MSTORE POP PUSH1 0x0 DUP1 DUP3 ADD MLOAD DUP2 PUSH1 0x0 ADD SSTORE PUSH1 0x20 DUP3 ADD MLOAD DUP2 PUSH1 0x1 ADD SWAP1 DUP1 MLOAD SWAP1 PUSH1 0x20 ADD SWAP1 PUSH2 0xA9F SWAP3 SWAP2 SWAP1 PUSH2 0x1D1A JUMP JUMPDEST POP PUSH1 0x40 DUP3 ADD MLOAD DUP2 PUSH1 0x2 ADD SSTORE PUSH1 0x60 DUP3 ADD MLOAD DUP2 PUSH1 0x3 ADD SSTORE PUSH1 0x80 DUP3 ADD MLOAD DUP2 PUSH1 0x4 ADD SSTORE SWAP1 POP POP POP POP POP POP POP JUMP JUMPDEST PUSH1 0x5 PUSH1 0x0 SWAP1 SLOAD SWAP1 PUSH2 0x100 EXP SWAP1 DIV PUSH1 0xFF AND DUP2 JUMP JUMPDEST PUSH1 0x5 PUSH1 0x1 SWAP1 SLOAD SWAP1 PUSH2 0x100 EXP SWAP1 DIV PUSH20 0xFFFFFFFFFFFFFFFFFFFFFFFFFFFFFFFFFFFFFFFF AND DUP2 JUMP JUMPDEST PUSH1 0x8 DUP2 DUP2 SLOAD DUP2 LT PUSH2 0xB11 JUMPI PUSH1 0x0 DUP1 REVERT JUMPDEST SWAP1 PUSH1 0x0 MSTORE PUSH1 0x20 PUSH1 0x0 KECCAK256 ADD PUSH1 0x0 SWAP2 POP SLOAD SWAP1 PUSH2 0x100 EXP SWAP1 DIV PUSH20 0xFFFFFFFFFFFFFFFFFFFFFFFFFFFFFFFFFFFFFFFF AND DUP2 JUMP JUMPDEST PUSH32 0x0 PUSH20 0xFFFFFFFFFFFFFFFFFFFFFFFFFFFFFFFFFFFFFFFF AND CALLER PUSH20 0xFFFFFFFFFFFFFFFFFFFFFFFFFFFFFFFFFFFFFFFF AND EQ PUSH2 0xBCE JUMPI PUSH1 0x40 MLOAD PUSH32 0x8C379A000000000000000000000000000000000000000000000000000000000 DUP2 MSTORE PUSH1 0x4 ADD PUSH2 0xBC5 SWAP1 PUSH2 0x26B0 JUMP JUMPDEST PUSH1 0x40 MLOAD DUP1 SWAP2 SUB SWAP1 REVERT JUMPDEST PUSH1 0x2 PUSH1 0x5 PUSH1 0x0 PUSH2 0x100 EXP DUP2 SLOAD DUP2 PUSH1 0xFF MUL NOT AND SWAP1 DUP4 PUSH1 0x2 DUP2 GT ISZERO PUSH2 0xBF4 JUMPI PUSH2 0xBF3 PUSH2 0x2A53 JUMP JUMPDEST JUMPDEST MUL OR SWAP1 SSTORE POP PUSH32 0xBF67515A38EE520223D32C1266D52101C30D936ED1F3E436C8CAEB0A43CB06BF TIMESTAMP PUSH1 0x40 MLOAD PUSH2 0xC28 SWAP2 SWAP1 PUSH2 0x26D0 JUMP JUMPDEST PUSH1 0x40 MLOAD DUP1 SWAP2 SUB SWAP1 LOG1 JUMP JUMPDEST PUSH1 0x6 PUSH1 0x0 SWAP1 SLOAD SWAP1 PUSH2 0x100 EXP SWAP1 DIV PUSH20 0xFFFFFFFFFFFFFFFFFFFFFFFFFFFFFFFFFFFFFFFF AND PUSH20 0xFFFFFFFFFFFFFFFFFFFFFFFFFFFFFFFFFFFFFFFF AND PUSH4 0x91D14854 PUSH32 0xC951D7098B66BA0B8B77265B6E9CF0E187D73125A42BCD0061B09A68BE421810 CALLER PUSH1 0x40 MLOAD DUP4 PUSH4 0xFFFFFFFF AND PUSH1 0xE0 SHL DUP2 MSTORE PUSH1 0x4 ADD PUSH2 0xCAF SWAP3 SWAP2 SWAP1 PUSH2 0x246F JUMP JUMPDEST PUSH1 0x20 PUSH1 0x40 MLOAD DUP1 DUP4 SUB DUP2 DUP7 DUP1 EXTCODESIZE ISZERO DUP1 ISZERO PUSH2 0xCC7 JUMPI PUSH1 0x0 DUP1 REVERT JUMPDEST POP GAS STATICCALL ISZERO DUP1 ISZERO PUSH2 0xCDB JUMPI RETURNDATASIZE PUSH1 0x0 DUP1 RETURNDATACOPY RETURNDATASIZE PUSH1 0x0 REVERT JUMPDEST POP POP POP POP PUSH1 0x40 MLOAD RETURNDATASIZE PUSH1 0x1F NOT PUSH1 0x1F DUP3 ADD AND DUP3 ADD DUP1 PUSH1 0x40 MSTORE POP DUP2 ADD SWAP1 PUSH2 0xCFF SWAP2 SWAP1 PUSH2 0x1F3C JUMP JUMPDEST PUSH2 0xD3E JUMPI PUSH1 0x40 MLOAD PUSH32 0x8C379A000000000000000000000000000000000000000000000000000000000 DUP2 MSTORE PUSH1 0x4 ADD PUSH2 0xD35 SWAP1 PUSH2 0x2590 JUMP JUMPDEST PUSH1 0x40 MLOAD DUP1 SWAP2 SUB SWAP1 REVERT JUMPDEST PUSH1 0xB PUSH1 0x0 CALLER PUSH20 0xFFFFFFFFFFFFFFFFFFFFFFFFFFFFFFFFFFFFFFFF AND PUSH20 0xFFFFFFFFFFFFFFFFFFFFFFFFFFFFFFFFFFFFFFFF AND DUP2 MSTORE PUSH1 0x20 ADD SWAP1 DUP2 MSTORE PUSH1 0x20 ADD PUSH1 0x0 KECCAK256 PUSH1 0x0 SWAP1 SLOAD SWAP1 PUSH2 0x100 EXP SWAP1 DIV PUSH1 0xFF AND ISZERO PUSH2 0xDCB JUMPI PUSH1 0x40 MLOAD PUSH32 0x8C379A000000000000000000000000000000000000000000000000000000000 DUP2 MSTORE PUSH1 0x4 ADD PUSH2 0xDC2 SWAP1 PUSH2 0x2550 JUMP JUMPDEST PUSH1 0x40 MLOAD DUP1 SWAP2 SUB SWAP1 REVERT JUMPDEST PUSH2 0xE41 CALLER PUSH1 0x7 PUSH1 0x0 SWAP1 SLOAD SWAP1 PUSH2 0x100 EXP SWAP1 DIV PUSH20 0xFFFFFFFFFFFFFFFFFFFFFFFFFFFFFFFFFFFFFFFF AND PUSH1 0x0 PUSH1 0x2 ADD SLOAD PUSH1 0x5 PUSH1 0x1 SWAP1 SLOAD SWAP1 PUSH2 0x100 EXP SWAP1 DIV PUSH20 0xFFFFFFFFFFFFFFFFFFFFFFFFFFFFFFFFFFFFFFFF AND PUSH20 0xFFFFFFFFFFFFFFFFFFFFFFFFFFFFFFFFFFFFFFFF AND PUSH2 0x1A14 SWAP1 SWAP4 SWAP3 SWAP2 SWAP1 PUSH4 0xFFFFFFFF AND JUMP JUMPDEST PUSH1 0x1 PUSH1 0xC PUSH1 0x0 CALLER PUSH20 0xFFFFFFFFFFFFFFFFFFFFFFFFFFFFFFFFFFFFFFFF AND PUSH20 0xFFFFFFFFFFFFFFFFFFFFFFFFFFFFFFFFFFFFFFFF AND DUP2 MSTORE PUSH1 0x20 ADD SWAP1 DUP2 MSTORE PUSH1 0x20 ADD PUSH1 0x0 KECCAK256 PUSH1 0x0 PUSH2 0x100 EXP DUP2 SLOAD DUP2 PUSH1 0xFF MUL NOT AND SWAP1 DUP4 ISZERO ISZERO MUL OR SWAP1 SSTORE POP PUSH32 0x34F914F46F0A40EB0E7B1396063B87A1819F28ED7B5A63829D59F41EBA61A1AE CALLER TIMESTAMP PUSH1 0x0 PUSH1 0x40 MLOAD PUSH2 0xECD SWAP4 SWAP3 SWAP2 SWAP1 PUSH2 0x23FB JUMP JUMPDEST PUSH1 0x40 MLOAD DUP1 SWAP2 SUB SWAP1 LOG1 JUMP JUMPDEST PUSH1 0x6 PUSH1 0x0 SWAP1 SLOAD SWAP1 PUSH2 0x100 EXP SWAP1 DIV PUSH20 0xFFFFFFFFFFFFFFFFFFFFFFFFFFFFFFFFFFFFFFFF AND PUSH20 0xFFFFFFFFFFFFFFFFFFFFFFFFFFFFFFFFFFFFFFFF AND PUSH4 0x91D14854 PUSH32 0xDF8B4C520FFE197C5343C6F5AEC59570151EF9A492F2C624FD45DDDE6135EC42 CALLER PUSH1 0x40 MLOAD DUP4 PUSH4 0xFFFFFFFF AND PUSH1 0xE0 SHL DUP2 MSTORE PUSH1 0x4 ADD PUSH2 0xF54 SWAP3 SWAP2 SWAP1 PUSH2 0x246F JUMP JUMPDEST PUSH1 0x20 PUSH1 0x40 MLOAD DUP1 DUP4 SUB DUP2 DUP7 DUP1 EXTCODESIZE ISZERO DUP1 ISZERO PUSH2 0xF6C JUMPI PUSH1 0x0 DUP1 REVERT JUMPDEST POP GAS STATICCALL ISZERO DUP1 ISZERO PUSH2 0xF80 JUMPI RETURNDATASIZE PUSH1 0x0 DUP1 RETURNDATACOPY RETURNDATASIZE PUSH1 0x0 REVERT JUMPDEST POP POP POP POP PUSH1 0x40 MLOAD RETURNDATASIZE PUSH1 0x1F NOT PUSH1 0x1F DUP3 ADD AND DUP3 ADD DUP1 PUSH1 0x40 MSTORE POP DUP2 ADD SWAP1 PUSH2 0xFA4 SWAP2 SWAP1 PUSH2 0x1F3C JUMP JUMPDEST PUSH2 0xFE3 JUMPI PUSH1 0x40 MLOAD PUSH32 0x8C379A000000000000000000000000000000000000000000000000000000000 DUP2 MSTORE PUSH1 0x4 ADD PUSH2 0xFDA SWAP1 PUSH2 0x2510 JUMP JUMPDEST PUSH1 0x40 MLOAD DUP1 SWAP2 SUB SWAP1 REVERT JUMPDEST PUSH1 0xB PUSH1 0x0 DUP3 PUSH20 0xFFFFFFFFFFFFFFFFFFFFFFFFFFFFFFFFFFFFFFFF AND PUSH20 0xFFFFFFFFFFFFFFFFFFFFFFFFFFFFFFFFFFFFFFFF AND DUP2 MSTORE PUSH1 0x20 ADD SWAP1 DUP2 MSTORE PUSH1 0x20 ADD PUSH1 0x0 KECCAK256 PUSH1 0x0 SWAP1 SLOAD SWAP1 PUSH2 0x100 EXP SWAP1 DIV PUSH1 0xFF AND PUSH2 0x106F JUMPI PUSH1 0x40 MLOAD PUSH32 0x8C379A000000000000000000000000000000000000000000000000000000000 DUP2 MSTORE PUSH1 0x4 ADD PUSH2 0x1066 SWAP1 PUSH2 0x2530 JUMP JUMPDEST PUSH1 0x40 MLOAD DUP1 SWAP2 SUB SWAP1 REVERT JUMPDEST PUSH1 0x0 PUSH1 0xA PUSH1 0x0 DUP4 PUSH20 0xFFFFFFFFFFFFFFFFFFFFFFFFFFFFFFFFFFFFFFFF AND PUSH20 0xFFFFFFFFFFFFFFFFFFFFFFFFFFFFFFFFFFFFFFFF AND DUP2 MSTORE PUSH1 0x20 ADD SWAP1 DUP2 MSTORE PUSH1 0x20 ADD PUSH1 0x0 KECCAK256 SLOAD SWAP1 POP PUSH1 0x9 PUSH1 0x0 DUP2 SLOAD DUP1 SWAP3 SWAP2 SWAP1 PUSH2 0x10C6 SWAP1 PUSH2 0x294E JUMP JUMPDEST SWAP2 SWAP1 POP SSTORE POP PUSH1 0x0 PUSH1 0xB PUSH1 0x0 DUP5 PUSH20 0xFFFFFFFFFFFFFFFFFFFFFFFFFFFFFFFFFFFFFFFF AND PUSH20 0xFFFFFFFFFFFFFFFFFFFFFFFFFFFFFFFFFFFFFFFF AND DUP2 MSTORE PUSH1 0x20 ADD SWAP1 DUP2 MSTORE PUSH1 0x20 ADD PUSH1 0x0 KECCAK256 PUSH1 0x0 PUSH2 0x100 EXP DUP2 SLOAD DUP2 PUSH1 0xFF MUL NOT AND SWAP1 DUP4 ISZERO ISZERO MUL OR SWAP1 SSTORE POP PUSH1 0x8 DUP2 DUP2 SLOAD DUP2 LT PUSH2 0x1137 JUMPI PUSH2 0x1136 PUSH2 0x2AB1 JUMP JUMPDEST JUMPDEST SWAP1 PUSH1 0x0 MSTORE PUSH1 0x20 PUSH1 0x0 KECCAK256 ADD PUSH1 0x0 PUSH2 0x100 EXP DUP2 SLOAD SWAP1 PUSH20 0xFFFFFFFFFFFFFFFFFFFFFFFFFFFFFFFFFFFFFFFF MUL NOT AND SWAP1 SSTORE POP POP JUMP JUMPDEST PUSH32 0x0 DUP2 JUMP JUMPDEST PUSH1 0xC PUSH1 0x20 MSTORE DUP1 PUSH1 0x0 MSTORE PUSH1 0x40 PUSH1 0x0 KECCAK256 PUSH1 0x0 SWAP2 POP SLOAD SWAP1 PUSH2 0x100 EXP SWAP1 DIV PUSH1 0xFF AND DUP2 JUMP JUMPDEST PUSH1 0x60 PUSH1 0x0 PUSH1 0x9 SLOAD PUSH8 0xFFFFFFFFFFFFFFFF DUP2 GT ISZERO PUSH2 0x11CC JUMPI PUSH2 0x11CB PUSH2 0x2AE0 JUMP JUMPDEST JUMPDEST PUSH1 0x40 MLOAD SWAP1 DUP1 DUP3 MSTORE DUP1 PUSH1 0x20 MUL PUSH1 0x20 ADD DUP3 ADD PUSH1 0x40 MSTORE DUP1 ISZERO PUSH2 0x11FA JUMPI DUP2 PUSH1 0x20 ADD PUSH1 0x20 DUP3 MUL DUP1 CALLDATASIZE DUP4 CALLDATACOPY DUP1 DUP3 ADD SWAP2 POP POP SWAP1 POP JUMPDEST POP SWAP1 POP PUSH1 0x0 DUP1 PUSH1 0x0 SWAP1 POP JUMPDEST PUSH1 0x8 DUP1 SLOAD SWAP1 POP DUP2 LT ISZERO PUSH2 0x1350 JUMPI PUSH1 0xC PUSH1 0x0 PUSH1 0x8 DUP4 DUP2 SLOAD DUP2 LT PUSH2 0x122A JUMPI PUSH2 0x1229 PUSH2 0x2AB1 JUMP JUMPDEST JUMPDEST SWAP1 PUSH1 0x0 MSTORE PUSH1 0x20 PUSH1 0x0 KECCAK256 ADD PUSH1 0x0 SWAP1 SLOAD SWAP1 PUSH2 0x100 EXP SWAP1 DIV PUSH20 0xFFFFFFFFFFFFFFFFFFFFFFFFFFFFFFFFFFFFFFFF AND PUSH20 0xFFFFFFFFFFFFFFFFFFFFFFFFFFFFFFFFFFFFFFFF AND PUSH20 0xFFFFFFFFFFFFFFFFFFFFFFFFFFFFFFFFFFFFFFFF AND DUP2 MSTORE PUSH1 0x20 ADD SWAP1 DUP2 MSTORE PUSH1 0x20 ADD PUSH1 0x0 KECCAK256 PUSH1 0x0 SWAP1 SLOAD SWAP1 PUSH2 0x100 EXP SWAP1 DIV PUSH1 0xFF AND ISZERO PUSH2 0x133D JUMPI PUSH1 0x8 DUP2 DUP2 SLOAD DUP2 LT PUSH2 0x12B6 JUMPI PUSH2 0x12B5 PUSH2 0x2AB1 JUMP JUMPDEST JUMPDEST SWAP1 PUSH1 0x0 MSTORE PUSH1 0x20 PUSH1 0x0 KECCAK256 ADD PUSH1 0x0 SWAP1 SLOAD SWAP1 PUSH2 0x100 EXP SWAP1 DIV PUSH20 0xFFFFFFFFFFFFFFFFFFFFFFFFFFFFFFFFFFFFFFFF AND DUP4 DUP4 DUP2 MLOAD DUP2 LT PUSH2 0x12F4 JUMPI PUSH2 0x12F3 PUSH2 0x2AB1 JUMP JUMPDEST JUMPDEST PUSH1 0x20 MUL PUSH1 0x20 ADD ADD SWAP1 PUSH20 0xFFFFFFFFFFFFFFFFFFFFFFFFFFFFFFFFFFFFFFFF AND SWAP1 DUP2 PUSH20 0xFFFFFFFFFFFFFFFFFFFFFFFFFFFFFFFFFFFFFFFF AND DUP2 MSTORE POP POP DUP2 DUP1 PUSH2 0x1339 SWAP1 PUSH2 0x29DB JUMP JUMPDEST SWAP3 POP POP JUMPDEST DUP1 DUP1 PUSH2 0x1348 SWAP1 PUSH2 0x29DB JUMP JUMPDEST SWAP2 POP POP PUSH2 0x1205 JUMP JUMPDEST POP DUP2 SWAP3 POP POP POP SWAP1 JUMP JUMPDEST PUSH1 0x0 DUP1 PUSH1 0x0 ADD SLOAD SWAP1 DUP1 PUSH1 0x1 ADD DUP1 SLOAD PUSH2 0x1370 SWAP1 PUSH2 0x2978 JUMP JUMPDEST DUP1 PUSH1 0x1F ADD PUSH1 0x20 DUP1 SWAP2 DIV MUL PUSH1 0x20 ADD PUSH1 0x40 MLOAD SWAP1 DUP2 ADD PUSH1 0x40 MSTORE DUP1 SWAP3 SWAP2 SWAP1 DUP2 DUP2 MSTORE PUSH1 0x20 ADD DUP3 DUP1 SLOAD PUSH2 0x139C SWAP1 PUSH2 0x2978 JUMP JUMPDEST DUP1 ISZERO PUSH2 0x13E9 JUMPI DUP1 PUSH1 0x1F LT PUSH2 0x13BE JUMPI PUSH2 0x100 DUP1 DUP4 SLOAD DIV MUL DUP4 MSTORE SWAP2 PUSH1 0x20 ADD SWAP2 PUSH2 0x13E9 JUMP JUMPDEST DUP3 ADD SWAP2 SWAP1 PUSH1 0x0 MSTORE PUSH1 0x20 PUSH1 0x0 KECCAK256 SWAP1 JUMPDEST DUP2 SLOAD DUP2 MSTORE SWAP1 PUSH1 0x1 ADD SWAP1 PUSH1 0x20 ADD DUP1 DUP4 GT PUSH2 0x13CC JUMPI DUP3 SWAP1 SUB PUSH1 0x1F AND DUP3 ADD SWAP2 JUMPDEST POP POP POP POP POP SWAP1 DUP1 PUSH1 0x2 ADD SLOAD SWAP1 DUP1 PUSH1 0x3 ADD SLOAD SWAP1 DUP1 PUSH1 0x4 ADD SLOAD SWAP1 POP DUP6 JUMP JUMPDEST PUSH1 0x6 PUSH1 0x0 SWAP1 SLOAD SWAP1 PUSH2 0x100 EXP SWAP1 DIV PUSH20 0xFFFFFFFFFFFFFFFFFFFFFFFFFFFFFFFFFFFFFFFF AND DUP2 JUMP JUMPDEST PUSH1 0x9 SLOAD DUP2 JUMP JUMPDEST PUSH1 0x7 PUSH1 0x0 SWAP1 SLOAD SWAP1 PUSH2 0x100 EXP SWAP1 DIV PUSH20 0xFFFFFFFFFFFFFFFFFFFFFFFFFFFFFFFFFFFFFFFF AND DUP2 JUMP JUMPDEST PUSH1 0xB PUSH1 0x20 MSTORE DUP1 PUSH1 0x0 MSTORE PUSH1 0x40 PUSH1 0x0 KECCAK256 PUSH1 0x0 SWAP2 POP SLOAD SWAP1 PUSH2 0x100 EXP SWAP1 DIV PUSH1 0xFF AND DUP2 JUMP JUMPDEST PUSH32 0x0 PUSH20 0xFFFFFFFFFFFFFFFFFFFFFFFFFFFFFFFFFFFFFFFF AND CALLER PUSH20 0xFFFFFFFFFFFFFFFFFFFFFFFFFFFFFFFFFFFFFFFF AND EQ PUSH2 0x1505 JUMPI PUSH1 0x40 MLOAD PUSH32 0x8C379A000000000000000000000000000000000000000000000000000000000 DUP2 MSTORE PUSH1 0x4 ADD PUSH2 0x14FC SWAP1 PUSH2 0x26B0 JUMP JUMPDEST PUSH1 0x40 MLOAD DUP1 SWAP2 SUB SWAP1 REVERT JUMPDEST PUSH1 0x0 PUSH1 0x2 DUP2 GT ISZERO PUSH2 0x1519 JUMPI PUSH2 0x1518 PUSH2 0x2A53 JUMP JUMPDEST JUMPDEST PUSH1 0x5 PUSH1 0x0 SWAP1 SLOAD SWAP1 PUSH2 0x100 EXP SWAP1 DIV PUSH1 0xFF AND PUSH1 0x2 DUP2 GT ISZERO PUSH2 0x153B JUMPI PUSH2 0x153A PUSH2 0x2A53 JUMP JUMPDEST JUMPDEST EQ PUSH2 0x157B JUMPI PUSH1 0x40 MLOAD PUSH32 0x8C379A000000000000000000000000000000000000000000000000000000000 DUP2 MSTORE PUSH1 0x4 ADD PUSH2 0x1572 SWAP1 PUSH2 0x2630 JUMP JUMPDEST PUSH1 0x40 MLOAD DUP1 SWAP2 SUB SWAP1 REVERT JUMPDEST PUSH1 0x1 PUSH1 0x5 PUSH1 0x0 PUSH2 0x100 EXP DUP2 SLOAD DUP2 PUSH1 0xFF MUL NOT AND SWAP1 DUP4 PUSH1 0x2 DUP2 GT ISZERO PUSH2 0x15A1 JUMPI PUSH2 0x15A0 PUSH2 0x2A53 JUMP JUMPDEST JUMPDEST MUL OR SWAP1 SSTORE POP JUMP JUMPDEST PUSH1 0xA PUSH1 0x20 MSTORE DUP1 PUSH1 0x0 MSTORE PUSH1 0x40 PUSH1 0x0 KECCAK256 PUSH1 0x0 SWAP2 POP SWAP1 POP SLOAD DUP2 JUMP JUMPDEST PUSH1 0x60 PUSH1 0x0 PUSH1 0x9 SLOAD PUSH8 0xFFFFFFFFFFFFFFFF DUP2 GT ISZERO PUSH2 0x15E0 JUMPI PUSH2 0x15DF PUSH2 0x2AE0 JUMP JUMPDEST JUMPDEST PUSH1 0x40 MLOAD SWAP1 DUP1 DUP3 MSTORE DUP1 PUSH1 0x20 MUL PUSH1 0x20 ADD DUP3 ADD PUSH1 0x40 MSTORE DUP1 ISZERO PUSH2 0x160E JUMPI DUP2 PUSH1 0x20 ADD PUSH1 0x20 DUP3 MUL DUP1 CALLDATASIZE DUP4 CALLDATACOPY DUP1 DUP3 ADD SWAP2 POP POP SWAP1 POP JUMPDEST POP SWAP1 POP PUSH1 0x0 DUP1 PUSH1 0x0 SWAP1 POP JUMPDEST PUSH1 0x8 DUP1 SLOAD SWAP1 POP DUP2 LT ISZERO PUSH2 0x17DB JUMPI PUSH1 0xB PUSH1 0x0 PUSH1 0x8 DUP4 DUP2 SLOAD DUP2 LT PUSH2 0x163E JUMPI PUSH2 0x163D PUSH2 0x2AB1 JUMP JUMPDEST JUMPDEST SWAP1 PUSH1 0x0 MSTORE PUSH1 0x20 PUSH1 0x0 KECCAK256 ADD PUSH1 0x0 SWAP1 SLOAD SWAP1 PUSH2 0x100 EXP SWAP1 DIV PUSH20 0xFFFFFFFFFFFFFFFFFFFFFFFFFFFFFFFFFFFFFFFF AND PUSH20 0xFFFFFFFFFFFFFFFFFFFFFFFFFFFFFFFFFFFFFFFF AND PUSH20 0xFFFFFFFFFFFFFFFFFFFFFFFFFFFFFFFFFFFFFFFF AND DUP2 MSTORE PUSH1 0x20 ADD SWAP1 DUP2 MSTORE PUSH1 0x20 ADD PUSH1 0x0 KECCAK256 PUSH1 0x0 SWAP1 SLOAD SWAP1 PUSH2 0x100 EXP SWAP1 DIV PUSH1 0xFF AND DUP1 ISZERO PUSH2 0x1728 JUMPI POP PUSH1 0x0 PUSH20 0xFFFFFFFFFFFFFFFFFFFFFFFFFFFFFFFFFFFFFFFF AND PUSH1 0x8 DUP3 DUP2 SLOAD DUP2 LT PUSH2 0x16E4 JUMPI PUSH2 0x16E3 PUSH2 0x2AB1 JUMP JUMPDEST JUMPDEST SWAP1 PUSH1 0x0 MSTORE PUSH1 0x20 PUSH1 0x0 KECCAK256 ADD PUSH1 0x0 SWAP1 SLOAD SWAP1 PUSH2 0x100 EXP SWAP1 DIV PUSH20 0xFFFFFFFFFFFFFFFFFFFFFFFFFFFFFFFFFFFFFFFF AND PUSH20 0xFFFFFFFFFFFFFFFFFFFFFFFFFFFFFFFFFFFFFFFF AND EQ ISZERO JUMPDEST ISZERO PUSH2 0x17C8 JUMPI PUSH1 0x8 DUP2 DUP2 SLOAD DUP2 LT PUSH2 0x1741 JUMPI PUSH2 0x1740 PUSH2 0x2AB1 JUMP JUMPDEST JUMPDEST SWAP1 PUSH1 0x0 MSTORE PUSH1 0x20 PUSH1 0x0 KECCAK256 ADD PUSH1 0x0 SWAP1 SLOAD SWAP1 PUSH2 0x100 EXP SWAP1 DIV PUSH20 0xFFFFFFFFFFFFFFFFFFFFFFFFFFFFFFFFFFFFFFFF AND DUP4 DUP4 DUP2 MLOAD DUP2 LT PUSH2 0x177F JUMPI PUSH2 0x177E PUSH2 0x2AB1 JUMP JUMPDEST JUMPDEST PUSH1 0x20 MUL PUSH1 0x20 ADD ADD SWAP1 PUSH20 0xFFFFFFFFFFFFFFFFFFFFFFFFFFFFFFFFFFFFFFFF AND SWAP1 DUP2 PUSH20 0xFFFFFFFFFFFFFFFFFFFFFFFFFFFFFFFFFFFFFFFF AND DUP2 MSTORE POP POP DUP2 DUP1 PUSH2 0x17C4 SWAP1 PUSH2 0x29DB JUMP JUMPDEST SWAP3 POP POP JUMPDEST DUP1 DUP1 PUSH2 0x17D3 SWAP1 PUSH2 0x29DB JUMP JUMPDEST SWAP2 POP POP PUSH2 0x1619 JUMP JUMPDEST POP DUP2 SWAP3 POP POP POP SWAP1 JUMP JUMPDEST PUSH1 0x6 PUSH1 0x0 SWAP1 SLOAD SWAP1 PUSH2 0x100 EXP SWAP1 DIV PUSH20 0xFFFFFFFFFFFFFFFFFFFFFFFFFFFFFFFFFFFFFFFF AND PUSH20 0xFFFFFFFFFFFFFFFFFFFFFFFFFFFFFFFFFFFFFFFF AND PUSH4 0x91D14854 PUSH32 0xDF8B4C520FFE197C5343C6F5AEC59570151EF9A492F2C624FD45DDDE6135EC42 CALLER PUSH1 0x40 MLOAD DUP4 PUSH4 0xFFFFFFFF AND PUSH1 0xE0 SHL DUP2 MSTORE PUSH1 0x4 ADD PUSH2 0x1861 SWAP3 SWAP2 SWAP1 PUSH2 0x246F JUMP JUMPDEST PUSH1 0x20 PUSH1 0x40 MLOAD DUP1 DUP4 SUB DUP2 DUP7 DUP1 EXTCODESIZE ISZERO DUP1 ISZERO PUSH2 0x1879 JUMPI PUSH1 0x0 DUP1 REVERT JUMPDEST POP GAS STATICCALL ISZERO DUP1 ISZERO PUSH2 0x188D JUMPI RETURNDATASIZE PUSH1 0x0 DUP1 RETURNDATACOPY RETURNDATASIZE PUSH1 0x0 REVERT JUMPDEST POP POP POP POP PUSH1 0x40 MLOAD RETURNDATASIZE PUSH1 0x1F NOT PUSH1 0x1F DUP3 ADD AND DUP3 ADD DUP1 PUSH1 0x40 MSTORE POP DUP2 ADD SWAP1 PUSH2 0x18B1 SWAP2 SWAP1 PUSH2 0x1F3C JUMP JUMPDEST PUSH2 0x18F0 JUMPI PUSH1 0x40 MLOAD PUSH32 0x8C379A000000000000000000000000000000000000000000000000000000000 DUP2 MSTORE PUSH1 0x4 ADD PUSH2 0x18E7 SWAP1 PUSH2 0x2510 JUMP JUMPDEST PUSH1 0x40 MLOAD DUP1 SWAP2 SUB SWAP1 REVERT JUMPDEST PUSH1 0xB PUSH1 0x0 DUP3 PUSH20 0xFFFFFFFFFFFFFFFFFFFFFFFFFFFFFFFFFFFFFFFF AND PUSH20 0xFFFFFFFFFFFFFFFFFFFFFFFFFFFFFFFFFFFFFFFF AND DUP2 MSTORE PUSH1 0x20 ADD SWAP1 DUP2 MSTORE PUSH1 0x20 ADD PUSH1 0x0 KECCAK256 PUSH1 0x0 SWAP1 SLOAD SWAP1 PUSH2 0x100 EXP SWAP1 DIV PUSH1 0xFF AND ISZERO PUSH2 0x197D JUMPI PUSH1 0x40 MLOAD PUSH32 0x8C379A000000000000000000000000000000000000000000000000000000000 DUP2 MSTORE PUSH1 0x4 ADD PUSH2 0x1974 SWAP1 PUSH2 0x2570 JUMP JUMPDEST PUSH1 0x40 MLOAD DUP1 SWAP2 SUB SWAP1 REVERT JUMPDEST PUSH1 0x1 PUSH1 0xC PUSH1 0x0 CALLER PUSH20 0xFFFFFFFFFFFFFFFFFFFFFFFFFFFFFFFFFFFFFFFF AND PUSH20 0xFFFFFFFFFFFFFFFFFFFFFFFFFFFFFFFFFFFFFFFF AND DUP2 MSTORE PUSH1 0x20 ADD SWAP1 DUP2 MSTORE PUSH1 0x20 ADD PUSH1 0x0 KECCAK256 PUSH1 0x0 PUSH2 0x100 EXP DUP2 SLOAD DUP2 PUSH1 0xFF MUL NOT AND SWAP1 DUP4 ISZERO ISZERO MUL OR SWAP1 SSTORE POP PUSH32 0x34F914F46F0A40EB0E7B1396063B87A1819F28ED7B5A63829D59F41EBA61A1AE DUP2 TIMESTAMP PUSH1 0x1 PUSH1 0x40 MLOAD PUSH2 0x1A09 SWAP4 SWAP3 SWAP2 SWAP1 PUSH2 0x23FB JUMP JUMPDEST PUSH1 0x40 MLOAD DUP1 SWAP2 SUB SWAP1 LOG1 POP JUMP JUMPDEST PUSH2 0x1A97 DUP5 PUSH4 0x23B872DD PUSH1 0xE0 SHL DUP6 DUP6 DUP6 PUSH1 0x40 MLOAD PUSH1 0x24 ADD PUSH2 0x1A35 SWAP4 SWAP3 SWAP2 SWAP1 PUSH2 0x23C4 JUMP JUMPDEST PUSH1 0x40 MLOAD PUSH1 0x20 DUP2 DUP4 SUB SUB DUP2 MSTORE SWAP1 PUSH1 0x40 MSTORE SWAP1 PUSH28 0xFFFFFFFFFFFFFFFFFFFFFFFFFFFFFFFFFFFFFFFFFFFFFFFFFFFFFFFF NOT AND PUSH1 0x20 DUP3 ADD DUP1 MLOAD PUSH28 0xFFFFFFFFFFFFFFFFFFFFFFFFFFFFFFFFFFFFFFFFFFFFFFFFFFFFFFFF DUP4 DUP2 DUP4 AND OR DUP4 MSTORE POP POP POP POP PUSH2 0x1A9D JUMP JUMPDEST POP POP POP POP JUMP JUMPDEST PUSH1 0x0 PUSH2 0x1AFF DUP3 PUSH1 0x40 MLOAD DUP1 PUSH1 0x40 ADD PUSH1 0x40 MSTORE DUP1 PUSH1 0x20 DUP2 MSTORE PUSH1 0x20 ADD PUSH32 0x5361666545524332303A206C6F772D6C6576656C2063616C6C206661696C6564 DUP2 MSTORE POP DUP6 PUSH20 0xFFFFFFFFFFFFFFFFFFFFFFFFFFFFFFFFFFFFFFFF AND PUSH2 0x1B64 SWAP1 SWAP3 SWAP2 SWAP1 PUSH4 0xFFFFFFFF AND JUMP JUMPDEST SWAP1 POP PUSH1 0x0 DUP2 MLOAD GT ISZERO PUSH2 0x1B5F JUMPI DUP1 DUP1 PUSH1 0x20 ADD SWAP1 MLOAD DUP2 ADD SWAP1 PUSH2 0x1B1F SWAP2 SWAP1 PUSH2 0x1F3C JUMP JUMPDEST PUSH2 0x1B5E JUMPI PUSH1 0x40 MLOAD PUSH32 0x8C379A000000000000000000000000000000000000000000000000000000000 DUP2 MSTORE PUSH1 0x4 ADD PUSH2 0x1B55 SWAP1 PUSH2 0x2690 JUMP JUMPDEST PUSH1 0x40 MLOAD DUP1 SWAP2 SUB SWAP1 REVERT JUMPDEST JUMPDEST POP POP POP JUMP JUMPDEST PUSH1 0x60 PUSH2 0x1B73 DUP5 DUP5 PUSH1 0x0 DUP6 PUSH2 0x1B7C JUMP JUMPDEST SWAP1 POP SWAP4 SWAP3 POP POP POP JUMP JUMPDEST PUSH1 0x60 DUP3 SELFBALANCE LT ISZERO PUSH2 0x1BC1 JUMPI PUSH1 0x40 MLOAD PUSH32 0x8C379A000000000000000000000000000000000000000000000000000000000 DUP2 MSTORE PUSH1 0x4 ADD PUSH2 0x1BB8 SWAP1 PUSH2 0x25D0 JUMP JUMPDEST PUSH1 0x40 MLOAD DUP1 SWAP2 SUB SWAP1 REVERT JUMPDEST PUSH2 0x1BCA DUP6 PUSH2 0x1C90 JUMP JUMPDEST PUSH2 0x1C09 JUMPI PUSH1 0x40 MLOAD PUSH32 0x8C379A000000000000000000000000000000000000000000000000000000000 DUP2 MSTORE PUSH1 0x4 ADD PUSH2 0x1C00 SWAP1 PUSH2 0x2650 JUMP JUMPDEST PUSH1 0x40 MLOAD DUP1 SWAP2 SUB SWAP1 REVERT JUMPDEST PUSH1 0x0 DUP1 DUP7 PUSH20 0xFFFFFFFFFFFFFFFFFFFFFFFFFFFFFFFFFFFFFFFF AND DUP6 DUP8 PUSH1 0x40 MLOAD PUSH2 0x1C32 SWAP2 SWAP1 PUSH2 0x2392 JUMP JUMPDEST PUSH1 0x0 PUSH1 0x40 MLOAD DUP1 DUP4 SUB DUP2 DUP6 DUP8 GAS CALL SWAP3 POP POP POP RETURNDATASIZE DUP1 PUSH1 0x0 DUP2 EQ PUSH2 0x1C6F JUMPI PUSH1 0x40 MLOAD SWAP2 POP PUSH1 0x1F NOT PUSH1 0x3F RETURNDATASIZE ADD AND DUP3 ADD PUSH1 0x40 MSTORE RETURNDATASIZE DUP3 MSTORE RETURNDATASIZE PUSH1 0x0 PUSH1 0x20 DUP5 ADD RETURNDATACOPY PUSH2 0x1C74 JUMP JUMPDEST PUSH1 0x60 SWAP2 POP JUMPDEST POP SWAP2 POP SWAP2 POP PUSH2 0x1C84 DUP3 DUP3 DUP7 PUSH2 0x1CB3 JUMP JUMPDEST SWAP3 POP POP POP SWAP5 SWAP4 POP POP POP POP JUMP JUMPDEST PUSH1 0x0 DUP1 DUP3 PUSH20 0xFFFFFFFFFFFFFFFFFFFFFFFFFFFFFFFFFFFFFFFF AND EXTCODESIZE GT SWAP1 POP SWAP2 SWAP1 POP JUMP JUMPDEST PUSH1 0x60 DUP4 ISZERO PUSH2 0x1CC3 JUMPI DUP3 SWAP1 POP PUSH2 0x1D13 JUMP JUMPDEST PUSH1 0x0 DUP4 MLOAD GT ISZERO PUSH2 0x1CD6 JUMPI DUP3 MLOAD DUP1 DUP5 PUSH1 0x20 ADD REVERT JUMPDEST DUP2 PUSH1 0x40 MLOAD PUSH32 0x8C379A000000000000000000000000000000000000000000000000000000000 DUP2 MSTORE PUSH1 0x4 ADD PUSH2 0x1D0A SWAP2 SWAP1 PUSH2 0x24CE JUMP JUMPDEST PUSH1 0x40 MLOAD DUP1 SWAP2 SUB SWAP1 REVERT JUMPDEST SWAP4 SWAP3 POP POP POP JUMP JUMPDEST DUP3 DUP1 SLOAD PUSH2 0x1D26 SWAP1 PUSH2 0x2978 JUMP JUMPDEST SWAP1 PUSH1 0x0 MSTORE PUSH1 0x20 PUSH1 0x0 KECCAK256 SWAP1 PUSH1 0x1F ADD PUSH1 0x20 SWAP1 DIV DUP2 ADD SWAP3 DUP3 PUSH2 0x1D48 JUMPI PUSH1 0x0 DUP6 SSTORE PUSH2 0x1D8F JUMP JUMPDEST DUP3 PUSH1 0x1F LT PUSH2 0x1D61 JUMPI DUP1 MLOAD PUSH1 0xFF NOT AND DUP4 DUP1 ADD OR DUP6 SSTORE PUSH2 0x1D8F JUMP JUMPDEST DUP3 DUP1 ADD PUSH1 0x1 ADD DUP6 SSTORE DUP3 ISZERO PUSH2 0x1D8F JUMPI SWAP2 DUP3 ADD JUMPDEST DUP3 DUP2 GT ISZERO PUSH2 0x1D8E JUMPI DUP3 MLOAD DUP3 SSTORE SWAP2 PUSH1 0x20 ADD SWAP2 SWAP1 PUSH1 0x1 ADD SWAP1 PUSH2 0x1D73 JUMP JUMPDEST JUMPDEST POP SWAP1 POP PUSH2 0x1D9C SWAP2 SWAP1 PUSH2 0x1DA0 JUMP JUMPDEST POP SWAP1 JUMP JUMPDEST JUMPDEST DUP1 DUP3 GT ISZERO PUSH2 0x1DB9 JUMPI PUSH1 0x0 DUP2 PUSH1 0x0 SWAP1 SSTORE POP PUSH1 0x1 ADD PUSH2 0x1DA1 JUMP JUMPDEST POP SWAP1 JUMP JUMPDEST PUSH1 0x0 PUSH2 0x1DD0 PUSH2 0x1DCB DUP5 PUSH2 0x276A JUMP JUMPDEST PUSH2 0x2745 JUMP JUMPDEST SWAP1 POP DUP3 DUP2 MSTORE PUSH1 0x20 DUP2 ADD DUP5 DUP5 DUP5 ADD GT ISZERO PUSH2 0x1DEC JUMPI PUSH2 0x1DEB PUSH2 0x2B1E JUMP JUMPDEST JUMPDEST PUSH2 0x1DF7 DUP5 DUP3 DUP6 PUSH2 0x290C JUMP JUMPDEST POP SWAP4 SWAP3 POP POP POP JUMP JUMPDEST PUSH1 0x0 DUP2 CALLDATALOAD SWAP1 POP PUSH2 0x1E0E DUP2 PUSH2 0x2E3F JUMP JUMPDEST SWAP3 SWAP2 POP POP JUMP JUMPDEST PUSH1 0x0 DUP1 DUP4 PUSH1 0x1F DUP5 ADD SLT PUSH2 0x1E2A JUMPI PUSH2 0x1E29 PUSH2 0x2B14 JUMP JUMPDEST JUMPDEST DUP3 CALLDATALOAD SWAP1 POP PUSH8 0xFFFFFFFFFFFFFFFF DUP2 GT ISZERO PUSH2 0x1E47 JUMPI PUSH2 0x1E46 PUSH2 0x2B0F JUMP JUMPDEST JUMPDEST PUSH1 0x20 DUP4 ADD SWAP2 POP DUP4 PUSH1 0x20 DUP3 MUL DUP4 ADD GT ISZERO PUSH2 0x1E63 JUMPI PUSH2 0x1E62 PUSH2 0x2B19 JUMP JUMPDEST JUMPDEST SWAP3 POP SWAP3 SWAP1 POP JUMP JUMPDEST PUSH1 0x0 DUP2 MLOAD SWAP1 POP PUSH2 0x1E79 DUP2 PUSH2 0x2E56 JUMP JUMPDEST SWAP3 SWAP2 POP POP JUMP JUMPDEST PUSH1 0x0 DUP3 PUSH1 0x1F DUP4 ADD SLT PUSH2 0x1E94 JUMPI PUSH2 0x1E93 PUSH2 0x2B14 JUMP JUMPDEST JUMPDEST DUP2 CALLDATALOAD PUSH2 0x1EA4 DUP5 DUP3 PUSH1 0x20 DUP7 ADD PUSH2 0x1DBD JUMP JUMPDEST SWAP2 POP POP SWAP3 SWAP2 POP POP JUMP JUMPDEST PUSH1 0x0 DUP2 CALLDATALOAD SWAP1 POP PUSH2 0x1EBC DUP2 PUSH2 0x2E6D JUMP JUMPDEST SWAP3 SWAP2 POP POP JUMP JUMPDEST PUSH1 0x0 PUSH1 0x20 DUP3 DUP5 SUB SLT ISZERO PUSH2 0x1ED8 JUMPI PUSH2 0x1ED7 PUSH2 0x2B28 JUMP JUMPDEST JUMPDEST PUSH1 0x0 PUSH2 0x1EE6 DUP5 DUP3 DUP6 ADD PUSH2 0x1DFF JUMP JUMPDEST SWAP2 POP POP SWAP3 SWAP2 POP POP JUMP JUMPDEST PUSH1 0x0 DUP1 PUSH1 0x20 DUP4 DUP6 SUB SLT ISZERO PUSH2 0x1F06 JUMPI PUSH2 0x1F05 PUSH2 0x2B28 JUMP JUMPDEST JUMPDEST PUSH1 0x0 DUP4 ADD CALLDATALOAD PUSH8 0xFFFFFFFFFFFFFFFF DUP2 GT ISZERO PUSH2 0x1F24 JUMPI PUSH2 0x1F23 PUSH2 0x2B23 JUMP JUMPDEST JUMPDEST PUSH2 0x1F30 DUP6 DUP3 DUP7 ADD PUSH2 0x1E14 JUMP JUMPDEST SWAP3 POP SWAP3 POP POP SWAP3 POP SWAP3 SWAP1 POP JUMP JUMPDEST PUSH1 0x0 PUSH1 0x20 DUP3 DUP5 SUB SLT ISZERO PUSH2 0x1F52 JUMPI PUSH2 0x1F51 PUSH2 0x2B28 JUMP JUMPDEST JUMPDEST PUSH1 0x0 PUSH2 0x1F60 DUP5 DUP3 DUP6 ADD PUSH2 0x1E6A JUMP JUMPDEST SWAP2 POP POP SWAP3 SWAP2 POP POP JUMP JUMPDEST PUSH1 0x0 PUSH1 0x20 DUP3 DUP5 SUB SLT ISZERO PUSH2 0x1F7F JUMPI PUSH2 0x1F7E PUSH2 0x2B28 JUMP JUMPDEST JUMPDEST PUSH1 0x0 PUSH2 0x1F8D DUP5 DUP3 DUP6 ADD PUSH2 0x1EAD JUMP JUMPDEST SWAP2 POP POP SWAP3 SWAP2 POP POP JUMP JUMPDEST PUSH1 0x0 DUP1 PUSH1 0x0 DUP1 PUSH1 0x0 PUSH1 0xA0 DUP7 DUP9 SUB SLT ISZERO PUSH2 0x1FB2 JUMPI PUSH2 0x1FB1 PUSH2 0x2B28 JUMP JUMPDEST JUMPDEST PUSH1 0x0 PUSH2 0x1FC0 DUP9 DUP3 DUP10 ADD PUSH2 0x1EAD JUMP JUMPDEST SWAP6 POP POP PUSH1 0x20 DUP7 ADD CALLDATALOAD PUSH8 0xFFFFFFFFFFFFFFFF DUP2 GT ISZERO PUSH2 0x1FE1 JUMPI PUSH2 0x1FE0 PUSH2 0x2B23 JUMP JUMPDEST JUMPDEST PUSH2 0x1FED DUP9 DUP3 DUP10 ADD PUSH2 0x1E7F JUMP JUMPDEST SWAP5 POP POP PUSH1 0x40 PUSH2 0x1FFE DUP9 DUP3 DUP10 ADD PUSH2 0x1EAD JUMP JUMPDEST SWAP4 POP POP PUSH1 0x60 PUSH2 0x200F DUP9 DUP3 DUP10 ADD PUSH2 0x1EAD JUMP JUMPDEST SWAP3 POP POP PUSH1 0x80 PUSH2 0x2020 DUP9 DUP3 DUP10 ADD PUSH2 0x1EAD JUMP JUMPDEST SWAP2 POP POP SWAP3 SWAP6 POP SWAP3 SWAP6 SWAP1 SWAP4 POP JUMP JUMPDEST PUSH1 0x0 PUSH2 0x2039 DUP4 DUP4 PUSH2 0x2045 JUMP JUMPDEST PUSH1 0x20 DUP4 ADD SWAP1 POP SWAP3 SWAP2 POP POP JUMP JUMPDEST PUSH2 0x204E DUP2 PUSH2 0x283A JUMP JUMPDEST DUP3 MSTORE POP POP JUMP JUMPDEST PUSH2 0x205D DUP2 PUSH2 0x283A JUMP JUMPDEST DUP3 MSTORE POP POP JUMP JUMPDEST PUSH1 0x0 PUSH2 0x206E DUP3 PUSH2 0x27AB JUMP JUMPDEST PUSH2 0x2078 DUP2 DUP6 PUSH2 0x27D9 JUMP JUMPDEST SWAP4 POP PUSH2 0x2083 DUP4 PUSH2 0x279B JUMP JUMPDEST DUP1 PUSH1 0x0 JUMPDEST DUP4 DUP2 LT ISZERO PUSH2 0x20B4 JUMPI DUP2 MLOAD PUSH2 0x209B DUP9 DUP3 PUSH2 0x202D JUMP JUMPDEST SWAP8 POP PUSH2 0x20A6 DUP4 PUSH2 0x27CC JUMP JUMPDEST SWAP3 POP POP PUSH1 0x1 DUP2 ADD SWAP1 POP PUSH2 0x2087 JUMP JUMPDEST POP DUP6 SWAP4 POP POP POP POP SWAP3 SWAP2 POP POP JUMP JUMPDEST PUSH2 0x20CA DUP2 PUSH2 0x284C JUMP JUMPDEST DUP3 MSTORE POP POP JUMP JUMPDEST PUSH2 0x20D9 DUP2 PUSH2 0x2858 JUMP JUMPDEST DUP3 MSTORE POP POP JUMP JUMPDEST PUSH1 0x0 PUSH2 0x20EA DUP3 PUSH2 0x27B6 JUMP JUMPDEST PUSH2 0x20F4 DUP2 DUP6 PUSH2 0x27EA JUMP JUMPDEST SWAP4 POP PUSH2 0x2104 DUP2 DUP6 PUSH1 0x20 DUP7 ADD PUSH2 0x291B JUMP JUMPDEST DUP1 DUP5 ADD SWAP2 POP POP SWAP3 SWAP2 POP POP JUMP JUMPDEST PUSH2 0x2119 DUP2 PUSH2 0x28B2 JUMP JUMPDEST DUP3 MSTORE POP POP JUMP JUMPDEST PUSH2 0x2128 DUP2 PUSH2 0x28C4 JUMP JUMPDEST DUP3 MSTORE POP POP JUMP JUMPDEST PUSH2 0x2137 DUP2 PUSH2 0x28D6 JUMP JUMPDEST DUP3 MSTORE POP POP JUMP JUMPDEST PUSH1 0x0 PUSH2 0x2148 DUP3 PUSH2 0x27C1 JUMP JUMPDEST PUSH2 0x2152 DUP2 DUP6 PUSH2 0x27F5 JUMP JUMPDEST SWAP4 POP PUSH2 0x2162 DUP2 DUP6 PUSH1 0x20 DUP7 ADD PUSH2 0x291B JUMP JUMPDEST PUSH2 0x216B DUP2 PUSH2 0x2B2D JUMP JUMPDEST DUP5 ADD SWAP2 POP POP SWAP3 SWAP2 POP POP JUMP JUMPDEST PUSH1 0x0 PUSH2 0x2183 PUSH1 0x5 DUP4 PUSH2 0x27F5 JUMP JUMPDEST SWAP2 POP PUSH2 0x218E DUP3 PUSH2 0x2B3E JUMP JUMPDEST PUSH1 0x20 DUP3 ADD SWAP1 POP SWAP2 SWAP1 POP JUMP JUMPDEST PUSH1 0x0 PUSH2 0x21A6 PUSH1 0x11 DUP4 PUSH2 0x27F5 JUMP JUMPDEST SWAP2 POP PUSH2 0x21B1 DUP3 PUSH2 0x2B67 JUMP JUMPDEST PUSH1 0x20 DUP3 ADD SWAP1 POP SWAP2 SWAP1 POP JUMP JUMPDEST PUSH1 0x0 PUSH2 0x21C9 PUSH1 0x11 DUP4 PUSH2 0x27F5 JUMP JUMPDEST SWAP2 POP PUSH2 0x21D4 DUP3 PUSH2 0x2B90 JUMP JUMPDEST PUSH1 0x20 DUP3 ADD SWAP1 POP SWAP2 SWAP1 POP JUMP JUMPDEST PUSH1 0x0 PUSH2 0x21EC PUSH1 0x14 DUP4 PUSH2 0x27F5 JUMP JUMPDEST SWAP2 POP PUSH2 0x21F7 DUP3 PUSH2 0x2BB9 JUMP JUMPDEST PUSH1 0x20 DUP3 ADD SWAP1 POP SWAP2 SWAP1 POP JUMP JUMPDEST PUSH1 0x0 PUSH2 0x220F PUSH1 0x18 DUP4 PUSH2 0x27F5 JUMP JUMPDEST SWAP2 POP PUSH2 0x221A DUP3 PUSH2 0x2BE2 JUMP JUMPDEST PUSH1 0x20 DUP3 ADD SWAP1 POP SWAP2 SWAP1 POP JUMP JUMPDEST PUSH1 0x0 PUSH2 0x2232 PUSH1 0x10 DUP4 PUSH2 0x27F5 JUMP JUMPDEST SWAP2 POP PUSH2 0x223D DUP3 PUSH2 0x2C0B JUMP JUMPDEST PUSH1 0x20 DUP3 ADD SWAP1 POP SWAP2 SWAP1 POP JUMP JUMPDEST PUSH1 0x0 PUSH2 0x2255 PUSH1 0xD DUP4 PUSH2 0x27F5 JUMP JUMPDEST SWAP2 POP PUSH2 0x2260 DUP3 PUSH2 0x2C34 JUMP JUMPDEST PUSH1 0x20 DUP3 ADD SWAP1 POP SWAP2 SWAP1 POP JUMP JUMPDEST PUSH1 0x0 PUSH2 0x2278 PUSH1 0x26 DUP4 PUSH2 0x27F5 JUMP JUMPDEST SWAP2 POP PUSH2 0x2283 DUP3 PUSH2 0x2C5D JUMP JUMPDEST PUSH1 0x40 DUP3 ADD SWAP1 POP SWAP2 SWAP1 POP JUMP JUMPDEST PUSH1 0x0 PUSH2 0x229B PUSH1 0x13 DUP4 PUSH2 0x27F5 JUMP JUMPDEST SWAP2 POP PUSH2 0x22A6 DUP3 PUSH2 0x2CAC JUMP JUMPDEST PUSH1 0x20 DUP3 ADD SWAP1 POP SWAP2 SWAP1 POP JUMP JUMPDEST PUSH1 0x0 PUSH2 0x22BE PUSH1 0x17 DUP4 PUSH2 0x27F5 JUMP JUMPDEST SWAP2 POP PUSH2 0x22C9 DUP3 PUSH2 0x2CD5 JUMP JUMPDEST PUSH1 0x20 DUP3 ADD SWAP1 POP SWAP2 SWAP1 POP JUMP JUMPDEST PUSH1 0x0 PUSH2 0x22E1 PUSH1 0xD DUP4 PUSH2 0x27F5 JUMP JUMPDEST SWAP2 POP PUSH2 0x22EC DUP3 PUSH2 0x2CFE JUMP JUMPDEST PUSH1 0x20 DUP3 ADD SWAP1 POP SWAP2 SWAP1 POP JUMP JUMPDEST PUSH1 0x0 PUSH2 0x2304 PUSH1 0x1D DUP4 PUSH2 0x27F5 JUMP JUMPDEST SWAP2 POP PUSH2 0x230F DUP3 PUSH2 0x2D27 JUMP JUMPDEST PUSH1 0x20 DUP3 ADD SWAP1 POP SWAP2 SWAP1 POP JUMP JUMPDEST PUSH1 0x0 PUSH2 0x2327 PUSH1 0x22 DUP4 PUSH2 0x27F5 JUMP JUMPDEST SWAP2 POP PUSH2 0x2332 DUP3 PUSH2 0x2D50 JUMP JUMPDEST PUSH1 0x40 DUP3 ADD SWAP1 POP SWAP2 SWAP1 POP JUMP JUMPDEST PUSH1 0x0 PUSH2 0x234A PUSH1 0x2A DUP4 PUSH2 0x27F5 JUMP JUMPDEST SWAP2 POP PUSH2 0x2355 DUP3 PUSH2 0x2D9F JUMP JUMPDEST PUSH1 0x40 DUP3 ADD SWAP1 POP SWAP2 SWAP1 POP JUMP JUMPDEST PUSH1 0x0 PUSH2 0x236D PUSH1 0xA DUP4 PUSH2 0x27F5 JUMP JUMPDEST SWAP2 POP PUSH2 0x2378 DUP3 PUSH2 0x2DEE JUMP JUMPDEST PUSH1 0x20 DUP3 ADD SWAP1 POP SWAP2 SWAP1 POP JUMP JUMPDEST PUSH2 0x238C DUP2 PUSH2 0x28A8 JUMP JUMPDEST DUP3 MSTORE POP POP JUMP JUMPDEST PUSH1 0x0 PUSH2 0x239E DUP3 DUP5 PUSH2 0x20DF JUMP JUMPDEST SWAP2 POP DUP2 SWAP1 POP SWAP3 SWAP2 POP POP JUMP JUMPDEST PUSH1 0x0 PUSH1 0x20 DUP3 ADD SWAP1 POP PUSH2 0x23BE PUSH1 0x0 DUP4 ADD DUP5 PUSH2 0x2054 JUMP JUMPDEST SWAP3 SWAP2 POP POP JUMP JUMPDEST PUSH1 0x0 PUSH1 0x60 DUP3 ADD SWAP1 POP PUSH2 0x23D9 PUSH1 0x0 DUP4 ADD DUP7 PUSH2 0x2054 JUMP JUMPDEST PUSH2 0x23E6 PUSH1 0x20 DUP4 ADD DUP6 PUSH2 0x2054 JUMP JUMPDEST PUSH2 0x23F3 PUSH1 0x40 DUP4 ADD DUP5 PUSH2 0x2383 JUMP JUMPDEST SWAP5 SWAP4 POP POP POP POP JUMP JUMPDEST PUSH1 0x0 PUSH1 0x60 DUP3 ADD SWAP1 POP PUSH2 0x2410 PUSH1 0x0 DUP4 ADD DUP7 PUSH2 0x2054 JUMP JUMPDEST PUSH2 0x241D PUSH1 0x20 DUP4 ADD DUP6 PUSH2 0x2383 JUMP JUMPDEST PUSH2 0x242A PUSH1 0x40 DUP4 ADD DUP5 PUSH2 0x211F JUMP JUMPDEST SWAP5 SWAP4 POP POP POP POP JUMP JUMPDEST PUSH1 0x0 PUSH1 0x20 DUP3 ADD SWAP1 POP DUP2 DUP2 SUB PUSH1 0x0 DUP4 ADD MSTORE PUSH2 0x244C DUP2 DUP5 PUSH2 0x2063 JUMP JUMPDEST SWAP1 POP SWAP3 SWAP2 POP POP JUMP JUMPDEST PUSH1 0x0 PUSH1 0x20 DUP3 ADD SWAP1 POP PUSH2 0x2469 PUSH1 0x0 DUP4 ADD DUP5 PUSH2 0x20C1 JUMP JUMPDEST SWAP3 SWAP2 POP POP JUMP JUMPDEST PUSH1 0x0 PUSH1 0x40 DUP3 ADD SWAP1 POP PUSH2 0x2484 PUSH1 0x0 DUP4 ADD DUP6 PUSH2 0x20D0 JUMP JUMPDEST PUSH2 0x2491 PUSH1 0x20 DUP4 ADD DUP5 PUSH2 0x2054 JUMP JUMPDEST SWAP4 SWAP3 POP POP POP JUMP JUMPDEST PUSH1 0x0 PUSH1 0x20 DUP3 ADD SWAP1 POP PUSH2 0x24AD PUSH1 0x0 DUP4 ADD DUP5 PUSH2 0x2110 JUMP JUMPDEST SWAP3 SWAP2 POP POP JUMP JUMPDEST PUSH1 0x0 PUSH1 0x20 DUP3 ADD SWAP1 POP PUSH2 0x24C8 PUSH1 0x0 DUP4 ADD DUP5 PUSH2 0x212E JUMP JUMPDEST SWAP3 SWAP2 POP POP JUMP JUMPDEST PUSH1 0x0 PUSH1 0x20 DUP3 ADD SWAP1 POP DUP2 DUP2 SUB PUSH1 0x0 DUP4 ADD MSTORE PUSH2 0x24E8 DUP2 DUP5 PUSH2 0x213D JUMP JUMPDEST SWAP1 POP SWAP3 SWAP2 POP POP JUMP JUMPDEST PUSH1 0x0 PUSH1 0x20 DUP3 ADD SWAP1 POP DUP2 DUP2 SUB PUSH1 0x0 DUP4 ADD MSTORE PUSH2 0x2509 DUP2 PUSH2 0x2176 JUMP JUMPDEST SWAP1 POP SWAP2 SWAP1 POP JUMP JUMPDEST PUSH1 0x0 PUSH1 0x20 DUP3 ADD SWAP1 POP DUP2 DUP2 SUB PUSH1 0x0 DUP4 ADD MSTORE PUSH2 0x2529 DUP2 PUSH2 0x2199 JUMP JUMPDEST SWAP1 POP SWAP2 SWAP1 POP JUMP JUMPDEST PUSH1 0x0 PUSH1 0x20 DUP3 ADD SWAP1 POP DUP2 DUP2 SUB PUSH1 0x0 DUP4 ADD MSTORE PUSH2 0x2549 DUP2 PUSH2 0x21BC JUMP JUMPDEST SWAP1 POP SWAP2 SWAP1 POP JUMP JUMPDEST PUSH1 0x0 PUSH1 0x20 DUP3 ADD SWAP1 POP DUP2 DUP2 SUB PUSH1 0x0 DUP4 ADD MSTORE PUSH2 0x2569 DUP2 PUSH2 0x21DF JUMP JUMPDEST SWAP1 POP SWAP2 SWAP1 POP JUMP JUMPDEST PUSH1 0x0 PUSH1 0x20 DUP3 ADD SWAP1 POP DUP2 DUP2 SUB PUSH1 0x0 DUP4 ADD MSTORE PUSH2 0x2589 DUP2 PUSH2 0x2202 JUMP JUMPDEST SWAP1 POP SWAP2 SWAP1 POP JUMP JUMPDEST PUSH1 0x0 PUSH1 0x20 DUP3 ADD SWAP1 POP DUP2 DUP2 SUB PUSH1 0x0 DUP4 ADD MSTORE PUSH2 0x25A9 DUP2 PUSH2 0x2225 JUMP JUMPDEST SWAP1 POP SWAP2 SWAP1 POP JUMP JUMPDEST PUSH1 0x0 PUSH1 0x20 DUP3 ADD SWAP1 POP DUP2 DUP2 SUB PUSH1 0x0 DUP4 ADD MSTORE PUSH2 0x25C9 DUP2 PUSH2 0x2248 JUMP JUMPDEST SWAP1 POP SWAP2 SWAP1 POP JUMP JUMPDEST PUSH1 0x0 PUSH1 0x20 DUP3 ADD SWAP1 POP DUP2 DUP2 SUB PUSH1 0x0 DUP4 ADD MSTORE PUSH2 0x25E9 DUP2 PUSH2 0x226B JUMP JUMPDEST SWAP1 POP SWAP2 SWAP1 POP JUMP JUMPDEST PUSH1 0x0 PUSH1 0x20 DUP3 ADD SWAP1 POP DUP2 DUP2 SUB PUSH1 0x0 DUP4 ADD MSTORE PUSH2 0x2609 DUP2 PUSH2 0x228E JUMP JUMPDEST SWAP1 POP SWAP2 SWAP1 POP JUMP JUMPDEST PUSH1 0x0 PUSH1 0x20 DUP3 ADD SWAP1 POP DUP2 DUP2 SUB PUSH1 0x0 DUP4 ADD MSTORE PUSH2 0x2629 DUP2 PUSH2 0x22B1 JUMP JUMPDEST SWAP1 POP SWAP2 SWAP1 POP JUMP JUMPDEST PUSH1 0x0 PUSH1 0x20 DUP3 ADD SWAP1 POP DUP2 DUP2 SUB PUSH1 0x0 DUP4 ADD MSTORE PUSH2 0x2649 DUP2 PUSH2 0x22D4 JUMP JUMPDEST SWAP1 POP SWAP2 SWAP1 POP JUMP JUMPDEST PUSH1 0x0 PUSH1 0x20 DUP3 ADD SWAP1 POP DUP2 DUP2 SUB PUSH1 0x0 DUP4 ADD MSTORE PUSH2 0x2669 DUP2 PUSH2 0x22F7 JUMP JUMPDEST SWAP1 POP SWAP2 SWAP1 POP JUMP JUMPDEST PUSH1 0x0 PUSH1 0x20 DUP3 ADD SWAP1 POP DUP2 DUP2 SUB PUSH1 0x0 DUP4 ADD MSTORE PUSH2 0x2689 DUP2 PUSH2 0x231A JUMP JUMPDEST SWAP1 POP SWAP2 SWAP1 POP JUMP JUMPDEST PUSH1 0x0 PUSH1 0x20 DUP3 ADD SWAP1 POP DUP2 DUP2 SUB PUSH1 0x0 DUP4 ADD MSTORE PUSH2 0x26A9 DUP2 PUSH2 0x233D JUMP JUMPDEST SWAP1 POP SWAP2 SWAP1 POP JUMP JUMPDEST PUSH1 0x0 PUSH1 0x20 DUP3 ADD SWAP1 POP DUP2 DUP2 SUB PUSH1 0x0 DUP4 ADD MSTORE PUSH2 0x26C9 DUP2 PUSH2 0x2360 JUMP JUMPDEST SWAP1 POP SWAP2 SWAP1 POP JUMP JUMPDEST PUSH1 0x0 PUSH1 0x20 DUP3 ADD SWAP1 POP PUSH2 0x26E5 PUSH1 0x0 DUP4 ADD DUP5 PUSH2 0x2383 JUMP JUMPDEST SWAP3 SWAP2 POP POP JUMP JUMPDEST PUSH1 0x0 PUSH1 0xA0 DUP3 ADD SWAP1 POP PUSH2 0x2700 PUSH1 0x0 DUP4 ADD DUP9 PUSH2 0x2383 JUMP JUMPDEST DUP2 DUP2 SUB PUSH1 0x20 DUP4 ADD MSTORE PUSH2 0x2712 DUP2 DUP8 PUSH2 0x213D JUMP JUMPDEST SWAP1 POP PUSH2 0x2721 PUSH1 0x40 DUP4 ADD DUP7 PUSH2 0x2383 JUMP JUMPDEST PUSH2 0x272E PUSH1 0x60 DUP4 ADD DUP6 PUSH2 0x2383 JUMP JUMPDEST PUSH2 0x273B PUSH1 0x80 DUP4 ADD DUP5 PUSH2 0x2383 JUMP JUMPDEST SWAP7 SWAP6 POP POP POP POP POP POP JUMP JUMPDEST PUSH1 0x0 PUSH2 0x274F PUSH2 0x2760 JUMP JUMPDEST SWAP1 POP PUSH2 0x275B DUP3 DUP3 PUSH2 0x29AA JUMP JUMPDEST SWAP2 SWAP1 POP JUMP JUMPDEST PUSH1 0x0 PUSH1 0x40 MLOAD SWAP1 POP SWAP1 JUMP JUMPDEST PUSH1 0x0 PUSH8 0xFFFFFFFFFFFFFFFF DUP3 GT ISZERO PUSH2 0x2785 JUMPI PUSH2 0x2784 PUSH2 0x2AE0 JUMP JUMPDEST JUMPDEST PUSH2 0x278E DUP3 PUSH2 0x2B2D JUMP JUMPDEST SWAP1 POP PUSH1 0x20 DUP2 ADD SWAP1 POP SWAP2 SWAP1 POP JUMP JUMPDEST PUSH1 0x0 DUP2 SWAP1 POP PUSH1 0x20 DUP3 ADD SWAP1 POP SWAP2 SWAP1 POP JUMP JUMPDEST PUSH1 0x0 DUP2 MLOAD SWAP1 POP SWAP2 SWAP1 POP JUMP JUMPDEST PUSH1 0x0 DUP2 MLOAD SWAP1 POP SWAP2 SWAP1 POP JUMP JUMPDEST PUSH1 0x0 DUP2 MLOAD SWAP1 POP SWAP2 SWAP1 POP JUMP JUMPDEST PUSH1 0x0 PUSH1 0x20 DUP3 ADD SWAP1 POP SWAP2 SWAP1 POP JUMP JUMPDEST PUSH1 0x0 DUP3 DUP3 MSTORE PUSH1 0x20 DUP3 ADD SWAP1 POP SWAP3 SWAP2 POP POP JUMP JUMPDEST PUSH1 0x0 DUP2 SWAP1 POP SWAP3 SWAP2 POP POP JUMP JUMPDEST PUSH1 0x0 DUP3 DUP3 MSTORE PUSH1 0x20 DUP3 ADD SWAP1 POP SWAP3 SWAP2 POP POP JUMP JUMPDEST PUSH1 0x0 PUSH2 0x2811 DUP3 PUSH2 0x28A8 JUMP JUMPDEST SWAP2 POP PUSH2 0x281C DUP4 PUSH2 0x28A8 JUMP JUMPDEST SWAP3 POP DUP3 DUP3 LT ISZERO PUSH2 0x282F JUMPI PUSH2 0x282E PUSH2 0x2A24 JUMP JUMPDEST JUMPDEST DUP3 DUP3 SUB SWAP1 POP SWAP3 SWAP2 POP POP JUMP JUMPDEST PUSH1 0x0 PUSH2 0x2845 DUP3 PUSH2 0x2888 JUMP JUMPDEST SWAP1 POP SWAP2 SWAP1 POP JUMP JUMPDEST PUSH1 0x0 DUP2 ISZERO ISZERO SWAP1 POP SWAP2 SWAP1 POP JUMP JUMPDEST PUSH1 0x0 DUP2 SWAP1 POP SWAP2 SWAP1 POP JUMP JUMPDEST PUSH1 0x0 DUP2 SWAP1 POP PUSH2 0x2870 DUP3 PUSH2 0x2E17 JUMP JUMPDEST SWAP2 SWAP1 POP JUMP JUMPDEST PUSH1 0x0 DUP2 SWAP1 POP PUSH2 0x2883 DUP3 PUSH2 0x2E2B JUMP JUMPDEST SWAP2 SWAP1 POP JUMP JUMPDEST PUSH1 0x0 PUSH20 0xFFFFFFFFFFFFFFFFFFFFFFFFFFFFFFFFFFFFFFFF DUP3 AND SWAP1 POP SWAP2 SWAP1 POP JUMP JUMPDEST PUSH1 0x0 DUP2 SWAP1 POP SWAP2 SWAP1 POP JUMP JUMPDEST PUSH1 0x0 PUSH2 0x28BD DUP3 PUSH2 0x28E8 JUMP JUMPDEST SWAP1 POP SWAP2 SWAP1 POP JUMP JUMPDEST PUSH1 0x0 PUSH2 0x28CF DUP3 PUSH2 0x2862 JUMP JUMPDEST SWAP1 POP SWAP2 SWAP1 POP JUMP JUMPDEST PUSH1 0x0 PUSH2 0x28E1 DUP3 PUSH2 0x2875 JUMP JUMPDEST SWAP1 POP SWAP2 SWAP1 POP JUMP JUMPDEST PUSH1 0x0 PUSH2 0x28F3 DUP3 PUSH2 0x28FA JUMP JUMPDEST SWAP1 POP SWAP2 SWAP1 POP JUMP JUMPDEST PUSH1 0x0 PUSH2 0x2905 DUP3 PUSH2 0x2888 JUMP JUMPDEST SWAP1 POP SWAP2 SWAP1 POP JUMP JUMPDEST DUP3 DUP2 DUP4 CALLDATACOPY PUSH1 0x0 DUP4 DUP4 ADD MSTORE POP POP POP JUMP JUMPDEST PUSH1 0x0 JUMPDEST DUP4 DUP2 LT ISZERO PUSH2 0x2939 JUMPI DUP1 DUP3 ADD MLOAD DUP2 DUP5 ADD MSTORE PUSH1 0x20 DUP2 ADD SWAP1 POP PUSH2 0x291E JUMP JUMPDEST DUP4 DUP2 GT ISZERO PUSH2 0x2948 JUMPI PUSH1 0x0 DUP5 DUP5 ADD MSTORE JUMPDEST POP POP POP POP JUMP JUMPDEST PUSH1 0x0 PUSH2 0x2959 DUP3 PUSH2 0x28A8 JUMP JUMPDEST SWAP2 POP PUSH1 0x0 DUP3 EQ ISZERO PUSH2 0x296D JUMPI PUSH2 0x296C PUSH2 0x2A24 JUMP JUMPDEST JUMPDEST PUSH1 0x1 DUP3 SUB SWAP1 POP SWAP2 SWAP1 POP JUMP JUMPDEST PUSH1 0x0 PUSH1 0x2 DUP3 DIV SWAP1 POP PUSH1 0x1 DUP3 AND DUP1 PUSH2 0x2990 JUMPI PUSH1 0x7F DUP3 AND SWAP2 POP JUMPDEST PUSH1 0x20 DUP3 LT DUP2 EQ ISZERO PUSH2 0x29A4 JUMPI PUSH2 0x29A3 PUSH2 0x2A82 JUMP JUMPDEST JUMPDEST POP SWAP2 SWAP1 POP JUMP JUMPDEST PUSH2 0x29B3 DUP3 PUSH2 0x2B2D JUMP JUMPDEST DUP2 ADD DUP2 DUP2 LT PUSH8 0xFFFFFFFFFFFFFFFF DUP3 GT OR ISZERO PUSH2 0x29D2 JUMPI PUSH2 0x29D1 PUSH2 0x2AE0 JUMP JUMPDEST JUMPDEST DUP1 PUSH1 0x40 MSTORE POP POP POP JUMP JUMPDEST PUSH1 0x0 PUSH2 0x29E6 DUP3 PUSH2 0x28A8 JUMP JUMPDEST SWAP2 POP PUSH32 0xFFFFFFFFFFFFFFFFFFFFFFFFFFFFFFFFFFFFFFFFFFFFFFFFFFFFFFFFFFFFFFFF DUP3 EQ ISZERO PUSH2 0x2A19 JUMPI PUSH2 0x2A18 PUSH2 0x2A24 JUMP JUMPDEST JUMPDEST PUSH1 0x1 DUP3 ADD SWAP1 POP SWAP2 SWAP1 POP JUMP JUMPDEST PUSH32 0x4E487B7100000000000000000000000000000000000000000000000000000000 PUSH1 0x0 MSTORE PUSH1 0x11 PUSH1 0x4 MSTORE PUSH1 0x24 PUSH1 0x0 REVERT JUMPDEST PUSH32 0x4E487B7100000000000000000000000000000000000000000000000000000000 PUSH1 0x0 MSTORE PUSH1 0x21 PUSH1 0x4 MSTORE PUSH1 0x24 PUSH1 0x0 REVERT JUMPDEST PUSH32 0x4E487B7100000000000000000000000000000000000000000000000000000000 PUSH1 0x0 MSTORE PUSH1 0x22 PUSH1 0x4 MSTORE PUSH1 0x24 PUSH1 0x0 REVERT JUMPDEST PUSH32 0x4E487B7100000000000000000000000000000000000000000000000000000000 PUSH1 0x0 MSTORE PUSH1 0x32 PUSH1 0x4 MSTORE PUSH1 0x24 PUSH1 0x0 REVERT JUMPDEST PUSH32 0x4E487B7100000000000000000000000000000000000000000000000000000000 PUSH1 0x0 MSTORE PUSH1 0x41 PUSH1 0x4 MSTORE PUSH1 0x24 PUSH1 0x0 REVERT JUMPDEST PUSH1 0x0 DUP1 REVERT JUMPDEST PUSH1 0x0 DUP1 REVERT JUMPDEST PUSH1 0x0 DUP1 REVERT JUMPDEST PUSH1 0x0 DUP1 REVERT JUMPDEST PUSH1 0x0 DUP1 REVERT JUMPDEST PUSH1 0x0 DUP1 REVERT JUMPDEST PUSH1 0x0 PUSH1 0x1F NOT PUSH1 0x1F DUP4 ADD AND SWAP1 POP SWAP2 SWAP1 POP JUMP JUMPDEST PUSH32 0x4164646564000000000000000000000000000000000000000000000000000000 PUSH1 0x0 DUP3 ADD MSTORE POP JUMP JUMPDEST PUSH32 0x4D433A204F6E6C79204C65637475726572000000000000000000000000000000 PUSH1 0x0 DUP3 ADD MSTORE POP JUMP JUMPDEST PUSH32 0x4572726F72207768656E2072656D6F7665000000000000000000000000000000 PUSH1 0x0 DUP3 ADD MSTORE POP JUMP JUMPDEST PUSH32 0x54433A20596F7520706169642074756974696F6E000000000000000000000000 PUSH1 0x0 DUP3 ADD MSTORE POP JUMP JUMPDEST PUSH32 0x54433A2053747564656E7420706169642074756974696F6E0000000000000000 PUSH1 0x0 DUP3 ADD MSTORE POP JUMP JUMPDEST PUSH32 0x4D433A204F6E6C792053747564656E7400000000000000000000000000000000 PUSH1 0x0 DUP3 ADD MSTORE POP JUMP JUMPDEST PUSH32 0x4D433A204F6E6C79204F70656E00000000000000000000000000000000000000 PUSH1 0x0 DUP3 ADD MSTORE POP JUMP JUMPDEST PUSH32 0x416464726573733A20696E73756666696369656E742062616C616E636520666F PUSH1 0x0 DUP3 ADD MSTORE PUSH32 0x722063616C6C0000000000000000000000000000000000000000000000000000 PUSH1 0x20 DUP3 ADD MSTORE POP JUMP JUMPDEST PUSH32 0x4D433A2054696D6520697320696E76616C696400000000000000000000000000 PUSH1 0x0 DUP3 ADD MSTORE POP JUMP JUMPDEST PUSH32 0x53686F756C64206F6E6C79206164642073747564656E74000000000000000000 PUSH1 0x0 DUP3 ADD MSTORE POP JUMP JUMPDEST PUSH32 0x4D433A204F6E6C79204C6F636B00000000000000000000000000000000000000 PUSH1 0x0 DUP3 ADD MSTORE POP JUMP JUMPDEST PUSH32 0x416464726573733A2063616C6C20746F206E6F6E2D636F6E7472616374000000 PUSH1 0x0 DUP3 ADD MSTORE POP JUMP JUMPDEST PUSH32 0x4D433A2041776172642073686F756C642067726561746572207468616E205A65 PUSH1 0x0 DUP3 ADD MSTORE PUSH32 0x726F000000000000000000000000000000000000000000000000000000000000 PUSH1 0x20 DUP3 ADD MSTORE POP JUMP JUMPDEST PUSH32 0x5361666545524332303A204552433230206F7065726174696F6E20646964206E PUSH1 0x0 DUP3 ADD MSTORE PUSH32 0x6F74207375636365656400000000000000000000000000000000000000000000 PUSH1 0x20 DUP3 ADD MSTORE POP JUMP JUMPDEST PUSH32 0x4F6E6C79204F776E657200000000000000000000000000000000000000000000 PUSH1 0x0 DUP3 ADD MSTORE POP JUMP JUMPDEST PUSH1 0x2 DUP2 LT PUSH2 0x2E28 JUMPI PUSH2 0x2E27 PUSH2 0x2A53 JUMP JUMPDEST JUMPDEST POP JUMP JUMPDEST PUSH1 0x3 DUP2 LT PUSH2 0x2E3C JUMPI PUSH2 0x2E3B PUSH2 0x2A53 JUMP JUMPDEST JUMPDEST POP JUMP JUMPDEST PUSH2 0x2E48 DUP2 PUSH2 0x283A JUMP JUMPDEST DUP2 EQ PUSH2 0x2E53 JUMPI PUSH1 0x0 DUP1 REVERT JUMPDEST POP JUMP JUMPDEST PUSH2 0x2E5F DUP2 PUSH2 0x284C JUMP JUMPDEST DUP2 EQ PUSH2 0x2E6A JUMPI PUSH1 0x0 DUP1 REVERT JUMPDEST POP JUMP JUMPDEST PUSH2 0x2E76 DUP2 PUSH2 0x28A8 JUMP JUMPDEST DUP2 EQ PUSH2 0x2E81 JUMPI PUSH1 0x0 DUP1 REVERT JUMPDEST POP JUMP INVALID LOG2 PUSH5 0x6970667358 0x22 SLT KECCAK256 0xCB 0x4F CALLDATACOPY POP 0x2C 0x2C 0xE 0xE0 PUSH26 0x7BAA0C1D6AA9FE9B479C32D25DC8A5688E09B3FFE69B4F64736F PUSH13 0x63430008070033000000000000 "
				},
				"gasEstimates": {
					"creation": {
						"codeDepositCost": "2392400",
						"executionCost": "infinite",
						"totalCost": "infinite"
					},
					"external": {
						"UITToken()": "2654",
						"accessControll()": "2667",
						"addStudentToTuition(address[])": "infinite",
						"amount()": "2518",
						"close()": "infinite",
						"completedAddress(address)": "2956",
						"getParticipantList()": "infinite",
						"getParticipantListCompleted()": "infinite",
						"owner()": "infinite",
						"participantToIndex(address)": "2880",
						"participantToTrue(address)": "2867",
						"participants(uint256)": "5068",
						"paymentByCurrency(address)": "infinite",
						"paymentByToken()": "infinite",
						"removeStudentFromTuition(address)": "infinite",
						"rewardDistributor()": "2625",
						"setBasicForTuition(uint256,string,uint256,uint256,uint256)": "infinite",
						"start()": "infinite",
						"status()": "2628",
						"tuition()": "infinite"
					}
				},
				"methodIdentifiers": {
					"UITToken()": "2fe7a96d",
					"accessControll()": "aa4936ce",
					"addStudentToTuition(address[])": "04227ab8",
					"amount()": "aa8c217c",
					"close()": "43d726d6",
					"completedAddress(address)": "a32fb342",
					"getParticipantList()": "ed214fff",
					"getParticipantListCompleted()": "a7f44e0d",
					"owner()": "8da5cb5b",
					"participantToIndex(address)": "d95fe6a0",
					"participantToTrue(address)": "b1319f41",
					"participants(uint256)": "35c1d349",
					"paymentByCurrency(address)": "f1d0d198",
					"paymentByToken()": "633d8390",
					"removeStudentFromTuition(address)": "727cb110",
					"rewardDistributor()": "acc2166a",
					"setBasicForTuition(uint256,string,uint256,uint256,uint256)": "08003d6b",
					"start()": "be9a6555",
					"status()": "200d2ed2",
					"tuition()": "a8a86c10"
				}
			},
			"userdoc": {
				"kind": "user",
				"methods": {},
				"version": 1
			}
		}
	}
}