{
	"contracts/studentmanager/MangerPool.sol": {
		"ManagerPool": {
			"abi": [
				{
					"inputs": [
						{
							"internalType": "address",
							"name": "_factory",
							"type": "address"
						},
						{
							"internalType": "address",
							"name": "_accessControll",
							"type": "address"
						},
						{
							"internalType": "address",
							"name": "_rewardDistributor",
							"type": "address"
						}
					],
					"stateMutability": "nonpayable",
					"type": "constructor"
				},
				{
					"anonymous": false,
					"inputs": [
						{
							"indexed": true,
							"internalType": "address",
							"name": "previousOwner",
							"type": "address"
						},
						{
							"indexed": true,
							"internalType": "address",
							"name": "newOwner",
							"type": "address"
						}
					],
					"name": "OwnershipTransferred",
					"type": "event"
				},
				{
					"inputs": [],
					"name": "accessControll",
					"outputs": [
						{
							"internalType": "contract IAccessControl",
							"name": "",
							"type": "address"
						}
					],
					"stateMutability": "view",
					"type": "function"
				},
				{
					"inputs": [
						{
							"internalType": "address",
							"name": "lecturerAddr",
							"type": "address"
						},
						{
							"internalType": "string",
							"name": "hashInfo",
							"type": "string"
						}
					],
					"name": "addLecturerInfo",
					"outputs": [],
					"stateMutability": "nonpayable",
					"type": "function"
				},
				{
					"inputs": [
						{
							"internalType": "string",
							"name": "hashInfo",
							"type": "string"
						}
					],
					"name": "addStudentInfo",
					"outputs": [],
					"stateMutability": "nonpayable",
					"type": "function"
				},
				{
					"inputs": [
						{
							"internalType": "address",
							"name": "pool",
							"type": "address"
						}
					],
					"name": "close",
					"outputs": [],
					"stateMutability": "nonpayable",
					"type": "function"
				},
				{
					"inputs": [
						{
							"internalType": "string",
							"name": "_urlMetadata",
							"type": "string"
						},
						{
							"internalType": "uint256",
							"name": "_award",
							"type": "uint256"
						},
						{
							"internalType": "uint256",
							"name": "_maxEntrant",
							"type": "uint256"
						},
						{
							"internalType": "address",
							"name": "_persionInCharge",
							"type": "address"
						},
						{
							"internalType": "uint256",
							"name": "_startTime",
							"type": "uint256"
						},
						{
							"internalType": "uint256",
							"name": "_endTimeToRegister",
							"type": "uint256"
						},
						{
							"internalType": "uint256",
							"name": "_endTime",
							"type": "uint256"
						},
						{
							"internalType": "uint256",
							"name": "_endTimeToConfirm",
							"type": "uint256"
						}
					],
					"name": "createNewMission",
					"outputs": [],
					"stateMutability": "nonpayable",
					"type": "function"
				},
				{
					"inputs": [
						{
							"internalType": "string",
							"name": "_urlMetadata",
							"type": "string"
						},
						{
							"internalType": "uint256",
							"name": "_award",
							"type": "uint256"
						},
						{
							"internalType": "uint256",
							"name": "_startTime",
							"type": "uint256"
						},
						{
							"internalType": "uint256",
							"name": "_endTime",
							"type": "uint256"
						}
					],
					"name": "createNewScholarship",
					"outputs": [],
					"stateMutability": "nonpayable",
					"type": "function"
				},
				{
					"inputs": [
						{
							"internalType": "string",
							"name": "_urlMetadata",
							"type": "string"
						},
						{
							"internalType": "uint256",
							"name": "_maxEntrant",
							"type": "uint256"
						},
						{
							"internalType": "address",
							"name": "_persionInCharge",
							"type": "address"
						},
						{
							"internalType": "uint256",
							"name": "_startTime",
							"type": "uint256"
						},
						{
							"internalType": "uint256",
							"name": "_endTimeToRegister",
							"type": "uint256"
						},
						{
							"internalType": "uint256",
							"name": "_endTime",
							"type": "uint256"
						},
						{
							"internalType": "uint256",
							"name": "_endTimeToConfirm",
							"type": "uint256"
						}
					],
					"name": "createNewSubject",
					"outputs": [],
					"stateMutability": "nonpayable",
					"type": "function"
				},
				{
					"inputs": [
						{
							"internalType": "string",
							"name": "_urlMetadata",
							"type": "string"
						},
						{
							"internalType": "uint256",
							"name": "_feeByToken",
							"type": "uint256"
						},
						{
							"internalType": "uint256",
							"name": "_startTime",
							"type": "uint256"
						},
						{
							"internalType": "uint256",
							"name": "_endTime",
							"type": "uint256"
						}
					],
					"name": "createNewTuition",
					"outputs": [],
					"stateMutability": "nonpayable",
					"type": "function"
				},
				{
					"inputs": [
						{
							"internalType": "address",
							"name": "",
							"type": "address"
						}
					],
					"name": "existed",
					"outputs": [
						{
							"internalType": "bool",
							"name": "",
							"type": "bool"
						}
					],
					"stateMutability": "view",
					"type": "function"
				},
				{
					"inputs": [],
					"name": "factory",
					"outputs": [
						{
							"internalType": "contract IFactory",
							"name": "",
							"type": "address"
						}
					],
					"stateMutability": "view",
					"type": "function"
				},
				{
					"inputs": [],
					"name": "idCountMission",
					"outputs": [
						{
							"internalType": "uint256",
							"name": "_value",
							"type": "uint256"
						}
					],
					"stateMutability": "view",
					"type": "function"
				},
				{
					"inputs": [],
					"name": "idCountScholarship",
					"outputs": [
						{
							"internalType": "uint256",
							"name": "_value",
							"type": "uint256"
						}
					],
					"stateMutability": "view",
					"type": "function"
				},
				{
					"inputs": [],
					"name": "idCountSubject",
					"outputs": [
						{
							"internalType": "uint256",
							"name": "_value",
							"type": "uint256"
						}
					],
					"stateMutability": "view",
					"type": "function"
				},
				{
					"inputs": [],
					"name": "idCountTuition",
					"outputs": [
						{
							"internalType": "uint256",
							"name": "_value",
							"type": "uint256"
						}
					],
					"stateMutability": "view",
					"type": "function"
				},
				{
					"inputs": [
						{
							"internalType": "address",
							"name": "",
							"type": "address"
						}
					],
					"name": "lecturerInfo",
					"outputs": [
						{
							"internalType": "string",
							"name": "",
							"type": "string"
						}
					],
					"stateMutability": "view",
					"type": "function"
				},
				{
					"inputs": [],
					"name": "owner",
					"outputs": [
						{
							"internalType": "address",
							"name": "",
							"type": "address"
						}
					],
					"stateMutability": "view",
					"type": "function"
				},
				{
					"inputs": [
						{
							"internalType": "uint256",
							"name": "",
							"type": "uint256"
						}
					],
					"name": "pools",
					"outputs": [
						{
							"internalType": "address",
							"name": "objectAddress",
							"type": "address"
						},
						{
							"internalType": "enum ManagerPool.Type",
							"name": "tipe",
							"type": "uint8"
						}
					],
					"stateMutability": "view",
					"type": "function"
				},
				{
					"inputs": [],
					"name": "renounceOwnership",
					"outputs": [],
					"stateMutability": "nonpayable",
					"type": "function"
				},
				{
					"inputs": [],
					"name": "rewardDistributor",
					"outputs": [
						{
							"internalType": "contract IRewardDistributor",
							"name": "",
							"type": "address"
						}
					],
					"stateMutability": "view",
					"type": "function"
				},
				{
					"inputs": [
						{
							"internalType": "address",
							"name": "_factory",
							"type": "address"
						}
					],
					"name": "setFactory",
					"outputs": [],
					"stateMutability": "nonpayable",
					"type": "function"
				},
				{
					"inputs": [
						{
							"internalType": "address",
							"name": "",
							"type": "address"
						}
					],
					"name": "studentInfo",
					"outputs": [
						{
							"internalType": "string",
							"name": "",
							"type": "string"
						}
					],
					"stateMutability": "view",
					"type": "function"
				},
				{
					"inputs": [
						{
							"internalType": "address",
							"name": "newOwner",
							"type": "address"
						}
					],
					"name": "transferOwnership",
					"outputs": [],
					"stateMutability": "nonpayable",
					"type": "function"
				}
			],
			"devdoc": {
				"kind": "dev",
				"methods": {
					"owner()": {
						"details": "Returns the address of the current owner."
					},
					"renounceOwnership()": {
						"details": "Leaves the contract without owner. It will not be possible to call `onlyOwner` functions anymore. Can only be called by the current owner. NOTE: Renouncing ownership will leave the contract without an owner, thereby removing any functionality that is only available to the owner."
					},
					"transferOwnership(address)": {
						"details": "Transfers ownership of the contract to a new account (`newOwner`). Can only be called by the current owner."
					}
				},
				"version": 1
			},
			"evm": {
				"assembly": "    /* \"contracts/studentmanager/MangerPool.sol\":533:6794  contract ManagerPool is Ownable {\r... */\n  mstore(0x40, 0x80)\n    /* \"contracts/studentmanager/MangerPool.sol\":1287:1579  constructor(\r... */\n  callvalue\n  dup1\n  iszero\n  tag_1\n  jumpi\n  0x00\n  dup1\n  revert\ntag_1:\n  pop\n  mload(0x40)\n  sub(codesize, bytecodeSize)\n  dup1\n  bytecodeSize\n  dup4\n  codecopy\n  dup2\n  dup2\n  add\n  0x40\n  mstore\n  dup2\n  add\n  swap1\n  tag_2\n  swap2\n  swap1\n  tag_3\n  jump\t// in\ntag_2:\n    /* \"@openzeppelin/contracts/access/Ownable.sol\":921:953  _transferOwnership(_msgSender()) */\n  tag_7\n    /* \"@openzeppelin/contracts/access/Ownable.sol\":940:952  _msgSender() */\n  tag_8\n    /* \"@openzeppelin/contracts/access/Ownable.sol\":940:950  _msgSender */\n  shl(0x20, tag_9)\n    /* \"@openzeppelin/contracts/access/Ownable.sol\":940:952  _msgSender() */\n  0x20\n  shr\n  jump\t// in\ntag_8:\n    /* \"@openzeppelin/contracts/access/Ownable.sol\":921:939  _transferOwnership */\n  shl(0x20, tag_10)\n    /* \"@openzeppelin/contracts/access/Ownable.sol\":921:953  _transferOwnership(_msgSender()) */\n  0x20\n  shr\n  jump\t// in\ntag_7:\n    /* \"contracts/studentmanager/MangerPool.sol\":1434:1442  _factory */\n  dup3\n    /* \"contracts/studentmanager/MangerPool.sol\":1415:1422  factory */\n  0x01\n  0x00\n    /* \"contracts/studentmanager/MangerPool.sol\":1415:1443  factory = IFactory(_factory) */\n  0x0100\n  exp\n  dup2\n  sload\n  dup2\n  0xffffffffffffffffffffffffffffffffffffffff\n  mul\n  not\n  and\n  swap1\n  dup4\n  0xffffffffffffffffffffffffffffffffffffffff\n  and\n  mul\n  or\n  swap1\n  sstore\n  pop\n    /* \"contracts/studentmanager/MangerPool.sol\":1486:1501  _accessControll */\n  dup2\n    /* \"contracts/studentmanager/MangerPool.sol\":1454:1468  accessControll */\n  0x02\n  0x00\n    /* \"contracts/studentmanager/MangerPool.sol\":1454:1502  accessControll = IAccessControl(_accessControll) */\n  0x0100\n  exp\n  dup2\n  sload\n  dup2\n  0xffffffffffffffffffffffffffffffffffffffff\n  mul\n  not\n  and\n  swap1\n  dup4\n  0xffffffffffffffffffffffffffffffffffffffff\n  and\n  mul\n  or\n  swap1\n  sstore\n  pop\n    /* \"contracts/studentmanager/MangerPool.sol\":1552:1570  _rewardDistributor */\n  dup1\n    /* \"contracts/studentmanager/MangerPool.sol\":1513:1530  rewardDistributor */\n  0x03\n  0x00\n    /* \"contracts/studentmanager/MangerPool.sol\":1513:1571  rewardDistributor = IRewardDistributor(_rewardDistributor) */\n  0x0100\n  exp\n  dup2\n  sload\n  dup2\n  0xffffffffffffffffffffffffffffffffffffffff\n  mul\n  not\n  and\n  swap1\n  dup4\n  0xffffffffffffffffffffffffffffffffffffffff\n  and\n  mul\n  or\n  swap1\n  sstore\n  pop\n    /* \"contracts/studentmanager/MangerPool.sol\":1287:1579  constructor(\r... */\n  pop\n  pop\n  pop\n    /* \"contracts/studentmanager/MangerPool.sol\":533:6794  contract ManagerPool is Ownable {\r... */\n  jump(tag_12)\n    /* \"@openzeppelin/contracts/utils/Context.sol\":640:736  function _msgSender() internal view virtual returns (address) {... */\ntag_9:\n    /* \"@openzeppelin/contracts/utils/Context.sol\":693:700  address */\n  0x00\n    /* \"@openzeppelin/contracts/utils/Context.sol\":719:729  msg.sender */\n  caller\n    /* \"@openzeppelin/contracts/utils/Context.sol\":712:729  return msg.sender */\n  swap1\n  pop\n    /* \"@openzeppelin/contracts/utils/Context.sol\":640:736  function _msgSender() internal view virtual returns (address) {... */\n  swap1\n  jump\t// out\n    /* \"@openzeppelin/contracts/access/Ownable.sol\":2270:2457  function _transferOwnership(address newOwner) internal virtual {... */\ntag_10:\n    /* \"@openzeppelin/contracts/access/Ownable.sol\":2343:2359  address oldOwner */\n  0x00\n    /* \"@openzeppelin/contracts/access/Ownable.sol\":2362:2368  _owner */\n  dup1\n  0x00\n  swap1\n  sload\n  swap1\n  0x0100\n  exp\n  swap1\n  div\n  0xffffffffffffffffffffffffffffffffffffffff\n  and\n    /* \"@openzeppelin/contracts/access/Ownable.sol\":2343:2368  address oldOwner = _owner */\n  swap1\n  pop\n    /* \"@openzeppelin/contracts/access/Ownable.sol\":2387:2395  newOwner */\n  dup2\n    /* \"@openzeppelin/contracts/access/Ownable.sol\":2378:2384  _owner */\n  0x00\n  dup1\n    /* \"@openzeppelin/contracts/access/Ownable.sol\":2378:2395  _owner = newOwner */\n  0x0100\n  exp\n  dup2\n  sload\n  dup2\n  0xffffffffffffffffffffffffffffffffffffffff\n  mul\n  not\n  and\n  swap1\n  dup4\n  0xffffffffffffffffffffffffffffffffffffffff\n  and\n  mul\n  or\n  swap1\n  sstore\n  pop\n    /* \"@openzeppelin/contracts/access/Ownable.sol\":2441:2449  newOwner */\n  dup2\n    /* \"@openzeppelin/contracts/access/Ownable.sol\":2410:2450  OwnershipTransferred(oldOwner, newOwner) */\n  0xffffffffffffffffffffffffffffffffffffffff\n  and\n    /* \"@openzeppelin/contracts/access/Ownable.sol\":2431:2439  oldOwner */\n  dup2\n    /* \"@openzeppelin/contracts/access/Ownable.sol\":2410:2450  OwnershipTransferred(oldOwner, newOwner) */\n  0xffffffffffffffffffffffffffffffffffffffff\n  and\n  0x8be0079c531659141344cd1fd0a4f28419497f9722a3daafe3b4186f6b6457e0\n  mload(0x40)\n  mload(0x40)\n  dup1\n  swap2\n  sub\n  swap1\n  log3\n    /* \"@openzeppelin/contracts/access/Ownable.sol\":2333:2457  {... */\n  pop\n    /* \"@openzeppelin/contracts/access/Ownable.sol\":2270:2457  function _transferOwnership(address newOwner) internal virtual {... */\n  pop\n  jump\t// out\n    /* \"#utility.yul\":7:150   */\ntag_16:\n    /* \"#utility.yul\":64:69   */\n  0x00\n    /* \"#utility.yul\":95:101   */\n  dup2\n    /* \"#utility.yul\":89:102   */\n  mload\n    /* \"#utility.yul\":80:102   */\n  swap1\n  pop\n    /* \"#utility.yul\":111:144   */\n  tag_18\n    /* \"#utility.yul\":138:143   */\n  dup2\n    /* \"#utility.yul\":111:144   */\n  tag_19\n  jump\t// in\ntag_18:\n    /* \"#utility.yul\":7:150   */\n  swap3\n  swap2\n  pop\n  pop\n  jump\t// out\n    /* \"#utility.yul\":156:819   */\ntag_3:\n    /* \"#utility.yul\":244:250   */\n  0x00\n    /* \"#utility.yul\":252:258   */\n  dup1\n    /* \"#utility.yul\":260:266   */\n  0x00\n    /* \"#utility.yul\":309:311   */\n  0x60\n    /* \"#utility.yul\":297:306   */\n  dup5\n    /* \"#utility.yul\":288:295   */\n  dup7\n    /* \"#utility.yul\":284:307   */\n  sub\n    /* \"#utility.yul\":280:312   */\n  slt\n    /* \"#utility.yul\":277:396   */\n  iszero\n  tag_21\n  jumpi\n    /* \"#utility.yul\":315:394   */\n  tag_22\n  tag_23\n  jump\t// in\ntag_22:\n    /* \"#utility.yul\":277:396   */\ntag_21:\n    /* \"#utility.yul\":435:436   */\n  0x00\n    /* \"#utility.yul\":460:524   */\n  tag_24\n    /* \"#utility.yul\":516:523   */\n  dup7\n    /* \"#utility.yul\":507:513   */\n  dup3\n    /* \"#utility.yul\":496:505   */\n  dup8\n    /* \"#utility.yul\":492:514   */\n  add\n    /* \"#utility.yul\":460:524   */\n  tag_16\n  jump\t// in\ntag_24:\n    /* \"#utility.yul\":450:524   */\n  swap4\n  pop\n    /* \"#utility.yul\":406:534   */\n  pop\n    /* \"#utility.yul\":573:575   */\n  0x20\n    /* \"#utility.yul\":599:663   */\n  tag_25\n    /* \"#utility.yul\":655:662   */\n  dup7\n    /* \"#utility.yul\":646:652   */\n  dup3\n    /* \"#utility.yul\":635:644   */\n  dup8\n    /* \"#utility.yul\":631:653   */\n  add\n    /* \"#utility.yul\":599:663   */\n  tag_16\n  jump\t// in\ntag_25:\n    /* \"#utility.yul\":589:663   */\n  swap3\n  pop\n    /* \"#utility.yul\":544:673   */\n  pop\n    /* \"#utility.yul\":712:714   */\n  0x40\n    /* \"#utility.yul\":738:802   */\n  tag_26\n    /* \"#utility.yul\":794:801   */\n  dup7\n    /* \"#utility.yul\":785:791   */\n  dup3\n    /* \"#utility.yul\":774:783   */\n  dup8\n    /* \"#utility.yul\":770:792   */\n  add\n    /* \"#utility.yul\":738:802   */\n  tag_16\n  jump\t// in\ntag_26:\n    /* \"#utility.yul\":728:802   */\n  swap2\n  pop\n    /* \"#utility.yul\":683:812   */\n  pop\n    /* \"#utility.yul\":156:819   */\n  swap3\n  pop\n  swap3\n  pop\n  swap3\n  jump\t// out\n    /* \"#utility.yul\":906:1002   */\ntag_29:\n    /* \"#utility.yul\":943:950   */\n  0x00\n    /* \"#utility.yul\":972:996   */\n  tag_31\n    /* \"#utility.yul\":990:995   */\n  dup3\n    /* \"#utility.yul\":972:996   */\n  tag_32\n  jump\t// in\ntag_31:\n    /* \"#utility.yul\":961:996   */\n  swap1\n  pop\n    /* \"#utility.yul\":906:1002   */\n  swap2\n  swap1\n  pop\n  jump\t// out\n    /* \"#utility.yul\":1008:1134   */\ntag_32:\n    /* \"#utility.yul\":1045:1052   */\n  0x00\n    /* \"#utility.yul\":1085:1127   */\n  0xffffffffffffffffffffffffffffffffffffffff\n    /* \"#utility.yul\":1078:1083   */\n  dup3\n    /* \"#utility.yul\":1074:1128   */\n  and\n    /* \"#utility.yul\":1063:1128   */\n  swap1\n  pop\n    /* \"#utility.yul\":1008:1134   */\n  swap2\n  swap1\n  pop\n  jump\t// out\n    /* \"#utility.yul\":1263:1380   */\ntag_23:\n    /* \"#utility.yul\":1372:1373   */\n  0x00\n    /* \"#utility.yul\":1369:1370   */\n  dup1\n    /* \"#utility.yul\":1362:1374   */\n  revert\n    /* \"#utility.yul\":1386:1508   */\ntag_19:\n    /* \"#utility.yul\":1459:1483   */\n  tag_38\n    /* \"#utility.yul\":1477:1482   */\n  dup2\n    /* \"#utility.yul\":1459:1483   */\n  tag_29\n  jump\t// in\ntag_38:\n    /* \"#utility.yul\":1452:1457   */\n  dup2\n    /* \"#utility.yul\":1449:1484   */\n  eq\n    /* \"#utility.yul\":1439:1502   */\n  tag_39\n  jumpi\n    /* \"#utility.yul\":1498:1499   */\n  0x00\n    /* \"#utility.yul\":1495:1496   */\n  dup1\n    /* \"#utility.yul\":1488:1500   */\n  revert\n    /* \"#utility.yul\":1439:1502   */\ntag_39:\n    /* \"#utility.yul\":1386:1508   */\n  pop\n  jump\t// out\n    /* \"contracts/studentmanager/MangerPool.sol\":533:6794  contract ManagerPool is Ownable {\r... */\ntag_12:\n  dataSize(sub_0)\n  dup1\n  dataOffset(sub_0)\n  0x00\n  codecopy\n  0x00\n  return\nstop\n\nsub_0: assembly {\n        /* \"contracts/studentmanager/MangerPool.sol\":533:6794  contract ManagerPool is Ownable {\r... */\n      mstore(0x40, 0x80)\n      callvalue\n      dup1\n      iszero\n      tag_1\n      jumpi\n      0x00\n      dup1\n      revert\n    tag_1:\n      pop\n      jumpi(tag_2, lt(calldatasize, 0x04))\n      shr(0xe0, calldataload(0x00))\n      dup1\n      0xac4afa38\n      gt\n      tag_25\n      jumpi\n      dup1\n      0xc5484bb2\n      gt\n      tag_26\n      jumpi\n      dup1\n      0xc5484bb2\n      eq\n      tag_19\n      jumpi\n      dup1\n      0xc74073a1\n      eq\n      tag_20\n      jumpi\n      dup1\n      0xd2a49de5\n      eq\n      tag_21\n      jumpi\n      dup1\n      0xdcff175a\n      eq\n      tag_22\n      jumpi\n      dup1\n      0xeb49ad47\n      eq\n      tag_23\n      jumpi\n      dup1\n      0xf2fde38b\n      eq\n      tag_24\n      jumpi\n      jump(tag_2)\n    tag_26:\n      dup1\n      0xac4afa38\n      eq\n      tag_14\n      jumpi\n      dup1\n      0xacc2166a\n      eq\n      tag_15\n      jumpi\n      dup1\n      0xb82df1fd\n      eq\n      tag_16\n      jumpi\n      dup1\n      0xc225fc38\n      eq\n      tag_17\n      jumpi\n      dup1\n      0xc45a0155\n      eq\n      tag_18\n      jumpi\n      jump(tag_2)\n    tag_25:\n      dup1\n      0x715018a6\n      gt\n      tag_27\n      jumpi\n      dup1\n      0x715018a6\n      eq\n      tag_8\n      jumpi\n      dup1\n      0x8c248ffd\n      eq\n      tag_9\n      jumpi\n      dup1\n      0x8c34aabb\n      eq\n      tag_10\n      jumpi\n      dup1\n      0x8da5cb5b\n      eq\n      tag_11\n      jumpi\n      dup1\n      0xaa4936ce\n      eq\n      tag_12\n      jumpi\n      dup1\n      0xab327098\n      eq\n      tag_13\n      jumpi\n      jump(tag_2)\n    tag_27:\n      dup1\n      0x1ee965f1\n      eq\n      tag_3\n      jumpi\n      dup1\n      0x3b7d8952\n      eq\n      tag_4\n      jumpi\n      dup1\n      0x3d847dda\n      eq\n      tag_5\n      jumpi\n      dup1\n      0x5bb47808\n      eq\n      tag_6\n      jumpi\n      dup1\n      0x682ef79f\n      eq\n      tag_7\n      jumpi\n    tag_2:\n      0x00\n      dup1\n      revert\n        /* \"contracts/studentmanager/MangerPool.sol\":994:1032  Counters.Counter public idCountMission */\n    tag_3:\n      tag_28\n      tag_29\n      jump\t// in\n    tag_28:\n      mload(0x40)\n      tag_30\n      swap2\n      swap1\n      tag_31\n      jump\t// in\n    tag_30:\n      mload(0x40)\n      dup1\n      swap2\n      sub\n      swap1\n      return\n        /* \"contracts/studentmanager/MangerPool.sol\":1084:1126  Counters.Counter public idCountScholarship */\n    tag_4:\n      tag_32\n      tag_33\n      jump\t// in\n    tag_32:\n      mload(0x40)\n      tag_34\n      swap2\n      swap1\n      tag_31\n      jump\t// in\n    tag_34:\n      mload(0x40)\n      dup1\n      swap2\n      sub\n      swap1\n      return\n        /* \"contracts/studentmanager/MangerPool.sol\":1180:1225  mapping(address => string) public studentInfo */\n    tag_5:\n      tag_35\n      0x04\n      dup1\n      calldatasize\n      sub\n      dup2\n      add\n      swap1\n      tag_36\n      swap2\n      swap1\n      tag_37\n      jump\t// in\n    tag_36:\n      tag_38\n      jump\t// in\n    tag_35:\n      mload(0x40)\n      tag_39\n      swap2\n      swap1\n      tag_40\n      jump\t// in\n    tag_39:\n      mload(0x40)\n      dup1\n      swap2\n      sub\n      swap1\n      return\n        /* \"contracts/studentmanager/MangerPool.sol\":1957:2059  function setFactory(address _factory) public onlyOwner {\r... */\n    tag_6:\n      tag_41\n      0x04\n      dup1\n      calldatasize\n      sub\n      dup2\n      add\n      swap1\n      tag_42\n      swap2\n      swap1\n      tag_37\n      jump\t// in\n    tag_42:\n      tag_43\n      jump\t// in\n    tag_41:\n      stop\n        /* \"contracts/studentmanager/MangerPool.sol\":2067:2191  function addStudentInfo(string memory hashInfo) public onlyRoleStudent {\r... */\n    tag_7:\n      tag_44\n      0x04\n      dup1\n      calldatasize\n      sub\n      dup2\n      add\n      swap1\n      tag_45\n      swap2\n      swap1\n      tag_46\n      jump\t// in\n    tag_45:\n      tag_47\n      jump\t// in\n    tag_44:\n      stop\n        /* \"@openzeppelin/contracts/access/Ownable.sol\":1668:1769  function renounceOwnership() public virtual onlyOwner {... */\n    tag_8:\n      tag_48\n      tag_49\n      jump\t// in\n    tag_48:\n      stop\n        /* \"contracts/studentmanager/MangerPool.sol\":1232:1278  mapping(address => string) public lecturerInfo */\n    tag_9:\n      tag_50\n      0x04\n      dup1\n      calldatasize\n      sub\n      dup2\n      add\n      swap1\n      tag_51\n      swap2\n      swap1\n      tag_37\n      jump\t// in\n    tag_51:\n      tag_52\n      jump\t// in\n    tag_50:\n      mload(0x40)\n      tag_53\n      swap2\n      swap1\n      tag_40\n      jump\t// in\n    tag_53:\n      mload(0x40)\n      dup1\n      swap2\n      sub\n      swap1\n      return\n        /* \"contracts/studentmanager/MangerPool.sol\":4650:5585  function createNewScholarship(\r... */\n    tag_10:\n      tag_54\n      0x04\n      dup1\n      calldatasize\n      sub\n      dup2\n      add\n      swap1\n      tag_55\n      swap2\n      swap1\n      tag_56\n      jump\t// in\n    tag_55:\n      tag_57\n      jump\t// in\n    tag_54:\n      stop\n        /* \"@openzeppelin/contracts/access/Ownable.sol\":1036:1121  function owner() public view virtual returns (address) {... */\n    tag_11:\n      tag_58\n      tag_59\n      jump\t// in\n    tag_58:\n      mload(0x40)\n      tag_60\n      swap2\n      swap1\n      tag_61\n      jump\t// in\n    tag_60:\n      mload(0x40)\n      dup1\n      swap2\n      sub\n      swap1\n      return\n        /* \"contracts/studentmanager/MangerPool.sol\":827:863  IAccessControl public accessControll */\n    tag_12:\n      tag_62\n      tag_63\n      jump\t// in\n    tag_62:\n      mload(0x40)\n      tag_64\n      swap2\n      swap1\n      tag_65\n      jump\t// in\n    tag_64:\n      mload(0x40)\n      dup1\n      swap2\n      sub\n      swap1\n      return\n        /* \"contracts/studentmanager/MangerPool.sol\":3517:4642  function createNewSubject(\r... */\n    tag_13:\n      tag_66\n      0x04\n      dup1\n      calldatasize\n      sub\n      dup2\n      add\n      swap1\n      tag_67\n      swap2\n      swap1\n      tag_68\n      jump\t// in\n    tag_67:\n      tag_69\n      jump\t// in\n    tag_66:\n      stop\n        /* \"contracts/studentmanager/MangerPool.sol\":920:941  Object[] public pools */\n    tag_14:\n      tag_70\n      0x04\n      dup1\n      calldatasize\n      sub\n      dup2\n      add\n      swap1\n      tag_71\n      swap2\n      swap1\n      tag_72\n      jump\t// in\n    tag_71:\n      tag_73\n      jump\t// in\n    tag_70:\n      mload(0x40)\n      tag_74\n      swap3\n      swap2\n      swap1\n      tag_75\n      jump\t// in\n    tag_74:\n      mload(0x40)\n      dup1\n      swap2\n      sub\n      swap1\n      return\n        /* \"contracts/studentmanager/MangerPool.sol\":870:913  IRewardDistributor public rewardDistributor */\n    tag_15:\n      tag_76\n      tag_77\n      jump\t// in\n    tag_76:\n      mload(0x40)\n      tag_78\n      swap2\n      swap1\n      tag_79\n      jump\t// in\n    tag_78:\n      mload(0x40)\n      dup1\n      swap2\n      sub\n      swap1\n      return\n        /* \"contracts/studentmanager/MangerPool.sol\":2378:3509  function createNewMission(\r... */\n    tag_16:\n      tag_80\n      0x04\n      dup1\n      calldatasize\n      sub\n      dup2\n      add\n      swap1\n      tag_81\n      swap2\n      swap1\n      tag_82\n      jump\t// in\n    tag_81:\n      tag_83\n      jump\t// in\n    tag_80:\n      stop\n        /* \"contracts/studentmanager/MangerPool.sol\":948:987  mapping(address => bool) public existed */\n    tag_17:\n      tag_84\n      0x04\n      dup1\n      calldatasize\n      sub\n      dup2\n      add\n      swap1\n      tag_85\n      swap2\n      swap1\n      tag_37\n      jump\t// in\n    tag_85:\n      tag_86\n      jump\t// in\n    tag_84:\n      mload(0x40)\n      tag_87\n      swap2\n      swap1\n      tag_88\n      jump\t// in\n    tag_87:\n      mload(0x40)\n      dup1\n      swap2\n      sub\n      swap1\n      return\n        /* \"contracts/studentmanager/MangerPool.sol\":797:820  IFactory public factory */\n    tag_18:\n      tag_89\n      tag_90\n      jump\t// in\n    tag_89:\n      mload(0x40)\n      tag_91\n      swap2\n      swap1\n      tag_92\n      jump\t// in\n    tag_91:\n      mload(0x40)\n      dup1\n      swap2\n      sub\n      swap1\n      return\n        /* \"contracts/studentmanager/MangerPool.sol\":5593:6474  function createNewTuition(\r... */\n    tag_19:\n      tag_93\n      0x04\n      dup1\n      calldatasize\n      sub\n      dup2\n      add\n      swap1\n      tag_94\n      swap2\n      swap1\n      tag_56\n      jump\t// in\n    tag_94:\n      tag_95\n      jump\t// in\n    tag_93:\n      stop\n        /* \"contracts/studentmanager/MangerPool.sol\":6482:6618  function close(address pool) external onlyRoleAdmin {\r... */\n    tag_20:\n      tag_96\n      0x04\n      dup1\n      calldatasize\n      sub\n      dup2\n      add\n      swap1\n      tag_97\n      swap2\n      swap1\n      tag_37\n      jump\t// in\n    tag_97:\n      tag_98\n      jump\t// in\n    tag_96:\n      stop\n        /* \"contracts/studentmanager/MangerPool.sol\":2199:2370  function addLecturerInfo(address lecturerAddr, string memory hashInfo)\r... */\n    tag_21:\n      tag_99\n      0x04\n      dup1\n      calldatasize\n      sub\n      dup2\n      add\n      swap1\n      tag_100\n      swap2\n      swap1\n      tag_101\n      jump\t// in\n    tag_100:\n      tag_102\n      jump\t// in\n    tag_99:\n      stop\n        /* \"contracts/studentmanager/MangerPool.sol\":1039:1077  Counters.Counter public idCountSubject */\n    tag_22:\n      tag_103\n      tag_104\n      jump\t// in\n    tag_103:\n      mload(0x40)\n      tag_105\n      swap2\n      swap1\n      tag_31\n      jump\t// in\n    tag_105:\n      mload(0x40)\n      dup1\n      swap2\n      sub\n      swap1\n      return\n        /* \"contracts/studentmanager/MangerPool.sol\":1133:1171  Counters.Counter public idCountTuition */\n    tag_23:\n      tag_106\n      tag_107\n      jump\t// in\n    tag_106:\n      mload(0x40)\n      tag_108\n      swap2\n      swap1\n      tag_31\n      jump\t// in\n    tag_108:\n      mload(0x40)\n      dup1\n      swap2\n      sub\n      swap1\n      return\n        /* \"@openzeppelin/contracts/access/Ownable.sol\":1918:2116  function transferOwnership(address newOwner) public virtual onlyOwner {... */\n    tag_24:\n      tag_109\n      0x04\n      dup1\n      calldatasize\n      sub\n      dup2\n      add\n      swap1\n      tag_110\n      swap2\n      swap1\n      tag_37\n      jump\t// in\n    tag_110:\n      tag_111\n      jump\t// in\n    tag_109:\n      stop\n        /* \"contracts/studentmanager/MangerPool.sol\":994:1032  Counters.Counter public idCountMission */\n    tag_29:\n      0x06\n      dup1\n      0x00\n      add\n      sload\n      swap1\n      pop\n      dup2\n      jump\t// out\n        /* \"contracts/studentmanager/MangerPool.sol\":1084:1126  Counters.Counter public idCountScholarship */\n    tag_33:\n      0x08\n      dup1\n      0x00\n      add\n      sload\n      swap1\n      pop\n      dup2\n      jump\t// out\n        /* \"contracts/studentmanager/MangerPool.sol\":1180:1225  mapping(address => string) public studentInfo */\n    tag_38:\n      mstore(0x20, 0x0a)\n      dup1\n      0x00\n      mstore\n      keccak256(0x00, 0x40)\n      0x00\n      swap2\n      pop\n      swap1\n      pop\n      dup1\n      sload\n      tag_112\n      swap1\n      tag_113\n      jump\t// in\n    tag_112:\n      dup1\n      0x1f\n      add\n      0x20\n      dup1\n      swap2\n      div\n      mul\n      0x20\n      add\n      mload(0x40)\n      swap1\n      dup2\n      add\n      0x40\n      mstore\n      dup1\n      swap3\n      swap2\n      swap1\n      dup2\n      dup2\n      mstore\n      0x20\n      add\n      dup3\n      dup1\n      sload\n      tag_114\n      swap1\n      tag_113\n      jump\t// in\n    tag_114:\n      dup1\n      iszero\n      tag_115\n      jumpi\n      dup1\n      0x1f\n      lt\n      tag_116\n      jumpi\n      0x0100\n      dup1\n      dup4\n      sload\n      div\n      mul\n      dup4\n      mstore\n      swap2\n      0x20\n      add\n      swap2\n      jump(tag_115)\n    tag_116:\n      dup3\n      add\n      swap2\n      swap1\n      0x00\n      mstore\n      keccak256(0x00, 0x20)\n      swap1\n    tag_117:\n      dup2\n      sload\n      dup2\n      mstore\n      swap1\n      0x01\n      add\n      swap1\n      0x20\n      add\n      dup1\n      dup4\n      gt\n      tag_117\n      jumpi\n      dup3\n      swap1\n      sub\n      0x1f\n      and\n      dup3\n      add\n      swap2\n    tag_115:\n      pop\n      pop\n      pop\n      pop\n      pop\n      dup2\n      jump\t// out\n        /* \"contracts/studentmanager/MangerPool.sol\":1957:2059  function setFactory(address _factory) public onlyOwner {\r... */\n    tag_43:\n        /* \"@openzeppelin/contracts/access/Ownable.sol\":1259:1271  _msgSender() */\n      tag_119\n        /* \"@openzeppelin/contracts/access/Ownable.sol\":1259:1269  _msgSender */\n      tag_120\n        /* \"@openzeppelin/contracts/access/Ownable.sol\":1259:1271  _msgSender() */\n      jump\t// in\n    tag_119:\n        /* \"@openzeppelin/contracts/access/Ownable.sol\":1248:1271  owner() == _msgSender() */\n      0xffffffffffffffffffffffffffffffffffffffff\n      and\n        /* \"@openzeppelin/contracts/access/Ownable.sol\":1248:1255  owner() */\n      tag_121\n        /* \"@openzeppelin/contracts/access/Ownable.sol\":1248:1253  owner */\n      tag_59\n        /* \"@openzeppelin/contracts/access/Ownable.sol\":1248:1255  owner() */\n      jump\t// in\n    tag_121:\n        /* \"@openzeppelin/contracts/access/Ownable.sol\":1248:1271  owner() == _msgSender() */\n      0xffffffffffffffffffffffffffffffffffffffff\n      and\n      eq\n        /* \"@openzeppelin/contracts/access/Ownable.sol\":1240:1308  require(owner() == _msgSender(), \"Ownable: caller is not the owner\") */\n      tag_122\n      jumpi\n      mload(0x40)\n      0x08c379a000000000000000000000000000000000000000000000000000000000\n      dup2\n      mstore\n      0x04\n      add\n      tag_123\n      swap1\n      tag_124\n      jump\t// in\n    tag_123:\n      mload(0x40)\n      dup1\n      swap2\n      sub\n      swap1\n      revert\n    tag_122:\n        /* \"contracts/studentmanager/MangerPool.sol\":2042:2050  _factory */\n      dup1\n        /* \"contracts/studentmanager/MangerPool.sol\":2023:2030  factory */\n      0x01\n      0x00\n        /* \"contracts/studentmanager/MangerPool.sol\":2023:2051  factory = IFactory(_factory) */\n      0x0100\n      exp\n      dup2\n      sload\n      dup2\n      0xffffffffffffffffffffffffffffffffffffffff\n      mul\n      not\n      and\n      swap1\n      dup4\n      0xffffffffffffffffffffffffffffffffffffffff\n      and\n      mul\n      or\n      swap1\n      sstore\n      pop\n        /* \"contracts/studentmanager/MangerPool.sol\":1957:2059  function setFactory(address _factory) public onlyOwner {\r... */\n      pop\n      jump\t// out\n        /* \"contracts/studentmanager/MangerPool.sol\":2067:2191  function addStudentInfo(string memory hashInfo) public onlyRoleStudent {\r... */\n    tag_47:\n        /* \"contracts/studentmanager/MangerPool.sol\":1829:1843  accessControll */\n      0x02\n      0x00\n      swap1\n      sload\n      swap1\n      0x0100\n      exp\n      swap1\n      div\n      0xffffffffffffffffffffffffffffffffffffffff\n      and\n        /* \"contracts/studentmanager/MangerPool.sol\":1829:1851  accessControll.hasRole */\n      0xffffffffffffffffffffffffffffffffffffffff\n      and\n      0x91d14854\n        /* \"contracts/studentmanager/MangerPool.sol\":1852:1872  keccak256(\"STUDENT\") */\n      0xc951d7098b66ba0b8b77265b6e9cf0e187d73125a42bcd0061b09a68be421810\n        /* \"contracts/studentmanager/MangerPool.sol\":1874:1884  msg.sender */\n      caller\n        /* \"contracts/studentmanager/MangerPool.sol\":1829:1885  accessControll.hasRole(keccak256(\"STUDENT\"), msg.sender) */\n      mload(0x40)\n      dup4\n      0xffffffff\n      and\n      0xe0\n      shl\n      dup2\n      mstore\n      0x04\n      add\n      tag_127\n      swap3\n      swap2\n      swap1\n      tag_128\n      jump\t// in\n    tag_127:\n      0x20\n      mload(0x40)\n      dup1\n      dup4\n      sub\n      dup2\n      dup7\n      dup1\n      extcodesize\n      iszero\n      dup1\n      iszero\n      tag_129\n      jumpi\n      0x00\n      dup1\n      revert\n    tag_129:\n      pop\n      gas\n      staticcall\n      iszero\n      dup1\n      iszero\n      tag_131\n      jumpi\n      returndatasize\n      0x00\n      dup1\n      returndatacopy\n      revert(0x00, returndatasize)\n    tag_131:\n      pop\n      pop\n      pop\n      pop\n      mload(0x40)\n      returndatasize\n      not(0x1f)\n      0x1f\n      dup3\n      add\n      and\n      dup3\n      add\n      dup1\n      0x40\n      mstore\n      pop\n      dup2\n      add\n      swap1\n      tag_132\n      swap2\n      swap1\n      tag_133\n      jump\t// in\n    tag_132:\n        /* \"contracts/studentmanager/MangerPool.sol\":1807:1929  require(\r... */\n      tag_134\n      jumpi\n      mload(0x40)\n      0x08c379a000000000000000000000000000000000000000000000000000000000\n      dup2\n      mstore\n      0x04\n      add\n      tag_135\n      swap1\n      tag_136\n      jump\t// in\n    tag_135:\n      mload(0x40)\n      dup1\n      swap2\n      sub\n      swap1\n      revert\n    tag_134:\n        /* \"contracts/studentmanager/MangerPool.sol\":2175:2183  hashInfo */\n      dup1\n        /* \"contracts/studentmanager/MangerPool.sol\":2149:2160  studentInfo */\n      0x0a\n        /* \"contracts/studentmanager/MangerPool.sol\":2149:2172  studentInfo[msg.sender] */\n      0x00\n        /* \"contracts/studentmanager/MangerPool.sol\":2161:2171  msg.sender */\n      caller\n        /* \"contracts/studentmanager/MangerPool.sol\":2149:2172  studentInfo[msg.sender] */\n      0xffffffffffffffffffffffffffffffffffffffff\n      and\n      0xffffffffffffffffffffffffffffffffffffffff\n      and\n      dup2\n      mstore\n      0x20\n      add\n      swap1\n      dup2\n      mstore\n      0x20\n      add\n      0x00\n      keccak256\n        /* \"contracts/studentmanager/MangerPool.sol\":2149:2183  studentInfo[msg.sender] = hashInfo */\n      swap1\n      dup1\n      mload\n      swap1\n      0x20\n      add\n      swap1\n      tag_138\n      swap3\n      swap2\n      swap1\n      tag_139\n      jump\t// in\n    tag_138:\n      pop\n        /* \"contracts/studentmanager/MangerPool.sol\":2067:2191  function addStudentInfo(string memory hashInfo) public onlyRoleStudent {\r... */\n      pop\n      jump\t// out\n        /* \"@openzeppelin/contracts/access/Ownable.sol\":1668:1769  function renounceOwnership() public virtual onlyOwner {... */\n    tag_49:\n        /* \"@openzeppelin/contracts/access/Ownable.sol\":1259:1271  _msgSender() */\n      tag_141\n        /* \"@openzeppelin/contracts/access/Ownable.sol\":1259:1269  _msgSender */\n      tag_120\n        /* \"@openzeppelin/contracts/access/Ownable.sol\":1259:1271  _msgSender() */\n      jump\t// in\n    tag_141:\n        /* \"@openzeppelin/contracts/access/Ownable.sol\":1248:1271  owner() == _msgSender() */\n      0xffffffffffffffffffffffffffffffffffffffff\n      and\n        /* \"@openzeppelin/contracts/access/Ownable.sol\":1248:1255  owner() */\n      tag_142\n        /* \"@openzeppelin/contracts/access/Ownable.sol\":1248:1253  owner */\n      tag_59\n        /* \"@openzeppelin/contracts/access/Ownable.sol\":1248:1255  owner() */\n      jump\t// in\n    tag_142:\n        /* \"@openzeppelin/contracts/access/Ownable.sol\":1248:1271  owner() == _msgSender() */\n      0xffffffffffffffffffffffffffffffffffffffff\n      and\n      eq\n        /* \"@openzeppelin/contracts/access/Ownable.sol\":1240:1308  require(owner() == _msgSender(), \"Ownable: caller is not the owner\") */\n      tag_143\n      jumpi\n      mload(0x40)\n      0x08c379a000000000000000000000000000000000000000000000000000000000\n      dup2\n      mstore\n      0x04\n      add\n      tag_144\n      swap1\n      tag_124\n      jump\t// in\n    tag_144:\n      mload(0x40)\n      dup1\n      swap2\n      sub\n      swap1\n      revert\n    tag_143:\n        /* \"@openzeppelin/contracts/access/Ownable.sol\":1732:1762  _transferOwnership(address(0)) */\n      tag_146\n        /* \"@openzeppelin/contracts/access/Ownable.sol\":1759:1760  0 */\n      0x00\n        /* \"@openzeppelin/contracts/access/Ownable.sol\":1732:1750  _transferOwnership */\n      tag_147\n        /* \"@openzeppelin/contracts/access/Ownable.sol\":1732:1762  _transferOwnership(address(0)) */\n      jump\t// in\n    tag_146:\n        /* \"@openzeppelin/contracts/access/Ownable.sol\":1668:1769  function renounceOwnership() public virtual onlyOwner {... */\n      jump\t// out\n        /* \"contracts/studentmanager/MangerPool.sol\":1232:1278  mapping(address => string) public lecturerInfo */\n    tag_52:\n      mstore(0x20, 0x0b)\n      dup1\n      0x00\n      mstore\n      keccak256(0x00, 0x40)\n      0x00\n      swap2\n      pop\n      swap1\n      pop\n      dup1\n      sload\n      tag_148\n      swap1\n      tag_113\n      jump\t// in\n    tag_148:\n      dup1\n      0x1f\n      add\n      0x20\n      dup1\n      swap2\n      div\n      mul\n      0x20\n      add\n      mload(0x40)\n      swap1\n      dup2\n      add\n      0x40\n      mstore\n      dup1\n      swap3\n      swap2\n      swap1\n      dup2\n      dup2\n      mstore\n      0x20\n      add\n      dup3\n      dup1\n      sload\n      tag_149\n      swap1\n      tag_113\n      jump\t// in\n    tag_149:\n      dup1\n      iszero\n      tag_150\n      jumpi\n      dup1\n      0x1f\n      lt\n      tag_151\n      jumpi\n      0x0100\n      dup1\n      dup4\n      sload\n      div\n      mul\n      dup4\n      mstore\n      swap2\n      0x20\n      add\n      swap2\n      jump(tag_150)\n    tag_151:\n      dup3\n      add\n      swap2\n      swap1\n      0x00\n      mstore\n      keccak256(0x00, 0x20)\n      swap1\n    tag_152:\n      dup2\n      sload\n      dup2\n      mstore\n      swap1\n      0x01\n      add\n      swap1\n      0x20\n      add\n      dup1\n      dup4\n      gt\n      tag_152\n      jumpi\n      dup3\n      swap1\n      sub\n      0x1f\n      and\n      dup3\n      add\n      swap2\n    tag_150:\n      pop\n      pop\n      pop\n      pop\n      pop\n      dup2\n      jump\t// out\n        /* \"contracts/studentmanager/MangerPool.sol\":4650:5585  function createNewScholarship(\r... */\n    tag_57:\n        /* \"contracts/studentmanager/MangerPool.sol\":1645:1659  accessControll */\n      0x02\n      0x00\n      swap1\n      sload\n      swap1\n      0x0100\n      exp\n      swap1\n      div\n      0xffffffffffffffffffffffffffffffffffffffff\n      and\n        /* \"contracts/studentmanager/MangerPool.sol\":1645:1667  accessControll.hasRole */\n      0xffffffffffffffffffffffffffffffffffffffff\n      and\n      0x91d14854\n        /* \"contracts/studentmanager/MangerPool.sol\":1668:1686  keccak256(\"ADMIN\") */\n      0xdf8b4c520ffe197c5343c6f5aec59570151ef9a492f2c624fd45ddde6135ec42\n        /* \"contracts/studentmanager/MangerPool.sol\":1688:1698  msg.sender */\n      caller\n        /* \"contracts/studentmanager/MangerPool.sol\":1645:1699  accessControll.hasRole(keccak256(\"ADMIN\"), msg.sender) */\n      mload(0x40)\n      dup4\n      0xffffffff\n      and\n      0xe0\n      shl\n      dup2\n      mstore\n      0x04\n      add\n      tag_154\n      swap3\n      swap2\n      swap1\n      tag_128\n      jump\t// in\n    tag_154:\n      0x20\n      mload(0x40)\n      dup1\n      dup4\n      sub\n      dup2\n      dup7\n      dup1\n      extcodesize\n      iszero\n      dup1\n      iszero\n      tag_155\n      jumpi\n      0x00\n      dup1\n      revert\n    tag_155:\n      pop\n      gas\n      staticcall\n      iszero\n      dup1\n      iszero\n      tag_157\n      jumpi\n      returndatasize\n      0x00\n      dup1\n      returndatacopy\n      revert(0x00, returndatasize)\n    tag_157:\n      pop\n      pop\n      pop\n      pop\n      mload(0x40)\n      returndatasize\n      not(0x1f)\n      0x1f\n      dup3\n      add\n      and\n      dup3\n      add\n      dup1\n      0x40\n      mstore\n      pop\n      dup2\n      add\n      swap1\n      tag_158\n      swap2\n      swap1\n      tag_133\n      jump\t// in\n    tag_158:\n        /* \"contracts/studentmanager/MangerPool.sol\":1623:1741  require(\r... */\n      tag_159\n      jumpi\n      mload(0x40)\n      0x08c379a000000000000000000000000000000000000000000000000000000000\n      dup2\n      mstore\n      0x04\n      add\n      tag_160\n      swap1\n      tag_161\n      jump\t// in\n    tag_160:\n      mload(0x40)\n      dup1\n      swap2\n      sub\n      swap1\n      revert\n    tag_159:\n        /* \"contracts/studentmanager/MangerPool.sol\":4839:4866  address scholarshipContract */\n      0x00\n        /* \"contracts/studentmanager/MangerPool.sol\":4869:4876  factory */\n      0x01\n      0x00\n      swap1\n      sload\n      swap1\n      0x0100\n      exp\n      swap1\n      div\n      0xffffffffffffffffffffffffffffffffffffffff\n      and\n        /* \"contracts/studentmanager/MangerPool.sol\":4869:4897  factory.createNewScholarship */\n      0xffffffffffffffffffffffffffffffffffffffff\n      and\n      0x378ac245\n        /* \"contracts/studentmanager/MangerPool.sol\":4920:4924  this */\n      address\n        /* \"contracts/studentmanager/MangerPool.sol\":4948:4962  accessControll */\n      0x02\n      0x00\n      swap1\n      sload\n      swap1\n      0x0100\n      exp\n      swap1\n      div\n      0xffffffffffffffffffffffffffffffffffffffff\n      and\n        /* \"contracts/studentmanager/MangerPool.sol\":4986:5003  rewardDistributor */\n      0x03\n      0x00\n      swap1\n      sload\n      swap1\n      0x0100\n      exp\n      swap1\n      div\n      0xffffffffffffffffffffffffffffffffffffffff\n      and\n        /* \"contracts/studentmanager/MangerPool.sol\":4869:5015  factory.createNewScholarship(\r... */\n      mload(0x40)\n      dup5\n      0xffffffff\n      and\n      0xe0\n      shl\n      dup2\n      mstore\n      0x04\n      add\n      tag_163\n      swap4\n      swap3\n      swap2\n      swap1\n      tag_164\n      jump\t// in\n    tag_163:\n      0x20\n      mload(0x40)\n      dup1\n      dup4\n      sub\n      dup2\n      0x00\n      dup8\n      dup1\n      extcodesize\n      iszero\n      dup1\n      iszero\n      tag_165\n      jumpi\n      0x00\n      dup1\n      revert\n    tag_165:\n      pop\n      gas\n      call\n      iszero\n      dup1\n      iszero\n      tag_167\n      jumpi\n      returndatasize\n      0x00\n      dup1\n      returndatacopy\n      revert(0x00, returndatasize)\n    tag_167:\n      pop\n      pop\n      pop\n      pop\n      mload(0x40)\n      returndatasize\n      not(0x1f)\n      0x1f\n      dup3\n      add\n      and\n      dup3\n      add\n      dup1\n      0x40\n      mstore\n      pop\n      dup2\n      add\n      swap1\n      tag_168\n      swap2\n      swap1\n      tag_169\n      jump\t// in\n    tag_168:\n        /* \"contracts/studentmanager/MangerPool.sol\":4839:5015  address scholarshipContract = factory.createNewScholarship(\r... */\n      swap1\n      pop\n        /* \"contracts/studentmanager/MangerPool.sol\":5026:5031  pools */\n      0x04\n        /* \"contracts/studentmanager/MangerPool.sol\":5037:5082  Object(scholarshipContract, Type.Scholarship) */\n      mload(0x40)\n      dup1\n      0x40\n      add\n      0x40\n      mstore\n      dup1\n        /* \"contracts/studentmanager/MangerPool.sol\":5044:5063  scholarshipContract */\n      dup4\n        /* \"contracts/studentmanager/MangerPool.sol\":5037:5082  Object(scholarshipContract, Type.Scholarship) */\n      0xffffffffffffffffffffffffffffffffffffffff\n      and\n      dup2\n      mstore\n      0x20\n      add\n        /* \"contracts/studentmanager/MangerPool.sol\":5065:5081  Type.Scholarship */\n      0x02\n        /* \"contracts/studentmanager/MangerPool.sol\":5037:5082  Object(scholarshipContract, Type.Scholarship) */\n      0x03\n      dup2\n      gt\n      iszero\n      tag_170\n      jumpi\n      tag_171\n      tag_172\n      jump\t// in\n    tag_171:\n    tag_170:\n      dup2\n      mstore\n      pop\n        /* \"contracts/studentmanager/MangerPool.sol\":5026:5083  pools.push(Object(scholarshipContract, Type.Scholarship)) */\n      swap1\n      dup1\n      0x01\n      dup2\n      sload\n      add\n      dup1\n      dup3\n      sstore\n      dup1\n      swap2\n      pop\n      pop\n      0x01\n      swap1\n      sub\n      swap1\n      0x00\n      mstore\n      keccak256(0x00, 0x20)\n      add\n      0x00\n      swap1\n      swap2\n      swap1\n      swap2\n      swap1\n      swap2\n      pop\n      0x00\n      dup3\n      add\n      mload\n      dup2\n      0x00\n      add\n      exp(0x0100, 0x00)\n      dup2\n      sload\n      dup2\n      0xffffffffffffffffffffffffffffffffffffffff\n      mul\n      not\n      and\n      swap1\n      dup4\n      0xffffffffffffffffffffffffffffffffffffffff\n      and\n      mul\n      or\n      swap1\n      sstore\n      pop\n      0x20\n      dup3\n      add\n      mload\n      dup2\n      0x00\n      add\n      exp(0x0100, 0x14)\n      dup2\n      sload\n      dup2\n      0xff\n      mul\n      not\n      and\n      swap1\n      dup4\n      0x03\n      dup2\n      gt\n      iszero\n      tag_174\n      jumpi\n      tag_175\n      tag_172\n      jump\t// in\n    tag_175:\n    tag_174:\n      mul\n      or\n      swap1\n      sstore\n      pop\n      pop\n      pop\n        /* \"contracts/studentmanager/MangerPool.sol\":5125:5129  true */\n      0x01\n        /* \"contracts/studentmanager/MangerPool.sol\":5094:5101  existed */\n      0x05\n        /* \"contracts/studentmanager/MangerPool.sol\":5094:5122  existed[scholarshipContract] */\n      0x00\n        /* \"contracts/studentmanager/MangerPool.sol\":5102:5121  scholarshipContract */\n      dup4\n        /* \"contracts/studentmanager/MangerPool.sol\":5094:5122  existed[scholarshipContract] */\n      0xffffffffffffffffffffffffffffffffffffffff\n      and\n      0xffffffffffffffffffffffffffffffffffffffff\n      and\n      dup2\n      mstore\n      0x20\n      add\n      swap1\n      dup2\n      mstore\n      0x20\n      add\n      0x00\n      keccak256\n      0x00\n        /* \"contracts/studentmanager/MangerPool.sol\":5094:5129  existed[scholarshipContract] = true */\n      0x0100\n      exp\n      dup2\n      sload\n      dup2\n      0xff\n      mul\n      not\n      and\n      swap1\n      dup4\n      iszero\n      iszero\n      mul\n      or\n      swap1\n      sstore\n      pop\n        /* \"contracts/studentmanager/MangerPool.sol\":5140:5162  uint256 _scholarshipId */\n      0x00\n        /* \"contracts/studentmanager/MangerPool.sol\":5165:5193  idCountScholarship.current() */\n      tag_176\n        /* \"contracts/studentmanager/MangerPool.sol\":5165:5183  idCountScholarship */\n      0x08\n        /* \"contracts/studentmanager/MangerPool.sol\":5165:5191  idCountScholarship.current */\n      tag_177\n        /* \"contracts/studentmanager/MangerPool.sol\":5165:5193  idCountScholarship.current() */\n      jump\t// in\n    tag_176:\n        /* \"contracts/studentmanager/MangerPool.sol\":5140:5193  uint256 _scholarshipId = idCountScholarship.current() */\n      swap1\n      pop\n        /* \"contracts/studentmanager/MangerPool.sol\":5204:5234  idCountScholarship.increment() */\n      tag_178\n        /* \"contracts/studentmanager/MangerPool.sol\":5204:5222  idCountScholarship */\n      0x08\n        /* \"contracts/studentmanager/MangerPool.sol\":5204:5232  idCountScholarship.increment */\n      tag_179\n        /* \"contracts/studentmanager/MangerPool.sol\":5204:5234  idCountScholarship.increment() */\n      jump\t// in\n    tag_178:\n        /* \"contracts/studentmanager/MangerPool.sol\":5266:5285  scholarshipContract */\n      dup2\n        /* \"contracts/studentmanager/MangerPool.sol\":5245:5309  IScholarshipContract(scholarshipContract).setBasicForScholarship */\n      0xffffffffffffffffffffffffffffffffffffffff\n      and\n      0xe4bca563\n        /* \"contracts/studentmanager/MangerPool.sol\":5324:5338  _scholarshipId */\n      dup3\n        /* \"contracts/studentmanager/MangerPool.sol\":5353:5365  _urlMetadata */\n      dup9\n        /* \"contracts/studentmanager/MangerPool.sol\":5380:5386  _award */\n      dup9\n        /* \"contracts/studentmanager/MangerPool.sol\":5401:5411  _startTime */\n      dup9\n        /* \"contracts/studentmanager/MangerPool.sol\":5426:5434  _endTime */\n      dup9\n        /* \"contracts/studentmanager/MangerPool.sol\":5245:5445  IScholarshipContract(scholarshipContract).setBasicForScholarship(\r... */\n      mload(0x40)\n      dup7\n      0xffffffff\n      and\n      0xe0\n      shl\n      dup2\n      mstore\n      0x04\n      add\n      tag_180\n      swap6\n      swap5\n      swap4\n      swap3\n      swap2\n      swap1\n      tag_181\n      jump\t// in\n    tag_180:\n      0x00\n      mload(0x40)\n      dup1\n      dup4\n      sub\n      dup2\n      0x00\n      dup8\n      dup1\n      extcodesize\n      iszero\n      dup1\n      iszero\n      tag_182\n      jumpi\n      0x00\n      dup1\n      revert\n    tag_182:\n      pop\n      gas\n      call\n      iszero\n      dup1\n      iszero\n      tag_184\n      jumpi\n      returndatasize\n      0x00\n      dup1\n      returndatacopy\n      revert(0x00, returndatasize)\n    tag_184:\n      pop\n      pop\n      pop\n      pop\n        /* \"contracts/studentmanager/MangerPool.sol\":5477:5496  scholarshipContract */\n      dup2\n        /* \"contracts/studentmanager/MangerPool.sol\":5456:5503  IScholarshipContract(scholarshipContract).start */\n      0xffffffffffffffffffffffffffffffffffffffff\n      and\n      0xbe9a6555\n        /* \"contracts/studentmanager/MangerPool.sol\":5456:5505  IScholarshipContract(scholarshipContract).start() */\n      mload(0x40)\n      dup2\n      0xffffffff\n      and\n      0xe0\n      shl\n      dup2\n      mstore\n      0x04\n      add\n      0x00\n      mload(0x40)\n      dup1\n      dup4\n      sub\n      dup2\n      0x00\n      dup8\n      dup1\n      extcodesize\n      iszero\n      dup1\n      iszero\n      tag_185\n      jumpi\n      0x00\n      dup1\n      revert\n    tag_185:\n      pop\n      gas\n      call\n      iszero\n      dup1\n      iszero\n      tag_187\n      jumpi\n      returndatasize\n      0x00\n      dup1\n      returndatacopy\n      revert(0x00, returndatasize)\n    tag_187:\n      pop\n      pop\n      pop\n      pop\n        /* \"contracts/studentmanager/MangerPool.sol\":5516:5533  rewardDistributor */\n      0x03\n      0x00\n      swap1\n      sload\n      swap1\n      0x0100\n      exp\n      swap1\n      div\n      0xffffffffffffffffffffffffffffffffffffffff\n      and\n        /* \"contracts/studentmanager/MangerPool.sol\":5516:5556  rewardDistributor.addDistributorsAddress */\n      0xffffffffffffffffffffffffffffffffffffffff\n      and\n      0x05380898\n        /* \"contracts/studentmanager/MangerPool.sol\":5557:5576  scholarshipContract */\n      dup4\n        /* \"contracts/studentmanager/MangerPool.sol\":5516:5577  rewardDistributor.addDistributorsAddress(scholarshipContract) */\n      mload(0x40)\n      dup3\n      0xffffffff\n      and\n      0xe0\n      shl\n      dup2\n      mstore\n      0x04\n      add\n      tag_188\n      swap2\n      swap1\n      tag_61\n      jump\t// in\n    tag_188:\n      0x00\n      mload(0x40)\n      dup1\n      dup4\n      sub\n      dup2\n      0x00\n      dup8\n      dup1\n      extcodesize\n      iszero\n      dup1\n      iszero\n      tag_189\n      jumpi\n      0x00\n      dup1\n      revert\n    tag_189:\n      pop\n      gas\n      call\n      iszero\n      dup1\n      iszero\n      tag_191\n      jumpi\n      returndatasize\n      0x00\n      dup1\n      returndatacopy\n      revert(0x00, returndatasize)\n    tag_191:\n      pop\n      pop\n      pop\n      pop\n        /* \"contracts/studentmanager/MangerPool.sol\":4828:5585  {\r... */\n      pop\n      pop\n        /* \"contracts/studentmanager/MangerPool.sol\":4650:5585  function createNewScholarship(\r... */\n      pop\n      pop\n      pop\n      pop\n      jump\t// out\n        /* \"@openzeppelin/contracts/access/Ownable.sol\":1036:1121  function owner() public view virtual returns (address) {... */\n    tag_59:\n        /* \"@openzeppelin/contracts/access/Ownable.sol\":1082:1089  address */\n      0x00\n        /* \"@openzeppelin/contracts/access/Ownable.sol\":1108:1114  _owner */\n      dup1\n      0x00\n      swap1\n      sload\n      swap1\n      0x0100\n      exp\n      swap1\n      div\n      0xffffffffffffffffffffffffffffffffffffffff\n      and\n        /* \"@openzeppelin/contracts/access/Ownable.sol\":1101:1114  return _owner */\n      swap1\n      pop\n        /* \"@openzeppelin/contracts/access/Ownable.sol\":1036:1121  function owner() public view virtual returns (address) {... */\n      swap1\n      jump\t// out\n        /* \"contracts/studentmanager/MangerPool.sol\":827:863  IAccessControl public accessControll */\n    tag_63:\n      0x02\n      0x00\n      swap1\n      sload\n      swap1\n      0x0100\n      exp\n      swap1\n      div\n      0xffffffffffffffffffffffffffffffffffffffff\n      and\n      dup2\n      jump\t// out\n        /* \"contracts/studentmanager/MangerPool.sol\":3517:4642  function createNewSubject(\r... */\n    tag_69:\n        /* \"contracts/studentmanager/MangerPool.sol\":1645:1659  accessControll */\n      0x02\n      0x00\n      swap1\n      sload\n      swap1\n      0x0100\n      exp\n      swap1\n      div\n      0xffffffffffffffffffffffffffffffffffffffff\n      and\n        /* \"contracts/studentmanager/MangerPool.sol\":1645:1667  accessControll.hasRole */\n      0xffffffffffffffffffffffffffffffffffffffff\n      and\n      0x91d14854\n        /* \"contracts/studentmanager/MangerPool.sol\":1668:1686  keccak256(\"ADMIN\") */\n      0xdf8b4c520ffe197c5343c6f5aec59570151ef9a492f2c624fd45ddde6135ec42\n        /* \"contracts/studentmanager/MangerPool.sol\":1688:1698  msg.sender */\n      caller\n        /* \"contracts/studentmanager/MangerPool.sol\":1645:1699  accessControll.hasRole(keccak256(\"ADMIN\"), msg.sender) */\n      mload(0x40)\n      dup4\n      0xffffffff\n      and\n      0xe0\n      shl\n      dup2\n      mstore\n      0x04\n      add\n      tag_194\n      swap3\n      swap2\n      swap1\n      tag_128\n      jump\t// in\n    tag_194:\n      0x20\n      mload(0x40)\n      dup1\n      dup4\n      sub\n      dup2\n      dup7\n      dup1\n      extcodesize\n      iszero\n      dup1\n      iszero\n      tag_195\n      jumpi\n      0x00\n      dup1\n      revert\n    tag_195:\n      pop\n      gas\n      staticcall\n      iszero\n      dup1\n      iszero\n      tag_197\n      jumpi\n      returndatasize\n      0x00\n      dup1\n      returndatacopy\n      revert(0x00, returndatasize)\n    tag_197:\n      pop\n      pop\n      pop\n      pop\n      mload(0x40)\n      returndatasize\n      not(0x1f)\n      0x1f\n      dup3\n      add\n      and\n      dup3\n      add\n      dup1\n      0x40\n      mstore\n      pop\n      dup2\n      add\n      swap1\n      tag_198\n      swap2\n      swap1\n      tag_133\n      jump\t// in\n    tag_198:\n        /* \"contracts/studentmanager/MangerPool.sol\":1623:1741  require(\r... */\n      tag_199\n      jumpi\n      mload(0x40)\n      0x08c379a000000000000000000000000000000000000000000000000000000000\n      dup2\n      mstore\n      0x04\n      add\n      tag_200\n      swap1\n      tag_161\n      jump\t// in\n    tag_200:\n      mload(0x40)\n      dup1\n      swap2\n      sub\n      swap1\n      revert\n    tag_199:\n        /* \"contracts/studentmanager/MangerPool.sol\":3815:3838  address subjectContract */\n      0x00\n        /* \"contracts/studentmanager/MangerPool.sol\":3841:3848  factory */\n      0x01\n      0x00\n      swap1\n      sload\n      swap1\n      0x0100\n      exp\n      swap1\n      div\n      0xffffffffffffffffffffffffffffffffffffffff\n      and\n        /* \"contracts/studentmanager/MangerPool.sol\":3841:3865  factory.createNewSubject */\n      0xffffffffffffffffffffffffffffffffffffffff\n      and\n      0xb928882e\n        /* \"contracts/studentmanager/MangerPool.sol\":3888:3892  this */\n      address\n        /* \"contracts/studentmanager/MangerPool.sol\":3916:3930  accessControll */\n      0x02\n      0x00\n      swap1\n      sload\n      swap1\n      0x0100\n      exp\n      swap1\n      div\n      0xffffffffffffffffffffffffffffffffffffffff\n      and\n        /* \"contracts/studentmanager/MangerPool.sol\":3841:3942  factory.createNewSubject(\r... */\n      mload(0x40)\n      dup4\n      0xffffffff\n      and\n      0xe0\n      shl\n      dup2\n      mstore\n      0x04\n      add\n      tag_202\n      swap3\n      swap2\n      swap1\n      tag_203\n      jump\t// in\n    tag_202:\n      0x20\n      mload(0x40)\n      dup1\n      dup4\n      sub\n      dup2\n      0x00\n      dup8\n      dup1\n      extcodesize\n      iszero\n      dup1\n      iszero\n      tag_204\n      jumpi\n      0x00\n      dup1\n      revert\n    tag_204:\n      pop\n      gas\n      call\n      iszero\n      dup1\n      iszero\n      tag_206\n      jumpi\n      returndatasize\n      0x00\n      dup1\n      returndatacopy\n      revert(0x00, returndatasize)\n    tag_206:\n      pop\n      pop\n      pop\n      pop\n      mload(0x40)\n      returndatasize\n      not(0x1f)\n      0x1f\n      dup3\n      add\n      and\n      dup3\n      add\n      dup1\n      0x40\n      mstore\n      pop\n      dup2\n      add\n      swap1\n      tag_207\n      swap2\n      swap1\n      tag_169\n      jump\t// in\n    tag_207:\n        /* \"contracts/studentmanager/MangerPool.sol\":3815:3942  address subjectContract = factory.createNewSubject(\r... */\n      swap1\n      pop\n        /* \"contracts/studentmanager/MangerPool.sol\":3953:3958  pools */\n      0x04\n        /* \"contracts/studentmanager/MangerPool.sol\":3964:4001  Object(subjectContract, Type.Subject) */\n      mload(0x40)\n      dup1\n      0x40\n      add\n      0x40\n      mstore\n      dup1\n        /* \"contracts/studentmanager/MangerPool.sol\":3971:3986  subjectContract */\n      dup4\n        /* \"contracts/studentmanager/MangerPool.sol\":3964:4001  Object(subjectContract, Type.Subject) */\n      0xffffffffffffffffffffffffffffffffffffffff\n      and\n      dup2\n      mstore\n      0x20\n      add\n        /* \"contracts/studentmanager/MangerPool.sol\":3988:4000  Type.Subject */\n      0x01\n        /* \"contracts/studentmanager/MangerPool.sol\":3964:4001  Object(subjectContract, Type.Subject) */\n      0x03\n      dup2\n      gt\n      iszero\n      tag_208\n      jumpi\n      tag_209\n      tag_172\n      jump\t// in\n    tag_209:\n    tag_208:\n      dup2\n      mstore\n      pop\n        /* \"contracts/studentmanager/MangerPool.sol\":3953:4002  pools.push(Object(subjectContract, Type.Subject)) */\n      swap1\n      dup1\n      0x01\n      dup2\n      sload\n      add\n      dup1\n      dup3\n      sstore\n      dup1\n      swap2\n      pop\n      pop\n      0x01\n      swap1\n      sub\n      swap1\n      0x00\n      mstore\n      keccak256(0x00, 0x20)\n      add\n      0x00\n      swap1\n      swap2\n      swap1\n      swap2\n      swap1\n      swap2\n      pop\n      0x00\n      dup3\n      add\n      mload\n      dup2\n      0x00\n      add\n      exp(0x0100, 0x00)\n      dup2\n      sload\n      dup2\n      0xffffffffffffffffffffffffffffffffffffffff\n      mul\n      not\n      and\n      swap1\n      dup4\n      0xffffffffffffffffffffffffffffffffffffffff\n      and\n      mul\n      or\n      swap1\n      sstore\n      pop\n      0x20\n      dup3\n      add\n      mload\n      dup2\n      0x00\n      add\n      exp(0x0100, 0x14)\n      dup2\n      sload\n      dup2\n      0xff\n      mul\n      not\n      and\n      swap1\n      dup4\n      0x03\n      dup2\n      gt\n      iszero\n      tag_211\n      jumpi\n      tag_212\n      tag_172\n      jump\t// in\n    tag_212:\n    tag_211:\n      mul\n      or\n      swap1\n      sstore\n      pop\n      pop\n      pop\n        /* \"contracts/studentmanager/MangerPool.sol\":4040:4044  true */\n      0x01\n        /* \"contracts/studentmanager/MangerPool.sol\":4013:4020  existed */\n      0x05\n        /* \"contracts/studentmanager/MangerPool.sol\":4013:4037  existed[subjectContract] */\n      0x00\n        /* \"contracts/studentmanager/MangerPool.sol\":4021:4036  subjectContract */\n      dup4\n        /* \"contracts/studentmanager/MangerPool.sol\":4013:4037  existed[subjectContract] */\n      0xffffffffffffffffffffffffffffffffffffffff\n      and\n      0xffffffffffffffffffffffffffffffffffffffff\n      and\n      dup2\n      mstore\n      0x20\n      add\n      swap1\n      dup2\n      mstore\n      0x20\n      add\n      0x00\n      keccak256\n      0x00\n        /* \"contracts/studentmanager/MangerPool.sol\":4013:4044  existed[subjectContract] = true */\n      0x0100\n      exp\n      dup2\n      sload\n      dup2\n      0xff\n      mul\n      not\n      and\n      swap1\n      dup4\n      iszero\n      iszero\n      mul\n      or\n      swap1\n      sstore\n      pop\n        /* \"contracts/studentmanager/MangerPool.sol\":4055:4073  uint256 _subjectId */\n      0x00\n        /* \"contracts/studentmanager/MangerPool.sol\":4076:4100  idCountSubject.current() */\n      tag_213\n        /* \"contracts/studentmanager/MangerPool.sol\":4076:4090  idCountSubject */\n      0x07\n        /* \"contracts/studentmanager/MangerPool.sol\":4076:4098  idCountSubject.current */\n      tag_177\n        /* \"contracts/studentmanager/MangerPool.sol\":4076:4100  idCountSubject.current() */\n      jump\t// in\n    tag_213:\n        /* \"contracts/studentmanager/MangerPool.sol\":4055:4100  uint256 _subjectId = idCountSubject.current() */\n      swap1\n      pop\n        /* \"contracts/studentmanager/MangerPool.sol\":4111:4137  idCountSubject.increment() */\n      tag_214\n        /* \"contracts/studentmanager/MangerPool.sol\":4111:4125  idCountSubject */\n      0x07\n        /* \"contracts/studentmanager/MangerPool.sol\":4111:4135  idCountSubject.increment */\n      tag_179\n        /* \"contracts/studentmanager/MangerPool.sol\":4111:4137  idCountSubject.increment() */\n      jump\t// in\n    tag_214:\n        /* \"contracts/studentmanager/MangerPool.sol\":4165:4180  subjectContract */\n      dup2\n        /* \"contracts/studentmanager/MangerPool.sol\":4148:4200  ISubjectContract(subjectContract).setBasicForSubject */\n      0xffffffffffffffffffffffffffffffffffffffff\n      and\n      0xa53dc8d2\n        /* \"contracts/studentmanager/MangerPool.sol\":4215:4225  _subjectId */\n      dup3\n        /* \"contracts/studentmanager/MangerPool.sol\":4240:4252  _urlMetadata */\n      dup12\n        /* \"contracts/studentmanager/MangerPool.sol\":4267:4278  _maxEntrant */\n      dup12\n        /* \"contracts/studentmanager/MangerPool.sol\":4293:4309  _persionInCharge */\n      dup12\n        /* \"contracts/studentmanager/MangerPool.sol\":4324:4334  _startTime */\n      dup12\n        /* \"contracts/studentmanager/MangerPool.sol\":4349:4367  _endTimeToRegister */\n      dup12\n        /* \"contracts/studentmanager/MangerPool.sol\":4382:4390  _endTime */\n      dup12\n        /* \"contracts/studentmanager/MangerPool.sol\":4405:4422  _endTimeToConfirm */\n      dup12\n        /* \"contracts/studentmanager/MangerPool.sol\":4148:4433  ISubjectContract(subjectContract).setBasicForSubject(\r... */\n      mload(0x40)\n      dup10\n      0xffffffff\n      and\n      0xe0\n      shl\n      dup2\n      mstore\n      0x04\n      add\n      tag_215\n      swap9\n      swap8\n      swap7\n      swap6\n      swap5\n      swap4\n      swap3\n      swap2\n      swap1\n      tag_216\n      jump\t// in\n    tag_215:\n      0x00\n      mload(0x40)\n      dup1\n      dup4\n      sub\n      dup2\n      0x00\n      dup8\n      dup1\n      extcodesize\n      iszero\n      dup1\n      iszero\n      tag_217\n      jumpi\n      0x00\n      dup1\n      revert\n    tag_217:\n      pop\n      gas\n      call\n      iszero\n      dup1\n      iszero\n      tag_219\n      jumpi\n      returndatasize\n      0x00\n      dup1\n      returndatacopy\n      revert(0x00, returndatasize)\n    tag_219:\n      pop\n      pop\n      pop\n      pop\n        /* \"contracts/studentmanager/MangerPool.sol\":4539:4554  subjectContract */\n      dup2\n        /* \"contracts/studentmanager/MangerPool.sol\":4522:4561  ISubjectContract(subjectContract).start */\n      0xffffffffffffffffffffffffffffffffffffffff\n      and\n      0xbe9a6555\n        /* \"contracts/studentmanager/MangerPool.sol\":4522:4563  ISubjectContract(subjectContract).start() */\n      mload(0x40)\n      dup2\n      0xffffffff\n      and\n      0xe0\n      shl\n      dup2\n      mstore\n      0x04\n      add\n      0x00\n      mload(0x40)\n      dup1\n      dup4\n      sub\n      dup2\n      0x00\n      dup8\n      dup1\n      extcodesize\n      iszero\n      dup1\n      iszero\n      tag_220\n      jumpi\n      0x00\n      dup1\n      revert\n    tag_220:\n      pop\n      gas\n      call\n      iszero\n      dup1\n      iszero\n      tag_222\n      jumpi\n      returndatasize\n      0x00\n      dup1\n      returndatacopy\n      revert(0x00, returndatasize)\n    tag_222:\n      pop\n      pop\n      pop\n      pop\n        /* \"contracts/studentmanager/MangerPool.sol\":3804:4642  {\r... */\n      pop\n      pop\n        /* \"contracts/studentmanager/MangerPool.sol\":3517:4642  function createNewSubject(\r... */\n      pop\n      pop\n      pop\n      pop\n      pop\n      pop\n      pop\n      jump\t// out\n        /* \"contracts/studentmanager/MangerPool.sol\":920:941  Object[] public pools */\n    tag_73:\n      0x04\n      dup2\n      dup2\n      sload\n      dup2\n      lt\n      tag_223\n      jumpi\n      0x00\n      dup1\n      revert\n    tag_223:\n      swap1\n      0x00\n      mstore\n      keccak256(0x00, 0x20)\n      add\n      0x00\n      swap2\n      pop\n      swap1\n      pop\n      dup1\n      0x00\n      add\n      0x00\n      swap1\n      sload\n      swap1\n      0x0100\n      exp\n      swap1\n      div\n      0xffffffffffffffffffffffffffffffffffffffff\n      and\n      swap1\n      dup1\n      0x00\n      add\n      0x14\n      swap1\n      sload\n      swap1\n      0x0100\n      exp\n      swap1\n      div\n      0xff\n      and\n      swap1\n      pop\n      dup3\n      jump\t// out\n        /* \"contracts/studentmanager/MangerPool.sol\":870:913  IRewardDistributor public rewardDistributor */\n    tag_77:\n      0x03\n      0x00\n      swap1\n      sload\n      swap1\n      0x0100\n      exp\n      swap1\n      div\n      0xffffffffffffffffffffffffffffffffffffffff\n      and\n      dup2\n      jump\t// out\n        /* \"contracts/studentmanager/MangerPool.sol\":2378:3509  function createNewMission(\r... */\n    tag_83:\n        /* \"contracts/studentmanager/MangerPool.sol\":1645:1659  accessControll */\n      0x02\n      0x00\n      swap1\n      sload\n      swap1\n      0x0100\n      exp\n      swap1\n      div\n      0xffffffffffffffffffffffffffffffffffffffff\n      and\n        /* \"contracts/studentmanager/MangerPool.sol\":1645:1667  accessControll.hasRole */\n      0xffffffffffffffffffffffffffffffffffffffff\n      and\n      0x91d14854\n        /* \"contracts/studentmanager/MangerPool.sol\":1668:1686  keccak256(\"ADMIN\") */\n      0xdf8b4c520ffe197c5343c6f5aec59570151ef9a492f2c624fd45ddde6135ec42\n        /* \"contracts/studentmanager/MangerPool.sol\":1688:1698  msg.sender */\n      caller\n        /* \"contracts/studentmanager/MangerPool.sol\":1645:1699  accessControll.hasRole(keccak256(\"ADMIN\"), msg.sender) */\n      mload(0x40)\n      dup4\n      0xffffffff\n      and\n      0xe0\n      shl\n      dup2\n      mstore\n      0x04\n      add\n      tag_226\n      swap3\n      swap2\n      swap1\n      tag_128\n      jump\t// in\n    tag_226:\n      0x20\n      mload(0x40)\n      dup1\n      dup4\n      sub\n      dup2\n      dup7\n      dup1\n      extcodesize\n      iszero\n      dup1\n      iszero\n      tag_227\n      jumpi\n      0x00\n      dup1\n      revert\n    tag_227:\n      pop\n      gas\n      staticcall\n      iszero\n      dup1\n      iszero\n      tag_229\n      jumpi\n      returndatasize\n      0x00\n      dup1\n      returndatacopy\n      revert(0x00, returndatasize)\n    tag_229:\n      pop\n      pop\n      pop\n      pop\n      mload(0x40)\n      returndatasize\n      not(0x1f)\n      0x1f\n      dup3\n      add\n      and\n      dup3\n      add\n      dup1\n      0x40\n      mstore\n      pop\n      dup2\n      add\n      swap1\n      tag_230\n      swap2\n      swap1\n      tag_133\n      jump\t// in\n    tag_230:\n        /* \"contracts/studentmanager/MangerPool.sol\":1623:1741  require(\r... */\n      tag_231\n      jumpi\n      mload(0x40)\n      0x08c379a000000000000000000000000000000000000000000000000000000000\n      dup2\n      mstore\n      0x04\n      add\n      tag_232\n      swap1\n      tag_161\n      jump\t// in\n    tag_232:\n      mload(0x40)\n      dup1\n      swap2\n      sub\n      swap1\n      revert\n    tag_231:\n        /* \"contracts/studentmanager/MangerPool.sol\":2701:2724  address missionContract */\n      0x00\n        /* \"contracts/studentmanager/MangerPool.sol\":2727:2734  factory */\n      0x01\n      0x00\n      swap1\n      sload\n      swap1\n      0x0100\n      exp\n      swap1\n      div\n      0xffffffffffffffffffffffffffffffffffffffff\n      and\n        /* \"contracts/studentmanager/MangerPool.sol\":2727:2751  factory.createNewMission */\n      0xffffffffffffffffffffffffffffffffffffffff\n      and\n      0xe162fa77\n        /* \"contracts/studentmanager/MangerPool.sol\":2774:2778  this */\n      address\n        /* \"contracts/studentmanager/MangerPool.sol\":2802:2816  accessControll */\n      0x02\n      0x00\n      swap1\n      sload\n      swap1\n      0x0100\n      exp\n      swap1\n      div\n      0xffffffffffffffffffffffffffffffffffffffff\n      and\n        /* \"contracts/studentmanager/MangerPool.sol\":2840:2857  rewardDistributor */\n      0x03\n      0x00\n      swap1\n      sload\n      swap1\n      0x0100\n      exp\n      swap1\n      div\n      0xffffffffffffffffffffffffffffffffffffffff\n      and\n        /* \"contracts/studentmanager/MangerPool.sol\":2727:2869  factory.createNewMission(\r... */\n      mload(0x40)\n      dup5\n      0xffffffff\n      and\n      0xe0\n      shl\n      dup2\n      mstore\n      0x04\n      add\n      tag_234\n      swap4\n      swap3\n      swap2\n      swap1\n      tag_164\n      jump\t// in\n    tag_234:\n      0x20\n      mload(0x40)\n      dup1\n      dup4\n      sub\n      dup2\n      0x00\n      dup8\n      dup1\n      extcodesize\n      iszero\n      dup1\n      iszero\n      tag_235\n      jumpi\n      0x00\n      dup1\n      revert\n    tag_235:\n      pop\n      gas\n      call\n      iszero\n      dup1\n      iszero\n      tag_237\n      jumpi\n      returndatasize\n      0x00\n      dup1\n      returndatacopy\n      revert(0x00, returndatasize)\n    tag_237:\n      pop\n      pop\n      pop\n      pop\n      mload(0x40)\n      returndatasize\n      not(0x1f)\n      0x1f\n      dup3\n      add\n      and\n      dup3\n      add\n      dup1\n      0x40\n      mstore\n      pop\n      dup2\n      add\n      swap1\n      tag_238\n      swap2\n      swap1\n      tag_169\n      jump\t// in\n    tag_238:\n        /* \"contracts/studentmanager/MangerPool.sol\":2701:2869  address missionContract = factory.createNewMission(\r... */\n      swap1\n      pop\n        /* \"contracts/studentmanager/MangerPool.sol\":2880:2885  pools */\n      0x04\n        /* \"contracts/studentmanager/MangerPool.sol\":2891:2928  Object(missionContract, Type.Mission) */\n      mload(0x40)\n      dup1\n      0x40\n      add\n      0x40\n      mstore\n      dup1\n        /* \"contracts/studentmanager/MangerPool.sol\":2898:2913  missionContract */\n      dup4\n        /* \"contracts/studentmanager/MangerPool.sol\":2891:2928  Object(missionContract, Type.Mission) */\n      0xffffffffffffffffffffffffffffffffffffffff\n      and\n      dup2\n      mstore\n      0x20\n      add\n        /* \"contracts/studentmanager/MangerPool.sol\":2915:2927  Type.Mission */\n      0x00\n        /* \"contracts/studentmanager/MangerPool.sol\":2891:2928  Object(missionContract, Type.Mission) */\n      0x03\n      dup2\n      gt\n      iszero\n      tag_239\n      jumpi\n      tag_240\n      tag_172\n      jump\t// in\n    tag_240:\n    tag_239:\n      dup2\n      mstore\n      pop\n        /* \"contracts/studentmanager/MangerPool.sol\":2880:2929  pools.push(Object(missionContract, Type.Mission)) */\n      swap1\n      dup1\n      0x01\n      dup2\n      sload\n      add\n      dup1\n      dup3\n      sstore\n      dup1\n      swap2\n      pop\n      pop\n      0x01\n      swap1\n      sub\n      swap1\n      0x00\n      mstore\n      keccak256(0x00, 0x20)\n      add\n      0x00\n      swap1\n      swap2\n      swap1\n      swap2\n      swap1\n      swap2\n      pop\n      0x00\n      dup3\n      add\n      mload\n      dup2\n      0x00\n      add\n      exp(0x0100, 0x00)\n      dup2\n      sload\n      dup2\n      0xffffffffffffffffffffffffffffffffffffffff\n      mul\n      not\n      and\n      swap1\n      dup4\n      0xffffffffffffffffffffffffffffffffffffffff\n      and\n      mul\n      or\n      swap1\n      sstore\n      pop\n      0x20\n      dup3\n      add\n      mload\n      dup2\n      0x00\n      add\n      exp(0x0100, 0x14)\n      dup2\n      sload\n      dup2\n      0xff\n      mul\n      not\n      and\n      swap1\n      dup4\n      0x03\n      dup2\n      gt\n      iszero\n      tag_242\n      jumpi\n      tag_243\n      tag_172\n      jump\t// in\n    tag_243:\n    tag_242:\n      mul\n      or\n      swap1\n      sstore\n      pop\n      pop\n      pop\n        /* \"contracts/studentmanager/MangerPool.sol\":2967:2971  true */\n      0x01\n        /* \"contracts/studentmanager/MangerPool.sol\":2940:2947  existed */\n      0x05\n        /* \"contracts/studentmanager/MangerPool.sol\":2940:2964  existed[missionContract] */\n      0x00\n        /* \"contracts/studentmanager/MangerPool.sol\":2948:2963  missionContract */\n      dup4\n        /* \"contracts/studentmanager/MangerPool.sol\":2940:2964  existed[missionContract] */\n      0xffffffffffffffffffffffffffffffffffffffff\n      and\n      0xffffffffffffffffffffffffffffffffffffffff\n      and\n      dup2\n      mstore\n      0x20\n      add\n      swap1\n      dup2\n      mstore\n      0x20\n      add\n      0x00\n      keccak256\n      0x00\n        /* \"contracts/studentmanager/MangerPool.sol\":2940:2971  existed[missionContract] = true */\n      0x0100\n      exp\n      dup2\n      sload\n      dup2\n      0xff\n      mul\n      not\n      and\n      swap1\n      dup4\n      iszero\n      iszero\n      mul\n      or\n      swap1\n      sstore\n      pop\n        /* \"contracts/studentmanager/MangerPool.sol\":2982:3000  uint256 _missionId */\n      0x00\n        /* \"contracts/studentmanager/MangerPool.sol\":3003:3027  idCountMission.current() */\n      tag_244\n        /* \"contracts/studentmanager/MangerPool.sol\":3003:3017  idCountMission */\n      0x06\n        /* \"contracts/studentmanager/MangerPool.sol\":3003:3025  idCountMission.current */\n      tag_177\n        /* \"contracts/studentmanager/MangerPool.sol\":3003:3027  idCountMission.current() */\n      jump\t// in\n    tag_244:\n        /* \"contracts/studentmanager/MangerPool.sol\":2982:3027  uint256 _missionId = idCountMission.current() */\n      swap1\n      pop\n        /* \"contracts/studentmanager/MangerPool.sol\":3038:3064  idCountMission.increment() */\n      tag_245\n        /* \"contracts/studentmanager/MangerPool.sol\":3038:3052  idCountMission */\n      0x06\n        /* \"contracts/studentmanager/MangerPool.sol\":3038:3062  idCountMission.increment */\n      tag_179\n        /* \"contracts/studentmanager/MangerPool.sol\":3038:3064  idCountMission.increment() */\n      jump\t// in\n    tag_245:\n        /* \"contracts/studentmanager/MangerPool.sol\":3092:3107  missionContract */\n      dup2\n        /* \"contracts/studentmanager/MangerPool.sol\":3075:3127  IMissionContract(missionContract).setBasicForMission */\n      0xffffffffffffffffffffffffffffffffffffffff\n      and\n      0xee0433d0\n        /* \"contracts/studentmanager/MangerPool.sol\":3142:3152  _missionId */\n      dup3\n        /* \"contracts/studentmanager/MangerPool.sol\":3167:3179  _urlMetadata */\n      dup13\n        /* \"contracts/studentmanager/MangerPool.sol\":3194:3200  _award */\n      dup13\n        /* \"contracts/studentmanager/MangerPool.sol\":3215:3226  _maxEntrant */\n      dup13\n        /* \"contracts/studentmanager/MangerPool.sol\":3241:3257  _persionInCharge */\n      dup13\n        /* \"contracts/studentmanager/MangerPool.sol\":3272:3282  _startTime */\n      dup13\n        /* \"contracts/studentmanager/MangerPool.sol\":3297:3315  _endTimeToRegister */\n      dup13\n        /* \"contracts/studentmanager/MangerPool.sol\":3330:3338  _endTime */\n      dup13\n        /* \"contracts/studentmanager/MangerPool.sol\":3353:3370  _endTimeToConfirm */\n      dup13\n        /* \"contracts/studentmanager/MangerPool.sol\":3075:3381  IMissionContract(missionContract).setBasicForMission(\r... */\n      mload(0x40)\n      dup11\n      0xffffffff\n      and\n      0xe0\n      shl\n      dup2\n      mstore\n      0x04\n      add\n      tag_246\n      swap10\n      swap9\n      swap8\n      swap7\n      swap6\n      swap5\n      swap4\n      swap3\n      swap2\n      swap1\n      tag_247\n      jump\t// in\n    tag_246:\n      0x00\n      mload(0x40)\n      dup1\n      dup4\n      sub\n      dup2\n      0x00\n      dup8\n      dup1\n      extcodesize\n      iszero\n      dup1\n      iszero\n      tag_248\n      jumpi\n      0x00\n      dup1\n      revert\n    tag_248:\n      pop\n      gas\n      call\n      iszero\n      dup1\n      iszero\n      tag_250\n      jumpi\n      returndatasize\n      0x00\n      dup1\n      returndatacopy\n      revert(0x00, returndatasize)\n    tag_250:\n      pop\n      pop\n      pop\n      pop\n        /* \"contracts/studentmanager/MangerPool.sol\":3409:3424  missionContract */\n      dup2\n        /* \"contracts/studentmanager/MangerPool.sol\":3392:3431  IMissionContract(missionContract).start */\n      0xffffffffffffffffffffffffffffffffffffffff\n      and\n      0xbe9a6555\n        /* \"contracts/studentmanager/MangerPool.sol\":3392:3433  IMissionContract(missionContract).start() */\n      mload(0x40)\n      dup2\n      0xffffffff\n      and\n      0xe0\n      shl\n      dup2\n      mstore\n      0x04\n      add\n      0x00\n      mload(0x40)\n      dup1\n      dup4\n      sub\n      dup2\n      0x00\n      dup8\n      dup1\n      extcodesize\n      iszero\n      dup1\n      iszero\n      tag_251\n      jumpi\n      0x00\n      dup1\n      revert\n    tag_251:\n      pop\n      gas\n      call\n      iszero\n      dup1\n      iszero\n      tag_253\n      jumpi\n      returndatasize\n      0x00\n      dup1\n      returndatacopy\n      revert(0x00, returndatasize)\n    tag_253:\n      pop\n      pop\n      pop\n      pop\n        /* \"contracts/studentmanager/MangerPool.sol\":3444:3461  rewardDistributor */\n      0x03\n      0x00\n      swap1\n      sload\n      swap1\n      0x0100\n      exp\n      swap1\n      div\n      0xffffffffffffffffffffffffffffffffffffffff\n      and\n        /* \"contracts/studentmanager/MangerPool.sol\":3444:3484  rewardDistributor.addDistributorsAddress */\n      0xffffffffffffffffffffffffffffffffffffffff\n      and\n      0x05380898\n        /* \"contracts/studentmanager/MangerPool.sol\":3485:3500  missionContract */\n      dup4\n        /* \"contracts/studentmanager/MangerPool.sol\":3444:3501  rewardDistributor.addDistributorsAddress(missionContract) */\n      mload(0x40)\n      dup3\n      0xffffffff\n      and\n      0xe0\n      shl\n      dup2\n      mstore\n      0x04\n      add\n      tag_254\n      swap2\n      swap1\n      tag_61\n      jump\t// in\n    tag_254:\n      0x00\n      mload(0x40)\n      dup1\n      dup4\n      sub\n      dup2\n      0x00\n      dup8\n      dup1\n      extcodesize\n      iszero\n      dup1\n      iszero\n      tag_255\n      jumpi\n      0x00\n      dup1\n      revert\n    tag_255:\n      pop\n      gas\n      call\n      iszero\n      dup1\n      iszero\n      tag_257\n      jumpi\n      returndatasize\n      0x00\n      dup1\n      returndatacopy\n      revert(0x00, returndatasize)\n    tag_257:\n      pop\n      pop\n      pop\n      pop\n        /* \"contracts/studentmanager/MangerPool.sol\":2690:3509  {\r... */\n      pop\n      pop\n        /* \"contracts/studentmanager/MangerPool.sol\":2378:3509  function createNewMission(\r... */\n      pop\n      pop\n      pop\n      pop\n      pop\n      pop\n      pop\n      pop\n      jump\t// out\n        /* \"contracts/studentmanager/MangerPool.sol\":948:987  mapping(address => bool) public existed */\n    tag_86:\n      mstore(0x20, 0x05)\n      dup1\n      0x00\n      mstore\n      keccak256(0x00, 0x40)\n      0x00\n      swap2\n      pop\n      sload\n      swap1\n      0x0100\n      exp\n      swap1\n      div\n      0xff\n      and\n      dup2\n      jump\t// out\n        /* \"contracts/studentmanager/MangerPool.sol\":797:820  IFactory public factory */\n    tag_90:\n      0x01\n      0x00\n      swap1\n      sload\n      swap1\n      0x0100\n      exp\n      swap1\n      div\n      0xffffffffffffffffffffffffffffffffffffffff\n      and\n      dup2\n      jump\t// out\n        /* \"contracts/studentmanager/MangerPool.sol\":5593:6474  function createNewTuition(\r... */\n    tag_95:\n        /* \"contracts/studentmanager/MangerPool.sol\":1645:1659  accessControll */\n      0x02\n      0x00\n      swap1\n      sload\n      swap1\n      0x0100\n      exp\n      swap1\n      div\n      0xffffffffffffffffffffffffffffffffffffffff\n      and\n        /* \"contracts/studentmanager/MangerPool.sol\":1645:1667  accessControll.hasRole */\n      0xffffffffffffffffffffffffffffffffffffffff\n      and\n      0x91d14854\n        /* \"contracts/studentmanager/MangerPool.sol\":1668:1686  keccak256(\"ADMIN\") */\n      0xdf8b4c520ffe197c5343c6f5aec59570151ef9a492f2c624fd45ddde6135ec42\n        /* \"contracts/studentmanager/MangerPool.sol\":1688:1698  msg.sender */\n      caller\n        /* \"contracts/studentmanager/MangerPool.sol\":1645:1699  accessControll.hasRole(keccak256(\"ADMIN\"), msg.sender) */\n      mload(0x40)\n      dup4\n      0xffffffff\n      and\n      0xe0\n      shl\n      dup2\n      mstore\n      0x04\n      add\n      tag_259\n      swap3\n      swap2\n      swap1\n      tag_128\n      jump\t// in\n    tag_259:\n      0x20\n      mload(0x40)\n      dup1\n      dup4\n      sub\n      dup2\n      dup7\n      dup1\n      extcodesize\n      iszero\n      dup1\n      iszero\n      tag_260\n      jumpi\n      0x00\n      dup1\n      revert\n    tag_260:\n      pop\n      gas\n      staticcall\n      iszero\n      dup1\n      iszero\n      tag_262\n      jumpi\n      returndatasize\n      0x00\n      dup1\n      returndatacopy\n      revert(0x00, returndatasize)\n    tag_262:\n      pop\n      pop\n      pop\n      pop\n      mload(0x40)\n      returndatasize\n      not(0x1f)\n      0x1f\n      dup3\n      add\n      and\n      dup3\n      add\n      dup1\n      0x40\n      mstore\n      pop\n      dup2\n      add\n      swap1\n      tag_263\n      swap2\n      swap1\n      tag_133\n      jump\t// in\n    tag_263:\n        /* \"contracts/studentmanager/MangerPool.sol\":1623:1741  require(\r... */\n      tag_264\n      jumpi\n      mload(0x40)\n      0x08c379a000000000000000000000000000000000000000000000000000000000\n      dup2\n      mstore\n      0x04\n      add\n      tag_265\n      swap1\n      tag_161\n      jump\t// in\n    tag_265:\n      mload(0x40)\n      dup1\n      swap2\n      sub\n      swap1\n      revert\n    tag_264:\n        /* \"contracts/studentmanager/MangerPool.sol\":5783:5806  address tuitionContract */\n      0x00\n        /* \"contracts/studentmanager/MangerPool.sol\":5809:5816  factory */\n      0x01\n      0x00\n      swap1\n      sload\n      swap1\n      0x0100\n      exp\n      swap1\n      div\n      0xffffffffffffffffffffffffffffffffffffffff\n      and\n        /* \"contracts/studentmanager/MangerPool.sol\":5809:5833  factory.createNewTuition */\n      0xffffffffffffffffffffffffffffffffffffffff\n      and\n      0x029c6785\n        /* \"contracts/studentmanager/MangerPool.sol\":5856:5860  this */\n      address\n        /* \"contracts/studentmanager/MangerPool.sol\":5884:5898  accessControll */\n      0x02\n      0x00\n      swap1\n      sload\n      swap1\n      0x0100\n      exp\n      swap1\n      div\n      0xffffffffffffffffffffffffffffffffffffffff\n      and\n        /* \"contracts/studentmanager/MangerPool.sol\":5922:5939  rewardDistributor */\n      0x03\n      0x00\n      swap1\n      sload\n      swap1\n      0x0100\n      exp\n      swap1\n      div\n      0xffffffffffffffffffffffffffffffffffffffff\n      and\n        /* \"contracts/studentmanager/MangerPool.sol\":5809:5951  factory.createNewTuition(\r... */\n      mload(0x40)\n      dup5\n      0xffffffff\n      and\n      0xe0\n      shl\n      dup2\n      mstore\n      0x04\n      add\n      tag_267\n      swap4\n      swap3\n      swap2\n      swap1\n      tag_164\n      jump\t// in\n    tag_267:\n      0x20\n      mload(0x40)\n      dup1\n      dup4\n      sub\n      dup2\n      0x00\n      dup8\n      dup1\n      extcodesize\n      iszero\n      dup1\n      iszero\n      tag_268\n      jumpi\n      0x00\n      dup1\n      revert\n    tag_268:\n      pop\n      gas\n      call\n      iszero\n      dup1\n      iszero\n      tag_270\n      jumpi\n      returndatasize\n      0x00\n      dup1\n      returndatacopy\n      revert(0x00, returndatasize)\n    tag_270:\n      pop\n      pop\n      pop\n      pop\n      mload(0x40)\n      returndatasize\n      not(0x1f)\n      0x1f\n      dup3\n      add\n      and\n      dup3\n      add\n      dup1\n      0x40\n      mstore\n      pop\n      dup2\n      add\n      swap1\n      tag_271\n      swap2\n      swap1\n      tag_169\n      jump\t// in\n    tag_271:\n        /* \"contracts/studentmanager/MangerPool.sol\":5783:5951  address tuitionContract = factory.createNewTuition(\r... */\n      swap1\n      pop\n        /* \"contracts/studentmanager/MangerPool.sol\":5962:5967  pools */\n      0x04\n        /* \"contracts/studentmanager/MangerPool.sol\":5973:6010  Object(tuitionContract, Type.Tuition) */\n      mload(0x40)\n      dup1\n      0x40\n      add\n      0x40\n      mstore\n      dup1\n        /* \"contracts/studentmanager/MangerPool.sol\":5980:5995  tuitionContract */\n      dup4\n        /* \"contracts/studentmanager/MangerPool.sol\":5973:6010  Object(tuitionContract, Type.Tuition) */\n      0xffffffffffffffffffffffffffffffffffffffff\n      and\n      dup2\n      mstore\n      0x20\n      add\n        /* \"contracts/studentmanager/MangerPool.sol\":5997:6009  Type.Tuition */\n      0x03\n        /* \"contracts/studentmanager/MangerPool.sol\":5973:6010  Object(tuitionContract, Type.Tuition) */\n      dup1\n      dup2\n      gt\n      iszero\n      tag_272\n      jumpi\n      tag_273\n      tag_172\n      jump\t// in\n    tag_273:\n    tag_272:\n      dup2\n      mstore\n      pop\n        /* \"contracts/studentmanager/MangerPool.sol\":5962:6011  pools.push(Object(tuitionContract, Type.Tuition)) */\n      swap1\n      dup1\n      0x01\n      dup2\n      sload\n      add\n      dup1\n      dup3\n      sstore\n      dup1\n      swap2\n      pop\n      pop\n      0x01\n      swap1\n      sub\n      swap1\n      0x00\n      mstore\n      keccak256(0x00, 0x20)\n      add\n      0x00\n      swap1\n      swap2\n      swap1\n      swap2\n      swap1\n      swap2\n      pop\n      0x00\n      dup3\n      add\n      mload\n      dup2\n      0x00\n      add\n      exp(0x0100, 0x00)\n      dup2\n      sload\n      dup2\n      0xffffffffffffffffffffffffffffffffffffffff\n      mul\n      not\n      and\n      swap1\n      dup4\n      0xffffffffffffffffffffffffffffffffffffffff\n      and\n      mul\n      or\n      swap1\n      sstore\n      pop\n      0x20\n      dup3\n      add\n      mload\n      dup2\n      0x00\n      add\n      exp(0x0100, 0x14)\n      dup2\n      sload\n      dup2\n      0xff\n      mul\n      not\n      and\n      swap1\n      dup4\n      0x03\n      dup2\n      gt\n      iszero\n      tag_275\n      jumpi\n      tag_276\n      tag_172\n      jump\t// in\n    tag_276:\n    tag_275:\n      mul\n      or\n      swap1\n      sstore\n      pop\n      pop\n      pop\n        /* \"contracts/studentmanager/MangerPool.sol\":6049:6053  true */\n      0x01\n        /* \"contracts/studentmanager/MangerPool.sol\":6022:6029  existed */\n      0x05\n        /* \"contracts/studentmanager/MangerPool.sol\":6022:6046  existed[tuitionContract] */\n      0x00\n        /* \"contracts/studentmanager/MangerPool.sol\":6030:6045  tuitionContract */\n      dup4\n        /* \"contracts/studentmanager/MangerPool.sol\":6022:6046  existed[tuitionContract] */\n      0xffffffffffffffffffffffffffffffffffffffff\n      and\n      0xffffffffffffffffffffffffffffffffffffffff\n      and\n      dup2\n      mstore\n      0x20\n      add\n      swap1\n      dup2\n      mstore\n      0x20\n      add\n      0x00\n      keccak256\n      0x00\n        /* \"contracts/studentmanager/MangerPool.sol\":6022:6053  existed[tuitionContract] = true */\n      0x0100\n      exp\n      dup2\n      sload\n      dup2\n      0xff\n      mul\n      not\n      and\n      swap1\n      dup4\n      iszero\n      iszero\n      mul\n      or\n      swap1\n      sstore\n      pop\n        /* \"contracts/studentmanager/MangerPool.sol\":6064:6082  uint256 _tuitionId */\n      0x00\n        /* \"contracts/studentmanager/MangerPool.sol\":6085:6109  idCountTuition.current() */\n      tag_277\n        /* \"contracts/studentmanager/MangerPool.sol\":6085:6099  idCountTuition */\n      0x09\n        /* \"contracts/studentmanager/MangerPool.sol\":6085:6107  idCountTuition.current */\n      tag_177\n        /* \"contracts/studentmanager/MangerPool.sol\":6085:6109  idCountTuition.current() */\n      jump\t// in\n    tag_277:\n        /* \"contracts/studentmanager/MangerPool.sol\":6064:6109  uint256 _tuitionId = idCountTuition.current() */\n      swap1\n      pop\n        /* \"contracts/studentmanager/MangerPool.sol\":6120:6146  idCountTuition.increment() */\n      tag_278\n        /* \"contracts/studentmanager/MangerPool.sol\":6120:6134  idCountTuition */\n      0x09\n        /* \"contracts/studentmanager/MangerPool.sol\":6120:6144  idCountTuition.increment */\n      tag_179\n        /* \"contracts/studentmanager/MangerPool.sol\":6120:6146  idCountTuition.increment() */\n      jump\t// in\n    tag_278:\n        /* \"contracts/studentmanager/MangerPool.sol\":6174:6189  tuitionContract */\n      dup2\n        /* \"contracts/studentmanager/MangerPool.sol\":6157:6209  ITuitionContract(tuitionContract).setBasicForTuition */\n      0xffffffffffffffffffffffffffffffffffffffff\n      and\n      0x08003d6b\n        /* \"contracts/studentmanager/MangerPool.sol\":6224:6234  _tuitionId */\n      dup3\n        /* \"contracts/studentmanager/MangerPool.sol\":6249:6261  _urlMetadata */\n      dup9\n        /* \"contracts/studentmanager/MangerPool.sol\":6276:6287  _feeByToken */\n      dup9\n        /* \"contracts/studentmanager/MangerPool.sol\":6302:6312  _startTime */\n      dup9\n        /* \"contracts/studentmanager/MangerPool.sol\":6327:6335  _endTime */\n      dup9\n        /* \"contracts/studentmanager/MangerPool.sol\":6157:6346  ITuitionContract(tuitionContract).setBasicForTuition(\r... */\n      mload(0x40)\n      dup7\n      0xffffffff\n      and\n      0xe0\n      shl\n      dup2\n      mstore\n      0x04\n      add\n      tag_279\n      swap6\n      swap5\n      swap4\n      swap3\n      swap2\n      swap1\n      tag_181\n      jump\t// in\n    tag_279:\n      0x00\n      mload(0x40)\n      dup1\n      dup4\n      sub\n      dup2\n      0x00\n      dup8\n      dup1\n      extcodesize\n      iszero\n      dup1\n      iszero\n      tag_280\n      jumpi\n      0x00\n      dup1\n      revert\n    tag_280:\n      pop\n      gas\n      call\n      iszero\n      dup1\n      iszero\n      tag_282\n      jumpi\n      returndatasize\n      0x00\n      dup1\n      returndatacopy\n      revert(0x00, returndatasize)\n    tag_282:\n      pop\n      pop\n      pop\n      pop\n        /* \"contracts/studentmanager/MangerPool.sol\":6374:6389  tuitionContract */\n      dup2\n        /* \"contracts/studentmanager/MangerPool.sol\":6357:6396  ITuitionContract(tuitionContract).start */\n      0xffffffffffffffffffffffffffffffffffffffff\n      and\n      0xbe9a6555\n        /* \"contracts/studentmanager/MangerPool.sol\":6357:6398  ITuitionContract(tuitionContract).start() */\n      mload(0x40)\n      dup2\n      0xffffffff\n      and\n      0xe0\n      shl\n      dup2\n      mstore\n      0x04\n      add\n      0x00\n      mload(0x40)\n      dup1\n      dup4\n      sub\n      dup2\n      0x00\n      dup8\n      dup1\n      extcodesize\n      iszero\n      dup1\n      iszero\n      tag_283\n      jumpi\n      0x00\n      dup1\n      revert\n    tag_283:\n      pop\n      gas\n      call\n      iszero\n      dup1\n      iszero\n      tag_285\n      jumpi\n      returndatasize\n      0x00\n      dup1\n      returndatacopy\n      revert(0x00, returndatasize)\n    tag_285:\n      pop\n      pop\n      pop\n      pop\n        /* \"contracts/studentmanager/MangerPool.sol\":6409:6426  rewardDistributor */\n      0x03\n      0x00\n      swap1\n      sload\n      swap1\n      0x0100\n      exp\n      swap1\n      div\n      0xffffffffffffffffffffffffffffffffffffffff\n      and\n        /* \"contracts/studentmanager/MangerPool.sol\":6409:6449  rewardDistributor.addDistributorsAddress */\n      0xffffffffffffffffffffffffffffffffffffffff\n      and\n      0x05380898\n        /* \"contracts/studentmanager/MangerPool.sol\":6450:6465  tuitionContract */\n      dup4\n        /* \"contracts/studentmanager/MangerPool.sol\":6409:6466  rewardDistributor.addDistributorsAddress(tuitionContract) */\n      mload(0x40)\n      dup3\n      0xffffffff\n      and\n      0xe0\n      shl\n      dup2\n      mstore\n      0x04\n      add\n      tag_286\n      swap2\n      swap1\n      tag_61\n      jump\t// in\n    tag_286:\n      0x00\n      mload(0x40)\n      dup1\n      dup4\n      sub\n      dup2\n      0x00\n      dup8\n      dup1\n      extcodesize\n      iszero\n      dup1\n      iszero\n      tag_287\n      jumpi\n      0x00\n      dup1\n      revert\n    tag_287:\n      pop\n      gas\n      call\n      iszero\n      dup1\n      iszero\n      tag_289\n      jumpi\n      returndatasize\n      0x00\n      dup1\n      returndatacopy\n      revert(0x00, returndatasize)\n    tag_289:\n      pop\n      pop\n      pop\n      pop\n        /* \"contracts/studentmanager/MangerPool.sol\":5772:6474  {\r... */\n      pop\n      pop\n        /* \"contracts/studentmanager/MangerPool.sol\":5593:6474  function createNewTuition(\r... */\n      pop\n      pop\n      pop\n      pop\n      jump\t// out\n        /* \"contracts/studentmanager/MangerPool.sol\":6482:6618  function close(address pool) external onlyRoleAdmin {\r... */\n    tag_98:\n        /* \"contracts/studentmanager/MangerPool.sol\":1645:1659  accessControll */\n      0x02\n      0x00\n      swap1\n      sload\n      swap1\n      0x0100\n      exp\n      swap1\n      div\n      0xffffffffffffffffffffffffffffffffffffffff\n      and\n        /* \"contracts/studentmanager/MangerPool.sol\":1645:1667  accessControll.hasRole */\n      0xffffffffffffffffffffffffffffffffffffffff\n      and\n      0x91d14854\n        /* \"contracts/studentmanager/MangerPool.sol\":1668:1686  keccak256(\"ADMIN\") */\n      0xdf8b4c520ffe197c5343c6f5aec59570151ef9a492f2c624fd45ddde6135ec42\n        /* \"contracts/studentmanager/MangerPool.sol\":1688:1698  msg.sender */\n      caller\n        /* \"contracts/studentmanager/MangerPool.sol\":1645:1699  accessControll.hasRole(keccak256(\"ADMIN\"), msg.sender) */\n      mload(0x40)\n      dup4\n      0xffffffff\n      and\n      0xe0\n      shl\n      dup2\n      mstore\n      0x04\n      add\n      tag_291\n      swap3\n      swap2\n      swap1\n      tag_128\n      jump\t// in\n    tag_291:\n      0x20\n      mload(0x40)\n      dup1\n      dup4\n      sub\n      dup2\n      dup7\n      dup1\n      extcodesize\n      iszero\n      dup1\n      iszero\n      tag_292\n      jumpi\n      0x00\n      dup1\n      revert\n    tag_292:\n      pop\n      gas\n      staticcall\n      iszero\n      dup1\n      iszero\n      tag_294\n      jumpi\n      returndatasize\n      0x00\n      dup1\n      returndatacopy\n      revert(0x00, returndatasize)\n    tag_294:\n      pop\n      pop\n      pop\n      pop\n      mload(0x40)\n      returndatasize\n      not(0x1f)\n      0x1f\n      dup3\n      add\n      and\n      dup3\n      add\n      dup1\n      0x40\n      mstore\n      pop\n      dup2\n      add\n      swap1\n      tag_295\n      swap2\n      swap1\n      tag_133\n      jump\t// in\n    tag_295:\n        /* \"contracts/studentmanager/MangerPool.sol\":1623:1741  require(\r... */\n      tag_296\n      jumpi\n      mload(0x40)\n      0x08c379a000000000000000000000000000000000000000000000000000000000\n      dup2\n      mstore\n      0x04\n      add\n      tag_297\n      swap1\n      tag_161\n      jump\t// in\n    tag_297:\n      mload(0x40)\n      dup1\n      swap2\n      sub\n      swap1\n      revert\n    tag_296:\n        /* \"contracts/studentmanager/MangerPool.sol\":6562:6566  pool */\n      dup1\n        /* \"contracts/studentmanager/MangerPool.sol\":6545:6573  IGeneralContract(pool).close */\n      0xffffffffffffffffffffffffffffffffffffffff\n      and\n      0x43d726d6\n        /* \"contracts/studentmanager/MangerPool.sol\":6545:6575  IGeneralContract(pool).close() */\n      mload(0x40)\n      dup2\n      0xffffffff\n      and\n      0xe0\n      shl\n      dup2\n      mstore\n      0x04\n      add\n      0x00\n      mload(0x40)\n      dup1\n      dup4\n      sub\n      dup2\n      0x00\n      dup8\n      dup1\n      extcodesize\n      iszero\n      dup1\n      iszero\n      tag_299\n      jumpi\n      0x00\n      dup1\n      revert\n    tag_299:\n      pop\n      gas\n      call\n      iszero\n      dup1\n      iszero\n      tag_301\n      jumpi\n      returndatasize\n      0x00\n      dup1\n      returndatacopy\n      revert(0x00, returndatasize)\n    tag_301:\n      pop\n      pop\n      pop\n      pop\n        /* \"contracts/studentmanager/MangerPool.sol\":6586:6610  _removeDistributor(pool) */\n      tag_302\n        /* \"contracts/studentmanager/MangerPool.sol\":6605:6609  pool */\n      dup2\n        /* \"contracts/studentmanager/MangerPool.sol\":6586:6604  _removeDistributor */\n      tag_303\n        /* \"contracts/studentmanager/MangerPool.sol\":6586:6610  _removeDistributor(pool) */\n      jump\t// in\n    tag_302:\n        /* \"contracts/studentmanager/MangerPool.sol\":6482:6618  function close(address pool) external onlyRoleAdmin {\r... */\n      pop\n      jump\t// out\n        /* \"contracts/studentmanager/MangerPool.sol\":2199:2370  function addLecturerInfo(address lecturerAddr, string memory hashInfo)\r... */\n    tag_102:\n        /* \"contracts/studentmanager/MangerPool.sol\":1645:1659  accessControll */\n      0x02\n      0x00\n      swap1\n      sload\n      swap1\n      0x0100\n      exp\n      swap1\n      div\n      0xffffffffffffffffffffffffffffffffffffffff\n      and\n        /* \"contracts/studentmanager/MangerPool.sol\":1645:1667  accessControll.hasRole */\n      0xffffffffffffffffffffffffffffffffffffffff\n      and\n      0x91d14854\n        /* \"contracts/studentmanager/MangerPool.sol\":1668:1686  keccak256(\"ADMIN\") */\n      0xdf8b4c520ffe197c5343c6f5aec59570151ef9a492f2c624fd45ddde6135ec42\n        /* \"contracts/studentmanager/MangerPool.sol\":1688:1698  msg.sender */\n      caller\n        /* \"contracts/studentmanager/MangerPool.sol\":1645:1699  accessControll.hasRole(keccak256(\"ADMIN\"), msg.sender) */\n      mload(0x40)\n      dup4\n      0xffffffff\n      and\n      0xe0\n      shl\n      dup2\n      mstore\n      0x04\n      add\n      tag_305\n      swap3\n      swap2\n      swap1\n      tag_128\n      jump\t// in\n    tag_305:\n      0x20\n      mload(0x40)\n      dup1\n      dup4\n      sub\n      dup2\n      dup7\n      dup1\n      extcodesize\n      iszero\n      dup1\n      iszero\n      tag_306\n      jumpi\n      0x00\n      dup1\n      revert\n    tag_306:\n      pop\n      gas\n      staticcall\n      iszero\n      dup1\n      iszero\n      tag_308\n      jumpi\n      returndatasize\n      0x00\n      dup1\n      returndatacopy\n      revert(0x00, returndatasize)\n    tag_308:\n      pop\n      pop\n      pop\n      pop\n      mload(0x40)\n      returndatasize\n      not(0x1f)\n      0x1f\n      dup3\n      add\n      and\n      dup3\n      add\n      dup1\n      0x40\n      mstore\n      pop\n      dup2\n      add\n      swap1\n      tag_309\n      swap2\n      swap1\n      tag_133\n      jump\t// in\n    tag_309:\n        /* \"contracts/studentmanager/MangerPool.sol\":1623:1741  require(\r... */\n      tag_310\n      jumpi\n      mload(0x40)\n      0x08c379a000000000000000000000000000000000000000000000000000000000\n      dup2\n      mstore\n      0x04\n      add\n      tag_311\n      swap1\n      tag_161\n      jump\t// in\n    tag_311:\n      mload(0x40)\n      dup1\n      swap2\n      sub\n      swap1\n      revert\n    tag_310:\n        /* \"contracts/studentmanager/MangerPool.sol\":2354:2362  hashInfo */\n      dup1\n        /* \"contracts/studentmanager/MangerPool.sol\":2325:2337  lecturerInfo */\n      0x0b\n        /* \"contracts/studentmanager/MangerPool.sol\":2325:2351  lecturerInfo[lecturerAddr] */\n      0x00\n        /* \"contracts/studentmanager/MangerPool.sol\":2338:2350  lecturerAddr */\n      dup5\n        /* \"contracts/studentmanager/MangerPool.sol\":2325:2351  lecturerInfo[lecturerAddr] */\n      0xffffffffffffffffffffffffffffffffffffffff\n      and\n      0xffffffffffffffffffffffffffffffffffffffff\n      and\n      dup2\n      mstore\n      0x20\n      add\n      swap1\n      dup2\n      mstore\n      0x20\n      add\n      0x00\n      keccak256\n        /* \"contracts/studentmanager/MangerPool.sol\":2325:2362  lecturerInfo[lecturerAddr] = hashInfo */\n      swap1\n      dup1\n      mload\n      swap1\n      0x20\n      add\n      swap1\n      tag_313\n      swap3\n      swap2\n      swap1\n      tag_139\n      jump\t// in\n    tag_313:\n      pop\n        /* \"contracts/studentmanager/MangerPool.sol\":2199:2370  function addLecturerInfo(address lecturerAddr, string memory hashInfo)\r... */\n      pop\n      pop\n      jump\t// out\n        /* \"contracts/studentmanager/MangerPool.sol\":1039:1077  Counters.Counter public idCountSubject */\n    tag_104:\n      0x07\n      dup1\n      0x00\n      add\n      sload\n      swap1\n      pop\n      dup2\n      jump\t// out\n        /* \"contracts/studentmanager/MangerPool.sol\":1133:1171  Counters.Counter public idCountTuition */\n    tag_107:\n      0x09\n      dup1\n      0x00\n      add\n      sload\n      swap1\n      pop\n      dup2\n      jump\t// out\n        /* \"@openzeppelin/contracts/access/Ownable.sol\":1918:2116  function transferOwnership(address newOwner) public virtual onlyOwner {... */\n    tag_111:\n        /* \"@openzeppelin/contracts/access/Ownable.sol\":1259:1271  _msgSender() */\n      tag_315\n        /* \"@openzeppelin/contracts/access/Ownable.sol\":1259:1269  _msgSender */\n      tag_120\n        /* \"@openzeppelin/contracts/access/Ownable.sol\":1259:1271  _msgSender() */\n      jump\t// in\n    tag_315:\n        /* \"@openzeppelin/contracts/access/Ownable.sol\":1248:1271  owner() == _msgSender() */\n      0xffffffffffffffffffffffffffffffffffffffff\n      and\n        /* \"@openzeppelin/contracts/access/Ownable.sol\":1248:1255  owner() */\n      tag_316\n        /* \"@openzeppelin/contracts/access/Ownable.sol\":1248:1253  owner */\n      tag_59\n        /* \"@openzeppelin/contracts/access/Ownable.sol\":1248:1255  owner() */\n      jump\t// in\n    tag_316:\n        /* \"@openzeppelin/contracts/access/Ownable.sol\":1248:1271  owner() == _msgSender() */\n      0xffffffffffffffffffffffffffffffffffffffff\n      and\n      eq\n        /* \"@openzeppelin/contracts/access/Ownable.sol\":1240:1308  require(owner() == _msgSender(), \"Ownable: caller is not the owner\") */\n      tag_317\n      jumpi\n      mload(0x40)\n      0x08c379a000000000000000000000000000000000000000000000000000000000\n      dup2\n      mstore\n      0x04\n      add\n      tag_318\n      swap1\n      tag_124\n      jump\t// in\n    tag_318:\n      mload(0x40)\n      dup1\n      swap2\n      sub\n      swap1\n      revert\n    tag_317:\n        /* \"@openzeppelin/contracts/access/Ownable.sol\":2026:2027  0 */\n      0x00\n        /* \"@openzeppelin/contracts/access/Ownable.sol\":2006:2028  newOwner != address(0) */\n      0xffffffffffffffffffffffffffffffffffffffff\n      and\n        /* \"@openzeppelin/contracts/access/Ownable.sol\":2006:2014  newOwner */\n      dup2\n        /* \"@openzeppelin/contracts/access/Ownable.sol\":2006:2028  newOwner != address(0) */\n      0xffffffffffffffffffffffffffffffffffffffff\n      and\n      eq\n      iszero\n        /* \"@openzeppelin/contracts/access/Ownable.sol\":1998:2071  require(newOwner != address(0), \"Ownable: new owner is the zero address\") */\n      tag_320\n      jumpi\n      mload(0x40)\n      0x08c379a000000000000000000000000000000000000000000000000000000000\n      dup2\n      mstore\n      0x04\n      add\n      tag_321\n      swap1\n      tag_322\n      jump\t// in\n    tag_321:\n      mload(0x40)\n      dup1\n      swap2\n      sub\n      swap1\n      revert\n    tag_320:\n        /* \"@openzeppelin/contracts/access/Ownable.sol\":2081:2109  _transferOwnership(newOwner) */\n      tag_323\n        /* \"@openzeppelin/contracts/access/Ownable.sol\":2100:2108  newOwner */\n      dup2\n        /* \"@openzeppelin/contracts/access/Ownable.sol\":2081:2099  _transferOwnership */\n      tag_147\n        /* \"@openzeppelin/contracts/access/Ownable.sol\":2081:2109  _transferOwnership(newOwner) */\n      jump\t// in\n    tag_323:\n        /* \"@openzeppelin/contracts/access/Ownable.sol\":1918:2116  function transferOwnership(address newOwner) public virtual onlyOwner {... */\n      pop\n      jump\t// out\n        /* \"@openzeppelin/contracts/utils/Context.sol\":640:736  function _msgSender() internal view virtual returns (address) {... */\n    tag_120:\n        /* \"@openzeppelin/contracts/utils/Context.sol\":693:700  address */\n      0x00\n        /* \"@openzeppelin/contracts/utils/Context.sol\":719:729  msg.sender */\n      caller\n        /* \"@openzeppelin/contracts/utils/Context.sol\":712:729  return msg.sender */\n      swap1\n      pop\n        /* \"@openzeppelin/contracts/utils/Context.sol\":640:736  function _msgSender() internal view virtual returns (address) {... */\n      swap1\n      jump\t// out\n        /* \"@openzeppelin/contracts/access/Ownable.sol\":2270:2457  function _transferOwnership(address newOwner) internal virtual {... */\n    tag_147:\n        /* \"@openzeppelin/contracts/access/Ownable.sol\":2343:2359  address oldOwner */\n      0x00\n        /* \"@openzeppelin/contracts/access/Ownable.sol\":2362:2368  _owner */\n      dup1\n      0x00\n      swap1\n      sload\n      swap1\n      0x0100\n      exp\n      swap1\n      div\n      0xffffffffffffffffffffffffffffffffffffffff\n      and\n        /* \"@openzeppelin/contracts/access/Ownable.sol\":2343:2368  address oldOwner = _owner */\n      swap1\n      pop\n        /* \"@openzeppelin/contracts/access/Ownable.sol\":2387:2395  newOwner */\n      dup2\n        /* \"@openzeppelin/contracts/access/Ownable.sol\":2378:2384  _owner */\n      0x00\n      dup1\n        /* \"@openzeppelin/contracts/access/Ownable.sol\":2378:2395  _owner = newOwner */\n      0x0100\n      exp\n      dup2\n      sload\n      dup2\n      0xffffffffffffffffffffffffffffffffffffffff\n      mul\n      not\n      and\n      swap1\n      dup4\n      0xffffffffffffffffffffffffffffffffffffffff\n      and\n      mul\n      or\n      swap1\n      sstore\n      pop\n        /* \"@openzeppelin/contracts/access/Ownable.sol\":2441:2449  newOwner */\n      dup2\n        /* \"@openzeppelin/contracts/access/Ownable.sol\":2410:2450  OwnershipTransferred(oldOwner, newOwner) */\n      0xffffffffffffffffffffffffffffffffffffffff\n      and\n        /* \"@openzeppelin/contracts/access/Ownable.sol\":2431:2439  oldOwner */\n      dup2\n        /* \"@openzeppelin/contracts/access/Ownable.sol\":2410:2450  OwnershipTransferred(oldOwner, newOwner) */\n      0xffffffffffffffffffffffffffffffffffffffff\n      and\n      0x8be0079c531659141344cd1fd0a4f28419497f9722a3daafe3b4186f6b6457e0\n      mload(0x40)\n      mload(0x40)\n      dup1\n      swap2\n      sub\n      swap1\n      log3\n        /* \"@openzeppelin/contracts/access/Ownable.sol\":2333:2457  {... */\n      pop\n        /* \"@openzeppelin/contracts/access/Ownable.sol\":2270:2457  function _transferOwnership(address newOwner) internal virtual {... */\n      pop\n      jump\t// out\n        /* \"@openzeppelin/contracts/utils/Counters.sol\":827:939  function current(Counter storage counter) internal view returns (uint256) {... */\n    tag_177:\n        /* \"@openzeppelin/contracts/utils/Counters.sol\":892:899  uint256 */\n      0x00\n        /* \"@openzeppelin/contracts/utils/Counters.sol\":918:925  counter */\n      dup2\n        /* \"@openzeppelin/contracts/utils/Counters.sol\":918:932  counter._value */\n      0x00\n      add\n      sload\n        /* \"@openzeppelin/contracts/utils/Counters.sol\":911:932  return counter._value */\n      swap1\n      pop\n        /* \"@openzeppelin/contracts/utils/Counters.sol\":827:939  function current(Counter storage counter) internal view returns (uint256) {... */\n      swap2\n      swap1\n      pop\n      jump\t// out\n        /* \"@openzeppelin/contracts/utils/Counters.sol\":945:1068  function increment(Counter storage counter) internal {... */\n    tag_179:\n        /* \"@openzeppelin/contracts/utils/Counters.sol\":1050:1051  1 */\n      0x01\n        /* \"@openzeppelin/contracts/utils/Counters.sol\":1032:1039  counter */\n      dup2\n        /* \"@openzeppelin/contracts/utils/Counters.sol\":1032:1046  counter._value */\n      0x00\n      add\n      0x00\n        /* \"@openzeppelin/contracts/utils/Counters.sol\":1032:1051  counter._value += 1 */\n      dup3\n      dup3\n      sload\n      add\n      swap3\n      pop\n      pop\n      dup2\n      swap1\n      sstore\n      pop\n        /* \"@openzeppelin/contracts/utils/Counters.sol\":945:1068  function increment(Counter storage counter) internal {... */\n      pop\n      jump\t// out\n        /* \"contracts/studentmanager/MangerPool.sol\":6626:6791  function _removeDistributor(address pool) private onlyRoleAdmin {\r... */\n    tag_303:\n        /* \"contracts/studentmanager/MangerPool.sol\":1645:1659  accessControll */\n      0x02\n      0x00\n      swap1\n      sload\n      swap1\n      0x0100\n      exp\n      swap1\n      div\n      0xffffffffffffffffffffffffffffffffffffffff\n      and\n        /* \"contracts/studentmanager/MangerPool.sol\":1645:1667  accessControll.hasRole */\n      0xffffffffffffffffffffffffffffffffffffffff\n      and\n      0x91d14854\n        /* \"contracts/studentmanager/MangerPool.sol\":1668:1686  keccak256(\"ADMIN\") */\n      0xdf8b4c520ffe197c5343c6f5aec59570151ef9a492f2c624fd45ddde6135ec42\n        /* \"contracts/studentmanager/MangerPool.sol\":1688:1698  msg.sender */\n      caller\n        /* \"contracts/studentmanager/MangerPool.sol\":1645:1699  accessControll.hasRole(keccak256(\"ADMIN\"), msg.sender) */\n      mload(0x40)\n      dup4\n      0xffffffff\n      and\n      0xe0\n      shl\n      dup2\n      mstore\n      0x04\n      add\n      tag_329\n      swap3\n      swap2\n      swap1\n      tag_128\n      jump\t// in\n    tag_329:\n      0x20\n      mload(0x40)\n      dup1\n      dup4\n      sub\n      dup2\n      dup7\n      dup1\n      extcodesize\n      iszero\n      dup1\n      iszero\n      tag_330\n      jumpi\n      0x00\n      dup1\n      revert\n    tag_330:\n      pop\n      gas\n      staticcall\n      iszero\n      dup1\n      iszero\n      tag_332\n      jumpi\n      returndatasize\n      0x00\n      dup1\n      returndatacopy\n      revert(0x00, returndatasize)\n    tag_332:\n      pop\n      pop\n      pop\n      pop\n      mload(0x40)\n      returndatasize\n      not(0x1f)\n      0x1f\n      dup3\n      add\n      and\n      dup3\n      add\n      dup1\n      0x40\n      mstore\n      pop\n      dup2\n      add\n      swap1\n      tag_333\n      swap2\n      swap1\n      tag_133\n      jump\t// in\n    tag_333:\n        /* \"contracts/studentmanager/MangerPool.sol\":1623:1741  require(\r... */\n      tag_334\n      jumpi\n      mload(0x40)\n      0x08c379a000000000000000000000000000000000000000000000000000000000\n      dup2\n      mstore\n      0x04\n      add\n      tag_335\n      swap1\n      tag_161\n      jump\t// in\n    tag_335:\n      mload(0x40)\n      dup1\n      swap2\n      sub\n      swap1\n      revert\n    tag_334:\n        /* \"contracts/studentmanager/MangerPool.sol\":6709:6716  existed */\n      0x05\n        /* \"contracts/studentmanager/MangerPool.sol\":6709:6722  existed[pool] */\n      0x00\n        /* \"contracts/studentmanager/MangerPool.sol\":6717:6721  pool */\n      dup3\n        /* \"contracts/studentmanager/MangerPool.sol\":6709:6722  existed[pool] */\n      0xffffffffffffffffffffffffffffffffffffffff\n      and\n      0xffffffffffffffffffffffffffffffffffffffff\n      and\n      dup2\n      mstore\n      0x20\n      add\n      swap1\n      dup2\n      mstore\n      0x20\n      add\n      0x00\n      keccak256\n      0x00\n      swap1\n      sload\n      swap1\n      0x0100\n      exp\n      swap1\n      div\n      0xff\n      and\n        /* \"contracts/studentmanager/MangerPool.sol\":6701:6723  require(existed[pool]) */\n      tag_337\n      jumpi\n      0x00\n      dup1\n      revert\n    tag_337:\n        /* \"contracts/studentmanager/MangerPool.sol\":6734:6751  rewardDistributor */\n      0x03\n      0x00\n      swap1\n      sload\n      swap1\n      0x0100\n      exp\n      swap1\n      div\n      0xffffffffffffffffffffffffffffffffffffffff\n      and\n        /* \"contracts/studentmanager/MangerPool.sol\":6734:6777  rewardDistributor.removeDistributorsAddress */\n      0xffffffffffffffffffffffffffffffffffffffff\n      and\n      0x3cb7b3bb\n        /* \"contracts/studentmanager/MangerPool.sol\":6778:6782  pool */\n      dup3\n        /* \"contracts/studentmanager/MangerPool.sol\":6734:6783  rewardDistributor.removeDistributorsAddress(pool) */\n      mload(0x40)\n      dup3\n      0xffffffff\n      and\n      0xe0\n      shl\n      dup2\n      mstore\n      0x04\n      add\n      tag_338\n      swap2\n      swap1\n      tag_61\n      jump\t// in\n    tag_338:\n      0x00\n      mload(0x40)\n      dup1\n      dup4\n      sub\n      dup2\n      0x00\n      dup8\n      dup1\n      extcodesize\n      iszero\n      dup1\n      iszero\n      tag_339\n      jumpi\n      0x00\n      dup1\n      revert\n    tag_339:\n      pop\n      gas\n      call\n      iszero\n      dup1\n      iszero\n      tag_341\n      jumpi\n      returndatasize\n      0x00\n      dup1\n      returndatacopy\n      revert(0x00, returndatasize)\n    tag_341:\n      pop\n      pop\n      pop\n      pop\n        /* \"contracts/studentmanager/MangerPool.sol\":6626:6791  function _removeDistributor(address pool) private onlyRoleAdmin {\r... */\n      pop\n      jump\t// out\n    tag_139:\n      dup3\n      dup1\n      sload\n      tag_342\n      swap1\n      tag_113\n      jump\t// in\n    tag_342:\n      swap1\n      0x00\n      mstore\n      keccak256(0x00, 0x20)\n      swap1\n      0x1f\n      add\n      0x20\n      swap1\n      div\n      dup2\n      add\n      swap3\n      dup3\n      tag_344\n      jumpi\n      0x00\n      dup6\n      sstore\n      jump(tag_343)\n    tag_344:\n      dup3\n      0x1f\n      lt\n      tag_345\n      jumpi\n      dup1\n      mload\n      not(0xff)\n      and\n      dup4\n      dup1\n      add\n      or\n      dup6\n      sstore\n      jump(tag_343)\n    tag_345:\n      dup3\n      dup1\n      add\n      0x01\n      add\n      dup6\n      sstore\n      dup3\n      iszero\n      tag_343\n      jumpi\n      swap2\n      dup3\n      add\n    tag_346:\n      dup3\n      dup2\n      gt\n      iszero\n      tag_347\n      jumpi\n      dup3\n      mload\n      dup3\n      sstore\n      swap2\n      0x20\n      add\n      swap2\n      swap1\n      0x01\n      add\n      swap1\n      jump(tag_346)\n    tag_347:\n    tag_343:\n      pop\n      swap1\n      pop\n      tag_348\n      swap2\n      swap1\n      tag_349\n      jump\t// in\n    tag_348:\n      pop\n      swap1\n      jump\t// out\n    tag_349:\n    tag_350:\n      dup1\n      dup3\n      gt\n      iszero\n      tag_351\n      jumpi\n      0x00\n      dup2\n      0x00\n      swap1\n      sstore\n      pop\n      0x01\n      add\n      jump(tag_350)\n    tag_351:\n      pop\n      swap1\n      jump\t// out\n        /* \"#utility.yul\":7:419   */\n    tag_353:\n        /* \"#utility.yul\":85:90   */\n      0x00\n        /* \"#utility.yul\":110:176   */\n      tag_355\n        /* \"#utility.yul\":126:175   */\n      tag_356\n        /* \"#utility.yul\":168:174   */\n      dup5\n        /* \"#utility.yul\":126:175   */\n      tag_357\n      jump\t// in\n    tag_356:\n        /* \"#utility.yul\":110:176   */\n      tag_358\n      jump\t// in\n    tag_355:\n        /* \"#utility.yul\":101:176   */\n      swap1\n      pop\n        /* \"#utility.yul\":199:205   */\n      dup3\n        /* \"#utility.yul\":192:197   */\n      dup2\n        /* \"#utility.yul\":185:206   */\n      mstore\n        /* \"#utility.yul\":237:241   */\n      0x20\n        /* \"#utility.yul\":230:235   */\n      dup2\n        /* \"#utility.yul\":226:242   */\n      add\n        /* \"#utility.yul\":275:278   */\n      dup5\n        /* \"#utility.yul\":266:272   */\n      dup5\n        /* \"#utility.yul\":261:264   */\n      dup5\n        /* \"#utility.yul\":257:273   */\n      add\n        /* \"#utility.yul\":254:279   */\n      gt\n        /* \"#utility.yul\":251:363   */\n      iszero\n      tag_359\n      jumpi\n        /* \"#utility.yul\":282:361   */\n      tag_360\n      tag_361\n      jump\t// in\n    tag_360:\n        /* \"#utility.yul\":251:363   */\n    tag_359:\n        /* \"#utility.yul\":372:413   */\n      tag_362\n        /* \"#utility.yul\":406:412   */\n      dup5\n        /* \"#utility.yul\":401:404   */\n      dup3\n        /* \"#utility.yul\":396:399   */\n      dup6\n        /* \"#utility.yul\":372:413   */\n      tag_363\n      jump\t// in\n    tag_362:\n        /* \"#utility.yul\":91:419   */\n      pop\n        /* \"#utility.yul\":7:419   */\n      swap4\n      swap3\n      pop\n      pop\n      pop\n      jump\t// out\n        /* \"#utility.yul\":425:564   */\n    tag_364:\n        /* \"#utility.yul\":471:476   */\n      0x00\n        /* \"#utility.yul\":509:515   */\n      dup2\n        /* \"#utility.yul\":496:516   */\n      calldataload\n        /* \"#utility.yul\":487:516   */\n      swap1\n      pop\n        /* \"#utility.yul\":525:558   */\n      tag_366\n        /* \"#utility.yul\":552:557   */\n      dup2\n        /* \"#utility.yul\":525:558   */\n      tag_367\n      jump\t// in\n    tag_366:\n        /* \"#utility.yul\":425:564   */\n      swap3\n      swap2\n      pop\n      pop\n      jump\t// out\n        /* \"#utility.yul\":570:713   */\n    tag_368:\n        /* \"#utility.yul\":627:632   */\n      0x00\n        /* \"#utility.yul\":658:664   */\n      dup2\n        /* \"#utility.yul\":652:665   */\n      mload\n        /* \"#utility.yul\":643:665   */\n      swap1\n      pop\n        /* \"#utility.yul\":674:707   */\n      tag_370\n        /* \"#utility.yul\":701:706   */\n      dup2\n        /* \"#utility.yul\":674:707   */\n      tag_367\n      jump\t// in\n    tag_370:\n        /* \"#utility.yul\":570:713   */\n      swap3\n      swap2\n      pop\n      pop\n      jump\t// out\n        /* \"#utility.yul\":719:856   */\n    tag_371:\n        /* \"#utility.yul\":773:778   */\n      0x00\n        /* \"#utility.yul\":804:810   */\n      dup2\n        /* \"#utility.yul\":798:811   */\n      mload\n        /* \"#utility.yul\":789:811   */\n      swap1\n      pop\n        /* \"#utility.yul\":820:850   */\n      tag_373\n        /* \"#utility.yul\":844:849   */\n      dup2\n        /* \"#utility.yul\":820:850   */\n      tag_374\n      jump\t// in\n    tag_373:\n        /* \"#utility.yul\":719:856   */\n      swap3\n      swap2\n      pop\n      pop\n      jump\t// out\n        /* \"#utility.yul\":876:1216   */\n    tag_375:\n        /* \"#utility.yul\":932:937   */\n      0x00\n        /* \"#utility.yul\":981:984   */\n      dup3\n        /* \"#utility.yul\":974:978   */\n      0x1f\n        /* \"#utility.yul\":966:972   */\n      dup4\n        /* \"#utility.yul\":962:979   */\n      add\n        /* \"#utility.yul\":958:985   */\n      slt\n        /* \"#utility.yul\":948:1070   */\n      tag_377\n      jumpi\n        /* \"#utility.yul\":989:1068   */\n      tag_378\n      tag_379\n      jump\t// in\n    tag_378:\n        /* \"#utility.yul\":948:1070   */\n    tag_377:\n        /* \"#utility.yul\":1106:1112   */\n      dup2\n        /* \"#utility.yul\":1093:1113   */\n      calldataload\n        /* \"#utility.yul\":1131:1210   */\n      tag_380\n        /* \"#utility.yul\":1206:1209   */\n      dup5\n        /* \"#utility.yul\":1198:1204   */\n      dup3\n        /* \"#utility.yul\":1191:1195   */\n      0x20\n        /* \"#utility.yul\":1183:1189   */\n      dup7\n        /* \"#utility.yul\":1179:1196   */\n      add\n        /* \"#utility.yul\":1131:1210   */\n      tag_353\n      jump\t// in\n    tag_380:\n        /* \"#utility.yul\":1122:1210   */\n      swap2\n      pop\n        /* \"#utility.yul\":938:1216   */\n      pop\n        /* \"#utility.yul\":876:1216   */\n      swap3\n      swap2\n      pop\n      pop\n      jump\t// out\n        /* \"#utility.yul\":1222:1361   */\n    tag_381:\n        /* \"#utility.yul\":1268:1273   */\n      0x00\n        /* \"#utility.yul\":1306:1312   */\n      dup2\n        /* \"#utility.yul\":1293:1313   */\n      calldataload\n        /* \"#utility.yul\":1284:1313   */\n      swap1\n      pop\n        /* \"#utility.yul\":1322:1355   */\n      tag_383\n        /* \"#utility.yul\":1349:1354   */\n      dup2\n        /* \"#utility.yul\":1322:1355   */\n      tag_384\n      jump\t// in\n    tag_383:\n        /* \"#utility.yul\":1222:1361   */\n      swap3\n      swap2\n      pop\n      pop\n      jump\t// out\n        /* \"#utility.yul\":1367:1696   */\n    tag_37:\n        /* \"#utility.yul\":1426:1432   */\n      0x00\n        /* \"#utility.yul\":1475:1477   */\n      0x20\n        /* \"#utility.yul\":1463:1472   */\n      dup3\n        /* \"#utility.yul\":1454:1461   */\n      dup5\n        /* \"#utility.yul\":1450:1473   */\n      sub\n        /* \"#utility.yul\":1446:1478   */\n      slt\n        /* \"#utility.yul\":1443:1562   */\n      iszero\n      tag_386\n      jumpi\n        /* \"#utility.yul\":1481:1560   */\n      tag_387\n      tag_388\n      jump\t// in\n    tag_387:\n        /* \"#utility.yul\":1443:1562   */\n    tag_386:\n        /* \"#utility.yul\":1601:1602   */\n      0x00\n        /* \"#utility.yul\":1626:1679   */\n      tag_389\n        /* \"#utility.yul\":1671:1678   */\n      dup5\n        /* \"#utility.yul\":1662:1668   */\n      dup3\n        /* \"#utility.yul\":1651:1660   */\n      dup6\n        /* \"#utility.yul\":1647:1669   */\n      add\n        /* \"#utility.yul\":1626:1679   */\n      tag_364\n      jump\t// in\n    tag_389:\n        /* \"#utility.yul\":1616:1679   */\n      swap2\n      pop\n        /* \"#utility.yul\":1572:1689   */\n      pop\n        /* \"#utility.yul\":1367:1696   */\n      swap3\n      swap2\n      pop\n      pop\n      jump\t// out\n        /* \"#utility.yul\":1702:2053   */\n    tag_169:\n        /* \"#utility.yul\":1772:1778   */\n      0x00\n        /* \"#utility.yul\":1821:1823   */\n      0x20\n        /* \"#utility.yul\":1809:1818   */\n      dup3\n        /* \"#utility.yul\":1800:1807   */\n      dup5\n        /* \"#utility.yul\":1796:1819   */\n      sub\n        /* \"#utility.yul\":1792:1824   */\n      slt\n        /* \"#utility.yul\":1789:1908   */\n      iszero\n      tag_391\n      jumpi\n        /* \"#utility.yul\":1827:1906   */\n      tag_392\n      tag_388\n      jump\t// in\n    tag_392:\n        /* \"#utility.yul\":1789:1908   */\n    tag_391:\n        /* \"#utility.yul\":1947:1948   */\n      0x00\n        /* \"#utility.yul\":1972:2036   */\n      tag_393\n        /* \"#utility.yul\":2028:2035   */\n      dup5\n        /* \"#utility.yul\":2019:2025   */\n      dup3\n        /* \"#utility.yul\":2008:2017   */\n      dup6\n        /* \"#utility.yul\":2004:2026   */\n      add\n        /* \"#utility.yul\":1972:2036   */\n      tag_368\n      jump\t// in\n    tag_393:\n        /* \"#utility.yul\":1962:2036   */\n      swap2\n      pop\n        /* \"#utility.yul\":1918:2046   */\n      pop\n        /* \"#utility.yul\":1702:2053   */\n      swap3\n      swap2\n      pop\n      pop\n      jump\t// out\n        /* \"#utility.yul\":2059:2713   */\n    tag_101:\n        /* \"#utility.yul\":2137:2143   */\n      0x00\n        /* \"#utility.yul\":2145:2151   */\n      dup1\n        /* \"#utility.yul\":2194:2196   */\n      0x40\n        /* \"#utility.yul\":2182:2191   */\n      dup4\n        /* \"#utility.yul\":2173:2180   */\n      dup6\n        /* \"#utility.yul\":2169:2192   */\n      sub\n        /* \"#utility.yul\":2165:2197   */\n      slt\n        /* \"#utility.yul\":2162:2281   */\n      iszero\n      tag_395\n      jumpi\n        /* \"#utility.yul\":2200:2279   */\n      tag_396\n      tag_388\n      jump\t// in\n    tag_396:\n        /* \"#utility.yul\":2162:2281   */\n    tag_395:\n        /* \"#utility.yul\":2320:2321   */\n      0x00\n        /* \"#utility.yul\":2345:2398   */\n      tag_397\n        /* \"#utility.yul\":2390:2397   */\n      dup6\n        /* \"#utility.yul\":2381:2387   */\n      dup3\n        /* \"#utility.yul\":2370:2379   */\n      dup7\n        /* \"#utility.yul\":2366:2388   */\n      add\n        /* \"#utility.yul\":2345:2398   */\n      tag_364\n      jump\t// in\n    tag_397:\n        /* \"#utility.yul\":2335:2398   */\n      swap3\n      pop\n        /* \"#utility.yul\":2291:2408   */\n      pop\n        /* \"#utility.yul\":2475:2477   */\n      0x20\n        /* \"#utility.yul\":2464:2473   */\n      dup4\n        /* \"#utility.yul\":2460:2478   */\n      add\n        /* \"#utility.yul\":2447:2479   */\n      calldataload\n        /* \"#utility.yul\":2506:2524   */\n      0xffffffffffffffff\n        /* \"#utility.yul\":2498:2504   */\n      dup2\n        /* \"#utility.yul\":2495:2525   */\n      gt\n        /* \"#utility.yul\":2492:2609   */\n      iszero\n      tag_398\n      jumpi\n        /* \"#utility.yul\":2528:2607   */\n      tag_399\n      tag_400\n      jump\t// in\n    tag_399:\n        /* \"#utility.yul\":2492:2609   */\n    tag_398:\n        /* \"#utility.yul\":2633:2696   */\n      tag_401\n        /* \"#utility.yul\":2688:2695   */\n      dup6\n        /* \"#utility.yul\":2679:2685   */\n      dup3\n        /* \"#utility.yul\":2668:2677   */\n      dup7\n        /* \"#utility.yul\":2664:2686   */\n      add\n        /* \"#utility.yul\":2633:2696   */\n      tag_375\n      jump\t// in\n    tag_401:\n        /* \"#utility.yul\":2623:2696   */\n      swap2\n      pop\n        /* \"#utility.yul\":2418:2706   */\n      pop\n        /* \"#utility.yul\":2059:2713   */\n      swap3\n      pop\n      swap3\n      swap1\n      pop\n      jump\t// out\n        /* \"#utility.yul\":2719:3064   */\n    tag_133:\n        /* \"#utility.yul\":2786:2792   */\n      0x00\n        /* \"#utility.yul\":2835:2837   */\n      0x20\n        /* \"#utility.yul\":2823:2832   */\n      dup3\n        /* \"#utility.yul\":2814:2821   */\n      dup5\n        /* \"#utility.yul\":2810:2833   */\n      sub\n        /* \"#utility.yul\":2806:2838   */\n      slt\n        /* \"#utility.yul\":2803:2922   */\n      iszero\n      tag_403\n      jumpi\n        /* \"#utility.yul\":2841:2920   */\n      tag_404\n      tag_388\n      jump\t// in\n    tag_404:\n        /* \"#utility.yul\":2803:2922   */\n    tag_403:\n        /* \"#utility.yul\":2961:2962   */\n      0x00\n        /* \"#utility.yul\":2986:3047   */\n      tag_405\n        /* \"#utility.yul\":3039:3046   */\n      dup5\n        /* \"#utility.yul\":3030:3036   */\n      dup3\n        /* \"#utility.yul\":3019:3028   */\n      dup6\n        /* \"#utility.yul\":3015:3037   */\n      add\n        /* \"#utility.yul\":2986:3047   */\n      tag_371\n      jump\t// in\n    tag_405:\n        /* \"#utility.yul\":2976:3047   */\n      swap2\n      pop\n        /* \"#utility.yul\":2932:3057   */\n      pop\n        /* \"#utility.yul\":2719:3064   */\n      swap3\n      swap2\n      pop\n      pop\n      jump\t// out\n        /* \"#utility.yul\":3070:3579   */\n    tag_46:\n        /* \"#utility.yul\":3139:3145   */\n      0x00\n        /* \"#utility.yul\":3188:3190   */\n      0x20\n        /* \"#utility.yul\":3176:3185   */\n      dup3\n        /* \"#utility.yul\":3167:3174   */\n      dup5\n        /* \"#utility.yul\":3163:3186   */\n      sub\n        /* \"#utility.yul\":3159:3191   */\n      slt\n        /* \"#utility.yul\":3156:3275   */\n      iszero\n      tag_407\n      jumpi\n        /* \"#utility.yul\":3194:3273   */\n      tag_408\n      tag_388\n      jump\t// in\n    tag_408:\n        /* \"#utility.yul\":3156:3275   */\n    tag_407:\n        /* \"#utility.yul\":3342:3343   */\n      0x00\n        /* \"#utility.yul\":3331:3340   */\n      dup3\n        /* \"#utility.yul\":3327:3344   */\n      add\n        /* \"#utility.yul\":3314:3345   */\n      calldataload\n        /* \"#utility.yul\":3372:3390   */\n      0xffffffffffffffff\n        /* \"#utility.yul\":3364:3370   */\n      dup2\n        /* \"#utility.yul\":3361:3391   */\n      gt\n        /* \"#utility.yul\":3358:3475   */\n      iszero\n      tag_409\n      jumpi\n        /* \"#utility.yul\":3394:3473   */\n      tag_410\n      tag_400\n      jump\t// in\n    tag_410:\n        /* \"#utility.yul\":3358:3475   */\n    tag_409:\n        /* \"#utility.yul\":3499:3562   */\n      tag_411\n        /* \"#utility.yul\":3554:3561   */\n      dup5\n        /* \"#utility.yul\":3545:3551   */\n      dup3\n        /* \"#utility.yul\":3534:3543   */\n      dup6\n        /* \"#utility.yul\":3530:3552   */\n      add\n        /* \"#utility.yul\":3499:3562   */\n      tag_375\n      jump\t// in\n    tag_411:\n        /* \"#utility.yul\":3489:3562   */\n      swap2\n      pop\n        /* \"#utility.yul\":3285:3572   */\n      pop\n        /* \"#utility.yul\":3070:3579   */\n      swap3\n      swap2\n      pop\n      pop\n      jump\t// out\n        /* \"#utility.yul\":3585:4968   */\n    tag_68:\n        /* \"#utility.yul\":3708:3714   */\n      0x00\n        /* \"#utility.yul\":3716:3722   */\n      dup1\n        /* \"#utility.yul\":3724:3730   */\n      0x00\n        /* \"#utility.yul\":3732:3738   */\n      dup1\n        /* \"#utility.yul\":3740:3746   */\n      0x00\n        /* \"#utility.yul\":3748:3754   */\n      dup1\n        /* \"#utility.yul\":3756:3762   */\n      0x00\n        /* \"#utility.yul\":3805:3808   */\n      0xe0\n        /* \"#utility.yul\":3793:3802   */\n      dup9\n        /* \"#utility.yul\":3784:3791   */\n      dup11\n        /* \"#utility.yul\":3780:3803   */\n      sub\n        /* \"#utility.yul\":3776:3809   */\n      slt\n        /* \"#utility.yul\":3773:3893   */\n      iszero\n      tag_413\n      jumpi\n        /* \"#utility.yul\":3812:3891   */\n      tag_414\n      tag_388\n      jump\t// in\n    tag_414:\n        /* \"#utility.yul\":3773:3893   */\n    tag_413:\n        /* \"#utility.yul\":3960:3961   */\n      0x00\n        /* \"#utility.yul\":3949:3958   */\n      dup9\n        /* \"#utility.yul\":3945:3962   */\n      add\n        /* \"#utility.yul\":3932:3963   */\n      calldataload\n        /* \"#utility.yul\":3990:4008   */\n      0xffffffffffffffff\n        /* \"#utility.yul\":3982:3988   */\n      dup2\n        /* \"#utility.yul\":3979:4009   */\n      gt\n        /* \"#utility.yul\":3976:4093   */\n      iszero\n      tag_415\n      jumpi\n        /* \"#utility.yul\":4012:4091   */\n      tag_416\n      tag_400\n      jump\t// in\n    tag_416:\n        /* \"#utility.yul\":3976:4093   */\n    tag_415:\n        /* \"#utility.yul\":4117:4180   */\n      tag_417\n        /* \"#utility.yul\":4172:4179   */\n      dup11\n        /* \"#utility.yul\":4163:4169   */\n      dup3\n        /* \"#utility.yul\":4152:4161   */\n      dup12\n        /* \"#utility.yul\":4148:4170   */\n      add\n        /* \"#utility.yul\":4117:4180   */\n      tag_375\n      jump\t// in\n    tag_417:\n        /* \"#utility.yul\":4107:4180   */\n      swap8\n      pop\n        /* \"#utility.yul\":3903:4190   */\n      pop\n        /* \"#utility.yul\":4229:4231   */\n      0x20\n        /* \"#utility.yul\":4255:4308   */\n      tag_418\n        /* \"#utility.yul\":4300:4307   */\n      dup11\n        /* \"#utility.yul\":4291:4297   */\n      dup3\n        /* \"#utility.yul\":4280:4289   */\n      dup12\n        /* \"#utility.yul\":4276:4298   */\n      add\n        /* \"#utility.yul\":4255:4308   */\n      tag_381\n      jump\t// in\n    tag_418:\n        /* \"#utility.yul\":4245:4308   */\n      swap7\n      pop\n        /* \"#utility.yul\":4200:4318   */\n      pop\n        /* \"#utility.yul\":4357:4359   */\n      0x40\n        /* \"#utility.yul\":4383:4436   */\n      tag_419\n        /* \"#utility.yul\":4428:4435   */\n      dup11\n        /* \"#utility.yul\":4419:4425   */\n      dup3\n        /* \"#utility.yul\":4408:4417   */\n      dup12\n        /* \"#utility.yul\":4404:4426   */\n      add\n        /* \"#utility.yul\":4383:4436   */\n      tag_364\n      jump\t// in\n    tag_419:\n        /* \"#utility.yul\":4373:4436   */\n      swap6\n      pop\n        /* \"#utility.yul\":4328:4446   */\n      pop\n        /* \"#utility.yul\":4485:4487   */\n      0x60\n        /* \"#utility.yul\":4511:4564   */\n      tag_420\n        /* \"#utility.yul\":4556:4563   */\n      dup11\n        /* \"#utility.yul\":4547:4553   */\n      dup3\n        /* \"#utility.yul\":4536:4545   */\n      dup12\n        /* \"#utility.yul\":4532:4554   */\n      add\n        /* \"#utility.yul\":4511:4564   */\n      tag_381\n      jump\t// in\n    tag_420:\n        /* \"#utility.yul\":4501:4564   */\n      swap5\n      pop\n        /* \"#utility.yul\":4456:4574   */\n      pop\n        /* \"#utility.yul\":4613:4616   */\n      0x80\n        /* \"#utility.yul\":4640:4693   */\n      tag_421\n        /* \"#utility.yul\":4685:4692   */\n      dup11\n        /* \"#utility.yul\":4676:4682   */\n      dup3\n        /* \"#utility.yul\":4665:4674   */\n      dup12\n        /* \"#utility.yul\":4661:4683   */\n      add\n        /* \"#utility.yul\":4640:4693   */\n      tag_381\n      jump\t// in\n    tag_421:\n        /* \"#utility.yul\":4630:4693   */\n      swap4\n      pop\n        /* \"#utility.yul\":4584:4703   */\n      pop\n        /* \"#utility.yul\":4742:4745   */\n      0xa0\n        /* \"#utility.yul\":4769:4822   */\n      tag_422\n        /* \"#utility.yul\":4814:4821   */\n      dup11\n        /* \"#utility.yul\":4805:4811   */\n      dup3\n        /* \"#utility.yul\":4794:4803   */\n      dup12\n        /* \"#utility.yul\":4790:4812   */\n      add\n        /* \"#utility.yul\":4769:4822   */\n      tag_381\n      jump\t// in\n    tag_422:\n        /* \"#utility.yul\":4759:4822   */\n      swap3\n      pop\n        /* \"#utility.yul\":4713:4832   */\n      pop\n        /* \"#utility.yul\":4871:4874   */\n      0xc0\n        /* \"#utility.yul\":4898:4951   */\n      tag_423\n        /* \"#utility.yul\":4943:4950   */\n      dup11\n        /* \"#utility.yul\":4934:4940   */\n      dup3\n        /* \"#utility.yul\":4923:4932   */\n      dup12\n        /* \"#utility.yul\":4919:4941   */\n      add\n        /* \"#utility.yul\":4898:4951   */\n      tag_381\n      jump\t// in\n    tag_423:\n        /* \"#utility.yul\":4888:4951   */\n      swap2\n      pop\n        /* \"#utility.yul\":4842:4961   */\n      pop\n        /* \"#utility.yul\":3585:4968   */\n      swap3\n      swap6\n      swap9\n      swap2\n      swap5\n      swap8\n      pop\n      swap3\n      swap6\n      pop\n      jump\t// out\n        /* \"#utility.yul\":4974:6503   */\n    tag_82:\n        /* \"#utility.yul\":5106:5112   */\n      0x00\n        /* \"#utility.yul\":5114:5120   */\n      dup1\n        /* \"#utility.yul\":5122:5128   */\n      0x00\n        /* \"#utility.yul\":5130:5136   */\n      dup1\n        /* \"#utility.yul\":5138:5144   */\n      0x00\n        /* \"#utility.yul\":5146:5152   */\n      dup1\n        /* \"#utility.yul\":5154:5160   */\n      0x00\n        /* \"#utility.yul\":5162:5168   */\n      dup1\n        /* \"#utility.yul\":5211:5214   */\n      0x0100\n        /* \"#utility.yul\":5199:5208   */\n      dup10\n        /* \"#utility.yul\":5190:5197   */\n      dup12\n        /* \"#utility.yul\":5186:5209   */\n      sub\n        /* \"#utility.yul\":5182:5215   */\n      slt\n        /* \"#utility.yul\":5179:5299   */\n      iszero\n      tag_425\n      jumpi\n        /* \"#utility.yul\":5218:5297   */\n      tag_426\n      tag_388\n      jump\t// in\n    tag_426:\n        /* \"#utility.yul\":5179:5299   */\n    tag_425:\n        /* \"#utility.yul\":5366:5367   */\n      0x00\n        /* \"#utility.yul\":5355:5364   */\n      dup10\n        /* \"#utility.yul\":5351:5368   */\n      add\n        /* \"#utility.yul\":5338:5369   */\n      calldataload\n        /* \"#utility.yul\":5396:5414   */\n      0xffffffffffffffff\n        /* \"#utility.yul\":5388:5394   */\n      dup2\n        /* \"#utility.yul\":5385:5415   */\n      gt\n        /* \"#utility.yul\":5382:5499   */\n      iszero\n      tag_427\n      jumpi\n        /* \"#utility.yul\":5418:5497   */\n      tag_428\n      tag_400\n      jump\t// in\n    tag_428:\n        /* \"#utility.yul\":5382:5499   */\n    tag_427:\n        /* \"#utility.yul\":5523:5586   */\n      tag_429\n        /* \"#utility.yul\":5578:5585   */\n      dup12\n        /* \"#utility.yul\":5569:5575   */\n      dup3\n        /* \"#utility.yul\":5558:5567   */\n      dup13\n        /* \"#utility.yul\":5554:5576   */\n      add\n        /* \"#utility.yul\":5523:5586   */\n      tag_375\n      jump\t// in\n    tag_429:\n        /* \"#utility.yul\":5513:5586   */\n      swap9\n      pop\n        /* \"#utility.yul\":5309:5596   */\n      pop\n        /* \"#utility.yul\":5635:5637   */\n      0x20\n        /* \"#utility.yul\":5661:5714   */\n      tag_430\n        /* \"#utility.yul\":5706:5713   */\n      dup12\n        /* \"#utility.yul\":5697:5703   */\n      dup3\n        /* \"#utility.yul\":5686:5695   */\n      dup13\n        /* \"#utility.yul\":5682:5704   */\n      add\n        /* \"#utility.yul\":5661:5714   */\n      tag_381\n      jump\t// in\n    tag_430:\n        /* \"#utility.yul\":5651:5714   */\n      swap8\n      pop\n        /* \"#utility.yul\":5606:5724   */\n      pop\n        /* \"#utility.yul\":5763:5765   */\n      0x40\n        /* \"#utility.yul\":5789:5842   */\n      tag_431\n        /* \"#utility.yul\":5834:5841   */\n      dup12\n        /* \"#utility.yul\":5825:5831   */\n      dup3\n        /* \"#utility.yul\":5814:5823   */\n      dup13\n        /* \"#utility.yul\":5810:5832   */\n      add\n        /* \"#utility.yul\":5789:5842   */\n      tag_381\n      jump\t// in\n    tag_431:\n        /* \"#utility.yul\":5779:5842   */\n      swap7\n      pop\n        /* \"#utility.yul\":5734:5852   */\n      pop\n        /* \"#utility.yul\":5891:5893   */\n      0x60\n        /* \"#utility.yul\":5917:5970   */\n      tag_432\n        /* \"#utility.yul\":5962:5969   */\n      dup12\n        /* \"#utility.yul\":5953:5959   */\n      dup3\n        /* \"#utility.yul\":5942:5951   */\n      dup13\n        /* \"#utility.yul\":5938:5960   */\n      add\n        /* \"#utility.yul\":5917:5970   */\n      tag_364\n      jump\t// in\n    tag_432:\n        /* \"#utility.yul\":5907:5970   */\n      swap6\n      pop\n        /* \"#utility.yul\":5862:5980   */\n      pop\n        /* \"#utility.yul\":6019:6022   */\n      0x80\n        /* \"#utility.yul\":6046:6099   */\n      tag_433\n        /* \"#utility.yul\":6091:6098   */\n      dup12\n        /* \"#utility.yul\":6082:6088   */\n      dup3\n        /* \"#utility.yul\":6071:6080   */\n      dup13\n        /* \"#utility.yul\":6067:6089   */\n      add\n        /* \"#utility.yul\":6046:6099   */\n      tag_381\n      jump\t// in\n    tag_433:\n        /* \"#utility.yul\":6036:6099   */\n      swap5\n      pop\n        /* \"#utility.yul\":5990:6109   */\n      pop\n        /* \"#utility.yul\":6148:6151   */\n      0xa0\n        /* \"#utility.yul\":6175:6228   */\n      tag_434\n        /* \"#utility.yul\":6220:6227   */\n      dup12\n        /* \"#utility.yul\":6211:6217   */\n      dup3\n        /* \"#utility.yul\":6200:6209   */\n      dup13\n        /* \"#utility.yul\":6196:6218   */\n      add\n        /* \"#utility.yul\":6175:6228   */\n      tag_381\n      jump\t// in\n    tag_434:\n        /* \"#utility.yul\":6165:6228   */\n      swap4\n      pop\n        /* \"#utility.yul\":6119:6238   */\n      pop\n        /* \"#utility.yul\":6277:6280   */\n      0xc0\n        /* \"#utility.yul\":6304:6357   */\n      tag_435\n        /* \"#utility.yul\":6349:6356   */\n      dup12\n        /* \"#utility.yul\":6340:6346   */\n      dup3\n        /* \"#utility.yul\":6329:6338   */\n      dup13\n        /* \"#utility.yul\":6325:6347   */\n      add\n        /* \"#utility.yul\":6304:6357   */\n      tag_381\n      jump\t// in\n    tag_435:\n        /* \"#utility.yul\":6294:6357   */\n      swap3\n      pop\n        /* \"#utility.yul\":6248:6367   */\n      pop\n        /* \"#utility.yul\":6406:6409   */\n      0xe0\n        /* \"#utility.yul\":6433:6486   */\n      tag_436\n        /* \"#utility.yul\":6478:6485   */\n      dup12\n        /* \"#utility.yul\":6469:6475   */\n      dup3\n        /* \"#utility.yul\":6458:6467   */\n      dup13\n        /* \"#utility.yul\":6454:6476   */\n      add\n        /* \"#utility.yul\":6433:6486   */\n      tag_381\n      jump\t// in\n    tag_436:\n        /* \"#utility.yul\":6423:6486   */\n      swap2\n      pop\n        /* \"#utility.yul\":6377:6496   */\n      pop\n        /* \"#utility.yul\":4974:6503   */\n      swap3\n      swap6\n      swap9\n      pop\n      swap3\n      swap6\n      swap9\n      swap1\n      swap4\n      swap7\n      pop\n      jump\t// out\n        /* \"#utility.yul\":6509:7454   */\n    tag_56:\n        /* \"#utility.yul\":6605:6611   */\n      0x00\n        /* \"#utility.yul\":6613:6619   */\n      dup1\n        /* \"#utility.yul\":6621:6627   */\n      0x00\n        /* \"#utility.yul\":6629:6635   */\n      dup1\n        /* \"#utility.yul\":6678:6681   */\n      0x80\n        /* \"#utility.yul\":6666:6675   */\n      dup6\n        /* \"#utility.yul\":6657:6664   */\n      dup8\n        /* \"#utility.yul\":6653:6676   */\n      sub\n        /* \"#utility.yul\":6649:6682   */\n      slt\n        /* \"#utility.yul\":6646:6766   */\n      iszero\n      tag_438\n      jumpi\n        /* \"#utility.yul\":6685:6764   */\n      tag_439\n      tag_388\n      jump\t// in\n    tag_439:\n        /* \"#utility.yul\":6646:6766   */\n    tag_438:\n        /* \"#utility.yul\":6833:6834   */\n      0x00\n        /* \"#utility.yul\":6822:6831   */\n      dup6\n        /* \"#utility.yul\":6818:6835   */\n      add\n        /* \"#utility.yul\":6805:6836   */\n      calldataload\n        /* \"#utility.yul\":6863:6881   */\n      0xffffffffffffffff\n        /* \"#utility.yul\":6855:6861   */\n      dup2\n        /* \"#utility.yul\":6852:6882   */\n      gt\n        /* \"#utility.yul\":6849:6966   */\n      iszero\n      tag_440\n      jumpi\n        /* \"#utility.yul\":6885:6964   */\n      tag_441\n      tag_400\n      jump\t// in\n    tag_441:\n        /* \"#utility.yul\":6849:6966   */\n    tag_440:\n        /* \"#utility.yul\":6990:7053   */\n      tag_442\n        /* \"#utility.yul\":7045:7052   */\n      dup8\n        /* \"#utility.yul\":7036:7042   */\n      dup3\n        /* \"#utility.yul\":7025:7034   */\n      dup9\n        /* \"#utility.yul\":7021:7043   */\n      add\n        /* \"#utility.yul\":6990:7053   */\n      tag_375\n      jump\t// in\n    tag_442:\n        /* \"#utility.yul\":6980:7053   */\n      swap5\n      pop\n        /* \"#utility.yul\":6776:7063   */\n      pop\n        /* \"#utility.yul\":7102:7104   */\n      0x20\n        /* \"#utility.yul\":7128:7181   */\n      tag_443\n        /* \"#utility.yul\":7173:7180   */\n      dup8\n        /* \"#utility.yul\":7164:7170   */\n      dup3\n        /* \"#utility.yul\":7153:7162   */\n      dup9\n        /* \"#utility.yul\":7149:7171   */\n      add\n        /* \"#utility.yul\":7128:7181   */\n      tag_381\n      jump\t// in\n    tag_443:\n        /* \"#utility.yul\":7118:7181   */\n      swap4\n      pop\n        /* \"#utility.yul\":7073:7191   */\n      pop\n        /* \"#utility.yul\":7230:7232   */\n      0x40\n        /* \"#utility.yul\":7256:7309   */\n      tag_444\n        /* \"#utility.yul\":7301:7308   */\n      dup8\n        /* \"#utility.yul\":7292:7298   */\n      dup3\n        /* \"#utility.yul\":7281:7290   */\n      dup9\n        /* \"#utility.yul\":7277:7299   */\n      add\n        /* \"#utility.yul\":7256:7309   */\n      tag_381\n      jump\t// in\n    tag_444:\n        /* \"#utility.yul\":7246:7309   */\n      swap3\n      pop\n        /* \"#utility.yul\":7201:7319   */\n      pop\n        /* \"#utility.yul\":7358:7360   */\n      0x60\n        /* \"#utility.yul\":7384:7437   */\n      tag_445\n        /* \"#utility.yul\":7429:7436   */\n      dup8\n        /* \"#utility.yul\":7420:7426   */\n      dup3\n        /* \"#utility.yul\":7409:7418   */\n      dup9\n        /* \"#utility.yul\":7405:7427   */\n      add\n        /* \"#utility.yul\":7384:7437   */\n      tag_381\n      jump\t// in\n    tag_445:\n        /* \"#utility.yul\":7374:7437   */\n      swap2\n      pop\n        /* \"#utility.yul\":7329:7447   */\n      pop\n        /* \"#utility.yul\":6509:7454   */\n      swap3\n      swap6\n      swap2\n      swap5\n      pop\n      swap3\n      pop\n      jump\t// out\n        /* \"#utility.yul\":7460:7789   */\n    tag_72:\n        /* \"#utility.yul\":7519:7525   */\n      0x00\n        /* \"#utility.yul\":7568:7570   */\n      0x20\n        /* \"#utility.yul\":7556:7565   */\n      dup3\n        /* \"#utility.yul\":7547:7554   */\n      dup5\n        /* \"#utility.yul\":7543:7566   */\n      sub\n        /* \"#utility.yul\":7539:7571   */\n      slt\n        /* \"#utility.yul\":7536:7655   */\n      iszero\n      tag_447\n      jumpi\n        /* \"#utility.yul\":7574:7653   */\n      tag_448\n      tag_388\n      jump\t// in\n    tag_448:\n        /* \"#utility.yul\":7536:7655   */\n    tag_447:\n        /* \"#utility.yul\":7694:7695   */\n      0x00\n        /* \"#utility.yul\":7719:7772   */\n      tag_449\n        /* \"#utility.yul\":7764:7771   */\n      dup5\n        /* \"#utility.yul\":7755:7761   */\n      dup3\n        /* \"#utility.yul\":7744:7753   */\n      dup6\n        /* \"#utility.yul\":7740:7762   */\n      add\n        /* \"#utility.yul\":7719:7772   */\n      tag_381\n      jump\t// in\n    tag_449:\n        /* \"#utility.yul\":7709:7772   */\n      swap2\n      pop\n        /* \"#utility.yul\":7665:7782   */\n      pop\n        /* \"#utility.yul\":7460:7789   */\n      swap3\n      swap2\n      pop\n      pop\n      jump\t// out\n        /* \"#utility.yul\":7795:7913   */\n    tag_450:\n        /* \"#utility.yul\":7882:7906   */\n      tag_452\n        /* \"#utility.yul\":7900:7905   */\n      dup2\n        /* \"#utility.yul\":7882:7906   */\n      tag_453\n      jump\t// in\n    tag_452:\n        /* \"#utility.yul\":7877:7880   */\n      dup3\n        /* \"#utility.yul\":7870:7907   */\n      mstore\n        /* \"#utility.yul\":7795:7913   */\n      pop\n      pop\n      jump\t// out\n        /* \"#utility.yul\":7919:8028   */\n    tag_454:\n        /* \"#utility.yul\":8000:8021   */\n      tag_456\n        /* \"#utility.yul\":8015:8020   */\n      dup2\n        /* \"#utility.yul\":8000:8021   */\n      tag_457\n      jump\t// in\n    tag_456:\n        /* \"#utility.yul\":7995:7998   */\n      dup3\n        /* \"#utility.yul\":7988:8022   */\n      mstore\n        /* \"#utility.yul\":7919:8028   */\n      pop\n      pop\n      jump\t// out\n        /* \"#utility.yul\":8034:8152   */\n    tag_458:\n        /* \"#utility.yul\":8121:8145   */\n      tag_460\n        /* \"#utility.yul\":8139:8144   */\n      dup2\n        /* \"#utility.yul\":8121:8145   */\n      tag_461\n      jump\t// in\n    tag_460:\n        /* \"#utility.yul\":8116:8119   */\n      dup3\n        /* \"#utility.yul\":8109:8146   */\n      mstore\n        /* \"#utility.yul\":8034:8152   */\n      pop\n      pop\n      jump\t// out\n        /* \"#utility.yul\":8158:8335   */\n    tag_462:\n        /* \"#utility.yul\":8268:8328   */\n      tag_464\n        /* \"#utility.yul\":8322:8327   */\n      dup2\n        /* \"#utility.yul\":8268:8328   */\n      tag_465\n      jump\t// in\n    tag_464:\n        /* \"#utility.yul\":8263:8266   */\n      dup3\n        /* \"#utility.yul\":8256:8329   */\n      mstore\n        /* \"#utility.yul\":8158:8335   */\n      pop\n      pop\n      jump\t// out\n        /* \"#utility.yul\":8341:8506   */\n    tag_466:\n        /* \"#utility.yul\":8445:8499   */\n      tag_468\n        /* \"#utility.yul\":8493:8498   */\n      dup2\n        /* \"#utility.yul\":8445:8499   */\n      tag_469\n      jump\t// in\n    tag_468:\n        /* \"#utility.yul\":8440:8443   */\n      dup3\n        /* \"#utility.yul\":8433:8500   */\n      mstore\n        /* \"#utility.yul\":8341:8506   */\n      pop\n      pop\n      jump\t// out\n        /* \"#utility.yul\":8512:8697   */\n    tag_470:\n        /* \"#utility.yul\":8626:8690   */\n      tag_472\n        /* \"#utility.yul\":8684:8689   */\n      dup2\n        /* \"#utility.yul\":8626:8690   */\n      tag_473\n      jump\t// in\n    tag_472:\n        /* \"#utility.yul\":8621:8624   */\n      dup3\n        /* \"#utility.yul\":8614:8691   */\n      mstore\n        /* \"#utility.yul\":8512:8697   */\n      pop\n      pop\n      jump\t// out\n        /* \"#utility.yul\":8703:8846   */\n    tag_474:\n        /* \"#utility.yul\":8796:8839   */\n      tag_476\n        /* \"#utility.yul\":8833:8838   */\n      dup2\n        /* \"#utility.yul\":8796:8839   */\n      tag_477\n      jump\t// in\n    tag_476:\n        /* \"#utility.yul\":8791:8794   */\n      dup3\n        /* \"#utility.yul\":8784:8840   */\n      mstore\n        /* \"#utility.yul\":8703:8846   */\n      pop\n      pop\n      jump\t// out\n        /* \"#utility.yul\":8852:9216   */\n    tag_478:\n        /* \"#utility.yul\":8940:8943   */\n      0x00\n        /* \"#utility.yul\":8968:9007   */\n      tag_480\n        /* \"#utility.yul\":9001:9006   */\n      dup3\n        /* \"#utility.yul\":8968:9007   */\n      tag_481\n      jump\t// in\n    tag_480:\n        /* \"#utility.yul\":9023:9094   */\n      tag_482\n        /* \"#utility.yul\":9087:9093   */\n      dup2\n        /* \"#utility.yul\":9082:9085   */\n      dup6\n        /* \"#utility.yul\":9023:9094   */\n      tag_483\n      jump\t// in\n    tag_482:\n        /* \"#utility.yul\":9016:9094   */\n      swap4\n      pop\n        /* \"#utility.yul\":9103:9155   */\n      tag_484\n        /* \"#utility.yul\":9148:9154   */\n      dup2\n        /* \"#utility.yul\":9143:9146   */\n      dup6\n        /* \"#utility.yul\":9136:9140   */\n      0x20\n        /* \"#utility.yul\":9129:9134   */\n      dup7\n        /* \"#utility.yul\":9125:9141   */\n      add\n        /* \"#utility.yul\":9103:9155   */\n      tag_485\n      jump\t// in\n    tag_484:\n        /* \"#utility.yul\":9180:9209   */\n      tag_486\n        /* \"#utility.yul\":9202:9208   */\n      dup2\n        /* \"#utility.yul\":9180:9209   */\n      tag_487\n      jump\t// in\n    tag_486:\n        /* \"#utility.yul\":9175:9178   */\n      dup5\n        /* \"#utility.yul\":9171:9210   */\n      add\n        /* \"#utility.yul\":9164:9210   */\n      swap2\n      pop\n        /* \"#utility.yul\":8944:9216   */\n      pop\n        /* \"#utility.yul\":8852:9216   */\n      swap3\n      swap2\n      pop\n      pop\n      jump\t// out\n        /* \"#utility.yul\":9222:9588   */\n    tag_488:\n        /* \"#utility.yul\":9364:9367   */\n      0x00\n        /* \"#utility.yul\":9385:9452   */\n      tag_490\n        /* \"#utility.yul\":9449:9451   */\n      0x26\n        /* \"#utility.yul\":9444:9447   */\n      dup4\n        /* \"#utility.yul\":9385:9452   */\n      tag_483\n      jump\t// in\n    tag_490:\n        /* \"#utility.yul\":9378:9452   */\n      swap2\n      pop\n        /* \"#utility.yul\":9461:9554   */\n      tag_491\n        /* \"#utility.yul\":9550:9553   */\n      dup3\n        /* \"#utility.yul\":9461:9554   */\n      tag_492\n      jump\t// in\n    tag_491:\n        /* \"#utility.yul\":9579:9581   */\n      0x40\n        /* \"#utility.yul\":9574:9577   */\n      dup3\n        /* \"#utility.yul\":9570:9582   */\n      add\n        /* \"#utility.yul\":9563:9582   */\n      swap1\n      pop\n        /* \"#utility.yul\":9222:9588   */\n      swap2\n      swap1\n      pop\n      jump\t// out\n        /* \"#utility.yul\":9594:9960   */\n    tag_493:\n        /* \"#utility.yul\":9736:9739   */\n      0x00\n        /* \"#utility.yul\":9757:9824   */\n      tag_495\n        /* \"#utility.yul\":9821:9823   */\n      0x10\n        /* \"#utility.yul\":9816:9819   */\n      dup4\n        /* \"#utility.yul\":9757:9824   */\n      tag_483\n      jump\t// in\n    tag_495:\n        /* \"#utility.yul\":9750:9824   */\n      swap2\n      pop\n        /* \"#utility.yul\":9833:9926   */\n      tag_496\n        /* \"#utility.yul\":9922:9925   */\n      dup3\n        /* \"#utility.yul\":9833:9926   */\n      tag_497\n      jump\t// in\n    tag_496:\n        /* \"#utility.yul\":9951:9953   */\n      0x20\n        /* \"#utility.yul\":9946:9949   */\n      dup3\n        /* \"#utility.yul\":9942:9954   */\n      add\n        /* \"#utility.yul\":9935:9954   */\n      swap1\n      pop\n        /* \"#utility.yul\":9594:9960   */\n      swap2\n      swap1\n      pop\n      jump\t// out\n        /* \"#utility.yul\":9966:10332   */\n    tag_498:\n        /* \"#utility.yul\":10108:10111   */\n      0x00\n        /* \"#utility.yul\":10129:10196   */\n      tag_500\n        /* \"#utility.yul\":10193:10195   */\n      0x20\n        /* \"#utility.yul\":10188:10191   */\n      dup4\n        /* \"#utility.yul\":10129:10196   */\n      tag_483\n      jump\t// in\n    tag_500:\n        /* \"#utility.yul\":10122:10196   */\n      swap2\n      pop\n        /* \"#utility.yul\":10205:10298   */\n      tag_501\n        /* \"#utility.yul\":10294:10297   */\n      dup3\n        /* \"#utility.yul\":10205:10298   */\n      tag_502\n      jump\t// in\n    tag_501:\n        /* \"#utility.yul\":10323:10325   */\n      0x20\n        /* \"#utility.yul\":10318:10321   */\n      dup3\n        /* \"#utility.yul\":10314:10326   */\n      add\n        /* \"#utility.yul\":10307:10326   */\n      swap1\n      pop\n        /* \"#utility.yul\":9966:10332   */\n      swap2\n      swap1\n      pop\n      jump\t// out\n        /* \"#utility.yul\":10338:10704   */\n    tag_503:\n        /* \"#utility.yul\":10480:10483   */\n      0x00\n        /* \"#utility.yul\":10501:10568   */\n      tag_505\n        /* \"#utility.yul\":10565:10567   */\n      0x0e\n        /* \"#utility.yul\":10560:10563   */\n      dup4\n        /* \"#utility.yul\":10501:10568   */\n      tag_483\n      jump\t// in\n    tag_505:\n        /* \"#utility.yul\":10494:10568   */\n      swap2\n      pop\n        /* \"#utility.yul\":10577:10670   */\n      tag_506\n        /* \"#utility.yul\":10666:10669   */\n      dup3\n        /* \"#utility.yul\":10577:10670   */\n      tag_507\n      jump\t// in\n    tag_506:\n        /* \"#utility.yul\":10695:10697   */\n      0x20\n        /* \"#utility.yul\":10690:10693   */\n      dup3\n        /* \"#utility.yul\":10686:10698   */\n      add\n        /* \"#utility.yul\":10679:10698   */\n      swap1\n      pop\n        /* \"#utility.yul\":10338:10704   */\n      swap2\n      swap1\n      pop\n      jump\t// out\n        /* \"#utility.yul\":10710:10828   */\n    tag_508:\n        /* \"#utility.yul\":10797:10821   */\n      tag_510\n        /* \"#utility.yul\":10815:10820   */\n      dup2\n        /* \"#utility.yul\":10797:10821   */\n      tag_511\n      jump\t// in\n    tag_510:\n        /* \"#utility.yul\":10792:10795   */\n      dup3\n        /* \"#utility.yul\":10785:10822   */\n      mstore\n        /* \"#utility.yul\":10710:10828   */\n      pop\n      pop\n      jump\t// out\n        /* \"#utility.yul\":10834:11056   */\n    tag_61:\n        /* \"#utility.yul\":10927:10931   */\n      0x00\n        /* \"#utility.yul\":10965:10967   */\n      0x20\n        /* \"#utility.yul\":10954:10963   */\n      dup3\n        /* \"#utility.yul\":10950:10968   */\n      add\n        /* \"#utility.yul\":10942:10968   */\n      swap1\n      pop\n        /* \"#utility.yul\":10978:11049   */\n      tag_513\n        /* \"#utility.yul\":11046:11047   */\n      0x00\n        /* \"#utility.yul\":11035:11044   */\n      dup4\n        /* \"#utility.yul\":11031:11048   */\n      add\n        /* \"#utility.yul\":11022:11028   */\n      dup5\n        /* \"#utility.yul\":10978:11049   */\n      tag_450\n      jump\t// in\n    tag_513:\n        /* \"#utility.yul\":10834:11056   */\n      swap3\n      swap2\n      pop\n      pop\n      jump\t// out\n        /* \"#utility.yul\":11062:11394   */\n    tag_203:\n        /* \"#utility.yul\":11183:11187   */\n      0x00\n        /* \"#utility.yul\":11221:11223   */\n      0x40\n        /* \"#utility.yul\":11210:11219   */\n      dup3\n        /* \"#utility.yul\":11206:11224   */\n      add\n        /* \"#utility.yul\":11198:11224   */\n      swap1\n      pop\n        /* \"#utility.yul\":11234:11305   */\n      tag_515\n        /* \"#utility.yul\":11302:11303   */\n      0x00\n        /* \"#utility.yul\":11291:11300   */\n      dup4\n        /* \"#utility.yul\":11287:11304   */\n      add\n        /* \"#utility.yul\":11278:11284   */\n      dup6\n        /* \"#utility.yul\":11234:11305   */\n      tag_450\n      jump\t// in\n    tag_515:\n        /* \"#utility.yul\":11315:11387   */\n      tag_516\n        /* \"#utility.yul\":11383:11385   */\n      0x20\n        /* \"#utility.yul\":11372:11381   */\n      dup4\n        /* \"#utility.yul\":11368:11386   */\n      add\n        /* \"#utility.yul\":11359:11365   */\n      dup5\n        /* \"#utility.yul\":11315:11387   */\n      tag_450\n      jump\t// in\n    tag_516:\n        /* \"#utility.yul\":11062:11394   */\n      swap4\n      swap3\n      pop\n      pop\n      pop\n      jump\t// out\n        /* \"#utility.yul\":11400:11842   */\n    tag_164:\n        /* \"#utility.yul\":11549:11553   */\n      0x00\n        /* \"#utility.yul\":11587:11589   */\n      0x60\n        /* \"#utility.yul\":11576:11585   */\n      dup3\n        /* \"#utility.yul\":11572:11590   */\n      add\n        /* \"#utility.yul\":11564:11590   */\n      swap1\n      pop\n        /* \"#utility.yul\":11600:11671   */\n      tag_518\n        /* \"#utility.yul\":11668:11669   */\n      0x00\n        /* \"#utility.yul\":11657:11666   */\n      dup4\n        /* \"#utility.yul\":11653:11670   */\n      add\n        /* \"#utility.yul\":11644:11650   */\n      dup7\n        /* \"#utility.yul\":11600:11671   */\n      tag_450\n      jump\t// in\n    tag_518:\n        /* \"#utility.yul\":11681:11753   */\n      tag_519\n        /* \"#utility.yul\":11749:11751   */\n      0x20\n        /* \"#utility.yul\":11738:11747   */\n      dup4\n        /* \"#utility.yul\":11734:11752   */\n      add\n        /* \"#utility.yul\":11725:11731   */\n      dup6\n        /* \"#utility.yul\":11681:11753   */\n      tag_450\n      jump\t// in\n    tag_519:\n        /* \"#utility.yul\":11763:11835   */\n      tag_520\n        /* \"#utility.yul\":11831:11833   */\n      0x40\n        /* \"#utility.yul\":11820:11829   */\n      dup4\n        /* \"#utility.yul\":11816:11834   */\n      add\n        /* \"#utility.yul\":11807:11813   */\n      dup5\n        /* \"#utility.yul\":11763:11835   */\n      tag_450\n      jump\t// in\n    tag_520:\n        /* \"#utility.yul\":11400:11842   */\n      swap5\n      swap4\n      pop\n      pop\n      pop\n      pop\n      jump\t// out\n        /* \"#utility.yul\":11848:12192   */\n    tag_75:\n        /* \"#utility.yul\":11975:11979   */\n      0x00\n        /* \"#utility.yul\":12013:12015   */\n      0x40\n        /* \"#utility.yul\":12002:12011   */\n      dup3\n        /* \"#utility.yul\":11998:12016   */\n      add\n        /* \"#utility.yul\":11990:12016   */\n      swap1\n      pop\n        /* \"#utility.yul\":12026:12097   */\n      tag_522\n        /* \"#utility.yul\":12094:12095   */\n      0x00\n        /* \"#utility.yul\":12083:12092   */\n      dup4\n        /* \"#utility.yul\":12079:12096   */\n      add\n        /* \"#utility.yul\":12070:12076   */\n      dup6\n        /* \"#utility.yul\":12026:12097   */\n      tag_450\n      jump\t// in\n    tag_522:\n        /* \"#utility.yul\":12107:12185   */\n      tag_523\n        /* \"#utility.yul\":12181:12183   */\n      0x20\n        /* \"#utility.yul\":12170:12179   */\n      dup4\n        /* \"#utility.yul\":12166:12184   */\n      add\n        /* \"#utility.yul\":12157:12163   */\n      dup5\n        /* \"#utility.yul\":12107:12185   */\n      tag_474\n      jump\t// in\n    tag_523:\n        /* \"#utility.yul\":11848:12192   */\n      swap4\n      swap3\n      pop\n      pop\n      pop\n      jump\t// out\n        /* \"#utility.yul\":12198:12408   */\n    tag_88:\n        /* \"#utility.yul\":12285:12289   */\n      0x00\n        /* \"#utility.yul\":12323:12325   */\n      0x20\n        /* \"#utility.yul\":12312:12321   */\n      dup3\n        /* \"#utility.yul\":12308:12326   */\n      add\n        /* \"#utility.yul\":12300:12326   */\n      swap1\n      pop\n        /* \"#utility.yul\":12336:12401   */\n      tag_525\n        /* \"#utility.yul\":12398:12399   */\n      0x00\n        /* \"#utility.yul\":12387:12396   */\n      dup4\n        /* \"#utility.yul\":12383:12400   */\n      add\n        /* \"#utility.yul\":12374:12380   */\n      dup5\n        /* \"#utility.yul\":12336:12401   */\n      tag_454\n      jump\t// in\n    tag_525:\n        /* \"#utility.yul\":12198:12408   */\n      swap3\n      swap2\n      pop\n      pop\n      jump\t// out\n        /* \"#utility.yul\":12414:12746   */\n    tag_128:\n        /* \"#utility.yul\":12535:12539   */\n      0x00\n        /* \"#utility.yul\":12573:12575   */\n      0x40\n        /* \"#utility.yul\":12562:12571   */\n      dup3\n        /* \"#utility.yul\":12558:12576   */\n      add\n        /* \"#utility.yul\":12550:12576   */\n      swap1\n      pop\n        /* \"#utility.yul\":12586:12657   */\n      tag_527\n        /* \"#utility.yul\":12654:12655   */\n      0x00\n        /* \"#utility.yul\":12643:12652   */\n      dup4\n        /* \"#utility.yul\":12639:12656   */\n      add\n        /* \"#utility.yul\":12630:12636   */\n      dup6\n        /* \"#utility.yul\":12586:12657   */\n      tag_458\n      jump\t// in\n    tag_527:\n        /* \"#utility.yul\":12667:12739   */\n      tag_528\n        /* \"#utility.yul\":12735:12737   */\n      0x20\n        /* \"#utility.yul\":12724:12733   */\n      dup4\n        /* \"#utility.yul\":12720:12738   */\n      add\n        /* \"#utility.yul\":12711:12717   */\n      dup5\n        /* \"#utility.yul\":12667:12739   */\n      tag_450\n      jump\t// in\n    tag_528:\n        /* \"#utility.yul\":12414:12746   */\n      swap4\n      swap3\n      pop\n      pop\n      pop\n      jump\t// out\n        /* \"#utility.yul\":12752:13020   */\n    tag_65:\n        /* \"#utility.yul\":12868:12872   */\n      0x00\n        /* \"#utility.yul\":12906:12908   */\n      0x20\n        /* \"#utility.yul\":12895:12904   */\n      dup3\n        /* \"#utility.yul\":12891:12909   */\n      add\n        /* \"#utility.yul\":12883:12909   */\n      swap1\n      pop\n        /* \"#utility.yul\":12919:13013   */\n      tag_530\n        /* \"#utility.yul\":13010:13011   */\n      0x00\n        /* \"#utility.yul\":12999:13008   */\n      dup4\n        /* \"#utility.yul\":12995:13012   */\n      add\n        /* \"#utility.yul\":12986:12992   */\n      dup5\n        /* \"#utility.yul\":12919:13013   */\n      tag_462\n      jump\t// in\n    tag_530:\n        /* \"#utility.yul\":12752:13020   */\n      swap3\n      swap2\n      pop\n      pop\n      jump\t// out\n        /* \"#utility.yul\":13026:13282   */\n    tag_92:\n        /* \"#utility.yul\":13136:13140   */\n      0x00\n        /* \"#utility.yul\":13174:13176   */\n      0x20\n        /* \"#utility.yul\":13163:13172   */\n      dup3\n        /* \"#utility.yul\":13159:13177   */\n      add\n        /* \"#utility.yul\":13151:13177   */\n      swap1\n      pop\n        /* \"#utility.yul\":13187:13275   */\n      tag_532\n        /* \"#utility.yul\":13272:13273   */\n      0x00\n        /* \"#utility.yul\":13261:13270   */\n      dup4\n        /* \"#utility.yul\":13257:13274   */\n      add\n        /* \"#utility.yul\":13248:13254   */\n      dup5\n        /* \"#utility.yul\":13187:13275   */\n      tag_466\n      jump\t// in\n    tag_532:\n        /* \"#utility.yul\":13026:13282   */\n      swap3\n      swap2\n      pop\n      pop\n      jump\t// out\n        /* \"#utility.yul\":13288:13564   */\n    tag_79:\n        /* \"#utility.yul\":13408:13412   */\n      0x00\n        /* \"#utility.yul\":13446:13448   */\n      0x20\n        /* \"#utility.yul\":13435:13444   */\n      dup3\n        /* \"#utility.yul\":13431:13449   */\n      add\n        /* \"#utility.yul\":13423:13449   */\n      swap1\n      pop\n        /* \"#utility.yul\":13459:13557   */\n      tag_534\n        /* \"#utility.yul\":13554:13555   */\n      0x00\n        /* \"#utility.yul\":13543:13552   */\n      dup4\n        /* \"#utility.yul\":13539:13556   */\n      add\n        /* \"#utility.yul\":13530:13536   */\n      dup5\n        /* \"#utility.yul\":13459:13557   */\n      tag_470\n      jump\t// in\n    tag_534:\n        /* \"#utility.yul\":13288:13564   */\n      swap3\n      swap2\n      pop\n      pop\n      jump\t// out\n        /* \"#utility.yul\":13570:13883   */\n    tag_40:\n        /* \"#utility.yul\":13683:13687   */\n      0x00\n        /* \"#utility.yul\":13721:13723   */\n      0x20\n        /* \"#utility.yul\":13710:13719   */\n      dup3\n        /* \"#utility.yul\":13706:13724   */\n      add\n        /* \"#utility.yul\":13698:13724   */\n      swap1\n      pop\n        /* \"#utility.yul\":13770:13779   */\n      dup2\n        /* \"#utility.yul\":13764:13768   */\n      dup2\n        /* \"#utility.yul\":13760:13780   */\n      sub\n        /* \"#utility.yul\":13756:13757   */\n      0x00\n        /* \"#utility.yul\":13745:13754   */\n      dup4\n        /* \"#utility.yul\":13741:13758   */\n      add\n        /* \"#utility.yul\":13734:13781   */\n      mstore\n        /* \"#utility.yul\":13798:13876   */\n      tag_536\n        /* \"#utility.yul\":13871:13875   */\n      dup2\n        /* \"#utility.yul\":13862:13868   */\n      dup5\n        /* \"#utility.yul\":13798:13876   */\n      tag_478\n      jump\t// in\n    tag_536:\n        /* \"#utility.yul\":13790:13876   */\n      swap1\n      pop\n        /* \"#utility.yul\":13570:13883   */\n      swap3\n      swap2\n      pop\n      pop\n      jump\t// out\n        /* \"#utility.yul\":13889:14308   */\n    tag_322:\n        /* \"#utility.yul\":14055:14059   */\n      0x00\n        /* \"#utility.yul\":14093:14095   */\n      0x20\n        /* \"#utility.yul\":14082:14091   */\n      dup3\n        /* \"#utility.yul\":14078:14096   */\n      add\n        /* \"#utility.yul\":14070:14096   */\n      swap1\n      pop\n        /* \"#utility.yul\":14142:14151   */\n      dup2\n        /* \"#utility.yul\":14136:14140   */\n      dup2\n        /* \"#utility.yul\":14132:14152   */\n      sub\n        /* \"#utility.yul\":14128:14129   */\n      0x00\n        /* \"#utility.yul\":14117:14126   */\n      dup4\n        /* \"#utility.yul\":14113:14130   */\n      add\n        /* \"#utility.yul\":14106:14153   */\n      mstore\n        /* \"#utility.yul\":14170:14301   */\n      tag_538\n        /* \"#utility.yul\":14296:14300   */\n      dup2\n        /* \"#utility.yul\":14170:14301   */\n      tag_488\n      jump\t// in\n    tag_538:\n        /* \"#utility.yul\":14162:14301   */\n      swap1\n      pop\n        /* \"#utility.yul\":13889:14308   */\n      swap2\n      swap1\n      pop\n      jump\t// out\n        /* \"#utility.yul\":14314:14733   */\n    tag_136:\n        /* \"#utility.yul\":14480:14484   */\n      0x00\n        /* \"#utility.yul\":14518:14520   */\n      0x20\n        /* \"#utility.yul\":14507:14516   */\n      dup3\n        /* \"#utility.yul\":14503:14521   */\n      add\n        /* \"#utility.yul\":14495:14521   */\n      swap1\n      pop\n        /* \"#utility.yul\":14567:14576   */\n      dup2\n        /* \"#utility.yul\":14561:14565   */\n      dup2\n        /* \"#utility.yul\":14557:14577   */\n      sub\n        /* \"#utility.yul\":14553:14554   */\n      0x00\n        /* \"#utility.yul\":14542:14551   */\n      dup4\n        /* \"#utility.yul\":14538:14555   */\n      add\n        /* \"#utility.yul\":14531:14578   */\n      mstore\n        /* \"#utility.yul\":14595:14726   */\n      tag_540\n        /* \"#utility.yul\":14721:14725   */\n      dup2\n        /* \"#utility.yul\":14595:14726   */\n      tag_493\n      jump\t// in\n    tag_540:\n        /* \"#utility.yul\":14587:14726   */\n      swap1\n      pop\n        /* \"#utility.yul\":14314:14733   */\n      swap2\n      swap1\n      pop\n      jump\t// out\n        /* \"#utility.yul\":14739:15158   */\n    tag_124:\n        /* \"#utility.yul\":14905:14909   */\n      0x00\n        /* \"#utility.yul\":14943:14945   */\n      0x20\n        /* \"#utility.yul\":14932:14941   */\n      dup3\n        /* \"#utility.yul\":14928:14946   */\n      add\n        /* \"#utility.yul\":14920:14946   */\n      swap1\n      pop\n        /* \"#utility.yul\":14992:15001   */\n      dup2\n        /* \"#utility.yul\":14986:14990   */\n      dup2\n        /* \"#utility.yul\":14982:15002   */\n      sub\n        /* \"#utility.yul\":14978:14979   */\n      0x00\n        /* \"#utility.yul\":14967:14976   */\n      dup4\n        /* \"#utility.yul\":14963:14980   */\n      add\n        /* \"#utility.yul\":14956:15003   */\n      mstore\n        /* \"#utility.yul\":15020:15151   */\n      tag_542\n        /* \"#utility.yul\":15146:15150   */\n      dup2\n        /* \"#utility.yul\":15020:15151   */\n      tag_498\n      jump\t// in\n    tag_542:\n        /* \"#utility.yul\":15012:15151   */\n      swap1\n      pop\n        /* \"#utility.yul\":14739:15158   */\n      swap2\n      swap1\n      pop\n      jump\t// out\n        /* \"#utility.yul\":15164:15583   */\n    tag_161:\n        /* \"#utility.yul\":15330:15334   */\n      0x00\n        /* \"#utility.yul\":15368:15370   */\n      0x20\n        /* \"#utility.yul\":15357:15366   */\n      dup3\n        /* \"#utility.yul\":15353:15371   */\n      add\n        /* \"#utility.yul\":15345:15371   */\n      swap1\n      pop\n        /* \"#utility.yul\":15417:15426   */\n      dup2\n        /* \"#utility.yul\":15411:15415   */\n      dup2\n        /* \"#utility.yul\":15407:15427   */\n      sub\n        /* \"#utility.yul\":15403:15404   */\n      0x00\n        /* \"#utility.yul\":15392:15401   */\n      dup4\n        /* \"#utility.yul\":15388:15405   */\n      add\n        /* \"#utility.yul\":15381:15428   */\n      mstore\n        /* \"#utility.yul\":15445:15576   */\n      tag_544\n        /* \"#utility.yul\":15571:15575   */\n      dup2\n        /* \"#utility.yul\":15445:15576   */\n      tag_503\n      jump\t// in\n    tag_544:\n        /* \"#utility.yul\":15437:15576   */\n      swap1\n      pop\n        /* \"#utility.yul\":15164:15583   */\n      swap2\n      swap1\n      pop\n      jump\t// out\n        /* \"#utility.yul\":15589:15811   */\n    tag_31:\n        /* \"#utility.yul\":15682:15686   */\n      0x00\n        /* \"#utility.yul\":15720:15722   */\n      0x20\n        /* \"#utility.yul\":15709:15718   */\n      dup3\n        /* \"#utility.yul\":15705:15723   */\n      add\n        /* \"#utility.yul\":15697:15723   */\n      swap1\n      pop\n        /* \"#utility.yul\":15733:15804   */\n      tag_546\n        /* \"#utility.yul\":15801:15802   */\n      0x00\n        /* \"#utility.yul\":15790:15799   */\n      dup4\n        /* \"#utility.yul\":15786:15803   */\n      add\n        /* \"#utility.yul\":15777:15783   */\n      dup5\n        /* \"#utility.yul\":15733:15804   */\n      tag_508\n      jump\t// in\n    tag_546:\n        /* \"#utility.yul\":15589:15811   */\n      swap3\n      swap2\n      pop\n      pop\n      jump\t// out\n        /* \"#utility.yul\":15817:16905   */\n    tag_216:\n        /* \"#utility.yul\":16126:16130   */\n      0x00\n        /* \"#utility.yul\":16164:16167   */\n      0x0100\n        /* \"#utility.yul\":16153:16162   */\n      dup3\n        /* \"#utility.yul\":16149:16168   */\n      add\n        /* \"#utility.yul\":16141:16168   */\n      swap1\n      pop\n        /* \"#utility.yul\":16178:16249   */\n      tag_548\n        /* \"#utility.yul\":16246:16247   */\n      0x00\n        /* \"#utility.yul\":16235:16244   */\n      dup4\n        /* \"#utility.yul\":16231:16248   */\n      add\n        /* \"#utility.yul\":16222:16228   */\n      dup12\n        /* \"#utility.yul\":16178:16249   */\n      tag_508\n      jump\t// in\n    tag_548:\n        /* \"#utility.yul\":16296:16305   */\n      dup2\n        /* \"#utility.yul\":16290:16294   */\n      dup2\n        /* \"#utility.yul\":16286:16306   */\n      sub\n        /* \"#utility.yul\":16281:16283   */\n      0x20\n        /* \"#utility.yul\":16270:16279   */\n      dup4\n        /* \"#utility.yul\":16266:16284   */\n      add\n        /* \"#utility.yul\":16259:16307   */\n      mstore\n        /* \"#utility.yul\":16324:16402   */\n      tag_549\n        /* \"#utility.yul\":16397:16401   */\n      dup2\n        /* \"#utility.yul\":16388:16394   */\n      dup11\n        /* \"#utility.yul\":16324:16402   */\n      tag_478\n      jump\t// in\n    tag_549:\n        /* \"#utility.yul\":16316:16402   */\n      swap1\n      pop\n        /* \"#utility.yul\":16412:16484   */\n      tag_550\n        /* \"#utility.yul\":16480:16482   */\n      0x40\n        /* \"#utility.yul\":16469:16478   */\n      dup4\n        /* \"#utility.yul\":16465:16483   */\n      add\n        /* \"#utility.yul\":16456:16462   */\n      dup10\n        /* \"#utility.yul\":16412:16484   */\n      tag_508\n      jump\t// in\n    tag_550:\n        /* \"#utility.yul\":16494:16566   */\n      tag_551\n        /* \"#utility.yul\":16562:16564   */\n      0x60\n        /* \"#utility.yul\":16551:16560   */\n      dup4\n        /* \"#utility.yul\":16547:16565   */\n      add\n        /* \"#utility.yul\":16538:16544   */\n      dup9\n        /* \"#utility.yul\":16494:16566   */\n      tag_450\n      jump\t// in\n    tag_551:\n        /* \"#utility.yul\":16576:16649   */\n      tag_552\n        /* \"#utility.yul\":16644:16647   */\n      0x80\n        /* \"#utility.yul\":16633:16642   */\n      dup4\n        /* \"#utility.yul\":16629:16648   */\n      add\n        /* \"#utility.yul\":16620:16626   */\n      dup8\n        /* \"#utility.yul\":16576:16649   */\n      tag_508\n      jump\t// in\n    tag_552:\n        /* \"#utility.yul\":16659:16732   */\n      tag_553\n        /* \"#utility.yul\":16727:16730   */\n      0xa0\n        /* \"#utility.yul\":16716:16725   */\n      dup4\n        /* \"#utility.yul\":16712:16731   */\n      add\n        /* \"#utility.yul\":16703:16709   */\n      dup7\n        /* \"#utility.yul\":16659:16732   */\n      tag_508\n      jump\t// in\n    tag_553:\n        /* \"#utility.yul\":16742:16815   */\n      tag_554\n        /* \"#utility.yul\":16810:16813   */\n      0xc0\n        /* \"#utility.yul\":16799:16808   */\n      dup4\n        /* \"#utility.yul\":16795:16814   */\n      add\n        /* \"#utility.yul\":16786:16792   */\n      dup6\n        /* \"#utility.yul\":16742:16815   */\n      tag_508\n      jump\t// in\n    tag_554:\n        /* \"#utility.yul\":16825:16898   */\n      tag_555\n        /* \"#utility.yul\":16893:16896   */\n      0xe0\n        /* \"#utility.yul\":16882:16891   */\n      dup4\n        /* \"#utility.yul\":16878:16897   */\n      add\n        /* \"#utility.yul\":16869:16875   */\n      dup5\n        /* \"#utility.yul\":16825:16898   */\n      tag_508\n      jump\t// in\n    tag_555:\n        /* \"#utility.yul\":15817:16905   */\n      swap10\n      swap9\n      pop\n      pop\n      pop\n      pop\n      pop\n      pop\n      pop\n      pop\n      pop\n      jump\t// out\n        /* \"#utility.yul\":16911:18110   */\n    tag_247:\n        /* \"#utility.yul\":17248:17252   */\n      0x00\n        /* \"#utility.yul\":17286:17289   */\n      0x0120\n        /* \"#utility.yul\":17275:17284   */\n      dup3\n        /* \"#utility.yul\":17271:17290   */\n      add\n        /* \"#utility.yul\":17263:17290   */\n      swap1\n      pop\n        /* \"#utility.yul\":17300:17371   */\n      tag_557\n        /* \"#utility.yul\":17368:17369   */\n      0x00\n        /* \"#utility.yul\":17357:17366   */\n      dup4\n        /* \"#utility.yul\":17353:17370   */\n      add\n        /* \"#utility.yul\":17344:17350   */\n      dup13\n        /* \"#utility.yul\":17300:17371   */\n      tag_508\n      jump\t// in\n    tag_557:\n        /* \"#utility.yul\":17418:17427   */\n      dup2\n        /* \"#utility.yul\":17412:17416   */\n      dup2\n        /* \"#utility.yul\":17408:17428   */\n      sub\n        /* \"#utility.yul\":17403:17405   */\n      0x20\n        /* \"#utility.yul\":17392:17401   */\n      dup4\n        /* \"#utility.yul\":17388:17406   */\n      add\n        /* \"#utility.yul\":17381:17429   */\n      mstore\n        /* \"#utility.yul\":17446:17524   */\n      tag_558\n        /* \"#utility.yul\":17519:17523   */\n      dup2\n        /* \"#utility.yul\":17510:17516   */\n      dup12\n        /* \"#utility.yul\":17446:17524   */\n      tag_478\n      jump\t// in\n    tag_558:\n        /* \"#utility.yul\":17438:17524   */\n      swap1\n      pop\n        /* \"#utility.yul\":17534:17606   */\n      tag_559\n        /* \"#utility.yul\":17602:17604   */\n      0x40\n        /* \"#utility.yul\":17591:17600   */\n      dup4\n        /* \"#utility.yul\":17587:17605   */\n      add\n        /* \"#utility.yul\":17578:17584   */\n      dup11\n        /* \"#utility.yul\":17534:17606   */\n      tag_508\n      jump\t// in\n    tag_559:\n        /* \"#utility.yul\":17616:17688   */\n      tag_560\n        /* \"#utility.yul\":17684:17686   */\n      0x60\n        /* \"#utility.yul\":17673:17682   */\n      dup4\n        /* \"#utility.yul\":17669:17687   */\n      add\n        /* \"#utility.yul\":17660:17666   */\n      dup10\n        /* \"#utility.yul\":17616:17688   */\n      tag_508\n      jump\t// in\n    tag_560:\n        /* \"#utility.yul\":17698:17771   */\n      tag_561\n        /* \"#utility.yul\":17766:17769   */\n      0x80\n        /* \"#utility.yul\":17755:17764   */\n      dup4\n        /* \"#utility.yul\":17751:17770   */\n      add\n        /* \"#utility.yul\":17742:17748   */\n      dup9\n        /* \"#utility.yul\":17698:17771   */\n      tag_450\n      jump\t// in\n    tag_561:\n        /* \"#utility.yul\":17781:17854   */\n      tag_562\n        /* \"#utility.yul\":17849:17852   */\n      0xa0\n        /* \"#utility.yul\":17838:17847   */\n      dup4\n        /* \"#utility.yul\":17834:17853   */\n      add\n        /* \"#utility.yul\":17825:17831   */\n      dup8\n        /* \"#utility.yul\":17781:17854   */\n      tag_508\n      jump\t// in\n    tag_562:\n        /* \"#utility.yul\":17864:17937   */\n      tag_563\n        /* \"#utility.yul\":17932:17935   */\n      0xc0\n        /* \"#utility.yul\":17921:17930   */\n      dup4\n        /* \"#utility.yul\":17917:17936   */\n      add\n        /* \"#utility.yul\":17908:17914   */\n      dup7\n        /* \"#utility.yul\":17864:17937   */\n      tag_508\n      jump\t// in\n    tag_563:\n        /* \"#utility.yul\":17947:18020   */\n      tag_564\n        /* \"#utility.yul\":18015:18018   */\n      0xe0\n        /* \"#utility.yul\":18004:18013   */\n      dup4\n        /* \"#utility.yul\":18000:18019   */\n      add\n        /* \"#utility.yul\":17991:17997   */\n      dup6\n        /* \"#utility.yul\":17947:18020   */\n      tag_508\n      jump\t// in\n    tag_564:\n        /* \"#utility.yul\":18030:18103   */\n      tag_565\n        /* \"#utility.yul\":18098:18101   */\n      0x0100\n        /* \"#utility.yul\":18087:18096   */\n      dup4\n        /* \"#utility.yul\":18083:18102   */\n      add\n        /* \"#utility.yul\":18074:18080   */\n      dup5\n        /* \"#utility.yul\":18030:18103   */\n      tag_508\n      jump\t// in\n    tag_565:\n        /* \"#utility.yul\":16911:18110   */\n      swap11\n      swap10\n      pop\n      pop\n      pop\n      pop\n      pop\n      pop\n      pop\n      pop\n      pop\n      pop\n      jump\t// out\n        /* \"#utility.yul\":18116:18871   */\n    tag_181:\n        /* \"#utility.yul\":18341:18345   */\n      0x00\n        /* \"#utility.yul\":18379:18382   */\n      0xa0\n        /* \"#utility.yul\":18368:18377   */\n      dup3\n        /* \"#utility.yul\":18364:18383   */\n      add\n        /* \"#utility.yul\":18356:18383   */\n      swap1\n      pop\n        /* \"#utility.yul\":18393:18464   */\n      tag_567\n        /* \"#utility.yul\":18461:18462   */\n      0x00\n        /* \"#utility.yul\":18450:18459   */\n      dup4\n        /* \"#utility.yul\":18446:18463   */\n      add\n        /* \"#utility.yul\":18437:18443   */\n      dup9\n        /* \"#utility.yul\":18393:18464   */\n      tag_508\n      jump\t// in\n    tag_567:\n        /* \"#utility.yul\":18511:18520   */\n      dup2\n        /* \"#utility.yul\":18505:18509   */\n      dup2\n        /* \"#utility.yul\":18501:18521   */\n      sub\n        /* \"#utility.yul\":18496:18498   */\n      0x20\n        /* \"#utility.yul\":18485:18494   */\n      dup4\n        /* \"#utility.yul\":18481:18499   */\n      add\n        /* \"#utility.yul\":18474:18522   */\n      mstore\n        /* \"#utility.yul\":18539:18617   */\n      tag_568\n        /* \"#utility.yul\":18612:18616   */\n      dup2\n        /* \"#utility.yul\":18603:18609   */\n      dup8\n        /* \"#utility.yul\":18539:18617   */\n      tag_478\n      jump\t// in\n    tag_568:\n        /* \"#utility.yul\":18531:18617   */\n      swap1\n      pop\n        /* \"#utility.yul\":18627:18699   */\n      tag_569\n        /* \"#utility.yul\":18695:18697   */\n      0x40\n        /* \"#utility.yul\":18684:18693   */\n      dup4\n        /* \"#utility.yul\":18680:18698   */\n      add\n        /* \"#utility.yul\":18671:18677   */\n      dup7\n        /* \"#utility.yul\":18627:18699   */\n      tag_508\n      jump\t// in\n    tag_569:\n        /* \"#utility.yul\":18709:18781   */\n      tag_570\n        /* \"#utility.yul\":18777:18779   */\n      0x60\n        /* \"#utility.yul\":18766:18775   */\n      dup4\n        /* \"#utility.yul\":18762:18780   */\n      add\n        /* \"#utility.yul\":18753:18759   */\n      dup6\n        /* \"#utility.yul\":18709:18781   */\n      tag_508\n      jump\t// in\n    tag_570:\n        /* \"#utility.yul\":18791:18864   */\n      tag_571\n        /* \"#utility.yul\":18859:18862   */\n      0x80\n        /* \"#utility.yul\":18848:18857   */\n      dup4\n        /* \"#utility.yul\":18844:18863   */\n      add\n        /* \"#utility.yul\":18835:18841   */\n      dup5\n        /* \"#utility.yul\":18791:18864   */\n      tag_508\n      jump\t// in\n    tag_571:\n        /* \"#utility.yul\":18116:18871   */\n      swap7\n      swap6\n      pop\n      pop\n      pop\n      pop\n      pop\n      pop\n      jump\t// out\n        /* \"#utility.yul\":18877:19006   */\n    tag_358:\n        /* \"#utility.yul\":18911:18917   */\n      0x00\n        /* \"#utility.yul\":18938:18958   */\n      tag_573\n      tag_574\n      jump\t// in\n    tag_573:\n        /* \"#utility.yul\":18928:18958   */\n      swap1\n      pop\n        /* \"#utility.yul\":18967:19000   */\n      tag_575\n        /* \"#utility.yul\":18995:18999   */\n      dup3\n        /* \"#utility.yul\":18987:18993   */\n      dup3\n        /* \"#utility.yul\":18967:19000   */\n      tag_576\n      jump\t// in\n    tag_575:\n        /* \"#utility.yul\":18877:19006   */\n      swap2\n      swap1\n      pop\n      jump\t// out\n        /* \"#utility.yul\":19012:19087   */\n    tag_574:\n        /* \"#utility.yul\":19045:19051   */\n      0x00\n        /* \"#utility.yul\":19078:19080   */\n      0x40\n        /* \"#utility.yul\":19072:19081   */\n      mload\n        /* \"#utility.yul\":19062:19081   */\n      swap1\n      pop\n        /* \"#utility.yul\":19012:19087   */\n      swap1\n      jump\t// out\n        /* \"#utility.yul\":19093:19401   */\n    tag_357:\n        /* \"#utility.yul\":19155:19159   */\n      0x00\n        /* \"#utility.yul\":19245:19263   */\n      0xffffffffffffffff\n        /* \"#utility.yul\":19237:19243   */\n      dup3\n        /* \"#utility.yul\":19234:19264   */\n      gt\n        /* \"#utility.yul\":19231:19287   */\n      iszero\n      tag_579\n      jumpi\n        /* \"#utility.yul\":19267:19285   */\n      tag_580\n      tag_581\n      jump\t// in\n    tag_580:\n        /* \"#utility.yul\":19231:19287   */\n    tag_579:\n        /* \"#utility.yul\":19305:19334   */\n      tag_582\n        /* \"#utility.yul\":19327:19333   */\n      dup3\n        /* \"#utility.yul\":19305:19334   */\n      tag_487\n      jump\t// in\n    tag_582:\n        /* \"#utility.yul\":19297:19334   */\n      swap1\n      pop\n        /* \"#utility.yul\":19389:19393   */\n      0x20\n        /* \"#utility.yul\":19383:19387   */\n      dup2\n        /* \"#utility.yul\":19379:19394   */\n      add\n        /* \"#utility.yul\":19371:19394   */\n      swap1\n      pop\n        /* \"#utility.yul\":19093:19401   */\n      swap2\n      swap1\n      pop\n      jump\t// out\n        /* \"#utility.yul\":19407:19506   */\n    tag_481:\n        /* \"#utility.yul\":19459:19465   */\n      0x00\n        /* \"#utility.yul\":19493:19498   */\n      dup2\n        /* \"#utility.yul\":19487:19499   */\n      mload\n        /* \"#utility.yul\":19477:19499   */\n      swap1\n      pop\n        /* \"#utility.yul\":19407:19506   */\n      swap2\n      swap1\n      pop\n      jump\t// out\n        /* \"#utility.yul\":19512:19681   */\n    tag_483:\n        /* \"#utility.yul\":19596:19607   */\n      0x00\n        /* \"#utility.yul\":19630:19636   */\n      dup3\n        /* \"#utility.yul\":19625:19628   */\n      dup3\n        /* \"#utility.yul\":19618:19637   */\n      mstore\n        /* \"#utility.yul\":19670:19674   */\n      0x20\n        /* \"#utility.yul\":19665:19668   */\n      dup3\n        /* \"#utility.yul\":19661:19675   */\n      add\n        /* \"#utility.yul\":19646:19675   */\n      swap1\n      pop\n        /* \"#utility.yul\":19512:19681   */\n      swap3\n      swap2\n      pop\n      pop\n      jump\t// out\n        /* \"#utility.yul\":19687:19783   */\n    tag_453:\n        /* \"#utility.yul\":19724:19731   */\n      0x00\n        /* \"#utility.yul\":19753:19777   */\n      tag_586\n        /* \"#utility.yul\":19771:19776   */\n      dup3\n        /* \"#utility.yul\":19753:19777   */\n      tag_587\n      jump\t// in\n    tag_586:\n        /* \"#utility.yul\":19742:19777   */\n      swap1\n      pop\n        /* \"#utility.yul\":19687:19783   */\n      swap2\n      swap1\n      pop\n      jump\t// out\n        /* \"#utility.yul\":19789:19879   */\n    tag_457:\n        /* \"#utility.yul\":19823:19830   */\n      0x00\n        /* \"#utility.yul\":19866:19871   */\n      dup2\n        /* \"#utility.yul\":19859:19872   */\n      iszero\n        /* \"#utility.yul\":19852:19873   */\n      iszero\n        /* \"#utility.yul\":19841:19873   */\n      swap1\n      pop\n        /* \"#utility.yul\":19789:19879   */\n      swap2\n      swap1\n      pop\n      jump\t// out\n        /* \"#utility.yul\":19885:19962   */\n    tag_461:\n        /* \"#utility.yul\":19922:19929   */\n      0x00\n        /* \"#utility.yul\":19951:19956   */\n      dup2\n        /* \"#utility.yul\":19940:19956   */\n      swap1\n      pop\n        /* \"#utility.yul\":19885:19962   */\n      swap2\n      swap1\n      pop\n      jump\t// out\n        /* \"#utility.yul\":19968:20095   */\n    tag_590:\n        /* \"#utility.yul\":20013:20020   */\n      0x00\n        /* \"#utility.yul\":20042:20047   */\n      dup2\n        /* \"#utility.yul\":20031:20047   */\n      swap1\n      pop\n        /* \"#utility.yul\":20048:20089   */\n      tag_592\n        /* \"#utility.yul\":20083:20088   */\n      dup3\n        /* \"#utility.yul\":20048:20089   */\n      tag_593\n      jump\t// in\n    tag_592:\n        /* \"#utility.yul\":19968:20095   */\n      swap2\n      swap1\n      pop\n      jump\t// out\n        /* \"#utility.yul\":20101:20227   */\n    tag_587:\n        /* \"#utility.yul\":20138:20145   */\n      0x00\n        /* \"#utility.yul\":20178:20220   */\n      0xffffffffffffffffffffffffffffffffffffffff\n        /* \"#utility.yul\":20171:20176   */\n      dup3\n        /* \"#utility.yul\":20167:20221   */\n      and\n        /* \"#utility.yul\":20156:20221   */\n      swap1\n      pop\n        /* \"#utility.yul\":20101:20227   */\n      swap2\n      swap1\n      pop\n      jump\t// out\n        /* \"#utility.yul\":20233:20310   */\n    tag_511:\n        /* \"#utility.yul\":20270:20277   */\n      0x00\n        /* \"#utility.yul\":20299:20304   */\n      dup2\n        /* \"#utility.yul\":20288:20304   */\n      swap1\n      pop\n        /* \"#utility.yul\":20233:20310   */\n      swap2\n      swap1\n      pop\n      jump\t// out\n        /* \"#utility.yul\":20316:20465   */\n    tag_465:\n        /* \"#utility.yul\":20389:20398   */\n      0x00\n        /* \"#utility.yul\":20422:20459   */\n      tag_597\n        /* \"#utility.yul\":20453:20458   */\n      dup3\n        /* \"#utility.yul\":20422:20459   */\n      tag_598\n      jump\t// in\n    tag_597:\n        /* \"#utility.yul\":20409:20459   */\n      swap1\n      pop\n        /* \"#utility.yul\":20316:20465   */\n      swap2\n      swap1\n      pop\n      jump\t// out\n        /* \"#utility.yul\":20471:20614   */\n    tag_469:\n        /* \"#utility.yul\":20538:20547   */\n      0x00\n        /* \"#utility.yul\":20571:20608   */\n      tag_600\n        /* \"#utility.yul\":20602:20607   */\n      dup3\n        /* \"#utility.yul\":20571:20608   */\n      tag_598\n      jump\t// in\n    tag_600:\n        /* \"#utility.yul\":20558:20608   */\n      swap1\n      pop\n        /* \"#utility.yul\":20471:20614   */\n      swap2\n      swap1\n      pop\n      jump\t// out\n        /* \"#utility.yul\":20620:20773   */\n    tag_473:\n        /* \"#utility.yul\":20697:20706   */\n      0x00\n        /* \"#utility.yul\":20730:20767   */\n      tag_602\n        /* \"#utility.yul\":20761:20766   */\n      dup3\n        /* \"#utility.yul\":20730:20767   */\n      tag_598\n      jump\t// in\n    tag_602:\n        /* \"#utility.yul\":20717:20767   */\n      swap1\n      pop\n        /* \"#utility.yul\":20620:20773   */\n      swap2\n      swap1\n      pop\n      jump\t// out\n        /* \"#utility.yul\":20779:20906   */\n    tag_477:\n        /* \"#utility.yul\":20835:20844   */\n      0x00\n        /* \"#utility.yul\":20868:20900   */\n      tag_604\n        /* \"#utility.yul\":20894:20899   */\n      dup3\n        /* \"#utility.yul\":20868:20900   */\n      tag_590\n      jump\t// in\n    tag_604:\n        /* \"#utility.yul\":20855:20900   */\n      swap1\n      pop\n        /* \"#utility.yul\":20779:20906   */\n      swap2\n      swap1\n      pop\n      jump\t// out\n        /* \"#utility.yul\":20912:21038   */\n    tag_598:\n        /* \"#utility.yul\":20962:20971   */\n      0x00\n        /* \"#utility.yul\":20995:21032   */\n      tag_606\n        /* \"#utility.yul\":21026:21031   */\n      dup3\n        /* \"#utility.yul\":20995:21032   */\n      tag_607\n      jump\t// in\n    tag_606:\n        /* \"#utility.yul\":20982:21032   */\n      swap1\n      pop\n        /* \"#utility.yul\":20912:21038   */\n      swap2\n      swap1\n      pop\n      jump\t// out\n        /* \"#utility.yul\":21044:21157   */\n    tag_607:\n        /* \"#utility.yul\":21094:21103   */\n      0x00\n        /* \"#utility.yul\":21127:21151   */\n      tag_609\n        /* \"#utility.yul\":21145:21150   */\n      dup3\n        /* \"#utility.yul\":21127:21151   */\n      tag_587\n      jump\t// in\n    tag_609:\n        /* \"#utility.yul\":21114:21151   */\n      swap1\n      pop\n        /* \"#utility.yul\":21044:21157   */\n      swap2\n      swap1\n      pop\n      jump\t// out\n        /* \"#utility.yul\":21163:21317   */\n    tag_363:\n        /* \"#utility.yul\":21247:21253   */\n      dup3\n        /* \"#utility.yul\":21242:21245   */\n      dup2\n        /* \"#utility.yul\":21237:21240   */\n      dup4\n        /* \"#utility.yul\":21224:21254   */\n      calldatacopy\n        /* \"#utility.yul\":21309:21310   */\n      0x00\n        /* \"#utility.yul\":21300:21306   */\n      dup4\n        /* \"#utility.yul\":21295:21298   */\n      dup4\n        /* \"#utility.yul\":21291:21307   */\n      add\n        /* \"#utility.yul\":21284:21311   */\n      mstore\n        /* \"#utility.yul\":21163:21317   */\n      pop\n      pop\n      pop\n      jump\t// out\n        /* \"#utility.yul\":21323:21630   */\n    tag_485:\n        /* \"#utility.yul\":21391:21392   */\n      0x00\n        /* \"#utility.yul\":21401:21514   */\n    tag_612:\n        /* \"#utility.yul\":21415:21421   */\n      dup4\n        /* \"#utility.yul\":21412:21413   */\n      dup2\n        /* \"#utility.yul\":21409:21422   */\n      lt\n        /* \"#utility.yul\":21401:21514   */\n      iszero\n      tag_614\n      jumpi\n        /* \"#utility.yul\":21500:21501   */\n      dup1\n        /* \"#utility.yul\":21495:21498   */\n      dup3\n        /* \"#utility.yul\":21491:21502   */\n      add\n        /* \"#utility.yul\":21485:21503   */\n      mload\n        /* \"#utility.yul\":21481:21482   */\n      dup2\n        /* \"#utility.yul\":21476:21479   */\n      dup5\n        /* \"#utility.yul\":21472:21483   */\n      add\n        /* \"#utility.yul\":21465:21504   */\n      mstore\n        /* \"#utility.yul\":21437:21439   */\n      0x20\n        /* \"#utility.yul\":21434:21435   */\n      dup2\n        /* \"#utility.yul\":21430:21440   */\n      add\n        /* \"#utility.yul\":21425:21440   */\n      swap1\n      pop\n        /* \"#utility.yul\":21401:21514   */\n      jump(tag_612)\n    tag_614:\n        /* \"#utility.yul\":21532:21538   */\n      dup4\n        /* \"#utility.yul\":21529:21530   */\n      dup2\n        /* \"#utility.yul\":21526:21539   */\n      gt\n        /* \"#utility.yul\":21523:21624   */\n      iszero\n      tag_615\n      jumpi\n        /* \"#utility.yul\":21612:21613   */\n      0x00\n        /* \"#utility.yul\":21603:21609   */\n      dup5\n        /* \"#utility.yul\":21598:21601   */\n      dup5\n        /* \"#utility.yul\":21594:21610   */\n      add\n        /* \"#utility.yul\":21587:21614   */\n      mstore\n        /* \"#utility.yul\":21523:21624   */\n    tag_615:\n        /* \"#utility.yul\":21372:21630   */\n      pop\n        /* \"#utility.yul\":21323:21630   */\n      pop\n      pop\n      pop\n      jump\t// out\n        /* \"#utility.yul\":21636:21956   */\n    tag_113:\n        /* \"#utility.yul\":21680:21686   */\n      0x00\n        /* \"#utility.yul\":21717:21718   */\n      0x02\n        /* \"#utility.yul\":21711:21715   */\n      dup3\n        /* \"#utility.yul\":21707:21719   */\n      div\n        /* \"#utility.yul\":21697:21719   */\n      swap1\n      pop\n        /* \"#utility.yul\":21764:21765   */\n      0x01\n        /* \"#utility.yul\":21758:21762   */\n      dup3\n        /* \"#utility.yul\":21754:21766   */\n      and\n        /* \"#utility.yul\":21785:21803   */\n      dup1\n        /* \"#utility.yul\":21775:21856   */\n      tag_617\n      jumpi\n        /* \"#utility.yul\":21841:21845   */\n      0x7f\n        /* \"#utility.yul\":21833:21839   */\n      dup3\n        /* \"#utility.yul\":21829:21846   */\n      and\n        /* \"#utility.yul\":21819:21846   */\n      swap2\n      pop\n        /* \"#utility.yul\":21775:21856   */\n    tag_617:\n        /* \"#utility.yul\":21903:21905   */\n      0x20\n        /* \"#utility.yul\":21895:21901   */\n      dup3\n        /* \"#utility.yul\":21892:21906   */\n      lt\n        /* \"#utility.yul\":21872:21890   */\n      dup2\n        /* \"#utility.yul\":21869:21907   */\n      eq\n        /* \"#utility.yul\":21866:21950   */\n      iszero\n      tag_618\n      jumpi\n        /* \"#utility.yul\":21922:21940   */\n      tag_619\n      tag_620\n      jump\t// in\n    tag_619:\n        /* \"#utility.yul\":21866:21950   */\n    tag_618:\n        /* \"#utility.yul\":21687:21956   */\n      pop\n        /* \"#utility.yul\":21636:21956   */\n      swap2\n      swap1\n      pop\n      jump\t// out\n        /* \"#utility.yul\":21962:22243   */\n    tag_576:\n        /* \"#utility.yul\":22045:22072   */\n      tag_622\n        /* \"#utility.yul\":22067:22071   */\n      dup3\n        /* \"#utility.yul\":22045:22072   */\n      tag_487\n      jump\t// in\n    tag_622:\n        /* \"#utility.yul\":22037:22043   */\n      dup2\n        /* \"#utility.yul\":22033:22073   */\n      add\n        /* \"#utility.yul\":22175:22181   */\n      dup2\n        /* \"#utility.yul\":22163:22173   */\n      dup2\n        /* \"#utility.yul\":22160:22182   */\n      lt\n        /* \"#utility.yul\":22139:22157   */\n      0xffffffffffffffff\n        /* \"#utility.yul\":22127:22137   */\n      dup3\n        /* \"#utility.yul\":22124:22158   */\n      gt\n        /* \"#utility.yul\":22121:22183   */\n      or\n        /* \"#utility.yul\":22118:22206   */\n      iszero\n      tag_623\n      jumpi\n        /* \"#utility.yul\":22186:22204   */\n      tag_624\n      tag_581\n      jump\t// in\n    tag_624:\n        /* \"#utility.yul\":22118:22206   */\n    tag_623:\n        /* \"#utility.yul\":22226:22236   */\n      dup1\n        /* \"#utility.yul\":22222:22224   */\n      0x40\n        /* \"#utility.yul\":22215:22237   */\n      mstore\n        /* \"#utility.yul\":22005:22243   */\n      pop\n        /* \"#utility.yul\":21962:22243   */\n      pop\n      pop\n      jump\t// out\n        /* \"#utility.yul\":22249:22429   */\n    tag_172:\n        /* \"#utility.yul\":22297:22374   */\n      0x4e487b7100000000000000000000000000000000000000000000000000000000\n        /* \"#utility.yul\":22294:22295   */\n      0x00\n        /* \"#utility.yul\":22287:22375   */\n      mstore\n        /* \"#utility.yul\":22394:22398   */\n      0x21\n        /* \"#utility.yul\":22391:22392   */\n      0x04\n        /* \"#utility.yul\":22384:22399   */\n      mstore\n        /* \"#utility.yul\":22418:22422   */\n      0x24\n        /* \"#utility.yul\":22415:22416   */\n      0x00\n        /* \"#utility.yul\":22408:22423   */\n      revert\n        /* \"#utility.yul\":22435:22615   */\n    tag_620:\n        /* \"#utility.yul\":22483:22560   */\n      0x4e487b7100000000000000000000000000000000000000000000000000000000\n        /* \"#utility.yul\":22480:22481   */\n      0x00\n        /* \"#utility.yul\":22473:22561   */\n      mstore\n        /* \"#utility.yul\":22580:22584   */\n      0x22\n        /* \"#utility.yul\":22577:22578   */\n      0x04\n        /* \"#utility.yul\":22570:22585   */\n      mstore\n        /* \"#utility.yul\":22604:22608   */\n      0x24\n        /* \"#utility.yul\":22601:22602   */\n      0x00\n        /* \"#utility.yul\":22594:22609   */\n      revert\n        /* \"#utility.yul\":22621:22801   */\n    tag_581:\n        /* \"#utility.yul\":22669:22746   */\n      0x4e487b7100000000000000000000000000000000000000000000000000000000\n        /* \"#utility.yul\":22666:22667   */\n      0x00\n        /* \"#utility.yul\":22659:22747   */\n      mstore\n        /* \"#utility.yul\":22766:22770   */\n      0x41\n        /* \"#utility.yul\":22763:22764   */\n      0x04\n        /* \"#utility.yul\":22756:22771   */\n      mstore\n        /* \"#utility.yul\":22790:22794   */\n      0x24\n        /* \"#utility.yul\":22787:22788   */\n      0x00\n        /* \"#utility.yul\":22780:22795   */\n      revert\n        /* \"#utility.yul\":22807:22924   */\n    tag_379:\n        /* \"#utility.yul\":22916:22917   */\n      0x00\n        /* \"#utility.yul\":22913:22914   */\n      dup1\n        /* \"#utility.yul\":22906:22918   */\n      revert\n        /* \"#utility.yul\":22930:23047   */\n    tag_361:\n        /* \"#utility.yul\":23039:23040   */\n      0x00\n        /* \"#utility.yul\":23036:23037   */\n      dup1\n        /* \"#utility.yul\":23029:23041   */\n      revert\n        /* \"#utility.yul\":23053:23170   */\n    tag_400:\n        /* \"#utility.yul\":23162:23163   */\n      0x00\n        /* \"#utility.yul\":23159:23160   */\n      dup1\n        /* \"#utility.yul\":23152:23164   */\n      revert\n        /* \"#utility.yul\":23176:23293   */\n    tag_388:\n        /* \"#utility.yul\":23285:23286   */\n      0x00\n        /* \"#utility.yul\":23282:23283   */\n      dup1\n        /* \"#utility.yul\":23275:23287   */\n      revert\n        /* \"#utility.yul\":23299:23401   */\n    tag_487:\n        /* \"#utility.yul\":23340:23346   */\n      0x00\n        /* \"#utility.yul\":23391:23393   */\n      0x1f\n        /* \"#utility.yul\":23387:23394   */\n      not\n        /* \"#utility.yul\":23382:23384   */\n      0x1f\n        /* \"#utility.yul\":23375:23380   */\n      dup4\n        /* \"#utility.yul\":23371:23385   */\n      add\n        /* \"#utility.yul\":23367:23395   */\n      and\n        /* \"#utility.yul\":23357:23395   */\n      swap1\n      pop\n        /* \"#utility.yul\":23299:23401   */\n      swap2\n      swap1\n      pop\n      jump\t// out\n        /* \"#utility.yul\":23407:23632   */\n    tag_492:\n        /* \"#utility.yul\":23547:23581   */\n      0x4f776e61626c653a206e6577206f776e657220697320746865207a65726f2061\n        /* \"#utility.yul\":23543:23544   */\n      0x00\n        /* \"#utility.yul\":23535:23541   */\n      dup3\n        /* \"#utility.yul\":23531:23545   */\n      add\n        /* \"#utility.yul\":23524:23582   */\n      mstore\n        /* \"#utility.yul\":23616:23624   */\n      0x6464726573730000000000000000000000000000000000000000000000000000\n        /* \"#utility.yul\":23611:23613   */\n      0x20\n        /* \"#utility.yul\":23603:23609   */\n      dup3\n        /* \"#utility.yul\":23599:23614   */\n      add\n        /* \"#utility.yul\":23592:23625   */\n      mstore\n        /* \"#utility.yul\":23407:23632   */\n      pop\n      jump\t// out\n        /* \"#utility.yul\":23638:23804   */\n    tag_497:\n        /* \"#utility.yul\":23778:23796   */\n      0x4d433a204f6e6c792053747564656e7400000000000000000000000000000000\n        /* \"#utility.yul\":23774:23775   */\n      0x00\n        /* \"#utility.yul\":23766:23772   */\n      dup3\n        /* \"#utility.yul\":23762:23776   */\n      add\n        /* \"#utility.yul\":23755:23797   */\n      mstore\n        /* \"#utility.yul\":23638:23804   */\n      pop\n      jump\t// out\n        /* \"#utility.yul\":23810:23992   */\n    tag_502:\n        /* \"#utility.yul\":23950:23984   */\n      0x4f776e61626c653a2063616c6c6572206973206e6f7420746865206f776e6572\n        /* \"#utility.yul\":23946:23947   */\n      0x00\n        /* \"#utility.yul\":23938:23944   */\n      dup3\n        /* \"#utility.yul\":23934:23948   */\n      add\n        /* \"#utility.yul\":23927:23985   */\n      mstore\n        /* \"#utility.yul\":23810:23992   */\n      pop\n      jump\t// out\n        /* \"#utility.yul\":23998:24162   */\n    tag_507:\n        /* \"#utility.yul\":24138:24154   */\n      0x4d503a204f6e6c792041646d696e000000000000000000000000000000000000\n        /* \"#utility.yul\":24134:24135   */\n      0x00\n        /* \"#utility.yul\":24126:24132   */\n      dup3\n        /* \"#utility.yul\":24122:24136   */\n      add\n        /* \"#utility.yul\":24115:24155   */\n      mstore\n        /* \"#utility.yul\":23998:24162   */\n      pop\n      jump\t// out\n        /* \"#utility.yul\":24168:24281   */\n    tag_593:\n        /* \"#utility.yul\":24249:24250   */\n      0x04\n        /* \"#utility.yul\":24242:24247   */\n      dup2\n        /* \"#utility.yul\":24239:24251   */\n      lt\n        /* \"#utility.yul\":24229:24275   */\n      tag_638\n      jumpi\n        /* \"#utility.yul\":24255:24273   */\n      tag_639\n      tag_172\n      jump\t// in\n    tag_639:\n        /* \"#utility.yul\":24229:24275   */\n    tag_638:\n        /* \"#utility.yul\":24168:24281   */\n      pop\n      jump\t// out\n        /* \"#utility.yul\":24287:24409   */\n    tag_367:\n        /* \"#utility.yul\":24360:24384   */\n      tag_641\n        /* \"#utility.yul\":24378:24383   */\n      dup2\n        /* \"#utility.yul\":24360:24384   */\n      tag_453\n      jump\t// in\n    tag_641:\n        /* \"#utility.yul\":24353:24358   */\n      dup2\n        /* \"#utility.yul\":24350:24385   */\n      eq\n        /* \"#utility.yul\":24340:24403   */\n      tag_642\n      jumpi\n        /* \"#utility.yul\":24399:24400   */\n      0x00\n        /* \"#utility.yul\":24396:24397   */\n      dup1\n        /* \"#utility.yul\":24389:24401   */\n      revert\n        /* \"#utility.yul\":24340:24403   */\n    tag_642:\n        /* \"#utility.yul\":24287:24409   */\n      pop\n      jump\t// out\n        /* \"#utility.yul\":24415:24531   */\n    tag_374:\n        /* \"#utility.yul\":24485:24506   */\n      tag_644\n        /* \"#utility.yul\":24500:24505   */\n      dup2\n        /* \"#utility.yul\":24485:24506   */\n      tag_457\n      jump\t// in\n    tag_644:\n        /* \"#utility.yul\":24478:24483   */\n      dup2\n        /* \"#utility.yul\":24475:24507   */\n      eq\n        /* \"#utility.yul\":24465:24525   */\n      tag_645\n      jumpi\n        /* \"#utility.yul\":24521:24522   */\n      0x00\n        /* \"#utility.yul\":24518:24519   */\n      dup1\n        /* \"#utility.yul\":24511:24523   */\n      revert\n        /* \"#utility.yul\":24465:24525   */\n    tag_645:\n        /* \"#utility.yul\":24415:24531   */\n      pop\n      jump\t// out\n        /* \"#utility.yul\":24537:24659   */\n    tag_384:\n        /* \"#utility.yul\":24610:24634   */\n      tag_647\n        /* \"#utility.yul\":24628:24633   */\n      dup2\n        /* \"#utility.yul\":24610:24634   */\n      tag_511\n      jump\t// in\n    tag_647:\n        /* \"#utility.yul\":24603:24608   */\n      dup2\n        /* \"#utility.yul\":24600:24635   */\n      eq\n        /* \"#utility.yul\":24590:24653   */\n      tag_648\n      jumpi\n        /* \"#utility.yul\":24649:24650   */\n      0x00\n        /* \"#utility.yul\":24646:24647   */\n      dup1\n        /* \"#utility.yul\":24639:24651   */\n      revert\n        /* \"#utility.yul\":24590:24653   */\n    tag_648:\n        /* \"#utility.yul\":24537:24659   */\n      pop\n      jump\t// out\n\n    auxdata: 0xa264697066735822122088ea1a20e60144f9ccbf640d50d5fd018b35e58925139795519bf13bd6f1fcc464736f6c63430008070033\n}\n",
				"bytecode": {
					"linkReferences": {},
					"object": "60806040523480156200001157600080fd5b506040516200326738038062003267833981810160405281019062000037919062000206565b620000576200004b6200012360201b60201c565b6200012b60201b60201c565b82600160006101000a81548173ffffffffffffffffffffffffffffffffffffffff021916908373ffffffffffffffffffffffffffffffffffffffff16021790555081600260006101000a81548173ffffffffffffffffffffffffffffffffffffffff021916908373ffffffffffffffffffffffffffffffffffffffff16021790555080600360006101000a81548173ffffffffffffffffffffffffffffffffffffffff021916908373ffffffffffffffffffffffffffffffffffffffff160217905550505050620002b5565b600033905090565b60008060009054906101000a900473ffffffffffffffffffffffffffffffffffffffff169050816000806101000a81548173ffffffffffffffffffffffffffffffffffffffff021916908373ffffffffffffffffffffffffffffffffffffffff1602179055508173ffffffffffffffffffffffffffffffffffffffff168173ffffffffffffffffffffffffffffffffffffffff167f8be0079c531659141344cd1fd0a4f28419497f9722a3daafe3b4186f6b6457e060405160405180910390a35050565b60008151905062000200816200029b565b92915050565b60008060006060848603121562000222576200022162000296565b5b60006200023286828701620001ef565b93505060206200024586828701620001ef565b92505060406200025886828701620001ef565b9150509250925092565b60006200026f8262000276565b9050919050565b600073ffffffffffffffffffffffffffffffffffffffff82169050919050565b600080fd5b620002a68162000262565b8114620002b257600080fd5b50565b612fa280620002c56000396000f3fe608060405234801561001057600080fd5b50600436106101425760003560e01c8063ac4afa38116100b8578063c5484bb21161007c578063c5484bb214610352578063c74073a11461036e578063d2a49de51461038a578063dcff175a146103a6578063eb49ad47146103c4578063f2fde38b146103e257610142565b8063ac4afa3814610299578063acc2166a146102ca578063b82df1fd146102e8578063c225fc3814610304578063c45a01551461033457610142565b8063715018a61161010a578063715018a6146101eb5780638c248ffd146101f55780638c34aabb146102255780638da5cb5b14610241578063aa4936ce1461025f578063ab3270981461027d57610142565b80631ee965f1146101475780633b7d8952146101655780633d847dda146101835780635bb47808146101b3578063682ef79f146101cf575b600080fd5b61014f6103fe565b60405161015c9190612a21565b60405180910390f35b61016d61040a565b60405161017a9190612a21565b60405180910390f35b61019d6004803603810190610198919061239d565b610416565b6040516101aa919061297f565b60405180910390f35b6101cd60048036038101906101c8919061239d565b6104b6565b005b6101e960048036038101906101e49190612480565b610576565b005b6101f36106d9565b005b61020f600480360381019061020a919061239d565b610761565b60405161021c919061297f565b60405180910390f35b61023f600480360381019061023a9190612659565b610801565b005b610249610cbc565b6040516102569190612846565b60405180910390f35b610267610ce5565b604051610274919061292e565b60405180910390f35b610297600480360381019061029291906124c9565b610d0b565b005b6102b360048036038101906102ae91906126dc565b61111e565b6040516102c19291906128c1565b60405180910390f35b6102d261117b565b6040516102df9190612964565b60405180910390f35b61030260048036038101906102fd9190612587565b6111a1565b005b61031e6004803603810190610319919061239d565b611668565b60405161032b91906128ea565b60405180910390f35b61033c611688565b6040516103499190612949565b60405180910390f35b61036c60048036038101906103679190612659565b6116ae565b005b6103886004803603810190610383919061239d565b611b68565b005b6103a4600480360381019061039f91906123f7565b611ce0565b005b6103ae611e44565b6040516103bb9190612a21565b60405180910390f35b6103cc611e50565b6040516103d99190612a21565b60405180910390f35b6103fc60048036038101906103f7919061239d565b611e5c565b005b60068060000154905081565b60088060000154905081565b600a602052806000526040600020600091509050805461043590612d34565b80601f016020809104026020016040519081016040528092919081815260200182805461046190612d34565b80156104ae5780601f10610483576101008083540402835291602001916104ae565b820191906000526020600020905b81548152906001019060200180831161049157829003601f168201915b505050505081565b6104be611f54565b73ffffffffffffffffffffffffffffffffffffffff166104dc610cbc565b73ffffffffffffffffffffffffffffffffffffffff1614610532576040517f08c379a0000000000000000000000000000000000000000000000000000000008152600401610529906129e1565b60405180910390fd5b80600160006101000a81548173ffffffffffffffffffffffffffffffffffffffff021916908373ffffffffffffffffffffffffffffffffffffffff16021790555050565b600260009054906101000a900473ffffffffffffffffffffffffffffffffffffffff1673ffffffffffffffffffffffffffffffffffffffff166391d148547fc951d7098b66ba0b8b77265b6e9cf0e187d73125a42bcd0061b09a68be421810336040518363ffffffff1660e01b81526004016105f3929190612905565b60206040518083038186803b15801561060b57600080fd5b505afa15801561061f573d6000803e3d6000fd5b505050506040513d601f19601f820116820180604052508101906106439190612453565b610682576040517f08c379a0000000000000000000000000000000000000000000000000000000008152600401610679906129c1565b60405180910390fd5b80600a60003373ffffffffffffffffffffffffffffffffffffffff1673ffffffffffffffffffffffffffffffffffffffff16815260200190815260200160002090805190602001906106d5929190612236565b5050565b6106e1611f54565b73ffffffffffffffffffffffffffffffffffffffff166106ff610cbc565b73ffffffffffffffffffffffffffffffffffffffff1614610755576040517f08c379a000000000000000000000000000000000000000000000000000000000815260040161074c906129e1565b60405180910390fd5b61075f6000611f5c565b565b600b602052806000526040600020600091509050805461078090612d34565b80601f01602080910402602001604051908101604052809291908181526020018280546107ac90612d34565b80156107f95780601f106107ce576101008083540402835291602001916107f9565b820191906000526020600020905b8154815290600101906020018083116107dc57829003601f168201915b505050505081565b600260009054906101000a900473ffffffffffffffffffffffffffffffffffffffff1673ffffffffffffffffffffffffffffffffffffffff166391d148547fdf8b4c520ffe197c5343c6f5aec59570151ef9a492f2c624fd45ddde6135ec42336040518363ffffffff1660e01b815260040161087e929190612905565b60206040518083038186803b15801561089657600080fd5b505afa1580156108aa573d6000803e3d6000fd5b505050506040513d601f19601f820116820180604052508101906108ce9190612453565b61090d576040517f08c379a000000000000000000000000000000000000000000000000000000000815260040161090490612a01565b60405180910390fd5b6000600160009054906101000a900473ffffffffffffffffffffffffffffffffffffffff1673ffffffffffffffffffffffffffffffffffffffff1663378ac24530600260009054906101000a900473ffffffffffffffffffffffffffffffffffffffff16600360009054906101000a900473ffffffffffffffffffffffffffffffffffffffff166040518463ffffffff1660e01b81526004016109b29392919061288a565b602060405180830381600087803b1580156109cc57600080fd5b505af11580156109e0573d6000803e3d6000fd5b505050506040513d601f19601f82011682018060405250810190610a0491906123ca565b9050600460405180604001604052808373ffffffffffffffffffffffffffffffffffffffff16815260200160026003811115610a4357610a42612d97565b5b8152509080600181540180825580915050600190039060005260206000200160009091909190915060008201518160000160006101000a81548173ffffffffffffffffffffffffffffffffffffffff021916908373ffffffffffffffffffffffffffffffffffffffff16021790555060208201518160000160146101000a81548160ff02191690836003811115610add57610adc612d97565b5b021790555050506001600560008373ffffffffffffffffffffffffffffffffffffffff1673ffffffffffffffffffffffffffffffffffffffff16815260200190815260200160002060006101000a81548160ff0219169083151502179055506000610b486008612020565b9050610b54600861202e565b8173ffffffffffffffffffffffffffffffffffffffff1663e4bca56382888888886040518663ffffffff1660e01b8152600401610b95959493929190612b55565b600060405180830381600087803b158015610baf57600080fd5b505af1158015610bc3573d6000803e3d6000fd5b505050508173ffffffffffffffffffffffffffffffffffffffff1663be9a65556040518163ffffffff1660e01b8152600401600060405180830381600087803b158015610c0f57600080fd5b505af1158015610c23573d6000803e3d6000fd5b50505050600360009054906101000a900473ffffffffffffffffffffffffffffffffffffffff1673ffffffffffffffffffffffffffffffffffffffff166305380898836040518263ffffffff1660e01b8152600401610c829190612846565b600060405180830381600087803b158015610c9c57600080fd5b505af1158015610cb0573d6000803e3d6000fd5b50505050505050505050565b60008060009054906101000a900473ffffffffffffffffffffffffffffffffffffffff16905090565b600260009054906101000a900473ffffffffffffffffffffffffffffffffffffffff1681565b600260009054906101000a900473ffffffffffffffffffffffffffffffffffffffff1673ffffffffffffffffffffffffffffffffffffffff166391d148547fdf8b4c520ffe197c5343c6f5aec59570151ef9a492f2c624fd45ddde6135ec42336040518363ffffffff1660e01b8152600401610d88929190612905565b60206040518083038186803b158015610da057600080fd5b505afa158015610db4573d6000803e3d6000fd5b505050506040513d601f19601f82011682018060405250810190610dd89190612453565b610e17576040517f08c379a0000000000000000000000000000000000000000000000000000000008152600401610e0e90612a01565b60405180910390fd5b6000600160009054906101000a900473ffffffffffffffffffffffffffffffffffffffff1673ffffffffffffffffffffffffffffffffffffffff1663b928882e30600260009054906101000a900473ffffffffffffffffffffffffffffffffffffffff166040518363ffffffff1660e01b8152600401610e98929190612861565b602060405180830381600087803b158015610eb257600080fd5b505af1158015610ec6573d6000803e3d6000fd5b505050506040513d601f19601f82011682018060405250810190610eea91906123ca565b9050600460405180604001604052808373ffffffffffffffffffffffffffffffffffffffff16815260200160016003811115610f2957610f28612d97565b5b8152509080600181540180825580915050600190039060005260206000200160009091909190915060008201518160000160006101000a81548173ffffffffffffffffffffffffffffffffffffffff021916908373ffffffffffffffffffffffffffffffffffffffff16021790555060208201518160000160146101000a81548160ff02191690836003811115610fc357610fc2612d97565b5b021790555050506001600560008373ffffffffffffffffffffffffffffffffffffffff1673ffffffffffffffffffffffffffffffffffffffff16815260200190815260200160002060006101000a81548160ff021916908315150217905550600061102e6007612020565b905061103a600761202e565b8173ffffffffffffffffffffffffffffffffffffffff1663a53dc8d2828b8b8b8b8b8b8b6040518963ffffffff1660e01b8152600401611081989796959493929190612a3c565b600060405180830381600087803b15801561109b57600080fd5b505af11580156110af573d6000803e3d6000fd5b505050508173ffffffffffffffffffffffffffffffffffffffff1663be9a65556040518163ffffffff1660e01b8152600401600060405180830381600087803b1580156110fb57600080fd5b505af115801561110f573d6000803e3d6000fd5b50505050505050505050505050565b6004818154811061112e57600080fd5b906000526020600020016000915090508060000160009054906101000a900473ffffffffffffffffffffffffffffffffffffffff16908060000160149054906101000a900460ff16905082565b600360009054906101000a900473ffffffffffffffffffffffffffffffffffffffff1681565b600260009054906101000a900473ffffffffffffffffffffffffffffffffffffffff1673ffffffffffffffffffffffffffffffffffffffff166391d148547fdf8b4c520ffe197c5343c6f5aec59570151ef9a492f2c624fd45ddde6135ec42336040518363ffffffff1660e01b815260040161121e929190612905565b60206040518083038186803b15801561123657600080fd5b505afa15801561124a573d6000803e3d6000fd5b505050506040513d601f19601f8201168201806040525081019061126e9190612453565b6112ad576040517f08c379a00000000000000000000000000000000000000000000000000000000081526004016112a490612a01565b60405180910390fd5b6000600160009054906101000a900473ffffffffffffffffffffffffffffffffffffffff1673ffffffffffffffffffffffffffffffffffffffff1663e162fa7730600260009054906101000a900473ffffffffffffffffffffffffffffffffffffffff16600360009054906101000a900473ffffffffffffffffffffffffffffffffffffffff166040518463ffffffff1660e01b81526004016113529392919061288a565b602060405180830381600087803b15801561136c57600080fd5b505af1158015611380573d6000803e3d6000fd5b505050506040513d601f19601f820116820180604052508101906113a491906123ca565b9050600460405180604001604052808373ffffffffffffffffffffffffffffffffffffffff168152602001600060038111156113e3576113e2612d97565b5b8152509080600181540180825580915050600190039060005260206000200160009091909190915060008201518160000160006101000a81548173ffffffffffffffffffffffffffffffffffffffff021916908373ffffffffffffffffffffffffffffffffffffffff16021790555060208201518160000160146101000a81548160ff0219169083600381111561147d5761147c612d97565b5b021790555050506001600560008373ffffffffffffffffffffffffffffffffffffffff1673ffffffffffffffffffffffffffffffffffffffff16815260200190815260200160002060006101000a81548160ff02191690831515021790555060006114e86006612020565b90506114f4600661202e565b8173ffffffffffffffffffffffffffffffffffffffff1663ee0433d0828c8c8c8c8c8c8c8c6040518a63ffffffff1660e01b815260040161153d99989796959493929190612ac1565b600060405180830381600087803b15801561155757600080fd5b505af115801561156b573d6000803e3d6000fd5b505050508173ffffffffffffffffffffffffffffffffffffffff1663be9a65556040518163ffffffff1660e01b8152600401600060405180830381600087803b1580156115b757600080fd5b505af11580156115cb573d6000803e3d6000fd5b50505050600360009054906101000a900473ffffffffffffffffffffffffffffffffffffffff1673ffffffffffffffffffffffffffffffffffffffff166305380898836040518263ffffffff1660e01b815260040161162a9190612846565b600060405180830381600087803b15801561164457600080fd5b505af1158015611658573d6000803e3d6000fd5b5050505050505050505050505050565b60056020528060005260406000206000915054906101000a900460ff1681565b600160009054906101000a900473ffffffffffffffffffffffffffffffffffffffff1681565b600260009054906101000a900473ffffffffffffffffffffffffffffffffffffffff1673ffffffffffffffffffffffffffffffffffffffff166391d148547fdf8b4c520ffe197c5343c6f5aec59570151ef9a492f2c624fd45ddde6135ec42336040518363ffffffff1660e01b815260040161172b929190612905565b60206040518083038186803b15801561174357600080fd5b505afa158015611757573d6000803e3d6000fd5b505050506040513d601f19601f8201168201806040525081019061177b9190612453565b6117ba576040517f08c379a00000000000000000000000000000000000000000000000000000000081526004016117b190612a01565b60405180910390fd5b6000600160009054906101000a900473ffffffffffffffffffffffffffffffffffffffff1673ffffffffffffffffffffffffffffffffffffffff1663029c678530600260009054906101000a900473ffffffffffffffffffffffffffffffffffffffff16600360009054906101000a900473ffffffffffffffffffffffffffffffffffffffff166040518463ffffffff1660e01b815260040161185f9392919061288a565b602060405180830381600087803b15801561187957600080fd5b505af115801561188d573d6000803e3d6000fd5b505050506040513d601f19601f820116820180604052508101906118b191906123ca565b9050600460405180604001604052808373ffffffffffffffffffffffffffffffffffffffff1681526020016003808111156118ef576118ee612d97565b5b8152509080600181540180825580915050600190039060005260206000200160009091909190915060008201518160000160006101000a81548173ffffffffffffffffffffffffffffffffffffffff021916908373ffffffffffffffffffffffffffffffffffffffff16021790555060208201518160000160146101000a81548160ff0219169083600381111561198957611988612d97565b5b021790555050506001600560008373ffffffffffffffffffffffffffffffffffffffff1673ffffffffffffffffffffffffffffffffffffffff16815260200190815260200160002060006101000a81548160ff02191690831515021790555060006119f46009612020565b9050611a00600961202e565b8173ffffffffffffffffffffffffffffffffffffffff166308003d6b82888888886040518663ffffffff1660e01b8152600401611a41959493929190612b55565b600060405180830381600087803b158015611a5b57600080fd5b505af1158015611a6f573d6000803e3d6000fd5b505050508173ffffffffffffffffffffffffffffffffffffffff1663be9a65556040518163ffffffff1660e01b8152600401600060405180830381600087803b158015611abb57600080fd5b505af1158015611acf573d6000803e3d6000fd5b50505050600360009054906101000a900473ffffffffffffffffffffffffffffffffffffffff1673ffffffffffffffffffffffffffffffffffffffff166305380898836040518263ffffffff1660e01b8152600401611b2e9190612846565b600060405180830381600087803b158015611b4857600080fd5b505af1158015611b5c573d6000803e3d6000fd5b50505050505050505050565b600260009054906101000a900473ffffffffffffffffffffffffffffffffffffffff1673ffffffffffffffffffffffffffffffffffffffff166391d148547fdf8b4c520ffe197c5343c6f5aec59570151ef9a492f2c624fd45ddde6135ec42336040518363ffffffff1660e01b8152600401611be5929190612905565b60206040518083038186803b158015611bfd57600080fd5b505afa158015611c11573d6000803e3d6000fd5b505050506040513d601f19601f82011682018060405250810190611c359190612453565b611c74576040517f08c379a0000000000000000000000000000000000000000000000000000000008152600401611c6b90612a01565b60405180910390fd5b8073ffffffffffffffffffffffffffffffffffffffff166343d726d66040518163ffffffff1660e01b8152600401600060405180830381600087803b158015611cbc57600080fd5b505af1158015611cd0573d6000803e3d6000fd5b50505050611cdd81612044565b50565b600260009054906101000a900473ffffffffffffffffffffffffffffffffffffffff1673ffffffffffffffffffffffffffffffffffffffff166391d148547fdf8b4c520ffe197c5343c6f5aec59570151ef9a492f2c624fd45ddde6135ec42336040518363ffffffff1660e01b8152600401611d5d929190612905565b60206040518083038186803b158015611d7557600080fd5b505afa158015611d89573d6000803e3d6000fd5b505050506040513d601f19601f82011682018060405250810190611dad9190612453565b611dec576040517f08c379a0000000000000000000000000000000000000000000000000000000008152600401611de390612a01565b60405180910390fd5b80600b60008473ffffffffffffffffffffffffffffffffffffffff1673ffffffffffffffffffffffffffffffffffffffff1681526020019081526020016000209080519060200190611e3f929190612236565b505050565b60078060000154905081565b60098060000154905081565b611e64611f54565b73ffffffffffffffffffffffffffffffffffffffff16611e82610cbc565b73ffffffffffffffffffffffffffffffffffffffff1614611ed8576040517f08c379a0000000000000000000000000000000000000000000000000000000008152600401611ecf906129e1565b60405180910390fd5b600073ffffffffffffffffffffffffffffffffffffffff168173ffffffffffffffffffffffffffffffffffffffff161415611f48576040517f08c379a0000000000000000000000000000000000000000000000000000000008152600401611f3f906129a1565b60405180910390fd5b611f5181611f5c565b50565b600033905090565b60008060009054906101000a900473ffffffffffffffffffffffffffffffffffffffff169050816000806101000a81548173ffffffffffffffffffffffffffffffffffffffff021916908373ffffffffffffffffffffffffffffffffffffffff1602179055508173ffffffffffffffffffffffffffffffffffffffff168173ffffffffffffffffffffffffffffffffffffffff167f8be0079c531659141344cd1fd0a4f28419497f9722a3daafe3b4186f6b6457e060405160405180910390a35050565b600081600001549050919050565b6001816000016000828254019250508190555050565b600260009054906101000a900473ffffffffffffffffffffffffffffffffffffffff1673ffffffffffffffffffffffffffffffffffffffff166391d148547fdf8b4c520ffe197c5343c6f5aec59570151ef9a492f2c624fd45ddde6135ec42336040518363ffffffff1660e01b81526004016120c1929190612905565b60206040518083038186803b1580156120d957600080fd5b505afa1580156120ed573d6000803e3d6000fd5b505050506040513d601f19601f820116820180604052508101906121119190612453565b612150576040517f08c379a000000000000000000000000000000000000000000000000000000000815260040161214790612a01565b60405180910390fd5b600560008273ffffffffffffffffffffffffffffffffffffffff1673ffffffffffffffffffffffffffffffffffffffff16815260200190815260200160002060009054906101000a900460ff166121a657600080fd5b600360009054906101000a900473ffffffffffffffffffffffffffffffffffffffff1673ffffffffffffffffffffffffffffffffffffffff16633cb7b3bb826040518263ffffffff1660e01b81526004016122019190612846565b600060405180830381600087803b15801561221b57600080fd5b505af115801561222f573d6000803e3d6000fd5b5050505050565b82805461224290612d34565b90600052602060002090601f01602090048101928261226457600085556122ab565b82601f1061227d57805160ff19168380011785556122ab565b828001600101855582156122ab579182015b828111156122aa57825182559160200191906001019061228f565b5b5090506122b891906122bc565b5090565b5b808211156122d55760008160009055506001016122bd565b5090565b60006122ec6122e784612bd4565b612baf565b90508281526020810184848401111561230857612307612e29565b5b612313848285612cf2565b509392505050565b60008135905061232a81612f27565b92915050565b60008151905061233f81612f27565b92915050565b60008151905061235481612f3e565b92915050565b600082601f83011261236f5761236e612e24565b5b813561237f8482602086016122d9565b91505092915050565b60008135905061239781612f55565b92915050565b6000602082840312156123b3576123b2612e33565b5b60006123c18482850161231b565b91505092915050565b6000602082840312156123e0576123df612e33565b5b60006123ee84828501612330565b91505092915050565b6000806040838503121561240e5761240d612e33565b5b600061241c8582860161231b565b925050602083013567ffffffffffffffff81111561243d5761243c612e2e565b5b6124498582860161235a565b9150509250929050565b60006020828403121561246957612468612e33565b5b600061247784828501612345565b91505092915050565b60006020828403121561249657612495612e33565b5b600082013567ffffffffffffffff8111156124b4576124b3612e2e565b5b6124c08482850161235a565b91505092915050565b600080600080600080600060e0888a0312156124e8576124e7612e33565b5b600088013567ffffffffffffffff81111561250657612505612e2e565b5b6125128a828b0161235a565b97505060206125238a828b01612388565b96505060406125348a828b0161231b565b95505060606125458a828b01612388565b94505060806125568a828b01612388565b93505060a06125678a828b01612388565b92505060c06125788a828b01612388565b91505092959891949750929550565b600080600080600080600080610100898b0312156125a8576125a7612e33565b5b600089013567ffffffffffffffff8111156125c6576125c5612e2e565b5b6125d28b828c0161235a565b98505060206125e38b828c01612388565b97505060406125f48b828c01612388565b96505060606126058b828c0161231b565b95505060806126168b828c01612388565b94505060a06126278b828c01612388565b93505060c06126388b828c01612388565b92505060e06126498b828c01612388565b9150509295985092959890939650565b6000806000806080858703121561267357612672612e33565b5b600085013567ffffffffffffffff81111561269157612690612e2e565b5b61269d8782880161235a565b94505060206126ae87828801612388565b93505060406126bf87828801612388565b92505060606126d087828801612388565b91505092959194509250565b6000602082840312156126f2576126f1612e33565b5b600061270084828501612388565b91505092915050565b61271281612c21565b82525050565b61272181612c33565b82525050565b61273081612c3f565b82525050565b61273f81612c86565b82525050565b61274e81612c98565b82525050565b61275d81612caa565b82525050565b61276c81612cbc565b82525050565b600061277d82612c05565b6127878185612c10565b9350612797818560208601612d01565b6127a081612e38565b840191505092915050565b60006127b8602683612c10565b91506127c382612e49565b604082019050919050565b60006127db601083612c10565b91506127e682612e98565b602082019050919050565b60006127fe602083612c10565b915061280982612ec1565b602082019050919050565b6000612821600e83612c10565b915061282c82612eea565b602082019050919050565b61284081612c7c565b82525050565b600060208201905061285b6000830184612709565b92915050565b60006040820190506128766000830185612709565b6128836020830184612709565b9392505050565b600060608201905061289f6000830186612709565b6128ac6020830185612709565b6128b96040830184612709565b949350505050565b60006040820190506128d66000830185612709565b6128e36020830184612763565b9392505050565b60006020820190506128ff6000830184612718565b92915050565b600060408201905061291a6000830185612727565b6129276020830184612709565b9392505050565b60006020820190506129436000830184612736565b92915050565b600060208201905061295e6000830184612745565b92915050565b60006020820190506129796000830184612754565b92915050565b600060208201905081810360008301526129998184612772565b905092915050565b600060208201905081810360008301526129ba816127ab565b9050919050565b600060208201905081810360008301526129da816127ce565b9050919050565b600060208201905081810360008301526129fa816127f1565b9050919050565b60006020820190508181036000830152612a1a81612814565b9050919050565b6000602082019050612a366000830184612837565b92915050565b600061010082019050612a52600083018b612837565b8181036020830152612a64818a612772565b9050612a736040830189612837565b612a806060830188612709565b612a8d6080830187612837565b612a9a60a0830186612837565b612aa760c0830185612837565b612ab460e0830184612837565b9998505050505050505050565b600061012082019050612ad7600083018c612837565b8181036020830152612ae9818b612772565b9050612af8604083018a612837565b612b056060830189612837565b612b126080830188612709565b612b1f60a0830187612837565b612b2c60c0830186612837565b612b3960e0830185612837565b612b47610100830184612837565b9a9950505050505050505050565b600060a082019050612b6a6000830188612837565b8181036020830152612b7c8187612772565b9050612b8b6040830186612837565b612b986060830185612837565b612ba56080830184612837565b9695505050505050565b6000612bb9612bca565b9050612bc58282612d66565b919050565b6000604051905090565b600067ffffffffffffffff821115612bef57612bee612df5565b5b612bf882612e38565b9050602081019050919050565b600081519050919050565b600082825260208201905092915050565b6000612c2c82612c5c565b9050919050565b60008115159050919050565b6000819050919050565b6000819050612c5782612f13565b919050565b600073ffffffffffffffffffffffffffffffffffffffff82169050919050565b6000819050919050565b6000612c9182612cce565b9050919050565b6000612ca382612cce565b9050919050565b6000612cb582612cce565b9050919050565b6000612cc782612c49565b9050919050565b6000612cd982612ce0565b9050919050565b6000612ceb82612c5c565b9050919050565b82818337600083830152505050565b60005b83811015612d1f578082015181840152602081019050612d04565b83811115612d2e576000848401525b50505050565b60006002820490506001821680612d4c57607f821691505b60208210811415612d6057612d5f612dc6565b5b50919050565b612d6f82612e38565b810181811067ffffffffffffffff82111715612d8e57612d8d612df5565b5b80604052505050565b7f4e487b7100000000000000000000000000000000000000000000000000000000600052602160045260246000fd5b7f4e487b7100000000000000000000000000000000000000000000000000000000600052602260045260246000fd5b7f4e487b7100000000000000000000000000000000000000000000000000000000600052604160045260246000fd5b600080fd5b600080fd5b600080fd5b600080fd5b6000601f19601f8301169050919050565b7f4f776e61626c653a206e6577206f776e657220697320746865207a65726f206160008201527f6464726573730000000000000000000000000000000000000000000000000000602082015250565b7f4d433a204f6e6c792053747564656e7400000000000000000000000000000000600082015250565b7f4f776e61626c653a2063616c6c6572206973206e6f7420746865206f776e6572600082015250565b7f4d503a204f6e6c792041646d696e000000000000000000000000000000000000600082015250565b60048110612f2457612f23612d97565b5b50565b612f3081612c21565b8114612f3b57600080fd5b50565b612f4781612c33565b8114612f5257600080fd5b50565b612f5e81612c7c565b8114612f6957600080fd5b5056fea264697066735822122088ea1a20e60144f9ccbf640d50d5fd018b35e58925139795519bf13bd6f1fcc464736f6c63430008070033",
					"opcodes": "PUSH1 0x80 PUSH1 0x40 MSTORE CALLVALUE DUP1 ISZERO PUSH3 0x11 JUMPI PUSH1 0x0 DUP1 REVERT JUMPDEST POP PUSH1 0x40 MLOAD PUSH3 0x3267 CODESIZE SUB DUP1 PUSH3 0x3267 DUP4 CODECOPY DUP2 DUP2 ADD PUSH1 0x40 MSTORE DUP2 ADD SWAP1 PUSH3 0x37 SWAP2 SWAP1 PUSH3 0x206 JUMP JUMPDEST PUSH3 0x57 PUSH3 0x4B PUSH3 0x123 PUSH1 0x20 SHL PUSH1 0x20 SHR JUMP JUMPDEST PUSH3 0x12B PUSH1 0x20 SHL PUSH1 0x20 SHR JUMP JUMPDEST DUP3 PUSH1 0x1 PUSH1 0x0 PUSH2 0x100 EXP DUP2 SLOAD DUP2 PUSH20 0xFFFFFFFFFFFFFFFFFFFFFFFFFFFFFFFFFFFFFFFF MUL NOT AND SWAP1 DUP4 PUSH20 0xFFFFFFFFFFFFFFFFFFFFFFFFFFFFFFFFFFFFFFFF AND MUL OR SWAP1 SSTORE POP DUP2 PUSH1 0x2 PUSH1 0x0 PUSH2 0x100 EXP DUP2 SLOAD DUP2 PUSH20 0xFFFFFFFFFFFFFFFFFFFFFFFFFFFFFFFFFFFFFFFF MUL NOT AND SWAP1 DUP4 PUSH20 0xFFFFFFFFFFFFFFFFFFFFFFFFFFFFFFFFFFFFFFFF AND MUL OR SWAP1 SSTORE POP DUP1 PUSH1 0x3 PUSH1 0x0 PUSH2 0x100 EXP DUP2 SLOAD DUP2 PUSH20 0xFFFFFFFFFFFFFFFFFFFFFFFFFFFFFFFFFFFFFFFF MUL NOT AND SWAP1 DUP4 PUSH20 0xFFFFFFFFFFFFFFFFFFFFFFFFFFFFFFFFFFFFFFFF AND MUL OR SWAP1 SSTORE POP POP POP POP PUSH3 0x2B5 JUMP JUMPDEST PUSH1 0x0 CALLER SWAP1 POP SWAP1 JUMP JUMPDEST PUSH1 0x0 DUP1 PUSH1 0x0 SWAP1 SLOAD SWAP1 PUSH2 0x100 EXP SWAP1 DIV PUSH20 0xFFFFFFFFFFFFFFFFFFFFFFFFFFFFFFFFFFFFFFFF AND SWAP1 POP DUP2 PUSH1 0x0 DUP1 PUSH2 0x100 EXP DUP2 SLOAD DUP2 PUSH20 0xFFFFFFFFFFFFFFFFFFFFFFFFFFFFFFFFFFFFFFFF MUL NOT AND SWAP1 DUP4 PUSH20 0xFFFFFFFFFFFFFFFFFFFFFFFFFFFFFFFFFFFFFFFF AND MUL OR SWAP1 SSTORE POP DUP2 PUSH20 0xFFFFFFFFFFFFFFFFFFFFFFFFFFFFFFFFFFFFFFFF AND DUP2 PUSH20 0xFFFFFFFFFFFFFFFFFFFFFFFFFFFFFFFFFFFFFFFF AND PUSH32 0x8BE0079C531659141344CD1FD0A4F28419497F9722A3DAAFE3B4186F6B6457E0 PUSH1 0x40 MLOAD PUSH1 0x40 MLOAD DUP1 SWAP2 SUB SWAP1 LOG3 POP POP JUMP JUMPDEST PUSH1 0x0 DUP2 MLOAD SWAP1 POP PUSH3 0x200 DUP2 PUSH3 0x29B JUMP JUMPDEST SWAP3 SWAP2 POP POP JUMP JUMPDEST PUSH1 0x0 DUP1 PUSH1 0x0 PUSH1 0x60 DUP5 DUP7 SUB SLT ISZERO PUSH3 0x222 JUMPI PUSH3 0x221 PUSH3 0x296 JUMP JUMPDEST JUMPDEST PUSH1 0x0 PUSH3 0x232 DUP7 DUP3 DUP8 ADD PUSH3 0x1EF JUMP JUMPDEST SWAP4 POP POP PUSH1 0x20 PUSH3 0x245 DUP7 DUP3 DUP8 ADD PUSH3 0x1EF JUMP JUMPDEST SWAP3 POP POP PUSH1 0x40 PUSH3 0x258 DUP7 DUP3 DUP8 ADD PUSH3 0x1EF JUMP JUMPDEST SWAP2 POP POP SWAP3 POP SWAP3 POP SWAP3 JUMP JUMPDEST PUSH1 0x0 PUSH3 0x26F DUP3 PUSH3 0x276 JUMP JUMPDEST SWAP1 POP SWAP2 SWAP1 POP JUMP JUMPDEST PUSH1 0x0 PUSH20 0xFFFFFFFFFFFFFFFFFFFFFFFFFFFFFFFFFFFFFFFF DUP3 AND SWAP1 POP SWAP2 SWAP1 POP JUMP JUMPDEST PUSH1 0x0 DUP1 REVERT JUMPDEST PUSH3 0x2A6 DUP2 PUSH3 0x262 JUMP JUMPDEST DUP2 EQ PUSH3 0x2B2 JUMPI PUSH1 0x0 DUP1 REVERT JUMPDEST POP JUMP JUMPDEST PUSH2 0x2FA2 DUP1 PUSH3 0x2C5 PUSH1 0x0 CODECOPY PUSH1 0x0 RETURN INVALID PUSH1 0x80 PUSH1 0x40 MSTORE CALLVALUE DUP1 ISZERO PUSH2 0x10 JUMPI PUSH1 0x0 DUP1 REVERT JUMPDEST POP PUSH1 0x4 CALLDATASIZE LT PUSH2 0x142 JUMPI PUSH1 0x0 CALLDATALOAD PUSH1 0xE0 SHR DUP1 PUSH4 0xAC4AFA38 GT PUSH2 0xB8 JUMPI DUP1 PUSH4 0xC5484BB2 GT PUSH2 0x7C JUMPI DUP1 PUSH4 0xC5484BB2 EQ PUSH2 0x352 JUMPI DUP1 PUSH4 0xC74073A1 EQ PUSH2 0x36E JUMPI DUP1 PUSH4 0xD2A49DE5 EQ PUSH2 0x38A JUMPI DUP1 PUSH4 0xDCFF175A EQ PUSH2 0x3A6 JUMPI DUP1 PUSH4 0xEB49AD47 EQ PUSH2 0x3C4 JUMPI DUP1 PUSH4 0xF2FDE38B EQ PUSH2 0x3E2 JUMPI PUSH2 0x142 JUMP JUMPDEST DUP1 PUSH4 0xAC4AFA38 EQ PUSH2 0x299 JUMPI DUP1 PUSH4 0xACC2166A EQ PUSH2 0x2CA JUMPI DUP1 PUSH4 0xB82DF1FD EQ PUSH2 0x2E8 JUMPI DUP1 PUSH4 0xC225FC38 EQ PUSH2 0x304 JUMPI DUP1 PUSH4 0xC45A0155 EQ PUSH2 0x334 JUMPI PUSH2 0x142 JUMP JUMPDEST DUP1 PUSH4 0x715018A6 GT PUSH2 0x10A JUMPI DUP1 PUSH4 0x715018A6 EQ PUSH2 0x1EB JUMPI DUP1 PUSH4 0x8C248FFD EQ PUSH2 0x1F5 JUMPI DUP1 PUSH4 0x8C34AABB EQ PUSH2 0x225 JUMPI DUP1 PUSH4 0x8DA5CB5B EQ PUSH2 0x241 JUMPI DUP1 PUSH4 0xAA4936CE EQ PUSH2 0x25F JUMPI DUP1 PUSH4 0xAB327098 EQ PUSH2 0x27D JUMPI PUSH2 0x142 JUMP JUMPDEST DUP1 PUSH4 0x1EE965F1 EQ PUSH2 0x147 JUMPI DUP1 PUSH4 0x3B7D8952 EQ PUSH2 0x165 JUMPI DUP1 PUSH4 0x3D847DDA EQ PUSH2 0x183 JUMPI DUP1 PUSH4 0x5BB47808 EQ PUSH2 0x1B3 JUMPI DUP1 PUSH4 0x682EF79F EQ PUSH2 0x1CF JUMPI JUMPDEST PUSH1 0x0 DUP1 REVERT JUMPDEST PUSH2 0x14F PUSH2 0x3FE JUMP JUMPDEST PUSH1 0x40 MLOAD PUSH2 0x15C SWAP2 SWAP1 PUSH2 0x2A21 JUMP JUMPDEST PUSH1 0x40 MLOAD DUP1 SWAP2 SUB SWAP1 RETURN JUMPDEST PUSH2 0x16D PUSH2 0x40A JUMP JUMPDEST PUSH1 0x40 MLOAD PUSH2 0x17A SWAP2 SWAP1 PUSH2 0x2A21 JUMP JUMPDEST PUSH1 0x40 MLOAD DUP1 SWAP2 SUB SWAP1 RETURN JUMPDEST PUSH2 0x19D PUSH1 0x4 DUP1 CALLDATASIZE SUB DUP2 ADD SWAP1 PUSH2 0x198 SWAP2 SWAP1 PUSH2 0x239D JUMP JUMPDEST PUSH2 0x416 JUMP JUMPDEST PUSH1 0x40 MLOAD PUSH2 0x1AA SWAP2 SWAP1 PUSH2 0x297F JUMP JUMPDEST PUSH1 0x40 MLOAD DUP1 SWAP2 SUB SWAP1 RETURN JUMPDEST PUSH2 0x1CD PUSH1 0x4 DUP1 CALLDATASIZE SUB DUP2 ADD SWAP1 PUSH2 0x1C8 SWAP2 SWAP1 PUSH2 0x239D JUMP JUMPDEST PUSH2 0x4B6 JUMP JUMPDEST STOP JUMPDEST PUSH2 0x1E9 PUSH1 0x4 DUP1 CALLDATASIZE SUB DUP2 ADD SWAP1 PUSH2 0x1E4 SWAP2 SWAP1 PUSH2 0x2480 JUMP JUMPDEST PUSH2 0x576 JUMP JUMPDEST STOP JUMPDEST PUSH2 0x1F3 PUSH2 0x6D9 JUMP JUMPDEST STOP JUMPDEST PUSH2 0x20F PUSH1 0x4 DUP1 CALLDATASIZE SUB DUP2 ADD SWAP1 PUSH2 0x20A SWAP2 SWAP1 PUSH2 0x239D JUMP JUMPDEST PUSH2 0x761 JUMP JUMPDEST PUSH1 0x40 MLOAD PUSH2 0x21C SWAP2 SWAP1 PUSH2 0x297F JUMP JUMPDEST PUSH1 0x40 MLOAD DUP1 SWAP2 SUB SWAP1 RETURN JUMPDEST PUSH2 0x23F PUSH1 0x4 DUP1 CALLDATASIZE SUB DUP2 ADD SWAP1 PUSH2 0x23A SWAP2 SWAP1 PUSH2 0x2659 JUMP JUMPDEST PUSH2 0x801 JUMP JUMPDEST STOP JUMPDEST PUSH2 0x249 PUSH2 0xCBC JUMP JUMPDEST PUSH1 0x40 MLOAD PUSH2 0x256 SWAP2 SWAP1 PUSH2 0x2846 JUMP JUMPDEST PUSH1 0x40 MLOAD DUP1 SWAP2 SUB SWAP1 RETURN JUMPDEST PUSH2 0x267 PUSH2 0xCE5 JUMP JUMPDEST PUSH1 0x40 MLOAD PUSH2 0x274 SWAP2 SWAP1 PUSH2 0x292E JUMP JUMPDEST PUSH1 0x40 MLOAD DUP1 SWAP2 SUB SWAP1 RETURN JUMPDEST PUSH2 0x297 PUSH1 0x4 DUP1 CALLDATASIZE SUB DUP2 ADD SWAP1 PUSH2 0x292 SWAP2 SWAP1 PUSH2 0x24C9 JUMP JUMPDEST PUSH2 0xD0B JUMP JUMPDEST STOP JUMPDEST PUSH2 0x2B3 PUSH1 0x4 DUP1 CALLDATASIZE SUB DUP2 ADD SWAP1 PUSH2 0x2AE SWAP2 SWAP1 PUSH2 0x26DC JUMP JUMPDEST PUSH2 0x111E JUMP JUMPDEST PUSH1 0x40 MLOAD PUSH2 0x2C1 SWAP3 SWAP2 SWAP1 PUSH2 0x28C1 JUMP JUMPDEST PUSH1 0x40 MLOAD DUP1 SWAP2 SUB SWAP1 RETURN JUMPDEST PUSH2 0x2D2 PUSH2 0x117B JUMP JUMPDEST PUSH1 0x40 MLOAD PUSH2 0x2DF SWAP2 SWAP1 PUSH2 0x2964 JUMP JUMPDEST PUSH1 0x40 MLOAD DUP1 SWAP2 SUB SWAP1 RETURN JUMPDEST PUSH2 0x302 PUSH1 0x4 DUP1 CALLDATASIZE SUB DUP2 ADD SWAP1 PUSH2 0x2FD SWAP2 SWAP1 PUSH2 0x2587 JUMP JUMPDEST PUSH2 0x11A1 JUMP JUMPDEST STOP JUMPDEST PUSH2 0x31E PUSH1 0x4 DUP1 CALLDATASIZE SUB DUP2 ADD SWAP1 PUSH2 0x319 SWAP2 SWAP1 PUSH2 0x239D JUMP JUMPDEST PUSH2 0x1668 JUMP JUMPDEST PUSH1 0x40 MLOAD PUSH2 0x32B SWAP2 SWAP1 PUSH2 0x28EA JUMP JUMPDEST PUSH1 0x40 MLOAD DUP1 SWAP2 SUB SWAP1 RETURN JUMPDEST PUSH2 0x33C PUSH2 0x1688 JUMP JUMPDEST PUSH1 0x40 MLOAD PUSH2 0x349 SWAP2 SWAP1 PUSH2 0x2949 JUMP JUMPDEST PUSH1 0x40 MLOAD DUP1 SWAP2 SUB SWAP1 RETURN JUMPDEST PUSH2 0x36C PUSH1 0x4 DUP1 CALLDATASIZE SUB DUP2 ADD SWAP1 PUSH2 0x367 SWAP2 SWAP1 PUSH2 0x2659 JUMP JUMPDEST PUSH2 0x16AE JUMP JUMPDEST STOP JUMPDEST PUSH2 0x388 PUSH1 0x4 DUP1 CALLDATASIZE SUB DUP2 ADD SWAP1 PUSH2 0x383 SWAP2 SWAP1 PUSH2 0x239D JUMP JUMPDEST PUSH2 0x1B68 JUMP JUMPDEST STOP JUMPDEST PUSH2 0x3A4 PUSH1 0x4 DUP1 CALLDATASIZE SUB DUP2 ADD SWAP1 PUSH2 0x39F SWAP2 SWAP1 PUSH2 0x23F7 JUMP JUMPDEST PUSH2 0x1CE0 JUMP JUMPDEST STOP JUMPDEST PUSH2 0x3AE PUSH2 0x1E44 JUMP JUMPDEST PUSH1 0x40 MLOAD PUSH2 0x3BB SWAP2 SWAP1 PUSH2 0x2A21 JUMP JUMPDEST PUSH1 0x40 MLOAD DUP1 SWAP2 SUB SWAP1 RETURN JUMPDEST PUSH2 0x3CC PUSH2 0x1E50 JUMP JUMPDEST PUSH1 0x40 MLOAD PUSH2 0x3D9 SWAP2 SWAP1 PUSH2 0x2A21 JUMP JUMPDEST PUSH1 0x40 MLOAD DUP1 SWAP2 SUB SWAP1 RETURN JUMPDEST PUSH2 0x3FC PUSH1 0x4 DUP1 CALLDATASIZE SUB DUP2 ADD SWAP1 PUSH2 0x3F7 SWAP2 SWAP1 PUSH2 0x239D JUMP JUMPDEST PUSH2 0x1E5C JUMP JUMPDEST STOP JUMPDEST PUSH1 0x6 DUP1 PUSH1 0x0 ADD SLOAD SWAP1 POP DUP2 JUMP JUMPDEST PUSH1 0x8 DUP1 PUSH1 0x0 ADD SLOAD SWAP1 POP DUP2 JUMP JUMPDEST PUSH1 0xA PUSH1 0x20 MSTORE DUP1 PUSH1 0x0 MSTORE PUSH1 0x40 PUSH1 0x0 KECCAK256 PUSH1 0x0 SWAP2 POP SWAP1 POP DUP1 SLOAD PUSH2 0x435 SWAP1 PUSH2 0x2D34 JUMP JUMPDEST DUP1 PUSH1 0x1F ADD PUSH1 0x20 DUP1 SWAP2 DIV MUL PUSH1 0x20 ADD PUSH1 0x40 MLOAD SWAP1 DUP2 ADD PUSH1 0x40 MSTORE DUP1 SWAP3 SWAP2 SWAP1 DUP2 DUP2 MSTORE PUSH1 0x20 ADD DUP3 DUP1 SLOAD PUSH2 0x461 SWAP1 PUSH2 0x2D34 JUMP JUMPDEST DUP1 ISZERO PUSH2 0x4AE JUMPI DUP1 PUSH1 0x1F LT PUSH2 0x483 JUMPI PUSH2 0x100 DUP1 DUP4 SLOAD DIV MUL DUP4 MSTORE SWAP2 PUSH1 0x20 ADD SWAP2 PUSH2 0x4AE JUMP JUMPDEST DUP3 ADD SWAP2 SWAP1 PUSH1 0x0 MSTORE PUSH1 0x20 PUSH1 0x0 KECCAK256 SWAP1 JUMPDEST DUP2 SLOAD DUP2 MSTORE SWAP1 PUSH1 0x1 ADD SWAP1 PUSH1 0x20 ADD DUP1 DUP4 GT PUSH2 0x491 JUMPI DUP3 SWAP1 SUB PUSH1 0x1F AND DUP3 ADD SWAP2 JUMPDEST POP POP POP POP POP DUP2 JUMP JUMPDEST PUSH2 0x4BE PUSH2 0x1F54 JUMP JUMPDEST PUSH20 0xFFFFFFFFFFFFFFFFFFFFFFFFFFFFFFFFFFFFFFFF AND PUSH2 0x4DC PUSH2 0xCBC JUMP JUMPDEST PUSH20 0xFFFFFFFFFFFFFFFFFFFFFFFFFFFFFFFFFFFFFFFF AND EQ PUSH2 0x532 JUMPI PUSH1 0x40 MLOAD PUSH32 0x8C379A000000000000000000000000000000000000000000000000000000000 DUP2 MSTORE PUSH1 0x4 ADD PUSH2 0x529 SWAP1 PUSH2 0x29E1 JUMP JUMPDEST PUSH1 0x40 MLOAD DUP1 SWAP2 SUB SWAP1 REVERT JUMPDEST DUP1 PUSH1 0x1 PUSH1 0x0 PUSH2 0x100 EXP DUP2 SLOAD DUP2 PUSH20 0xFFFFFFFFFFFFFFFFFFFFFFFFFFFFFFFFFFFFFFFF MUL NOT AND SWAP1 DUP4 PUSH20 0xFFFFFFFFFFFFFFFFFFFFFFFFFFFFFFFFFFFFFFFF AND MUL OR SWAP1 SSTORE POP POP JUMP JUMPDEST PUSH1 0x2 PUSH1 0x0 SWAP1 SLOAD SWAP1 PUSH2 0x100 EXP SWAP1 DIV PUSH20 0xFFFFFFFFFFFFFFFFFFFFFFFFFFFFFFFFFFFFFFFF AND PUSH20 0xFFFFFFFFFFFFFFFFFFFFFFFFFFFFFFFFFFFFFFFF AND PUSH4 0x91D14854 PUSH32 0xC951D7098B66BA0B8B77265B6E9CF0E187D73125A42BCD0061B09A68BE421810 CALLER PUSH1 0x40 MLOAD DUP4 PUSH4 0xFFFFFFFF AND PUSH1 0xE0 SHL DUP2 MSTORE PUSH1 0x4 ADD PUSH2 0x5F3 SWAP3 SWAP2 SWAP1 PUSH2 0x2905 JUMP JUMPDEST PUSH1 0x20 PUSH1 0x40 MLOAD DUP1 DUP4 SUB DUP2 DUP7 DUP1 EXTCODESIZE ISZERO DUP1 ISZERO PUSH2 0x60B JUMPI PUSH1 0x0 DUP1 REVERT JUMPDEST POP GAS STATICCALL ISZERO DUP1 ISZERO PUSH2 0x61F JUMPI RETURNDATASIZE PUSH1 0x0 DUP1 RETURNDATACOPY RETURNDATASIZE PUSH1 0x0 REVERT JUMPDEST POP POP POP POP PUSH1 0x40 MLOAD RETURNDATASIZE PUSH1 0x1F NOT PUSH1 0x1F DUP3 ADD AND DUP3 ADD DUP1 PUSH1 0x40 MSTORE POP DUP2 ADD SWAP1 PUSH2 0x643 SWAP2 SWAP1 PUSH2 0x2453 JUMP JUMPDEST PUSH2 0x682 JUMPI PUSH1 0x40 MLOAD PUSH32 0x8C379A000000000000000000000000000000000000000000000000000000000 DUP2 MSTORE PUSH1 0x4 ADD PUSH2 0x679 SWAP1 PUSH2 0x29C1 JUMP JUMPDEST PUSH1 0x40 MLOAD DUP1 SWAP2 SUB SWAP1 REVERT JUMPDEST DUP1 PUSH1 0xA PUSH1 0x0 CALLER PUSH20 0xFFFFFFFFFFFFFFFFFFFFFFFFFFFFFFFFFFFFFFFF AND PUSH20 0xFFFFFFFFFFFFFFFFFFFFFFFFFFFFFFFFFFFFFFFF AND DUP2 MSTORE PUSH1 0x20 ADD SWAP1 DUP2 MSTORE PUSH1 0x20 ADD PUSH1 0x0 KECCAK256 SWAP1 DUP1 MLOAD SWAP1 PUSH1 0x20 ADD SWAP1 PUSH2 0x6D5 SWAP3 SWAP2 SWAP1 PUSH2 0x2236 JUMP JUMPDEST POP POP JUMP JUMPDEST PUSH2 0x6E1 PUSH2 0x1F54 JUMP JUMPDEST PUSH20 0xFFFFFFFFFFFFFFFFFFFFFFFFFFFFFFFFFFFFFFFF AND PUSH2 0x6FF PUSH2 0xCBC JUMP JUMPDEST PUSH20 0xFFFFFFFFFFFFFFFFFFFFFFFFFFFFFFFFFFFFFFFF AND EQ PUSH2 0x755 JUMPI PUSH1 0x40 MLOAD PUSH32 0x8C379A000000000000000000000000000000000000000000000000000000000 DUP2 MSTORE PUSH1 0x4 ADD PUSH2 0x74C SWAP1 PUSH2 0x29E1 JUMP JUMPDEST PUSH1 0x40 MLOAD DUP1 SWAP2 SUB SWAP1 REVERT JUMPDEST PUSH2 0x75F PUSH1 0x0 PUSH2 0x1F5C JUMP JUMPDEST JUMP JUMPDEST PUSH1 0xB PUSH1 0x20 MSTORE DUP1 PUSH1 0x0 MSTORE PUSH1 0x40 PUSH1 0x0 KECCAK256 PUSH1 0x0 SWAP2 POP SWAP1 POP DUP1 SLOAD PUSH2 0x780 SWAP1 PUSH2 0x2D34 JUMP JUMPDEST DUP1 PUSH1 0x1F ADD PUSH1 0x20 DUP1 SWAP2 DIV MUL PUSH1 0x20 ADD PUSH1 0x40 MLOAD SWAP1 DUP2 ADD PUSH1 0x40 MSTORE DUP1 SWAP3 SWAP2 SWAP1 DUP2 DUP2 MSTORE PUSH1 0x20 ADD DUP3 DUP1 SLOAD PUSH2 0x7AC SWAP1 PUSH2 0x2D34 JUMP JUMPDEST DUP1 ISZERO PUSH2 0x7F9 JUMPI DUP1 PUSH1 0x1F LT PUSH2 0x7CE JUMPI PUSH2 0x100 DUP1 DUP4 SLOAD DIV MUL DUP4 MSTORE SWAP2 PUSH1 0x20 ADD SWAP2 PUSH2 0x7F9 JUMP JUMPDEST DUP3 ADD SWAP2 SWAP1 PUSH1 0x0 MSTORE PUSH1 0x20 PUSH1 0x0 KECCAK256 SWAP1 JUMPDEST DUP2 SLOAD DUP2 MSTORE SWAP1 PUSH1 0x1 ADD SWAP1 PUSH1 0x20 ADD DUP1 DUP4 GT PUSH2 0x7DC JUMPI DUP3 SWAP1 SUB PUSH1 0x1F AND DUP3 ADD SWAP2 JUMPDEST POP POP POP POP POP DUP2 JUMP JUMPDEST PUSH1 0x2 PUSH1 0x0 SWAP1 SLOAD SWAP1 PUSH2 0x100 EXP SWAP1 DIV PUSH20 0xFFFFFFFFFFFFFFFFFFFFFFFFFFFFFFFFFFFFFFFF AND PUSH20 0xFFFFFFFFFFFFFFFFFFFFFFFFFFFFFFFFFFFFFFFF AND PUSH4 0x91D14854 PUSH32 0xDF8B4C520FFE197C5343C6F5AEC59570151EF9A492F2C624FD45DDDE6135EC42 CALLER PUSH1 0x40 MLOAD DUP4 PUSH4 0xFFFFFFFF AND PUSH1 0xE0 SHL DUP2 MSTORE PUSH1 0x4 ADD PUSH2 0x87E SWAP3 SWAP2 SWAP1 PUSH2 0x2905 JUMP JUMPDEST PUSH1 0x20 PUSH1 0x40 MLOAD DUP1 DUP4 SUB DUP2 DUP7 DUP1 EXTCODESIZE ISZERO DUP1 ISZERO PUSH2 0x896 JUMPI PUSH1 0x0 DUP1 REVERT JUMPDEST POP GAS STATICCALL ISZERO DUP1 ISZERO PUSH2 0x8AA JUMPI RETURNDATASIZE PUSH1 0x0 DUP1 RETURNDATACOPY RETURNDATASIZE PUSH1 0x0 REVERT JUMPDEST POP POP POP POP PUSH1 0x40 MLOAD RETURNDATASIZE PUSH1 0x1F NOT PUSH1 0x1F DUP3 ADD AND DUP3 ADD DUP1 PUSH1 0x40 MSTORE POP DUP2 ADD SWAP1 PUSH2 0x8CE SWAP2 SWAP1 PUSH2 0x2453 JUMP JUMPDEST PUSH2 0x90D JUMPI PUSH1 0x40 MLOAD PUSH32 0x8C379A000000000000000000000000000000000000000000000000000000000 DUP2 MSTORE PUSH1 0x4 ADD PUSH2 0x904 SWAP1 PUSH2 0x2A01 JUMP JUMPDEST PUSH1 0x40 MLOAD DUP1 SWAP2 SUB SWAP1 REVERT JUMPDEST PUSH1 0x0 PUSH1 0x1 PUSH1 0x0 SWAP1 SLOAD SWAP1 PUSH2 0x100 EXP SWAP1 DIV PUSH20 0xFFFFFFFFFFFFFFFFFFFFFFFFFFFFFFFFFFFFFFFF AND PUSH20 0xFFFFFFFFFFFFFFFFFFFFFFFFFFFFFFFFFFFFFFFF AND PUSH4 0x378AC245 ADDRESS PUSH1 0x2 PUSH1 0x0 SWAP1 SLOAD SWAP1 PUSH2 0x100 EXP SWAP1 DIV PUSH20 0xFFFFFFFFFFFFFFFFFFFFFFFFFFFFFFFFFFFFFFFF AND PUSH1 0x3 PUSH1 0x0 SWAP1 SLOAD SWAP1 PUSH2 0x100 EXP SWAP1 DIV PUSH20 0xFFFFFFFFFFFFFFFFFFFFFFFFFFFFFFFFFFFFFFFF AND PUSH1 0x40 MLOAD DUP5 PUSH4 0xFFFFFFFF AND PUSH1 0xE0 SHL DUP2 MSTORE PUSH1 0x4 ADD PUSH2 0x9B2 SWAP4 SWAP3 SWAP2 SWAP1 PUSH2 0x288A JUMP JUMPDEST PUSH1 0x20 PUSH1 0x40 MLOAD DUP1 DUP4 SUB DUP2 PUSH1 0x0 DUP8 DUP1 EXTCODESIZE ISZERO DUP1 ISZERO PUSH2 0x9CC JUMPI PUSH1 0x0 DUP1 REVERT JUMPDEST POP GAS CALL ISZERO DUP1 ISZERO PUSH2 0x9E0 JUMPI RETURNDATASIZE PUSH1 0x0 DUP1 RETURNDATACOPY RETURNDATASIZE PUSH1 0x0 REVERT JUMPDEST POP POP POP POP PUSH1 0x40 MLOAD RETURNDATASIZE PUSH1 0x1F NOT PUSH1 0x1F DUP3 ADD AND DUP3 ADD DUP1 PUSH1 0x40 MSTORE POP DUP2 ADD SWAP1 PUSH2 0xA04 SWAP2 SWAP1 PUSH2 0x23CA JUMP JUMPDEST SWAP1 POP PUSH1 0x4 PUSH1 0x40 MLOAD DUP1 PUSH1 0x40 ADD PUSH1 0x40 MSTORE DUP1 DUP4 PUSH20 0xFFFFFFFFFFFFFFFFFFFFFFFFFFFFFFFFFFFFFFFF AND DUP2 MSTORE PUSH1 0x20 ADD PUSH1 0x2 PUSH1 0x3 DUP2 GT ISZERO PUSH2 0xA43 JUMPI PUSH2 0xA42 PUSH2 0x2D97 JUMP JUMPDEST JUMPDEST DUP2 MSTORE POP SWAP1 DUP1 PUSH1 0x1 DUP2 SLOAD ADD DUP1 DUP3 SSTORE DUP1 SWAP2 POP POP PUSH1 0x1 SWAP1 SUB SWAP1 PUSH1 0x0 MSTORE PUSH1 0x20 PUSH1 0x0 KECCAK256 ADD PUSH1 0x0 SWAP1 SWAP2 SWAP1 SWAP2 SWAP1 SWAP2 POP PUSH1 0x0 DUP3 ADD MLOAD DUP2 PUSH1 0x0 ADD PUSH1 0x0 PUSH2 0x100 EXP DUP2 SLOAD DUP2 PUSH20 0xFFFFFFFFFFFFFFFFFFFFFFFFFFFFFFFFFFFFFFFF MUL NOT AND SWAP1 DUP4 PUSH20 0xFFFFFFFFFFFFFFFFFFFFFFFFFFFFFFFFFFFFFFFF AND MUL OR SWAP1 SSTORE POP PUSH1 0x20 DUP3 ADD MLOAD DUP2 PUSH1 0x0 ADD PUSH1 0x14 PUSH2 0x100 EXP DUP2 SLOAD DUP2 PUSH1 0xFF MUL NOT AND SWAP1 DUP4 PUSH1 0x3 DUP2 GT ISZERO PUSH2 0xADD JUMPI PUSH2 0xADC PUSH2 0x2D97 JUMP JUMPDEST JUMPDEST MUL OR SWAP1 SSTORE POP POP POP PUSH1 0x1 PUSH1 0x5 PUSH1 0x0 DUP4 PUSH20 0xFFFFFFFFFFFFFFFFFFFFFFFFFFFFFFFFFFFFFFFF AND PUSH20 0xFFFFFFFFFFFFFFFFFFFFFFFFFFFFFFFFFFFFFFFF AND DUP2 MSTORE PUSH1 0x20 ADD SWAP1 DUP2 MSTORE PUSH1 0x20 ADD PUSH1 0x0 KECCAK256 PUSH1 0x0 PUSH2 0x100 EXP DUP2 SLOAD DUP2 PUSH1 0xFF MUL NOT AND SWAP1 DUP4 ISZERO ISZERO MUL OR SWAP1 SSTORE POP PUSH1 0x0 PUSH2 0xB48 PUSH1 0x8 PUSH2 0x2020 JUMP JUMPDEST SWAP1 POP PUSH2 0xB54 PUSH1 0x8 PUSH2 0x202E JUMP JUMPDEST DUP2 PUSH20 0xFFFFFFFFFFFFFFFFFFFFFFFFFFFFFFFFFFFFFFFF AND PUSH4 0xE4BCA563 DUP3 DUP9 DUP9 DUP9 DUP9 PUSH1 0x40 MLOAD DUP7 PUSH4 0xFFFFFFFF AND PUSH1 0xE0 SHL DUP2 MSTORE PUSH1 0x4 ADD PUSH2 0xB95 SWAP6 SWAP5 SWAP4 SWAP3 SWAP2 SWAP1 PUSH2 0x2B55 JUMP JUMPDEST PUSH1 0x0 PUSH1 0x40 MLOAD DUP1 DUP4 SUB DUP2 PUSH1 0x0 DUP8 DUP1 EXTCODESIZE ISZERO DUP1 ISZERO PUSH2 0xBAF JUMPI PUSH1 0x0 DUP1 REVERT JUMPDEST POP GAS CALL ISZERO DUP1 ISZERO PUSH2 0xBC3 JUMPI RETURNDATASIZE PUSH1 0x0 DUP1 RETURNDATACOPY RETURNDATASIZE PUSH1 0x0 REVERT JUMPDEST POP POP POP POP DUP2 PUSH20 0xFFFFFFFFFFFFFFFFFFFFFFFFFFFFFFFFFFFFFFFF AND PUSH4 0xBE9A6555 PUSH1 0x40 MLOAD DUP2 PUSH4 0xFFFFFFFF AND PUSH1 0xE0 SHL DUP2 MSTORE PUSH1 0x4 ADD PUSH1 0x0 PUSH1 0x40 MLOAD DUP1 DUP4 SUB DUP2 PUSH1 0x0 DUP8 DUP1 EXTCODESIZE ISZERO DUP1 ISZERO PUSH2 0xC0F JUMPI PUSH1 0x0 DUP1 REVERT JUMPDEST POP GAS CALL ISZERO DUP1 ISZERO PUSH2 0xC23 JUMPI RETURNDATASIZE PUSH1 0x0 DUP1 RETURNDATACOPY RETURNDATASIZE PUSH1 0x0 REVERT JUMPDEST POP POP POP POP PUSH1 0x3 PUSH1 0x0 SWAP1 SLOAD SWAP1 PUSH2 0x100 EXP SWAP1 DIV PUSH20 0xFFFFFFFFFFFFFFFFFFFFFFFFFFFFFFFFFFFFFFFF AND PUSH20 0xFFFFFFFFFFFFFFFFFFFFFFFFFFFFFFFFFFFFFFFF AND PUSH4 0x5380898 DUP4 PUSH1 0x40 MLOAD DUP3 PUSH4 0xFFFFFFFF AND PUSH1 0xE0 SHL DUP2 MSTORE PUSH1 0x4 ADD PUSH2 0xC82 SWAP2 SWAP1 PUSH2 0x2846 JUMP JUMPDEST PUSH1 0x0 PUSH1 0x40 MLOAD DUP1 DUP4 SUB DUP2 PUSH1 0x0 DUP8 DUP1 EXTCODESIZE ISZERO DUP1 ISZERO PUSH2 0xC9C JUMPI PUSH1 0x0 DUP1 REVERT JUMPDEST POP GAS CALL ISZERO DUP1 ISZERO PUSH2 0xCB0 JUMPI RETURNDATASIZE PUSH1 0x0 DUP1 RETURNDATACOPY RETURNDATASIZE PUSH1 0x0 REVERT JUMPDEST POP POP POP POP POP POP POP POP POP POP JUMP JUMPDEST PUSH1 0x0 DUP1 PUSH1 0x0 SWAP1 SLOAD SWAP1 PUSH2 0x100 EXP SWAP1 DIV PUSH20 0xFFFFFFFFFFFFFFFFFFFFFFFFFFFFFFFFFFFFFFFF AND SWAP1 POP SWAP1 JUMP JUMPDEST PUSH1 0x2 PUSH1 0x0 SWAP1 SLOAD SWAP1 PUSH2 0x100 EXP SWAP1 DIV PUSH20 0xFFFFFFFFFFFFFFFFFFFFFFFFFFFFFFFFFFFFFFFF AND DUP2 JUMP JUMPDEST PUSH1 0x2 PUSH1 0x0 SWAP1 SLOAD SWAP1 PUSH2 0x100 EXP SWAP1 DIV PUSH20 0xFFFFFFFFFFFFFFFFFFFFFFFFFFFFFFFFFFFFFFFF AND PUSH20 0xFFFFFFFFFFFFFFFFFFFFFFFFFFFFFFFFFFFFFFFF AND PUSH4 0x91D14854 PUSH32 0xDF8B4C520FFE197C5343C6F5AEC59570151EF9A492F2C624FD45DDDE6135EC42 CALLER PUSH1 0x40 MLOAD DUP4 PUSH4 0xFFFFFFFF AND PUSH1 0xE0 SHL DUP2 MSTORE PUSH1 0x4 ADD PUSH2 0xD88 SWAP3 SWAP2 SWAP1 PUSH2 0x2905 JUMP JUMPDEST PUSH1 0x20 PUSH1 0x40 MLOAD DUP1 DUP4 SUB DUP2 DUP7 DUP1 EXTCODESIZE ISZERO DUP1 ISZERO PUSH2 0xDA0 JUMPI PUSH1 0x0 DUP1 REVERT JUMPDEST POP GAS STATICCALL ISZERO DUP1 ISZERO PUSH2 0xDB4 JUMPI RETURNDATASIZE PUSH1 0x0 DUP1 RETURNDATACOPY RETURNDATASIZE PUSH1 0x0 REVERT JUMPDEST POP POP POP POP PUSH1 0x40 MLOAD RETURNDATASIZE PUSH1 0x1F NOT PUSH1 0x1F DUP3 ADD AND DUP3 ADD DUP1 PUSH1 0x40 MSTORE POP DUP2 ADD SWAP1 PUSH2 0xDD8 SWAP2 SWAP1 PUSH2 0x2453 JUMP JUMPDEST PUSH2 0xE17 JUMPI PUSH1 0x40 MLOAD PUSH32 0x8C379A000000000000000000000000000000000000000000000000000000000 DUP2 MSTORE PUSH1 0x4 ADD PUSH2 0xE0E SWAP1 PUSH2 0x2A01 JUMP JUMPDEST PUSH1 0x40 MLOAD DUP1 SWAP2 SUB SWAP1 REVERT JUMPDEST PUSH1 0x0 PUSH1 0x1 PUSH1 0x0 SWAP1 SLOAD SWAP1 PUSH2 0x100 EXP SWAP1 DIV PUSH20 0xFFFFFFFFFFFFFFFFFFFFFFFFFFFFFFFFFFFFFFFF AND PUSH20 0xFFFFFFFFFFFFFFFFFFFFFFFFFFFFFFFFFFFFFFFF AND PUSH4 0xB928882E ADDRESS PUSH1 0x2 PUSH1 0x0 SWAP1 SLOAD SWAP1 PUSH2 0x100 EXP SWAP1 DIV PUSH20 0xFFFFFFFFFFFFFFFFFFFFFFFFFFFFFFFFFFFFFFFF AND PUSH1 0x40 MLOAD DUP4 PUSH4 0xFFFFFFFF AND PUSH1 0xE0 SHL DUP2 MSTORE PUSH1 0x4 ADD PUSH2 0xE98 SWAP3 SWAP2 SWAP1 PUSH2 0x2861 JUMP JUMPDEST PUSH1 0x20 PUSH1 0x40 MLOAD DUP1 DUP4 SUB DUP2 PUSH1 0x0 DUP8 DUP1 EXTCODESIZE ISZERO DUP1 ISZERO PUSH2 0xEB2 JUMPI PUSH1 0x0 DUP1 REVERT JUMPDEST POP GAS CALL ISZERO DUP1 ISZERO PUSH2 0xEC6 JUMPI RETURNDATASIZE PUSH1 0x0 DUP1 RETURNDATACOPY RETURNDATASIZE PUSH1 0x0 REVERT JUMPDEST POP POP POP POP PUSH1 0x40 MLOAD RETURNDATASIZE PUSH1 0x1F NOT PUSH1 0x1F DUP3 ADD AND DUP3 ADD DUP1 PUSH1 0x40 MSTORE POP DUP2 ADD SWAP1 PUSH2 0xEEA SWAP2 SWAP1 PUSH2 0x23CA JUMP JUMPDEST SWAP1 POP PUSH1 0x4 PUSH1 0x40 MLOAD DUP1 PUSH1 0x40 ADD PUSH1 0x40 MSTORE DUP1 DUP4 PUSH20 0xFFFFFFFFFFFFFFFFFFFFFFFFFFFFFFFFFFFFFFFF AND DUP2 MSTORE PUSH1 0x20 ADD PUSH1 0x1 PUSH1 0x3 DUP2 GT ISZERO PUSH2 0xF29 JUMPI PUSH2 0xF28 PUSH2 0x2D97 JUMP JUMPDEST JUMPDEST DUP2 MSTORE POP SWAP1 DUP1 PUSH1 0x1 DUP2 SLOAD ADD DUP1 DUP3 SSTORE DUP1 SWAP2 POP POP PUSH1 0x1 SWAP1 SUB SWAP1 PUSH1 0x0 MSTORE PUSH1 0x20 PUSH1 0x0 KECCAK256 ADD PUSH1 0x0 SWAP1 SWAP2 SWAP1 SWAP2 SWAP1 SWAP2 POP PUSH1 0x0 DUP3 ADD MLOAD DUP2 PUSH1 0x0 ADD PUSH1 0x0 PUSH2 0x100 EXP DUP2 SLOAD DUP2 PUSH20 0xFFFFFFFFFFFFFFFFFFFFFFFFFFFFFFFFFFFFFFFF MUL NOT AND SWAP1 DUP4 PUSH20 0xFFFFFFFFFFFFFFFFFFFFFFFFFFFFFFFFFFFFFFFF AND MUL OR SWAP1 SSTORE POP PUSH1 0x20 DUP3 ADD MLOAD DUP2 PUSH1 0x0 ADD PUSH1 0x14 PUSH2 0x100 EXP DUP2 SLOAD DUP2 PUSH1 0xFF MUL NOT AND SWAP1 DUP4 PUSH1 0x3 DUP2 GT ISZERO PUSH2 0xFC3 JUMPI PUSH2 0xFC2 PUSH2 0x2D97 JUMP JUMPDEST JUMPDEST MUL OR SWAP1 SSTORE POP POP POP PUSH1 0x1 PUSH1 0x5 PUSH1 0x0 DUP4 PUSH20 0xFFFFFFFFFFFFFFFFFFFFFFFFFFFFFFFFFFFFFFFF AND PUSH20 0xFFFFFFFFFFFFFFFFFFFFFFFFFFFFFFFFFFFFFFFF AND DUP2 MSTORE PUSH1 0x20 ADD SWAP1 DUP2 MSTORE PUSH1 0x20 ADD PUSH1 0x0 KECCAK256 PUSH1 0x0 PUSH2 0x100 EXP DUP2 SLOAD DUP2 PUSH1 0xFF MUL NOT AND SWAP1 DUP4 ISZERO ISZERO MUL OR SWAP1 SSTORE POP PUSH1 0x0 PUSH2 0x102E PUSH1 0x7 PUSH2 0x2020 JUMP JUMPDEST SWAP1 POP PUSH2 0x103A PUSH1 0x7 PUSH2 0x202E JUMP JUMPDEST DUP2 PUSH20 0xFFFFFFFFFFFFFFFFFFFFFFFFFFFFFFFFFFFFFFFF AND PUSH4 0xA53DC8D2 DUP3 DUP12 DUP12 DUP12 DUP12 DUP12 DUP12 DUP12 PUSH1 0x40 MLOAD DUP10 PUSH4 0xFFFFFFFF AND PUSH1 0xE0 SHL DUP2 MSTORE PUSH1 0x4 ADD PUSH2 0x1081 SWAP9 SWAP8 SWAP7 SWAP6 SWAP5 SWAP4 SWAP3 SWAP2 SWAP1 PUSH2 0x2A3C JUMP JUMPDEST PUSH1 0x0 PUSH1 0x40 MLOAD DUP1 DUP4 SUB DUP2 PUSH1 0x0 DUP8 DUP1 EXTCODESIZE ISZERO DUP1 ISZERO PUSH2 0x109B JUMPI PUSH1 0x0 DUP1 REVERT JUMPDEST POP GAS CALL ISZERO DUP1 ISZERO PUSH2 0x10AF JUMPI RETURNDATASIZE PUSH1 0x0 DUP1 RETURNDATACOPY RETURNDATASIZE PUSH1 0x0 REVERT JUMPDEST POP POP POP POP DUP2 PUSH20 0xFFFFFFFFFFFFFFFFFFFFFFFFFFFFFFFFFFFFFFFF AND PUSH4 0xBE9A6555 PUSH1 0x40 MLOAD DUP2 PUSH4 0xFFFFFFFF AND PUSH1 0xE0 SHL DUP2 MSTORE PUSH1 0x4 ADD PUSH1 0x0 PUSH1 0x40 MLOAD DUP1 DUP4 SUB DUP2 PUSH1 0x0 DUP8 DUP1 EXTCODESIZE ISZERO DUP1 ISZERO PUSH2 0x10FB JUMPI PUSH1 0x0 DUP1 REVERT JUMPDEST POP GAS CALL ISZERO DUP1 ISZERO PUSH2 0x110F JUMPI RETURNDATASIZE PUSH1 0x0 DUP1 RETURNDATACOPY RETURNDATASIZE PUSH1 0x0 REVERT JUMPDEST POP POP POP POP POP POP POP POP POP POP POP POP POP JUMP JUMPDEST PUSH1 0x4 DUP2 DUP2 SLOAD DUP2 LT PUSH2 0x112E JUMPI PUSH1 0x0 DUP1 REVERT JUMPDEST SWAP1 PUSH1 0x0 MSTORE PUSH1 0x20 PUSH1 0x0 KECCAK256 ADD PUSH1 0x0 SWAP2 POP SWAP1 POP DUP1 PUSH1 0x0 ADD PUSH1 0x0 SWAP1 SLOAD SWAP1 PUSH2 0x100 EXP SWAP1 DIV PUSH20 0xFFFFFFFFFFFFFFFFFFFFFFFFFFFFFFFFFFFFFFFF AND SWAP1 DUP1 PUSH1 0x0 ADD PUSH1 0x14 SWAP1 SLOAD SWAP1 PUSH2 0x100 EXP SWAP1 DIV PUSH1 0xFF AND SWAP1 POP DUP3 JUMP JUMPDEST PUSH1 0x3 PUSH1 0x0 SWAP1 SLOAD SWAP1 PUSH2 0x100 EXP SWAP1 DIV PUSH20 0xFFFFFFFFFFFFFFFFFFFFFFFFFFFFFFFFFFFFFFFF AND DUP2 JUMP JUMPDEST PUSH1 0x2 PUSH1 0x0 SWAP1 SLOAD SWAP1 PUSH2 0x100 EXP SWAP1 DIV PUSH20 0xFFFFFFFFFFFFFFFFFFFFFFFFFFFFFFFFFFFFFFFF AND PUSH20 0xFFFFFFFFFFFFFFFFFFFFFFFFFFFFFFFFFFFFFFFF AND PUSH4 0x91D14854 PUSH32 0xDF8B4C520FFE197C5343C6F5AEC59570151EF9A492F2C624FD45DDDE6135EC42 CALLER PUSH1 0x40 MLOAD DUP4 PUSH4 0xFFFFFFFF AND PUSH1 0xE0 SHL DUP2 MSTORE PUSH1 0x4 ADD PUSH2 0x121E SWAP3 SWAP2 SWAP1 PUSH2 0x2905 JUMP JUMPDEST PUSH1 0x20 PUSH1 0x40 MLOAD DUP1 DUP4 SUB DUP2 DUP7 DUP1 EXTCODESIZE ISZERO DUP1 ISZERO PUSH2 0x1236 JUMPI PUSH1 0x0 DUP1 REVERT JUMPDEST POP GAS STATICCALL ISZERO DUP1 ISZERO PUSH2 0x124A JUMPI RETURNDATASIZE PUSH1 0x0 DUP1 RETURNDATACOPY RETURNDATASIZE PUSH1 0x0 REVERT JUMPDEST POP POP POP POP PUSH1 0x40 MLOAD RETURNDATASIZE PUSH1 0x1F NOT PUSH1 0x1F DUP3 ADD AND DUP3 ADD DUP1 PUSH1 0x40 MSTORE POP DUP2 ADD SWAP1 PUSH2 0x126E SWAP2 SWAP1 PUSH2 0x2453 JUMP JUMPDEST PUSH2 0x12AD JUMPI PUSH1 0x40 MLOAD PUSH32 0x8C379A000000000000000000000000000000000000000000000000000000000 DUP2 MSTORE PUSH1 0x4 ADD PUSH2 0x12A4 SWAP1 PUSH2 0x2A01 JUMP JUMPDEST PUSH1 0x40 MLOAD DUP1 SWAP2 SUB SWAP1 REVERT JUMPDEST PUSH1 0x0 PUSH1 0x1 PUSH1 0x0 SWAP1 SLOAD SWAP1 PUSH2 0x100 EXP SWAP1 DIV PUSH20 0xFFFFFFFFFFFFFFFFFFFFFFFFFFFFFFFFFFFFFFFF AND PUSH20 0xFFFFFFFFFFFFFFFFFFFFFFFFFFFFFFFFFFFFFFFF AND PUSH4 0xE162FA77 ADDRESS PUSH1 0x2 PUSH1 0x0 SWAP1 SLOAD SWAP1 PUSH2 0x100 EXP SWAP1 DIV PUSH20 0xFFFFFFFFFFFFFFFFFFFFFFFFFFFFFFFFFFFFFFFF AND PUSH1 0x3 PUSH1 0x0 SWAP1 SLOAD SWAP1 PUSH2 0x100 EXP SWAP1 DIV PUSH20 0xFFFFFFFFFFFFFFFFFFFFFFFFFFFFFFFFFFFFFFFF AND PUSH1 0x40 MLOAD DUP5 PUSH4 0xFFFFFFFF AND PUSH1 0xE0 SHL DUP2 MSTORE PUSH1 0x4 ADD PUSH2 0x1352 SWAP4 SWAP3 SWAP2 SWAP1 PUSH2 0x288A JUMP JUMPDEST PUSH1 0x20 PUSH1 0x40 MLOAD DUP1 DUP4 SUB DUP2 PUSH1 0x0 DUP8 DUP1 EXTCODESIZE ISZERO DUP1 ISZERO PUSH2 0x136C JUMPI PUSH1 0x0 DUP1 REVERT JUMPDEST POP GAS CALL ISZERO DUP1 ISZERO PUSH2 0x1380 JUMPI RETURNDATASIZE PUSH1 0x0 DUP1 RETURNDATACOPY RETURNDATASIZE PUSH1 0x0 REVERT JUMPDEST POP POP POP POP PUSH1 0x40 MLOAD RETURNDATASIZE PUSH1 0x1F NOT PUSH1 0x1F DUP3 ADD AND DUP3 ADD DUP1 PUSH1 0x40 MSTORE POP DUP2 ADD SWAP1 PUSH2 0x13A4 SWAP2 SWAP1 PUSH2 0x23CA JUMP JUMPDEST SWAP1 POP PUSH1 0x4 PUSH1 0x40 MLOAD DUP1 PUSH1 0x40 ADD PUSH1 0x40 MSTORE DUP1 DUP4 PUSH20 0xFFFFFFFFFFFFFFFFFFFFFFFFFFFFFFFFFFFFFFFF AND DUP2 MSTORE PUSH1 0x20 ADD PUSH1 0x0 PUSH1 0x3 DUP2 GT ISZERO PUSH2 0x13E3 JUMPI PUSH2 0x13E2 PUSH2 0x2D97 JUMP JUMPDEST JUMPDEST DUP2 MSTORE POP SWAP1 DUP1 PUSH1 0x1 DUP2 SLOAD ADD DUP1 DUP3 SSTORE DUP1 SWAP2 POP POP PUSH1 0x1 SWAP1 SUB SWAP1 PUSH1 0x0 MSTORE PUSH1 0x20 PUSH1 0x0 KECCAK256 ADD PUSH1 0x0 SWAP1 SWAP2 SWAP1 SWAP2 SWAP1 SWAP2 POP PUSH1 0x0 DUP3 ADD MLOAD DUP2 PUSH1 0x0 ADD PUSH1 0x0 PUSH2 0x100 EXP DUP2 SLOAD DUP2 PUSH20 0xFFFFFFFFFFFFFFFFFFFFFFFFFFFFFFFFFFFFFFFF MUL NOT AND SWAP1 DUP4 PUSH20 0xFFFFFFFFFFFFFFFFFFFFFFFFFFFFFFFFFFFFFFFF AND MUL OR SWAP1 SSTORE POP PUSH1 0x20 DUP3 ADD MLOAD DUP2 PUSH1 0x0 ADD PUSH1 0x14 PUSH2 0x100 EXP DUP2 SLOAD DUP2 PUSH1 0xFF MUL NOT AND SWAP1 DUP4 PUSH1 0x3 DUP2 GT ISZERO PUSH2 0x147D JUMPI PUSH2 0x147C PUSH2 0x2D97 JUMP JUMPDEST JUMPDEST MUL OR SWAP1 SSTORE POP POP POP PUSH1 0x1 PUSH1 0x5 PUSH1 0x0 DUP4 PUSH20 0xFFFFFFFFFFFFFFFFFFFFFFFFFFFFFFFFFFFFFFFF AND PUSH20 0xFFFFFFFFFFFFFFFFFFFFFFFFFFFFFFFFFFFFFFFF AND DUP2 MSTORE PUSH1 0x20 ADD SWAP1 DUP2 MSTORE PUSH1 0x20 ADD PUSH1 0x0 KECCAK256 PUSH1 0x0 PUSH2 0x100 EXP DUP2 SLOAD DUP2 PUSH1 0xFF MUL NOT AND SWAP1 DUP4 ISZERO ISZERO MUL OR SWAP1 SSTORE POP PUSH1 0x0 PUSH2 0x14E8 PUSH1 0x6 PUSH2 0x2020 JUMP JUMPDEST SWAP1 POP PUSH2 0x14F4 PUSH1 0x6 PUSH2 0x202E JUMP JUMPDEST DUP2 PUSH20 0xFFFFFFFFFFFFFFFFFFFFFFFFFFFFFFFFFFFFFFFF AND PUSH4 0xEE0433D0 DUP3 DUP13 DUP13 DUP13 DUP13 DUP13 DUP13 DUP13 DUP13 PUSH1 0x40 MLOAD DUP11 PUSH4 0xFFFFFFFF AND PUSH1 0xE0 SHL DUP2 MSTORE PUSH1 0x4 ADD PUSH2 0x153D SWAP10 SWAP9 SWAP8 SWAP7 SWAP6 SWAP5 SWAP4 SWAP3 SWAP2 SWAP1 PUSH2 0x2AC1 JUMP JUMPDEST PUSH1 0x0 PUSH1 0x40 MLOAD DUP1 DUP4 SUB DUP2 PUSH1 0x0 DUP8 DUP1 EXTCODESIZE ISZERO DUP1 ISZERO PUSH2 0x1557 JUMPI PUSH1 0x0 DUP1 REVERT JUMPDEST POP GAS CALL ISZERO DUP1 ISZERO PUSH2 0x156B JUMPI RETURNDATASIZE PUSH1 0x0 DUP1 RETURNDATACOPY RETURNDATASIZE PUSH1 0x0 REVERT JUMPDEST POP POP POP POP DUP2 PUSH20 0xFFFFFFFFFFFFFFFFFFFFFFFFFFFFFFFFFFFFFFFF AND PUSH4 0xBE9A6555 PUSH1 0x40 MLOAD DUP2 PUSH4 0xFFFFFFFF AND PUSH1 0xE0 SHL DUP2 MSTORE PUSH1 0x4 ADD PUSH1 0x0 PUSH1 0x40 MLOAD DUP1 DUP4 SUB DUP2 PUSH1 0x0 DUP8 DUP1 EXTCODESIZE ISZERO DUP1 ISZERO PUSH2 0x15B7 JUMPI PUSH1 0x0 DUP1 REVERT JUMPDEST POP GAS CALL ISZERO DUP1 ISZERO PUSH2 0x15CB JUMPI RETURNDATASIZE PUSH1 0x0 DUP1 RETURNDATACOPY RETURNDATASIZE PUSH1 0x0 REVERT JUMPDEST POP POP POP POP PUSH1 0x3 PUSH1 0x0 SWAP1 SLOAD SWAP1 PUSH2 0x100 EXP SWAP1 DIV PUSH20 0xFFFFFFFFFFFFFFFFFFFFFFFFFFFFFFFFFFFFFFFF AND PUSH20 0xFFFFFFFFFFFFFFFFFFFFFFFFFFFFFFFFFFFFFFFF AND PUSH4 0x5380898 DUP4 PUSH1 0x40 MLOAD DUP3 PUSH4 0xFFFFFFFF AND PUSH1 0xE0 SHL DUP2 MSTORE PUSH1 0x4 ADD PUSH2 0x162A SWAP2 SWAP1 PUSH2 0x2846 JUMP JUMPDEST PUSH1 0x0 PUSH1 0x40 MLOAD DUP1 DUP4 SUB DUP2 PUSH1 0x0 DUP8 DUP1 EXTCODESIZE ISZERO DUP1 ISZERO PUSH2 0x1644 JUMPI PUSH1 0x0 DUP1 REVERT JUMPDEST POP GAS CALL ISZERO DUP1 ISZERO PUSH2 0x1658 JUMPI RETURNDATASIZE PUSH1 0x0 DUP1 RETURNDATACOPY RETURNDATASIZE PUSH1 0x0 REVERT JUMPDEST POP POP POP POP POP POP POP POP POP POP POP POP POP POP JUMP JUMPDEST PUSH1 0x5 PUSH1 0x20 MSTORE DUP1 PUSH1 0x0 MSTORE PUSH1 0x40 PUSH1 0x0 KECCAK256 PUSH1 0x0 SWAP2 POP SLOAD SWAP1 PUSH2 0x100 EXP SWAP1 DIV PUSH1 0xFF AND DUP2 JUMP JUMPDEST PUSH1 0x1 PUSH1 0x0 SWAP1 SLOAD SWAP1 PUSH2 0x100 EXP SWAP1 DIV PUSH20 0xFFFFFFFFFFFFFFFFFFFFFFFFFFFFFFFFFFFFFFFF AND DUP2 JUMP JUMPDEST PUSH1 0x2 PUSH1 0x0 SWAP1 SLOAD SWAP1 PUSH2 0x100 EXP SWAP1 DIV PUSH20 0xFFFFFFFFFFFFFFFFFFFFFFFFFFFFFFFFFFFFFFFF AND PUSH20 0xFFFFFFFFFFFFFFFFFFFFFFFFFFFFFFFFFFFFFFFF AND PUSH4 0x91D14854 PUSH32 0xDF8B4C520FFE197C5343C6F5AEC59570151EF9A492F2C624FD45DDDE6135EC42 CALLER PUSH1 0x40 MLOAD DUP4 PUSH4 0xFFFFFFFF AND PUSH1 0xE0 SHL DUP2 MSTORE PUSH1 0x4 ADD PUSH2 0x172B SWAP3 SWAP2 SWAP1 PUSH2 0x2905 JUMP JUMPDEST PUSH1 0x20 PUSH1 0x40 MLOAD DUP1 DUP4 SUB DUP2 DUP7 DUP1 EXTCODESIZE ISZERO DUP1 ISZERO PUSH2 0x1743 JUMPI PUSH1 0x0 DUP1 REVERT JUMPDEST POP GAS STATICCALL ISZERO DUP1 ISZERO PUSH2 0x1757 JUMPI RETURNDATASIZE PUSH1 0x0 DUP1 RETURNDATACOPY RETURNDATASIZE PUSH1 0x0 REVERT JUMPDEST POP POP POP POP PUSH1 0x40 MLOAD RETURNDATASIZE PUSH1 0x1F NOT PUSH1 0x1F DUP3 ADD AND DUP3 ADD DUP1 PUSH1 0x40 MSTORE POP DUP2 ADD SWAP1 PUSH2 0x177B SWAP2 SWAP1 PUSH2 0x2453 JUMP JUMPDEST PUSH2 0x17BA JUMPI PUSH1 0x40 MLOAD PUSH32 0x8C379A000000000000000000000000000000000000000000000000000000000 DUP2 MSTORE PUSH1 0x4 ADD PUSH2 0x17B1 SWAP1 PUSH2 0x2A01 JUMP JUMPDEST PUSH1 0x40 MLOAD DUP1 SWAP2 SUB SWAP1 REVERT JUMPDEST PUSH1 0x0 PUSH1 0x1 PUSH1 0x0 SWAP1 SLOAD SWAP1 PUSH2 0x100 EXP SWAP1 DIV PUSH20 0xFFFFFFFFFFFFFFFFFFFFFFFFFFFFFFFFFFFFFFFF AND PUSH20 0xFFFFFFFFFFFFFFFFFFFFFFFFFFFFFFFFFFFFFFFF AND PUSH4 0x29C6785 ADDRESS PUSH1 0x2 PUSH1 0x0 SWAP1 SLOAD SWAP1 PUSH2 0x100 EXP SWAP1 DIV PUSH20 0xFFFFFFFFFFFFFFFFFFFFFFFFFFFFFFFFFFFFFFFF AND PUSH1 0x3 PUSH1 0x0 SWAP1 SLOAD SWAP1 PUSH2 0x100 EXP SWAP1 DIV PUSH20 0xFFFFFFFFFFFFFFFFFFFFFFFFFFFFFFFFFFFFFFFF AND PUSH1 0x40 MLOAD DUP5 PUSH4 0xFFFFFFFF AND PUSH1 0xE0 SHL DUP2 MSTORE PUSH1 0x4 ADD PUSH2 0x185F SWAP4 SWAP3 SWAP2 SWAP1 PUSH2 0x288A JUMP JUMPDEST PUSH1 0x20 PUSH1 0x40 MLOAD DUP1 DUP4 SUB DUP2 PUSH1 0x0 DUP8 DUP1 EXTCODESIZE ISZERO DUP1 ISZERO PUSH2 0x1879 JUMPI PUSH1 0x0 DUP1 REVERT JUMPDEST POP GAS CALL ISZERO DUP1 ISZERO PUSH2 0x188D JUMPI RETURNDATASIZE PUSH1 0x0 DUP1 RETURNDATACOPY RETURNDATASIZE PUSH1 0x0 REVERT JUMPDEST POP POP POP POP PUSH1 0x40 MLOAD RETURNDATASIZE PUSH1 0x1F NOT PUSH1 0x1F DUP3 ADD AND DUP3 ADD DUP1 PUSH1 0x40 MSTORE POP DUP2 ADD SWAP1 PUSH2 0x18B1 SWAP2 SWAP1 PUSH2 0x23CA JUMP JUMPDEST SWAP1 POP PUSH1 0x4 PUSH1 0x40 MLOAD DUP1 PUSH1 0x40 ADD PUSH1 0x40 MSTORE DUP1 DUP4 PUSH20 0xFFFFFFFFFFFFFFFFFFFFFFFFFFFFFFFFFFFFFFFF AND DUP2 MSTORE PUSH1 0x20 ADD PUSH1 0x3 DUP1 DUP2 GT ISZERO PUSH2 0x18EF JUMPI PUSH2 0x18EE PUSH2 0x2D97 JUMP JUMPDEST JUMPDEST DUP2 MSTORE POP SWAP1 DUP1 PUSH1 0x1 DUP2 SLOAD ADD DUP1 DUP3 SSTORE DUP1 SWAP2 POP POP PUSH1 0x1 SWAP1 SUB SWAP1 PUSH1 0x0 MSTORE PUSH1 0x20 PUSH1 0x0 KECCAK256 ADD PUSH1 0x0 SWAP1 SWAP2 SWAP1 SWAP2 SWAP1 SWAP2 POP PUSH1 0x0 DUP3 ADD MLOAD DUP2 PUSH1 0x0 ADD PUSH1 0x0 PUSH2 0x100 EXP DUP2 SLOAD DUP2 PUSH20 0xFFFFFFFFFFFFFFFFFFFFFFFFFFFFFFFFFFFFFFFF MUL NOT AND SWAP1 DUP4 PUSH20 0xFFFFFFFFFFFFFFFFFFFFFFFFFFFFFFFFFFFFFFFF AND MUL OR SWAP1 SSTORE POP PUSH1 0x20 DUP3 ADD MLOAD DUP2 PUSH1 0x0 ADD PUSH1 0x14 PUSH2 0x100 EXP DUP2 SLOAD DUP2 PUSH1 0xFF MUL NOT AND SWAP1 DUP4 PUSH1 0x3 DUP2 GT ISZERO PUSH2 0x1989 JUMPI PUSH2 0x1988 PUSH2 0x2D97 JUMP JUMPDEST JUMPDEST MUL OR SWAP1 SSTORE POP POP POP PUSH1 0x1 PUSH1 0x5 PUSH1 0x0 DUP4 PUSH20 0xFFFFFFFFFFFFFFFFFFFFFFFFFFFFFFFFFFFFFFFF AND PUSH20 0xFFFFFFFFFFFFFFFFFFFFFFFFFFFFFFFFFFFFFFFF AND DUP2 MSTORE PUSH1 0x20 ADD SWAP1 DUP2 MSTORE PUSH1 0x20 ADD PUSH1 0x0 KECCAK256 PUSH1 0x0 PUSH2 0x100 EXP DUP2 SLOAD DUP2 PUSH1 0xFF MUL NOT AND SWAP1 DUP4 ISZERO ISZERO MUL OR SWAP1 SSTORE POP PUSH1 0x0 PUSH2 0x19F4 PUSH1 0x9 PUSH2 0x2020 JUMP JUMPDEST SWAP1 POP PUSH2 0x1A00 PUSH1 0x9 PUSH2 0x202E JUMP JUMPDEST DUP2 PUSH20 0xFFFFFFFFFFFFFFFFFFFFFFFFFFFFFFFFFFFFFFFF AND PUSH4 0x8003D6B DUP3 DUP9 DUP9 DUP9 DUP9 PUSH1 0x40 MLOAD DUP7 PUSH4 0xFFFFFFFF AND PUSH1 0xE0 SHL DUP2 MSTORE PUSH1 0x4 ADD PUSH2 0x1A41 SWAP6 SWAP5 SWAP4 SWAP3 SWAP2 SWAP1 PUSH2 0x2B55 JUMP JUMPDEST PUSH1 0x0 PUSH1 0x40 MLOAD DUP1 DUP4 SUB DUP2 PUSH1 0x0 DUP8 DUP1 EXTCODESIZE ISZERO DUP1 ISZERO PUSH2 0x1A5B JUMPI PUSH1 0x0 DUP1 REVERT JUMPDEST POP GAS CALL ISZERO DUP1 ISZERO PUSH2 0x1A6F JUMPI RETURNDATASIZE PUSH1 0x0 DUP1 RETURNDATACOPY RETURNDATASIZE PUSH1 0x0 REVERT JUMPDEST POP POP POP POP DUP2 PUSH20 0xFFFFFFFFFFFFFFFFFFFFFFFFFFFFFFFFFFFFFFFF AND PUSH4 0xBE9A6555 PUSH1 0x40 MLOAD DUP2 PUSH4 0xFFFFFFFF AND PUSH1 0xE0 SHL DUP2 MSTORE PUSH1 0x4 ADD PUSH1 0x0 PUSH1 0x40 MLOAD DUP1 DUP4 SUB DUP2 PUSH1 0x0 DUP8 DUP1 EXTCODESIZE ISZERO DUP1 ISZERO PUSH2 0x1ABB JUMPI PUSH1 0x0 DUP1 REVERT JUMPDEST POP GAS CALL ISZERO DUP1 ISZERO PUSH2 0x1ACF JUMPI RETURNDATASIZE PUSH1 0x0 DUP1 RETURNDATACOPY RETURNDATASIZE PUSH1 0x0 REVERT JUMPDEST POP POP POP POP PUSH1 0x3 PUSH1 0x0 SWAP1 SLOAD SWAP1 PUSH2 0x100 EXP SWAP1 DIV PUSH20 0xFFFFFFFFFFFFFFFFFFFFFFFFFFFFFFFFFFFFFFFF AND PUSH20 0xFFFFFFFFFFFFFFFFFFFFFFFFFFFFFFFFFFFFFFFF AND PUSH4 0x5380898 DUP4 PUSH1 0x40 MLOAD DUP3 PUSH4 0xFFFFFFFF AND PUSH1 0xE0 SHL DUP2 MSTORE PUSH1 0x4 ADD PUSH2 0x1B2E SWAP2 SWAP1 PUSH2 0x2846 JUMP JUMPDEST PUSH1 0x0 PUSH1 0x40 MLOAD DUP1 DUP4 SUB DUP2 PUSH1 0x0 DUP8 DUP1 EXTCODESIZE ISZERO DUP1 ISZERO PUSH2 0x1B48 JUMPI PUSH1 0x0 DUP1 REVERT JUMPDEST POP GAS CALL ISZERO DUP1 ISZERO PUSH2 0x1B5C JUMPI RETURNDATASIZE PUSH1 0x0 DUP1 RETURNDATACOPY RETURNDATASIZE PUSH1 0x0 REVERT JUMPDEST POP POP POP POP POP POP POP POP POP POP JUMP JUMPDEST PUSH1 0x2 PUSH1 0x0 SWAP1 SLOAD SWAP1 PUSH2 0x100 EXP SWAP1 DIV PUSH20 0xFFFFFFFFFFFFFFFFFFFFFFFFFFFFFFFFFFFFFFFF AND PUSH20 0xFFFFFFFFFFFFFFFFFFFFFFFFFFFFFFFFFFFFFFFF AND PUSH4 0x91D14854 PUSH32 0xDF8B4C520FFE197C5343C6F5AEC59570151EF9A492F2C624FD45DDDE6135EC42 CALLER PUSH1 0x40 MLOAD DUP4 PUSH4 0xFFFFFFFF AND PUSH1 0xE0 SHL DUP2 MSTORE PUSH1 0x4 ADD PUSH2 0x1BE5 SWAP3 SWAP2 SWAP1 PUSH2 0x2905 JUMP JUMPDEST PUSH1 0x20 PUSH1 0x40 MLOAD DUP1 DUP4 SUB DUP2 DUP7 DUP1 EXTCODESIZE ISZERO DUP1 ISZERO PUSH2 0x1BFD JUMPI PUSH1 0x0 DUP1 REVERT JUMPDEST POP GAS STATICCALL ISZERO DUP1 ISZERO PUSH2 0x1C11 JUMPI RETURNDATASIZE PUSH1 0x0 DUP1 RETURNDATACOPY RETURNDATASIZE PUSH1 0x0 REVERT JUMPDEST POP POP POP POP PUSH1 0x40 MLOAD RETURNDATASIZE PUSH1 0x1F NOT PUSH1 0x1F DUP3 ADD AND DUP3 ADD DUP1 PUSH1 0x40 MSTORE POP DUP2 ADD SWAP1 PUSH2 0x1C35 SWAP2 SWAP1 PUSH2 0x2453 JUMP JUMPDEST PUSH2 0x1C74 JUMPI PUSH1 0x40 MLOAD PUSH32 0x8C379A000000000000000000000000000000000000000000000000000000000 DUP2 MSTORE PUSH1 0x4 ADD PUSH2 0x1C6B SWAP1 PUSH2 0x2A01 JUMP JUMPDEST PUSH1 0x40 MLOAD DUP1 SWAP2 SUB SWAP1 REVERT JUMPDEST DUP1 PUSH20 0xFFFFFFFFFFFFFFFFFFFFFFFFFFFFFFFFFFFFFFFF AND PUSH4 0x43D726D6 PUSH1 0x40 MLOAD DUP2 PUSH4 0xFFFFFFFF AND PUSH1 0xE0 SHL DUP2 MSTORE PUSH1 0x4 ADD PUSH1 0x0 PUSH1 0x40 MLOAD DUP1 DUP4 SUB DUP2 PUSH1 0x0 DUP8 DUP1 EXTCODESIZE ISZERO DUP1 ISZERO PUSH2 0x1CBC JUMPI PUSH1 0x0 DUP1 REVERT JUMPDEST POP GAS CALL ISZERO DUP1 ISZERO PUSH2 0x1CD0 JUMPI RETURNDATASIZE PUSH1 0x0 DUP1 RETURNDATACOPY RETURNDATASIZE PUSH1 0x0 REVERT JUMPDEST POP POP POP POP PUSH2 0x1CDD DUP2 PUSH2 0x2044 JUMP JUMPDEST POP JUMP JUMPDEST PUSH1 0x2 PUSH1 0x0 SWAP1 SLOAD SWAP1 PUSH2 0x100 EXP SWAP1 DIV PUSH20 0xFFFFFFFFFFFFFFFFFFFFFFFFFFFFFFFFFFFFFFFF AND PUSH20 0xFFFFFFFFFFFFFFFFFFFFFFFFFFFFFFFFFFFFFFFF AND PUSH4 0x91D14854 PUSH32 0xDF8B4C520FFE197C5343C6F5AEC59570151EF9A492F2C624FD45DDDE6135EC42 CALLER PUSH1 0x40 MLOAD DUP4 PUSH4 0xFFFFFFFF AND PUSH1 0xE0 SHL DUP2 MSTORE PUSH1 0x4 ADD PUSH2 0x1D5D SWAP3 SWAP2 SWAP1 PUSH2 0x2905 JUMP JUMPDEST PUSH1 0x20 PUSH1 0x40 MLOAD DUP1 DUP4 SUB DUP2 DUP7 DUP1 EXTCODESIZE ISZERO DUP1 ISZERO PUSH2 0x1D75 JUMPI PUSH1 0x0 DUP1 REVERT JUMPDEST POP GAS STATICCALL ISZERO DUP1 ISZERO PUSH2 0x1D89 JUMPI RETURNDATASIZE PUSH1 0x0 DUP1 RETURNDATACOPY RETURNDATASIZE PUSH1 0x0 REVERT JUMPDEST POP POP POP POP PUSH1 0x40 MLOAD RETURNDATASIZE PUSH1 0x1F NOT PUSH1 0x1F DUP3 ADD AND DUP3 ADD DUP1 PUSH1 0x40 MSTORE POP DUP2 ADD SWAP1 PUSH2 0x1DAD SWAP2 SWAP1 PUSH2 0x2453 JUMP JUMPDEST PUSH2 0x1DEC JUMPI PUSH1 0x40 MLOAD PUSH32 0x8C379A000000000000000000000000000000000000000000000000000000000 DUP2 MSTORE PUSH1 0x4 ADD PUSH2 0x1DE3 SWAP1 PUSH2 0x2A01 JUMP JUMPDEST PUSH1 0x40 MLOAD DUP1 SWAP2 SUB SWAP1 REVERT JUMPDEST DUP1 PUSH1 0xB PUSH1 0x0 DUP5 PUSH20 0xFFFFFFFFFFFFFFFFFFFFFFFFFFFFFFFFFFFFFFFF AND PUSH20 0xFFFFFFFFFFFFFFFFFFFFFFFFFFFFFFFFFFFFFFFF AND DUP2 MSTORE PUSH1 0x20 ADD SWAP1 DUP2 MSTORE PUSH1 0x20 ADD PUSH1 0x0 KECCAK256 SWAP1 DUP1 MLOAD SWAP1 PUSH1 0x20 ADD SWAP1 PUSH2 0x1E3F SWAP3 SWAP2 SWAP1 PUSH2 0x2236 JUMP JUMPDEST POP POP POP JUMP JUMPDEST PUSH1 0x7 DUP1 PUSH1 0x0 ADD SLOAD SWAP1 POP DUP2 JUMP JUMPDEST PUSH1 0x9 DUP1 PUSH1 0x0 ADD SLOAD SWAP1 POP DUP2 JUMP JUMPDEST PUSH2 0x1E64 PUSH2 0x1F54 JUMP JUMPDEST PUSH20 0xFFFFFFFFFFFFFFFFFFFFFFFFFFFFFFFFFFFFFFFF AND PUSH2 0x1E82 PUSH2 0xCBC JUMP JUMPDEST PUSH20 0xFFFFFFFFFFFFFFFFFFFFFFFFFFFFFFFFFFFFFFFF AND EQ PUSH2 0x1ED8 JUMPI PUSH1 0x40 MLOAD PUSH32 0x8C379A000000000000000000000000000000000000000000000000000000000 DUP2 MSTORE PUSH1 0x4 ADD PUSH2 0x1ECF SWAP1 PUSH2 0x29E1 JUMP JUMPDEST PUSH1 0x40 MLOAD DUP1 SWAP2 SUB SWAP1 REVERT JUMPDEST PUSH1 0x0 PUSH20 0xFFFFFFFFFFFFFFFFFFFFFFFFFFFFFFFFFFFFFFFF AND DUP2 PUSH20 0xFFFFFFFFFFFFFFFFFFFFFFFFFFFFFFFFFFFFFFFF AND EQ ISZERO PUSH2 0x1F48 JUMPI PUSH1 0x40 MLOAD PUSH32 0x8C379A000000000000000000000000000000000000000000000000000000000 DUP2 MSTORE PUSH1 0x4 ADD PUSH2 0x1F3F SWAP1 PUSH2 0x29A1 JUMP JUMPDEST PUSH1 0x40 MLOAD DUP1 SWAP2 SUB SWAP1 REVERT JUMPDEST PUSH2 0x1F51 DUP2 PUSH2 0x1F5C JUMP JUMPDEST POP JUMP JUMPDEST PUSH1 0x0 CALLER SWAP1 POP SWAP1 JUMP JUMPDEST PUSH1 0x0 DUP1 PUSH1 0x0 SWAP1 SLOAD SWAP1 PUSH2 0x100 EXP SWAP1 DIV PUSH20 0xFFFFFFFFFFFFFFFFFFFFFFFFFFFFFFFFFFFFFFFF AND SWAP1 POP DUP2 PUSH1 0x0 DUP1 PUSH2 0x100 EXP DUP2 SLOAD DUP2 PUSH20 0xFFFFFFFFFFFFFFFFFFFFFFFFFFFFFFFFFFFFFFFF MUL NOT AND SWAP1 DUP4 PUSH20 0xFFFFFFFFFFFFFFFFFFFFFFFFFFFFFFFFFFFFFFFF AND MUL OR SWAP1 SSTORE POP DUP2 PUSH20 0xFFFFFFFFFFFFFFFFFFFFFFFFFFFFFFFFFFFFFFFF AND DUP2 PUSH20 0xFFFFFFFFFFFFFFFFFFFFFFFFFFFFFFFFFFFFFFFF AND PUSH32 0x8BE0079C531659141344CD1FD0A4F28419497F9722A3DAAFE3B4186F6B6457E0 PUSH1 0x40 MLOAD PUSH1 0x40 MLOAD DUP1 SWAP2 SUB SWAP1 LOG3 POP POP JUMP JUMPDEST PUSH1 0x0 DUP2 PUSH1 0x0 ADD SLOAD SWAP1 POP SWAP2 SWAP1 POP JUMP JUMPDEST PUSH1 0x1 DUP2 PUSH1 0x0 ADD PUSH1 0x0 DUP3 DUP3 SLOAD ADD SWAP3 POP POP DUP2 SWAP1 SSTORE POP POP JUMP JUMPDEST PUSH1 0x2 PUSH1 0x0 SWAP1 SLOAD SWAP1 PUSH2 0x100 EXP SWAP1 DIV PUSH20 0xFFFFFFFFFFFFFFFFFFFFFFFFFFFFFFFFFFFFFFFF AND PUSH20 0xFFFFFFFFFFFFFFFFFFFFFFFFFFFFFFFFFFFFFFFF AND PUSH4 0x91D14854 PUSH32 0xDF8B4C520FFE197C5343C6F5AEC59570151EF9A492F2C624FD45DDDE6135EC42 CALLER PUSH1 0x40 MLOAD DUP4 PUSH4 0xFFFFFFFF AND PUSH1 0xE0 SHL DUP2 MSTORE PUSH1 0x4 ADD PUSH2 0x20C1 SWAP3 SWAP2 SWAP1 PUSH2 0x2905 JUMP JUMPDEST PUSH1 0x20 PUSH1 0x40 MLOAD DUP1 DUP4 SUB DUP2 DUP7 DUP1 EXTCODESIZE ISZERO DUP1 ISZERO PUSH2 0x20D9 JUMPI PUSH1 0x0 DUP1 REVERT JUMPDEST POP GAS STATICCALL ISZERO DUP1 ISZERO PUSH2 0x20ED JUMPI RETURNDATASIZE PUSH1 0x0 DUP1 RETURNDATACOPY RETURNDATASIZE PUSH1 0x0 REVERT JUMPDEST POP POP POP POP PUSH1 0x40 MLOAD RETURNDATASIZE PUSH1 0x1F NOT PUSH1 0x1F DUP3 ADD AND DUP3 ADD DUP1 PUSH1 0x40 MSTORE POP DUP2 ADD SWAP1 PUSH2 0x2111 SWAP2 SWAP1 PUSH2 0x2453 JUMP JUMPDEST PUSH2 0x2150 JUMPI PUSH1 0x40 MLOAD PUSH32 0x8C379A000000000000000000000000000000000000000000000000000000000 DUP2 MSTORE PUSH1 0x4 ADD PUSH2 0x2147 SWAP1 PUSH2 0x2A01 JUMP JUMPDEST PUSH1 0x40 MLOAD DUP1 SWAP2 SUB SWAP1 REVERT JUMPDEST PUSH1 0x5 PUSH1 0x0 DUP3 PUSH20 0xFFFFFFFFFFFFFFFFFFFFFFFFFFFFFFFFFFFFFFFF AND PUSH20 0xFFFFFFFFFFFFFFFFFFFFFFFFFFFFFFFFFFFFFFFF AND DUP2 MSTORE PUSH1 0x20 ADD SWAP1 DUP2 MSTORE PUSH1 0x20 ADD PUSH1 0x0 KECCAK256 PUSH1 0x0 SWAP1 SLOAD SWAP1 PUSH2 0x100 EXP SWAP1 DIV PUSH1 0xFF AND PUSH2 0x21A6 JUMPI PUSH1 0x0 DUP1 REVERT JUMPDEST PUSH1 0x3 PUSH1 0x0 SWAP1 SLOAD SWAP1 PUSH2 0x100 EXP SWAP1 DIV PUSH20 0xFFFFFFFFFFFFFFFFFFFFFFFFFFFFFFFFFFFFFFFF AND PUSH20 0xFFFFFFFFFFFFFFFFFFFFFFFFFFFFFFFFFFFFFFFF AND PUSH4 0x3CB7B3BB DUP3 PUSH1 0x40 MLOAD DUP3 PUSH4 0xFFFFFFFF AND PUSH1 0xE0 SHL DUP2 MSTORE PUSH1 0x4 ADD PUSH2 0x2201 SWAP2 SWAP1 PUSH2 0x2846 JUMP JUMPDEST PUSH1 0x0 PUSH1 0x40 MLOAD DUP1 DUP4 SUB DUP2 PUSH1 0x0 DUP8 DUP1 EXTCODESIZE ISZERO DUP1 ISZERO PUSH2 0x221B JUMPI PUSH1 0x0 DUP1 REVERT JUMPDEST POP GAS CALL ISZERO DUP1 ISZERO PUSH2 0x222F JUMPI RETURNDATASIZE PUSH1 0x0 DUP1 RETURNDATACOPY RETURNDATASIZE PUSH1 0x0 REVERT JUMPDEST POP POP POP POP POP JUMP JUMPDEST DUP3 DUP1 SLOAD PUSH2 0x2242 SWAP1 PUSH2 0x2D34 JUMP JUMPDEST SWAP1 PUSH1 0x0 MSTORE PUSH1 0x20 PUSH1 0x0 KECCAK256 SWAP1 PUSH1 0x1F ADD PUSH1 0x20 SWAP1 DIV DUP2 ADD SWAP3 DUP3 PUSH2 0x2264 JUMPI PUSH1 0x0 DUP6 SSTORE PUSH2 0x22AB JUMP JUMPDEST DUP3 PUSH1 0x1F LT PUSH2 0x227D JUMPI DUP1 MLOAD PUSH1 0xFF NOT AND DUP4 DUP1 ADD OR DUP6 SSTORE PUSH2 0x22AB JUMP JUMPDEST DUP3 DUP1 ADD PUSH1 0x1 ADD DUP6 SSTORE DUP3 ISZERO PUSH2 0x22AB JUMPI SWAP2 DUP3 ADD JUMPDEST DUP3 DUP2 GT ISZERO PUSH2 0x22AA JUMPI DUP3 MLOAD DUP3 SSTORE SWAP2 PUSH1 0x20 ADD SWAP2 SWAP1 PUSH1 0x1 ADD SWAP1 PUSH2 0x228F JUMP JUMPDEST JUMPDEST POP SWAP1 POP PUSH2 0x22B8 SWAP2 SWAP1 PUSH2 0x22BC JUMP JUMPDEST POP SWAP1 JUMP JUMPDEST JUMPDEST DUP1 DUP3 GT ISZERO PUSH2 0x22D5 JUMPI PUSH1 0x0 DUP2 PUSH1 0x0 SWAP1 SSTORE POP PUSH1 0x1 ADD PUSH2 0x22BD JUMP JUMPDEST POP SWAP1 JUMP JUMPDEST PUSH1 0x0 PUSH2 0x22EC PUSH2 0x22E7 DUP5 PUSH2 0x2BD4 JUMP JUMPDEST PUSH2 0x2BAF JUMP JUMPDEST SWAP1 POP DUP3 DUP2 MSTORE PUSH1 0x20 DUP2 ADD DUP5 DUP5 DUP5 ADD GT ISZERO PUSH2 0x2308 JUMPI PUSH2 0x2307 PUSH2 0x2E29 JUMP JUMPDEST JUMPDEST PUSH2 0x2313 DUP5 DUP3 DUP6 PUSH2 0x2CF2 JUMP JUMPDEST POP SWAP4 SWAP3 POP POP POP JUMP JUMPDEST PUSH1 0x0 DUP2 CALLDATALOAD SWAP1 POP PUSH2 0x232A DUP2 PUSH2 0x2F27 JUMP JUMPDEST SWAP3 SWAP2 POP POP JUMP JUMPDEST PUSH1 0x0 DUP2 MLOAD SWAP1 POP PUSH2 0x233F DUP2 PUSH2 0x2F27 JUMP JUMPDEST SWAP3 SWAP2 POP POP JUMP JUMPDEST PUSH1 0x0 DUP2 MLOAD SWAP1 POP PUSH2 0x2354 DUP2 PUSH2 0x2F3E JUMP JUMPDEST SWAP3 SWAP2 POP POP JUMP JUMPDEST PUSH1 0x0 DUP3 PUSH1 0x1F DUP4 ADD SLT PUSH2 0x236F JUMPI PUSH2 0x236E PUSH2 0x2E24 JUMP JUMPDEST JUMPDEST DUP2 CALLDATALOAD PUSH2 0x237F DUP5 DUP3 PUSH1 0x20 DUP7 ADD PUSH2 0x22D9 JUMP JUMPDEST SWAP2 POP POP SWAP3 SWAP2 POP POP JUMP JUMPDEST PUSH1 0x0 DUP2 CALLDATALOAD SWAP1 POP PUSH2 0x2397 DUP2 PUSH2 0x2F55 JUMP JUMPDEST SWAP3 SWAP2 POP POP JUMP JUMPDEST PUSH1 0x0 PUSH1 0x20 DUP3 DUP5 SUB SLT ISZERO PUSH2 0x23B3 JUMPI PUSH2 0x23B2 PUSH2 0x2E33 JUMP JUMPDEST JUMPDEST PUSH1 0x0 PUSH2 0x23C1 DUP5 DUP3 DUP6 ADD PUSH2 0x231B JUMP JUMPDEST SWAP2 POP POP SWAP3 SWAP2 POP POP JUMP JUMPDEST PUSH1 0x0 PUSH1 0x20 DUP3 DUP5 SUB SLT ISZERO PUSH2 0x23E0 JUMPI PUSH2 0x23DF PUSH2 0x2E33 JUMP JUMPDEST JUMPDEST PUSH1 0x0 PUSH2 0x23EE DUP5 DUP3 DUP6 ADD PUSH2 0x2330 JUMP JUMPDEST SWAP2 POP POP SWAP3 SWAP2 POP POP JUMP JUMPDEST PUSH1 0x0 DUP1 PUSH1 0x40 DUP4 DUP6 SUB SLT ISZERO PUSH2 0x240E JUMPI PUSH2 0x240D PUSH2 0x2E33 JUMP JUMPDEST JUMPDEST PUSH1 0x0 PUSH2 0x241C DUP6 DUP3 DUP7 ADD PUSH2 0x231B JUMP JUMPDEST SWAP3 POP POP PUSH1 0x20 DUP4 ADD CALLDATALOAD PUSH8 0xFFFFFFFFFFFFFFFF DUP2 GT ISZERO PUSH2 0x243D JUMPI PUSH2 0x243C PUSH2 0x2E2E JUMP JUMPDEST JUMPDEST PUSH2 0x2449 DUP6 DUP3 DUP7 ADD PUSH2 0x235A JUMP JUMPDEST SWAP2 POP POP SWAP3 POP SWAP3 SWAP1 POP JUMP JUMPDEST PUSH1 0x0 PUSH1 0x20 DUP3 DUP5 SUB SLT ISZERO PUSH2 0x2469 JUMPI PUSH2 0x2468 PUSH2 0x2E33 JUMP JUMPDEST JUMPDEST PUSH1 0x0 PUSH2 0x2477 DUP5 DUP3 DUP6 ADD PUSH2 0x2345 JUMP JUMPDEST SWAP2 POP POP SWAP3 SWAP2 POP POP JUMP JUMPDEST PUSH1 0x0 PUSH1 0x20 DUP3 DUP5 SUB SLT ISZERO PUSH2 0x2496 JUMPI PUSH2 0x2495 PUSH2 0x2E33 JUMP JUMPDEST JUMPDEST PUSH1 0x0 DUP3 ADD CALLDATALOAD PUSH8 0xFFFFFFFFFFFFFFFF DUP2 GT ISZERO PUSH2 0x24B4 JUMPI PUSH2 0x24B3 PUSH2 0x2E2E JUMP JUMPDEST JUMPDEST PUSH2 0x24C0 DUP5 DUP3 DUP6 ADD PUSH2 0x235A JUMP JUMPDEST SWAP2 POP POP SWAP3 SWAP2 POP POP JUMP JUMPDEST PUSH1 0x0 DUP1 PUSH1 0x0 DUP1 PUSH1 0x0 DUP1 PUSH1 0x0 PUSH1 0xE0 DUP9 DUP11 SUB SLT ISZERO PUSH2 0x24E8 JUMPI PUSH2 0x24E7 PUSH2 0x2E33 JUMP JUMPDEST JUMPDEST PUSH1 0x0 DUP9 ADD CALLDATALOAD PUSH8 0xFFFFFFFFFFFFFFFF DUP2 GT ISZERO PUSH2 0x2506 JUMPI PUSH2 0x2505 PUSH2 0x2E2E JUMP JUMPDEST JUMPDEST PUSH2 0x2512 DUP11 DUP3 DUP12 ADD PUSH2 0x235A JUMP JUMPDEST SWAP8 POP POP PUSH1 0x20 PUSH2 0x2523 DUP11 DUP3 DUP12 ADD PUSH2 0x2388 JUMP JUMPDEST SWAP7 POP POP PUSH1 0x40 PUSH2 0x2534 DUP11 DUP3 DUP12 ADD PUSH2 0x231B JUMP JUMPDEST SWAP6 POP POP PUSH1 0x60 PUSH2 0x2545 DUP11 DUP3 DUP12 ADD PUSH2 0x2388 JUMP JUMPDEST SWAP5 POP POP PUSH1 0x80 PUSH2 0x2556 DUP11 DUP3 DUP12 ADD PUSH2 0x2388 JUMP JUMPDEST SWAP4 POP POP PUSH1 0xA0 PUSH2 0x2567 DUP11 DUP3 DUP12 ADD PUSH2 0x2388 JUMP JUMPDEST SWAP3 POP POP PUSH1 0xC0 PUSH2 0x2578 DUP11 DUP3 DUP12 ADD PUSH2 0x2388 JUMP JUMPDEST SWAP2 POP POP SWAP3 SWAP6 SWAP9 SWAP2 SWAP5 SWAP8 POP SWAP3 SWAP6 POP JUMP JUMPDEST PUSH1 0x0 DUP1 PUSH1 0x0 DUP1 PUSH1 0x0 DUP1 PUSH1 0x0 DUP1 PUSH2 0x100 DUP10 DUP12 SUB SLT ISZERO PUSH2 0x25A8 JUMPI PUSH2 0x25A7 PUSH2 0x2E33 JUMP JUMPDEST JUMPDEST PUSH1 0x0 DUP10 ADD CALLDATALOAD PUSH8 0xFFFFFFFFFFFFFFFF DUP2 GT ISZERO PUSH2 0x25C6 JUMPI PUSH2 0x25C5 PUSH2 0x2E2E JUMP JUMPDEST JUMPDEST PUSH2 0x25D2 DUP12 DUP3 DUP13 ADD PUSH2 0x235A JUMP JUMPDEST SWAP9 POP POP PUSH1 0x20 PUSH2 0x25E3 DUP12 DUP3 DUP13 ADD PUSH2 0x2388 JUMP JUMPDEST SWAP8 POP POP PUSH1 0x40 PUSH2 0x25F4 DUP12 DUP3 DUP13 ADD PUSH2 0x2388 JUMP JUMPDEST SWAP7 POP POP PUSH1 0x60 PUSH2 0x2605 DUP12 DUP3 DUP13 ADD PUSH2 0x231B JUMP JUMPDEST SWAP6 POP POP PUSH1 0x80 PUSH2 0x2616 DUP12 DUP3 DUP13 ADD PUSH2 0x2388 JUMP JUMPDEST SWAP5 POP POP PUSH1 0xA0 PUSH2 0x2627 DUP12 DUP3 DUP13 ADD PUSH2 0x2388 JUMP JUMPDEST SWAP4 POP POP PUSH1 0xC0 PUSH2 0x2638 DUP12 DUP3 DUP13 ADD PUSH2 0x2388 JUMP JUMPDEST SWAP3 POP POP PUSH1 0xE0 PUSH2 0x2649 DUP12 DUP3 DUP13 ADD PUSH2 0x2388 JUMP JUMPDEST SWAP2 POP POP SWAP3 SWAP6 SWAP9 POP SWAP3 SWAP6 SWAP9 SWAP1 SWAP4 SWAP7 POP JUMP JUMPDEST PUSH1 0x0 DUP1 PUSH1 0x0 DUP1 PUSH1 0x80 DUP6 DUP8 SUB SLT ISZERO PUSH2 0x2673 JUMPI PUSH2 0x2672 PUSH2 0x2E33 JUMP JUMPDEST JUMPDEST PUSH1 0x0 DUP6 ADD CALLDATALOAD PUSH8 0xFFFFFFFFFFFFFFFF DUP2 GT ISZERO PUSH2 0x2691 JUMPI PUSH2 0x2690 PUSH2 0x2E2E JUMP JUMPDEST JUMPDEST PUSH2 0x269D DUP8 DUP3 DUP9 ADD PUSH2 0x235A JUMP JUMPDEST SWAP5 POP POP PUSH1 0x20 PUSH2 0x26AE DUP8 DUP3 DUP9 ADD PUSH2 0x2388 JUMP JUMPDEST SWAP4 POP POP PUSH1 0x40 PUSH2 0x26BF DUP8 DUP3 DUP9 ADD PUSH2 0x2388 JUMP JUMPDEST SWAP3 POP POP PUSH1 0x60 PUSH2 0x26D0 DUP8 DUP3 DUP9 ADD PUSH2 0x2388 JUMP JUMPDEST SWAP2 POP POP SWAP3 SWAP6 SWAP2 SWAP5 POP SWAP3 POP JUMP JUMPDEST PUSH1 0x0 PUSH1 0x20 DUP3 DUP5 SUB SLT ISZERO PUSH2 0x26F2 JUMPI PUSH2 0x26F1 PUSH2 0x2E33 JUMP JUMPDEST JUMPDEST PUSH1 0x0 PUSH2 0x2700 DUP5 DUP3 DUP6 ADD PUSH2 0x2388 JUMP JUMPDEST SWAP2 POP POP SWAP3 SWAP2 POP POP JUMP JUMPDEST PUSH2 0x2712 DUP2 PUSH2 0x2C21 JUMP JUMPDEST DUP3 MSTORE POP POP JUMP JUMPDEST PUSH2 0x2721 DUP2 PUSH2 0x2C33 JUMP JUMPDEST DUP3 MSTORE POP POP JUMP JUMPDEST PUSH2 0x2730 DUP2 PUSH2 0x2C3F JUMP JUMPDEST DUP3 MSTORE POP POP JUMP JUMPDEST PUSH2 0x273F DUP2 PUSH2 0x2C86 JUMP JUMPDEST DUP3 MSTORE POP POP JUMP JUMPDEST PUSH2 0x274E DUP2 PUSH2 0x2C98 JUMP JUMPDEST DUP3 MSTORE POP POP JUMP JUMPDEST PUSH2 0x275D DUP2 PUSH2 0x2CAA JUMP JUMPDEST DUP3 MSTORE POP POP JUMP JUMPDEST PUSH2 0x276C DUP2 PUSH2 0x2CBC JUMP JUMPDEST DUP3 MSTORE POP POP JUMP JUMPDEST PUSH1 0x0 PUSH2 0x277D DUP3 PUSH2 0x2C05 JUMP JUMPDEST PUSH2 0x2787 DUP2 DUP6 PUSH2 0x2C10 JUMP JUMPDEST SWAP4 POP PUSH2 0x2797 DUP2 DUP6 PUSH1 0x20 DUP7 ADD PUSH2 0x2D01 JUMP JUMPDEST PUSH2 0x27A0 DUP2 PUSH2 0x2E38 JUMP JUMPDEST DUP5 ADD SWAP2 POP POP SWAP3 SWAP2 POP POP JUMP JUMPDEST PUSH1 0x0 PUSH2 0x27B8 PUSH1 0x26 DUP4 PUSH2 0x2C10 JUMP JUMPDEST SWAP2 POP PUSH2 0x27C3 DUP3 PUSH2 0x2E49 JUMP JUMPDEST PUSH1 0x40 DUP3 ADD SWAP1 POP SWAP2 SWAP1 POP JUMP JUMPDEST PUSH1 0x0 PUSH2 0x27DB PUSH1 0x10 DUP4 PUSH2 0x2C10 JUMP JUMPDEST SWAP2 POP PUSH2 0x27E6 DUP3 PUSH2 0x2E98 JUMP JUMPDEST PUSH1 0x20 DUP3 ADD SWAP1 POP SWAP2 SWAP1 POP JUMP JUMPDEST PUSH1 0x0 PUSH2 0x27FE PUSH1 0x20 DUP4 PUSH2 0x2C10 JUMP JUMPDEST SWAP2 POP PUSH2 0x2809 DUP3 PUSH2 0x2EC1 JUMP JUMPDEST PUSH1 0x20 DUP3 ADD SWAP1 POP SWAP2 SWAP1 POP JUMP JUMPDEST PUSH1 0x0 PUSH2 0x2821 PUSH1 0xE DUP4 PUSH2 0x2C10 JUMP JUMPDEST SWAP2 POP PUSH2 0x282C DUP3 PUSH2 0x2EEA JUMP JUMPDEST PUSH1 0x20 DUP3 ADD SWAP1 POP SWAP2 SWAP1 POP JUMP JUMPDEST PUSH2 0x2840 DUP2 PUSH2 0x2C7C JUMP JUMPDEST DUP3 MSTORE POP POP JUMP JUMPDEST PUSH1 0x0 PUSH1 0x20 DUP3 ADD SWAP1 POP PUSH2 0x285B PUSH1 0x0 DUP4 ADD DUP5 PUSH2 0x2709 JUMP JUMPDEST SWAP3 SWAP2 POP POP JUMP JUMPDEST PUSH1 0x0 PUSH1 0x40 DUP3 ADD SWAP1 POP PUSH2 0x2876 PUSH1 0x0 DUP4 ADD DUP6 PUSH2 0x2709 JUMP JUMPDEST PUSH2 0x2883 PUSH1 0x20 DUP4 ADD DUP5 PUSH2 0x2709 JUMP JUMPDEST SWAP4 SWAP3 POP POP POP JUMP JUMPDEST PUSH1 0x0 PUSH1 0x60 DUP3 ADD SWAP1 POP PUSH2 0x289F PUSH1 0x0 DUP4 ADD DUP7 PUSH2 0x2709 JUMP JUMPDEST PUSH2 0x28AC PUSH1 0x20 DUP4 ADD DUP6 PUSH2 0x2709 JUMP JUMPDEST PUSH2 0x28B9 PUSH1 0x40 DUP4 ADD DUP5 PUSH2 0x2709 JUMP JUMPDEST SWAP5 SWAP4 POP POP POP POP JUMP JUMPDEST PUSH1 0x0 PUSH1 0x40 DUP3 ADD SWAP1 POP PUSH2 0x28D6 PUSH1 0x0 DUP4 ADD DUP6 PUSH2 0x2709 JUMP JUMPDEST PUSH2 0x28E3 PUSH1 0x20 DUP4 ADD DUP5 PUSH2 0x2763 JUMP JUMPDEST SWAP4 SWAP3 POP POP POP JUMP JUMPDEST PUSH1 0x0 PUSH1 0x20 DUP3 ADD SWAP1 POP PUSH2 0x28FF PUSH1 0x0 DUP4 ADD DUP5 PUSH2 0x2718 JUMP JUMPDEST SWAP3 SWAP2 POP POP JUMP JUMPDEST PUSH1 0x0 PUSH1 0x40 DUP3 ADD SWAP1 POP PUSH2 0x291A PUSH1 0x0 DUP4 ADD DUP6 PUSH2 0x2727 JUMP JUMPDEST PUSH2 0x2927 PUSH1 0x20 DUP4 ADD DUP5 PUSH2 0x2709 JUMP JUMPDEST SWAP4 SWAP3 POP POP POP JUMP JUMPDEST PUSH1 0x0 PUSH1 0x20 DUP3 ADD SWAP1 POP PUSH2 0x2943 PUSH1 0x0 DUP4 ADD DUP5 PUSH2 0x2736 JUMP JUMPDEST SWAP3 SWAP2 POP POP JUMP JUMPDEST PUSH1 0x0 PUSH1 0x20 DUP3 ADD SWAP1 POP PUSH2 0x295E PUSH1 0x0 DUP4 ADD DUP5 PUSH2 0x2745 JUMP JUMPDEST SWAP3 SWAP2 POP POP JUMP JUMPDEST PUSH1 0x0 PUSH1 0x20 DUP3 ADD SWAP1 POP PUSH2 0x2979 PUSH1 0x0 DUP4 ADD DUP5 PUSH2 0x2754 JUMP JUMPDEST SWAP3 SWAP2 POP POP JUMP JUMPDEST PUSH1 0x0 PUSH1 0x20 DUP3 ADD SWAP1 POP DUP2 DUP2 SUB PUSH1 0x0 DUP4 ADD MSTORE PUSH2 0x2999 DUP2 DUP5 PUSH2 0x2772 JUMP JUMPDEST SWAP1 POP SWAP3 SWAP2 POP POP JUMP JUMPDEST PUSH1 0x0 PUSH1 0x20 DUP3 ADD SWAP1 POP DUP2 DUP2 SUB PUSH1 0x0 DUP4 ADD MSTORE PUSH2 0x29BA DUP2 PUSH2 0x27AB JUMP JUMPDEST SWAP1 POP SWAP2 SWAP1 POP JUMP JUMPDEST PUSH1 0x0 PUSH1 0x20 DUP3 ADD SWAP1 POP DUP2 DUP2 SUB PUSH1 0x0 DUP4 ADD MSTORE PUSH2 0x29DA DUP2 PUSH2 0x27CE JUMP JUMPDEST SWAP1 POP SWAP2 SWAP1 POP JUMP JUMPDEST PUSH1 0x0 PUSH1 0x20 DUP3 ADD SWAP1 POP DUP2 DUP2 SUB PUSH1 0x0 DUP4 ADD MSTORE PUSH2 0x29FA DUP2 PUSH2 0x27F1 JUMP JUMPDEST SWAP1 POP SWAP2 SWAP1 POP JUMP JUMPDEST PUSH1 0x0 PUSH1 0x20 DUP3 ADD SWAP1 POP DUP2 DUP2 SUB PUSH1 0x0 DUP4 ADD MSTORE PUSH2 0x2A1A DUP2 PUSH2 0x2814 JUMP JUMPDEST SWAP1 POP SWAP2 SWAP1 POP JUMP JUMPDEST PUSH1 0x0 PUSH1 0x20 DUP3 ADD SWAP1 POP PUSH2 0x2A36 PUSH1 0x0 DUP4 ADD DUP5 PUSH2 0x2837 JUMP JUMPDEST SWAP3 SWAP2 POP POP JUMP JUMPDEST PUSH1 0x0 PUSH2 0x100 DUP3 ADD SWAP1 POP PUSH2 0x2A52 PUSH1 0x0 DUP4 ADD DUP12 PUSH2 0x2837 JUMP JUMPDEST DUP2 DUP2 SUB PUSH1 0x20 DUP4 ADD MSTORE PUSH2 0x2A64 DUP2 DUP11 PUSH2 0x2772 JUMP JUMPDEST SWAP1 POP PUSH2 0x2A73 PUSH1 0x40 DUP4 ADD DUP10 PUSH2 0x2837 JUMP JUMPDEST PUSH2 0x2A80 PUSH1 0x60 DUP4 ADD DUP9 PUSH2 0x2709 JUMP JUMPDEST PUSH2 0x2A8D PUSH1 0x80 DUP4 ADD DUP8 PUSH2 0x2837 JUMP JUMPDEST PUSH2 0x2A9A PUSH1 0xA0 DUP4 ADD DUP7 PUSH2 0x2837 JUMP JUMPDEST PUSH2 0x2AA7 PUSH1 0xC0 DUP4 ADD DUP6 PUSH2 0x2837 JUMP JUMPDEST PUSH2 0x2AB4 PUSH1 0xE0 DUP4 ADD DUP5 PUSH2 0x2837 JUMP JUMPDEST SWAP10 SWAP9 POP POP POP POP POP POP POP POP POP JUMP JUMPDEST PUSH1 0x0 PUSH2 0x120 DUP3 ADD SWAP1 POP PUSH2 0x2AD7 PUSH1 0x0 DUP4 ADD DUP13 PUSH2 0x2837 JUMP JUMPDEST DUP2 DUP2 SUB PUSH1 0x20 DUP4 ADD MSTORE PUSH2 0x2AE9 DUP2 DUP12 PUSH2 0x2772 JUMP JUMPDEST SWAP1 POP PUSH2 0x2AF8 PUSH1 0x40 DUP4 ADD DUP11 PUSH2 0x2837 JUMP JUMPDEST PUSH2 0x2B05 PUSH1 0x60 DUP4 ADD DUP10 PUSH2 0x2837 JUMP JUMPDEST PUSH2 0x2B12 PUSH1 0x80 DUP4 ADD DUP9 PUSH2 0x2709 JUMP JUMPDEST PUSH2 0x2B1F PUSH1 0xA0 DUP4 ADD DUP8 PUSH2 0x2837 JUMP JUMPDEST PUSH2 0x2B2C PUSH1 0xC0 DUP4 ADD DUP7 PUSH2 0x2837 JUMP JUMPDEST PUSH2 0x2B39 PUSH1 0xE0 DUP4 ADD DUP6 PUSH2 0x2837 JUMP JUMPDEST PUSH2 0x2B47 PUSH2 0x100 DUP4 ADD DUP5 PUSH2 0x2837 JUMP JUMPDEST SWAP11 SWAP10 POP POP POP POP POP POP POP POP POP POP JUMP JUMPDEST PUSH1 0x0 PUSH1 0xA0 DUP3 ADD SWAP1 POP PUSH2 0x2B6A PUSH1 0x0 DUP4 ADD DUP9 PUSH2 0x2837 JUMP JUMPDEST DUP2 DUP2 SUB PUSH1 0x20 DUP4 ADD MSTORE PUSH2 0x2B7C DUP2 DUP8 PUSH2 0x2772 JUMP JUMPDEST SWAP1 POP PUSH2 0x2B8B PUSH1 0x40 DUP4 ADD DUP7 PUSH2 0x2837 JUMP JUMPDEST PUSH2 0x2B98 PUSH1 0x60 DUP4 ADD DUP6 PUSH2 0x2837 JUMP JUMPDEST PUSH2 0x2BA5 PUSH1 0x80 DUP4 ADD DUP5 PUSH2 0x2837 JUMP JUMPDEST SWAP7 SWAP6 POP POP POP POP POP POP JUMP JUMPDEST PUSH1 0x0 PUSH2 0x2BB9 PUSH2 0x2BCA JUMP JUMPDEST SWAP1 POP PUSH2 0x2BC5 DUP3 DUP3 PUSH2 0x2D66 JUMP JUMPDEST SWAP2 SWAP1 POP JUMP JUMPDEST PUSH1 0x0 PUSH1 0x40 MLOAD SWAP1 POP SWAP1 JUMP JUMPDEST PUSH1 0x0 PUSH8 0xFFFFFFFFFFFFFFFF DUP3 GT ISZERO PUSH2 0x2BEF JUMPI PUSH2 0x2BEE PUSH2 0x2DF5 JUMP JUMPDEST JUMPDEST PUSH2 0x2BF8 DUP3 PUSH2 0x2E38 JUMP JUMPDEST SWAP1 POP PUSH1 0x20 DUP2 ADD SWAP1 POP SWAP2 SWAP1 POP JUMP JUMPDEST PUSH1 0x0 DUP2 MLOAD SWAP1 POP SWAP2 SWAP1 POP JUMP JUMPDEST PUSH1 0x0 DUP3 DUP3 MSTORE PUSH1 0x20 DUP3 ADD SWAP1 POP SWAP3 SWAP2 POP POP JUMP JUMPDEST PUSH1 0x0 PUSH2 0x2C2C DUP3 PUSH2 0x2C5C JUMP JUMPDEST SWAP1 POP SWAP2 SWAP1 POP JUMP JUMPDEST PUSH1 0x0 DUP2 ISZERO ISZERO SWAP1 POP SWAP2 SWAP1 POP JUMP JUMPDEST PUSH1 0x0 DUP2 SWAP1 POP SWAP2 SWAP1 POP JUMP JUMPDEST PUSH1 0x0 DUP2 SWAP1 POP PUSH2 0x2C57 DUP3 PUSH2 0x2F13 JUMP JUMPDEST SWAP2 SWAP1 POP JUMP JUMPDEST PUSH1 0x0 PUSH20 0xFFFFFFFFFFFFFFFFFFFFFFFFFFFFFFFFFFFFFFFF DUP3 AND SWAP1 POP SWAP2 SWAP1 POP JUMP JUMPDEST PUSH1 0x0 DUP2 SWAP1 POP SWAP2 SWAP1 POP JUMP JUMPDEST PUSH1 0x0 PUSH2 0x2C91 DUP3 PUSH2 0x2CCE JUMP JUMPDEST SWAP1 POP SWAP2 SWAP1 POP JUMP JUMPDEST PUSH1 0x0 PUSH2 0x2CA3 DUP3 PUSH2 0x2CCE JUMP JUMPDEST SWAP1 POP SWAP2 SWAP1 POP JUMP JUMPDEST PUSH1 0x0 PUSH2 0x2CB5 DUP3 PUSH2 0x2CCE JUMP JUMPDEST SWAP1 POP SWAP2 SWAP1 POP JUMP JUMPDEST PUSH1 0x0 PUSH2 0x2CC7 DUP3 PUSH2 0x2C49 JUMP JUMPDEST SWAP1 POP SWAP2 SWAP1 POP JUMP JUMPDEST PUSH1 0x0 PUSH2 0x2CD9 DUP3 PUSH2 0x2CE0 JUMP JUMPDEST SWAP1 POP SWAP2 SWAP1 POP JUMP JUMPDEST PUSH1 0x0 PUSH2 0x2CEB DUP3 PUSH2 0x2C5C JUMP JUMPDEST SWAP1 POP SWAP2 SWAP1 POP JUMP JUMPDEST DUP3 DUP2 DUP4 CALLDATACOPY PUSH1 0x0 DUP4 DUP4 ADD MSTORE POP POP POP JUMP JUMPDEST PUSH1 0x0 JUMPDEST DUP4 DUP2 LT ISZERO PUSH2 0x2D1F JUMPI DUP1 DUP3 ADD MLOAD DUP2 DUP5 ADD MSTORE PUSH1 0x20 DUP2 ADD SWAP1 POP PUSH2 0x2D04 JUMP JUMPDEST DUP4 DUP2 GT ISZERO PUSH2 0x2D2E JUMPI PUSH1 0x0 DUP5 DUP5 ADD MSTORE JUMPDEST POP POP POP POP JUMP JUMPDEST PUSH1 0x0 PUSH1 0x2 DUP3 DIV SWAP1 POP PUSH1 0x1 DUP3 AND DUP1 PUSH2 0x2D4C JUMPI PUSH1 0x7F DUP3 AND SWAP2 POP JUMPDEST PUSH1 0x20 DUP3 LT DUP2 EQ ISZERO PUSH2 0x2D60 JUMPI PUSH2 0x2D5F PUSH2 0x2DC6 JUMP JUMPDEST JUMPDEST POP SWAP2 SWAP1 POP JUMP JUMPDEST PUSH2 0x2D6F DUP3 PUSH2 0x2E38 JUMP JUMPDEST DUP2 ADD DUP2 DUP2 LT PUSH8 0xFFFFFFFFFFFFFFFF DUP3 GT OR ISZERO PUSH2 0x2D8E JUMPI PUSH2 0x2D8D PUSH2 0x2DF5 JUMP JUMPDEST JUMPDEST DUP1 PUSH1 0x40 MSTORE POP POP POP JUMP JUMPDEST PUSH32 0x4E487B7100000000000000000000000000000000000000000000000000000000 PUSH1 0x0 MSTORE PUSH1 0x21 PUSH1 0x4 MSTORE PUSH1 0x24 PUSH1 0x0 REVERT JUMPDEST PUSH32 0x4E487B7100000000000000000000000000000000000000000000000000000000 PUSH1 0x0 MSTORE PUSH1 0x22 PUSH1 0x4 MSTORE PUSH1 0x24 PUSH1 0x0 REVERT JUMPDEST PUSH32 0x4E487B7100000000000000000000000000000000000000000000000000000000 PUSH1 0x0 MSTORE PUSH1 0x41 PUSH1 0x4 MSTORE PUSH1 0x24 PUSH1 0x0 REVERT JUMPDEST PUSH1 0x0 DUP1 REVERT JUMPDEST PUSH1 0x0 DUP1 REVERT JUMPDEST PUSH1 0x0 DUP1 REVERT JUMPDEST PUSH1 0x0 DUP1 REVERT JUMPDEST PUSH1 0x0 PUSH1 0x1F NOT PUSH1 0x1F DUP4 ADD AND SWAP1 POP SWAP2 SWAP1 POP JUMP JUMPDEST PUSH32 0x4F776E61626C653A206E6577206F776E657220697320746865207A65726F2061 PUSH1 0x0 DUP3 ADD MSTORE PUSH32 0x6464726573730000000000000000000000000000000000000000000000000000 PUSH1 0x20 DUP3 ADD MSTORE POP JUMP JUMPDEST PUSH32 0x4D433A204F6E6C792053747564656E7400000000000000000000000000000000 PUSH1 0x0 DUP3 ADD MSTORE POP JUMP JUMPDEST PUSH32 0x4F776E61626C653A2063616C6C6572206973206E6F7420746865206F776E6572 PUSH1 0x0 DUP3 ADD MSTORE POP JUMP JUMPDEST PUSH32 0x4D503A204F6E6C792041646D696E000000000000000000000000000000000000 PUSH1 0x0 DUP3 ADD MSTORE POP JUMP JUMPDEST PUSH1 0x4 DUP2 LT PUSH2 0x2F24 JUMPI PUSH2 0x2F23 PUSH2 0x2D97 JUMP JUMPDEST JUMPDEST POP JUMP JUMPDEST PUSH2 0x2F30 DUP2 PUSH2 0x2C21 JUMP JUMPDEST DUP2 EQ PUSH2 0x2F3B JUMPI PUSH1 0x0 DUP1 REVERT JUMPDEST POP JUMP JUMPDEST PUSH2 0x2F47 DUP2 PUSH2 0x2C33 JUMP JUMPDEST DUP2 EQ PUSH2 0x2F52 JUMPI PUSH1 0x0 DUP1 REVERT JUMPDEST POP JUMP JUMPDEST PUSH2 0x2F5E DUP2 PUSH2 0x2C7C JUMP JUMPDEST DUP2 EQ PUSH2 0x2F69 JUMPI PUSH1 0x0 DUP1 REVERT JUMPDEST POP JUMP INVALID LOG2 PUSH5 0x6970667358 0x22 SLT KECCAK256 DUP9 0xEA BYTE KECCAK256 0xE6 ADD DIFFICULTY 0xF9 0xCC 0xBF PUSH5 0xD50D5FD01 DUP12 CALLDATALOAD 0xE5 DUP10 0x25 SGT SWAP8 SWAP6 MLOAD SWAP12 CALL EXTCODESIZE 0xD6 CALL 0xFC 0xC4 PUSH5 0x736F6C6343 STOP ADDMOD SMOD STOP CALLER "
				},
				"gasEstimates": {
					"creation": {
						"codeDepositCost": "2438800",
						"executionCost": "infinite",
						"totalCost": "infinite"
					},
					"external": {
						"accessControll()": "2711",
						"addLecturerInfo(address,string)": "infinite",
						"addStudentInfo(string)": "infinite",
						"close(address)": "infinite",
						"createNewMission(string,uint256,uint256,address,uint256,uint256,uint256,uint256)": "infinite",
						"createNewScholarship(string,uint256,uint256,uint256)": "infinite",
						"createNewSubject(string,uint256,address,uint256,uint256,uint256,uint256)": "infinite",
						"createNewTuition(string,uint256,uint256,uint256)": "infinite",
						"existed(address)": "2934",
						"factory()": "2711",
						"idCountMission()": "2467",
						"idCountScholarship()": "2489",
						"idCountSubject()": "2531",
						"idCountTuition()": "2553",
						"lecturerInfo(address)": "infinite",
						"owner()": "2611",
						"pools(uint256)": "7397",
						"renounceOwnership()": "30397",
						"rewardDistributor()": "2645",
						"setFactory(address)": "27052",
						"studentInfo(address)": "infinite",
						"transferOwnership(address)": "30855"
					},
					"internal": {
						"_removeDistributor(address)": "infinite"
					}
				},
				"methodIdentifiers": {
					"accessControll()": "aa4936ce",
					"addLecturerInfo(address,string)": "d2a49de5",
					"addStudentInfo(string)": "682ef79f",
					"close(address)": "c74073a1",
					"createNewMission(string,uint256,uint256,address,uint256,uint256,uint256,uint256)": "b82df1fd",
					"createNewScholarship(string,uint256,uint256,uint256)": "8c34aabb",
					"createNewSubject(string,uint256,address,uint256,uint256,uint256,uint256)": "ab327098",
					"createNewTuition(string,uint256,uint256,uint256)": "c5484bb2",
					"existed(address)": "c225fc38",
					"factory()": "c45a0155",
					"idCountMission()": "1ee965f1",
					"idCountScholarship()": "3b7d8952",
					"idCountSubject()": "dcff175a",
					"idCountTuition()": "eb49ad47",
					"lecturerInfo(address)": "8c248ffd",
					"owner()": "8da5cb5b",
					"pools(uint256)": "ac4afa38",
					"renounceOwnership()": "715018a6",
					"rewardDistributor()": "acc2166a",
					"setFactory(address)": "5bb47808",
					"studentInfo(address)": "3d847dda",
					"transferOwnership(address)": "f2fde38b"
				}
			},
			"userdoc": {
				"kind": "user",
				"methods": {},
				"version": 1
			}
		}
	}
}