{
	"data": {
		"bytecode": {
			"linkReferences": {},
			"object": "60e06040523480156200001157600080fd5b50604051620052be380380620052be833981810160405281019062000037919062000471565b60008060006101000a81548160ff02191690831515021790555062000071620000656200037660201b60201c565b6200037e60201b60201c565b60018081905550600073ffffffffffffffffffffffffffffffffffffffff168573ffffffffffffffffffffffffffffffffffffffff161415620000eb576040517f08c379a0000000000000000000000000000000000000000000000000000000008152600401620000e29062000595565b60405180910390fd5b600073ffffffffffffffffffffffffffffffffffffffff168473ffffffffffffffffffffffffffffffffffffffff1614156200015e576040517f08c379a00000000000000000000000000000000000000000000000000000000081526004016200015590620005d9565b60405180910390fd5b600073ffffffffffffffffffffffffffffffffffffffff168373ffffffffffffffffffffffffffffffffffffffff161415620001d1576040517f08c379a0000000000000000000000000000000000000000000000000000000008152600401620001c890620005b7565b60405180910390fd5b600073ffffffffffffffffffffffffffffffffffffffff168273ffffffffffffffffffffffffffffffffffffffff16141562000244576040517f08c379a00000000000000000000000000000000000000000000000000000000081526004016200023b90620005fb565b60405180910390fd5b84600260006101000a81548173ffffffffffffffffffffffffffffffffffffffff021916908373ffffffffffffffffffffffffffffffffffffffff1602179055508373ffffffffffffffffffffffffffffffffffffffff1660808173ffffffffffffffffffffffffffffffffffffffff1660601b815250508273ffffffffffffffffffffffffffffffffffffffff1660a08173ffffffffffffffffffffffffffffffffffffffff1660601b815250508173ffffffffffffffffffffffffffffffffffffffff1660c08173ffffffffffffffffffffffffffffffffffffffff1660601b8152505080600360006101000a81548173ffffffffffffffffffffffffffffffffffffffff021916908373ffffffffffffffffffffffffffffffffffffffff1602179055505050505050620007eb565b600033905090565b60008060019054906101000a900473ffffffffffffffffffffffffffffffffffffffff16905081600060016101000a81548173ffffffffffffffffffffffffffffffffffffffff021916908373ffffffffffffffffffffffffffffffffffffffff1602179055508173ffffffffffffffffffffffffffffffffffffffff168173ffffffffffffffffffffffffffffffffffffffff167f8be0079c531659141344cd1fd0a4f28419497f9722a3daafe3b4186f6b6457e060405160405180910390a35050565b6000815190506200045481620007b7565b92915050565b6000815190506200046b81620007d1565b92915050565b600080600080600060a0868803121562000490576200048f62000676565b5b6000620004a08882890162000443565b9550506020620004b38882890162000443565b9450506040620004c68882890162000443565b9350506060620004d98882890162000443565b9250506080620004ec888289016200045a565b9150509295509295909350565b6000620005086030836200061d565b915062000515826200067b565b604082019050919050565b60006200052f602d836200061d565b91506200053c82620006ca565b604082019050919050565b600062000556602b836200061d565b9150620005638262000719565b604082019050919050565b60006200057d6034836200061d565b91506200058a8262000768565b604082019050919050565b60006020820190508181036000830152620005b081620004f9565b9050919050565b60006020820190508181036000830152620005d28162000520565b9050919050565b60006020820190508181036000830152620005f48162000547565b9050919050565b6000602082019050818103600083015262000616816200056e565b9050919050565b600082825260208201905092915050565b60006200063b8262000656565b9050919050565b60006200064f826200062e565b9050919050565b600073ffffffffffffffffffffffffffffffffffffffff82169050919050565b600080fd5b7f4d61726b6574706c6163653a2041636365737320636f6e74726f6c20636f6e7460008201527f726163742063616e6e6f74206265203000000000000000000000000000000000602082015250565b7f4d61726b6574706c6163653a205549544e46546f6b656e206d757374206e6f7460008201527f2062652061646472657373203000000000000000000000000000000000000000602082015250565b7f4d61726b6574706c6163653a20554954546f6b656e206d757374206e6f74206260008201527f6520616464726573732030000000000000000000000000000000000000000000602082015250565b7f4d61726b6574706c6163653a205265776172644469737472696275746f72206d60008201527f757374206e6f7420626520616464726573732030000000000000000000000000602082015250565b620007c2816200062e565b8114620007ce57600080fd5b50565b620007dc8162000642565b8114620007e857600080fd5b50565b60805160601c60a05160601c60c05160601c614a4d620008716000396000818161129a0152611e0e015260008181610a5e01528181610d3c01528181611303015281816113e4015281816114ec01528181611808015281816125be015261264b01526000818161117d015281816112bc0152818161139d01526114c80152614a4d6000f3fe608060405234801561001057600080fd5b506004361061018e5760003560e01c806382367b2d116100de578063bc197c8111610097578063cb36142811610071578063cb36142814610413578063ee4a23691461042f578063f23a6e611461044b578063f2fde38b1461047b5761018e565b8063bc197c81146103ab578063c1f7f0f5146103db578063c949cf7d146103f75761018e565b806382367b2d146102f95780638456cb5914610315578063847261ef1461031f5780638da5cb5b1461033b578063acc2166a14610359578063b46878ca146103775761018e565b80632fe7a96d1161014b57806343be2d031161012557806343be2d0314610297578063547aee0c146102b35780635c975abb146102d1578063715018a6146102ef5761018e565b80632fe7a96d146102515780633b88699b1461026f5780633f4ba83a1461028d5761018e565b806301ffc9a7146101935780630dcd0c20146101c357806313007d55146101df57806319129e5a146101fd57806319aeb490146102195780632afaca2014610235575b600080fd5b6101ad60048036038101906101a891906134ba565b610497565b6040516101ba9190613cde565b60405180910390f35b6101dd60048036038101906101d89190613670565b610511565b005b6101e761074d565b6040516101f49190613ba4565b60405180910390f35b610217600480360381019061021291906132b1565b610773565b005b610233600480360381019061022e91906136b0565b610833565b005b61024f600480360381019061024a919061361d565b610e14565b005b6102596114c6565b6040516102669190613ba4565b60405180910390f35b6102776114ea565b6040516102849190613ba4565b60405180910390f35b61029561150e565b005b6102b160048036038101906102ac9190613583565b611594565b005b6102bb6118de565b6040516102c89190613d90565b60405180910390f35b6102d9611904565b6040516102e69190613cde565b60405180910390f35b6102f761191a565b005b610313600480360381019061030e9190613670565b6119a2565b005b61031d611b24565b005b61033960048036038101906103349190613444565b611baa565b005b610343611de3565b6040516103509190613ba4565b60405180910390f35b610361611e0c565b60405161036e9190613ba4565b60405180910390f35b610391600480360381019061038c91906135dd565b611e30565b6040516103a2959493929190613cf9565b60405180910390f35b6103c560048036038101906103c091906132de565b611e80565b6040516103d29190613d75565b60405180910390f35b6103f560048036038101906103f09190613670565b611e95565b005b610411600480360381019061040c9190613444565b61215b565b005b61042d60048036038101906104289190613514565b612394565b005b610449600480360381019061044491906134e7565b6128e7565b005b610465600480360381019061046091906133ad565b6129a7565b6040516104729190613d75565b60405180910390f35b610495600480360381019061049091906132b1565b6129bc565b005b60007f4e2312e0000000000000000000000000000000000000000000000000000000007bffffffffffffffffffffffffffffffffffffffffffffffffffffffff1916827bffffffffffffffffffffffffffffffffffffffffffffffffffffffff1916148061050a575061050982612ab4565b5b9050919050565b610519611904565b15610559576040517f08c379a000000000000000000000000000000000000000000000000000000000815260040161055090613ef9565b60405180910390fd5b6002600154141561059f576040517f08c379a000000000000000000000000000000000000000000000000000000000815260040161059690614019565b60405180910390fd5b6002600181905550600260009054906101000a900473ffffffffffffffffffffffffffffffffffffffff1673ffffffffffffffffffffffffffffffffffffffff166391d148547fc951d7098b66ba0b8b77265b6e9cf0e187d73125a42bcd0061b09a68be421810336040518363ffffffff1660e01b8152600401610624929190613d4c565b60206040518083038186803b15801561063c57600080fd5b505afa158015610650573d6000803e3d6000fd5b505050506040513d601f19601f82011682018060405250810190610674919061348d565b6106b3576040517f08c379a00000000000000000000000000000000000000000000000000000000081526004016106aa90613fd9565b60405180910390fd5b600360009054906101000a900473ffffffffffffffffffffffffffffffffffffffff1673ffffffffffffffffffffffffffffffffffffffff16630dcd0c2083836040518363ffffffff1660e01b81526004016107109291906140fb565b600060405180830381600087803b15801561072a57600080fd5b505af115801561073e573d6000803e3d6000fd5b50505050600180819055505050565b600260009054906101000a900473ffffffffffffffffffffffffffffffffffffffff1681565b61077b612b1e565b73ffffffffffffffffffffffffffffffffffffffff16610799611de3565b73ffffffffffffffffffffffffffffffffffffffff16146107ef576040517f08c379a00000000000000000000000000000000000000000000000000000000081526004016107e690613f59565b60405180910390fd5b80600260006101000a81548173ffffffffffffffffffffffffffffffffffffffff021916908373ffffffffffffffffffffffffffffffffffffffff16021790555050565b61083b611904565b1561087b576040517f08c379a000000000000000000000000000000000000000000000000000000000815260040161087290613ef9565b60405180910390fd5b600260015414156108c1576040517f08c379a00000000000000000000000000000000000000000000000000000000081526004016108b890614019565b60405180910390fd5b6002600181905550600260009054906101000a900473ffffffffffffffffffffffffffffffffffffffff1673ffffffffffffffffffffffffffffffffffffffff166391d148547fc951d7098b66ba0b8b77265b6e9cf0e187d73125a42bcd0061b09a68be421810336040518363ffffffff1660e01b8152600401610946929190613d4c565b60206040518083038186803b15801561095e57600080fd5b505afa158015610972573d6000803e3d6000fd5b505050506040513d601f19601f82011682018060405250810190610996919061348d565b6109d5576040517f08c379a00000000000000000000000000000000000000000000000000000000081526004016109cc90613fd9565b60405180910390fd5b60008211610a18576040517f08c379a0000000000000000000000000000000000000000000000000000000008152600401610a0f90613f19565b60405180910390fd5b60008111610a5b576040517f08c379a0000000000000000000000000000000000000000000000000000000008152600401610a5290613e99565b60405180910390fd5b807f000000000000000000000000000000000000000000000000000000000000000073ffffffffffffffffffffffffffffffffffffffff1662fdd58e33866040518363ffffffff1660e01b8152600401610ab6929190613c93565b60206040518083038186803b158015610ace57600080fd5b505afa158015610ae2573d6000803e3d6000fd5b505050506040513d601f19601f82011682018060405250810190610b0691906135b0565b1015610b47576040517f08c379a0000000000000000000000000000000000000000000000000000000008152600401610b3e90614059565b60405180910390fd5b60006004600085815260200190815260200160002060003373ffffffffffffffffffffffffffffffffffffffff1673ffffffffffffffffffffffffffffffffffffffff1681526020019081526020016000206040518060a00160405290816000820160009054906101000a900460ff161515151581526020016001820154815260200160028201548152602001600382015481526020016004820154815250509050806000015115610c2e576040517f08c379a0000000000000000000000000000000000000000000000000000000008152600401610c2590613e59565b60405180910390fd5b6000816040015114610c75576040517f08c379a0000000000000000000000000000000000000000000000000000000008152600401610c6c90613e59565b60405180910390fd5b6040518060a00160405280600115158152602001858152602001838152602001428152602001848152506004600086815260200190815260200160002060003373ffffffffffffffffffffffffffffffffffffffff1673ffffffffffffffffffffffffffffffffffffffff16815260200190815260200160002060008201518160000160006101000a81548160ff021916908315150217905550602082015181600101556040820151816002015560608201518160030155608082015181600401559050507f000000000000000000000000000000000000000000000000000000000000000073ffffffffffffffffffffffffffffffffffffffff1663f242432a333087866040518563ffffffff1660e01b8152600401610d999493929190613c3b565b600060405180830381600087803b158015610db357600080fd5b505af1158015610dc7573d6000803e3d6000fd5b50505050837f5bc1dfc7136db3113acb6dad2e291dcf149405ca07fcec667fa5e1fa7f430f98838533604051610dff93929190614124565b60405180910390a25060018081905550505050565b610e1c611904565b15610e5c576040517f08c379a0000000000000000000000000000000000000000000000000000000008152600401610e5390613ef9565b60405180910390fd5b60026001541415610ea2576040517f08c379a0000000000000000000000000000000000000000000000000000000008152600401610e9990614019565b60405180910390fd5b6002600181905550600260009054906101000a900473ffffffffffffffffffffffffffffffffffffffff1673ffffffffffffffffffffffffffffffffffffffff166391d148547fc951d7098b66ba0b8b77265b6e9cf0e187d73125a42bcd0061b09a68be421810336040518363ffffffff1660e01b8152600401610f27929190613d4c565b60206040518083038186803b158015610f3f57600080fd5b505afa158015610f53573d6000803e3d6000fd5b505050506040513d601f19601f82011682018060405250810190610f77919061348d565b610fb6576040517f08c379a0000000000000000000000000000000000000000000000000000000008152600401610fad90613fd9565b60405180910390fd5b60006004600085815260200190815260200160002060008473ffffffffffffffffffffffffffffffffffffffff1673ffffffffffffffffffffffffffffffffffffffff1681526020019081526020016000209050600033905060008260040154905060008185611026919061429b565b90508360000160009054906101000a900460ff16611079576040517f08c379a000000000000000000000000000000000000000000000000000000000815260040161107090613e79565b60405180910390fd5b83600201548511156110c0576040517f08c379a00000000000000000000000000000000000000000000000000000000081526004016110b790613f79565b60405180910390fd5b8573ffffffffffffffffffffffffffffffffffffffff168373ffffffffffffffffffffffffffffffffffffffff16141561112f576040517f08c379a000000000000000000000000000000000000000000000000000000000815260040161112690613fb9565b60405180910390fd5b8484600201600082825461114391906142f5565b925050819055506000846002015414156111755760008460000160006101000a81548160ff0219169083151502179055505b6111c28387837f000000000000000000000000000000000000000000000000000000000000000073ffffffffffffffffffffffffffffffffffffffff16612b26909392919063ffffffff16565b600260009054906101000a900473ffffffffffffffffffffffffffffffffffffffff1673ffffffffffffffffffffffffffffffffffffffff166391d148547fdf8b4c520ffe197c5343c6f5aec59570151ef9a492f2c624fd45ddde6135ec42886040518363ffffffff1660e01b815260040161123f929190613d4c565b60206040518083038186803b15801561125757600080fd5b505afa15801561126b573d6000803e3d6000fd5b505050506040513d601f19601f8201168201806040525081019061128f919061348d565b1561139557611301837f0000000000000000000000000000000000000000000000000000000000000000837f000000000000000000000000000000000000000000000000000000000000000073ffffffffffffffffffffffffffffffffffffffff16612b26909392919063ffffffff16565b7f000000000000000000000000000000000000000000000000000000000000000073ffffffffffffffffffffffffffffffffffffffff1663836a10408885886040518463ffffffff1660e01b815260040161135e939291906140c4565b600060405180830381600087803b15801561137857600080fd5b505af115801561138c573d6000803e3d6000fd5b50505050611478565b6113e28387837f000000000000000000000000000000000000000000000000000000000000000073ffffffffffffffffffffffffffffffffffffffff16612b26909392919063ffffffff16565b7f000000000000000000000000000000000000000000000000000000000000000073ffffffffffffffffffffffffffffffffffffffff1663f242432a30858760010154896040518563ffffffff1660e01b81526004016114459493929190613c3b565b600060405180830381600087803b15801561145f57600080fd5b505af1158015611473573d6000803e3d6000fd5b505050505b867f9c45908c2d32f0072963511b0e7c3059b0202498a9fdc83032dd440850d0c863848888856040516114ae9493929190613bf6565b60405180910390a25050505060018081905550505050565b7f000000000000000000000000000000000000000000000000000000000000000081565b7f000000000000000000000000000000000000000000000000000000000000000081565b611516612b1e565b73ffffffffffffffffffffffffffffffffffffffff16611534611de3565b73ffffffffffffffffffffffffffffffffffffffff161461158a576040517f08c379a000000000000000000000000000000000000000000000000000000000815260040161158190613f59565b60405180910390fd5b611592612baf565b565b61159c611904565b156115dc576040517f08c379a00000000000000000000000000000000000000000000000000000000081526004016115d390613ef9565b60405180910390fd5b60026001541415611622576040517f08c379a000000000000000000000000000000000000000000000000000000000815260040161161990614019565b60405180910390fd5b6002600181905550600260009054906101000a900473ffffffffffffffffffffffffffffffffffffffff1673ffffffffffffffffffffffffffffffffffffffff166391d148547fc951d7098b66ba0b8b77265b6e9cf0e187d73125a42bcd0061b09a68be421810336040518363ffffffff1660e01b81526004016116a7929190613d4c565b60206040518083038186803b1580156116bf57600080fd5b505afa1580156116d3573d6000803e3d6000fd5b505050506040513d601f19601f820116820180604052508101906116f7919061348d565b611736576040517f08c379a000000000000000000000000000000000000000000000000000000000815260040161172d90613fd9565b60405180910390fd5b600033905060006004600084815260200190815260200160002060008373ffffffffffffffffffffffffffffffffffffffff1673ffffffffffffffffffffffffffffffffffffffff16815260200190815260200160002090508060000160009054906101000a900460ff166117e0576040517f08c379a00000000000000000000000000000000000000000000000000000000081526004016117d790613e79565b60405180910390fd5b60008160020154905060008260000160006101000a81548160ff0219169083151502179055507f000000000000000000000000000000000000000000000000000000000000000073ffffffffffffffffffffffffffffffffffffffff1663f242432a308587856040518563ffffffff1660e01b81526004016118659493929190613c3b565b600060405180830381600087803b15801561187f57600080fd5b505af1158015611893573d6000803e3d6000fd5b50505050837f30411792a34feb0f32a6be64e1996fa803c4505bbf6314f391f3d63c24ae52d582856040516118c992919061409b565b60405180910390a25050506001808190555050565b600360009054906101000a900473ffffffffffffffffffffffffffffffffffffffff1681565b60008060009054906101000a900460ff16905090565b611922612b1e565b73ffffffffffffffffffffffffffffffffffffffff16611940611de3565b73ffffffffffffffffffffffffffffffffffffffff1614611996576040517f08c379a000000000000000000000000000000000000000000000000000000000815260040161198d90613f59565b60405180910390fd5b6119a06000612c50565b565b6119aa611904565b156119ea576040517f08c379a00000000000000000000000000000000000000000000000000000000081526004016119e190613ef9565b60405180910390fd5b60026001541415611a30576040517f08c379a0000000000000000000000000000000000000000000000000000000008152600401611a2790614019565b60405180910390fd5b6002600181905550600033905060006004600085815260200190815260200160002060008373ffffffffffffffffffffffffffffffffffffffff1673ffffffffffffffffffffffffffffffffffffffff168152602001908152602001600020905060008311611ad4576040517f08c379a0000000000000000000000000000000000000000000000000000000008152600401611acb90613f19565b60405180910390fd5b828160040181905550837f378b09391f49d01e482ba75312341912ad0652cb8aa8799b6b33b624bd65d9f28484604051611b0f92919061409b565b60405180910390a25050600180819055505050565b611b2c612b1e565b73ffffffffffffffffffffffffffffffffffffffff16611b4a611de3565b73ffffffffffffffffffffffffffffffffffffffff1614611ba0576040517f08c379a0000000000000000000000000000000000000000000000000000000008152600401611b9790613f59565b60405180910390fd5b611ba8612d15565b565b611bb2611904565b15611bf2576040517f08c379a0000000000000000000000000000000000000000000000000000000008152600401611be990613ef9565b60405180910390fd5b60026001541415611c38576040517f08c379a0000000000000000000000000000000000000000000000000000000008152600401611c2f90614019565b60405180910390fd5b6002600181905550600260009054906101000a900473ffffffffffffffffffffffffffffffffffffffff1673ffffffffffffffffffffffffffffffffffffffff166391d148547fdf8b4c520ffe197c5343c6f5aec59570151ef9a492f2c624fd45ddde6135ec42336040518363ffffffff1660e01b8152600401611cbd929190613d4c565b60206040518083038186803b158015611cd557600080fd5b505afa158015611ce9573d6000803e3d6000fd5b505050506040513d601f19601f82011682018060405250810190611d0d919061348d565b611d4c576040517f08c379a0000000000000000000000000000000000000000000000000000000008152600401611d4390613f39565b60405180910390fd5b600360009054906101000a900473ffffffffffffffffffffffffffffffffffffffff1673ffffffffffffffffffffffffffffffffffffffff1663a8a40f8c826040518263ffffffff1660e01b8152600401611da79190613cbc565b600060405180830381600087803b158015611dc157600080fd5b505af1158015611dd5573d6000803e3d6000fd5b505050506001808190555050565b60008060019054906101000a900473ffffffffffffffffffffffffffffffffffffffff16905090565b7f000000000000000000000000000000000000000000000000000000000000000081565b6004602052816000526040600020602052806000526040600020600091509150508060000160009054906101000a900460ff16908060010154908060020154908060030154908060040154905085565b600063bc197c8160e01b905095945050505050565b611e9d611904565b15611edd576040517f08c379a0000000000000000000000000000000000000000000000000000000008152600401611ed490613ef9565b60405180910390fd5b60026001541415611f23576040517f08c379a0000000000000000000000000000000000000000000000000000000008152600401611f1a90614019565b60405180910390fd5b6002600181905550600260009054906101000a900473ffffffffffffffffffffffffffffffffffffffff1673ffffffffffffffffffffffffffffffffffffffff166391d148547fdf8b4c520ffe197c5343c6f5aec59570151ef9a492f2c624fd45ddde6135ec42336040518363ffffffff1660e01b8152600401611fa8929190613d4c565b60206040518083038186803b158015611fc057600080fd5b505afa158015611fd4573d6000803e3d6000fd5b505050506040513d601f19601f82011682018060405250810190611ff8919061348d565b612037576040517f08c379a000000000000000000000000000000000000000000000000000000000815260040161202e90613f39565b60405180910390fd5b60006004600084815260200190815260200160002060003373ffffffffffffffffffffffffffffffffffffffff1673ffffffffffffffffffffffffffffffffffffffff168152602001908152602001600020905060008160000160009054906101000a900460ff1690506000831480156120ae5750805b156120d55760008260000160006101000a81548160ff02191690831515021790555061210b565b600082600201541480156120e7575080155b1561210a5760018260000160006101000a81548160ff0219169083151502179055505b5b828260020181905550837f4bfa799bd52e5cd465e582b11fbad754d789f4fa526df2209ec026d2da586661843360405161214692919061409b565b60405180910390a25050600180819055505050565b612163611904565b156121a3576040517f08c379a000000000000000000000000000000000000000000000000000000000815260040161219a90613ef9565b60405180910390fd5b600260015414156121e9576040517f08c379a00000000000000000000000000000000000000000000000000000000081526004016121e090614019565b60405180910390fd5b6002600181905550600260009054906101000a900473ffffffffffffffffffffffffffffffffffffffff1673ffffffffffffffffffffffffffffffffffffffff166391d148547fc951d7098b66ba0b8b77265b6e9cf0e187d73125a42bcd0061b09a68be421810336040518363ffffffff1660e01b815260040161226e929190613d4c565b60206040518083038186803b15801561228657600080fd5b505afa15801561229a573d6000803e3d6000fd5b505050506040513d601f19601f820116820180604052508101906122be919061348d565b6122fd576040517f08c379a00000000000000000000000000000000000000000000000000000000081526004016122f490613fd9565b60405180910390fd5b600360009054906101000a900473ffffffffffffffffffffffffffffffffffffffff1673ffffffffffffffffffffffffffffffffffffffff1663c949cf7d826040518263ffffffff1660e01b81526004016123589190613cbc565b600060405180830381600087803b15801561237257600080fd5b505af1158015612386573d6000803e3d6000fd5b505050506001808190555050565b61239c611904565b156123dc576040517f08c379a00000000000000000000000000000000000000000000000000000000081526004016123d390613ef9565b60405180910390fd5b60026001541415612422576040517f08c379a000000000000000000000000000000000000000000000000000000000815260040161241990614019565b60405180910390fd5b6002600181905550600260009054906101000a900473ffffffffffffffffffffffffffffffffffffffff1673ffffffffffffffffffffffffffffffffffffffff166391d148547fdf8b4c520ffe197c5343c6f5aec59570151ef9a492f2c624fd45ddde6135ec42336040518363ffffffff1660e01b81526004016124a7929190613d4c565b60206040518083038186803b1580156124bf57600080fd5b505afa1580156124d3573d6000803e3d6000fd5b505050506040513d601f19601f820116820180604052508101906124f7919061348d565b612536576040517f08c379a000000000000000000000000000000000000000000000000000000000815260040161252d90613f39565b60405180910390fd5b60008211612579576040517f08c379a000000000000000000000000000000000000000000000000000000000815260040161257090613e19565b60405180910390fd5b600081116125bc576040517f08c379a00000000000000000000000000000000000000000000000000000000081526004016125b390614039565b60405180910390fd5b7f000000000000000000000000000000000000000000000000000000000000000073ffffffffffffffffffffffffffffffffffffffff166391ac2c4e846040518263ffffffff1660e01b81526004016126159190614079565b600060405180830381600087803b15801561262f57600080fd5b505af1158015612643573d6000803e3d6000fd5b5050505060007f000000000000000000000000000000000000000000000000000000000000000073ffffffffffffffffffffffffffffffffffffffff1663b02a27566040518163ffffffff1660e01b8152600401602060405180830381600087803b1580156126b157600080fd5b505af11580156126c5573d6000803e3d6000fd5b505050506040513d601f19601f820116820180604052508101906126e991906135b0565b905060006004600083815260200190815260200160002060003373ffffffffffffffffffffffffffffffffffffffff1673ffffffffffffffffffffffffffffffffffffffff1681526020019081526020016000206040518060a00160405290816000820160009054906101000a900460ff1615151515815260200160018201548152602001600282015481526020016003820154815260200160048201548152505090508060000151156127d2576040517f08c379a00000000000000000000000000000000000000000000000000000000081526004016127c990613e59565b60405180910390fd5b6040518060a00160405280600115158152602001838152602001848152602001428152602001858152506004600084815260200190815260200160002060003373ffffffffffffffffffffffffffffffffffffffff1673ffffffffffffffffffffffffffffffffffffffff16815260200190815260200160002060008201518160000160006101000a81548160ff02191690831515021790555060208201518160010155604082015181600201556060820151816003015560808201518160040155905050817f4e0411259c41f439977629c5265a0b21b5392c5ffacaaf8e193784624776030786600001518587336040516128d19493929190613dcd565b60405180910390a2505060018081905550505050565b6128ef612b1e565b73ffffffffffffffffffffffffffffffffffffffff1661290d611de3565b73ffffffffffffffffffffffffffffffffffffffff1614612963576040517f08c379a000000000000000000000000000000000000000000000000000000000815260040161295a90613f59565b60405180910390fd5b80600360006101000a81548173ffffffffffffffffffffffffffffffffffffffff021916908373ffffffffffffffffffffffffffffffffffffffff16021790555050565b600063f23a6e6160e01b905095945050505050565b6129c4612b1e565b73ffffffffffffffffffffffffffffffffffffffff166129e2611de3565b73ffffffffffffffffffffffffffffffffffffffff1614612a38576040517f08c379a0000000000000000000000000000000000000000000000000000000008152600401612a2f90613f59565b60405180910390fd5b600073ffffffffffffffffffffffffffffffffffffffff168173ffffffffffffffffffffffffffffffffffffffff161415612aa8576040517f08c379a0000000000000000000000000000000000000000000000000000000008152600401612a9f90613eb9565b60405180910390fd5b612ab181612c50565b50565b60007f01ffc9a7000000000000000000000000000000000000000000000000000000007bffffffffffffffffffffffffffffffffffffffffffffffffffffffff1916827bffffffffffffffffffffffffffffffffffffffffffffffffffffffff1916149050919050565b600033905090565b612ba9846323b872dd60e01b858585604051602401612b4793929190613bbf565b604051602081830303815290604052907bffffffffffffffffffffffffffffffffffffffffffffffffffffffff19166020820180517bffffffffffffffffffffffffffffffffffffffffffffffffffffffff8381831617835250505050612db7565b50505050565b612bb7611904565b612bf6576040517f08c379a0000000000000000000000000000000000000000000000000000000008152600401612bed90613e39565b60405180910390fd5b60008060006101000a81548160ff0219169083151502179055507f5db9ee0a495bf2e6ff9c91a7834c1ba4fdd244a5e8aa4e537bd38aeae4b073aa612c39612b1e565b604051612c469190613ba4565b60405180910390a1565b60008060019054906101000a900473ffffffffffffffffffffffffffffffffffffffff16905081600060016101000a81548173ffffffffffffffffffffffffffffffffffffffff021916908373ffffffffffffffffffffffffffffffffffffffff1602179055508173ffffffffffffffffffffffffffffffffffffffff168173ffffffffffffffffffffffffffffffffffffffff167f8be0079c531659141344cd1fd0a4f28419497f9722a3daafe3b4186f6b6457e060405160405180910390a35050565b612d1d611904565b15612d5d576040517f08c379a0000000000000000000000000000000000000000000000000000000008152600401612d5490613ef9565b60405180910390fd5b60016000806101000a81548160ff0219169083151502179055507f62e78cea01bee320cd4e420270b5ea74000d11b0c9f74754ebdbfc544b05a258612da0612b1e565b604051612dad9190613ba4565b60405180910390a1565b6000612e19826040518060400160405280602081526020017f5361666545524332303a206c6f772d6c6576656c2063616c6c206661696c65648152508573ffffffffffffffffffffffffffffffffffffffff16612e7e9092919063ffffffff16565b9050600081511115612e795780806020019051810190612e39919061348d565b612e78576040517f08c379a0000000000000000000000000000000000000000000000000000000008152600401612e6f90613ff9565b60405180910390fd5b5b505050565b6060612e8d8484600085612e96565b90509392505050565b606082471015612edb576040517f08c379a0000000000000000000000000000000000000000000000000000000008152600401612ed290613ed9565b60405180910390fd5b612ee485612faa565b612f23576040517f08c379a0000000000000000000000000000000000000000000000000000000008152600401612f1a90613f99565b60405180910390fd5b6000808673ffffffffffffffffffffffffffffffffffffffff168587604051612f4c9190613b8d565b60006040518083038185875af1925050503d8060008114612f89576040519150601f19603f3d011682016040523d82523d6000602084013e612f8e565b606091505b5091509150612f9e828286612fcd565b92505050949350505050565b6000808273ffffffffffffffffffffffffffffffffffffffff163b119050919050565b60608315612fdd5782905061302d565b600083511115612ff05782518084602001fd5b816040517f08c379a00000000000000000000000000000000000000000000000000000000081526004016130249190613dab565b60405180910390fd5b9392505050565b600061304761304284614180565b61415b565b9050808382526020820190508285602086028201111561306a576130696144cf565b5b60005b8581101561309a57816130808882613287565b84526020840193506020830192505060018101905061306d565b5050509392505050565b60006130b76130b2846141ac565b61415b565b9050828152602081018484840111156130d3576130d26144d4565b5b6130de8482856143ef565b509392505050565b60006130f96130f4846141dd565b61415b565b905082815260208101848484011115613115576131146144d4565b5b6131208482856143ef565b509392505050565b600081359050613137816149a4565b92915050565b600082601f830112613152576131516144c0565b5b8135613162848260208601613034565b91505092915050565b60008135905061317a816149bb565b92915050565b60008151905061318f816149bb565b92915050565b6000813590506131a4816149d2565b92915050565b600082601f8301126131bf576131be6144c0565b5b81356131cf8482602086016130a4565b91505092915050565b6000813590506131e7816149e9565b92915050565b600082601f830112613202576132016144c0565b5b81356132128482602086016130e6565b91505092915050565b600060408284031215613231576132306144c5565b5b61323b604061415b565b9050600082013567ffffffffffffffff81111561325b5761325a6144ca565b5b613267848285016131ed565b600083015250602061327b8482850161316b565b60208301525092915050565b60008135905061329681614a00565b92915050565b6000815190506132ab81614a00565b92915050565b6000602082840312156132c7576132c66144de565b5b60006132d584828501613128565b91505092915050565b600080600080600060a086880312156132fa576132f96144de565b5b600061330888828901613128565b955050602061331988828901613128565b945050604086013567ffffffffffffffff81111561333a576133396144d9565b5b6133468882890161313d565b935050606086013567ffffffffffffffff811115613367576133666144d9565b5b6133738882890161313d565b925050608086013567ffffffffffffffff811115613394576133936144d9565b5b6133a0888289016131aa565b9150509295509295909350565b600080600080600060a086880312156133c9576133c86144de565b5b60006133d788828901613128565b95505060206133e888828901613128565b94505060406133f988828901613287565b935050606061340a88828901613287565b925050608086013567ffffffffffffffff81111561342b5761342a6144d9565b5b613437888289016131aa565b9150509295509295909350565b60006020828403121561345a576134596144de565b5b600082013567ffffffffffffffff811115613478576134776144d9565b5b6134848482850161313d565b91505092915050565b6000602082840312156134a3576134a26144de565b5b60006134b184828501613180565b91505092915050565b6000602082840312156134d0576134cf6144de565b5b60006134de84828501613195565b91505092915050565b6000602082840312156134fd576134fc6144de565b5b600061350b848285016131d8565b91505092915050565b60008060006060848603121561352d5761352c6144de565b5b600084013567ffffffffffffffff81111561354b5761354a6144d9565b5b6135578682870161321b565b935050602061356886828701613287565b925050604061357986828701613287565b9150509250925092565b600060208284031215613599576135986144de565b5b60006135a784828501613287565b91505092915050565b6000602082840312156135c6576135c56144de565b5b60006135d48482850161329c565b91505092915050565b600080604083850312156135f4576135f36144de565b5b600061360285828601613287565b925050602061361385828601613128565b9150509250929050565b600080600060608486031215613636576136356144de565b5b600061364486828701613287565b935050602061365586828701613128565b925050604061366686828701613287565b9150509250925092565b60008060408385031215613687576136866144de565b5b600061369585828601613287565b92505060206136a685828601613287565b9150509250929050565b6000806000606084860312156136c9576136c86144de565b5b60006136d786828701613287565b93505060206136e886828701613287565b92505060406136f986828701613287565b9150509250925092565b600061370f8383613b6f565b60208301905092915050565b61372481614329565b82525050565b60006137358261421e565b61373f818561424c565b935061374a8361420e565b8060005b8381101561377b5781516137628882613703565b975061376d8361423f565b92505060018101905061374e565b5085935050505092915050565b6137918161433b565b82525050565b6137a08161433b565b82525050565b6137af81614347565b82525050565b6137be81614351565b82525050565b60006137cf82614229565b6137d9818561426e565b93506137e98185602086016143fe565b80840191505092915050565b6137fe816143b9565b82525050565b600061380f82614234565b6138198185614279565b93506138298185602086016143fe565b613832816144e3565b840191505092915050565b600061384882614234565b613852818561428a565b93506138628185602086016143fe565b61386b816144e3565b840191505092915050565b600061388360238361428a565b915061388e826144f4565b604082019050919050565b60006138a660148361428a565b91506138b182614543565b602082019050919050565b60006138c960238361428a565b91506138d48261456c565b604082019050919050565b60006138ec602c8361428a565b91506138f7826145bb565b604082019050919050565b600061390f601b8361428a565b915061391a8261460a565b602082019050919050565b600061393260268361428a565b915061393d82614633565b604082019050919050565b600061395560268361428a565b915061396082614682565b604082019050919050565b600061397860108361428a565b9150613983826146d1565b602082019050919050565b600061399b601a8361428a565b91506139a6826146fa565b602082019050919050565b60006139be602e8361428a565b91506139c982614723565b604082019050919050565b60006139e160208361428a565b91506139ec82614772565b602082019050919050565b6000613a0460268361428a565b9150613a0f8261479b565b604082019050919050565b6000613a2760008361425d565b9150613a32826147ea565b600082019050919050565b6000613a4a601d8361428a565b9150613a55826147ed565b602082019050919050565b6000613a6d601d8361428a565b9150613a7882614816565b602082019050919050565b6000613a9060308361428a565b9150613a9b8261483f565b604082019050919050565b6000613ab3602a8361428a565b9150613abe8261488e565b604082019050919050565b6000613ad6601f8361428a565b9150613ae1826148dd565b602082019050919050565b6000613af960248361428a565b9150613b0482614906565b604082019050919050565b6000613b1c602e8361428a565b9150613b2782614955565b604082019050919050565b60006040830160008301518482036000860152613b4f8282613804565b9150506020830151613b646020860182613788565b508091505092915050565b613b78816143af565b82525050565b613b87816143af565b82525050565b6000613b9982846137c4565b915081905092915050565b6000602082019050613bb9600083018461371b565b92915050565b6000606082019050613bd4600083018661371b565b613be1602083018561371b565b613bee6040830184613b7e565b949350505050565b6000608082019050613c0b600083018761371b565b613c18602083018661371b565b613c256040830185613b7e565b613c326060830184613b7e565b95945050505050565b600060a082019050613c50600083018761371b565b613c5d602083018661371b565b613c6a6040830185613b7e565b613c776060830184613b7e565b8181036080830152613c8881613a1a565b905095945050505050565b6000604082019050613ca8600083018561371b565b613cb56020830184613b7e565b9392505050565b60006020820190508181036000830152613cd6818461372a565b905092915050565b6000602082019050613cf36000830184613797565b92915050565b600060a082019050613d0e6000830188613797565b613d1b6020830187613b7e565b613d286040830186613b7e565b613d356060830185613b7e565b613d426080830184613b7e565b9695505050505050565b6000604082019050613d6160008301856137a6565b613d6e602083018461371b565b9392505050565b6000602082019050613d8a60008301846137b5565b92915050565b6000602082019050613da560008301846137f5565b92915050565b60006020820190508181036000830152613dc5818461383d565b905092915050565b60006080820190508181036000830152613de7818761383d565b9050613df66020830186613b7e565b613e036040830185613b7e565b613e10606083018461371b565b95945050505050565b60006020820190508181036000830152613e3281613876565b9050919050565b60006020820190508181036000830152613e5281613899565b9050919050565b60006020820190508181036000830152613e72816138bc565b9050919050565b60006020820190508181036000830152613e92816138df565b9050919050565b60006020820190508181036000830152613eb281613902565b9050919050565b60006020820190508181036000830152613ed281613925565b9050919050565b60006020820190508181036000830152613ef281613948565b9050919050565b60006020820190508181036000830152613f128161396b565b9050919050565b60006020820190508181036000830152613f328161398e565b9050919050565b60006020820190508181036000830152613f52816139b1565b9050919050565b60006020820190508181036000830152613f72816139d4565b9050919050565b60006020820190508181036000830152613f92816139f7565b9050919050565b60006020820190508181036000830152613fb281613a3d565b9050919050565b60006020820190508181036000830152613fd281613a60565b9050919050565b60006020820190508181036000830152613ff281613a83565b9050919050565b6000602082019050818103600083015261401281613aa6565b9050919050565b6000602082019050818103600083015261403281613ac9565b9050919050565b6000602082019050818103600083015261405281613aec565b9050919050565b6000602082019050818103600083015261407281613b0f565b9050919050565b600060208201905081810360008301526140938184613b32565b905092915050565b60006040820190506140b06000830185613b7e565b6140bd602083018461371b565b9392505050565b60006060820190506140d96000830186613b7e565b6140e6602083018561371b565b6140f36040830184613b7e565b949350505050565b60006040820190506141106000830185613b7e565b61411d6020830184613b7e565b9392505050565b60006060820190506141396000830186613b7e565b6141466020830185613b7e565b614153604083018461371b565b949350505050565b6000614165614176565b90506141718282614431565b919050565b6000604051905090565b600067ffffffffffffffff82111561419b5761419a614491565b5b602082029050602081019050919050565b600067ffffffffffffffff8211156141c7576141c6614491565b5b6141d0826144e3565b9050602081019050919050565b600067ffffffffffffffff8211156141f8576141f7614491565b5b614201826144e3565b9050602081019050919050565b6000819050602082019050919050565b600081519050919050565b600081519050919050565b600081519050919050565b6000602082019050919050565b600082825260208201905092915050565b600082825260208201905092915050565b600081905092915050565b600082825260208201905092915050565b600082825260208201905092915050565b60006142a6826143af565b91506142b1836143af565b9250817fffffffffffffffffffffffffffffffffffffffffffffffffffffffffffffffff04831182151516156142ea576142e9614462565b5b828202905092915050565b6000614300826143af565b915061430b836143af565b92508282101561431e5761431d614462565b5b828203905092915050565b60006143348261438f565b9050919050565b60008115159050919050565b6000819050919050565b60007fffffffff0000000000000000000000000000000000000000000000000000000082169050919050565b600061438882614329565b9050919050565b600073ffffffffffffffffffffffffffffffffffffffff82169050919050565b6000819050919050565b60006143c4826143cb565b9050919050565b60006143d6826143dd565b9050919050565b60006143e88261438f565b9050919050565b82818337600083830152505050565b60005b8381101561441c578082015181840152602081019050614401565b8381111561442b576000848401525b50505050565b61443a826144e3565b810181811067ffffffffffffffff8211171561445957614458614491565b5b80604052505050565b7f4e487b7100000000000000000000000000000000000000000000000000000000600052601160045260246000fd5b7f4e487b7100000000000000000000000000000000000000000000000000000000600052604160045260246000fd5b600080fd5b600080fd5b600080fd5b600080fd5b600080fd5b600080fd5b600080fd5b6000601f19601f8301169050919050565b7f4d61726b6574706c6163653a207072696365206d757374206e6f74206265207a60008201527f65726f0000000000000000000000000000000000000000000000000000000000602082015250565b7f5061757361626c653a206e6f7420706175736564000000000000000000000000600082015250565b7f4d61726b6574706c6163653a204974656d20697320616c7265616479206c697360008201527f7465640000000000000000000000000000000000000000000000000000000000602082015250565b7f4d61726b6574706c6163653a2053616c6520696e6163746976617465206f722060008201527f616c726561647920736f6c640000000000000000000000000000000000000000602082015250565b7f4d61726b6574706c6163653a20616d6f756e74206973207a65726f0000000000600082015250565b7f4f776e61626c653a206e6577206f776e657220697320746865207a65726f206160008201527f6464726573730000000000000000000000000000000000000000000000000000602082015250565b7f416464726573733a20696e73756666696369656e742062616c616e636520666f60008201527f722063616c6c0000000000000000000000000000000000000000000000000000602082015250565b7f5061757361626c653a2070617573656400000000000000000000000000000000600082015250565b7f4d61726b6574706c6163653a207072696365206973207a65726f000000000000600082015250565b7f4d61726b6574706c6163653a204f6e6c792061646d696e2063616e2063616c6c60008201527f20746869732066756e6374696f6e000000000000000000000000000000000000602082015250565b7f4f776e61626c653a2063616c6c6572206973206e6f7420746865206f776e6572600082015250565b7f4d61726b6574706c6163653a204e6f7420656e6f75676820616d6f756e74207460008201527f6f2073656c6c0000000000000000000000000000000000000000000000000000602082015250565b50565b7f416464726573733a2063616c6c20746f206e6f6e2d636f6e7472616374000000600082015250565b7f4d61726b6574706c6163653a206f776e65722063616e6e6f7420627579000000600082015250565b7f4d61726b6574706c6163653a204f6e6c792073747564656e742063616e20636160008201527f6c6c20746869732066756e6374696f6e00000000000000000000000000000000602082015250565b7f5361666545524332303a204552433230206f7065726174696f6e20646964206e60008201527f6f74207375636365656400000000000000000000000000000000000000000000602082015250565b7f5265656e7472616e637947756172643a207265656e7472616e742063616c6c00600082015250565b7f4d61726b6574706c6163653a20616d6f756e74206d757374206e6f742062652060008201527f7a65726f00000000000000000000000000000000000000000000000000000000602082015250565b7f4d61726b6574706c6163653a2042616c616e6365206f66206974656d73206c6560008201527f7373207468616e20616d6f756e74000000000000000000000000000000000000602082015250565b6149ad81614329565b81146149b857600080fd5b50565b6149c48161433b565b81146149cf57600080fd5b50565b6149db81614351565b81146149e657600080fd5b50565b6149f28161437d565b81146149fd57600080fd5b50565b614a09816143af565b8114614a1457600080fd5b5056fea26469706673582212200fe6222a3f9ee0969859592d8f3685714a4fb1db2068ece5472b404f5daa1c3d64736f6c63430008070033",
			"opcodes": "PUSH1 0xE0 PUSH1 0x40 MSTORE CALLVALUE DUP1 ISZERO PUSH3 0x11 JUMPI PUSH1 0x0 DUP1 REVERT JUMPDEST POP PUSH1 0x40 MLOAD PUSH3 0x52BE CODESIZE SUB DUP1 PUSH3 0x52BE DUP4 CODECOPY DUP2 DUP2 ADD PUSH1 0x40 MSTORE DUP2 ADD SWAP1 PUSH3 0x37 SWAP2 SWAP1 PUSH3 0x471 JUMP JUMPDEST PUSH1 0x0 DUP1 PUSH1 0x0 PUSH2 0x100 EXP DUP2 SLOAD DUP2 PUSH1 0xFF MUL NOT AND SWAP1 DUP4 ISZERO ISZERO MUL OR SWAP1 SSTORE POP PUSH3 0x71 PUSH3 0x65 PUSH3 0x376 PUSH1 0x20 SHL PUSH1 0x20 SHR JUMP JUMPDEST PUSH3 0x37E PUSH1 0x20 SHL PUSH1 0x20 SHR JUMP JUMPDEST PUSH1 0x1 DUP1 DUP2 SWAP1 SSTORE POP PUSH1 0x0 PUSH20 0xFFFFFFFFFFFFFFFFFFFFFFFFFFFFFFFFFFFFFFFF AND DUP6 PUSH20 0xFFFFFFFFFFFFFFFFFFFFFFFFFFFFFFFFFFFFFFFF AND EQ ISZERO PUSH3 0xEB JUMPI PUSH1 0x40 MLOAD PUSH32 0x8C379A000000000000000000000000000000000000000000000000000000000 DUP2 MSTORE PUSH1 0x4 ADD PUSH3 0xE2 SWAP1 PUSH3 0x595 JUMP JUMPDEST PUSH1 0x40 MLOAD DUP1 SWAP2 SUB SWAP1 REVERT JUMPDEST PUSH1 0x0 PUSH20 0xFFFFFFFFFFFFFFFFFFFFFFFFFFFFFFFFFFFFFFFF AND DUP5 PUSH20 0xFFFFFFFFFFFFFFFFFFFFFFFFFFFFFFFFFFFFFFFF AND EQ ISZERO PUSH3 0x15E JUMPI PUSH1 0x40 MLOAD PUSH32 0x8C379A000000000000000000000000000000000000000000000000000000000 DUP2 MSTORE PUSH1 0x4 ADD PUSH3 0x155 SWAP1 PUSH3 0x5D9 JUMP JUMPDEST PUSH1 0x40 MLOAD DUP1 SWAP2 SUB SWAP1 REVERT JUMPDEST PUSH1 0x0 PUSH20 0xFFFFFFFFFFFFFFFFFFFFFFFFFFFFFFFFFFFFFFFF AND DUP4 PUSH20 0xFFFFFFFFFFFFFFFFFFFFFFFFFFFFFFFFFFFFFFFF AND EQ ISZERO PUSH3 0x1D1 JUMPI PUSH1 0x40 MLOAD PUSH32 0x8C379A000000000000000000000000000000000000000000000000000000000 DUP2 MSTORE PUSH1 0x4 ADD PUSH3 0x1C8 SWAP1 PUSH3 0x5B7 JUMP JUMPDEST PUSH1 0x40 MLOAD DUP1 SWAP2 SUB SWAP1 REVERT JUMPDEST PUSH1 0x0 PUSH20 0xFFFFFFFFFFFFFFFFFFFFFFFFFFFFFFFFFFFFFFFF AND DUP3 PUSH20 0xFFFFFFFFFFFFFFFFFFFFFFFFFFFFFFFFFFFFFFFF AND EQ ISZERO PUSH3 0x244 JUMPI PUSH1 0x40 MLOAD PUSH32 0x8C379A000000000000000000000000000000000000000000000000000000000 DUP2 MSTORE PUSH1 0x4 ADD PUSH3 0x23B SWAP1 PUSH3 0x5FB JUMP JUMPDEST PUSH1 0x40 MLOAD DUP1 SWAP2 SUB SWAP1 REVERT JUMPDEST DUP5 PUSH1 0x2 PUSH1 0x0 PUSH2 0x100 EXP DUP2 SLOAD DUP2 PUSH20 0xFFFFFFFFFFFFFFFFFFFFFFFFFFFFFFFFFFFFFFFF MUL NOT AND SWAP1 DUP4 PUSH20 0xFFFFFFFFFFFFFFFFFFFFFFFFFFFFFFFFFFFFFFFF AND MUL OR SWAP1 SSTORE POP DUP4 PUSH20 0xFFFFFFFFFFFFFFFFFFFFFFFFFFFFFFFFFFFFFFFF AND PUSH1 0x80 DUP2 PUSH20 0xFFFFFFFFFFFFFFFFFFFFFFFFFFFFFFFFFFFFFFFF AND PUSH1 0x60 SHL DUP2 MSTORE POP POP DUP3 PUSH20 0xFFFFFFFFFFFFFFFFFFFFFFFFFFFFFFFFFFFFFFFF AND PUSH1 0xA0 DUP2 PUSH20 0xFFFFFFFFFFFFFFFFFFFFFFFFFFFFFFFFFFFFFFFF AND PUSH1 0x60 SHL DUP2 MSTORE POP POP DUP2 PUSH20 0xFFFFFFFFFFFFFFFFFFFFFFFFFFFFFFFFFFFFFFFF AND PUSH1 0xC0 DUP2 PUSH20 0xFFFFFFFFFFFFFFFFFFFFFFFFFFFFFFFFFFFFFFFF AND PUSH1 0x60 SHL DUP2 MSTORE POP POP DUP1 PUSH1 0x3 PUSH1 0x0 PUSH2 0x100 EXP DUP2 SLOAD DUP2 PUSH20 0xFFFFFFFFFFFFFFFFFFFFFFFFFFFFFFFFFFFFFFFF MUL NOT AND SWAP1 DUP4 PUSH20 0xFFFFFFFFFFFFFFFFFFFFFFFFFFFFFFFFFFFFFFFF AND MUL OR SWAP1 SSTORE POP POP POP POP POP POP PUSH3 0x7EB JUMP JUMPDEST PUSH1 0x0 CALLER SWAP1 POP SWAP1 JUMP JUMPDEST PUSH1 0x0 DUP1 PUSH1 0x1 SWAP1 SLOAD SWAP1 PUSH2 0x100 EXP SWAP1 DIV PUSH20 0xFFFFFFFFFFFFFFFFFFFFFFFFFFFFFFFFFFFFFFFF AND SWAP1 POP DUP2 PUSH1 0x0 PUSH1 0x1 PUSH2 0x100 EXP DUP2 SLOAD DUP2 PUSH20 0xFFFFFFFFFFFFFFFFFFFFFFFFFFFFFFFFFFFFFFFF MUL NOT AND SWAP1 DUP4 PUSH20 0xFFFFFFFFFFFFFFFFFFFFFFFFFFFFFFFFFFFFFFFF AND MUL OR SWAP1 SSTORE POP DUP2 PUSH20 0xFFFFFFFFFFFFFFFFFFFFFFFFFFFFFFFFFFFFFFFF AND DUP2 PUSH20 0xFFFFFFFFFFFFFFFFFFFFFFFFFFFFFFFFFFFFFFFF AND PUSH32 0x8BE0079C531659141344CD1FD0A4F28419497F9722A3DAAFE3B4186F6B6457E0 PUSH1 0x40 MLOAD PUSH1 0x40 MLOAD DUP1 SWAP2 SUB SWAP1 LOG3 POP POP JUMP JUMPDEST PUSH1 0x0 DUP2 MLOAD SWAP1 POP PUSH3 0x454 DUP2 PUSH3 0x7B7 JUMP JUMPDEST SWAP3 SWAP2 POP POP JUMP JUMPDEST PUSH1 0x0 DUP2 MLOAD SWAP1 POP PUSH3 0x46B DUP2 PUSH3 0x7D1 JUMP JUMPDEST SWAP3 SWAP2 POP POP JUMP JUMPDEST PUSH1 0x0 DUP1 PUSH1 0x0 DUP1 PUSH1 0x0 PUSH1 0xA0 DUP7 DUP9 SUB SLT ISZERO PUSH3 0x490 JUMPI PUSH3 0x48F PUSH3 0x676 JUMP JUMPDEST JUMPDEST PUSH1 0x0 PUSH3 0x4A0 DUP9 DUP3 DUP10 ADD PUSH3 0x443 JUMP JUMPDEST SWAP6 POP POP PUSH1 0x20 PUSH3 0x4B3 DUP9 DUP3 DUP10 ADD PUSH3 0x443 JUMP JUMPDEST SWAP5 POP POP PUSH1 0x40 PUSH3 0x4C6 DUP9 DUP3 DUP10 ADD PUSH3 0x443 JUMP JUMPDEST SWAP4 POP POP PUSH1 0x60 PUSH3 0x4D9 DUP9 DUP3 DUP10 ADD PUSH3 0x443 JUMP JUMPDEST SWAP3 POP POP PUSH1 0x80 PUSH3 0x4EC DUP9 DUP3 DUP10 ADD PUSH3 0x45A JUMP JUMPDEST SWAP2 POP POP SWAP3 SWAP6 POP SWAP3 SWAP6 SWAP1 SWAP4 POP JUMP JUMPDEST PUSH1 0x0 PUSH3 0x508 PUSH1 0x30 DUP4 PUSH3 0x61D JUMP JUMPDEST SWAP2 POP PUSH3 0x515 DUP3 PUSH3 0x67B JUMP JUMPDEST PUSH1 0x40 DUP3 ADD SWAP1 POP SWAP2 SWAP1 POP JUMP JUMPDEST PUSH1 0x0 PUSH3 0x52F PUSH1 0x2D DUP4 PUSH3 0x61D JUMP JUMPDEST SWAP2 POP PUSH3 0x53C DUP3 PUSH3 0x6CA JUMP JUMPDEST PUSH1 0x40 DUP3 ADD SWAP1 POP SWAP2 SWAP1 POP JUMP JUMPDEST PUSH1 0x0 PUSH3 0x556 PUSH1 0x2B DUP4 PUSH3 0x61D JUMP JUMPDEST SWAP2 POP PUSH3 0x563 DUP3 PUSH3 0x719 JUMP JUMPDEST PUSH1 0x40 DUP3 ADD SWAP1 POP SWAP2 SWAP1 POP JUMP JUMPDEST PUSH1 0x0 PUSH3 0x57D PUSH1 0x34 DUP4 PUSH3 0x61D JUMP JUMPDEST SWAP2 POP PUSH3 0x58A DUP3 PUSH3 0x768 JUMP JUMPDEST PUSH1 0x40 DUP3 ADD SWAP1 POP SWAP2 SWAP1 POP JUMP JUMPDEST PUSH1 0x0 PUSH1 0x20 DUP3 ADD SWAP1 POP DUP2 DUP2 SUB PUSH1 0x0 DUP4 ADD MSTORE PUSH3 0x5B0 DUP2 PUSH3 0x4F9 JUMP JUMPDEST SWAP1 POP SWAP2 SWAP1 POP JUMP JUMPDEST PUSH1 0x0 PUSH1 0x20 DUP3 ADD SWAP1 POP DUP2 DUP2 SUB PUSH1 0x0 DUP4 ADD MSTORE PUSH3 0x5D2 DUP2 PUSH3 0x520 JUMP JUMPDEST SWAP1 POP SWAP2 SWAP1 POP JUMP JUMPDEST PUSH1 0x0 PUSH1 0x20 DUP3 ADD SWAP1 POP DUP2 DUP2 SUB PUSH1 0x0 DUP4 ADD MSTORE PUSH3 0x5F4 DUP2 PUSH3 0x547 JUMP JUMPDEST SWAP1 POP SWAP2 SWAP1 POP JUMP JUMPDEST PUSH1 0x0 PUSH1 0x20 DUP3 ADD SWAP1 POP DUP2 DUP2 SUB PUSH1 0x0 DUP4 ADD MSTORE PUSH3 0x616 DUP2 PUSH3 0x56E JUMP JUMPDEST SWAP1 POP SWAP2 SWAP1 POP JUMP JUMPDEST PUSH1 0x0 DUP3 DUP3 MSTORE PUSH1 0x20 DUP3 ADD SWAP1 POP SWAP3 SWAP2 POP POP JUMP JUMPDEST PUSH1 0x0 PUSH3 0x63B DUP3 PUSH3 0x656 JUMP JUMPDEST SWAP1 POP SWAP2 SWAP1 POP JUMP JUMPDEST PUSH1 0x0 PUSH3 0x64F DUP3 PUSH3 0x62E JUMP JUMPDEST SWAP1 POP SWAP2 SWAP1 POP JUMP JUMPDEST PUSH1 0x0 PUSH20 0xFFFFFFFFFFFFFFFFFFFFFFFFFFFFFFFFFFFFFFFF DUP3 AND SWAP1 POP SWAP2 SWAP1 POP JUMP JUMPDEST PUSH1 0x0 DUP1 REVERT JUMPDEST PUSH32 0x4D61726B6574706C6163653A2041636365737320636F6E74726F6C20636F6E74 PUSH1 0x0 DUP3 ADD MSTORE PUSH32 0x726163742063616E6E6F74206265203000000000000000000000000000000000 PUSH1 0x20 DUP3 ADD MSTORE POP JUMP JUMPDEST PUSH32 0x4D61726B6574706C6163653A205549544E46546F6B656E206D757374206E6F74 PUSH1 0x0 DUP3 ADD MSTORE PUSH32 0x2062652061646472657373203000000000000000000000000000000000000000 PUSH1 0x20 DUP3 ADD MSTORE POP JUMP JUMPDEST PUSH32 0x4D61726B6574706C6163653A20554954546F6B656E206D757374206E6F742062 PUSH1 0x0 DUP3 ADD MSTORE PUSH32 0x6520616464726573732030000000000000000000000000000000000000000000 PUSH1 0x20 DUP3 ADD MSTORE POP JUMP JUMPDEST PUSH32 0x4D61726B6574706C6163653A205265776172644469737472696275746F72206D PUSH1 0x0 DUP3 ADD MSTORE PUSH32 0x757374206E6F7420626520616464726573732030000000000000000000000000 PUSH1 0x20 DUP3 ADD MSTORE POP JUMP JUMPDEST PUSH3 0x7C2 DUP2 PUSH3 0x62E JUMP JUMPDEST DUP2 EQ PUSH3 0x7CE JUMPI PUSH1 0x0 DUP1 REVERT JUMPDEST POP JUMP JUMPDEST PUSH3 0x7DC DUP2 PUSH3 0x642 JUMP JUMPDEST DUP2 EQ PUSH3 0x7E8 JUMPI PUSH1 0x0 DUP1 REVERT JUMPDEST POP JUMP JUMPDEST PUSH1 0x80 MLOAD PUSH1 0x60 SHR PUSH1 0xA0 MLOAD PUSH1 0x60 SHR PUSH1 0xC0 MLOAD PUSH1 0x60 SHR PUSH2 0x4A4D PUSH3 0x871 PUSH1 0x0 CODECOPY PUSH1 0x0 DUP2 DUP2 PUSH2 0x129A ADD MSTORE PUSH2 0x1E0E ADD MSTORE PUSH1 0x0 DUP2 DUP2 PUSH2 0xA5E ADD MSTORE DUP2 DUP2 PUSH2 0xD3C ADD MSTORE DUP2 DUP2 PUSH2 0x1303 ADD MSTORE DUP2 DUP2 PUSH2 0x13E4 ADD MSTORE DUP2 DUP2 PUSH2 0x14EC ADD MSTORE DUP2 DUP2 PUSH2 0x1808 ADD MSTORE DUP2 DUP2 PUSH2 0x25BE ADD MSTORE PUSH2 0x264B ADD MSTORE PUSH1 0x0 DUP2 DUP2 PUSH2 0x117D ADD MSTORE DUP2 DUP2 PUSH2 0x12BC ADD MSTORE DUP2 DUP2 PUSH2 0x139D ADD MSTORE PUSH2 0x14C8 ADD MSTORE PUSH2 0x4A4D PUSH1 0x0 RETURN INVALID PUSH1 0x80 PUSH1 0x40 MSTORE CALLVALUE DUP1 ISZERO PUSH2 0x10 JUMPI PUSH1 0x0 DUP1 REVERT JUMPDEST POP PUSH1 0x4 CALLDATASIZE LT PUSH2 0x18E JUMPI PUSH1 0x0 CALLDATALOAD PUSH1 0xE0 SHR DUP1 PUSH4 0x82367B2D GT PUSH2 0xDE JUMPI DUP1 PUSH4 0xBC197C81 GT PUSH2 0x97 JUMPI DUP1 PUSH4 0xCB361428 GT PUSH2 0x71 JUMPI DUP1 PUSH4 0xCB361428 EQ PUSH2 0x413 JUMPI DUP1 PUSH4 0xEE4A2369 EQ PUSH2 0x42F JUMPI DUP1 PUSH4 0xF23A6E61 EQ PUSH2 0x44B JUMPI DUP1 PUSH4 0xF2FDE38B EQ PUSH2 0x47B JUMPI PUSH2 0x18E JUMP JUMPDEST DUP1 PUSH4 0xBC197C81 EQ PUSH2 0x3AB JUMPI DUP1 PUSH4 0xC1F7F0F5 EQ PUSH2 0x3DB JUMPI DUP1 PUSH4 0xC949CF7D EQ PUSH2 0x3F7 JUMPI PUSH2 0x18E JUMP JUMPDEST DUP1 PUSH4 0x82367B2D EQ PUSH2 0x2F9 JUMPI DUP1 PUSH4 0x8456CB59 EQ PUSH2 0x315 JUMPI DUP1 PUSH4 0x847261EF EQ PUSH2 0x31F JUMPI DUP1 PUSH4 0x8DA5CB5B EQ PUSH2 0x33B JUMPI DUP1 PUSH4 0xACC2166A EQ PUSH2 0x359 JUMPI DUP1 PUSH4 0xB46878CA EQ PUSH2 0x377 JUMPI PUSH2 0x18E JUMP JUMPDEST DUP1 PUSH4 0x2FE7A96D GT PUSH2 0x14B JUMPI DUP1 PUSH4 0x43BE2D03 GT PUSH2 0x125 JUMPI DUP1 PUSH4 0x43BE2D03 EQ PUSH2 0x297 JUMPI DUP1 PUSH4 0x547AEE0C EQ PUSH2 0x2B3 JUMPI DUP1 PUSH4 0x5C975ABB EQ PUSH2 0x2D1 JUMPI DUP1 PUSH4 0x715018A6 EQ PUSH2 0x2EF JUMPI PUSH2 0x18E JUMP JUMPDEST DUP1 PUSH4 0x2FE7A96D EQ PUSH2 0x251 JUMPI DUP1 PUSH4 0x3B88699B EQ PUSH2 0x26F JUMPI DUP1 PUSH4 0x3F4BA83A EQ PUSH2 0x28D JUMPI PUSH2 0x18E JUMP JUMPDEST DUP1 PUSH4 0x1FFC9A7 EQ PUSH2 0x193 JUMPI DUP1 PUSH4 0xDCD0C20 EQ PUSH2 0x1C3 JUMPI DUP1 PUSH4 0x13007D55 EQ PUSH2 0x1DF JUMPI DUP1 PUSH4 0x19129E5A EQ PUSH2 0x1FD JUMPI DUP1 PUSH4 0x19AEB490 EQ PUSH2 0x219 JUMPI DUP1 PUSH4 0x2AFACA20 EQ PUSH2 0x235 JUMPI JUMPDEST PUSH1 0x0 DUP1 REVERT JUMPDEST PUSH2 0x1AD PUSH1 0x4 DUP1 CALLDATASIZE SUB DUP2 ADD SWAP1 PUSH2 0x1A8 SWAP2 SWAP1 PUSH2 0x34BA JUMP JUMPDEST PUSH2 0x497 JUMP JUMPDEST PUSH1 0x40 MLOAD PUSH2 0x1BA SWAP2 SWAP1 PUSH2 0x3CDE JUMP JUMPDEST PUSH1 0x40 MLOAD DUP1 SWAP2 SUB SWAP1 RETURN JUMPDEST PUSH2 0x1DD PUSH1 0x4 DUP1 CALLDATASIZE SUB DUP2 ADD SWAP1 PUSH2 0x1D8 SWAP2 SWAP1 PUSH2 0x3670 JUMP JUMPDEST PUSH2 0x511 JUMP JUMPDEST STOP JUMPDEST PUSH2 0x1E7 PUSH2 0x74D JUMP JUMPDEST PUSH1 0x40 MLOAD PUSH2 0x1F4 SWAP2 SWAP1 PUSH2 0x3BA4 JUMP JUMPDEST PUSH1 0x40 MLOAD DUP1 SWAP2 SUB SWAP1 RETURN JUMPDEST PUSH2 0x217 PUSH1 0x4 DUP1 CALLDATASIZE SUB DUP2 ADD SWAP1 PUSH2 0x212 SWAP2 SWAP1 PUSH2 0x32B1 JUMP JUMPDEST PUSH2 0x773 JUMP JUMPDEST STOP JUMPDEST PUSH2 0x233 PUSH1 0x4 DUP1 CALLDATASIZE SUB DUP2 ADD SWAP1 PUSH2 0x22E SWAP2 SWAP1 PUSH2 0x36B0 JUMP JUMPDEST PUSH2 0x833 JUMP JUMPDEST STOP JUMPDEST PUSH2 0x24F PUSH1 0x4 DUP1 CALLDATASIZE SUB DUP2 ADD SWAP1 PUSH2 0x24A SWAP2 SWAP1 PUSH2 0x361D JUMP JUMPDEST PUSH2 0xE14 JUMP JUMPDEST STOP JUMPDEST PUSH2 0x259 PUSH2 0x14C6 JUMP JUMPDEST PUSH1 0x40 MLOAD PUSH2 0x266 SWAP2 SWAP1 PUSH2 0x3BA4 JUMP JUMPDEST PUSH1 0x40 MLOAD DUP1 SWAP2 SUB SWAP1 RETURN JUMPDEST PUSH2 0x277 PUSH2 0x14EA JUMP JUMPDEST PUSH1 0x40 MLOAD PUSH2 0x284 SWAP2 SWAP1 PUSH2 0x3BA4 JUMP JUMPDEST PUSH1 0x40 MLOAD DUP1 SWAP2 SUB SWAP1 RETURN JUMPDEST PUSH2 0x295 PUSH2 0x150E JUMP JUMPDEST STOP JUMPDEST PUSH2 0x2B1 PUSH1 0x4 DUP1 CALLDATASIZE SUB DUP2 ADD SWAP1 PUSH2 0x2AC SWAP2 SWAP1 PUSH2 0x3583 JUMP JUMPDEST PUSH2 0x1594 JUMP JUMPDEST STOP JUMPDEST PUSH2 0x2BB PUSH2 0x18DE JUMP JUMPDEST PUSH1 0x40 MLOAD PUSH2 0x2C8 SWAP2 SWAP1 PUSH2 0x3D90 JUMP JUMPDEST PUSH1 0x40 MLOAD DUP1 SWAP2 SUB SWAP1 RETURN JUMPDEST PUSH2 0x2D9 PUSH2 0x1904 JUMP JUMPDEST PUSH1 0x40 MLOAD PUSH2 0x2E6 SWAP2 SWAP1 PUSH2 0x3CDE JUMP JUMPDEST PUSH1 0x40 MLOAD DUP1 SWAP2 SUB SWAP1 RETURN JUMPDEST PUSH2 0x2F7 PUSH2 0x191A JUMP JUMPDEST STOP JUMPDEST PUSH2 0x313 PUSH1 0x4 DUP1 CALLDATASIZE SUB DUP2 ADD SWAP1 PUSH2 0x30E SWAP2 SWAP1 PUSH2 0x3670 JUMP JUMPDEST PUSH2 0x19A2 JUMP JUMPDEST STOP JUMPDEST PUSH2 0x31D PUSH2 0x1B24 JUMP JUMPDEST STOP JUMPDEST PUSH2 0x339 PUSH1 0x4 DUP1 CALLDATASIZE SUB DUP2 ADD SWAP1 PUSH2 0x334 SWAP2 SWAP1 PUSH2 0x3444 JUMP JUMPDEST PUSH2 0x1BAA JUMP JUMPDEST STOP JUMPDEST PUSH2 0x343 PUSH2 0x1DE3 JUMP JUMPDEST PUSH1 0x40 MLOAD PUSH2 0x350 SWAP2 SWAP1 PUSH2 0x3BA4 JUMP JUMPDEST PUSH1 0x40 MLOAD DUP1 SWAP2 SUB SWAP1 RETURN JUMPDEST PUSH2 0x361 PUSH2 0x1E0C JUMP JUMPDEST PUSH1 0x40 MLOAD PUSH2 0x36E SWAP2 SWAP1 PUSH2 0x3BA4 JUMP JUMPDEST PUSH1 0x40 MLOAD DUP1 SWAP2 SUB SWAP1 RETURN JUMPDEST PUSH2 0x391 PUSH1 0x4 DUP1 CALLDATASIZE SUB DUP2 ADD SWAP1 PUSH2 0x38C SWAP2 SWAP1 PUSH2 0x35DD JUMP JUMPDEST PUSH2 0x1E30 JUMP JUMPDEST PUSH1 0x40 MLOAD PUSH2 0x3A2 SWAP6 SWAP5 SWAP4 SWAP3 SWAP2 SWAP1 PUSH2 0x3CF9 JUMP JUMPDEST PUSH1 0x40 MLOAD DUP1 SWAP2 SUB SWAP1 RETURN JUMPDEST PUSH2 0x3C5 PUSH1 0x4 DUP1 CALLDATASIZE SUB DUP2 ADD SWAP1 PUSH2 0x3C0 SWAP2 SWAP1 PUSH2 0x32DE JUMP JUMPDEST PUSH2 0x1E80 JUMP JUMPDEST PUSH1 0x40 MLOAD PUSH2 0x3D2 SWAP2 SWAP1 PUSH2 0x3D75 JUMP JUMPDEST PUSH1 0x40 MLOAD DUP1 SWAP2 SUB SWAP1 RETURN JUMPDEST PUSH2 0x3F5 PUSH1 0x4 DUP1 CALLDATASIZE SUB DUP2 ADD SWAP1 PUSH2 0x3F0 SWAP2 SWAP1 PUSH2 0x3670 JUMP JUMPDEST PUSH2 0x1E95 JUMP JUMPDEST STOP JUMPDEST PUSH2 0x411 PUSH1 0x4 DUP1 CALLDATASIZE SUB DUP2 ADD SWAP1 PUSH2 0x40C SWAP2 SWAP1 PUSH2 0x3444 JUMP JUMPDEST PUSH2 0x215B JUMP JUMPDEST STOP JUMPDEST PUSH2 0x42D PUSH1 0x4 DUP1 CALLDATASIZE SUB DUP2 ADD SWAP1 PUSH2 0x428 SWAP2 SWAP1 PUSH2 0x3514 JUMP JUMPDEST PUSH2 0x2394 JUMP JUMPDEST STOP JUMPDEST PUSH2 0x449 PUSH1 0x4 DUP1 CALLDATASIZE SUB DUP2 ADD SWAP1 PUSH2 0x444 SWAP2 SWAP1 PUSH2 0x34E7 JUMP JUMPDEST PUSH2 0x28E7 JUMP JUMPDEST STOP JUMPDEST PUSH2 0x465 PUSH1 0x4 DUP1 CALLDATASIZE SUB DUP2 ADD SWAP1 PUSH2 0x460 SWAP2 SWAP1 PUSH2 0x33AD JUMP JUMPDEST PUSH2 0x29A7 JUMP JUMPDEST PUSH1 0x40 MLOAD PUSH2 0x472 SWAP2 SWAP1 PUSH2 0x3D75 JUMP JUMPDEST PUSH1 0x40 MLOAD DUP1 SWAP2 SUB SWAP1 RETURN JUMPDEST PUSH2 0x495 PUSH1 0x4 DUP1 CALLDATASIZE SUB DUP2 ADD SWAP1 PUSH2 0x490 SWAP2 SWAP1 PUSH2 0x32B1 JUMP JUMPDEST PUSH2 0x29BC JUMP JUMPDEST STOP JUMPDEST PUSH1 0x0 PUSH32 0x4E2312E000000000000000000000000000000000000000000000000000000000 PUSH28 0xFFFFFFFFFFFFFFFFFFFFFFFFFFFFFFFFFFFFFFFFFFFFFFFFFFFFFFFF NOT AND DUP3 PUSH28 0xFFFFFFFFFFFFFFFFFFFFFFFFFFFFFFFFFFFFFFFFFFFFFFFFFFFFFFFF NOT AND EQ DUP1 PUSH2 0x50A JUMPI POP PUSH2 0x509 DUP3 PUSH2 0x2AB4 JUMP JUMPDEST JUMPDEST SWAP1 POP SWAP2 SWAP1 POP JUMP JUMPDEST PUSH2 0x519 PUSH2 0x1904 JUMP JUMPDEST ISZERO PUSH2 0x559 JUMPI PUSH1 0x40 MLOAD PUSH32 0x8C379A000000000000000000000000000000000000000000000000000000000 DUP2 MSTORE PUSH1 0x4 ADD PUSH2 0x550 SWAP1 PUSH2 0x3EF9 JUMP JUMPDEST PUSH1 0x40 MLOAD DUP1 SWAP2 SUB SWAP1 REVERT JUMPDEST PUSH1 0x2 PUSH1 0x1 SLOAD EQ ISZERO PUSH2 0x59F JUMPI PUSH1 0x40 MLOAD PUSH32 0x8C379A000000000000000000000000000000000000000000000000000000000 DUP2 MSTORE PUSH1 0x4 ADD PUSH2 0x596 SWAP1 PUSH2 0x4019 JUMP JUMPDEST PUSH1 0x40 MLOAD DUP1 SWAP2 SUB SWAP1 REVERT JUMPDEST PUSH1 0x2 PUSH1 0x1 DUP2 SWAP1 SSTORE POP PUSH1 0x2 PUSH1 0x0 SWAP1 SLOAD SWAP1 PUSH2 0x100 EXP SWAP1 DIV PUSH20 0xFFFFFFFFFFFFFFFFFFFFFFFFFFFFFFFFFFFFFFFF AND PUSH20 0xFFFFFFFFFFFFFFFFFFFFFFFFFFFFFFFFFFFFFFFF AND PUSH4 0x91D14854 PUSH32 0xC951D7098B66BA0B8B77265B6E9CF0E187D73125A42BCD0061B09A68BE421810 CALLER PUSH1 0x40 MLOAD DUP4 PUSH4 0xFFFFFFFF AND PUSH1 0xE0 SHL DUP2 MSTORE PUSH1 0x4 ADD PUSH2 0x624 SWAP3 SWAP2 SWAP1 PUSH2 0x3D4C JUMP JUMPDEST PUSH1 0x20 PUSH1 0x40 MLOAD DUP1 DUP4 SUB DUP2 DUP7 DUP1 EXTCODESIZE ISZERO DUP1 ISZERO PUSH2 0x63C JUMPI PUSH1 0x0 DUP1 REVERT JUMPDEST POP GAS STATICCALL ISZERO DUP1 ISZERO PUSH2 0x650 JUMPI RETURNDATASIZE PUSH1 0x0 DUP1 RETURNDATACOPY RETURNDATASIZE PUSH1 0x0 REVERT JUMPDEST POP POP POP POP PUSH1 0x40 MLOAD RETURNDATASIZE PUSH1 0x1F NOT PUSH1 0x1F DUP3 ADD AND DUP3 ADD DUP1 PUSH1 0x40 MSTORE POP DUP2 ADD SWAP1 PUSH2 0x674 SWAP2 SWAP1 PUSH2 0x348D JUMP JUMPDEST PUSH2 0x6B3 JUMPI PUSH1 0x40 MLOAD PUSH32 0x8C379A000000000000000000000000000000000000000000000000000000000 DUP2 MSTORE PUSH1 0x4 ADD PUSH2 0x6AA SWAP1 PUSH2 0x3FD9 JUMP JUMPDEST PUSH1 0x40 MLOAD DUP1 SWAP2 SUB SWAP1 REVERT JUMPDEST PUSH1 0x3 PUSH1 0x0 SWAP1 SLOAD SWAP1 PUSH2 0x100 EXP SWAP1 DIV PUSH20 0xFFFFFFFFFFFFFFFFFFFFFFFFFFFFFFFFFFFFFFFF AND PUSH20 0xFFFFFFFFFFFFFFFFFFFFFFFFFFFFFFFFFFFFFFFF AND PUSH4 0xDCD0C20 DUP4 DUP4 PUSH1 0x40 MLOAD DUP4 PUSH4 0xFFFFFFFF AND PUSH1 0xE0 SHL DUP2 MSTORE PUSH1 0x4 ADD PUSH2 0x710 SWAP3 SWAP2 SWAP1 PUSH2 0x40FB JUMP JUMPDEST PUSH1 0x0 PUSH1 0x40 MLOAD DUP1 DUP4 SUB DUP2 PUSH1 0x0 DUP8 DUP1 EXTCODESIZE ISZERO DUP1 ISZERO PUSH2 0x72A JUMPI PUSH1 0x0 DUP1 REVERT JUMPDEST POP GAS CALL ISZERO DUP1 ISZERO PUSH2 0x73E JUMPI RETURNDATASIZE PUSH1 0x0 DUP1 RETURNDATACOPY RETURNDATASIZE PUSH1 0x0 REVERT JUMPDEST POP POP POP POP PUSH1 0x1 DUP1 DUP2 SWAP1 SSTORE POP POP POP JUMP JUMPDEST PUSH1 0x2 PUSH1 0x0 SWAP1 SLOAD SWAP1 PUSH2 0x100 EXP SWAP1 DIV PUSH20 0xFFFFFFFFFFFFFFFFFFFFFFFFFFFFFFFFFFFFFFFF AND DUP2 JUMP JUMPDEST PUSH2 0x77B PUSH2 0x2B1E JUMP JUMPDEST PUSH20 0xFFFFFFFFFFFFFFFFFFFFFFFFFFFFFFFFFFFFFFFF AND PUSH2 0x799 PUSH2 0x1DE3 JUMP JUMPDEST PUSH20 0xFFFFFFFFFFFFFFFFFFFFFFFFFFFFFFFFFFFFFFFF AND EQ PUSH2 0x7EF JUMPI PUSH1 0x40 MLOAD PUSH32 0x8C379A000000000000000000000000000000000000000000000000000000000 DUP2 MSTORE PUSH1 0x4 ADD PUSH2 0x7E6 SWAP1 PUSH2 0x3F59 JUMP JUMPDEST PUSH1 0x40 MLOAD DUP1 SWAP2 SUB SWAP1 REVERT JUMPDEST DUP1 PUSH1 0x2 PUSH1 0x0 PUSH2 0x100 EXP DUP2 SLOAD DUP2 PUSH20 0xFFFFFFFFFFFFFFFFFFFFFFFFFFFFFFFFFFFFFFFF MUL NOT AND SWAP1 DUP4 PUSH20 0xFFFFFFFFFFFFFFFFFFFFFFFFFFFFFFFFFFFFFFFF AND MUL OR SWAP1 SSTORE POP POP JUMP JUMPDEST PUSH2 0x83B PUSH2 0x1904 JUMP JUMPDEST ISZERO PUSH2 0x87B JUMPI PUSH1 0x40 MLOAD PUSH32 0x8C379A000000000000000000000000000000000000000000000000000000000 DUP2 MSTORE PUSH1 0x4 ADD PUSH2 0x872 SWAP1 PUSH2 0x3EF9 JUMP JUMPDEST PUSH1 0x40 MLOAD DUP1 SWAP2 SUB SWAP1 REVERT JUMPDEST PUSH1 0x2 PUSH1 0x1 SLOAD EQ ISZERO PUSH2 0x8C1 JUMPI PUSH1 0x40 MLOAD PUSH32 0x8C379A000000000000000000000000000000000000000000000000000000000 DUP2 MSTORE PUSH1 0x4 ADD PUSH2 0x8B8 SWAP1 PUSH2 0x4019 JUMP JUMPDEST PUSH1 0x40 MLOAD DUP1 SWAP2 SUB SWAP1 REVERT JUMPDEST PUSH1 0x2 PUSH1 0x1 DUP2 SWAP1 SSTORE POP PUSH1 0x2 PUSH1 0x0 SWAP1 SLOAD SWAP1 PUSH2 0x100 EXP SWAP1 DIV PUSH20 0xFFFFFFFFFFFFFFFFFFFFFFFFFFFFFFFFFFFFFFFF AND PUSH20 0xFFFFFFFFFFFFFFFFFFFFFFFFFFFFFFFFFFFFFFFF AND PUSH4 0x91D14854 PUSH32 0xC951D7098B66BA0B8B77265B6E9CF0E187D73125A42BCD0061B09A68BE421810 CALLER PUSH1 0x40 MLOAD DUP4 PUSH4 0xFFFFFFFF AND PUSH1 0xE0 SHL DUP2 MSTORE PUSH1 0x4 ADD PUSH2 0x946 SWAP3 SWAP2 SWAP1 PUSH2 0x3D4C JUMP JUMPDEST PUSH1 0x20 PUSH1 0x40 MLOAD DUP1 DUP4 SUB DUP2 DUP7 DUP1 EXTCODESIZE ISZERO DUP1 ISZERO PUSH2 0x95E JUMPI PUSH1 0x0 DUP1 REVERT JUMPDEST POP GAS STATICCALL ISZERO DUP1 ISZERO PUSH2 0x972 JUMPI RETURNDATASIZE PUSH1 0x0 DUP1 RETURNDATACOPY RETURNDATASIZE PUSH1 0x0 REVERT JUMPDEST POP POP POP POP PUSH1 0x40 MLOAD RETURNDATASIZE PUSH1 0x1F NOT PUSH1 0x1F DUP3 ADD AND DUP3 ADD DUP1 PUSH1 0x40 MSTORE POP DUP2 ADD SWAP1 PUSH2 0x996 SWAP2 SWAP1 PUSH2 0x348D JUMP JUMPDEST PUSH2 0x9D5 JUMPI PUSH1 0x40 MLOAD PUSH32 0x8C379A000000000000000000000000000000000000000000000000000000000 DUP2 MSTORE PUSH1 0x4 ADD PUSH2 0x9CC SWAP1 PUSH2 0x3FD9 JUMP JUMPDEST PUSH1 0x40 MLOAD DUP1 SWAP2 SUB SWAP1 REVERT JUMPDEST PUSH1 0x0 DUP3 GT PUSH2 0xA18 JUMPI PUSH1 0x40 MLOAD PUSH32 0x8C379A000000000000000000000000000000000000000000000000000000000 DUP2 MSTORE PUSH1 0x4 ADD PUSH2 0xA0F SWAP1 PUSH2 0x3F19 JUMP JUMPDEST PUSH1 0x40 MLOAD DUP1 SWAP2 SUB SWAP1 REVERT JUMPDEST PUSH1 0x0 DUP2 GT PUSH2 0xA5B JUMPI PUSH1 0x40 MLOAD PUSH32 0x8C379A000000000000000000000000000000000000000000000000000000000 DUP2 MSTORE PUSH1 0x4 ADD PUSH2 0xA52 SWAP1 PUSH2 0x3E99 JUMP JUMPDEST PUSH1 0x40 MLOAD DUP1 SWAP2 SUB SWAP1 REVERT JUMPDEST DUP1 PUSH32 0x0 PUSH20 0xFFFFFFFFFFFFFFFFFFFFFFFFFFFFFFFFFFFFFFFF AND PUSH3 0xFDD58E CALLER DUP7 PUSH1 0x40 MLOAD DUP4 PUSH4 0xFFFFFFFF AND PUSH1 0xE0 SHL DUP2 MSTORE PUSH1 0x4 ADD PUSH2 0xAB6 SWAP3 SWAP2 SWAP1 PUSH2 0x3C93 JUMP JUMPDEST PUSH1 0x20 PUSH1 0x40 MLOAD DUP1 DUP4 SUB DUP2 DUP7 DUP1 EXTCODESIZE ISZERO DUP1 ISZERO PUSH2 0xACE JUMPI PUSH1 0x0 DUP1 REVERT JUMPDEST POP GAS STATICCALL ISZERO DUP1 ISZERO PUSH2 0xAE2 JUMPI RETURNDATASIZE PUSH1 0x0 DUP1 RETURNDATACOPY RETURNDATASIZE PUSH1 0x0 REVERT JUMPDEST POP POP POP POP PUSH1 0x40 MLOAD RETURNDATASIZE PUSH1 0x1F NOT PUSH1 0x1F DUP3 ADD AND DUP3 ADD DUP1 PUSH1 0x40 MSTORE POP DUP2 ADD SWAP1 PUSH2 0xB06 SWAP2 SWAP1 PUSH2 0x35B0 JUMP JUMPDEST LT ISZERO PUSH2 0xB47 JUMPI PUSH1 0x40 MLOAD PUSH32 0x8C379A000000000000000000000000000000000000000000000000000000000 DUP2 MSTORE PUSH1 0x4 ADD PUSH2 0xB3E SWAP1 PUSH2 0x4059 JUMP JUMPDEST PUSH1 0x40 MLOAD DUP1 SWAP2 SUB SWAP1 REVERT JUMPDEST PUSH1 0x0 PUSH1 0x4 PUSH1 0x0 DUP6 DUP2 MSTORE PUSH1 0x20 ADD SWAP1 DUP2 MSTORE PUSH1 0x20 ADD PUSH1 0x0 KECCAK256 PUSH1 0x0 CALLER PUSH20 0xFFFFFFFFFFFFFFFFFFFFFFFFFFFFFFFFFFFFFFFF AND PUSH20 0xFFFFFFFFFFFFFFFFFFFFFFFFFFFFFFFFFFFFFFFF AND DUP2 MSTORE PUSH1 0x20 ADD SWAP1 DUP2 MSTORE PUSH1 0x20 ADD PUSH1 0x0 KECCAK256 PUSH1 0x40 MLOAD DUP1 PUSH1 0xA0 ADD PUSH1 0x40 MSTORE SWAP1 DUP2 PUSH1 0x0 DUP3 ADD PUSH1 0x0 SWAP1 SLOAD SWAP1 PUSH2 0x100 EXP SWAP1 DIV PUSH1 0xFF AND ISZERO ISZERO ISZERO ISZERO DUP2 MSTORE PUSH1 0x20 ADD PUSH1 0x1 DUP3 ADD SLOAD DUP2 MSTORE PUSH1 0x20 ADD PUSH1 0x2 DUP3 ADD SLOAD DUP2 MSTORE PUSH1 0x20 ADD PUSH1 0x3 DUP3 ADD SLOAD DUP2 MSTORE PUSH1 0x20 ADD PUSH1 0x4 DUP3 ADD SLOAD DUP2 MSTORE POP POP SWAP1 POP DUP1 PUSH1 0x0 ADD MLOAD ISZERO PUSH2 0xC2E JUMPI PUSH1 0x40 MLOAD PUSH32 0x8C379A000000000000000000000000000000000000000000000000000000000 DUP2 MSTORE PUSH1 0x4 ADD PUSH2 0xC25 SWAP1 PUSH2 0x3E59 JUMP JUMPDEST PUSH1 0x40 MLOAD DUP1 SWAP2 SUB SWAP1 REVERT JUMPDEST PUSH1 0x0 DUP2 PUSH1 0x40 ADD MLOAD EQ PUSH2 0xC75 JUMPI PUSH1 0x40 MLOAD PUSH32 0x8C379A000000000000000000000000000000000000000000000000000000000 DUP2 MSTORE PUSH1 0x4 ADD PUSH2 0xC6C SWAP1 PUSH2 0x3E59 JUMP JUMPDEST PUSH1 0x40 MLOAD DUP1 SWAP2 SUB SWAP1 REVERT JUMPDEST PUSH1 0x40 MLOAD DUP1 PUSH1 0xA0 ADD PUSH1 0x40 MSTORE DUP1 PUSH1 0x1 ISZERO ISZERO DUP2 MSTORE PUSH1 0x20 ADD DUP6 DUP2 MSTORE PUSH1 0x20 ADD DUP4 DUP2 MSTORE PUSH1 0x20 ADD TIMESTAMP DUP2 MSTORE PUSH1 0x20 ADD DUP5 DUP2 MSTORE POP PUSH1 0x4 PUSH1 0x0 DUP7 DUP2 MSTORE PUSH1 0x20 ADD SWAP1 DUP2 MSTORE PUSH1 0x20 ADD PUSH1 0x0 KECCAK256 PUSH1 0x0 CALLER PUSH20 0xFFFFFFFFFFFFFFFFFFFFFFFFFFFFFFFFFFFFFFFF AND PUSH20 0xFFFFFFFFFFFFFFFFFFFFFFFFFFFFFFFFFFFFFFFF AND DUP2 MSTORE PUSH1 0x20 ADD SWAP1 DUP2 MSTORE PUSH1 0x20 ADD PUSH1 0x0 KECCAK256 PUSH1 0x0 DUP3 ADD MLOAD DUP2 PUSH1 0x0 ADD PUSH1 0x0 PUSH2 0x100 EXP DUP2 SLOAD DUP2 PUSH1 0xFF MUL NOT AND SWAP1 DUP4 ISZERO ISZERO MUL OR SWAP1 SSTORE POP PUSH1 0x20 DUP3 ADD MLOAD DUP2 PUSH1 0x1 ADD SSTORE PUSH1 0x40 DUP3 ADD MLOAD DUP2 PUSH1 0x2 ADD SSTORE PUSH1 0x60 DUP3 ADD MLOAD DUP2 PUSH1 0x3 ADD SSTORE PUSH1 0x80 DUP3 ADD MLOAD DUP2 PUSH1 0x4 ADD SSTORE SWAP1 POP POP PUSH32 0x0 PUSH20 0xFFFFFFFFFFFFFFFFFFFFFFFFFFFFFFFFFFFFFFFF AND PUSH4 0xF242432A CALLER ADDRESS DUP8 DUP7 PUSH1 0x40 MLOAD DUP6 PUSH4 0xFFFFFFFF AND PUSH1 0xE0 SHL DUP2 MSTORE PUSH1 0x4 ADD PUSH2 0xD99 SWAP5 SWAP4 SWAP3 SWAP2 SWAP1 PUSH2 0x3C3B JUMP JUMPDEST PUSH1 0x0 PUSH1 0x40 MLOAD DUP1 DUP4 SUB DUP2 PUSH1 0x0 DUP8 DUP1 EXTCODESIZE ISZERO DUP1 ISZERO PUSH2 0xDB3 JUMPI PUSH1 0x0 DUP1 REVERT JUMPDEST POP GAS CALL ISZERO DUP1 ISZERO PUSH2 0xDC7 JUMPI RETURNDATASIZE PUSH1 0x0 DUP1 RETURNDATACOPY RETURNDATASIZE PUSH1 0x0 REVERT JUMPDEST POP POP POP POP DUP4 PUSH32 0x5BC1DFC7136DB3113ACB6DAD2E291DCF149405CA07FCEC667FA5E1FA7F430F98 DUP4 DUP6 CALLER PUSH1 0x40 MLOAD PUSH2 0xDFF SWAP4 SWAP3 SWAP2 SWAP1 PUSH2 0x4124 JUMP JUMPDEST PUSH1 0x40 MLOAD DUP1 SWAP2 SUB SWAP1 LOG2 POP PUSH1 0x1 DUP1 DUP2 SWAP1 SSTORE POP POP POP POP JUMP JUMPDEST PUSH2 0xE1C PUSH2 0x1904 JUMP JUMPDEST ISZERO PUSH2 0xE5C JUMPI PUSH1 0x40 MLOAD PUSH32 0x8C379A000000000000000000000000000000000000000000000000000000000 DUP2 MSTORE PUSH1 0x4 ADD PUSH2 0xE53 SWAP1 PUSH2 0x3EF9 JUMP JUMPDEST PUSH1 0x40 MLOAD DUP1 SWAP2 SUB SWAP1 REVERT JUMPDEST PUSH1 0x2 PUSH1 0x1 SLOAD EQ ISZERO PUSH2 0xEA2 JUMPI PUSH1 0x40 MLOAD PUSH32 0x8C379A000000000000000000000000000000000000000000000000000000000 DUP2 MSTORE PUSH1 0x4 ADD PUSH2 0xE99 SWAP1 PUSH2 0x4019 JUMP JUMPDEST PUSH1 0x40 MLOAD DUP1 SWAP2 SUB SWAP1 REVERT JUMPDEST PUSH1 0x2 PUSH1 0x1 DUP2 SWAP1 SSTORE POP PUSH1 0x2 PUSH1 0x0 SWAP1 SLOAD SWAP1 PUSH2 0x100 EXP SWAP1 DIV PUSH20 0xFFFFFFFFFFFFFFFFFFFFFFFFFFFFFFFFFFFFFFFF AND PUSH20 0xFFFFFFFFFFFFFFFFFFFFFFFFFFFFFFFFFFFFFFFF AND PUSH4 0x91D14854 PUSH32 0xC951D7098B66BA0B8B77265B6E9CF0E187D73125A42BCD0061B09A68BE421810 CALLER PUSH1 0x40 MLOAD DUP4 PUSH4 0xFFFFFFFF AND PUSH1 0xE0 SHL DUP2 MSTORE PUSH1 0x4 ADD PUSH2 0xF27 SWAP3 SWAP2 SWAP1 PUSH2 0x3D4C JUMP JUMPDEST PUSH1 0x20 PUSH1 0x40 MLOAD DUP1 DUP4 SUB DUP2 DUP7 DUP1 EXTCODESIZE ISZERO DUP1 ISZERO PUSH2 0xF3F JUMPI PUSH1 0x0 DUP1 REVERT JUMPDEST POP GAS STATICCALL ISZERO DUP1 ISZERO PUSH2 0xF53 JUMPI RETURNDATASIZE PUSH1 0x0 DUP1 RETURNDATACOPY RETURNDATASIZE PUSH1 0x0 REVERT JUMPDEST POP POP POP POP PUSH1 0x40 MLOAD RETURNDATASIZE PUSH1 0x1F NOT PUSH1 0x1F DUP3 ADD AND DUP3 ADD DUP1 PUSH1 0x40 MSTORE POP DUP2 ADD SWAP1 PUSH2 0xF77 SWAP2 SWAP1 PUSH2 0x348D JUMP JUMPDEST PUSH2 0xFB6 JUMPI PUSH1 0x40 MLOAD PUSH32 0x8C379A000000000000000000000000000000000000000000000000000000000 DUP2 MSTORE PUSH1 0x4 ADD PUSH2 0xFAD SWAP1 PUSH2 0x3FD9 JUMP JUMPDEST PUSH1 0x40 MLOAD DUP1 SWAP2 SUB SWAP1 REVERT JUMPDEST PUSH1 0x0 PUSH1 0x4 PUSH1 0x0 DUP6 DUP2 MSTORE PUSH1 0x20 ADD SWAP1 DUP2 MSTORE PUSH1 0x20 ADD PUSH1 0x0 KECCAK256 PUSH1 0x0 DUP5 PUSH20 0xFFFFFFFFFFFFFFFFFFFFFFFFFFFFFFFFFFFFFFFF AND PUSH20 0xFFFFFFFFFFFFFFFFFFFFFFFFFFFFFFFFFFFFFFFF AND DUP2 MSTORE PUSH1 0x20 ADD SWAP1 DUP2 MSTORE PUSH1 0x20 ADD PUSH1 0x0 KECCAK256 SWAP1 POP PUSH1 0x0 CALLER SWAP1 POP PUSH1 0x0 DUP3 PUSH1 0x4 ADD SLOAD SWAP1 POP PUSH1 0x0 DUP2 DUP6 PUSH2 0x1026 SWAP2 SWAP1 PUSH2 0x429B JUMP JUMPDEST SWAP1 POP DUP4 PUSH1 0x0 ADD PUSH1 0x0 SWAP1 SLOAD SWAP1 PUSH2 0x100 EXP SWAP1 DIV PUSH1 0xFF AND PUSH2 0x1079 JUMPI PUSH1 0x40 MLOAD PUSH32 0x8C379A000000000000000000000000000000000000000000000000000000000 DUP2 MSTORE PUSH1 0x4 ADD PUSH2 0x1070 SWAP1 PUSH2 0x3E79 JUMP JUMPDEST PUSH1 0x40 MLOAD DUP1 SWAP2 SUB SWAP1 REVERT JUMPDEST DUP4 PUSH1 0x2 ADD SLOAD DUP6 GT ISZERO PUSH2 0x10C0 JUMPI PUSH1 0x40 MLOAD PUSH32 0x8C379A000000000000000000000000000000000000000000000000000000000 DUP2 MSTORE PUSH1 0x4 ADD PUSH2 0x10B7 SWAP1 PUSH2 0x3F79 JUMP JUMPDEST PUSH1 0x40 MLOAD DUP1 SWAP2 SUB SWAP1 REVERT JUMPDEST DUP6 PUSH20 0xFFFFFFFFFFFFFFFFFFFFFFFFFFFFFFFFFFFFFFFF AND DUP4 PUSH20 0xFFFFFFFFFFFFFFFFFFFFFFFFFFFFFFFFFFFFFFFF AND EQ ISZERO PUSH2 0x112F JUMPI PUSH1 0x40 MLOAD PUSH32 0x8C379A000000000000000000000000000000000000000000000000000000000 DUP2 MSTORE PUSH1 0x4 ADD PUSH2 0x1126 SWAP1 PUSH2 0x3FB9 JUMP JUMPDEST PUSH1 0x40 MLOAD DUP1 SWAP2 SUB SWAP1 REVERT JUMPDEST DUP5 DUP5 PUSH1 0x2 ADD PUSH1 0x0 DUP3 DUP3 SLOAD PUSH2 0x1143 SWAP2 SWAP1 PUSH2 0x42F5 JUMP JUMPDEST SWAP3 POP POP DUP2 SWAP1 SSTORE POP PUSH1 0x0 DUP5 PUSH1 0x2 ADD SLOAD EQ ISZERO PUSH2 0x1175 JUMPI PUSH1 0x0 DUP5 PUSH1 0x0 ADD PUSH1 0x0 PUSH2 0x100 EXP DUP2 SLOAD DUP2 PUSH1 0xFF MUL NOT AND SWAP1 DUP4 ISZERO ISZERO MUL OR SWAP1 SSTORE POP JUMPDEST PUSH2 0x11C2 DUP4 DUP8 DUP4 PUSH32 0x0 PUSH20 0xFFFFFFFFFFFFFFFFFFFFFFFFFFFFFFFFFFFFFFFF AND PUSH2 0x2B26 SWAP1 SWAP4 SWAP3 SWAP2 SWAP1 PUSH4 0xFFFFFFFF AND JUMP JUMPDEST PUSH1 0x2 PUSH1 0x0 SWAP1 SLOAD SWAP1 PUSH2 0x100 EXP SWAP1 DIV PUSH20 0xFFFFFFFFFFFFFFFFFFFFFFFFFFFFFFFFFFFFFFFF AND PUSH20 0xFFFFFFFFFFFFFFFFFFFFFFFFFFFFFFFFFFFFFFFF AND PUSH4 0x91D14854 PUSH32 0xDF8B4C520FFE197C5343C6F5AEC59570151EF9A492F2C624FD45DDDE6135EC42 DUP9 PUSH1 0x40 MLOAD DUP4 PUSH4 0xFFFFFFFF AND PUSH1 0xE0 SHL DUP2 MSTORE PUSH1 0x4 ADD PUSH2 0x123F SWAP3 SWAP2 SWAP1 PUSH2 0x3D4C JUMP JUMPDEST PUSH1 0x20 PUSH1 0x40 MLOAD DUP1 DUP4 SUB DUP2 DUP7 DUP1 EXTCODESIZE ISZERO DUP1 ISZERO PUSH2 0x1257 JUMPI PUSH1 0x0 DUP1 REVERT JUMPDEST POP GAS STATICCALL ISZERO DUP1 ISZERO PUSH2 0x126B JUMPI RETURNDATASIZE PUSH1 0x0 DUP1 RETURNDATACOPY RETURNDATASIZE PUSH1 0x0 REVERT JUMPDEST POP POP POP POP PUSH1 0x40 MLOAD RETURNDATASIZE PUSH1 0x1F NOT PUSH1 0x1F DUP3 ADD AND DUP3 ADD DUP1 PUSH1 0x40 MSTORE POP DUP2 ADD SWAP1 PUSH2 0x128F SWAP2 SWAP1 PUSH2 0x348D JUMP JUMPDEST ISZERO PUSH2 0x1395 JUMPI PUSH2 0x1301 DUP4 PUSH32 0x0 DUP4 PUSH32 0x0 PUSH20 0xFFFFFFFFFFFFFFFFFFFFFFFFFFFFFFFFFFFFFFFF AND PUSH2 0x2B26 SWAP1 SWAP4 SWAP3 SWAP2 SWAP1 PUSH4 0xFFFFFFFF AND JUMP JUMPDEST PUSH32 0x0 PUSH20 0xFFFFFFFFFFFFFFFFFFFFFFFFFFFFFFFFFFFFFFFF AND PUSH4 0x836A1040 DUP9 DUP6 DUP9 PUSH1 0x40 MLOAD DUP5 PUSH4 0xFFFFFFFF AND PUSH1 0xE0 SHL DUP2 MSTORE PUSH1 0x4 ADD PUSH2 0x135E SWAP4 SWAP3 SWAP2 SWAP1 PUSH2 0x40C4 JUMP JUMPDEST PUSH1 0x0 PUSH1 0x40 MLOAD DUP1 DUP4 SUB DUP2 PUSH1 0x0 DUP8 DUP1 EXTCODESIZE ISZERO DUP1 ISZERO PUSH2 0x1378 JUMPI PUSH1 0x0 DUP1 REVERT JUMPDEST POP GAS CALL ISZERO DUP1 ISZERO PUSH2 0x138C JUMPI RETURNDATASIZE PUSH1 0x0 DUP1 RETURNDATACOPY RETURNDATASIZE PUSH1 0x0 REVERT JUMPDEST POP POP POP POP PUSH2 0x1478 JUMP JUMPDEST PUSH2 0x13E2 DUP4 DUP8 DUP4 PUSH32 0x0 PUSH20 0xFFFFFFFFFFFFFFFFFFFFFFFFFFFFFFFFFFFFFFFF AND PUSH2 0x2B26 SWAP1 SWAP4 SWAP3 SWAP2 SWAP1 PUSH4 0xFFFFFFFF AND JUMP JUMPDEST PUSH32 0x0 PUSH20 0xFFFFFFFFFFFFFFFFFFFFFFFFFFFFFFFFFFFFFFFF AND PUSH4 0xF242432A ADDRESS DUP6 DUP8 PUSH1 0x1 ADD SLOAD DUP10 PUSH1 0x40 MLOAD DUP6 PUSH4 0xFFFFFFFF AND PUSH1 0xE0 SHL DUP2 MSTORE PUSH1 0x4 ADD PUSH2 0x1445 SWAP5 SWAP4 SWAP3 SWAP2 SWAP1 PUSH2 0x3C3B JUMP JUMPDEST PUSH1 0x0 PUSH1 0x40 MLOAD DUP1 DUP4 SUB DUP2 PUSH1 0x0 DUP8 DUP1 EXTCODESIZE ISZERO DUP1 ISZERO PUSH2 0x145F JUMPI PUSH1 0x0 DUP1 REVERT JUMPDEST POP GAS CALL ISZERO DUP1 ISZERO PUSH2 0x1473 JUMPI RETURNDATASIZE PUSH1 0x0 DUP1 RETURNDATACOPY RETURNDATASIZE PUSH1 0x0 REVERT JUMPDEST POP POP POP POP JUMPDEST DUP7 PUSH32 0x9C45908C2D32F0072963511B0E7C3059B0202498A9FDC83032DD440850D0C863 DUP5 DUP9 DUP9 DUP6 PUSH1 0x40 MLOAD PUSH2 0x14AE SWAP5 SWAP4 SWAP3 SWAP2 SWAP1 PUSH2 0x3BF6 JUMP JUMPDEST PUSH1 0x40 MLOAD DUP1 SWAP2 SUB SWAP1 LOG2 POP POP POP POP PUSH1 0x1 DUP1 DUP2 SWAP1 SSTORE POP POP POP POP JUMP JUMPDEST PUSH32 0x0 DUP2 JUMP JUMPDEST PUSH32 0x0 DUP2 JUMP JUMPDEST PUSH2 0x1516 PUSH2 0x2B1E JUMP JUMPDEST PUSH20 0xFFFFFFFFFFFFFFFFFFFFFFFFFFFFFFFFFFFFFFFF AND PUSH2 0x1534 PUSH2 0x1DE3 JUMP JUMPDEST PUSH20 0xFFFFFFFFFFFFFFFFFFFFFFFFFFFFFFFFFFFFFFFF AND EQ PUSH2 0x158A JUMPI PUSH1 0x40 MLOAD PUSH32 0x8C379A000000000000000000000000000000000000000000000000000000000 DUP2 MSTORE PUSH1 0x4 ADD PUSH2 0x1581 SWAP1 PUSH2 0x3F59 JUMP JUMPDEST PUSH1 0x40 MLOAD DUP1 SWAP2 SUB SWAP1 REVERT JUMPDEST PUSH2 0x1592 PUSH2 0x2BAF JUMP JUMPDEST JUMP JUMPDEST PUSH2 0x159C PUSH2 0x1904 JUMP JUMPDEST ISZERO PUSH2 0x15DC JUMPI PUSH1 0x40 MLOAD PUSH32 0x8C379A000000000000000000000000000000000000000000000000000000000 DUP2 MSTORE PUSH1 0x4 ADD PUSH2 0x15D3 SWAP1 PUSH2 0x3EF9 JUMP JUMPDEST PUSH1 0x40 MLOAD DUP1 SWAP2 SUB SWAP1 REVERT JUMPDEST PUSH1 0x2 PUSH1 0x1 SLOAD EQ ISZERO PUSH2 0x1622 JUMPI PUSH1 0x40 MLOAD PUSH32 0x8C379A000000000000000000000000000000000000000000000000000000000 DUP2 MSTORE PUSH1 0x4 ADD PUSH2 0x1619 SWAP1 PUSH2 0x4019 JUMP JUMPDEST PUSH1 0x40 MLOAD DUP1 SWAP2 SUB SWAP1 REVERT JUMPDEST PUSH1 0x2 PUSH1 0x1 DUP2 SWAP1 SSTORE POP PUSH1 0x2 PUSH1 0x0 SWAP1 SLOAD SWAP1 PUSH2 0x100 EXP SWAP1 DIV PUSH20 0xFFFFFFFFFFFFFFFFFFFFFFFFFFFFFFFFFFFFFFFF AND PUSH20 0xFFFFFFFFFFFFFFFFFFFFFFFFFFFFFFFFFFFFFFFF AND PUSH4 0x91D14854 PUSH32 0xC951D7098B66BA0B8B77265B6E9CF0E187D73125A42BCD0061B09A68BE421810 CALLER PUSH1 0x40 MLOAD DUP4 PUSH4 0xFFFFFFFF AND PUSH1 0xE0 SHL DUP2 MSTORE PUSH1 0x4 ADD PUSH2 0x16A7 SWAP3 SWAP2 SWAP1 PUSH2 0x3D4C JUMP JUMPDEST PUSH1 0x20 PUSH1 0x40 MLOAD DUP1 DUP4 SUB DUP2 DUP7 DUP1 EXTCODESIZE ISZERO DUP1 ISZERO PUSH2 0x16BF JUMPI PUSH1 0x0 DUP1 REVERT JUMPDEST POP GAS STATICCALL ISZERO DUP1 ISZERO PUSH2 0x16D3 JUMPI RETURNDATASIZE PUSH1 0x0 DUP1 RETURNDATACOPY RETURNDATASIZE PUSH1 0x0 REVERT JUMPDEST POP POP POP POP PUSH1 0x40 MLOAD RETURNDATASIZE PUSH1 0x1F NOT PUSH1 0x1F DUP3 ADD AND DUP3 ADD DUP1 PUSH1 0x40 MSTORE POP DUP2 ADD SWAP1 PUSH2 0x16F7 SWAP2 SWAP1 PUSH2 0x348D JUMP JUMPDEST PUSH2 0x1736 JUMPI PUSH1 0x40 MLOAD PUSH32 0x8C379A000000000000000000000000000000000000000000000000000000000 DUP2 MSTORE PUSH1 0x4 ADD PUSH2 0x172D SWAP1 PUSH2 0x3FD9 JUMP JUMPDEST PUSH1 0x40 MLOAD DUP1 SWAP2 SUB SWAP1 REVERT JUMPDEST PUSH1 0x0 CALLER SWAP1 POP PUSH1 0x0 PUSH1 0x4 PUSH1 0x0 DUP5 DUP2 MSTORE PUSH1 0x20 ADD SWAP1 DUP2 MSTORE PUSH1 0x20 ADD PUSH1 0x0 KECCAK256 PUSH1 0x0 DUP4 PUSH20 0xFFFFFFFFFFFFFFFFFFFFFFFFFFFFFFFFFFFFFFFF AND PUSH20 0xFFFFFFFFFFFFFFFFFFFFFFFFFFFFFFFFFFFFFFFF AND DUP2 MSTORE PUSH1 0x20 ADD SWAP1 DUP2 MSTORE PUSH1 0x20 ADD PUSH1 0x0 KECCAK256 SWAP1 POP DUP1 PUSH1 0x0 ADD PUSH1 0x0 SWAP1 SLOAD SWAP1 PUSH2 0x100 EXP SWAP1 DIV PUSH1 0xFF AND PUSH2 0x17E0 JUMPI PUSH1 0x40 MLOAD PUSH32 0x8C379A000000000000000000000000000000000000000000000000000000000 DUP2 MSTORE PUSH1 0x4 ADD PUSH2 0x17D7 SWAP1 PUSH2 0x3E79 JUMP JUMPDEST PUSH1 0x40 MLOAD DUP1 SWAP2 SUB SWAP1 REVERT JUMPDEST PUSH1 0x0 DUP2 PUSH1 0x2 ADD SLOAD SWAP1 POP PUSH1 0x0 DUP3 PUSH1 0x0 ADD PUSH1 0x0 PUSH2 0x100 EXP DUP2 SLOAD DUP2 PUSH1 0xFF MUL NOT AND SWAP1 DUP4 ISZERO ISZERO MUL OR SWAP1 SSTORE POP PUSH32 0x0 PUSH20 0xFFFFFFFFFFFFFFFFFFFFFFFFFFFFFFFFFFFFFFFF AND PUSH4 0xF242432A ADDRESS DUP6 DUP8 DUP6 PUSH1 0x40 MLOAD DUP6 PUSH4 0xFFFFFFFF AND PUSH1 0xE0 SHL DUP2 MSTORE PUSH1 0x4 ADD PUSH2 0x1865 SWAP5 SWAP4 SWAP3 SWAP2 SWAP1 PUSH2 0x3C3B JUMP JUMPDEST PUSH1 0x0 PUSH1 0x40 MLOAD DUP1 DUP4 SUB DUP2 PUSH1 0x0 DUP8 DUP1 EXTCODESIZE ISZERO DUP1 ISZERO PUSH2 0x187F JUMPI PUSH1 0x0 DUP1 REVERT JUMPDEST POP GAS CALL ISZERO DUP1 ISZERO PUSH2 0x1893 JUMPI RETURNDATASIZE PUSH1 0x0 DUP1 RETURNDATACOPY RETURNDATASIZE PUSH1 0x0 REVERT JUMPDEST POP POP POP POP DUP4 PUSH32 0x30411792A34FEB0F32A6BE64E1996FA803C4505BBF6314F391F3D63C24AE52D5 DUP3 DUP6 PUSH1 0x40 MLOAD PUSH2 0x18C9 SWAP3 SWAP2 SWAP1 PUSH2 0x409B JUMP JUMPDEST PUSH1 0x40 MLOAD DUP1 SWAP2 SUB SWAP1 LOG2 POP POP POP PUSH1 0x1 DUP1 DUP2 SWAP1 SSTORE POP POP JUMP JUMPDEST PUSH1 0x3 PUSH1 0x0 SWAP1 SLOAD SWAP1 PUSH2 0x100 EXP SWAP1 DIV PUSH20 0xFFFFFFFFFFFFFFFFFFFFFFFFFFFFFFFFFFFFFFFF AND DUP2 JUMP JUMPDEST PUSH1 0x0 DUP1 PUSH1 0x0 SWAP1 SLOAD SWAP1 PUSH2 0x100 EXP SWAP1 DIV PUSH1 0xFF AND SWAP1 POP SWAP1 JUMP JUMPDEST PUSH2 0x1922 PUSH2 0x2B1E JUMP JUMPDEST PUSH20 0xFFFFFFFFFFFFFFFFFFFFFFFFFFFFFFFFFFFFFFFF AND PUSH2 0x1940 PUSH2 0x1DE3 JUMP JUMPDEST PUSH20 0xFFFFFFFFFFFFFFFFFFFFFFFFFFFFFFFFFFFFFFFF AND EQ PUSH2 0x1996 JUMPI PUSH1 0x40 MLOAD PUSH32 0x8C379A000000000000000000000000000000000000000000000000000000000 DUP2 MSTORE PUSH1 0x4 ADD PUSH2 0x198D SWAP1 PUSH2 0x3F59 JUMP JUMPDEST PUSH1 0x40 MLOAD DUP1 SWAP2 SUB SWAP1 REVERT JUMPDEST PUSH2 0x19A0 PUSH1 0x0 PUSH2 0x2C50 JUMP JUMPDEST JUMP JUMPDEST PUSH2 0x19AA PUSH2 0x1904 JUMP JUMPDEST ISZERO PUSH2 0x19EA JUMPI PUSH1 0x40 MLOAD PUSH32 0x8C379A000000000000000000000000000000000000000000000000000000000 DUP2 MSTORE PUSH1 0x4 ADD PUSH2 0x19E1 SWAP1 PUSH2 0x3EF9 JUMP JUMPDEST PUSH1 0x40 MLOAD DUP1 SWAP2 SUB SWAP1 REVERT JUMPDEST PUSH1 0x2 PUSH1 0x1 SLOAD EQ ISZERO PUSH2 0x1A30 JUMPI PUSH1 0x40 MLOAD PUSH32 0x8C379A000000000000000000000000000000000000000000000000000000000 DUP2 MSTORE PUSH1 0x4 ADD PUSH2 0x1A27 SWAP1 PUSH2 0x4019 JUMP JUMPDEST PUSH1 0x40 MLOAD DUP1 SWAP2 SUB SWAP1 REVERT JUMPDEST PUSH1 0x2 PUSH1 0x1 DUP2 SWAP1 SSTORE POP PUSH1 0x0 CALLER SWAP1 POP PUSH1 0x0 PUSH1 0x4 PUSH1 0x0 DUP6 DUP2 MSTORE PUSH1 0x20 ADD SWAP1 DUP2 MSTORE PUSH1 0x20 ADD PUSH1 0x0 KECCAK256 PUSH1 0x0 DUP4 PUSH20 0xFFFFFFFFFFFFFFFFFFFFFFFFFFFFFFFFFFFFFFFF AND PUSH20 0xFFFFFFFFFFFFFFFFFFFFFFFFFFFFFFFFFFFFFFFF AND DUP2 MSTORE PUSH1 0x20 ADD SWAP1 DUP2 MSTORE PUSH1 0x20 ADD PUSH1 0x0 KECCAK256 SWAP1 POP PUSH1 0x0 DUP4 GT PUSH2 0x1AD4 JUMPI PUSH1 0x40 MLOAD PUSH32 0x8C379A000000000000000000000000000000000000000000000000000000000 DUP2 MSTORE PUSH1 0x4 ADD PUSH2 0x1ACB SWAP1 PUSH2 0x3F19 JUMP JUMPDEST PUSH1 0x40 MLOAD DUP1 SWAP2 SUB SWAP1 REVERT JUMPDEST DUP3 DUP2 PUSH1 0x4 ADD DUP2 SWAP1 SSTORE POP DUP4 PUSH32 0x378B09391F49D01E482BA75312341912AD0652CB8AA8799B6B33B624BD65D9F2 DUP5 DUP5 PUSH1 0x40 MLOAD PUSH2 0x1B0F SWAP3 SWAP2 SWAP1 PUSH2 0x409B JUMP JUMPDEST PUSH1 0x40 MLOAD DUP1 SWAP2 SUB SWAP1 LOG2 POP POP PUSH1 0x1 DUP1 DUP2 SWAP1 SSTORE POP POP POP JUMP JUMPDEST PUSH2 0x1B2C PUSH2 0x2B1E JUMP JUMPDEST PUSH20 0xFFFFFFFFFFFFFFFFFFFFFFFFFFFFFFFFFFFFFFFF AND PUSH2 0x1B4A PUSH2 0x1DE3 JUMP JUMPDEST PUSH20 0xFFFFFFFFFFFFFFFFFFFFFFFFFFFFFFFFFFFFFFFF AND EQ PUSH2 0x1BA0 JUMPI PUSH1 0x40 MLOAD PUSH32 0x8C379A000000000000000000000000000000000000000000000000000000000 DUP2 MSTORE PUSH1 0x4 ADD PUSH2 0x1B97 SWAP1 PUSH2 0x3F59 JUMP JUMPDEST PUSH1 0x40 MLOAD DUP1 SWAP2 SUB SWAP1 REVERT JUMPDEST PUSH2 0x1BA8 PUSH2 0x2D15 JUMP JUMPDEST JUMP JUMPDEST PUSH2 0x1BB2 PUSH2 0x1904 JUMP JUMPDEST ISZERO PUSH2 0x1BF2 JUMPI PUSH1 0x40 MLOAD PUSH32 0x8C379A000000000000000000000000000000000000000000000000000000000 DUP2 MSTORE PUSH1 0x4 ADD PUSH2 0x1BE9 SWAP1 PUSH2 0x3EF9 JUMP JUMPDEST PUSH1 0x40 MLOAD DUP1 SWAP2 SUB SWAP1 REVERT JUMPDEST PUSH1 0x2 PUSH1 0x1 SLOAD EQ ISZERO PUSH2 0x1C38 JUMPI PUSH1 0x40 MLOAD PUSH32 0x8C379A000000000000000000000000000000000000000000000000000000000 DUP2 MSTORE PUSH1 0x4 ADD PUSH2 0x1C2F SWAP1 PUSH2 0x4019 JUMP JUMPDEST PUSH1 0x40 MLOAD DUP1 SWAP2 SUB SWAP1 REVERT JUMPDEST PUSH1 0x2 PUSH1 0x1 DUP2 SWAP1 SSTORE POP PUSH1 0x2 PUSH1 0x0 SWAP1 SLOAD SWAP1 PUSH2 0x100 EXP SWAP1 DIV PUSH20 0xFFFFFFFFFFFFFFFFFFFFFFFFFFFFFFFFFFFFFFFF AND PUSH20 0xFFFFFFFFFFFFFFFFFFFFFFFFFFFFFFFFFFFFFFFF AND PUSH4 0x91D14854 PUSH32 0xDF8B4C520FFE197C5343C6F5AEC59570151EF9A492F2C624FD45DDDE6135EC42 CALLER PUSH1 0x40 MLOAD DUP4 PUSH4 0xFFFFFFFF AND PUSH1 0xE0 SHL DUP2 MSTORE PUSH1 0x4 ADD PUSH2 0x1CBD SWAP3 SWAP2 SWAP1 PUSH2 0x3D4C JUMP JUMPDEST PUSH1 0x20 PUSH1 0x40 MLOAD DUP1 DUP4 SUB DUP2 DUP7 DUP1 EXTCODESIZE ISZERO DUP1 ISZERO PUSH2 0x1CD5 JUMPI PUSH1 0x0 DUP1 REVERT JUMPDEST POP GAS STATICCALL ISZERO DUP1 ISZERO PUSH2 0x1CE9 JUMPI RETURNDATASIZE PUSH1 0x0 DUP1 RETURNDATACOPY RETURNDATASIZE PUSH1 0x0 REVERT JUMPDEST POP POP POP POP PUSH1 0x40 MLOAD RETURNDATASIZE PUSH1 0x1F NOT PUSH1 0x1F DUP3 ADD AND DUP3 ADD DUP1 PUSH1 0x40 MSTORE POP DUP2 ADD SWAP1 PUSH2 0x1D0D SWAP2 SWAP1 PUSH2 0x348D JUMP JUMPDEST PUSH2 0x1D4C JUMPI PUSH1 0x40 MLOAD PUSH32 0x8C379A000000000000000000000000000000000000000000000000000000000 DUP2 MSTORE PUSH1 0x4 ADD PUSH2 0x1D43 SWAP1 PUSH2 0x3F39 JUMP JUMPDEST PUSH1 0x40 MLOAD DUP1 SWAP2 SUB SWAP1 REVERT JUMPDEST PUSH1 0x3 PUSH1 0x0 SWAP1 SLOAD SWAP1 PUSH2 0x100 EXP SWAP1 DIV PUSH20 0xFFFFFFFFFFFFFFFFFFFFFFFFFFFFFFFFFFFFFFFF AND PUSH20 0xFFFFFFFFFFFFFFFFFFFFFFFFFFFFFFFFFFFFFFFF AND PUSH4 0xA8A40F8C DUP3 PUSH1 0x40 MLOAD DUP3 PUSH4 0xFFFFFFFF AND PUSH1 0xE0 SHL DUP2 MSTORE PUSH1 0x4 ADD PUSH2 0x1DA7 SWAP2 SWAP1 PUSH2 0x3CBC JUMP JUMPDEST PUSH1 0x0 PUSH1 0x40 MLOAD DUP1 DUP4 SUB DUP2 PUSH1 0x0 DUP8 DUP1 EXTCODESIZE ISZERO DUP1 ISZERO PUSH2 0x1DC1 JUMPI PUSH1 0x0 DUP1 REVERT JUMPDEST POP GAS CALL ISZERO DUP1 ISZERO PUSH2 0x1DD5 JUMPI RETURNDATASIZE PUSH1 0x0 DUP1 RETURNDATACOPY RETURNDATASIZE PUSH1 0x0 REVERT JUMPDEST POP POP POP POP PUSH1 0x1 DUP1 DUP2 SWAP1 SSTORE POP POP JUMP JUMPDEST PUSH1 0x0 DUP1 PUSH1 0x1 SWAP1 SLOAD SWAP1 PUSH2 0x100 EXP SWAP1 DIV PUSH20 0xFFFFFFFFFFFFFFFFFFFFFFFFFFFFFFFFFFFFFFFF AND SWAP1 POP SWAP1 JUMP JUMPDEST PUSH32 0x0 DUP2 JUMP JUMPDEST PUSH1 0x4 PUSH1 0x20 MSTORE DUP2 PUSH1 0x0 MSTORE PUSH1 0x40 PUSH1 0x0 KECCAK256 PUSH1 0x20 MSTORE DUP1 PUSH1 0x0 MSTORE PUSH1 0x40 PUSH1 0x0 KECCAK256 PUSH1 0x0 SWAP2 POP SWAP2 POP POP DUP1 PUSH1 0x0 ADD PUSH1 0x0 SWAP1 SLOAD SWAP1 PUSH2 0x100 EXP SWAP1 DIV PUSH1 0xFF AND SWAP1 DUP1 PUSH1 0x1 ADD SLOAD SWAP1 DUP1 PUSH1 0x2 ADD SLOAD SWAP1 DUP1 PUSH1 0x3 ADD SLOAD SWAP1 DUP1 PUSH1 0x4 ADD SLOAD SWAP1 POP DUP6 JUMP JUMPDEST PUSH1 0x0 PUSH4 0xBC197C81 PUSH1 0xE0 SHL SWAP1 POP SWAP6 SWAP5 POP POP POP POP POP JUMP JUMPDEST PUSH2 0x1E9D PUSH2 0x1904 JUMP JUMPDEST ISZERO PUSH2 0x1EDD JUMPI PUSH1 0x40 MLOAD PUSH32 0x8C379A000000000000000000000000000000000000000000000000000000000 DUP2 MSTORE PUSH1 0x4 ADD PUSH2 0x1ED4 SWAP1 PUSH2 0x3EF9 JUMP JUMPDEST PUSH1 0x40 MLOAD DUP1 SWAP2 SUB SWAP1 REVERT JUMPDEST PUSH1 0x2 PUSH1 0x1 SLOAD EQ ISZERO PUSH2 0x1F23 JUMPI PUSH1 0x40 MLOAD PUSH32 0x8C379A000000000000000000000000000000000000000000000000000000000 DUP2 MSTORE PUSH1 0x4 ADD PUSH2 0x1F1A SWAP1 PUSH2 0x4019 JUMP JUMPDEST PUSH1 0x40 MLOAD DUP1 SWAP2 SUB SWAP1 REVERT JUMPDEST PUSH1 0x2 PUSH1 0x1 DUP2 SWAP1 SSTORE POP PUSH1 0x2 PUSH1 0x0 SWAP1 SLOAD SWAP1 PUSH2 0x100 EXP SWAP1 DIV PUSH20 0xFFFFFFFFFFFFFFFFFFFFFFFFFFFFFFFFFFFFFFFF AND PUSH20 0xFFFFFFFFFFFFFFFFFFFFFFFFFFFFFFFFFFFFFFFF AND PUSH4 0x91D14854 PUSH32 0xDF8B4C520FFE197C5343C6F5AEC59570151EF9A492F2C624FD45DDDE6135EC42 CALLER PUSH1 0x40 MLOAD DUP4 PUSH4 0xFFFFFFFF AND PUSH1 0xE0 SHL DUP2 MSTORE PUSH1 0x4 ADD PUSH2 0x1FA8 SWAP3 SWAP2 SWAP1 PUSH2 0x3D4C JUMP JUMPDEST PUSH1 0x20 PUSH1 0x40 MLOAD DUP1 DUP4 SUB DUP2 DUP7 DUP1 EXTCODESIZE ISZERO DUP1 ISZERO PUSH2 0x1FC0 JUMPI PUSH1 0x0 DUP1 REVERT JUMPDEST POP GAS STATICCALL ISZERO DUP1 ISZERO PUSH2 0x1FD4 JUMPI RETURNDATASIZE PUSH1 0x0 DUP1 RETURNDATACOPY RETURNDATASIZE PUSH1 0x0 REVERT JUMPDEST POP POP POP POP PUSH1 0x40 MLOAD RETURNDATASIZE PUSH1 0x1F NOT PUSH1 0x1F DUP3 ADD AND DUP3 ADD DUP1 PUSH1 0x40 MSTORE POP DUP2 ADD SWAP1 PUSH2 0x1FF8 SWAP2 SWAP1 PUSH2 0x348D JUMP JUMPDEST PUSH2 0x2037 JUMPI PUSH1 0x40 MLOAD PUSH32 0x8C379A000000000000000000000000000000000000000000000000000000000 DUP2 MSTORE PUSH1 0x4 ADD PUSH2 0x202E SWAP1 PUSH2 0x3F39 JUMP JUMPDEST PUSH1 0x40 MLOAD DUP1 SWAP2 SUB SWAP1 REVERT JUMPDEST PUSH1 0x0 PUSH1 0x4 PUSH1 0x0 DUP5 DUP2 MSTORE PUSH1 0x20 ADD SWAP1 DUP2 MSTORE PUSH1 0x20 ADD PUSH1 0x0 KECCAK256 PUSH1 0x0 CALLER PUSH20 0xFFFFFFFFFFFFFFFFFFFFFFFFFFFFFFFFFFFFFFFF AND PUSH20 0xFFFFFFFFFFFFFFFFFFFFFFFFFFFFFFFFFFFFFFFF AND DUP2 MSTORE PUSH1 0x20 ADD SWAP1 DUP2 MSTORE PUSH1 0x20 ADD PUSH1 0x0 KECCAK256 SWAP1 POP PUSH1 0x0 DUP2 PUSH1 0x0 ADD PUSH1 0x0 SWAP1 SLOAD SWAP1 PUSH2 0x100 EXP SWAP1 DIV PUSH1 0xFF AND SWAP1 POP PUSH1 0x0 DUP4 EQ DUP1 ISZERO PUSH2 0x20AE JUMPI POP DUP1 JUMPDEST ISZERO PUSH2 0x20D5 JUMPI PUSH1 0x0 DUP3 PUSH1 0x0 ADD PUSH1 0x0 PUSH2 0x100 EXP DUP2 SLOAD DUP2 PUSH1 0xFF MUL NOT AND SWAP1 DUP4 ISZERO ISZERO MUL OR SWAP1 SSTORE POP PUSH2 0x210B JUMP JUMPDEST PUSH1 0x0 DUP3 PUSH1 0x2 ADD SLOAD EQ DUP1 ISZERO PUSH2 0x20E7 JUMPI POP DUP1 ISZERO JUMPDEST ISZERO PUSH2 0x210A JUMPI PUSH1 0x1 DUP3 PUSH1 0x0 ADD PUSH1 0x0 PUSH2 0x100 EXP DUP2 SLOAD DUP2 PUSH1 0xFF MUL NOT AND SWAP1 DUP4 ISZERO ISZERO MUL OR SWAP1 SSTORE POP JUMPDEST JUMPDEST DUP3 DUP3 PUSH1 0x2 ADD DUP2 SWAP1 SSTORE POP DUP4 PUSH32 0x4BFA799BD52E5CD465E582B11FBAD754D789F4FA526DF2209EC026D2DA586661 DUP5 CALLER PUSH1 0x40 MLOAD PUSH2 0x2146 SWAP3 SWAP2 SWAP1 PUSH2 0x409B JUMP JUMPDEST PUSH1 0x40 MLOAD DUP1 SWAP2 SUB SWAP1 LOG2 POP POP PUSH1 0x1 DUP1 DUP2 SWAP1 SSTORE POP POP POP JUMP JUMPDEST PUSH2 0x2163 PUSH2 0x1904 JUMP JUMPDEST ISZERO PUSH2 0x21A3 JUMPI PUSH1 0x40 MLOAD PUSH32 0x8C379A000000000000000000000000000000000000000000000000000000000 DUP2 MSTORE PUSH1 0x4 ADD PUSH2 0x219A SWAP1 PUSH2 0x3EF9 JUMP JUMPDEST PUSH1 0x40 MLOAD DUP1 SWAP2 SUB SWAP1 REVERT JUMPDEST PUSH1 0x2 PUSH1 0x1 SLOAD EQ ISZERO PUSH2 0x21E9 JUMPI PUSH1 0x40 MLOAD PUSH32 0x8C379A000000000000000000000000000000000000000000000000000000000 DUP2 MSTORE PUSH1 0x4 ADD PUSH2 0x21E0 SWAP1 PUSH2 0x4019 JUMP JUMPDEST PUSH1 0x40 MLOAD DUP1 SWAP2 SUB SWAP1 REVERT JUMPDEST PUSH1 0x2 PUSH1 0x1 DUP2 SWAP1 SSTORE POP PUSH1 0x2 PUSH1 0x0 SWAP1 SLOAD SWAP1 PUSH2 0x100 EXP SWAP1 DIV PUSH20 0xFFFFFFFFFFFFFFFFFFFFFFFFFFFFFFFFFFFFFFFF AND PUSH20 0xFFFFFFFFFFFFFFFFFFFFFFFFFFFFFFFFFFFFFFFF AND PUSH4 0x91D14854 PUSH32 0xC951D7098B66BA0B8B77265B6E9CF0E187D73125A42BCD0061B09A68BE421810 CALLER PUSH1 0x40 MLOAD DUP4 PUSH4 0xFFFFFFFF AND PUSH1 0xE0 SHL DUP2 MSTORE PUSH1 0x4 ADD PUSH2 0x226E SWAP3 SWAP2 SWAP1 PUSH2 0x3D4C JUMP JUMPDEST PUSH1 0x20 PUSH1 0x40 MLOAD DUP1 DUP4 SUB DUP2 DUP7 DUP1 EXTCODESIZE ISZERO DUP1 ISZERO PUSH2 0x2286 JUMPI PUSH1 0x0 DUP1 REVERT JUMPDEST POP GAS STATICCALL ISZERO DUP1 ISZERO PUSH2 0x229A JUMPI RETURNDATASIZE PUSH1 0x0 DUP1 RETURNDATACOPY RETURNDATASIZE PUSH1 0x0 REVERT JUMPDEST POP POP POP POP PUSH1 0x40 MLOAD RETURNDATASIZE PUSH1 0x1F NOT PUSH1 0x1F DUP3 ADD AND DUP3 ADD DUP1 PUSH1 0x40 MSTORE POP DUP2 ADD SWAP1 PUSH2 0x22BE SWAP2 SWAP1 PUSH2 0x348D JUMP JUMPDEST PUSH2 0x22FD JUMPI PUSH1 0x40 MLOAD PUSH32 0x8C379A000000000000000000000000000000000000000000000000000000000 DUP2 MSTORE PUSH1 0x4 ADD PUSH2 0x22F4 SWAP1 PUSH2 0x3FD9 JUMP JUMPDEST PUSH1 0x40 MLOAD DUP1 SWAP2 SUB SWAP1 REVERT JUMPDEST PUSH1 0x3 PUSH1 0x0 SWAP1 SLOAD SWAP1 PUSH2 0x100 EXP SWAP1 DIV PUSH20 0xFFFFFFFFFFFFFFFFFFFFFFFFFFFFFFFFFFFFFFFF AND PUSH20 0xFFFFFFFFFFFFFFFFFFFFFFFFFFFFFFFFFFFFFFFF AND PUSH4 0xC949CF7D DUP3 PUSH1 0x40 MLOAD DUP3 PUSH4 0xFFFFFFFF AND PUSH1 0xE0 SHL DUP2 MSTORE PUSH1 0x4 ADD PUSH2 0x2358 SWAP2 SWAP1 PUSH2 0x3CBC JUMP JUMPDEST PUSH1 0x0 PUSH1 0x40 MLOAD DUP1 DUP4 SUB DUP2 PUSH1 0x0 DUP8 DUP1 EXTCODESIZE ISZERO DUP1 ISZERO PUSH2 0x2372 JUMPI PUSH1 0x0 DUP1 REVERT JUMPDEST POP GAS CALL ISZERO DUP1 ISZERO PUSH2 0x2386 JUMPI RETURNDATASIZE PUSH1 0x0 DUP1 RETURNDATACOPY RETURNDATASIZE PUSH1 0x0 REVERT JUMPDEST POP POP POP POP PUSH1 0x1 DUP1 DUP2 SWAP1 SSTORE POP POP JUMP JUMPDEST PUSH2 0x239C PUSH2 0x1904 JUMP JUMPDEST ISZERO PUSH2 0x23DC JUMPI PUSH1 0x40 MLOAD PUSH32 0x8C379A000000000000000000000000000000000000000000000000000000000 DUP2 MSTORE PUSH1 0x4 ADD PUSH2 0x23D3 SWAP1 PUSH2 0x3EF9 JUMP JUMPDEST PUSH1 0x40 MLOAD DUP1 SWAP2 SUB SWAP1 REVERT JUMPDEST PUSH1 0x2 PUSH1 0x1 SLOAD EQ ISZERO PUSH2 0x2422 JUMPI PUSH1 0x40 MLOAD PUSH32 0x8C379A000000000000000000000000000000000000000000000000000000000 DUP2 MSTORE PUSH1 0x4 ADD PUSH2 0x2419 SWAP1 PUSH2 0x4019 JUMP JUMPDEST PUSH1 0x40 MLOAD DUP1 SWAP2 SUB SWAP1 REVERT JUMPDEST PUSH1 0x2 PUSH1 0x1 DUP2 SWAP1 SSTORE POP PUSH1 0x2 PUSH1 0x0 SWAP1 SLOAD SWAP1 PUSH2 0x100 EXP SWAP1 DIV PUSH20 0xFFFFFFFFFFFFFFFFFFFFFFFFFFFFFFFFFFFFFFFF AND PUSH20 0xFFFFFFFFFFFFFFFFFFFFFFFFFFFFFFFFFFFFFFFF AND PUSH4 0x91D14854 PUSH32 0xDF8B4C520FFE197C5343C6F5AEC59570151EF9A492F2C624FD45DDDE6135EC42 CALLER PUSH1 0x40 MLOAD DUP4 PUSH4 0xFFFFFFFF AND PUSH1 0xE0 SHL DUP2 MSTORE PUSH1 0x4 ADD PUSH2 0x24A7 SWAP3 SWAP2 SWAP1 PUSH2 0x3D4C JUMP JUMPDEST PUSH1 0x20 PUSH1 0x40 MLOAD DUP1 DUP4 SUB DUP2 DUP7 DUP1 EXTCODESIZE ISZERO DUP1 ISZERO PUSH2 0x24BF JUMPI PUSH1 0x0 DUP1 REVERT JUMPDEST POP GAS STATICCALL ISZERO DUP1 ISZERO PUSH2 0x24D3 JUMPI RETURNDATASIZE PUSH1 0x0 DUP1 RETURNDATACOPY RETURNDATASIZE PUSH1 0x0 REVERT JUMPDEST POP POP POP POP PUSH1 0x40 MLOAD RETURNDATASIZE PUSH1 0x1F NOT PUSH1 0x1F DUP3 ADD AND DUP3 ADD DUP1 PUSH1 0x40 MSTORE POP DUP2 ADD SWAP1 PUSH2 0x24F7 SWAP2 SWAP1 PUSH2 0x348D JUMP JUMPDEST PUSH2 0x2536 JUMPI PUSH1 0x40 MLOAD PUSH32 0x8C379A000000000000000000000000000000000000000000000000000000000 DUP2 MSTORE PUSH1 0x4 ADD PUSH2 0x252D SWAP1 PUSH2 0x3F39 JUMP JUMPDEST PUSH1 0x40 MLOAD DUP1 SWAP2 SUB SWAP1 REVERT JUMPDEST PUSH1 0x0 DUP3 GT PUSH2 0x2579 JUMPI PUSH1 0x40 MLOAD PUSH32 0x8C379A000000000000000000000000000000000000000000000000000000000 DUP2 MSTORE PUSH1 0x4 ADD PUSH2 0x2570 SWAP1 PUSH2 0x3E19 JUMP JUMPDEST PUSH1 0x40 MLOAD DUP1 SWAP2 SUB SWAP1 REVERT JUMPDEST PUSH1 0x0 DUP2 GT PUSH2 0x25BC JUMPI PUSH1 0x40 MLOAD PUSH32 0x8C379A000000000000000000000000000000000000000000000000000000000 DUP2 MSTORE PUSH1 0x4 ADD PUSH2 0x25B3 SWAP1 PUSH2 0x4039 JUMP JUMPDEST PUSH1 0x40 MLOAD DUP1 SWAP2 SUB SWAP1 REVERT JUMPDEST PUSH32 0x0 PUSH20 0xFFFFFFFFFFFFFFFFFFFFFFFFFFFFFFFFFFFFFFFF AND PUSH4 0x91AC2C4E DUP5 PUSH1 0x40 MLOAD DUP3 PUSH4 0xFFFFFFFF AND PUSH1 0xE0 SHL DUP2 MSTORE PUSH1 0x4 ADD PUSH2 0x2615 SWAP2 SWAP1 PUSH2 0x4079 JUMP JUMPDEST PUSH1 0x0 PUSH1 0x40 MLOAD DUP1 DUP4 SUB DUP2 PUSH1 0x0 DUP8 DUP1 EXTCODESIZE ISZERO DUP1 ISZERO PUSH2 0x262F JUMPI PUSH1 0x0 DUP1 REVERT JUMPDEST POP GAS CALL ISZERO DUP1 ISZERO PUSH2 0x2643 JUMPI RETURNDATASIZE PUSH1 0x0 DUP1 RETURNDATACOPY RETURNDATASIZE PUSH1 0x0 REVERT JUMPDEST POP POP POP POP PUSH1 0x0 PUSH32 0x0 PUSH20 0xFFFFFFFFFFFFFFFFFFFFFFFFFFFFFFFFFFFFFFFF AND PUSH4 0xB02A2756 PUSH1 0x40 MLOAD DUP2 PUSH4 0xFFFFFFFF AND PUSH1 0xE0 SHL DUP2 MSTORE PUSH1 0x4 ADD PUSH1 0x20 PUSH1 0x40 MLOAD DUP1 DUP4 SUB DUP2 PUSH1 0x0 DUP8 DUP1 EXTCODESIZE ISZERO DUP1 ISZERO PUSH2 0x26B1 JUMPI PUSH1 0x0 DUP1 REVERT JUMPDEST POP GAS CALL ISZERO DUP1 ISZERO PUSH2 0x26C5 JUMPI RETURNDATASIZE PUSH1 0x0 DUP1 RETURNDATACOPY RETURNDATASIZE PUSH1 0x0 REVERT JUMPDEST POP POP POP POP PUSH1 0x40 MLOAD RETURNDATASIZE PUSH1 0x1F NOT PUSH1 0x1F DUP3 ADD AND DUP3 ADD DUP1 PUSH1 0x40 MSTORE POP DUP2 ADD SWAP1 PUSH2 0x26E9 SWAP2 SWAP1 PUSH2 0x35B0 JUMP JUMPDEST SWAP1 POP PUSH1 0x0 PUSH1 0x4 PUSH1 0x0 DUP4 DUP2 MSTORE PUSH1 0x20 ADD SWAP1 DUP2 MSTORE PUSH1 0x20 ADD PUSH1 0x0 KECCAK256 PUSH1 0x0 CALLER PUSH20 0xFFFFFFFFFFFFFFFFFFFFFFFFFFFFFFFFFFFFFFFF AND PUSH20 0xFFFFFFFFFFFFFFFFFFFFFFFFFFFFFFFFFFFFFFFF AND DUP2 MSTORE PUSH1 0x20 ADD SWAP1 DUP2 MSTORE PUSH1 0x20 ADD PUSH1 0x0 KECCAK256 PUSH1 0x40 MLOAD DUP1 PUSH1 0xA0 ADD PUSH1 0x40 MSTORE SWAP1 DUP2 PUSH1 0x0 DUP3 ADD PUSH1 0x0 SWAP1 SLOAD SWAP1 PUSH2 0x100 EXP SWAP1 DIV PUSH1 0xFF AND ISZERO ISZERO ISZERO ISZERO DUP2 MSTORE PUSH1 0x20 ADD PUSH1 0x1 DUP3 ADD SLOAD DUP2 MSTORE PUSH1 0x20 ADD PUSH1 0x2 DUP3 ADD SLOAD DUP2 MSTORE PUSH1 0x20 ADD PUSH1 0x3 DUP3 ADD SLOAD DUP2 MSTORE PUSH1 0x20 ADD PUSH1 0x4 DUP3 ADD SLOAD DUP2 MSTORE POP POP SWAP1 POP DUP1 PUSH1 0x0 ADD MLOAD ISZERO PUSH2 0x27D2 JUMPI PUSH1 0x40 MLOAD PUSH32 0x8C379A000000000000000000000000000000000000000000000000000000000 DUP2 MSTORE PUSH1 0x4 ADD PUSH2 0x27C9 SWAP1 PUSH2 0x3E59 JUMP JUMPDEST PUSH1 0x40 MLOAD DUP1 SWAP2 SUB SWAP1 REVERT JUMPDEST PUSH1 0x40 MLOAD DUP1 PUSH1 0xA0 ADD PUSH1 0x40 MSTORE DUP1 PUSH1 0x1 ISZERO ISZERO DUP2 MSTORE PUSH1 0x20 ADD DUP4 DUP2 MSTORE PUSH1 0x20 ADD DUP5 DUP2 MSTORE PUSH1 0x20 ADD TIMESTAMP DUP2 MSTORE PUSH1 0x20 ADD DUP6 DUP2 MSTORE POP PUSH1 0x4 PUSH1 0x0 DUP5 DUP2 MSTORE PUSH1 0x20 ADD SWAP1 DUP2 MSTORE PUSH1 0x20 ADD PUSH1 0x0 KECCAK256 PUSH1 0x0 CALLER PUSH20 0xFFFFFFFFFFFFFFFFFFFFFFFFFFFFFFFFFFFFFFFF AND PUSH20 0xFFFFFFFFFFFFFFFFFFFFFFFFFFFFFFFFFFFFFFFF AND DUP2 MSTORE PUSH1 0x20 ADD SWAP1 DUP2 MSTORE PUSH1 0x20 ADD PUSH1 0x0 KECCAK256 PUSH1 0x0 DUP3 ADD MLOAD DUP2 PUSH1 0x0 ADD PUSH1 0x0 PUSH2 0x100 EXP DUP2 SLOAD DUP2 PUSH1 0xFF MUL NOT AND SWAP1 DUP4 ISZERO ISZERO MUL OR SWAP1 SSTORE POP PUSH1 0x20 DUP3 ADD MLOAD DUP2 PUSH1 0x1 ADD SSTORE PUSH1 0x40 DUP3 ADD MLOAD DUP2 PUSH1 0x2 ADD SSTORE PUSH1 0x60 DUP3 ADD MLOAD DUP2 PUSH1 0x3 ADD SSTORE PUSH1 0x80 DUP3 ADD MLOAD DUP2 PUSH1 0x4 ADD SSTORE SWAP1 POP POP DUP2 PUSH32 0x4E0411259C41F439977629C5265A0B21B5392C5FFACAAF8E1937846247760307 DUP7 PUSH1 0x0 ADD MLOAD DUP6 DUP8 CALLER PUSH1 0x40 MLOAD PUSH2 0x28D1 SWAP5 SWAP4 SWAP3 SWAP2 SWAP1 PUSH2 0x3DCD JUMP JUMPDEST PUSH1 0x40 MLOAD DUP1 SWAP2 SUB SWAP1 LOG2 POP POP PUSH1 0x1 DUP1 DUP2 SWAP1 SSTORE POP POP POP POP JUMP JUMPDEST PUSH2 0x28EF PUSH2 0x2B1E JUMP JUMPDEST PUSH20 0xFFFFFFFFFFFFFFFFFFFFFFFFFFFFFFFFFFFFFFFF AND PUSH2 0x290D PUSH2 0x1DE3 JUMP JUMPDEST PUSH20 0xFFFFFFFFFFFFFFFFFFFFFFFFFFFFFFFFFFFFFFFF AND EQ PUSH2 0x2963 JUMPI PUSH1 0x40 MLOAD PUSH32 0x8C379A000000000000000000000000000000000000000000000000000000000 DUP2 MSTORE PUSH1 0x4 ADD PUSH2 0x295A SWAP1 PUSH2 0x3F59 JUMP JUMPDEST PUSH1 0x40 MLOAD DUP1 SWAP2 SUB SWAP1 REVERT JUMPDEST DUP1 PUSH1 0x3 PUSH1 0x0 PUSH2 0x100 EXP DUP2 SLOAD DUP2 PUSH20 0xFFFFFFFFFFFFFFFFFFFFFFFFFFFFFFFFFFFFFFFF MUL NOT AND SWAP1 DUP4 PUSH20 0xFFFFFFFFFFFFFFFFFFFFFFFFFFFFFFFFFFFFFFFF AND MUL OR SWAP1 SSTORE POP POP JUMP JUMPDEST PUSH1 0x0 PUSH4 0xF23A6E61 PUSH1 0xE0 SHL SWAP1 POP SWAP6 SWAP5 POP POP POP POP POP JUMP JUMPDEST PUSH2 0x29C4 PUSH2 0x2B1E JUMP JUMPDEST PUSH20 0xFFFFFFFFFFFFFFFFFFFFFFFFFFFFFFFFFFFFFFFF AND PUSH2 0x29E2 PUSH2 0x1DE3 JUMP JUMPDEST PUSH20 0xFFFFFFFFFFFFFFFFFFFFFFFFFFFFFFFFFFFFFFFF AND EQ PUSH2 0x2A38 JUMPI PUSH1 0x40 MLOAD PUSH32 0x8C379A000000000000000000000000000000000000000000000000000000000 DUP2 MSTORE PUSH1 0x4 ADD PUSH2 0x2A2F SWAP1 PUSH2 0x3F59 JUMP JUMPDEST PUSH1 0x40 MLOAD DUP1 SWAP2 SUB SWAP1 REVERT JUMPDEST PUSH1 0x0 PUSH20 0xFFFFFFFFFFFFFFFFFFFFFFFFFFFFFFFFFFFFFFFF AND DUP2 PUSH20 0xFFFFFFFFFFFFFFFFFFFFFFFFFFFFFFFFFFFFFFFF AND EQ ISZERO PUSH2 0x2AA8 JUMPI PUSH1 0x40 MLOAD PUSH32 0x8C379A000000000000000000000000000000000000000000000000000000000 DUP2 MSTORE PUSH1 0x4 ADD PUSH2 0x2A9F SWAP1 PUSH2 0x3EB9 JUMP JUMPDEST PUSH1 0x40 MLOAD DUP1 SWAP2 SUB SWAP1 REVERT JUMPDEST PUSH2 0x2AB1 DUP2 PUSH2 0x2C50 JUMP JUMPDEST POP JUMP JUMPDEST PUSH1 0x0 PUSH32 0x1FFC9A700000000000000000000000000000000000000000000000000000000 PUSH28 0xFFFFFFFFFFFFFFFFFFFFFFFFFFFFFFFFFFFFFFFFFFFFFFFFFFFFFFFF NOT AND DUP3 PUSH28 0xFFFFFFFFFFFFFFFFFFFFFFFFFFFFFFFFFFFFFFFFFFFFFFFFFFFFFFFF NOT AND EQ SWAP1 POP SWAP2 SWAP1 POP JUMP JUMPDEST PUSH1 0x0 CALLER SWAP1 POP SWAP1 JUMP JUMPDEST PUSH2 0x2BA9 DUP5 PUSH4 0x23B872DD PUSH1 0xE0 SHL DUP6 DUP6 DUP6 PUSH1 0x40 MLOAD PUSH1 0x24 ADD PUSH2 0x2B47 SWAP4 SWAP3 SWAP2 SWAP1 PUSH2 0x3BBF JUMP JUMPDEST PUSH1 0x40 MLOAD PUSH1 0x20 DUP2 DUP4 SUB SUB DUP2 MSTORE SWAP1 PUSH1 0x40 MSTORE SWAP1 PUSH28 0xFFFFFFFFFFFFFFFFFFFFFFFFFFFFFFFFFFFFFFFFFFFFFFFFFFFFFFFF NOT AND PUSH1 0x20 DUP3 ADD DUP1 MLOAD PUSH28 0xFFFFFFFFFFFFFFFFFFFFFFFFFFFFFFFFFFFFFFFFFFFFFFFFFFFFFFFF DUP4 DUP2 DUP4 AND OR DUP4 MSTORE POP POP POP POP PUSH2 0x2DB7 JUMP JUMPDEST POP POP POP POP JUMP JUMPDEST PUSH2 0x2BB7 PUSH2 0x1904 JUMP JUMPDEST PUSH2 0x2BF6 JUMPI PUSH1 0x40 MLOAD PUSH32 0x8C379A000000000000000000000000000000000000000000000000000000000 DUP2 MSTORE PUSH1 0x4 ADD PUSH2 0x2BED SWAP1 PUSH2 0x3E39 JUMP JUMPDEST PUSH1 0x40 MLOAD DUP1 SWAP2 SUB SWAP1 REVERT JUMPDEST PUSH1 0x0 DUP1 PUSH1 0x0 PUSH2 0x100 EXP DUP2 SLOAD DUP2 PUSH1 0xFF MUL NOT AND SWAP1 DUP4 ISZERO ISZERO MUL OR SWAP1 SSTORE POP PUSH32 0x5DB9EE0A495BF2E6FF9C91A7834C1BA4FDD244A5E8AA4E537BD38AEAE4B073AA PUSH2 0x2C39 PUSH2 0x2B1E JUMP JUMPDEST PUSH1 0x40 MLOAD PUSH2 0x2C46 SWAP2 SWAP1 PUSH2 0x3BA4 JUMP JUMPDEST PUSH1 0x40 MLOAD DUP1 SWAP2 SUB SWAP1 LOG1 JUMP JUMPDEST PUSH1 0x0 DUP1 PUSH1 0x1 SWAP1 SLOAD SWAP1 PUSH2 0x100 EXP SWAP1 DIV PUSH20 0xFFFFFFFFFFFFFFFFFFFFFFFFFFFFFFFFFFFFFFFF AND SWAP1 POP DUP2 PUSH1 0x0 PUSH1 0x1 PUSH2 0x100 EXP DUP2 SLOAD DUP2 PUSH20 0xFFFFFFFFFFFFFFFFFFFFFFFFFFFFFFFFFFFFFFFF MUL NOT AND SWAP1 DUP4 PUSH20 0xFFFFFFFFFFFFFFFFFFFFFFFFFFFFFFFFFFFFFFFF AND MUL OR SWAP1 SSTORE POP DUP2 PUSH20 0xFFFFFFFFFFFFFFFFFFFFFFFFFFFFFFFFFFFFFFFF AND DUP2 PUSH20 0xFFFFFFFFFFFFFFFFFFFFFFFFFFFFFFFFFFFFFFFF AND PUSH32 0x8BE0079C531659141344CD1FD0A4F28419497F9722A3DAAFE3B4186F6B6457E0 PUSH1 0x40 MLOAD PUSH1 0x40 MLOAD DUP1 SWAP2 SUB SWAP1 LOG3 POP POP JUMP JUMPDEST PUSH2 0x2D1D PUSH2 0x1904 JUMP JUMPDEST ISZERO PUSH2 0x2D5D JUMPI PUSH1 0x40 MLOAD PUSH32 0x8C379A000000000000000000000000000000000000000000000000000000000 DUP2 MSTORE PUSH1 0x4 ADD PUSH2 0x2D54 SWAP1 PUSH2 0x3EF9 JUMP JUMPDEST PUSH1 0x40 MLOAD DUP1 SWAP2 SUB SWAP1 REVERT JUMPDEST PUSH1 0x1 PUSH1 0x0 DUP1 PUSH2 0x100 EXP DUP2 SLOAD DUP2 PUSH1 0xFF MUL NOT AND SWAP1 DUP4 ISZERO ISZERO MUL OR SWAP1 SSTORE POP PUSH32 0x62E78CEA01BEE320CD4E420270B5EA74000D11B0C9F74754EBDBFC544B05A258 PUSH2 0x2DA0 PUSH2 0x2B1E JUMP JUMPDEST PUSH1 0x40 MLOAD PUSH2 0x2DAD SWAP2 SWAP1 PUSH2 0x3BA4 JUMP JUMPDEST PUSH1 0x40 MLOAD DUP1 SWAP2 SUB SWAP1 LOG1 JUMP JUMPDEST PUSH1 0x0 PUSH2 0x2E19 DUP3 PUSH1 0x40 MLOAD DUP1 PUSH1 0x40 ADD PUSH1 0x40 MSTORE DUP1 PUSH1 0x20 DUP2 MSTORE PUSH1 0x20 ADD PUSH32 0x5361666545524332303A206C6F772D6C6576656C2063616C6C206661696C6564 DUP2 MSTORE POP DUP6 PUSH20 0xFFFFFFFFFFFFFFFFFFFFFFFFFFFFFFFFFFFFFFFF AND PUSH2 0x2E7E SWAP1 SWAP3 SWAP2 SWAP1 PUSH4 0xFFFFFFFF AND JUMP JUMPDEST SWAP1 POP PUSH1 0x0 DUP2 MLOAD GT ISZERO PUSH2 0x2E79 JUMPI DUP1 DUP1 PUSH1 0x20 ADD SWAP1 MLOAD DUP2 ADD SWAP1 PUSH2 0x2E39 SWAP2 SWAP1 PUSH2 0x348D JUMP JUMPDEST PUSH2 0x2E78 JUMPI PUSH1 0x40 MLOAD PUSH32 0x8C379A000000000000000000000000000000000000000000000000000000000 DUP2 MSTORE PUSH1 0x4 ADD PUSH2 0x2E6F SWAP1 PUSH2 0x3FF9 JUMP JUMPDEST PUSH1 0x40 MLOAD DUP1 SWAP2 SUB SWAP1 REVERT JUMPDEST JUMPDEST POP POP POP JUMP JUMPDEST PUSH1 0x60 PUSH2 0x2E8D DUP5 DUP5 PUSH1 0x0 DUP6 PUSH2 0x2E96 JUMP JUMPDEST SWAP1 POP SWAP4 SWAP3 POP POP POP JUMP JUMPDEST PUSH1 0x60 DUP3 SELFBALANCE LT ISZERO PUSH2 0x2EDB JUMPI PUSH1 0x40 MLOAD PUSH32 0x8C379A000000000000000000000000000000000000000000000000000000000 DUP2 MSTORE PUSH1 0x4 ADD PUSH2 0x2ED2 SWAP1 PUSH2 0x3ED9 JUMP JUMPDEST PUSH1 0x40 MLOAD DUP1 SWAP2 SUB SWAP1 REVERT JUMPDEST PUSH2 0x2EE4 DUP6 PUSH2 0x2FAA JUMP JUMPDEST PUSH2 0x2F23 JUMPI PUSH1 0x40 MLOAD PUSH32 0x8C379A000000000000000000000000000000000000000000000000000000000 DUP2 MSTORE PUSH1 0x4 ADD PUSH2 0x2F1A SWAP1 PUSH2 0x3F99 JUMP JUMPDEST PUSH1 0x40 MLOAD DUP1 SWAP2 SUB SWAP1 REVERT JUMPDEST PUSH1 0x0 DUP1 DUP7 PUSH20 0xFFFFFFFFFFFFFFFFFFFFFFFFFFFFFFFFFFFFFFFF AND DUP6 DUP8 PUSH1 0x40 MLOAD PUSH2 0x2F4C SWAP2 SWAP1 PUSH2 0x3B8D JUMP JUMPDEST PUSH1 0x0 PUSH1 0x40 MLOAD DUP1 DUP4 SUB DUP2 DUP6 DUP8 GAS CALL SWAP3 POP POP POP RETURNDATASIZE DUP1 PUSH1 0x0 DUP2 EQ PUSH2 0x2F89 JUMPI PUSH1 0x40 MLOAD SWAP2 POP PUSH1 0x1F NOT PUSH1 0x3F RETURNDATASIZE ADD AND DUP3 ADD PUSH1 0x40 MSTORE RETURNDATASIZE DUP3 MSTORE RETURNDATASIZE PUSH1 0x0 PUSH1 0x20 DUP5 ADD RETURNDATACOPY PUSH2 0x2F8E JUMP JUMPDEST PUSH1 0x60 SWAP2 POP JUMPDEST POP SWAP2 POP SWAP2 POP PUSH2 0x2F9E DUP3 DUP3 DUP7 PUSH2 0x2FCD JUMP JUMPDEST SWAP3 POP POP POP SWAP5 SWAP4 POP POP POP POP JUMP JUMPDEST PUSH1 0x0 DUP1 DUP3 PUSH20 0xFFFFFFFFFFFFFFFFFFFFFFFFFFFFFFFFFFFFFFFF AND EXTCODESIZE GT SWAP1 POP SWAP2 SWAP1 POP JUMP JUMPDEST PUSH1 0x60 DUP4 ISZERO PUSH2 0x2FDD JUMPI DUP3 SWAP1 POP PUSH2 0x302D JUMP JUMPDEST PUSH1 0x0 DUP4 MLOAD GT ISZERO PUSH2 0x2FF0 JUMPI DUP3 MLOAD DUP1 DUP5 PUSH1 0x20 ADD REVERT JUMPDEST DUP2 PUSH1 0x40 MLOAD PUSH32 0x8C379A000000000000000000000000000000000000000000000000000000000 DUP2 MSTORE PUSH1 0x4 ADD PUSH2 0x3024 SWAP2 SWAP1 PUSH2 0x3DAB JUMP JUMPDEST PUSH1 0x40 MLOAD DUP1 SWAP2 SUB SWAP1 REVERT JUMPDEST SWAP4 SWAP3 POP POP POP JUMP JUMPDEST PUSH1 0x0 PUSH2 0x3047 PUSH2 0x3042 DUP5 PUSH2 0x4180 JUMP JUMPDEST PUSH2 0x415B JUMP JUMPDEST SWAP1 POP DUP1 DUP4 DUP3 MSTORE PUSH1 0x20 DUP3 ADD SWAP1 POP DUP3 DUP6 PUSH1 0x20 DUP7 MUL DUP3 ADD GT ISZERO PUSH2 0x306A JUMPI PUSH2 0x3069 PUSH2 0x44CF JUMP JUMPDEST JUMPDEST PUSH1 0x0 JUMPDEST DUP6 DUP2 LT ISZERO PUSH2 0x309A JUMPI DUP2 PUSH2 0x3080 DUP9 DUP3 PUSH2 0x3287 JUMP JUMPDEST DUP5 MSTORE PUSH1 0x20 DUP5 ADD SWAP4 POP PUSH1 0x20 DUP4 ADD SWAP3 POP POP PUSH1 0x1 DUP2 ADD SWAP1 POP PUSH2 0x306D JUMP JUMPDEST POP POP POP SWAP4 SWAP3 POP POP POP JUMP JUMPDEST PUSH1 0x0 PUSH2 0x30B7 PUSH2 0x30B2 DUP5 PUSH2 0x41AC JUMP JUMPDEST PUSH2 0x415B JUMP JUMPDEST SWAP1 POP DUP3 DUP2 MSTORE PUSH1 0x20 DUP2 ADD DUP5 DUP5 DUP5 ADD GT ISZERO PUSH2 0x30D3 JUMPI PUSH2 0x30D2 PUSH2 0x44D4 JUMP JUMPDEST JUMPDEST PUSH2 0x30DE DUP5 DUP3 DUP6 PUSH2 0x43EF JUMP JUMPDEST POP SWAP4 SWAP3 POP POP POP JUMP JUMPDEST PUSH1 0x0 PUSH2 0x30F9 PUSH2 0x30F4 DUP5 PUSH2 0x41DD JUMP JUMPDEST PUSH2 0x415B JUMP JUMPDEST SWAP1 POP DUP3 DUP2 MSTORE PUSH1 0x20 DUP2 ADD DUP5 DUP5 DUP5 ADD GT ISZERO PUSH2 0x3115 JUMPI PUSH2 0x3114 PUSH2 0x44D4 JUMP JUMPDEST JUMPDEST PUSH2 0x3120 DUP5 DUP3 DUP6 PUSH2 0x43EF JUMP JUMPDEST POP SWAP4 SWAP3 POP POP POP JUMP JUMPDEST PUSH1 0x0 DUP2 CALLDATALOAD SWAP1 POP PUSH2 0x3137 DUP2 PUSH2 0x49A4 JUMP JUMPDEST SWAP3 SWAP2 POP POP JUMP JUMPDEST PUSH1 0x0 DUP3 PUSH1 0x1F DUP4 ADD SLT PUSH2 0x3152 JUMPI PUSH2 0x3151 PUSH2 0x44C0 JUMP JUMPDEST JUMPDEST DUP2 CALLDATALOAD PUSH2 0x3162 DUP5 DUP3 PUSH1 0x20 DUP7 ADD PUSH2 0x3034 JUMP JUMPDEST SWAP2 POP POP SWAP3 SWAP2 POP POP JUMP JUMPDEST PUSH1 0x0 DUP2 CALLDATALOAD SWAP1 POP PUSH2 0x317A DUP2 PUSH2 0x49BB JUMP JUMPDEST SWAP3 SWAP2 POP POP JUMP JUMPDEST PUSH1 0x0 DUP2 MLOAD SWAP1 POP PUSH2 0x318F DUP2 PUSH2 0x49BB JUMP JUMPDEST SWAP3 SWAP2 POP POP JUMP JUMPDEST PUSH1 0x0 DUP2 CALLDATALOAD SWAP1 POP PUSH2 0x31A4 DUP2 PUSH2 0x49D2 JUMP JUMPDEST SWAP3 SWAP2 POP POP JUMP JUMPDEST PUSH1 0x0 DUP3 PUSH1 0x1F DUP4 ADD SLT PUSH2 0x31BF JUMPI PUSH2 0x31BE PUSH2 0x44C0 JUMP JUMPDEST JUMPDEST DUP2 CALLDATALOAD PUSH2 0x31CF DUP5 DUP3 PUSH1 0x20 DUP7 ADD PUSH2 0x30A4 JUMP JUMPDEST SWAP2 POP POP SWAP3 SWAP2 POP POP JUMP JUMPDEST PUSH1 0x0 DUP2 CALLDATALOAD SWAP1 POP PUSH2 0x31E7 DUP2 PUSH2 0x49E9 JUMP JUMPDEST SWAP3 SWAP2 POP POP JUMP JUMPDEST PUSH1 0x0 DUP3 PUSH1 0x1F DUP4 ADD SLT PUSH2 0x3202 JUMPI PUSH2 0x3201 PUSH2 0x44C0 JUMP JUMPDEST JUMPDEST DUP2 CALLDATALOAD PUSH2 0x3212 DUP5 DUP3 PUSH1 0x20 DUP7 ADD PUSH2 0x30E6 JUMP JUMPDEST SWAP2 POP POP SWAP3 SWAP2 POP POP JUMP JUMPDEST PUSH1 0x0 PUSH1 0x40 DUP3 DUP5 SUB SLT ISZERO PUSH2 0x3231 JUMPI PUSH2 0x3230 PUSH2 0x44C5 JUMP JUMPDEST JUMPDEST PUSH2 0x323B PUSH1 0x40 PUSH2 0x415B JUMP JUMPDEST SWAP1 POP PUSH1 0x0 DUP3 ADD CALLDATALOAD PUSH8 0xFFFFFFFFFFFFFFFF DUP2 GT ISZERO PUSH2 0x325B JUMPI PUSH2 0x325A PUSH2 0x44CA JUMP JUMPDEST JUMPDEST PUSH2 0x3267 DUP5 DUP3 DUP6 ADD PUSH2 0x31ED JUMP JUMPDEST PUSH1 0x0 DUP4 ADD MSTORE POP PUSH1 0x20 PUSH2 0x327B DUP5 DUP3 DUP6 ADD PUSH2 0x316B JUMP JUMPDEST PUSH1 0x20 DUP4 ADD MSTORE POP SWAP3 SWAP2 POP POP JUMP JUMPDEST PUSH1 0x0 DUP2 CALLDATALOAD SWAP1 POP PUSH2 0x3296 DUP2 PUSH2 0x4A00 JUMP JUMPDEST SWAP3 SWAP2 POP POP JUMP JUMPDEST PUSH1 0x0 DUP2 MLOAD SWAP1 POP PUSH2 0x32AB DUP2 PUSH2 0x4A00 JUMP JUMPDEST SWAP3 SWAP2 POP POP JUMP JUMPDEST PUSH1 0x0 PUSH1 0x20 DUP3 DUP5 SUB SLT ISZERO PUSH2 0x32C7 JUMPI PUSH2 0x32C6 PUSH2 0x44DE JUMP JUMPDEST JUMPDEST PUSH1 0x0 PUSH2 0x32D5 DUP5 DUP3 DUP6 ADD PUSH2 0x3128 JUMP JUMPDEST SWAP2 POP POP SWAP3 SWAP2 POP POP JUMP JUMPDEST PUSH1 0x0 DUP1 PUSH1 0x0 DUP1 PUSH1 0x0 PUSH1 0xA0 DUP7 DUP9 SUB SLT ISZERO PUSH2 0x32FA JUMPI PUSH2 0x32F9 PUSH2 0x44DE JUMP JUMPDEST JUMPDEST PUSH1 0x0 PUSH2 0x3308 DUP9 DUP3 DUP10 ADD PUSH2 0x3128 JUMP JUMPDEST SWAP6 POP POP PUSH1 0x20 PUSH2 0x3319 DUP9 DUP3 DUP10 ADD PUSH2 0x3128 JUMP JUMPDEST SWAP5 POP POP PUSH1 0x40 DUP7 ADD CALLDATALOAD PUSH8 0xFFFFFFFFFFFFFFFF DUP2 GT ISZERO PUSH2 0x333A JUMPI PUSH2 0x3339 PUSH2 0x44D9 JUMP JUMPDEST JUMPDEST PUSH2 0x3346 DUP9 DUP3 DUP10 ADD PUSH2 0x313D JUMP JUMPDEST SWAP4 POP POP PUSH1 0x60 DUP7 ADD CALLDATALOAD PUSH8 0xFFFFFFFFFFFFFFFF DUP2 GT ISZERO PUSH2 0x3367 JUMPI PUSH2 0x3366 PUSH2 0x44D9 JUMP JUMPDEST JUMPDEST PUSH2 0x3373 DUP9 DUP3 DUP10 ADD PUSH2 0x313D JUMP JUMPDEST SWAP3 POP POP PUSH1 0x80 DUP7 ADD CALLDATALOAD PUSH8 0xFFFFFFFFFFFFFFFF DUP2 GT ISZERO PUSH2 0x3394 JUMPI PUSH2 0x3393 PUSH2 0x44D9 JUMP JUMPDEST JUMPDEST PUSH2 0x33A0 DUP9 DUP3 DUP10 ADD PUSH2 0x31AA JUMP JUMPDEST SWAP2 POP POP SWAP3 SWAP6 POP SWAP3 SWAP6 SWAP1 SWAP4 POP JUMP JUMPDEST PUSH1 0x0 DUP1 PUSH1 0x0 DUP1 PUSH1 0x0 PUSH1 0xA0 DUP7 DUP9 SUB SLT ISZERO PUSH2 0x33C9 JUMPI PUSH2 0x33C8 PUSH2 0x44DE JUMP JUMPDEST JUMPDEST PUSH1 0x0 PUSH2 0x33D7 DUP9 DUP3 DUP10 ADD PUSH2 0x3128 JUMP JUMPDEST SWAP6 POP POP PUSH1 0x20 PUSH2 0x33E8 DUP9 DUP3 DUP10 ADD PUSH2 0x3128 JUMP JUMPDEST SWAP5 POP POP PUSH1 0x40 PUSH2 0x33F9 DUP9 DUP3 DUP10 ADD PUSH2 0x3287 JUMP JUMPDEST SWAP4 POP POP PUSH1 0x60 PUSH2 0x340A DUP9 DUP3 DUP10 ADD PUSH2 0x3287 JUMP JUMPDEST SWAP3 POP POP PUSH1 0x80 DUP7 ADD CALLDATALOAD PUSH8 0xFFFFFFFFFFFFFFFF DUP2 GT ISZERO PUSH2 0x342B JUMPI PUSH2 0x342A PUSH2 0x44D9 JUMP JUMPDEST JUMPDEST PUSH2 0x3437 DUP9 DUP3 DUP10 ADD PUSH2 0x31AA JUMP JUMPDEST SWAP2 POP POP SWAP3 SWAP6 POP SWAP3 SWAP6 SWAP1 SWAP4 POP JUMP JUMPDEST PUSH1 0x0 PUSH1 0x20 DUP3 DUP5 SUB SLT ISZERO PUSH2 0x345A JUMPI PUSH2 0x3459 PUSH2 0x44DE JUMP JUMPDEST JUMPDEST PUSH1 0x0 DUP3 ADD CALLDATALOAD PUSH8 0xFFFFFFFFFFFFFFFF DUP2 GT ISZERO PUSH2 0x3478 JUMPI PUSH2 0x3477 PUSH2 0x44D9 JUMP JUMPDEST JUMPDEST PUSH2 0x3484 DUP5 DUP3 DUP6 ADD PUSH2 0x313D JUMP JUMPDEST SWAP2 POP POP SWAP3 SWAP2 POP POP JUMP JUMPDEST PUSH1 0x0 PUSH1 0x20 DUP3 DUP5 SUB SLT ISZERO PUSH2 0x34A3 JUMPI PUSH2 0x34A2 PUSH2 0x44DE JUMP JUMPDEST JUMPDEST PUSH1 0x0 PUSH2 0x34B1 DUP5 DUP3 DUP6 ADD PUSH2 0x3180 JUMP JUMPDEST SWAP2 POP POP SWAP3 SWAP2 POP POP JUMP JUMPDEST PUSH1 0x0 PUSH1 0x20 DUP3 DUP5 SUB SLT ISZERO PUSH2 0x34D0 JUMPI PUSH2 0x34CF PUSH2 0x44DE JUMP JUMPDEST JUMPDEST PUSH1 0x0 PUSH2 0x34DE DUP5 DUP3 DUP6 ADD PUSH2 0x3195 JUMP JUMPDEST SWAP2 POP POP SWAP3 SWAP2 POP POP JUMP JUMPDEST PUSH1 0x0 PUSH1 0x20 DUP3 DUP5 SUB SLT ISZERO PUSH2 0x34FD JUMPI PUSH2 0x34FC PUSH2 0x44DE JUMP JUMPDEST JUMPDEST PUSH1 0x0 PUSH2 0x350B DUP5 DUP3 DUP6 ADD PUSH2 0x31D8 JUMP JUMPDEST SWAP2 POP POP SWAP3 SWAP2 POP POP JUMP JUMPDEST PUSH1 0x0 DUP1 PUSH1 0x0 PUSH1 0x60 DUP5 DUP7 SUB SLT ISZERO PUSH2 0x352D JUMPI PUSH2 0x352C PUSH2 0x44DE JUMP JUMPDEST JUMPDEST PUSH1 0x0 DUP5 ADD CALLDATALOAD PUSH8 0xFFFFFFFFFFFFFFFF DUP2 GT ISZERO PUSH2 0x354B JUMPI PUSH2 0x354A PUSH2 0x44D9 JUMP JUMPDEST JUMPDEST PUSH2 0x3557 DUP7 DUP3 DUP8 ADD PUSH2 0x321B JUMP JUMPDEST SWAP4 POP POP PUSH1 0x20 PUSH2 0x3568 DUP7 DUP3 DUP8 ADD PUSH2 0x3287 JUMP JUMPDEST SWAP3 POP POP PUSH1 0x40 PUSH2 0x3579 DUP7 DUP3 DUP8 ADD PUSH2 0x3287 JUMP JUMPDEST SWAP2 POP POP SWAP3 POP SWAP3 POP SWAP3 JUMP JUMPDEST PUSH1 0x0 PUSH1 0x20 DUP3 DUP5 SUB SLT ISZERO PUSH2 0x3599 JUMPI PUSH2 0x3598 PUSH2 0x44DE JUMP JUMPDEST JUMPDEST PUSH1 0x0 PUSH2 0x35A7 DUP5 DUP3 DUP6 ADD PUSH2 0x3287 JUMP JUMPDEST SWAP2 POP POP SWAP3 SWAP2 POP POP JUMP JUMPDEST PUSH1 0x0 PUSH1 0x20 DUP3 DUP5 SUB SLT ISZERO PUSH2 0x35C6 JUMPI PUSH2 0x35C5 PUSH2 0x44DE JUMP JUMPDEST JUMPDEST PUSH1 0x0 PUSH2 0x35D4 DUP5 DUP3 DUP6 ADD PUSH2 0x329C JUMP JUMPDEST SWAP2 POP POP SWAP3 SWAP2 POP POP JUMP JUMPDEST PUSH1 0x0 DUP1 PUSH1 0x40 DUP4 DUP6 SUB SLT ISZERO PUSH2 0x35F4 JUMPI PUSH2 0x35F3 PUSH2 0x44DE JUMP JUMPDEST JUMPDEST PUSH1 0x0 PUSH2 0x3602 DUP6 DUP3 DUP7 ADD PUSH2 0x3287 JUMP JUMPDEST SWAP3 POP POP PUSH1 0x20 PUSH2 0x3613 DUP6 DUP3 DUP7 ADD PUSH2 0x3128 JUMP JUMPDEST SWAP2 POP POP SWAP3 POP SWAP3 SWAP1 POP JUMP JUMPDEST PUSH1 0x0 DUP1 PUSH1 0x0 PUSH1 0x60 DUP5 DUP7 SUB SLT ISZERO PUSH2 0x3636 JUMPI PUSH2 0x3635 PUSH2 0x44DE JUMP JUMPDEST JUMPDEST PUSH1 0x0 PUSH2 0x3644 DUP7 DUP3 DUP8 ADD PUSH2 0x3287 JUMP JUMPDEST SWAP4 POP POP PUSH1 0x20 PUSH2 0x3655 DUP7 DUP3 DUP8 ADD PUSH2 0x3128 JUMP JUMPDEST SWAP3 POP POP PUSH1 0x40 PUSH2 0x3666 DUP7 DUP3 DUP8 ADD PUSH2 0x3287 JUMP JUMPDEST SWAP2 POP POP SWAP3 POP SWAP3 POP SWAP3 JUMP JUMPDEST PUSH1 0x0 DUP1 PUSH1 0x40 DUP4 DUP6 SUB SLT ISZERO PUSH2 0x3687 JUMPI PUSH2 0x3686 PUSH2 0x44DE JUMP JUMPDEST JUMPDEST PUSH1 0x0 PUSH2 0x3695 DUP6 DUP3 DUP7 ADD PUSH2 0x3287 JUMP JUMPDEST SWAP3 POP POP PUSH1 0x20 PUSH2 0x36A6 DUP6 DUP3 DUP7 ADD PUSH2 0x3287 JUMP JUMPDEST SWAP2 POP POP SWAP3 POP SWAP3 SWAP1 POP JUMP JUMPDEST PUSH1 0x0 DUP1 PUSH1 0x0 PUSH1 0x60 DUP5 DUP7 SUB SLT ISZERO PUSH2 0x36C9 JUMPI PUSH2 0x36C8 PUSH2 0x44DE JUMP JUMPDEST JUMPDEST PUSH1 0x0 PUSH2 0x36D7 DUP7 DUP3 DUP8 ADD PUSH2 0x3287 JUMP JUMPDEST SWAP4 POP POP PUSH1 0x20 PUSH2 0x36E8 DUP7 DUP3 DUP8 ADD PUSH2 0x3287 JUMP JUMPDEST SWAP3 POP POP PUSH1 0x40 PUSH2 0x36F9 DUP7 DUP3 DUP8 ADD PUSH2 0x3287 JUMP JUMPDEST SWAP2 POP POP SWAP3 POP SWAP3 POP SWAP3 JUMP JUMPDEST PUSH1 0x0 PUSH2 0x370F DUP4 DUP4 PUSH2 0x3B6F JUMP JUMPDEST PUSH1 0x20 DUP4 ADD SWAP1 POP SWAP3 SWAP2 POP POP JUMP JUMPDEST PUSH2 0x3724 DUP2 PUSH2 0x4329 JUMP JUMPDEST DUP3 MSTORE POP POP JUMP JUMPDEST PUSH1 0x0 PUSH2 0x3735 DUP3 PUSH2 0x421E JUMP JUMPDEST PUSH2 0x373F DUP2 DUP6 PUSH2 0x424C JUMP JUMPDEST SWAP4 POP PUSH2 0x374A DUP4 PUSH2 0x420E JUMP JUMPDEST DUP1 PUSH1 0x0 JUMPDEST DUP4 DUP2 LT ISZERO PUSH2 0x377B JUMPI DUP2 MLOAD PUSH2 0x3762 DUP9 DUP3 PUSH2 0x3703 JUMP JUMPDEST SWAP8 POP PUSH2 0x376D DUP4 PUSH2 0x423F JUMP JUMPDEST SWAP3 POP POP PUSH1 0x1 DUP2 ADD SWAP1 POP PUSH2 0x374E JUMP JUMPDEST POP DUP6 SWAP4 POP POP POP POP SWAP3 SWAP2 POP POP JUMP JUMPDEST PUSH2 0x3791 DUP2 PUSH2 0x433B JUMP JUMPDEST DUP3 MSTORE POP POP JUMP JUMPDEST PUSH2 0x37A0 DUP2 PUSH2 0x433B JUMP JUMPDEST DUP3 MSTORE POP POP JUMP JUMPDEST PUSH2 0x37AF DUP2 PUSH2 0x4347 JUMP JUMPDEST DUP3 MSTORE POP POP JUMP JUMPDEST PUSH2 0x37BE DUP2 PUSH2 0x4351 JUMP JUMPDEST DUP3 MSTORE POP POP JUMP JUMPDEST PUSH1 0x0 PUSH2 0x37CF DUP3 PUSH2 0x4229 JUMP JUMPDEST PUSH2 0x37D9 DUP2 DUP6 PUSH2 0x426E JUMP JUMPDEST SWAP4 POP PUSH2 0x37E9 DUP2 DUP6 PUSH1 0x20 DUP7 ADD PUSH2 0x43FE JUMP JUMPDEST DUP1 DUP5 ADD SWAP2 POP POP SWAP3 SWAP2 POP POP JUMP JUMPDEST PUSH2 0x37FE DUP2 PUSH2 0x43B9 JUMP JUMPDEST DUP3 MSTORE POP POP JUMP JUMPDEST PUSH1 0x0 PUSH2 0x380F DUP3 PUSH2 0x4234 JUMP JUMPDEST PUSH2 0x3819 DUP2 DUP6 PUSH2 0x4279 JUMP JUMPDEST SWAP4 POP PUSH2 0x3829 DUP2 DUP6 PUSH1 0x20 DUP7 ADD PUSH2 0x43FE JUMP JUMPDEST PUSH2 0x3832 DUP2 PUSH2 0x44E3 JUMP JUMPDEST DUP5 ADD SWAP2 POP POP SWAP3 SWAP2 POP POP JUMP JUMPDEST PUSH1 0x0 PUSH2 0x3848 DUP3 PUSH2 0x4234 JUMP JUMPDEST PUSH2 0x3852 DUP2 DUP6 PUSH2 0x428A JUMP JUMPDEST SWAP4 POP PUSH2 0x3862 DUP2 DUP6 PUSH1 0x20 DUP7 ADD PUSH2 0x43FE JUMP JUMPDEST PUSH2 0x386B DUP2 PUSH2 0x44E3 JUMP JUMPDEST DUP5 ADD SWAP2 POP POP SWAP3 SWAP2 POP POP JUMP JUMPDEST PUSH1 0x0 PUSH2 0x3883 PUSH1 0x23 DUP4 PUSH2 0x428A JUMP JUMPDEST SWAP2 POP PUSH2 0x388E DUP3 PUSH2 0x44F4 JUMP JUMPDEST PUSH1 0x40 DUP3 ADD SWAP1 POP SWAP2 SWAP1 POP JUMP JUMPDEST PUSH1 0x0 PUSH2 0x38A6 PUSH1 0x14 DUP4 PUSH2 0x428A JUMP JUMPDEST SWAP2 POP PUSH2 0x38B1 DUP3 PUSH2 0x4543 JUMP JUMPDEST PUSH1 0x20 DUP3 ADD SWAP1 POP SWAP2 SWAP1 POP JUMP JUMPDEST PUSH1 0x0 PUSH2 0x38C9 PUSH1 0x23 DUP4 PUSH2 0x428A JUMP JUMPDEST SWAP2 POP PUSH2 0x38D4 DUP3 PUSH2 0x456C JUMP JUMPDEST PUSH1 0x40 DUP3 ADD SWAP1 POP SWAP2 SWAP1 POP JUMP JUMPDEST PUSH1 0x0 PUSH2 0x38EC PUSH1 0x2C DUP4 PUSH2 0x428A JUMP JUMPDEST SWAP2 POP PUSH2 0x38F7 DUP3 PUSH2 0x45BB JUMP JUMPDEST PUSH1 0x40 DUP3 ADD SWAP1 POP SWAP2 SWAP1 POP JUMP JUMPDEST PUSH1 0x0 PUSH2 0x390F PUSH1 0x1B DUP4 PUSH2 0x428A JUMP JUMPDEST SWAP2 POP PUSH2 0x391A DUP3 PUSH2 0x460A JUMP JUMPDEST PUSH1 0x20 DUP3 ADD SWAP1 POP SWAP2 SWAP1 POP JUMP JUMPDEST PUSH1 0x0 PUSH2 0x3932 PUSH1 0x26 DUP4 PUSH2 0x428A JUMP JUMPDEST SWAP2 POP PUSH2 0x393D DUP3 PUSH2 0x4633 JUMP JUMPDEST PUSH1 0x40 DUP3 ADD SWAP1 POP SWAP2 SWAP1 POP JUMP JUMPDEST PUSH1 0x0 PUSH2 0x3955 PUSH1 0x26 DUP4 PUSH2 0x428A JUMP JUMPDEST SWAP2 POP PUSH2 0x3960 DUP3 PUSH2 0x4682 JUMP JUMPDEST PUSH1 0x40 DUP3 ADD SWAP1 POP SWAP2 SWAP1 POP JUMP JUMPDEST PUSH1 0x0 PUSH2 0x3978 PUSH1 0x10 DUP4 PUSH2 0x428A JUMP JUMPDEST SWAP2 POP PUSH2 0x3983 DUP3 PUSH2 0x46D1 JUMP JUMPDEST PUSH1 0x20 DUP3 ADD SWAP1 POP SWAP2 SWAP1 POP JUMP JUMPDEST PUSH1 0x0 PUSH2 0x399B PUSH1 0x1A DUP4 PUSH2 0x428A JUMP JUMPDEST SWAP2 POP PUSH2 0x39A6 DUP3 PUSH2 0x46FA JUMP JUMPDEST PUSH1 0x20 DUP3 ADD SWAP1 POP SWAP2 SWAP1 POP JUMP JUMPDEST PUSH1 0x0 PUSH2 0x39BE PUSH1 0x2E DUP4 PUSH2 0x428A JUMP JUMPDEST SWAP2 POP PUSH2 0x39C9 DUP3 PUSH2 0x4723 JUMP JUMPDEST PUSH1 0x40 DUP3 ADD SWAP1 POP SWAP2 SWAP1 POP JUMP JUMPDEST PUSH1 0x0 PUSH2 0x39E1 PUSH1 0x20 DUP4 PUSH2 0x428A JUMP JUMPDEST SWAP2 POP PUSH2 0x39EC DUP3 PUSH2 0x4772 JUMP JUMPDEST PUSH1 0x20 DUP3 ADD SWAP1 POP SWAP2 SWAP1 POP JUMP JUMPDEST PUSH1 0x0 PUSH2 0x3A04 PUSH1 0x26 DUP4 PUSH2 0x428A JUMP JUMPDEST SWAP2 POP PUSH2 0x3A0F DUP3 PUSH2 0x479B JUMP JUMPDEST PUSH1 0x40 DUP3 ADD SWAP1 POP SWAP2 SWAP1 POP JUMP JUMPDEST PUSH1 0x0 PUSH2 0x3A27 PUSH1 0x0 DUP4 PUSH2 0x425D JUMP JUMPDEST SWAP2 POP PUSH2 0x3A32 DUP3 PUSH2 0x47EA JUMP JUMPDEST PUSH1 0x0 DUP3 ADD SWAP1 POP SWAP2 SWAP1 POP JUMP JUMPDEST PUSH1 0x0 PUSH2 0x3A4A PUSH1 0x1D DUP4 PUSH2 0x428A JUMP JUMPDEST SWAP2 POP PUSH2 0x3A55 DUP3 PUSH2 0x47ED JUMP JUMPDEST PUSH1 0x20 DUP3 ADD SWAP1 POP SWAP2 SWAP1 POP JUMP JUMPDEST PUSH1 0x0 PUSH2 0x3A6D PUSH1 0x1D DUP4 PUSH2 0x428A JUMP JUMPDEST SWAP2 POP PUSH2 0x3A78 DUP3 PUSH2 0x4816 JUMP JUMPDEST PUSH1 0x20 DUP3 ADD SWAP1 POP SWAP2 SWAP1 POP JUMP JUMPDEST PUSH1 0x0 PUSH2 0x3A90 PUSH1 0x30 DUP4 PUSH2 0x428A JUMP JUMPDEST SWAP2 POP PUSH2 0x3A9B DUP3 PUSH2 0x483F JUMP JUMPDEST PUSH1 0x40 DUP3 ADD SWAP1 POP SWAP2 SWAP1 POP JUMP JUMPDEST PUSH1 0x0 PUSH2 0x3AB3 PUSH1 0x2A DUP4 PUSH2 0x428A JUMP JUMPDEST SWAP2 POP PUSH2 0x3ABE DUP3 PUSH2 0x488E JUMP JUMPDEST PUSH1 0x40 DUP3 ADD SWAP1 POP SWAP2 SWAP1 POP JUMP JUMPDEST PUSH1 0x0 PUSH2 0x3AD6 PUSH1 0x1F DUP4 PUSH2 0x428A JUMP JUMPDEST SWAP2 POP PUSH2 0x3AE1 DUP3 PUSH2 0x48DD JUMP JUMPDEST PUSH1 0x20 DUP3 ADD SWAP1 POP SWAP2 SWAP1 POP JUMP JUMPDEST PUSH1 0x0 PUSH2 0x3AF9 PUSH1 0x24 DUP4 PUSH2 0x428A JUMP JUMPDEST SWAP2 POP PUSH2 0x3B04 DUP3 PUSH2 0x4906 JUMP JUMPDEST PUSH1 0x40 DUP3 ADD SWAP1 POP SWAP2 SWAP1 POP JUMP JUMPDEST PUSH1 0x0 PUSH2 0x3B1C PUSH1 0x2E DUP4 PUSH2 0x428A JUMP JUMPDEST SWAP2 POP PUSH2 0x3B27 DUP3 PUSH2 0x4955 JUMP JUMPDEST PUSH1 0x40 DUP3 ADD SWAP1 POP SWAP2 SWAP1 POP JUMP JUMPDEST PUSH1 0x0 PUSH1 0x40 DUP4 ADD PUSH1 0x0 DUP4 ADD MLOAD DUP5 DUP3 SUB PUSH1 0x0 DUP7 ADD MSTORE PUSH2 0x3B4F DUP3 DUP3 PUSH2 0x3804 JUMP JUMPDEST SWAP2 POP POP PUSH1 0x20 DUP4 ADD MLOAD PUSH2 0x3B64 PUSH1 0x20 DUP7 ADD DUP3 PUSH2 0x3788 JUMP JUMPDEST POP DUP1 SWAP2 POP POP SWAP3 SWAP2 POP POP JUMP JUMPDEST PUSH2 0x3B78 DUP2 PUSH2 0x43AF JUMP JUMPDEST DUP3 MSTORE POP POP JUMP JUMPDEST PUSH2 0x3B87 DUP2 PUSH2 0x43AF JUMP JUMPDEST DUP3 MSTORE POP POP JUMP JUMPDEST PUSH1 0x0 PUSH2 0x3B99 DUP3 DUP5 PUSH2 0x37C4 JUMP JUMPDEST SWAP2 POP DUP2 SWAP1 POP SWAP3 SWAP2 POP POP JUMP JUMPDEST PUSH1 0x0 PUSH1 0x20 DUP3 ADD SWAP1 POP PUSH2 0x3BB9 PUSH1 0x0 DUP4 ADD DUP5 PUSH2 0x371B JUMP JUMPDEST SWAP3 SWAP2 POP POP JUMP JUMPDEST PUSH1 0x0 PUSH1 0x60 DUP3 ADD SWAP1 POP PUSH2 0x3BD4 PUSH1 0x0 DUP4 ADD DUP7 PUSH2 0x371B JUMP JUMPDEST PUSH2 0x3BE1 PUSH1 0x20 DUP4 ADD DUP6 PUSH2 0x371B JUMP JUMPDEST PUSH2 0x3BEE PUSH1 0x40 DUP4 ADD DUP5 PUSH2 0x3B7E JUMP JUMPDEST SWAP5 SWAP4 POP POP POP POP JUMP JUMPDEST PUSH1 0x0 PUSH1 0x80 DUP3 ADD SWAP1 POP PUSH2 0x3C0B PUSH1 0x0 DUP4 ADD DUP8 PUSH2 0x371B JUMP JUMPDEST PUSH2 0x3C18 PUSH1 0x20 DUP4 ADD DUP7 PUSH2 0x371B JUMP JUMPDEST PUSH2 0x3C25 PUSH1 0x40 DUP4 ADD DUP6 PUSH2 0x3B7E JUMP JUMPDEST PUSH2 0x3C32 PUSH1 0x60 DUP4 ADD DUP5 PUSH2 0x3B7E JUMP JUMPDEST SWAP6 SWAP5 POP POP POP POP POP JUMP JUMPDEST PUSH1 0x0 PUSH1 0xA0 DUP3 ADD SWAP1 POP PUSH2 0x3C50 PUSH1 0x0 DUP4 ADD DUP8 PUSH2 0x371B JUMP JUMPDEST PUSH2 0x3C5D PUSH1 0x20 DUP4 ADD DUP7 PUSH2 0x371B JUMP JUMPDEST PUSH2 0x3C6A PUSH1 0x40 DUP4 ADD DUP6 PUSH2 0x3B7E JUMP JUMPDEST PUSH2 0x3C77 PUSH1 0x60 DUP4 ADD DUP5 PUSH2 0x3B7E JUMP JUMPDEST DUP2 DUP2 SUB PUSH1 0x80 DUP4 ADD MSTORE PUSH2 0x3C88 DUP2 PUSH2 0x3A1A JUMP JUMPDEST SWAP1 POP SWAP6 SWAP5 POP POP POP POP POP JUMP JUMPDEST PUSH1 0x0 PUSH1 0x40 DUP3 ADD SWAP1 POP PUSH2 0x3CA8 PUSH1 0x0 DUP4 ADD DUP6 PUSH2 0x371B JUMP JUMPDEST PUSH2 0x3CB5 PUSH1 0x20 DUP4 ADD DUP5 PUSH2 0x3B7E JUMP JUMPDEST SWAP4 SWAP3 POP POP POP JUMP JUMPDEST PUSH1 0x0 PUSH1 0x20 DUP3 ADD SWAP1 POP DUP2 DUP2 SUB PUSH1 0x0 DUP4 ADD MSTORE PUSH2 0x3CD6 DUP2 DUP5 PUSH2 0x372A JUMP JUMPDEST SWAP1 POP SWAP3 SWAP2 POP POP JUMP JUMPDEST PUSH1 0x0 PUSH1 0x20 DUP3 ADD SWAP1 POP PUSH2 0x3CF3 PUSH1 0x0 DUP4 ADD DUP5 PUSH2 0x3797 JUMP JUMPDEST SWAP3 SWAP2 POP POP JUMP JUMPDEST PUSH1 0x0 PUSH1 0xA0 DUP3 ADD SWAP1 POP PUSH2 0x3D0E PUSH1 0x0 DUP4 ADD DUP9 PUSH2 0x3797 JUMP JUMPDEST PUSH2 0x3D1B PUSH1 0x20 DUP4 ADD DUP8 PUSH2 0x3B7E JUMP JUMPDEST PUSH2 0x3D28 PUSH1 0x40 DUP4 ADD DUP7 PUSH2 0x3B7E JUMP JUMPDEST PUSH2 0x3D35 PUSH1 0x60 DUP4 ADD DUP6 PUSH2 0x3B7E JUMP JUMPDEST PUSH2 0x3D42 PUSH1 0x80 DUP4 ADD DUP5 PUSH2 0x3B7E JUMP JUMPDEST SWAP7 SWAP6 POP POP POP POP POP POP JUMP JUMPDEST PUSH1 0x0 PUSH1 0x40 DUP3 ADD SWAP1 POP PUSH2 0x3D61 PUSH1 0x0 DUP4 ADD DUP6 PUSH2 0x37A6 JUMP JUMPDEST PUSH2 0x3D6E PUSH1 0x20 DUP4 ADD DUP5 PUSH2 0x371B JUMP JUMPDEST SWAP4 SWAP3 POP POP POP JUMP JUMPDEST PUSH1 0x0 PUSH1 0x20 DUP3 ADD SWAP1 POP PUSH2 0x3D8A PUSH1 0x0 DUP4 ADD DUP5 PUSH2 0x37B5 JUMP JUMPDEST SWAP3 SWAP2 POP POP JUMP JUMPDEST PUSH1 0x0 PUSH1 0x20 DUP3 ADD SWAP1 POP PUSH2 0x3DA5 PUSH1 0x0 DUP4 ADD DUP5 PUSH2 0x37F5 JUMP JUMPDEST SWAP3 SWAP2 POP POP JUMP JUMPDEST PUSH1 0x0 PUSH1 0x20 DUP3 ADD SWAP1 POP DUP2 DUP2 SUB PUSH1 0x0 DUP4 ADD MSTORE PUSH2 0x3DC5 DUP2 DUP5 PUSH2 0x383D JUMP JUMPDEST SWAP1 POP SWAP3 SWAP2 POP POP JUMP JUMPDEST PUSH1 0x0 PUSH1 0x80 DUP3 ADD SWAP1 POP DUP2 DUP2 SUB PUSH1 0x0 DUP4 ADD MSTORE PUSH2 0x3DE7 DUP2 DUP8 PUSH2 0x383D JUMP JUMPDEST SWAP1 POP PUSH2 0x3DF6 PUSH1 0x20 DUP4 ADD DUP7 PUSH2 0x3B7E JUMP JUMPDEST PUSH2 0x3E03 PUSH1 0x40 DUP4 ADD DUP6 PUSH2 0x3B7E JUMP JUMPDEST PUSH2 0x3E10 PUSH1 0x60 DUP4 ADD DUP5 PUSH2 0x371B JUMP JUMPDEST SWAP6 SWAP5 POP POP POP POP POP JUMP JUMPDEST PUSH1 0x0 PUSH1 0x20 DUP3 ADD SWAP1 POP DUP2 DUP2 SUB PUSH1 0x0 DUP4 ADD MSTORE PUSH2 0x3E32 DUP2 PUSH2 0x3876 JUMP JUMPDEST SWAP1 POP SWAP2 SWAP1 POP JUMP JUMPDEST PUSH1 0x0 PUSH1 0x20 DUP3 ADD SWAP1 POP DUP2 DUP2 SUB PUSH1 0x0 DUP4 ADD MSTORE PUSH2 0x3E52 DUP2 PUSH2 0x3899 JUMP JUMPDEST SWAP1 POP SWAP2 SWAP1 POP JUMP JUMPDEST PUSH1 0x0 PUSH1 0x20 DUP3 ADD SWAP1 POP DUP2 DUP2 SUB PUSH1 0x0 DUP4 ADD MSTORE PUSH2 0x3E72 DUP2 PUSH2 0x38BC JUMP JUMPDEST SWAP1 POP SWAP2 SWAP1 POP JUMP JUMPDEST PUSH1 0x0 PUSH1 0x20 DUP3 ADD SWAP1 POP DUP2 DUP2 SUB PUSH1 0x0 DUP4 ADD MSTORE PUSH2 0x3E92 DUP2 PUSH2 0x38DF JUMP JUMPDEST SWAP1 POP SWAP2 SWAP1 POP JUMP JUMPDEST PUSH1 0x0 PUSH1 0x20 DUP3 ADD SWAP1 POP DUP2 DUP2 SUB PUSH1 0x0 DUP4 ADD MSTORE PUSH2 0x3EB2 DUP2 PUSH2 0x3902 JUMP JUMPDEST SWAP1 POP SWAP2 SWAP1 POP JUMP JUMPDEST PUSH1 0x0 PUSH1 0x20 DUP3 ADD SWAP1 POP DUP2 DUP2 SUB PUSH1 0x0 DUP4 ADD MSTORE PUSH2 0x3ED2 DUP2 PUSH2 0x3925 JUMP JUMPDEST SWAP1 POP SWAP2 SWAP1 POP JUMP JUMPDEST PUSH1 0x0 PUSH1 0x20 DUP3 ADD SWAP1 POP DUP2 DUP2 SUB PUSH1 0x0 DUP4 ADD MSTORE PUSH2 0x3EF2 DUP2 PUSH2 0x3948 JUMP JUMPDEST SWAP1 POP SWAP2 SWAP1 POP JUMP JUMPDEST PUSH1 0x0 PUSH1 0x20 DUP3 ADD SWAP1 POP DUP2 DUP2 SUB PUSH1 0x0 DUP4 ADD MSTORE PUSH2 0x3F12 DUP2 PUSH2 0x396B JUMP JUMPDEST SWAP1 POP SWAP2 SWAP1 POP JUMP JUMPDEST PUSH1 0x0 PUSH1 0x20 DUP3 ADD SWAP1 POP DUP2 DUP2 SUB PUSH1 0x0 DUP4 ADD MSTORE PUSH2 0x3F32 DUP2 PUSH2 0x398E JUMP JUMPDEST SWAP1 POP SWAP2 SWAP1 POP JUMP JUMPDEST PUSH1 0x0 PUSH1 0x20 DUP3 ADD SWAP1 POP DUP2 DUP2 SUB PUSH1 0x0 DUP4 ADD MSTORE PUSH2 0x3F52 DUP2 PUSH2 0x39B1 JUMP JUMPDEST SWAP1 POP SWAP2 SWAP1 POP JUMP JUMPDEST PUSH1 0x0 PUSH1 0x20 DUP3 ADD SWAP1 POP DUP2 DUP2 SUB PUSH1 0x0 DUP4 ADD MSTORE PUSH2 0x3F72 DUP2 PUSH2 0x39D4 JUMP JUMPDEST SWAP1 POP SWAP2 SWAP1 POP JUMP JUMPDEST PUSH1 0x0 PUSH1 0x20 DUP3 ADD SWAP1 POP DUP2 DUP2 SUB PUSH1 0x0 DUP4 ADD MSTORE PUSH2 0x3F92 DUP2 PUSH2 0x39F7 JUMP JUMPDEST SWAP1 POP SWAP2 SWAP1 POP JUMP JUMPDEST PUSH1 0x0 PUSH1 0x20 DUP3 ADD SWAP1 POP DUP2 DUP2 SUB PUSH1 0x0 DUP4 ADD MSTORE PUSH2 0x3FB2 DUP2 PUSH2 0x3A3D JUMP JUMPDEST SWAP1 POP SWAP2 SWAP1 POP JUMP JUMPDEST PUSH1 0x0 PUSH1 0x20 DUP3 ADD SWAP1 POP DUP2 DUP2 SUB PUSH1 0x0 DUP4 ADD MSTORE PUSH2 0x3FD2 DUP2 PUSH2 0x3A60 JUMP JUMPDEST SWAP1 POP SWAP2 SWAP1 POP JUMP JUMPDEST PUSH1 0x0 PUSH1 0x20 DUP3 ADD SWAP1 POP DUP2 DUP2 SUB PUSH1 0x0 DUP4 ADD MSTORE PUSH2 0x3FF2 DUP2 PUSH2 0x3A83 JUMP JUMPDEST SWAP1 POP SWAP2 SWAP1 POP JUMP JUMPDEST PUSH1 0x0 PUSH1 0x20 DUP3 ADD SWAP1 POP DUP2 DUP2 SUB PUSH1 0x0 DUP4 ADD MSTORE PUSH2 0x4012 DUP2 PUSH2 0x3AA6 JUMP JUMPDEST SWAP1 POP SWAP2 SWAP1 POP JUMP JUMPDEST PUSH1 0x0 PUSH1 0x20 DUP3 ADD SWAP1 POP DUP2 DUP2 SUB PUSH1 0x0 DUP4 ADD MSTORE PUSH2 0x4032 DUP2 PUSH2 0x3AC9 JUMP JUMPDEST SWAP1 POP SWAP2 SWAP1 POP JUMP JUMPDEST PUSH1 0x0 PUSH1 0x20 DUP3 ADD SWAP1 POP DUP2 DUP2 SUB PUSH1 0x0 DUP4 ADD MSTORE PUSH2 0x4052 DUP2 PUSH2 0x3AEC JUMP JUMPDEST SWAP1 POP SWAP2 SWAP1 POP JUMP JUMPDEST PUSH1 0x0 PUSH1 0x20 DUP3 ADD SWAP1 POP DUP2 DUP2 SUB PUSH1 0x0 DUP4 ADD MSTORE PUSH2 0x4072 DUP2 PUSH2 0x3B0F JUMP JUMPDEST SWAP1 POP SWAP2 SWAP1 POP JUMP JUMPDEST PUSH1 0x0 PUSH1 0x20 DUP3 ADD SWAP1 POP DUP2 DUP2 SUB PUSH1 0x0 DUP4 ADD MSTORE PUSH2 0x4093 DUP2 DUP5 PUSH2 0x3B32 JUMP JUMPDEST SWAP1 POP SWAP3 SWAP2 POP POP JUMP JUMPDEST PUSH1 0x0 PUSH1 0x40 DUP3 ADD SWAP1 POP PUSH2 0x40B0 PUSH1 0x0 DUP4 ADD DUP6 PUSH2 0x3B7E JUMP JUMPDEST PUSH2 0x40BD PUSH1 0x20 DUP4 ADD DUP5 PUSH2 0x371B JUMP JUMPDEST SWAP4 SWAP3 POP POP POP JUMP JUMPDEST PUSH1 0x0 PUSH1 0x60 DUP3 ADD SWAP1 POP PUSH2 0x40D9 PUSH1 0x0 DUP4 ADD DUP7 PUSH2 0x3B7E JUMP JUMPDEST PUSH2 0x40E6 PUSH1 0x20 DUP4 ADD DUP6 PUSH2 0x371B JUMP JUMPDEST PUSH2 0x40F3 PUSH1 0x40 DUP4 ADD DUP5 PUSH2 0x3B7E JUMP JUMPDEST SWAP5 SWAP4 POP POP POP POP JUMP JUMPDEST PUSH1 0x0 PUSH1 0x40 DUP3 ADD SWAP1 POP PUSH2 0x4110 PUSH1 0x0 DUP4 ADD DUP6 PUSH2 0x3B7E JUMP JUMPDEST PUSH2 0x411D PUSH1 0x20 DUP4 ADD DUP5 PUSH2 0x3B7E JUMP JUMPDEST SWAP4 SWAP3 POP POP POP JUMP JUMPDEST PUSH1 0x0 PUSH1 0x60 DUP3 ADD SWAP1 POP PUSH2 0x4139 PUSH1 0x0 DUP4 ADD DUP7 PUSH2 0x3B7E JUMP JUMPDEST PUSH2 0x4146 PUSH1 0x20 DUP4 ADD DUP6 PUSH2 0x3B7E JUMP JUMPDEST PUSH2 0x4153 PUSH1 0x40 DUP4 ADD DUP5 PUSH2 0x371B JUMP JUMPDEST SWAP5 SWAP4 POP POP POP POP JUMP JUMPDEST PUSH1 0x0 PUSH2 0x4165 PUSH2 0x4176 JUMP JUMPDEST SWAP1 POP PUSH2 0x4171 DUP3 DUP3 PUSH2 0x4431 JUMP JUMPDEST SWAP2 SWAP1 POP JUMP JUMPDEST PUSH1 0x0 PUSH1 0x40 MLOAD SWAP1 POP SWAP1 JUMP JUMPDEST PUSH1 0x0 PUSH8 0xFFFFFFFFFFFFFFFF DUP3 GT ISZERO PUSH2 0x419B JUMPI PUSH2 0x419A PUSH2 0x4491 JUMP JUMPDEST JUMPDEST PUSH1 0x20 DUP3 MUL SWAP1 POP PUSH1 0x20 DUP2 ADD SWAP1 POP SWAP2 SWAP1 POP JUMP JUMPDEST PUSH1 0x0 PUSH8 0xFFFFFFFFFFFFFFFF DUP3 GT ISZERO PUSH2 0x41C7 JUMPI PUSH2 0x41C6 PUSH2 0x4491 JUMP JUMPDEST JUMPDEST PUSH2 0x41D0 DUP3 PUSH2 0x44E3 JUMP JUMPDEST SWAP1 POP PUSH1 0x20 DUP2 ADD SWAP1 POP SWAP2 SWAP1 POP JUMP JUMPDEST PUSH1 0x0 PUSH8 0xFFFFFFFFFFFFFFFF DUP3 GT ISZERO PUSH2 0x41F8 JUMPI PUSH2 0x41F7 PUSH2 0x4491 JUMP JUMPDEST JUMPDEST PUSH2 0x4201 DUP3 PUSH2 0x44E3 JUMP JUMPDEST SWAP1 POP PUSH1 0x20 DUP2 ADD SWAP1 POP SWAP2 SWAP1 POP JUMP JUMPDEST PUSH1 0x0 DUP2 SWAP1 POP PUSH1 0x20 DUP3 ADD SWAP1 POP SWAP2 SWAP1 POP JUMP JUMPDEST PUSH1 0x0 DUP2 MLOAD SWAP1 POP SWAP2 SWAP1 POP JUMP JUMPDEST PUSH1 0x0 DUP2 MLOAD SWAP1 POP SWAP2 SWAP1 POP JUMP JUMPDEST PUSH1 0x0 DUP2 MLOAD SWAP1 POP SWAP2 SWAP1 POP JUMP JUMPDEST PUSH1 0x0 PUSH1 0x20 DUP3 ADD SWAP1 POP SWAP2 SWAP1 POP JUMP JUMPDEST PUSH1 0x0 DUP3 DUP3 MSTORE PUSH1 0x20 DUP3 ADD SWAP1 POP SWAP3 SWAP2 POP POP JUMP JUMPDEST PUSH1 0x0 DUP3 DUP3 MSTORE PUSH1 0x20 DUP3 ADD SWAP1 POP SWAP3 SWAP2 POP POP JUMP JUMPDEST PUSH1 0x0 DUP2 SWAP1 POP SWAP3 SWAP2 POP POP JUMP JUMPDEST PUSH1 0x0 DUP3 DUP3 MSTORE PUSH1 0x20 DUP3 ADD SWAP1 POP SWAP3 SWAP2 POP POP JUMP JUMPDEST PUSH1 0x0 DUP3 DUP3 MSTORE PUSH1 0x20 DUP3 ADD SWAP1 POP SWAP3 SWAP2 POP POP JUMP JUMPDEST PUSH1 0x0 PUSH2 0x42A6 DUP3 PUSH2 0x43AF JUMP JUMPDEST SWAP2 POP PUSH2 0x42B1 DUP4 PUSH2 0x43AF JUMP JUMPDEST SWAP3 POP DUP2 PUSH32 0xFFFFFFFFFFFFFFFFFFFFFFFFFFFFFFFFFFFFFFFFFFFFFFFFFFFFFFFFFFFFFFFF DIV DUP4 GT DUP3 ISZERO ISZERO AND ISZERO PUSH2 0x42EA JUMPI PUSH2 0x42E9 PUSH2 0x4462 JUMP JUMPDEST JUMPDEST DUP3 DUP3 MUL SWAP1 POP SWAP3 SWAP2 POP POP JUMP JUMPDEST PUSH1 0x0 PUSH2 0x4300 DUP3 PUSH2 0x43AF JUMP JUMPDEST SWAP2 POP PUSH2 0x430B DUP4 PUSH2 0x43AF JUMP JUMPDEST SWAP3 POP DUP3 DUP3 LT ISZERO PUSH2 0x431E JUMPI PUSH2 0x431D PUSH2 0x4462 JUMP JUMPDEST JUMPDEST DUP3 DUP3 SUB SWAP1 POP SWAP3 SWAP2 POP POP JUMP JUMPDEST PUSH1 0x0 PUSH2 0x4334 DUP3 PUSH2 0x438F JUMP JUMPDEST SWAP1 POP SWAP2 SWAP1 POP JUMP JUMPDEST PUSH1 0x0 DUP2 ISZERO ISZERO SWAP1 POP SWAP2 SWAP1 POP JUMP JUMPDEST PUSH1 0x0 DUP2 SWAP1 POP SWAP2 SWAP1 POP JUMP JUMPDEST PUSH1 0x0 PUSH32 0xFFFFFFFF00000000000000000000000000000000000000000000000000000000 DUP3 AND SWAP1 POP SWAP2 SWAP1 POP JUMP JUMPDEST PUSH1 0x0 PUSH2 0x4388 DUP3 PUSH2 0x4329 JUMP JUMPDEST SWAP1 POP SWAP2 SWAP1 POP JUMP JUMPDEST PUSH1 0x0 PUSH20 0xFFFFFFFFFFFFFFFFFFFFFFFFFFFFFFFFFFFFFFFF DUP3 AND SWAP1 POP SWAP2 SWAP1 POP JUMP JUMPDEST PUSH1 0x0 DUP2 SWAP1 POP SWAP2 SWAP1 POP JUMP JUMPDEST PUSH1 0x0 PUSH2 0x43C4 DUP3 PUSH2 0x43CB JUMP JUMPDEST SWAP1 POP SWAP2 SWAP1 POP JUMP JUMPDEST PUSH1 0x0 PUSH2 0x43D6 DUP3 PUSH2 0x43DD JUMP JUMPDEST SWAP1 POP SWAP2 SWAP1 POP JUMP JUMPDEST PUSH1 0x0 PUSH2 0x43E8 DUP3 PUSH2 0x438F JUMP JUMPDEST SWAP1 POP SWAP2 SWAP1 POP JUMP JUMPDEST DUP3 DUP2 DUP4 CALLDATACOPY PUSH1 0x0 DUP4 DUP4 ADD MSTORE POP POP POP JUMP JUMPDEST PUSH1 0x0 JUMPDEST DUP4 DUP2 LT ISZERO PUSH2 0x441C JUMPI DUP1 DUP3 ADD MLOAD DUP2 DUP5 ADD MSTORE PUSH1 0x20 DUP2 ADD SWAP1 POP PUSH2 0x4401 JUMP JUMPDEST DUP4 DUP2 GT ISZERO PUSH2 0x442B JUMPI PUSH1 0x0 DUP5 DUP5 ADD MSTORE JUMPDEST POP POP POP POP JUMP JUMPDEST PUSH2 0x443A DUP3 PUSH2 0x44E3 JUMP JUMPDEST DUP2 ADD DUP2 DUP2 LT PUSH8 0xFFFFFFFFFFFFFFFF DUP3 GT OR ISZERO PUSH2 0x4459 JUMPI PUSH2 0x4458 PUSH2 0x4491 JUMP JUMPDEST JUMPDEST DUP1 PUSH1 0x40 MSTORE POP POP POP JUMP JUMPDEST PUSH32 0x4E487B7100000000000000000000000000000000000000000000000000000000 PUSH1 0x0 MSTORE PUSH1 0x11 PUSH1 0x4 MSTORE PUSH1 0x24 PUSH1 0x0 REVERT JUMPDEST PUSH32 0x4E487B7100000000000000000000000000000000000000000000000000000000 PUSH1 0x0 MSTORE PUSH1 0x41 PUSH1 0x4 MSTORE PUSH1 0x24 PUSH1 0x0 REVERT JUMPDEST PUSH1 0x0 DUP1 REVERT JUMPDEST PUSH1 0x0 DUP1 REVERT JUMPDEST PUSH1 0x0 DUP1 REVERT JUMPDEST PUSH1 0x0 DUP1 REVERT JUMPDEST PUSH1 0x0 DUP1 REVERT JUMPDEST PUSH1 0x0 DUP1 REVERT JUMPDEST PUSH1 0x0 DUP1 REVERT JUMPDEST PUSH1 0x0 PUSH1 0x1F NOT PUSH1 0x1F DUP4 ADD AND SWAP1 POP SWAP2 SWAP1 POP JUMP JUMPDEST PUSH32 0x4D61726B6574706C6163653A207072696365206D757374206E6F74206265207A PUSH1 0x0 DUP3 ADD MSTORE PUSH32 0x65726F0000000000000000000000000000000000000000000000000000000000 PUSH1 0x20 DUP3 ADD MSTORE POP JUMP JUMPDEST PUSH32 0x5061757361626C653A206E6F7420706175736564000000000000000000000000 PUSH1 0x0 DUP3 ADD MSTORE POP JUMP JUMPDEST PUSH32 0x4D61726B6574706C6163653A204974656D20697320616C7265616479206C6973 PUSH1 0x0 DUP3 ADD MSTORE PUSH32 0x7465640000000000000000000000000000000000000000000000000000000000 PUSH1 0x20 DUP3 ADD MSTORE POP JUMP JUMPDEST PUSH32 0x4D61726B6574706C6163653A2053616C6520696E6163746976617465206F7220 PUSH1 0x0 DUP3 ADD MSTORE PUSH32 0x616C726561647920736F6C640000000000000000000000000000000000000000 PUSH1 0x20 DUP3 ADD MSTORE POP JUMP JUMPDEST PUSH32 0x4D61726B6574706C6163653A20616D6F756E74206973207A65726F0000000000 PUSH1 0x0 DUP3 ADD MSTORE POP JUMP JUMPDEST PUSH32 0x4F776E61626C653A206E6577206F776E657220697320746865207A65726F2061 PUSH1 0x0 DUP3 ADD MSTORE PUSH32 0x6464726573730000000000000000000000000000000000000000000000000000 PUSH1 0x20 DUP3 ADD MSTORE POP JUMP JUMPDEST PUSH32 0x416464726573733A20696E73756666696369656E742062616C616E636520666F PUSH1 0x0 DUP3 ADD MSTORE PUSH32 0x722063616C6C0000000000000000000000000000000000000000000000000000 PUSH1 0x20 DUP3 ADD MSTORE POP JUMP JUMPDEST PUSH32 0x5061757361626C653A2070617573656400000000000000000000000000000000 PUSH1 0x0 DUP3 ADD MSTORE POP JUMP JUMPDEST PUSH32 0x4D61726B6574706C6163653A207072696365206973207A65726F000000000000 PUSH1 0x0 DUP3 ADD MSTORE POP JUMP JUMPDEST PUSH32 0x4D61726B6574706C6163653A204F6E6C792061646D696E2063616E2063616C6C PUSH1 0x0 DUP3 ADD MSTORE PUSH32 0x20746869732066756E6374696F6E000000000000000000000000000000000000 PUSH1 0x20 DUP3 ADD MSTORE POP JUMP JUMPDEST PUSH32 0x4F776E61626C653A2063616C6C6572206973206E6F7420746865206F776E6572 PUSH1 0x0 DUP3 ADD MSTORE POP JUMP JUMPDEST PUSH32 0x4D61726B6574706C6163653A204E6F7420656E6F75676820616D6F756E742074 PUSH1 0x0 DUP3 ADD MSTORE PUSH32 0x6F2073656C6C0000000000000000000000000000000000000000000000000000 PUSH1 0x20 DUP3 ADD MSTORE POP JUMP JUMPDEST POP JUMP JUMPDEST PUSH32 0x416464726573733A2063616C6C20746F206E6F6E2D636F6E7472616374000000 PUSH1 0x0 DUP3 ADD MSTORE POP JUMP JUMPDEST PUSH32 0x4D61726B6574706C6163653A206F776E65722063616E6E6F7420627579000000 PUSH1 0x0 DUP3 ADD MSTORE POP JUMP JUMPDEST PUSH32 0x4D61726B6574706C6163653A204F6E6C792073747564656E742063616E206361 PUSH1 0x0 DUP3 ADD MSTORE PUSH32 0x6C6C20746869732066756E6374696F6E00000000000000000000000000000000 PUSH1 0x20 DUP3 ADD MSTORE POP JUMP JUMPDEST PUSH32 0x5361666545524332303A204552433230206F7065726174696F6E20646964206E PUSH1 0x0 DUP3 ADD MSTORE PUSH32 0x6F74207375636365656400000000000000000000000000000000000000000000 PUSH1 0x20 DUP3 ADD MSTORE POP JUMP JUMPDEST PUSH32 0x5265656E7472616E637947756172643A207265656E7472616E742063616C6C00 PUSH1 0x0 DUP3 ADD MSTORE POP JUMP JUMPDEST PUSH32 0x4D61726B6574706C6163653A20616D6F756E74206D757374206E6F7420626520 PUSH1 0x0 DUP3 ADD MSTORE PUSH32 0x7A65726F00000000000000000000000000000000000000000000000000000000 PUSH1 0x20 DUP3 ADD MSTORE POP JUMP JUMPDEST PUSH32 0x4D61726B6574706C6163653A2042616C616E6365206F66206974656D73206C65 PUSH1 0x0 DUP3 ADD MSTORE PUSH32 0x7373207468616E20616D6F756E74000000000000000000000000000000000000 PUSH1 0x20 DUP3 ADD MSTORE POP JUMP JUMPDEST PUSH2 0x49AD DUP2 PUSH2 0x4329 JUMP JUMPDEST DUP2 EQ PUSH2 0x49B8 JUMPI PUSH1 0x0 DUP1 REVERT JUMPDEST POP JUMP JUMPDEST PUSH2 0x49C4 DUP2 PUSH2 0x433B JUMP JUMPDEST DUP2 EQ PUSH2 0x49CF JUMPI PUSH1 0x0 DUP1 REVERT JUMPDEST POP JUMP JUMPDEST PUSH2 0x49DB DUP2 PUSH2 0x4351 JUMP JUMPDEST DUP2 EQ PUSH2 0x49E6 JUMPI PUSH1 0x0 DUP1 REVERT JUMPDEST POP JUMP JUMPDEST PUSH2 0x49F2 DUP2 PUSH2 0x437D JUMP JUMPDEST DUP2 EQ PUSH2 0x49FD JUMPI PUSH1 0x0 DUP1 REVERT JUMPDEST POP JUMP JUMPDEST PUSH2 0x4A09 DUP2 PUSH2 0x43AF JUMP JUMPDEST DUP2 EQ PUSH2 0x4A14 JUMPI PUSH1 0x0 DUP1 REVERT JUMPDEST POP JUMP INVALID LOG2 PUSH5 0x6970667358 0x22 SLT KECCAK256 0xF 0xE6 0x22 0x2A EXTCODEHASH SWAP15 0xE0 SWAP7 SWAP9 MSIZE MSIZE 0x2D DUP16 CALLDATASIZE DUP6 PUSH18 0x4A4FB1DB2068ECE5472B404F5DAA1C3D6473 PUSH16 0x6C634300080700330000000000000000 "
		},
		"gasEstimates": {
			"creation": {
				"codeDepositCost": "3804200",
				"executionCost": "infinite",
				"totalCost": "infinite"
			},
			"external": {
				"UITNFT()": "infinite",
				"UITToken()": "infinite",
				"accessControl()": "2582",
				"activateNFT()": "2667",
				"activateNFTByAdmin(uint256[])": "infinite",
				"buy(uint256,address,uint256)": "infinite",
				"cancelRequestActivateNFT(uint256[])": "infinite",
				"createAndListNFT((string,bool),uint256,uint256)": "infinite",
				"deList(uint256)": "infinite",
				"itemsForSale(uint256,address)": "infinite",
				"list(uint256,uint256,uint256)": "infinite",
				"onERC1155BatchReceived(address,address,uint256[],uint256[],bytes)": "infinite",
				"onERC1155Received(address,address,uint256,uint256,bytes)": "infinite",
				"owner()": "2661",
				"pause()": "infinite",
				"paused()": "2568",
				"renounceOwnership()": "30635",
				"requestActivateNFT(uint256,uint256)": "infinite",
				"rewardDistributor()": "infinite",
				"setAccessControl(address)": "27102",
				"setActivateNFT(address)": "27121",
				"supportsInterface(bytes4)": "751",
				"transferOwnership(address)": "30983",
				"unpause()": "infinite",
				"updateAmountNFT(uint256,uint256)": "infinite",
				"updatePrice(uint256,uint256)": "infinite"
			}
		},
		"methodIdentifiers": {
			"UITNFT()": "3b88699b",
			"UITToken()": "2fe7a96d",
			"accessControl()": "13007d55",
			"activateNFT()": "547aee0c",
			"activateNFTByAdmin(uint256[])": "847261ef",
			"buy(uint256,address,uint256)": "2afaca20",
			"cancelRequestActivateNFT(uint256[])": "c949cf7d",
			"createAndListNFT((string,bool),uint256,uint256)": "cb361428",
			"deList(uint256)": "43be2d03",
			"itemsForSale(uint256,address)": "b46878ca",
			"list(uint256,uint256,uint256)": "19aeb490",
			"onERC1155BatchReceived(address,address,uint256[],uint256[],bytes)": "bc197c81",
			"onERC1155Received(address,address,uint256,uint256,bytes)": "f23a6e61",
			"owner()": "8da5cb5b",
			"pause()": "8456cb59",
			"paused()": "5c975abb",
			"renounceOwnership()": "715018a6",
			"requestActivateNFT(uint256,uint256)": "0dcd0c20",
			"rewardDistributor()": "acc2166a",
			"setAccessControl(address)": "19129e5a",
			"setActivateNFT(address)": "ee4a2369",
			"supportsInterface(bytes4)": "01ffc9a7",
			"transferOwnership(address)": "f2fde38b",
			"unpause()": "3f4ba83a",
			"updateAmountNFT(uint256,uint256)": "c1f7f0f5",
			"updatePrice(uint256,uint256)": "82367b2d"
		}
	},
	"abi": [
		{
			"inputs": [
				{
					"internalType": "address",
					"name": "_accessControl",
					"type": "address"
				},
				{
					"internalType": "address",
					"name": "_UITToken",
					"type": "address"
				},
				{
					"internalType": "address",
					"name": "_UITNFT",
					"type": "address"
				},
				{
					"internalType": "address",
					"name": "_rewardDistributor",
					"type": "address"
				},
				{
					"internalType": "contract IActivateNFT",
					"name": "_activateNFT",
					"type": "address"
				}
			],
			"stateMutability": "nonpayable",
			"type": "constructor"
		},
		{
			"anonymous": false,
			"inputs": [
				{
					"indexed": true,
					"internalType": "uint256",
					"name": "itemId",
					"type": "uint256"
				},
				{
					"indexed": false,
					"internalType": "uint256",
					"name": "amount",
					"type": "uint256"
				},
				{
					"indexed": false,
					"internalType": "address",
					"name": "ownerOfItem",
					"type": "address"
				}
			],
			"name": "AdminItemAmountUpdated",
			"type": "event"
		},
		{
			"anonymous": false,
			"inputs": [
				{
					"indexed": false,
					"internalType": "string",
					"name": "hash",
					"type": "string"
				},
				{
					"indexed": true,
					"internalType": "uint256",
					"name": "itemId",
					"type": "uint256"
				},
				{
					"indexed": false,
					"internalType": "uint256",
					"name": "amount",
					"type": "uint256"
				},
				{
					"indexed": false,
					"internalType": "uint256",
					"name": "oneItemPrice",
					"type": "uint256"
				},
				{
					"indexed": false,
					"internalType": "address",
					"name": "ownerOfItem",
					"type": "address"
				}
			],
			"name": "AdminItemListed",
			"type": "event"
		},
		{
			"anonymous": false,
			"inputs": [
				{
					"indexed": true,
					"internalType": "uint256",
					"name": "itemId",
					"type": "uint256"
				},
				{
					"indexed": false,
					"internalType": "address",
					"name": "buyer",
					"type": "address"
				},
				{
					"indexed": false,
					"internalType": "address",
					"name": "seller",
					"type": "address"
				},
				{
					"indexed": false,
					"internalType": "uint256",
					"name": "amount",
					"type": "uint256"
				},
				{
					"indexed": false,
					"internalType": "uint256",
					"name": "price",
					"type": "uint256"
				}
			],
			"name": "ItemBought",
			"type": "event"
		},
		{
			"anonymous": false,
			"inputs": [
				{
					"indexed": true,
					"internalType": "uint256",
					"name": "itemId",
					"type": "uint256"
				},
				{
					"indexed": false,
					"internalType": "uint256",
					"name": "amount",
					"type": "uint256"
				},
				{
					"indexed": false,
					"internalType": "address",
					"name": "ownerOfItem",
					"type": "address"
				}
			],
			"name": "ItemDelisted",
			"type": "event"
		},
		{
			"anonymous": false,
			"inputs": [
				{
					"indexed": true,
					"internalType": "uint256",
					"name": "itemId",
					"type": "uint256"
				},
				{
					"indexed": false,
					"internalType": "uint256",
					"name": "amount",
					"type": "uint256"
				},
				{
					"indexed": false,
					"internalType": "uint256",
					"name": "oneItemPrice",
					"type": "uint256"
				},
				{
					"indexed": false,
					"internalType": "address",
					"name": "ownerOfItem",
					"type": "address"
				}
			],
			"name": "ItemListed",
			"type": "event"
		},
		{
			"anonymous": false,
			"inputs": [
				{
					"indexed": false,
					"internalType": "uint256",
					"name": "newMarketFee",
					"type": "uint256"
				}
			],
			"name": "MarketFeeUpdated",
			"type": "event"
		},
		{
			"anonymous": false,
			"inputs": [
				{
					"indexed": true,
					"internalType": "address",
					"name": "previousOwner",
					"type": "address"
				},
				{
					"indexed": true,
					"internalType": "address",
					"name": "newOwner",
					"type": "address"
				}
			],
			"name": "OwnershipTransferred",
			"type": "event"
		},
		{
			"anonymous": false,
			"inputs": [
				{
					"indexed": false,
					"internalType": "address",
					"name": "account",
					"type": "address"
				}
			],
			"name": "Paused",
			"type": "event"
		},
		{
			"anonymous": false,
			"inputs": [
				{
					"indexed": true,
					"internalType": "uint256",
					"name": "itemId",
					"type": "uint256"
				},
				{
					"indexed": false,
					"internalType": "uint256",
					"name": "_oneItemPrice",
					"type": "uint256"
				},
				{
					"indexed": false,
					"internalType": "address",
					"name": "ownerOfItem",
					"type": "address"
				}
			],
			"name": "PriceUpdated",
			"type": "event"
		},
		{
			"anonymous": false,
			"inputs": [
				{
					"indexed": false,
					"internalType": "address",
					"name": "token",
					"type": "address"
				},
				{
					"indexed": false,
					"internalType": "bool",
					"name": "status",
					"type": "bool"
				}
			],
			"name": "TokenValidUpdatedStatus",
			"type": "event"
		},
		{
			"anonymous": false,
			"inputs": [
				{
					"indexed": false,
					"internalType": "address",
					"name": "account",
					"type": "address"
				}
			],
			"name": "Unpaused",
			"type": "event"
		},
		{
			"inputs": [],
			"name": "UITNFT",
			"outputs": [
				{
					"internalType": "address",
					"name": "",
					"type": "address"
				}
			],
			"stateMutability": "view",
			"type": "function"
		},
		{
			"inputs": [],
			"name": "UITToken",
			"outputs": [
				{
					"internalType": "address",
					"name": "",
					"type": "address"
				}
			],
			"stateMutability": "view",
			"type": "function"
		},
		{
			"inputs": [],
			"name": "accessControl",
			"outputs": [
				{
					"internalType": "address",
					"name": "",
					"type": "address"
				}
			],
			"stateMutability": "view",
			"type": "function"
		},
		{
			"inputs": [],
			"name": "activateNFT",
			"outputs": [
				{
					"internalType": "contract IActivateNFT",
					"name": "",
					"type": "address"
				}
			],
			"stateMutability": "view",
			"type": "function"
		},
		{
			"inputs": [
				{
					"internalType": "uint256[]",
					"name": "_activateIds",
					"type": "uint256[]"
				}
			],
			"name": "activateNFTByAdmin",
			"outputs": [],
			"stateMutability": "nonpayable",
			"type": "function"
		},
		{
			"inputs": [
				{
					"internalType": "uint256",
					"name": "_itemId",
					"type": "uint256"
				},
				{
					"internalType": "address",
					"name": "_seller",
					"type": "address"
				},
				{
					"internalType": "uint256",
					"name": "_amount",
					"type": "uint256"
				}
			],
			"name": "buy",
			"outputs": [],
			"stateMutability": "nonpayable",
			"type": "function"
		},
		{
			"inputs": [
				{
					"internalType": "uint256[]",
					"name": "_activateIds",
					"type": "uint256[]"
				}
			],
			"name": "cancelRequestActivateNFT",
			"outputs": [],
			"stateMutability": "nonpayable",
			"type": "function"
		},
		{
			"inputs": [
				{
					"components": [
						{
							"internalType": "string",
							"name": "metadataInHash",
							"type": "string"
						},
						{
							"internalType": "bool",
							"name": "isCourseNFT",
							"type": "bool"
						}
					],
					"internalType": "struct ISharedStruct.NFTInfo",
					"name": "_nftInfo",
					"type": "tuple"
				},
				{
					"internalType": "uint256",
					"name": "_oneItemPrice",
					"type": "uint256"
				},
				{
					"internalType": "uint256",
					"name": "_amount",
					"type": "uint256"
				}
			],
			"name": "createAndListNFT",
			"outputs": [],
			"stateMutability": "nonpayable",
			"type": "function"
		},
		{
			"inputs": [
				{
					"internalType": "uint256",
					"name": "_itemId",
					"type": "uint256"
				}
			],
			"name": "deList",
			"outputs": [],
			"stateMutability": "nonpayable",
			"type": "function"
		},
		{
			"inputs": [
				{
					"internalType": "uint256",
					"name": "",
					"type": "uint256"
				},
				{
					"internalType": "address",
					"name": "",
					"type": "address"
				}
			],
			"name": "itemsForSale",
			"outputs": [
				{
					"internalType": "bool",
					"name": "isActive",
					"type": "bool"
				},
				{
					"internalType": "uint256",
					"name": "itemId",
					"type": "uint256"
				},
				{
					"internalType": "uint256",
					"name": "amount",
					"type": "uint256"
				},
				{
					"internalType": "uint256",
					"name": "saleTime",
					"type": "uint256"
				},
				{
					"internalType": "uint256",
					"name": "oneItemPrice",
					"type": "uint256"
				}
			],
			"stateMutability": "view",
			"type": "function"
		},
		{
			"inputs": [
				{
					"internalType": "uint256",
					"name": "_itemId",
					"type": "uint256"
				},
				{
					"internalType": "uint256",
					"name": "_oneItemPrice",
					"type": "uint256"
				},
				{
					"internalType": "uint256",
					"name": "_amount",
					"type": "uint256"
				}
			],
			"name": "list",
			"outputs": [],
			"stateMutability": "nonpayable",
			"type": "function"
		},
		{
			"inputs": [
				{
					"internalType": "address",
					"name": "",
					"type": "address"
				},
				{
					"internalType": "address",
					"name": "",
					"type": "address"
				},
				{
					"internalType": "uint256[]",
					"name": "",
					"type": "uint256[]"
				},
				{
					"internalType": "uint256[]",
					"name": "",
					"type": "uint256[]"
				},
				{
					"internalType": "bytes",
					"name": "",
					"type": "bytes"
				}
			],
			"name": "onERC1155BatchReceived",
			"outputs": [
				{
					"internalType": "bytes4",
					"name": "",
					"type": "bytes4"
				}
			],
			"stateMutability": "nonpayable",
			"type": "function"
		},
		{
			"inputs": [
				{
					"internalType": "address",
					"name": "",
					"type": "address"
				},
				{
					"internalType": "address",
					"name": "",
					"type": "address"
				},
				{
					"internalType": "uint256",
					"name": "",
					"type": "uint256"
				},
				{
					"internalType": "uint256",
					"name": "",
					"type": "uint256"
				},
				{
					"internalType": "bytes",
					"name": "",
					"type": "bytes"
				}
			],
			"name": "onERC1155Received",
			"outputs": [
				{
					"internalType": "bytes4",
					"name": "",
					"type": "bytes4"
				}
			],
			"stateMutability": "nonpayable",
			"type": "function"
		},
		{
			"inputs": [],
			"name": "owner",
			"outputs": [
				{
					"internalType": "address",
					"name": "",
					"type": "address"
				}
			],
			"stateMutability": "view",
			"type": "function"
		},
		{
			"inputs": [],
			"name": "pause",
			"outputs": [],
			"stateMutability": "nonpayable",
			"type": "function"
		},
		{
			"inputs": [],
			"name": "paused",
			"outputs": [
				{
					"internalType": "bool",
					"name": "",
					"type": "bool"
				}
			],
			"stateMutability": "view",
			"type": "function"
		},
		{
			"inputs": [],
			"name": "renounceOwnership",
			"outputs": [],
			"stateMutability": "nonpayable",
			"type": "function"
		},
		{
			"inputs": [
				{
					"internalType": "uint256",
					"name": "_itemId",
					"type": "uint256"
				},
				{
					"internalType": "uint256",
					"name": "_amount",
					"type": "uint256"
				}
			],
			"name": "requestActivateNFT",
			"outputs": [],
			"stateMutability": "nonpayable",
			"type": "function"
		},
		{
			"inputs": [],
			"name": "rewardDistributor",
			"outputs": [
				{
					"internalType": "address",
					"name": "",
					"type": "address"
				}
			],
			"stateMutability": "view",
			"type": "function"
		},
		{
			"inputs": [
				{
					"internalType": "address",
					"name": "_accessControl",
					"type": "address"
				}
			],
			"name": "setAccessControl",
			"outputs": [],
			"stateMutability": "nonpayable",
			"type": "function"
		},
		{
			"inputs": [
				{
					"internalType": "contract IActivateNFT",
					"name": "_activateNFT",
					"type": "address"
				}
			],
			"name": "setActivateNFT",
			"outputs": [],
			"stateMutability": "nonpayable",
			"type": "function"
		},
		{
			"inputs": [
				{
					"internalType": "bytes4",
					"name": "interfaceId",
					"type": "bytes4"
				}
			],
			"name": "supportsInterface",
			"outputs": [
				{
					"internalType": "bool",
					"name": "",
					"type": "bool"
				}
			],
			"stateMutability": "view",
			"type": "function"
		},
		{
			"inputs": [
				{
					"internalType": "address",
					"name": "newOwner",
					"type": "address"
				}
			],
			"name": "transferOwnership",
			"outputs": [],
			"stateMutability": "nonpayable",
			"type": "function"
		},
		{
			"inputs": [],
			"name": "unpause",
			"outputs": [],
			"stateMutability": "nonpayable",
			"type": "function"
		},
		{
			"inputs": [
				{
					"internalType": "uint256",
					"name": "_itemId",
					"type": "uint256"
				},
				{
					"internalType": "uint256",
					"name": "_amount",
					"type": "uint256"
				}
			],
			"name": "updateAmountNFT",
			"outputs": [],
			"stateMutability": "nonpayable",
			"type": "function"
		},
		{
			"inputs": [
				{
					"internalType": "uint256",
					"name": "_itemId",
					"type": "uint256"
				},
				{
					"internalType": "uint256",
					"name": "_oneItemPrice",
					"type": "uint256"
				}
			],
			"name": "updatePrice",
			"outputs": [],
			"stateMutability": "nonpayable",
			"type": "function"
		}
	]
}