{
	"data": {
		"bytecode": {
			"linkReferences": {},
			"object": "60a06040523480156200001157600080fd5b5060405162002bd038038062002bd0833981810160405281019062000037919062000281565b60008060006101000a81548160ff02191690831515021790555062000071620000656200019d60201b60201c565b620001a560201b60201c565b60018081905550600073ffffffffffffffffffffffffffffffffffffffff168273ffffffffffffffffffffffffffffffffffffffff161415620000eb576040517f08c379a0000000000000000000000000000000000000000000000000000000008152600401620000e29062000338565b60405180910390fd5b600073ffffffffffffffffffffffffffffffffffffffff168173ffffffffffffffffffffffffffffffffffffffff1614156200015e576040517f08c379a0000000000000000000000000000000000000000000000000000000008152600401620001559062000316565b60405180910390fd5b8073ffffffffffffffffffffffffffffffffffffffff1660808173ffffffffffffffffffffffffffffffffffffffff1660601b8152505050506200045c565b600033905090565b60008060019054906101000a900473ffffffffffffffffffffffffffffffffffffffff16905081600060016101000a81548173ffffffffffffffffffffffffffffffffffffffff021916908373ffffffffffffffffffffffffffffffffffffffff1602179055508173ffffffffffffffffffffffffffffffffffffffff168173ffffffffffffffffffffffffffffffffffffffff167f8be0079c531659141344cd1fd0a4f28419497f9722a3daafe3b4186f6b6457e060405160405180910390a35050565b6000815190506200027b8162000442565b92915050565b600080604083850312156200029b576200029a6200039f565b5b6000620002ab858286016200026a565b9250506020620002be858286016200026a565b9150509250929050565b6000620002d7602b836200035a565b9150620002e482620003a4565b604082019050919050565b6000620002fe602e836200035a565b91506200030b82620003f3565b604082019050919050565b600060208201905081810360008301526200033181620002c8565b9050919050565b600060208201905081810360008301526200035381620002ef565b9050919050565b600082825260208201905092915050565b600062000378826200037f565b9050919050565b600073ffffffffffffffffffffffffffffffffffffffff82169050919050565b600080fd5b7f4163746976654e46543a205549544e46546f6b656e206d757374206e6f74206260008201527f6520616464726573732030000000000000000000000000000000000000000000602082015250565b7f4163746976654e46543a2041636365737320636f6e74726f6c20636f6e74726160008201527f63742063616e6e6f742062652030000000000000000000000000000000000000602082015250565b6200044d816200036b565b81146200045957600080fd5b50565b60805160601c6127326200049e600039600081816104e201528181610841015281816109f501528181610b4701528181610d8c015261117501526127326000f3fe608060405234801561001057600080fd5b50600436106101005760003560e01c80637d3e9b4911610097578063ab2cb64c11610066578063ab2cb64c14610256578063bc197c8114610272578063f23a6e61146102a2578063f2fde38b146102d257610100565b80637d3e9b49146101f65780637e707f86146102125780638456cb591461022e5780638da5cb5b1461023857610100565b80633b88699b116100d35780633b88699b146101a65780633f4ba83a146101c45780635c975abb146101ce578063715018a6146101ec57610100565b806301ffc9a71461010557806313007d551461013557806319129e5a14610153578063316aa1321461016f575b600080fd5b61011f600480360381019061011a9190611a7d565b6102ee565b60405161012c9190611e18565b60405180910390f35b61013d610368565b60405161014a9190611d7c565b60405180910390f35b61016d600480360381019061016891906118bd565b61038e565b005b61018960048036038101906101849190611af3565b61044e565b60405161019d989796959493929190611ff2565b60405180910390f35b6101ae6104e0565b6040516101bb9190611d7c565b60405180910390f35b6101cc610504565b005b6101d661058a565b6040516101e39190611e18565b60405180910390f35b6101f46105a0565b005b610210600480360381019061020b9190611af3565b610628565b005b61022c60048036038101906102279190611b4d565b610919565b005b610236610e29565b005b610240610eaf565b60405161024d9190611d7c565b60405180910390f35b610270600480360381019061026b9190611af3565b610ed8565b005b61028c600480360381019061028791906118ea565b6112ce565b6040516102999190611e5c565b60405180910390f35b6102bc60048036038101906102b791906119b9565b6112e3565b6040516102c99190611e5c565b60405180910390f35b6102ec60048036038101906102e791906118bd565b6112f8565b005b60007f4e2312e0000000000000000000000000000000000000000000000000000000007bffffffffffffffffffffffffffffffffffffffffffffffffffffffff1916827bffffffffffffffffffffffffffffffffffffffffffffffffffffffff191614806103615750610360826113f0565b5b9050919050565b600260009054906101000a900473ffffffffffffffffffffffffffffffffffffffff1681565b61039661145a565b73ffffffffffffffffffffffffffffffffffffffff166103b4610eaf565b73ffffffffffffffffffffffffffffffffffffffff161461040a576040517f08c379a000000000000000000000000000000000000000000000000000000000815260040161040190611f97565b60405180910390fd5b80600260006101000a81548173ffffffffffffffffffffffffffffffffffffffff021916908373ffffffffffffffffffffffffffffffffffffffff16021790555050565b6003818154811061045e57600080fd5b90600052602060002090600702016000915090508060000154908060010160009054906101000a900473ffffffffffffffffffffffffffffffffffffffff16908060020154908060030154908060040154908060050154908060060160009054906101000a900460ff16908060060160019054906101000a900460ff16905088565b7f000000000000000000000000000000000000000000000000000000000000000081565b61050c61145a565b73ffffffffffffffffffffffffffffffffffffffff1661052a610eaf565b73ffffffffffffffffffffffffffffffffffffffff1614610580576040517f08c379a000000000000000000000000000000000000000000000000000000000815260040161057790611f97565b60405180910390fd5b610588611462565b565b60008060009054906101000a900460ff16905090565b6105a861145a565b73ffffffffffffffffffffffffffffffffffffffff166105c6610eaf565b73ffffffffffffffffffffffffffffffffffffffff161461061c576040517f08c379a000000000000000000000000000000000000000000000000000000000815260040161061390611f97565b60405180910390fd5b6106266000611503565b565b61063061058a565b15610670576040517f08c379a000000000000000000000000000000000000000000000000000000000815260040161066790611ef7565b60405180910390fd5b600260015414156106b6576040517f08c379a00000000000000000000000000000000000000000000000000000000081526004016106ad90611fb7565b60405180910390fd5b60026001819055506000600382815481106106d4576106d361238a565b5b906000526020600020906007020190503373ffffffffffffffffffffffffffffffffffffffff168160010160009054906101000a900473ffffffffffffffffffffffffffffffffffffffff1673ffffffffffffffffffffffffffffffffffffffff1614610776576040517f08c379a000000000000000000000000000000000000000000000000000000000815260040161076d90611ed7565b60405180910390fd5b8060060160009054906101000a900460ff166107c7576040517f08c379a00000000000000000000000000000000000000000000000000000000081526004016107be90611f17565b60405180910390fd5b8060060160019054906101000a900460ff1615610819576040517f08c379a000000000000000000000000000000000000000000000000000000000815260040161081090611f37565b60405180910390fd5b60008160020154905060008260060160006101000a81548160ff0219169083151502179055507f000000000000000000000000000000000000000000000000000000000000000073ffffffffffffffffffffffffffffffffffffffff1663f242432a30338486600301546040518563ffffffff1660e01b81526004016108a29493929190611d97565b600060405180830381600087803b1580156108bc57600080fd5b505af11580156108d0573d6000803e3d6000fd5b505050507f1266933e3dee32241cac867cb9bf2c3cebdb58cc6be3dbba08776fc4693497fa8342604051610905929190612070565b60405180910390a150506001808190555050565b61092161058a565b15610961576040517f08c379a000000000000000000000000000000000000000000000000000000000815260040161095890611ef7565b60405180910390fd5b600260015414156109a7576040517f08c379a000000000000000000000000000000000000000000000000000000000815260040161099e90611fb7565b60405180910390fd5b6002600181905550600081116109f2576040517f08c379a00000000000000000000000000000000000000000000000000000000081526004016109e990611f77565b60405180910390fd5b807f000000000000000000000000000000000000000000000000000000000000000073ffffffffffffffffffffffffffffffffffffffff1662fdd58e33856040518363ffffffff1660e01b8152600401610a4d929190611def565b60206040518083038186803b158015610a6557600080fd5b505afa158015610a79573d6000803e3d6000fd5b505050506040513d601f19601f82011682018060405250810190610a9d9190611b20565b1015610ade576040517f08c379a0000000000000000000000000000000000000000000000000000000008152600401610ad590611eb7565b60405180910390fd5b6000600380549050905060006040518061010001604052808381526020013373ffffffffffffffffffffffffffffffffffffffff1681526020018581526020018481526020014281526020016000815260200160011515815260200160001515815250905060007f000000000000000000000000000000000000000000000000000000000000000073ffffffffffffffffffffffffffffffffffffffff1663d188929f866040518263ffffffff1660e01b8152600401610b9e9190611fd7565b600060405180830381600087803b158015610bb857600080fd5b505af1158015610bcc573d6000803e3d6000fd5b505050506040513d6000823e3d601f19601f82011682018060405250810190610bf59190611aaa565b9050806020015115610c655760018260c00190151590811515815250507fd1a0d31f113bbeff7c2b156d2fabbd5040c8ff539cad8a91f885eed034b46969600184610c409190612214565b868642336001604051610c58969594939291906120de565b60405180910390a1610ca3565b7f93a77958910a2b2fbdcd52bc45515c806c95a2d920de899c7accad9b82e1691785854233604051610c9a9493929190612099565b60405180910390a15b60038290806001815401808255809150506001900390600052602060002090600702016000909190919091506000820151816000015560208201518160010160006101000a81548173ffffffffffffffffffffffffffffffffffffffff021916908373ffffffffffffffffffffffffffffffffffffffff16021790555060408201518160020155606082015181600301556080820151816004015560a0820151816005015560c08201518160060160006101000a81548160ff02191690831515021790555060e08201518160060160016101000a81548160ff02191690831515021790555050507f000000000000000000000000000000000000000000000000000000000000000073ffffffffffffffffffffffffffffffffffffffff1663f242432a333088886040518563ffffffff1660e01b8152600401610de99493929190611d97565b600060405180830381600087803b158015610e0357600080fd5b505af1158015610e17573d6000803e3d6000fd5b50505050505050600180819055505050565b610e3161145a565b73ffffffffffffffffffffffffffffffffffffffff16610e4f610eaf565b73ffffffffffffffffffffffffffffffffffffffff1614610ea5576040517f08c379a0000000000000000000000000000000000000000000000000000000008152600401610e9c90611f97565b60405180910390fd5b610ead6115c8565b565b60008060019054906101000a900473ffffffffffffffffffffffffffffffffffffffff16905090565b600260009054906101000a900473ffffffffffffffffffffffffffffffffffffffff1673ffffffffffffffffffffffffffffffffffffffff166391d148547fdf8b4c520ffe197c5343c6f5aec59570151ef9a492f2c624fd45ddde6135ec42336040518363ffffffff1660e01b8152600401610f55929190611e33565b60206040518083038186803b158015610f6d57600080fd5b505afa158015610f81573d6000803e3d6000fd5b505050506040513d601f19601f82011682018060405250810190610fa59190611a50565b610fe4576040517f08c379a0000000000000000000000000000000000000000000000000000000008152600401610fdb90611f57565b60405180910390fd5b610fec61058a565b1561102c576040517f08c379a000000000000000000000000000000000000000000000000000000000815260040161102390611ef7565b60405180910390fd5b60026001541415611072576040517f08c379a000000000000000000000000000000000000000000000000000000000815260040161106990611fb7565b60405180910390fd5b60026001819055506000600382815481106110905761108f61238a565b5b906000526020600020906007020190508060060160009054906101000a900460ff166110f1576040517f08c379a00000000000000000000000000000000000000000000000000000000081526004016110e890611f17565b60405180910390fd5b8060060160019054906101000a900460ff16611142576040517f08c379a000000000000000000000000000000000000000000000000000000000815260040161113990611f37565b60405180910390fd5b60008160020154905060018260060160016101000a81548160ff02191690831515021790555042826005018190555060007f000000000000000000000000000000000000000000000000000000000000000073ffffffffffffffffffffffffffffffffffffffff1663d188929f836040518263ffffffff1660e01b81526004016111cc9190611fd7565b600060405180830381600087803b1580156111e657600080fd5b505af11580156111fa573d6000803e3d6000fd5b505050506040513d6000823e3d601f19601f820116820180604052508101906112239190611aaa565b905080602001511561127a577fd1a0d31f113bbeff7c2b156d2fabbd5040c8ff539cad8a91f885eed034b46969848385600301544233600160405161126d969594939291906120de565b60405180910390a16112c1565b7fd1a0d31f113bbeff7c2b156d2fabbd5040c8ff539cad8a91f885eed034b4696984838560030154423360006040516112b8969594939291906120de565b60405180910390a15b5050506001808190555050565b600063bc197c8160e01b905095945050505050565b600063f23a6e6160e01b905095945050505050565b61130061145a565b73ffffffffffffffffffffffffffffffffffffffff1661131e610eaf565b73ffffffffffffffffffffffffffffffffffffffff1614611374576040517f08c379a000000000000000000000000000000000000000000000000000000000815260040161136b90611f97565b60405180910390fd5b600073ffffffffffffffffffffffffffffffffffffffff168173ffffffffffffffffffffffffffffffffffffffff1614156113e4576040517f08c379a00000000000000000000000000000000000000000000000000000000081526004016113db90611e97565b60405180910390fd5b6113ed81611503565b50565b60007f01ffc9a7000000000000000000000000000000000000000000000000000000007bffffffffffffffffffffffffffffffffffffffffffffffffffffffff1916827bffffffffffffffffffffffffffffffffffffffffffffffffffffffff1916149050919050565b600033905090565b61146a61058a565b6114a9576040517f08c379a00000000000000000000000000000000000000000000000000000000081526004016114a090611e77565b60405180910390fd5b60008060006101000a81548160ff0219169083151502179055507f5db9ee0a495bf2e6ff9c91a7834c1ba4fdd244a5e8aa4e537bd38aeae4b073aa6114ec61145a565b6040516114f99190611d7c565b60405180910390a1565b60008060019054906101000a900473ffffffffffffffffffffffffffffffffffffffff16905081600060016101000a81548173ffffffffffffffffffffffffffffffffffffffff021916908373ffffffffffffffffffffffffffffffffffffffff1602179055508173ffffffffffffffffffffffffffffffffffffffff168173ffffffffffffffffffffffffffffffffffffffff167f8be0079c531659141344cd1fd0a4f28419497f9722a3daafe3b4186f6b6457e060405160405180910390a35050565b6115d061058a565b15611610576040517f08c379a000000000000000000000000000000000000000000000000000000000815260040161160790611ef7565b60405180910390fd5b60016000806101000a81548160ff0219169083151502179055507f62e78cea01bee320cd4e420270b5ea74000d11b0c9f74754ebdbfc544b05a25861165361145a565b6040516116609190611d7c565b60405180910390a1565b600061167d61167884612164565b61213f565b905080838252602082019050828560208602820111156116a05761169f6123f7565b5b60005b858110156116d057816116b68882611893565b8452602084019350602083019250506001810190506116a3565b5050509392505050565b60006116ed6116e884612190565b61213f565b905082815260208101848484011115611709576117086123fc565b5b6117148482856122e8565b509392505050565b600061172f61172a846121c1565b61213f565b90508281526020810184848401111561174b5761174a6123fc565b5b6117568482856122f7565b509392505050565b60008135905061176d816126a0565b92915050565b600082601f830112611788576117876123e8565b5b813561179884826020860161166a565b91505092915050565b6000815190506117b0816126b7565b92915050565b6000813590506117c5816126ce565b92915050565b600082601f8301126117e0576117df6123e8565b5b81356117f08482602086016116da565b91505092915050565b600082601f83011261180e5761180d6123e8565b5b815161181e84826020860161171c565b91505092915050565b60006040828403121561183d5761183c6123ed565b5b611847604061213f565b9050600082015167ffffffffffffffff811115611867576118666123f2565b5b611873848285016117f9565b6000830152506020611887848285016117a1565b60208301525092915050565b6000813590506118a2816126e5565b92915050565b6000815190506118b7816126e5565b92915050565b6000602082840312156118d3576118d2612406565b5b60006118e18482850161175e565b91505092915050565b600080600080600060a0868803121561190657611905612406565b5b60006119148882890161175e565b95505060206119258882890161175e565b945050604086013567ffffffffffffffff81111561194657611945612401565b5b61195288828901611773565b935050606086013567ffffffffffffffff81111561197357611972612401565b5b61197f88828901611773565b925050608086013567ffffffffffffffff8111156119a05761199f612401565b5b6119ac888289016117cb565b9150509295509295909350565b600080600080600060a086880312156119d5576119d4612406565b5b60006119e38882890161175e565b95505060206119f48882890161175e565b9450506040611a0588828901611893565b9350506060611a1688828901611893565b925050608086013567ffffffffffffffff811115611a3757611a36612401565b5b611a43888289016117cb565b9150509295509295909350565b600060208284031215611a6657611a65612406565b5b6000611a74848285016117a1565b91505092915050565b600060208284031215611a9357611a92612406565b5b6000611aa1848285016117b6565b91505092915050565b600060208284031215611ac057611abf612406565b5b600082015167ffffffffffffffff811115611ade57611add612401565b5b611aea84828501611827565b91505092915050565b600060208284031215611b0957611b08612406565b5b6000611b1784828501611893565b91505092915050565b600060208284031215611b3657611b35612406565b5b6000611b44848285016118a8565b91505092915050565b60008060408385031215611b6457611b63612406565b5b6000611b7285828601611893565b9250506020611b8385828601611893565b9150509250929050565b611b968161226a565b82525050565b611ba58161227c565b82525050565b611bb481612288565b82525050565b611bc381612292565b82525050565b6000611bd6601483612203565b9150611be18261241c565b602082019050919050565b6000611bf9602683612203565b9150611c0482612445565b604082019050919050565b6000611c1c602c83612203565b9150611c2782612494565b604082019050919050565b6000611c3f601f83612203565b9150611c4a826124e3565b602082019050919050565b6000611c62601083612203565b9150611c6d8261250c565b602082019050919050565b6000611c85602683612203565b9150611c9082612535565b604082019050919050565b6000611ca8602883612203565b9150611cb382612584565b604082019050919050565b6000611ccb602e83612203565b9150611cd6826125d3565b604082019050919050565b6000611cee601983612203565b9150611cf982612622565b602082019050919050565b6000611d11602083612203565b9150611d1c8261264b565b602082019050919050565b6000611d346000836121f2565b9150611d3f82612674565b600082019050919050565b6000611d57601f83612203565b9150611d6282612677565b602082019050919050565b611d76816122de565b82525050565b6000602082019050611d916000830184611b8d565b92915050565b600060a082019050611dac6000830187611b8d565b611db96020830186611b8d565b611dc66040830185611d6d565b611dd36060830184611d6d565b8181036080830152611de481611d27565b905095945050505050565b6000604082019050611e046000830185611b8d565b611e116020830184611d6d565b9392505050565b6000602082019050611e2d6000830184611b9c565b92915050565b6000604082019050611e486000830185611bab565b611e556020830184611b8d565b9392505050565b6000602082019050611e716000830184611bba565b92915050565b60006020820190508181036000830152611e9081611bc9565b9050919050565b60006020820190508181036000830152611eb081611bec565b9050919050565b60006020820190508181036000830152611ed081611c0f565b9050919050565b60006020820190508181036000830152611ef081611c32565b9050919050565b60006020820190508181036000830152611f1081611c55565b9050919050565b60006020820190508181036000830152611f3081611c78565b9050919050565b60006020820190508181036000830152611f5081611c9b565b9050919050565b60006020820190508181036000830152611f7081611cbe565b9050919050565b60006020820190508181036000830152611f9081611ce1565b9050919050565b60006020820190508181036000830152611fb081611d04565b9050919050565b60006020820190508181036000830152611fd081611d4a565b9050919050565b6000602082019050611fec6000830184611d6d565b92915050565b600061010082019050612008600083018b611d6d565b612015602083018a611b8d565b6120226040830189611d6d565b61202f6060830188611d6d565b61203c6080830187611d6d565b61204960a0830186611d6d565b61205660c0830185611b9c565b61206360e0830184611b9c565b9998505050505050505050565b60006040820190506120856000830185611d6d565b6120926020830184611d6d565b9392505050565b60006080820190506120ae6000830187611d6d565b6120bb6020830186611d6d565b6120c86040830185611d6d565b6120d56060830184611b8d565b95945050505050565b600060c0820190506120f36000830189611d6d565b6121006020830188611d6d565b61210d6040830187611d6d565b61211a6060830186611d6d565b6121276080830185611b8d565b61213460a0830184611b9c565b979650505050505050565b600061214961215a565b9050612155828261232a565b919050565b6000604051905090565b600067ffffffffffffffff82111561217f5761217e6123b9565b5b602082029050602081019050919050565b600067ffffffffffffffff8211156121ab576121aa6123b9565b5b6121b48261240b565b9050602081019050919050565b600067ffffffffffffffff8211156121dc576121db6123b9565b5b6121e58261240b565b9050602081019050919050565b600082825260208201905092915050565b600082825260208201905092915050565b600061221f826122de565b915061222a836122de565b9250827fffffffffffffffffffffffffffffffffffffffffffffffffffffffffffffffff0382111561225f5761225e61235b565b5b828201905092915050565b6000612275826122be565b9050919050565b60008115159050919050565b6000819050919050565b60007fffffffff0000000000000000000000000000000000000000000000000000000082169050919050565b600073ffffffffffffffffffffffffffffffffffffffff82169050919050565b6000819050919050565b82818337600083830152505050565b60005b838110156123155780820151818401526020810190506122fa565b83811115612324576000848401525b50505050565b6123338261240b565b810181811067ffffffffffffffff82111715612352576123516123b9565b5b80604052505050565b7f4e487b7100000000000000000000000000000000000000000000000000000000600052601160045260246000fd5b7f4e487b7100000000000000000000000000000000000000000000000000000000600052603260045260246000fd5b7f4e487b7100000000000000000000000000000000000000000000000000000000600052604160045260246000fd5b600080fd5b600080fd5b600080fd5b600080fd5b600080fd5b600080fd5b600080fd5b6000601f19601f8301169050919050565b7f5061757361626c653a206e6f7420706175736564000000000000000000000000600082015250565b7f4f776e61626c653a206e6577206f776e657220697320746865207a65726f206160008201527f6464726573730000000000000000000000000000000000000000000000000000602082015250565b7f4163746976654e46543a2042616c616e6365206f66206974656d73206c65737360008201527f207468616e20616d6f756e740000000000000000000000000000000000000000602082015250565b7f4163746976654e46543a204e6f74206f776e6572206f66207265717565737400600082015250565b7f5061757361626c653a2070617573656400000000000000000000000000000000600082015250565b7f4163746976654e46543a20616374697665496e666f206973206e6f742072657160008201527f7565737465640000000000000000000000000000000000000000000000000000602082015250565b7f4163746976654e46543a20616374697665496e666f20697320616c726561647960008201527f2061637469766564000000000000000000000000000000000000000000000000602082015250565b7f4d61726b6574706c6163653a204f6e6c792061646d696e2063616e2063616c6c60008201527f20746869732066756e6374696f6e000000000000000000000000000000000000602082015250565b7f4163746976654e46543a20616d6f756e74206973207a65726f00000000000000600082015250565b7f4f776e61626c653a2063616c6c6572206973206e6f7420746865206f776e6572600082015250565b50565b7f5265656e7472616e637947756172643a207265656e7472616e742063616c6c00600082015250565b6126a98161226a565b81146126b457600080fd5b50565b6126c08161227c565b81146126cb57600080fd5b50565b6126d781612292565b81146126e257600080fd5b50565b6126ee816122de565b81146126f957600080fd5b5056fea264697066735822122044bdb42a4ab9e0c9b919a9dfc2cf541eb33ab26a7ddaf88d561ef8efcbbf24f464736f6c63430008070033",
			"opcodes": "PUSH1 0xA0 PUSH1 0x40 MSTORE CALLVALUE DUP1 ISZERO PUSH3 0x11 JUMPI PUSH1 0x0 DUP1 REVERT JUMPDEST POP PUSH1 0x40 MLOAD PUSH3 0x2BD0 CODESIZE SUB DUP1 PUSH3 0x2BD0 DUP4 CODECOPY DUP2 DUP2 ADD PUSH1 0x40 MSTORE DUP2 ADD SWAP1 PUSH3 0x37 SWAP2 SWAP1 PUSH3 0x281 JUMP JUMPDEST PUSH1 0x0 DUP1 PUSH1 0x0 PUSH2 0x100 EXP DUP2 SLOAD DUP2 PUSH1 0xFF MUL NOT AND SWAP1 DUP4 ISZERO ISZERO MUL OR SWAP1 SSTORE POP PUSH3 0x71 PUSH3 0x65 PUSH3 0x19D PUSH1 0x20 SHL PUSH1 0x20 SHR JUMP JUMPDEST PUSH3 0x1A5 PUSH1 0x20 SHL PUSH1 0x20 SHR JUMP JUMPDEST PUSH1 0x1 DUP1 DUP2 SWAP1 SSTORE POP PUSH1 0x0 PUSH20 0xFFFFFFFFFFFFFFFFFFFFFFFFFFFFFFFFFFFFFFFF AND DUP3 PUSH20 0xFFFFFFFFFFFFFFFFFFFFFFFFFFFFFFFFFFFFFFFF AND EQ ISZERO PUSH3 0xEB JUMPI PUSH1 0x40 MLOAD PUSH32 0x8C379A000000000000000000000000000000000000000000000000000000000 DUP2 MSTORE PUSH1 0x4 ADD PUSH3 0xE2 SWAP1 PUSH3 0x338 JUMP JUMPDEST PUSH1 0x40 MLOAD DUP1 SWAP2 SUB SWAP1 REVERT JUMPDEST PUSH1 0x0 PUSH20 0xFFFFFFFFFFFFFFFFFFFFFFFFFFFFFFFFFFFFFFFF AND DUP2 PUSH20 0xFFFFFFFFFFFFFFFFFFFFFFFFFFFFFFFFFFFFFFFF AND EQ ISZERO PUSH3 0x15E JUMPI PUSH1 0x40 MLOAD PUSH32 0x8C379A000000000000000000000000000000000000000000000000000000000 DUP2 MSTORE PUSH1 0x4 ADD PUSH3 0x155 SWAP1 PUSH3 0x316 JUMP JUMPDEST PUSH1 0x40 MLOAD DUP1 SWAP2 SUB SWAP1 REVERT JUMPDEST DUP1 PUSH20 0xFFFFFFFFFFFFFFFFFFFFFFFFFFFFFFFFFFFFFFFF AND PUSH1 0x80 DUP2 PUSH20 0xFFFFFFFFFFFFFFFFFFFFFFFFFFFFFFFFFFFFFFFF AND PUSH1 0x60 SHL DUP2 MSTORE POP POP POP POP PUSH3 0x45C JUMP JUMPDEST PUSH1 0x0 CALLER SWAP1 POP SWAP1 JUMP JUMPDEST PUSH1 0x0 DUP1 PUSH1 0x1 SWAP1 SLOAD SWAP1 PUSH2 0x100 EXP SWAP1 DIV PUSH20 0xFFFFFFFFFFFFFFFFFFFFFFFFFFFFFFFFFFFFFFFF AND SWAP1 POP DUP2 PUSH1 0x0 PUSH1 0x1 PUSH2 0x100 EXP DUP2 SLOAD DUP2 PUSH20 0xFFFFFFFFFFFFFFFFFFFFFFFFFFFFFFFFFFFFFFFF MUL NOT AND SWAP1 DUP4 PUSH20 0xFFFFFFFFFFFFFFFFFFFFFFFFFFFFFFFFFFFFFFFF AND MUL OR SWAP1 SSTORE POP DUP2 PUSH20 0xFFFFFFFFFFFFFFFFFFFFFFFFFFFFFFFFFFFFFFFF AND DUP2 PUSH20 0xFFFFFFFFFFFFFFFFFFFFFFFFFFFFFFFFFFFFFFFF AND PUSH32 0x8BE0079C531659141344CD1FD0A4F28419497F9722A3DAAFE3B4186F6B6457E0 PUSH1 0x40 MLOAD PUSH1 0x40 MLOAD DUP1 SWAP2 SUB SWAP1 LOG3 POP POP JUMP JUMPDEST PUSH1 0x0 DUP2 MLOAD SWAP1 POP PUSH3 0x27B DUP2 PUSH3 0x442 JUMP JUMPDEST SWAP3 SWAP2 POP POP JUMP JUMPDEST PUSH1 0x0 DUP1 PUSH1 0x40 DUP4 DUP6 SUB SLT ISZERO PUSH3 0x29B JUMPI PUSH3 0x29A PUSH3 0x39F JUMP JUMPDEST JUMPDEST PUSH1 0x0 PUSH3 0x2AB DUP6 DUP3 DUP7 ADD PUSH3 0x26A JUMP JUMPDEST SWAP3 POP POP PUSH1 0x20 PUSH3 0x2BE DUP6 DUP3 DUP7 ADD PUSH3 0x26A JUMP JUMPDEST SWAP2 POP POP SWAP3 POP SWAP3 SWAP1 POP JUMP JUMPDEST PUSH1 0x0 PUSH3 0x2D7 PUSH1 0x2B DUP4 PUSH3 0x35A JUMP JUMPDEST SWAP2 POP PUSH3 0x2E4 DUP3 PUSH3 0x3A4 JUMP JUMPDEST PUSH1 0x40 DUP3 ADD SWAP1 POP SWAP2 SWAP1 POP JUMP JUMPDEST PUSH1 0x0 PUSH3 0x2FE PUSH1 0x2E DUP4 PUSH3 0x35A JUMP JUMPDEST SWAP2 POP PUSH3 0x30B DUP3 PUSH3 0x3F3 JUMP JUMPDEST PUSH1 0x40 DUP3 ADD SWAP1 POP SWAP2 SWAP1 POP JUMP JUMPDEST PUSH1 0x0 PUSH1 0x20 DUP3 ADD SWAP1 POP DUP2 DUP2 SUB PUSH1 0x0 DUP4 ADD MSTORE PUSH3 0x331 DUP2 PUSH3 0x2C8 JUMP JUMPDEST SWAP1 POP SWAP2 SWAP1 POP JUMP JUMPDEST PUSH1 0x0 PUSH1 0x20 DUP3 ADD SWAP1 POP DUP2 DUP2 SUB PUSH1 0x0 DUP4 ADD MSTORE PUSH3 0x353 DUP2 PUSH3 0x2EF JUMP JUMPDEST SWAP1 POP SWAP2 SWAP1 POP JUMP JUMPDEST PUSH1 0x0 DUP3 DUP3 MSTORE PUSH1 0x20 DUP3 ADD SWAP1 POP SWAP3 SWAP2 POP POP JUMP JUMPDEST PUSH1 0x0 PUSH3 0x378 DUP3 PUSH3 0x37F JUMP JUMPDEST SWAP1 POP SWAP2 SWAP1 POP JUMP JUMPDEST PUSH1 0x0 PUSH20 0xFFFFFFFFFFFFFFFFFFFFFFFFFFFFFFFFFFFFFFFF DUP3 AND SWAP1 POP SWAP2 SWAP1 POP JUMP JUMPDEST PUSH1 0x0 DUP1 REVERT JUMPDEST PUSH32 0x4163746976654E46543A205549544E46546F6B656E206D757374206E6F742062 PUSH1 0x0 DUP3 ADD MSTORE PUSH32 0x6520616464726573732030000000000000000000000000000000000000000000 PUSH1 0x20 DUP3 ADD MSTORE POP JUMP JUMPDEST PUSH32 0x4163746976654E46543A2041636365737320636F6E74726F6C20636F6E747261 PUSH1 0x0 DUP3 ADD MSTORE PUSH32 0x63742063616E6E6F742062652030000000000000000000000000000000000000 PUSH1 0x20 DUP3 ADD MSTORE POP JUMP JUMPDEST PUSH3 0x44D DUP2 PUSH3 0x36B JUMP JUMPDEST DUP2 EQ PUSH3 0x459 JUMPI PUSH1 0x0 DUP1 REVERT JUMPDEST POP JUMP JUMPDEST PUSH1 0x80 MLOAD PUSH1 0x60 SHR PUSH2 0x2732 PUSH3 0x49E PUSH1 0x0 CODECOPY PUSH1 0x0 DUP2 DUP2 PUSH2 0x4E2 ADD MSTORE DUP2 DUP2 PUSH2 0x841 ADD MSTORE DUP2 DUP2 PUSH2 0x9F5 ADD MSTORE DUP2 DUP2 PUSH2 0xB47 ADD MSTORE DUP2 DUP2 PUSH2 0xD8C ADD MSTORE PUSH2 0x1175 ADD MSTORE PUSH2 0x2732 PUSH1 0x0 RETURN INVALID PUSH1 0x80 PUSH1 0x40 MSTORE CALLVALUE DUP1 ISZERO PUSH2 0x10 JUMPI PUSH1 0x0 DUP1 REVERT JUMPDEST POP PUSH1 0x4 CALLDATASIZE LT PUSH2 0x100 JUMPI PUSH1 0x0 CALLDATALOAD PUSH1 0xE0 SHR DUP1 PUSH4 0x7D3E9B49 GT PUSH2 0x97 JUMPI DUP1 PUSH4 0xAB2CB64C GT PUSH2 0x66 JUMPI DUP1 PUSH4 0xAB2CB64C EQ PUSH2 0x256 JUMPI DUP1 PUSH4 0xBC197C81 EQ PUSH2 0x272 JUMPI DUP1 PUSH4 0xF23A6E61 EQ PUSH2 0x2A2 JUMPI DUP1 PUSH4 0xF2FDE38B EQ PUSH2 0x2D2 JUMPI PUSH2 0x100 JUMP JUMPDEST DUP1 PUSH4 0x7D3E9B49 EQ PUSH2 0x1F6 JUMPI DUP1 PUSH4 0x7E707F86 EQ PUSH2 0x212 JUMPI DUP1 PUSH4 0x8456CB59 EQ PUSH2 0x22E JUMPI DUP1 PUSH4 0x8DA5CB5B EQ PUSH2 0x238 JUMPI PUSH2 0x100 JUMP JUMPDEST DUP1 PUSH4 0x3B88699B GT PUSH2 0xD3 JUMPI DUP1 PUSH4 0x3B88699B EQ PUSH2 0x1A6 JUMPI DUP1 PUSH4 0x3F4BA83A EQ PUSH2 0x1C4 JUMPI DUP1 PUSH4 0x5C975ABB EQ PUSH2 0x1CE JUMPI DUP1 PUSH4 0x715018A6 EQ PUSH2 0x1EC JUMPI PUSH2 0x100 JUMP JUMPDEST DUP1 PUSH4 0x1FFC9A7 EQ PUSH2 0x105 JUMPI DUP1 PUSH4 0x13007D55 EQ PUSH2 0x135 JUMPI DUP1 PUSH4 0x19129E5A EQ PUSH2 0x153 JUMPI DUP1 PUSH4 0x316AA132 EQ PUSH2 0x16F JUMPI JUMPDEST PUSH1 0x0 DUP1 REVERT JUMPDEST PUSH2 0x11F PUSH1 0x4 DUP1 CALLDATASIZE SUB DUP2 ADD SWAP1 PUSH2 0x11A SWAP2 SWAP1 PUSH2 0x1A7D JUMP JUMPDEST PUSH2 0x2EE JUMP JUMPDEST PUSH1 0x40 MLOAD PUSH2 0x12C SWAP2 SWAP1 PUSH2 0x1E18 JUMP JUMPDEST PUSH1 0x40 MLOAD DUP1 SWAP2 SUB SWAP1 RETURN JUMPDEST PUSH2 0x13D PUSH2 0x368 JUMP JUMPDEST PUSH1 0x40 MLOAD PUSH2 0x14A SWAP2 SWAP1 PUSH2 0x1D7C JUMP JUMPDEST PUSH1 0x40 MLOAD DUP1 SWAP2 SUB SWAP1 RETURN JUMPDEST PUSH2 0x16D PUSH1 0x4 DUP1 CALLDATASIZE SUB DUP2 ADD SWAP1 PUSH2 0x168 SWAP2 SWAP1 PUSH2 0x18BD JUMP JUMPDEST PUSH2 0x38E JUMP JUMPDEST STOP JUMPDEST PUSH2 0x189 PUSH1 0x4 DUP1 CALLDATASIZE SUB DUP2 ADD SWAP1 PUSH2 0x184 SWAP2 SWAP1 PUSH2 0x1AF3 JUMP JUMPDEST PUSH2 0x44E JUMP JUMPDEST PUSH1 0x40 MLOAD PUSH2 0x19D SWAP9 SWAP8 SWAP7 SWAP6 SWAP5 SWAP4 SWAP3 SWAP2 SWAP1 PUSH2 0x1FF2 JUMP JUMPDEST PUSH1 0x40 MLOAD DUP1 SWAP2 SUB SWAP1 RETURN JUMPDEST PUSH2 0x1AE PUSH2 0x4E0 JUMP JUMPDEST PUSH1 0x40 MLOAD PUSH2 0x1BB SWAP2 SWAP1 PUSH2 0x1D7C JUMP JUMPDEST PUSH1 0x40 MLOAD DUP1 SWAP2 SUB SWAP1 RETURN JUMPDEST PUSH2 0x1CC PUSH2 0x504 JUMP JUMPDEST STOP JUMPDEST PUSH2 0x1D6 PUSH2 0x58A JUMP JUMPDEST PUSH1 0x40 MLOAD PUSH2 0x1E3 SWAP2 SWAP1 PUSH2 0x1E18 JUMP JUMPDEST PUSH1 0x40 MLOAD DUP1 SWAP2 SUB SWAP1 RETURN JUMPDEST PUSH2 0x1F4 PUSH2 0x5A0 JUMP JUMPDEST STOP JUMPDEST PUSH2 0x210 PUSH1 0x4 DUP1 CALLDATASIZE SUB DUP2 ADD SWAP1 PUSH2 0x20B SWAP2 SWAP1 PUSH2 0x1AF3 JUMP JUMPDEST PUSH2 0x628 JUMP JUMPDEST STOP JUMPDEST PUSH2 0x22C PUSH1 0x4 DUP1 CALLDATASIZE SUB DUP2 ADD SWAP1 PUSH2 0x227 SWAP2 SWAP1 PUSH2 0x1B4D JUMP JUMPDEST PUSH2 0x919 JUMP JUMPDEST STOP JUMPDEST PUSH2 0x236 PUSH2 0xE29 JUMP JUMPDEST STOP JUMPDEST PUSH2 0x240 PUSH2 0xEAF JUMP JUMPDEST PUSH1 0x40 MLOAD PUSH2 0x24D SWAP2 SWAP1 PUSH2 0x1D7C JUMP JUMPDEST PUSH1 0x40 MLOAD DUP1 SWAP2 SUB SWAP1 RETURN JUMPDEST PUSH2 0x270 PUSH1 0x4 DUP1 CALLDATASIZE SUB DUP2 ADD SWAP1 PUSH2 0x26B SWAP2 SWAP1 PUSH2 0x1AF3 JUMP JUMPDEST PUSH2 0xED8 JUMP JUMPDEST STOP JUMPDEST PUSH2 0x28C PUSH1 0x4 DUP1 CALLDATASIZE SUB DUP2 ADD SWAP1 PUSH2 0x287 SWAP2 SWAP1 PUSH2 0x18EA JUMP JUMPDEST PUSH2 0x12CE JUMP JUMPDEST PUSH1 0x40 MLOAD PUSH2 0x299 SWAP2 SWAP1 PUSH2 0x1E5C JUMP JUMPDEST PUSH1 0x40 MLOAD DUP1 SWAP2 SUB SWAP1 RETURN JUMPDEST PUSH2 0x2BC PUSH1 0x4 DUP1 CALLDATASIZE SUB DUP2 ADD SWAP1 PUSH2 0x2B7 SWAP2 SWAP1 PUSH2 0x19B9 JUMP JUMPDEST PUSH2 0x12E3 JUMP JUMPDEST PUSH1 0x40 MLOAD PUSH2 0x2C9 SWAP2 SWAP1 PUSH2 0x1E5C JUMP JUMPDEST PUSH1 0x40 MLOAD DUP1 SWAP2 SUB SWAP1 RETURN JUMPDEST PUSH2 0x2EC PUSH1 0x4 DUP1 CALLDATASIZE SUB DUP2 ADD SWAP1 PUSH2 0x2E7 SWAP2 SWAP1 PUSH2 0x18BD JUMP JUMPDEST PUSH2 0x12F8 JUMP JUMPDEST STOP JUMPDEST PUSH1 0x0 PUSH32 0x4E2312E000000000000000000000000000000000000000000000000000000000 PUSH28 0xFFFFFFFFFFFFFFFFFFFFFFFFFFFFFFFFFFFFFFFFFFFFFFFFFFFFFFFF NOT AND DUP3 PUSH28 0xFFFFFFFFFFFFFFFFFFFFFFFFFFFFFFFFFFFFFFFFFFFFFFFFFFFFFFFF NOT AND EQ DUP1 PUSH2 0x361 JUMPI POP PUSH2 0x360 DUP3 PUSH2 0x13F0 JUMP JUMPDEST JUMPDEST SWAP1 POP SWAP2 SWAP1 POP JUMP JUMPDEST PUSH1 0x2 PUSH1 0x0 SWAP1 SLOAD SWAP1 PUSH2 0x100 EXP SWAP1 DIV PUSH20 0xFFFFFFFFFFFFFFFFFFFFFFFFFFFFFFFFFFFFFFFF AND DUP2 JUMP JUMPDEST PUSH2 0x396 PUSH2 0x145A JUMP JUMPDEST PUSH20 0xFFFFFFFFFFFFFFFFFFFFFFFFFFFFFFFFFFFFFFFF AND PUSH2 0x3B4 PUSH2 0xEAF JUMP JUMPDEST PUSH20 0xFFFFFFFFFFFFFFFFFFFFFFFFFFFFFFFFFFFFFFFF AND EQ PUSH2 0x40A JUMPI PUSH1 0x40 MLOAD PUSH32 0x8C379A000000000000000000000000000000000000000000000000000000000 DUP2 MSTORE PUSH1 0x4 ADD PUSH2 0x401 SWAP1 PUSH2 0x1F97 JUMP JUMPDEST PUSH1 0x40 MLOAD DUP1 SWAP2 SUB SWAP1 REVERT JUMPDEST DUP1 PUSH1 0x2 PUSH1 0x0 PUSH2 0x100 EXP DUP2 SLOAD DUP2 PUSH20 0xFFFFFFFFFFFFFFFFFFFFFFFFFFFFFFFFFFFFFFFF MUL NOT AND SWAP1 DUP4 PUSH20 0xFFFFFFFFFFFFFFFFFFFFFFFFFFFFFFFFFFFFFFFF AND MUL OR SWAP1 SSTORE POP POP JUMP JUMPDEST PUSH1 0x3 DUP2 DUP2 SLOAD DUP2 LT PUSH2 0x45E JUMPI PUSH1 0x0 DUP1 REVERT JUMPDEST SWAP1 PUSH1 0x0 MSTORE PUSH1 0x20 PUSH1 0x0 KECCAK256 SWAP1 PUSH1 0x7 MUL ADD PUSH1 0x0 SWAP2 POP SWAP1 POP DUP1 PUSH1 0x0 ADD SLOAD SWAP1 DUP1 PUSH1 0x1 ADD PUSH1 0x0 SWAP1 SLOAD SWAP1 PUSH2 0x100 EXP SWAP1 DIV PUSH20 0xFFFFFFFFFFFFFFFFFFFFFFFFFFFFFFFFFFFFFFFF AND SWAP1 DUP1 PUSH1 0x2 ADD SLOAD SWAP1 DUP1 PUSH1 0x3 ADD SLOAD SWAP1 DUP1 PUSH1 0x4 ADD SLOAD SWAP1 DUP1 PUSH1 0x5 ADD SLOAD SWAP1 DUP1 PUSH1 0x6 ADD PUSH1 0x0 SWAP1 SLOAD SWAP1 PUSH2 0x100 EXP SWAP1 DIV PUSH1 0xFF AND SWAP1 DUP1 PUSH1 0x6 ADD PUSH1 0x1 SWAP1 SLOAD SWAP1 PUSH2 0x100 EXP SWAP1 DIV PUSH1 0xFF AND SWAP1 POP DUP9 JUMP JUMPDEST PUSH32 0x0 DUP2 JUMP JUMPDEST PUSH2 0x50C PUSH2 0x145A JUMP JUMPDEST PUSH20 0xFFFFFFFFFFFFFFFFFFFFFFFFFFFFFFFFFFFFFFFF AND PUSH2 0x52A PUSH2 0xEAF JUMP JUMPDEST PUSH20 0xFFFFFFFFFFFFFFFFFFFFFFFFFFFFFFFFFFFFFFFF AND EQ PUSH2 0x580 JUMPI PUSH1 0x40 MLOAD PUSH32 0x8C379A000000000000000000000000000000000000000000000000000000000 DUP2 MSTORE PUSH1 0x4 ADD PUSH2 0x577 SWAP1 PUSH2 0x1F97 JUMP JUMPDEST PUSH1 0x40 MLOAD DUP1 SWAP2 SUB SWAP1 REVERT JUMPDEST PUSH2 0x588 PUSH2 0x1462 JUMP JUMPDEST JUMP JUMPDEST PUSH1 0x0 DUP1 PUSH1 0x0 SWAP1 SLOAD SWAP1 PUSH2 0x100 EXP SWAP1 DIV PUSH1 0xFF AND SWAP1 POP SWAP1 JUMP JUMPDEST PUSH2 0x5A8 PUSH2 0x145A JUMP JUMPDEST PUSH20 0xFFFFFFFFFFFFFFFFFFFFFFFFFFFFFFFFFFFFFFFF AND PUSH2 0x5C6 PUSH2 0xEAF JUMP JUMPDEST PUSH20 0xFFFFFFFFFFFFFFFFFFFFFFFFFFFFFFFFFFFFFFFF AND EQ PUSH2 0x61C JUMPI PUSH1 0x40 MLOAD PUSH32 0x8C379A000000000000000000000000000000000000000000000000000000000 DUP2 MSTORE PUSH1 0x4 ADD PUSH2 0x613 SWAP1 PUSH2 0x1F97 JUMP JUMPDEST PUSH1 0x40 MLOAD DUP1 SWAP2 SUB SWAP1 REVERT JUMPDEST PUSH2 0x626 PUSH1 0x0 PUSH2 0x1503 JUMP JUMPDEST JUMP JUMPDEST PUSH2 0x630 PUSH2 0x58A JUMP JUMPDEST ISZERO PUSH2 0x670 JUMPI PUSH1 0x40 MLOAD PUSH32 0x8C379A000000000000000000000000000000000000000000000000000000000 DUP2 MSTORE PUSH1 0x4 ADD PUSH2 0x667 SWAP1 PUSH2 0x1EF7 JUMP JUMPDEST PUSH1 0x40 MLOAD DUP1 SWAP2 SUB SWAP1 REVERT JUMPDEST PUSH1 0x2 PUSH1 0x1 SLOAD EQ ISZERO PUSH2 0x6B6 JUMPI PUSH1 0x40 MLOAD PUSH32 0x8C379A000000000000000000000000000000000000000000000000000000000 DUP2 MSTORE PUSH1 0x4 ADD PUSH2 0x6AD SWAP1 PUSH2 0x1FB7 JUMP JUMPDEST PUSH1 0x40 MLOAD DUP1 SWAP2 SUB SWAP1 REVERT JUMPDEST PUSH1 0x2 PUSH1 0x1 DUP2 SWAP1 SSTORE POP PUSH1 0x0 PUSH1 0x3 DUP3 DUP2 SLOAD DUP2 LT PUSH2 0x6D4 JUMPI PUSH2 0x6D3 PUSH2 0x238A JUMP JUMPDEST JUMPDEST SWAP1 PUSH1 0x0 MSTORE PUSH1 0x20 PUSH1 0x0 KECCAK256 SWAP1 PUSH1 0x7 MUL ADD SWAP1 POP CALLER PUSH20 0xFFFFFFFFFFFFFFFFFFFFFFFFFFFFFFFFFFFFFFFF AND DUP2 PUSH1 0x1 ADD PUSH1 0x0 SWAP1 SLOAD SWAP1 PUSH2 0x100 EXP SWAP1 DIV PUSH20 0xFFFFFFFFFFFFFFFFFFFFFFFFFFFFFFFFFFFFFFFF AND PUSH20 0xFFFFFFFFFFFFFFFFFFFFFFFFFFFFFFFFFFFFFFFF AND EQ PUSH2 0x776 JUMPI PUSH1 0x40 MLOAD PUSH32 0x8C379A000000000000000000000000000000000000000000000000000000000 DUP2 MSTORE PUSH1 0x4 ADD PUSH2 0x76D SWAP1 PUSH2 0x1ED7 JUMP JUMPDEST PUSH1 0x40 MLOAD DUP1 SWAP2 SUB SWAP1 REVERT JUMPDEST DUP1 PUSH1 0x6 ADD PUSH1 0x0 SWAP1 SLOAD SWAP1 PUSH2 0x100 EXP SWAP1 DIV PUSH1 0xFF AND PUSH2 0x7C7 JUMPI PUSH1 0x40 MLOAD PUSH32 0x8C379A000000000000000000000000000000000000000000000000000000000 DUP2 MSTORE PUSH1 0x4 ADD PUSH2 0x7BE SWAP1 PUSH2 0x1F17 JUMP JUMPDEST PUSH1 0x40 MLOAD DUP1 SWAP2 SUB SWAP1 REVERT JUMPDEST DUP1 PUSH1 0x6 ADD PUSH1 0x1 SWAP1 SLOAD SWAP1 PUSH2 0x100 EXP SWAP1 DIV PUSH1 0xFF AND ISZERO PUSH2 0x819 JUMPI PUSH1 0x40 MLOAD PUSH32 0x8C379A000000000000000000000000000000000000000000000000000000000 DUP2 MSTORE PUSH1 0x4 ADD PUSH2 0x810 SWAP1 PUSH2 0x1F37 JUMP JUMPDEST PUSH1 0x40 MLOAD DUP1 SWAP2 SUB SWAP1 REVERT JUMPDEST PUSH1 0x0 DUP2 PUSH1 0x2 ADD SLOAD SWAP1 POP PUSH1 0x0 DUP3 PUSH1 0x6 ADD PUSH1 0x0 PUSH2 0x100 EXP DUP2 SLOAD DUP2 PUSH1 0xFF MUL NOT AND SWAP1 DUP4 ISZERO ISZERO MUL OR SWAP1 SSTORE POP PUSH32 0x0 PUSH20 0xFFFFFFFFFFFFFFFFFFFFFFFFFFFFFFFFFFFFFFFF AND PUSH4 0xF242432A ADDRESS CALLER DUP5 DUP7 PUSH1 0x3 ADD SLOAD PUSH1 0x40 MLOAD DUP6 PUSH4 0xFFFFFFFF AND PUSH1 0xE0 SHL DUP2 MSTORE PUSH1 0x4 ADD PUSH2 0x8A2 SWAP5 SWAP4 SWAP3 SWAP2 SWAP1 PUSH2 0x1D97 JUMP JUMPDEST PUSH1 0x0 PUSH1 0x40 MLOAD DUP1 DUP4 SUB DUP2 PUSH1 0x0 DUP8 DUP1 EXTCODESIZE ISZERO DUP1 ISZERO PUSH2 0x8BC JUMPI PUSH1 0x0 DUP1 REVERT JUMPDEST POP GAS CALL ISZERO DUP1 ISZERO PUSH2 0x8D0 JUMPI RETURNDATASIZE PUSH1 0x0 DUP1 RETURNDATACOPY RETURNDATASIZE PUSH1 0x0 REVERT JUMPDEST POP POP POP POP PUSH32 0x1266933E3DEE32241CAC867CB9BF2C3CEBDB58CC6BE3DBBA08776FC4693497FA DUP4 TIMESTAMP PUSH1 0x40 MLOAD PUSH2 0x905 SWAP3 SWAP2 SWAP1 PUSH2 0x2070 JUMP JUMPDEST PUSH1 0x40 MLOAD DUP1 SWAP2 SUB SWAP1 LOG1 POP POP PUSH1 0x1 DUP1 DUP2 SWAP1 SSTORE POP POP JUMP JUMPDEST PUSH2 0x921 PUSH2 0x58A JUMP JUMPDEST ISZERO PUSH2 0x961 JUMPI PUSH1 0x40 MLOAD PUSH32 0x8C379A000000000000000000000000000000000000000000000000000000000 DUP2 MSTORE PUSH1 0x4 ADD PUSH2 0x958 SWAP1 PUSH2 0x1EF7 JUMP JUMPDEST PUSH1 0x40 MLOAD DUP1 SWAP2 SUB SWAP1 REVERT JUMPDEST PUSH1 0x2 PUSH1 0x1 SLOAD EQ ISZERO PUSH2 0x9A7 JUMPI PUSH1 0x40 MLOAD PUSH32 0x8C379A000000000000000000000000000000000000000000000000000000000 DUP2 MSTORE PUSH1 0x4 ADD PUSH2 0x99E SWAP1 PUSH2 0x1FB7 JUMP JUMPDEST PUSH1 0x40 MLOAD DUP1 SWAP2 SUB SWAP1 REVERT JUMPDEST PUSH1 0x2 PUSH1 0x1 DUP2 SWAP1 SSTORE POP PUSH1 0x0 DUP2 GT PUSH2 0x9F2 JUMPI PUSH1 0x40 MLOAD PUSH32 0x8C379A000000000000000000000000000000000000000000000000000000000 DUP2 MSTORE PUSH1 0x4 ADD PUSH2 0x9E9 SWAP1 PUSH2 0x1F77 JUMP JUMPDEST PUSH1 0x40 MLOAD DUP1 SWAP2 SUB SWAP1 REVERT JUMPDEST DUP1 PUSH32 0x0 PUSH20 0xFFFFFFFFFFFFFFFFFFFFFFFFFFFFFFFFFFFFFFFF AND PUSH3 0xFDD58E CALLER DUP6 PUSH1 0x40 MLOAD DUP4 PUSH4 0xFFFFFFFF AND PUSH1 0xE0 SHL DUP2 MSTORE PUSH1 0x4 ADD PUSH2 0xA4D SWAP3 SWAP2 SWAP1 PUSH2 0x1DEF JUMP JUMPDEST PUSH1 0x20 PUSH1 0x40 MLOAD DUP1 DUP4 SUB DUP2 DUP7 DUP1 EXTCODESIZE ISZERO DUP1 ISZERO PUSH2 0xA65 JUMPI PUSH1 0x0 DUP1 REVERT JUMPDEST POP GAS STATICCALL ISZERO DUP1 ISZERO PUSH2 0xA79 JUMPI RETURNDATASIZE PUSH1 0x0 DUP1 RETURNDATACOPY RETURNDATASIZE PUSH1 0x0 REVERT JUMPDEST POP POP POP POP PUSH1 0x40 MLOAD RETURNDATASIZE PUSH1 0x1F NOT PUSH1 0x1F DUP3 ADD AND DUP3 ADD DUP1 PUSH1 0x40 MSTORE POP DUP2 ADD SWAP1 PUSH2 0xA9D SWAP2 SWAP1 PUSH2 0x1B20 JUMP JUMPDEST LT ISZERO PUSH2 0xADE JUMPI PUSH1 0x40 MLOAD PUSH32 0x8C379A000000000000000000000000000000000000000000000000000000000 DUP2 MSTORE PUSH1 0x4 ADD PUSH2 0xAD5 SWAP1 PUSH2 0x1EB7 JUMP JUMPDEST PUSH1 0x40 MLOAD DUP1 SWAP2 SUB SWAP1 REVERT JUMPDEST PUSH1 0x0 PUSH1 0x3 DUP1 SLOAD SWAP1 POP SWAP1 POP PUSH1 0x0 PUSH1 0x40 MLOAD DUP1 PUSH2 0x100 ADD PUSH1 0x40 MSTORE DUP1 DUP4 DUP2 MSTORE PUSH1 0x20 ADD CALLER PUSH20 0xFFFFFFFFFFFFFFFFFFFFFFFFFFFFFFFFFFFFFFFF AND DUP2 MSTORE PUSH1 0x20 ADD DUP6 DUP2 MSTORE PUSH1 0x20 ADD DUP5 DUP2 MSTORE PUSH1 0x20 ADD TIMESTAMP DUP2 MSTORE PUSH1 0x20 ADD PUSH1 0x0 DUP2 MSTORE PUSH1 0x20 ADD PUSH1 0x1 ISZERO ISZERO DUP2 MSTORE PUSH1 0x20 ADD PUSH1 0x0 ISZERO ISZERO DUP2 MSTORE POP SWAP1 POP PUSH1 0x0 PUSH32 0x0 PUSH20 0xFFFFFFFFFFFFFFFFFFFFFFFFFFFFFFFFFFFFFFFF AND PUSH4 0xD188929F DUP7 PUSH1 0x40 MLOAD DUP3 PUSH4 0xFFFFFFFF AND PUSH1 0xE0 SHL DUP2 MSTORE PUSH1 0x4 ADD PUSH2 0xB9E SWAP2 SWAP1 PUSH2 0x1FD7 JUMP JUMPDEST PUSH1 0x0 PUSH1 0x40 MLOAD DUP1 DUP4 SUB DUP2 PUSH1 0x0 DUP8 DUP1 EXTCODESIZE ISZERO DUP1 ISZERO PUSH2 0xBB8 JUMPI PUSH1 0x0 DUP1 REVERT JUMPDEST POP GAS CALL ISZERO DUP1 ISZERO PUSH2 0xBCC JUMPI RETURNDATASIZE PUSH1 0x0 DUP1 RETURNDATACOPY RETURNDATASIZE PUSH1 0x0 REVERT JUMPDEST POP POP POP POP PUSH1 0x40 MLOAD RETURNDATASIZE PUSH1 0x0 DUP3 RETURNDATACOPY RETURNDATASIZE PUSH1 0x1F NOT PUSH1 0x1F DUP3 ADD AND DUP3 ADD DUP1 PUSH1 0x40 MSTORE POP DUP2 ADD SWAP1 PUSH2 0xBF5 SWAP2 SWAP1 PUSH2 0x1AAA JUMP JUMPDEST SWAP1 POP DUP1 PUSH1 0x20 ADD MLOAD ISZERO PUSH2 0xC65 JUMPI PUSH1 0x1 DUP3 PUSH1 0xC0 ADD SWAP1 ISZERO ISZERO SWAP1 DUP2 ISZERO ISZERO DUP2 MSTORE POP POP PUSH32 0xD1A0D31F113BBEFF7C2B156D2FABBD5040C8FF539CAD8A91F885EED034B46969 PUSH1 0x1 DUP5 PUSH2 0xC40 SWAP2 SWAP1 PUSH2 0x2214 JUMP JUMPDEST DUP7 DUP7 TIMESTAMP CALLER PUSH1 0x1 PUSH1 0x40 MLOAD PUSH2 0xC58 SWAP7 SWAP6 SWAP5 SWAP4 SWAP3 SWAP2 SWAP1 PUSH2 0x20DE JUMP JUMPDEST PUSH1 0x40 MLOAD DUP1 SWAP2 SUB SWAP1 LOG1 PUSH2 0xCA3 JUMP JUMPDEST PUSH32 0x93A77958910A2B2FBDCD52BC45515C806C95A2D920DE899C7ACCAD9B82E16917 DUP6 DUP6 TIMESTAMP CALLER PUSH1 0x40 MLOAD PUSH2 0xC9A SWAP5 SWAP4 SWAP3 SWAP2 SWAP1 PUSH2 0x2099 JUMP JUMPDEST PUSH1 0x40 MLOAD DUP1 SWAP2 SUB SWAP1 LOG1 JUMPDEST PUSH1 0x3 DUP3 SWAP1 DUP1 PUSH1 0x1 DUP2 SLOAD ADD DUP1 DUP3 SSTORE DUP1 SWAP2 POP POP PUSH1 0x1 SWAP1 SUB SWAP1 PUSH1 0x0 MSTORE PUSH1 0x20 PUSH1 0x0 KECCAK256 SWAP1 PUSH1 0x7 MUL ADD PUSH1 0x0 SWAP1 SWAP2 SWAP1 SWAP2 SWAP1 SWAP2 POP PUSH1 0x0 DUP3 ADD MLOAD DUP2 PUSH1 0x0 ADD SSTORE PUSH1 0x20 DUP3 ADD MLOAD DUP2 PUSH1 0x1 ADD PUSH1 0x0 PUSH2 0x100 EXP DUP2 SLOAD DUP2 PUSH20 0xFFFFFFFFFFFFFFFFFFFFFFFFFFFFFFFFFFFFFFFF MUL NOT AND SWAP1 DUP4 PUSH20 0xFFFFFFFFFFFFFFFFFFFFFFFFFFFFFFFFFFFFFFFF AND MUL OR SWAP1 SSTORE POP PUSH1 0x40 DUP3 ADD MLOAD DUP2 PUSH1 0x2 ADD SSTORE PUSH1 0x60 DUP3 ADD MLOAD DUP2 PUSH1 0x3 ADD SSTORE PUSH1 0x80 DUP3 ADD MLOAD DUP2 PUSH1 0x4 ADD SSTORE PUSH1 0xA0 DUP3 ADD MLOAD DUP2 PUSH1 0x5 ADD SSTORE PUSH1 0xC0 DUP3 ADD MLOAD DUP2 PUSH1 0x6 ADD PUSH1 0x0 PUSH2 0x100 EXP DUP2 SLOAD DUP2 PUSH1 0xFF MUL NOT AND SWAP1 DUP4 ISZERO ISZERO MUL OR SWAP1 SSTORE POP PUSH1 0xE0 DUP3 ADD MLOAD DUP2 PUSH1 0x6 ADD PUSH1 0x1 PUSH2 0x100 EXP DUP2 SLOAD DUP2 PUSH1 0xFF MUL NOT AND SWAP1 DUP4 ISZERO ISZERO MUL OR SWAP1 SSTORE POP POP POP PUSH32 0x0 PUSH20 0xFFFFFFFFFFFFFFFFFFFFFFFFFFFFFFFFFFFFFFFF AND PUSH4 0xF242432A CALLER ADDRESS DUP9 DUP9 PUSH1 0x40 MLOAD DUP6 PUSH4 0xFFFFFFFF AND PUSH1 0xE0 SHL DUP2 MSTORE PUSH1 0x4 ADD PUSH2 0xDE9 SWAP5 SWAP4 SWAP3 SWAP2 SWAP1 PUSH2 0x1D97 JUMP JUMPDEST PUSH1 0x0 PUSH1 0x40 MLOAD DUP1 DUP4 SUB DUP2 PUSH1 0x0 DUP8 DUP1 EXTCODESIZE ISZERO DUP1 ISZERO PUSH2 0xE03 JUMPI PUSH1 0x0 DUP1 REVERT JUMPDEST POP GAS CALL ISZERO DUP1 ISZERO PUSH2 0xE17 JUMPI RETURNDATASIZE PUSH1 0x0 DUP1 RETURNDATACOPY RETURNDATASIZE PUSH1 0x0 REVERT JUMPDEST POP POP POP POP POP POP POP PUSH1 0x1 DUP1 DUP2 SWAP1 SSTORE POP POP POP JUMP JUMPDEST PUSH2 0xE31 PUSH2 0x145A JUMP JUMPDEST PUSH20 0xFFFFFFFFFFFFFFFFFFFFFFFFFFFFFFFFFFFFFFFF AND PUSH2 0xE4F PUSH2 0xEAF JUMP JUMPDEST PUSH20 0xFFFFFFFFFFFFFFFFFFFFFFFFFFFFFFFFFFFFFFFF AND EQ PUSH2 0xEA5 JUMPI PUSH1 0x40 MLOAD PUSH32 0x8C379A000000000000000000000000000000000000000000000000000000000 DUP2 MSTORE PUSH1 0x4 ADD PUSH2 0xE9C SWAP1 PUSH2 0x1F97 JUMP JUMPDEST PUSH1 0x40 MLOAD DUP1 SWAP2 SUB SWAP1 REVERT JUMPDEST PUSH2 0xEAD PUSH2 0x15C8 JUMP JUMPDEST JUMP JUMPDEST PUSH1 0x0 DUP1 PUSH1 0x1 SWAP1 SLOAD SWAP1 PUSH2 0x100 EXP SWAP1 DIV PUSH20 0xFFFFFFFFFFFFFFFFFFFFFFFFFFFFFFFFFFFFFFFF AND SWAP1 POP SWAP1 JUMP JUMPDEST PUSH1 0x2 PUSH1 0x0 SWAP1 SLOAD SWAP1 PUSH2 0x100 EXP SWAP1 DIV PUSH20 0xFFFFFFFFFFFFFFFFFFFFFFFFFFFFFFFFFFFFFFFF AND PUSH20 0xFFFFFFFFFFFFFFFFFFFFFFFFFFFFFFFFFFFFFFFF AND PUSH4 0x91D14854 PUSH32 0xDF8B4C520FFE197C5343C6F5AEC59570151EF9A492F2C624FD45DDDE6135EC42 CALLER PUSH1 0x40 MLOAD DUP4 PUSH4 0xFFFFFFFF AND PUSH1 0xE0 SHL DUP2 MSTORE PUSH1 0x4 ADD PUSH2 0xF55 SWAP3 SWAP2 SWAP1 PUSH2 0x1E33 JUMP JUMPDEST PUSH1 0x20 PUSH1 0x40 MLOAD DUP1 DUP4 SUB DUP2 DUP7 DUP1 EXTCODESIZE ISZERO DUP1 ISZERO PUSH2 0xF6D JUMPI PUSH1 0x0 DUP1 REVERT JUMPDEST POP GAS STATICCALL ISZERO DUP1 ISZERO PUSH2 0xF81 JUMPI RETURNDATASIZE PUSH1 0x0 DUP1 RETURNDATACOPY RETURNDATASIZE PUSH1 0x0 REVERT JUMPDEST POP POP POP POP PUSH1 0x40 MLOAD RETURNDATASIZE PUSH1 0x1F NOT PUSH1 0x1F DUP3 ADD AND DUP3 ADD DUP1 PUSH1 0x40 MSTORE POP DUP2 ADD SWAP1 PUSH2 0xFA5 SWAP2 SWAP1 PUSH2 0x1A50 JUMP JUMPDEST PUSH2 0xFE4 JUMPI PUSH1 0x40 MLOAD PUSH32 0x8C379A000000000000000000000000000000000000000000000000000000000 DUP2 MSTORE PUSH1 0x4 ADD PUSH2 0xFDB SWAP1 PUSH2 0x1F57 JUMP JUMPDEST PUSH1 0x40 MLOAD DUP1 SWAP2 SUB SWAP1 REVERT JUMPDEST PUSH2 0xFEC PUSH2 0x58A JUMP JUMPDEST ISZERO PUSH2 0x102C JUMPI PUSH1 0x40 MLOAD PUSH32 0x8C379A000000000000000000000000000000000000000000000000000000000 DUP2 MSTORE PUSH1 0x4 ADD PUSH2 0x1023 SWAP1 PUSH2 0x1EF7 JUMP JUMPDEST PUSH1 0x40 MLOAD DUP1 SWAP2 SUB SWAP1 REVERT JUMPDEST PUSH1 0x2 PUSH1 0x1 SLOAD EQ ISZERO PUSH2 0x1072 JUMPI PUSH1 0x40 MLOAD PUSH32 0x8C379A000000000000000000000000000000000000000000000000000000000 DUP2 MSTORE PUSH1 0x4 ADD PUSH2 0x1069 SWAP1 PUSH2 0x1FB7 JUMP JUMPDEST PUSH1 0x40 MLOAD DUP1 SWAP2 SUB SWAP1 REVERT JUMPDEST PUSH1 0x2 PUSH1 0x1 DUP2 SWAP1 SSTORE POP PUSH1 0x0 PUSH1 0x3 DUP3 DUP2 SLOAD DUP2 LT PUSH2 0x1090 JUMPI PUSH2 0x108F PUSH2 0x238A JUMP JUMPDEST JUMPDEST SWAP1 PUSH1 0x0 MSTORE PUSH1 0x20 PUSH1 0x0 KECCAK256 SWAP1 PUSH1 0x7 MUL ADD SWAP1 POP DUP1 PUSH1 0x6 ADD PUSH1 0x0 SWAP1 SLOAD SWAP1 PUSH2 0x100 EXP SWAP1 DIV PUSH1 0xFF AND PUSH2 0x10F1 JUMPI PUSH1 0x40 MLOAD PUSH32 0x8C379A000000000000000000000000000000000000000000000000000000000 DUP2 MSTORE PUSH1 0x4 ADD PUSH2 0x10E8 SWAP1 PUSH2 0x1F17 JUMP JUMPDEST PUSH1 0x40 MLOAD DUP1 SWAP2 SUB SWAP1 REVERT JUMPDEST DUP1 PUSH1 0x6 ADD PUSH1 0x1 SWAP1 SLOAD SWAP1 PUSH2 0x100 EXP SWAP1 DIV PUSH1 0xFF AND PUSH2 0x1142 JUMPI PUSH1 0x40 MLOAD PUSH32 0x8C379A000000000000000000000000000000000000000000000000000000000 DUP2 MSTORE PUSH1 0x4 ADD PUSH2 0x1139 SWAP1 PUSH2 0x1F37 JUMP JUMPDEST PUSH1 0x40 MLOAD DUP1 SWAP2 SUB SWAP1 REVERT JUMPDEST PUSH1 0x0 DUP2 PUSH1 0x2 ADD SLOAD SWAP1 POP PUSH1 0x1 DUP3 PUSH1 0x6 ADD PUSH1 0x1 PUSH2 0x100 EXP DUP2 SLOAD DUP2 PUSH1 0xFF MUL NOT AND SWAP1 DUP4 ISZERO ISZERO MUL OR SWAP1 SSTORE POP TIMESTAMP DUP3 PUSH1 0x5 ADD DUP2 SWAP1 SSTORE POP PUSH1 0x0 PUSH32 0x0 PUSH20 0xFFFFFFFFFFFFFFFFFFFFFFFFFFFFFFFFFFFFFFFF AND PUSH4 0xD188929F DUP4 PUSH1 0x40 MLOAD DUP3 PUSH4 0xFFFFFFFF AND PUSH1 0xE0 SHL DUP2 MSTORE PUSH1 0x4 ADD PUSH2 0x11CC SWAP2 SWAP1 PUSH2 0x1FD7 JUMP JUMPDEST PUSH1 0x0 PUSH1 0x40 MLOAD DUP1 DUP4 SUB DUP2 PUSH1 0x0 DUP8 DUP1 EXTCODESIZE ISZERO DUP1 ISZERO PUSH2 0x11E6 JUMPI PUSH1 0x0 DUP1 REVERT JUMPDEST POP GAS CALL ISZERO DUP1 ISZERO PUSH2 0x11FA JUMPI RETURNDATASIZE PUSH1 0x0 DUP1 RETURNDATACOPY RETURNDATASIZE PUSH1 0x0 REVERT JUMPDEST POP POP POP POP PUSH1 0x40 MLOAD RETURNDATASIZE PUSH1 0x0 DUP3 RETURNDATACOPY RETURNDATASIZE PUSH1 0x1F NOT PUSH1 0x1F DUP3 ADD AND DUP3 ADD DUP1 PUSH1 0x40 MSTORE POP DUP2 ADD SWAP1 PUSH2 0x1223 SWAP2 SWAP1 PUSH2 0x1AAA JUMP JUMPDEST SWAP1 POP DUP1 PUSH1 0x20 ADD MLOAD ISZERO PUSH2 0x127A JUMPI PUSH32 0xD1A0D31F113BBEFF7C2B156D2FABBD5040C8FF539CAD8A91F885EED034B46969 DUP5 DUP4 DUP6 PUSH1 0x3 ADD SLOAD TIMESTAMP CALLER PUSH1 0x1 PUSH1 0x40 MLOAD PUSH2 0x126D SWAP7 SWAP6 SWAP5 SWAP4 SWAP3 SWAP2 SWAP1 PUSH2 0x20DE JUMP JUMPDEST PUSH1 0x40 MLOAD DUP1 SWAP2 SUB SWAP1 LOG1 PUSH2 0x12C1 JUMP JUMPDEST PUSH32 0xD1A0D31F113BBEFF7C2B156D2FABBD5040C8FF539CAD8A91F885EED034B46969 DUP5 DUP4 DUP6 PUSH1 0x3 ADD SLOAD TIMESTAMP CALLER PUSH1 0x0 PUSH1 0x40 MLOAD PUSH2 0x12B8 SWAP7 SWAP6 SWAP5 SWAP4 SWAP3 SWAP2 SWAP1 PUSH2 0x20DE JUMP JUMPDEST PUSH1 0x40 MLOAD DUP1 SWAP2 SUB SWAP1 LOG1 JUMPDEST POP POP POP PUSH1 0x1 DUP1 DUP2 SWAP1 SSTORE POP POP JUMP JUMPDEST PUSH1 0x0 PUSH4 0xBC197C81 PUSH1 0xE0 SHL SWAP1 POP SWAP6 SWAP5 POP POP POP POP POP JUMP JUMPDEST PUSH1 0x0 PUSH4 0xF23A6E61 PUSH1 0xE0 SHL SWAP1 POP SWAP6 SWAP5 POP POP POP POP POP JUMP JUMPDEST PUSH2 0x1300 PUSH2 0x145A JUMP JUMPDEST PUSH20 0xFFFFFFFFFFFFFFFFFFFFFFFFFFFFFFFFFFFFFFFF AND PUSH2 0x131E PUSH2 0xEAF JUMP JUMPDEST PUSH20 0xFFFFFFFFFFFFFFFFFFFFFFFFFFFFFFFFFFFFFFFF AND EQ PUSH2 0x1374 JUMPI PUSH1 0x40 MLOAD PUSH32 0x8C379A000000000000000000000000000000000000000000000000000000000 DUP2 MSTORE PUSH1 0x4 ADD PUSH2 0x136B SWAP1 PUSH2 0x1F97 JUMP JUMPDEST PUSH1 0x40 MLOAD DUP1 SWAP2 SUB SWAP1 REVERT JUMPDEST PUSH1 0x0 PUSH20 0xFFFFFFFFFFFFFFFFFFFFFFFFFFFFFFFFFFFFFFFF AND DUP2 PUSH20 0xFFFFFFFFFFFFFFFFFFFFFFFFFFFFFFFFFFFFFFFF AND EQ ISZERO PUSH2 0x13E4 JUMPI PUSH1 0x40 MLOAD PUSH32 0x8C379A000000000000000000000000000000000000000000000000000000000 DUP2 MSTORE PUSH1 0x4 ADD PUSH2 0x13DB SWAP1 PUSH2 0x1E97 JUMP JUMPDEST PUSH1 0x40 MLOAD DUP1 SWAP2 SUB SWAP1 REVERT JUMPDEST PUSH2 0x13ED DUP2 PUSH2 0x1503 JUMP JUMPDEST POP JUMP JUMPDEST PUSH1 0x0 PUSH32 0x1FFC9A700000000000000000000000000000000000000000000000000000000 PUSH28 0xFFFFFFFFFFFFFFFFFFFFFFFFFFFFFFFFFFFFFFFFFFFFFFFFFFFFFFFF NOT AND DUP3 PUSH28 0xFFFFFFFFFFFFFFFFFFFFFFFFFFFFFFFFFFFFFFFFFFFFFFFFFFFFFFFF NOT AND EQ SWAP1 POP SWAP2 SWAP1 POP JUMP JUMPDEST PUSH1 0x0 CALLER SWAP1 POP SWAP1 JUMP JUMPDEST PUSH2 0x146A PUSH2 0x58A JUMP JUMPDEST PUSH2 0x14A9 JUMPI PUSH1 0x40 MLOAD PUSH32 0x8C379A000000000000000000000000000000000000000000000000000000000 DUP2 MSTORE PUSH1 0x4 ADD PUSH2 0x14A0 SWAP1 PUSH2 0x1E77 JUMP JUMPDEST PUSH1 0x40 MLOAD DUP1 SWAP2 SUB SWAP1 REVERT JUMPDEST PUSH1 0x0 DUP1 PUSH1 0x0 PUSH2 0x100 EXP DUP2 SLOAD DUP2 PUSH1 0xFF MUL NOT AND SWAP1 DUP4 ISZERO ISZERO MUL OR SWAP1 SSTORE POP PUSH32 0x5DB9EE0A495BF2E6FF9C91A7834C1BA4FDD244A5E8AA4E537BD38AEAE4B073AA PUSH2 0x14EC PUSH2 0x145A JUMP JUMPDEST PUSH1 0x40 MLOAD PUSH2 0x14F9 SWAP2 SWAP1 PUSH2 0x1D7C JUMP JUMPDEST PUSH1 0x40 MLOAD DUP1 SWAP2 SUB SWAP1 LOG1 JUMP JUMPDEST PUSH1 0x0 DUP1 PUSH1 0x1 SWAP1 SLOAD SWAP1 PUSH2 0x100 EXP SWAP1 DIV PUSH20 0xFFFFFFFFFFFFFFFFFFFFFFFFFFFFFFFFFFFFFFFF AND SWAP1 POP DUP2 PUSH1 0x0 PUSH1 0x1 PUSH2 0x100 EXP DUP2 SLOAD DUP2 PUSH20 0xFFFFFFFFFFFFFFFFFFFFFFFFFFFFFFFFFFFFFFFF MUL NOT AND SWAP1 DUP4 PUSH20 0xFFFFFFFFFFFFFFFFFFFFFFFFFFFFFFFFFFFFFFFF AND MUL OR SWAP1 SSTORE POP DUP2 PUSH20 0xFFFFFFFFFFFFFFFFFFFFFFFFFFFFFFFFFFFFFFFF AND DUP2 PUSH20 0xFFFFFFFFFFFFFFFFFFFFFFFFFFFFFFFFFFFFFFFF AND PUSH32 0x8BE0079C531659141344CD1FD0A4F28419497F9722A3DAAFE3B4186F6B6457E0 PUSH1 0x40 MLOAD PUSH1 0x40 MLOAD DUP1 SWAP2 SUB SWAP1 LOG3 POP POP JUMP JUMPDEST PUSH2 0x15D0 PUSH2 0x58A JUMP JUMPDEST ISZERO PUSH2 0x1610 JUMPI PUSH1 0x40 MLOAD PUSH32 0x8C379A000000000000000000000000000000000000000000000000000000000 DUP2 MSTORE PUSH1 0x4 ADD PUSH2 0x1607 SWAP1 PUSH2 0x1EF7 JUMP JUMPDEST PUSH1 0x40 MLOAD DUP1 SWAP2 SUB SWAP1 REVERT JUMPDEST PUSH1 0x1 PUSH1 0x0 DUP1 PUSH2 0x100 EXP DUP2 SLOAD DUP2 PUSH1 0xFF MUL NOT AND SWAP1 DUP4 ISZERO ISZERO MUL OR SWAP1 SSTORE POP PUSH32 0x62E78CEA01BEE320CD4E420270B5EA74000D11B0C9F74754EBDBFC544B05A258 PUSH2 0x1653 PUSH2 0x145A JUMP JUMPDEST PUSH1 0x40 MLOAD PUSH2 0x1660 SWAP2 SWAP1 PUSH2 0x1D7C JUMP JUMPDEST PUSH1 0x40 MLOAD DUP1 SWAP2 SUB SWAP1 LOG1 JUMP JUMPDEST PUSH1 0x0 PUSH2 0x167D PUSH2 0x1678 DUP5 PUSH2 0x2164 JUMP JUMPDEST PUSH2 0x213F JUMP JUMPDEST SWAP1 POP DUP1 DUP4 DUP3 MSTORE PUSH1 0x20 DUP3 ADD SWAP1 POP DUP3 DUP6 PUSH1 0x20 DUP7 MUL DUP3 ADD GT ISZERO PUSH2 0x16A0 JUMPI PUSH2 0x169F PUSH2 0x23F7 JUMP JUMPDEST JUMPDEST PUSH1 0x0 JUMPDEST DUP6 DUP2 LT ISZERO PUSH2 0x16D0 JUMPI DUP2 PUSH2 0x16B6 DUP9 DUP3 PUSH2 0x1893 JUMP JUMPDEST DUP5 MSTORE PUSH1 0x20 DUP5 ADD SWAP4 POP PUSH1 0x20 DUP4 ADD SWAP3 POP POP PUSH1 0x1 DUP2 ADD SWAP1 POP PUSH2 0x16A3 JUMP JUMPDEST POP POP POP SWAP4 SWAP3 POP POP POP JUMP JUMPDEST PUSH1 0x0 PUSH2 0x16ED PUSH2 0x16E8 DUP5 PUSH2 0x2190 JUMP JUMPDEST PUSH2 0x213F JUMP JUMPDEST SWAP1 POP DUP3 DUP2 MSTORE PUSH1 0x20 DUP2 ADD DUP5 DUP5 DUP5 ADD GT ISZERO PUSH2 0x1709 JUMPI PUSH2 0x1708 PUSH2 0x23FC JUMP JUMPDEST JUMPDEST PUSH2 0x1714 DUP5 DUP3 DUP6 PUSH2 0x22E8 JUMP JUMPDEST POP SWAP4 SWAP3 POP POP POP JUMP JUMPDEST PUSH1 0x0 PUSH2 0x172F PUSH2 0x172A DUP5 PUSH2 0x21C1 JUMP JUMPDEST PUSH2 0x213F JUMP JUMPDEST SWAP1 POP DUP3 DUP2 MSTORE PUSH1 0x20 DUP2 ADD DUP5 DUP5 DUP5 ADD GT ISZERO PUSH2 0x174B JUMPI PUSH2 0x174A PUSH2 0x23FC JUMP JUMPDEST JUMPDEST PUSH2 0x1756 DUP5 DUP3 DUP6 PUSH2 0x22F7 JUMP JUMPDEST POP SWAP4 SWAP3 POP POP POP JUMP JUMPDEST PUSH1 0x0 DUP2 CALLDATALOAD SWAP1 POP PUSH2 0x176D DUP2 PUSH2 0x26A0 JUMP JUMPDEST SWAP3 SWAP2 POP POP JUMP JUMPDEST PUSH1 0x0 DUP3 PUSH1 0x1F DUP4 ADD SLT PUSH2 0x1788 JUMPI PUSH2 0x1787 PUSH2 0x23E8 JUMP JUMPDEST JUMPDEST DUP2 CALLDATALOAD PUSH2 0x1798 DUP5 DUP3 PUSH1 0x20 DUP7 ADD PUSH2 0x166A JUMP JUMPDEST SWAP2 POP POP SWAP3 SWAP2 POP POP JUMP JUMPDEST PUSH1 0x0 DUP2 MLOAD SWAP1 POP PUSH2 0x17B0 DUP2 PUSH2 0x26B7 JUMP JUMPDEST SWAP3 SWAP2 POP POP JUMP JUMPDEST PUSH1 0x0 DUP2 CALLDATALOAD SWAP1 POP PUSH2 0x17C5 DUP2 PUSH2 0x26CE JUMP JUMPDEST SWAP3 SWAP2 POP POP JUMP JUMPDEST PUSH1 0x0 DUP3 PUSH1 0x1F DUP4 ADD SLT PUSH2 0x17E0 JUMPI PUSH2 0x17DF PUSH2 0x23E8 JUMP JUMPDEST JUMPDEST DUP2 CALLDATALOAD PUSH2 0x17F0 DUP5 DUP3 PUSH1 0x20 DUP7 ADD PUSH2 0x16DA JUMP JUMPDEST SWAP2 POP POP SWAP3 SWAP2 POP POP JUMP JUMPDEST PUSH1 0x0 DUP3 PUSH1 0x1F DUP4 ADD SLT PUSH2 0x180E JUMPI PUSH2 0x180D PUSH2 0x23E8 JUMP JUMPDEST JUMPDEST DUP2 MLOAD PUSH2 0x181E DUP5 DUP3 PUSH1 0x20 DUP7 ADD PUSH2 0x171C JUMP JUMPDEST SWAP2 POP POP SWAP3 SWAP2 POP POP JUMP JUMPDEST PUSH1 0x0 PUSH1 0x40 DUP3 DUP5 SUB SLT ISZERO PUSH2 0x183D JUMPI PUSH2 0x183C PUSH2 0x23ED JUMP JUMPDEST JUMPDEST PUSH2 0x1847 PUSH1 0x40 PUSH2 0x213F JUMP JUMPDEST SWAP1 POP PUSH1 0x0 DUP3 ADD MLOAD PUSH8 0xFFFFFFFFFFFFFFFF DUP2 GT ISZERO PUSH2 0x1867 JUMPI PUSH2 0x1866 PUSH2 0x23F2 JUMP JUMPDEST JUMPDEST PUSH2 0x1873 DUP5 DUP3 DUP6 ADD PUSH2 0x17F9 JUMP JUMPDEST PUSH1 0x0 DUP4 ADD MSTORE POP PUSH1 0x20 PUSH2 0x1887 DUP5 DUP3 DUP6 ADD PUSH2 0x17A1 JUMP JUMPDEST PUSH1 0x20 DUP4 ADD MSTORE POP SWAP3 SWAP2 POP POP JUMP JUMPDEST PUSH1 0x0 DUP2 CALLDATALOAD SWAP1 POP PUSH2 0x18A2 DUP2 PUSH2 0x26E5 JUMP JUMPDEST SWAP3 SWAP2 POP POP JUMP JUMPDEST PUSH1 0x0 DUP2 MLOAD SWAP1 POP PUSH2 0x18B7 DUP2 PUSH2 0x26E5 JUMP JUMPDEST SWAP3 SWAP2 POP POP JUMP JUMPDEST PUSH1 0x0 PUSH1 0x20 DUP3 DUP5 SUB SLT ISZERO PUSH2 0x18D3 JUMPI PUSH2 0x18D2 PUSH2 0x2406 JUMP JUMPDEST JUMPDEST PUSH1 0x0 PUSH2 0x18E1 DUP5 DUP3 DUP6 ADD PUSH2 0x175E JUMP JUMPDEST SWAP2 POP POP SWAP3 SWAP2 POP POP JUMP JUMPDEST PUSH1 0x0 DUP1 PUSH1 0x0 DUP1 PUSH1 0x0 PUSH1 0xA0 DUP7 DUP9 SUB SLT ISZERO PUSH2 0x1906 JUMPI PUSH2 0x1905 PUSH2 0x2406 JUMP JUMPDEST JUMPDEST PUSH1 0x0 PUSH2 0x1914 DUP9 DUP3 DUP10 ADD PUSH2 0x175E JUMP JUMPDEST SWAP6 POP POP PUSH1 0x20 PUSH2 0x1925 DUP9 DUP3 DUP10 ADD PUSH2 0x175E JUMP JUMPDEST SWAP5 POP POP PUSH1 0x40 DUP7 ADD CALLDATALOAD PUSH8 0xFFFFFFFFFFFFFFFF DUP2 GT ISZERO PUSH2 0x1946 JUMPI PUSH2 0x1945 PUSH2 0x2401 JUMP JUMPDEST JUMPDEST PUSH2 0x1952 DUP9 DUP3 DUP10 ADD PUSH2 0x1773 JUMP JUMPDEST SWAP4 POP POP PUSH1 0x60 DUP7 ADD CALLDATALOAD PUSH8 0xFFFFFFFFFFFFFFFF DUP2 GT ISZERO PUSH2 0x1973 JUMPI PUSH2 0x1972 PUSH2 0x2401 JUMP JUMPDEST JUMPDEST PUSH2 0x197F DUP9 DUP3 DUP10 ADD PUSH2 0x1773 JUMP JUMPDEST SWAP3 POP POP PUSH1 0x80 DUP7 ADD CALLDATALOAD PUSH8 0xFFFFFFFFFFFFFFFF DUP2 GT ISZERO PUSH2 0x19A0 JUMPI PUSH2 0x199F PUSH2 0x2401 JUMP JUMPDEST JUMPDEST PUSH2 0x19AC DUP9 DUP3 DUP10 ADD PUSH2 0x17CB JUMP JUMPDEST SWAP2 POP POP SWAP3 SWAP6 POP SWAP3 SWAP6 SWAP1 SWAP4 POP JUMP JUMPDEST PUSH1 0x0 DUP1 PUSH1 0x0 DUP1 PUSH1 0x0 PUSH1 0xA0 DUP7 DUP9 SUB SLT ISZERO PUSH2 0x19D5 JUMPI PUSH2 0x19D4 PUSH2 0x2406 JUMP JUMPDEST JUMPDEST PUSH1 0x0 PUSH2 0x19E3 DUP9 DUP3 DUP10 ADD PUSH2 0x175E JUMP JUMPDEST SWAP6 POP POP PUSH1 0x20 PUSH2 0x19F4 DUP9 DUP3 DUP10 ADD PUSH2 0x175E JUMP JUMPDEST SWAP5 POP POP PUSH1 0x40 PUSH2 0x1A05 DUP9 DUP3 DUP10 ADD PUSH2 0x1893 JUMP JUMPDEST SWAP4 POP POP PUSH1 0x60 PUSH2 0x1A16 DUP9 DUP3 DUP10 ADD PUSH2 0x1893 JUMP JUMPDEST SWAP3 POP POP PUSH1 0x80 DUP7 ADD CALLDATALOAD PUSH8 0xFFFFFFFFFFFFFFFF DUP2 GT ISZERO PUSH2 0x1A37 JUMPI PUSH2 0x1A36 PUSH2 0x2401 JUMP JUMPDEST JUMPDEST PUSH2 0x1A43 DUP9 DUP3 DUP10 ADD PUSH2 0x17CB JUMP JUMPDEST SWAP2 POP POP SWAP3 SWAP6 POP SWAP3 SWAP6 SWAP1 SWAP4 POP JUMP JUMPDEST PUSH1 0x0 PUSH1 0x20 DUP3 DUP5 SUB SLT ISZERO PUSH2 0x1A66 JUMPI PUSH2 0x1A65 PUSH2 0x2406 JUMP JUMPDEST JUMPDEST PUSH1 0x0 PUSH2 0x1A74 DUP5 DUP3 DUP6 ADD PUSH2 0x17A1 JUMP JUMPDEST SWAP2 POP POP SWAP3 SWAP2 POP POP JUMP JUMPDEST PUSH1 0x0 PUSH1 0x20 DUP3 DUP5 SUB SLT ISZERO PUSH2 0x1A93 JUMPI PUSH2 0x1A92 PUSH2 0x2406 JUMP JUMPDEST JUMPDEST PUSH1 0x0 PUSH2 0x1AA1 DUP5 DUP3 DUP6 ADD PUSH2 0x17B6 JUMP JUMPDEST SWAP2 POP POP SWAP3 SWAP2 POP POP JUMP JUMPDEST PUSH1 0x0 PUSH1 0x20 DUP3 DUP5 SUB SLT ISZERO PUSH2 0x1AC0 JUMPI PUSH2 0x1ABF PUSH2 0x2406 JUMP JUMPDEST JUMPDEST PUSH1 0x0 DUP3 ADD MLOAD PUSH8 0xFFFFFFFFFFFFFFFF DUP2 GT ISZERO PUSH2 0x1ADE JUMPI PUSH2 0x1ADD PUSH2 0x2401 JUMP JUMPDEST JUMPDEST PUSH2 0x1AEA DUP5 DUP3 DUP6 ADD PUSH2 0x1827 JUMP JUMPDEST SWAP2 POP POP SWAP3 SWAP2 POP POP JUMP JUMPDEST PUSH1 0x0 PUSH1 0x20 DUP3 DUP5 SUB SLT ISZERO PUSH2 0x1B09 JUMPI PUSH2 0x1B08 PUSH2 0x2406 JUMP JUMPDEST JUMPDEST PUSH1 0x0 PUSH2 0x1B17 DUP5 DUP3 DUP6 ADD PUSH2 0x1893 JUMP JUMPDEST SWAP2 POP POP SWAP3 SWAP2 POP POP JUMP JUMPDEST PUSH1 0x0 PUSH1 0x20 DUP3 DUP5 SUB SLT ISZERO PUSH2 0x1B36 JUMPI PUSH2 0x1B35 PUSH2 0x2406 JUMP JUMPDEST JUMPDEST PUSH1 0x0 PUSH2 0x1B44 DUP5 DUP3 DUP6 ADD PUSH2 0x18A8 JUMP JUMPDEST SWAP2 POP POP SWAP3 SWAP2 POP POP JUMP JUMPDEST PUSH1 0x0 DUP1 PUSH1 0x40 DUP4 DUP6 SUB SLT ISZERO PUSH2 0x1B64 JUMPI PUSH2 0x1B63 PUSH2 0x2406 JUMP JUMPDEST JUMPDEST PUSH1 0x0 PUSH2 0x1B72 DUP6 DUP3 DUP7 ADD PUSH2 0x1893 JUMP JUMPDEST SWAP3 POP POP PUSH1 0x20 PUSH2 0x1B83 DUP6 DUP3 DUP7 ADD PUSH2 0x1893 JUMP JUMPDEST SWAP2 POP POP SWAP3 POP SWAP3 SWAP1 POP JUMP JUMPDEST PUSH2 0x1B96 DUP2 PUSH2 0x226A JUMP JUMPDEST DUP3 MSTORE POP POP JUMP JUMPDEST PUSH2 0x1BA5 DUP2 PUSH2 0x227C JUMP JUMPDEST DUP3 MSTORE POP POP JUMP JUMPDEST PUSH2 0x1BB4 DUP2 PUSH2 0x2288 JUMP JUMPDEST DUP3 MSTORE POP POP JUMP JUMPDEST PUSH2 0x1BC3 DUP2 PUSH2 0x2292 JUMP JUMPDEST DUP3 MSTORE POP POP JUMP JUMPDEST PUSH1 0x0 PUSH2 0x1BD6 PUSH1 0x14 DUP4 PUSH2 0x2203 JUMP JUMPDEST SWAP2 POP PUSH2 0x1BE1 DUP3 PUSH2 0x241C JUMP JUMPDEST PUSH1 0x20 DUP3 ADD SWAP1 POP SWAP2 SWAP1 POP JUMP JUMPDEST PUSH1 0x0 PUSH2 0x1BF9 PUSH1 0x26 DUP4 PUSH2 0x2203 JUMP JUMPDEST SWAP2 POP PUSH2 0x1C04 DUP3 PUSH2 0x2445 JUMP JUMPDEST PUSH1 0x40 DUP3 ADD SWAP1 POP SWAP2 SWAP1 POP JUMP JUMPDEST PUSH1 0x0 PUSH2 0x1C1C PUSH1 0x2C DUP4 PUSH2 0x2203 JUMP JUMPDEST SWAP2 POP PUSH2 0x1C27 DUP3 PUSH2 0x2494 JUMP JUMPDEST PUSH1 0x40 DUP3 ADD SWAP1 POP SWAP2 SWAP1 POP JUMP JUMPDEST PUSH1 0x0 PUSH2 0x1C3F PUSH1 0x1F DUP4 PUSH2 0x2203 JUMP JUMPDEST SWAP2 POP PUSH2 0x1C4A DUP3 PUSH2 0x24E3 JUMP JUMPDEST PUSH1 0x20 DUP3 ADD SWAP1 POP SWAP2 SWAP1 POP JUMP JUMPDEST PUSH1 0x0 PUSH2 0x1C62 PUSH1 0x10 DUP4 PUSH2 0x2203 JUMP JUMPDEST SWAP2 POP PUSH2 0x1C6D DUP3 PUSH2 0x250C JUMP JUMPDEST PUSH1 0x20 DUP3 ADD SWAP1 POP SWAP2 SWAP1 POP JUMP JUMPDEST PUSH1 0x0 PUSH2 0x1C85 PUSH1 0x26 DUP4 PUSH2 0x2203 JUMP JUMPDEST SWAP2 POP PUSH2 0x1C90 DUP3 PUSH2 0x2535 JUMP JUMPDEST PUSH1 0x40 DUP3 ADD SWAP1 POP SWAP2 SWAP1 POP JUMP JUMPDEST PUSH1 0x0 PUSH2 0x1CA8 PUSH1 0x28 DUP4 PUSH2 0x2203 JUMP JUMPDEST SWAP2 POP PUSH2 0x1CB3 DUP3 PUSH2 0x2584 JUMP JUMPDEST PUSH1 0x40 DUP3 ADD SWAP1 POP SWAP2 SWAP1 POP JUMP JUMPDEST PUSH1 0x0 PUSH2 0x1CCB PUSH1 0x2E DUP4 PUSH2 0x2203 JUMP JUMPDEST SWAP2 POP PUSH2 0x1CD6 DUP3 PUSH2 0x25D3 JUMP JUMPDEST PUSH1 0x40 DUP3 ADD SWAP1 POP SWAP2 SWAP1 POP JUMP JUMPDEST PUSH1 0x0 PUSH2 0x1CEE PUSH1 0x19 DUP4 PUSH2 0x2203 JUMP JUMPDEST SWAP2 POP PUSH2 0x1CF9 DUP3 PUSH2 0x2622 JUMP JUMPDEST PUSH1 0x20 DUP3 ADD SWAP1 POP SWAP2 SWAP1 POP JUMP JUMPDEST PUSH1 0x0 PUSH2 0x1D11 PUSH1 0x20 DUP4 PUSH2 0x2203 JUMP JUMPDEST SWAP2 POP PUSH2 0x1D1C DUP3 PUSH2 0x264B JUMP JUMPDEST PUSH1 0x20 DUP3 ADD SWAP1 POP SWAP2 SWAP1 POP JUMP JUMPDEST PUSH1 0x0 PUSH2 0x1D34 PUSH1 0x0 DUP4 PUSH2 0x21F2 JUMP JUMPDEST SWAP2 POP PUSH2 0x1D3F DUP3 PUSH2 0x2674 JUMP JUMPDEST PUSH1 0x0 DUP3 ADD SWAP1 POP SWAP2 SWAP1 POP JUMP JUMPDEST PUSH1 0x0 PUSH2 0x1D57 PUSH1 0x1F DUP4 PUSH2 0x2203 JUMP JUMPDEST SWAP2 POP PUSH2 0x1D62 DUP3 PUSH2 0x2677 JUMP JUMPDEST PUSH1 0x20 DUP3 ADD SWAP1 POP SWAP2 SWAP1 POP JUMP JUMPDEST PUSH2 0x1D76 DUP2 PUSH2 0x22DE JUMP JUMPDEST DUP3 MSTORE POP POP JUMP JUMPDEST PUSH1 0x0 PUSH1 0x20 DUP3 ADD SWAP1 POP PUSH2 0x1D91 PUSH1 0x0 DUP4 ADD DUP5 PUSH2 0x1B8D JUMP JUMPDEST SWAP3 SWAP2 POP POP JUMP JUMPDEST PUSH1 0x0 PUSH1 0xA0 DUP3 ADD SWAP1 POP PUSH2 0x1DAC PUSH1 0x0 DUP4 ADD DUP8 PUSH2 0x1B8D JUMP JUMPDEST PUSH2 0x1DB9 PUSH1 0x20 DUP4 ADD DUP7 PUSH2 0x1B8D JUMP JUMPDEST PUSH2 0x1DC6 PUSH1 0x40 DUP4 ADD DUP6 PUSH2 0x1D6D JUMP JUMPDEST PUSH2 0x1DD3 PUSH1 0x60 DUP4 ADD DUP5 PUSH2 0x1D6D JUMP JUMPDEST DUP2 DUP2 SUB PUSH1 0x80 DUP4 ADD MSTORE PUSH2 0x1DE4 DUP2 PUSH2 0x1D27 JUMP JUMPDEST SWAP1 POP SWAP6 SWAP5 POP POP POP POP POP JUMP JUMPDEST PUSH1 0x0 PUSH1 0x40 DUP3 ADD SWAP1 POP PUSH2 0x1E04 PUSH1 0x0 DUP4 ADD DUP6 PUSH2 0x1B8D JUMP JUMPDEST PUSH2 0x1E11 PUSH1 0x20 DUP4 ADD DUP5 PUSH2 0x1D6D JUMP JUMPDEST SWAP4 SWAP3 POP POP POP JUMP JUMPDEST PUSH1 0x0 PUSH1 0x20 DUP3 ADD SWAP1 POP PUSH2 0x1E2D PUSH1 0x0 DUP4 ADD DUP5 PUSH2 0x1B9C JUMP JUMPDEST SWAP3 SWAP2 POP POP JUMP JUMPDEST PUSH1 0x0 PUSH1 0x40 DUP3 ADD SWAP1 POP PUSH2 0x1E48 PUSH1 0x0 DUP4 ADD DUP6 PUSH2 0x1BAB JUMP JUMPDEST PUSH2 0x1E55 PUSH1 0x20 DUP4 ADD DUP5 PUSH2 0x1B8D JUMP JUMPDEST SWAP4 SWAP3 POP POP POP JUMP JUMPDEST PUSH1 0x0 PUSH1 0x20 DUP3 ADD SWAP1 POP PUSH2 0x1E71 PUSH1 0x0 DUP4 ADD DUP5 PUSH2 0x1BBA JUMP JUMPDEST SWAP3 SWAP2 POP POP JUMP JUMPDEST PUSH1 0x0 PUSH1 0x20 DUP3 ADD SWAP1 POP DUP2 DUP2 SUB PUSH1 0x0 DUP4 ADD MSTORE PUSH2 0x1E90 DUP2 PUSH2 0x1BC9 JUMP JUMPDEST SWAP1 POP SWAP2 SWAP1 POP JUMP JUMPDEST PUSH1 0x0 PUSH1 0x20 DUP3 ADD SWAP1 POP DUP2 DUP2 SUB PUSH1 0x0 DUP4 ADD MSTORE PUSH2 0x1EB0 DUP2 PUSH2 0x1BEC JUMP JUMPDEST SWAP1 POP SWAP2 SWAP1 POP JUMP JUMPDEST PUSH1 0x0 PUSH1 0x20 DUP3 ADD SWAP1 POP DUP2 DUP2 SUB PUSH1 0x0 DUP4 ADD MSTORE PUSH2 0x1ED0 DUP2 PUSH2 0x1C0F JUMP JUMPDEST SWAP1 POP SWAP2 SWAP1 POP JUMP JUMPDEST PUSH1 0x0 PUSH1 0x20 DUP3 ADD SWAP1 POP DUP2 DUP2 SUB PUSH1 0x0 DUP4 ADD MSTORE PUSH2 0x1EF0 DUP2 PUSH2 0x1C32 JUMP JUMPDEST SWAP1 POP SWAP2 SWAP1 POP JUMP JUMPDEST PUSH1 0x0 PUSH1 0x20 DUP3 ADD SWAP1 POP DUP2 DUP2 SUB PUSH1 0x0 DUP4 ADD MSTORE PUSH2 0x1F10 DUP2 PUSH2 0x1C55 JUMP JUMPDEST SWAP1 POP SWAP2 SWAP1 POP JUMP JUMPDEST PUSH1 0x0 PUSH1 0x20 DUP3 ADD SWAP1 POP DUP2 DUP2 SUB PUSH1 0x0 DUP4 ADD MSTORE PUSH2 0x1F30 DUP2 PUSH2 0x1C78 JUMP JUMPDEST SWAP1 POP SWAP2 SWAP1 POP JUMP JUMPDEST PUSH1 0x0 PUSH1 0x20 DUP3 ADD SWAP1 POP DUP2 DUP2 SUB PUSH1 0x0 DUP4 ADD MSTORE PUSH2 0x1F50 DUP2 PUSH2 0x1C9B JUMP JUMPDEST SWAP1 POP SWAP2 SWAP1 POP JUMP JUMPDEST PUSH1 0x0 PUSH1 0x20 DUP3 ADD SWAP1 POP DUP2 DUP2 SUB PUSH1 0x0 DUP4 ADD MSTORE PUSH2 0x1F70 DUP2 PUSH2 0x1CBE JUMP JUMPDEST SWAP1 POP SWAP2 SWAP1 POP JUMP JUMPDEST PUSH1 0x0 PUSH1 0x20 DUP3 ADD SWAP1 POP DUP2 DUP2 SUB PUSH1 0x0 DUP4 ADD MSTORE PUSH2 0x1F90 DUP2 PUSH2 0x1CE1 JUMP JUMPDEST SWAP1 POP SWAP2 SWAP1 POP JUMP JUMPDEST PUSH1 0x0 PUSH1 0x20 DUP3 ADD SWAP1 POP DUP2 DUP2 SUB PUSH1 0x0 DUP4 ADD MSTORE PUSH2 0x1FB0 DUP2 PUSH2 0x1D04 JUMP JUMPDEST SWAP1 POP SWAP2 SWAP1 POP JUMP JUMPDEST PUSH1 0x0 PUSH1 0x20 DUP3 ADD SWAP1 POP DUP2 DUP2 SUB PUSH1 0x0 DUP4 ADD MSTORE PUSH2 0x1FD0 DUP2 PUSH2 0x1D4A JUMP JUMPDEST SWAP1 POP SWAP2 SWAP1 POP JUMP JUMPDEST PUSH1 0x0 PUSH1 0x20 DUP3 ADD SWAP1 POP PUSH2 0x1FEC PUSH1 0x0 DUP4 ADD DUP5 PUSH2 0x1D6D JUMP JUMPDEST SWAP3 SWAP2 POP POP JUMP JUMPDEST PUSH1 0x0 PUSH2 0x100 DUP3 ADD SWAP1 POP PUSH2 0x2008 PUSH1 0x0 DUP4 ADD DUP12 PUSH2 0x1D6D JUMP JUMPDEST PUSH2 0x2015 PUSH1 0x20 DUP4 ADD DUP11 PUSH2 0x1B8D JUMP JUMPDEST PUSH2 0x2022 PUSH1 0x40 DUP4 ADD DUP10 PUSH2 0x1D6D JUMP JUMPDEST PUSH2 0x202F PUSH1 0x60 DUP4 ADD DUP9 PUSH2 0x1D6D JUMP JUMPDEST PUSH2 0x203C PUSH1 0x80 DUP4 ADD DUP8 PUSH2 0x1D6D JUMP JUMPDEST PUSH2 0x2049 PUSH1 0xA0 DUP4 ADD DUP7 PUSH2 0x1D6D JUMP JUMPDEST PUSH2 0x2056 PUSH1 0xC0 DUP4 ADD DUP6 PUSH2 0x1B9C JUMP JUMPDEST PUSH2 0x2063 PUSH1 0xE0 DUP4 ADD DUP5 PUSH2 0x1B9C JUMP JUMPDEST SWAP10 SWAP9 POP POP POP POP POP POP POP POP POP JUMP JUMPDEST PUSH1 0x0 PUSH1 0x40 DUP3 ADD SWAP1 POP PUSH2 0x2085 PUSH1 0x0 DUP4 ADD DUP6 PUSH2 0x1D6D JUMP JUMPDEST PUSH2 0x2092 PUSH1 0x20 DUP4 ADD DUP5 PUSH2 0x1D6D JUMP JUMPDEST SWAP4 SWAP3 POP POP POP JUMP JUMPDEST PUSH1 0x0 PUSH1 0x80 DUP3 ADD SWAP1 POP PUSH2 0x20AE PUSH1 0x0 DUP4 ADD DUP8 PUSH2 0x1D6D JUMP JUMPDEST PUSH2 0x20BB PUSH1 0x20 DUP4 ADD DUP7 PUSH2 0x1D6D JUMP JUMPDEST PUSH2 0x20C8 PUSH1 0x40 DUP4 ADD DUP6 PUSH2 0x1D6D JUMP JUMPDEST PUSH2 0x20D5 PUSH1 0x60 DUP4 ADD DUP5 PUSH2 0x1B8D JUMP JUMPDEST SWAP6 SWAP5 POP POP POP POP POP JUMP JUMPDEST PUSH1 0x0 PUSH1 0xC0 DUP3 ADD SWAP1 POP PUSH2 0x20F3 PUSH1 0x0 DUP4 ADD DUP10 PUSH2 0x1D6D JUMP JUMPDEST PUSH2 0x2100 PUSH1 0x20 DUP4 ADD DUP9 PUSH2 0x1D6D JUMP JUMPDEST PUSH2 0x210D PUSH1 0x40 DUP4 ADD DUP8 PUSH2 0x1D6D JUMP JUMPDEST PUSH2 0x211A PUSH1 0x60 DUP4 ADD DUP7 PUSH2 0x1D6D JUMP JUMPDEST PUSH2 0x2127 PUSH1 0x80 DUP4 ADD DUP6 PUSH2 0x1B8D JUMP JUMPDEST PUSH2 0x2134 PUSH1 0xA0 DUP4 ADD DUP5 PUSH2 0x1B9C JUMP JUMPDEST SWAP8 SWAP7 POP POP POP POP POP POP POP JUMP JUMPDEST PUSH1 0x0 PUSH2 0x2149 PUSH2 0x215A JUMP JUMPDEST SWAP1 POP PUSH2 0x2155 DUP3 DUP3 PUSH2 0x232A JUMP JUMPDEST SWAP2 SWAP1 POP JUMP JUMPDEST PUSH1 0x0 PUSH1 0x40 MLOAD SWAP1 POP SWAP1 JUMP JUMPDEST PUSH1 0x0 PUSH8 0xFFFFFFFFFFFFFFFF DUP3 GT ISZERO PUSH2 0x217F JUMPI PUSH2 0x217E PUSH2 0x23B9 JUMP JUMPDEST JUMPDEST PUSH1 0x20 DUP3 MUL SWAP1 POP PUSH1 0x20 DUP2 ADD SWAP1 POP SWAP2 SWAP1 POP JUMP JUMPDEST PUSH1 0x0 PUSH8 0xFFFFFFFFFFFFFFFF DUP3 GT ISZERO PUSH2 0x21AB JUMPI PUSH2 0x21AA PUSH2 0x23B9 JUMP JUMPDEST JUMPDEST PUSH2 0x21B4 DUP3 PUSH2 0x240B JUMP JUMPDEST SWAP1 POP PUSH1 0x20 DUP2 ADD SWAP1 POP SWAP2 SWAP1 POP JUMP JUMPDEST PUSH1 0x0 PUSH8 0xFFFFFFFFFFFFFFFF DUP3 GT ISZERO PUSH2 0x21DC JUMPI PUSH2 0x21DB PUSH2 0x23B9 JUMP JUMPDEST JUMPDEST PUSH2 0x21E5 DUP3 PUSH2 0x240B JUMP JUMPDEST SWAP1 POP PUSH1 0x20 DUP2 ADD SWAP1 POP SWAP2 SWAP1 POP JUMP JUMPDEST PUSH1 0x0 DUP3 DUP3 MSTORE PUSH1 0x20 DUP3 ADD SWAP1 POP SWAP3 SWAP2 POP POP JUMP JUMPDEST PUSH1 0x0 DUP3 DUP3 MSTORE PUSH1 0x20 DUP3 ADD SWAP1 POP SWAP3 SWAP2 POP POP JUMP JUMPDEST PUSH1 0x0 PUSH2 0x221F DUP3 PUSH2 0x22DE JUMP JUMPDEST SWAP2 POP PUSH2 0x222A DUP4 PUSH2 0x22DE JUMP JUMPDEST SWAP3 POP DUP3 PUSH32 0xFFFFFFFFFFFFFFFFFFFFFFFFFFFFFFFFFFFFFFFFFFFFFFFFFFFFFFFFFFFFFFFF SUB DUP3 GT ISZERO PUSH2 0x225F JUMPI PUSH2 0x225E PUSH2 0x235B JUMP JUMPDEST JUMPDEST DUP3 DUP3 ADD SWAP1 POP SWAP3 SWAP2 POP POP JUMP JUMPDEST PUSH1 0x0 PUSH2 0x2275 DUP3 PUSH2 0x22BE JUMP JUMPDEST SWAP1 POP SWAP2 SWAP1 POP JUMP JUMPDEST PUSH1 0x0 DUP2 ISZERO ISZERO SWAP1 POP SWAP2 SWAP1 POP JUMP JUMPDEST PUSH1 0x0 DUP2 SWAP1 POP SWAP2 SWAP1 POP JUMP JUMPDEST PUSH1 0x0 PUSH32 0xFFFFFFFF00000000000000000000000000000000000000000000000000000000 DUP3 AND SWAP1 POP SWAP2 SWAP1 POP JUMP JUMPDEST PUSH1 0x0 PUSH20 0xFFFFFFFFFFFFFFFFFFFFFFFFFFFFFFFFFFFFFFFF DUP3 AND SWAP1 POP SWAP2 SWAP1 POP JUMP JUMPDEST PUSH1 0x0 DUP2 SWAP1 POP SWAP2 SWAP1 POP JUMP JUMPDEST DUP3 DUP2 DUP4 CALLDATACOPY PUSH1 0x0 DUP4 DUP4 ADD MSTORE POP POP POP JUMP JUMPDEST PUSH1 0x0 JUMPDEST DUP4 DUP2 LT ISZERO PUSH2 0x2315 JUMPI DUP1 DUP3 ADD MLOAD DUP2 DUP5 ADD MSTORE PUSH1 0x20 DUP2 ADD SWAP1 POP PUSH2 0x22FA JUMP JUMPDEST DUP4 DUP2 GT ISZERO PUSH2 0x2324 JUMPI PUSH1 0x0 DUP5 DUP5 ADD MSTORE JUMPDEST POP POP POP POP JUMP JUMPDEST PUSH2 0x2333 DUP3 PUSH2 0x240B JUMP JUMPDEST DUP2 ADD DUP2 DUP2 LT PUSH8 0xFFFFFFFFFFFFFFFF DUP3 GT OR ISZERO PUSH2 0x2352 JUMPI PUSH2 0x2351 PUSH2 0x23B9 JUMP JUMPDEST JUMPDEST DUP1 PUSH1 0x40 MSTORE POP POP POP JUMP JUMPDEST PUSH32 0x4E487B7100000000000000000000000000000000000000000000000000000000 PUSH1 0x0 MSTORE PUSH1 0x11 PUSH1 0x4 MSTORE PUSH1 0x24 PUSH1 0x0 REVERT JUMPDEST PUSH32 0x4E487B7100000000000000000000000000000000000000000000000000000000 PUSH1 0x0 MSTORE PUSH1 0x32 PUSH1 0x4 MSTORE PUSH1 0x24 PUSH1 0x0 REVERT JUMPDEST PUSH32 0x4E487B7100000000000000000000000000000000000000000000000000000000 PUSH1 0x0 MSTORE PUSH1 0x41 PUSH1 0x4 MSTORE PUSH1 0x24 PUSH1 0x0 REVERT JUMPDEST PUSH1 0x0 DUP1 REVERT JUMPDEST PUSH1 0x0 DUP1 REVERT JUMPDEST PUSH1 0x0 DUP1 REVERT JUMPDEST PUSH1 0x0 DUP1 REVERT JUMPDEST PUSH1 0x0 DUP1 REVERT JUMPDEST PUSH1 0x0 DUP1 REVERT JUMPDEST PUSH1 0x0 DUP1 REVERT JUMPDEST PUSH1 0x0 PUSH1 0x1F NOT PUSH1 0x1F DUP4 ADD AND SWAP1 POP SWAP2 SWAP1 POP JUMP JUMPDEST PUSH32 0x5061757361626C653A206E6F7420706175736564000000000000000000000000 PUSH1 0x0 DUP3 ADD MSTORE POP JUMP JUMPDEST PUSH32 0x4F776E61626C653A206E6577206F776E657220697320746865207A65726F2061 PUSH1 0x0 DUP3 ADD MSTORE PUSH32 0x6464726573730000000000000000000000000000000000000000000000000000 PUSH1 0x20 DUP3 ADD MSTORE POP JUMP JUMPDEST PUSH32 0x4163746976654E46543A2042616C616E6365206F66206974656D73206C657373 PUSH1 0x0 DUP3 ADD MSTORE PUSH32 0x207468616E20616D6F756E740000000000000000000000000000000000000000 PUSH1 0x20 DUP3 ADD MSTORE POP JUMP JUMPDEST PUSH32 0x4163746976654E46543A204E6F74206F776E6572206F66207265717565737400 PUSH1 0x0 DUP3 ADD MSTORE POP JUMP JUMPDEST PUSH32 0x5061757361626C653A2070617573656400000000000000000000000000000000 PUSH1 0x0 DUP3 ADD MSTORE POP JUMP JUMPDEST PUSH32 0x4163746976654E46543A20616374697665496E666F206973206E6F7420726571 PUSH1 0x0 DUP3 ADD MSTORE PUSH32 0x7565737465640000000000000000000000000000000000000000000000000000 PUSH1 0x20 DUP3 ADD MSTORE POP JUMP JUMPDEST PUSH32 0x4163746976654E46543A20616374697665496E666F20697320616C7265616479 PUSH1 0x0 DUP3 ADD MSTORE PUSH32 0x2061637469766564000000000000000000000000000000000000000000000000 PUSH1 0x20 DUP3 ADD MSTORE POP JUMP JUMPDEST PUSH32 0x4D61726B6574706C6163653A204F6E6C792061646D696E2063616E2063616C6C PUSH1 0x0 DUP3 ADD MSTORE PUSH32 0x20746869732066756E6374696F6E000000000000000000000000000000000000 PUSH1 0x20 DUP3 ADD MSTORE POP JUMP JUMPDEST PUSH32 0x4163746976654E46543A20616D6F756E74206973207A65726F00000000000000 PUSH1 0x0 DUP3 ADD MSTORE POP JUMP JUMPDEST PUSH32 0x4F776E61626C653A2063616C6C6572206973206E6F7420746865206F776E6572 PUSH1 0x0 DUP3 ADD MSTORE POP JUMP JUMPDEST POP JUMP JUMPDEST PUSH32 0x5265656E7472616E637947756172643A207265656E7472616E742063616C6C00 PUSH1 0x0 DUP3 ADD MSTORE POP JUMP JUMPDEST PUSH2 0x26A9 DUP2 PUSH2 0x226A JUMP JUMPDEST DUP2 EQ PUSH2 0x26B4 JUMPI PUSH1 0x0 DUP1 REVERT JUMPDEST POP JUMP JUMPDEST PUSH2 0x26C0 DUP2 PUSH2 0x227C JUMP JUMPDEST DUP2 EQ PUSH2 0x26CB JUMPI PUSH1 0x0 DUP1 REVERT JUMPDEST POP JUMP JUMPDEST PUSH2 0x26D7 DUP2 PUSH2 0x2292 JUMP JUMPDEST DUP2 EQ PUSH2 0x26E2 JUMPI PUSH1 0x0 DUP1 REVERT JUMPDEST POP JUMP JUMPDEST PUSH2 0x26EE DUP2 PUSH2 0x22DE JUMP JUMPDEST DUP2 EQ PUSH2 0x26F9 JUMPI PUSH1 0x0 DUP1 REVERT JUMPDEST POP JUMP INVALID LOG2 PUSH5 0x6970667358 0x22 SLT KECCAK256 DIFFICULTY 0xBD 0xB4 0x2A 0x4A 0xB9 0xE0 0xC9 0xB9 NOT 0xA9 0xDF 0xC2 0xCF SLOAD 0x1E 0xB3 GASPRICE 0xB2 PUSH11 0x7DDAF88D561EF8EFCBBF24 DELEGATECALL PUSH5 0x736F6C6343 STOP ADDMOD SMOD STOP CALLER "
		},
		"gasEstimates": {
			"creation": {
				"codeDepositCost": "2006800",
				"executionCost": "infinite",
				"totalCost": "infinite"
			},
			"external": {
				"CancelRequestActiveNFT(uint256)": "infinite",
				"UITNFT()": "infinite",
				"accessControl()": "2560",
				"activeInfoList(uint256)": "infinite",
				"activeNFT(uint256)": "infinite",
				"onERC1155BatchReceived(address,address,uint256[],uint256[],bytes)": "infinite",
				"onERC1155Received(address,address,uint256,uint256,bytes)": "infinite",
				"owner()": "2661",
				"pause()": "infinite",
				"paused()": "2546",
				"renounceOwnership()": "30613",
				"requestActiveNFT(uint256,uint256)": "infinite",
				"setAccessControl(address)": "27080",
				"supportsInterface(bytes4)": "751",
				"transferOwnership(address)": "30961",
				"unpause()": "infinite"
			}
		},
		"methodIdentifiers": {
			"CancelRequestActiveNFT(uint256)": "7d3e9b49",
			"UITNFT()": "3b88699b",
			"accessControl()": "13007d55",
			"activeInfoList(uint256)": "316aa132",
			"activeNFT(uint256)": "ab2cb64c",
			"onERC1155BatchReceived(address,address,uint256[],uint256[],bytes)": "bc197c81",
			"onERC1155Received(address,address,uint256,uint256,bytes)": "f23a6e61",
			"owner()": "8da5cb5b",
			"pause()": "8456cb59",
			"paused()": "5c975abb",
			"renounceOwnership()": "715018a6",
			"requestActiveNFT(uint256,uint256)": "7e707f86",
			"setAccessControl(address)": "19129e5a",
			"supportsInterface(bytes4)": "01ffc9a7",
			"transferOwnership(address)": "f2fde38b",
			"unpause()": "3f4ba83a"
		}
	},
	"abi": [
		{
			"inputs": [
				{
					"internalType": "address",
					"name": "_accessControl",
					"type": "address"
				},
				{
					"internalType": "address",
					"name": "_UITNFT",
					"type": "address"
				}
			],
			"stateMutability": "nonpayable",
			"type": "constructor"
		},
		{
			"anonymous": false,
			"inputs": [
				{
					"indexed": false,
					"internalType": "uint256",
					"name": "_activeId",
					"type": "uint256"
				},
				{
					"indexed": false,
					"internalType": "uint256",
					"name": "_cancelRequestTime",
					"type": "uint256"
				}
			],
			"name": "ActiveNFTRequestCanceled",
			"type": "event"
		},
		{
			"anonymous": false,
			"inputs": [
				{
					"indexed": false,
					"internalType": "uint256",
					"name": "_itemId",
					"type": "uint256"
				},
				{
					"indexed": false,
					"internalType": "uint256",
					"name": "_amount",
					"type": "uint256"
				},
				{
					"indexed": false,
					"internalType": "uint256",
					"name": "_requestedTime",
					"type": "uint256"
				},
				{
					"indexed": false,
					"internalType": "address",
					"name": "_owner",
					"type": "address"
				}
			],
			"name": "ActiveNFTRequested",
			"type": "event"
		},
		{
			"anonymous": false,
			"inputs": [
				{
					"indexed": false,
					"internalType": "uint256",
					"name": "_activeId",
					"type": "uint256"
				},
				{
					"indexed": false,
					"internalType": "uint256",
					"name": "_itemId",
					"type": "uint256"
				},
				{
					"indexed": false,
					"internalType": "uint256",
					"name": "_amount",
					"type": "uint256"
				},
				{
					"indexed": false,
					"internalType": "uint256",
					"name": "_activedTime",
					"type": "uint256"
				},
				{
					"indexed": false,
					"internalType": "address",
					"name": "_owner",
					"type": "address"
				},
				{
					"indexed": false,
					"internalType": "bool",
					"name": "_isCourseNFT",
					"type": "bool"
				}
			],
			"name": "NFTActived",
			"type": "event"
		},
		{
			"anonymous": false,
			"inputs": [
				{
					"indexed": true,
					"internalType": "address",
					"name": "previousOwner",
					"type": "address"
				},
				{
					"indexed": true,
					"internalType": "address",
					"name": "newOwner",
					"type": "address"
				}
			],
			"name": "OwnershipTransferred",
			"type": "event"
		},
		{
			"anonymous": false,
			"inputs": [
				{
					"indexed": false,
					"internalType": "address",
					"name": "account",
					"type": "address"
				}
			],
			"name": "Paused",
			"type": "event"
		},
		{
			"anonymous": false,
			"inputs": [
				{
					"indexed": false,
					"internalType": "address",
					"name": "account",
					"type": "address"
				}
			],
			"name": "Unpaused",
			"type": "event"
		},
		{
			"inputs": [
				{
					"internalType": "uint256",
					"name": "_activeId",
					"type": "uint256"
				}
			],
			"name": "CancelRequestActiveNFT",
			"outputs": [],
			"stateMutability": "nonpayable",
			"type": "function"
		},
		{
			"inputs": [],
			"name": "UITNFT",
			"outputs": [
				{
					"internalType": "address",
					"name": "",
					"type": "address"
				}
			],
			"stateMutability": "view",
			"type": "function"
		},
		{
			"inputs": [],
			"name": "accessControl",
			"outputs": [
				{
					"internalType": "address",
					"name": "",
					"type": "address"
				}
			],
			"stateMutability": "view",
			"type": "function"
		},
		{
			"inputs": [
				{
					"internalType": "uint256",
					"name": "",
					"type": "uint256"
				}
			],
			"name": "activeInfoList",
			"outputs": [
				{
					"internalType": "uint256",
					"name": "activeId",
					"type": "uint256"
				},
				{
					"internalType": "address",
					"name": "ownerOfRequest",
					"type": "address"
				},
				{
					"internalType": "uint256",
					"name": "itemId",
					"type": "uint256"
				},
				{
					"internalType": "uint256",
					"name": "amount",
					"type": "uint256"
				},
				{
					"internalType": "uint256",
					"name": "requestedTime",
					"type": "uint256"
				},
				{
					"internalType": "uint256",
					"name": "activedTime",
					"type": "uint256"
				},
				{
					"internalType": "bool",
					"name": "isRequested",
					"type": "bool"
				},
				{
					"internalType": "bool",
					"name": "isActive",
					"type": "bool"
				}
			],
			"stateMutability": "view",
			"type": "function"
		},
		{
			"inputs": [
				{
					"internalType": "uint256",
					"name": "_activeId",
					"type": "uint256"
				}
			],
			"name": "activeNFT",
			"outputs": [],
			"stateMutability": "nonpayable",
			"type": "function"
		},
		{
			"inputs": [
				{
					"internalType": "address",
					"name": "",
					"type": "address"
				},
				{
					"internalType": "address",
					"name": "",
					"type": "address"
				},
				{
					"internalType": "uint256[]",
					"name": "",
					"type": "uint256[]"
				},
				{
					"internalType": "uint256[]",
					"name": "",
					"type": "uint256[]"
				},
				{
					"internalType": "bytes",
					"name": "",
					"type": "bytes"
				}
			],
			"name": "onERC1155BatchReceived",
			"outputs": [
				{
					"internalType": "bytes4",
					"name": "",
					"type": "bytes4"
				}
			],
			"stateMutability": "nonpayable",
			"type": "function"
		},
		{
			"inputs": [
				{
					"internalType": "address",
					"name": "",
					"type": "address"
				},
				{
					"internalType": "address",
					"name": "",
					"type": "address"
				},
				{
					"internalType": "uint256",
					"name": "",
					"type": "uint256"
				},
				{
					"internalType": "uint256",
					"name": "",
					"type": "uint256"
				},
				{
					"internalType": "bytes",
					"name": "",
					"type": "bytes"
				}
			],
			"name": "onERC1155Received",
			"outputs": [
				{
					"internalType": "bytes4",
					"name": "",
					"type": "bytes4"
				}
			],
			"stateMutability": "nonpayable",
			"type": "function"
		},
		{
			"inputs": [],
			"name": "owner",
			"outputs": [
				{
					"internalType": "address",
					"name": "",
					"type": "address"
				}
			],
			"stateMutability": "view",
			"type": "function"
		},
		{
			"inputs": [],
			"name": "pause",
			"outputs": [],
			"stateMutability": "nonpayable",
			"type": "function"
		},
		{
			"inputs": [],
			"name": "paused",
			"outputs": [
				{
					"internalType": "bool",
					"name": "",
					"type": "bool"
				}
			],
			"stateMutability": "view",
			"type": "function"
		},
		{
			"inputs": [],
			"name": "renounceOwnership",
			"outputs": [],
			"stateMutability": "nonpayable",
			"type": "function"
		},
		{
			"inputs": [
				{
					"internalType": "uint256",
					"name": "_itemId",
					"type": "uint256"
				},
				{
					"internalType": "uint256",
					"name": "_amount",
					"type": "uint256"
				}
			],
			"name": "requestActiveNFT",
			"outputs": [],
			"stateMutability": "nonpayable",
			"type": "function"
		},
		{
			"inputs": [
				{
					"internalType": "address",
					"name": "_accessControl",
					"type": "address"
				}
			],
			"name": "setAccessControl",
			"outputs": [],
			"stateMutability": "nonpayable",
			"type": "function"
		},
		{
			"inputs": [
				{
					"internalType": "bytes4",
					"name": "interfaceId",
					"type": "bytes4"
				}
			],
			"name": "supportsInterface",
			"outputs": [
				{
					"internalType": "bool",
					"name": "",
					"type": "bool"
				}
			],
			"stateMutability": "view",
			"type": "function"
		},
		{
			"inputs": [
				{
					"internalType": "address",
					"name": "newOwner",
					"type": "address"
				}
			],
			"name": "transferOwnership",
			"outputs": [],
			"stateMutability": "nonpayable",
			"type": "function"
		},
		{
			"inputs": [],
			"name": "unpause",
			"outputs": [],
			"stateMutability": "nonpayable",
			"type": "function"
		}
	]
}